{
  "address": "0x1f35A906b5C6c72077eEB36895D966204E878D6b",
  "abi": [
    {
      "inputs": [],
      "name": "InsufficientBalance",
      "type": "error"
    },
    {
      "inputs": [
        {
          "internalType": "string",
          "name": "details",
          "type": "string"
        }
      ],
      "name": "InvalidArgument",
      "type": "error"
    },
    {
      "inputs": [],
      "name": "InvalidState",
      "type": "error"
    },
    {
      "inputs": [],
      "name": "Unauthorized",
      "type": "error"
    },
    {
      "anonymous": false,
      "inputs": [
        {
          "indexed": false,
          "internalType": "address",
          "name": "previousAdmin",
          "type": "address"
        },
        {
          "indexed": false,
          "internalType": "address",
          "name": "newAdmin",
          "type": "address"
        }
      ],
      "name": "AdminChanged",
      "type": "event"
    },
    {
      "anonymous": false,
      "inputs": [
        {
          "indexed": true,
          "internalType": "address",
          "name": "owner",
          "type": "address"
        },
        {
          "indexed": true,
          "internalType": "address",
          "name": "approved",
          "type": "address"
        },
        {
          "indexed": true,
          "internalType": "uint256",
          "name": "tokenId",
          "type": "uint256"
        }
      ],
      "name": "Approval",
      "type": "event"
    },
    {
      "anonymous": false,
      "inputs": [
        {
          "indexed": true,
          "internalType": "address",
          "name": "owner",
          "type": "address"
        },
        {
          "indexed": true,
          "internalType": "address",
          "name": "operator",
          "type": "address"
        },
        {
          "indexed": false,
          "internalType": "bool",
          "name": "approved",
          "type": "bool"
        }
      ],
      "name": "ApprovalForAll",
      "type": "event"
    },
    {
      "anonymous": false,
      "inputs": [
        {
          "indexed": true,
          "internalType": "address",
          "name": "beacon",
          "type": "address"
        }
      ],
      "name": "BeaconUpgraded",
      "type": "event"
    },
    {
      "anonymous": false,
      "inputs": [
        {
          "indexed": false,
          "internalType": "uint256",
          "name": "stakeId",
          "type": "uint256"
        },
        {
          "indexed": false,
          "internalType": "enum ILendingPoolStaking.EscrowStatus",
          "name": "status",
          "type": "uint8"
        }
      ],
      "name": "EscrowStatusChanged",
      "type": "event"
    },
    {
      "anonymous": false,
      "inputs": [],
      "name": "InflationRewardDistributed",
      "type": "event"
    },
    {
      "anonymous": false,
      "inputs": [
        {
          "indexed": false,
          "internalType": "uint8",
          "name": "version",
          "type": "uint8"
        }
      ],
      "name": "Initialized",
      "type": "event"
    },
    {
      "anonymous": false,
      "inputs": [],
      "name": "NonInflationRewardDistributed",
      "type": "event"
    },
    {
      "anonymous": false,
      "inputs": [
        {
          "indexed": true,
          "internalType": "address",
          "name": "previousOwner",
          "type": "address"
        },
        {
          "indexed": true,
          "internalType": "address",
          "name": "newOwner",
          "type": "address"
        }
      ],
      "name": "OwnershipTransferred",
      "type": "event"
    },
    {
      "anonymous": false,
      "inputs": [
        {
          "indexed": false,
          "internalType": "uint256",
          "name": "stakeId",
          "type": "uint256"
        },
        {
          "indexed": false,
          "internalType": "enum ILendingPoolStaking.StakeStatus",
          "name": "status",
          "type": "uint8"
        }
      ],
      "name": "StakeStatusChanged",
      "type": "event"
    },
    {
      "anonymous": false,
      "inputs": [
        {
          "indexed": false,
          "internalType": "uint256",
          "name": "stakeId",
          "type": "uint256"
        },
        {
          "indexed": false,
          "internalType": "address",
          "name": "staker",
          "type": "address"
        },
        {
          "indexed": false,
          "internalType": "address",
          "name": "token",
          "type": "address"
        },
        {
          "indexed": false,
          "internalType": "uint48",
          "name": "start",
          "type": "uint48"
        },
        {
          "indexed": false,
          "internalType": "uint48",
          "name": "end",
          "type": "uint48"
        },
        {
          "indexed": false,
          "internalType": "uint256[3]",
          "name": "amountsPerDuration",
          "type": "uint256[3]"
        },
        {
          "indexed": false,
          "internalType": "bool",
          "name": "isEscrow",
          "type": "bool"
        }
      ],
      "name": "Staked",
      "type": "event"
    },
    {
      "anonymous": false,
      "inputs": [
        {
          "indexed": true,
          "internalType": "address",
          "name": "from",
          "type": "address"
        },
        {
          "indexed": true,
          "internalType": "address",
          "name": "to",
          "type": "address"
        },
        {
          "indexed": true,
          "internalType": "uint256",
          "name": "tokenId",
          "type": "uint256"
        }
      ],
      "name": "Transfer",
      "type": "event"
    },
    {
      "anonymous": false,
      "inputs": [
        {
          "indexed": true,
          "internalType": "address",
          "name": "implementation",
          "type": "address"
        }
      ],
      "name": "Upgraded",
      "type": "event"
    },
    {
      "inputs": [],
      "name": "__MWOwnable_init",
      "outputs": [],
      "stateMutability": "nonpayable",
      "type": "function"
    },
    {
      "inputs": [],
      "name": "__Testing_init",
      "outputs": [],
      "stateMutability": "nonpayable",
      "type": "function"
    },
    {
      "inputs": [
        {
          "internalType": "address",
          "name": "",
          "type": "address"
        }
      ],
      "name": "activeStakeTokens",
      "outputs": [
        {
          "internalType": "bool",
          "name": "",
          "type": "bool"
        }
      ],
      "stateMutability": "view",
      "type": "function"
    },
    {
      "inputs": [
        {
          "internalType": "address",
          "name": "_stakeToken",
          "type": "address"
        }
      ],
      "name": "addStakeToken",
      "outputs": [],
      "stateMutability": "nonpayable",
      "type": "function"
    },
    {
      "inputs": [
        {
          "internalType": "address",
          "name": "to",
          "type": "address"
        },
        {
          "internalType": "uint256",
          "name": "tokenId",
          "type": "uint256"
        }
      ],
      "name": "approve",
      "outputs": [],
      "stateMutability": "nonpayable",
      "type": "function"
    },
    {
      "inputs": [
        {
          "internalType": "address",
          "name": "operator",
          "type": "address"
        },
        {
          "internalType": "string",
          "name": "role",
          "type": "string"
        },
        {
          "internalType": "bool",
          "name": "authorized",
          "type": "bool"
        }
      ],
      "name": "authorize",
      "outputs": [],
      "stateMutability": "nonpayable",
      "type": "function"
    },
    {
      "inputs": [
        {
          "internalType": "address",
          "name": "owner",
          "type": "address"
        }
      ],
      "name": "balanceOf",
      "outputs": [
        {
          "internalType": "uint256",
          "name": "",
          "type": "uint256"
        }
      ],
      "stateMutability": "view",
      "type": "function"
    },
    {
      "inputs": [
        {
          "internalType": "address",
          "name": "_token",
          "type": "address"
        },
        {
          "internalType": "uint256",
          "name": "_amount",
          "type": "uint256"
        },
        {
          "internalType": "uint8",
          "name": "_durationId",
          "type": "uint8"
        }
      ],
      "name": "deposit",
      "outputs": [],
      "stateMutability": "payable",
      "type": "function"
    },
    {
      "inputs": [
        {
          "internalType": "uint256",
          "name": "_inflationReward",
          "type": "uint256"
        }
      ],
      "name": "distributeInflationRewards",
      "outputs": [],
      "stateMutability": "nonpayable",
      "type": "function"
    },
    {
      "inputs": [],
      "name": "distributeNonInflationRewards",
      "outputs": [],
      "stateMutability": "nonpayable",
      "type": "function"
    },
    {
      "inputs": [],
      "name": "escrowLockPeriod",
      "outputs": [
        {
          "internalType": "uint48",
          "name": "",
          "type": "uint48"
        }
      ],
      "stateMutability": "view",
      "type": "function"
    },
    {
      "inputs": [
        {
          "internalType": "uint256",
          "name": "tokenId",
          "type": "uint256"
        }
      ],
      "name": "getApproved",
      "outputs": [
        {
          "internalType": "address",
          "name": "",
          "type": "address"
        }
      ],
      "stateMutability": "view",
      "type": "function"
    },
    {
      "inputs": [],
      "name": "hasPendingNonInflationRewards",
      "outputs": [
        {
          "internalType": "bool",
          "name": "",
          "type": "bool"
        }
      ],
      "stateMutability": "view",
      "type": "function"
    },
    {
      "inputs": [
        {
          "internalType": "address",
          "name": "",
          "type": "address"
        },
        {
          "internalType": "string",
          "name": "",
          "type": "string"
        }
      ],
      "name": "hasRole",
      "outputs": [
        {
          "internalType": "bool",
          "name": "",
          "type": "bool"
        }
      ],
      "stateMutability": "view",
      "type": "function"
    },
    {
      "inputs": [
        {
          "internalType": "address",
          "name": "",
          "type": "address"
        }
      ],
      "name": "inflationRollOver",
      "outputs": [
        {
          "internalType": "uint256",
          "name": "",
          "type": "uint256"
        }
      ],
      "stateMutability": "view",
      "type": "function"
    },
    {
      "inputs": [
        {
          "internalType": "address",
          "name": "_nend",
          "type": "address"
        },
        {
          "internalType": "contract Vault",
          "name": "_lendingPool",
          "type": "address"
        }
      ],
      "name": "initialize",
      "outputs": [],
      "stateMutability": "nonpayable",
      "type": "function"
    },
    {
      "inputs": [
        {
          "internalType": "address",
          "name": "owner",
          "type": "address"
        },
        {
          "internalType": "address",
          "name": "operator",
          "type": "address"
        }
      ],
      "name": "isApprovedForAll",
      "outputs": [
        {
          "internalType": "bool",
          "name": "",
          "type": "bool"
        }
      ],
      "stateMutability": "view",
      "type": "function"
    },
    {
      "inputs": [
        {
          "internalType": "uint256",
          "name": "_stakeId",
          "type": "uint256"
        }
      ],
      "name": "issueEAB",
      "outputs": [],
      "stateMutability": "nonpayable",
      "type": "function"
    },
    {
      "inputs": [
        {
          "internalType": "address",
          "name": "",
          "type": "address"
        },
        {
          "internalType": "uint8",
          "name": "",
          "type": "uint8"
        }
      ],
      "name": "lastEscrowRewardByToken_Duration",
      "outputs": [
        {
          "internalType": "uint256",
          "name": "",
          "type": "uint256"
        }
      ],
      "stateMutability": "view",
      "type": "function"
    },
    {
      "inputs": [],
      "name": "lendingPool",
      "outputs": [
        {
          "internalType": "contract Vault",
          "name": "",
          "type": "address"
        }
      ],
      "stateMutability": "view",
      "type": "function"
    },
    {
      "inputs": [],
      "name": "name",
      "outputs": [
        {
          "internalType": "string",
          "name": "",
          "type": "string"
        }
      ],
      "stateMutability": "view",
      "type": "function"
    },
    {
      "inputs": [],
      "name": "nend",
      "outputs": [
        {
          "internalType": "address",
          "name": "",
          "type": "address"
        }
      ],
      "stateMutability": "view",
      "type": "function"
    },
    {
      "inputs": [],
      "name": "ongoingStakeCount",
      "outputs": [
        {
          "internalType": "uint256",
          "name": "",
          "type": "uint256"
        }
      ],
      "stateMutability": "view",
      "type": "function"
    },
    {
      "inputs": [],
      "name": "owner",
      "outputs": [
        {
          "internalType": "address",
          "name": "",
          "type": "address"
        }
      ],
      "stateMutability": "view",
      "type": "function"
    },
    {
      "inputs": [
        {
          "internalType": "uint256",
          "name": "tokenId",
          "type": "uint256"
        }
      ],
      "name": "ownerOf",
      "outputs": [
        {
          "internalType": "address",
          "name": "",
          "type": "address"
        }
      ],
      "stateMutability": "view",
      "type": "function"
    },
    {
      "inputs": [],
      "name": "poolRollOver",
      "outputs": [
        {
          "internalType": "uint256",
          "name": "",
          "type": "uint256"
        }
      ],
      "stateMutability": "view",
      "type": "function"
    },
    {
      "inputs": [],
      "name": "proxiableUUID",
      "outputs": [
        {
          "internalType": "bytes32",
          "name": "",
          "type": "bytes32"
        }
      ],
      "stateMutability": "view",
      "type": "function"
    },
    {
      "inputs": [
        {
          "internalType": "address",
          "name": "_stakeToken",
          "type": "address"
        }
      ],
      "name": "removeStakeToken",
      "outputs": [],
      "stateMutability": "nonpayable",
      "type": "function"
    },
    {
      "inputs": [],
      "name": "renounceOwnership",
      "outputs": [],
      "stateMutability": "nonpayable",
      "type": "function"
    },
    {
      "inputs": [
        {
          "internalType": "uint256",
          "name": "",
          "type": "uint256"
        }
      ],
      "name": "rewardAllocations",
      "outputs": [
        {
          "internalType": "uint8",
          "name": "",
          "type": "uint8"
        }
      ],
      "stateMutability": "view",
      "type": "function"
    },
    {
      "inputs": [
        {
          "internalType": "address",
          "name": "from",
          "type": "address"
        },
        {
          "internalType": "address",
          "name": "to",
          "type": "address"
        },
        {
          "internalType": "uint256",
          "name": "tokenId",
          "type": "uint256"
        }
      ],
      "name": "safeTransferFrom",
      "outputs": [],
      "stateMutability": "nonpayable",
      "type": "function"
    },
    {
      "inputs": [
        {
          "internalType": "address",
          "name": "from",
          "type": "address"
        },
        {
          "internalType": "address",
          "name": "to",
          "type": "address"
        },
        {
          "internalType": "uint256",
          "name": "tokenId",
          "type": "uint256"
        },
        {
          "internalType": "bytes",
          "name": "data",
          "type": "bytes"
        }
      ],
      "name": "safeTransferFrom",
      "outputs": [],
      "stateMutability": "nonpayable",
      "type": "function"
    },
    {
      "inputs": [
        {
          "internalType": "address",
          "name": "operator",
          "type": "address"
        },
        {
          "internalType": "bool",
          "name": "approved",
          "type": "bool"
        }
      ],
      "name": "setApprovalForAll",
      "outputs": [],
      "stateMutability": "nonpayable",
      "type": "function"
    },
    {
      "inputs": [
        {
          "internalType": "uint8[3]",
          "name": "_rewardAllocations",
          "type": "uint8[3]"
        }
      ],
      "name": "setRewardAllocations",
      "outputs": [],
      "stateMutability": "nonpayable",
      "type": "function"
    },
    {
      "inputs": [
        {
          "internalType": "bool",
          "name": "_testing",
          "type": "bool"
        }
      ],
      "name": "setTesting",
      "outputs": [],
      "stateMutability": "nonpayable",
      "type": "function"
    },
    {
      "inputs": [
        {
          "internalType": "uint256",
          "name": "_tokenId",
          "type": "uint256"
        },
        {
          "internalType": "string",
          "name": "_tokenURI",
          "type": "string"
        }
      ],
      "name": "setTokenURI",
      "outputs": [],
      "stateMutability": "nonpayable",
      "type": "function"
    },
    {
      "inputs": [
        {
          "internalType": "uint256",
          "name": "",
          "type": "uint256"
        }
      ],
      "name": "stakeDurations",
      "outputs": [
        {
          "internalType": "uint48",
          "name": "",
          "type": "uint48"
        }
      ],
      "stateMutability": "view",
      "type": "function"
    },
    {
      "inputs": [
        {
          "internalType": "uint256",
          "name": "_stakeId",
          "type": "uint256"
        }
      ],
      "name": "stakeEscrowedReward",
      "outputs": [],
      "stateMutability": "nonpayable",
      "type": "function"
    },
    {
      "inputs": [],
      "name": "stakeTokenCount",
      "outputs": [
        {
          "internalType": "uint256",
          "name": "",
          "type": "uint256"
        }
      ],
      "stateMutability": "view",
      "type": "function"
    },
    {
      "inputs": [
        {
          "internalType": "uint256",
          "name": "",
          "type": "uint256"
        }
      ],
      "name": "stakeTokens",
      "outputs": [
        {
          "internalType": "address",
          "name": "",
          "type": "address"
        }
      ],
      "stateMutability": "view",
      "type": "function"
    },
    {
      "inputs": [
        {
          "internalType": "uint256",
          "name": "",
          "type": "uint256"
        }
      ],
      "name": "stakes",
      "outputs": [
        {
          "internalType": "address",
          "name": "staker",
          "type": "address"
        },
        {
          "internalType": "address",
          "name": "token",
          "type": "address"
        },
        {
          "internalType": "uint48",
          "name": "start",
          "type": "uint48"
        },
        {
          "internalType": "uint48",
          "name": "end",
          "type": "uint48"
        },
        {
          "internalType": "uint256",
          "name": "rewardAllocated",
          "type": "uint256"
        },
        {
          "internalType": "bool",
          "name": "isEscrow",
          "type": "bool"
        },
        {
          "internalType": "enum ILendingPoolStaking.EscrowStatus",
          "name": "escrowStatus",
          "type": "uint8"
        },
        {
          "internalType": "enum ILendingPoolStaking.StakeStatus",
          "name": "stakeStatus",
          "type": "uint8"
        }
      ],
      "stateMutability": "view",
      "type": "function"
    },
    {
      "inputs": [
        {
          "internalType": "bytes4",
          "name": "interfaceId",
          "type": "bytes4"
        }
      ],
      "name": "supportsInterface",
      "outputs": [
        {
          "internalType": "bool",
          "name": "",
          "type": "bool"
        }
      ],
      "stateMutability": "view",
      "type": "function"
    },
    {
      "inputs": [],
      "name": "symbol",
      "outputs": [
        {
          "internalType": "string",
          "name": "",
          "type": "string"
        }
      ],
      "stateMutability": "view",
      "type": "function"
    },
    {
      "inputs": [],
      "name": "testing",
      "outputs": [
        {
          "internalType": "bool",
          "name": "",
          "type": "bool"
        }
      ],
      "stateMutability": "view",
      "type": "function"
    },
    {
      "inputs": [
        {
          "internalType": "uint256",
          "name": "tokenId",
          "type": "uint256"
        }
      ],
      "name": "tokenURI",
      "outputs": [
        {
          "internalType": "string",
          "name": "",
          "type": "string"
        }
      ],
      "stateMutability": "view",
      "type": "function"
    },
    {
      "inputs": [
        {
          "internalType": "address",
          "name": "",
          "type": "address"
        },
        {
          "internalType": "uint8",
          "name": "",
          "type": "uint8"
        }
      ],
      "name": "totalStakedByToken_Duration",
      "outputs": [
        {
          "internalType": "uint256",
          "name": "",
          "type": "uint256"
        }
      ],
      "stateMutability": "view",
      "type": "function"
    },
    {
      "inputs": [
        {
          "internalType": "address",
          "name": "from",
          "type": "address"
        },
        {
          "internalType": "address",
          "name": "to",
          "type": "address"
        },
        {
          "internalType": "uint256",
          "name": "tokenId",
          "type": "uint256"
        }
      ],
      "name": "transferFrom",
      "outputs": [],
      "stateMutability": "nonpayable",
      "type": "function"
    },
    {
      "inputs": [
        {
          "internalType": "address",
          "name": "newOwner",
          "type": "address"
        }
      ],
      "name": "transferOwnership",
      "outputs": [],
      "stateMutability": "nonpayable",
      "type": "function"
    },
    {
      "inputs": [
        {
          "internalType": "uint256",
          "name": "_stakeId",
          "type": "uint256"
        }
      ],
      "name": "unstake",
      "outputs": [],
      "stateMutability": "nonpayable",
      "type": "function"
    },
    {
      "inputs": [
        {
          "internalType": "address",
          "name": "newImplementation",
          "type": "address"
        }
      ],
      "name": "upgradeTo",
      "outputs": [],
      "stateMutability": "nonpayable",
      "type": "function"
    },
    {
      "inputs": [
        {
          "internalType": "address",
          "name": "newImplementation",
          "type": "address"
        },
        {
          "internalType": "bytes",
          "name": "data",
          "type": "bytes"
        }
      ],
      "name": "upgradeToAndCall",
      "outputs": [],
      "stateMutability": "payable",
      "type": "function"
    }
  ],
  "transactionHash": "0xeca368320a546f51ab23d85059b5430825bf0a30728bda4d46b2c0298f349f64",
  "args": [],
  "numDeployments": 1,
  "solcInputHash": "5f4e724599e3a7403e26c4f96c760b8c",
  "bytecode": "0x60a0604052346200019f57620000216200001b60c954620002fb565b62000338565b60066206966760ec1b0160c955620000456200003f60ca54620002fb565b62000372565b6006621a599b60ea1b0160ca55620000696200006360cb54620002fb565b620003ac565b600461746360f01b0160cb556200008c6200008660cc54620002fb565b620003e6565b600461626360f01b0160cc55600054620000c060ff8260081c16158092819362000190575b81156200016d575b50620001a4565b80620000d4600160ff196000541617600055565b62000152575b620000e46200029b565b6200011f575b620000f462000208565b3060805260405161544d90816200042182396080518181816114bf01528181611b540152611dee0152f35b6200013061ff001960005416600055565b604051600181526000805160206200586e83398151915290602090a1620000ea565b6200016761010061ff00196000541617600055565b620000da565b303b1591508162000181575b5038620000b9565b6001915060ff16143862000179565b600160ff8216109150620000b1565b600080fd5b15620001ac57565b60405162461bcd60e51b815260206004820152602e60248201527f496e697469616c697a61626c653a20636f6e747261637420697320616c72656160448201526d191e481a5b9a5d1a585b1a5e995960921b6064820152608490fd5b6000546200022e60ff8260081c161580928193620001905781156200016d5750620001a4565b8062000242600160ff196000541617600055565b62000280575b60ff1960ff541660ff556200025957565b61ff0019600054166000556000805160206200586e833981519152602060405160018152a1565b6200029561010061ff00196000541617600055565b62000248565b60cd8054737e8ae5c72eca86946b695dcc211863d9721a09616001600160a01b0319821681179092556040516001600160a01b03909116907f8be0079c531659141344cd1fd0a4f28419497f9722a3daafe3b4186f6b6457e090600090a3565b90600182811c921680156200032d575b60208310146200031757565b634e487b7160e01b600052602260045260246000fd5b91607f16916200030b565b601f8111620003445750565b600060c98152601f60208220920160051c8201915b8281106200036657505050565b81815560010162000359565b601f81116200037e5750565b600060ca8152601f60208220920160051c8201915b828110620003a057505050565b81815560010162000393565b601f8111620003b85750565b600060cb8152601f60208220920160051c8201915b828110620003da57505050565b818155600101620003cd565b601f8111620003f25750565b600060cc8152601f60208220920160051c8201915b8281106200041457505050565b8181556001016200040756fe60806040526004361015610013575b600080fd5b60003560e01c806301ffc9a71461040f57806306fdde0314610406578063081812fc146103fd57806308ed8d16146103f4578063095ea7b3146103eb578063125cc42f146103e2578063162094c4146103d9578063166866c7146103d05780631fecb71a146103c7578063217fe6c6146103be57806323b872dd146103b55780632e17de78146103ac5780633587e161146103a35780633659cfe61461039a57806339d2525f146103915780633c661b8b146103885780633de15c121461037f57806342842e0e14610376578063485cc9551461036d5780634f1ef28614610364578063528a9e4d1461035b57806352d1902d146103525780636352211e1461034957806365b014b71461034057806370a0823114610337578063715018a61461032e57806372a4db4a146103255780637547c7a31461031c57806378fecc9914610313578063829522001461030a578063848778b4146103015780638d03b102146102f85780638da5cb5b146102ef57806395d89b41146102e65780639b45d024146102dd5780639db5fa65146102d4578063a22cb465146102cb578063a59a9973146102c2578063b88d4fde146102b9578063ba5e4bad146102b0578063bad7edab146102a7578063bf0215501461029e578063c87b56dd14610295578063d2438c2a1461028c578063d5a44f8614610283578063de3e3eff1461027a578063e25b7d8214610271578063e985e9c514610268578063ef7bd7f31461025f578063f19ed6be146102565763f2fde38b1461024e57600080fd5b61000e612d3c565b5061000e612969565b5061000e612949565b5061000e6128de565b5061000e6128b6565b5061000e612872565b5061000e6127cc565b5061000e6126d4565b5061000e6125d3565b5061000e61257f565b5061000e6124b8565b5061000e612498565b5061000e612440565b5061000e612417565b5061000e612325565b5061000e6122c8565b5061000e6122a8565b5061000e612200565b5061000e6121d8565b5061000e6121b5565b5061000e612175565b5061000e61214c565b5061000e612126565b5061000e6120ca565b5061000e612028565b5061000e611f9a565b5061000e611ef4565b5061000e611ec9565b5061000e611eaa565b5061000e611dd2565b5061000e611ca8565b5061000e611b0e565b5061000e611a0f565b5061000e6119e6565b5061000e611741565b5061000e611705565b5061000e611628565b5061000e611495565b5061000e611183565b5061000e610d3a565b5061000e610d10565b5061000e610c54565b5061000e610bcb565b5061000e610b06565b5061000e610952565b5061000e6107bd565b5061000e610676565b5061000e610629565b5061000e6105ef565b5061000e610512565b5061000e61042a565b6001600160e01b031981160361000e57565b503461000e57602036600319011261000e57602060043561044a81610418565b63ffffffff60e01b166380ac58cd60e01b8114908115610488575b8115610477575b506040519015158152f35b6301ffc9a760e01b1490503861046c565b635b5e139f60e01b81149150610465565b600091031261000e57565b918091926000905b8282106104c45750116104bd575050565b6000910152565b915080602091830151818601520182916104ac565b906020916104f2815180928185528580860191016104a4565b601f01601f1916010190565b90602061050f9281815201906104d9565b90565b503461000e576000806003193601126105ec576040519080606554610536816131f0565b808552916001918083169081156105cb5750600114610570575b61056c856105608187038261088e565b604051918291826104fe565b0390f35b9250606583527f8ff97419363ffd7000167f130ef7168fbea05faf9251824ca5043f113cc6a7c75b8284106105b35750505081016020016105608261056c610550565b80546020858701810191909152909301928101610598565b60ff191660208701525050604084019250610560915083905061056c610550565b80fd5b503461000e57602036600319011261000e57602061060e600435613336565b6001600160a01b0360405191168152f35b8015150361000e57565b503461000e57602036600319011261000e576004356106478161061f565b61064f6139b3565b60ff8019815416911515161760ff556000604051f35b6001600160a01b0381160361000e57565b503461000e57604036600319011261000e5760043561069481610665565b6024356106a0816131ce565b916001600160a01b038084168091831614610720576106d2936106cd9133149081156106d4575b506132c4565b6136a6565b005b61071a9150610713906106fb33916001600160a01b0316600052606a602052604060002090565b906001600160a01b0316600052602052604060002090565b5460ff1690565b386106c7565b60405162461bcd60e51b815260206004820152602160248201527f4552433732313a20617070726f76616c20746f2063757272656e74206f776e656044820152603960f91b6064820152608490fd5b6001600160a01b0316600052610172602052604060002090565b6001600160a01b031660005261016d602052604060002090565b6001600160a01b0316600052610168602052604060002090565b503461000e57602036600319011261000e576001600160a01b036004356107e381610665565b16600052610167602052602060ff604060002054166040519015158152f35b50634e487b7160e01b600052604160045260246000fd5b67ffffffffffffffff811161082d57604052565b610835610802565b604052565b6020810190811067ffffffffffffffff82111761082d57604052565b6060810190811067ffffffffffffffff82111761082d57604052565b6040810190811067ffffffffffffffff82111761082d57604052565b90601f8019910116810190811067ffffffffffffffff82111761082d57604052565b60405190610120820182811067ffffffffffffffff82111761082d57604052565b604051906108de82610856565b565b60209067ffffffffffffffff81116108fe575b601f01601f19160190565b610906610802565b6108f3565b81601f8201121561000e57803590610922826108e0565b92610930604051948561088e565b8284526020838301011161000e57816000926020809301838601378301015290565b503461000e57604036600319011261000e5767ffffffffffffffff60043560243582811161000e5761098890369060040161090b565b916109916139b3565b6109b18260005260676020526001600160a01b0360406000205416151590565b15610a9b5760009182526020906097825260408320918451918211610a8e575b6109e5826109df85546131f0565b8561416e565b80601f8311600114610a215750839482939492610a16575b50508160011b916000199060031b1c1916179055604051f35b0151905038806109fd565b90601f19831695610a3785600052602060002090565b9286905b888210610a7657505083600195969710610a5d575b505050811b019055604051f35b015160001960f88460031b161c19169055388080610a50565b80600185968294968601518155019501930190610a3b565b610a96610802565b6109d1565b60405162461bcd60e51b815260206004820152602e60248201527f45524337323155524953746f726167653a2055524920736574206f66206e6f6e60448201527f6578697374656e7420746f6b656e0000000000000000000000000000000000006064820152608490fd5b503461000e5760208060031936011261000e57600435610b2581610665565b610b2d613a5f565b90610b516001600160a01b0392848460cd54163314918215610b8f575b5050613a80565b1690816000526101679182825260ff60406000205416610b6d57005b61016b610b7a8154614cd8565b905560005252604060002060ff198154169055005b60ff925090610bb991336000526101008252604060002082604051948386809551938492016104a4565b82019081520301902054168438610b4a565b503461000e57602036600319011261000e576106d2600435610bec81610665565b610c13610bf7613a5f565b6001600160a01b0360cd54163314908115610c18575b50613a80565b614ea5565b60ff91506020610c4391336000526101008252604060002082604051948386809551938492016104a4565b820190815203019020541638610c0d565b503461000e57604036600319011261000e57600435610c7281610665565b60243567ffffffffffffffff811161000e57610cc7602061056c936001600160a01b03610ca560ff95369060040161090b565b91166000526101008252604060002082604051948386809551938492016104a4565b820190815203019020546040519116151581529081906020820190565b606090600319011261000e57600435610cfc81610665565b90602435610d0981610665565b9060443590565b503461000e576106d2610d2236610ce4565b91610d35610d308433613460565b613373565b61353b565b503461000e5760208060031936011261000e57600435610d61610d5c82613871565b612703565b5091610d7483546001600160a01b031690565b906001600160a01b03918233911603611172576001840190815492428460d01c118015611154575b8015611136575b611124576005600287019683610de5610dd78a54610dd1610dc78d60010190600090565b90549060031b1c90565b906138c1565b610dd160028c016000610dc7565b6006830197610df5895460ff1690565b15611111575090610e52600092610e27610e1b610e1b610165546001600160a01b031690565b6001600160a01b031690565b60405163a9059cbb60e01b815233600482015260248101929092529093849283919082906044820190565b03925af18015611104575b6110e7575b505b015480611034575b505082546001915060101c60ff16610e838161274c565b14610f8f575b50805462ff00001916620200001781556106d29250610f0691610d5c9160408051838152600260208201527fab7e44c17ad2a7b4de0e42ab0bc824366a946f184a1133f0b5528347e4ccbd2991819081010390a18054600160ff8260081c16610ef18161274c565b14908115610f84575b50610f0c575b50613871565b90614ce5565b805461ff001916610200179055610f398160005260676020526001600160a01b0360406000205416151590565b610f76575b60408051828152600260208201527f855f5f4ea7c8c6a92f173fbc35c24d01139c2a49e9bcc085f03620cb6a1c65139190a138610f00565b610f7f81614d73565b610f3e565b60ff91501638610efa565b610fa4610f9e61016c54614cd8565b61016c55565b600090815b600360ff821610610fbb575050610e89565b80610fcc610dc76110149389614539565b855460ff16156110195761100d61100583610ff361076f610165546001600160a01b031690565b9060ff16600052602052604060002090565b91825461388e565b9055614527565b610fa9565b61100d61100583610ff361076f88546001600160a01b031690565b6110848391611044875460ff1690565b156110d657610165546001600160a01b0316905b60405163a9059cbb60e01b81523360048201526024810191909152938492839160009183906044820190565b0393165af180156110c9575b61109b575b80610e6c565b816110ba92903d106110c2575b6110b2818361088e565b8101906142a0565b503880611095565b503d6110a8565b6110d1612edb565b611090565b85546001600160a01b031690611058565b6110fd90853d87116110c2576110b2818361088e565b5038610e62565b61110c612edb565b610e5d565b61111f925085339116614f4d565b610e64565b60405163baf3f0f760e01b8152600490fd5b50600686015460029060081c60ff1661114e8161274c565b14610da3565b50600686015460029060101c60ff1661116c8161274c565b14610d9c565b6040516282b42960e81b8152600490fd5b503461000e576000806003193601126105ec5761119e6139b3565b805b6101695481101561126f57611230906112066111c8610e1b610166546001600160a01b031690565b6111e76111d484612085565b90546001600160a01b039160031b1c1690565b6040518092630530fa2160e01b82528180602096879560048301614889565b03915afa918215611262575b8592611235575b505061122a6107896111d484612085565b55613da4565b6111a0565b6112549250803d1061125b575b61124c818361088e565b810190612ecc565b3880611219565b503d611242565b61126a612edb565b611212565b50805b61017054811015611311578061128a6112e492612703565b50600681015460ff91828260101c16906112a38261274c565b6001809203611308576112df936112b9866138a5565b9316156112e95750506112d8610789610165546001600160a01b031690565b54906148d7565b613da4565b611272565b01546001600160a01b0316600090815261016d602052604090206112d8565b50505050613da4565b50805b6101695481101561146b57806113326107896111d46113a894612085565b548361134a610e1b610166546001600160a01b031690565b6113566111d485612085565b6040916113968351630530fa2160e01b815260209687828061137c600498898301614889565b0381875afa91821561145e575b879261143f575b5061388e565b91826113ad575b505050505050613da4565b611314565b6113fa9486946113bf6111d48a612085565b905163276d76f960e21b81526001600160a01b0390911692810192835230602084015260408301949094529294859384929091839160600190565b03925af18015611432575b611414575b808080879361139d565b8161142a92903d106110c2576110b2818361088e565b50388061140a565b61143a612edb565b611405565b611457919250883d8a1161125b5761124c818361088e565b9038611390565b611466612edb565b611389565b506040517f3ebfd10f795a127a78001b56051c04828d55b68d9d77ebce97b617c8adc53ed28282a1f35b503461000e57602036600319011261000e576004356114b381610665565b6001600160a01b0390817f000000000000000000000000000000000000000000000000000000000000000016916114ec83301415612e0a565b61151b7f360894a13ba1a3210667c828492db98dca3e2076cc3735a920a3ca505d382bbc938285541614612e6b565b6115236139b3565b604051906115308261083a565b600082527f4910fdfa16fed3260ed0e7147f7cc6da11a60208b5b9406d12a635614ffd91435460ff161561156a5750506106d29150612f46565b6020600491604094939451928380926352d1902d60e01b825286165afa60009181611608575b506115f55760405162461bcd60e51b815260206004820152602e60248201527f45524331393637557067726164653a206e657720696d706c656d656e7461746960448201526d6f6e206973206e6f74205555505360901b6064820152608490fd5b0390fd5b6106d2936116039114612ee8565b612fe4565b61162191925060203d811161125b5761124c818361088e565b9038611590565b503461000e57606036600319011261000e5760043561164681610665565b6024359067ffffffffffffffff821161000e576116ad602061166f6106d294369060040161090b565b6001600160a01b03604435946116848661061f565b61168c6139b3565b166000526101008252604060002082604051948386809551938492016104a4565b8201908152030190209060ff801983541691151516179055565b50634e487b7160e01b600052603260045260246000fd5b9060038210156116f8575b601f8260051c61017301921690565b6117006116c7565b6116e9565b503461000e57602036600319011261000e57600435600381101561000e578060ff60209260051c610173015460f86040519360031b161c168152f35b503461000e57602036600319011261000e5760043561176c610e1b610165546001600160a01b031690565b330361117257610174906117818254826138c1565b9061178d600061017455565b610170805460005b8181106119a157509054905b81811061198757505060005b6101695481101561195c576117c46111d482612085565b61016b6117fa6117d5825487613924565b6117f3846001600160a01b0316600052610168602052604060002090565b54906138c1565b600061181a846001600160a01b0316600052610168602052604060002090565b55600090815b600360ff82161061189157505090600360ff611846959493161461184b575b5050613da4565b6117ad565b61187d61188491600061187561188a956001600160a01b0316600052610168602052604060002090565b555486613924565b87546138c1565b61017455565b388061183f565b6118c66118bf6118b96118b36118a6856116de565b905460ff9160031b1c1690565b60ff1690565b84613ba0565b6064900490565b6118e882610ff3886001600160a01b0316600052610172602052604060002090565b5415611921575b9061191c9161191682610ff3896001600160a01b031660005261016f602052604060002090565b55614527565b611820565b929061195361191c92611948886001600160a01b0316600052610168602052604060002090565b61100d8782546138c1565b939091506118ef565b60006040517fbd9c0e36f2110aa67058734f061a385583a1d8b5758bcb065ca0f26c4c64603c8282a1f35b806112df61199761199c936138a5565b615229565b6117a1565b8060016119c160066119b56119e195612703565b50015460101c60ff1690565b6119ca8161274c565b036112df576112df866119dc836138a5565b61456d565b611795565b503461000e576106d26119f836610ce4565b9060405192611a068461083a565b600084526133d5565b503461000e57604036600319011261000e57600435611a2d81610665565b611a7d602435611a3c81610665565b60005492611a6160ff8560081c161580958196611b00575b8115611ae0575b50613c3b565b83611a74600160ff196000541617600055565b611ac757613e6c565b611a8357005b611a9361ff001960005416600055565b604051600181527f7f26b83ff96e1f2b6a682f133852f6798a09c465da95921460cefb38474024989080602081015b0390a1005b611adb61010061ff00196000541617600055565b613e6c565b303b15915081611af2575b5038611a5b565b6001915060ff161438611aeb565b600160ff8216109150611a54565b50604036600319011261000e57600435611b2781610665565b60243567ffffffffffffffff811161000e57611b4790369060040161090b565b906001600160a01b0391827f00000000000000000000000000000000000000000000000000000000000000001692611b8184301415612e0a565b611bb07f360894a13ba1a3210667c828492db98dca3e2076cc3735a920a3ca505d382bbc948286541614612e6b565b611bb86139b3565b7f4910fdfa16fed3260ed0e7147f7cc6da11a60208b5b9406d12a635614ffd91435460ff1615611bee5750506106d29150612f46565b6020600491604094939451928380926352d1902d60e01b825286165afa60009181611c88575b50611c755760405162461bcd60e51b815260206004820152602e60248201527f45524331393637557067726164653a206e657720696d706c656d656e7461746960448201526d6f6e206973206e6f74205555505360901b6064820152608490fd5b6106d293611c839114612ee8565b6130fc565b611ca191925060203d811161125b5761124c818361088e565b9038611c14565b503461000e57602036600319011261000e57600435611cc9610d5c82613871565b5090611cdc82546001600160a01b031690565b6001600160a01b0333911603611172576006820180549260ff938480821615918215611dba575b505061112457815462ff000019166201000017825592611d28610f9e61016c54613da4565b600260009401935b600382821610611d7b577fab7e44c17ad2a7b4de0e42ab0bc824366a946f184a1133f0b5528347e4ccbd2984611d6b855460ff9060101c1690565b90611ac260405192839283614557565b611db381611d8e610dc760039489614539565b61100d611dab83610ff361076f610165546001600160a01b031690565b9182546138c1565b9050611d30565b60101c169050611dc98161274c565b15158438611d03565b503461000e57600036600319011261000e576001600160a01b037f0000000000000000000000000000000000000000000000000000000000000000163003611e3f576040517f360894a13ba1a3210667c828492db98dca3e2076cc3735a920a3ca505d382bbc8152602090f35b60405162461bcd60e51b815260206004820152603860248201527f555550535570677261646561626c653a206d757374206e6f742062652063616c60448201527f6c6564207468726f7567682064656c656761746563616c6c00000000000000006064820152608490fd5b503461000e57602036600319011261000e57602061060e6004356131ce565b503461000e57600036600319011261000e57611eec60ff60005460081c1661393a565b6106d2613a0b565b503461000e57602036600319011261000e576001600160a01b03600435611f1a81610665565b168015611f4357600052606860205261056c604060002054604051918291829190602083019252565b60405162461bcd60e51b815260206004820152602960248201527f4552433732313a2061646472657373207a65726f206973206e6f7420612076616044820152683634b21037bbb732b960b91b6064820152608490fd5b503461000e576000806003193601126105ec57611fb56139b3565b60cd546001600160a01b0319811660cd55816001600160a01b0360405192167f8be0079c531659141344cd1fd0a4f28419497f9722a3daafe3b4186f6b6457e08284a3f35b6024359060ff8216820361000e57565b6044359060ff8216820361000e57565b359060ff8216820361000e57565b503461000e57606036600319011261000e57366023121561000e5760405161204f81610856565b60648136821161000e576004905b82821061206d576106d284613acc565b6020809161207a8461201a565b81520191019061205d565b61016980548210156120bd575b6000527fbd88e1fd0aa5f3038c0cd2a68644e2d11f4e4e7e3693adba414318f2127ca4260190600090565b6120c56116c7565b612092565b503461000e57602036600319011261000e57600435610169805482101561000e576020916001600160a01b03916000527fbd88e1fd0aa5f3038c0cd2a68644e2d11f4e4e7e3693adba414318f2127ca426015416604051908152f35b503461000e57600036600319011261000e576020612142614a18565b6040519015158152f35b503461000e57600036600319011261000e5760206001600160a01b036101655416604051908152f35b503461000e57602036600319011261000e576001600160a01b0360043561219b81610665565b166000526101686020526020604060002054604051908152f35b503461000e57600036600319011261000e57602060ff8054166040519015158152f35b503461000e57600036600319011261000e5760206001600160a01b0360cd5416604051908152f35b503461000e576000806003193601126105ec576040519080606654612224816131f0565b808552916001918083169081156105cb575060011461224d5761056c856105608187038261088e565b9250606683527f46501879b8ca8525e8c2fd519e2fbfcfa2ebea26501294aa02cbfcfb12e943545b8284106122905750505081016020016105608261056c610550565b80546020858701810191909152909301928101612275565b503461000e57600036600319011261000e57602061016c54604051908152f35b503461000e57604036600319011261000e57602061231c6004356122eb81610665565b6001600160a01b036122fb611ffa565b9116600052610172835260406000209060ff16600052602052604060002090565b54604051908152f35b503461000e57604036600319011261000e5760043561234381610665565b60243561234f8161061f565b6001600160a01b038216918233146123d2578161238f6123a09233600052606a6020526040600020906001600160a01b0316600052602052604060002090565b9060ff801983541691151516179055565b604051901515815233907f17307eab39ab6107e8899845ad3d59bd9653f200f220920489ca2b5937696c3190602090a3005b60405162461bcd60e51b815260206004820152601960248201527f4552433732313a20617070726f766520746f2063616c6c6572000000000000006044820152606490fd5b503461000e57600036600319011261000e5760206001600160a01b036101665416604051908152f35b503461000e57608036600319011261000e5760043561245e81610665565b60243561246a81610665565b6064359167ffffffffffffffff831161000e5761248e6106d293369060040161090b565b91604435916133d5565b503461000e57600036600319011261000e57602061017454604051908152f35b503461000e57602036600319011261000e576004356124d9610d5c82613871565b508054336001600160a01b0390911603611172576006018054600260ff8260101c166125048161274c565b14908115612566575b5061112457805461ff0019166101001790557f855f5f4ea7c8c6a92f173fbc35c24d01139c2a49e9bcc085f03620cb6a1c651390611ac29061254f8133614bd1565b604080519182526001602083015290918291820190565b60ff915060081c166125778161274c565b15153861250d565b503461000e57604036600319011261000e57602061231c6004356125a281610665565b6001600160a01b036125b2611ffa565b911660005261016f835260406000209060ff16600052602052604060002090565b503461000e5760208060031936011261000e576004359061261261260d8360005260676020526001600160a01b0360406000205416151590565b613182565b60009182526097815260408220916040519283828254612631816131f0565b808452936001918083169081156126b6575060011461267a575b50506126599250038461088e565b6040516126658161083a565b5261056c6040519282849384528301906104d9565b86925085528185209085915b85831061269e5750506126599350820101388061264b565b8054838a018501528894508793909201918101612686565b9550505050505060ff1916828401526126598360408101388061264b565b503461000e57600036600319011261000e576126f760ff60005460081c1661393a565b60ff805460ff19169055005b600790610170805482101561273f575b600052027f88e1afb22f13be7fec203799fd189c3b9471c5b75e2b22a6d5efec11c7f392550190600090565b6127476116c7565b612713565b6003111561275657565b634e487b7160e01b600052602160045260246000fd5b94919897969360e096939161010087019a6001600160a01b03809216885216602087015265ffffffffffff80921660408701521660608501526080840152151560a08301526127ba8161274c565b60c08201526127c88361274c565b0152565b503461000e57602036600319011261000e576004356101705481101561000e576127f590612703565b506001600160a01b0361056c81835416600184015490600660058601549501549060405195869560ff8460101c169460ff808660081c169516938160d01c9265ffffffffffff8360a01c169216908961276c565b906003821015612865575b600660058084046101710193060290565b61286d6116c7565b612854565b503461000e57602036600319011261000e57600435600381101561000e578065ffffffffffff60056020930461017101546006600560405194060260031b1c168152f35b503461000e57600036600319011261000e57602065ffffffffffff61016a5416604051908152f35b503461000e57604036600319011261000e57602060ff61293d60043561290381610665565b6001600160a01b036024359161291883610665565b16600052606a84526040600020906001600160a01b0316600052602052604060002090565b54166040519015158152f35b503461000e57600036600319011261000e57602061016b54604051908152f35b50606036600319011261000e57600480359061298482610665565b6024359161299061200a565b918315612cee576129bf6129bb610713846001600160a01b0316600052610167602052604060002090565b1590565b612ca0576001600160a01b0382168015801580612c38575b612c275785919015612b8057503403612b275750612af391610ff3611dab92600080808089612a18610e1b610e1b610e1b610166546001600160a01b031690565b82f115612b1a575b61076f612a2b6142b5565b87612a3960ff871683613b54565b5265ffffffffffff421690612ac6612a89612a83612a6b612a598a612849565b905465ffffffffffff9160031b1c1690565b60ff80541615612b105761ffff6103f05b16906142c9565b846142ed565b612ab7612a946108b0565b338152946001600160a01b03881660208701525b65ffffffffffff166040860152565b65ffffffffffff166060840152565b6080820152600060a0820152600060c0820152600060e0820152612aee610100820160019052565b61437c565b9055612b04610f9e61016c54613da4565b6106d261017054615229565b61ffff6001612a7c565b612b22612edb565b612a20565b6115f190604051918291631fff1b3b60e21b8352820160809060208152602260208201527f496e636f7272656374206e617469766520636f696e207374616b6520616d6f756040820152611b9d60f21b60608201520190565b92612be66020610ff393611dab96612af398966000612bab610e1b610166546001600160a01b031690565b604080516323b872dd60e01b8152339481019485526001600160a01b0390921660208501528301949094529294859384929091839160600190565b03925af18015612c1a575b612bfc575b50612a20565b612c139060203d81116110c2576110b2818361088e565b5038612bf6565b612c22612edb565b612bf1565b604051631e9acf1760e31b81528390fd5b506040516370a0823160e01b8152338482019081528791906020908290819083010381875afa908115612c93575b600091612c75575b50106129d7565b612c8d915060203d811161125b5761124c818361088e565b38612c6e565b612c9b612edb565b612c66565b6115f190604051918291631fff1b3b60e21b8352820160609060208152601360208201527f496e76616c6964207374616b6520746f6b656e0000000000000000000000000060408201520190565b6115f190604051918291631fff1b3b60e21b8352820160609060208152601560208201527f416d6f756e742063616e6e6f74206265207a65726f000000000000000000000060408201520190565b503461000e57602036600319011261000e57600435612d5a81610665565b612d626139b3565b6001600160a01b03809116908115612db65760009160cd5491816001600160a01b031984161760cd5560405192167f8be0079c531659141344cd1fd0a4f28419497f9722a3daafe3b4186f6b6457e08484a3f35b60405162461bcd60e51b815260206004820152602660248201527f4f776e61626c653a206e6577206f776e657220697320746865207a65726f206160448201526564647265737360d01b6064820152608490fd5b15612e1157565b60405162461bcd60e51b815260206004820152602c60248201527f46756e6374696f6e206d7573742062652063616c6c6564207468726f7567682060448201526b19195b1959d85d1958d85b1b60a21b6064820152608490fd5b15612e7257565b60405162461bcd60e51b815260206004820152602c60248201527f46756e6374696f6e206d7573742062652063616c6c6564207468726f7567682060448201526b6163746976652070726f787960a01b6064820152608490fd5b9081602091031261000e575190565b506040513d6000823e3d90fd5b15612eef57565b60405162461bcd60e51b815260206004820152602960248201527f45524331393637557067726164653a20756e737570706f727465642070726f786044820152681a58589b195555525160ba1b6064820152608490fd5b803b15612f89576001600160a01b037f360894a13ba1a3210667c828492db98dca3e2076cc3735a920a3ca505d382bbc91166001600160a01b0319825416179055565b60405162461bcd60e51b815260206004820152602d60248201527f455243313936373a206e657720696d706c656d656e746174696f6e206973206e60448201526c1bdd08184818dbdb9d1c9858dd609a1b6064820152608490fd5b612fed81612f46565b6040516001600160a01b0382167fbc7cd75a20ee27fd9adebab32041f755214dbc6bffa90cc0225b39da2e5c2d3b600083a28251158015906130f4575b61303357505050565b813b156130a35750600082819260206130a095519201905af4613054613152565b6040519161306183610856565b602783527f416464726573733a206c6f772d6c6576656c2064656c65676174652063616c6c6020840152660819985a5b195960ca1b60408401526138cd565b50565b62461bcd60e51b815260206004820152602660248201527f416464726573733a2064656c65676174652063616c6c20746f206e6f6e2d636f6044820152651b9d1c9858dd60d21b6064820152608490fd5b50600061302a565b61310581612f46565b6040516001600160a01b0382167fbc7cd75a20ee27fd9adebab32041f755214dbc6bffa90cc0225b39da2e5c2d3b600083a282511580159061314a5761303357505050565b50600161302a565b3d1561317d573d90613163826108e0565b91613171604051938461088e565b82523d6000602084013e565b606090565b1561318957565b60405162461bcd60e51b815260206004820152601860248201527f4552433732313a20696e76616c696420746f6b656e20494400000000000000006044820152606490fd5b60005260676020526001600160a01b036040600020541661050f811515613182565b90600182811c92168015613220575b602083101461320a57565b634e487b7160e01b600052602260045260246000fd5b91607f16916131ff565b60c9546000929161323a826131f0565b808252916001908181169081156132b1575060011461325857505050565b9192935060c96000527f66be4f155c5ef2ebd3772b228f2f00681e4ed5826cdb3b1943cc11ad15ad1d28916000925b84841061329957505060209250010190565b80546020858501810191909152909301928101613287565b60ff191660208401525050604001925050565b156132cb57565b60405162461bcd60e51b815260206004820152603d60248201527f4552433732313a20617070726f76652063616c6c6572206973206e6f7420746f60448201527f6b656e206f776e6572206f7220617070726f76656420666f7220616c6c0000006064820152608490fd5b61335961260d8260005260676020526001600160a01b0360406000205416151590565b60005260696020526001600160a01b036040600020541690565b1561337a57565b60405162461bcd60e51b815260206004820152602d60248201527f4552433732313a2063616c6c6572206973206e6f7420746f6b656e206f776e6560448201526c1c881bdc88185c1c1c9bdd9959609a1b6064820152608490fd5b906133f99392916133e9610d308433613460565b6133f483838361353b565b613750565b1561340057565b60405162461bcd60e51b815260206004820152603260248201527f4552433732313a207472616e7366657220746f206e6f6e20455243373231526560448201527131b2b4bb32b91034b6b83632b6b2b73a32b960711b6064820152608490fd5b6001600160a01b0380613472846131ce565b1692818316928484149485156134a8575b50508315613492575b50505090565b61349e91929350613336565b161438808061348c565b60ff929550906134d791600052606a6020526040600020906001600160a01b0316600052602052604060002090565b5416923880613483565b156134e857565b60405162461bcd60e51b815260206004820152602560248201527f4552433732313a207472616e736665722066726f6d20696e636f72726563742060448201526437bbb732b960d91b6064820152608490fd5b90613561929161354a836131ce565b6001600160a01b03828116959091821686146134e1565b8216938415613655576108de94816135868693613580610e1b866131ce565b146134e1565b6135ad61359d846000526069602052604060002090565b80546001600160a01b0319169055565b6135ca846001600160a01b03166000526068602052604060002090565b60001981540190556135ef856001600160a01b03166000526068602052604060002090565b600181540190556136298561360e856000526067602052604060002090565b906001600160a01b03166001600160a01b0319825416179055565b7fddf252ad1be2c89b69c2b068fc378daa952ba7f163c4a11628f55a4df523b3ef6000604051a461538f565b60405162461bcd60e51b8152602060048201526024808201527f4552433732313a207472616e7366657220746f20746865207a65726f206164646044820152637265737360e01b6064820152608490fd5b600082815260696020526040902080546001600160a01b0319166001600160a01b0383161790556001600160a01b03806136df846131ce565b169116907f8c5be1e5ebec7d5bd14f71427d1e84f3dd0314c0f7b2291e5b200ac8c7c3b9256000604051a4565b9081602091031261000e575161050f81610418565b909261050f94936080936001600160a01b038092168452166020830152604082015281606082015201906104d9565b92909190823b156138515761378b9260209260006001600160a01b03604051809781968295630a85bd0160e11b9b8c85523360048601613721565b0393165af160009181613821575b50613813576137a6613152565b8051908161380e5760405162461bcd60e51b815260206004820152603260248201527f4552433732313a207472616e7366657220746f206e6f6e20455243373231526560448201527131b2b4bb32b91034b6b83632b6b2b73a32b960711b6064820152608490fd5b602001fd5b6001600160e01b0319161490565b61384391925060203d811161384a575b61383b818361088e565b81019061370c565b9038613799565b503d613831565b50505050600190565b50634e487b7160e01b600052601160045260246000fd5b60018110613881575b6000190190565b61388961385a565b61387a565b818110613899570390565b6138a161385a565b0390565b60019060011981116138b5570190565b6138bd61385a565b0190565b811981116138b5570190565b909190156138d9575090565b8151156138e95750805190602001fd5b60405162461bcd60e51b8152602060048201529081906115f19060248301906104d9565b50634e487b7160e01b600052601260045260246000fd5b811561392e570490565b61393661390d565b0490565b1561394157565b60405162461bcd60e51b815260206004820152602b60248201527f496e697469616c697a61626c653a20636f6e7472616374206973206e6f74206960448201526a6e697469616c697a696e6760a81b6064820152608490fd5b6139ab60ff60005460081c1661393a565b6108de613a0b565b6001600160a01b0360cd541633036139c757565b606460405162461bcd60e51b815260206004820152602060248201527f4f776e61626c653a2063616c6c6572206973206e6f7420746865206f776e65726044820152fd5b60cd546001600160a01b03737e8ae5c72eca86946b695dcc211863d9721a09619182821982161760cd55167f8be0079c531659141344cd1fd0a4f28419497f9722a3daafe3b4186f6b6457e06000604051a3565b60405190613a6c82610872565b600582526430b236b4b760d91b6020830152565b15613a8757565b60405162461bcd60e51b815260206004820152600e60248201527f4e6f7420617574686f72697a65640000000000000000000000000000000000006044820152606490fd5b613ad7610bf7613a5f565b606460ff613aff613af2828551168360208701511690613b73565b8260408601511690613b73565b1603613b0e576108de90613bd6565b604051631fff1b3b60e21b815260206004820152601260248201527f4d7573742073756d20757020746f2031303000000000000000000000000000006044820152606490fd5b906003811015613b66575b60051b0190565b613b6e6116c7565b613b5f565b60ff8091169116908160ff0381116138b5570190565b50634e487b7160e01b600052600060045260246000fd5b8060001904821181151516613bb3570290565b613bbb61385a565b0290565b818110613bca575050565b60008155600101613bbf565b9061017360009081935b600380861015613c33579060209160ff908183511691868654921b90811b9283911b169119161783550193600180930192601f8411613c24575b5060010193613be0565b60009350909101906001613c1a565b505050509050565b15613c4257565b60405162461bcd60e51b815260206004820152602e60248201527f496e697469616c697a61626c653a20636f6e747261637420697320616c72656160448201527f647920696e697469616c697a65640000000000000000000000000000000000006064820152608490fd5b61016980549068010000000000000000821015613d16575b60018201808255821015613d09575b6000527fbd88e1fd0aa5f3038c0cd2a68644e2d11f4e4e7e3693adba414318f2127ca4260180546001600160a01b0319169055565b613d116116c7565b613cd4565b613d1e610802565b613cc5565b6001600160a01b0361016980549068010000000000000000821015613d97575b60018201808255821015613d8a575b6000527fbd88e1fd0aa5f3038c0cd2a68644e2d11f4e4e7e3693adba414318f2127ca4260191166001600160a01b0319825416179055565b613d926116c7565b613d52565b613d9f610802565b613d43565b60019060001981146138b5570190565b90610171600080935b600380861015613c33578160209162ffffff600694511690858754911b65ffffffffffff811b9283911b1691191617855501910193601a8511613e05575b6001019390613dbd565b60009450600190920191613dfb565b60405190613e2182610872565b601382527f457363726f77656420417373657420426f6e64000000000000000000000000006020830152565b60405190613e5a82610872565b600382526222a0a160e91b6020830152565b613ed990613f0b926001600160a01b0380199061016581851683825416179055610166921690825416179055613ebd613eb060008052610167602052604060002090565b805460ff19166001179055565b613ec5613cad565b613f0561016b91613edf613ed98454613da4565b61016b55565b613f00613eb0826001600160a01b0316600052610167602052604060002090565b613d23565b54613da4565b61016a805465ffffffffffff1916630114db00179055613f49613f2c6108d1565b62093a8081526224ea006020820152626ebe006040820152613db4565b613f6b613f546108d1565b60148152601e602082015260326040820152613bd6565b613f84613f76613e14565b613f7e613e4d565b90613f94565b613f8c61399a565b6108de6153fa565b90613faf60ff60005460081c16613faa8161393a565b61393a565b815167ffffffffffffffff81116140aa575b613fd581613fd06065546131f0565b6140b7565b602080601f8311600114614017575081906108de9460009261400c575b50508160011b916000199060031b1c1916176065556141a8565b015190503880613ff2565b919293601f19841661404b60656000527f8ff97419363ffd7000167f130ef7168fbea05faf9251824ca5043f113cc6a7c790565b936000905b8282106140925750509160019391856108de97969410614079575b505050811b016065556141a8565b015160001960f88460031b161c1916905538808061406b565b80600186978294978701518155019601940190614050565b6140b2610802565b613fc1565b90601f82116140c4575050565b6108de9160656000527f8ff97419363ffd7000167f130ef7168fbea05faf9251824ca5043f113cc6a7c7906020601f840160051c8301931061410e575b601f0160051c0190613bbf565b9091508190614101565b90601f8211614125575050565b6108de9160666000527f46501879b8ca8525e8c2fd519e2fbfcfa2ebea26501294aa02cbfcfb12e94354906020601f840160051c8301931061410e57601f0160051c0190613bbf565b9190601f811161417d57505050565b6108de926000526020600020906020601f840160051c8301931061410e57601f0160051c0190613bbf565b90815167ffffffffffffffff8111614293575b6141cf816141ca6066546131f0565b614118565b602080601f831160011461420b5750819293600092614200575b50508160011b916000199060031b1c191617606655565b0151905038806141e9565b90601f1983169461423e60666000527f46501879b8ca8525e8c2fd519e2fbfcfa2ebea26501294aa02cbfcfb12e9435490565b926000905b87821061427b575050836001959610614262575b505050811b01606655565b015160001960f88460031b161c19169055388080614257565b80600185968294968601518155019501930190614243565b61429b610802565b6141bb565b9081602091031261000e575161050f8161061f565b604051906142c282610856565b6060368337565b9065ffffffffffff8091169182156142e057160490565b6142e861390d565b160490565b9065ffffffffffff80809316911680920381116138b5570190565b6143118261274c565b52565b906000905b6003821061432657505050565b6001602082829351865501930191019091614319565b906143468161274c565b61ff0082549160081b169061ff001916179055565b906143658161274c565b62ff000082549160101b169062ff00001916179055565b6108de9061010060066143ab6101708054906801000000000000000082101561451a575b600182019055612703565b61450d575b6143e06143c485516001600160a01b031690565b82546001600160a01b0319166001600160a01b03909116178255565b6144a6600182016143fe6143c460208801516001600160a01b031690565b61444e614414604088015165ffffffffffff1690565b82547fffffffffffff000000000000ffffffffffffffffffffffffffffffffffffffff1660a09190911b65ffffffffffff60a01b16178255565b606086015165ffffffffffff16815479ffffffffffffffffffffffffffffffffffffffffffffffffffff1660d09190911b7fffffffffffff000000000000000000000000000000000000000000000000000016179055565b6144b7608085015160028301614314565b60a0840151600582015501916144e56144d360c0830151151590565b849060ff801983541691151516179055565b6144fc60e08201516144f68161274c565b8461433c565b0151906145088261274c565b61435b565b614515613b89565b6143b0565b614522610802565b6143a0565b60ff6001911660ff81146138b5570190565b600382101561454a575b0190600090565b6145526116c7565b614543565b908152604081019291906020906127c88361274c565b610d5c61457991613871565b509061458c82546001600160a01b031690565b906145ab826001600160a01b031660005261016e602052604060002090565b60068401926145ea6145be855460ff1690565b92831561487657610165546001600160a01b03165b6001600160a01b0316600052602052604060002090565b549182158015614840575b614708575b5050610d5c61460b91949394613871565b509060009260028082019301935b600360ff82161061462c57505050505050565b6146d8906146d3614697614641895460ff1690565b80156146f457610165546001600160a01b0316905b84614691614667610dc7838d614539565b9261467561016b548c613924565b90156146dd576117f36107a3610165546001600160a01b031690565b926150e7565b6146ba6146a4848a614539565b9190926146b58385549060031b1c90565b6138c1565b9082549060031b600019811b9283911b16911916179055565b614527565b614619565b6117f36107a360018c01546001600160a01b031690565b60018601546001600160a01b031690614656565b6147b092506147156142b5565b901561482457614789614731610165546001600160a01b031690565b612ab765ffffffffffff4216612aa861475e614758612a6b61016a5465ffffffffffff1690565b836142ed565b9361477961476a6108b0565b6001600160a01b039099168952565b6001600160a01b03166020880152565b6080820152600060a0820152600160c0820152600060e0820152600061010082015261437c565b61460b610d5c61017054806148086147ec6147d289546001600160a01b031690565b6001600160a01b031660005261016e602052604060002090565b875460ff161561480f57610165546001600160a01b03166145d3565b55916145fa565b60018901546001600160a01b03165b906106fb565b61478961483b60018801546001600160a01b031690565b614731565b506148636001614852610d5c86613871565b50015460a01c65ffffffffffff1690565b65ffffffffffff804216911614156145f5565b60018701546001600160a01b031661481e565b9190916040815260206001600160a01b036148a66040840161322a565b9416910152565b60409093929193606081526001600160a01b036148cc6060830161322a565b951660208201520152565b610d5c6148e391613871565b5060058101916006820191600281019160005b600360ff82161061490957505050505050565b845460ff169081156149fb576149408361492c610165546001600160a01b031690565b8361493a610dc7828b614539565b916150e7565b9161494c8389546138c1565b8855614964610e1b610166546001600160a01b031690565b90156149e857610165546001600160a01b03165b813b1561000e576149bd936149a79260009283604051809681958294636c49e02160e01b8452600484016148ad565b03925af180156149db575b6149c2575b50614527565b6148f6565b806149cf6149d592610819565b80610499565b386149b7565b6149e3612edb565b6149b2565b60018501546001600160a01b0316614978565b61494083614a1360018701546001600160a01b031690565b61492c565b60006101695490614a35610e1b610166546001600160a01b031690565b905b828110614a4657505050600090565b614a526111d482612085565b604051630530fa2160e01b815260209190828180614a738560048301614889565b0381885afa928315614b78575b600093614b53575b5050806117f3614b14614af9614ac7614ab8614b24966001600160a01b0316600052610172602052604060002090565b60008052602052604060002090565b546117f3614ae9866001600160a01b0316600052610172602052604060002090565b6001600052602052604060002090565b926001600160a01b0316600052610172602052604060002090565b6002600052602052604060002090565b9015159081614b49575b50614b4157614b3c90613da4565b614a37565b505050600190565b9050151538614b2e565b614b249293509081614b7092903d1061125b5761124c818361088e565b919038614a88565b614b80612edb565b614a80565b15614b8c57565b60405162461bcd60e51b815260206004820152601c60248201527f4552433732313a20746f6b656e20616c7265616479206d696e746564000000006044820152606490fd5b6001600160a01b038116908115614c9457614c6a90614c0f614c098560005260676020526001600160a01b0360406000205416151590565b15614b85565b614c32614c098560005260676020526001600160a01b0360406000205416151590565b614c4f816001600160a01b03166000526068602052604060002090565b6001815401905561360e846000526067602052604060002090565b60007fddf252ad1be2c89b69c2b068fc378daa952ba7f163c4a11628f55a4df523b3ef81604051a4565b606460405162461bcd60e51b815260206004820152602060248201527f4552433732313a206d696e7420746f20746865207a65726f20616464726573736044820152fd5b8015613881576000190190565b600690600092614d10575b8281558260018201558260058201614d0b8160028501613bbf565b550155565b614d18613b89565b614cf0565b61050f90546131f0565b614d3181546131f0565b9081614d3b575050565b81601f60009311600114614d4d575055565b81835260208320614d6991601f0160051c810190600101613bbf565b8160208120915555565b614d7c816131ce565b50614d86816131ce565b614d9a826000526069602052604060002090565b906001600160a01b0319918281541690556001600160a01b03614dd0826001600160a01b03166000526068602052604060002090565b9160001992838154019055614def856000526067602052604060002090565b84815416905516836000827fddf252ad1be2c89b69c2b068fc378daa952ba7f163c4a11628f55a4df523b3ef82604051a4151580614e9d575b614e6e575b5050614e4b614e46826000526097602052604060002090565b614d1d565b614e525750565b614e696108de916000526097602052604060002090565b614d27565b614e829060018410614e90575b8301612703565b509081541690553880614e2d565b614e9861385a565b614e7b565b506000614e28565b6001600160a01b03908181168060005261016760205260ff92836040600020541615614f18575b6101695460005b8186821610614eea57505050506108de9150613d23565b8383614ef583612085565b90549060031b1c1614614f1057614f0b90614527565b614ed3565b505050505050565b61016b614f258154613da4565b9055614f48613eb0846001600160a01b0316600052610167602052604060002090565b614ecc565b6001600160a01b0392908381169081614ff5575050614f78610e1b610166546001600160a01b031690565b81813110614fe357803b1561000e57604051633e97486160e11b8152939092166001600160a01b03166004840152602483015260009082908183816044810103925af18015614fd6575b614fc95750565b806149cf6108de92610819565b614fde612edb565b614fc2565b604051631e9acf1760e31b8152600490fd5b9190935061500f610e1b610166546001600160a01b031690565b6040516370a0823160e01b81526001600160a01b03821660048201526020958391908790829060249082905afa9081156150da575b6000916150bd575b5010614fe35760405163276d76f960e21b81526001600160a01b03938416600482015293909216602484015260448301528290829060649082906000905af180156150b0575b61509a575050565b816130a092903d106110c2576110b2818361088e565b6150b8612edb565b615092565b6150d49150873d891161125b5761124c818361088e565b3861504c565b6150e2612edb565b615044565b92916000816150fa575050505050600090565b6001600160a01b03606461513a604094615135615158986003891015615164575b60ff8960051c610173015460f88b60031b161c1690613ba0565b613ba0565b0495168152610172602052209060ff16600052602052604060002090565b5490811561392e570490565b61516c6116c7565b61511b565b60405191906000835b600382106151a1575050506060820182811067ffffffffffffffff82111761082d57604052565b600160208192855481520193019101909161517a565b95939192979694909761012087019887526001600160a01b039081602095168589015216604087015265ffffffffffff809216606087015216608085015260a084016000905b600382106152145750505050610100901515910152565b828060019286518152019401910190926151fd565b7fbbad5407299f3773930327d215f85a16617efbbddc1fe3902bd39ba46feacf269060018110615382575b6152616000198201612703565b509061537d61526e6108b0565b61528f61528285546001600160a01b031690565b6001600160a01b03168252565b60018401546001600160a01b038116602083019081529490919060a083901c65ffffffffffff16604083019081529260d01c6060830190815261537061536761535a61534d61533f60066152e560028901615171565b9760808a01988952600581015460a08b015201549761533260ff60c083019a6153128282168d9015159052565b615324828260081c1660e08601614308565b60101c166101008301614308565b516001600160a01b031690565b9a516001600160a01b031690565b965165ffffffffffff1690565b925165ffffffffffff1690565b92519351151590565b93604051978897886151b7565b0390a1565b61538a61385a565b615254565b6001600160a01b03809116151590816153ee575b506153ac575050565b6153c58260016108de94106153e1575b60001901612703565b50906001600160a01b03166001600160a01b0319825416179055565b6153e961385a565b6153bc565b905081161515386153a3565b61540b60ff60005460081c1661393a565b60ff1960ff541660ff5556fea2646970667358221220d8ecf6df74cae3f3b0da1c144122dea09e5736e9f9919f3e1158705a4143ebd064736f6c634300080e00337f26b83ff96e1f2b6a682f133852f6798a09c465da95921460cefb3847402498",
  "devdoc": {
    "kind": "dev",
    "methods": {
      "approve(address,uint256)": {
        "details": "See {IERC721-approve}."
      },
      "balanceOf(address)": {
        "details": "See {IERC721-balanceOf}."
      },
      "getApproved(uint256)": {
        "details": "See {IERC721-getApproved}."
      },
      "isApprovedForAll(address,address)": {
        "details": "See {IERC721-isApprovedForAll}."
      },
      "name()": {
        "details": "See {IERC721Metadata-name}."
      },
      "owner()": {
        "details": "Returns the address of the current owner."
      },
      "ownerOf(uint256)": {
        "details": "See {IERC721-ownerOf}."
      },
      "proxiableUUID()": {
        "details": "Implementation of the ERC1822 {proxiableUUID} function. This returns the storage slot used by the implementation. It is used to validate the implementation's compatibility when performing an upgrade. IMPORTANT: A proxy pointing at a proxiable contract should not be considered proxiable itself, because this risks bricking a proxy that upgrades to it, by delegating to itself until out of gas. Thus it is critical that this function revert if invoked through a proxy. This is guaranteed by the `notDelegated` modifier."
      },
      "renounceOwnership()": {
        "details": "Leaves the contract without owner. It will not be possible to call `onlyOwner` functions anymore. Can only be called by the current owner. NOTE: Renouncing ownership will leave the contract without an owner, thereby removing any functionality that is only available to the owner."
      },
      "safeTransferFrom(address,address,uint256)": {
        "details": "See {IERC721-safeTransferFrom}."
      },
      "safeTransferFrom(address,address,uint256,bytes)": {
        "details": "See {IERC721-safeTransferFrom}."
      },
      "setApprovalForAll(address,bool)": {
        "details": "See {IERC721-setApprovalForAll}."
      },
      "supportsInterface(bytes4)": {
        "details": "See {IERC165-supportsInterface}."
      },
      "symbol()": {
        "details": "See {IERC721Metadata-symbol}."
      },
      "tokenURI(uint256)": {
        "details": "See {IERC721Metadata-tokenURI}."
      },
      "transferFrom(address,address,uint256)": {
        "details": "See {IERC721-transferFrom}."
      },
      "transferOwnership(address)": {
        "details": "Transfers ownership of the contract to a new account (`newOwner`). Can only be called by the current owner."
      },
      "upgradeTo(address)": {
        "details": "Upgrade the implementation of the proxy to `newImplementation`. Calls {_authorizeUpgrade}. Emits an {Upgraded} event."
      },
      "upgradeToAndCall(address,bytes)": {
        "details": "Upgrade the implementation of the proxy to `newImplementation`, and subsequently execute the function call encoded in `data`. Calls {_authorizeUpgrade}. Emits an {Upgraded} event."
      }
    },
    "version": 1
  },
  "userdoc": {
    "kind": "user",
    "methods": {},
    "version": 1
  },
  "storageLayout": {
    "storage": [
      {
        "astId": 674,
        "contract": "contracts/staking/LendingPoolStaking.sol:LendingPoolStaking",
        "label": "_initialized",
        "offset": 0,
        "slot": "0",
        "type": "t_uint8"
      },
      {
        "astId": 677,
        "contract": "contracts/staking/LendingPoolStaking.sol:LendingPoolStaking",
        "label": "_initializing",
        "offset": 1,
        "slot": "0",
        "type": "t_bool"
      },
      {
        "astId": 4007,
        "contract": "contracts/staking/LendingPoolStaking.sol:LendingPoolStaking",
        "label": "__gap",
        "offset": 0,
        "slot": "1",
        "type": "t_array(t_uint256)50_storage"
      },
      {
        "astId": 4788,
        "contract": "contracts/staking/LendingPoolStaking.sol:LendingPoolStaking",
        "label": "__gap",
        "offset": 0,
        "slot": "51",
        "type": "t_array(t_uint256)50_storage"
      },
      {
        "astId": 1980,
        "contract": "contracts/staking/LendingPoolStaking.sol:LendingPoolStaking",
        "label": "_name",
        "offset": 0,
        "slot": "101",
        "type": "t_string_storage"
      },
      {
        "astId": 1982,
        "contract": "contracts/staking/LendingPoolStaking.sol:LendingPoolStaking",
        "label": "_symbol",
        "offset": 0,
        "slot": "102",
        "type": "t_string_storage"
      },
      {
        "astId": 1986,
        "contract": "contracts/staking/LendingPoolStaking.sol:LendingPoolStaking",
        "label": "_owners",
        "offset": 0,
        "slot": "103",
        "type": "t_mapping(t_uint256,t_address)"
      },
      {
        "astId": 1990,
        "contract": "contracts/staking/LendingPoolStaking.sol:LendingPoolStaking",
        "label": "_balances",
        "offset": 0,
        "slot": "104",
        "type": "t_mapping(t_address,t_uint256)"
      },
      {
        "astId": 1994,
        "contract": "contracts/staking/LendingPoolStaking.sol:LendingPoolStaking",
        "label": "_tokenApprovals",
        "offset": 0,
        "slot": "105",
        "type": "t_mapping(t_uint256,t_address)"
      },
      {
        "astId": 2000,
        "contract": "contracts/staking/LendingPoolStaking.sol:LendingPoolStaking",
        "label": "_operatorApprovals",
        "offset": 0,
        "slot": "106",
        "type": "t_mapping(t_address,t_mapping(t_address,t_bool))"
      },
      {
        "astId": 2920,
        "contract": "contracts/staking/LendingPoolStaking.sol:LendingPoolStaking",
        "label": "__gap",
        "offset": 0,
        "slot": "107",
        "type": "t_array(t_uint256)44_storage"
      },
      {
        "astId": 3507,
        "contract": "contracts/staking/LendingPoolStaking.sol:LendingPoolStaking",
        "label": "_tokenURIs",
        "offset": 0,
        "slot": "151",
        "type": "t_mapping(t_uint256,t_string_storage)"
      },
      {
        "astId": 3623,
        "contract": "contracts/staking/LendingPoolStaking.sol:LendingPoolStaking",
        "label": "__gap",
        "offset": 0,
        "slot": "152",
        "type": "t_array(t_uint256)49_storage"
      },
      {
        "astId": 28581,
        "contract": "contracts/staking/LendingPoolStaking.sol:LendingPoolStaking",
        "label": "interestForPoolBalanceName",
        "offset": 0,
        "slot": "201",
        "type": "t_string_storage"
      },
      {
        "astId": 28584,
        "contract": "contracts/staking/LendingPoolStaking.sol:LendingPoolStaking",
        "label": "interestForLenderBalanceName",
        "offset": 0,
        "slot": "202",
        "type": "t_string_storage"
      },
      {
        "astId": 28587,
        "contract": "contracts/staking/LendingPoolStaking.sol:LendingPoolStaking",
        "label": "tradeCommissionBalanceName",
        "offset": 0,
        "slot": "203",
        "type": "t_string_storage"
      },
      {
        "astId": 28590,
        "contract": "contracts/staking/LendingPoolStaking.sol:LendingPoolStaking",
        "label": "bondingCommissionBalanceName",
        "offset": 0,
        "slot": "204",
        "type": "t_string_storage"
      },
      {
        "astId": 9827,
        "contract": "contracts/staking/LendingPoolStaking.sol:LendingPoolStaking",
        "label": "_owner",
        "offset": 0,
        "slot": "205",
        "type": "t_address"
      },
      {
        "astId": 9947,
        "contract": "contracts/staking/LendingPoolStaking.sol:LendingPoolStaking",
        "label": "__gap",
        "offset": 0,
        "slot": "206",
        "type": "t_array(t_uint256)49_storage"
      },
      {
        "astId": 28121,
        "contract": "contracts/staking/LendingPoolStaking.sol:LendingPoolStaking",
        "label": "testing",
        "offset": 0,
        "slot": "255",
        "type": "t_bool"
      },
      {
        "astId": 9959,
        "contract": "contracts/staking/LendingPoolStaking.sol:LendingPoolStaking",
        "label": "hasRole",
        "offset": 0,
        "slot": "256",
        "type": "t_mapping(t_address,t_mapping(t_string_memory_ptr,t_bool))"
      },
      {
        "astId": 656,
        "contract": "contracts/staking/LendingPoolStaking.sol:LendingPoolStaking",
        "label": "__gap",
        "offset": 0,
        "slot": "257",
        "type": "t_array(t_uint256)50_storage"
      },
      {
        "astId": 971,
        "contract": "contracts/staking/LendingPoolStaking.sol:LendingPoolStaking",
        "label": "__gap",
        "offset": 0,
        "slot": "307",
        "type": "t_array(t_uint256)50_storage"
      },
      {
        "astId": 25473,
        "contract": "contracts/staking/LendingPoolStaking.sol:LendingPoolStaking",
        "label": "nend",
        "offset": 0,
        "slot": "357",
        "type": "t_address"
      },
      {
        "astId": 25476,
        "contract": "contracts/staking/LendingPoolStaking.sol:LendingPoolStaking",
        "label": "lendingPool",
        "offset": 0,
        "slot": "358",
        "type": "t_contract(Vault)29380"
      },
      {
        "astId": 25480,
        "contract": "contracts/staking/LendingPoolStaking.sol:LendingPoolStaking",
        "label": "activeStakeTokens",
        "offset": 0,
        "slot": "359",
        "type": "t_mapping(t_address,t_bool)"
      },
      {
        "astId": 25484,
        "contract": "contracts/staking/LendingPoolStaking.sol:LendingPoolStaking",
        "label": "inflationRollOver",
        "offset": 0,
        "slot": "360",
        "type": "t_mapping(t_address,t_uint256)"
      },
      {
        "astId": 25487,
        "contract": "contracts/staking/LendingPoolStaking.sol:LendingPoolStaking",
        "label": "stakeTokens",
        "offset": 0,
        "slot": "361",
        "type": "t_array(t_address)dyn_storage"
      },
      {
        "astId": 25489,
        "contract": "contracts/staking/LendingPoolStaking.sol:LendingPoolStaking",
        "label": "escrowLockPeriod",
        "offset": 0,
        "slot": "362",
        "type": "t_uint48"
      },
      {
        "astId": 25491,
        "contract": "contracts/staking/LendingPoolStaking.sol:LendingPoolStaking",
        "label": "stakeTokenCount",
        "offset": 0,
        "slot": "363",
        "type": "t_uint256"
      },
      {
        "astId": 25493,
        "contract": "contracts/staking/LendingPoolStaking.sol:LendingPoolStaking",
        "label": "ongoingStakeCount",
        "offset": 0,
        "slot": "364",
        "type": "t_uint256"
      },
      {
        "astId": 25497,
        "contract": "contracts/staking/LendingPoolStaking.sol:LendingPoolStaking",
        "label": "ifpTokenToAmount",
        "offset": 0,
        "slot": "365",
        "type": "t_mapping(t_address,t_uint256)"
      },
      {
        "astId": 25503,
        "contract": "contracts/staking/LendingPoolStaking.sol:LendingPoolStaking",
        "label": "userToStakeTokenToLastEscrowId",
        "offset": 0,
        "slot": "366",
        "type": "t_mapping(t_address,t_mapping(t_address,t_uint256))"
      },
      {
        "astId": 25509,
        "contract": "contracts/staking/LendingPoolStaking.sol:LendingPoolStaking",
        "label": "lastEscrowRewardByToken_Duration",
        "offset": 0,
        "slot": "367",
        "type": "t_mapping(t_address,t_mapping(t_uint8,t_uint256))"
      },
      {
        "astId": 25513,
        "contract": "contracts/staking/LendingPoolStaking.sol:LendingPoolStaking",
        "label": "stakes",
        "offset": 0,
        "slot": "368",
        "type": "t_array(t_struct(Stake)27783_storage)dyn_storage"
      },
      {
        "astId": 25517,
        "contract": "contracts/staking/LendingPoolStaking.sol:LendingPoolStaking",
        "label": "stakeDurations",
        "offset": 0,
        "slot": "369",
        "type": "t_array(t_uint48)3_storage"
      },
      {
        "astId": 25523,
        "contract": "contracts/staking/LendingPoolStaking.sol:LendingPoolStaking",
        "label": "totalStakedByToken_Duration",
        "offset": 0,
        "slot": "370",
        "type": "t_mapping(t_address,t_mapping(t_uint8,t_uint256))"
      },
      {
        "astId": 25527,
        "contract": "contracts/staking/LendingPoolStaking.sol:LendingPoolStaking",
        "label": "rewardAllocations",
        "offset": 0,
        "slot": "371",
        "type": "t_array(t_uint8)3_storage"
      },
      {
        "astId": 25529,
        "contract": "contracts/staking/LendingPoolStaking.sol:LendingPoolStaking",
        "label": "poolRollOver",
        "offset": 0,
        "slot": "372",
        "type": "t_uint256"
      }
    ],
    "types": {
      "t_address": {
        "encoding": "inplace",
        "label": "address",
        "numberOfBytes": "20"
      },
      "t_array(t_address)dyn_storage": {
        "base": "t_address",
        "encoding": "dynamic_array",
        "label": "address[]",
        "numberOfBytes": "32"
      },
      "t_array(t_struct(Stake)27783_storage)dyn_storage": {
        "base": "t_struct(Stake)27783_storage",
        "encoding": "dynamic_array",
        "label": "struct ILendingPoolStaking.Stake[]",
        "numberOfBytes": "32"
      },
      "t_array(t_uint256)3_storage": {
        "base": "t_uint256",
        "encoding": "inplace",
        "label": "uint256[3]",
        "numberOfBytes": "96"
      },
      "t_array(t_uint256)44_storage": {
        "base": "t_uint256",
        "encoding": "inplace",
        "label": "uint256[44]",
        "numberOfBytes": "1408"
      },
      "t_array(t_uint256)49_storage": {
        "base": "t_uint256",
        "encoding": "inplace",
        "label": "uint256[49]",
        "numberOfBytes": "1568"
      },
      "t_array(t_uint256)50_storage": {
        "base": "t_uint256",
        "encoding": "inplace",
        "label": "uint256[50]",
        "numberOfBytes": "1600"
      },
      "t_array(t_uint48)3_storage": {
        "base": "t_uint48",
        "encoding": "inplace",
        "label": "uint48[3]",
        "numberOfBytes": "32"
      },
      "t_array(t_uint8)3_storage": {
        "base": "t_uint8",
        "encoding": "inplace",
        "label": "uint8[3]",
        "numberOfBytes": "32"
      },
      "t_bool": {
        "encoding": "inplace",
        "label": "bool",
        "numberOfBytes": "1"
      },
      "t_contract(Vault)29380": {
        "encoding": "inplace",
        "label": "contract Vault",
        "numberOfBytes": "20"
      },
      "t_enum(EscrowStatus)27760": {
        "encoding": "inplace",
        "label": "enum ILendingPoolStaking.EscrowStatus",
        "numberOfBytes": "1"
      },
      "t_enum(StakeStatus)27756": {
        "encoding": "inplace",
        "label": "enum ILendingPoolStaking.StakeStatus",
        "numberOfBytes": "1"
      },
      "t_mapping(t_address,t_bool)": {
        "encoding": "mapping",
        "key": "t_address",
        "label": "mapping(address => bool)",
        "numberOfBytes": "32",
        "value": "t_bool"
      },
      "t_mapping(t_address,t_mapping(t_address,t_bool))": {
        "encoding": "mapping",
        "key": "t_address",
        "label": "mapping(address => mapping(address => bool))",
        "numberOfBytes": "32",
        "value": "t_mapping(t_address,t_bool)"
      },
      "t_mapping(t_address,t_mapping(t_address,t_uint256))": {
        "encoding": "mapping",
        "key": "t_address",
        "label": "mapping(address => mapping(address => uint256))",
        "numberOfBytes": "32",
        "value": "t_mapping(t_address,t_uint256)"
      },
      "t_mapping(t_address,t_mapping(t_string_memory_ptr,t_bool))": {
        "encoding": "mapping",
        "key": "t_address",
        "label": "mapping(address => mapping(string => bool))",
        "numberOfBytes": "32",
        "value": "t_mapping(t_string_memory_ptr,t_bool)"
      },
      "t_mapping(t_address,t_mapping(t_uint8,t_uint256))": {
        "encoding": "mapping",
        "key": "t_address",
        "label": "mapping(address => mapping(uint8 => uint256))",
        "numberOfBytes": "32",
        "value": "t_mapping(t_uint8,t_uint256)"
      },
      "t_mapping(t_address,t_uint256)": {
        "encoding": "mapping",
        "key": "t_address",
        "label": "mapping(address => uint256)",
        "numberOfBytes": "32",
        "value": "t_uint256"
      },
      "t_mapping(t_string_memory_ptr,t_bool)": {
        "encoding": "mapping",
        "key": "t_string_memory_ptr",
        "label": "mapping(string => bool)",
        "numberOfBytes": "32",
        "value": "t_bool"
      },
      "t_mapping(t_uint256,t_address)": {
        "encoding": "mapping",
        "key": "t_uint256",
        "label": "mapping(uint256 => address)",
        "numberOfBytes": "32",
        "value": "t_address"
      },
      "t_mapping(t_uint256,t_string_storage)": {
        "encoding": "mapping",
        "key": "t_uint256",
        "label": "mapping(uint256 => string)",
        "numberOfBytes": "32",
        "value": "t_string_storage"
      },
      "t_mapping(t_uint8,t_uint256)": {
        "encoding": "mapping",
        "key": "t_uint8",
        "label": "mapping(uint8 => uint256)",
        "numberOfBytes": "32",
        "value": "t_uint256"
      },
      "t_string_memory_ptr": {
        "encoding": "bytes",
        "label": "string",
        "numberOfBytes": "32"
      },
      "t_string_storage": {
        "encoding": "bytes",
        "label": "string",
        "numberOfBytes": "32"
      },
      "t_struct(Stake)27783_storage": {
        "encoding": "inplace",
        "label": "struct ILendingPoolStaking.Stake",
        "members": [
          {
            "astId": 27762,
            "contract": "contracts/staking/LendingPoolStaking.sol:LendingPoolStaking",
            "label": "staker",
            "offset": 0,
            "slot": "0",
            "type": "t_address"
          },
          {
            "astId": 27764,
            "contract": "contracts/staking/LendingPoolStaking.sol:LendingPoolStaking",
            "label": "token",
            "offset": 0,
            "slot": "1",
            "type": "t_address"
          },
          {
            "astId": 27766,
            "contract": "contracts/staking/LendingPoolStaking.sol:LendingPoolStaking",
            "label": "start",
            "offset": 20,
            "slot": "1",
            "type": "t_uint48"
          },
          {
            "astId": 27768,
            "contract": "contracts/staking/LendingPoolStaking.sol:LendingPoolStaking",
            "label": "end",
            "offset": 26,
            "slot": "1",
            "type": "t_uint48"
          },
          {
            "astId": 27772,
            "contract": "contracts/staking/LendingPoolStaking.sol:LendingPoolStaking",
            "label": "amountsPerDuration",
            "offset": 0,
            "slot": "2",
            "type": "t_array(t_uint256)3_storage"
          },
          {
            "astId": 27774,
            "contract": "contracts/staking/LendingPoolStaking.sol:LendingPoolStaking",
            "label": "rewardAllocated",
            "offset": 0,
            "slot": "5",
            "type": "t_uint256"
          },
          {
            "astId": 27776,
            "contract": "contracts/staking/LendingPoolStaking.sol:LendingPoolStaking",
            "label": "isEscrow",
            "offset": 0,
            "slot": "6",
            "type": "t_bool"
          },
          {
            "astId": 27779,
            "contract": "contracts/staking/LendingPoolStaking.sol:LendingPoolStaking",
            "label": "escrowStatus",
            "offset": 1,
            "slot": "6",
            "type": "t_enum(EscrowStatus)27760"
          },
          {
            "astId": 27782,
            "contract": "contracts/staking/LendingPoolStaking.sol:LendingPoolStaking",
            "label": "stakeStatus",
            "offset": 2,
            "slot": "6",
            "type": "t_enum(StakeStatus)27756"
          }
        ],
        "numberOfBytes": "224"
      },
      "t_uint256": {
        "encoding": "inplace",
        "label": "uint256",
        "numberOfBytes": "32"
      },
      "t_uint48": {
        "encoding": "inplace",
        "label": "uint48",
        "numberOfBytes": "6"
      },
      "t_uint8": {
        "encoding": "inplace",
        "label": "uint8",
        "numberOfBytes": "1"
      }
    }
  }
}