{
  "address": "0x2873d9Baf6E751a2888F668eA2b298715Ffd5b20",
  "abi": [
    {
      "inputs": [],
      "name": "InsufficientBalance",
      "type": "error"
    },
    {
      "inputs": [
        {
          "internalType": "string",
          "name": "details",
          "type": "string"
        }
      ],
      "name": "InvalidArgument",
      "type": "error"
    },
    {
      "inputs": [],
      "name": "InvalidState",
      "type": "error"
    },
    {
      "inputs": [],
      "name": "Unauthorized",
      "type": "error"
    },
    {
      "anonymous": false,
      "inputs": [
        {
          "indexed": false,
          "internalType": "address",
          "name": "previousAdmin",
          "type": "address"
        },
        {
          "indexed": false,
          "internalType": "address",
          "name": "newAdmin",
          "type": "address"
        }
      ],
      "name": "AdminChanged",
      "type": "event"
    },
    {
      "anonymous": false,
      "inputs": [
        {
          "indexed": true,
          "internalType": "address",
          "name": "owner",
          "type": "address"
        },
        {
          "indexed": true,
          "internalType": "address",
          "name": "approved",
          "type": "address"
        },
        {
          "indexed": true,
          "internalType": "uint256",
          "name": "tokenId",
          "type": "uint256"
        }
      ],
      "name": "Approval",
      "type": "event"
    },
    {
      "anonymous": false,
      "inputs": [
        {
          "indexed": true,
          "internalType": "address",
          "name": "owner",
          "type": "address"
        },
        {
          "indexed": true,
          "internalType": "address",
          "name": "operator",
          "type": "address"
        },
        {
          "indexed": false,
          "internalType": "bool",
          "name": "approved",
          "type": "bool"
        }
      ],
      "name": "ApprovalForAll",
      "type": "event"
    },
    {
      "anonymous": false,
      "inputs": [
        {
          "indexed": false,
          "internalType": "uint256",
          "name": "_fromTokenId",
          "type": "uint256"
        },
        {
          "indexed": false,
          "internalType": "uint256",
          "name": "_toTokenId",
          "type": "uint256"
        }
      ],
      "name": "BatchMetadataUpdate",
      "type": "event"
    },
    {
      "anonymous": false,
      "inputs": [
        {
          "indexed": true,
          "internalType": "address",
          "name": "beacon",
          "type": "address"
        }
      ],
      "name": "BeaconUpgraded",
      "type": "event"
    },
    {
      "anonymous": false,
      "inputs": [
        {
          "indexed": false,
          "internalType": "uint256",
          "name": "stakeId",
          "type": "uint256"
        },
        {
          "indexed": false,
          "internalType": "enum ILendingPoolStaking.EscrowStatus",
          "name": "status",
          "type": "uint8"
        }
      ],
      "name": "EscrowStatusChanged",
      "type": "event"
    },
    {
      "anonymous": false,
      "inputs": [],
      "name": "InflationRewardDistributed",
      "type": "event"
    },
    {
      "anonymous": false,
      "inputs": [
        {
          "indexed": false,
          "internalType": "uint8",
          "name": "version",
          "type": "uint8"
        }
      ],
      "name": "Initialized",
      "type": "event"
    },
    {
      "anonymous": false,
      "inputs": [
        {
          "indexed": false,
          "internalType": "uint256",
          "name": "_tokenId",
          "type": "uint256"
        }
      ],
      "name": "MetadataUpdate",
      "type": "event"
    },
    {
      "anonymous": false,
      "inputs": [],
      "name": "NonInflationRewardDistributed",
      "type": "event"
    },
    {
      "anonymous": false,
      "inputs": [
        {
          "indexed": false,
          "internalType": "uint256",
          "name": "clearedStakes",
          "type": "uint256"
        }
      ],
      "name": "OldStakesCleared",
      "type": "event"
    },
    {
      "anonymous": false,
      "inputs": [
        {
          "indexed": true,
          "internalType": "address",
          "name": "previousOwner",
          "type": "address"
        },
        {
          "indexed": true,
          "internalType": "address",
          "name": "newOwner",
          "type": "address"
        }
      ],
      "name": "OwnershipTransferred",
      "type": "event"
    },
    {
      "anonymous": false,
      "inputs": [
        {
          "indexed": false,
          "internalType": "uint256",
          "name": "stakedMigrated",
          "type": "uint256"
        }
      ],
      "name": "StakeMigrationCompleted",
      "type": "event"
    },
    {
      "anonymous": false,
      "inputs": [
        {
          "indexed": false,
          "internalType": "uint256",
          "name": "stakeId",
          "type": "uint256"
        },
        {
          "indexed": false,
          "internalType": "enum ILendingPoolStaking.StakeStatus",
          "name": "status",
          "type": "uint8"
        }
      ],
      "name": "StakeStatusChanged",
      "type": "event"
    },
    {
      "anonymous": false,
      "inputs": [
        {
          "indexed": false,
          "internalType": "uint256",
          "name": "stakeId",
          "type": "uint256"
        },
        {
          "indexed": false,
          "internalType": "address",
          "name": "staker",
          "type": "address"
        },
        {
          "indexed": false,
          "internalType": "address",
          "name": "token",
          "type": "address"
        },
        {
          "indexed": false,
          "internalType": "uint48",
          "name": "start",
          "type": "uint48"
        },
        {
          "indexed": false,
          "internalType": "uint48",
          "name": "end",
          "type": "uint48"
        },
        {
          "indexed": false,
          "internalType": "uint256[3]",
          "name": "amountsPerDuration",
          "type": "uint256[3]"
        },
        {
          "indexed": false,
          "internalType": "bool",
          "name": "isEscrow",
          "type": "bool"
        }
      ],
      "name": "Staked",
      "type": "event"
    },
    {
      "anonymous": false,
      "inputs": [
        {
          "indexed": true,
          "internalType": "address",
          "name": "from",
          "type": "address"
        },
        {
          "indexed": true,
          "internalType": "address",
          "name": "to",
          "type": "address"
        },
        {
          "indexed": true,
          "internalType": "uint256",
          "name": "tokenId",
          "type": "uint256"
        }
      ],
      "name": "Transfer",
      "type": "event"
    },
    {
      "anonymous": false,
      "inputs": [
        {
          "indexed": true,
          "internalType": "address",
          "name": "implementation",
          "type": "address"
        }
      ],
      "name": "Upgraded",
      "type": "event"
    },
    {
      "inputs": [],
      "name": "__Testing_init",
      "outputs": [],
      "stateMutability": "nonpayable",
      "type": "function"
    },
    {
      "inputs": [
        {
          "internalType": "uint256",
          "name": "",
          "type": "uint256"
        }
      ],
      "name": "activeStakeIndices",
      "outputs": [
        {
          "internalType": "uint256",
          "name": "",
          "type": "uint256"
        }
      ],
      "stateMutability": "view",
      "type": "function"
    },
    {
      "inputs": [
        {
          "internalType": "address",
          "name": "",
          "type": "address"
        }
      ],
      "name": "activeStakeTokens",
      "outputs": [
        {
          "internalType": "bool",
          "name": "",
          "type": "bool"
        }
      ],
      "stateMutability": "view",
      "type": "function"
    },
    {
      "inputs": [
        {
          "internalType": "uint256",
          "name": "",
          "type": "uint256"
        }
      ],
      "name": "activeStakesById",
      "outputs": [
        {
          "internalType": "uint256",
          "name": "",
          "type": "uint256"
        }
      ],
      "stateMutability": "view",
      "type": "function"
    },
    {
      "inputs": [],
      "name": "activeStakesCount",
      "outputs": [
        {
          "internalType": "uint256",
          "name": "",
          "type": "uint256"
        }
      ],
      "stateMutability": "view",
      "type": "function"
    },
    {
      "inputs": [
        {
          "internalType": "address",
          "name": "_stakeToken",
          "type": "address"
        }
      ],
      "name": "addStakeToken",
      "outputs": [],
      "stateMutability": "nonpayable",
      "type": "function"
    },
    {
      "inputs": [
        {
          "internalType": "address",
          "name": "to",
          "type": "address"
        },
        {
          "internalType": "uint256",
          "name": "tokenId",
          "type": "uint256"
        }
      ],
      "name": "approve",
      "outputs": [],
      "stateMutability": "nonpayable",
      "type": "function"
    },
    {
      "inputs": [
        {
          "internalType": "address",
          "name": "operator",
          "type": "address"
        },
        {
          "internalType": "string",
          "name": "role",
          "type": "string"
        },
        {
          "internalType": "bool",
          "name": "authorized",
          "type": "bool"
        }
      ],
      "name": "authorize",
      "outputs": [],
      "stateMutability": "nonpayable",
      "type": "function"
    },
    {
      "inputs": [
        {
          "internalType": "address",
          "name": "owner",
          "type": "address"
        }
      ],
      "name": "balanceOf",
      "outputs": [
        {
          "internalType": "uint256",
          "name": "",
          "type": "uint256"
        }
      ],
      "stateMutability": "view",
      "type": "function"
    },
    {
      "inputs": [],
      "name": "clearOldStakesStorage",
      "outputs": [],
      "stateMutability": "nonpayable",
      "type": "function"
    },
    {
      "inputs": [
        {
          "internalType": "address",
          "name": "_token",
          "type": "address"
        },
        {
          "internalType": "uint256",
          "name": "_amount",
          "type": "uint256"
        },
        {
          "internalType": "uint8",
          "name": "_durationId",
          "type": "uint8"
        }
      ],
      "name": "deposit",
      "outputs": [],
      "stateMutability": "payable",
      "type": "function"
    },
    {
      "inputs": [
        {
          "internalType": "uint256",
          "name": "_inflationReward",
          "type": "uint256"
        }
      ],
      "name": "distributeInflationRewards",
      "outputs": [],
      "stateMutability": "nonpayable",
      "type": "function"
    },
    {
      "inputs": [],
      "name": "distributeNonInflationRewards",
      "outputs": [],
      "stateMutability": "nonpayable",
      "type": "function"
    },
    {
      "inputs": [],
      "name": "escrowLockPeriod",
      "outputs": [
        {
          "internalType": "uint48",
          "name": "",
          "type": "uint48"
        }
      ],
      "stateMutability": "view",
      "type": "function"
    },
    {
      "inputs": [
        {
          "internalType": "uint256",
          "name": "tokenId",
          "type": "uint256"
        }
      ],
      "name": "getApproved",
      "outputs": [
        {
          "internalType": "address",
          "name": "",
          "type": "address"
        }
      ],
      "stateMutability": "view",
      "type": "function"
    },
    {
      "inputs": [],
      "name": "hasPendingNonInflationRewards",
      "outputs": [
        {
          "internalType": "bool",
          "name": "",
          "type": "bool"
        }
      ],
      "stateMutability": "view",
      "type": "function"
    },
    {
      "inputs": [
        {
          "internalType": "address",
          "name": "",
          "type": "address"
        },
        {
          "internalType": "string",
          "name": "",
          "type": "string"
        }
      ],
      "name": "hasRole",
      "outputs": [
        {
          "internalType": "bool",
          "name": "",
          "type": "bool"
        }
      ],
      "stateMutability": "view",
      "type": "function"
    },
    {
      "inputs": [
        {
          "internalType": "address",
          "name": "",
          "type": "address"
        }
      ],
      "name": "inflationRollOver",
      "outputs": [
        {
          "internalType": "uint256",
          "name": "",
          "type": "uint256"
        }
      ],
      "stateMutability": "view",
      "type": "function"
    },
    {
      "inputs": [
        {
          "internalType": "address",
          "name": "_nend",
          "type": "address"
        },
        {
          "internalType": "contract Vault",
          "name": "_lendingPool",
          "type": "address"
        }
      ],
      "name": "initialize",
      "outputs": [],
      "stateMutability": "nonpayable",
      "type": "function"
    },
    {
      "inputs": [
        {
          "internalType": "uint256",
          "name": "",
          "type": "uint256"
        }
      ],
      "name": "isActiveStake",
      "outputs": [
        {
          "internalType": "bool",
          "name": "",
          "type": "bool"
        }
      ],
      "stateMutability": "view",
      "type": "function"
    },
    {
      "inputs": [
        {
          "internalType": "address",
          "name": "owner",
          "type": "address"
        },
        {
          "internalType": "address",
          "name": "operator",
          "type": "address"
        }
      ],
      "name": "isApprovedForAll",
      "outputs": [
        {
          "internalType": "bool",
          "name": "",
          "type": "bool"
        }
      ],
      "stateMutability": "view",
      "type": "function"
    },
    {
      "inputs": [
        {
          "internalType": "uint256",
          "name": "_stakeId",
          "type": "uint256"
        }
      ],
      "name": "issueEAB",
      "outputs": [],
      "stateMutability": "nonpayable",
      "type": "function"
    },
    {
      "inputs": [
        {
          "internalType": "address",
          "name": "",
          "type": "address"
        },
        {
          "internalType": "uint8",
          "name": "",
          "type": "uint8"
        }
      ],
      "name": "lastEscrowRewardByToken_Duration",
      "outputs": [
        {
          "internalType": "uint256",
          "name": "",
          "type": "uint256"
        }
      ],
      "stateMutability": "view",
      "type": "function"
    },
    {
      "inputs": [],
      "name": "lendingPool",
      "outputs": [
        {
          "internalType": "contract Vault",
          "name": "",
          "type": "address"
        }
      ],
      "stateMutability": "view",
      "type": "function"
    },
    {
      "inputs": [],
      "name": "migrateStakesToMapping",
      "outputs": [],
      "stateMutability": "nonpayable",
      "type": "function"
    },
    {
      "inputs": [],
      "name": "migrationCompleted",
      "outputs": [
        {
          "internalType": "bool",
          "name": "",
          "type": "bool"
        }
      ],
      "stateMutability": "view",
      "type": "function"
    },
    {
      "inputs": [],
      "name": "name",
      "outputs": [
        {
          "internalType": "string",
          "name": "",
          "type": "string"
        }
      ],
      "stateMutability": "view",
      "type": "function"
    },
    {
      "inputs": [],
      "name": "nend",
      "outputs": [
        {
          "internalType": "address",
          "name": "",
          "type": "address"
        }
      ],
      "stateMutability": "view",
      "type": "function"
    },
    {
      "inputs": [],
      "name": "nextStakeId",
      "outputs": [
        {
          "internalType": "uint256",
          "name": "",
          "type": "uint256"
        }
      ],
      "stateMutability": "view",
      "type": "function"
    },
    {
      "inputs": [],
      "name": "ongoingStakeCount",
      "outputs": [
        {
          "internalType": "uint256",
          "name": "",
          "type": "uint256"
        }
      ],
      "stateMutability": "view",
      "type": "function"
    },
    {
      "inputs": [],
      "name": "owner",
      "outputs": [
        {
          "internalType": "address",
          "name": "",
          "type": "address"
        }
      ],
      "stateMutability": "view",
      "type": "function"
    },
    {
      "inputs": [
        {
          "internalType": "uint256",
          "name": "tokenId",
          "type": "uint256"
        }
      ],
      "name": "ownerOf",
      "outputs": [
        {
          "internalType": "address",
          "name": "",
          "type": "address"
        }
      ],
      "stateMutability": "view",
      "type": "function"
    },
    {
      "inputs": [],
      "name": "poolRollOver",
      "outputs": [
        {
          "internalType": "uint256",
          "name": "",
          "type": "uint256"
        }
      ],
      "stateMutability": "view",
      "type": "function"
    },
    {
      "inputs": [],
      "name": "proxiableUUID",
      "outputs": [
        {
          "internalType": "bytes32",
          "name": "",
          "type": "bytes32"
        }
      ],
      "stateMutability": "view",
      "type": "function"
    },
    {
      "inputs": [
        {
          "internalType": "address",
          "name": "_stakeToken",
          "type": "address"
        }
      ],
      "name": "removeStakeToken",
      "outputs": [],
      "stateMutability": "nonpayable",
      "type": "function"
    },
    {
      "inputs": [],
      "name": "renounceOwnership",
      "outputs": [],
      "stateMutability": "nonpayable",
      "type": "function"
    },
    {
      "inputs": [
        {
          "internalType": "uint256",
          "name": "_activeIdCount",
          "type": "uint256"
        }
      ],
      "name": "resetActiveStakeIds",
      "outputs": [],
      "stateMutability": "nonpayable",
      "type": "function"
    },
    {
      "inputs": [
        {
          "internalType": "uint256",
          "name": "",
          "type": "uint256"
        }
      ],
      "name": "rewardAllocations",
      "outputs": [
        {
          "internalType": "uint8",
          "name": "",
          "type": "uint8"
        }
      ],
      "stateMutability": "view",
      "type": "function"
    },
    {
      "inputs": [
        {
          "internalType": "address",
          "name": "from",
          "type": "address"
        },
        {
          "internalType": "address",
          "name": "to",
          "type": "address"
        },
        {
          "internalType": "uint256",
          "name": "tokenId",
          "type": "uint256"
        }
      ],
      "name": "safeTransferFrom",
      "outputs": [],
      "stateMutability": "nonpayable",
      "type": "function"
    },
    {
      "inputs": [
        {
          "internalType": "address",
          "name": "from",
          "type": "address"
        },
        {
          "internalType": "address",
          "name": "to",
          "type": "address"
        },
        {
          "internalType": "uint256",
          "name": "tokenId",
          "type": "uint256"
        },
        {
          "internalType": "bytes",
          "name": "data",
          "type": "bytes"
        }
      ],
      "name": "safeTransferFrom",
      "outputs": [],
      "stateMutability": "nonpayable",
      "type": "function"
    },
    {
      "inputs": [
        {
          "internalType": "address",
          "name": "operator",
          "type": "address"
        },
        {
          "internalType": "bool",
          "name": "approved",
          "type": "bool"
        }
      ],
      "name": "setApprovalForAll",
      "outputs": [],
      "stateMutability": "nonpayable",
      "type": "function"
    },
    {
      "inputs": [
        {
          "internalType": "uint8[3]",
          "name": "_rewardAllocations",
          "type": "uint8[3]"
        }
      ],
      "name": "setRewardAllocations",
      "outputs": [],
      "stateMutability": "nonpayable",
      "type": "function"
    },
    {
      "inputs": [
        {
          "internalType": "bool",
          "name": "_testing",
          "type": "bool"
        }
      ],
      "name": "setTesting",
      "outputs": [],
      "stateMutability": "nonpayable",
      "type": "function"
    },
    {
      "inputs": [
        {
          "internalType": "uint256",
          "name": "_tokenId",
          "type": "uint256"
        },
        {
          "internalType": "string",
          "name": "_tokenURI",
          "type": "string"
        }
      ],
      "name": "setTokenURI",
      "outputs": [],
      "stateMutability": "nonpayable",
      "type": "function"
    },
    {
      "inputs": [
        {
          "internalType": "uint256",
          "name": "",
          "type": "uint256"
        }
      ],
      "name": "stakeDurations",
      "outputs": [
        {
          "internalType": "uint48",
          "name": "",
          "type": "uint48"
        }
      ],
      "stateMutability": "view",
      "type": "function"
    },
    {
      "inputs": [
        {
          "internalType": "uint256",
          "name": "_stakeId",
          "type": "uint256"
        }
      ],
      "name": "stakeEscrowedReward",
      "outputs": [],
      "stateMutability": "nonpayable",
      "type": "function"
    },
    {
      "inputs": [],
      "name": "stakeTokenCount",
      "outputs": [
        {
          "internalType": "uint256",
          "name": "",
          "type": "uint256"
        }
      ],
      "stateMutability": "view",
      "type": "function"
    },
    {
      "inputs": [
        {
          "internalType": "uint256",
          "name": "",
          "type": "uint256"
        }
      ],
      "name": "stakeTokens",
      "outputs": [
        {
          "internalType": "address",
          "name": "",
          "type": "address"
        }
      ],
      "stateMutability": "view",
      "type": "function"
    },
    {
      "inputs": [
        {
          "internalType": "uint256",
          "name": "",
          "type": "uint256"
        }
      ],
      "name": "stakes",
      "outputs": [
        {
          "internalType": "address",
          "name": "staker",
          "type": "address"
        },
        {
          "internalType": "address",
          "name": "token",
          "type": "address"
        },
        {
          "internalType": "uint48",
          "name": "start",
          "type": "uint48"
        },
        {
          "internalType": "uint48",
          "name": "end",
          "type": "uint48"
        },
        {
          "internalType": "uint256",
          "name": "rewardAllocated",
          "type": "uint256"
        },
        {
          "internalType": "bool",
          "name": "isEscrow",
          "type": "bool"
        },
        {
          "internalType": "enum ILendingPoolStaking.EscrowStatus",
          "name": "escrowStatus",
          "type": "uint8"
        },
        {
          "internalType": "enum ILendingPoolStaking.StakeStatus",
          "name": "stakeStatus",
          "type": "uint8"
        }
      ],
      "stateMutability": "view",
      "type": "function"
    },
    {
      "inputs": [
        {
          "internalType": "bytes4",
          "name": "interfaceId",
          "type": "bytes4"
        }
      ],
      "name": "supportsInterface",
      "outputs": [
        {
          "internalType": "bool",
          "name": "",
          "type": "bool"
        }
      ],
      "stateMutability": "view",
      "type": "function"
    },
    {
      "inputs": [],
      "name": "symbol",
      "outputs": [
        {
          "internalType": "string",
          "name": "",
          "type": "string"
        }
      ],
      "stateMutability": "view",
      "type": "function"
    },
    {
      "inputs": [],
      "name": "testing",
      "outputs": [
        {
          "internalType": "bool",
          "name": "",
          "type": "bool"
        }
      ],
      "stateMutability": "view",
      "type": "function"
    },
    {
      "inputs": [
        {
          "internalType": "uint256",
          "name": "tokenId",
          "type": "uint256"
        }
      ],
      "name": "tokenURI",
      "outputs": [
        {
          "internalType": "string",
          "name": "",
          "type": "string"
        }
      ],
      "stateMutability": "view",
      "type": "function"
    },
    {
      "inputs": [
        {
          "internalType": "address",
          "name": "",
          "type": "address"
        },
        {
          "internalType": "uint8",
          "name": "",
          "type": "uint8"
        }
      ],
      "name": "totalStakedByToken_Duration",
      "outputs": [
        {
          "internalType": "uint256",
          "name": "",
          "type": "uint256"
        }
      ],
      "stateMutability": "view",
      "type": "function"
    },
    {
      "inputs": [
        {
          "internalType": "address",
          "name": "from",
          "type": "address"
        },
        {
          "internalType": "address",
          "name": "to",
          "type": "address"
        },
        {
          "internalType": "uint256",
          "name": "tokenId",
          "type": "uint256"
        }
      ],
      "name": "transferFrom",
      "outputs": [],
      "stateMutability": "nonpayable",
      "type": "function"
    },
    {
      "inputs": [
        {
          "internalType": "address",
          "name": "newOwner",
          "type": "address"
        }
      ],
      "name": "transferOwnership",
      "outputs": [],
      "stateMutability": "nonpayable",
      "type": "function"
    },
    {
      "inputs": [
        {
          "internalType": "uint256",
          "name": "_stakeId",
          "type": "uint256"
        }
      ],
      "name": "unstake",
      "outputs": [],
      "stateMutability": "nonpayable",
      "type": "function"
    },
    {
      "inputs": [
        {
          "internalType": "address",
          "name": "newImplementation",
          "type": "address"
        }
      ],
      "name": "upgradeTo",
      "outputs": [],
      "stateMutability": "nonpayable",
      "type": "function"
    },
    {
      "inputs": [
        {
          "internalType": "address",
          "name": "newImplementation",
          "type": "address"
        },
        {
          "internalType": "bytes",
          "name": "data",
          "type": "bytes"
        }
      ],
      "name": "upgradeToAndCall",
      "outputs": [],
      "stateMutability": "payable",
      "type": "function"
    }
  ],
  "transactionHash": "0x4f13973500549f0f38764f118207ac6a51452ee1c439afdbc8426d347a0928af",
  "args": [],
  "numDeployments": 4,
  "solcInputHash": "ecd9b580078e09e5184962e73d3f96b4",
  "bytecode": "0x60a0604052346200011e576000546200003260ff8260081c1615809281936200010f575b8115620000ec575b5062000123565b8062000046600160ff196000541617600055565b620000d1575b6200005c60ff1960fb541660fb55565b6200008d575b30608052604051615b1290816200018882396080518181816117bc01528181611fd501526122eb0152f35b6200009e61ff001960005416600055565b604051600181527f7f26b83ff96e1f2b6a682f133852f6798a09c465da95921460cefb384740249890602090a162000062565b620000e661010061ff00196000541617600055565b6200004c565b303b1591508162000100575b50386200002b565b6001915060ff161438620000f8565b600160ff821610915062000023565b600080fd5b156200012b57565b60405162461bcd60e51b815260206004820152602e60248201527f496e697469616c697a61626c653a20636f6e747261637420697320616c72656160448201526d191e481a5b9a5d1a585b1a5e995960921b6064820152608490fdfe60806040526004361015610013575b600080fd5b60003560e01c806301ffc9a7146104af57806306fdde03146104a6578063081812fc1461049d57806308ed8d1614610494578063095ea7b31461048b578063125cc42f14610482578063162094c414610479578063166866c7146104705780631fecb71a14610467578063217fe6c61461045e57806323b872dd146104555780632e17de781461044c57806331677980146104435780633587e1611461043a5780633659cfe61461043157806339d2525f146104285780633c2ee2031461041f5780633c661b8b146104165780633de15c121461040d57806342842e0e14610404578063485cc955146103fb5780634f1ef286146103f2578063528a9e4d146103e957806352d1902d146103e057806352f42e36146103d75780636352211e146103ce5780636fd10dc7146103c557806370a08231146103bc578063715018a6146103b357806372a4db4a146103aa5780637547c7a3146103a157806375506c961461039857806378fecc991461038f5780638295220014610386578063848778b41461037d5780638614c509146103745780638d03b1021461036b5780638da5cb5b1461036257806395d89b41146103595780639ad143de146103505780639b45d024146103475780639db5fa651461033e578063a22cb46514610335578063a59a99731461032c578063afed7ea614610323578063b88d4fde1461031a578063ba5e4bad14610311578063bad7edab14610308578063bf021550146102ff578063c436e318146102f6578063c87b56dd146102ed578063d2438c2a146102e4578063d5a44f86146102db578063de3e3eff146102d2578063e25b7d82146102c9578063e985e9c5146102c0578063ef7bd7f3146102b7578063f19ed6be146102ae5763f2fde38b146102a657600080fd5b61000e6133cd565b5061000e612f85565b5061000e612f65565b5061000e612efa565b5061000e612ed2565b5061000e612e8e565b5061000e612def565b5061000e612d40565b5061000e612d0c565b5061000e612cec565b5061000e612c98565b5061000e612bc9565b5061000e612ba9565b5061000e612b51565b5061000e612b23565b5061000e612afa565b5061000e612a08565b5061000e6129ab565b5061000e61298b565b5061000e612958565b5061000e6128b0565b5061000e612888565b5061000e612864565b5061000e612836565b5061000e6127f6565b5061000e6127cd565b5061000e6127a7565b5061000e612787565b5061000e61272b565b5061000e612689565b5061000e6125fb565b5061000e612555565b5061000e6124ab565b5061000e61248c565b5061000e6123a7565b5061000e6122cf565b5061000e612129565b5061000e611f8f565b5061000e611e95565b5061000e611e6c565b5061000e611b98565b5061000e611b5c565b5061000e6119c3565b5061000e611925565b5061000e611792565b5061000e6113d8565b5061000e6113b3565b5061000e610e54565b5061000e610e2a565b5061000e610d6f565b5061000e610cd0565b5061000e610c0c565b5061000e6109f3565b5061000e61085e565b5061000e610731565b5061000e6106e3565b5061000e6106a9565b5061000e6105cc565b5061000e6104ca565b6001600160e01b031981160361000e57565b503461000e57602036600319011261000e5760206004356104ea816104b8565b63ffffffff60e01b16632483248360e11b8114908115610510575b506040519015158152f35b6380ac58cd60e01b811491508115610542575b8115610531575b5038610505565b6301ffc9a760e01b1490503861052a565b635b5e139f60e01b81149150610523565b600091031261000e57565b918091926000905b82821061057e575011610577575050565b6000910152565b91508060209183015181860152018291610566565b906020916105ac8151809281855285808601910161055e565b601f01601f1916010190565b9060206105c9928181520190610593565b90565b503461000e576000806003193601126106a65760405190806065546105f08161386f565b80855291600191808316908115610685575060011461062a575b6106268561061a8187038261092f565b604051918291826105b8565b0390f35b9250606583527f8ff97419363ffd7000167f130ef7168fbea05faf9251824ca5043f113cc6a7c75b82841061066d57505050810160200161061a8261062661060a565b80546020858701810191909152909301928101610652565b60ff19166020870152505060408401925061061a915083905061062661060a565b80fd5b503461000e57602036600319011261000e5760206106c860043561391b565b6001600160a01b0360405191168152f35b8015150361000e57565b503461000e57602036600319011261000e57600435610701816106d9565b61070961345f565b60ff801960fb5416911515161760fb556000604051f35b6001600160a01b0381160361000e57565b503461000e57604036600319011261000e5760043561074f81610720565b60243561075b8161384d565b916001600160a01b0380841680918316146107db5761078d9361078891331490811561078f575b506138a9565b613c90565b005b6107d591506107ce906107b633916001600160a01b0316600052606a602052604060002090565b906001600160a01b0316600052602052604060002090565b5460ff1690565b38610782565b60405162461bcd60e51b815260206004820152602160248201527f4552433732313a20617070726f76616c20746f2063757272656e74206f776e656044820152603960f91b6064820152608490fd5b6001600160a01b031660005261016e602052604060002090565b6001600160a01b0316600052610169602052604060002090565b503461000e57602036600319011261000e576001600160a01b0360043561088481610720565b16600052610163602052602060ff604060002054166040519015158152f35b50634e487b7160e01b600052604160045260246000fd5b67ffffffffffffffff81116108ce57604052565b6108d66108a3565b604052565b6020810190811067ffffffffffffffff8211176108ce57604052565b6060810190811067ffffffffffffffff8211176108ce57604052565b6040810190811067ffffffffffffffff8211176108ce57604052565b90601f8019910116810190811067ffffffffffffffff8211176108ce57604052565b60405190610120820182811067ffffffffffffffff8211176108ce57604052565b6040519061097f826108f7565b565b60209067ffffffffffffffff811161099f575b601f01601f19160190565b6109a76108a3565b610994565b81601f8201121561000e578035906109c382610981565b926109d1604051948561092f565b8284526020838301011161000e57816000926020809301838601378301015290565b503461000e57604036600319011261000e5760043567ffffffffffffffff60243581811161000e57610a299036906004016109ac565b91610a3261345f565b610a528160005260676020526001600160a01b0360406000205416151590565b15610ba1576000918183526020906097825260408420918551918211610b94575b610a8782610a81855461386f565b85614bc0565b80601f8311600114610afe57509080610aeb94939286977ff8e1a15aba9398e019f0b49df1a4fde98ee17ae345cb5f6b5e2c27f5033e8ce79792610af3575b50508160011b916000199060031b1c19161790555b6040519081529081906020820190565b0390a1604051f35b015190503880610ac6565b90601f19831696610b1485600052602060002090565b9287905b898210610b7c575050918391600193610aeb9796957ff8e1a15aba9398e019f0b49df1a4fde98ee17ae345cb5f6b5e2c27f5033e8ce7999a10610b63575b505050811b019055610adb565b015160001960f88460031b161c19169055388080610b56565b80600185968294968601518155019501930190610b18565b610b9c6108a3565b610a73565b60405162461bcd60e51b815260206004820152602e60248201527f45524337323155524953746f726167653a2055524920736574206f66206e6f6e60448201527f6578697374656e7420746f6b656e0000000000000000000000000000000000006064820152608490fd5b503461000e5760208060031936011261000e57600435610c2b81610720565b610c33614477565b90610c576001600160a01b0392848460c954163314918215610c95575b5050614498565b1690816000526101639182825260ff60406000205416610c7357005b610167610c80815461556d565b905560005252604060002060ff198154169055005b60ff925090610cbe913360005260fc82526040600020826040519483868095519384920161055e565b82019081520301902054168438610c50565b503461000e57602036600319011261000e5761078d600435610cf181610720565b610d18610cfc614477565b6001600160a01b0360c954163314908115610d1d575b50614498565b6156e4565b60ff91506020610d47913360005260fc82526040600020826040519483868095519384920161055e565b820190815203019020541638610d12565b90610d6b6020928281519485920161055e565b0190565b503461000e57604036600319011261000e57600435610d8d81610720565b60243567ffffffffffffffff811161000e57610de16020610626936001600160a01b03610dc060ff9536906004016109ac565b911660005260fc82526040600020826040519483868095519384920161055e565b820190815203019020546040519116151581529081906020820190565b606090600319011261000e57600435610e1681610720565b90602435610e2381610720565b9060443590565b503461000e5761078d610e3c36610dfe565b91610e4f610e4a8433613a4a565b61395d565b613b25565b503461000e5760208060031936011261000e57600435610e7f81600052610171602052604060002090565b91610e9183546001600160a01b031690565b906001600160a01b039182339116036113a2576001840190815492428460d01c118015611384575b8015611366575b6113545760056002870196838854610ee8610ede8b60010190600090565b90549060031b1c90565b01610ef760028b016000610ede565b016006830197610f08895460ff1690565b15611341575090610f65600092610f3a610f2e610f2e610161546001600160a01b031690565b6001600160a01b031690565b60405163a9059cbb60e01b815233600482015260248101929092529093849283919082906044820190565b03925af18015611334575b611317575b505b015480611264575b505082546001915060101c60ff16610f9681612d6f565b146111bf575b50805462ff0000191662020000178155604080518381526002602082015261078d94506110399392917fab7e44c17ad2a7b4de0e42ab0bc824366a946f184a1133f0b5528347e4ccbd2991a18054600160ff8260081c16610ffc81612d6f565b149081156111b4575b5061113c575b506110246107ce82600052610173602052604060002090565b61103e57600052610171602052604060002090565b61557a565b61106061105682600052610173602052604060002090565b805460ff19169055565b61107581600052610174602052604060002090565b54610176908154611085816150eb565b82106110eb575b50508054806110b9575b505060008181526101746020526040812055600052610171602052604060002090565b6000916110d16110cb6110e39361556d565b61017655565b54600052610175602052604060002090565b553880611096565b61110b6110fa611134926150eb565b600052610175602052604060002090565b548061112284600052610175602052604060002090565b55600052610174602052604060002090565b55388061108c565b805461ff0019166102001790556111698160005260676020526001600160a01b0360406000205416151590565b6111a6575b60408051828152600260208201527f855f5f4ea7c8c6a92f173fbc35c24d01139c2a49e9bcc085f03620cb6a1c65139190a13861100b565b6111af816155f5565b61116e565b60ff91501638611005565b6111d46111ce6101685461556d565b61016855565b600090815b600360ff8216106111eb575050610f9c565b806111fc610ede6112449389614db8565b855460ff16156112495761123d6112358361122361082a610161546001600160a01b031690565b9060ff16600052602052604060002090565b918254615108565b9055614da6565b6111d9565b61123d6112358361122361082a88546001600160a01b031690565b6112b48391611274875460ff1690565b1561130657610161546001600160a01b0316905b60405163a9059cbb60e01b81523360048201526024810191909152938492839160009183906044820190565b0393165af180156112f9575b6112cb575b80610f7f565b816112ea92903d106112f2575b6112e2818361092f565b810190614cf2565b5038806112c5565b503d6112d8565b6113016135e5565b6112c0565b85546001600160a01b031690611288565b61132d90853d87116112f2576112e2818361092f565b5038610f75565b61133c6135e5565b610f70565b61134f925085339116615784565b610f77565b60405163baf3f0f760e01b8152600490fd5b50600686015460029060081c60ff1661137e81612d6f565b14610ec0565b50600686015460029060101c60ff1661139c81612d6f565b14610eb9565b6040516282b42960e81b8152600490fd5b503461000e57600036600319011261000e57602060ff61017754166040519015158152f35b503461000e576000806003193601126106a6576113f361345f565b6114086114036101775460ff1690565b614dec565b805b61016554811015611501576114c290611498611432610f2e610162546001600160a01b031690565b61145161143e846126e6565b90546001600160a01b039160031b1c1690565b6040518092630530fa2160e01b8252818060209687956004830160408082526003908201526206966760ec1b60608201526001600160a01b03909116602082015260800190565b03915afa9182156114f4575b85926114c7575b50506114bc61084461143e846126e6565b556140b0565b61140a565b6114e69250803d106114ed575b6114de818361092f565b8101906135d6565b38806114ab565b503d6114d4565b6114fc6135e5565b6114a4565b50805b610176548110156115e657806115286115b292600052610175602052604060002090565b546115486115446107ce83600052610173602052604060002090565b1590565b6115e05761156181600052610171602052604060002090565b9060068201549160ff90818460101c169161157b83612d6f565b60018093036115d6576115ad9416156115b75750506115a6610844610161546001600160a01b031690565b549061511f565b6140b0565b611504565b01546001600160a01b03166000908152610169602052604090206115a6565b50505050506140b0565b506140b0565b50805b61016554811015611768578061160761084461143e6116a5946126e6565b548361161f610f2e610162546001600160a01b031690565b61162b61143e856126e6565b6040916116938351630530fa2160e01b815260209687828061167960049889830160408082526003908201526206966760ec1b60608201526001600160a01b03909116602082015260800190565b0381875afa91821561175b575b879261173c575b50615108565b91826116aa575b5050505050506140b0565b6115e9565b6116f79486946116bc61143e8a6126e6565b905163276d76f960e21b81526001600160a01b0390911692810192835230602084015260408301949094529294859384929091839160600190565b03925af1801561172f575b611711575b808080879361169a565b8161172792903d106112f2576112e2818361092f565b503880611707565b6117376135e5565b611702565b611754919250883d8a116114ed576114de818361092f565b903861168d565b6117636135e5565b611686565b506040517f3ebfd10f795a127a78001b56051c04828d55b68d9d77ebce97b617c8adc53ed28282a1f35b503461000e57602036600319011261000e576004356117b081610720565b6001600160a01b0390817f000000000000000000000000000000000000000000000000000000000000000016916117e983301415613501565b6118187f360894a13ba1a3210667c828492db98dca3e2076cc3735a920a3ca505d382bbc938285541614613562565b61182061345f565b6040519061182d826108db565b600082527f4910fdfa16fed3260ed0e7147f7cc6da11a60208b5b9406d12a635614ffd91435460ff161561186757505061078d9150613650565b6020600491604094939451928380926352d1902d60e01b825286165afa60009181611905575b506118f25760405162461bcd60e51b815260206004820152602e60248201527f45524331393637557067726164653a206e657720696d706c656d656e7461746960448201526d6f6e206973206e6f74205555505360901b6064820152608490fd5b0390fd5b61078d9361190091146135f2565b6136ee565b61191e91925060203d81116114ed576114de818361092f565b903861188d565b503461000e57606036600319011261000e5760043561194381610720565b6024359067ffffffffffffffff821161000e576119a9602061196c61078d9436906004016109ac565b6001600160a01b0360443594611981866106d9565b61198961345f565b1660005260fc82526040600020826040519483868095519384920161055e565b8201908152030190209060ff801983541691151516179055565b503461000e57600036600319011261000e576119dd61345f565b6119f56119f06115446101775460ff1690565b6140c8565b61016c5460005b818110611a52577f4ecbc2a518da375eb925941a298a8cd4db6c0c6ed78e70d196ca5c9a92b97967611a4d83611a3a611a3482614256565b61017255565b610177805460ff19166001179055610adb565b0390a1005b80611a68611a62611ab493614114565b506141af565b6001610100611a7684614256565b92611a9581611a9086600052610171602052604060002090565b614310565b0151611aa081612d6f565b611aa981612d6f565b14611ab957506140b0565b6119fc565b6110cb6114bc82611ae8611adb611b1895600052610173602052604060002090565b805460ff19166001179055565b61017681611b028254600052610175602052604060002090565b5554918291600052610174602052604060002090565b386115e0565b50634e487b7160e01b600052603260045260246000fd5b906003821015611b4f575b601f8260051c61016f01921690565b611b57611b1e565b611b40565b503461000e57602036600319011261000e57600435600381101561000e578060ff60209260051c61016f015460f86040519360031b161c168152f35b503461000e57602036600319011261000e57600435611bc3610f2e610161546001600160a01b031690565b33036113a257611bd96114036101775460ff1690565b61017090611be8825482614266565b90611bf4600061017055565b6101765460005b818110611de157505060005b61016554811015611db657611c1e61143e826126e6565b610167611c54611c2f825487614083565b611c4d846001600160a01b0316600052610164602052604060002090565b5490614266565b6000611c74846001600160a01b0316600052610164602052604060002090565b55600090815b600360ff821610611ceb57505090600360ff611ca09594931614611ca5575b50506140b0565b611c07565b611cd7611cde916000611ccf611ce4956001600160a01b0316600052610164602052604060002090565b555486614083565b8754614266565b61017055565b3880611c99565b611d20611d19611d13611d0d611d0085611b35565b905460ff9160031b1c1690565b60ff1690565b84614272565b6064900490565b611d4282611223886001600160a01b031660005261016e602052604060002090565b5415611d7b575b90611d7691611d7082611223896001600160a01b031660005261016b602052604060002090565b55614da6565b611c7a565b9290611dad611d7692611da2886001600160a01b0316600052610164602052604060002090565b61123d878254614266565b93909150611d49565b60006040517fbd9c0e36f2110aa67058734f061a385583a1d8b5758bcb065ca0f26c4c64603c8282a1f35b80611df9600192600052610175602052604060002090565b5485611e136107ce83600052610173602052604060002090565b80611e36575b611e26575b505001611bfb565b611e2f91614e38565b3885611e1e565b5083611e5d6006611e5285600052610171602052604060002090565b015460101c60ff1690565b611e6681612d6f565b14611e19565b503461000e5761078d611e7e36610dfe565b9060405192611e8c846108db565b600084526139bf565b503461000e57604036600319011261000e57600435611eb381610720565b611f03602435611ec281610720565b60005492611ee760ff8560081c161580958196611f81575b8115611f61575b50614606565b83611efa600160ff196000541617600055565b611f4857614827565b611f0957005b611f1961ff001960005416600055565b604051600181527f7f26b83ff96e1f2b6a682f133852f6798a09c465da95921460cefb384740249890602090a1005b611f5c61010061ff00196000541617600055565b614827565b303b15915081611f73575b5038611ee1565b6001915060ff161438611f6c565b600160ff8216109150611eda565b50604036600319011261000e57600435611fa881610720565b60243567ffffffffffffffff811161000e57611fc89036906004016109ac565b906001600160a01b0391827f0000000000000000000000000000000000000000000000000000000000000000169261200284301415613501565b6120317f360894a13ba1a3210667c828492db98dca3e2076cc3735a920a3ca505d382bbc948286541614613562565b61203961345f565b7f4910fdfa16fed3260ed0e7147f7cc6da11a60208b5b9406d12a635614ffd91435460ff161561206f57505061078d9150613650565b6020600491604094939451928380926352d1902d60e01b825286165afa60009181612109575b506120f65760405162461bcd60e51b815260206004820152602e60248201527f45524331393637557067726164653a206e657720696d706c656d656e7461746960448201526d6f6e206973206e6f74205555505360901b6064820152608490fd5b61078d9361210491146135f2565b6137aa565b61212291925060203d81116114ed576114de818361092f565b9038612095565b503461000e57602036600319011261000e5760043561215381600052610171602052604060002090565b9061216582546001600160a01b031690565b6001600160a01b03339116036113a2576006820180549260ff9384808216159182156122b7575b505061135457815462ff0000191662010000178255926121b16111ce610168546140b0565b600260009401935b600382821610612278577fab7e44c17ad2a7b4de0e42ab0bc824366a946f184a1133f0b5528347e4ccbd2984612213856122046115446107ce85600052610173602052604060002090565b612223575b5460101c60ff1690565b90611a4d60405192839283614dd6565b61223b611adb84600052610173602052604060002090565b6122736110cb6101768561225b8254600052610175602052604060002090565b5554806114bc87600052610174602052604060002090565b612209565b6122b08161228b610ede60039489614db8565b61123d6122a88361122361082a610161546001600160a01b031690565b918254614266565b90506121b9565b60101c1690506122c681612d6f565b1515843861218c565b503461000e57600036600319011261000e576001600160a01b037f000000000000000000000000000000000000000000000000000000000000000016300361233c576040517f360894a13ba1a3210667c828492db98dca3e2076cc3735a920a3ca505d382bbc8152602090f35b60405162461bcd60e51b815260206004820152603860248201527f555550535570677261646561626c653a206d757374206e6f742062652063616c60448201527f6c6564207468726f7567682064656c656761746563616c6c00000000000000006064820152608490fd5b503461000e57602036600319011261000e576004356123c461345f565b60016101725403612447576123da600061017655565b60015b818111156123e757005b806124066115446107ce61244294600052610173602052604060002090565b6115ad576115ad6110cb6101768361242a8254600052610175602052604060002090565b5554806114bc85600052610174602052604060002090565b6123dd565b60405162461bcd60e51b815260206004820152601260248201527f4e6f207374616b657320746f20726573657400000000000000000000000000006044820152606490fd5b503461000e57602036600319011261000e5760206106c860043561384d565b503461000e57600036600319011261000e576124c561345f565b60ff610177541615612506577fa46c7471822a6bdf82b5230c4056f248ea912a2772b35b3f984485b9c9f6cc31602061016c600081549155604051908152a1005b60405162461bcd60e51b815260206004820152602160248201527f4d6967726174696f6e206d75737420626520636f6d706c6574656420666972736044820152601d60fa1b6064820152608490fd5b503461000e57602036600319011261000e576001600160a01b0360043561257b81610720565b1680156125a4576000526068602052610626604060002054604051918291829190602083019252565b60405162461bcd60e51b815260206004820152602960248201527f4552433732313a2061646472657373207a65726f206973206e6f7420612076616044820152683634b21037bbb732b960b91b6064820152608490fd5b503461000e576000806003193601126106a65761261661345f565b60c9546001600160a01b0319811660c955816001600160a01b0360405192167f8be0079c531659141344cd1fd0a4f28419497f9722a3daafe3b4186f6b6457e08284a3f35b6024359060ff8216820361000e57565b6044359060ff8216820361000e57565b359060ff8216820361000e57565b503461000e57606036600319011261000e57366023121561000e576040516126b0816108f7565b60648136821161000e576004905b8282106126ce5761078d846144e4565b602080916126db8461267b565b8152019101906126be565b610165805482101561271e575b6000527fd91ca5e44fa96a1732bfaed7fe33fc20ed69a9895cde1f18c7dcabca39d6a78b0190600090565b612726611b1e565b6126f3565b503461000e57602036600319011261000e57600435610165805482101561000e576020916001600160a01b03916000527fd91ca5e44fa96a1732bfaed7fe33fc20ed69a9895cde1f18c7dcabca39d6a78b015416604051908152f35b503461000e57600036600319011261000e57602061017254604051908152f35b503461000e57600036600319011261000e5760206127c361528f565b6040519015158152f35b503461000e57600036600319011261000e5760206001600160a01b036101615416604051908152f35b503461000e57602036600319011261000e576001600160a01b0360043561281c81610720565b166000526101646020526020604060002054604051908152f35b503461000e57602036600319011261000e576004356000526101746020526020604060002054604051908152f35b503461000e57600036600319011261000e57602060ff60fb54166040519015158152f35b503461000e57600036600319011261000e5760206001600160a01b0360c95416604051908152f35b503461000e576000806003193601126106a65760405190806066546128d48161386f565b8085529160019180831690811561068557506001146128fd576106268561061a8187038261092f565b9250606683527f46501879b8ca8525e8c2fd519e2fbfcfa2ebea26501294aa02cbfcfb12e943545b82841061294057505050810160200161061a8261062661060a565b80546020858701810191909152909301928101612925565b503461000e57602036600319011261000e57600435600052610173602052602060ff604060002054166040519015158152f35b503461000e57600036600319011261000e57602061016854604051908152f35b503461000e57604036600319011261000e5760206129ff6004356129ce81610720565b6001600160a01b036129de61265b565b911660005261016e835260406000209060ff16600052602052604060002090565b54604051908152f35b503461000e57604036600319011261000e57600435612a2681610720565b602435612a32816106d9565b6001600160a01b03821691823314612ab55781612a72612a839233600052606a6020526040600020906001600160a01b0316600052602052604060002090565b9060ff801983541691151516179055565b604051901515815233907f17307eab39ab6107e8899845ad3d59bd9653f200f220920489ca2b5937696c3190602090a3005b60405162461bcd60e51b815260206004820152601960248201527f4552433732313a20617070726f766520746f2063616c6c6572000000000000006044820152606490fd5b503461000e57600036600319011261000e5760206001600160a01b036101625416604051908152f35b503461000e57602036600319011261000e576004356000526101756020526020604060002054604051908152f35b503461000e57608036600319011261000e57600435612b6f81610720565b602435612b7b81610720565b6064359167ffffffffffffffff831161000e57612b9f61078d9336906004016109ac565b91604435916139bf565b503461000e57600036600319011261000e57602061017054604051908152f35b503461000e57602036600319011261000e57600435612bf381600052610171602052604060002090565b8054336001600160a01b03909116036113a2576006018054600260ff8260101c16612c1d81612d6f565b14908115612c7f575b5061135457805461ff0019166101001790557f855f5f4ea7c8c6a92f173fbc35c24d01139c2a49e9bcc085f03620cb6a1c651390611a4d90612c688133615466565b604080519182526001602083015290918291820190565b60ff915060081c16612c9081612d6f565b151538612c26565b503461000e57604036600319011261000e5760206129ff600435612cbb81610720565b6001600160a01b03612ccb61265b565b911660005261016b835260406000209060ff16600052602052604060002090565b503461000e57600036600319011261000e57602061017654604051908152f35b503461000e57602036600319011261000e57610626612d2c600435613e74565b604051918291602083526020830190610593565b503461000e57600036600319011261000e57612d6360ff60005460081c16614968565b60fb805460ff19169055005b60031115612d7957565b634e487b7160e01b600052602160045260246000fd5b94919897969360e096939161010087019a6001600160a01b03809216885216602087015265ffffffffffff80921660408701521660608501526080840152151560a0830152612ddd81612d6f565b60c0820152612deb83612d6f565b0152565b503461000e57602036600319011261000e5760043560005261017160205260406000206001600160a01b0361062681835416600184015490600660058601549501549060405195869560ff8460101c169460ff808660081c169516938160d01c9265ffffffffffff8360a01c1692169089612d8f565b906003821015612e81575b6006600580840461016d0193060290565b612e89611b1e565b612e70565b503461000e57602036600319011261000e57600435600381101561000e578065ffffffffffff60056020930461016d01546006600560405194060260031b1c168152f35b503461000e57600036600319011261000e57602065ffffffffffff6101665416604051908152f35b503461000e57604036600319011261000e57602060ff612f59600435612f1f81610720565b6001600160a01b0360243591612f3483610720565b16600052606a84526040600020906001600160a01b0316600052602052604060002090565b54166040519015158152f35b503461000e57600036600319011261000e57602061016754604051908152f35b50606036600319011261000e5760048035612f9f81610720565b602435612faa61266b565b92811561337f57612fd56115446107ce856001600160a01b0316600052610163602052604060002090565b613331576001600160a01b03831680158015806132c9575b6132b8571561321257508134036131b9575061318b6122a861078d9461303b60008080613026610f2e610162546001600160a01b031690565b88604051915af1613035613d3a565b50614d07565b611223613046614d53565b958561305560ff85168961456c565b52610172549661313b9088156131ab57613071611a348a6140b0565b65ffffffffffff4216906130fe6130c16130bb6130a26130908a612e65565b905465ffffffffffff9160031b1c1690565b60fb5460ff16156131a15761ffff6103f05b1690614d67565b84614d8b565b6130ef6130cc610951565b338152946001600160a01b03881660208701525b65ffffffffffff166040860152565b65ffffffffffff166060840152565b6080820152600060a0820152600060c0820152600060e0820152613126610100820160019052565b611a9089600052610171602052604060002090565b613153611adb88600052610173602052604060002090565b61082a6110cb610176896131738254600052610175602052604060002090565b5554806114bc8b600052610174602052604060002090565b905561319c6111ce610168546140b0565b6159a8565b61ffff60016130b4565b613071611a3460019a6140b0565b6118ee90604051918291631fff1b3b60e21b8352820160809060208152602260208201527f496e636f7272656374206e617469766520636f696e207374616b6520616d6f756040820152611b9d60f21b60608201520190565b61078d946132776020856122a89461318b96600061323c610f2e610162546001600160a01b031690565b604080516323b872dd60e01b8152339481019485526001600160a01b0390921660208501528301949094529294859384929091839160600190565b03925af180156132ab575b61328d575b5061303b565b6132a49060203d81116112f2576112e2818361092f565b5038613287565b6132b36135e5565b613282565b604051631e9acf1760e31b81528390fd5b506040516370a0823160e01b8152338482019081528591906020908290819083010381875afa908115613324575b600091613306575b5010612fed565b61331e915060203d81116114ed576114de818361092f565b386132ff565b61332c6135e5565b6132f7565b6118ee90604051918291631fff1b3b60e21b8352820160609060208152601360208201527f496e76616c6964207374616b6520746f6b656e0000000000000000000000000060408201520190565b6118ee90604051918291631fff1b3b60e21b8352820160609060208152601560208201527f416d6f756e742063616e6e6f74206265207a65726f000000000000000000000060408201520190565b503461000e57602036600319011261000e576004356133eb81610720565b6133f361345f565b6001600160a01b0381161561340b5761078d906134b7565b60405162461bcd60e51b815260206004820152602660248201527f4f776e61626c653a206e6577206f776e657220697320746865207a65726f206160448201526564647265737360d01b6064820152608490fd5b6001600160a01b0360c95416330361347357565b606460405162461bcd60e51b815260206004820152602060248201527f4f776e61626c653a2063616c6c6572206973206e6f7420746865206f776e65726044820152fd5b60c954906001600160a01b0380911691826001600160a01b031982161760c955167f8be0079c531659141344cd1fd0a4f28419497f9722a3daafe3b4186f6b6457e06000604051a3565b1561350857565b60405162461bcd60e51b815260206004820152602c60248201527f46756e6374696f6e206d7573742062652063616c6c6564207468726f7567682060448201526b19195b1959d85d1958d85b1b60a21b6064820152608490fd5b1561356957565b60405162461bcd60e51b815260206004820152602c60248201527f46756e6374696f6e206d7573742062652063616c6c6564207468726f7567682060448201526b6163746976652070726f787960a01b6064820152608490fd5b604051906135d0826108db565b60008252565b9081602091031261000e575190565b506040513d6000823e3d90fd5b156135f957565b60405162461bcd60e51b815260206004820152602960248201527f45524331393637557067726164653a20756e737570706f727465642070726f786044820152681a58589b195555525160ba1b6064820152608490fd5b803b15613693576001600160a01b037f360894a13ba1a3210667c828492db98dca3e2076cc3735a920a3ca505d382bbc91166001600160a01b0319825416179055565b60405162461bcd60e51b815260206004820152602d60248201527f455243313936373a206e657720696d706c656d656e746174696f6e206973206e60448201526c1bdd08184818dbdb9d1c9858dd609a1b6064820152608490fd5b6136f781613650565b604051906001600160a01b0381167fbc7cd75a20ee27fd9adebab32041f755214dbc6bffa90cc0225b39da2e5c2d3b600084a28251158015906137a2575b61373e57505050565b60008061379f9461374e856108f7565b602785527f416464726573733a206c6f772d6c6576656c2064656c65676174652063616c6c6020860152660819985a5b195960ca1b6040860152602081519101845af4613799613d3a565b91613fdb565b50565b506000613735565b6137b381613650565b604051906001600160a01b0381167fbc7cd75a20ee27fd9adebab32041f755214dbc6bffa90cc0225b39da2e5c2d3b600084a28251158015906137f95761373e57505050565b506001613735565b1561380857565b60405162461bcd60e51b815260206004820152601860248201527f4552433732313a20696e76616c696420746f6b656e20494400000000000000006044820152606490fd5b60005260676020526001600160a01b03604060002054166105c9811515613801565b90600182811c9216801561389f575b602083101461388957565b634e487b7160e01b600052602260045260246000fd5b91607f169161387e565b156138b057565b60405162461bcd60e51b815260206004820152603d60248201527f4552433732313a20617070726f76652063616c6c6572206973206e6f7420746f60448201527f6b656e206f776e6572206f7220617070726f76656420666f7220616c6c0000006064820152608490fd5b61394361393e8260005260676020526001600160a01b0360406000205416151590565b613801565b60005260696020526001600160a01b036040600020541690565b1561396457565b60405162461bcd60e51b815260206004820152602d60248201527f4552433732313a2063616c6c6572206973206e6f7420746f6b656e206f776e6560448201526c1c881bdc88185c1c1c9bdd9959609a1b6064820152608490fd5b906139e39392916139d3610e4a8433613a4a565b6139de838383613b25565b613d6a565b156139ea57565b60405162461bcd60e51b815260206004820152603260248201527f4552433732313a207472616e7366657220746f206e6f6e20455243373231526560448201527131b2b4bb32b91034b6b83632b6b2b73a32b960711b6064820152608490fd5b6001600160a01b0380613a5c8461384d565b169281831692848414948515613a92575b50508315613a7c575b50505090565b613a889192935061391b565b1614388080613a76565b60ff92955090613ac191600052606a6020526040600020906001600160a01b0316600052602052604060002090565b5416923880613a6d565b15613ad257565b60405162461bcd60e51b815260206004820152602560248201527f4552433732313a207472616e736665722066726f6d20696e636f72726563742060448201526437bbb732b960d91b6064820152608490fd5b90613b4b9291613b348361384d565b6001600160a01b0382811695909182168614613acb565b8216938415613c3f5761097f9481613b708693613b6a610f2e8661384d565b14613acb565b613b97613b87846000526069602052604060002090565b80546001600160a01b0319169055565b613bb4846001600160a01b03166000526068602052604060002090565b6000198154019055613bd9856001600160a01b03166000526068602052604060002090565b60018154019055613c1385613bf8856000526067602052604060002090565b906001600160a01b03166001600160a01b0319825416179055565b7fddf252ad1be2c89b69c2b068fc378daa952ba7f163c4a11628f55a4df523b3ef6000604051a4615a69565b60405162461bcd60e51b8152602060048201526024808201527f4552433732313a207472616e7366657220746f20746865207a65726f206164646044820152637265737360e01b6064820152608490fd5b600082815260696020526040902080546001600160a01b0319166001600160a01b0383161790556001600160a01b0380613cc98461384d565b169116907f8c5be1e5ebec7d5bd14f71427d1e84f3dd0314c0f7b2291e5b200ac8c7c3b9256000604051a4565b9081602091031261000e57516105c9816104b8565b90926105c994936080936001600160a01b03809216845216602083015260408201528160608201520190610593565b3d15613d65573d90613d4b82610981565b91613d59604051938461092f565b82523d6000602084013e565b606090565b92909190823b15613e6b57613da59260209260006001600160a01b03604051809781968295630a85bd0160e11b9b8c85523360048601613d0b565b0393165af160009181613e3b575b50613e2d57613dc0613d3a565b80519081613e285760405162461bcd60e51b815260206004820152603260248201527f4552433732313a207472616e7366657220746f206e6f6e20455243373231526560448201527131b2b4bb32b91034b6b83632b6b2b73a32b960711b6064820152608490fd5b602001fd5b6001600160e01b0319161490565b613e5d91925060203d8111613e64575b613e55818361092f565b810190613cf6565b9038613db3565b503d613e4b565b50505050600190565b613e9761393e8260005260676020526001600160a01b0360406000205416151590565b6000908082526020609781526040832060405184819590835490613eba8261386f565b80855294600192808416908115613f765750600114613f3a575b505050613ee39250038461092f565b613eeb6135c3565b92835115613f33578051613f055750506105c99150613f96565b6105c99250613f2590613f1f604051958694850190610d58565b90610d58565b03601f19810183528261092f565b9250505090565b869350819291528282205b858310613f5e575050613ee39350820101388080613ed4565b8054838a018501528894508693909201918101613f45565b965050505050505060ff191681840152613ee38360408101388080613ed4565b61393e613fb99160005260676020526001600160a01b0360406000205416151590565b6000604051613fc7816108db565b52604051613fd4816108db565b6000815290565b9192901561403d5750815115613fef575090565b3b15613ff85790565b60405162461bcd60e51b815260206004820152601d60248201527f416464726573733a2063616c6c20746f206e6f6e2d636f6e74726163740000006044820152606490fd5b8251909150156140505750805190602001fd5b60405162461bcd60e51b81529081906118ee90600483016105b8565b50634e487b7160e01b600052601260045260246000fd5b811561408d570490565b61409561406c565b0490565b50634e487b7160e01b600052601160045260246000fd5b60019060001981146140c0570190565b610d6b614099565b156140cf57565b60405162461bcd60e51b815260206004820152601b60248201527f4d6967726174696f6e20616c726561647920706572666f726d656400000000006044820152606490fd5b60079061016c8054821015614150575b600052027fe5af487827b121aa2456a019311df153887da6c98285803eea72252e4f09489b0190600090565b614158611b1e565b614124565b60405191906000835b6003821061418d575050506060820182811067ffffffffffffffff8211176108ce57604052565b6001602081928554815201930191019091614166565b6141ac82612d6f565b52565b9061097f60ff60066141bf610951565b946141e16141d482546001600160a01b031690565b6001600160a01b03168752565b60018101546001600160a01b038116602088015265ffffffffffff60a082901c16604088015260d01c606087015261421b6002820161415d565b6080870152600581015460a08701520154818116151560c0860152614248828260081c1660e087016141a3565b60101c1661010084016141a3565b60019060011981116140c0570190565b811981116140c0570190565b8060001904821181151516614285570290565b61428d614099565b0290565b81811061429c575050565b60008155600101614291565b906000905b600382106142ba57505050565b60016020828293518655019301910190916142ad565b906142da81612d6f565b61ff0082549160081b169061ff001916179055565b906142f981612d6f565b62ff000082549160101b169062ff00001916179055565b90610100600661097f9361434a61432e85516001600160a01b031690565b82546001600160a01b0319166001600160a01b03909116178255565b6144106001820161436861432e60208801516001600160a01b031690565b6143b861437e604088015165ffffffffffff1690565b82547fffffffffffff000000000000ffffffffffffffffffffffffffffffffffffffff1660a09190911b65ffffffffffff60a01b16178255565b606086015165ffffffffffff16815479ffffffffffffffffffffffffffffffffffffffffffffffffffff1660d09190911b7fffffffffffff000000000000000000000000000000000000000000000000000016179055565b6144216080850151600283016142a8565b60a08401516005820155019161444f61443d60c0830151151590565b849060ff801983541691151516179055565b61446660e082015161446081612d6f565b846142d0565b01519061447282612d6f565b6142ef565b6040519061448482610913565b600582526430b236b4b760d91b6020830152565b1561449f57565b60405162461bcd60e51b815260206004820152600e60248201527f4e6f7420617574686f72697a65640000000000000000000000000000000000006044820152606490fd5b6144ef610cfc614477565b606460ff61451761450a82855116836020870151169061458b565b826040860151169061458b565b16036145265761097f906145a1565b604051631fff1b3b60e21b815260206004820152601260248201527f4d7573742073756d20757020746f2031303000000000000000000000000000006044820152606490fd5b90600381101561457e575b60051b0190565b614586611b1e565b614577565b60ff8091169116908160ff0381116140c0570190565b9061016f60009081935b6003808610156145fe579060209160ff908183511691868654921b90811b9283911b169119161783550193600180930192601f84116145ef575b50600101936145ab565b600093509091019060016145e5565b505050509050565b1561460d57565b60405162461bcd60e51b815260206004820152602e60248201527f496e697469616c697a61626c653a20636f6e747261637420697320616c72656160448201527f647920696e697469616c697a65640000000000000000000000000000000000006064820152608490fd5b610165805490680100000000000000008210156146e1575b600182018082558210156146d4575b6000527fd91ca5e44fa96a1732bfaed7fe33fc20ed69a9895cde1f18c7dcabca39d6a78b0180546001600160a01b0319169055565b6146dc611b1e565b61469f565b6146e96108a3565b614690565b6001600160a01b0361016580549068010000000000000000821015614762575b60018201808255821015614755575b6000527fd91ca5e44fa96a1732bfaed7fe33fc20ed69a9895cde1f18c7dcabca39d6a78b0191166001600160a01b0319825416179055565b61475d611b1e565b61471d565b61476a6108a3565b61470e565b9061016d600080935b6003808610156145fe578160209162ffffff600694511690858754911b65ffffffffffff811b9283911b1691191617855501910193601a85116147c0575b6001019390614778565b600094506001909201916147b6565b604051906147dc82610913565b601382527f457363726f77656420417373657420426f6e64000000000000000000000000006020830152565b6040519061481582610913565b600382526222a0a160e91b6020830152565b6148ad906148df926001600160a01b038019906101618185168382541617905561016292169082541617905561485e600161017255565b600080526101636020526148917f323947e965fafc5a11fbcfc7a37a72d1b12094b96c7e62e08b97c054e8e6b0a7611adb565b614899614678565b6148d9610167916148b36148ad84546140b0565b61016755565b6148d4611adb826001600160a01b0316600052610163602052604060002090565b6146ee565b546140b0565b610166805465ffffffffffff1916630114db0017905561491d614900610972565b62093a8081526224ea006020820152626ebe00604082015261476f565b61493f614928610972565b60148152601e6020820152603260408201526145a1565b61495861494a6147cf565b614952614808565b906149eb565b6149606149c8565b61097f615abf565b1561496f57565b60405162461bcd60e51b815260206004820152602b60248201527f496e697469616c697a61626c653a20636f6e7472616374206973206e6f74206960448201526a6e697469616c697a696e6760a81b6064820152608490fd5b6149e260ff60005460081c166149dd81614968565b614968565b61097f336134b7565b90614a0160ff60005460081c166149dd81614968565b815167ffffffffffffffff8111614afc575b614a2781614a2260655461386f565b614b09565b602080601f8311600114614a695750819061097f94600092614a5e575b50508160011b916000199060031b1c191617606555614bfa565b015190503880614a44565b919293601f198416614a9d60656000527f8ff97419363ffd7000167f130ef7168fbea05faf9251824ca5043f113cc6a7c790565b936000905b828210614ae457505091600193918561097f97969410614acb575b505050811b01606555614bfa565b015160001960f88460031b161c19169055388080614abd565b80600186978294978701518155019601940190614aa2565b614b046108a3565b614a13565b90601f8211614b16575050565b61097f9160656000527f8ff97419363ffd7000167f130ef7168fbea05faf9251824ca5043f113cc6a7c7906020601f840160051c83019310614b60575b601f0160051c0190614291565b9091508190614b53565b90601f8211614b77575050565b61097f9160666000527f46501879b8ca8525e8c2fd519e2fbfcfa2ebea26501294aa02cbfcfb12e94354906020601f840160051c83019310614b6057601f0160051c0190614291565b9190601f8111614bcf57505050565b61097f926000526020600020906020601f840160051c83019310614b6057601f0160051c0190614291565b90815167ffffffffffffffff8111614ce5575b614c2181614c1c60665461386f565b614b6a565b602080601f8311600114614c5d5750819293600092614c52575b50508160011b916000199060031b1c191617606655565b015190503880614c3b565b90601f19831694614c9060666000527f46501879b8ca8525e8c2fd519e2fbfcfa2ebea26501294aa02cbfcfb12e9435490565b926000905b878210614ccd575050836001959610614cb4575b505050811b01606655565b015160001960f88460031b161c19169055388080614ca9565b80600185968294968601518155019501930190614c95565b614ced6108a3565b614c0d565b9081602091031261000e57516105c9816106d9565b15614d0e57565b60405162461bcd60e51b815260206004820152601f60248201527f4661696c656420746f207472616e73666572206e617469766520746f6b656e006044820152606490fd5b60405190614d60826108f7565b6060368337565b9065ffffffffffff809116918215614d7e57160490565b614d8661406c565b160490565b9065ffffffffffff80809316911680920381116140c0570190565b60ff6001911660ff81146140c0570190565b6003821015614dc9575b0190600090565b614dd1611b1e565b614dc2565b90815260408101929190602090612deb83612d6f565b15614df357565b60405162461bcd60e51b815260206004820152601960248201527f4d757374206d696772617465207374616b6573206669727374000000000000006044820152606490fd5b614e4d90600052610171602052604060002090565b90614e5c600683015460ff1690565b156150d857610161546001600160a01b03165b614ea1816107b6614e8786546001600160a01b031690565b6001600160a01b031660005261016a602052604060002090565b548015801561509a575b614f79575b614ec890939293600052610171602052604060002090565b92600280600094019401925b60ff9060038282161015614f715780614f6a614f2e614ef8610ede6001958b614db8565b614f26614f086101675489614083565b611c4d8a6001600160a01b0316600052610164602052604060002090565b90848961591e565b614f51614f3b848a614db8565b919092614f4c8385549060031b1c90565b614266565b9082549060031b600019811b9283911b16911916179055565b0116614ed4565b505050505050565b50614ec8614f85614d53565b6150386101725491614f99611a34846140b0565b86546001600160a01b03169061500165ffffffffffff42166130ef614fd2614fcc6130a26101665465ffffffffffff1690565b83614d8b565b91614fed614fde610951565b6001600160a01b039097168752565b6001600160a01b038a1660208701526130e0565b6080820152600060a0820152600160c0820152600060e08201526000610100820152611a9083600052610171602052604060002090565b615050611adb82600052610173602052604060002090565b6150706110cb6101768361242a8254600052610175602052604060002090565b80615089846107b6614e8789546001600160a01b031690565b55615093816159a8565b9050614eb0565b506150c560016150b583600052610171602052604060002090565b015460a01c65ffffffffffff1690565b65ffffffffffff80421691161415614eab565b60018201546001600160a01b0316614e6f565b600181106150fb575b6000190190565b615103614099565b6150f4565b818110615113570390565b61511b614099565b0390565b61513490600052610171602052604060002090565b60058101916006820191600281019160005b60ff906003828216101561528657855460ff169081156152695761518b84615177610161546001600160a01b031690565b83615185610ede828c614db8565b9161591e565b91615197838a54614266565b89556151af610f2e610162546001600160a01b031690565b901561525657610161546001600160a01b03165b813b1561000e57604051636c49e02160e01b815260606004820152600360648201526206966760ec1b60848201526001600160a01b03919091166024820152604481019390935260019290600090829060a490829084905af18015615249575b615230575b500116615146565b8061523d615243926108ba565b80610553565b38615228565b6152516135e5565b615223565b60018601546001600160a01b03166151c3565b61518b8461528160018801546001600160a01b031690565b615177565b50505050505050565b600061016554906152ac610f2e610162546001600160a01b031690565b905b8281106152bd57505050600090565b6152c961143e826126e6565b60408051630530fa2160e01b81526004810191909152600360448201526206966760ec1b60648201526001600160a01b0382166024820152602091908281608481885afa92831561540d575b6000936153e8575b505080611c4d6153a961538e61535c61534d6153b9966001600160a01b031660005261016e602052604060002090565b60008052602052604060002090565b54611c4d61537e866001600160a01b031660005261016e602052604060002090565b6001600052602052604060002090565b926001600160a01b031660005261016e602052604060002090565b6002600052602052604060002090565b90151590816153de575b506153d6576153d1906140b0565b6152ae565b505050600190565b90501515386153c3565b6153b9929350908161540592903d106114ed576114de818361092f565b91903861531d565b6154156135e5565b615315565b1561542157565b60405162461bcd60e51b815260206004820152601c60248201527f4552433732313a20746f6b656e20616c7265616479206d696e746564000000006044820152606490fd5b6001600160a01b038116908115615529576154ff906154a461549e8560005260676020526001600160a01b0360406000205416151590565b1561541a565b6154c761549e8560005260676020526001600160a01b0360406000205416151590565b6154e4816001600160a01b03166000526068602052604060002090565b60018154019055613bf8846000526067602052604060002090565b60007fddf252ad1be2c89b69c2b068fc378daa952ba7f163c4a11628f55a4df523b3ef81604051a4565b606460405162461bcd60e51b815260206004820152602060248201527f4552433732313a206d696e7420746f20746865207a65726f20616464726573736044820152fd5b80156150fb576000190190565b6006600091828155826001820155826005820161559a8160028501614291565b550155565b6105c9905461386f565b6155b3815461386f565b90816155bd575050565b81601f600093116001146155cf575055565b818352602083206155eb91601f0160051c810190600101614291565b8160208120915555565b6155fe8161384d565b506156088161384d565b600082815260696020526001600160a01b0360408220928119938481541690551680825260686020526040822060001981540190558382526067602052604082208381541690558382827fddf252ad1be2c89b69c2b068fc378daa952ba7f163c4a11628f55a4df523b3ef82604051a41515806156dd575b6156c6575b50506156a361569e826000526097602052604060002090565b61559f565b6156aa5750565b6156c161097f916000526097602052604060002090565b6155a9565b604090610171602052209081541690553880615685565b5080615680565b6001600160a01b03908181168060005261016360205260ff9283604060002054161561574f575b6101655460005b8186821610615729575050505061097f91506146ee565b8383615734836126e6565b90549060031b1c1614614f715761574a90614da6565b615712565b61016761575c81546140b0565b905561577f611adb846001600160a01b0316600052610163602052604060002090565b61570b565b6001600160a01b039290838116908161582c5750506157af610f2e610162546001600160a01b031690565b8181311061581a57803b1561000e57604051633e97486160e11b8152939092166001600160a01b03166004840152602483015260009082908183816044810103925af1801561580d575b6158005750565b8061523d61097f926108ba565b6158156135e5565b6157f9565b604051631e9acf1760e31b8152600490fd5b91909350615846610f2e610162546001600160a01b031690565b6040516370a0823160e01b81526001600160a01b03821660048201526020958391908790829060249082905afa908115615911575b6000916158f4575b501061581a5760405163276d76f960e21b81526001600160a01b03938416600482015293909216602484015260448301528290829060649082906000905af180156158e7575b6158d1575050565b8161379f92903d106112f2576112e2818361092f565b6158ef6135e5565b6158c9565b61590b9150873d89116114ed576114de818361092f565b38615883565b6159196135e5565b61587b565b9291600081615931575050505050600090565b6001600160a01b03606461597160409461596c61598f98600389101561599b575b60ff8960051c61016f015460f88b60031b161c1690614272565b614272565b049516815261016e602052209060ff16600052602052604060002090565b5490811561408d570490565b6159a3611b1e565b615952565b80600052602061017181526159c060406000206141af565b6001600160a01b03918282511692818301511665ffffffffffff80604085015116906060850151169160c060808601519501511515956040519788528488015260408701526060860152608085015260a084016000905b60038210615a54575050505015156101008201527fbbad5407299f3773930327d215f85a16617efbbddc1fe3902bd39ba46feacf269061012090a1565b82806001928651815201940191019092615a17565b6001600160a01b0380911615159081615ab3575b50615a86575050565b61097f916000526101716020526040600020906001600160a01b03166001600160a01b0319825416179055565b90508116151538615a7d565b615ad060ff60005460081c16614968565b60ff1960fb541660fb5556fea26469706673582212208f679eaedc209f88dea069eaf14570bc5404c54b4732d568bd8b4d324eca95fa64736f6c634300080e0033",
  "devdoc": {
    "kind": "dev",
    "methods": {
      "approve(address,uint256)": {
        "details": "See {IERC721-approve}."
      },
      "balanceOf(address)": {
        "details": "See {IERC721-balanceOf}."
      },
      "clearOldStakesStorage()": {
        "details": "Can only be called after migration is complete"
      },
      "getApproved(uint256)": {
        "details": "See {IERC721-getApproved}."
      },
      "isApprovedForAll(address,address)": {
        "details": "See {IERC721-isApprovedForAll}."
      },
      "name()": {
        "details": "See {IERC721Metadata-name}."
      },
      "owner()": {
        "details": "Returns the address of the current owner."
      },
      "ownerOf(uint256)": {
        "details": "See {IERC721-ownerOf}."
      },
      "proxiableUUID()": {
        "details": "Implementation of the ERC1822 {proxiableUUID} function. This returns the storage slot used by the implementation. It is used to validate the implementation's compatibility when performing an upgrade. IMPORTANT: A proxy pointing at a proxiable contract should not be considered proxiable itself, because this risks bricking a proxy that upgrades to it, by delegating to itself until out of gas. Thus it is critical that this function revert if invoked through a proxy. This is guaranteed by the `notDelegated` modifier."
      },
      "renounceOwnership()": {
        "details": "Leaves the contract without owner. It will not be possible to call `onlyOwner` functions. Can only be called by the current owner. NOTE: Renouncing ownership will leave the contract without an owner, thereby disabling any functionality that is only available to the owner."
      },
      "safeTransferFrom(address,address,uint256)": {
        "details": "See {IERC721-safeTransferFrom}."
      },
      "safeTransferFrom(address,address,uint256,bytes)": {
        "details": "See {IERC721-safeTransferFrom}."
      },
      "setApprovalForAll(address,bool)": {
        "details": "See {IERC721-setApprovalForAll}."
      },
      "supportsInterface(bytes4)": {
        "details": "See {IERC165-supportsInterface}"
      },
      "symbol()": {
        "details": "See {IERC721Metadata-symbol}."
      },
      "tokenURI(uint256)": {
        "details": "See {IERC721Metadata-tokenURI}."
      },
      "transferFrom(address,address,uint256)": {
        "details": "See {IERC721-transferFrom}."
      },
      "transferOwnership(address)": {
        "details": "Transfers ownership of the contract to a new account (`newOwner`). Can only be called by the current owner."
      },
      "upgradeTo(address)": {
        "custom:oz-upgrades-unsafe-allow-reachable": "delegatecall",
        "details": "Upgrade the implementation of the proxy to `newImplementation`. Calls {_authorizeUpgrade}. Emits an {Upgraded} event."
      },
      "upgradeToAndCall(address,bytes)": {
        "custom:oz-upgrades-unsafe-allow-reachable": "delegatecall",
        "details": "Upgrade the implementation of the proxy to `newImplementation`, and subsequently execute the function call encoded in `data`. Calls {_authorizeUpgrade}. Emits an {Upgraded} event."
      }
    },
    "version": 1
  },
  "userdoc": {
    "kind": "user",
    "methods": {
      "clearOldStakesStorage()": {
        "notice": "Clears the old stakes array to free up storage after migration"
      }
    },
    "version": 1
  },
  "storageLayout": {
    "storage": [
      {
        "astId": 533,
        "contract": "contracts/staking/LendingPoolStakingV2.sol:LendingPoolStakingV2",
        "label": "_initialized",
        "offset": 0,
        "slot": "0",
        "type": "t_uint8"
      },
      {
        "astId": 536,
        "contract": "contracts/staking/LendingPoolStakingV2.sol:LendingPoolStakingV2",
        "label": "_initializing",
        "offset": 1,
        "slot": "0",
        "type": "t_bool"
      },
      {
        "astId": 2503,
        "contract": "contracts/staking/LendingPoolStakingV2.sol:LendingPoolStakingV2",
        "label": "__gap",
        "offset": 0,
        "slot": "1",
        "type": "t_array(t_uint256)50_storage"
      },
      {
        "astId": 2887,
        "contract": "contracts/staking/LendingPoolStakingV2.sol:LendingPoolStakingV2",
        "label": "__gap",
        "offset": 0,
        "slot": "51",
        "type": "t_array(t_uint256)50_storage"
      },
      {
        "astId": 862,
        "contract": "contracts/staking/LendingPoolStakingV2.sol:LendingPoolStakingV2",
        "label": "_name",
        "offset": 0,
        "slot": "101",
        "type": "t_string_storage"
      },
      {
        "astId": 864,
        "contract": "contracts/staking/LendingPoolStakingV2.sol:LendingPoolStakingV2",
        "label": "_symbol",
        "offset": 0,
        "slot": "102",
        "type": "t_string_storage"
      },
      {
        "astId": 868,
        "contract": "contracts/staking/LendingPoolStakingV2.sol:LendingPoolStakingV2",
        "label": "_owners",
        "offset": 0,
        "slot": "103",
        "type": "t_mapping(t_uint256,t_address)"
      },
      {
        "astId": 872,
        "contract": "contracts/staking/LendingPoolStakingV2.sol:LendingPoolStakingV2",
        "label": "_balances",
        "offset": 0,
        "slot": "104",
        "type": "t_mapping(t_address,t_uint256)"
      },
      {
        "astId": 876,
        "contract": "contracts/staking/LendingPoolStakingV2.sol:LendingPoolStakingV2",
        "label": "_tokenApprovals",
        "offset": 0,
        "slot": "105",
        "type": "t_mapping(t_uint256,t_address)"
      },
      {
        "astId": 882,
        "contract": "contracts/staking/LendingPoolStakingV2.sol:LendingPoolStakingV2",
        "label": "_operatorApprovals",
        "offset": 0,
        "slot": "106",
        "type": "t_mapping(t_address,t_mapping(t_address,t_bool))"
      },
      {
        "astId": 1784,
        "contract": "contracts/staking/LendingPoolStakingV2.sol:LendingPoolStakingV2",
        "label": "__gap",
        "offset": 0,
        "slot": "107",
        "type": "t_array(t_uint256)44_storage"
      },
      {
        "astId": 1939,
        "contract": "contracts/staking/LendingPoolStakingV2.sol:LendingPoolStakingV2",
        "label": "_tokenURIs",
        "offset": 0,
        "slot": "151",
        "type": "t_mapping(t_uint256,t_string_storage)"
      },
      {
        "astId": 2095,
        "contract": "contracts/staking/LendingPoolStakingV2.sol:LendingPoolStakingV2",
        "label": "__gap",
        "offset": 0,
        "slot": "152",
        "type": "t_array(t_uint256)49_storage"
      },
      {
        "astId": 11,
        "contract": "contracts/staking/LendingPoolStakingV2.sol:LendingPoolStakingV2",
        "label": "_owner",
        "offset": 0,
        "slot": "201",
        "type": "t_address"
      },
      {
        "astId": 131,
        "contract": "contracts/staking/LendingPoolStakingV2.sol:LendingPoolStakingV2",
        "label": "__gap",
        "offset": 0,
        "slot": "202",
        "type": "t_array(t_uint256)49_storage"
      },
      {
        "astId": 7495,
        "contract": "contracts/staking/LendingPoolStakingV2.sol:LendingPoolStakingV2",
        "label": "testing",
        "offset": 0,
        "slot": "251",
        "type": "t_bool"
      },
      {
        "astId": 5268,
        "contract": "contracts/staking/LendingPoolStakingV2.sol:LendingPoolStakingV2",
        "label": "hasRole",
        "offset": 0,
        "slot": "252",
        "type": "t_mapping(t_address,t_mapping(t_string_memory_ptr,t_bool))"
      },
      {
        "astId": 515,
        "contract": "contracts/staking/LendingPoolStakingV2.sol:LendingPoolStakingV2",
        "label": "__gap",
        "offset": 0,
        "slot": "253",
        "type": "t_array(t_uint256)50_storage"
      },
      {
        "astId": 831,
        "contract": "contracts/staking/LendingPoolStakingV2.sol:LendingPoolStakingV2",
        "label": "__gap",
        "offset": 0,
        "slot": "303",
        "type": "t_array(t_uint256)50_storage"
      },
      {
        "astId": 5473,
        "contract": "contracts/staking/LendingPoolStakingV2.sol:LendingPoolStakingV2",
        "label": "nend",
        "offset": 0,
        "slot": "353",
        "type": "t_address"
      },
      {
        "astId": 5476,
        "contract": "contracts/staking/LendingPoolStakingV2.sol:LendingPoolStakingV2",
        "label": "lendingPool",
        "offset": 0,
        "slot": "354",
        "type": "t_contract(Vault)8154"
      },
      {
        "astId": 5480,
        "contract": "contracts/staking/LendingPoolStakingV2.sol:LendingPoolStakingV2",
        "label": "activeStakeTokens",
        "offset": 0,
        "slot": "355",
        "type": "t_mapping(t_address,t_bool)"
      },
      {
        "astId": 5484,
        "contract": "contracts/staking/LendingPoolStakingV2.sol:LendingPoolStakingV2",
        "label": "inflationRollOver",
        "offset": 0,
        "slot": "356",
        "type": "t_mapping(t_address,t_uint256)"
      },
      {
        "astId": 5487,
        "contract": "contracts/staking/LendingPoolStakingV2.sol:LendingPoolStakingV2",
        "label": "stakeTokens",
        "offset": 0,
        "slot": "357",
        "type": "t_array(t_address)dyn_storage"
      },
      {
        "astId": 5489,
        "contract": "contracts/staking/LendingPoolStakingV2.sol:LendingPoolStakingV2",
        "label": "escrowLockPeriod",
        "offset": 0,
        "slot": "358",
        "type": "t_uint48"
      },
      {
        "astId": 5491,
        "contract": "contracts/staking/LendingPoolStakingV2.sol:LendingPoolStakingV2",
        "label": "stakeTokenCount",
        "offset": 0,
        "slot": "359",
        "type": "t_uint256"
      },
      {
        "astId": 5493,
        "contract": "contracts/staking/LendingPoolStakingV2.sol:LendingPoolStakingV2",
        "label": "ongoingStakeCount",
        "offset": 0,
        "slot": "360",
        "type": "t_uint256"
      },
      {
        "astId": 5497,
        "contract": "contracts/staking/LendingPoolStakingV2.sol:LendingPoolStakingV2",
        "label": "ifpTokenToAmount",
        "offset": 0,
        "slot": "361",
        "type": "t_mapping(t_address,t_uint256)"
      },
      {
        "astId": 5503,
        "contract": "contracts/staking/LendingPoolStakingV2.sol:LendingPoolStakingV2",
        "label": "userToStakeTokenToLastEscrowId",
        "offset": 0,
        "slot": "362",
        "type": "t_mapping(t_address,t_mapping(t_address,t_uint256))"
      },
      {
        "astId": 5509,
        "contract": "contracts/staking/LendingPoolStakingV2.sol:LendingPoolStakingV2",
        "label": "lastEscrowRewardByToken_Duration",
        "offset": 0,
        "slot": "363",
        "type": "t_mapping(t_address,t_mapping(t_uint8,t_uint256))"
      },
      {
        "astId": 5513,
        "contract": "contracts/staking/LendingPoolStakingV2.sol:LendingPoolStakingV2",
        "label": "_oldStakes",
        "offset": 0,
        "slot": "364",
        "type": "t_array(t_struct(Stake)7409_storage)dyn_storage"
      },
      {
        "astId": 5517,
        "contract": "contracts/staking/LendingPoolStakingV2.sol:LendingPoolStakingV2",
        "label": "stakeDurations",
        "offset": 0,
        "slot": "365",
        "type": "t_array(t_uint48)3_storage"
      },
      {
        "astId": 5523,
        "contract": "contracts/staking/LendingPoolStakingV2.sol:LendingPoolStakingV2",
        "label": "totalStakedByToken_Duration",
        "offset": 0,
        "slot": "366",
        "type": "t_mapping(t_address,t_mapping(t_uint8,t_uint256))"
      },
      {
        "astId": 5527,
        "contract": "contracts/staking/LendingPoolStakingV2.sol:LendingPoolStakingV2",
        "label": "rewardAllocations",
        "offset": 0,
        "slot": "367",
        "type": "t_array(t_uint8)3_storage"
      },
      {
        "astId": 5529,
        "contract": "contracts/staking/LendingPoolStakingV2.sol:LendingPoolStakingV2",
        "label": "poolRollOver",
        "offset": 0,
        "slot": "368",
        "type": "t_uint256"
      },
      {
        "astId": 5534,
        "contract": "contracts/staking/LendingPoolStakingV2.sol:LendingPoolStakingV2",
        "label": "stakes",
        "offset": 0,
        "slot": "369",
        "type": "t_mapping(t_uint256,t_struct(Stake)7409_storage)"
      },
      {
        "astId": 5536,
        "contract": "contracts/staking/LendingPoolStakingV2.sol:LendingPoolStakingV2",
        "label": "nextStakeId",
        "offset": 0,
        "slot": "370",
        "type": "t_uint256"
      },
      {
        "astId": 5540,
        "contract": "contracts/staking/LendingPoolStakingV2.sol:LendingPoolStakingV2",
        "label": "isActiveStake",
        "offset": 0,
        "slot": "371",
        "type": "t_mapping(t_uint256,t_bool)"
      },
      {
        "astId": 5544,
        "contract": "contracts/staking/LendingPoolStakingV2.sol:LendingPoolStakingV2",
        "label": "activeStakeIndices",
        "offset": 0,
        "slot": "372",
        "type": "t_mapping(t_uint256,t_uint256)"
      },
      {
        "astId": 5548,
        "contract": "contracts/staking/LendingPoolStakingV2.sol:LendingPoolStakingV2",
        "label": "activeStakesById",
        "offset": 0,
        "slot": "373",
        "type": "t_mapping(t_uint256,t_uint256)"
      },
      {
        "astId": 5550,
        "contract": "contracts/staking/LendingPoolStakingV2.sol:LendingPoolStakingV2",
        "label": "activeStakesCount",
        "offset": 0,
        "slot": "374",
        "type": "t_uint256"
      },
      {
        "astId": 5552,
        "contract": "contracts/staking/LendingPoolStakingV2.sol:LendingPoolStakingV2",
        "label": "migrationCompleted",
        "offset": 0,
        "slot": "375",
        "type": "t_bool"
      }
    ],
    "types": {
      "t_address": {
        "encoding": "inplace",
        "label": "address",
        "numberOfBytes": "20"
      },
      "t_array(t_address)dyn_storage": {
        "base": "t_address",
        "encoding": "dynamic_array",
        "label": "address[]",
        "numberOfBytes": "32"
      },
      "t_array(t_struct(Stake)7409_storage)dyn_storage": {
        "base": "t_struct(Stake)7409_storage",
        "encoding": "dynamic_array",
        "label": "struct ILendingPoolStaking.Stake[]",
        "numberOfBytes": "32"
      },
      "t_array(t_uint256)3_storage": {
        "base": "t_uint256",
        "encoding": "inplace",
        "label": "uint256[3]",
        "numberOfBytes": "96"
      },
      "t_array(t_uint256)44_storage": {
        "base": "t_uint256",
        "encoding": "inplace",
        "label": "uint256[44]",
        "numberOfBytes": "1408"
      },
      "t_array(t_uint256)49_storage": {
        "base": "t_uint256",
        "encoding": "inplace",
        "label": "uint256[49]",
        "numberOfBytes": "1568"
      },
      "t_array(t_uint256)50_storage": {
        "base": "t_uint256",
        "encoding": "inplace",
        "label": "uint256[50]",
        "numberOfBytes": "1600"
      },
      "t_array(t_uint48)3_storage": {
        "base": "t_uint48",
        "encoding": "inplace",
        "label": "uint48[3]",
        "numberOfBytes": "32"
      },
      "t_array(t_uint8)3_storage": {
        "base": "t_uint8",
        "encoding": "inplace",
        "label": "uint8[3]",
        "numberOfBytes": "32"
      },
      "t_bool": {
        "encoding": "inplace",
        "label": "bool",
        "numberOfBytes": "1"
      },
      "t_contract(Vault)8154": {
        "encoding": "inplace",
        "label": "contract Vault",
        "numberOfBytes": "20"
      },
      "t_enum(EscrowStatus)7386": {
        "encoding": "inplace",
        "label": "enum ILendingPoolStaking.EscrowStatus",
        "numberOfBytes": "1"
      },
      "t_enum(StakeStatus)7382": {
        "encoding": "inplace",
        "label": "enum ILendingPoolStaking.StakeStatus",
        "numberOfBytes": "1"
      },
      "t_mapping(t_address,t_bool)": {
        "encoding": "mapping",
        "key": "t_address",
        "label": "mapping(address => bool)",
        "numberOfBytes": "32",
        "value": "t_bool"
      },
      "t_mapping(t_address,t_mapping(t_address,t_bool))": {
        "encoding": "mapping",
        "key": "t_address",
        "label": "mapping(address => mapping(address => bool))",
        "numberOfBytes": "32",
        "value": "t_mapping(t_address,t_bool)"
      },
      "t_mapping(t_address,t_mapping(t_address,t_uint256))": {
        "encoding": "mapping",
        "key": "t_address",
        "label": "mapping(address => mapping(address => uint256))",
        "numberOfBytes": "32",
        "value": "t_mapping(t_address,t_uint256)"
      },
      "t_mapping(t_address,t_mapping(t_string_memory_ptr,t_bool))": {
        "encoding": "mapping",
        "key": "t_address",
        "label": "mapping(address => mapping(string => bool))",
        "numberOfBytes": "32",
        "value": "t_mapping(t_string_memory_ptr,t_bool)"
      },
      "t_mapping(t_address,t_mapping(t_uint8,t_uint256))": {
        "encoding": "mapping",
        "key": "t_address",
        "label": "mapping(address => mapping(uint8 => uint256))",
        "numberOfBytes": "32",
        "value": "t_mapping(t_uint8,t_uint256)"
      },
      "t_mapping(t_address,t_uint256)": {
        "encoding": "mapping",
        "key": "t_address",
        "label": "mapping(address => uint256)",
        "numberOfBytes": "32",
        "value": "t_uint256"
      },
      "t_mapping(t_string_memory_ptr,t_bool)": {
        "encoding": "mapping",
        "key": "t_string_memory_ptr",
        "label": "mapping(string => bool)",
        "numberOfBytes": "32",
        "value": "t_bool"
      },
      "t_mapping(t_uint256,t_address)": {
        "encoding": "mapping",
        "key": "t_uint256",
        "label": "mapping(uint256 => address)",
        "numberOfBytes": "32",
        "value": "t_address"
      },
      "t_mapping(t_uint256,t_bool)": {
        "encoding": "mapping",
        "key": "t_uint256",
        "label": "mapping(uint256 => bool)",
        "numberOfBytes": "32",
        "value": "t_bool"
      },
      "t_mapping(t_uint256,t_string_storage)": {
        "encoding": "mapping",
        "key": "t_uint256",
        "label": "mapping(uint256 => string)",
        "numberOfBytes": "32",
        "value": "t_string_storage"
      },
      "t_mapping(t_uint256,t_struct(Stake)7409_storage)": {
        "encoding": "mapping",
        "key": "t_uint256",
        "label": "mapping(uint256 => struct ILendingPoolStaking.Stake)",
        "numberOfBytes": "32",
        "value": "t_struct(Stake)7409_storage"
      },
      "t_mapping(t_uint256,t_uint256)": {
        "encoding": "mapping",
        "key": "t_uint256",
        "label": "mapping(uint256 => uint256)",
        "numberOfBytes": "32",
        "value": "t_uint256"
      },
      "t_mapping(t_uint8,t_uint256)": {
        "encoding": "mapping",
        "key": "t_uint8",
        "label": "mapping(uint8 => uint256)",
        "numberOfBytes": "32",
        "value": "t_uint256"
      },
      "t_string_memory_ptr": {
        "encoding": "bytes",
        "label": "string",
        "numberOfBytes": "32"
      },
      "t_string_storage": {
        "encoding": "bytes",
        "label": "string",
        "numberOfBytes": "32"
      },
      "t_struct(Stake)7409_storage": {
        "encoding": "inplace",
        "label": "struct ILendingPoolStaking.Stake",
        "members": [
          {
            "astId": 7388,
            "contract": "contracts/staking/LendingPoolStakingV2.sol:LendingPoolStakingV2",
            "label": "staker",
            "offset": 0,
            "slot": "0",
            "type": "t_address"
          },
          {
            "astId": 7390,
            "contract": "contracts/staking/LendingPoolStakingV2.sol:LendingPoolStakingV2",
            "label": "token",
            "offset": 0,
            "slot": "1",
            "type": "t_address"
          },
          {
            "astId": 7392,
            "contract": "contracts/staking/LendingPoolStakingV2.sol:LendingPoolStakingV2",
            "label": "start",
            "offset": 20,
            "slot": "1",
            "type": "t_uint48"
          },
          {
            "astId": 7394,
            "contract": "contracts/staking/LendingPoolStakingV2.sol:LendingPoolStakingV2",
            "label": "end",
            "offset": 26,
            "slot": "1",
            "type": "t_uint48"
          },
          {
            "astId": 7398,
            "contract": "contracts/staking/LendingPoolStakingV2.sol:LendingPoolStakingV2",
            "label": "amountsPerDuration",
            "offset": 0,
            "slot": "2",
            "type": "t_array(t_uint256)3_storage"
          },
          {
            "astId": 7400,
            "contract": "contracts/staking/LendingPoolStakingV2.sol:LendingPoolStakingV2",
            "label": "rewardAllocated",
            "offset": 0,
            "slot": "5",
            "type": "t_uint256"
          },
          {
            "astId": 7402,
            "contract": "contracts/staking/LendingPoolStakingV2.sol:LendingPoolStakingV2",
            "label": "isEscrow",
            "offset": 0,
            "slot": "6",
            "type": "t_bool"
          },
          {
            "astId": 7405,
            "contract": "contracts/staking/LendingPoolStakingV2.sol:LendingPoolStakingV2",
            "label": "escrowStatus",
            "offset": 1,
            "slot": "6",
            "type": "t_enum(EscrowStatus)7386"
          },
          {
            "astId": 7408,
            "contract": "contracts/staking/LendingPoolStakingV2.sol:LendingPoolStakingV2",
            "label": "stakeStatus",
            "offset": 2,
            "slot": "6",
            "type": "t_enum(StakeStatus)7382"
          }
        ],
        "numberOfBytes": "224"
      },
      "t_uint256": {
        "encoding": "inplace",
        "label": "uint256",
        "numberOfBytes": "32"
      },
      "t_uint48": {
        "encoding": "inplace",
        "label": "uint48",
        "numberOfBytes": "6"
      },
      "t_uint8": {
        "encoding": "inplace",
        "label": "uint8",
        "numberOfBytes": "1"
      }
    }
  }
}