{
  "address": "0x76a87179c153DEE173937E9de493af6f23A8bCf2",
  "abi": [
    {
      "inputs": [],
      "name": "AlreadyClaimed",
      "type": "error"
    },
    {
      "inputs": [],
      "name": "InsufficientBalance",
      "type": "error"
    },
    {
      "inputs": [
        {
          "internalType": "string",
          "name": "details",
          "type": "string"
        }
      ],
      "name": "InvalidArgument",
      "type": "error"
    },
    {
      "inputs": [],
      "name": "InvalidState",
      "type": "error"
    },
    {
      "inputs": [],
      "name": "NoRewardsAvailable",
      "type": "error"
    },
    {
      "inputs": [],
      "name": "NoStakeYet",
      "type": "error"
    },
    {
      "inputs": [],
      "name": "NotOwned",
      "type": "error"
    },
    {
      "inputs": [],
      "name": "StakeNotFound",
      "type": "error"
    },
    {
      "inputs": [],
      "name": "Unauthorized",
      "type": "error"
    },
    {
      "anonymous": false,
      "inputs": [
        {
          "indexed": false,
          "internalType": "address",
          "name": "previousAdmin",
          "type": "address"
        },
        {
          "indexed": false,
          "internalType": "address",
          "name": "newAdmin",
          "type": "address"
        }
      ],
      "name": "AdminChanged",
      "type": "event"
    },
    {
      "anonymous": false,
      "inputs": [
        {
          "indexed": true,
          "internalType": "address",
          "name": "owner",
          "type": "address"
        },
        {
          "indexed": true,
          "internalType": "address",
          "name": "approved",
          "type": "address"
        },
        {
          "indexed": true,
          "internalType": "uint256",
          "name": "tokenId",
          "type": "uint256"
        }
      ],
      "name": "Approval",
      "type": "event"
    },
    {
      "anonymous": false,
      "inputs": [
        {
          "indexed": true,
          "internalType": "address",
          "name": "owner",
          "type": "address"
        },
        {
          "indexed": true,
          "internalType": "address",
          "name": "operator",
          "type": "address"
        },
        {
          "indexed": false,
          "internalType": "bool",
          "name": "approved",
          "type": "bool"
        }
      ],
      "name": "ApprovalForAll",
      "type": "event"
    },
    {
      "anonymous": false,
      "inputs": [
        {
          "indexed": false,
          "internalType": "uint256",
          "name": "_fromTokenId",
          "type": "uint256"
        },
        {
          "indexed": false,
          "internalType": "uint256",
          "name": "_toTokenId",
          "type": "uint256"
        }
      ],
      "name": "BatchMetadataUpdate",
      "type": "event"
    },
    {
      "anonymous": false,
      "inputs": [
        {
          "indexed": false,
          "internalType": "uint256",
          "name": "startId",
          "type": "uint256"
        },
        {
          "indexed": false,
          "internalType": "uint256",
          "name": "endId",
          "type": "uint256"
        }
      ],
      "name": "BatchMigrationCompleted",
      "type": "event"
    },
    {
      "anonymous": false,
      "inputs": [
        {
          "indexed": true,
          "internalType": "address",
          "name": "beacon",
          "type": "address"
        }
      ],
      "name": "BeaconUpgraded",
      "type": "event"
    },
    {
      "anonymous": false,
      "inputs": [
        {
          "indexed": false,
          "internalType": "uint256",
          "name": "stakeId",
          "type": "uint256"
        },
        {
          "indexed": false,
          "internalType": "enum ILendingPoolStakingV2.EscrowStatus",
          "name": "status",
          "type": "uint8"
        }
      ],
      "name": "EscrowStatusChanged",
      "type": "event"
    },
    {
      "anonymous": false,
      "inputs": [],
      "name": "InflationRewardDistributed",
      "type": "event"
    },
    {
      "anonymous": false,
      "inputs": [
        {
          "indexed": false,
          "internalType": "uint8",
          "name": "version",
          "type": "uint8"
        }
      ],
      "name": "Initialized",
      "type": "event"
    },
    {
      "anonymous": false,
      "inputs": [
        {
          "indexed": false,
          "internalType": "uint256",
          "name": "_tokenId",
          "type": "uint256"
        }
      ],
      "name": "MetadataUpdate",
      "type": "event"
    },
    {
      "anonymous": false,
      "inputs": [
        {
          "indexed": false,
          "internalType": "uint64",
          "name": "periodId",
          "type": "uint64"
        },
        {
          "indexed": false,
          "internalType": "uint64",
          "name": "timestamp",
          "type": "uint64"
        },
        {
          "indexed": false,
          "internalType": "uint256",
          "name": "inflationRewards",
          "type": "uint256"
        },
        {
          "indexed": false,
          "internalType": "uint256",
          "name": "ifpRewards",
          "type": "uint256"
        }
      ],
      "name": "NewPeriodStarted",
      "type": "event"
    },
    {
      "anonymous": false,
      "inputs": [],
      "name": "NonInflationRewardDistributed",
      "type": "event"
    },
    {
      "anonymous": false,
      "inputs": [
        {
          "indexed": true,
          "internalType": "address",
          "name": "previousOwner",
          "type": "address"
        },
        {
          "indexed": true,
          "internalType": "address",
          "name": "newOwner",
          "type": "address"
        }
      ],
      "name": "OwnershipTransferred",
      "type": "event"
    },
    {
      "anonymous": false,
      "inputs": [
        {
          "indexed": true,
          "internalType": "address",
          "name": "user",
          "type": "address"
        },
        {
          "indexed": true,
          "internalType": "address",
          "name": "token",
          "type": "address"
        },
        {
          "indexed": false,
          "internalType": "uint256",
          "name": "inflationReward",
          "type": "uint256"
        },
        {
          "indexed": false,
          "internalType": "uint256",
          "name": "ifpReward",
          "type": "uint256"
        },
        {
          "indexed": false,
          "internalType": "uint64",
          "name": "periodId",
          "type": "uint64"
        }
      ],
      "name": "RewardsClaimed",
      "type": "event"
    },
    {
      "anonymous": false,
      "inputs": [
        {
          "indexed": false,
          "internalType": "uint256",
          "name": "stakeId",
          "type": "uint256"
        },
        {
          "indexed": false,
          "internalType": "enum ILendingPoolStakingV2.StakeStatus",
          "name": "status",
          "type": "uint8"
        }
      ],
      "name": "StakeStatusChanged",
      "type": "event"
    },
    {
      "anonymous": false,
      "inputs": [
        {
          "indexed": false,
          "internalType": "uint256",
          "name": "stakeId",
          "type": "uint256"
        },
        {
          "indexed": false,
          "internalType": "address",
          "name": "staker",
          "type": "address"
        },
        {
          "indexed": false,
          "internalType": "address",
          "name": "token",
          "type": "address"
        },
        {
          "indexed": false,
          "internalType": "uint48",
          "name": "start",
          "type": "uint48"
        },
        {
          "indexed": false,
          "internalType": "uint48",
          "name": "end",
          "type": "uint48"
        },
        {
          "indexed": false,
          "internalType": "uint256[3]",
          "name": "amountsPerDuration",
          "type": "uint256[3]"
        },
        {
          "indexed": false,
          "internalType": "bool",
          "name": "isEscrow",
          "type": "bool"
        }
      ],
      "name": "Staked",
      "type": "event"
    },
    {
      "anonymous": false,
      "inputs": [
        {
          "indexed": true,
          "internalType": "address",
          "name": "from",
          "type": "address"
        },
        {
          "indexed": true,
          "internalType": "address",
          "name": "to",
          "type": "address"
        },
        {
          "indexed": true,
          "internalType": "uint256",
          "name": "tokenId",
          "type": "uint256"
        }
      ],
      "name": "Transfer",
      "type": "event"
    },
    {
      "anonymous": false,
      "inputs": [
        {
          "indexed": true,
          "internalType": "address",
          "name": "implementation",
          "type": "address"
        }
      ],
      "name": "Upgraded",
      "type": "event"
    },
    {
      "inputs": [],
      "name": "REWARD_PERIOD_LENGTH",
      "outputs": [
        {
          "internalType": "uint8",
          "name": "",
          "type": "uint8"
        }
      ],
      "stateMutability": "view",
      "type": "function"
    },
    {
      "inputs": [],
      "name": "__Testing_init",
      "outputs": [],
      "stateMutability": "nonpayable",
      "type": "function"
    },
    {
      "inputs": [
        {
          "internalType": "address",
          "name": "",
          "type": "address"
        }
      ],
      "name": "activeStakeTokens",
      "outputs": [
        {
          "internalType": "bool",
          "name": "",
          "type": "bool"
        }
      ],
      "stateMutability": "view",
      "type": "function"
    },
    {
      "inputs": [],
      "name": "activeStakesCount",
      "outputs": [
        {
          "internalType": "uint256",
          "name": "",
          "type": "uint256"
        }
      ],
      "stateMutability": "view",
      "type": "function"
    },
    {
      "inputs": [
        {
          "internalType": "address",
          "name": "_stakeToken",
          "type": "address"
        }
      ],
      "name": "addStakeToken",
      "outputs": [],
      "stateMutability": "nonpayable",
      "type": "function"
    },
    {
      "inputs": [
        {
          "internalType": "address",
          "name": "to",
          "type": "address"
        },
        {
          "internalType": "uint256",
          "name": "tokenId",
          "type": "uint256"
        }
      ],
      "name": "approve",
      "outputs": [],
      "stateMutability": "nonpayable",
      "type": "function"
    },
    {
      "inputs": [
        {
          "internalType": "address",
          "name": "operator",
          "type": "address"
        },
        {
          "internalType": "string",
          "name": "role",
          "type": "string"
        },
        {
          "internalType": "bool",
          "name": "authorized",
          "type": "bool"
        }
      ],
      "name": "authorize",
      "outputs": [],
      "stateMutability": "nonpayable",
      "type": "function"
    },
    {
      "inputs": [
        {
          "internalType": "address",
          "name": "owner",
          "type": "address"
        }
      ],
      "name": "balanceOf",
      "outputs": [
        {
          "internalType": "uint256",
          "name": "",
          "type": "uint256"
        }
      ],
      "stateMutability": "view",
      "type": "function"
    },
    {
      "inputs": [
        {
          "internalType": "address",
          "name": "_token",
          "type": "address"
        }
      ],
      "name": "claim",
      "outputs": [],
      "stateMutability": "nonpayable",
      "type": "function"
    },
    {
      "inputs": [
        {
          "internalType": "address",
          "name": "_token",
          "type": "address"
        },
        {
          "internalType": "uint256",
          "name": "_amount",
          "type": "uint256"
        },
        {
          "internalType": "uint8",
          "name": "_durationId",
          "type": "uint8"
        }
      ],
      "name": "deposit",
      "outputs": [],
      "stateMutability": "payable",
      "type": "function"
    },
    {
      "inputs": [
        {
          "internalType": "uint256",
          "name": "_inflationReward",
          "type": "uint256"
        }
      ],
      "name": "distributeInflationRewards",
      "outputs": [],
      "stateMutability": "nonpayable",
      "type": "function"
    },
    {
      "inputs": [],
      "name": "escrowLockPeriod",
      "outputs": [
        {
          "internalType": "uint48",
          "name": "",
          "type": "uint48"
        }
      ],
      "stateMutability": "view",
      "type": "function"
    },
    {
      "inputs": [
        {
          "internalType": "uint256",
          "name": "tokenId",
          "type": "uint256"
        }
      ],
      "name": "getApproved",
      "outputs": [
        {
          "internalType": "address",
          "name": "",
          "type": "address"
        }
      ],
      "stateMutability": "view",
      "type": "function"
    },
    {
      "inputs": [
        {
          "internalType": "address",
          "name": "_user",
          "type": "address"
        },
        {
          "internalType": "address",
          "name": "_token",
          "type": "address"
        }
      ],
      "name": "getClaimableRewards",
      "outputs": [
        {
          "internalType": "uint256",
          "name": "inflationReward",
          "type": "uint256"
        },
        {
          "internalType": "uint256",
          "name": "ifpReward",
          "type": "uint256"
        }
      ],
      "stateMutability": "view",
      "type": "function"
    },
    {
      "inputs": [],
      "name": "getCurrentPeriodId",
      "outputs": [
        {
          "internalType": "uint256",
          "name": "",
          "type": "uint256"
        }
      ],
      "stateMutability": "view",
      "type": "function"
    },
    {
      "inputs": [],
      "name": "getPoolRollOver",
      "outputs": [
        {
          "internalType": "uint256",
          "name": "inflationRewardRemained",
          "type": "uint256"
        },
        {
          "internalType": "uint256",
          "name": "ifptoDistributeReward",
          "type": "uint256"
        }
      ],
      "stateMutability": "view",
      "type": "function"
    },
    {
      "inputs": [
        {
          "internalType": "address",
          "name": "_user",
          "type": "address"
        },
        {
          "internalType": "uint256",
          "name": "_index",
          "type": "uint256"
        }
      ],
      "name": "getStakeByUserIndex",
      "outputs": [
        {
          "components": [
            {
              "internalType": "address",
              "name": "staker",
              "type": "address"
            },
            {
              "internalType": "address",
              "name": "token",
              "type": "address"
            },
            {
              "internalType": "uint48",
              "name": "start",
              "type": "uint48"
            },
            {
              "internalType": "uint48",
              "name": "end",
              "type": "uint48"
            },
            {
              "internalType": "uint256[3]",
              "name": "amountsPerDuration",
              "type": "uint256[3]"
            },
            {
              "internalType": "uint256",
              "name": "rewardAllocated",
              "type": "uint256"
            },
            {
              "internalType": "bool",
              "name": "isEscrow",
              "type": "bool"
            },
            {
              "internalType": "enum ILendingPoolStakingV2.EscrowStatus",
              "name": "escrowStatus",
              "type": "uint8"
            },
            {
              "internalType": "enum ILendingPoolStakingV2.StakeStatus",
              "name": "stakeStatus",
              "type": "uint8"
            }
          ],
          "internalType": "struct ILendingPoolStakingV2.Stake",
          "name": "",
          "type": "tuple"
        }
      ],
      "stateMutability": "view",
      "type": "function"
    },
    {
      "inputs": [
        {
          "internalType": "uint256",
          "name": "_stakeId",
          "type": "uint256"
        }
      ],
      "name": "getStakeEntry",
      "outputs": [
        {
          "components": [
            {
              "internalType": "address",
              "name": "user",
              "type": "address"
            },
            {
              "internalType": "uint256",
              "name": "userIndex",
              "type": "uint256"
            },
            {
              "internalType": "uint256",
              "name": "stakeId",
              "type": "uint256"
            },
            {
              "internalType": "bool",
              "name": "exists",
              "type": "bool"
            }
          ],
          "internalType": "struct ILendingPoolStakingV2.StakeMappingEntry",
          "name": "",
          "type": "tuple"
        }
      ],
      "stateMutability": "view",
      "type": "function"
    },
    {
      "inputs": [
        {
          "internalType": "address",
          "name": "_user",
          "type": "address"
        },
        {
          "internalType": "uint256",
          "name": "_userIndex",
          "type": "uint256"
        }
      ],
      "name": "getUserStakeId",
      "outputs": [
        {
          "internalType": "uint256",
          "name": "",
          "type": "uint256"
        }
      ],
      "stateMutability": "view",
      "type": "function"
    },
    {
      "inputs": [
        {
          "internalType": "uint256",
          "name": "_stakeId",
          "type": "uint256"
        }
      ],
      "name": "getUserStakeIndex",
      "outputs": [
        {
          "internalType": "uint256",
          "name": "",
          "type": "uint256"
        }
      ],
      "stateMutability": "view",
      "type": "function"
    },
    {
      "inputs": [
        {
          "internalType": "address",
          "name": "_user",
          "type": "address"
        },
        {
          "internalType": "address",
          "name": "_token",
          "type": "address"
        }
      ],
      "name": "getUserStakesTotal",
      "outputs": [
        {
          "internalType": "uint256",
          "name": "",
          "type": "uint256"
        }
      ],
      "stateMutability": "view",
      "type": "function"
    },
    {
      "inputs": [],
      "name": "hasPendingNonInflationRewards",
      "outputs": [
        {
          "internalType": "bool",
          "name": "",
          "type": "bool"
        }
      ],
      "stateMutability": "view",
      "type": "function"
    },
    {
      "inputs": [
        {
          "internalType": "address",
          "name": "",
          "type": "address"
        },
        {
          "internalType": "string",
          "name": "",
          "type": "string"
        }
      ],
      "name": "hasRole",
      "outputs": [
        {
          "internalType": "bool",
          "name": "",
          "type": "bool"
        }
      ],
      "stateMutability": "view",
      "type": "function"
    },
    {
      "inputs": [
        {
          "internalType": "address",
          "name": "",
          "type": "address"
        }
      ],
      "name": "inflationRollOver",
      "outputs": [
        {
          "internalType": "uint256",
          "name": "",
          "type": "uint256"
        }
      ],
      "stateMutability": "view",
      "type": "function"
    },
    {
      "inputs": [
        {
          "internalType": "address",
          "name": "_nend",
          "type": "address"
        },
        {
          "internalType": "contract Vault",
          "name": "_lendingPool",
          "type": "address"
        }
      ],
      "name": "initialize",
      "outputs": [],
      "stateMutability": "nonpayable",
      "type": "function"
    },
    {
      "inputs": [
        {
          "internalType": "address",
          "name": "owner",
          "type": "address"
        },
        {
          "internalType": "address",
          "name": "operator",
          "type": "address"
        }
      ],
      "name": "isApprovedForAll",
      "outputs": [
        {
          "internalType": "bool",
          "name": "",
          "type": "bool"
        }
      ],
      "stateMutability": "view",
      "type": "function"
    },
    {
      "inputs": [
        {
          "internalType": "uint256",
          "name": "_stakeId",
          "type": "uint256"
        }
      ],
      "name": "issueEAB",
      "outputs": [],
      "stateMutability": "nonpayable",
      "type": "function"
    },
    {
      "inputs": [
        {
          "internalType": "address",
          "name": "",
          "type": "address"
        },
        {
          "internalType": "uint8",
          "name": "",
          "type": "uint8"
        }
      ],
      "name": "lastEscrowRewardByToken_Duration",
      "outputs": [
        {
          "internalType": "uint256",
          "name": "",
          "type": "uint256"
        }
      ],
      "stateMutability": "view",
      "type": "function"
    },
    {
      "inputs": [],
      "name": "lendingPool",
      "outputs": [
        {
          "internalType": "contract Vault",
          "name": "",
          "type": "address"
        }
      ],
      "stateMutability": "view",
      "type": "function"
    },
    {
      "inputs": [
        {
          "internalType": "uint256",
          "name": "startId",
          "type": "uint256"
        },
        {
          "internalType": "uint256",
          "name": "batchSize",
          "type": "uint256"
        }
      ],
      "name": "migrateStakesInBatch",
      "outputs": [],
      "stateMutability": "nonpayable",
      "type": "function"
    },
    {
      "inputs": [],
      "name": "name",
      "outputs": [
        {
          "internalType": "string",
          "name": "",
          "type": "string"
        }
      ],
      "stateMutability": "view",
      "type": "function"
    },
    {
      "inputs": [],
      "name": "nend",
      "outputs": [
        {
          "internalType": "address",
          "name": "",
          "type": "address"
        }
      ],
      "stateMutability": "view",
      "type": "function"
    },
    {
      "inputs": [],
      "name": "nextStakeId",
      "outputs": [
        {
          "internalType": "uint256",
          "name": "",
          "type": "uint256"
        }
      ],
      "stateMutability": "view",
      "type": "function"
    },
    {
      "inputs": [],
      "name": "owner",
      "outputs": [
        {
          "internalType": "address",
          "name": "",
          "type": "address"
        }
      ],
      "stateMutability": "view",
      "type": "function"
    },
    {
      "inputs": [
        {
          "internalType": "uint256",
          "name": "tokenId",
          "type": "uint256"
        }
      ],
      "name": "ownerOf",
      "outputs": [
        {
          "internalType": "address",
          "name": "",
          "type": "address"
        }
      ],
      "stateMutability": "view",
      "type": "function"
    },
    {
      "inputs": [],
      "name": "poolRollOver",
      "outputs": [
        {
          "internalType": "uint256",
          "name": "",
          "type": "uint256"
        }
      ],
      "stateMutability": "view",
      "type": "function"
    },
    {
      "inputs": [],
      "name": "proxiableUUID",
      "outputs": [
        {
          "internalType": "bytes32",
          "name": "",
          "type": "bytes32"
        }
      ],
      "stateMutability": "view",
      "type": "function"
    },
    {
      "inputs": [
        {
          "internalType": "address",
          "name": "_stakeToken",
          "type": "address"
        }
      ],
      "name": "removeStakeToken",
      "outputs": [],
      "stateMutability": "nonpayable",
      "type": "function"
    },
    {
      "inputs": [],
      "name": "renounceOwnership",
      "outputs": [],
      "stateMutability": "nonpayable",
      "type": "function"
    },
    {
      "inputs": [
        {
          "internalType": "uint256",
          "name": "",
          "type": "uint256"
        }
      ],
      "name": "rewardAllocations",
      "outputs": [
        {
          "internalType": "uint8",
          "name": "",
          "type": "uint8"
        }
      ],
      "stateMutability": "view",
      "type": "function"
    },
    {
      "inputs": [
        {
          "internalType": "address",
          "name": "from",
          "type": "address"
        },
        {
          "internalType": "address",
          "name": "to",
          "type": "address"
        },
        {
          "internalType": "uint256",
          "name": "tokenId",
          "type": "uint256"
        }
      ],
      "name": "safeTransferFrom",
      "outputs": [],
      "stateMutability": "nonpayable",
      "type": "function"
    },
    {
      "inputs": [
        {
          "internalType": "address",
          "name": "from",
          "type": "address"
        },
        {
          "internalType": "address",
          "name": "to",
          "type": "address"
        },
        {
          "internalType": "uint256",
          "name": "tokenId",
          "type": "uint256"
        },
        {
          "internalType": "bytes",
          "name": "data",
          "type": "bytes"
        }
      ],
      "name": "safeTransferFrom",
      "outputs": [],
      "stateMutability": "nonpayable",
      "type": "function"
    },
    {
      "inputs": [
        {
          "internalType": "address",
          "name": "operator",
          "type": "address"
        },
        {
          "internalType": "bool",
          "name": "approved",
          "type": "bool"
        }
      ],
      "name": "setApprovalForAll",
      "outputs": [],
      "stateMutability": "nonpayable",
      "type": "function"
    },
    {
      "inputs": [
        {
          "internalType": "uint8[3]",
          "name": "_rewardAllocations",
          "type": "uint8[3]"
        }
      ],
      "name": "setRewardAllocations",
      "outputs": [],
      "stateMutability": "nonpayable",
      "type": "function"
    },
    {
      "inputs": [
        {
          "internalType": "bool",
          "name": "_deprecated",
          "type": "bool"
        }
      ],
      "name": "setStakesDeprecated",
      "outputs": [],
      "stateMutability": "nonpayable",
      "type": "function"
    },
    {
      "inputs": [
        {
          "internalType": "bool",
          "name": "_testing",
          "type": "bool"
        }
      ],
      "name": "setTesting",
      "outputs": [],
      "stateMutability": "nonpayable",
      "type": "function"
    },
    {
      "inputs": [
        {
          "internalType": "uint256",
          "name": "_tokenId",
          "type": "uint256"
        },
        {
          "internalType": "string",
          "name": "_tokenURI",
          "type": "string"
        }
      ],
      "name": "setTokenURI",
      "outputs": [],
      "stateMutability": "nonpayable",
      "type": "function"
    },
    {
      "inputs": [
        {
          "internalType": "uint256",
          "name": "",
          "type": "uint256"
        }
      ],
      "name": "stakeDurations",
      "outputs": [
        {
          "internalType": "uint48",
          "name": "",
          "type": "uint48"
        }
      ],
      "stateMutability": "view",
      "type": "function"
    },
    {
      "inputs": [
        {
          "internalType": "uint256",
          "name": "_stakeId",
          "type": "uint256"
        }
      ],
      "name": "stakeEscrowedReward",
      "outputs": [],
      "stateMutability": "nonpayable",
      "type": "function"
    },
    {
      "inputs": [],
      "name": "stakeTokenCount",
      "outputs": [
        {
          "internalType": "uint256",
          "name": "",
          "type": "uint256"
        }
      ],
      "stateMutability": "view",
      "type": "function"
    },
    {
      "inputs": [
        {
          "internalType": "uint256",
          "name": "",
          "type": "uint256"
        }
      ],
      "name": "stakeTokens",
      "outputs": [
        {
          "internalType": "address",
          "name": "",
          "type": "address"
        }
      ],
      "stateMutability": "view",
      "type": "function"
    },
    {
      "inputs": [
        {
          "internalType": "uint256",
          "name": "",
          "type": "uint256"
        }
      ],
      "name": "stakes",
      "outputs": [
        {
          "internalType": "address",
          "name": "staker",
          "type": "address"
        },
        {
          "internalType": "address",
          "name": "token",
          "type": "address"
        },
        {
          "internalType": "uint48",
          "name": "start",
          "type": "uint48"
        },
        {
          "internalType": "uint48",
          "name": "end",
          "type": "uint48"
        },
        {
          "internalType": "uint256",
          "name": "rewardAllocated",
          "type": "uint256"
        },
        {
          "internalType": "bool",
          "name": "isEscrow",
          "type": "bool"
        },
        {
          "internalType": "enum ILendingPoolStakingV2.EscrowStatus",
          "name": "escrowStatus",
          "type": "uint8"
        },
        {
          "internalType": "enum ILendingPoolStakingV2.StakeStatus",
          "name": "stakeStatus",
          "type": "uint8"
        }
      ],
      "stateMutability": "view",
      "type": "function"
    },
    {
      "inputs": [],
      "name": "stakesDeprecated",
      "outputs": [
        {
          "internalType": "bool",
          "name": "",
          "type": "bool"
        }
      ],
      "stateMutability": "view",
      "type": "function"
    },
    {
      "inputs": [
        {
          "internalType": "bytes4",
          "name": "interfaceId",
          "type": "bytes4"
        }
      ],
      "name": "supportsInterface",
      "outputs": [
        {
          "internalType": "bool",
          "name": "",
          "type": "bool"
        }
      ],
      "stateMutability": "view",
      "type": "function"
    },
    {
      "inputs": [],
      "name": "symbol",
      "outputs": [
        {
          "internalType": "string",
          "name": "",
          "type": "string"
        }
      ],
      "stateMutability": "view",
      "type": "function"
    },
    {
      "inputs": [],
      "name": "testing",
      "outputs": [
        {
          "internalType": "bool",
          "name": "",
          "type": "bool"
        }
      ],
      "stateMutability": "view",
      "type": "function"
    },
    {
      "inputs": [
        {
          "internalType": "uint256",
          "name": "tokenId",
          "type": "uint256"
        }
      ],
      "name": "tokenURI",
      "outputs": [
        {
          "internalType": "string",
          "name": "",
          "type": "string"
        }
      ],
      "stateMutability": "view",
      "type": "function"
    },
    {
      "inputs": [
        {
          "internalType": "address",
          "name": "",
          "type": "address"
        },
        {
          "internalType": "uint8",
          "name": "",
          "type": "uint8"
        }
      ],
      "name": "totalStakedByToken_Duration",
      "outputs": [
        {
          "internalType": "uint256",
          "name": "",
          "type": "uint256"
        }
      ],
      "stateMutability": "view",
      "type": "function"
    },
    {
      "inputs": [
        {
          "internalType": "address",
          "name": "from",
          "type": "address"
        },
        {
          "internalType": "address",
          "name": "to",
          "type": "address"
        },
        {
          "internalType": "uint256",
          "name": "tokenId",
          "type": "uint256"
        }
      ],
      "name": "transferFrom",
      "outputs": [],
      "stateMutability": "nonpayable",
      "type": "function"
    },
    {
      "inputs": [
        {
          "internalType": "address",
          "name": "newOwner",
          "type": "address"
        }
      ],
      "name": "transferOwnership",
      "outputs": [],
      "stateMutability": "nonpayable",
      "type": "function"
    },
    {
      "inputs": [
        {
          "internalType": "uint256",
          "name": "_stakeId",
          "type": "uint256"
        }
      ],
      "name": "unstake",
      "outputs": [],
      "stateMutability": "nonpayable",
      "type": "function"
    },
    {
      "inputs": [
        {
          "internalType": "address",
          "name": "newImplementation",
          "type": "address"
        }
      ],
      "name": "upgradeTo",
      "outputs": [],
      "stateMutability": "nonpayable",
      "type": "function"
    },
    {
      "inputs": [
        {
          "internalType": "address",
          "name": "newImplementation",
          "type": "address"
        },
        {
          "internalType": "bytes",
          "name": "data",
          "type": "bytes"
        }
      ],
      "name": "upgradeToAndCall",
      "outputs": [],
      "stateMutability": "payable",
      "type": "function"
    },
    {
      "inputs": [
        {
          "internalType": "address",
          "name": "",
          "type": "address"
        },
        {
          "internalType": "uint256",
          "name": "",
          "type": "uint256"
        }
      ],
      "name": "userStakesById",
      "outputs": [
        {
          "internalType": "address",
          "name": "staker",
          "type": "address"
        },
        {
          "internalType": "address",
          "name": "token",
          "type": "address"
        },
        {
          "internalType": "uint48",
          "name": "start",
          "type": "uint48"
        },
        {
          "internalType": "uint48",
          "name": "end",
          "type": "uint48"
        },
        {
          "internalType": "uint256",
          "name": "rewardAllocated",
          "type": "uint256"
        },
        {
          "internalType": "bool",
          "name": "isEscrow",
          "type": "bool"
        },
        {
          "internalType": "enum ILendingPoolStakingV2.EscrowStatus",
          "name": "escrowStatus",
          "type": "uint8"
        },
        {
          "internalType": "enum ILendingPoolStakingV2.StakeStatus",
          "name": "stakeStatus",
          "type": "uint8"
        }
      ],
      "stateMutability": "view",
      "type": "function"
    },
    {
      "inputs": [
        {
          "internalType": "address",
          "name": "",
          "type": "address"
        }
      ],
      "name": "userStakesCount",
      "outputs": [
        {
          "internalType": "uint256",
          "name": "",
          "type": "uint256"
        }
      ],
      "stateMutability": "view",
      "type": "function"
    }
  ],
  "transactionHash": "0x292c63d4b13187ca1d6a2100995dea7960c5ef8c9527e817dde828e66f31e9bb",
  "args": [],
  "numDeployments": 6,
  "solcInputHash": "5e2263d56e3d0f59991f6e932da8dc6a",
  "bytecode": "0x60a0604052346200011e576000546200003260ff8260081c1615809281936200010f575b8115620000ec575b5062000123565b8062000046600160ff196000541617600055565b620000d1575b6200005c60ff1960fb541660fb55565b6200008d575b30608052604051615fef9081620001888239608051818181611901015281816121b5015261245a0152f35b6200009e61ff001960005416600055565b604051600181527f7f26b83ff96e1f2b6a682f133852f6798a09c465da95921460cefb384740249890602090a162000062565b620000e661010061ff00196000541617600055565b6200004c565b303b1591508162000100575b50386200002b565b6001915060ff161438620000f8565b600160ff821610915062000023565b600080fd5b156200012b57565b60405162461bcd60e51b815260206004820152602e60248201527f496e697469616c697a61626c653a20636f6e747261637420697320616c72656160448201526d191e481a5b9a5d1a585b1a5e995960921b6064820152608490fdfe60806040526004361015610013575b600080fd5b60003560e01c806301ffc9a71461052757806306fdde031461051e578063081812fc1461051557806308ed8d161461050c578063095ea7b314610503578063125cc42f146104fa578063162094c4146104f1578063166866c7146104e8578063193cf2bf146104df5780631dbd2086146104d65780631e83409a146104cd5780631fecb71a146104c4578063217fe6c6146104bb5780632372b28a146104b257806323b872dd146104a9578063273d87e2146104a05780632e17de78146104975780633431d6311461048e5780633659cfe614610485578063396b62471461047c57806339d2525f146104735780633c661b8b1461046a5780633de15c121461046157806342842e0e14610458578063485cc9551461044f5780634f1ef28614610446578063528a9e4d1461043d57806352d1902d146104345780635413aa3b1461042b5780636352211e1461042257806370a0823114610419578063715018a61461041057806372a4db4a146104075780637547c7a3146103fe57806375506c96146103f557806378fecc99146103ec57806382952200146103e3578063848778b4146103da5780638d03b102146103d15780638da5cb5b146103c857806395d89b41146103bf5780639db5fa65146103b6578063a22cb465146103ad578063a59a9973146103a4578063b5bc85341461039b578063b88d4fde14610392578063ba5e4bad14610389578063bad7edab14610380578063bf02155014610377578063c1592dbc1461036e578063c436e31814610365578063c51046a31461035c578063c87b56dd14610353578063d2438c2a1461034a578063d495caaa14610341578063d5a44f8614610338578063d909087e1461032f578063de3e3eff14610326578063e25b7d821461031d578063e985e9c514610314578063ef7bd7f31461030b578063f19ed6be14610302578063f2fde38b146102f9578063f56f4f0f146102f05763fe863ac1146102e857600080fd5b61000e6137a3565b5061000e613667565b5061000e6135d5565b5061000e61324a565b5061000e61322a565b5061000e6131da565b5061000e6131b2565b5061000e61316e565b5061000e6130b4565b5061000e61303e565b5061000e612f0f565b5061000e612de0565b5061000e612dac565b5061000e612d85565b5061000e612d65565b5061000e612d25565b5061000e612cd1565b5061000e612bd9565b5061000e612bb9565b5061000e612b61565b5061000e612b3c565b5061000e612b13565b5061000e612a1d565b5061000e6129c0565b5061000e612918565b5061000e6128f0565b5061000e6128cc565b5061000e61288c565b5061000e612863565b5061000e61283d565b5061000e61281d565b5061000e6127c1565b5061000e61271f565b5061000e612691565b5061000e6125eb565b5061000e6125cc565b5061000e612516565b5061000e61243e565b5061000e612309565b5061000e61216f565b5061000e612070565b5061000e612047565b5061000e611ba2565b5061000e611b66565b5061000e611a8a565b5061000e611a6a565b5061000e6118d7565b5061000e611895565b5061000e6114d0565b5061000e6112f7565b5061000e6112cd565b5061000e61119f565b5061000e6110eb565b5061000e61104c565b5061000e610e21565b5061000e610e04565b5061000e610d49565b5061000e610c75565b5061000e610a5c565b5061000e6108a2565b5061000e6107a9565b5061000e61075b565b5061000e610721565b5061000e610644565b5061000e610542565b6001600160e01b031981160361000e57565b503461000e57602036600319011261000e57602060043561056281610530565b63ffffffff60e01b16632483248360e11b8114908115610588575b506040519015158152f35b6380ac58cd60e01b8114915081156105ba575b81156105a9575b503861057d565b6301ffc9a760e01b149050386105a2565b635b5e139f60e01b8114915061059b565b600091031261000e57565b918091926000905b8282106105f65750116105ef575050565b6000910152565b915080602091830151818601520182916105de565b90602091610624815180928185528580860191016105d6565b601f01601f1916010190565b90602061064192818152019061060b565b90565b503461000e5760008060031936011261071e57604051908060655461066881613c01565b808552916001918083169081156106fd57506001146106a2575b61069e85610692818703826109ac565b60405191829182610630565b0390f35b9250606583527f8ff97419363ffd7000167f130ef7168fbea05faf9251824ca5043f113cc6a7c75b8284106106e55750505081016020016106928261069e610682565b805460208587018101919091529093019281016106ca565b60ff191660208701525050604084019250610692915083905061069e610682565b80fd5b503461000e57602036600319011261000e576020610740600435613cad565b6001600160a01b0360405191168152f35b8015150361000e57565b503461000e57602036600319011261000e5760043561077981610751565b6107816137f1565b60ff801960fb5416911515161760fb556000604051f35b6001600160a01b0381160361000e57565b503461000e57604036600319011261000e576004356107c781610798565b6024356107d381613bdf565b916001600160a01b0380841680918316146108535761080593610800913314908115610807575b50613c3b565b614022565b005b61084d91506108469061082e33916001600160a01b0316600052606a602052604060002090565b906001600160a01b0316600052602052604060002090565b5460ff1690565b386107fa565b60405162461bcd60e51b815260206004820152602160248201527f4552433732313a20617070726f76616c20746f2063757272656e74206f776e656044820152603960f91b6064820152608490fd5b503461000e57602036600319011261000e576001600160a01b036004356108c881610798565b16600052610163602052602060ff604060002054166040519015158152f35b50634e487b7160e01b600052604160045260246000fd5b6080810190811067ffffffffffffffff82111761091a57604052565b6109226108e7565b604052565b67ffffffffffffffff811161091a57604052565b610120810190811067ffffffffffffffff82111761091a57604052565b6020810190811067ffffffffffffffff82111761091a57604052565b6060810190811067ffffffffffffffff82111761091a57604052565b6040810190811067ffffffffffffffff82111761091a57604052565b90601f8019910116810190811067ffffffffffffffff82111761091a57604052565b604051906109db8261093b565b565b604051906109db82610974565b60209067ffffffffffffffff8111610a08575b601f01601f19160190565b610a106108e7565b6109fd565b81601f8201121561000e57803590610a2c826109ea565b92610a3a60405194856109ac565b8284526020838301011161000e57816000926020809301838601378301015290565b503461000e57604036600319011261000e5760043567ffffffffffffffff60243581811161000e57610a92903690600401610a15565b91610a9b6137f1565b610abb8160005260676020526001600160a01b0360406000205416151590565b15610c0a576000918183526020906097825260408420918551918211610bfd575b610af082610aea8554613c01565b85614d70565b80601f8311600114610b6757509080610b5494939286977ff8e1a15aba9398e019f0b49df1a4fde98ee17ae345cb5f6b5e2c27f5033e8ce79792610b5c575b50508160011b916000199060031b1c19161790555b6040519081529081906020820190565b0390a1604051f35b015190503880610b2f565b90601f19831696610b7d85600052602060002090565b9287905b898210610be5575050918391600193610b549796957ff8e1a15aba9398e019f0b49df1a4fde98ee17ae345cb5f6b5e2c27f5033e8ce7999a10610bcc575b505050811b019055610b44565b015160001960f88460031b161c19169055388080610bbf565b80600185968294968601518155019501930190610b81565b610c056108e7565b610adc565b60405162461bcd60e51b815260206004820152602e60248201527f45524337323155524953746f726167653a2055524920736574206f66206e6f6e60448201527f6578697374656e7420746f6b656e0000000000000000000000000000000000006064820152608490fd5b503461000e5760208060031936011261000e57600435610c9481610798565b610c9c614507565b90610cc06001600160a01b0392848460c954163314918215610d0e575b5050614528565b1690816000526101639182825260ff60406000205416610cdc57005b61016780548015610d01575b60001901905560005252604060002060ff198154169055005b610d096144b7565b610ce8565b60ff925090610d37913360005260fc8252604060002082604051948386809551938492016105d6565b82019081520301902054168438610cb9565b503461000e57602036600319011261000e5761069e60408060608151610d6e816108fe565b6000918183809352826020820152828582015201526004358152610181602052209060ff6003825193610da0856108fe565b6001600160a01b0381541685526001810154602086015260028101548486015201541615156060830152519182918291909160608060808301946001600160a01b038151168452602081015160208501526040810151604085015201511515910152565b503461000e57600036600319011261000e57602060405160028152f35b503461000e57602036600319011261000e57600435610e3f81610798565b806060610e4a614ec7565b33600090815261017e6020908152604080832061017f909252909120610ede905491610e7f610161546001600160a01b031690565b60405163133389bb60e21b8152600481019290925261016e60248301526044820193909352610180606482015260848101939093526001600160a01b0395861660a4840152941660c48201523360e48201529283908190610104820190565b0381733eaA9D9c9BE8C558DF532dFfB15c699Ec91404855af4801561103f575b60009182938392610fdd575b50906001600160a01b037f2816e76094fb835139144d9b24450a1cc4f456e70254b15b583551617f42910792610f40853361510a565b60405163a9059cbb60e01b8152336004820152602481018790529116949060208160448160008a5af18015610fd0575b610fa2575b5060408051948552602085019190915267ffffffffffffffff90911690830152339180606081015b0390a3005b610fc29060203d8111610fc9575b610fba81836109ac565b8101906144f2565b5038610f75565b503d610fb0565b610fd8613977565b610f70565b61102c9194506001600160a01b0393507f2816e76094fb835139144d9b24450a1cc4f456e70254b15b583551617f429107925060603d8111611038575b61102481836109ac565b8101906150de565b94919390949250610f0a565b503d61101a565b611047613977565b610efe565b503461000e57602036600319011261000e5761080560043561106d81610798565b611094611078614507565b6001600160a01b0360c954163314908115611099575b50614528565b6157e9565b60ff915060206110c3913360005260fc8252604060002082604051948386809551938492016105d6565b82019081520301902054163861108e565b906110e7602092828151948592016105d6565b0190565b503461000e57604036600319011261000e5760043561110981610798565b60243567ffffffffffffffff811161000e5761115d602061069e936001600160a01b0361113c60ff953690600401610a15565b911660005260fc8252604060002082604051948386809551938492016105d6565b820190815203019020546040519116151581529081906020820190565b604090600319011261000e5760043561119281610798565b9060243561064181610798565b503461000e5761069e6001600160a01b036111b93661117a565b911660005261017e6020526020604060002061017f82526040600020549061122c6111ed610161546001600160a01b031690565b6040519586948594634f47984960e11b865260048601929094936060926080850196855260208501526001600160a01b03809216604085015216910152565b0381733eaA9D9c9BE8C558DF532dFfB15c699Ec91404855af4908115611294575b600091611266575b506040519081529081906020820190565b611287915060203d811161128d575b61127f81836109ac565b810190613968565b38611255565b503d611275565b61129c613977565b61124d565b606090600319011261000e576004356112b981610798565b906024356112c681610798565b9060443590565b503461000e576108056112df366112a1565b916112f26112ed8433613ddc565b613cef565b613eb7565b503461000e5760408060031936011261000e57600480356024356113196137f1565b61133561133061132c6101835460ff1690565b1590565b61446b565b61133f81836144e6565b6101729182548092116000146114bf5750925b733eaA9D9c9BE8C558DF532dFfB15c699Ec9140485835b8581106113cc576000877f2a3aeb194c33f592b722a8f82cf9c3310794dcc211135c216cc284aea0353b5e888888548210156113b9575b8351908152602081019190915280604081015b0390a151f35b610183805460ff191660011790556113a0565b808061147b6114156113fb6113ee600196600052610171602052604060002090565b546001600160a01b031690565b6001600160a01b031660005261017e602052604060002090565b610161546001600160a01b03168b518093819263705dd6e760e11b835260209687958c85019160c09194936001600160a01b039160e08501966101718652602086015261017f60408601526101816060860152610182608086015260a085015216910152565b0381885af480156114b2575b611494575b505001611369565b816114aa92903d10610fc957610fba81836109ac565b50388061148c565b6114ba613977565b611487565b6114ca9150836144e6565b92611352565b503461000e5760208060031936011261000e5760048035916114f183614415565b908115611884576115298261151a336001600160a01b031660005261017e602052604060002090565b90600052602052604060002090565b9061159c733eaA9D9c9BE8C558DF532dFfB15c699Ec9140485946101619361155885546001600160a01b031690565b6040805163766757b960e11b815284810184815261016e60208201526001600160a01b03909316838301523360608401529098909490916080918691829190840190565b0381845af4958615611877575b600091829383968499611832575b506006015460ff165b1561178a575091600086611625829c9896946115fb6115ef6115ef61167e9e9d9b99546001600160a01b031690565b6001600160a01b031690565b8d5163a9059cbb60e01b815233888201908152602081019390935294859391928492839160400190565b03925af1801561177d575b611760575b505b806116eb575b50508651848152600260208201527fab7e44c17ad2a7b4de0e42ab0bc824366a946f184a1133f0b5528347e4ccbd29925060409150a1611681575b33615898565b51f35b6116a18160005260676020526001600160a01b0360406000205416151590565b6116dd575b8351818152600260208201527f855f5f4ea7c8c6a92f173fbc35c24d01139c2a49e9bcc085f03620cb6a1c651390604090a1611678565b6116e681615583565b6116a6565b885163a9059cbb60e01b81523392810192835260208301919091529183918391908290036040019082908c906001600160a01b03165af18015611753575b611735575b808061163d565b8161174b92903d10610fc957610fba81836109ac565b50388061172e565b61175b613977565b611729565b61177690853d8711610fc957610fba81836109ac565b5038611635565b611785613977565b611630565b999593919796949290506117a7610162546001600160a01b031690565b99803b1561000e5789516331fd8e6560e01b81526001600160a01b039b8c168482019081529b851660208d01523360408d015260608c019990995260009a61167e99918c918391908290819060800103915af48015611825575b61180c575b50611637565b8061181961181f92610927565b806105cb565b38611806565b61182d613977565b611801565b9098506118609196506115c094506006935060803d8111611870575b61185881836109ac565b8101906154fc565b99909791955091939091906115b7565b503d61184e565b61187f613977565b6115a9565b604051638c877d2160e01b81528390fd5b503461000e57602036600319011261000e576004356118b381610751565b6118be611078614507565b6101839060ff8019835416911515161790556000604051f35b503461000e57602036600319011261000e576004356118f581610798565b6001600160a01b0390817f0000000000000000000000000000000000000000000000000000000000000000169161192e83301415613893565b61195d7f360894a13ba1a3210667c828492db98dca3e2076cc3735a920a3ca505d382bbc9382855416146138f4565b6119656137f1565b6040519061197282610958565b600082527f4910fdfa16fed3260ed0e7147f7cc6da11a60208b5b9406d12a635614ffd91435460ff16156119ac57505061080591506139e2565b6020600491604094939451928380926352d1902d60e01b825286165afa60009181611a4a575b50611a375760405162461bcd60e51b815260206004820152602e60248201527f45524331393637557067726164653a206e657720696d706c656d656e7461746960448201526d6f6e206973206e6f74205555505360901b6064820152608490fd5b0390fd5b61080593611a459114613984565b613a80565b611a6391925060203d811161128d5761127f81836109ac565b90386119d2565b503461000e57600036600319011261000e57602061017354604051908152f35b503461000e57606036600319011261000e57600435611aa881610798565b6024359067ffffffffffffffff821161000e57611b0e6020611ad1610805943690600401610a15565b6001600160a01b0360443594611ae686610751565b611aee6137f1565b1660005260fc8252604060002082604051948386809551938492016105d6565b8201908152030190209060ff801983541691151516179055565b50634e487b7160e01b600052603260045260246000fd5b906003821015611b59575b601f8260051c61016f01921690565b611b61611b28565b611b4a565b503461000e57602036600319011261000e57600435600381101561000e578060ff60209260051c61016f015460f86040519360031b161c168152f35b503461000e5760208060031936011261000e57611bcb6115ef610161546001600160a01b031690565b330361203657733eaA9D9c9BE8C558DF532dFfB15c699Ec91404859061017390611bf58254614ea2565b5060408051631d250b5960e11b815260048082019390935290948582602481845af48015612029575b6000928391611ff6575b50611c3690928435906144e6565b60005b61016554811015611edf57611c9786611c67611c548461277c565b90546001600160a01b039160031b1c1690565b8a518093819263c78ea24360e01b83528a830191909160206001600160a01b03604083019461016e845216910152565b0381875af4908115611ed2575b600091611eb5575b50611cba575b600101611c39565b611d249061016294611cd66115ef87546001600160a01b031690565b9088611ce4611c548561277c565b8c5180968192630530fa2160e01b83528c830160408082526003908201526206966760ec1b60608201526001600160a01b03909116602082015260800190565b0381855afa938415611ea8575b600094611e85575b5083611d44916144e6565b95611d51611c548461277c565b93823b1561000e578b896000611ddb6115ef8e96611dbd8488611e239b60019e838a8c5196879586948593636c49e02160e01b8552840160608082526003908201526206966760ec1b6080820152909291906040906001600160a01b0360a08201951660208201520152565b03925af18015611e78575b611e65575b50546001600160a01b031690565b92611de8611c548961277c565b905163276d76f960e21b81526001600160a01b0390911692810192835230602084015260408301949094529294859384929091839160600190565b03925af18015611e58575b611e3b575b509050611cb2565b611e5190883d8a11610fc957610fba81836109ac565b5038611e33565b611e60613977565b611e2e565b80611819611e7292610927565b38611dcd565b611e80613977565b611dc8565b611d44919450611ea1908a3d8c1161128d5761127f81836109ac565b9390611d39565b611eb0613977565b611d31565b611ecc9150873d891161128d5761127f81836109ac565b38611cac565b611eda613977565b611ca4565b509293828185611f62947f8e4ce2fa984a5f09e5d111432fa85c4e31eb6c1d53be8a5c344af4b910883bcd9860009b9a5490611f478c519687958694859463bf14822560e01b8652850160609194939260808201956101748352602083015260408201520152565b03915af4918215611fe9575b8892611fcc575b505061017355565b6113b3611f7e611f70614ec7565b5467ffffffffffffffff1690565b91611f9b611f8a614ec7565b5460401c67ffffffffffffffff1690565b938651948594859092606092959493608083019667ffffffffffffffff809216845216602083015260408201520152565b611fe29250803d1061128d5761127f81836109ac565b3880611f5a565b611ff1613977565b611f53565b611c36935061201b9150873d8911612022575b61201381836109ac565b8101906150c8565b9092611c28565b503d612009565b612031613977565b611c1e565b6040516282b42960e81b8152600490fd5b503461000e57610805612059366112a1565b906040519261206784610958565b60008452613d51565b503461000e57604036600319011261000e5760043561208e81610798565b6120de60243561209d81610798565b600054926120c260ff8560081c161580958196612161575b8115612141575b506146cc565b836120d5600160ff196000541617600055565b61212857614949565b6120e457005b6120f461ff001960005416600055565b604051600181527f7f26b83ff96e1f2b6a682f133852f6798a09c465da95921460cefb38474024989080602081015b0390a1005b61213c61010061ff00196000541617600055565b614949565b303b15915081612153575b50386120bc565b6001915060ff16143861214c565b600160ff82161091506120b5565b50604036600319011261000e5760043561218881610798565b60243567ffffffffffffffff811161000e576121a8903690600401610a15565b906001600160a01b0391827f000000000000000000000000000000000000000000000000000000000000000016926121e284301415613893565b6122117f360894a13ba1a3210667c828492db98dca3e2076cc3735a920a3ca505d382bbc9482865416146138f4565b6122196137f1565b7f4910fdfa16fed3260ed0e7147f7cc6da11a60208b5b9406d12a635614ffd91435460ff161561224f57505061080591506139e2565b6020600491604094939451928380926352d1902d60e01b825286165afa600091816122e9575b506122d65760405162461bcd60e51b815260206004820152602e60248201527f45524331393637557067726164653a206e657720696d706c656d656e7461746960448201526d6f6e206973206e6f74205555505360901b6064820152608490fd5b610805936122e49114613984565b613b3c565b61230291925060203d811161128d5761127f81836109ac565b9038612275565b503461000e57602036600319011261000e5760043561232781614415565b801561242c5761234f9061151a336001600160a01b031660005261017e602052604060002090565b90336001600160a01b0361236a84546001600160a01b031690565b1603612036576006820191825460ff811615908115612413575b5061240157825462ff00001916620100001783557fab7e44c17ad2a7b4de0e42ab0bc824366a946f184a1133f0b5528347e4ccbd29926123f1916123e7906123e160026123da610161546001600160a01b031690565b9201614f4f565b90615cc2565b5460101c60ff1690565b90612123604051928392836150b2565b60405163baf3f0f760e01b8152600490fd5b60ff915060101c1661242481612e37565b151538612384565b604051638c877d2160e01b8152600490fd5b503461000e57600036600319011261000e576001600160a01b037f00000000000000000000000000000000000000000000000000000000000000001630036124ab576040517f360894a13ba1a3210667c828492db98dca3e2076cc3735a920a3ca505d382bbc8152602090f35b60405162461bcd60e51b815260206004820152603860248201527f555550535570677261646561626c653a206d757374206e6f742062652063616c60448201527f6c6564207468726f7567682064656c656761746563616c6c00000000000000006064820152608490fd5b503461000e57600036600319011261000e576101735460028110156125bf575b600560405191631d250b5960e11b835202610174016004820152604081602481733eaA9D9c9BE8C558DF532dFfB15c699Ec91404855af49081156125b2575b6000908192612591575b50604080519182526020820192909252f35b90506125ab915060403d81116120225761201381836109ac565b903861257f565b6125ba613977565b612575565b6125c7611b28565b612536565b503461000e57602036600319011261000e576020610740600435613bdf565b503461000e57602036600319011261000e576001600160a01b0360043561261181610798565b16801561263a57600052606860205261069e604060002054604051918291829190602083019252565b60405162461bcd60e51b815260206004820152602960248201527f4552433732313a2061646472657373207a65726f206973206e6f7420612076616044820152683634b21037bbb732b960b91b6064820152608490fd5b503461000e5760008060031936011261071e576126ac6137f1565b60c9546001600160a01b0319811660c955816001600160a01b0360405192167f8be0079c531659141344cd1fd0a4f28419497f9722a3daafe3b4186f6b6457e08284a3f35b6024359060ff8216820361000e57565b6044359060ff8216820361000e57565b359060ff8216820361000e57565b503461000e57606036600319011261000e57366023121561000e5760405161274681610974565b60648136821161000e576004905b8282106127645761080584614574565b6020809161277184612711565b815201910190612754565b61016580548210156127b4575b6000527fd91ca5e44fa96a1732bfaed7fe33fc20ed69a9895cde1f18c7dcabca39d6a78b0190600090565b6127bc611b28565b612789565b503461000e57602036600319011261000e57600435610165805482101561000e576020916001600160a01b03916000527fd91ca5e44fa96a1732bfaed7fe33fc20ed69a9895cde1f18c7dcabca39d6a78b015416604051908152f35b503461000e57600036600319011261000e57602061017254604051908152f35b503461000e57600036600319011261000e576020612859615208565b6040519015158152f35b503461000e57600036600319011261000e5760206001600160a01b036101615416604051908152f35b503461000e57602036600319011261000e576001600160a01b036004356128b281610798565b166000526101646020526020604060002054604051908152f35b503461000e57600036600319011261000e57602060ff60fb54166040519015158152f35b503461000e57600036600319011261000e5760206001600160a01b0360c95416604051908152f35b503461000e5760008060031936011261071e57604051908060665461293c81613c01565b808552916001918083169081156106fd57506001146129655761069e85610692818703826109ac565b9250606683527f46501879b8ca8525e8c2fd519e2fbfcfa2ebea26501294aa02cbfcfb12e943545b8284106129a85750505081016020016106928261069e610682565b8054602085870181019190915290930192810161298d565b503461000e57604036600319011261000e576020612a146004356129e381610798565b6001600160a01b036129f36126f1565b911660005261016e835260406000209060ff16600052602052604060002090565b54604051908152f35b503461000e57604036600319011261000e57600435612a3b81610798565b602435612a4781610751565b6001600160a01b03821691823314612ace5781612a87612a989233600052606a6020526040600020906001600160a01b0316600052602052604060002090565b9060ff801983541691151516179055565b604051901515815233907f17307eab39ab6107e8899845ad3d59bd9653f200f220920489ca2b5937696c31908060208101610f9d565b60405162461bcd60e51b815260206004820152601960248201527f4552433732313a20617070726f766520746f2063616c6c6572000000000000006044820152606490fd5b503461000e57600036600319011261000e5760206001600160a01b036101625416604051908152f35b503461000e57600036600319011261000e57602060ff61018354166040519015158152f35b503461000e57608036600319011261000e57600435612b7f81610798565b602435612b8b81610798565b6064359167ffffffffffffffff831161000e57612baf610805933690600401610a15565b9160443591613d51565b503461000e57600036600319011261000e57602061017054604051908152f35b503461000e57602036600319011261000e57600435612bf781614415565b801561242c57612c1f9061151a336001600160a01b031660005261017e602052604060002090565b336001600160a01b03612c3983546001600160a01b031690565b1603612036576006018054600260ff8260101c16612c5681612e37565b14908115612cb8575b5061240157805461ff0019166101001790557f855f5f4ea7c8c6a92f173fbc35c24d01139c2a49e9bcc085f03620cb6a1c65139061212390612ca181336153f5565b604080519182526001602083015290918291820190565b60ff915060081c16612cc981612e37565b151538612c5f565b503461000e57604036600319011261000e576020612a14600435612cf481610798565b6001600160a01b03612d046126f1565b911660005261016b835260406000209060ff16600052602052604060002090565b503461000e57602036600319011261000e576001600160a01b03600435612d4b81610798565b1660005261017f6020526020604060002054604051908152f35b503461000e57600036600319011261000e57602061016854604051908152f35b503461000e57602036600319011261000e576020612da4600435614415565b604051908152f35b503461000e57602036600319011261000e5761069e612dcc600435614206565b60405191829160208352602083019061060b565b503461000e57600036600319011261000e57612e0360ff60005460081c16614b07565b60fb805460ff19169055005b6000915b60038310612e2057505050565b600190825181526020809101920192019190612e13565b60031115612e4157565b634e487b7160e01b600052602160045260246000fd5b90612e6182612e37565b52565b6109db909291926101406101608201946001600160a01b038151168352612e9b602082015160208501906001600160a01b03169052565b60408181015165ffffffffffff169084015260608181015165ffffffffffff1690840152612ed160808201516080850190612e0f565b60a081015160e084015260c081015190612ef2610100928386019015159052565b612f0560e0820151610120860190612e57565b0151910190612e57565b503461000e57604036600319011261000e5761069e612fa5612fa0600435612f3681610798565b61151a60243591604051612f498161093b565b610100600091828152826020820152826040820152826060820152604051612f7081610974565b606036823760808201528260a08201528260c08201528260e0820152015282151580612fb1575b6113fb90615045565b614f9e565b60405191829182612e64565b506113fb612fd3826001600160a01b031660005261017f602052604060002090565b548411159050612f97565b94919897969360e096939161010087019a6001600160a01b03809216885216602087015265ffffffffffff80921660408701521660608501526080840152151560a083015261302c81612e37565b60c082015261303a83612e37565b0152565b503461000e57602036600319011261000e5760043560005261017160205260406000206001600160a01b0361069e81835416600184015490600660058601549501549060405195869560ff8460101c169460ff808660081c169516938160d01c9265ffffffffffff8360a01c1692169089612fde565b503461000e57604036600319011261000e576004356130d281610798565b6001600160a01b0380911660005261017e602052604060002060243560005260205260406000209061069e81835416600184015490600660058601549501549060405195869560ff8460101c169460ff808660081c169516938160d01c9265ffffffffffff8360a01c1692169089612fde565b906003821015613161575b6006600580840461016d0193060290565b613169611b28565b613150565b503461000e57602036600319011261000e57600435600381101561000e578065ffffffffffff60056020930461016d01546006600560405194060260031b1c168152f35b503461000e57600036600319011261000e57602065ffffffffffff6101665416604051908152f35b503461000e57602060ff61321e6001600160a01b036131f83661117a565b9116600052606a84526040600020906001600160a01b0316600052602052604060002090565b54166040519015158152f35b503461000e57600036600319011261000e57602061016754604051908152f35b50606036600319011261000e57600480359061326582610798565b602435613270612701565b92733eaA9D9c9BE8C558DF532dFfB15c699Ec9140485916132a8610846836001600160a01b0316600052610163602052604060002090565b93833b1561000e5785936040958651809263f39ce06360e01b825281806132ec8860009d8e978a850160ff6040929594936060830196151583521660208201520152565b03915af480156135c8575b6135b5575b506001600160a01b038316801580158061354f575b61353f571561349857508134036134405750612fa061167e939261343a9261335f88808061334b6115ef610162546001600160a01b031690565b858c51915af16133596140cc565b50614eef565b61342361341b61336d614f3b565b968361337c60ff83168a6145fc565b526134096133ee610172549961339a6133948c614881565b61017255565b8a6133b9336001600160a01b031660005261017e602052604060002090565b91896133d96133c788613145565b905465ffffffffffff9160031b1c1690565b916133e660fb5460ff1690565b943390615d1d565b956001600160a01b031660005261016e602052604060002090565b9060ff16600052602052604060002090565b9182546144e6565b905533600090815261017e6020526040902061151a565b90615c15565b611a33908551918291631fff1b3b60e21b8352820160809060208152602260208201527f496e636f7272656374206e617469766520636f696e207374616b6520616d6f756040820152611b9d60f21b60608201520190565b92826134fe602061343a9561167e9897612fa0968c6134c36115ef610162546001600160a01b031690565b8d516323b872dd60e01b8152339381019384526001600160a01b03909116602084015260408301949094529294859384929091839160600190565b03925af18015613532575b613514575b5061335f565b61352b9060203d8111610fc957610fba81836109ac565b503861350e565b61353a613977565b613509565b8651631e9acf1760e31b81528390fd5b5086516370a0823160e01b8152338482019081528591906020908290819083010381875afa9081156135a8575b8a9161358a575b5010613311565b6135a2915060203d811161128d5761127f81836109ac565b38613583565b6135b0613977565b61357c565b806118196135c292610927565b386132fc565b6135d0613977565b6132f7565b503461000e57602036600319011261000e576004356135f381610798565b6135fb6137f1565b6001600160a01b038116156136135761080590613849565b60405162461bcd60e51b815260206004820152602660248201527f4f776e61626c653a206e6577206f776e657220697320746865207a65726f206160448201526564647265737360d01b6064820152608490fd5b503461000e576136763661117a565b906001600160a01b03811660005261017e60205260408092816000206137346136b3856001600160a01b031660005261017f602052604060002090565b549261017354956136cd610161546001600160a01b031690565b86519788968796631842f08d60e31b88526004880194926101009491979692610120870198875260208701526101746040870152610180606087015261016e608087015260a08601526001600160a01b03928380921660c08701521660e085015216910152565b0381733eaA9D9c9BE8C558DF532dFfB15c699Ec91404855af4918215613796575b6000918293613771575b50519081526020810191909152604090f35b8161378e92945061069e93503d85116120225761201381836109ac565b92909161375f565b61379e613977565b613755565b503461000e57604036600319011261000e576001600160a01b036004356137c981610798565b1660005261018260205260406000206024356000526020526020604060002054604051908152f35b6001600160a01b0360c95416330361380557565b606460405162461bcd60e51b815260206004820152602060248201527f4f776e61626c653a2063616c6c6572206973206e6f7420746865206f776e65726044820152fd5b60c954906001600160a01b0380911691826001600160a01b031982161760c955167f8be0079c531659141344cd1fd0a4f28419497f9722a3daafe3b4186f6b6457e06000604051a3565b1561389a57565b60405162461bcd60e51b815260206004820152602c60248201527f46756e6374696f6e206d7573742062652063616c6c6564207468726f7567682060448201526b19195b1959d85d1958d85b1b60a21b6064820152608490fd5b156138fb57565b60405162461bcd60e51b815260206004820152602c60248201527f46756e6374696f6e206d7573742062652063616c6c6564207468726f7567682060448201526b6163746976652070726f787960a01b6064820152608490fd5b6040519061396282610958565b60008252565b9081602091031261000e575190565b506040513d6000823e3d90fd5b1561398b57565b60405162461bcd60e51b815260206004820152602960248201527f45524331393637557067726164653a20756e737570706f727465642070726f786044820152681a58589b195555525160ba1b6064820152608490fd5b803b15613a25576001600160a01b037f360894a13ba1a3210667c828492db98dca3e2076cc3735a920a3ca505d382bbc91166001600160a01b0319825416179055565b60405162461bcd60e51b815260206004820152602d60248201527f455243313936373a206e657720696d706c656d656e746174696f6e206973206e60448201526c1bdd08184818dbdb9d1c9858dd609a1b6064820152608490fd5b613a89816139e2565b604051906001600160a01b0381167fbc7cd75a20ee27fd9adebab32041f755214dbc6bffa90cc0225b39da2e5c2d3b600084a2825115801590613b34575b613ad057505050565b600080613b3194613ae085610974565b602785527f416464726573733a206c6f772d6c6576656c2064656c65676174652063616c6c6020860152660819985a5b195960ca1b6040860152602081519101845af4613b2b6140cc565b9161436d565b50565b506000613ac7565b613b45816139e2565b604051906001600160a01b0381167fbc7cd75a20ee27fd9adebab32041f755214dbc6bffa90cc0225b39da2e5c2d3b600084a2825115801590613b8b57613ad057505050565b506001613ac7565b15613b9a57565b60405162461bcd60e51b815260206004820152601860248201527f4552433732313a20696e76616c696420746f6b656e20494400000000000000006044820152606490fd5b60005260676020526001600160a01b0360406000205416610641811515613b93565b90600182811c92168015613c31575b6020831014613c1b57565b634e487b7160e01b600052602260045260246000fd5b91607f1691613c10565b15613c4257565b60405162461bcd60e51b815260206004820152603d60248201527f4552433732313a20617070726f76652063616c6c6572206973206e6f7420746f60448201527f6b656e206f776e6572206f7220617070726f76656420666f7220616c6c0000006064820152608490fd5b613cd5613cd08260005260676020526001600160a01b0360406000205416151590565b613b93565b60005260696020526001600160a01b036040600020541690565b15613cf657565b60405162461bcd60e51b815260206004820152602d60248201527f4552433732313a2063616c6c6572206973206e6f7420746f6b656e206f776e6560448201526c1c881bdc88185c1c1c9bdd9959609a1b6064820152608490fd5b90613d75939291613d656112ed8433613ddc565b613d70838383613eb7565b6140fc565b15613d7c57565b60405162461bcd60e51b815260206004820152603260248201527f4552433732313a207472616e7366657220746f206e6f6e20455243373231526560448201527131b2b4bb32b91034b6b83632b6b2b73a32b960711b6064820152608490fd5b6001600160a01b0380613dee84613bdf565b169281831692848414948515613e24575b50508315613e0e575b50505090565b613e1a91929350613cad565b1614388080613e08565b60ff92955090613e5391600052606a6020526040600020906001600160a01b0316600052602052604060002090565b5416923880613dff565b15613e6457565b60405162461bcd60e51b815260206004820152602560248201527f4552433732313a207472616e736665722066726f6d20696e636f72726563742060448201526437bbb732b960d91b6064820152608490fd5b90613edd9291613ec683613bdf565b6001600160a01b0382811695909182168614613e5d565b8216938415613fd1576109db9481613f028693613efc6115ef86613bdf565b14613e5d565b613f29613f19846000526069602052604060002090565b80546001600160a01b0319169055565b613f46846001600160a01b03166000526068602052604060002090565b6000198154019055613f6b856001600160a01b03166000526068602052604060002090565b60018154019055613fa585613f8a856000526067602052604060002090565b906001600160a01b03166001600160a01b0319825416179055565b7fddf252ad1be2c89b69c2b068fc378daa952ba7f163c4a11628f55a4df523b3ef6000604051a4615a8c565b60405162461bcd60e51b8152602060048201526024808201527f4552433732313a207472616e7366657220746f20746865207a65726f206164646044820152637265737360e01b6064820152608490fd5b600082815260696020526040902080546001600160a01b0319166001600160a01b0383161790556001600160a01b038061405b84613bdf565b169116907f8c5be1e5ebec7d5bd14f71427d1e84f3dd0314c0f7b2291e5b200ac8c7c3b9256000604051a4565b9081602091031261000e575161064181610530565b909261064194936080936001600160a01b0380921684521660208301526040820152816060820152019061060b565b3d156140f7573d906140dd826109ea565b916140eb60405193846109ac565b82523d6000602084013e565b606090565b92909190823b156141fd576141379260209260006001600160a01b03604051809781968295630a85bd0160e11b9b8c8552336004860161409d565b0393165af1600091816141cd575b506141bf576141526140cc565b805190816141ba5760405162461bcd60e51b815260206004820152603260248201527f4552433732313a207472616e7366657220746f206e6f6e20455243373231526560448201527131b2b4bb32b91034b6b83632b6b2b73a32b960711b6064820152608490fd5b602001fd5b6001600160e01b0319161490565b6141ef91925060203d81116141f6575b6141e781836109ac565b810190614088565b9038614145565b503d6141dd565b50505050600190565b614229613cd08260005260676020526001600160a01b0360406000205416151590565b600090808252602060978152604083206040518481959083549061424c82613c01565b8085529460019280841690811561430857506001146142cc575b505050614275925003846109ac565b61427d613955565b928351156142c55780516142975750506106419150614328565b61064192506142b7906142b16040519586948501906110d4565b906110d4565b03601f1981018352826109ac565b9250505090565b869350819291528282205b8583106142f05750506142759350820101388080614266565b8054838a0185015288945086939092019181016142d7565b965050505050505060ff1916818401526142758360408101388080614266565b613cd061434b9160005260676020526001600160a01b0360406000205416151590565b600060405161435981610958565b5260405161436681610958565b6000815290565b919290156143cf5750815115614381575090565b3b1561438a5790565b60405162461bcd60e51b815260206004820152601d60248201527f416464726573733a2063616c6c20746f206e6f6e2d636f6e74726163740000006044820152606490fd5b8251909150156143e25750805190602001fd5b60405162461bcd60e51b8152908190611a339060048301610630565b50634e487b7160e01b600052601260045260246000fd5b600052610181602052604060002060405161442f816108fe565b6001600160a01b038254168152600182015490606060ff600360208401958587526002810154604086015201541615159101521561242c575190565b1561447257565b60405162461bcd60e51b815260206004820152601b60248201527f4d6967726174696f6e20616c726561647920636f6d706c6574656400000000006044820152606490fd5b50634e487b7160e01b600052601160045260246000fd5b60019060011981116144de570190565b6110e76144b7565b811981116144de570190565b9081602091031261000e575161064181610751565b6040519061451482610990565b600582526430b236b4b760d91b6020830152565b1561452f57565b60405162461bcd60e51b815260206004820152600e60248201527f4e6f7420617574686f72697a65640000000000000000000000000000000000006044820152606490fd5b61457f611078614507565b606460ff6145a761459a82855116836020870151169061461b565b826040860151169061461b565b16036145b6576109db90614667565b604051631fff1b3b60e21b815260206004820152601260248201527f4d7573742073756d20757020746f2031303000000000000000000000000000006044820152606490fd5b90600381101561460e575b60051b0190565b614616611b28565b614607565b60ff8091169116908160ff0381116144de570190565b8060001904821181151516614644570290565b61464c6144b7565b0290565b81811061465b575050565b60008155600101614650565b9061016f60009081935b6003808610156146c4579060209160ff908183511691868654921b90811b9283911b169119161783550193600180930192601f84116146b5575b5060010193614671565b600093509091019060016146ab565b505050509050565b156146d357565b60405162461bcd60e51b815260206004820152602e60248201527f496e697469616c697a61626c653a20636f6e747261637420697320616c72656160448201527f647920696e697469616c697a65640000000000000000000000000000000000006064820152608490fd5b1561474557565b60405162461bcd60e51b815260206004820152600f60248201527f496e76616c6964206164647265737300000000000000000000000000000000006044820152606490fd5b610165805490680100000000000000008210156147f3575b600182018082558210156147e6575b6000527fd91ca5e44fa96a1732bfaed7fe33fc20ed69a9895cde1f18c7dcabca39d6a78b0180546001600160a01b0319169055565b6147ee611b28565b6147b1565b6147fb6108e7565b6147a2565b6001600160a01b0361016580549068010000000000000000821015614874575b60018201808255821015614867575b6000527fd91ca5e44fa96a1732bfaed7fe33fc20ed69a9895cde1f18c7dcabca39d6a78b0191166001600160a01b0319825416179055565b61486f611b28565b61482f565b61487c6108e7565b614820565b60019060001981146144de570190565b9061016d600080935b6003808610156146c4578160209162ffffff600694511690858754911b65ffffffffffff811b9283911b1691191617855501910193601a85116148e2575b600101939061489a565b600094506001909201916148d8565b604051906148fe82610990565b601382527f457363726f77656420417373657420426f6e64000000000000000000000000006020830152565b6040519061493782610990565b600382526222a0a160e91b6020830152565b614a0e906149ab614a40936149716001600160a01b0380851615159081614afb575b5061473e565b61016180546001600160a01b0319166001600160a01b0385161790556001600160a01b0361016291166001600160a01b0319825416179055565b6149b6600161017255565b600080526101636020526149f27f323947e965fafc5a11fbcfc7a37a72d1b12094b96c7e62e08b97c054e8e6b0a75b805460ff19166001179055565b6149fa61478a565b614a3a61016791614a14614a0e8454614881565b61016755565b614a356149e5826001600160a01b0316600052610163602052604060002090565b614800565b54614881565b610166805465ffffffffffff1916630114db00179055614a7e614a616109dd565b62093a8081526224ea006020820152626ebe006040820152614891565b614aa0614a896109dd565b60148152601e602082015260326040820152614667565b610183805460ff19169055614aca614ab6614ec7565b805467ffffffffffffffff19166001179055565b614ae3614ad56148f1565b614add61492a565b90614b9b565b614aeb614b67565b614af3615f9c565b6109db614b8a565b9050821615153861496b565b15614b0e57565b60405162461bcd60e51b815260206004820152602b60248201527f496e697469616c697a61626c653a20636f6e7472616374206973206e6f74206960448201526a6e697469616c697a696e6760a81b6064820152608490fd5b614b8160ff60005460081c16614b7c81614b07565b614b07565b6109db33613849565b6109db60ff60005460081c16614b07565b90614bb160ff60005460081c16614b7c81614b07565b815167ffffffffffffffff8111614cac575b614bd781614bd2606554613c01565b614cb9565b602080601f8311600114614c19575081906109db94600092614c0e575b50508160011b916000199060031b1c191617606555614daa565b015190503880614bf4565b919293601f198416614c4d60656000527f8ff97419363ffd7000167f130ef7168fbea05faf9251824ca5043f113cc6a7c790565b936000905b828210614c945750509160019391856109db97969410614c7b575b505050811b01606555614daa565b015160001960f88460031b161c19169055388080614c6d565b80600186978294978701518155019601940190614c52565b614cb46108e7565b614bc3565b90601f8211614cc6575050565b6109db9160656000527f8ff97419363ffd7000167f130ef7168fbea05faf9251824ca5043f113cc6a7c7906020601f840160051c83019310614d10575b601f0160051c0190614650565b9091508190614d03565b90601f8211614d27575050565b6109db9160666000527f46501879b8ca8525e8c2fd519e2fbfcfa2ebea26501294aa02cbfcfb12e94354906020601f840160051c83019310614d1057601f0160051c0190614650565b9190601f8111614d7f57505050565b6109db926000526020600020906020601f840160051c83019310614d1057601f0160051c0190614650565b90815167ffffffffffffffff8111614e95575b614dd181614dcc606654613c01565b614d1a565b602080601f8311600114614e0d5750819293600092614e02575b50508160011b916000199060031b1c191617606655565b015190503880614deb565b90601f19831694614e4060666000527f46501879b8ca8525e8c2fd519e2fbfcfa2ebea26501294aa02cbfcfb12e9435490565b926000905b878210614e7d575050836001959610614e64575b505050811b01606655565b015160001960f88460031b161c19169055388080614e59565b80600185968294968601518155019501930190614e45565b614e9d6108e7565b614dbd565b6005906002811015614eba575b026101740190600090565b614ec2611b28565b614eaf565b6005600161017354166002811015614ee2575b026101740190565b614eea611b28565b614eda565b15614ef657565b60405162461bcd60e51b815260206004820152601f60248201527f4661696c656420746f207472616e73666572206e617469766520746f6b656e006044820152606490fd5b60405190614f4882610974565b6060368337565b60405191906000835b60038210614f7f575050506060820182811067ffffffffffffffff82111761091a57604052565b6001602081928554815201930191019091614f58565b612e6182612e37565b906109db60ff6006614fae6109ce565b94614fd0614fc382546001600160a01b031690565b6001600160a01b03168752565b60018101546001600160a01b038116602088015265ffffffffffff60a082901c16604088015260d01c606087015261500a60028201614f4f565b6080870152600581015460a08701520154818116151560c0860152615037828260081c1660e08701614f95565b60101c166101008401614f95565b1561504c57565b60405162461bcd60e51b815260206004820152601360248201527f496e76616c6964207374616b6520696e646578000000000000000000000000006044820152606490fd5b9061509b81612e37565b62ff000082549160101b169062ff00001916179055565b9081526040810192919060209061303a83612e37565b919082604091031261000e576020825192015190565b9081606091031261000e578051916040602083015192015167ffffffffffffffff8116810361000e5790565b9190615114614f3b565b60005b60ff908181166003811015615171579060019161516961516261515b61515561514f61514287611b3f565b905460ff9160031b1c1690565b60ff1690565b89614631565b6064900490565b91866145fc565b520116615117565b5050506109db92939150612fa061343a9161151a610172549461519661339487614881565b6113fb6151b7826001600160a01b031660005261017e602052604060002090565b936152036151f5610161968a6151d489546001600160a01b031690565b6101665465ffffffffffff169086896151ef60fb5460ff1690565b95615eaf565b95546001600160a01b031690565b615cc2565b733eaA9D9c9BE8C558DF532dFfB15c699Ec914048560005b61016554811015615383576152416115ef610162546001600160a01b031690565b61524d611c548361277c565b60408051630530fa2160e01b81526004808201839052600360448301526206966760ec1b60648301526001600160a01b03939093166024820152602093909184918290849060849082905afa928315615376575b600093615355575b506152eb92936152bb611c548861277c565b9151938492839263c78ea24360e01b8452830191909160206001600160a01b03604083019461016e845216910152565b0381885af4928315615348575b600093615329575b50501515908161531f575b5061531857600101615220565b5050600190565b905015153861530b565b615340929350803d1061128d5761127f81836109ac565b903880615300565b615350613977565b6152f8565b6152eb935061537090833d851161128d5761127f81836109ac565b926152a9565b61537e613977565b6152a1565b5050600090565b9061539481612e37565b61ff0082549160081b169061ff001916179055565b156153b057565b60405162461bcd60e51b815260206004820152601c60248201527f4552433732313a20746f6b656e20616c7265616479206d696e746564000000006044820152606490fd5b6001600160a01b0381169081156154b85761548e9061543361542d8560005260676020526001600160a01b0360406000205416151590565b156153a9565b61545661542d8560005260676020526001600160a01b0360406000205416151590565b615473816001600160a01b03166000526068602052604060002090565b60018154019055613f8a846000526067602052604060002090565b60007fddf252ad1be2c89b69c2b068fc378daa952ba7f163c4a11628f55a4df523b3ef81604051a4565b606460405162461bcd60e51b815260206004820152602060248201527f4552433732313a206d696e7420746f20746865207a65726f20616464726573736044820152fd5b919082608091031261000e578151916020810151916060604083015161552181610798565b92015161064181610751565b6106419054613c01565b6155418154613c01565b908161554b575050565b81601f6000931160011461555d575055565b8183526020832061557991601f0160051c810190600101614650565b8160208120915555565b61558c81613bdf565b5061559681613bdf565b6000908282526069602052604082206001600160a01b0319908181541690556001600160a01b0382169081845260686020526040842060001981540190558484526067602052604084209081541690558383827fddf252ad1be2c89b69c2b068fc378daa952ba7f163c4a11628f55a4df523b3ef82604051a41515806157e2575b61565d575b505061563a615635826000526097602052604060002090565b61552d565b6156415750565b6156586109db916000526097602052604060002090565b615537565b61566683614415565b80615672575b5061561c565b808461569c612fa06156a59461151a876001600160a01b031660005261017e602052604060002090565b93858552615898565b6000805261017f6020526157176156dd7fa2a74be8737789e1b491023d6483d91a9d3c196df9599950c1fc49ad33ffdfdc5b546144ce565b6000805261017e60205291615712837f8cd5e9a73569cd280e98c425b388ae35bbb8e308c8dc2797457d1c0a89aeeb4f61151a565b615966565b733eaA9D9c9BE8C558DF532dFfB15c699Ec9140485803b156157de5760405163093c769560e21b81526101816004820152610182602482015260448101859052600060648201526084810192909252909190829060a49082905af480156157d1575b6157be575b506000805261017f6020527fa2a74be8737789e1b491023d6483d91a9d3c196df9599950c1fc49ad33ffdfdc6157b48154614881565b905538808061566c565b806118196157cb92610927565b3861577e565b6157d9613977565b615779565b8280fd5b5081615617565b906001600160a01b03908183168060005261016360205261581361132c604060002060ff90541690565b615863575b61016554939260005b60ff9086828216101561585457838361583c611c548461277c565b161461584b5760010116615821565b50505050915050565b5050505091506109db90614800565b615872614a0e61016754614881565b6158936149e5856001600160a01b0316600052610163602052604060002090565b615818565b90916001600160a01b03733eaA9D9c9BE8C558DF532dFfB15c699Ec91404859216908160005261017e6020526040600020833b1561000e5760009360e492604051968795869463f97681bd60e01b865260048601526101816024860152610182604486015261017f6064860152608485015260a484015260c48301525af48015615931575b6159245750565b806118196109db92610927565b615939613977565b61591d565b906000905b6003821061595057505050565b6001602082829351865501930191019091615943565b9061010060066109db936159a061598485516001600160a01b031690565b82546001600160a01b0319166001600160a01b03909116178255565b615a25600182016159be61598460208801516001600160a01b031690565b6159f86159d4604088015165ffffffffffff1690565b825465ffffffffffff60a01b191660a09190911b65ffffffffffff60a01b16178255565b606086015165ffffffffffff1681546001600160d01b031660d09190911b6001600160d01b031916179055565b615a3660808501516002830161593e565b60a084015160058201550191615a64615a5260c0830151151590565b849060ff801983541691151516179055565b615a7b60e0820151615a7581612e37565b8461538a565b015190615a8782612e37565b615091565b916001600160a01b0380841615159081615c09575b50615aab57505050565b615ab481614415565b80615ac0575b50505050565b8082615aea612fa0615afc9461151a896001600160a01b031660005261017e602052604060002090565b6001600160a01b038616815295615898565b615b43615b206156d7846001600160a01b031660005261017f602052604060002090565b936157128561151a866001600160a01b031660005261017e602052604060002090565b733eaA9D9c9BE8C558DF532dFfB15c699Ec914048590813b1561000e5760405163093c769560e21b81526101816004820152610182602482015260448101919091526001600160a01b03831660648201526084810193909352615bd49290600090829060a49082905af48015615bfc575b615be9575b506001600160a01b031660005261017f602052604060002090565b615bde8154614881565b905538808080615aba565b80611819615bf692610927565b38615bb9565b615c04613977565b615bb4565b90508216151538615aa1565b906001600160a01b03908181511691602090818301511665ffffffffffff80604085015116906060850151169160c060808601519501511515956040519788528488015260408701526060860152608085015260a084016000905b60038210615cad575050505015156101008201527fbbad5407299f3773930327d215f85a16617efbbddc1fe3902bd39ba46feacf269061012090a1565b82806001928651815201940191019092615c70565b91600092835b60ff90818116600381101561584b5790615ce4600192876145fc565b516001600160a01b038516885261016e602052615d1461341b8360408b209060ff16600052602052604060002090565b90550116615cc8565b9395600690615e566106419794615e4d615e789597615d50896001600160a01b031660005261017f602052604060002090565b548019600111615ea2575b6001019b8c9a615d7f8b6001600160a01b031660005261017f602052604060002090565b615d898154614881565b90558b6000526020528960406000209665ffffffffffff928391615dc6834216948b906001600160a01b03166001600160a01b0319825416179055565b615dea60018b019687906001600160a01b03166001600160a01b0319825416179055565b855465ffffffffffff60a01b191660a085901b65ffffffffffff60a01b1617865515615e97578161ffff6103f05b16918215615e8a575b1604168092038111615e7d575b82546001600160d01b0316910160d01b6001600160d01b031916179055565b6002830161593e565b6000600582015501805460ff191681555b805462ffff00191662010000179055565b615efa565b615e856144b7565b615e2e565b615e926143fe565b615e21565b8161ffff6001615e18565b615eaa6144b7565b615d5b565b9395600690615ee26106419794615e4d615e789597615d50896001600160a01b031660005261017f602052604060002090565b6000600582015501805460ff19166001178155615e67565b91906040918251615f0a816108fe565b615f876001600160a01b0380941691828152600360208201858152878301898152606084019160018352615f656000998c8b526101816020528b8b2096511686906001600160a01b03166001600160a01b0319825416179055565b51600185015551600284015551151591019060ff801983541691151516179055565b82526101826020528282209082526020522055565b615fad60ff60005460081c16614b07565b60ff1960fb541660fb5556fea26469706673582212200bdb5f9fd2de7dad86c38b17a383c448b343438cf5a8fedc582686272808064264736f6c634300080e0033",
  "deployedBytecode": "0x60806040526004361015610013575b600080fd5b60003560e01c806301ffc9a71461052757806306fdde031461051e578063081812fc1461051557806308ed8d161461050c578063095ea7b314610503578063125cc42f146104fa578063162094c4146104f1578063166866c7146104e8578063193cf2bf146104df5780631dbd2086146104d65780631e83409a146104cd5780631fecb71a146104c4578063217fe6c6146104bb5780632372b28a146104b257806323b872dd146104a9578063273d87e2146104a05780632e17de78146104975780633431d6311461048e5780633659cfe614610485578063396b62471461047c57806339d2525f146104735780633c661b8b1461046a5780633de15c121461046157806342842e0e14610458578063485cc9551461044f5780634f1ef28614610446578063528a9e4d1461043d57806352d1902d146104345780635413aa3b1461042b5780636352211e1461042257806370a0823114610419578063715018a61461041057806372a4db4a146104075780637547c7a3146103fe57806375506c96146103f557806378fecc99146103ec57806382952200146103e3578063848778b4146103da5780638d03b102146103d15780638da5cb5b146103c857806395d89b41146103bf5780639db5fa65146103b6578063a22cb465146103ad578063a59a9973146103a4578063b5bc85341461039b578063b88d4fde14610392578063ba5e4bad14610389578063bad7edab14610380578063bf02155014610377578063c1592dbc1461036e578063c436e31814610365578063c51046a31461035c578063c87b56dd14610353578063d2438c2a1461034a578063d495caaa14610341578063d5a44f8614610338578063d909087e1461032f578063de3e3eff14610326578063e25b7d821461031d578063e985e9c514610314578063ef7bd7f31461030b578063f19ed6be14610302578063f2fde38b146102f9578063f56f4f0f146102f05763fe863ac1146102e857600080fd5b61000e6137a3565b5061000e613667565b5061000e6135d5565b5061000e61324a565b5061000e61322a565b5061000e6131da565b5061000e6131b2565b5061000e61316e565b5061000e6130b4565b5061000e61303e565b5061000e612f0f565b5061000e612de0565b5061000e612dac565b5061000e612d85565b5061000e612d65565b5061000e612d25565b5061000e612cd1565b5061000e612bd9565b5061000e612bb9565b5061000e612b61565b5061000e612b3c565b5061000e612b13565b5061000e612a1d565b5061000e6129c0565b5061000e612918565b5061000e6128f0565b5061000e6128cc565b5061000e61288c565b5061000e612863565b5061000e61283d565b5061000e61281d565b5061000e6127c1565b5061000e61271f565b5061000e612691565b5061000e6125eb565b5061000e6125cc565b5061000e612516565b5061000e61243e565b5061000e612309565b5061000e61216f565b5061000e612070565b5061000e612047565b5061000e611ba2565b5061000e611b66565b5061000e611a8a565b5061000e611a6a565b5061000e6118d7565b5061000e611895565b5061000e6114d0565b5061000e6112f7565b5061000e6112cd565b5061000e61119f565b5061000e6110eb565b5061000e61104c565b5061000e610e21565b5061000e610e04565b5061000e610d49565b5061000e610c75565b5061000e610a5c565b5061000e6108a2565b5061000e6107a9565b5061000e61075b565b5061000e610721565b5061000e610644565b5061000e610542565b6001600160e01b031981160361000e57565b503461000e57602036600319011261000e57602060043561056281610530565b63ffffffff60e01b16632483248360e11b8114908115610588575b506040519015158152f35b6380ac58cd60e01b8114915081156105ba575b81156105a9575b503861057d565b6301ffc9a760e01b149050386105a2565b635b5e139f60e01b8114915061059b565b600091031261000e57565b918091926000905b8282106105f65750116105ef575050565b6000910152565b915080602091830151818601520182916105de565b90602091610624815180928185528580860191016105d6565b601f01601f1916010190565b90602061064192818152019061060b565b90565b503461000e5760008060031936011261071e57604051908060655461066881613c01565b808552916001918083169081156106fd57506001146106a2575b61069e85610692818703826109ac565b60405191829182610630565b0390f35b9250606583527f8ff97419363ffd7000167f130ef7168fbea05faf9251824ca5043f113cc6a7c75b8284106106e55750505081016020016106928261069e610682565b805460208587018101919091529093019281016106ca565b60ff191660208701525050604084019250610692915083905061069e610682565b80fd5b503461000e57602036600319011261000e576020610740600435613cad565b6001600160a01b0360405191168152f35b8015150361000e57565b503461000e57602036600319011261000e5760043561077981610751565b6107816137f1565b60ff801960fb5416911515161760fb556000604051f35b6001600160a01b0381160361000e57565b503461000e57604036600319011261000e576004356107c781610798565b6024356107d381613bdf565b916001600160a01b0380841680918316146108535761080593610800913314908115610807575b50613c3b565b614022565b005b61084d91506108469061082e33916001600160a01b0316600052606a602052604060002090565b906001600160a01b0316600052602052604060002090565b5460ff1690565b386107fa565b60405162461bcd60e51b815260206004820152602160248201527f4552433732313a20617070726f76616c20746f2063757272656e74206f776e656044820152603960f91b6064820152608490fd5b503461000e57602036600319011261000e576001600160a01b036004356108c881610798565b16600052610163602052602060ff604060002054166040519015158152f35b50634e487b7160e01b600052604160045260246000fd5b6080810190811067ffffffffffffffff82111761091a57604052565b6109226108e7565b604052565b67ffffffffffffffff811161091a57604052565b610120810190811067ffffffffffffffff82111761091a57604052565b6020810190811067ffffffffffffffff82111761091a57604052565b6060810190811067ffffffffffffffff82111761091a57604052565b6040810190811067ffffffffffffffff82111761091a57604052565b90601f8019910116810190811067ffffffffffffffff82111761091a57604052565b604051906109db8261093b565b565b604051906109db82610974565b60209067ffffffffffffffff8111610a08575b601f01601f19160190565b610a106108e7565b6109fd565b81601f8201121561000e57803590610a2c826109ea565b92610a3a60405194856109ac565b8284526020838301011161000e57816000926020809301838601378301015290565b503461000e57604036600319011261000e5760043567ffffffffffffffff60243581811161000e57610a92903690600401610a15565b91610a9b6137f1565b610abb8160005260676020526001600160a01b0360406000205416151590565b15610c0a576000918183526020906097825260408420918551918211610bfd575b610af082610aea8554613c01565b85614d70565b80601f8311600114610b6757509080610b5494939286977ff8e1a15aba9398e019f0b49df1a4fde98ee17ae345cb5f6b5e2c27f5033e8ce79792610b5c575b50508160011b916000199060031b1c19161790555b6040519081529081906020820190565b0390a1604051f35b015190503880610b2f565b90601f19831696610b7d85600052602060002090565b9287905b898210610be5575050918391600193610b549796957ff8e1a15aba9398e019f0b49df1a4fde98ee17ae345cb5f6b5e2c27f5033e8ce7999a10610bcc575b505050811b019055610b44565b015160001960f88460031b161c19169055388080610bbf565b80600185968294968601518155019501930190610b81565b610c056108e7565b610adc565b60405162461bcd60e51b815260206004820152602e60248201527f45524337323155524953746f726167653a2055524920736574206f66206e6f6e60448201527f6578697374656e7420746f6b656e0000000000000000000000000000000000006064820152608490fd5b503461000e5760208060031936011261000e57600435610c9481610798565b610c9c614507565b90610cc06001600160a01b0392848460c954163314918215610d0e575b5050614528565b1690816000526101639182825260ff60406000205416610cdc57005b61016780548015610d01575b60001901905560005252604060002060ff198154169055005b610d096144b7565b610ce8565b60ff925090610d37913360005260fc8252604060002082604051948386809551938492016105d6565b82019081520301902054168438610cb9565b503461000e57602036600319011261000e5761069e60408060608151610d6e816108fe565b6000918183809352826020820152828582015201526004358152610181602052209060ff6003825193610da0856108fe565b6001600160a01b0381541685526001810154602086015260028101548486015201541615156060830152519182918291909160608060808301946001600160a01b038151168452602081015160208501526040810151604085015201511515910152565b503461000e57600036600319011261000e57602060405160028152f35b503461000e57602036600319011261000e57600435610e3f81610798565b806060610e4a614ec7565b33600090815261017e6020908152604080832061017f909252909120610ede905491610e7f610161546001600160a01b031690565b60405163133389bb60e21b8152600481019290925261016e60248301526044820193909352610180606482015260848101939093526001600160a01b0395861660a4840152941660c48201523360e48201529283908190610104820190565b038173__$f048dbd5170c0ac319fa0222065b281d84$__5af4801561103f575b60009182938392610fdd575b50906001600160a01b037f2816e76094fb835139144d9b24450a1cc4f456e70254b15b583551617f42910792610f40853361510a565b60405163a9059cbb60e01b8152336004820152602481018790529116949060208160448160008a5af18015610fd0575b610fa2575b5060408051948552602085019190915267ffffffffffffffff90911690830152339180606081015b0390a3005b610fc29060203d8111610fc9575b610fba81836109ac565b8101906144f2565b5038610f75565b503d610fb0565b610fd8613977565b610f70565b61102c9194506001600160a01b0393507f2816e76094fb835139144d9b24450a1cc4f456e70254b15b583551617f429107925060603d8111611038575b61102481836109ac565b8101906150de565b94919390949250610f0a565b503d61101a565b611047613977565b610efe565b503461000e57602036600319011261000e5761080560043561106d81610798565b611094611078614507565b6001600160a01b0360c954163314908115611099575b50614528565b6157e9565b60ff915060206110c3913360005260fc8252604060002082604051948386809551938492016105d6565b82019081520301902054163861108e565b906110e7602092828151948592016105d6565b0190565b503461000e57604036600319011261000e5760043561110981610798565b60243567ffffffffffffffff811161000e5761115d602061069e936001600160a01b0361113c60ff953690600401610a15565b911660005260fc8252604060002082604051948386809551938492016105d6565b820190815203019020546040519116151581529081906020820190565b604090600319011261000e5760043561119281610798565b9060243561064181610798565b503461000e5761069e6001600160a01b036111b93661117a565b911660005261017e6020526020604060002061017f82526040600020549061122c6111ed610161546001600160a01b031690565b6040519586948594634f47984960e11b865260048601929094936060926080850196855260208501526001600160a01b03809216604085015216910152565b038173__$f048dbd5170c0ac319fa0222065b281d84$__5af4908115611294575b600091611266575b506040519081529081906020820190565b611287915060203d811161128d575b61127f81836109ac565b810190613968565b38611255565b503d611275565b61129c613977565b61124d565b606090600319011261000e576004356112b981610798565b906024356112c681610798565b9060443590565b503461000e576108056112df366112a1565b916112f26112ed8433613ddc565b613cef565b613eb7565b503461000e5760408060031936011261000e57600480356024356113196137f1565b61133561133061132c6101835460ff1690565b1590565b61446b565b61133f81836144e6565b6101729182548092116000146114bf5750925b73__$f048dbd5170c0ac319fa0222065b281d84$__835b8581106113cc576000877f2a3aeb194c33f592b722a8f82cf9c3310794dcc211135c216cc284aea0353b5e888888548210156113b9575b8351908152602081019190915280604081015b0390a151f35b610183805460ff191660011790556113a0565b808061147b6114156113fb6113ee600196600052610171602052604060002090565b546001600160a01b031690565b6001600160a01b031660005261017e602052604060002090565b610161546001600160a01b03168b518093819263705dd6e760e11b835260209687958c85019160c09194936001600160a01b039160e08501966101718652602086015261017f60408601526101816060860152610182608086015260a085015216910152565b0381885af480156114b2575b611494575b505001611369565b816114aa92903d10610fc957610fba81836109ac565b50388061148c565b6114ba613977565b611487565b6114ca9150836144e6565b92611352565b503461000e5760208060031936011261000e5760048035916114f183614415565b908115611884576115298261151a336001600160a01b031660005261017e602052604060002090565b90600052602052604060002090565b9061159c73__$f048dbd5170c0ac319fa0222065b281d84$__946101619361155885546001600160a01b031690565b6040805163766757b960e11b815284810184815261016e60208201526001600160a01b03909316838301523360608401529098909490916080918691829190840190565b0381845af4958615611877575b600091829383968499611832575b506006015460ff165b1561178a575091600086611625829c9896946115fb6115ef6115ef61167e9e9d9b99546001600160a01b031690565b6001600160a01b031690565b8d5163a9059cbb60e01b815233888201908152602081019390935294859391928492839160400190565b03925af1801561177d575b611760575b505b806116eb575b50508651848152600260208201527fab7e44c17ad2a7b4de0e42ab0bc824366a946f184a1133f0b5528347e4ccbd29925060409150a1611681575b33615898565b51f35b6116a18160005260676020526001600160a01b0360406000205416151590565b6116dd575b8351818152600260208201527f855f5f4ea7c8c6a92f173fbc35c24d01139c2a49e9bcc085f03620cb6a1c651390604090a1611678565b6116e681615583565b6116a6565b885163a9059cbb60e01b81523392810192835260208301919091529183918391908290036040019082908c906001600160a01b03165af18015611753575b611735575b808061163d565b8161174b92903d10610fc957610fba81836109ac565b50388061172e565b61175b613977565b611729565b61177690853d8711610fc957610fba81836109ac565b5038611635565b611785613977565b611630565b999593919796949290506117a7610162546001600160a01b031690565b99803b1561000e5789516331fd8e6560e01b81526001600160a01b039b8c168482019081529b851660208d01523360408d015260608c019990995260009a61167e99918c918391908290819060800103915af48015611825575b61180c575b50611637565b8061181961181f92610927565b806105cb565b38611806565b61182d613977565b611801565b9098506118609196506115c094506006935060803d8111611870575b61185881836109ac565b8101906154fc565b99909791955091939091906115b7565b503d61184e565b61187f613977565b6115a9565b604051638c877d2160e01b81528390fd5b503461000e57602036600319011261000e576004356118b381610751565b6118be611078614507565b6101839060ff8019835416911515161790556000604051f35b503461000e57602036600319011261000e576004356118f581610798565b6001600160a01b0390817f0000000000000000000000000000000000000000000000000000000000000000169161192e83301415613893565b61195d7f360894a13ba1a3210667c828492db98dca3e2076cc3735a920a3ca505d382bbc9382855416146138f4565b6119656137f1565b6040519061197282610958565b600082527f4910fdfa16fed3260ed0e7147f7cc6da11a60208b5b9406d12a635614ffd91435460ff16156119ac57505061080591506139e2565b6020600491604094939451928380926352d1902d60e01b825286165afa60009181611a4a575b50611a375760405162461bcd60e51b815260206004820152602e60248201527f45524331393637557067726164653a206e657720696d706c656d656e7461746960448201526d6f6e206973206e6f74205555505360901b6064820152608490fd5b0390fd5b61080593611a459114613984565b613a80565b611a6391925060203d811161128d5761127f81836109ac565b90386119d2565b503461000e57600036600319011261000e57602061017354604051908152f35b503461000e57606036600319011261000e57600435611aa881610798565b6024359067ffffffffffffffff821161000e57611b0e6020611ad1610805943690600401610a15565b6001600160a01b0360443594611ae686610751565b611aee6137f1565b1660005260fc8252604060002082604051948386809551938492016105d6565b8201908152030190209060ff801983541691151516179055565b50634e487b7160e01b600052603260045260246000fd5b906003821015611b59575b601f8260051c61016f01921690565b611b61611b28565b611b4a565b503461000e57602036600319011261000e57600435600381101561000e578060ff60209260051c61016f015460f86040519360031b161c168152f35b503461000e5760208060031936011261000e57611bcb6115ef610161546001600160a01b031690565b33036120365773__$f048dbd5170c0ac319fa0222065b281d84$__9061017390611bf58254614ea2565b5060408051631d250b5960e11b815260048082019390935290948582602481845af48015612029575b6000928391611ff6575b50611c3690928435906144e6565b60005b61016554811015611edf57611c9786611c67611c548461277c565b90546001600160a01b039160031b1c1690565b8a518093819263c78ea24360e01b83528a830191909160206001600160a01b03604083019461016e845216910152565b0381875af4908115611ed2575b600091611eb5575b50611cba575b600101611c39565b611d249061016294611cd66115ef87546001600160a01b031690565b9088611ce4611c548561277c565b8c5180968192630530fa2160e01b83528c830160408082526003908201526206966760ec1b60608201526001600160a01b03909116602082015260800190565b0381855afa938415611ea8575b600094611e85575b5083611d44916144e6565b95611d51611c548461277c565b93823b1561000e578b896000611ddb6115ef8e96611dbd8488611e239b60019e838a8c5196879586948593636c49e02160e01b8552840160608082526003908201526206966760ec1b6080820152909291906040906001600160a01b0360a08201951660208201520152565b03925af18015611e78575b611e65575b50546001600160a01b031690565b92611de8611c548961277c565b905163276d76f960e21b81526001600160a01b0390911692810192835230602084015260408301949094529294859384929091839160600190565b03925af18015611e58575b611e3b575b509050611cb2565b611e5190883d8a11610fc957610fba81836109ac565b5038611e33565b611e60613977565b611e2e565b80611819611e7292610927565b38611dcd565b611e80613977565b611dc8565b611d44919450611ea1908a3d8c1161128d5761127f81836109ac565b9390611d39565b611eb0613977565b611d31565b611ecc9150873d891161128d5761127f81836109ac565b38611cac565b611eda613977565b611ca4565b509293828185611f62947f8e4ce2fa984a5f09e5d111432fa85c4e31eb6c1d53be8a5c344af4b910883bcd9860009b9a5490611f478c519687958694859463bf14822560e01b8652850160609194939260808201956101748352602083015260408201520152565b03915af4918215611fe9575b8892611fcc575b505061017355565b6113b3611f7e611f70614ec7565b5467ffffffffffffffff1690565b91611f9b611f8a614ec7565b5460401c67ffffffffffffffff1690565b938651948594859092606092959493608083019667ffffffffffffffff809216845216602083015260408201520152565b611fe29250803d1061128d5761127f81836109ac565b3880611f5a565b611ff1613977565b611f53565b611c36935061201b9150873d8911612022575b61201381836109ac565b8101906150c8565b9092611c28565b503d612009565b612031613977565b611c1e565b6040516282b42960e81b8152600490fd5b503461000e57610805612059366112a1565b906040519261206784610958565b60008452613d51565b503461000e57604036600319011261000e5760043561208e81610798565b6120de60243561209d81610798565b600054926120c260ff8560081c161580958196612161575b8115612141575b506146cc565b836120d5600160ff196000541617600055565b61212857614949565b6120e457005b6120f461ff001960005416600055565b604051600181527f7f26b83ff96e1f2b6a682f133852f6798a09c465da95921460cefb38474024989080602081015b0390a1005b61213c61010061ff00196000541617600055565b614949565b303b15915081612153575b50386120bc565b6001915060ff16143861214c565b600160ff82161091506120b5565b50604036600319011261000e5760043561218881610798565b60243567ffffffffffffffff811161000e576121a8903690600401610a15565b906001600160a01b0391827f000000000000000000000000000000000000000000000000000000000000000016926121e284301415613893565b6122117f360894a13ba1a3210667c828492db98dca3e2076cc3735a920a3ca505d382bbc9482865416146138f4565b6122196137f1565b7f4910fdfa16fed3260ed0e7147f7cc6da11a60208b5b9406d12a635614ffd91435460ff161561224f57505061080591506139e2565b6020600491604094939451928380926352d1902d60e01b825286165afa600091816122e9575b506122d65760405162461bcd60e51b815260206004820152602e60248201527f45524331393637557067726164653a206e657720696d706c656d656e7461746960448201526d6f6e206973206e6f74205555505360901b6064820152608490fd5b610805936122e49114613984565b613b3c565b61230291925060203d811161128d5761127f81836109ac565b9038612275565b503461000e57602036600319011261000e5760043561232781614415565b801561242c5761234f9061151a336001600160a01b031660005261017e602052604060002090565b90336001600160a01b0361236a84546001600160a01b031690565b1603612036576006820191825460ff811615908115612413575b5061240157825462ff00001916620100001783557fab7e44c17ad2a7b4de0e42ab0bc824366a946f184a1133f0b5528347e4ccbd29926123f1916123e7906123e160026123da610161546001600160a01b031690565b9201614f4f565b90615cc2565b5460101c60ff1690565b90612123604051928392836150b2565b60405163baf3f0f760e01b8152600490fd5b60ff915060101c1661242481612e37565b151538612384565b604051638c877d2160e01b8152600490fd5b503461000e57600036600319011261000e576001600160a01b037f00000000000000000000000000000000000000000000000000000000000000001630036124ab576040517f360894a13ba1a3210667c828492db98dca3e2076cc3735a920a3ca505d382bbc8152602090f35b60405162461bcd60e51b815260206004820152603860248201527f555550535570677261646561626c653a206d757374206e6f742062652063616c60448201527f6c6564207468726f7567682064656c656761746563616c6c00000000000000006064820152608490fd5b503461000e57600036600319011261000e576101735460028110156125bf575b600560405191631d250b5960e11b83520261017401600482015260408160248173__$f048dbd5170c0ac319fa0222065b281d84$__5af49081156125b2575b6000908192612591575b50604080519182526020820192909252f35b90506125ab915060403d81116120225761201381836109ac565b903861257f565b6125ba613977565b612575565b6125c7611b28565b612536565b503461000e57602036600319011261000e576020610740600435613bdf565b503461000e57602036600319011261000e576001600160a01b0360043561261181610798565b16801561263a57600052606860205261069e604060002054604051918291829190602083019252565b60405162461bcd60e51b815260206004820152602960248201527f4552433732313a2061646472657373207a65726f206973206e6f7420612076616044820152683634b21037bbb732b960b91b6064820152608490fd5b503461000e5760008060031936011261071e576126ac6137f1565b60c9546001600160a01b0319811660c955816001600160a01b0360405192167f8be0079c531659141344cd1fd0a4f28419497f9722a3daafe3b4186f6b6457e08284a3f35b6024359060ff8216820361000e57565b6044359060ff8216820361000e57565b359060ff8216820361000e57565b503461000e57606036600319011261000e57366023121561000e5760405161274681610974565b60648136821161000e576004905b8282106127645761080584614574565b6020809161277184612711565b815201910190612754565b61016580548210156127b4575b6000527fd91ca5e44fa96a1732bfaed7fe33fc20ed69a9895cde1f18c7dcabca39d6a78b0190600090565b6127bc611b28565b612789565b503461000e57602036600319011261000e57600435610165805482101561000e576020916001600160a01b03916000527fd91ca5e44fa96a1732bfaed7fe33fc20ed69a9895cde1f18c7dcabca39d6a78b015416604051908152f35b503461000e57600036600319011261000e57602061017254604051908152f35b503461000e57600036600319011261000e576020612859615208565b6040519015158152f35b503461000e57600036600319011261000e5760206001600160a01b036101615416604051908152f35b503461000e57602036600319011261000e576001600160a01b036004356128b281610798565b166000526101646020526020604060002054604051908152f35b503461000e57600036600319011261000e57602060ff60fb54166040519015158152f35b503461000e57600036600319011261000e5760206001600160a01b0360c95416604051908152f35b503461000e5760008060031936011261071e57604051908060665461293c81613c01565b808552916001918083169081156106fd57506001146129655761069e85610692818703826109ac565b9250606683527f46501879b8ca8525e8c2fd519e2fbfcfa2ebea26501294aa02cbfcfb12e943545b8284106129a85750505081016020016106928261069e610682565b8054602085870181019190915290930192810161298d565b503461000e57604036600319011261000e576020612a146004356129e381610798565b6001600160a01b036129f36126f1565b911660005261016e835260406000209060ff16600052602052604060002090565b54604051908152f35b503461000e57604036600319011261000e57600435612a3b81610798565b602435612a4781610751565b6001600160a01b03821691823314612ace5781612a87612a989233600052606a6020526040600020906001600160a01b0316600052602052604060002090565b9060ff801983541691151516179055565b604051901515815233907f17307eab39ab6107e8899845ad3d59bd9653f200f220920489ca2b5937696c31908060208101610f9d565b60405162461bcd60e51b815260206004820152601960248201527f4552433732313a20617070726f766520746f2063616c6c6572000000000000006044820152606490fd5b503461000e57600036600319011261000e5760206001600160a01b036101625416604051908152f35b503461000e57600036600319011261000e57602060ff61018354166040519015158152f35b503461000e57608036600319011261000e57600435612b7f81610798565b602435612b8b81610798565b6064359167ffffffffffffffff831161000e57612baf610805933690600401610a15565b9160443591613d51565b503461000e57600036600319011261000e57602061017054604051908152f35b503461000e57602036600319011261000e57600435612bf781614415565b801561242c57612c1f9061151a336001600160a01b031660005261017e602052604060002090565b336001600160a01b03612c3983546001600160a01b031690565b1603612036576006018054600260ff8260101c16612c5681612e37565b14908115612cb8575b5061240157805461ff0019166101001790557f855f5f4ea7c8c6a92f173fbc35c24d01139c2a49e9bcc085f03620cb6a1c65139061212390612ca181336153f5565b604080519182526001602083015290918291820190565b60ff915060081c16612cc981612e37565b151538612c5f565b503461000e57604036600319011261000e576020612a14600435612cf481610798565b6001600160a01b03612d046126f1565b911660005261016b835260406000209060ff16600052602052604060002090565b503461000e57602036600319011261000e576001600160a01b03600435612d4b81610798565b1660005261017f6020526020604060002054604051908152f35b503461000e57600036600319011261000e57602061016854604051908152f35b503461000e57602036600319011261000e576020612da4600435614415565b604051908152f35b503461000e57602036600319011261000e5761069e612dcc600435614206565b60405191829160208352602083019061060b565b503461000e57600036600319011261000e57612e0360ff60005460081c16614b07565b60fb805460ff19169055005b6000915b60038310612e2057505050565b600190825181526020809101920192019190612e13565b60031115612e4157565b634e487b7160e01b600052602160045260246000fd5b90612e6182612e37565b52565b6109db909291926101406101608201946001600160a01b038151168352612e9b602082015160208501906001600160a01b03169052565b60408181015165ffffffffffff169084015260608181015165ffffffffffff1690840152612ed160808201516080850190612e0f565b60a081015160e084015260c081015190612ef2610100928386019015159052565b612f0560e0820151610120860190612e57565b0151910190612e57565b503461000e57604036600319011261000e5761069e612fa5612fa0600435612f3681610798565b61151a60243591604051612f498161093b565b610100600091828152826020820152826040820152826060820152604051612f7081610974565b606036823760808201528260a08201528260c08201528260e0820152015282151580612fb1575b6113fb90615045565b614f9e565b60405191829182612e64565b506113fb612fd3826001600160a01b031660005261017f602052604060002090565b548411159050612f97565b94919897969360e096939161010087019a6001600160a01b03809216885216602087015265ffffffffffff80921660408701521660608501526080840152151560a083015261302c81612e37565b60c082015261303a83612e37565b0152565b503461000e57602036600319011261000e5760043560005261017160205260406000206001600160a01b0361069e81835416600184015490600660058601549501549060405195869560ff8460101c169460ff808660081c169516938160d01c9265ffffffffffff8360a01c1692169089612fde565b503461000e57604036600319011261000e576004356130d281610798565b6001600160a01b0380911660005261017e602052604060002060243560005260205260406000209061069e81835416600184015490600660058601549501549060405195869560ff8460101c169460ff808660081c169516938160d01c9265ffffffffffff8360a01c1692169089612fde565b906003821015613161575b6006600580840461016d0193060290565b613169611b28565b613150565b503461000e57602036600319011261000e57600435600381101561000e578065ffffffffffff60056020930461016d01546006600560405194060260031b1c168152f35b503461000e57600036600319011261000e57602065ffffffffffff6101665416604051908152f35b503461000e57602060ff61321e6001600160a01b036131f83661117a565b9116600052606a84526040600020906001600160a01b0316600052602052604060002090565b54166040519015158152f35b503461000e57600036600319011261000e57602061016754604051908152f35b50606036600319011261000e57600480359061326582610798565b602435613270612701565b9273__$f048dbd5170c0ac319fa0222065b281d84$__916132a8610846836001600160a01b0316600052610163602052604060002090565b93833b1561000e5785936040958651809263f39ce06360e01b825281806132ec8860009d8e978a850160ff6040929594936060830196151583521660208201520152565b03915af480156135c8575b6135b5575b506001600160a01b038316801580158061354f575b61353f571561349857508134036134405750612fa061167e939261343a9261335f88808061334b6115ef610162546001600160a01b031690565b858c51915af16133596140cc565b50614eef565b61342361341b61336d614f3b565b968361337c60ff83168a6145fc565b526134096133ee610172549961339a6133948c614881565b61017255565b8a6133b9336001600160a01b031660005261017e602052604060002090565b91896133d96133c788613145565b905465ffffffffffff9160031b1c1690565b916133e660fb5460ff1690565b943390615d1d565b956001600160a01b031660005261016e602052604060002090565b9060ff16600052602052604060002090565b9182546144e6565b905533600090815261017e6020526040902061151a565b90615c15565b611a33908551918291631fff1b3b60e21b8352820160809060208152602260208201527f496e636f7272656374206e617469766520636f696e207374616b6520616d6f756040820152611b9d60f21b60608201520190565b92826134fe602061343a9561167e9897612fa0968c6134c36115ef610162546001600160a01b031690565b8d516323b872dd60e01b8152339381019384526001600160a01b03909116602084015260408301949094529294859384929091839160600190565b03925af18015613532575b613514575b5061335f565b61352b9060203d8111610fc957610fba81836109ac565b503861350e565b61353a613977565b613509565b8651631e9acf1760e31b81528390fd5b5086516370a0823160e01b8152338482019081528591906020908290819083010381875afa9081156135a8575b8a9161358a575b5010613311565b6135a2915060203d811161128d5761127f81836109ac565b38613583565b6135b0613977565b61357c565b806118196135c292610927565b386132fc565b6135d0613977565b6132f7565b503461000e57602036600319011261000e576004356135f381610798565b6135fb6137f1565b6001600160a01b038116156136135761080590613849565b60405162461bcd60e51b815260206004820152602660248201527f4f776e61626c653a206e6577206f776e657220697320746865207a65726f206160448201526564647265737360d01b6064820152608490fd5b503461000e576136763661117a565b906001600160a01b03811660005261017e60205260408092816000206137346136b3856001600160a01b031660005261017f602052604060002090565b549261017354956136cd610161546001600160a01b031690565b86519788968796631842f08d60e31b88526004880194926101009491979692610120870198875260208701526101746040870152610180606087015261016e608087015260a08601526001600160a01b03928380921660c08701521660e085015216910152565b038173__$f048dbd5170c0ac319fa0222065b281d84$__5af4918215613796575b6000918293613771575b50519081526020810191909152604090f35b8161378e92945061069e93503d85116120225761201381836109ac565b92909161375f565b61379e613977565b613755565b503461000e57604036600319011261000e576001600160a01b036004356137c981610798565b1660005261018260205260406000206024356000526020526020604060002054604051908152f35b6001600160a01b0360c95416330361380557565b606460405162461bcd60e51b815260206004820152602060248201527f4f776e61626c653a2063616c6c6572206973206e6f7420746865206f776e65726044820152fd5b60c954906001600160a01b0380911691826001600160a01b031982161760c955167f8be0079c531659141344cd1fd0a4f28419497f9722a3daafe3b4186f6b6457e06000604051a3565b1561389a57565b60405162461bcd60e51b815260206004820152602c60248201527f46756e6374696f6e206d7573742062652063616c6c6564207468726f7567682060448201526b19195b1959d85d1958d85b1b60a21b6064820152608490fd5b156138fb57565b60405162461bcd60e51b815260206004820152602c60248201527f46756e6374696f6e206d7573742062652063616c6c6564207468726f7567682060448201526b6163746976652070726f787960a01b6064820152608490fd5b6040519061396282610958565b60008252565b9081602091031261000e575190565b506040513d6000823e3d90fd5b1561398b57565b60405162461bcd60e51b815260206004820152602960248201527f45524331393637557067726164653a20756e737570706f727465642070726f786044820152681a58589b195555525160ba1b6064820152608490fd5b803b15613a25576001600160a01b037f360894a13ba1a3210667c828492db98dca3e2076cc3735a920a3ca505d382bbc91166001600160a01b0319825416179055565b60405162461bcd60e51b815260206004820152602d60248201527f455243313936373a206e657720696d706c656d656e746174696f6e206973206e60448201526c1bdd08184818dbdb9d1c9858dd609a1b6064820152608490fd5b613a89816139e2565b604051906001600160a01b0381167fbc7cd75a20ee27fd9adebab32041f755214dbc6bffa90cc0225b39da2e5c2d3b600084a2825115801590613b34575b613ad057505050565b600080613b3194613ae085610974565b602785527f416464726573733a206c6f772d6c6576656c2064656c65676174652063616c6c6020860152660819985a5b195960ca1b6040860152602081519101845af4613b2b6140cc565b9161436d565b50565b506000613ac7565b613b45816139e2565b604051906001600160a01b0381167fbc7cd75a20ee27fd9adebab32041f755214dbc6bffa90cc0225b39da2e5c2d3b600084a2825115801590613b8b57613ad057505050565b506001613ac7565b15613b9a57565b60405162461bcd60e51b815260206004820152601860248201527f4552433732313a20696e76616c696420746f6b656e20494400000000000000006044820152606490fd5b60005260676020526001600160a01b0360406000205416610641811515613b93565b90600182811c92168015613c31575b6020831014613c1b57565b634e487b7160e01b600052602260045260246000fd5b91607f1691613c10565b15613c4257565b60405162461bcd60e51b815260206004820152603d60248201527f4552433732313a20617070726f76652063616c6c6572206973206e6f7420746f60448201527f6b656e206f776e6572206f7220617070726f76656420666f7220616c6c0000006064820152608490fd5b613cd5613cd08260005260676020526001600160a01b0360406000205416151590565b613b93565b60005260696020526001600160a01b036040600020541690565b15613cf657565b60405162461bcd60e51b815260206004820152602d60248201527f4552433732313a2063616c6c6572206973206e6f7420746f6b656e206f776e6560448201526c1c881bdc88185c1c1c9bdd9959609a1b6064820152608490fd5b90613d75939291613d656112ed8433613ddc565b613d70838383613eb7565b6140fc565b15613d7c57565b60405162461bcd60e51b815260206004820152603260248201527f4552433732313a207472616e7366657220746f206e6f6e20455243373231526560448201527131b2b4bb32b91034b6b83632b6b2b73a32b960711b6064820152608490fd5b6001600160a01b0380613dee84613bdf565b169281831692848414948515613e24575b50508315613e0e575b50505090565b613e1a91929350613cad565b1614388080613e08565b60ff92955090613e5391600052606a6020526040600020906001600160a01b0316600052602052604060002090565b5416923880613dff565b15613e6457565b60405162461bcd60e51b815260206004820152602560248201527f4552433732313a207472616e736665722066726f6d20696e636f72726563742060448201526437bbb732b960d91b6064820152608490fd5b90613edd9291613ec683613bdf565b6001600160a01b0382811695909182168614613e5d565b8216938415613fd1576109db9481613f028693613efc6115ef86613bdf565b14613e5d565b613f29613f19846000526069602052604060002090565b80546001600160a01b0319169055565b613f46846001600160a01b03166000526068602052604060002090565b6000198154019055613f6b856001600160a01b03166000526068602052604060002090565b60018154019055613fa585613f8a856000526067602052604060002090565b906001600160a01b03166001600160a01b0319825416179055565b7fddf252ad1be2c89b69c2b068fc378daa952ba7f163c4a11628f55a4df523b3ef6000604051a4615a8c565b60405162461bcd60e51b8152602060048201526024808201527f4552433732313a207472616e7366657220746f20746865207a65726f206164646044820152637265737360e01b6064820152608490fd5b600082815260696020526040902080546001600160a01b0319166001600160a01b0383161790556001600160a01b038061405b84613bdf565b169116907f8c5be1e5ebec7d5bd14f71427d1e84f3dd0314c0f7b2291e5b200ac8c7c3b9256000604051a4565b9081602091031261000e575161064181610530565b909261064194936080936001600160a01b0380921684521660208301526040820152816060820152019061060b565b3d156140f7573d906140dd826109ea565b916140eb60405193846109ac565b82523d6000602084013e565b606090565b92909190823b156141fd576141379260209260006001600160a01b03604051809781968295630a85bd0160e11b9b8c8552336004860161409d565b0393165af1600091816141cd575b506141bf576141526140cc565b805190816141ba5760405162461bcd60e51b815260206004820152603260248201527f4552433732313a207472616e7366657220746f206e6f6e20455243373231526560448201527131b2b4bb32b91034b6b83632b6b2b73a32b960711b6064820152608490fd5b602001fd5b6001600160e01b0319161490565b6141ef91925060203d81116141f6575b6141e781836109ac565b810190614088565b9038614145565b503d6141dd565b50505050600190565b614229613cd08260005260676020526001600160a01b0360406000205416151590565b600090808252602060978152604083206040518481959083549061424c82613c01565b8085529460019280841690811561430857506001146142cc575b505050614275925003846109ac565b61427d613955565b928351156142c55780516142975750506106419150614328565b61064192506142b7906142b16040519586948501906110d4565b906110d4565b03601f1981018352826109ac565b9250505090565b869350819291528282205b8583106142f05750506142759350820101388080614266565b8054838a0185015288945086939092019181016142d7565b965050505050505060ff1916818401526142758360408101388080614266565b613cd061434b9160005260676020526001600160a01b0360406000205416151590565b600060405161435981610958565b5260405161436681610958565b6000815290565b919290156143cf5750815115614381575090565b3b1561438a5790565b60405162461bcd60e51b815260206004820152601d60248201527f416464726573733a2063616c6c20746f206e6f6e2d636f6e74726163740000006044820152606490fd5b8251909150156143e25750805190602001fd5b60405162461bcd60e51b8152908190611a339060048301610630565b50634e487b7160e01b600052601260045260246000fd5b600052610181602052604060002060405161442f816108fe565b6001600160a01b038254168152600182015490606060ff600360208401958587526002810154604086015201541615159101521561242c575190565b1561447257565b60405162461bcd60e51b815260206004820152601b60248201527f4d6967726174696f6e20616c726561647920636f6d706c6574656400000000006044820152606490fd5b50634e487b7160e01b600052601160045260246000fd5b60019060011981116144de570190565b6110e76144b7565b811981116144de570190565b9081602091031261000e575161064181610751565b6040519061451482610990565b600582526430b236b4b760d91b6020830152565b1561452f57565b60405162461bcd60e51b815260206004820152600e60248201527f4e6f7420617574686f72697a65640000000000000000000000000000000000006044820152606490fd5b61457f611078614507565b606460ff6145a761459a82855116836020870151169061461b565b826040860151169061461b565b16036145b6576109db90614667565b604051631fff1b3b60e21b815260206004820152601260248201527f4d7573742073756d20757020746f2031303000000000000000000000000000006044820152606490fd5b90600381101561460e575b60051b0190565b614616611b28565b614607565b60ff8091169116908160ff0381116144de570190565b8060001904821181151516614644570290565b61464c6144b7565b0290565b81811061465b575050565b60008155600101614650565b9061016f60009081935b6003808610156146c4579060209160ff908183511691868654921b90811b9283911b169119161783550193600180930192601f84116146b5575b5060010193614671565b600093509091019060016146ab565b505050509050565b156146d357565b60405162461bcd60e51b815260206004820152602e60248201527f496e697469616c697a61626c653a20636f6e747261637420697320616c72656160448201527f647920696e697469616c697a65640000000000000000000000000000000000006064820152608490fd5b1561474557565b60405162461bcd60e51b815260206004820152600f60248201527f496e76616c6964206164647265737300000000000000000000000000000000006044820152606490fd5b610165805490680100000000000000008210156147f3575b600182018082558210156147e6575b6000527fd91ca5e44fa96a1732bfaed7fe33fc20ed69a9895cde1f18c7dcabca39d6a78b0180546001600160a01b0319169055565b6147ee611b28565b6147b1565b6147fb6108e7565b6147a2565b6001600160a01b0361016580549068010000000000000000821015614874575b60018201808255821015614867575b6000527fd91ca5e44fa96a1732bfaed7fe33fc20ed69a9895cde1f18c7dcabca39d6a78b0191166001600160a01b0319825416179055565b61486f611b28565b61482f565b61487c6108e7565b614820565b60019060001981146144de570190565b9061016d600080935b6003808610156146c4578160209162ffffff600694511690858754911b65ffffffffffff811b9283911b1691191617855501910193601a85116148e2575b600101939061489a565b600094506001909201916148d8565b604051906148fe82610990565b601382527f457363726f77656420417373657420426f6e64000000000000000000000000006020830152565b6040519061493782610990565b600382526222a0a160e91b6020830152565b614a0e906149ab614a40936149716001600160a01b0380851615159081614afb575b5061473e565b61016180546001600160a01b0319166001600160a01b0385161790556001600160a01b0361016291166001600160a01b0319825416179055565b6149b6600161017255565b600080526101636020526149f27f323947e965fafc5a11fbcfc7a37a72d1b12094b96c7e62e08b97c054e8e6b0a75b805460ff19166001179055565b6149fa61478a565b614a3a61016791614a14614a0e8454614881565b61016755565b614a356149e5826001600160a01b0316600052610163602052604060002090565b614800565b54614881565b610166805465ffffffffffff1916630114db00179055614a7e614a616109dd565b62093a8081526224ea006020820152626ebe006040820152614891565b614aa0614a896109dd565b60148152601e602082015260326040820152614667565b610183805460ff19169055614aca614ab6614ec7565b805467ffffffffffffffff19166001179055565b614ae3614ad56148f1565b614add61492a565b90614b9b565b614aeb614b67565b614af3615f9c565b6109db614b8a565b9050821615153861496b565b15614b0e57565b60405162461bcd60e51b815260206004820152602b60248201527f496e697469616c697a61626c653a20636f6e7472616374206973206e6f74206960448201526a6e697469616c697a696e6760a81b6064820152608490fd5b614b8160ff60005460081c16614b7c81614b07565b614b07565b6109db33613849565b6109db60ff60005460081c16614b07565b90614bb160ff60005460081c16614b7c81614b07565b815167ffffffffffffffff8111614cac575b614bd781614bd2606554613c01565b614cb9565b602080601f8311600114614c19575081906109db94600092614c0e575b50508160011b916000199060031b1c191617606555614daa565b015190503880614bf4565b919293601f198416614c4d60656000527f8ff97419363ffd7000167f130ef7168fbea05faf9251824ca5043f113cc6a7c790565b936000905b828210614c945750509160019391856109db97969410614c7b575b505050811b01606555614daa565b015160001960f88460031b161c19169055388080614c6d565b80600186978294978701518155019601940190614c52565b614cb46108e7565b614bc3565b90601f8211614cc6575050565b6109db9160656000527f8ff97419363ffd7000167f130ef7168fbea05faf9251824ca5043f113cc6a7c7906020601f840160051c83019310614d10575b601f0160051c0190614650565b9091508190614d03565b90601f8211614d27575050565b6109db9160666000527f46501879b8ca8525e8c2fd519e2fbfcfa2ebea26501294aa02cbfcfb12e94354906020601f840160051c83019310614d1057601f0160051c0190614650565b9190601f8111614d7f57505050565b6109db926000526020600020906020601f840160051c83019310614d1057601f0160051c0190614650565b90815167ffffffffffffffff8111614e95575b614dd181614dcc606654613c01565b614d1a565b602080601f8311600114614e0d5750819293600092614e02575b50508160011b916000199060031b1c191617606655565b015190503880614deb565b90601f19831694614e4060666000527f46501879b8ca8525e8c2fd519e2fbfcfa2ebea26501294aa02cbfcfb12e9435490565b926000905b878210614e7d575050836001959610614e64575b505050811b01606655565b015160001960f88460031b161c19169055388080614e59565b80600185968294968601518155019501930190614e45565b614e9d6108e7565b614dbd565b6005906002811015614eba575b026101740190600090565b614ec2611b28565b614eaf565b6005600161017354166002811015614ee2575b026101740190565b614eea611b28565b614eda565b15614ef657565b60405162461bcd60e51b815260206004820152601f60248201527f4661696c656420746f207472616e73666572206e617469766520746f6b656e006044820152606490fd5b60405190614f4882610974565b6060368337565b60405191906000835b60038210614f7f575050506060820182811067ffffffffffffffff82111761091a57604052565b6001602081928554815201930191019091614f58565b612e6182612e37565b906109db60ff6006614fae6109ce565b94614fd0614fc382546001600160a01b031690565b6001600160a01b03168752565b60018101546001600160a01b038116602088015265ffffffffffff60a082901c16604088015260d01c606087015261500a60028201614f4f565b6080870152600581015460a08701520154818116151560c0860152615037828260081c1660e08701614f95565b60101c166101008401614f95565b1561504c57565b60405162461bcd60e51b815260206004820152601360248201527f496e76616c6964207374616b6520696e646578000000000000000000000000006044820152606490fd5b9061509b81612e37565b62ff000082549160101b169062ff00001916179055565b9081526040810192919060209061303a83612e37565b919082604091031261000e576020825192015190565b9081606091031261000e578051916040602083015192015167ffffffffffffffff8116810361000e5790565b9190615114614f3b565b60005b60ff908181166003811015615171579060019161516961516261515b61515561514f61514287611b3f565b905460ff9160031b1c1690565b60ff1690565b89614631565b6064900490565b91866145fc565b520116615117565b5050506109db92939150612fa061343a9161151a610172549461519661339487614881565b6113fb6151b7826001600160a01b031660005261017e602052604060002090565b936152036151f5610161968a6151d489546001600160a01b031690565b6101665465ffffffffffff169086896151ef60fb5460ff1690565b95615eaf565b95546001600160a01b031690565b615cc2565b73__$f048dbd5170c0ac319fa0222065b281d84$__60005b61016554811015615383576152416115ef610162546001600160a01b031690565b61524d611c548361277c565b60408051630530fa2160e01b81526004808201839052600360448301526206966760ec1b60648301526001600160a01b03939093166024820152602093909184918290849060849082905afa928315615376575b600093615355575b506152eb92936152bb611c548861277c565b9151938492839263c78ea24360e01b8452830191909160206001600160a01b03604083019461016e845216910152565b0381885af4928315615348575b600093615329575b50501515908161531f575b5061531857600101615220565b5050600190565b905015153861530b565b615340929350803d1061128d5761127f81836109ac565b903880615300565b615350613977565b6152f8565b6152eb935061537090833d851161128d5761127f81836109ac565b926152a9565b61537e613977565b6152a1565b5050600090565b9061539481612e37565b61ff0082549160081b169061ff001916179055565b156153b057565b60405162461bcd60e51b815260206004820152601c60248201527f4552433732313a20746f6b656e20616c7265616479206d696e746564000000006044820152606490fd5b6001600160a01b0381169081156154b85761548e9061543361542d8560005260676020526001600160a01b0360406000205416151590565b156153a9565b61545661542d8560005260676020526001600160a01b0360406000205416151590565b615473816001600160a01b03166000526068602052604060002090565b60018154019055613f8a846000526067602052604060002090565b60007fddf252ad1be2c89b69c2b068fc378daa952ba7f163c4a11628f55a4df523b3ef81604051a4565b606460405162461bcd60e51b815260206004820152602060248201527f4552433732313a206d696e7420746f20746865207a65726f20616464726573736044820152fd5b919082608091031261000e578151916020810151916060604083015161552181610798565b92015161064181610751565b6106419054613c01565b6155418154613c01565b908161554b575050565b81601f6000931160011461555d575055565b8183526020832061557991601f0160051c810190600101614650565b8160208120915555565b61558c81613bdf565b5061559681613bdf565b6000908282526069602052604082206001600160a01b0319908181541690556001600160a01b0382169081845260686020526040842060001981540190558484526067602052604084209081541690558383827fddf252ad1be2c89b69c2b068fc378daa952ba7f163c4a11628f55a4df523b3ef82604051a41515806157e2575b61565d575b505061563a615635826000526097602052604060002090565b61552d565b6156415750565b6156586109db916000526097602052604060002090565b615537565b61566683614415565b80615672575b5061561c565b808461569c612fa06156a59461151a876001600160a01b031660005261017e602052604060002090565b93858552615898565b6000805261017f6020526157176156dd7fa2a74be8737789e1b491023d6483d91a9d3c196df9599950c1fc49ad33ffdfdc5b546144ce565b6000805261017e60205291615712837f8cd5e9a73569cd280e98c425b388ae35bbb8e308c8dc2797457d1c0a89aeeb4f61151a565b615966565b73__$f048dbd5170c0ac319fa0222065b281d84$__803b156157de5760405163093c769560e21b81526101816004820152610182602482015260448101859052600060648201526084810192909252909190829060a49082905af480156157d1575b6157be575b506000805261017f6020527fa2a74be8737789e1b491023d6483d91a9d3c196df9599950c1fc49ad33ffdfdc6157b48154614881565b905538808061566c565b806118196157cb92610927565b3861577e565b6157d9613977565b615779565b8280fd5b5081615617565b906001600160a01b03908183168060005261016360205261581361132c604060002060ff90541690565b615863575b61016554939260005b60ff9086828216101561585457838361583c611c548461277c565b161461584b5760010116615821565b50505050915050565b5050505091506109db90614800565b615872614a0e61016754614881565b6158936149e5856001600160a01b0316600052610163602052604060002090565b615818565b90916001600160a01b0373__$f048dbd5170c0ac319fa0222065b281d84$__9216908160005261017e6020526040600020833b1561000e5760009360e492604051968795869463f97681bd60e01b865260048601526101816024860152610182604486015261017f6064860152608485015260a484015260c48301525af48015615931575b6159245750565b806118196109db92610927565b615939613977565b61591d565b906000905b6003821061595057505050565b6001602082829351865501930191019091615943565b9061010060066109db936159a061598485516001600160a01b031690565b82546001600160a01b0319166001600160a01b03909116178255565b615a25600182016159be61598460208801516001600160a01b031690565b6159f86159d4604088015165ffffffffffff1690565b825465ffffffffffff60a01b191660a09190911b65ffffffffffff60a01b16178255565b606086015165ffffffffffff1681546001600160d01b031660d09190911b6001600160d01b031916179055565b615a3660808501516002830161593e565b60a084015160058201550191615a64615a5260c0830151151590565b849060ff801983541691151516179055565b615a7b60e0820151615a7581612e37565b8461538a565b015190615a8782612e37565b615091565b916001600160a01b0380841615159081615c09575b50615aab57505050565b615ab481614415565b80615ac0575b50505050565b8082615aea612fa0615afc9461151a896001600160a01b031660005261017e602052604060002090565b6001600160a01b038616815295615898565b615b43615b206156d7846001600160a01b031660005261017f602052604060002090565b936157128561151a866001600160a01b031660005261017e602052604060002090565b73__$f048dbd5170c0ac319fa0222065b281d84$__90813b1561000e5760405163093c769560e21b81526101816004820152610182602482015260448101919091526001600160a01b03831660648201526084810193909352615bd49290600090829060a49082905af48015615bfc575b615be9575b506001600160a01b031660005261017f602052604060002090565b615bde8154614881565b905538808080615aba565b80611819615bf692610927565b38615bb9565b615c04613977565b615bb4565b90508216151538615aa1565b906001600160a01b03908181511691602090818301511665ffffffffffff80604085015116906060850151169160c060808601519501511515956040519788528488015260408701526060860152608085015260a084016000905b60038210615cad575050505015156101008201527fbbad5407299f3773930327d215f85a16617efbbddc1fe3902bd39ba46feacf269061012090a1565b82806001928651815201940191019092615c70565b91600092835b60ff90818116600381101561584b5790615ce4600192876145fc565b516001600160a01b038516885261016e602052615d1461341b8360408b209060ff16600052602052604060002090565b90550116615cc8565b9395600690615e566106419794615e4d615e789597615d50896001600160a01b031660005261017f602052604060002090565b548019600111615ea2575b6001019b8c9a615d7f8b6001600160a01b031660005261017f602052604060002090565b615d898154614881565b90558b6000526020528960406000209665ffffffffffff928391615dc6834216948b906001600160a01b03166001600160a01b0319825416179055565b615dea60018b019687906001600160a01b03166001600160a01b0319825416179055565b855465ffffffffffff60a01b191660a085901b65ffffffffffff60a01b1617865515615e97578161ffff6103f05b16918215615e8a575b1604168092038111615e7d575b82546001600160d01b0316910160d01b6001600160d01b031916179055565b6002830161593e565b6000600582015501805460ff191681555b805462ffff00191662010000179055565b615efa565b615e856144b7565b615e2e565b615e926143fe565b615e21565b8161ffff6001615e18565b615eaa6144b7565b615d5b565b9395600690615ee26106419794615e4d615e789597615d50896001600160a01b031660005261017f602052604060002090565b6000600582015501805460ff19166001178155615e67565b91906040918251615f0a816108fe565b615f876001600160a01b0380941691828152600360208201858152878301898152606084019160018352615f656000998c8b526101816020528b8b2096511686906001600160a01b03166001600160a01b0319825416179055565b51600185015551600284015551151591019060ff801983541691151516179055565b82526101826020528282209082526020522055565b615fad60ff60005460081c16614b07565b60ff1960fb541660fb5556fea26469706673582212200bdb5f9fd2de7dad86c38b17a383c448b343438cf5a8fedc582686272808064264736f6c634300080e0033",
  "libraries": {
    "StakingLib": "0x3eaA9D9c9BE8C558DF532dFfB15c699Ec9140485"
  },
  "devdoc": {
    "kind": "dev",
    "methods": {
      "approve(address,uint256)": {
        "details": "See {IERC721-approve}."
      },
      "balanceOf(address)": {
        "details": "See {IERC721-balanceOf}."
      },
      "getApproved(uint256)": {
        "details": "See {IERC721-getApproved}."
      },
      "getStakeEntry(uint256)": {
        "params": {
          "_stakeId": "Global stake ID"
        },
        "returns": {
          "_0": "The stake mapping entry"
        }
      },
      "getUserStakeId(address,uint256)": {
        "params": {
          "_user": "Owner address",
          "_userIndex": "Index in the user's personal mapping"
        },
        "returns": {
          "_0": "The stake ID"
        }
      },
      "getUserStakeIndex(uint256)": {
        "params": {
          "_stakeId": "Global stake ID"
        },
        "returns": {
          "_0": "The user index"
        }
      },
      "isApprovedForAll(address,address)": {
        "details": "See {IERC721-isApprovedForAll}."
      },
      "name()": {
        "details": "See {IERC721Metadata-name}."
      },
      "owner()": {
        "details": "Returns the address of the current owner."
      },
      "ownerOf(uint256)": {
        "details": "See {IERC721-ownerOf}."
      },
      "proxiableUUID()": {
        "details": "Implementation of the ERC1822 {proxiableUUID} function. This returns the storage slot used by the implementation. It is used to validate the implementation's compatibility when performing an upgrade. IMPORTANT: A proxy pointing at a proxiable contract should not be considered proxiable itself, because this risks bricking a proxy that upgrades to it, by delegating to itself until out of gas. Thus it is critical that this function revert if invoked through a proxy. This is guaranteed by the `notDelegated` modifier."
      },
      "renounceOwnership()": {
        "details": "Leaves the contract without owner. It will not be possible to call `onlyOwner` functions. Can only be called by the current owner. NOTE: Renouncing ownership will leave the contract without an owner, thereby disabling any functionality that is only available to the owner."
      },
      "safeTransferFrom(address,address,uint256)": {
        "details": "See {IERC721-safeTransferFrom}."
      },
      "safeTransferFrom(address,address,uint256,bytes)": {
        "details": "See {IERC721-safeTransferFrom}."
      },
      "setApprovalForAll(address,bool)": {
        "details": "See {IERC721-setApprovalForAll}."
      },
      "supportsInterface(bytes4)": {
        "details": "See {IERC165-supportsInterface}"
      },
      "symbol()": {
        "details": "See {IERC721Metadata-symbol}."
      },
      "tokenURI(uint256)": {
        "details": "See {IERC721Metadata-tokenURI}."
      },
      "transferFrom(address,address,uint256)": {
        "details": "See {IERC721-transferFrom}."
      },
      "transferOwnership(address)": {
        "details": "Transfers ownership of the contract to a new account (`newOwner`). Can only be called by the current owner."
      },
      "upgradeTo(address)": {
        "custom:oz-upgrades-unsafe-allow-reachable": "delegatecall",
        "details": "Upgrade the implementation of the proxy to `newImplementation`. Calls {_authorizeUpgrade}. Emits an {Upgraded} event."
      },
      "upgradeToAndCall(address,bytes)": {
        "custom:oz-upgrades-unsafe-allow-reachable": "delegatecall",
        "details": "Upgrade the implementation of the proxy to `newImplementation`, and subsequently execute the function call encoded in `data`. Calls {_authorizeUpgrade}. Emits an {Upgraded} event."
      }
    },
    "stateVariables": {
      "__gap": {
        "details": "IMPORTANT: When adding new storage variables, add them BELOW this comment and ABOVE the storage gap."
      },
      "_oldStakes": {
        "details": "DEPRECATED - Do not use. Kept for storage layout compatibility "
      },
      "activeStakesCount": {
        "details": "DEPRECATED - Do not use. Kept for storage layout compatibility "
      },
      "inflationRollOver": {
        "details": "DEPRECATED - Do not use. Kept for storage layout compatibility "
      },
      "lastEscrowRewardByToken_Duration": {
        "details": "DEPRECATED - Do not use. Kept for storage layout compatibility "
      },
      "poolRollOver": {
        "details": "DEPRECATED - Do not use. Kept for storage layout compatibility "
      },
      "stakes": {
        "details": "DEPRECATED - Do not use. Kept for storage layout compatibility "
      },
      "userToStakeTokenToLastEscrowId": {
        "details": "DEPRECATED - Do not use. Kept for storage layout compatibility "
      }
    },
    "version": 1
  },
  "userdoc": {
    "kind": "user",
    "methods": {
      "getStakeEntry(uint256)": {
        "notice": "Gets stake entry by ID"
      },
      "getUserStakeId(address,uint256)": {
        "notice": "Gets stake ID by user and index"
      },
      "getUserStakeIndex(uint256)": {
        "notice": "Gets user index by stake ID"
      }
    },
    "version": 1
  },
  "storageLayout": {
    "storage": [
      {
        "astId": 533,
        "contract": "contracts/staking/LendingPoolStakingV2.sol:LendingPoolStakingV2",
        "label": "_initialized",
        "offset": 0,
        "slot": "0",
        "type": "t_uint8"
      },
      {
        "astId": 536,
        "contract": "contracts/staking/LendingPoolStakingV2.sol:LendingPoolStakingV2",
        "label": "_initializing",
        "offset": 1,
        "slot": "0",
        "type": "t_bool"
      },
      {
        "astId": 2503,
        "contract": "contracts/staking/LendingPoolStakingV2.sol:LendingPoolStakingV2",
        "label": "__gap",
        "offset": 0,
        "slot": "1",
        "type": "t_array(t_uint256)50_storage"
      },
      {
        "astId": 2887,
        "contract": "contracts/staking/LendingPoolStakingV2.sol:LendingPoolStakingV2",
        "label": "__gap",
        "offset": 0,
        "slot": "51",
        "type": "t_array(t_uint256)50_storage"
      },
      {
        "astId": 862,
        "contract": "contracts/staking/LendingPoolStakingV2.sol:LendingPoolStakingV2",
        "label": "_name",
        "offset": 0,
        "slot": "101",
        "type": "t_string_storage"
      },
      {
        "astId": 864,
        "contract": "contracts/staking/LendingPoolStakingV2.sol:LendingPoolStakingV2",
        "label": "_symbol",
        "offset": 0,
        "slot": "102",
        "type": "t_string_storage"
      },
      {
        "astId": 868,
        "contract": "contracts/staking/LendingPoolStakingV2.sol:LendingPoolStakingV2",
        "label": "_owners",
        "offset": 0,
        "slot": "103",
        "type": "t_mapping(t_uint256,t_address)"
      },
      {
        "astId": 872,
        "contract": "contracts/staking/LendingPoolStakingV2.sol:LendingPoolStakingV2",
        "label": "_balances",
        "offset": 0,
        "slot": "104",
        "type": "t_mapping(t_address,t_uint256)"
      },
      {
        "astId": 876,
        "contract": "contracts/staking/LendingPoolStakingV2.sol:LendingPoolStakingV2",
        "label": "_tokenApprovals",
        "offset": 0,
        "slot": "105",
        "type": "t_mapping(t_uint256,t_address)"
      },
      {
        "astId": 882,
        "contract": "contracts/staking/LendingPoolStakingV2.sol:LendingPoolStakingV2",
        "label": "_operatorApprovals",
        "offset": 0,
        "slot": "106",
        "type": "t_mapping(t_address,t_mapping(t_address,t_bool))"
      },
      {
        "astId": 1784,
        "contract": "contracts/staking/LendingPoolStakingV2.sol:LendingPoolStakingV2",
        "label": "__gap",
        "offset": 0,
        "slot": "107",
        "type": "t_array(t_uint256)44_storage"
      },
      {
        "astId": 1939,
        "contract": "contracts/staking/LendingPoolStakingV2.sol:LendingPoolStakingV2",
        "label": "_tokenURIs",
        "offset": 0,
        "slot": "151",
        "type": "t_mapping(t_uint256,t_string_storage)"
      },
      {
        "astId": 2095,
        "contract": "contracts/staking/LendingPoolStakingV2.sol:LendingPoolStakingV2",
        "label": "__gap",
        "offset": 0,
        "slot": "152",
        "type": "t_array(t_uint256)49_storage"
      },
      {
        "astId": 11,
        "contract": "contracts/staking/LendingPoolStakingV2.sol:LendingPoolStakingV2",
        "label": "_owner",
        "offset": 0,
        "slot": "201",
        "type": "t_address"
      },
      {
        "astId": 131,
        "contract": "contracts/staking/LendingPoolStakingV2.sol:LendingPoolStakingV2",
        "label": "__gap",
        "offset": 0,
        "slot": "202",
        "type": "t_array(t_uint256)49_storage"
      },
      {
        "astId": 8466,
        "contract": "contracts/staking/LendingPoolStakingV2.sol:LendingPoolStakingV2",
        "label": "testing",
        "offset": 0,
        "slot": "251",
        "type": "t_bool"
      },
      {
        "astId": 5268,
        "contract": "contracts/staking/LendingPoolStakingV2.sol:LendingPoolStakingV2",
        "label": "hasRole",
        "offset": 0,
        "slot": "252",
        "type": "t_mapping(t_address,t_mapping(t_string_memory_ptr,t_bool))"
      },
      {
        "astId": 515,
        "contract": "contracts/staking/LendingPoolStakingV2.sol:LendingPoolStakingV2",
        "label": "__gap",
        "offset": 0,
        "slot": "253",
        "type": "t_array(t_uint256)50_storage"
      },
      {
        "astId": 831,
        "contract": "contracts/staking/LendingPoolStakingV2.sol:LendingPoolStakingV2",
        "label": "__gap",
        "offset": 0,
        "slot": "303",
        "type": "t_array(t_uint256)50_storage"
      },
      {
        "astId": 5473,
        "contract": "contracts/staking/LendingPoolStakingV2.sol:LendingPoolStakingV2",
        "label": "nend",
        "offset": 0,
        "slot": "353",
        "type": "t_address"
      },
      {
        "astId": 5476,
        "contract": "contracts/staking/LendingPoolStakingV2.sol:LendingPoolStakingV2",
        "label": "lendingPool",
        "offset": 0,
        "slot": "354",
        "type": "t_contract(Vault)9125"
      },
      {
        "astId": 5480,
        "contract": "contracts/staking/LendingPoolStakingV2.sol:LendingPoolStakingV2",
        "label": "activeStakeTokens",
        "offset": 0,
        "slot": "355",
        "type": "t_mapping(t_address,t_bool)"
      },
      {
        "astId": 5485,
        "contract": "contracts/staking/LendingPoolStakingV2.sol:LendingPoolStakingV2",
        "label": "inflationRollOver",
        "offset": 0,
        "slot": "356",
        "type": "t_mapping(t_address,t_uint256)"
      },
      {
        "astId": 5488,
        "contract": "contracts/staking/LendingPoolStakingV2.sol:LendingPoolStakingV2",
        "label": "stakeTokens",
        "offset": 0,
        "slot": "357",
        "type": "t_array(t_address)dyn_storage"
      },
      {
        "astId": 5490,
        "contract": "contracts/staking/LendingPoolStakingV2.sol:LendingPoolStakingV2",
        "label": "escrowLockPeriod",
        "offset": 0,
        "slot": "358",
        "type": "t_uint48"
      },
      {
        "astId": 5492,
        "contract": "contracts/staking/LendingPoolStakingV2.sol:LendingPoolStakingV2",
        "label": "stakeTokenCount",
        "offset": 0,
        "slot": "359",
        "type": "t_uint256"
      },
      {
        "astId": 5495,
        "contract": "contracts/staking/LendingPoolStakingV2.sol:LendingPoolStakingV2",
        "label": "activeStakesCount",
        "offset": 0,
        "slot": "360",
        "type": "t_uint256"
      },
      {
        "astId": 5499,
        "contract": "contracts/staking/LendingPoolStakingV2.sol:LendingPoolStakingV2",
        "label": "ifpTokenToAmount",
        "offset": 0,
        "slot": "361",
        "type": "t_mapping(t_address,t_uint256)"
      },
      {
        "astId": 5506,
        "contract": "contracts/staking/LendingPoolStakingV2.sol:LendingPoolStakingV2",
        "label": "userToStakeTokenToLastEscrowId",
        "offset": 0,
        "slot": "362",
        "type": "t_mapping(t_address,t_mapping(t_address,t_uint256))"
      },
      {
        "astId": 5513,
        "contract": "contracts/staking/LendingPoolStakingV2.sol:LendingPoolStakingV2",
        "label": "lastEscrowRewardByToken_Duration",
        "offset": 0,
        "slot": "363",
        "type": "t_mapping(t_address,t_mapping(t_uint8,t_uint256))"
      },
      {
        "astId": 5518,
        "contract": "contracts/staking/LendingPoolStakingV2.sol:LendingPoolStakingV2",
        "label": "_oldStakes",
        "offset": 0,
        "slot": "364",
        "type": "t_array(t_struct(Stake)8355_storage)dyn_storage"
      },
      {
        "astId": 5522,
        "contract": "contracts/staking/LendingPoolStakingV2.sol:LendingPoolStakingV2",
        "label": "stakeDurations",
        "offset": 0,
        "slot": "365",
        "type": "t_array(t_uint48)3_storage"
      },
      {
        "astId": 5528,
        "contract": "contracts/staking/LendingPoolStakingV2.sol:LendingPoolStakingV2",
        "label": "totalStakedByToken_Duration",
        "offset": 0,
        "slot": "366",
        "type": "t_mapping(t_address,t_mapping(t_uint8,t_uint256))"
      },
      {
        "astId": 5532,
        "contract": "contracts/staking/LendingPoolStakingV2.sol:LendingPoolStakingV2",
        "label": "rewardAllocations",
        "offset": 0,
        "slot": "367",
        "type": "t_array(t_uint8)3_storage"
      },
      {
        "astId": 5535,
        "contract": "contracts/staking/LendingPoolStakingV2.sol:LendingPoolStakingV2",
        "label": "poolRollOver",
        "offset": 0,
        "slot": "368",
        "type": "t_uint256"
      },
      {
        "astId": 5541,
        "contract": "contracts/staking/LendingPoolStakingV2.sol:LendingPoolStakingV2",
        "label": "stakes",
        "offset": 0,
        "slot": "369",
        "type": "t_mapping(t_uint256,t_struct(Stake)8355_storage)"
      },
      {
        "astId": 5543,
        "contract": "contracts/staking/LendingPoolStakingV2.sol:LendingPoolStakingV2",
        "label": "nextStakeId",
        "offset": 0,
        "slot": "370",
        "type": "t_uint256"
      },
      {
        "astId": 5548,
        "contract": "contracts/staking/LendingPoolStakingV2.sol:LendingPoolStakingV2",
        "label": "_currentPeriodId",
        "offset": 0,
        "slot": "371",
        "type": "t_uint256"
      },
      {
        "astId": 5553,
        "contract": "contracts/staking/LendingPoolStakingV2.sol:LendingPoolStakingV2",
        "label": "_recentPeriods",
        "offset": 0,
        "slot": "372",
        "type": "t_array(t_struct(RewardPeriod)8323_storage)2_storage"
      },
      {
        "astId": 5560,
        "contract": "contracts/staking/LendingPoolStakingV2.sol:LendingPoolStakingV2",
        "label": "userStakesById",
        "offset": 0,
        "slot": "382",
        "type": "t_mapping(t_address,t_mapping(t_uint256,t_struct(Stake)8355_storage))"
      },
      {
        "astId": 5564,
        "contract": "contracts/staking/LendingPoolStakingV2.sol:LendingPoolStakingV2",
        "label": "userStakesCount",
        "offset": 0,
        "slot": "383",
        "type": "t_mapping(t_address,t_uint256)"
      },
      {
        "astId": 5570,
        "contract": "contracts/staking/LendingPoolStakingV2.sol:LendingPoolStakingV2",
        "label": "_userClaimedForPeriod",
        "offset": 0,
        "slot": "384",
        "type": "t_mapping(t_address,t_mapping(t_uint64,t_bool))"
      },
      {
        "astId": 5575,
        "contract": "contracts/staking/LendingPoolStakingV2.sol:LendingPoolStakingV2",
        "label": "_stakeEntries",
        "offset": 0,
        "slot": "385",
        "type": "t_mapping(t_uint256,t_struct(StakeMappingEntry)8332_storage)"
      },
      {
        "astId": 5581,
        "contract": "contracts/staking/LendingPoolStakingV2.sol:LendingPoolStakingV2",
        "label": "_userIndexToId",
        "offset": 0,
        "slot": "386",
        "type": "t_mapping(t_address,t_mapping(t_uint256,t_uint256))"
      },
      {
        "astId": 5583,
        "contract": "contracts/staking/LendingPoolStakingV2.sol:LendingPoolStakingV2",
        "label": "stakesDeprecated",
        "offset": 0,
        "slot": "387",
        "type": "t_bool"
      },
      {
        "astId": 5588,
        "contract": "contracts/staking/LendingPoolStakingV2.sol:LendingPoolStakingV2",
        "label": "__gap",
        "offset": 0,
        "slot": "388",
        "type": "t_array(t_uint256)50_storage"
      }
    ],
    "types": {
      "t_address": {
        "encoding": "inplace",
        "label": "address",
        "numberOfBytes": "20"
      },
      "t_array(t_address)dyn_storage": {
        "base": "t_address",
        "encoding": "dynamic_array",
        "label": "address[]",
        "numberOfBytes": "32"
      },
      "t_array(t_struct(RewardPeriod)8323_storage)2_storage": {
        "base": "t_struct(RewardPeriod)8323_storage",
        "encoding": "inplace",
        "label": "struct ILendingPoolStakingV2.RewardPeriod[2]",
        "numberOfBytes": "320"
      },
      "t_array(t_struct(Stake)8355_storage)dyn_storage": {
        "base": "t_struct(Stake)8355_storage",
        "encoding": "dynamic_array",
        "label": "struct ILendingPoolStakingV2.Stake[]",
        "numberOfBytes": "32"
      },
      "t_array(t_uint256)3_storage": {
        "base": "t_uint256",
        "encoding": "inplace",
        "label": "uint256[3]",
        "numberOfBytes": "96"
      },
      "t_array(t_uint256)44_storage": {
        "base": "t_uint256",
        "encoding": "inplace",
        "label": "uint256[44]",
        "numberOfBytes": "1408"
      },
      "t_array(t_uint256)49_storage": {
        "base": "t_uint256",
        "encoding": "inplace",
        "label": "uint256[49]",
        "numberOfBytes": "1568"
      },
      "t_array(t_uint256)50_storage": {
        "base": "t_uint256",
        "encoding": "inplace",
        "label": "uint256[50]",
        "numberOfBytes": "1600"
      },
      "t_array(t_uint48)3_storage": {
        "base": "t_uint48",
        "encoding": "inplace",
        "label": "uint48[3]",
        "numberOfBytes": "32"
      },
      "t_array(t_uint8)3_storage": {
        "base": "t_uint8",
        "encoding": "inplace",
        "label": "uint8[3]",
        "numberOfBytes": "32"
      },
      "t_bool": {
        "encoding": "inplace",
        "label": "bool",
        "numberOfBytes": "1"
      },
      "t_contract(Vault)9125": {
        "encoding": "inplace",
        "label": "contract Vault",
        "numberOfBytes": "20"
      },
      "t_enum(EscrowStatus)8310": {
        "encoding": "inplace",
        "label": "enum ILendingPoolStakingV2.EscrowStatus",
        "numberOfBytes": "1"
      },
      "t_enum(StakeStatus)8306": {
        "encoding": "inplace",
        "label": "enum ILendingPoolStakingV2.StakeStatus",
        "numberOfBytes": "1"
      },
      "t_mapping(t_address,t_bool)": {
        "encoding": "mapping",
        "key": "t_address",
        "label": "mapping(address => bool)",
        "numberOfBytes": "32",
        "value": "t_bool"
      },
      "t_mapping(t_address,t_mapping(t_address,t_bool))": {
        "encoding": "mapping",
        "key": "t_address",
        "label": "mapping(address => mapping(address => bool))",
        "numberOfBytes": "32",
        "value": "t_mapping(t_address,t_bool)"
      },
      "t_mapping(t_address,t_mapping(t_address,t_uint256))": {
        "encoding": "mapping",
        "key": "t_address",
        "label": "mapping(address => mapping(address => uint256))",
        "numberOfBytes": "32",
        "value": "t_mapping(t_address,t_uint256)"
      },
      "t_mapping(t_address,t_mapping(t_string_memory_ptr,t_bool))": {
        "encoding": "mapping",
        "key": "t_address",
        "label": "mapping(address => mapping(string => bool))",
        "numberOfBytes": "32",
        "value": "t_mapping(t_string_memory_ptr,t_bool)"
      },
      "t_mapping(t_address,t_mapping(t_uint256,t_struct(Stake)8355_storage))": {
        "encoding": "mapping",
        "key": "t_address",
        "label": "mapping(address => mapping(uint256 => struct ILendingPoolStakingV2.Stake))",
        "numberOfBytes": "32",
        "value": "t_mapping(t_uint256,t_struct(Stake)8355_storage)"
      },
      "t_mapping(t_address,t_mapping(t_uint256,t_uint256))": {
        "encoding": "mapping",
        "key": "t_address",
        "label": "mapping(address => mapping(uint256 => uint256))",
        "numberOfBytes": "32",
        "value": "t_mapping(t_uint256,t_uint256)"
      },
      "t_mapping(t_address,t_mapping(t_uint64,t_bool))": {
        "encoding": "mapping",
        "key": "t_address",
        "label": "mapping(address => mapping(uint64 => bool))",
        "numberOfBytes": "32",
        "value": "t_mapping(t_uint64,t_bool)"
      },
      "t_mapping(t_address,t_mapping(t_uint8,t_uint256))": {
        "encoding": "mapping",
        "key": "t_address",
        "label": "mapping(address => mapping(uint8 => uint256))",
        "numberOfBytes": "32",
        "value": "t_mapping(t_uint8,t_uint256)"
      },
      "t_mapping(t_address,t_uint256)": {
        "encoding": "mapping",
        "key": "t_address",
        "label": "mapping(address => uint256)",
        "numberOfBytes": "32",
        "value": "t_uint256"
      },
      "t_mapping(t_string_memory_ptr,t_bool)": {
        "encoding": "mapping",
        "key": "t_string_memory_ptr",
        "label": "mapping(string => bool)",
        "numberOfBytes": "32",
        "value": "t_bool"
      },
      "t_mapping(t_uint256,t_address)": {
        "encoding": "mapping",
        "key": "t_uint256",
        "label": "mapping(uint256 => address)",
        "numberOfBytes": "32",
        "value": "t_address"
      },
      "t_mapping(t_uint256,t_string_storage)": {
        "encoding": "mapping",
        "key": "t_uint256",
        "label": "mapping(uint256 => string)",
        "numberOfBytes": "32",
        "value": "t_string_storage"
      },
      "t_mapping(t_uint256,t_struct(Stake)8355_storage)": {
        "encoding": "mapping",
        "key": "t_uint256",
        "label": "mapping(uint256 => struct ILendingPoolStakingV2.Stake)",
        "numberOfBytes": "32",
        "value": "t_struct(Stake)8355_storage"
      },
      "t_mapping(t_uint256,t_struct(StakeMappingEntry)8332_storage)": {
        "encoding": "mapping",
        "key": "t_uint256",
        "label": "mapping(uint256 => struct ILendingPoolStakingV2.StakeMappingEntry)",
        "numberOfBytes": "32",
        "value": "t_struct(StakeMappingEntry)8332_storage"
      },
      "t_mapping(t_uint256,t_uint256)": {
        "encoding": "mapping",
        "key": "t_uint256",
        "label": "mapping(uint256 => uint256)",
        "numberOfBytes": "32",
        "value": "t_uint256"
      },
      "t_mapping(t_uint64,t_bool)": {
        "encoding": "mapping",
        "key": "t_uint64",
        "label": "mapping(uint64 => bool)",
        "numberOfBytes": "32",
        "value": "t_bool"
      },
      "t_mapping(t_uint8,t_uint256)": {
        "encoding": "mapping",
        "key": "t_uint8",
        "label": "mapping(uint8 => uint256)",
        "numberOfBytes": "32",
        "value": "t_uint256"
      },
      "t_string_memory_ptr": {
        "encoding": "bytes",
        "label": "string",
        "numberOfBytes": "32"
      },
      "t_string_storage": {
        "encoding": "bytes",
        "label": "string",
        "numberOfBytes": "32"
      },
      "t_struct(RewardPeriod)8323_storage": {
        "encoding": "inplace",
        "label": "struct ILendingPoolStakingV2.RewardPeriod",
        "members": [
          {
            "astId": 8312,
            "contract": "contracts/staking/LendingPoolStakingV2.sol:LendingPoolStakingV2",
            "label": "periodId",
            "offset": 0,
            "slot": "0",
            "type": "t_uint64"
          },
          {
            "astId": 8314,
            "contract": "contracts/staking/LendingPoolStakingV2.sol:LendingPoolStakingV2",
            "label": "startTime",
            "offset": 8,
            "slot": "0",
            "type": "t_uint64"
          },
          {
            "astId": 8316,
            "contract": "contracts/staking/LendingPoolStakingV2.sol:LendingPoolStakingV2",
            "label": "rewardsToDistribute",
            "offset": 0,
            "slot": "1",
            "type": "t_uint256"
          },
          {
            "astId": 8318,
            "contract": "contracts/staking/LendingPoolStakingV2.sol:LendingPoolStakingV2",
            "label": "rewardsStaked",
            "offset": 0,
            "slot": "2",
            "type": "t_uint256"
          },
          {
            "astId": 8320,
            "contract": "contracts/staking/LendingPoolStakingV2.sol:LendingPoolStakingV2",
            "label": "ifpRewardToDistribute",
            "offset": 0,
            "slot": "3",
            "type": "t_uint256"
          },
          {
            "astId": 8322,
            "contract": "contracts/staking/LendingPoolStakingV2.sol:LendingPoolStakingV2",
            "label": "ifpRewardClaimed",
            "offset": 0,
            "slot": "4",
            "type": "t_uint256"
          }
        ],
        "numberOfBytes": "160"
      },
      "t_struct(Stake)8355_storage": {
        "encoding": "inplace",
        "label": "struct ILendingPoolStakingV2.Stake",
        "members": [
          {
            "astId": 8334,
            "contract": "contracts/staking/LendingPoolStakingV2.sol:LendingPoolStakingV2",
            "label": "staker",
            "offset": 0,
            "slot": "0",
            "type": "t_address"
          },
          {
            "astId": 8336,
            "contract": "contracts/staking/LendingPoolStakingV2.sol:LendingPoolStakingV2",
            "label": "token",
            "offset": 0,
            "slot": "1",
            "type": "t_address"
          },
          {
            "astId": 8338,
            "contract": "contracts/staking/LendingPoolStakingV2.sol:LendingPoolStakingV2",
            "label": "start",
            "offset": 20,
            "slot": "1",
            "type": "t_uint48"
          },
          {
            "astId": 8340,
            "contract": "contracts/staking/LendingPoolStakingV2.sol:LendingPoolStakingV2",
            "label": "end",
            "offset": 26,
            "slot": "1",
            "type": "t_uint48"
          },
          {
            "astId": 8344,
            "contract": "contracts/staking/LendingPoolStakingV2.sol:LendingPoolStakingV2",
            "label": "amountsPerDuration",
            "offset": 0,
            "slot": "2",
            "type": "t_array(t_uint256)3_storage"
          },
          {
            "astId": 8346,
            "contract": "contracts/staking/LendingPoolStakingV2.sol:LendingPoolStakingV2",
            "label": "rewardAllocated",
            "offset": 0,
            "slot": "5",
            "type": "t_uint256"
          },
          {
            "astId": 8348,
            "contract": "contracts/staking/LendingPoolStakingV2.sol:LendingPoolStakingV2",
            "label": "isEscrow",
            "offset": 0,
            "slot": "6",
            "type": "t_bool"
          },
          {
            "astId": 8351,
            "contract": "contracts/staking/LendingPoolStakingV2.sol:LendingPoolStakingV2",
            "label": "escrowStatus",
            "offset": 1,
            "slot": "6",
            "type": "t_enum(EscrowStatus)8310"
          },
          {
            "astId": 8354,
            "contract": "contracts/staking/LendingPoolStakingV2.sol:LendingPoolStakingV2",
            "label": "stakeStatus",
            "offset": 2,
            "slot": "6",
            "type": "t_enum(StakeStatus)8306"
          }
        ],
        "numberOfBytes": "224"
      },
      "t_struct(StakeMappingEntry)8332_storage": {
        "encoding": "inplace",
        "label": "struct ILendingPoolStakingV2.StakeMappingEntry",
        "members": [
          {
            "astId": 8325,
            "contract": "contracts/staking/LendingPoolStakingV2.sol:LendingPoolStakingV2",
            "label": "user",
            "offset": 0,
            "slot": "0",
            "type": "t_address"
          },
          {
            "astId": 8327,
            "contract": "contracts/staking/LendingPoolStakingV2.sol:LendingPoolStakingV2",
            "label": "userIndex",
            "offset": 0,
            "slot": "1",
            "type": "t_uint256"
          },
          {
            "astId": 8329,
            "contract": "contracts/staking/LendingPoolStakingV2.sol:LendingPoolStakingV2",
            "label": "stakeId",
            "offset": 0,
            "slot": "2",
            "type": "t_uint256"
          },
          {
            "astId": 8331,
            "contract": "contracts/staking/LendingPoolStakingV2.sol:LendingPoolStakingV2",
            "label": "exists",
            "offset": 0,
            "slot": "3",
            "type": "t_bool"
          }
        ],
        "numberOfBytes": "128"
      },
      "t_uint256": {
        "encoding": "inplace",
        "label": "uint256",
        "numberOfBytes": "32"
      },
      "t_uint48": {
        "encoding": "inplace",
        "label": "uint48",
        "numberOfBytes": "6"
      },
      "t_uint64": {
        "encoding": "inplace",
        "label": "uint64",
        "numberOfBytes": "8"
      },
      "t_uint8": {
        "encoding": "inplace",
        "label": "uint8",
        "numberOfBytes": "1"
      }
    }
  }
}