{
  "address": "0x3799f3a1c3CFF784022ccFC7c774cc73Cf9AD2d8",
  "abi": [
    {
      "inputs": [],
      "name": "AlreadyClaimed",
      "type": "error"
    },
    {
      "inputs": [
        {
          "internalType": "string",
          "name": "details",
          "type": "string"
        }
      ],
      "name": "InvalidArgument",
      "type": "error"
    },
    {
      "inputs": [],
      "name": "InvalidState",
      "type": "error"
    },
    {
      "inputs": [],
      "name": "NoRewardsAvailable",
      "type": "error"
    },
    {
      "inputs": [],
      "name": "NoStakeYet",
      "type": "error"
    },
    {
      "inputs": [],
      "name": "StakeNotFound",
      "type": "error"
    },
    {
      "inputs": [],
      "name": "Unauthorized",
      "type": "error"
    },
    {
      "anonymous": false,
      "inputs": [
        {
          "indexed": false,
          "internalType": "uint256",
          "name": "stakeId",
          "type": "uint256"
        },
        {
          "indexed": false,
          "internalType": "address",
          "name": "staker",
          "type": "address"
        },
        {
          "indexed": false,
          "internalType": "address",
          "name": "token",
          "type": "address"
        },
        {
          "indexed": false,
          "internalType": "uint48",
          "name": "start",
          "type": "uint48"
        },
        {
          "indexed": false,
          "internalType": "uint48",
          "name": "end",
          "type": "uint48"
        },
        {
          "indexed": false,
          "internalType": "uint256[3]",
          "name": "amountsPerDuration",
          "type": "uint256[3]"
        },
        {
          "indexed": false,
          "internalType": "bool",
          "name": "isEscrow",
          "type": "bool"
        }
      ],
      "name": "Staked",
      "type": "event"
    },
    {
      "inputs": [],
      "name": "REWARD_PERIOD_LENGTH",
      "outputs": [
        {
          "internalType": "uint8",
          "name": "",
          "type": "uint8"
        }
      ],
      "stateMutability": "view",
      "type": "function"
    },
    {
      "inputs": [
        {
          "internalType": "bool",
          "name": "isActiveStakeToken",
          "type": "bool"
        },
        {
          "internalType": "uint8",
          "name": "durationId",
          "type": "uint8"
        },
        {
          "internalType": "uint256",
          "name": "amount",
          "type": "uint256"
        }
      ],
      "name": "validateStake",
      "outputs": [],
      "stateMutability": "pure",
      "type": "function"
    }
  ],
  "transactionHash": "0xa64e212780f90fcd76afd844d6f6ce2fe7256390b9b032527e50180121fdf3d6",
  "args": [],
  "numDeployments": 3,
  "solcInputHash": "5e2263d56e3d0f59991f6e932da8dc6a",
  "bytecode": "0x6080806040523461001c576119e490816100228239308160070152f35b600080fdfe6080604052307f000000000000000000000000000000000000000000000000000000000000000014600436101561003557600080fd5b600090813560e01c80631dbd20861461018557806324f1da541461017757806331fd8e65146101695780633a4a16b21461015e5780634cce26ec146101505780637ed1bd95146101425780639e8f309214610137578063bf14822514610129578063c21784681461011e578063c78ea24314610113578063e0bbadce14610105578063ecceaf72146100f7578063f39ce063146100ec5763f97681bd146100dc575b600080fd5b6100e957506100d7610d24565b80fd5b5050506100d7610c14565b506100e957506100d76109bf565b506100e957506100d7610980565b5050506100d761095a565b5050506100d76108fa565b506100e957506100d76107c4565b5050506100d7610786565b506100e957506100d7610701565b506100e957506100d7610453565b5050506100d76103e1565b506100e957506100d7610203565b506100e957506100d76101d3565b5050506100d761019b565b60009103126100d757565b5060003660031901126100d757602060405160028152f35b6001600160a01b038116036100d757565b60a435906101d1826101b3565b565b5060a03660031901126100d7576102016064356101ef816101b3565b60843590604435602435600435611871565b005b5060803660031901126100d75760043561021c816101b3565b60243590610229826101b3565b60443590610236826101b3565b606435906001600160a01b039384811680156000146102c85750508316610260828231101561180d565b803b156100d757604051633e97486160e11b8152939092166001600160a01b03166004840152602483015260009082908183816044810103925af180156102bb575b6102a857005b806102b561020192610647565b80610190565b6102c3611800565b6102a2565b92919461036394919516906000604051966370a0823160e01b88526103298589602081819c9a818061030e8c869f6004019190916001600160a01b036020820193169052565b03915afa9081156103d4575b85916103a7575b50101561180d565b60405163276d76f960e21b81526001600160a01b039182166004820152921660248301526044820193909352938492839182906064820190565b03925af1801561039a575b61037457005b8161020192903d10610393575b61038b8183610684565b810190611859565b503d610381565b6103a2611800565b61036e565b6103c79150893d8b116103cd575b6103bf8183610684565b8101906117f1565b38610321565b503d6103b5565b6103dc611800565b61031a565b5060203660031901126100d757600435600181015490610435600282015492838110610446575b6004600384015493015493848410610439575b604080519190920381529390920360208401528291820190565b0390f35b61044161108c565b61041b565b61044e61108c565b610408565b506101003660031901126100d75760843560a435606435610473826101b3565b60c43591610480836101b3565b60e4359361048d856101b3565b6104aa8584906001600160a01b0316600052602052604060002090565b916104e56104de6104c3845467ffffffffffffffff1690565b80959067ffffffffffffffff16600052602052604060002090565b5460ff1690565b61061e576104f581602435611770565b94851561060c5761050b916044356004356116a2565b9384156105fa578061052b61053061053b9361052b8960018801546110f2565b61145e565b9660038501546110f2565b948415806105f2575b6105e057826105916105aa926104359660048660026105b798016105698c82546110cf565b9055016105778b82546110cf565b9055906001600160a01b0316600052602052604060002090565b9067ffffffffffffffff16600052602052604060002090565b805460ff19166001179055565b6040519384938491604091949367ffffffffffffffff9160608501968552602085015216910152565b60405163afb0be3360e01b8152600490fd5b508515610544565b604051638c877d2160e01b8152600490fd5b604051634d10c97960e11b8152600490fd5b604051630c8d9eab60e31b8152600490fd5b50634e487b7160e01b600052604160045260246000fd5b67ffffffffffffffff811161065b57604052565b610663610630565b604052565b6060810190811067ffffffffffffffff82111761065b57604052565b90601f8019910116810190811067ffffffffffffffff82111761065b57604052565b60405190610120820182811067ffffffffffffffff82111761065b57604052565b60c4359065ffffffffffff821682036100d757565b801515036100d757565b60e435906101d1826106dc565b61010435906101d1826106dc565b506101203660031901126100d75760243561071b816101b3565b36606312156100d7576040519061073182610668565b8160a43681116100d7576044935b8185106107765761020184846107536101c4565b61075b6106c7565b906107646106e6565b9261076d6106f3565b94600435611582565b843581526020948501940161073f565b5060803660031901126100d75760206107bc6044356107a4816101b3565b606435906107b1826101b3565b6024356004356116a2565b604051908152f35b5060803660031901126100d7576104356108346108c660243560043561087061084861084360016107f4866110a3565b8181106108ed575b6000190116968795600060046108128989611424565b6108e0575b828155826001820155826002820155826003820155015585611424565b505467ffffffffffffffff1690565b611562565b6108528484611424565b509067ffffffffffffffff1667ffffffffffffffff19825416179055565b6108ae61087d8383611424565b5080546fffffffffffffffff000000000000000019164260401b6fffffffffffffffff000000000000000016179055565b6108b88282611424565b506001604435910155611424565b506003606435910155604051918291829190602083019252565b6108e86110db565b610817565b6108f561108c565b6107fc565b506101203660031901126100d75761094860c435610917816101b3565b60e435610923816101b3565b6101043591610931836101b3565b60a435608435606435604435602435600435611474565b60408051928352602083019190915290f35b5060403660031901126100d75760206107bc602435610978816101b3565b600435611770565b5060e03660031901126100d75760206109b560c43561099e816101b3565b60a435608435606435604435602435600435611289565b6040519015158152f35b5060803660031901126100d7576044356004356024356109de836101b3565b6064356109ea816101b3565b82546001600160a01b0391821690821603610c035760019081840194855491428360d01c118015610be5575b8015610bc7575b610bb55760028601968754610a42610a388a60010190600090565b90549060031b1c90565b01610a5160028a016000610a38565b0195600660058901549801938685549660ff958691828a16600014610bae57505082975b60101c16610a8281610f73565b14610b19575b50505061043594959650610aa7826202000062ff000019825416179055565b815493818560081c16610ab981610f73565b14938415610b0f575b505082610afc575b5060405194859485926001600160a01b0390606093969592966080860197865260208601521660408401521515910152565b805461ff00191661020017905538610aca565b1692503880610ac2565b60005b600385821610610b2c5750610a88565b8781610b3c610a3888948f61152d565b885460ff1615610b8e57610b85610b7d83610b6b885b8a906001600160a01b0316600052602052604060002090565b9060ff16600052602052604060002090565b91825461154b565b90550116610b1c565b610b85610b7d83610b6b610ba98b546001600160a01b031690565b610b52565b1697610a75565b60405163baf3f0f760e01b8152600490fd5b50600686015460029060081c60ff16610bdf81610f73565b14610a1d565b50600686015460029060101c60ff16610bfd81610f73565b14610a16565b6040516282b42960e81b8152600490fd5b5060603660031901126100d757600435610c2d816106dc565b6024359060ff82168092036100d75760443515610cde5715610c9857600210610c5257005b604051631fff1b3b60e21b815260206004820152601360248201527f496e76616c6964206475726174696f6e204944000000000000000000000000006044820152606490fd5b604051631fff1b3b60e21b815260206004820152601360248201527f496e76616c6964207374616b6520746f6b656e000000000000000000000000006044820152606490fd5b604051631fff1b3b60e21b815260206004820152601560248201527f416d6f756e742063616e6e6f74206265207a65726f00000000000000000000006044820152606490fd5b5060e03660031901126100d757610df4608435606435610da3610ddc6024356000610dca600435610dbb88604435610d5b826101b3565b610da3610d9e8b610d828560c43592906001600160a01b0316600052602052604060002090565b54968188809303610e02575b5090600052602052604060002090565b61195f565b906001600160a01b0316600052602052604060002090565b90600052602052604060002090565b5560a435600052602052604060002090565b60036000918281558260018201558260028201550155565b610dfe8154611993565b9055005b610e5890878d888e918783528660205260408320610e338584906001600160a01b0316600052602052604060002090565b89855260205260408085205494878152896020522090808203610e5e575b5050611871565b38610d8e565b610f66600680610f6c94610f0c6001600160a01b03610e968188541684906001600160a01b03166001600160a01b0319825416179055565b610eec6001840191610ec560018a019182541684906001600160a01b03166001600160a01b0319825416179055565b8054835465ffffffffffff60a01b191665ffffffffffff60a01b9091161783555460d01c90565b81546001600160d01b031660d09190911b6001600160d01b031916179055565b610f1c6002860160028301611927565b60058501546005820155019201610f49610f37825460ff1690565b849060ff801983541691151516179055565b8054610f5c9060081c60ff165b84611139565b5460101c60ff1690565b90611158565b3880610e51565b60031115610f7d57565b634e487b7160e01b600052602160045260246000fd5b60405191906000835b60038210610fc3575050506060820182811067ffffffffffffffff82111761065b57604052565b6001602081928554815201930191019091610f9c565b610fe282610f73565b52565b906101d160ff6006610ff56106a6565b9461101761100a82546001600160a01b031690565b6001600160a01b03168752565b60018101546001600160a01b038116602088015265ffffffffffff60a082901c16604088015260d01c606087015261105160028201610f93565b6080870152600581015460a08701520154818116151560c086015261107e828260081c1660e08701610fd9565b60101c166101008401610fd9565b50634e487b7160e01b600052601160045260246000fd5b60029060021981116110b3570190565b6110bb61108c565b0190565b60019060011981116110b3570190565b811981116110b3570190565b50634e487b7160e01b600052600060045260246000fd5b8060001904821181151516611105570290565b61110d61108c565b0290565b906000905b6003821061112357505050565b6001602082829351865501930191019091611116565b9061114381610f73565b61ff0082549160081b169061ff001916179055565b9061116281610f73565b62ff000082549160101b169062ff00001916179055565b9061010060066101d1936111c061119785516001600160a01b031690565b825473ffffffffffffffffffffffffffffffffffffffff19166001600160a01b03909116178255565b61122a600182016111de61119760208801516001600160a01b031690565b6112186111f4604088015165ffffffffffff1690565b825465ffffffffffff60a01b191660a09190911b65ffffffffffff60a01b16178255565b606086015165ffffffffffff16610eec565b61123b608085015160028301611111565b60a084015160058201550191611257610f3760c0830151151590565b61126860e0820151610f5681610f73565b01519061127482610f73565b611158565b60019060001981146110b3570190565b919495926112a1878490600052602052604060002090565b6001600160a01b036112ba82546001600160a01b031690565b16151590816113ee575b506112d55750505050505050600090565b6112f660036112ee898490600052602052604060002090565b015460ff1690565b6113e257866113a69561132161131c6113bd9a6113999790600052602052604060002090565b610fe5565b9561132f60c0880151151590565b6113ce575b506113888661138361137261136c61135384516001600160a01b031690565b8d906001600160a01b0316600052602052604060002090565b546110bf565b809790600052602052604060002090565b611179565b85516001600160a01b031692611871565b516001600160a01b031690565b6001600160a01b0316600052602052604060002090565b6113c78154611279565b9055600190565b6001600160a01b0316602087015238611334565b50505050505050600090565b600601546002915060101c60ff1661140581610f73565b1415386112c4565b50634e487b7160e01b600052603260045260246000fd5b90600590600281101561143a575b020190600090565b61144261140d565b611432565b50634e487b7160e01b600052601260045260246000fd5b8115611468570490565b611470611447565b0490565b966114a79061148d6114cb9396959b9a9760ff95611424565b509a906001600160a01b0316600052602052604060002090565b67ffffffffffffffff8a541667ffffffffffffffff16600052602052604060002090565b541661151e57826114db91611770565b93841561151e57906114ee9392916116a2565b801561151257806003836115096114709460018901546110f2565b049501546110f2565b50509050600090600090565b50505050509050600090600090565b600382101561153e575b0190600090565b61154661140d565b611537565b818110611556570390565b61155e61108c565b0390565b67ffffffffffffffff6001911667fffffffffffffffe81116110b3570190565b9261164890600695611651949361166c989965ffffffffffff9283916115c1834216948b906001600160a01b03166001600160a01b0319825416179055565b6115e560018b019687906001600160a01b03166001600160a01b0319825416179055565b855465ffffffffffff60a01b191660a085901b65ffffffffffff60a01b1617865515611697578161ffff6103f05b1691821561168a575b160416809203811161167d575b82546001600160d01b0316910160d01b6001600160d01b031916179055565b60028301611111565b600060058201550191829060ff801983541691151516179055565b805462ffff00191662010000179055565b61168561108c565b611629565b611692611447565b61161c565b8161ffff6001611613565b919392600094600093845b8481106116bc57505050505050565b6116d86116c8826110bf565b8390600052602052604060002090565b9060068201549160ff808460101c16936116f185610f73565b6001809514611704575b505050016116ad565b1615611759576001600160a01b03808716908616145b611726575b80806116fb565b60029099919901611750610a388254611745610a388560010190600090565b019260020190600090565b0101973861171f565b828101546001600160a01b0386811691161461171a565b906040906117e46117948285906001600160a01b0316600052602052604060002090565b91600092838052602052838320546117bf8287906001600160a01b0316600052602052604060002090565b60018552602052848420540194906001600160a01b0316600052602052604060002090565b6002825260205220540190565b908160209103126100d7575190565b506040513d6000823e3d90fd5b1561181457565b60405162461bcd60e51b815260206004820152601460248201527f496e73756666696369656e742062616c616e63650000000000000000000000006044820152606490fd5b908160209103126100d7575161186e816106dc565b90565b92610dbb91610da361191795969496600388604051926080840184811067ffffffffffffffff82111761191a575b6040526001600160a01b0380881685526118f560208601918b83526040870193858552606088019560018752600052602052604060002096511686906001600160a01b03166001600160a01b0319825416179055565b51600185015551600284015551151591019060ff801983541691151516179055565b55565b611922610630565b61189f565b9080821461195b57908154906000915b600383106119455750505050565b6001809194019283549481840155019192611937565b5050565b60009081815581600181818401556005830190600284015b8281106119875750505560060155565b92835584928101611977565b80156119a1575b6000190190565b6119a961108c565b61199a56fea2646970667358221220e6521aeed8cdd19063023c65e2484718ebba60a40b7fe8e6f2f1f9225ac8518064736f6c634300080e0033",
  "devdoc": {
    "details": "Library containing complete function implementations moved from LendingPoolStakingV2",
    "kind": "dev",
    "methods": {
      "getClaimableRewards(mapping(uint256 => ILendingPoolStakingV2.Stake) storage,uint256,ILendingPoolStakingV2.RewardPeriod[2] storage,mapping(address => mapping(uint64 => bool)) storage,mapping(address => mapping(uint8 => uint256)) storage,uint256,address,address,address)": {
        "details": "Moved entirely from main contract to reduce bytecode"
      },
      "processClaim(mapping(uint256 => ILendingPoolStakingV2.Stake) storage,mapping(address => mapping(uint8 => uint256)) storage,uint256,mapping(address => mapping(uint64 => bool)) storage,ILendingPoolStakingV2.RewardPeriod storage,address,address,address)": {
        "details": "Moved entirely from main contract to reduce bytecode"
      },
      "processUnstake(ILendingPoolStakingV2.Stake storage,mapping(address => mapping(uint8 => uint256)) storage,address,address)": {
        "details": "Moved from main contract with all logic intact"
      }
    },
    "title": "StakingLib",
    "version": 1
  },
  "userdoc": {
    "kind": "user",
    "methods": {
      "calculatePoolRollOver(ILendingPoolStakingV2.RewardPeriod storage)": {
        "notice": "Calculates pool rollover amounts from previous period"
      },
      "calculateUserStakesTotal(mapping(uint256 => ILendingPoolStakingV2.Stake) storage,uint256,address,address)": {
        "notice": "Calculates total staked amount by a user for a specific token"
      },
      "closeCurrentPeriod(ILendingPoolStakingV2.RewardPeriod[2] storage,uint256,uint256,uint256)": {
        "notice": "Complete implementation of closing the current period"
      },
      "getClaimableRewards(mapping(uint256 => ILendingPoolStakingV2.Stake) storage,uint256,ILendingPoolStakingV2.RewardPeriod[2] storage,mapping(address => mapping(uint64 => bool)) storage,mapping(address => mapping(uint8 => uint256)) storage,uint256,address,address,address)": {
        "notice": "Complete implementation of getClaimableRewards"
      },
      "getTotalStakesForToken(mapping(address => mapping(uint8 => uint256)) storage,address)": {
        "notice": "Gets total staked amount for a token across all durations"
      },
      "lendingPoolTransfer(Vault,address,address,uint256)": {
        "notice": "Safely transfers assets from lending pool to recipient"
      },
      "processClaim(mapping(uint256 => ILendingPoolStakingV2.Stake) storage,mapping(address => mapping(uint8 => uint256)) storage,uint256,mapping(address => mapping(uint64 => bool)) storage,ILendingPoolStakingV2.RewardPeriod storage,address,address,address)": {
        "notice": "Complete implementation of claim function logic"
      },
      "processUnstake(ILendingPoolStakingV2.Stake storage,mapping(address => mapping(uint8 => uint256)) storage,address,address)": {
        "notice": "Process unstake operation completely"
      },
      "setStakeData(ILendingPoolStakingV2.Stake storage,address,uint256[3],address,uint48,bool,bool)": {
        "notice": "Create escrow stake with complete logic"
      }
    },
    "version": 1
  },
  "storageLayout": {
    "storage": [],
    "types": null
  }
}