{
  "address": "0xdd8288265d6C4610D06c992A759CA7E89118A52f",
  "abi": [
    {
      "inputs": [],
      "name": "AlreadyClaimed",
      "type": "error"
    },
    {
      "inputs": [],
      "name": "InsufficientBalance",
      "type": "error"
    },
    {
      "inputs": [
        {
          "internalType": "string",
          "name": "details",
          "type": "string"
        }
      ],
      "name": "InvalidArgument",
      "type": "error"
    },
    {
      "inputs": [],
      "name": "InvalidState",
      "type": "error"
    },
    {
      "inputs": [],
      "name": "NoRewardsAvailable",
      "type": "error"
    },
    {
      "inputs": [],
      "name": "NoStakeYet",
      "type": "error"
    },
    {
      "inputs": [],
      "name": "NotOwned",
      "type": "error"
    },
    {
      "inputs": [],
      "name": "StakeNotFound",
      "type": "error"
    },
    {
      "inputs": [],
      "name": "Unauthorized",
      "type": "error"
    },
    {
      "anonymous": false,
      "inputs": [
        {
          "indexed": false,
          "internalType": "address",
          "name": "previousAdmin",
          "type": "address"
        },
        {
          "indexed": false,
          "internalType": "address",
          "name": "newAdmin",
          "type": "address"
        }
      ],
      "name": "AdminChanged",
      "type": "event"
    },
    {
      "anonymous": false,
      "inputs": [
        {
          "indexed": true,
          "internalType": "address",
          "name": "owner",
          "type": "address"
        },
        {
          "indexed": true,
          "internalType": "address",
          "name": "approved",
          "type": "address"
        },
        {
          "indexed": true,
          "internalType": "uint256",
          "name": "tokenId",
          "type": "uint256"
        }
      ],
      "name": "Approval",
      "type": "event"
    },
    {
      "anonymous": false,
      "inputs": [
        {
          "indexed": true,
          "internalType": "address",
          "name": "owner",
          "type": "address"
        },
        {
          "indexed": true,
          "internalType": "address",
          "name": "operator",
          "type": "address"
        },
        {
          "indexed": false,
          "internalType": "bool",
          "name": "approved",
          "type": "bool"
        }
      ],
      "name": "ApprovalForAll",
      "type": "event"
    },
    {
      "anonymous": false,
      "inputs": [
        {
          "indexed": false,
          "internalType": "uint256",
          "name": "_fromTokenId",
          "type": "uint256"
        },
        {
          "indexed": false,
          "internalType": "uint256",
          "name": "_toTokenId",
          "type": "uint256"
        }
      ],
      "name": "BatchMetadataUpdate",
      "type": "event"
    },
    {
      "anonymous": false,
      "inputs": [
        {
          "indexed": true,
          "internalType": "uint256",
          "name": "startId",
          "type": "uint256"
        },
        {
          "indexed": false,
          "internalType": "uint256",
          "name": "endId",
          "type": "uint256"
        }
      ],
      "name": "BatchMigrationCompleted",
      "type": "event"
    },
    {
      "anonymous": false,
      "inputs": [
        {
          "indexed": true,
          "internalType": "address",
          "name": "beacon",
          "type": "address"
        }
      ],
      "name": "BeaconUpgraded",
      "type": "event"
    },
    {
      "anonymous": false,
      "inputs": [
        {
          "indexed": true,
          "internalType": "uint256",
          "name": "stakeId",
          "type": "uint256"
        },
        {
          "indexed": false,
          "internalType": "enum ILendingPoolStakingV2.EscrowStatus",
          "name": "status",
          "type": "uint8"
        }
      ],
      "name": "EscrowStatusChanged",
      "type": "event"
    },
    {
      "anonymous": false,
      "inputs": [],
      "name": "InflationRewardDistributed",
      "type": "event"
    },
    {
      "anonymous": false,
      "inputs": [
        {
          "indexed": false,
          "internalType": "uint8",
          "name": "version",
          "type": "uint8"
        }
      ],
      "name": "Initialized",
      "type": "event"
    },
    {
      "anonymous": false,
      "inputs": [
        {
          "indexed": false,
          "internalType": "uint256",
          "name": "_tokenId",
          "type": "uint256"
        }
      ],
      "name": "MetadataUpdate",
      "type": "event"
    },
    {
      "anonymous": false,
      "inputs": [
        {
          "indexed": false,
          "internalType": "uint64",
          "name": "periodId",
          "type": "uint64"
        },
        {
          "indexed": false,
          "internalType": "uint64",
          "name": "timestamp",
          "type": "uint64"
        }
      ],
      "name": "NewPeriodStarted",
      "type": "event"
    },
    {
      "anonymous": false,
      "inputs": [
        {
          "indexed": true,
          "internalType": "address",
          "name": "previousOwner",
          "type": "address"
        },
        {
          "indexed": true,
          "internalType": "address",
          "name": "newOwner",
          "type": "address"
        }
      ],
      "name": "OwnershipTransferred",
      "type": "event"
    },
    {
      "anonymous": false,
      "inputs": [
        {
          "indexed": true,
          "internalType": "uint256",
          "name": "stakeId",
          "type": "uint256"
        },
        {
          "indexed": true,
          "internalType": "address",
          "name": "user",
          "type": "address"
        },
        {
          "indexed": true,
          "internalType": "address",
          "name": "token",
          "type": "address"
        },
        {
          "indexed": false,
          "internalType": "uint256",
          "name": "inflationReward",
          "type": "uint256"
        },
        {
          "indexed": false,
          "internalType": "uint256",
          "name": "ifpReward",
          "type": "uint256"
        },
        {
          "indexed": false,
          "internalType": "uint64",
          "name": "periodId",
          "type": "uint64"
        }
      ],
      "name": "RewardsClaimed",
      "type": "event"
    },
    {
      "anonymous": false,
      "inputs": [
        {
          "indexed": true,
          "internalType": "uint256",
          "name": "stakeId",
          "type": "uint256"
        },
        {
          "indexed": false,
          "internalType": "enum ILendingPoolStakingV2.StakeStatus",
          "name": "status",
          "type": "uint8"
        }
      ],
      "name": "StakeStatusChanged",
      "type": "event"
    },
    {
      "anonymous": false,
      "inputs": [
        {
          "indexed": true,
          "internalType": "uint256",
          "name": "stakeId",
          "type": "uint256"
        },
        {
          "indexed": true,
          "internalType": "address",
          "name": "staker",
          "type": "address"
        },
        {
          "indexed": true,
          "internalType": "address",
          "name": "token",
          "type": "address"
        },
        {
          "indexed": false,
          "internalType": "uint48",
          "name": "start",
          "type": "uint48"
        },
        {
          "indexed": false,
          "internalType": "uint48",
          "name": "end",
          "type": "uint48"
        },
        {
          "indexed": false,
          "internalType": "uint256[3]",
          "name": "amountsPerDuration",
          "type": "uint256[3]"
        },
        {
          "indexed": false,
          "internalType": "bool",
          "name": "isEscrow",
          "type": "bool"
        }
      ],
      "name": "Staked",
      "type": "event"
    },
    {
      "anonymous": false,
      "inputs": [
        {
          "indexed": true,
          "internalType": "address",
          "name": "from",
          "type": "address"
        },
        {
          "indexed": true,
          "internalType": "address",
          "name": "to",
          "type": "address"
        },
        {
          "indexed": true,
          "internalType": "uint256",
          "name": "tokenId",
          "type": "uint256"
        }
      ],
      "name": "Transfer",
      "type": "event"
    },
    {
      "anonymous": false,
      "inputs": [
        {
          "indexed": true,
          "internalType": "address",
          "name": "implementation",
          "type": "address"
        }
      ],
      "name": "Upgraded",
      "type": "event"
    },
    {
      "inputs": [],
      "name": "REWARD_PERIOD_LENGTH",
      "outputs": [
        {
          "internalType": "uint8",
          "name": "",
          "type": "uint8"
        }
      ],
      "stateMutability": "view",
      "type": "function"
    },
    {
      "inputs": [],
      "name": "__Testing_init",
      "outputs": [],
      "stateMutability": "nonpayable",
      "type": "function"
    },
    {
      "inputs": [
        {
          "internalType": "address",
          "name": "",
          "type": "address"
        }
      ],
      "name": "activeStakeTokens",
      "outputs": [
        {
          "internalType": "bool",
          "name": "",
          "type": "bool"
        }
      ],
      "stateMutability": "view",
      "type": "function"
    },
    {
      "inputs": [],
      "name": "activeStakesCount",
      "outputs": [
        {
          "internalType": "uint256",
          "name": "",
          "type": "uint256"
        }
      ],
      "stateMutability": "view",
      "type": "function"
    },
    {
      "inputs": [
        {
          "internalType": "address",
          "name": "_stakeToken",
          "type": "address"
        }
      ],
      "name": "addStakeToken",
      "outputs": [],
      "stateMutability": "nonpayable",
      "type": "function"
    },
    {
      "inputs": [
        {
          "internalType": "address",
          "name": "to",
          "type": "address"
        },
        {
          "internalType": "uint256",
          "name": "tokenId",
          "type": "uint256"
        }
      ],
      "name": "approve",
      "outputs": [],
      "stateMutability": "nonpayable",
      "type": "function"
    },
    {
      "inputs": [
        {
          "internalType": "address",
          "name": "operator",
          "type": "address"
        },
        {
          "internalType": "string",
          "name": "role",
          "type": "string"
        },
        {
          "internalType": "bool",
          "name": "authorized",
          "type": "bool"
        }
      ],
      "name": "authorize",
      "outputs": [],
      "stateMutability": "nonpayable",
      "type": "function"
    },
    {
      "inputs": [
        {
          "internalType": "address",
          "name": "owner",
          "type": "address"
        }
      ],
      "name": "balanceOf",
      "outputs": [
        {
          "internalType": "uint256",
          "name": "",
          "type": "uint256"
        }
      ],
      "stateMutability": "view",
      "type": "function"
    },
    {
      "inputs": [
        {
          "internalType": "address",
          "name": "_token",
          "type": "address"
        }
      ],
      "name": "claim",
      "outputs": [],
      "stateMutability": "nonpayable",
      "type": "function"
    },
    {
      "inputs": [
        {
          "internalType": "address",
          "name": "_token",
          "type": "address"
        },
        {
          "internalType": "uint256",
          "name": "_amount",
          "type": "uint256"
        },
        {
          "internalType": "uint8",
          "name": "_durationId",
          "type": "uint8"
        }
      ],
      "name": "deposit",
      "outputs": [],
      "stateMutability": "payable",
      "type": "function"
    },
    {
      "inputs": [
        {
          "internalType": "uint256",
          "name": "_inflationReward",
          "type": "uint256"
        }
      ],
      "name": "distributeInflationRewards",
      "outputs": [],
      "stateMutability": "nonpayable",
      "type": "function"
    },
    {
      "inputs": [],
      "name": "escrowLockPeriod",
      "outputs": [
        {
          "internalType": "uint48",
          "name": "",
          "type": "uint48"
        }
      ],
      "stateMutability": "view",
      "type": "function"
    },
    {
      "inputs": [
        {
          "internalType": "uint256",
          "name": "tokenId",
          "type": "uint256"
        }
      ],
      "name": "getApproved",
      "outputs": [
        {
          "internalType": "address",
          "name": "",
          "type": "address"
        }
      ],
      "stateMutability": "view",
      "type": "function"
    },
    {
      "inputs": [
        {
          "internalType": "address",
          "name": "_user",
          "type": "address"
        },
        {
          "internalType": "address",
          "name": "_token",
          "type": "address"
        }
      ],
      "name": "getClaimableRewards",
      "outputs": [
        {
          "internalType": "uint256",
          "name": "inflationReward",
          "type": "uint256"
        },
        {
          "internalType": "uint256",
          "name": "ifpReward",
          "type": "uint256"
        }
      ],
      "stateMutability": "view",
      "type": "function"
    },
    {
      "inputs": [],
      "name": "getCurrentPeriodId",
      "outputs": [
        {
          "internalType": "uint256",
          "name": "",
          "type": "uint256"
        }
      ],
      "stateMutability": "view",
      "type": "function"
    },
    {
      "inputs": [],
      "name": "getPoolRollOver",
      "outputs": [
        {
          "internalType": "uint256",
          "name": "inflationRewardRemained",
          "type": "uint256"
        }
      ],
      "stateMutability": "view",
      "type": "function"
    },
    {
      "inputs": [
        {
          "internalType": "address",
          "name": "_user",
          "type": "address"
        },
        {
          "internalType": "uint256",
          "name": "_index",
          "type": "uint256"
        }
      ],
      "name": "getStakeByUserIndex",
      "outputs": [
        {
          "components": [
            {
              "internalType": "address",
              "name": "staker",
              "type": "address"
            },
            {
              "internalType": "address",
              "name": "token",
              "type": "address"
            },
            {
              "internalType": "uint48",
              "name": "start",
              "type": "uint48"
            },
            {
              "internalType": "uint48",
              "name": "end",
              "type": "uint48"
            },
            {
              "internalType": "uint256[3]",
              "name": "amountsPerDuration",
              "type": "uint256[3]"
            },
            {
              "internalType": "uint256",
              "name": "rewardAllocated",
              "type": "uint256"
            },
            {
              "internalType": "bool",
              "name": "isEscrow",
              "type": "bool"
            },
            {
              "internalType": "enum ILendingPoolStakingV2.EscrowStatus",
              "name": "escrowStatus",
              "type": "uint8"
            },
            {
              "internalType": "enum ILendingPoolStakingV2.StakeStatus",
              "name": "stakeStatus",
              "type": "uint8"
            }
          ],
          "internalType": "struct ILendingPoolStakingV2.Stake",
          "name": "",
          "type": "tuple"
        }
      ],
      "stateMutability": "view",
      "type": "function"
    },
    {
      "inputs": [
        {
          "internalType": "uint256",
          "name": "_stakeId",
          "type": "uint256"
        }
      ],
      "name": "getStakeEntry",
      "outputs": [
        {
          "components": [
            {
              "internalType": "address",
              "name": "user",
              "type": "address"
            },
            {
              "internalType": "uint256",
              "name": "userIndex",
              "type": "uint256"
            },
            {
              "internalType": "uint256",
              "name": "stakeId",
              "type": "uint256"
            },
            {
              "internalType": "bool",
              "name": "exists",
              "type": "bool"
            }
          ],
          "internalType": "struct ILendingPoolStakingV2.StakeMappingEntry",
          "name": "",
          "type": "tuple"
        }
      ],
      "stateMutability": "view",
      "type": "function"
    },
    {
      "inputs": [
        {
          "internalType": "address",
          "name": "_user",
          "type": "address"
        },
        {
          "internalType": "uint256",
          "name": "_userIndex",
          "type": "uint256"
        }
      ],
      "name": "getUserStakeId",
      "outputs": [
        {
          "internalType": "uint256",
          "name": "",
          "type": "uint256"
        }
      ],
      "stateMutability": "view",
      "type": "function"
    },
    {
      "inputs": [
        {
          "internalType": "uint256",
          "name": "_stakeId",
          "type": "uint256"
        }
      ],
      "name": "getUserStakeIndex",
      "outputs": [
        {
          "internalType": "uint256",
          "name": "",
          "type": "uint256"
        }
      ],
      "stateMutability": "view",
      "type": "function"
    },
    {
      "inputs": [
        {
          "internalType": "address",
          "name": "_user",
          "type": "address"
        },
        {
          "internalType": "address",
          "name": "_token",
          "type": "address"
        }
      ],
      "name": "getUserStakesTotal",
      "outputs": [
        {
          "internalType": "uint256",
          "name": "",
          "type": "uint256"
        }
      ],
      "stateMutability": "view",
      "type": "function"
    },
    {
      "inputs": [
        {
          "internalType": "address",
          "name": "",
          "type": "address"
        },
        {
          "internalType": "string",
          "name": "",
          "type": "string"
        }
      ],
      "name": "hasRole",
      "outputs": [
        {
          "internalType": "bool",
          "name": "",
          "type": "bool"
        }
      ],
      "stateMutability": "view",
      "type": "function"
    },
    {
      "inputs": [
        {
          "internalType": "address",
          "name": "",
          "type": "address"
        }
      ],
      "name": "inflationRollOver",
      "outputs": [
        {
          "internalType": "uint256",
          "name": "",
          "type": "uint256"
        }
      ],
      "stateMutability": "view",
      "type": "function"
    },
    {
      "inputs": [
        {
          "internalType": "address",
          "name": "_nend",
          "type": "address"
        },
        {
          "internalType": "contract Vault",
          "name": "_lendingPool",
          "type": "address"
        }
      ],
      "name": "initialize",
      "outputs": [],
      "stateMutability": "nonpayable",
      "type": "function"
    },
    {
      "inputs": [
        {
          "internalType": "address",
          "name": "owner",
          "type": "address"
        },
        {
          "internalType": "address",
          "name": "operator",
          "type": "address"
        }
      ],
      "name": "isApprovedForAll",
      "outputs": [
        {
          "internalType": "bool",
          "name": "",
          "type": "bool"
        }
      ],
      "stateMutability": "view",
      "type": "function"
    },
    {
      "inputs": [
        {
          "internalType": "uint256",
          "name": "_stakeId",
          "type": "uint256"
        }
      ],
      "name": "issueEAB",
      "outputs": [],
      "stateMutability": "nonpayable",
      "type": "function"
    },
    {
      "inputs": [
        {
          "internalType": "address",
          "name": "",
          "type": "address"
        },
        {
          "internalType": "uint8",
          "name": "",
          "type": "uint8"
        }
      ],
      "name": "lastEscrowRewardByToken_Duration",
      "outputs": [
        {
          "internalType": "uint256",
          "name": "",
          "type": "uint256"
        }
      ],
      "stateMutability": "view",
      "type": "function"
    },
    {
      "inputs": [],
      "name": "lendingPool",
      "outputs": [
        {
          "internalType": "contract Vault",
          "name": "",
          "type": "address"
        }
      ],
      "stateMutability": "view",
      "type": "function"
    },
    {
      "inputs": [
        {
          "internalType": "uint256",
          "name": "startId",
          "type": "uint256"
        },
        {
          "internalType": "uint256",
          "name": "batchSize",
          "type": "uint256"
        }
      ],
      "name": "migrateStakesInBatch",
      "outputs": [],
      "stateMutability": "nonpayable",
      "type": "function"
    },
    {
      "inputs": [],
      "name": "name",
      "outputs": [
        {
          "internalType": "string",
          "name": "",
          "type": "string"
        }
      ],
      "stateMutability": "view",
      "type": "function"
    },
    {
      "inputs": [],
      "name": "nend",
      "outputs": [
        {
          "internalType": "address",
          "name": "",
          "type": "address"
        }
      ],
      "stateMutability": "view",
      "type": "function"
    },
    {
      "inputs": [],
      "name": "nextStakeId",
      "outputs": [
        {
          "internalType": "uint256",
          "name": "",
          "type": "uint256"
        }
      ],
      "stateMutability": "view",
      "type": "function"
    },
    {
      "inputs": [],
      "name": "owner",
      "outputs": [
        {
          "internalType": "address",
          "name": "",
          "type": "address"
        }
      ],
      "stateMutability": "view",
      "type": "function"
    },
    {
      "inputs": [
        {
          "internalType": "uint256",
          "name": "tokenId",
          "type": "uint256"
        }
      ],
      "name": "ownerOf",
      "outputs": [
        {
          "internalType": "address",
          "name": "",
          "type": "address"
        }
      ],
      "stateMutability": "view",
      "type": "function"
    },
    {
      "inputs": [],
      "name": "poolRollOver",
      "outputs": [
        {
          "internalType": "uint256",
          "name": "",
          "type": "uint256"
        }
      ],
      "stateMutability": "view",
      "type": "function"
    },
    {
      "inputs": [],
      "name": "proxiableUUID",
      "outputs": [
        {
          "internalType": "bytes32",
          "name": "",
          "type": "bytes32"
        }
      ],
      "stateMutability": "view",
      "type": "function"
    },
    {
      "inputs": [
        {
          "internalType": "uint256",
          "name": "",
          "type": "uint256"
        }
      ],
      "name": "recentPeriods",
      "outputs": [
        {
          "internalType": "uint64",
          "name": "periodId",
          "type": "uint64"
        },
        {
          "internalType": "uint64",
          "name": "startTime",
          "type": "uint64"
        },
        {
          "internalType": "uint256",
          "name": "rewardsToDistribute",
          "type": "uint256"
        },
        {
          "internalType": "uint256",
          "name": "rewardsStaked",
          "type": "uint256"
        }
      ],
      "stateMutability": "view",
      "type": "function"
    },
    {
      "inputs": [
        {
          "internalType": "address",
          "name": "_stakeToken",
          "type": "address"
        }
      ],
      "name": "removeStakeToken",
      "outputs": [],
      "stateMutability": "nonpayable",
      "type": "function"
    },
    {
      "inputs": [],
      "name": "renounceOwnership",
      "outputs": [],
      "stateMutability": "nonpayable",
      "type": "function"
    },
    {
      "inputs": [
        {
          "internalType": "uint256",
          "name": "",
          "type": "uint256"
        }
      ],
      "name": "rewardAllocations",
      "outputs": [
        {
          "internalType": "uint8",
          "name": "",
          "type": "uint8"
        }
      ],
      "stateMutability": "view",
      "type": "function"
    },
    {
      "inputs": [
        {
          "internalType": "address",
          "name": "from",
          "type": "address"
        },
        {
          "internalType": "address",
          "name": "to",
          "type": "address"
        },
        {
          "internalType": "uint256",
          "name": "tokenId",
          "type": "uint256"
        }
      ],
      "name": "safeTransferFrom",
      "outputs": [],
      "stateMutability": "nonpayable",
      "type": "function"
    },
    {
      "inputs": [
        {
          "internalType": "address",
          "name": "from",
          "type": "address"
        },
        {
          "internalType": "address",
          "name": "to",
          "type": "address"
        },
        {
          "internalType": "uint256",
          "name": "tokenId",
          "type": "uint256"
        },
        {
          "internalType": "bytes",
          "name": "data",
          "type": "bytes"
        }
      ],
      "name": "safeTransferFrom",
      "outputs": [],
      "stateMutability": "nonpayable",
      "type": "function"
    },
    {
      "inputs": [
        {
          "internalType": "address",
          "name": "operator",
          "type": "address"
        },
        {
          "internalType": "bool",
          "name": "approved",
          "type": "bool"
        }
      ],
      "name": "setApprovalForAll",
      "outputs": [],
      "stateMutability": "nonpayable",
      "type": "function"
    },
    {
      "inputs": [
        {
          "internalType": "uint8[3]",
          "name": "_rewardAllocations",
          "type": "uint8[3]"
        }
      ],
      "name": "setRewardAllocations",
      "outputs": [],
      "stateMutability": "nonpayable",
      "type": "function"
    },
    {
      "inputs": [
        {
          "internalType": "bool",
          "name": "_deprecated",
          "type": "bool"
        }
      ],
      "name": "setStakesDeprecated",
      "outputs": [],
      "stateMutability": "nonpayable",
      "type": "function"
    },
    {
      "inputs": [
        {
          "internalType": "bool",
          "name": "_testing",
          "type": "bool"
        }
      ],
      "name": "setTesting",
      "outputs": [],
      "stateMutability": "nonpayable",
      "type": "function"
    },
    {
      "inputs": [
        {
          "internalType": "uint256",
          "name": "_tokenId",
          "type": "uint256"
        },
        {
          "internalType": "string",
          "name": "_tokenURI",
          "type": "string"
        }
      ],
      "name": "setTokenURI",
      "outputs": [],
      "stateMutability": "nonpayable",
      "type": "function"
    },
    {
      "inputs": [
        {
          "internalType": "uint256",
          "name": "",
          "type": "uint256"
        }
      ],
      "name": "stakeDurations",
      "outputs": [
        {
          "internalType": "uint48",
          "name": "",
          "type": "uint48"
        }
      ],
      "stateMutability": "view",
      "type": "function"
    },
    {
      "inputs": [
        {
          "internalType": "uint256",
          "name": "_stakeId",
          "type": "uint256"
        }
      ],
      "name": "stakeEscrowedReward",
      "outputs": [],
      "stateMutability": "nonpayable",
      "type": "function"
    },
    {
      "inputs": [],
      "name": "stakeTokenCount",
      "outputs": [
        {
          "internalType": "uint256",
          "name": "",
          "type": "uint256"
        }
      ],
      "stateMutability": "view",
      "type": "function"
    },
    {
      "inputs": [
        {
          "internalType": "uint256",
          "name": "",
          "type": "uint256"
        }
      ],
      "name": "stakeTokens",
      "outputs": [
        {
          "internalType": "address",
          "name": "",
          "type": "address"
        }
      ],
      "stateMutability": "view",
      "type": "function"
    },
    {
      "inputs": [
        {
          "internalType": "uint256",
          "name": "",
          "type": "uint256"
        }
      ],
      "name": "stakes",
      "outputs": [
        {
          "internalType": "address",
          "name": "staker",
          "type": "address"
        },
        {
          "internalType": "address",
          "name": "token",
          "type": "address"
        },
        {
          "internalType": "uint48",
          "name": "start",
          "type": "uint48"
        },
        {
          "internalType": "uint48",
          "name": "end",
          "type": "uint48"
        },
        {
          "internalType": "uint256",
          "name": "rewardAllocated",
          "type": "uint256"
        },
        {
          "internalType": "bool",
          "name": "isEscrow",
          "type": "bool"
        },
        {
          "internalType": "enum ILendingPoolStakingV2.EscrowStatus",
          "name": "escrowStatus",
          "type": "uint8"
        },
        {
          "internalType": "enum ILendingPoolStakingV2.StakeStatus",
          "name": "stakeStatus",
          "type": "uint8"
        }
      ],
      "stateMutability": "view",
      "type": "function"
    },
    {
      "inputs": [],
      "name": "stakesDeprecated",
      "outputs": [
        {
          "internalType": "bool",
          "name": "",
          "type": "bool"
        }
      ],
      "stateMutability": "view",
      "type": "function"
    },
    {
      "inputs": [
        {
          "internalType": "bytes4",
          "name": "interfaceId",
          "type": "bytes4"
        }
      ],
      "name": "supportsInterface",
      "outputs": [
        {
          "internalType": "bool",
          "name": "",
          "type": "bool"
        }
      ],
      "stateMutability": "view",
      "type": "function"
    },
    {
      "inputs": [],
      "name": "symbol",
      "outputs": [
        {
          "internalType": "string",
          "name": "",
          "type": "string"
        }
      ],
      "stateMutability": "view",
      "type": "function"
    },
    {
      "inputs": [],
      "name": "testing",
      "outputs": [
        {
          "internalType": "bool",
          "name": "",
          "type": "bool"
        }
      ],
      "stateMutability": "view",
      "type": "function"
    },
    {
      "inputs": [
        {
          "internalType": "uint256",
          "name": "tokenId",
          "type": "uint256"
        }
      ],
      "name": "tokenURI",
      "outputs": [
        {
          "internalType": "string",
          "name": "",
          "type": "string"
        }
      ],
      "stateMutability": "view",
      "type": "function"
    },
    {
      "inputs": [
        {
          "internalType": "address",
          "name": "",
          "type": "address"
        },
        {
          "internalType": "uint8",
          "name": "",
          "type": "uint8"
        }
      ],
      "name": "totalStakedByToken_Duration",
      "outputs": [
        {
          "internalType": "uint256",
          "name": "",
          "type": "uint256"
        }
      ],
      "stateMutability": "view",
      "type": "function"
    },
    {
      "inputs": [
        {
          "internalType": "address",
          "name": "from",
          "type": "address"
        },
        {
          "internalType": "address",
          "name": "to",
          "type": "address"
        },
        {
          "internalType": "uint256",
          "name": "tokenId",
          "type": "uint256"
        }
      ],
      "name": "transferFrom",
      "outputs": [],
      "stateMutability": "nonpayable",
      "type": "function"
    },
    {
      "inputs": [
        {
          "internalType": "address",
          "name": "newOwner",
          "type": "address"
        }
      ],
      "name": "transferOwnership",
      "outputs": [],
      "stateMutability": "nonpayable",
      "type": "function"
    },
    {
      "inputs": [
        {
          "internalType": "uint256",
          "name": "_stakeId",
          "type": "uint256"
        }
      ],
      "name": "unstake",
      "outputs": [],
      "stateMutability": "nonpayable",
      "type": "function"
    },
    {
      "inputs": [
        {
          "internalType": "address",
          "name": "newImplementation",
          "type": "address"
        }
      ],
      "name": "upgradeTo",
      "outputs": [],
      "stateMutability": "nonpayable",
      "type": "function"
    },
    {
      "inputs": [
        {
          "internalType": "address",
          "name": "newImplementation",
          "type": "address"
        },
        {
          "internalType": "bytes",
          "name": "data",
          "type": "bytes"
        }
      ],
      "name": "upgradeToAndCall",
      "outputs": [],
      "stateMutability": "payable",
      "type": "function"
    },
    {
      "inputs": [
        {
          "internalType": "address",
          "name": "",
          "type": "address"
        }
      ],
      "name": "userStakesCount",
      "outputs": [
        {
          "internalType": "uint256",
          "name": "",
          "type": "uint256"
        }
      ],
      "stateMutability": "view",
      "type": "function"
    }
  ],
  "transactionHash": "0x11c26de94976b43731139d62e5329ba5e7ddd86e45275551c40a5345a5dc536f",
  "args": [],
  "numDeployments": 12,
  "solcInputHash": "91ccc50093d51b522d042f13aacf8884",
  "bytecode": "0x60a0604052346200011e576000546200003260ff8260081c1615809281936200010f575b8115620000ec575b5062000123565b8062000046600160ff196000541617600055565b620000d1575b6200005c60ff1960fb541660fb55565b6200008d575b30608052604051615ef9908162000188823960805181818161183d015281816120f3015261238d0152f35b6200009e61ff001960005416600055565b604051600181527f7f26b83ff96e1f2b6a682f133852f6798a09c465da95921460cefb384740249890602090a162000062565b620000e661010061ff00196000541617600055565b6200004c565b303b1591508162000100575b50386200002b565b6001915060ff161438620000f8565b600160ff821610915062000023565b600080fd5b156200012b57565b60405162461bcd60e51b815260206004820152602e60248201527f496e697469616c697a61626c653a20636f6e747261637420697320616c72656160448201526d191e481a5b9a5d1a585b1a5e995960921b6064820152608490fdfe60806040526004361015610013575b600080fd5b60003560e01c806301ffc9a71461051357806306fdde031461050a578063081812fc1461050157806308ed8d16146104f8578063095ea7b3146104ef578063125cc42f146104e6578063162094c4146104dd578063166866c7146104d4578063193cf2bf146104cb5780631dbd2086146104c25780631e83409a146104b95780631fecb71a146104b0578063217fe6c6146104a75780632372b28a1461049e57806323b872dd14610495578063273d87e21461048c5780632e17de78146104835780633431d6311461047a5780633659cfe614610471578063396b62471461046857806339d2525f1461045f5780633c661b8b146104565780633de15c121461044d57806342842e0e14610444578063485cc9551461043b5780634f1ef28614610432578063528a9e4d1461042957806352d1902d146104205780635413aa3b146104175780636352211e1461040e57806370a0823114610405578063715018a6146103fc57806372a4db4a146103f35780637547c7a3146103ea57806375506c96146103e157806382952200146103d8578063848778b4146103cf5780638d03b102146103c65780638da5cb5b146103bd57806395d89b41146103b45780639db5fa65146103ab578063a22cb465146103a2578063a59a997314610399578063b5bc853414610390578063b88d4fde14610387578063ba5e4bad1461037e578063bad7edab14610375578063bf0215501461036c578063c1592dbc14610363578063c436e3181461035a578063c51046a314610351578063c87b56dd14610348578063d2438c2a1461033f578063d495caaa14610336578063d5a44f861461032d578063d88fe69914610324578063de3e3eff1461031b578063e25b7d8214610312578063e985e9c514610309578063ef7bd7f314610300578063f19ed6be146102f7578063f2fde38b146102ee578063f56f4f0f146102e55763fe863ac1146102dd57600080fd5b61000e6136e6565b5061000e61359a565b5061000e613508565b5061000e61316b565b5061000e61314b565b5061000e6130fb565b5061000e6130d3565b5061000e61308f565b5061000e613006565b5061000e612f6c565b5061000e612e1d565b5061000e612cee565b5061000e612cba565b5061000e612c93565b5061000e612c73565b5061000e612c33565b5061000e612bdf565b5061000e612af1565b5061000e612ad1565b5061000e612a79565b5061000e612a54565b5061000e612a2b565b5061000e612939565b5061000e6128dc565b5061000e612834565b5061000e61280c565b5061000e6127e8565b5061000e6127a8565b5061000e61277f565b5061000e61275f565b5061000e612703565b5061000e612661565b5061000e6125d3565b5061000e61252d565b5061000e61250e565b5061000e612449565b5061000e612371565b5061000e612247565b5061000e6120ad565b5061000e611fb3565b5061000e611f8a565b5061000e611aed565b5061000e611ab1565b5061000e6119d5565b5061000e6119a6565b5061000e611813565b5061000e6117d1565b5061000e611468565b5061000e61127e565b5061000e611254565b5061000e611126565b5061000e611072565b5061000e610fd3565b5061000e610e0d565b5061000e610df0565b5061000e610d35565b5061000e610c61565b5061000e610a48565b5061000e61088e565b5061000e610795565b5061000e610747565b5061000e61070d565b5061000e610630565b5061000e61052e565b6001600160e01b031981160361000e57565b503461000e57602036600319011261000e57602060043561054e8161051c565b63ffffffff60e01b16632483248360e11b8114908115610574575b506040519015158152f35b6380ac58cd60e01b8114915081156105a6575b8115610595575b5038610569565b6301ffc9a760e01b1490503861058e565b635b5e139f60e01b81149150610587565b600091031261000e57565b918091926000905b8282106105e25750116105db575050565b6000910152565b915080602091830151818601520182916105ca565b90602091610610815180928185528580860191016105c2565b601f01601f1916010190565b90602061062d9281815201906105f7565b90565b503461000e5760008060031936011261070a57604051908060655461065481613b44565b808552916001918083169081156106e9575060011461068e575b61068a8561067e81870382610998565b6040519182918261061c565b0390f35b9250606583527f8ff97419363ffd7000167f130ef7168fbea05faf9251824ca5043f113cc6a7c75b8284106106d157505050810160200161067e8261068a61066e565b805460208587018101919091529093019281016106b6565b60ff19166020870152505060408401925061067e915083905061068a61066e565b80fd5b503461000e57602036600319011261000e57602061072c600435613bf0565b6001600160a01b0360405191168152f35b8015150361000e57565b503461000e57602036600319011261000e576004356107658161073d565b61076d613734565b60ff801960fb5416911515161760fb556000604051f35b6001600160a01b0381160361000e57565b503461000e57604036600319011261000e576004356107b381610784565b6024356107bf81613b22565b916001600160a01b03808416809183161461083f576107f1936107ec9133149081156107f3575b50613b7e565b613f65565b005b61083991506108329061081a33916001600160a01b0316600052606a602052604060002090565b906001600160a01b0316600052602052604060002090565b5460ff1690565b386107e6565b60405162461bcd60e51b815260206004820152602160248201527f4552433732313a20617070726f76616c20746f2063757272656e74206f776e656044820152603960f91b6064820152608490fd5b503461000e57602036600319011261000e576001600160a01b036004356108b481610784565b16600052610163602052602060ff604060002054166040519015158152f35b50634e487b7160e01b600052604160045260246000fd5b6080810190811067ffffffffffffffff82111761090657604052565b61090e6108d3565b604052565b67ffffffffffffffff811161090657604052565b610120810190811067ffffffffffffffff82111761090657604052565b6020810190811067ffffffffffffffff82111761090657604052565b6060810190811067ffffffffffffffff82111761090657604052565b6040810190811067ffffffffffffffff82111761090657604052565b90601f8019910116810190811067ffffffffffffffff82111761090657604052565b604051906109c782610927565b565b604051906109c782610960565b60209067ffffffffffffffff81116109f4575b601f01601f19160190565b6109fc6108d3565b6109e9565b81601f8201121561000e57803590610a18826109d6565b92610a266040519485610998565b8284526020838301011161000e57816000926020809301838601378301015290565b503461000e57604036600319011261000e5760043567ffffffffffffffff60243581811161000e57610a7e903690600401610a01565b91610a87613734565b610aa78160005260676020526001600160a01b0360406000205416151590565b15610bf6576000918183526020906097825260408420918551918211610be9575b610adc82610ad68554613b44565b85614cde565b80601f8311600114610b5357509080610b4094939286977ff8e1a15aba9398e019f0b49df1a4fde98ee17ae345cb5f6b5e2c27f5033e8ce79792610b48575b50508160011b916000199060031b1c19161790555b6040519081529081906020820190565b0390a1604051f35b015190503880610b1b565b90601f19831696610b6985600052602060002090565b9287905b898210610bd1575050918391600193610b409796957ff8e1a15aba9398e019f0b49df1a4fde98ee17ae345cb5f6b5e2c27f5033e8ce7999a10610bb8575b505050811b019055610b30565b015160001960f88460031b161c19169055388080610bab565b80600185968294968601518155019501930190610b6d565b610bf16108d3565b610ac8565b60405162461bcd60e51b815260206004820152602e60248201527f45524337323155524953746f726167653a2055524920736574206f66206e6f6e60448201527f6578697374656e7420746f6b656e0000000000000000000000000000000000006064820152608490fd5b503461000e5760208060031936011261000e57600435610c8081610784565b610c8861444a565b90610cac6001600160a01b0392848460c954163314918215610cfa575b505061446b565b1690816000526101639182825260ff60406000205416610cc857005b61016780548015610ced575b60001901905560005252604060002060ff198154169055005b610cf56143fa565b610cd4565b60ff925090610d23913360005260fc8252604060002082604051948386809551938492016105c2565b82019081520301902054168438610ca5565b503461000e57602036600319011261000e5761068a60408060608151610d5a816108ea565b600091818380935282602082015282858201520152600435815261017f602052209060ff6003825193610d8c856108ea565b6001600160a01b0381541685526001810154602086015260028101548486015201541615156060830152519182918291909160608060808301946001600160a01b038151168452602081015160208501526040810151604085015201511515910152565b503461000e57600036600319011261000e57602060405160028152f35b503461000e57602036600319011261000e57600435610e2b81610784565b806060610e366144b7565b33600090815261017c6020908152604080832061017d909252909120610eca905491610e6b610161546001600160a01b031690565b6040516325bd5c4960e01b8152600481019290925261016e6024830152604482019390935261017e606482015260848101939093526001600160a01b0395861660a4840152941660c48201523360e48201529283908190610104820190565b038173f2069d5a633eC29852567aDf8a647F7031c1Eb615af48015610fc6575b60009182938392610f63575b506001600160a01b0381610f5e610f3087877f476aa07c80fdb833cf2d719981e9f22c1e10dbace79a96a1a8a055d6defc19189633615174565b94604051938493169733978491604091949367ffffffffffffffff9160608501968552602085015216910152565b0390a4005b7f476aa07c80fdb833cf2d719981e9f22c1e10dbace79a96a1a8a055d6defc191894506001600160a01b039350610fb291925060603d8111610fbf575b610faa8183610998565b810190615148565b9491939094929150610ef6565b503d610fa0565b610fce6138ba565b610eea565b503461000e57602036600319011261000e576107f1600435610ff481610784565b61101b610fff61444a565b6001600160a01b0360c954163314908115611020575b5061446b565b615792565b60ff9150602061104a913360005260fc8252604060002082604051948386809551938492016105c2565b820190815203019020541638611015565b9061106e602092828151948592016105c2565b0190565b503461000e57604036600319011261000e5760043561109081610784565b60243567ffffffffffffffff811161000e576110e4602061068a936001600160a01b036110c360ff953690600401610a01565b911660005260fc8252604060002082604051948386809551938492016105c2565b820190815203019020546040519116151581529081906020820190565b604090600319011261000e5760043561111981610784565b9060243561062d81610784565b503461000e5761068a6001600160a01b0361114036611101565b911660005261017c6020526020604060002061017d8252604060002054906111b3611174610161546001600160a01b031690565b6040519586948594634f47984960e11b865260048601929094936060926080850196855260208501526001600160a01b03809216604085015216910152565b038173f2069d5a633eC29852567aDf8a647F7031c1Eb615af490811561121b575b6000916111ed575b506040519081529081906020820190565b61120e915060203d8111611214575b6112068183610998565b8101906138ab565b386111dc565b503d6111fc565b6112236138ba565b6111d4565b606090600319011261000e5760043561124081610784565b9060243561124d81610784565b9060443590565b503461000e576107f161126636611228565b916112796112748433613d1f565b613c32565b613dfa565b503461000e5760408060031936011261000e5760049081356024356112a1613734565b6112bd6112b86112b46101815460ff1690565b1590565b6143ae565b6112c78183614429565b6101729182548092116000146114575750935b73f2069d5a633eC29852567aDf8a647F7031c1Eb61835b8681106113545750505061133b6000947f2a3aeb194c33f592b722a8f82cf9c3310794dcc211135c216cc284aea0353b5e9254811015611341575b84519081529081906020820190565b0390a251f35b610181805460ff1916600117905561132c565b808061140361139d611383611376600196600052610171602052604060002090565b546001600160a01b031690565b6001600160a01b031660005261017c602052604060002090565b610161546001600160a01b03168a518093819263705dd6e760e11b835260209687958c85019160c09194936001600160a01b039160e08501966101718652602086015261017d604086015261017f6060860152610180608086015260a085015216910152565b0381885af4801561144a575b61141c575b5050016112f1565b8161143b92903d10611443575b6114338183610998565b810190614435565b503880611414565b503d611429565b6114526138ba565b61140f565b611462915083614429565b936112da565b503461000e57602036600319011261000e5760043561148681614358565b9081156117bf57816114c2611532936114b3336001600160a01b031660005261017c602052604060002090565b90600052602052604060002090565b9173f2069d5a633eC29852567aDf8a647F7031c1Eb61926101616114ed81546001600160a01b031690565b6040805163766757b960e11b81526004810185905261016e60248201526001600160a01b03909216604483015233606483015290969095908690889081906084820190565b0381845af49283156117b2575b600097889461177c575b5060060192611559845460ff1690565b156116e057505090600060206115bc82986115926115866115866116269a9998546001600160a01b031690565b6001600160a01b031690565b895163a9059cbb60e01b815233600482015260248101929092529093849283919082906044820190565b03925af180156116d3575b6116b5575b505b817fab7e44c17ad2a7b4de0e42ab0bc824366a946f184a1133f0b5528347e4ccbd2986518061160281906002602083019252565b0390a2805460019060081c60ff1661161981612d45565b14611629575b5033615841565b51f35b6116609061164d8360005260676020526001600160a01b0360406000205416151590565b61169d57805461ff001916610200179055565b807f855f5f4ea7c8c6a92f173fbc35c24d01139c2a49e9bcc085f03620cb6a1c651385518061169481906002602083019252565b0390a23861161f565b6116a68361552c565b805461ff001916610200179055565b6116cc9060203d8111611443576114338183610998565b50386115cc565b6116db6138ba565b6115c7565b9094939291506116f9610162546001600160a01b031690565b90853b1561000e5786516331fd8e6560e01b81526001600160a01b039283166004820152911660248201523360448201526064810196909652600095611626948790829060849082905af4801561176f575b611756575b506115ce565b8061176361176992610913565b806105b7565b38611750565b6117776138ba565b61174b565b600698506117a1919450873d89116117ab575b6117998183610998565b8101906154ba565b9790979390611549565b503d61178f565b6117ba6138ba565b61153f565b604051638c877d2160e01b8152600490fd5b503461000e57602036600319011261000e576004356117ef8161073d565b6117fa610fff61444a565b6101819060ff8019835416911515161790556000604051f35b503461000e57602036600319011261000e5760043561183181610784565b6001600160a01b0390817f0000000000000000000000000000000000000000000000000000000000000000169161186a833014156137d6565b6118997f360894a13ba1a3210667c828492db98dca3e2076cc3735a920a3ca505d382bbc938285541614613837565b6118a1613734565b604051906118ae82610944565b600082527f4910fdfa16fed3260ed0e7147f7cc6da11a60208b5b9406d12a635614ffd91435460ff16156118e85750506107f19150613925565b6020600491604094939451928380926352d1902d60e01b825286165afa60009181611986575b506119735760405162461bcd60e51b815260206004820152602e60248201527f45524331393637557067726164653a206e657720696d706c656d656e7461746960448201526d6f6e206973206e6f74205555505360901b6064820152608490fd5b0390fd5b6107f19361198191146138c7565b6139c3565b61199f91925060203d8111611214576112068183610998565b903861190e565b503461000e57600036600319011261000e57602067ffffffffffffffff6119cb6144b7565b5416604051908152f35b503461000e57606036600319011261000e576004356119f381610784565b6024359067ffffffffffffffff821161000e57611a596020611a1c6107f1943690600401610a01565b6001600160a01b0360443594611a318661073d565b611a39613734565b1660005260fc8252604060002082604051948386809551938492016105c2565b8201908152030190209060ff801983541691151516179055565b50634e487b7160e01b600052603260045260246000fd5b906003821015611aa4575b601f8260051c61016f01921690565b611aac611a73565b611a95565b503461000e57602036600319011261000e57600435600381101561000e578060ff60209260051c61016f015460f86040519360031b161c168152f35b503461000e5760208060031936011261000e57611b0f6112b460fb5460ff1690565b80611f6b575b611f5a5773f2069d5a633eC29852567aDf8a647F7031c1Eb619061017390611b3d8254612fe2565b506040908151634e868a0160e01b8152600095868280611b6160049687830161509b565b0381845af4918215611f4d575b87908893611f26575b50611b8490843590614429565b875b61016554811015611e4257611be487611bb4611ba1846126be565b90546001600160a01b039160031b1c1690565b88518093819263c78ea24360e01b83528a830191909160206001600160a01b03604083019461016e845216910152565b0381875af4908115611e35575b8a91611e18575b50611c06575b600101611b86565b61016290611c1e61158683546001600160a01b031690565b611c6e89611c2e611ba1856126be565b8a5180938192630530fa2160e01b83528c830160408082526003908201526206966760ec1b60608201526001600160a01b03909116602082015260800190565b0381855afa908115611e0b575b8c91611dee575b50611c9781611c91858a6150b0565b51614429565b611ca184896150b0565b5280611cb1575b50509050611bfe565b611cbd611ba1846126be565b908c833b1561070a5789611d466115866001988f968f87611d8e9a611d289389809451809681958294636c49e02160e01b84528d840160608082526003908201526206966760ec1b6080820152909291906040906001600160a01b0360a08201951660208201520152565b03925af18015611de1575b611dce575b50546001600160a01b031690565b91611d53611ba1886126be565b8d5163276d76f960e21b81526001600160a01b0390911692810192835230602084015260408301949094529294859384929091839160600190565b03925af18015611dc1575b611da4575b80611ca8565b611dba90893d8b11611443576114338183610998565b5038611d9e565b611dc96138ba565b611d99565b80611763611ddb92610913565b38611d38565b611de96138ba565b611d33565b611e0591508a3d8c11611214576112068183610998565b38611c82565b611e136138ba565b611c7b565b611e2f9150883d8a11611214576112068183610998565b38611bf8565b611e3d6138ba565b611bf1565b509085949693611e889693945490611e6d895196879586948594637f0440bf60e01b865285016150d2565b03915af4918215611f19575b8592611efc575b505061017355565b7f41d377f5159e61f9ec3e5d7ecc5d2f8d2b17f2b58c8f05a4f9e8fce553a59cab611ec2611eb46144b7565b5467ffffffffffffffff1690565b611ede611ecd6144b7565b5460401c67ffffffffffffffff1690565b835167ffffffffffffffff928316815291166020820152604090a151f35b611f129250803d10611214576112068183610998565b3880611e80565b611f216138ba565b611e79565b611b849350611f4791503d808a833e611f3f8183610998565b810190614fa3565b92611b77565b611f556138ba565b611b6e565b6040516282b42960e81b8152600490fd5b50611f82611586610161546001600160a01b031690565b331415611b15565b503461000e576107f1611f9c36611228565b9060405192611faa84610944565b60008452613c94565b503461000e57604036600319011261000e57600435611fd181610784565b612021602435611fe081610784565b6000549261200560ff8560081c16158095819661209f575b811561207f575b5061463a565b83612018600160ff196000541617600055565b612066576148b7565b61202757005b61203761ff001960005416600055565b604051600181527f7f26b83ff96e1f2b6a682f133852f6798a09c465da95921460cefb384740249890602090a1005b61207a61010061ff00196000541617600055565b6148b7565b303b15915081612091575b5038611fff565b6001915060ff16143861208a565b600160ff8216109150611ff8565b50604036600319011261000e576004356120c681610784565b60243567ffffffffffffffff811161000e576120e6903690600401610a01565b906001600160a01b0391827f00000000000000000000000000000000000000000000000000000000000000001692612120843014156137d6565b61214f7f360894a13ba1a3210667c828492db98dca3e2076cc3735a920a3ca505d382bbc948286541614613837565b612157613734565b7f4910fdfa16fed3260ed0e7147f7cc6da11a60208b5b9406d12a635614ffd91435460ff161561218d5750506107f19150613925565b6020600491604094939451928380926352d1902d60e01b825286165afa60009181612227575b506122145760405162461bcd60e51b815260206004820152602e60248201527f45524331393637557067726164653a206e657720696d706c656d656e7461746960448201526d6f6e206973206e6f74205555505360901b6064820152608490fd5b6107f19361222291146138c7565b613a7f565b61224091925060203d8111611214576112068183610998565b90386121b3565b503461000e57602036600319011261000e5760043561226581614358565b80156117bf5761228d906114b3336001600160a01b031660005261017c602052604060002090565b336001600160a01b036122a783546001600160a01b031690565b1603611f5a5760068101805460ff811615908115612358575b50612346576123358161232b7fab7e44c17ad2a7b4de0e42ab0bc824366a946f184a1133f0b5528347e4ccbd2994612306612341956201000062ff000019825416179055565b612325600261231e610161546001600160a01b031690565b9201614e98565b90615c33565b5460101c60ff1690565b60405191829182614f93565b0390a2005b60405163baf3f0f760e01b8152600490fd5b60ff915060101c1661236981612d45565b1515386122c0565b503461000e57600036600319011261000e576001600160a01b037f00000000000000000000000000000000000000000000000000000000000000001630036123de576040517f360894a13ba1a3210667c828492db98dca3e2076cc3735a920a3ca505d382bbc8152602090f35b60405162461bcd60e51b815260206004820152603860248201527f555550535570677261646561626c653a206d757374206e6f742062652063616c60448201527f6c6564207468726f7567682064656c656761746563616c6c00000000000000006064820152608490fd5b503461000e5760008060031936011261070a5761068a90610173546002811015612501575b60405190634e868a0160e01b825260021b6101740160048201526040602482015281818061249e60448201615035565b038173f2069d5a633eC29852567aDf8a647F7031c1Eb615af49182156124f4575b80926124d8575b50506040519081529081906020820190565b6124ec92503d8091833e611f3f8183610998565b5038806124c6565b6124fc6138ba565b6124bf565b612509611a73565b61246e565b503461000e57602036600319011261000e57602061072c600435613b22565b503461000e57602036600319011261000e576001600160a01b0360043561255381610784565b16801561257c57600052606860205261068a604060002054604051918291829190602083019252565b60405162461bcd60e51b815260206004820152602960248201527f4552433732313a2061646472657373207a65726f206973206e6f7420612076616044820152683634b21037bbb732b960b91b6064820152608490fd5b503461000e5760008060031936011261070a576125ee613734565b60c9546001600160a01b0319811660c955816001600160a01b0360405192167f8be0079c531659141344cd1fd0a4f28419497f9722a3daafe3b4186f6b6457e08284a3f35b6024359060ff8216820361000e57565b6044359060ff8216820361000e57565b359060ff8216820361000e57565b503461000e57606036600319011261000e57366023121561000e5760405161268881610960565b60648136821161000e576004905b8282106126a6576107f1846144e2565b602080916126b384612653565b815201910190612696565b61016580548210156126f6575b6000527fd91ca5e44fa96a1732bfaed7fe33fc20ed69a9895cde1f18c7dcabca39d6a78b0190600090565b6126fe611a73565b6126cb565b503461000e57602036600319011261000e57600435610165805482101561000e576020916001600160a01b03916000527fd91ca5e44fa96a1732bfaed7fe33fc20ed69a9895cde1f18c7dcabca39d6a78b015416604051908152f35b503461000e57600036600319011261000e57602061017254604051908152f35b503461000e57600036600319011261000e5760206001600160a01b036101615416604051908152f35b503461000e57602036600319011261000e576001600160a01b036004356127ce81610784565b166000526101646020526020604060002054604051908152f35b503461000e57600036600319011261000e57602060ff60fb54166040519015158152f35b503461000e57600036600319011261000e5760206001600160a01b0360c95416604051908152f35b503461000e5760008060031936011261070a57604051908060665461285881613b44565b808552916001918083169081156106e957506001146128815761068a8561067e81870382610998565b9250606683527f46501879b8ca8525e8c2fd519e2fbfcfa2ebea26501294aa02cbfcfb12e943545b8284106128c457505050810160200161067e8261068a61066e565b805460208587018101919091529093019281016128a9565b503461000e57604036600319011261000e5760206129306004356128ff81610784565b6001600160a01b0361290f612633565b911660005261016e835260406000209060ff16600052602052604060002090565b54604051908152f35b503461000e57604036600319011261000e5760043561295781610784565b6024356129638161073d565b6001600160a01b038216918233146129e657816129a36129b49233600052606a6020526040600020906001600160a01b0316600052602052604060002090565b9060ff801983541691151516179055565b604051901515815233907f17307eab39ab6107e8899845ad3d59bd9653f200f220920489ca2b5937696c3190602090a3005b60405162461bcd60e51b815260206004820152601960248201527f4552433732313a20617070726f766520746f2063616c6c6572000000000000006044820152606490fd5b503461000e57600036600319011261000e5760206001600160a01b036101625416604051908152f35b503461000e57600036600319011261000e57602060ff61018154166040519015158152f35b503461000e57608036600319011261000e57600435612a9781610784565b602435612aa381610784565b6064359167ffffffffffffffff831161000e57612ac76107f1933690600401610a01565b9160443591613c94565b503461000e57600036600319011261000e57602061017054604051908152f35b503461000e57602036600319011261000e57600435612b0f81614358565b80156117bf57612b37906114b3336001600160a01b031660005261017c602052604060002090565b336001600160a01b03612b5183546001600160a01b031690565b1603611f5a576006018054600260ff8260101c16612b6e81612d45565b14908115612bc6575b5061234657805461ff001916610100179055612b9381336153b3565b604051600181527f855f5f4ea7c8c6a92f173fbc35c24d01139c2a49e9bcc085f03620cb6a1c6513908060208101612341565b60ff915060081c16612bd781612d45565b151538612b77565b503461000e57604036600319011261000e576020612930600435612c0281610784565b6001600160a01b03612c12612633565b911660005261016b835260406000209060ff16600052602052604060002090565b503461000e57602036600319011261000e576001600160a01b03600435612c5981610784565b1660005261017d6020526020604060002054604051908152f35b503461000e57600036600319011261000e57602061016854604051908152f35b503461000e57602036600319011261000e576020612cb2600435614358565b604051908152f35b503461000e57602036600319011261000e5761068a612cda600435614149565b6040519182916020835260208301906105f7565b503461000e57600036600319011261000e57612d1160ff60005460081c16614a75565b60fb805460ff19169055005b6000915b60038310612d2e57505050565b600190825181526020809101920192019190612d21565b60031115612d4f57565b634e487b7160e01b600052602160045260246000fd5b90612d6f82612d45565b52565b6109c7909291926101406101608201946001600160a01b038151168352612da9602082015160208501906001600160a01b03169052565b60408181015165ffffffffffff169084015260608181015165ffffffffffff1690840152612ddf60808201516080850190612d1d565b60a081015160e084015260c081015190612e00610100928386019015159052565b612e1360e0820151610120860190612d65565b0151910190612d65565b503461000e5760408060031936011261000e5760043590612e3d82610784565b602435918151612e4c81610927565b61010060009182815282602082015282858201528260608201528451612e7181610960565b606036823760808201528260a08201528260c08201528260e0820152015282158015612ee5575b612ed457612ec461068a936114b3612ec9936001600160a01b031660005261017c602052604060002090565b614ecb565b905191829182612d72565b8151638c877d2160e01b8152600490fd5b50612f04816001600160a01b031660005261017d602052604060002090565b548311612e98565b94919897969360e096939161010087019a6001600160a01b03809216885216602087015265ffffffffffff80921660408701521660608501526080840152151560a0830152612f5a81612d45565b60c0820152612f6883612d45565b0152565b503461000e57602036600319011261000e5760043560005261017160205260406000206001600160a01b0361068a81835416600184015490600660058601549501549060405195869560ff8460101c169460ff808660081c169516938160d01c9265ffffffffffff8360a01c1692169089612f0c565b6002811015612ff9575b60021b6101740190600090565b613001611a73565b612fec565b503461000e57602036600319011261000e57600435600281101561000e5760809060021b80610174015490610176610175820154910154906040519267ffffffffffffffff90818116855260401c16602084015260408301526060820152f35b906003821015613082575b6006600580840461016d0193060290565b61308a611a73565b613071565b503461000e57602036600319011261000e57600435600381101561000e578065ffffffffffff60056020930461016d01546006600560405194060260031b1c168152f35b503461000e57600036600319011261000e57602065ffffffffffff6101665416604051908152f35b503461000e57602060ff61313f6001600160a01b0361311936611101565b9116600052606a84526040600020906001600160a01b0316600052602052604060002090565b54166040519015158152f35b503461000e57600036600319011261000e57602061016754604051908152f35b50606036600319011261000e57600480359061318682610784565b60243591613192612643565b9273f2069d5a633eC29852567aDf8a647F7031c1Eb616131c9610832846001600160a01b0316600052610163602052604060002090565b93813b1561000e5785916040958651809263f39ce06360e01b8252818061320d8960009d8e978a850160ff6040929594936060830196151583521660208201520152565b03915af480156134fb575b6134e8575b506001600160a01b0384168015801580613482575b613472578787916000146133c857505050823403613370575091613334916133696133616116269561328a898080613276611586610162546001600160a01b031690565b888d51915af161328461400f565b50614e10565b61334f613295614e5c565b95856132a460ff85168961456a565b52610172549788976132be6132b88a6147ef565b61017255565b33600090815261017d602052604090206132d881546147ef565b8091556132fd816114b3336001600160a01b031660005261017c602052604060002090565b9a8b928561331f61330d8a613066565b905465ffffffffffff9160031b1c1690565b9161332c60fb5460ff1690565b953390615c8e565b506001600160a01b031660005261016e602052604060002090565b9060ff16600052602052604060002090565b918254614429565b9055615bbe565b61196f908551918291631fff1b3b60e21b8352820160809060208152602260208201527f496e636f7272656374206e617469766520636f696e207374616b6520616d6f756040820152611b9d60f21b60608201520190565b9361343160208761336995613361956116269b996133349b996133f7611586610162546001600160a01b031690565b92516323b872dd60e01b8152339181019182526001600160a01b039093166020820152604081019490945290948593849291839160600190565b03925af18015613465575b613447575b5061328a565b61345e9060203d8111611443576114338183610998565b5038613441565b61346d6138ba565b61343c565b8651631e9acf1760e31b81528390fd5b5086516370a0823160e01b8152338482019081528691906020908290819083010381875afa9081156134db575b8a916134bd575b5010613232565b6134d5915060203d8111611214576112068183610998565b386134b6565b6134e36138ba565b6134af565b806117636134f592610913565b3861321d565b6135036138ba565b613218565b503461000e57602036600319011261000e5760043561352681610784565b61352e613734565b6001600160a01b03811615613546576107f19061378c565b60405162461bcd60e51b815260206004820152602660248201527f4f776e61626c653a206e6577206f776e657220697320746865207a65726f206160448201526564647265737360d01b6064820152608490fd5b503461000e576135a936611101565b906001600160a01b03811660005261017c60205260408092816000206136676135e6856001600160a01b031660005261017d602052604060002090565b54926101735495613600610161546001600160a01b031690565b865197889687966365a52ecd60e11b8852600488019492610100949197969261012087019887526020870152610174604087015261017e606087015261016e608087015260a08601526001600160a01b03928380921660c08701521660e085015216910152565b038173f2069d5a633eC29852567aDf8a647F7031c1Eb615af49182156136d9575b60009182936136a4575b50519081526020810191909152604090f35b816136ca92945061068a93503d85116136d2575b6136c28183610998565b810190615132565b929091613692565b503d6136b8565b6136e16138ba565b613688565b503461000e57604036600319011261000e576001600160a01b0360043561370c81610784565b1660005261018060205260406000206024356000526020526020604060002054604051908152f35b6001600160a01b0360c95416330361374857565b606460405162461bcd60e51b815260206004820152602060248201527f4f776e61626c653a2063616c6c6572206973206e6f7420746865206f776e65726044820152fd5b60c954906001600160a01b0380911691826001600160a01b031982161760c955167f8be0079c531659141344cd1fd0a4f28419497f9722a3daafe3b4186f6b6457e06000604051a3565b156137dd57565b60405162461bcd60e51b815260206004820152602c60248201527f46756e6374696f6e206d7573742062652063616c6c6564207468726f7567682060448201526b19195b1959d85d1958d85b1b60a21b6064820152608490fd5b1561383e57565b60405162461bcd60e51b815260206004820152602c60248201527f46756e6374696f6e206d7573742062652063616c6c6564207468726f7567682060448201526b6163746976652070726f787960a01b6064820152608490fd5b604051906138a582610944565b60008252565b9081602091031261000e575190565b506040513d6000823e3d90fd5b156138ce57565b60405162461bcd60e51b815260206004820152602960248201527f45524331393637557067726164653a20756e737570706f727465642070726f786044820152681a58589b195555525160ba1b6064820152608490fd5b803b15613968576001600160a01b037f360894a13ba1a3210667c828492db98dca3e2076cc3735a920a3ca505d382bbc91166001600160a01b0319825416179055565b60405162461bcd60e51b815260206004820152602d60248201527f455243313936373a206e657720696d706c656d656e746174696f6e206973206e60448201526c1bdd08184818dbdb9d1c9858dd609a1b6064820152608490fd5b6139cc81613925565b604051906001600160a01b0381167fbc7cd75a20ee27fd9adebab32041f755214dbc6bffa90cc0225b39da2e5c2d3b600084a2825115801590613a77575b613a1357505050565b600080613a7494613a2385610960565b602785527f416464726573733a206c6f772d6c6576656c2064656c65676174652063616c6c6020860152660819985a5b195960ca1b6040860152602081519101845af4613a6e61400f565b916142b0565b50565b506000613a0a565b613a8881613925565b604051906001600160a01b0381167fbc7cd75a20ee27fd9adebab32041f755214dbc6bffa90cc0225b39da2e5c2d3b600084a2825115801590613ace57613a1357505050565b506001613a0a565b15613add57565b60405162461bcd60e51b815260206004820152601860248201527f4552433732313a20696e76616c696420746f6b656e20494400000000000000006044820152606490fd5b60005260676020526001600160a01b036040600020541661062d811515613ad6565b90600182811c92168015613b74575b6020831014613b5e57565b634e487b7160e01b600052602260045260246000fd5b91607f1691613b53565b15613b8557565b60405162461bcd60e51b815260206004820152603d60248201527f4552433732313a20617070726f76652063616c6c6572206973206e6f7420746f60448201527f6b656e206f776e6572206f7220617070726f76656420666f7220616c6c0000006064820152608490fd5b613c18613c138260005260676020526001600160a01b0360406000205416151590565b613ad6565b60005260696020526001600160a01b036040600020541690565b15613c3957565b60405162461bcd60e51b815260206004820152602d60248201527f4552433732313a2063616c6c6572206973206e6f7420746f6b656e206f776e6560448201526c1c881bdc88185c1c1c9bdd9959609a1b6064820152608490fd5b90613cb8939291613ca86112748433613d1f565b613cb3838383613dfa565b61403f565b15613cbf57565b60405162461bcd60e51b815260206004820152603260248201527f4552433732313a207472616e7366657220746f206e6f6e20455243373231526560448201527131b2b4bb32b91034b6b83632b6b2b73a32b960711b6064820152608490fd5b6001600160a01b0380613d3184613b22565b169281831692848414948515613d67575b50508315613d51575b50505090565b613d5d91929350613bf0565b1614388080613d4b565b60ff92955090613d9691600052606a6020526040600020906001600160a01b0316600052602052604060002090565b5416923880613d42565b15613da757565b60405162461bcd60e51b815260206004820152602560248201527f4552433732313a207472616e736665722066726f6d20696e636f72726563742060448201526437bbb732b960d91b6064820152608490fd5b90613e209291613e0983613b22565b6001600160a01b0382811695909182168614613da0565b8216938415613f14576109c79481613e458693613e3f61158686613b22565b14613da0565b613e6c613e5c846000526069602052604060002090565b80546001600160a01b0319169055565b613e89846001600160a01b03166000526068602052604060002090565b6000198154019055613eae856001600160a01b03166000526068602052604060002090565b60018154019055613ee885613ecd856000526067602052604060002090565b906001600160a01b03166001600160a01b0319825416179055565b7fddf252ad1be2c89b69c2b068fc378daa952ba7f163c4a11628f55a4df523b3ef6000604051a4615a35565b60405162461bcd60e51b8152602060048201526024808201527f4552433732313a207472616e7366657220746f20746865207a65726f206164646044820152637265737360e01b6064820152608490fd5b600082815260696020526040902080546001600160a01b0319166001600160a01b0383161790556001600160a01b0380613f9e84613b22565b169116907f8c5be1e5ebec7d5bd14f71427d1e84f3dd0314c0f7b2291e5b200ac8c7c3b9256000604051a4565b9081602091031261000e575161062d8161051c565b909261062d94936080936001600160a01b038092168452166020830152604082015281606082015201906105f7565b3d1561403a573d90614020826109d6565b9161402e6040519384610998565b82523d6000602084013e565b606090565b92909190823b156141405761407a9260209260006001600160a01b03604051809781968295630a85bd0160e11b9b8c85523360048601613fe0565b0393165af160009181614110575b506141025761409561400f565b805190816140fd5760405162461bcd60e51b815260206004820152603260248201527f4552433732313a207472616e7366657220746f206e6f6e20455243373231526560448201527131b2b4bb32b91034b6b83632b6b2b73a32b960711b6064820152608490fd5b602001fd5b6001600160e01b0319161490565b61413291925060203d8111614139575b61412a8183610998565b810190613fcb565b9038614088565b503d614120565b50505050600190565b61416c613c138260005260676020526001600160a01b0360406000205416151590565b600090808252602060978152604083206040518481959083549061418f82613b44565b8085529460019280841690811561424b575060011461420f575b5050506141b892500384610998565b6141c0613898565b928351156142085780516141da57505061062d915061426b565b61062d92506141fa906141f460405195869485019061105b565b9061105b565b03601f198101835282610998565b9250505090565b869350819291528282205b8583106142335750506141b893508201013880806141a9565b8054838a01850152889450869390920191810161421a565b965050505050505060ff1916818401526141b883604081013880806141a9565b613c1361428e9160005260676020526001600160a01b0360406000205416151590565b600060405161429c81610944565b526040516142a981610944565b6000815290565b9192901561431257508151156142c4575090565b3b156142cd5790565b60405162461bcd60e51b815260206004820152601d60248201527f416464726573733a2063616c6c20746f206e6f6e2d636f6e74726163740000006044820152606490fd5b8251909150156143255750805190602001fd5b60405162461bcd60e51b815290819061196f906004830161061c565b50634e487b7160e01b600052601260045260246000fd5b60005261017f6020526040600020604051614372816108ea565b6001600160a01b038254168152600182015490606060ff60036020840195858752600281015460408601520154161515910152156117bf575190565b156143b557565b60405162461bcd60e51b815260206004820152601b60248201527f4d6967726174696f6e20616c726561647920636f6d706c6574656400000000006044820152606490fd5b50634e487b7160e01b600052601160045260246000fd5b6001906001198111614421570190565b61106e6143fa565b81198111614421570190565b9081602091031261000e575161062d8161073d565b604051906144578261097c565b600582526430b236b4b760d91b6020830152565b1561447257565b60405162461bcd60e51b815260206004820152600e60248201527f4e6f7420617574686f72697a65640000000000000000000000000000000000006044820152606490fd5b60046101735460026001821610156144d5575b60021b166101740190565b6144dd611a73565b6144ca565b6144ed610fff61444a565b606460ff614515614508828551168360208701511690614589565b8260408601511690614589565b1603614524576109c7906145d5565b604051631fff1b3b60e21b815260206004820152601260248201527f4d7573742073756d20757020746f2031303000000000000000000000000000006044820152606490fd5b90600381101561457c575b60051b0190565b614584611a73565b614575565b60ff8091169116908160ff038111614421570190565b80600019048211811515166145b2570290565b6145ba6143fa565b0290565b8181106145c9575050565b600081556001016145be565b9061016f60009081935b600380861015614632579060209160ff908183511691868654921b90811b9283911b169119161783550193600180930192601f8411614623575b50600101936145df565b60009350909101906001614619565b505050509050565b1561464157565b60405162461bcd60e51b815260206004820152602e60248201527f496e697469616c697a61626c653a20636f6e747261637420697320616c72656160448201527f647920696e697469616c697a65640000000000000000000000000000000000006064820152608490fd5b156146b357565b60405162461bcd60e51b815260206004820152600f60248201527f496e76616c6964206164647265737300000000000000000000000000000000006044820152606490fd5b61016580549068010000000000000000821015614761575b60018201808255821015614754575b6000527fd91ca5e44fa96a1732bfaed7fe33fc20ed69a9895cde1f18c7dcabca39d6a78b0180546001600160a01b0319169055565b61475c611a73565b61471f565b6147696108d3565b614710565b6001600160a01b03610165805490680100000000000000008210156147e2575b600182018082558210156147d5575b6000527fd91ca5e44fa96a1732bfaed7fe33fc20ed69a9895cde1f18c7dcabca39d6a78b0191166001600160a01b0319825416179055565b6147dd611a73565b61479d565b6147ea6108d3565b61478e565b6001906000198114614421570190565b9061016d600080935b600380861015614632578160209162ffffff600694511690858754911b65ffffffffffff811b9283911b1691191617855501910193601a8511614850575b6001019390614808565b60009450600190920191614846565b6040519061486c8261097c565b601382527f457363726f77656420417373657420426f6e64000000000000000000000000006020830152565b604051906148a58261097c565b600382526222a0a160e91b6020830152565b61497c906149196149ae936148df6001600160a01b0380851615159081614a69575b506146ac565b61016180546001600160a01b0319166001600160a01b0385161790556001600160a01b0361016291166001600160a01b0319825416179055565b614924600161017255565b600080526101636020526149607f323947e965fafc5a11fbcfc7a37a72d1b12094b96c7e62e08b97c054e8e6b0a75b805460ff19166001179055565b6149686146f8565b6149a86101679161498261497c84546147ef565b61016755565b6149a3614953826001600160a01b0316600052610163602052604060002090565b61476e565b546147ef565b610166805465ffffffffffff1916630114db001790556149ec6149cf6109c9565b62093a8081526224ea006020820152626ebe0060408201526147ff565b614a0e6149f76109c9565b60148152601e6020820152603260408201526145d5565b610181805460ff19169055614a38614a246144b7565b805467ffffffffffffffff19166001179055565b614a51614a4361485f565b614a4b614898565b90614b09565b614a59614ad5565b614a61615ea6565b6109c7614af8565b905082161515386148d9565b15614a7c57565b60405162461bcd60e51b815260206004820152602b60248201527f496e697469616c697a61626c653a20636f6e7472616374206973206e6f74206960448201526a6e697469616c697a696e6760a81b6064820152608490fd5b614aef60ff60005460081c16614aea81614a75565b614a75565b6109c73361378c565b6109c760ff60005460081c16614a75565b90614b1f60ff60005460081c16614aea81614a75565b815167ffffffffffffffff8111614c1a575b614b4581614b40606554613b44565b614c27565b602080601f8311600114614b87575081906109c794600092614b7c575b50508160011b916000199060031b1c191617606555614d18565b015190503880614b62565b919293601f198416614bbb60656000527f8ff97419363ffd7000167f130ef7168fbea05faf9251824ca5043f113cc6a7c790565b936000905b828210614c025750509160019391856109c797969410614be9575b505050811b01606555614d18565b015160001960f88460031b161c19169055388080614bdb565b80600186978294978701518155019601940190614bc0565b614c226108d3565b614b31565b90601f8211614c34575050565b6109c79160656000527f8ff97419363ffd7000167f130ef7168fbea05faf9251824ca5043f113cc6a7c7906020601f840160051c83019310614c7e575b601f0160051c01906145be565b9091508190614c71565b90601f8211614c95575050565b6109c79160666000527f46501879b8ca8525e8c2fd519e2fbfcfa2ebea26501294aa02cbfcfb12e94354906020601f840160051c83019310614c7e57601f0160051c01906145be565b9190601f8111614ced57505050565b6109c7926000526020600020906020601f840160051c83019310614c7e57601f0160051c01906145be565b90815167ffffffffffffffff8111614e03575b614d3f81614d3a606654613b44565b614c88565b602080601f8311600114614d7b5750819293600092614d70575b50508160011b916000199060031b1c191617606655565b015190503880614d59565b90601f19831694614dae60666000527f46501879b8ca8525e8c2fd519e2fbfcfa2ebea26501294aa02cbfcfb12e9435490565b926000905b878210614deb575050836001959610614dd2575b505050811b01606655565b015160001960f88460031b161c19169055388080614dc7565b80600185968294968601518155019501930190614db3565b614e0b6108d3565b614d2b565b15614e1757565b60405162461bcd60e51b815260206004820152601f60248201527f4661696c656420746f207472616e73666572206e617469766520746f6b656e006044820152606490fd5b60405190614e6982610960565b6060368337565b906000905b60038210614e8257505050565b6001602081928554815201930191019091614e75565b90614ea66040518093614e70565b6060820182811067ffffffffffffffff82111761090657604052565b612d6f82612d45565b906109c760ff6006614edb6109ba565b94614efd614ef082546001600160a01b031690565b6001600160a01b03168752565b60018101546001600160a01b038116602088015265ffffffffffff60a082901c16604088015260d01c6060870152614f3760028201614e98565b6080870152600581015460a08701520154818116151560c0860152614f64828260081c1660e08701614ec2565b60101c166101008401614ec2565b90614f7c81612d45565b62ff000082549160101b169062ff00001916179055565b91906020830192612d6f82612d45565b91909160408184031261000e578051926020908183015167ffffffffffffffff9384821161000e570181601f8201121561000e578051938411615028575b8360051b9060405194614ff685840187610998565b8552838086019282010192831161000e578301905b828210615019575050505090565b8151815290830190830161500b565b6150306108d3565b614fe1565b6101659081548082526020809201926000527fd91ca5e44fa96a1732bfaed7fe33fc20ed69a9895cde1f18c7dcabca39d6a78b916000905b82821061507b575050505090565b83546001600160a01b03168552938401936001938401939091019061506d565b60409061062d92815281602082015201615035565b60209181518110156150c5575b60051b010190565b6150cd611a73565b6150bd565b90929160a0820190610174835260209485840152604083015260a0606083015282518091528360c0830193019360005b82811061511e5750505061062d92506080818303910152615035565b855185529481019493810193600101615102565b919082604091031261000e576020825192015190565b9081606091031261000e578051916040602083015192015167ffffffffffffffff8116810361000e5790565b9091939293615181614e5c565b9160005b60ff90818116600381101561522257906151e16001926151d06151c96151c36151bd6151b087611a8a565b905460ff9160031b1c1690565b60ff1690565b8961459f565b6064900490565b6151da828a61456a565b528761456a565b516152196133618361334f6151ff610161546001600160a01b031690565b6001600160a01b031660005261016e602052604060002090565b90550116615185565b5050509490506109c7926152c261017254966152406132b8896147ef565b61525e816001600160a01b031660005261017d602052604060002090565b61526881546147ef565b8091558861528e826114b3856001600160a01b031660005261017c602052604060002090565b966152a2610161546001600160a01b031690565b6101665465ffffffffffff16916152bb60fb5460ff1690565b958a615da6565b50816152d1575b505083615bbe565b6005830182905560405163a9059cbb60e01b81523360048201526024810192909252602090829060449082906000906001600160a01b03165af1801561533b575b61531d575b806152c9565b6153349060203d8111611443576114338183610998565b5038615317565b6153436138ba565b615312565b9061535281612d45565b61ff0082549160081b169061ff001916179055565b1561536e57565b60405162461bcd60e51b815260206004820152601c60248201527f4552433732313a20746f6b656e20616c7265616479206d696e746564000000006044820152606490fd5b6001600160a01b0381169081156154765761544c906153f16153eb8560005260676020526001600160a01b0360406000205416151590565b15615367565b6154146153eb8560005260676020526001600160a01b0360406000205416151590565b615431816001600160a01b03166000526068602052604060002090565b60018154019055613ecd846000526067602052604060002090565b60007fddf252ad1be2c89b69c2b068fc378daa952ba7f163c4a11628f55a4df523b3ef81604051a4565b606460405162461bcd60e51b815260206004820152602060248201527f4552433732313a206d696e7420746f20746865207a65726f20616464726573736044820152fd5b919082604091031261000e576020825192015161062d81610784565b61062d9054613b44565b6154ea8154613b44565b90816154f4575050565b81601f60009311600114615506575055565b8183526020832061552291601f0160051c8101906001016145be565b8160208120915555565b61553581613b22565b5061553f81613b22565b6000908282526069602052604082206001600160a01b0319908181541690556001600160a01b0382169081845260686020526040842060001981540190558484526067602052604084209081541690558383827fddf252ad1be2c89b69c2b068fc378daa952ba7f163c4a11628f55a4df523b3ef82604051a415158061578b575b615606575b50506155e36155de826000526097602052604060002090565b6154d6565b6155ea5750565b6156016109c7916000526097602052604060002090565b6154e0565b61560f83614358565b8061561b575b506155c5565b8084615645612ec461564e946114b3876001600160a01b031660005261017c602052604060002090565b93858552615841565b6000805261017d6020526156c06156867f570683e83a763565db96d79020a21094d1eed3afde1dfb6258e82fee3838deb05b54614411565b6000805261017c602052916156bb837fdf42de3f6f21d051fad2ddf44fdf9c714eaaa0a956bf2970fe63b68205b0d06e6114b3565b61590f565b73f2069d5a633eC29852567aDf8a647F7031c1Eb61803b156157875760405163093c769560e21b815261017f6004820152610180602482015260448101859052600060648201526084810192909252909190829060a49082905af4801561577a575b615767575b506000805261017d6020527f570683e83a763565db96d79020a21094d1eed3afde1dfb6258e82fee3838deb061575d81546147ef565b9055388080615615565b8061176361577492610913565b38615727565b6157826138ba565b615722565b8280fd5b50816155c0565b906001600160a01b0390818316806000526101636020526157bc6112b4604060002060ff90541690565b61580c575b61016554939260005b60ff908682821610156157fd5783836157e5611ba1846126be565b16146157f457600101166157ca565b50505050915050565b5050505091506109c79061476e565b61581b61497c610167546147ef565b61583c614953856001600160a01b0316600052610163602052604060002090565b6157c1565b90916001600160a01b0373f2069d5a633eC29852567aDf8a647F7031c1Eb619216908160005261017c6020526040600020833b1561000e5760009360e492604051968795869463f97681bd60e01b8652600486015261017f6024860152610180604486015261017d6064860152608485015260a484015260c48301525af480156158da575b6158cd5750565b806117636109c792610913565b6158e26138ba565b6158c6565b906000905b600382106158f957505050565b60016020828293518655019301910190916158ec565b9061010060066109c79361594961592d85516001600160a01b031690565b82546001600160a01b0319166001600160a01b03909116178255565b6159ce6001820161596761592d60208801516001600160a01b031690565b6159a161597d604088015165ffffffffffff1690565b825465ffffffffffff60a01b191660a09190911b65ffffffffffff60a01b16178255565b606086015165ffffffffffff1681546001600160d01b031660d09190911b6001600160d01b031916179055565b6159df6080850151600283016158e7565b60a084015160058201550191615a0d6159fb60c0830151151590565b849060ff801983541691151516179055565b615a2460e0820151615a1e81612d45565b84615348565b015190615a3082612d45565b614f72565b916001600160a01b0380841615159081615bb2575b50615a5457505050565b615a5d81614358565b80615a69575b50505050565b8082615a93612ec4615aa5946114b3896001600160a01b031660005261017c602052604060002090565b6001600160a01b038616815295615841565b615aec615ac9615680846001600160a01b031660005261017d602052604060002090565b936156bb856114b3866001600160a01b031660005261017c602052604060002090565b73f2069d5a633eC29852567aDf8a647F7031c1Eb6190813b1561000e5760405163093c769560e21b815261017f6004820152610180602482015260448101919091526001600160a01b03831660648201526084810193909352615b7d9290600090829060a49082905af48015615ba5575b615b92575b506001600160a01b031660005261017d602052604060002090565b615b8781546147ef565b905538808080615a63565b80611763615b9f92610913565b38615b62565b615bad6138ba565b615b5d565b90508216151538615a4a565b6001600160a01b03907fbbad5407299f3773930327d215f85a16617efbbddc1fe3902bd39ba46feacf2660c08385541693600186015460ff600688015416615c276040519865ffffffffffff8460a01c168a528360d01c60208b0152600260408b019101614e70565b151560a08801521694a4565b91600092835b60ff9081811660038110156157f45790615c556001928761456a565b516001600160a01b038516885261016e602052615c856133618360408b209060ff16600052602052604060002090565b90550116615c39565b615d63615d7c93615d5a899a96859860069661062d9c9b9965ffffffffffff928391615cd3834216948b906001600160a01b03166001600160a01b0319825416179055565b615cf760018b019687906001600160a01b03166001600160a01b0319825416179055565b855465ffffffffffff60a01b191660a085901b65ffffffffffff60a01b1617865515615d9b578161ffff6103f05b16918215615d8e575b1604168092038111615d81575b82546001600160d01b0316910160d01b6001600160d01b031916179055565b600283016158e7565b6000600582015501805462ffffff191662010000179055565b615e04565b615d896143fa565b615d3b565b615d96614341565b615d2e565b8161ffff6001615d25565b615deb615d7c93615d5a899a96859860069661062d9c9b9965ffffffffffff928391615cd3834216948b906001600160a01b03166001600160a01b0319825416179055565b6000600582015501805462ffffff191662010001179055565b91906040918251615e14816108ea565b615e916001600160a01b0380941691828152600360208201858152878301898152606084019160018352615e6f6000998c8b5261017f6020528b8b2096511686906001600160a01b03166001600160a01b0319825416179055565b51600185015551600284015551151591019060ff801983541691151516179055565b82526101806020528282209082526020522055565b615eb760ff60005460081c16614a75565b60ff1960fb541660fb5556fea264697066735822122015fde56c7c64eb262a24d2923e33bbde7f8a4dc29181a0b869260f50cd3792e264736f6c634300080e0033",
  "deployedBytecode": "0x60806040526004361015610013575b600080fd5b60003560e01c806301ffc9a71461051357806306fdde031461050a578063081812fc1461050157806308ed8d16146104f8578063095ea7b3146104ef578063125cc42f146104e6578063162094c4146104dd578063166866c7146104d4578063193cf2bf146104cb5780631dbd2086146104c25780631e83409a146104b95780631fecb71a146104b0578063217fe6c6146104a75780632372b28a1461049e57806323b872dd14610495578063273d87e21461048c5780632e17de78146104835780633431d6311461047a5780633659cfe614610471578063396b62471461046857806339d2525f1461045f5780633c661b8b146104565780633de15c121461044d57806342842e0e14610444578063485cc9551461043b5780634f1ef28614610432578063528a9e4d1461042957806352d1902d146104205780635413aa3b146104175780636352211e1461040e57806370a0823114610405578063715018a6146103fc57806372a4db4a146103f35780637547c7a3146103ea57806375506c96146103e157806382952200146103d8578063848778b4146103cf5780638d03b102146103c65780638da5cb5b146103bd57806395d89b41146103b45780639db5fa65146103ab578063a22cb465146103a2578063a59a997314610399578063b5bc853414610390578063b88d4fde14610387578063ba5e4bad1461037e578063bad7edab14610375578063bf0215501461036c578063c1592dbc14610363578063c436e3181461035a578063c51046a314610351578063c87b56dd14610348578063d2438c2a1461033f578063d495caaa14610336578063d5a44f861461032d578063d88fe69914610324578063de3e3eff1461031b578063e25b7d8214610312578063e985e9c514610309578063ef7bd7f314610300578063f19ed6be146102f7578063f2fde38b146102ee578063f56f4f0f146102e55763fe863ac1146102dd57600080fd5b61000e6136e6565b5061000e61359a565b5061000e613508565b5061000e61316b565b5061000e61314b565b5061000e6130fb565b5061000e6130d3565b5061000e61308f565b5061000e613006565b5061000e612f6c565b5061000e612e1d565b5061000e612cee565b5061000e612cba565b5061000e612c93565b5061000e612c73565b5061000e612c33565b5061000e612bdf565b5061000e612af1565b5061000e612ad1565b5061000e612a79565b5061000e612a54565b5061000e612a2b565b5061000e612939565b5061000e6128dc565b5061000e612834565b5061000e61280c565b5061000e6127e8565b5061000e6127a8565b5061000e61277f565b5061000e61275f565b5061000e612703565b5061000e612661565b5061000e6125d3565b5061000e61252d565b5061000e61250e565b5061000e612449565b5061000e612371565b5061000e612247565b5061000e6120ad565b5061000e611fb3565b5061000e611f8a565b5061000e611aed565b5061000e611ab1565b5061000e6119d5565b5061000e6119a6565b5061000e611813565b5061000e6117d1565b5061000e611468565b5061000e61127e565b5061000e611254565b5061000e611126565b5061000e611072565b5061000e610fd3565b5061000e610e0d565b5061000e610df0565b5061000e610d35565b5061000e610c61565b5061000e610a48565b5061000e61088e565b5061000e610795565b5061000e610747565b5061000e61070d565b5061000e610630565b5061000e61052e565b6001600160e01b031981160361000e57565b503461000e57602036600319011261000e57602060043561054e8161051c565b63ffffffff60e01b16632483248360e11b8114908115610574575b506040519015158152f35b6380ac58cd60e01b8114915081156105a6575b8115610595575b5038610569565b6301ffc9a760e01b1490503861058e565b635b5e139f60e01b81149150610587565b600091031261000e57565b918091926000905b8282106105e25750116105db575050565b6000910152565b915080602091830151818601520182916105ca565b90602091610610815180928185528580860191016105c2565b601f01601f1916010190565b90602061062d9281815201906105f7565b90565b503461000e5760008060031936011261070a57604051908060655461065481613b44565b808552916001918083169081156106e9575060011461068e575b61068a8561067e81870382610998565b6040519182918261061c565b0390f35b9250606583527f8ff97419363ffd7000167f130ef7168fbea05faf9251824ca5043f113cc6a7c75b8284106106d157505050810160200161067e8261068a61066e565b805460208587018101919091529093019281016106b6565b60ff19166020870152505060408401925061067e915083905061068a61066e565b80fd5b503461000e57602036600319011261000e57602061072c600435613bf0565b6001600160a01b0360405191168152f35b8015150361000e57565b503461000e57602036600319011261000e576004356107658161073d565b61076d613734565b60ff801960fb5416911515161760fb556000604051f35b6001600160a01b0381160361000e57565b503461000e57604036600319011261000e576004356107b381610784565b6024356107bf81613b22565b916001600160a01b03808416809183161461083f576107f1936107ec9133149081156107f3575b50613b7e565b613f65565b005b61083991506108329061081a33916001600160a01b0316600052606a602052604060002090565b906001600160a01b0316600052602052604060002090565b5460ff1690565b386107e6565b60405162461bcd60e51b815260206004820152602160248201527f4552433732313a20617070726f76616c20746f2063757272656e74206f776e656044820152603960f91b6064820152608490fd5b503461000e57602036600319011261000e576001600160a01b036004356108b481610784565b16600052610163602052602060ff604060002054166040519015158152f35b50634e487b7160e01b600052604160045260246000fd5b6080810190811067ffffffffffffffff82111761090657604052565b61090e6108d3565b604052565b67ffffffffffffffff811161090657604052565b610120810190811067ffffffffffffffff82111761090657604052565b6020810190811067ffffffffffffffff82111761090657604052565b6060810190811067ffffffffffffffff82111761090657604052565b6040810190811067ffffffffffffffff82111761090657604052565b90601f8019910116810190811067ffffffffffffffff82111761090657604052565b604051906109c782610927565b565b604051906109c782610960565b60209067ffffffffffffffff81116109f4575b601f01601f19160190565b6109fc6108d3565b6109e9565b81601f8201121561000e57803590610a18826109d6565b92610a266040519485610998565b8284526020838301011161000e57816000926020809301838601378301015290565b503461000e57604036600319011261000e5760043567ffffffffffffffff60243581811161000e57610a7e903690600401610a01565b91610a87613734565b610aa78160005260676020526001600160a01b0360406000205416151590565b15610bf6576000918183526020906097825260408420918551918211610be9575b610adc82610ad68554613b44565b85614cde565b80601f8311600114610b5357509080610b4094939286977ff8e1a15aba9398e019f0b49df1a4fde98ee17ae345cb5f6b5e2c27f5033e8ce79792610b48575b50508160011b916000199060031b1c19161790555b6040519081529081906020820190565b0390a1604051f35b015190503880610b1b565b90601f19831696610b6985600052602060002090565b9287905b898210610bd1575050918391600193610b409796957ff8e1a15aba9398e019f0b49df1a4fde98ee17ae345cb5f6b5e2c27f5033e8ce7999a10610bb8575b505050811b019055610b30565b015160001960f88460031b161c19169055388080610bab565b80600185968294968601518155019501930190610b6d565b610bf16108d3565b610ac8565b60405162461bcd60e51b815260206004820152602e60248201527f45524337323155524953746f726167653a2055524920736574206f66206e6f6e60448201527f6578697374656e7420746f6b656e0000000000000000000000000000000000006064820152608490fd5b503461000e5760208060031936011261000e57600435610c8081610784565b610c8861444a565b90610cac6001600160a01b0392848460c954163314918215610cfa575b505061446b565b1690816000526101639182825260ff60406000205416610cc857005b61016780548015610ced575b60001901905560005252604060002060ff198154169055005b610cf56143fa565b610cd4565b60ff925090610d23913360005260fc8252604060002082604051948386809551938492016105c2565b82019081520301902054168438610ca5565b503461000e57602036600319011261000e5761068a60408060608151610d5a816108ea565b600091818380935282602082015282858201520152600435815261017f602052209060ff6003825193610d8c856108ea565b6001600160a01b0381541685526001810154602086015260028101548486015201541615156060830152519182918291909160608060808301946001600160a01b038151168452602081015160208501526040810151604085015201511515910152565b503461000e57600036600319011261000e57602060405160028152f35b503461000e57602036600319011261000e57600435610e2b81610784565b806060610e366144b7565b33600090815261017c6020908152604080832061017d909252909120610eca905491610e6b610161546001600160a01b031690565b6040516325bd5c4960e01b8152600481019290925261016e6024830152604482019390935261017e606482015260848101939093526001600160a01b0395861660a4840152941660c48201523360e48201529283908190610104820190565b038173__$f048dbd5170c0ac319fa0222065b281d84$__5af48015610fc6575b60009182938392610f63575b506001600160a01b0381610f5e610f3087877f476aa07c80fdb833cf2d719981e9f22c1e10dbace79a96a1a8a055d6defc19189633615174565b94604051938493169733978491604091949367ffffffffffffffff9160608501968552602085015216910152565b0390a4005b7f476aa07c80fdb833cf2d719981e9f22c1e10dbace79a96a1a8a055d6defc191894506001600160a01b039350610fb291925060603d8111610fbf575b610faa8183610998565b810190615148565b9491939094929150610ef6565b503d610fa0565b610fce6138ba565b610eea565b503461000e57602036600319011261000e576107f1600435610ff481610784565b61101b610fff61444a565b6001600160a01b0360c954163314908115611020575b5061446b565b615792565b60ff9150602061104a913360005260fc8252604060002082604051948386809551938492016105c2565b820190815203019020541638611015565b9061106e602092828151948592016105c2565b0190565b503461000e57604036600319011261000e5760043561109081610784565b60243567ffffffffffffffff811161000e576110e4602061068a936001600160a01b036110c360ff953690600401610a01565b911660005260fc8252604060002082604051948386809551938492016105c2565b820190815203019020546040519116151581529081906020820190565b604090600319011261000e5760043561111981610784565b9060243561062d81610784565b503461000e5761068a6001600160a01b0361114036611101565b911660005261017c6020526020604060002061017d8252604060002054906111b3611174610161546001600160a01b031690565b6040519586948594634f47984960e11b865260048601929094936060926080850196855260208501526001600160a01b03809216604085015216910152565b038173__$f048dbd5170c0ac319fa0222065b281d84$__5af490811561121b575b6000916111ed575b506040519081529081906020820190565b61120e915060203d8111611214575b6112068183610998565b8101906138ab565b386111dc565b503d6111fc565b6112236138ba565b6111d4565b606090600319011261000e5760043561124081610784565b9060243561124d81610784565b9060443590565b503461000e576107f161126636611228565b916112796112748433613d1f565b613c32565b613dfa565b503461000e5760408060031936011261000e5760049081356024356112a1613734565b6112bd6112b86112b46101815460ff1690565b1590565b6143ae565b6112c78183614429565b6101729182548092116000146114575750935b73__$f048dbd5170c0ac319fa0222065b281d84$__835b8681106113545750505061133b6000947f2a3aeb194c33f592b722a8f82cf9c3310794dcc211135c216cc284aea0353b5e9254811015611341575b84519081529081906020820190565b0390a251f35b610181805460ff1916600117905561132c565b808061140361139d611383611376600196600052610171602052604060002090565b546001600160a01b031690565b6001600160a01b031660005261017c602052604060002090565b610161546001600160a01b03168a518093819263705dd6e760e11b835260209687958c85019160c09194936001600160a01b039160e08501966101718652602086015261017d604086015261017f6060860152610180608086015260a085015216910152565b0381885af4801561144a575b61141c575b5050016112f1565b8161143b92903d10611443575b6114338183610998565b810190614435565b503880611414565b503d611429565b6114526138ba565b61140f565b611462915083614429565b936112da565b503461000e57602036600319011261000e5760043561148681614358565b9081156117bf57816114c2611532936114b3336001600160a01b031660005261017c602052604060002090565b90600052602052604060002090565b9173__$f048dbd5170c0ac319fa0222065b281d84$__926101616114ed81546001600160a01b031690565b6040805163766757b960e11b81526004810185905261016e60248201526001600160a01b03909216604483015233606483015290969095908690889081906084820190565b0381845af49283156117b2575b600097889461177c575b5060060192611559845460ff1690565b156116e057505090600060206115bc82986115926115866115866116269a9998546001600160a01b031690565b6001600160a01b031690565b895163a9059cbb60e01b815233600482015260248101929092529093849283919082906044820190565b03925af180156116d3575b6116b5575b505b817fab7e44c17ad2a7b4de0e42ab0bc824366a946f184a1133f0b5528347e4ccbd2986518061160281906002602083019252565b0390a2805460019060081c60ff1661161981612d45565b14611629575b5033615841565b51f35b6116609061164d8360005260676020526001600160a01b0360406000205416151590565b61169d57805461ff001916610200179055565b807f855f5f4ea7c8c6a92f173fbc35c24d01139c2a49e9bcc085f03620cb6a1c651385518061169481906002602083019252565b0390a23861161f565b6116a68361552c565b805461ff001916610200179055565b6116cc9060203d8111611443576114338183610998565b50386115cc565b6116db6138ba565b6115c7565b9094939291506116f9610162546001600160a01b031690565b90853b1561000e5786516331fd8e6560e01b81526001600160a01b039283166004820152911660248201523360448201526064810196909652600095611626948790829060849082905af4801561176f575b611756575b506115ce565b8061176361176992610913565b806105b7565b38611750565b6117776138ba565b61174b565b600698506117a1919450873d89116117ab575b6117998183610998565b8101906154ba565b9790979390611549565b503d61178f565b6117ba6138ba565b61153f565b604051638c877d2160e01b8152600490fd5b503461000e57602036600319011261000e576004356117ef8161073d565b6117fa610fff61444a565b6101819060ff8019835416911515161790556000604051f35b503461000e57602036600319011261000e5760043561183181610784565b6001600160a01b0390817f0000000000000000000000000000000000000000000000000000000000000000169161186a833014156137d6565b6118997f360894a13ba1a3210667c828492db98dca3e2076cc3735a920a3ca505d382bbc938285541614613837565b6118a1613734565b604051906118ae82610944565b600082527f4910fdfa16fed3260ed0e7147f7cc6da11a60208b5b9406d12a635614ffd91435460ff16156118e85750506107f19150613925565b6020600491604094939451928380926352d1902d60e01b825286165afa60009181611986575b506119735760405162461bcd60e51b815260206004820152602e60248201527f45524331393637557067726164653a206e657720696d706c656d656e7461746960448201526d6f6e206973206e6f74205555505360901b6064820152608490fd5b0390fd5b6107f19361198191146138c7565b6139c3565b61199f91925060203d8111611214576112068183610998565b903861190e565b503461000e57600036600319011261000e57602067ffffffffffffffff6119cb6144b7565b5416604051908152f35b503461000e57606036600319011261000e576004356119f381610784565b6024359067ffffffffffffffff821161000e57611a596020611a1c6107f1943690600401610a01565b6001600160a01b0360443594611a318661073d565b611a39613734565b1660005260fc8252604060002082604051948386809551938492016105c2565b8201908152030190209060ff801983541691151516179055565b50634e487b7160e01b600052603260045260246000fd5b906003821015611aa4575b601f8260051c61016f01921690565b611aac611a73565b611a95565b503461000e57602036600319011261000e57600435600381101561000e578060ff60209260051c61016f015460f86040519360031b161c168152f35b503461000e5760208060031936011261000e57611b0f6112b460fb5460ff1690565b80611f6b575b611f5a5773__$f048dbd5170c0ac319fa0222065b281d84$__9061017390611b3d8254612fe2565b506040908151634e868a0160e01b8152600095868280611b6160049687830161509b565b0381845af4918215611f4d575b87908893611f26575b50611b8490843590614429565b875b61016554811015611e4257611be487611bb4611ba1846126be565b90546001600160a01b039160031b1c1690565b88518093819263c78ea24360e01b83528a830191909160206001600160a01b03604083019461016e845216910152565b0381875af4908115611e35575b8a91611e18575b50611c06575b600101611b86565b61016290611c1e61158683546001600160a01b031690565b611c6e89611c2e611ba1856126be565b8a5180938192630530fa2160e01b83528c830160408082526003908201526206966760ec1b60608201526001600160a01b03909116602082015260800190565b0381855afa908115611e0b575b8c91611dee575b50611c9781611c91858a6150b0565b51614429565b611ca184896150b0565b5280611cb1575b50509050611bfe565b611cbd611ba1846126be565b908c833b1561070a5789611d466115866001988f968f87611d8e9a611d289389809451809681958294636c49e02160e01b84528d840160608082526003908201526206966760ec1b6080820152909291906040906001600160a01b0360a08201951660208201520152565b03925af18015611de1575b611dce575b50546001600160a01b031690565b91611d53611ba1886126be565b8d5163276d76f960e21b81526001600160a01b0390911692810192835230602084015260408301949094529294859384929091839160600190565b03925af18015611dc1575b611da4575b80611ca8565b611dba90893d8b11611443576114338183610998565b5038611d9e565b611dc96138ba565b611d99565b80611763611ddb92610913565b38611d38565b611de96138ba565b611d33565b611e0591508a3d8c11611214576112068183610998565b38611c82565b611e136138ba565b611c7b565b611e2f9150883d8a11611214576112068183610998565b38611bf8565b611e3d6138ba565b611bf1565b509085949693611e889693945490611e6d895196879586948594637f0440bf60e01b865285016150d2565b03915af4918215611f19575b8592611efc575b505061017355565b7f41d377f5159e61f9ec3e5d7ecc5d2f8d2b17f2b58c8f05a4f9e8fce553a59cab611ec2611eb46144b7565b5467ffffffffffffffff1690565b611ede611ecd6144b7565b5460401c67ffffffffffffffff1690565b835167ffffffffffffffff928316815291166020820152604090a151f35b611f129250803d10611214576112068183610998565b3880611e80565b611f216138ba565b611e79565b611b849350611f4791503d808a833e611f3f8183610998565b810190614fa3565b92611b77565b611f556138ba565b611b6e565b6040516282b42960e81b8152600490fd5b50611f82611586610161546001600160a01b031690565b331415611b15565b503461000e576107f1611f9c36611228565b9060405192611faa84610944565b60008452613c94565b503461000e57604036600319011261000e57600435611fd181610784565b612021602435611fe081610784565b6000549261200560ff8560081c16158095819661209f575b811561207f575b5061463a565b83612018600160ff196000541617600055565b612066576148b7565b61202757005b61203761ff001960005416600055565b604051600181527f7f26b83ff96e1f2b6a682f133852f6798a09c465da95921460cefb384740249890602090a1005b61207a61010061ff00196000541617600055565b6148b7565b303b15915081612091575b5038611fff565b6001915060ff16143861208a565b600160ff8216109150611ff8565b50604036600319011261000e576004356120c681610784565b60243567ffffffffffffffff811161000e576120e6903690600401610a01565b906001600160a01b0391827f00000000000000000000000000000000000000000000000000000000000000001692612120843014156137d6565b61214f7f360894a13ba1a3210667c828492db98dca3e2076cc3735a920a3ca505d382bbc948286541614613837565b612157613734565b7f4910fdfa16fed3260ed0e7147f7cc6da11a60208b5b9406d12a635614ffd91435460ff161561218d5750506107f19150613925565b6020600491604094939451928380926352d1902d60e01b825286165afa60009181612227575b506122145760405162461bcd60e51b815260206004820152602e60248201527f45524331393637557067726164653a206e657720696d706c656d656e7461746960448201526d6f6e206973206e6f74205555505360901b6064820152608490fd5b6107f19361222291146138c7565b613a7f565b61224091925060203d8111611214576112068183610998565b90386121b3565b503461000e57602036600319011261000e5760043561226581614358565b80156117bf5761228d906114b3336001600160a01b031660005261017c602052604060002090565b336001600160a01b036122a783546001600160a01b031690565b1603611f5a5760068101805460ff811615908115612358575b50612346576123358161232b7fab7e44c17ad2a7b4de0e42ab0bc824366a946f184a1133f0b5528347e4ccbd2994612306612341956201000062ff000019825416179055565b612325600261231e610161546001600160a01b031690565b9201614e98565b90615c33565b5460101c60ff1690565b60405191829182614f93565b0390a2005b60405163baf3f0f760e01b8152600490fd5b60ff915060101c1661236981612d45565b1515386122c0565b503461000e57600036600319011261000e576001600160a01b037f00000000000000000000000000000000000000000000000000000000000000001630036123de576040517f360894a13ba1a3210667c828492db98dca3e2076cc3735a920a3ca505d382bbc8152602090f35b60405162461bcd60e51b815260206004820152603860248201527f555550535570677261646561626c653a206d757374206e6f742062652063616c60448201527f6c6564207468726f7567682064656c656761746563616c6c00000000000000006064820152608490fd5b503461000e5760008060031936011261070a5761068a90610173546002811015612501575b60405190634e868a0160e01b825260021b6101740160048201526040602482015281818061249e60448201615035565b038173__$f048dbd5170c0ac319fa0222065b281d84$__5af49182156124f4575b80926124d8575b50506040519081529081906020820190565b6124ec92503d8091833e611f3f8183610998565b5038806124c6565b6124fc6138ba565b6124bf565b612509611a73565b61246e565b503461000e57602036600319011261000e57602061072c600435613b22565b503461000e57602036600319011261000e576001600160a01b0360043561255381610784565b16801561257c57600052606860205261068a604060002054604051918291829190602083019252565b60405162461bcd60e51b815260206004820152602960248201527f4552433732313a2061646472657373207a65726f206973206e6f7420612076616044820152683634b21037bbb732b960b91b6064820152608490fd5b503461000e5760008060031936011261070a576125ee613734565b60c9546001600160a01b0319811660c955816001600160a01b0360405192167f8be0079c531659141344cd1fd0a4f28419497f9722a3daafe3b4186f6b6457e08284a3f35b6024359060ff8216820361000e57565b6044359060ff8216820361000e57565b359060ff8216820361000e57565b503461000e57606036600319011261000e57366023121561000e5760405161268881610960565b60648136821161000e576004905b8282106126a6576107f1846144e2565b602080916126b384612653565b815201910190612696565b61016580548210156126f6575b6000527fd91ca5e44fa96a1732bfaed7fe33fc20ed69a9895cde1f18c7dcabca39d6a78b0190600090565b6126fe611a73565b6126cb565b503461000e57602036600319011261000e57600435610165805482101561000e576020916001600160a01b03916000527fd91ca5e44fa96a1732bfaed7fe33fc20ed69a9895cde1f18c7dcabca39d6a78b015416604051908152f35b503461000e57600036600319011261000e57602061017254604051908152f35b503461000e57600036600319011261000e5760206001600160a01b036101615416604051908152f35b503461000e57602036600319011261000e576001600160a01b036004356127ce81610784565b166000526101646020526020604060002054604051908152f35b503461000e57600036600319011261000e57602060ff60fb54166040519015158152f35b503461000e57600036600319011261000e5760206001600160a01b0360c95416604051908152f35b503461000e5760008060031936011261070a57604051908060665461285881613b44565b808552916001918083169081156106e957506001146128815761068a8561067e81870382610998565b9250606683527f46501879b8ca8525e8c2fd519e2fbfcfa2ebea26501294aa02cbfcfb12e943545b8284106128c457505050810160200161067e8261068a61066e565b805460208587018101919091529093019281016128a9565b503461000e57604036600319011261000e5760206129306004356128ff81610784565b6001600160a01b0361290f612633565b911660005261016e835260406000209060ff16600052602052604060002090565b54604051908152f35b503461000e57604036600319011261000e5760043561295781610784565b6024356129638161073d565b6001600160a01b038216918233146129e657816129a36129b49233600052606a6020526040600020906001600160a01b0316600052602052604060002090565b9060ff801983541691151516179055565b604051901515815233907f17307eab39ab6107e8899845ad3d59bd9653f200f220920489ca2b5937696c3190602090a3005b60405162461bcd60e51b815260206004820152601960248201527f4552433732313a20617070726f766520746f2063616c6c6572000000000000006044820152606490fd5b503461000e57600036600319011261000e5760206001600160a01b036101625416604051908152f35b503461000e57600036600319011261000e57602060ff61018154166040519015158152f35b503461000e57608036600319011261000e57600435612a9781610784565b602435612aa381610784565b6064359167ffffffffffffffff831161000e57612ac76107f1933690600401610a01565b9160443591613c94565b503461000e57600036600319011261000e57602061017054604051908152f35b503461000e57602036600319011261000e57600435612b0f81614358565b80156117bf57612b37906114b3336001600160a01b031660005261017c602052604060002090565b336001600160a01b03612b5183546001600160a01b031690565b1603611f5a576006018054600260ff8260101c16612b6e81612d45565b14908115612bc6575b5061234657805461ff001916610100179055612b9381336153b3565b604051600181527f855f5f4ea7c8c6a92f173fbc35c24d01139c2a49e9bcc085f03620cb6a1c6513908060208101612341565b60ff915060081c16612bd781612d45565b151538612b77565b503461000e57604036600319011261000e576020612930600435612c0281610784565b6001600160a01b03612c12612633565b911660005261016b835260406000209060ff16600052602052604060002090565b503461000e57602036600319011261000e576001600160a01b03600435612c5981610784565b1660005261017d6020526020604060002054604051908152f35b503461000e57600036600319011261000e57602061016854604051908152f35b503461000e57602036600319011261000e576020612cb2600435614358565b604051908152f35b503461000e57602036600319011261000e5761068a612cda600435614149565b6040519182916020835260208301906105f7565b503461000e57600036600319011261000e57612d1160ff60005460081c16614a75565b60fb805460ff19169055005b6000915b60038310612d2e57505050565b600190825181526020809101920192019190612d21565b60031115612d4f57565b634e487b7160e01b600052602160045260246000fd5b90612d6f82612d45565b52565b6109c7909291926101406101608201946001600160a01b038151168352612da9602082015160208501906001600160a01b03169052565b60408181015165ffffffffffff169084015260608181015165ffffffffffff1690840152612ddf60808201516080850190612d1d565b60a081015160e084015260c081015190612e00610100928386019015159052565b612e1360e0820151610120860190612d65565b0151910190612d65565b503461000e5760408060031936011261000e5760043590612e3d82610784565b602435918151612e4c81610927565b61010060009182815282602082015282858201528260608201528451612e7181610960565b606036823760808201528260a08201528260c08201528260e0820152015282158015612ee5575b612ed457612ec461068a936114b3612ec9936001600160a01b031660005261017c602052604060002090565b614ecb565b905191829182612d72565b8151638c877d2160e01b8152600490fd5b50612f04816001600160a01b031660005261017d602052604060002090565b548311612e98565b94919897969360e096939161010087019a6001600160a01b03809216885216602087015265ffffffffffff80921660408701521660608501526080840152151560a0830152612f5a81612d45565b60c0820152612f6883612d45565b0152565b503461000e57602036600319011261000e5760043560005261017160205260406000206001600160a01b0361068a81835416600184015490600660058601549501549060405195869560ff8460101c169460ff808660081c169516938160d01c9265ffffffffffff8360a01c1692169089612f0c565b6002811015612ff9575b60021b6101740190600090565b613001611a73565b612fec565b503461000e57602036600319011261000e57600435600281101561000e5760809060021b80610174015490610176610175820154910154906040519267ffffffffffffffff90818116855260401c16602084015260408301526060820152f35b906003821015613082575b6006600580840461016d0193060290565b61308a611a73565b613071565b503461000e57602036600319011261000e57600435600381101561000e578065ffffffffffff60056020930461016d01546006600560405194060260031b1c168152f35b503461000e57600036600319011261000e57602065ffffffffffff6101665416604051908152f35b503461000e57602060ff61313f6001600160a01b0361311936611101565b9116600052606a84526040600020906001600160a01b0316600052602052604060002090565b54166040519015158152f35b503461000e57600036600319011261000e57602061016754604051908152f35b50606036600319011261000e57600480359061318682610784565b60243591613192612643565b9273__$f048dbd5170c0ac319fa0222065b281d84$__6131c9610832846001600160a01b0316600052610163602052604060002090565b93813b1561000e5785916040958651809263f39ce06360e01b8252818061320d8960009d8e978a850160ff6040929594936060830196151583521660208201520152565b03915af480156134fb575b6134e8575b506001600160a01b0384168015801580613482575b613472578787916000146133c857505050823403613370575091613334916133696133616116269561328a898080613276611586610162546001600160a01b031690565b888d51915af161328461400f565b50614e10565b61334f613295614e5c565b95856132a460ff85168961456a565b52610172549788976132be6132b88a6147ef565b61017255565b33600090815261017d602052604090206132d881546147ef565b8091556132fd816114b3336001600160a01b031660005261017c602052604060002090565b9a8b928561331f61330d8a613066565b905465ffffffffffff9160031b1c1690565b9161332c60fb5460ff1690565b953390615c8e565b506001600160a01b031660005261016e602052604060002090565b9060ff16600052602052604060002090565b918254614429565b9055615bbe565b61196f908551918291631fff1b3b60e21b8352820160809060208152602260208201527f496e636f7272656374206e617469766520636f696e207374616b6520616d6f756040820152611b9d60f21b60608201520190565b9361343160208761336995613361956116269b996133349b996133f7611586610162546001600160a01b031690565b92516323b872dd60e01b8152339181019182526001600160a01b039093166020820152604081019490945290948593849291839160600190565b03925af18015613465575b613447575b5061328a565b61345e9060203d8111611443576114338183610998565b5038613441565b61346d6138ba565b61343c565b8651631e9acf1760e31b81528390fd5b5086516370a0823160e01b8152338482019081528691906020908290819083010381875afa9081156134db575b8a916134bd575b5010613232565b6134d5915060203d8111611214576112068183610998565b386134b6565b6134e36138ba565b6134af565b806117636134f592610913565b3861321d565b6135036138ba565b613218565b503461000e57602036600319011261000e5760043561352681610784565b61352e613734565b6001600160a01b03811615613546576107f19061378c565b60405162461bcd60e51b815260206004820152602660248201527f4f776e61626c653a206e6577206f776e657220697320746865207a65726f206160448201526564647265737360d01b6064820152608490fd5b503461000e576135a936611101565b906001600160a01b03811660005261017c60205260408092816000206136676135e6856001600160a01b031660005261017d602052604060002090565b54926101735495613600610161546001600160a01b031690565b865197889687966365a52ecd60e11b8852600488019492610100949197969261012087019887526020870152610174604087015261017e606087015261016e608087015260a08601526001600160a01b03928380921660c08701521660e085015216910152565b038173__$f048dbd5170c0ac319fa0222065b281d84$__5af49182156136d9575b60009182936136a4575b50519081526020810191909152604090f35b816136ca92945061068a93503d85116136d2575b6136c28183610998565b810190615132565b929091613692565b503d6136b8565b6136e16138ba565b613688565b503461000e57604036600319011261000e576001600160a01b0360043561370c81610784565b1660005261018060205260406000206024356000526020526020604060002054604051908152f35b6001600160a01b0360c95416330361374857565b606460405162461bcd60e51b815260206004820152602060248201527f4f776e61626c653a2063616c6c6572206973206e6f7420746865206f776e65726044820152fd5b60c954906001600160a01b0380911691826001600160a01b031982161760c955167f8be0079c531659141344cd1fd0a4f28419497f9722a3daafe3b4186f6b6457e06000604051a3565b156137dd57565b60405162461bcd60e51b815260206004820152602c60248201527f46756e6374696f6e206d7573742062652063616c6c6564207468726f7567682060448201526b19195b1959d85d1958d85b1b60a21b6064820152608490fd5b1561383e57565b60405162461bcd60e51b815260206004820152602c60248201527f46756e6374696f6e206d7573742062652063616c6c6564207468726f7567682060448201526b6163746976652070726f787960a01b6064820152608490fd5b604051906138a582610944565b60008252565b9081602091031261000e575190565b506040513d6000823e3d90fd5b156138ce57565b60405162461bcd60e51b815260206004820152602960248201527f45524331393637557067726164653a20756e737570706f727465642070726f786044820152681a58589b195555525160ba1b6064820152608490fd5b803b15613968576001600160a01b037f360894a13ba1a3210667c828492db98dca3e2076cc3735a920a3ca505d382bbc91166001600160a01b0319825416179055565b60405162461bcd60e51b815260206004820152602d60248201527f455243313936373a206e657720696d706c656d656e746174696f6e206973206e60448201526c1bdd08184818dbdb9d1c9858dd609a1b6064820152608490fd5b6139cc81613925565b604051906001600160a01b0381167fbc7cd75a20ee27fd9adebab32041f755214dbc6bffa90cc0225b39da2e5c2d3b600084a2825115801590613a77575b613a1357505050565b600080613a7494613a2385610960565b602785527f416464726573733a206c6f772d6c6576656c2064656c65676174652063616c6c6020860152660819985a5b195960ca1b6040860152602081519101845af4613a6e61400f565b916142b0565b50565b506000613a0a565b613a8881613925565b604051906001600160a01b0381167fbc7cd75a20ee27fd9adebab32041f755214dbc6bffa90cc0225b39da2e5c2d3b600084a2825115801590613ace57613a1357505050565b506001613a0a565b15613add57565b60405162461bcd60e51b815260206004820152601860248201527f4552433732313a20696e76616c696420746f6b656e20494400000000000000006044820152606490fd5b60005260676020526001600160a01b036040600020541661062d811515613ad6565b90600182811c92168015613b74575b6020831014613b5e57565b634e487b7160e01b600052602260045260246000fd5b91607f1691613b53565b15613b8557565b60405162461bcd60e51b815260206004820152603d60248201527f4552433732313a20617070726f76652063616c6c6572206973206e6f7420746f60448201527f6b656e206f776e6572206f7220617070726f76656420666f7220616c6c0000006064820152608490fd5b613c18613c138260005260676020526001600160a01b0360406000205416151590565b613ad6565b60005260696020526001600160a01b036040600020541690565b15613c3957565b60405162461bcd60e51b815260206004820152602d60248201527f4552433732313a2063616c6c6572206973206e6f7420746f6b656e206f776e6560448201526c1c881bdc88185c1c1c9bdd9959609a1b6064820152608490fd5b90613cb8939291613ca86112748433613d1f565b613cb3838383613dfa565b61403f565b15613cbf57565b60405162461bcd60e51b815260206004820152603260248201527f4552433732313a207472616e7366657220746f206e6f6e20455243373231526560448201527131b2b4bb32b91034b6b83632b6b2b73a32b960711b6064820152608490fd5b6001600160a01b0380613d3184613b22565b169281831692848414948515613d67575b50508315613d51575b50505090565b613d5d91929350613bf0565b1614388080613d4b565b60ff92955090613d9691600052606a6020526040600020906001600160a01b0316600052602052604060002090565b5416923880613d42565b15613da757565b60405162461bcd60e51b815260206004820152602560248201527f4552433732313a207472616e736665722066726f6d20696e636f72726563742060448201526437bbb732b960d91b6064820152608490fd5b90613e209291613e0983613b22565b6001600160a01b0382811695909182168614613da0565b8216938415613f14576109c79481613e458693613e3f61158686613b22565b14613da0565b613e6c613e5c846000526069602052604060002090565b80546001600160a01b0319169055565b613e89846001600160a01b03166000526068602052604060002090565b6000198154019055613eae856001600160a01b03166000526068602052604060002090565b60018154019055613ee885613ecd856000526067602052604060002090565b906001600160a01b03166001600160a01b0319825416179055565b7fddf252ad1be2c89b69c2b068fc378daa952ba7f163c4a11628f55a4df523b3ef6000604051a4615a35565b60405162461bcd60e51b8152602060048201526024808201527f4552433732313a207472616e7366657220746f20746865207a65726f206164646044820152637265737360e01b6064820152608490fd5b600082815260696020526040902080546001600160a01b0319166001600160a01b0383161790556001600160a01b0380613f9e84613b22565b169116907f8c5be1e5ebec7d5bd14f71427d1e84f3dd0314c0f7b2291e5b200ac8c7c3b9256000604051a4565b9081602091031261000e575161062d8161051c565b909261062d94936080936001600160a01b038092168452166020830152604082015281606082015201906105f7565b3d1561403a573d90614020826109d6565b9161402e6040519384610998565b82523d6000602084013e565b606090565b92909190823b156141405761407a9260209260006001600160a01b03604051809781968295630a85bd0160e11b9b8c85523360048601613fe0565b0393165af160009181614110575b506141025761409561400f565b805190816140fd5760405162461bcd60e51b815260206004820152603260248201527f4552433732313a207472616e7366657220746f206e6f6e20455243373231526560448201527131b2b4bb32b91034b6b83632b6b2b73a32b960711b6064820152608490fd5b602001fd5b6001600160e01b0319161490565b61413291925060203d8111614139575b61412a8183610998565b810190613fcb565b9038614088565b503d614120565b50505050600190565b61416c613c138260005260676020526001600160a01b0360406000205416151590565b600090808252602060978152604083206040518481959083549061418f82613b44565b8085529460019280841690811561424b575060011461420f575b5050506141b892500384610998565b6141c0613898565b928351156142085780516141da57505061062d915061426b565b61062d92506141fa906141f460405195869485019061105b565b9061105b565b03601f198101835282610998565b9250505090565b869350819291528282205b8583106142335750506141b893508201013880806141a9565b8054838a01850152889450869390920191810161421a565b965050505050505060ff1916818401526141b883604081013880806141a9565b613c1361428e9160005260676020526001600160a01b0360406000205416151590565b600060405161429c81610944565b526040516142a981610944565b6000815290565b9192901561431257508151156142c4575090565b3b156142cd5790565b60405162461bcd60e51b815260206004820152601d60248201527f416464726573733a2063616c6c20746f206e6f6e2d636f6e74726163740000006044820152606490fd5b8251909150156143255750805190602001fd5b60405162461bcd60e51b815290819061196f906004830161061c565b50634e487b7160e01b600052601260045260246000fd5b60005261017f6020526040600020604051614372816108ea565b6001600160a01b038254168152600182015490606060ff60036020840195858752600281015460408601520154161515910152156117bf575190565b156143b557565b60405162461bcd60e51b815260206004820152601b60248201527f4d6967726174696f6e20616c726561647920636f6d706c6574656400000000006044820152606490fd5b50634e487b7160e01b600052601160045260246000fd5b6001906001198111614421570190565b61106e6143fa565b81198111614421570190565b9081602091031261000e575161062d8161073d565b604051906144578261097c565b600582526430b236b4b760d91b6020830152565b1561447257565b60405162461bcd60e51b815260206004820152600e60248201527f4e6f7420617574686f72697a65640000000000000000000000000000000000006044820152606490fd5b60046101735460026001821610156144d5575b60021b166101740190565b6144dd611a73565b6144ca565b6144ed610fff61444a565b606460ff614515614508828551168360208701511690614589565b8260408601511690614589565b1603614524576109c7906145d5565b604051631fff1b3b60e21b815260206004820152601260248201527f4d7573742073756d20757020746f2031303000000000000000000000000000006044820152606490fd5b90600381101561457c575b60051b0190565b614584611a73565b614575565b60ff8091169116908160ff038111614421570190565b80600019048211811515166145b2570290565b6145ba6143fa565b0290565b8181106145c9575050565b600081556001016145be565b9061016f60009081935b600380861015614632579060209160ff908183511691868654921b90811b9283911b169119161783550193600180930192601f8411614623575b50600101936145df565b60009350909101906001614619565b505050509050565b1561464157565b60405162461bcd60e51b815260206004820152602e60248201527f496e697469616c697a61626c653a20636f6e747261637420697320616c72656160448201527f647920696e697469616c697a65640000000000000000000000000000000000006064820152608490fd5b156146b357565b60405162461bcd60e51b815260206004820152600f60248201527f496e76616c6964206164647265737300000000000000000000000000000000006044820152606490fd5b61016580549068010000000000000000821015614761575b60018201808255821015614754575b6000527fd91ca5e44fa96a1732bfaed7fe33fc20ed69a9895cde1f18c7dcabca39d6a78b0180546001600160a01b0319169055565b61475c611a73565b61471f565b6147696108d3565b614710565b6001600160a01b03610165805490680100000000000000008210156147e2575b600182018082558210156147d5575b6000527fd91ca5e44fa96a1732bfaed7fe33fc20ed69a9895cde1f18c7dcabca39d6a78b0191166001600160a01b0319825416179055565b6147dd611a73565b61479d565b6147ea6108d3565b61478e565b6001906000198114614421570190565b9061016d600080935b600380861015614632578160209162ffffff600694511690858754911b65ffffffffffff811b9283911b1691191617855501910193601a8511614850575b6001019390614808565b60009450600190920191614846565b6040519061486c8261097c565b601382527f457363726f77656420417373657420426f6e64000000000000000000000000006020830152565b604051906148a58261097c565b600382526222a0a160e91b6020830152565b61497c906149196149ae936148df6001600160a01b0380851615159081614a69575b506146ac565b61016180546001600160a01b0319166001600160a01b0385161790556001600160a01b0361016291166001600160a01b0319825416179055565b614924600161017255565b600080526101636020526149607f323947e965fafc5a11fbcfc7a37a72d1b12094b96c7e62e08b97c054e8e6b0a75b805460ff19166001179055565b6149686146f8565b6149a86101679161498261497c84546147ef565b61016755565b6149a3614953826001600160a01b0316600052610163602052604060002090565b61476e565b546147ef565b610166805465ffffffffffff1916630114db001790556149ec6149cf6109c9565b62093a8081526224ea006020820152626ebe0060408201526147ff565b614a0e6149f76109c9565b60148152601e6020820152603260408201526145d5565b610181805460ff19169055614a38614a246144b7565b805467ffffffffffffffff19166001179055565b614a51614a4361485f565b614a4b614898565b90614b09565b614a59614ad5565b614a61615ea6565b6109c7614af8565b905082161515386148d9565b15614a7c57565b60405162461bcd60e51b815260206004820152602b60248201527f496e697469616c697a61626c653a20636f6e7472616374206973206e6f74206960448201526a6e697469616c697a696e6760a81b6064820152608490fd5b614aef60ff60005460081c16614aea81614a75565b614a75565b6109c73361378c565b6109c760ff60005460081c16614a75565b90614b1f60ff60005460081c16614aea81614a75565b815167ffffffffffffffff8111614c1a575b614b4581614b40606554613b44565b614c27565b602080601f8311600114614b87575081906109c794600092614b7c575b50508160011b916000199060031b1c191617606555614d18565b015190503880614b62565b919293601f198416614bbb60656000527f8ff97419363ffd7000167f130ef7168fbea05faf9251824ca5043f113cc6a7c790565b936000905b828210614c025750509160019391856109c797969410614be9575b505050811b01606555614d18565b015160001960f88460031b161c19169055388080614bdb565b80600186978294978701518155019601940190614bc0565b614c226108d3565b614b31565b90601f8211614c34575050565b6109c79160656000527f8ff97419363ffd7000167f130ef7168fbea05faf9251824ca5043f113cc6a7c7906020601f840160051c83019310614c7e575b601f0160051c01906145be565b9091508190614c71565b90601f8211614c95575050565b6109c79160666000527f46501879b8ca8525e8c2fd519e2fbfcfa2ebea26501294aa02cbfcfb12e94354906020601f840160051c83019310614c7e57601f0160051c01906145be565b9190601f8111614ced57505050565b6109c7926000526020600020906020601f840160051c83019310614c7e57601f0160051c01906145be565b90815167ffffffffffffffff8111614e03575b614d3f81614d3a606654613b44565b614c88565b602080601f8311600114614d7b5750819293600092614d70575b50508160011b916000199060031b1c191617606655565b015190503880614d59565b90601f19831694614dae60666000527f46501879b8ca8525e8c2fd519e2fbfcfa2ebea26501294aa02cbfcfb12e9435490565b926000905b878210614deb575050836001959610614dd2575b505050811b01606655565b015160001960f88460031b161c19169055388080614dc7565b80600185968294968601518155019501930190614db3565b614e0b6108d3565b614d2b565b15614e1757565b60405162461bcd60e51b815260206004820152601f60248201527f4661696c656420746f207472616e73666572206e617469766520746f6b656e006044820152606490fd5b60405190614e6982610960565b6060368337565b906000905b60038210614e8257505050565b6001602081928554815201930191019091614e75565b90614ea66040518093614e70565b6060820182811067ffffffffffffffff82111761090657604052565b612d6f82612d45565b906109c760ff6006614edb6109ba565b94614efd614ef082546001600160a01b031690565b6001600160a01b03168752565b60018101546001600160a01b038116602088015265ffffffffffff60a082901c16604088015260d01c6060870152614f3760028201614e98565b6080870152600581015460a08701520154818116151560c0860152614f64828260081c1660e08701614ec2565b60101c166101008401614ec2565b90614f7c81612d45565b62ff000082549160101b169062ff00001916179055565b91906020830192612d6f82612d45565b91909160408184031261000e578051926020908183015167ffffffffffffffff9384821161000e570181601f8201121561000e578051938411615028575b8360051b9060405194614ff685840187610998565b8552838086019282010192831161000e578301905b828210615019575050505090565b8151815290830190830161500b565b6150306108d3565b614fe1565b6101659081548082526020809201926000527fd91ca5e44fa96a1732bfaed7fe33fc20ed69a9895cde1f18c7dcabca39d6a78b916000905b82821061507b575050505090565b83546001600160a01b03168552938401936001938401939091019061506d565b60409061062d92815281602082015201615035565b60209181518110156150c5575b60051b010190565b6150cd611a73565b6150bd565b90929160a0820190610174835260209485840152604083015260a0606083015282518091528360c0830193019360005b82811061511e5750505061062d92506080818303910152615035565b855185529481019493810193600101615102565b919082604091031261000e576020825192015190565b9081606091031261000e578051916040602083015192015167ffffffffffffffff8116810361000e5790565b9091939293615181614e5c565b9160005b60ff90818116600381101561522257906151e16001926151d06151c96151c36151bd6151b087611a8a565b905460ff9160031b1c1690565b60ff1690565b8961459f565b6064900490565b6151da828a61456a565b528761456a565b516152196133618361334f6151ff610161546001600160a01b031690565b6001600160a01b031660005261016e602052604060002090565b90550116615185565b5050509490506109c7926152c261017254966152406132b8896147ef565b61525e816001600160a01b031660005261017d602052604060002090565b61526881546147ef565b8091558861528e826114b3856001600160a01b031660005261017c602052604060002090565b966152a2610161546001600160a01b031690565b6101665465ffffffffffff16916152bb60fb5460ff1690565b958a615da6565b50816152d1575b505083615bbe565b6005830182905560405163a9059cbb60e01b81523360048201526024810192909252602090829060449082906000906001600160a01b03165af1801561533b575b61531d575b806152c9565b6153349060203d8111611443576114338183610998565b5038615317565b6153436138ba565b615312565b9061535281612d45565b61ff0082549160081b169061ff001916179055565b1561536e57565b60405162461bcd60e51b815260206004820152601c60248201527f4552433732313a20746f6b656e20616c7265616479206d696e746564000000006044820152606490fd5b6001600160a01b0381169081156154765761544c906153f16153eb8560005260676020526001600160a01b0360406000205416151590565b15615367565b6154146153eb8560005260676020526001600160a01b0360406000205416151590565b615431816001600160a01b03166000526068602052604060002090565b60018154019055613ecd846000526067602052604060002090565b60007fddf252ad1be2c89b69c2b068fc378daa952ba7f163c4a11628f55a4df523b3ef81604051a4565b606460405162461bcd60e51b815260206004820152602060248201527f4552433732313a206d696e7420746f20746865207a65726f20616464726573736044820152fd5b919082604091031261000e576020825192015161062d81610784565b61062d9054613b44565b6154ea8154613b44565b90816154f4575050565b81601f60009311600114615506575055565b8183526020832061552291601f0160051c8101906001016145be565b8160208120915555565b61553581613b22565b5061553f81613b22565b6000908282526069602052604082206001600160a01b0319908181541690556001600160a01b0382169081845260686020526040842060001981540190558484526067602052604084209081541690558383827fddf252ad1be2c89b69c2b068fc378daa952ba7f163c4a11628f55a4df523b3ef82604051a415158061578b575b615606575b50506155e36155de826000526097602052604060002090565b6154d6565b6155ea5750565b6156016109c7916000526097602052604060002090565b6154e0565b61560f83614358565b8061561b575b506155c5565b8084615645612ec461564e946114b3876001600160a01b031660005261017c602052604060002090565b93858552615841565b6000805261017d6020526156c06156867f570683e83a763565db96d79020a21094d1eed3afde1dfb6258e82fee3838deb05b54614411565b6000805261017c602052916156bb837fdf42de3f6f21d051fad2ddf44fdf9c714eaaa0a956bf2970fe63b68205b0d06e6114b3565b61590f565b73__$f048dbd5170c0ac319fa0222065b281d84$__803b156157875760405163093c769560e21b815261017f6004820152610180602482015260448101859052600060648201526084810192909252909190829060a49082905af4801561577a575b615767575b506000805261017d6020527f570683e83a763565db96d79020a21094d1eed3afde1dfb6258e82fee3838deb061575d81546147ef565b9055388080615615565b8061176361577492610913565b38615727565b6157826138ba565b615722565b8280fd5b50816155c0565b906001600160a01b0390818316806000526101636020526157bc6112b4604060002060ff90541690565b61580c575b61016554939260005b60ff908682821610156157fd5783836157e5611ba1846126be565b16146157f457600101166157ca565b50505050915050565b5050505091506109c79061476e565b61581b61497c610167546147ef565b61583c614953856001600160a01b0316600052610163602052604060002090565b6157c1565b90916001600160a01b0373__$f048dbd5170c0ac319fa0222065b281d84$__9216908160005261017c6020526040600020833b1561000e5760009360e492604051968795869463f97681bd60e01b8652600486015261017f6024860152610180604486015261017d6064860152608485015260a484015260c48301525af480156158da575b6158cd5750565b806117636109c792610913565b6158e26138ba565b6158c6565b906000905b600382106158f957505050565b60016020828293518655019301910190916158ec565b9061010060066109c79361594961592d85516001600160a01b031690565b82546001600160a01b0319166001600160a01b03909116178255565b6159ce6001820161596761592d60208801516001600160a01b031690565b6159a161597d604088015165ffffffffffff1690565b825465ffffffffffff60a01b191660a09190911b65ffffffffffff60a01b16178255565b606086015165ffffffffffff1681546001600160d01b031660d09190911b6001600160d01b031916179055565b6159df6080850151600283016158e7565b60a084015160058201550191615a0d6159fb60c0830151151590565b849060ff801983541691151516179055565b615a2460e0820151615a1e81612d45565b84615348565b015190615a3082612d45565b614f72565b916001600160a01b0380841615159081615bb2575b50615a5457505050565b615a5d81614358565b80615a69575b50505050565b8082615a93612ec4615aa5946114b3896001600160a01b031660005261017c602052604060002090565b6001600160a01b038616815295615841565b615aec615ac9615680846001600160a01b031660005261017d602052604060002090565b936156bb856114b3866001600160a01b031660005261017c602052604060002090565b73__$f048dbd5170c0ac319fa0222065b281d84$__90813b1561000e5760405163093c769560e21b815261017f6004820152610180602482015260448101919091526001600160a01b03831660648201526084810193909352615b7d9290600090829060a49082905af48015615ba5575b615b92575b506001600160a01b031660005261017d602052604060002090565b615b8781546147ef565b905538808080615a63565b80611763615b9f92610913565b38615b62565b615bad6138ba565b615b5d565b90508216151538615a4a565b6001600160a01b03907fbbad5407299f3773930327d215f85a16617efbbddc1fe3902bd39ba46feacf2660c08385541693600186015460ff600688015416615c276040519865ffffffffffff8460a01c168a528360d01c60208b0152600260408b019101614e70565b151560a08801521694a4565b91600092835b60ff9081811660038110156157f45790615c556001928761456a565b516001600160a01b038516885261016e602052615c856133618360408b209060ff16600052602052604060002090565b90550116615c39565b615d63615d7c93615d5a899a96859860069661062d9c9b9965ffffffffffff928391615cd3834216948b906001600160a01b03166001600160a01b0319825416179055565b615cf760018b019687906001600160a01b03166001600160a01b0319825416179055565b855465ffffffffffff60a01b191660a085901b65ffffffffffff60a01b1617865515615d9b578161ffff6103f05b16918215615d8e575b1604168092038111615d81575b82546001600160d01b0316910160d01b6001600160d01b031916179055565b600283016158e7565b6000600582015501805462ffffff191662010000179055565b615e04565b615d896143fa565b615d3b565b615d96614341565b615d2e565b8161ffff6001615d25565b615deb615d7c93615d5a899a96859860069661062d9c9b9965ffffffffffff928391615cd3834216948b906001600160a01b03166001600160a01b0319825416179055565b6000600582015501805462ffffff191662010001179055565b91906040918251615e14816108ea565b615e916001600160a01b0380941691828152600360208201858152878301898152606084019160018352615e6f6000998c8b5261017f6020528b8b2096511686906001600160a01b03166001600160a01b0319825416179055565b51600185015551600284015551151591019060ff801983541691151516179055565b82526101806020528282209082526020522055565b615eb760ff60005460081c16614a75565b60ff1960fb541660fb5556fea264697066735822122015fde56c7c64eb262a24d2923e33bbde7f8a4dc29181a0b869260f50cd3792e264736f6c634300080e0033",
  "libraries": {
    "StakingLib": "0xf2069d5a633eC29852567aDf8a647F7031c1Eb61"
  },
  "devdoc": {
    "kind": "dev",
    "methods": {
      "approve(address,uint256)": {
        "details": "See {IERC721-approve}."
      },
      "balanceOf(address)": {
        "details": "See {IERC721-balanceOf}."
      },
      "getApproved(uint256)": {
        "details": "See {IERC721-getApproved}."
      },
      "getStakeEntry(uint256)": {
        "params": {
          "_stakeId": "Global stake ID"
        },
        "returns": {
          "_0": "The stake mapping entry"
        }
      },
      "getUserStakeId(address,uint256)": {
        "params": {
          "_user": "Owner address",
          "_userIndex": "Index in the user's personal mapping"
        },
        "returns": {
          "_0": "The stake ID"
        }
      },
      "getUserStakeIndex(uint256)": {
        "params": {
          "_stakeId": "Global stake ID"
        },
        "returns": {
          "_0": "The user index"
        }
      },
      "isApprovedForAll(address,address)": {
        "details": "See {IERC721-isApprovedForAll}."
      },
      "name()": {
        "details": "See {IERC721Metadata-name}."
      },
      "owner()": {
        "details": "Returns the address of the current owner."
      },
      "ownerOf(uint256)": {
        "details": "See {IERC721-ownerOf}."
      },
      "proxiableUUID()": {
        "details": "Implementation of the ERC1822 {proxiableUUID} function. This returns the storage slot used by the implementation. It is used to validate the implementation's compatibility when performing an upgrade. IMPORTANT: A proxy pointing at a proxiable contract should not be considered proxiable itself, because this risks bricking a proxy that upgrades to it, by delegating to itself until out of gas. Thus it is critical that this function revert if invoked through a proxy. This is guaranteed by the `notDelegated` modifier."
      },
      "renounceOwnership()": {
        "details": "Leaves the contract without owner. It will not be possible to call `onlyOwner` functions. Can only be called by the current owner. NOTE: Renouncing ownership will leave the contract without an owner, thereby disabling any functionality that is only available to the owner."
      },
      "safeTransferFrom(address,address,uint256)": {
        "details": "See {IERC721-safeTransferFrom}."
      },
      "safeTransferFrom(address,address,uint256,bytes)": {
        "details": "See {IERC721-safeTransferFrom}."
      },
      "setApprovalForAll(address,bool)": {
        "details": "See {IERC721-setApprovalForAll}."
      },
      "supportsInterface(bytes4)": {
        "details": "See {IERC165-supportsInterface}"
      },
      "symbol()": {
        "details": "See {IERC721Metadata-symbol}."
      },
      "tokenURI(uint256)": {
        "details": "See {IERC721Metadata-tokenURI}."
      },
      "transferFrom(address,address,uint256)": {
        "details": "See {IERC721-transferFrom}."
      },
      "transferOwnership(address)": {
        "details": "Transfers ownership of the contract to a new account (`newOwner`). Can only be called by the current owner."
      },
      "upgradeTo(address)": {
        "custom:oz-upgrades-unsafe-allow-reachable": "delegatecall",
        "details": "Upgrade the implementation of the proxy to `newImplementation`. Calls {_authorizeUpgrade}. Emits an {Upgraded} event."
      },
      "upgradeToAndCall(address,bytes)": {
        "custom:oz-upgrades-unsafe-allow-reachable": "delegatecall",
        "details": "Upgrade the implementation of the proxy to `newImplementation`, and subsequently execute the function call encoded in `data`. Calls {_authorizeUpgrade}. Emits an {Upgraded} event."
      }
    },
    "stateVariables": {
      "__gap": {
        "details": "IMPORTANT: When adding new storage variables, add them BELOW this comment and ABOVE the storage gap."
      },
      "_oldStakes": {
        "details": "DEPRECATED - Do not use. Kept for storage layout compatibility "
      },
      "activeStakesCount": {
        "details": "DEPRECATED - Do not use. Kept for storage layout compatibility "
      },
      "inflationRollOver": {
        "details": "DEPRECATED - Do not use. Kept for storage layout compatibility "
      },
      "lastEscrowRewardByToken_Duration": {
        "details": "DEPRECATED - Do not use. Kept for storage layout compatibility "
      },
      "poolRollOver": {
        "details": "DEPRECATED - Do not use. Kept for storage layout compatibility "
      },
      "stakes": {
        "details": "DEPRECATED - Do not use. Kept for storage layout compatibility "
      },
      "userToStakeTokenToLastEscrowId": {
        "details": "DEPRECATED - Do not use. Kept for storage layout compatibility "
      }
    },
    "version": 1
  },
  "userdoc": {
    "kind": "user",
    "methods": {
      "getStakeEntry(uint256)": {
        "notice": "Gets stake entry by ID"
      },
      "getUserStakeId(address,uint256)": {
        "notice": "Gets stake ID by user and index"
      },
      "getUserStakeIndex(uint256)": {
        "notice": "Gets user index by stake ID"
      }
    },
    "version": 1
  },
  "storageLayout": {
    "storage": [
      {
        "astId": 533,
        "contract": "contracts/staking/LendingPoolStakingV2.sol:LendingPoolStakingV2",
        "label": "_initialized",
        "offset": 0,
        "slot": "0",
        "type": "t_uint8"
      },
      {
        "astId": 536,
        "contract": "contracts/staking/LendingPoolStakingV2.sol:LendingPoolStakingV2",
        "label": "_initializing",
        "offset": 1,
        "slot": "0",
        "type": "t_bool"
      },
      {
        "astId": 2503,
        "contract": "contracts/staking/LendingPoolStakingV2.sol:LendingPoolStakingV2",
        "label": "__gap",
        "offset": 0,
        "slot": "1",
        "type": "t_array(t_uint256)50_storage"
      },
      {
        "astId": 2887,
        "contract": "contracts/staking/LendingPoolStakingV2.sol:LendingPoolStakingV2",
        "label": "__gap",
        "offset": 0,
        "slot": "51",
        "type": "t_array(t_uint256)50_storage"
      },
      {
        "astId": 862,
        "contract": "contracts/staking/LendingPoolStakingV2.sol:LendingPoolStakingV2",
        "label": "_name",
        "offset": 0,
        "slot": "101",
        "type": "t_string_storage"
      },
      {
        "astId": 864,
        "contract": "contracts/staking/LendingPoolStakingV2.sol:LendingPoolStakingV2",
        "label": "_symbol",
        "offset": 0,
        "slot": "102",
        "type": "t_string_storage"
      },
      {
        "astId": 868,
        "contract": "contracts/staking/LendingPoolStakingV2.sol:LendingPoolStakingV2",
        "label": "_owners",
        "offset": 0,
        "slot": "103",
        "type": "t_mapping(t_uint256,t_address)"
      },
      {
        "astId": 872,
        "contract": "contracts/staking/LendingPoolStakingV2.sol:LendingPoolStakingV2",
        "label": "_balances",
        "offset": 0,
        "slot": "104",
        "type": "t_mapping(t_address,t_uint256)"
      },
      {
        "astId": 876,
        "contract": "contracts/staking/LendingPoolStakingV2.sol:LendingPoolStakingV2",
        "label": "_tokenApprovals",
        "offset": 0,
        "slot": "105",
        "type": "t_mapping(t_uint256,t_address)"
      },
      {
        "astId": 882,
        "contract": "contracts/staking/LendingPoolStakingV2.sol:LendingPoolStakingV2",
        "label": "_operatorApprovals",
        "offset": 0,
        "slot": "106",
        "type": "t_mapping(t_address,t_mapping(t_address,t_bool))"
      },
      {
        "astId": 1784,
        "contract": "contracts/staking/LendingPoolStakingV2.sol:LendingPoolStakingV2",
        "label": "__gap",
        "offset": 0,
        "slot": "107",
        "type": "t_array(t_uint256)44_storage"
      },
      {
        "astId": 1939,
        "contract": "contracts/staking/LendingPoolStakingV2.sol:LendingPoolStakingV2",
        "label": "_tokenURIs",
        "offset": 0,
        "slot": "151",
        "type": "t_mapping(t_uint256,t_string_storage)"
      },
      {
        "astId": 2095,
        "contract": "contracts/staking/LendingPoolStakingV2.sol:LendingPoolStakingV2",
        "label": "__gap",
        "offset": 0,
        "slot": "152",
        "type": "t_array(t_uint256)49_storage"
      },
      {
        "astId": 11,
        "contract": "contracts/staking/LendingPoolStakingV2.sol:LendingPoolStakingV2",
        "label": "_owner",
        "offset": 0,
        "slot": "201",
        "type": "t_address"
      },
      {
        "astId": 131,
        "contract": "contracts/staking/LendingPoolStakingV2.sol:LendingPoolStakingV2",
        "label": "__gap",
        "offset": 0,
        "slot": "202",
        "type": "t_array(t_uint256)49_storage"
      },
      {
        "astId": 8963,
        "contract": "contracts/staking/LendingPoolStakingV2.sol:LendingPoolStakingV2",
        "label": "testing",
        "offset": 0,
        "slot": "251",
        "type": "t_bool"
      },
      {
        "astId": 5598,
        "contract": "contracts/staking/LendingPoolStakingV2.sol:LendingPoolStakingV2",
        "label": "hasRole",
        "offset": 0,
        "slot": "252",
        "type": "t_mapping(t_address,t_mapping(t_string_memory_ptr,t_bool))"
      },
      {
        "astId": 515,
        "contract": "contracts/staking/LendingPoolStakingV2.sol:LendingPoolStakingV2",
        "label": "__gap",
        "offset": 0,
        "slot": "253",
        "type": "t_array(t_uint256)50_storage"
      },
      {
        "astId": 831,
        "contract": "contracts/staking/LendingPoolStakingV2.sol:LendingPoolStakingV2",
        "label": "__gap",
        "offset": 0,
        "slot": "303",
        "type": "t_array(t_uint256)50_storage"
      },
      {
        "astId": 5961,
        "contract": "contracts/staking/LendingPoolStakingV2.sol:LendingPoolStakingV2",
        "label": "nend",
        "offset": 0,
        "slot": "353",
        "type": "t_address"
      },
      {
        "astId": 5964,
        "contract": "contracts/staking/LendingPoolStakingV2.sol:LendingPoolStakingV2",
        "label": "lendingPool",
        "offset": 0,
        "slot": "354",
        "type": "t_contract(Vault)9622"
      },
      {
        "astId": 5968,
        "contract": "contracts/staking/LendingPoolStakingV2.sol:LendingPoolStakingV2",
        "label": "activeStakeTokens",
        "offset": 0,
        "slot": "355",
        "type": "t_mapping(t_address,t_bool)"
      },
      {
        "astId": 5973,
        "contract": "contracts/staking/LendingPoolStakingV2.sol:LendingPoolStakingV2",
        "label": "inflationRollOver",
        "offset": 0,
        "slot": "356",
        "type": "t_mapping(t_address,t_uint256)"
      },
      {
        "astId": 5976,
        "contract": "contracts/staking/LendingPoolStakingV2.sol:LendingPoolStakingV2",
        "label": "stakeTokens",
        "offset": 0,
        "slot": "357",
        "type": "t_array(t_address)dyn_storage"
      },
      {
        "astId": 5978,
        "contract": "contracts/staking/LendingPoolStakingV2.sol:LendingPoolStakingV2",
        "label": "escrowLockPeriod",
        "offset": 0,
        "slot": "358",
        "type": "t_uint48"
      },
      {
        "astId": 5980,
        "contract": "contracts/staking/LendingPoolStakingV2.sol:LendingPoolStakingV2",
        "label": "stakeTokenCount",
        "offset": 0,
        "slot": "359",
        "type": "t_uint256"
      },
      {
        "astId": 5983,
        "contract": "contracts/staking/LendingPoolStakingV2.sol:LendingPoolStakingV2",
        "label": "activeStakesCount",
        "offset": 0,
        "slot": "360",
        "type": "t_uint256"
      },
      {
        "astId": 5987,
        "contract": "contracts/staking/LendingPoolStakingV2.sol:LendingPoolStakingV2",
        "label": "ifpTokenToAmount",
        "offset": 0,
        "slot": "361",
        "type": "t_mapping(t_address,t_uint256)"
      },
      {
        "astId": 5994,
        "contract": "contracts/staking/LendingPoolStakingV2.sol:LendingPoolStakingV2",
        "label": "userToStakeTokenToLastEscrowId",
        "offset": 0,
        "slot": "362",
        "type": "t_mapping(t_address,t_mapping(t_address,t_uint256))"
      },
      {
        "astId": 6001,
        "contract": "contracts/staking/LendingPoolStakingV2.sol:LendingPoolStakingV2",
        "label": "lastEscrowRewardByToken_Duration",
        "offset": 0,
        "slot": "363",
        "type": "t_mapping(t_address,t_mapping(t_uint8,t_uint256))"
      },
      {
        "astId": 6006,
        "contract": "contracts/staking/LendingPoolStakingV2.sol:LendingPoolStakingV2",
        "label": "_oldStakes",
        "offset": 0,
        "slot": "364",
        "type": "t_array(t_struct(Stake)8861_storage)dyn_storage"
      },
      {
        "astId": 6010,
        "contract": "contracts/staking/LendingPoolStakingV2.sol:LendingPoolStakingV2",
        "label": "stakeDurations",
        "offset": 0,
        "slot": "365",
        "type": "t_array(t_uint48)3_storage"
      },
      {
        "astId": 6016,
        "contract": "contracts/staking/LendingPoolStakingV2.sol:LendingPoolStakingV2",
        "label": "totalStakedByToken_Duration",
        "offset": 0,
        "slot": "366",
        "type": "t_mapping(t_address,t_mapping(t_uint8,t_uint256))"
      },
      {
        "astId": 6020,
        "contract": "contracts/staking/LendingPoolStakingV2.sol:LendingPoolStakingV2",
        "label": "rewardAllocations",
        "offset": 0,
        "slot": "367",
        "type": "t_array(t_uint8)3_storage"
      },
      {
        "astId": 6023,
        "contract": "contracts/staking/LendingPoolStakingV2.sol:LendingPoolStakingV2",
        "label": "poolRollOver",
        "offset": 0,
        "slot": "368",
        "type": "t_uint256"
      },
      {
        "astId": 6029,
        "contract": "contracts/staking/LendingPoolStakingV2.sol:LendingPoolStakingV2",
        "label": "stakes",
        "offset": 0,
        "slot": "369",
        "type": "t_mapping(t_uint256,t_struct(Stake)8861_storage)"
      },
      {
        "astId": 6031,
        "contract": "contracts/staking/LendingPoolStakingV2.sol:LendingPoolStakingV2",
        "label": "nextStakeId",
        "offset": 0,
        "slot": "370",
        "type": "t_uint256"
      },
      {
        "astId": 6036,
        "contract": "contracts/staking/LendingPoolStakingV2.sol:LendingPoolStakingV2",
        "label": "_currentPeriodIdx",
        "offset": 0,
        "slot": "371",
        "type": "t_uint256"
      },
      {
        "astId": 6041,
        "contract": "contracts/staking/LendingPoolStakingV2.sol:LendingPoolStakingV2",
        "label": "recentPeriods",
        "offset": 0,
        "slot": "372",
        "type": "t_array(t_struct(RewardPeriod)8829_storage)2_storage"
      },
      {
        "astId": 6048,
        "contract": "contracts/staking/LendingPoolStakingV2.sol:LendingPoolStakingV2",
        "label": "_userStakesById",
        "offset": 0,
        "slot": "380",
        "type": "t_mapping(t_address,t_mapping(t_uint256,t_struct(Stake)8861_storage))"
      },
      {
        "astId": 6052,
        "contract": "contracts/staking/LendingPoolStakingV2.sol:LendingPoolStakingV2",
        "label": "userStakesCount",
        "offset": 0,
        "slot": "381",
        "type": "t_mapping(t_address,t_uint256)"
      },
      {
        "astId": 6060,
        "contract": "contracts/staking/LendingPoolStakingV2.sol:LendingPoolStakingV2",
        "label": "_userClaimedForPeriod",
        "offset": 0,
        "slot": "382",
        "type": "t_mapping(t_address,t_mapping(t_uint64,t_mapping(t_address,t_bool)))"
      },
      {
        "astId": 6065,
        "contract": "contracts/staking/LendingPoolStakingV2.sol:LendingPoolStakingV2",
        "label": "_stakeEntries",
        "offset": 0,
        "slot": "383",
        "type": "t_mapping(t_uint256,t_struct(StakeMappingEntry)8838_storage)"
      },
      {
        "astId": 6071,
        "contract": "contracts/staking/LendingPoolStakingV2.sol:LendingPoolStakingV2",
        "label": "_userIndexToId",
        "offset": 0,
        "slot": "384",
        "type": "t_mapping(t_address,t_mapping(t_uint256,t_uint256))"
      },
      {
        "astId": 6073,
        "contract": "contracts/staking/LendingPoolStakingV2.sol:LendingPoolStakingV2",
        "label": "stakesDeprecated",
        "offset": 0,
        "slot": "385",
        "type": "t_bool"
      },
      {
        "astId": 6078,
        "contract": "contracts/staking/LendingPoolStakingV2.sol:LendingPoolStakingV2",
        "label": "__gap",
        "offset": 0,
        "slot": "386",
        "type": "t_array(t_uint256)50_storage"
      }
    ],
    "types": {
      "t_address": {
        "encoding": "inplace",
        "label": "address",
        "numberOfBytes": "20"
      },
      "t_array(t_address)dyn_storage": {
        "base": "t_address",
        "encoding": "dynamic_array",
        "label": "address[]",
        "numberOfBytes": "32"
      },
      "t_array(t_struct(RewardPeriod)8829_storage)2_storage": {
        "base": "t_struct(RewardPeriod)8829_storage",
        "encoding": "inplace",
        "label": "struct ILendingPoolStakingV2.RewardPeriod[2]",
        "numberOfBytes": "256"
      },
      "t_array(t_struct(Stake)8861_storage)dyn_storage": {
        "base": "t_struct(Stake)8861_storage",
        "encoding": "dynamic_array",
        "label": "struct ILendingPoolStakingV2.Stake[]",
        "numberOfBytes": "32"
      },
      "t_array(t_uint256)3_storage": {
        "base": "t_uint256",
        "encoding": "inplace",
        "label": "uint256[3]",
        "numberOfBytes": "96"
      },
      "t_array(t_uint256)44_storage": {
        "base": "t_uint256",
        "encoding": "inplace",
        "label": "uint256[44]",
        "numberOfBytes": "1408"
      },
      "t_array(t_uint256)49_storage": {
        "base": "t_uint256",
        "encoding": "inplace",
        "label": "uint256[49]",
        "numberOfBytes": "1568"
      },
      "t_array(t_uint256)50_storage": {
        "base": "t_uint256",
        "encoding": "inplace",
        "label": "uint256[50]",
        "numberOfBytes": "1600"
      },
      "t_array(t_uint48)3_storage": {
        "base": "t_uint48",
        "encoding": "inplace",
        "label": "uint48[3]",
        "numberOfBytes": "32"
      },
      "t_array(t_uint8)3_storage": {
        "base": "t_uint8",
        "encoding": "inplace",
        "label": "uint8[3]",
        "numberOfBytes": "32"
      },
      "t_bool": {
        "encoding": "inplace",
        "label": "bool",
        "numberOfBytes": "1"
      },
      "t_contract(Vault)9622": {
        "encoding": "inplace",
        "label": "contract Vault",
        "numberOfBytes": "20"
      },
      "t_enum(EscrowStatus)8810": {
        "encoding": "inplace",
        "label": "enum ILendingPoolStakingV2.EscrowStatus",
        "numberOfBytes": "1"
      },
      "t_enum(StakeStatus)8806": {
        "encoding": "inplace",
        "label": "enum ILendingPoolStakingV2.StakeStatus",
        "numberOfBytes": "1"
      },
      "t_mapping(t_address,t_bool)": {
        "encoding": "mapping",
        "key": "t_address",
        "label": "mapping(address => bool)",
        "numberOfBytes": "32",
        "value": "t_bool"
      },
      "t_mapping(t_address,t_mapping(t_address,t_bool))": {
        "encoding": "mapping",
        "key": "t_address",
        "label": "mapping(address => mapping(address => bool))",
        "numberOfBytes": "32",
        "value": "t_mapping(t_address,t_bool)"
      },
      "t_mapping(t_address,t_mapping(t_address,t_uint256))": {
        "encoding": "mapping",
        "key": "t_address",
        "label": "mapping(address => mapping(address => uint256))",
        "numberOfBytes": "32",
        "value": "t_mapping(t_address,t_uint256)"
      },
      "t_mapping(t_address,t_mapping(t_string_memory_ptr,t_bool))": {
        "encoding": "mapping",
        "key": "t_address",
        "label": "mapping(address => mapping(string => bool))",
        "numberOfBytes": "32",
        "value": "t_mapping(t_string_memory_ptr,t_bool)"
      },
      "t_mapping(t_address,t_mapping(t_uint256,t_struct(Stake)8861_storage))": {
        "encoding": "mapping",
        "key": "t_address",
        "label": "mapping(address => mapping(uint256 => struct ILendingPoolStakingV2.Stake))",
        "numberOfBytes": "32",
        "value": "t_mapping(t_uint256,t_struct(Stake)8861_storage)"
      },
      "t_mapping(t_address,t_mapping(t_uint256,t_uint256))": {
        "encoding": "mapping",
        "key": "t_address",
        "label": "mapping(address => mapping(uint256 => uint256))",
        "numberOfBytes": "32",
        "value": "t_mapping(t_uint256,t_uint256)"
      },
      "t_mapping(t_address,t_mapping(t_uint64,t_mapping(t_address,t_bool)))": {
        "encoding": "mapping",
        "key": "t_address",
        "label": "mapping(address => mapping(uint64 => mapping(address => bool)))",
        "numberOfBytes": "32",
        "value": "t_mapping(t_uint64,t_mapping(t_address,t_bool))"
      },
      "t_mapping(t_address,t_mapping(t_uint8,t_uint256))": {
        "encoding": "mapping",
        "key": "t_address",
        "label": "mapping(address => mapping(uint8 => uint256))",
        "numberOfBytes": "32",
        "value": "t_mapping(t_uint8,t_uint256)"
      },
      "t_mapping(t_address,t_struct(IFPRewardPeriod)8815_storage)": {
        "encoding": "mapping",
        "key": "t_address",
        "label": "mapping(address => struct ILendingPoolStakingV2.IFPRewardPeriod)",
        "numberOfBytes": "32",
        "value": "t_struct(IFPRewardPeriod)8815_storage"
      },
      "t_mapping(t_address,t_uint256)": {
        "encoding": "mapping",
        "key": "t_address",
        "label": "mapping(address => uint256)",
        "numberOfBytes": "32",
        "value": "t_uint256"
      },
      "t_mapping(t_string_memory_ptr,t_bool)": {
        "encoding": "mapping",
        "key": "t_string_memory_ptr",
        "label": "mapping(string => bool)",
        "numberOfBytes": "32",
        "value": "t_bool"
      },
      "t_mapping(t_uint256,t_address)": {
        "encoding": "mapping",
        "key": "t_uint256",
        "label": "mapping(uint256 => address)",
        "numberOfBytes": "32",
        "value": "t_address"
      },
      "t_mapping(t_uint256,t_string_storage)": {
        "encoding": "mapping",
        "key": "t_uint256",
        "label": "mapping(uint256 => string)",
        "numberOfBytes": "32",
        "value": "t_string_storage"
      },
      "t_mapping(t_uint256,t_struct(Stake)8861_storage)": {
        "encoding": "mapping",
        "key": "t_uint256",
        "label": "mapping(uint256 => struct ILendingPoolStakingV2.Stake)",
        "numberOfBytes": "32",
        "value": "t_struct(Stake)8861_storage"
      },
      "t_mapping(t_uint256,t_struct(StakeMappingEntry)8838_storage)": {
        "encoding": "mapping",
        "key": "t_uint256",
        "label": "mapping(uint256 => struct ILendingPoolStakingV2.StakeMappingEntry)",
        "numberOfBytes": "32",
        "value": "t_struct(StakeMappingEntry)8838_storage"
      },
      "t_mapping(t_uint256,t_uint256)": {
        "encoding": "mapping",
        "key": "t_uint256",
        "label": "mapping(uint256 => uint256)",
        "numberOfBytes": "32",
        "value": "t_uint256"
      },
      "t_mapping(t_uint64,t_mapping(t_address,t_bool))": {
        "encoding": "mapping",
        "key": "t_uint64",
        "label": "mapping(uint64 => mapping(address => bool))",
        "numberOfBytes": "32",
        "value": "t_mapping(t_address,t_bool)"
      },
      "t_mapping(t_uint8,t_uint256)": {
        "encoding": "mapping",
        "key": "t_uint8",
        "label": "mapping(uint8 => uint256)",
        "numberOfBytes": "32",
        "value": "t_uint256"
      },
      "t_string_memory_ptr": {
        "encoding": "bytes",
        "label": "string",
        "numberOfBytes": "32"
      },
      "t_string_storage": {
        "encoding": "bytes",
        "label": "string",
        "numberOfBytes": "32"
      },
      "t_struct(IFPRewardPeriod)8815_storage": {
        "encoding": "inplace",
        "label": "struct ILendingPoolStakingV2.IFPRewardPeriod",
        "members": [
          {
            "astId": 8812,
            "contract": "contracts/staking/LendingPoolStakingV2.sol:LendingPoolStakingV2",
            "label": "rewardToDistribute",
            "offset": 0,
            "slot": "0",
            "type": "t_uint256"
          },
          {
            "astId": 8814,
            "contract": "contracts/staking/LendingPoolStakingV2.sol:LendingPoolStakingV2",
            "label": "rewardClaimed",
            "offset": 0,
            "slot": "1",
            "type": "t_uint256"
          }
        ],
        "numberOfBytes": "64"
      },
      "t_struct(RewardPeriod)8829_storage": {
        "encoding": "inplace",
        "label": "struct ILendingPoolStakingV2.RewardPeriod",
        "members": [
          {
            "astId": 8817,
            "contract": "contracts/staking/LendingPoolStakingV2.sol:LendingPoolStakingV2",
            "label": "periodId",
            "offset": 0,
            "slot": "0",
            "type": "t_uint64"
          },
          {
            "astId": 8819,
            "contract": "contracts/staking/LendingPoolStakingV2.sol:LendingPoolStakingV2",
            "label": "startTime",
            "offset": 8,
            "slot": "0",
            "type": "t_uint64"
          },
          {
            "astId": 8821,
            "contract": "contracts/staking/LendingPoolStakingV2.sol:LendingPoolStakingV2",
            "label": "rewardsToDistribute",
            "offset": 0,
            "slot": "1",
            "type": "t_uint256"
          },
          {
            "astId": 8823,
            "contract": "contracts/staking/LendingPoolStakingV2.sol:LendingPoolStakingV2",
            "label": "rewardsStaked",
            "offset": 0,
            "slot": "2",
            "type": "t_uint256"
          },
          {
            "astId": 8828,
            "contract": "contracts/staking/LendingPoolStakingV2.sol:LendingPoolStakingV2",
            "label": "ifpRewardPeriod",
            "offset": 0,
            "slot": "3",
            "type": "t_mapping(t_address,t_struct(IFPRewardPeriod)8815_storage)"
          }
        ],
        "numberOfBytes": "128"
      },
      "t_struct(Stake)8861_storage": {
        "encoding": "inplace",
        "label": "struct ILendingPoolStakingV2.Stake",
        "members": [
          {
            "astId": 8840,
            "contract": "contracts/staking/LendingPoolStakingV2.sol:LendingPoolStakingV2",
            "label": "staker",
            "offset": 0,
            "slot": "0",
            "type": "t_address"
          },
          {
            "astId": 8842,
            "contract": "contracts/staking/LendingPoolStakingV2.sol:LendingPoolStakingV2",
            "label": "token",
            "offset": 0,
            "slot": "1",
            "type": "t_address"
          },
          {
            "astId": 8844,
            "contract": "contracts/staking/LendingPoolStakingV2.sol:LendingPoolStakingV2",
            "label": "start",
            "offset": 20,
            "slot": "1",
            "type": "t_uint48"
          },
          {
            "astId": 8846,
            "contract": "contracts/staking/LendingPoolStakingV2.sol:LendingPoolStakingV2",
            "label": "end",
            "offset": 26,
            "slot": "1",
            "type": "t_uint48"
          },
          {
            "astId": 8850,
            "contract": "contracts/staking/LendingPoolStakingV2.sol:LendingPoolStakingV2",
            "label": "amountsPerDuration",
            "offset": 0,
            "slot": "2",
            "type": "t_array(t_uint256)3_storage"
          },
          {
            "astId": 8852,
            "contract": "contracts/staking/LendingPoolStakingV2.sol:LendingPoolStakingV2",
            "label": "rewardAllocated",
            "offset": 0,
            "slot": "5",
            "type": "t_uint256"
          },
          {
            "astId": 8854,
            "contract": "contracts/staking/LendingPoolStakingV2.sol:LendingPoolStakingV2",
            "label": "isEscrow",
            "offset": 0,
            "slot": "6",
            "type": "t_bool"
          },
          {
            "astId": 8857,
            "contract": "contracts/staking/LendingPoolStakingV2.sol:LendingPoolStakingV2",
            "label": "escrowStatus",
            "offset": 1,
            "slot": "6",
            "type": "t_enum(EscrowStatus)8810"
          },
          {
            "astId": 8860,
            "contract": "contracts/staking/LendingPoolStakingV2.sol:LendingPoolStakingV2",
            "label": "stakeStatus",
            "offset": 2,
            "slot": "6",
            "type": "t_enum(StakeStatus)8806"
          }
        ],
        "numberOfBytes": "224"
      },
      "t_struct(StakeMappingEntry)8838_storage": {
        "encoding": "inplace",
        "label": "struct ILendingPoolStakingV2.StakeMappingEntry",
        "members": [
          {
            "astId": 8831,
            "contract": "contracts/staking/LendingPoolStakingV2.sol:LendingPoolStakingV2",
            "label": "user",
            "offset": 0,
            "slot": "0",
            "type": "t_address"
          },
          {
            "astId": 8833,
            "contract": "contracts/staking/LendingPoolStakingV2.sol:LendingPoolStakingV2",
            "label": "userIndex",
            "offset": 0,
            "slot": "1",
            "type": "t_uint256"
          },
          {
            "astId": 8835,
            "contract": "contracts/staking/LendingPoolStakingV2.sol:LendingPoolStakingV2",
            "label": "stakeId",
            "offset": 0,
            "slot": "2",
            "type": "t_uint256"
          },
          {
            "astId": 8837,
            "contract": "contracts/staking/LendingPoolStakingV2.sol:LendingPoolStakingV2",
            "label": "exists",
            "offset": 0,
            "slot": "3",
            "type": "t_bool"
          }
        ],
        "numberOfBytes": "128"
      },
      "t_uint256": {
        "encoding": "inplace",
        "label": "uint256",
        "numberOfBytes": "32"
      },
      "t_uint48": {
        "encoding": "inplace",
        "label": "uint48",
        "numberOfBytes": "6"
      },
      "t_uint64": {
        "encoding": "inplace",
        "label": "uint64",
        "numberOfBytes": "8"
      },
      "t_uint8": {
        "encoding": "inplace",
        "label": "uint8",
        "numberOfBytes": "1"
      }
    }
  }
}