{
  "address": "0x8138C62fc1e6fB8E1b90f79eB25EcCF8e82648b4",
  "abi": [
    {
      "inputs": [
        {
          "internalType": "address",
          "name": "_nend",
          "type": "address"
        },
        {
          "internalType": "address",
          "name": "_insurancePool",
          "type": "address"
        },
        {
          "internalType": "address",
          "name": "_ecosystemPool",
          "type": "address"
        }
      ],
      "stateMutability": "nonpayable",
      "type": "constructor"
    },
    {
      "anonymous": false,
      "inputs": [
        {
          "indexed": true,
          "internalType": "uint256",
          "name": "id",
          "type": "uint256"
        }
      ],
      "name": "CloseMarket",
      "type": "event"
    },
    {
      "anonymous": false,
      "inputs": [
        {
          "indexed": true,
          "internalType": "uint256",
          "name": "id",
          "type": "uint256"
        },
        {
          "indexed": true,
          "internalType": "address",
          "name": "quoteToken",
          "type": "address"
        },
        {
          "indexed": false,
          "internalType": "uint48",
          "name": "conclusion",
          "type": "uint48"
        },
        {
          "indexed": false,
          "internalType": "uint256",
          "name": "capacity",
          "type": "uint256"
        },
        {
          "indexed": false,
          "internalType": "bool",
          "name": "capacityInQuote",
          "type": "bool"
        }
      ],
      "name": "CreateMarket",
      "type": "event"
    },
    {
      "anonymous": false,
      "inputs": [
        {
          "indexed": false,
          "internalType": "address",
          "name": "ownerAddress",
          "type": "address"
        },
        {
          "indexed": false,
          "internalType": "uint48",
          "name": "marketId",
          "type": "uint48"
        },
        {
          "indexed": false,
          "internalType": "uint256",
          "name": "noteId",
          "type": "uint256"
        },
        {
          "indexed": false,
          "internalType": "uint256",
          "name": "amount",
          "type": "uint256"
        },
        {
          "indexed": false,
          "internalType": "uint256",
          "name": "price",
          "type": "uint256"
        },
        {
          "indexed": false,
          "internalType": "uint256",
          "name": "payout",
          "type": "uint256"
        },
        {
          "indexed": false,
          "internalType": "uint256",
          "name": "payoutPerVesting",
          "type": "uint256"
        },
        {
          "indexed": false,
          "internalType": "uint48",
          "name": "created",
          "type": "uint48"
        }
      ],
      "name": "NoteCreated",
      "type": "event"
    },
    {
      "anonymous": false,
      "inputs": [
        {
          "indexed": false,
          "internalType": "address",
          "name": "ownerAddress",
          "type": "address"
        },
        {
          "indexed": false,
          "internalType": "uint256[]",
          "name": "indexes",
          "type": "uint256[]"
        },
        {
          "indexed": false,
          "internalType": "uint8[]",
          "name": "vestingCount",
          "type": "uint8[]"
        },
        {
          "indexed": false,
          "internalType": "uint256[]",
          "name": "totalVested",
          "type": "uint256[]"
        }
      ],
      "name": "NotesRedeemed",
      "type": "event"
    },
    {
      "anonymous": false,
      "inputs": [
        {
          "indexed": true,
          "internalType": "address",
          "name": "previousOwner",
          "type": "address"
        },
        {
          "indexed": true,
          "internalType": "address",
          "name": "newOwner",
          "type": "address"
        }
      ],
      "name": "OwnershipTransferred",
      "type": "event"
    },
    {
      "inputs": [
        {
          "internalType": "uint256",
          "name": "",
          "type": "uint256"
        }
      ],
      "name": "adjustments",
      "outputs": [
        {
          "internalType": "uint256",
          "name": "change",
          "type": "uint256"
        },
        {
          "internalType": "uint48",
          "name": "lastAdjustment",
          "type": "uint48"
        },
        {
          "internalType": "uint48",
          "name": "timeToAdjusted",
          "type": "uint48"
        },
        {
          "internalType": "bool",
          "name": "active",
          "type": "bool"
        }
      ],
      "stateMutability": "view",
      "type": "function"
    },
    {
      "inputs": [
        {
          "internalType": "address",
          "name": "operator",
          "type": "address"
        },
        {
          "internalType": "string",
          "name": "role",
          "type": "string"
        },
        {
          "internalType": "bool",
          "name": "authorized",
          "type": "bool"
        }
      ],
      "name": "authorize",
      "outputs": [],
      "stateMutability": "nonpayable",
      "type": "function"
    },
    {
      "inputs": [
        {
          "internalType": "uint256",
          "name": "_id",
          "type": "uint256"
        }
      ],
      "name": "close",
      "outputs": [],
      "stateMutability": "nonpayable",
      "type": "function"
    },
    {
      "inputs": [],
      "name": "commissionRate",
      "outputs": [
        {
          "internalType": "uint16",
          "name": "",
          "type": "uint16"
        }
      ],
      "stateMutability": "view",
      "type": "function"
    },
    {
      "inputs": [
        {
          "internalType": "contract IERC20",
          "name": "_quoteToken",
          "type": "address"
        },
        {
          "internalType": "uint256",
          "name": "_capacity",
          "type": "uint256"
        },
        {
          "internalType": "bool",
          "name": "_capacityInQuote",
          "type": "bool"
        },
        {
          "internalType": "uint256",
          "name": "_initialPrice",
          "type": "uint256"
        },
        {
          "internalType": "uint48",
          "name": "_conclusion",
          "type": "uint48"
        },
        {
          "internalType": "uint32",
          "name": "_depositInterval",
          "type": "uint32"
        },
        {
          "internalType": "uint32",
          "name": "_tuneInterval",
          "type": "uint32"
        }
      ],
      "name": "create",
      "outputs": [
        {
          "internalType": "uint256",
          "name": "id_",
          "type": "uint256"
        }
      ],
      "stateMutability": "nonpayable",
      "type": "function"
    },
    {
      "inputs": [
        {
          "internalType": "uint256",
          "name": "_id",
          "type": "uint256"
        },
        {
          "internalType": "uint256",
          "name": "_amount",
          "type": "uint256"
        },
        {
          "internalType": "uint256",
          "name": "_maxPrice",
          "type": "uint256"
        }
      ],
      "name": "deposit",
      "outputs": [
        {
          "internalType": "uint256",
          "name": "payout_",
          "type": "uint256"
        },
        {
          "internalType": "uint256",
          "name": "index_",
          "type": "uint256"
        }
      ],
      "stateMutability": "nonpayable",
      "type": "function"
    },
    {
      "inputs": [],
      "name": "ecosystemPool",
      "outputs": [
        {
          "internalType": "address",
          "name": "",
          "type": "address"
        }
      ],
      "stateMutability": "view",
      "type": "function"
    },
    {
      "inputs": [
        {
          "internalType": "uint256",
          "name": "_id",
          "type": "uint256"
        }
      ],
      "name": "getMarketData",
      "outputs": [
        {
          "internalType": "uint256",
          "name": "",
          "type": "uint256"
        },
        {
          "internalType": "uint256",
          "name": "",
          "type": "uint256"
        },
        {
          "internalType": "uint256",
          "name": "",
          "type": "uint256"
        }
      ],
      "stateMutability": "view",
      "type": "function"
    },
    {
      "inputs": [
        {
          "internalType": "address",
          "name": "",
          "type": "address"
        },
        {
          "internalType": "string",
          "name": "",
          "type": "string"
        }
      ],
      "name": "hasRole",
      "outputs": [
        {
          "internalType": "bool",
          "name": "",
          "type": "bool"
        }
      ],
      "stateMutability": "view",
      "type": "function"
    },
    {
      "inputs": [],
      "name": "insurancePool",
      "outputs": [
        {
          "internalType": "address",
          "name": "",
          "type": "address"
        }
      ],
      "stateMutability": "view",
      "type": "function"
    },
    {
      "inputs": [
        {
          "internalType": "uint256",
          "name": "",
          "type": "uint256"
        }
      ],
      "name": "markets",
      "outputs": [
        {
          "internalType": "uint256",
          "name": "capacity",
          "type": "uint256"
        },
        {
          "internalType": "contract IERC20",
          "name": "quoteToken",
          "type": "address"
        },
        {
          "internalType": "bool",
          "name": "capacityInQuote",
          "type": "bool"
        },
        {
          "internalType": "uint256",
          "name": "totalDebt",
          "type": "uint256"
        },
        {
          "internalType": "uint256",
          "name": "maxPayout",
          "type": "uint256"
        },
        {
          "internalType": "uint256",
          "name": "sold",
          "type": "uint256"
        },
        {
          "internalType": "uint256",
          "name": "purchased",
          "type": "uint256"
        }
      ],
      "stateMutability": "view",
      "type": "function"
    },
    {
      "inputs": [
        {
          "internalType": "address",
          "name": "",
          "type": "address"
        },
        {
          "internalType": "uint256",
          "name": "",
          "type": "uint256"
        }
      ],
      "name": "marketsForQuote",
      "outputs": [
        {
          "internalType": "uint256",
          "name": "",
          "type": "uint256"
        }
      ],
      "stateMutability": "view",
      "type": "function"
    },
    {
      "inputs": [
        {
          "internalType": "uint256",
          "name": "",
          "type": "uint256"
        }
      ],
      "name": "metadata",
      "outputs": [
        {
          "internalType": "uint48",
          "name": "lastTune",
          "type": "uint48"
        },
        {
          "internalType": "uint48",
          "name": "lastDecay",
          "type": "uint48"
        },
        {
          "internalType": "uint48",
          "name": "length",
          "type": "uint48"
        },
        {
          "internalType": "uint48",
          "name": "depositInterval",
          "type": "uint48"
        },
        {
          "internalType": "uint48",
          "name": "tuneInterval",
          "type": "uint48"
        },
        {
          "internalType": "uint8",
          "name": "quoteDecimals",
          "type": "uint8"
        }
      ],
      "stateMutability": "view",
      "type": "function"
    },
    {
      "inputs": [],
      "name": "nend",
      "outputs": [
        {
          "internalType": "address",
          "name": "",
          "type": "address"
        }
      ],
      "stateMutability": "view",
      "type": "function"
    },
    {
      "inputs": [
        {
          "internalType": "address",
          "name": "",
          "type": "address"
        },
        {
          "internalType": "uint256",
          "name": "",
          "type": "uint256"
        }
      ],
      "name": "notes",
      "outputs": [
        {
          "internalType": "uint256",
          "name": "payout",
          "type": "uint256"
        },
        {
          "internalType": "uint256",
          "name": "payoutPerVesting",
          "type": "uint256"
        },
        {
          "internalType": "uint48",
          "name": "created",
          "type": "uint48"
        },
        {
          "internalType": "uint48",
          "name": "marketID",
          "type": "uint48"
        },
        {
          "internalType": "uint8",
          "name": "vestingCount",
          "type": "uint8"
        }
      ],
      "stateMutability": "view",
      "type": "function"
    },
    {
      "inputs": [],
      "name": "owner",
      "outputs": [
        {
          "internalType": "address",
          "name": "",
          "type": "address"
        }
      ],
      "stateMutability": "view",
      "type": "function"
    },
    {
      "inputs": [
        {
          "internalType": "uint256[]",
          "name": "_indexes",
          "type": "uint256[]"
        }
      ],
      "name": "redeem",
      "outputs": [
        {
          "internalType": "uint256",
          "name": "payout_",
          "type": "uint256"
        }
      ],
      "stateMutability": "nonpayable",
      "type": "function"
    },
    {
      "inputs": [
        {
          "internalType": "uint256",
          "name": "_marketId",
          "type": "uint256"
        }
      ],
      "name": "redeemAll",
      "outputs": [
        {
          "internalType": "uint256",
          "name": "",
          "type": "uint256"
        }
      ],
      "stateMutability": "nonpayable",
      "type": "function"
    },
    {
      "inputs": [],
      "name": "renounceOwnership",
      "outputs": [],
      "stateMutability": "nonpayable",
      "type": "function"
    },
    {
      "inputs": [
        {
          "internalType": "bool",
          "name": "_testing",
          "type": "bool"
        }
      ],
      "name": "setTesting",
      "outputs": [],
      "stateMutability": "nonpayable",
      "type": "function"
    },
    {
      "inputs": [
        {
          "internalType": "uint256",
          "name": "",
          "type": "uint256"
        }
      ],
      "name": "terms",
      "outputs": [
        {
          "internalType": "uint256",
          "name": "controlVariable",
          "type": "uint256"
        },
        {
          "internalType": "uint48",
          "name": "conclusion",
          "type": "uint48"
        },
        {
          "internalType": "uint256",
          "name": "maxDebt",
          "type": "uint256"
        }
      ],
      "stateMutability": "view",
      "type": "function"
    },
    {
      "inputs": [],
      "name": "testVestingInverval",
      "outputs": [
        {
          "internalType": "uint48",
          "name": "",
          "type": "uint48"
        }
      ],
      "stateMutability": "view",
      "type": "function"
    },
    {
      "inputs": [],
      "name": "testing",
      "outputs": [
        {
          "internalType": "bool",
          "name": "",
          "type": "bool"
        }
      ],
      "stateMutability": "view",
      "type": "function"
    },
    {
      "inputs": [],
      "name": "totalVestingCount",
      "outputs": [
        {
          "internalType": "uint8",
          "name": "",
          "type": "uint8"
        }
      ],
      "stateMutability": "view",
      "type": "function"
    },
    {
      "inputs": [
        {
          "internalType": "address",
          "name": "newOwner",
          "type": "address"
        }
      ],
      "name": "transferOwnership",
      "outputs": [],
      "stateMutability": "nonpayable",
      "type": "function"
    },
    {
      "inputs": [
        {
          "internalType": "uint16",
          "name": "_commissionRate",
          "type": "uint16"
        }
      ],
      "name": "updateCommissionRate",
      "outputs": [],
      "stateMutability": "nonpayable",
      "type": "function"
    },
    {
      "inputs": [
        {
          "internalType": "address",
          "name": "_ecosystemPool",
          "type": "address"
        }
      ],
      "name": "updateEcosystemPool",
      "outputs": [],
      "stateMutability": "nonpayable",
      "type": "function"
    },
    {
      "inputs": [
        {
          "internalType": "address",
          "name": "_insurancePool",
          "type": "address"
        }
      ],
      "name": "updateInsurancePool",
      "outputs": [],
      "stateMutability": "nonpayable",
      "type": "function"
    },
    {
      "inputs": [
        {
          "internalType": "address",
          "name": "_nend",
          "type": "address"
        }
      ],
      "name": "updateNend",
      "outputs": [],
      "stateMutability": "nonpayable",
      "type": "function"
    },
    {
      "inputs": [],
      "name": "vestingInverval",
      "outputs": [
        {
          "internalType": "uint48",
          "name": "",
          "type": "uint48"
        }
      ],
      "stateMutability": "view",
      "type": "function"
    }
  ],
  "transactionHash": "0x2967e4422b63f897593bcf68929f9d84c320b5091b786a7009fe26afb26093a7",
  "args": [
    "0x91b2a4d34C953Dc036a94dA066b1cFd8b948b38E",
    "0x5379A0b3f8c391E211354EC20e4c66D8Ac521392",
    "0x76fD12932eA61Fc85d0186445FD16667cbD04E89"
  ],
  "numDeployments": 1,
  "solcInputHash": "9f9b24330e64b4aed8e24e00b5f5786e",
  "bytecode": "0x60e034620000b657601f620032c138819003918201601f19168301916001600160401b03831184841017620000bb57808492606094604052833981010312620000b65780620000526200007692620000d1565b906200006f60406200006760208401620000d1565b9201620000d1565b91620000e6565b6040516131289081620001998239608051818181610d59015261300a015260a05181818161099501526130c6015260c051818181610ca301526130750152f35b600080fd5b634e487b7160e01b600052604160045260246000fd5b51906001600160a01b0382168203620000b657565b909160005491737e8ae5c72eca86946b695dcc211863d9721a096160018060a01b0393818582167f8be0079c531659141344cd1fd0a4f28419497f9722a3daafe3b4186f6b6457e06000604051a36001600160a81b031916176000556005608052600480546201518060a05261025860c0526001600160b01b03191691841691909117600f60a11b179055600280546001600160a01b031990811694841694909417905560038054909316911617905556fe60806040526004361015610013575b600080fd5b60003560e01c8062aeef8a1461026a57806308ed8d16146102615780630aebeb4e14610258578063203732b41461024f578063217fe6c614610246578063231259d91461023d57806339d2525f146102345780633eca1cf01461022b57806345fd86ac14610222578063498e324f146102195780635ea1d6f8146102105780636088d109146102075780637136a7a6146101fe578063715018a6146101f55780637cbd26ef146101ec5780637ecb084d146101e357806382952200146101da5780638d03b102146101d15780638da5cb5b146101c857806399d508c0146101bf578063ab2adc00146101b6578063b1283e77146101ad578063bc3b2b12146101a4578063bfacba3d1461019b578063c0680e2014610192578063c0aa0e8a14610189578063e0b117ff14610180578063e3684e3914610177578063f2fde38b1461016e5763f9afb26a1461016657600080fd5b61000e6113c3565b5061000e6112d0565b5061000e611233565b5061000e611198565b5061000e6110e6565b5061000e611018565b5061000e610ee6565b5061000e610e8d565b5061000e610e03565b5061000e610d7d565b5061000e610d3e565b5061000e610d16565b5061000e610cef565b5061000e610cc7565b5061000e610c83565b5061000e610c5b565b5061000e610bfa565b5061000e610abe565b5061000e610a26565b5061000e610a00565b5061000e6109b9565b5061000e610975565b5061000e6108f9565b5061000e610847565b5061000e610800565b5061000e610771565b5061000e610581565b5061000e610499565b5061000e610454565b503461000e57606036600319011261000e5760043560243561028b82610dbc565b509161029681611073565b506102a0906114a6565b9265ffffffffffff9381838642169260208101516102c39065ffffffffffff1690565b65ffffffffffff1684106102d6906114f5565b6102e084836118db565b6102e9826125c0565b6102f7604435821115611541565b80610301896115a4565b9061030b916115fc565b61031484610fad565b505460f01c60ff166103259061161c565b61032e916115fc565b9760038501548911156103409061163b565b80600186019a8a8c546103579060ff9060a01c1690565b600014966103e5956103d1946103c39460409a6104415761037a825b8d54611687565b8c5560058c0161038b83825461169e565b90556103b9600267ffffffffffffffff87169d8e6103ae6004830191825461169e565b9055019c8d5461169e565b8c553393166128a8565b9a546001600160a01b031690565b6003546001600160a01b03169033906116b6565b0151905411156104315750600090557f8401d05adbea6548a6999cc1540766e6d2ff919292142862893d0e62ec79fbe56000604051a25b604080519182526020820192909252f35b0390f35b905061043c91611c89565b61041c565b61037a85610373565b8015150361000e57565b503461000e57602036600319011261000e576004356104728161044a565b61047a61144e565b6000805460ff60a01b191691151560a01b60ff60a01b16919091179055005b503461000e57602036600319011261000e576004356104b6611f34565b906104d86000926001600160a01b038454163314908115610537575b50611f55565b6105016104e482611073565b50600101805465ffffffffffff19164265ffffffffffff16179055565b8161050b82610dbc565b5055604051907f8401d05adbea6548a6999cc1540766e6d2ff919292142862893d0e62ec79fbe58383a2f35b60ff9150602061055f913387526005825260408720826040519483868095519384920161073c565b8201908152030190205416386104d2565b6001600160a01b0381160361000e57565b503461000e57602036600319011261000e576001600160a01b036004356105a781610570565b6105af61144e565b166001600160a01b031960035416176003556000604051f35b50634e487b7160e01b600052604160045260246000fd5b6040810190811067ffffffffffffffff8211176105fb57604052565b6106036105c8565b604052565b90601f8019910116810190811067ffffffffffffffff8211176105fb57604052565b604051906080820182811067ffffffffffffffff8211176105fb57604052565b6040519060e0820182811067ffffffffffffffff8211176105fb57604052565b604051906060820182811067ffffffffffffffff8211176105fb57604052565b6040519060c0820182811067ffffffffffffffff8211176105fb57604052565b6040519060a0820182811067ffffffffffffffff8211176105fb57604052565b60209067ffffffffffffffff81116106e8575b601f01601f19160190565b6106f06105c8565b6106dd565b81601f8201121561000e5780359061070c826106ca565b9261071a6040519485610608565b8284526020838301011161000e57816000926020809301838601378301015290565b918091926000905b82821061075c575011610755575050565b6000910152565b91508060209183015181860152018291610744565b503461000e57604036600319011261000e5760043561078f81610570565b60243567ffffffffffffffff811161000e576107e3602061042d936001600160a01b036107c260ff9536906004016106f5565b9116600052600582526040600020826040519483868095519384920161073c565b820190815203019020546040519116151581529081906020820190565b503461000e57602036600319011261000e576001600160a01b0360043561082681610570565b61082e61144e565b166001600160a01b031960045416176004556000604051f35b503461000e57606036600319011261000e5760043561086581610570565b60243567ffffffffffffffff811161000e57602061088a6108c79236906004016106f5565b6001600160a01b036044359461089f8661044a565b6108a761144e565b16600052600582526040600020826040519483868095519384920161073c565b8201908152030190209060ff8019835416911515161790556000604051f35b60c4359063ffffffff8216820361000e57565b503461000e5760e036600319011261000e5760043561091781610570565b604435906109248261044a565b6084359165ffffffffffff8316830361000e5760a43563ffffffff8116810361000e5761042d93610965936109576108e6565b936064359160243590611fa1565b6040519081529081906020820190565b503461000e57600036600319011261000e57602060405165ffffffffffff7f0000000000000000000000000000000000000000000000000000000000000000168152f35b503461000e57602036600319011261000e576001600160a01b036004356109df81610570565b6109e761144e565b166001600160a01b031960025416176002556000604051f35b503461000e57600036600319011261000e57602061ffff60045460a01c16604051908152f35b503461000e57602036600319011261000e5760043561ffff811680820361000e5761271090610a5361144e565b11610a79576004805461ffff60a01b191660a09290921b61ffff60a01b16919091179055005b60405162461bcd60e51b815260206004820152601360248201527f496e76616c696420626173697320706f696e74000000000000000000000000006044820152606490fd5b503461000e57602036600319011261000e57600435610af8610af3336001600160a01b03166000526001602052604060002090565b612f60565b6000805b8251811015610b6f578365ffffffffffff610b2a6060610b1c8588612c12565b51015165ffffffffffff1690565b161480610b5a575b610b45575b610b4090612c02565b610afc565b90610b52610b4091612c02565b919050610b37565b5060ff610b678233612fc8565b161515610b32565b50610b7990612bd0565b6000805b8351811015610bee578465ffffffffffff610b9d6060610b1c8589612c12565b161480610bd9575b610bb8575b610bb390612c02565b610b7d565b90610bd18183610bcb610bb39487612c12565b52612c02565b919050610baa565b5060ff610be68233612fc8565b161515610ba5565b61042d61096584612d3c565b503461000e57600080600319360112610c5857610c1561144e565b80546001600160a01b031981168255816001600160a01b0360405192167f8be0079c531659141344cd1fd0a4f28419497f9722a3daafe3b4186f6b6457e08284a3f35b80fd5b503461000e57600036600319011261000e5760206001600160a01b0360035416604051908152f35b503461000e57600036600319011261000e57602060405165ffffffffffff7f0000000000000000000000000000000000000000000000000000000000000000168152f35b503461000e57600036600319011261000e5760206001600160a01b0360045416604051908152f35b503461000e57600036600319011261000e57602060ff60005460a01c166040519015158152f35b503461000e57600036600319011261000e5760206001600160a01b0360005416604051908152f35b503461000e57600036600319011261000e57602060405160ff7f0000000000000000000000000000000000000000000000000000000000000000168152f35b503461000e57600036600319011261000e5760206001600160a01b0360025416604051908152f35b50634e487b7160e01b600052603260045260246000fd5b6006908154811015610df6575b81600052027ff652222313e28459528d920b65115c16c04f3efc82aaedc97be59f3f377c0d3f0190600090565b610dfe610da5565b610dc9565b503461000e57602036600319011261000e5760043560065481101561000e57610e2b90610dbc565b5080546001820154600283015460038401546004850154600590950154604080519586526001600160a01b038516602087015260ff60a095861c16151590860152606085019290925260808401529082019290925260c081019190915260e090f35b503461000e57602036600319011261000e5760043560005260096020526080604060002060ff6001825492015460405192835265ffffffffffff80821660208501528160301c16604084015260601c1615156060820152f35b503461000e57602036600319011261000e57600435610f04816125c0565b61042d6b033b2e3c9fd0803ce8000000610f8283610f7d610f2487610dbc565b505496610f7760ff6003610f3784610dbc565b50015492600854811015610fa0575b60086000527ff3f7a9fe364faab93b216da50a3214154f22a0a2b415b23a84c8169e8b636ee3015460f01c1661161c565b906115e9565b6115e9565b04604051938493846040919493926060820195825260208201520152565b610fa8610da5565b610f46565b600854811015610fe5575b60086000527ff3f7a9fe364faab93b216da50a3214154f22a0a2b415b23a84c8169e8b636ee30190600090565b610fed610da5565b610fb8565b805482101561100b575b60005260206000200190600090565b611013610da5565b610ffc565b503461000e57604036600319011261000e5760043561103681610570565b6001600160a01b036024359116600052600a6020526040600020805482101561000e5760209161106591610ff2565b90546040519160031b1c8152f35b6003906007548110156110af575b6007600052027fa66cc928b5edb82af9bd49922954155ab7b0942694bea4ce44661d9a8736c6880190600090565b6110b7610da5565b611081565b80548210156110d9575b6000526003602060002091020190600090565b6110e1610da5565b6110c6565b503461000e57602036600319011261000e5760043560075481101561000e576003606091600760005202807fa66cc928b5edb82af9bd49922954155ab7b0942694bea4ce44661d9a8736c6880154907fa66cc928b5edb82af9bd49922954155ab7b0942694bea4ce44661d9a8736c68a65ffffffffffff7fa66cc928b5edb82af9bd49922954155ab7b0942694bea4ce44661d9a8736c689830154169101549060405192835260208301526040820152f35b503461000e57604036600319011261000e576004356111b681610570565b6001600160a01b0360243591166000526001602052604060002090815481101561000e576111e3916110bc565b508054600182015460029092015460408051928352602083019390935265ffffffffffff80821693830193909352603081901c9092166060808301919091529190911c60ff16608082015260a090f35b503461000e57602036600319011261000e5760043560085481101561000e5760086000527ff3f7a9fe364faab93b216da50a3214154f22a0a2b415b23a84c8169e8b636ee301546040805165ffffffffffff8084168252603084901c81166020830152606084811c821693830193909352609084901c81169282019290925260c083811c909216608082015260f09290921c60ff1660a083015290f35b503461000e57602036600319011261000e576004356112ee81610570565b6112f661144e565b6001600160a01b0380911690811561134857600091825491816001600160a01b0319841617845560405192167f8be0079c531659141344cd1fd0a4f28419497f9722a3daafe3b4186f6b6457e08484a3f35b60405162461bcd60e51b815260206004820152602660248201527f4f776e61626c653a206e6577206f776e657220697320746865207a65726f206160448201526564647265737360d01b6064820152608490fd5b60209067ffffffffffffffff81116113b6575b60051b0190565b6113be6105c8565b6113af565b503461000e5760208060031936011261000e5760043567ffffffffffffffff811161000e573660238201121561000e578060040135906114028261139c565b916114106040519384610608565b80835260248484019160051b8301019136831161000e57602401905b82821061143f5761042d61096585612d3c565b8135815290840190840161142c565b6001600160a01b0360005416330361146257565b606460405162461bcd60e51b815260206004820152602060248201527f4f776e61626c653a2063616c6c6572206973206e6f7420746865206f776e65726044820152fd5b906040516060810181811067ffffffffffffffff8211176114e8575b6040526040600282948054845265ffffffffffff60018201541660208501520154910152565b6114f06105c8565b6114c2565b156114fc57565b60405162461bcd60e51b815260206004820152601c60248201527f4465706f7369746f72793a206d61726b657420636f6e636c75646564000000006044820152606490fd5b1561154857565b60405162461bcd60e51b815260206004820152601f60248201527f4465706f7369746f72793a206d6f7265207468616e206d6178207072696365006044820152606490fd5b50634e487b7160e01b600052601160045260246000fd5b6b033b2e3c9fd0803ce80000009080600019048211811515166115c5570290565b6115cd61158d565b0290565b620f42409080600019048211811515166115c5570290565b80600019048211811515166115c5570290565b8115611606570490565b634e487b7160e01b600052601260045260246000fd5b60ff16604d811161162e575b600a0a90565b61163661158d565b611628565b1561164257565b60405162461bcd60e51b815260206004820152601d60248201527f4465706f7369746f72793a206d61782073697a652065786365656465640000006044820152606490fd5b818110611692570390565b61169a61158d565b0390565b811981116116aa570190565b6116b261158d565b0190565b6040516323b872dd60e01b60208083019182526001600160a01b0394851660248401529484166044830152606480830196909652948152929391906116fc608485610608565b16906040519261170b846105df565b8484527f5361666545524332303a206c6f772d6c6576656c2063616c6c206661696c656485850152823b1561177e57611757939260009283809351925af161175161183a565b9061186a565b8051908161176457505050565b8261177c936117779383010191016117c3565b6117db565b565b60405162461bcd60e51b815260048101869052601d60248201527f416464726573733a2063616c6c20746f206e6f6e2d636f6e74726163740000006044820152606490fd5b9081602091031261000e57516117d88161044a565b90565b156117e257565b60405162461bcd60e51b815260206004820152602a60248201527f5361666545524332303a204552433230206f7065726174696f6e20646964206e6044820152691bdd081cdd58d8d9595960b21b6064820152608490fd5b3d15611865573d9061184b826106ca565b916118596040519384610608565b82523d6000602084013e565b606090565b90919015611876575090565b8151156118865750805190602001fd5b6044604051809262461bcd60e51b8252602060048301526118b6815180928160248601526020868601910161073c565b601f01601f19168101030190fd5b65ffffffffffff9182169116818110611692570390565b90600854821015611ab2575b600860005261196961195c61195c611920857ff3f7a9fe364faab93b216da50a3214154f22a0a2b415b23a84c8169e8b636ee301611abf565b65ffffffffffff604061195282602085015116804210611aa5575b60026119468b610dbc565b509142039101546115e9565b92015116906115fc565b67ffffffffffffffff1690565b611981600261197785610dbc565b5001918254611687565b90556119b58161199084610fad565b509065ffffffffffff60301b82549160301b169065ffffffffffff60301b1916179055565b6119d960016119ce846000526009602052604060002090565b015460601c60ff1690565b6119e1575050565b6119f5826000526009602052604060002090565b91611a0b611a02826126c2565b91929093611073565b50611a17838254611687565b905515611a9257611a52600185611a35611a799461177c9854611687565b81550192611a4d845465ffffffffffff9060301c1690565b6118c4565b82546bffffffffffff000000000000191660309190911b65ffffffffffff60301b16178255565b9065ffffffffffff1665ffffffffffff19825416179055565b505050600101805460ff60601b19169055565b611aad61158d565b61193b565b611aba610da5565b6118e7565b9060405160c0810181811067ffffffffffffffff821117611b25575b60405260a060ff82945465ffffffffffff8082168552808260301c166020860152808260601c166040860152808260901c1660608601528160c01c16608085015260f01c16910152565b611b2d6105c8565b611adb565b9065ffffffffffff80809316911680920381116116aa570190565b9060405160e0810181811067ffffffffffffffff821117611bc3575b60405260c06005829480548452611b9e60ff60018301546001600160a01b038116602088015260a01c16604086019015159052565b6002810154606085015260038101546080850152600481015460a08501520154910152565b611bcb6105c8565b611b69565b9081602091031261000e575190565b506040513d6000823e3d90fd5b50634e487b7160e01b600052600060045260246000fd5b60606001611c8592845181550192611c6a65ffffffffffff611c3f81602085015116879065ffffffffffff1665ffffffffffff19825416179055565b604083015186546bffffffffffff0000000000001916911660301b65ffffffffffff60301b16178555565b0151825460ff60601b191690151560601b60ff60601b161790565b9055565b90611c9c611c9683610fad565b50611abf565b805165ffffffffffff1692611cd3611cc86080840195611cc2875165ffffffffffff1690565b90611b32565b65ffffffffffff1690565b65ffffffffffff84161015611ce9575b50505050565b611e6f93611e2661195c85611d6f6004611dd6611e5598611d6f89610f77611cc86040611d41611cc8611d24611d1e87610dbc565b50611b4d565b9b611a4d6001611d3389611073565b50015465ffffffffffff1690565b95611d4b856125c0565b9a8b611d5984830151151590565b15611f2c57611d7490611d6f611d9093516115a4565b6115fc565b611d8a611d8560a085015160ff1690565b61161c565b906115fc565b945b6003611dc6611dc061195c61195c8c611d6f611dba611cc860608b015165ffffffffffff1690565b8d6115e9565b92610dbc565b500155015165ffffffffffff1690565b926020611dfc611df0611df085546001600160a01b031690565b6001600160a01b031690565b604051633fdaeac760e11b815293849182905afa918215611f1f575b600092611eef575b506115e9565b9067ffffffffffffffff611e3984611073565b50549216918210611e785750611e4e82611073565b5055610fad565b509065ffffffffffff1665ffffffffffff19825416179055565b38808080611ce3565b611eca611ea2611e95611eea94611e8e87611073565b5054611687565b925165ffffffffffff1690565b611eaa61062a565b92835265ffffffffffff8716602084015265ffffffffffff166040830152565b60016060820152611ee5836000526009602052604060002090565b611c03565b610fad565b611f1191925060203d8111611f18575b611f098183610608565b810190611bd0565b9038611e20565b503d611eff565b611f27611bdf565b611e18565b505194611d92565b60405190611f41826105df565b600582526430b236b4b760d91b6020830152565b15611f5c57565b60405162461bcd60e51b815260206004820152600e60248201527f4e6f7420617574686f72697a65640000000000000000000000000000000000006044820152606490fd5b9094929394611fae611f34565b92611fcf6001600160a01b0394856000541633149081156122a65750611f55565b611fe14265ffffffffffff8916611687565b916040519663313ce56760e01b88526020886004818989165afa978815612299575b600098612268575b508215612260578861202f61202383611d6f866115a4565b611d8a60ff8c166122e9565b915b6006549b8c9a8761204863ffffffff8d16876115e9565b90612052916115fc565b61205a61064a565b8781526001600160a01b038b166020820152908815156040830152866060830152608082015260a081016000905260c0810160009052612099906122f7565b600454604051633fdaeac760e11b8152928691849081906001600160a01b03165a92600491602094fa90811563ffffffff7f3f414051967f5a5e84f3af856364502239c9052e98e136c6ed4ed90bc5f5b0ba9f6121b065ffffffffffff6122339f6121776121e09e60209e61216d6121db9f60ff9f6121d09e611d6f8c9f612152946121c09f9461213695612253575b60009261223957506115e9565b9361214c612143826115d1565b620186a0900490565b9061169e565b9161215b61066a565b93845265ffffffffffff166020840152565b60408201526123b8565b6121a082421661218561068a565b65ffffffffffff821681529e8f019065ffffffffffff169052565b1665ffffffffffff1660408c0152565b1665ffffffffffff166060890152565b1665ffffffffffff166080860152565b1660ff1660a0830152565b612435565b612208876122038787166001600160a01b0316600052600a602052604060002090565b61257b565b6040519485941697849192604091949365ffffffffffff606085019616845260208401521515910152565b0390a390565b6020611f119293503d602011611f1857611f098183610608565b61225b611bdf565b612129565b888291612031565b61228b91985060203d602011612292575b6122838183610608565b8101906122d0565b963861200b565b503d612279565b6122a1611bdf565b612003565b60ff9150602061055f9133600052600582526040600020826040519483868095519384920161073c565b9081602091031261000e575160ff8116810361000e5790565b604d811161162e57600a0a90565b600560c061231a600654600160401b8110156123ab575b60018101600655610dbc565b93909361239e575b805184556123796001850161235a6001600160a01b0360208501511682906001600160a01b03166001600160a01b0319825416179055565b6040830151815460ff60a01b191690151560a01b60ff60a01b16179055565b606081015160028501556080810151600385015560a081015160048501550151910155565b6123a6611bec565b612322565b6123b36105c8565b61230e565b600260406123db600754600160401b811015612428575b60018101600755611073565b93909361241b575b8051845561241465ffffffffffff602083015116600186019065ffffffffffff1665ffffffffffff19825416179055565b0151910155565b612423611bec565b6123e3565b6124306105c8565b6123cf565b61177c9061254760a061245d600854600160401b81101561256e575b60018101600855610fad565b939093612561575b805184546020830151604084015160608086015191901b71ffffffffffff0000000000000000000000001660309290921b65ffffffffffff60301b1665ffffffffffff9485167fffffffffffffffff00000000000000000000000000000000000000000000000090941693909317929092171760909190911b77ffffffffffff00000000000000000000000000000000000016178555608082015161253f911685547fffff000000000000ffffffffffffffffffffffffffffffffffffffffffffffff1660c09190911b65ffffffffffff60c01b16178555565b015160ff1690565b815460ff60f01b191660f09190911b60ff60f01b16179055565b612569611bec565b612465565b6125766105c8565b612451565b805461259991600160401b8210156125b3575b600182018155610ff2565b819291549060031b600019811b9283911b16911916179055565b6125bb6105c8565b61258e565b6117d890611d8a611d8561267d6126776125d985611073565b5054610f77600461263460026125ee8a610dbc565b5001546008548a10156126b5575b60086000527ff3f7a9fe364faab93b216da50a3214154f22a0a2b415b23a84c8169e8b636ee38a0154610f779060f01c60ff1661161c565b602061264d611df0611df085546001600160a01b031690565b604051633fdaeac760e11b815293849182905afa9182156126a8575b600092612688575b506115fc565b93610fad565b505460f01c60ff1690565b6126a191925060203d8111611f1857611f098183610608565b9038612671565b6126b0611bdf565b612669565b6126bd610da5565b6125fc565b6000908152600960205260408120906001604051926080840184811067ffffffffffffffff82111761277f575b6040528054845201549165ffffffffffff9283811680602084015260ff6040840192868160301c16845260601c16158015606085015261277457612735908542166118c4565b93612749611cc8835165ffffffffffff1690565b9085169081109350831561276e57611cc8611e95611d8a9261276b95516115e9565b92565b50505192565b505050809150918190565b6127876105c8565b6126ef565b1561279357565b60405162461bcd60e51b815260206004820152602860248201527f496e73756666696369656e742074726561737572792062616c616e636520666f6044820152671c881c185e5bdd5d60c21b6064820152608490fd5b60ff60806002612811611c8594805490600160401b82101561289b575b6001820181556110bc565b61288e575b855181556020860151600182015560408601519101805465ffffffffffff191665ffffffffffff928316178155949061287490606083015187546bffffffffffff0000000000001916911660301b65ffffffffffff60301b16178655565b0151835460ff60601b1916911660601b60ff60601b161790565b612896611bec565b612816565b6128a36105c8565b612806565b90929194936004936128c185546001600160a01b031690565b916129756128d76003546001600160a01b031690565b9382604051956370a0823160e01b8752896000602098899561293a8683612910888883019190916001600160a01b036020820193169052565b039389816001600160a01b0396818888165afa908115612b77575b8691612b5a575b50101561278c565b6040805163276d76f960e21b81526001600160a01b039092169482019485523060208601528401959095529395869485939091849160600190565b0393165af18015612b4d575b612b30575b50855460a01c61ffff1661ffff1661299e90826115e9565b612710900490816129ae91611687565b6129cb866001600160a01b03166000526001602052604060002090565b54986129eb8a976001600160a01b03166000526001602052604060002090565b938560058404944265ffffffffffff1696612a046106aa565b86815283810188905265ffffffffffff8916604082015265ffffffffffff8b16606082015260006080820152612a39916127e9565b8a546002546040805163a9059cbb60e01b81526001600160a01b039283169e81019e8f5260208f0194909452929c8d939084900301918391165a90600091f17f129794f6f9aa0adfa6dda6ca7d08d05812fea954f80008e5cf68ae7b9fa898b499612af097918015612b23575b612af5575b50506040805133815265ffffffffffff9889166020820152908101989098526060880152608087015260a086015260c085015290911660e08301528190610100820190565b0390a1565b81612b1492903d10612b1c575b612b0c8183610608565b8101906117c3565b503880612aab565b503d612b02565b612b2b611bdf565b612aa6565b612b4690843d8611612b1c57612b0c8183610608565b5038612986565b612b55611bdf565b612981565b612b7191508a3d8c11611f1857611f098183610608565b38612932565b612b7f611bdf565b61292b565b15612b8b57565b60405162461bcd60e51b815260206004820152601160248201527f4e6f7468696e6720746f2072656465656d0000000000000000000000000000006044820152606490fd5b90612bda8261139c565b612be76040519182610608565b8281528092612bf8601f199161139c565b0190602036910137565b60019060001981146116aa570190565b6020918151811015612c27575b60051b010190565b612c2f610da5565b612c1f565b15612c3b57565b60405162461bcd60e51b815260206004820152601260248201527f4e6f2070656e64696e672076657374696e6700000000000000000000000000006044820152606490fd5b60ff8091169116908160ff0381116116aa570190565b90815180825260208080930193019160005b828110612cb6575050505090565b835185529381019392810192600101612ca8565b906001600160a01b039095949295168152612cf16020956080878401526080830190612c96565b818103604083015285808551928381520194019060005b818110612d25575050506117d89394506060818403910152612c96565b825160ff1686529487019491870191600101612d08565b90600091612d4c81511515612b84565b612d568151612bd0565b90612d618151612bd0565b9160005b8251811015612e4257336000908152600160205260409020612d878285612c12565b51612d91916110bc565b50612d9c8285612c12565b51612da79033612fc8565b9660ff9081891692831515612dbb90612c34565b600281018054909a9060601c60ff1690612dd491612c80565b8a5460ff60601b191660609190911b60ff60601b16178a556001015492612dfb90846115e9565b612e049161169e565b975460601c60ff1680612e178587612c12565b60ff90911690521690612e29916115e9565b612e338286612c12565b52612e3d90612c02565b612d65565b5090612af07f5a21b90378728eb82fe7be28a8f4a46d422e5c1f08ac7521b84ef5c190b0cc869360006020612eb1612e88611df0611df06004546001600160a01b031690565b60405163a9059cbb60e01b8152336004820152602481018c905293849283919082906044820190565b03925af18015612eed575b612ecf575b506040519384933385612cca565b612ee69060203d8111612b1c57612b0c8183610608565b5038612ec1565b612ef5611bdf565b612ebc565b9060405160a0810181811067ffffffffffffffff821117612f53575b604052608060ff600283958054855260018101546020860152015465ffffffffffff80821660408601528160301c16606085015260601c16910152565b612f5b6105c8565b612f16565b908154612f6c8161139c565b92612f7a6040519485610608565b818452600090815260208082208186015b848410612f99575050505050565b600383600192612fa885612efa565b815201920193019290612f8b565b60ff9182169116818110611692570390565b612ff791612fec612ff1926001600160a01b03166000526001602052604060002090565b6110bc565b50612efa565b6080810160ff613008825160ff1690565b7f00000000000000000000000000000000000000000000000000000000000000008216911681146130ea576130ae60ff9161309c61305e613058611cc860406117d899015165ffffffffffff1690565b42611687565b60005460a01c60ff16156130bd5765ffffffffffff7f00000000000000000000000000000000000000000000000000000000000000005b16906115fc565b818111156130b55750925b5160ff1690565b9116612fb6565b9050926130a7565b65ffffffffffff7f0000000000000000000000000000000000000000000000000000000000000000613095565b50505060009056fea26469706673582212204481cd9380804ec11c01ec8286cc3f8a52469b2edb0a5c3192ea7e230020014364736f6c634300080e0033",
  "devdoc": {
    "kind": "dev",
    "methods": {
      "close(uint256)": {
        "params": {
          "_id": "ID of market to close"
        }
      },
      "deposit(uint256,uint256,uint256)": {
        "params": {
          "_amount": "the amount of quote token to spend",
          "_id": "the ID of the market",
          "_maxPrice": "the maxeimum price at which to buy"
        },
        "returns": {
          "index_": "     the user index of the Note (usd to redeem or query information)",
          "payout_": "    the amount of NEND due"
        }
      },
      "owner()": {
        "details": "Returns the address of the current owner."
      },
      "redeem(uint256[])": {
        "params": {
          "_indexes": "the note indexes to redeem"
        },
        "returns": {
          "payout_": "    sum of payout sent, in NEND"
        }
      },
      "redeemAll(uint256)": {
        "details": "if possible, query indexesFor() off-chain and input in redeem() to save gas",
        "returns": {
          "_0": "sum of payout sent, in NEND"
        }
      },
      "renounceOwnership()": {
        "details": "Leaves the contract without owner. It will not be possible to call `onlyOwner` functions anymore. Can only be called by the current owner. NOTE: Renouncing ownership will leave the contract without an owner, thereby removing any functionality that is only available to the owner."
      },
      "transferOwnership(address)": {
        "details": "Transfers ownership of the contract to a new account (`newOwner`). Can only be called by the current owner."
      }
    },
    "version": 1
  },
  "userdoc": {
    "kind": "user",
    "methods": {
      "close(uint256)": {
        "notice": "disable existing market"
      },
      "deposit(uint256,uint256,uint256)": {
        "notice": "deposit quote tokens in exchange for a bond from a specified market"
      },
      "redeem(uint256[])": {
        "notice": "redeem notes for user"
      },
      "redeemAll(uint256)": {
        "notice": "redeem all redeemable markets for user"
      }
    },
    "version": 1
  },
  "storageLayout": {
    "storage": [
      {
        "astId": 8424,
        "contract": "contracts/bonding/BondDepository.sol:BondDepository",
        "label": "_owner",
        "offset": 0,
        "slot": "0",
        "type": "t_address"
      },
      {
        "astId": 26378,
        "contract": "contracts/bonding/BondDepository.sol:BondDepository",
        "label": "testing",
        "offset": 20,
        "slot": "0",
        "type": "t_bool"
      },
      {
        "astId": 9707,
        "contract": "contracts/bonding/BondDepository.sol:BondDepository",
        "label": "notes",
        "offset": 0,
        "slot": "1",
        "type": "t_mapping(t_address,t_array(t_struct(Note)9645_storage)dyn_storage)"
      },
      {
        "astId": 9709,
        "contract": "contracts/bonding/BondDepository.sol:BondDepository",
        "label": "insurancePool",
        "offset": 0,
        "slot": "2",
        "type": "t_address"
      },
      {
        "astId": 9711,
        "contract": "contracts/bonding/BondDepository.sol:BondDepository",
        "label": "ecosystemPool",
        "offset": 0,
        "slot": "3",
        "type": "t_address"
      },
      {
        "astId": 9713,
        "contract": "contracts/bonding/BondDepository.sol:BondDepository",
        "label": "nend",
        "offset": 0,
        "slot": "4",
        "type": "t_address"
      },
      {
        "astId": 9719,
        "contract": "contracts/bonding/BondDepository.sol:BondDepository",
        "label": "commissionRate",
        "offset": 20,
        "slot": "4",
        "type": "t_uint16"
      },
      {
        "astId": 8539,
        "contract": "contracts/bonding/BondDepository.sol:BondDepository",
        "label": "hasRole",
        "offset": 0,
        "slot": "5",
        "type": "t_mapping(t_address,t_mapping(t_string_memory_ptr,t_bool))"
      },
      {
        "astId": 8677,
        "contract": "contracts/bonding/BondDepository.sol:BondDepository",
        "label": "markets",
        "offset": 0,
        "slot": "6",
        "type": "t_array(t_struct(Market)9552_storage)dyn_storage"
      },
      {
        "astId": 8681,
        "contract": "contracts/bonding/BondDepository.sol:BondDepository",
        "label": "terms",
        "offset": 0,
        "slot": "7",
        "type": "t_array(t_struct(Terms)9559_storage)dyn_storage"
      },
      {
        "astId": 8685,
        "contract": "contracts/bonding/BondDepository.sol:BondDepository",
        "label": "metadata",
        "offset": 0,
        "slot": "8",
        "type": "t_array(t_struct(Metadata)9572_storage)dyn_storage"
      },
      {
        "astId": 8690,
        "contract": "contracts/bonding/BondDepository.sol:BondDepository",
        "label": "adjustments",
        "offset": 0,
        "slot": "9",
        "type": "t_mapping(t_uint256,t_struct(Adjustment)9581_storage)"
      },
      {
        "astId": 8695,
        "contract": "contracts/bonding/BondDepository.sol:BondDepository",
        "label": "marketsForQuote",
        "offset": 0,
        "slot": "10",
        "type": "t_mapping(t_address,t_array(t_uint256)dyn_storage)"
      }
    ],
    "types": {
      "t_address": {
        "encoding": "inplace",
        "label": "address",
        "numberOfBytes": "20"
      },
      "t_array(t_struct(Market)9552_storage)dyn_storage": {
        "base": "t_struct(Market)9552_storage",
        "encoding": "dynamic_array",
        "label": "struct IBondDepository.Market[]",
        "numberOfBytes": "32"
      },
      "t_array(t_struct(Metadata)9572_storage)dyn_storage": {
        "base": "t_struct(Metadata)9572_storage",
        "encoding": "dynamic_array",
        "label": "struct IBondDepository.Metadata[]",
        "numberOfBytes": "32"
      },
      "t_array(t_struct(Note)9645_storage)dyn_storage": {
        "base": "t_struct(Note)9645_storage",
        "encoding": "dynamic_array",
        "label": "struct INoteKeeper.Note[]",
        "numberOfBytes": "32"
      },
      "t_array(t_struct(Terms)9559_storage)dyn_storage": {
        "base": "t_struct(Terms)9559_storage",
        "encoding": "dynamic_array",
        "label": "struct IBondDepository.Terms[]",
        "numberOfBytes": "32"
      },
      "t_array(t_uint256)dyn_storage": {
        "base": "t_uint256",
        "encoding": "dynamic_array",
        "label": "uint256[]",
        "numberOfBytes": "32"
      },
      "t_bool": {
        "encoding": "inplace",
        "label": "bool",
        "numberOfBytes": "1"
      },
      "t_contract(IERC20)4822": {
        "encoding": "inplace",
        "label": "contract IERC20",
        "numberOfBytes": "20"
      },
      "t_mapping(t_address,t_array(t_struct(Note)9645_storage)dyn_storage)": {
        "encoding": "mapping",
        "key": "t_address",
        "label": "mapping(address => struct INoteKeeper.Note[])",
        "numberOfBytes": "32",
        "value": "t_array(t_struct(Note)9645_storage)dyn_storage"
      },
      "t_mapping(t_address,t_array(t_uint256)dyn_storage)": {
        "encoding": "mapping",
        "key": "t_address",
        "label": "mapping(address => uint256[])",
        "numberOfBytes": "32",
        "value": "t_array(t_uint256)dyn_storage"
      },
      "t_mapping(t_address,t_mapping(t_string_memory_ptr,t_bool))": {
        "encoding": "mapping",
        "key": "t_address",
        "label": "mapping(address => mapping(string => bool))",
        "numberOfBytes": "32",
        "value": "t_mapping(t_string_memory_ptr,t_bool)"
      },
      "t_mapping(t_string_memory_ptr,t_bool)": {
        "encoding": "mapping",
        "key": "t_string_memory_ptr",
        "label": "mapping(string => bool)",
        "numberOfBytes": "32",
        "value": "t_bool"
      },
      "t_mapping(t_uint256,t_struct(Adjustment)9581_storage)": {
        "encoding": "mapping",
        "key": "t_uint256",
        "label": "mapping(uint256 => struct IBondDepository.Adjustment)",
        "numberOfBytes": "32",
        "value": "t_struct(Adjustment)9581_storage"
      },
      "t_string_memory_ptr": {
        "encoding": "bytes",
        "label": "string",
        "numberOfBytes": "32"
      },
      "t_struct(Adjustment)9581_storage": {
        "encoding": "inplace",
        "label": "struct IBondDepository.Adjustment",
        "members": [
          {
            "astId": 9574,
            "contract": "contracts/bonding/BondDepository.sol:BondDepository",
            "label": "change",
            "offset": 0,
            "slot": "0",
            "type": "t_uint256"
          },
          {
            "astId": 9576,
            "contract": "contracts/bonding/BondDepository.sol:BondDepository",
            "label": "lastAdjustment",
            "offset": 0,
            "slot": "1",
            "type": "t_uint48"
          },
          {
            "astId": 9578,
            "contract": "contracts/bonding/BondDepository.sol:BondDepository",
            "label": "timeToAdjusted",
            "offset": 6,
            "slot": "1",
            "type": "t_uint48"
          },
          {
            "astId": 9580,
            "contract": "contracts/bonding/BondDepository.sol:BondDepository",
            "label": "active",
            "offset": 12,
            "slot": "1",
            "type": "t_bool"
          }
        ],
        "numberOfBytes": "64"
      },
      "t_struct(Market)9552_storage": {
        "encoding": "inplace",
        "label": "struct IBondDepository.Market",
        "members": [
          {
            "astId": 9538,
            "contract": "contracts/bonding/BondDepository.sol:BondDepository",
            "label": "capacity",
            "offset": 0,
            "slot": "0",
            "type": "t_uint256"
          },
          {
            "astId": 9541,
            "contract": "contracts/bonding/BondDepository.sol:BondDepository",
            "label": "quoteToken",
            "offset": 0,
            "slot": "1",
            "type": "t_contract(IERC20)4822"
          },
          {
            "astId": 9543,
            "contract": "contracts/bonding/BondDepository.sol:BondDepository",
            "label": "capacityInQuote",
            "offset": 20,
            "slot": "1",
            "type": "t_bool"
          },
          {
            "astId": 9545,
            "contract": "contracts/bonding/BondDepository.sol:BondDepository",
            "label": "totalDebt",
            "offset": 0,
            "slot": "2",
            "type": "t_uint256"
          },
          {
            "astId": 9547,
            "contract": "contracts/bonding/BondDepository.sol:BondDepository",
            "label": "maxPayout",
            "offset": 0,
            "slot": "3",
            "type": "t_uint256"
          },
          {
            "astId": 9549,
            "contract": "contracts/bonding/BondDepository.sol:BondDepository",
            "label": "sold",
            "offset": 0,
            "slot": "4",
            "type": "t_uint256"
          },
          {
            "astId": 9551,
            "contract": "contracts/bonding/BondDepository.sol:BondDepository",
            "label": "purchased",
            "offset": 0,
            "slot": "5",
            "type": "t_uint256"
          }
        ],
        "numberOfBytes": "192"
      },
      "t_struct(Metadata)9572_storage": {
        "encoding": "inplace",
        "label": "struct IBondDepository.Metadata",
        "members": [
          {
            "astId": 9561,
            "contract": "contracts/bonding/BondDepository.sol:BondDepository",
            "label": "lastTune",
            "offset": 0,
            "slot": "0",
            "type": "t_uint48"
          },
          {
            "astId": 9563,
            "contract": "contracts/bonding/BondDepository.sol:BondDepository",
            "label": "lastDecay",
            "offset": 6,
            "slot": "0",
            "type": "t_uint48"
          },
          {
            "astId": 9565,
            "contract": "contracts/bonding/BondDepository.sol:BondDepository",
            "label": "length",
            "offset": 12,
            "slot": "0",
            "type": "t_uint48"
          },
          {
            "astId": 9567,
            "contract": "contracts/bonding/BondDepository.sol:BondDepository",
            "label": "depositInterval",
            "offset": 18,
            "slot": "0",
            "type": "t_uint48"
          },
          {
            "astId": 9569,
            "contract": "contracts/bonding/BondDepository.sol:BondDepository",
            "label": "tuneInterval",
            "offset": 24,
            "slot": "0",
            "type": "t_uint48"
          },
          {
            "astId": 9571,
            "contract": "contracts/bonding/BondDepository.sol:BondDepository",
            "label": "quoteDecimals",
            "offset": 30,
            "slot": "0",
            "type": "t_uint8"
          }
        ],
        "numberOfBytes": "32"
      },
      "t_struct(Note)9645_storage": {
        "encoding": "inplace",
        "label": "struct INoteKeeper.Note",
        "members": [
          {
            "astId": 9636,
            "contract": "contracts/bonding/BondDepository.sol:BondDepository",
            "label": "payout",
            "offset": 0,
            "slot": "0",
            "type": "t_uint256"
          },
          {
            "astId": 9638,
            "contract": "contracts/bonding/BondDepository.sol:BondDepository",
            "label": "payoutPerVesting",
            "offset": 0,
            "slot": "1",
            "type": "t_uint256"
          },
          {
            "astId": 9640,
            "contract": "contracts/bonding/BondDepository.sol:BondDepository",
            "label": "created",
            "offset": 0,
            "slot": "2",
            "type": "t_uint48"
          },
          {
            "astId": 9642,
            "contract": "contracts/bonding/BondDepository.sol:BondDepository",
            "label": "marketID",
            "offset": 6,
            "slot": "2",
            "type": "t_uint48"
          },
          {
            "astId": 9644,
            "contract": "contracts/bonding/BondDepository.sol:BondDepository",
            "label": "vestingCount",
            "offset": 12,
            "slot": "2",
            "type": "t_uint8"
          }
        ],
        "numberOfBytes": "96"
      },
      "t_struct(Terms)9559_storage": {
        "encoding": "inplace",
        "label": "struct IBondDepository.Terms",
        "members": [
          {
            "astId": 9554,
            "contract": "contracts/bonding/BondDepository.sol:BondDepository",
            "label": "controlVariable",
            "offset": 0,
            "slot": "0",
            "type": "t_uint256"
          },
          {
            "astId": 9556,
            "contract": "contracts/bonding/BondDepository.sol:BondDepository",
            "label": "conclusion",
            "offset": 0,
            "slot": "1",
            "type": "t_uint48"
          },
          {
            "astId": 9558,
            "contract": "contracts/bonding/BondDepository.sol:BondDepository",
            "label": "maxDebt",
            "offset": 0,
            "slot": "2",
            "type": "t_uint256"
          }
        ],
        "numberOfBytes": "96"
      },
      "t_uint16": {
        "encoding": "inplace",
        "label": "uint16",
        "numberOfBytes": "2"
      },
      "t_uint256": {
        "encoding": "inplace",
        "label": "uint256",
        "numberOfBytes": "32"
      },
      "t_uint48": {
        "encoding": "inplace",
        "label": "uint48",
        "numberOfBytes": "6"
      },
      "t_uint8": {
        "encoding": "inplace",
        "label": "uint8",
        "numberOfBytes": "1"
      }
    }
  }
}