{
  "address": "0xFc281740Bc474E40c0EE8734006806A9d125fBc9",
  "abi": [
    {
      "inputs": [
        {
          "internalType": "address",
          "name": "_tokenOwner",
          "type": "address"
        }
      ],
      "name": "publicMint",
      "outputs": [],
      "stateMutability": "nonpayable",
      "type": "function"
    }
  ],
  "transactionHash": "0xc11c81c29cd5ec1a317a28c85c091f5c9f2117390f2cd4aa9aa0ca3a757acbad",
  "args": [],
  "numDeployments": 1,
  "solcInputHash": "9f9b24330e64b4aed8e24e00b5f5786e",
  "bytecode": "0x60808060405234601457608b908161001a8239f35b600080fdfe6004361015600c57600080fd5b6000803560e01c6332a93a3a14602157600080fd5b34605257602036600319011260525760043573ffffffffffffffffffffffffffffffffffffffff8116036052576080f35b80fdfea2646970667358221220102dc66615b84bc535fa46b4de17af0a02f13d9e9efc18a614e49263898fe76d64736f6c634300080e0033",
  "devdoc": {
    "kind": "dev",
    "methods": {},
    "version": 1
  },
  "userdoc": {
    "kind": "user",
    "methods": {},
    "version": 1
  },
  "storageLayout": {
    "storage": [],
    "types": null
  }
}