{
  "address": "0xa9c0857fd301F6b5435AA5d0363b2184733765e3",
  "abi": [
    {
      "inputs": [
        {
          "internalType": "address",
          "name": "_nend",
          "type": "address"
        }
      ],
      "stateMutability": "nonpayable",
      "type": "constructor"
    },
    {
      "anonymous": false,
      "inputs": [
        {
          "indexed": false,
          "internalType": "uint256",
          "name": "farmId",
          "type": "uint256"
        }
      ],
      "name": "FarmClosed",
      "type": "event"
    },
    {
      "anonymous": false,
      "inputs": [
        {
          "indexed": false,
          "internalType": "uint256",
          "name": "farmId",
          "type": "uint256"
        },
        {
          "indexed": false,
          "internalType": "address",
          "name": "token",
          "type": "address"
        },
        {
          "indexed": false,
          "internalType": "uint48",
          "name": "start",
          "type": "uint48"
        },
        {
          "indexed": false,
          "internalType": "uint48",
          "name": "end",
          "type": "uint48"
        },
        {
          "indexed": false,
          "internalType": "uint256",
          "name": "totalReward",
          "type": "uint256"
        }
      ],
      "name": "FarmCreated",
      "type": "event"
    },
    {
      "anonymous": false,
      "inputs": [
        {
          "indexed": true,
          "internalType": "address",
          "name": "previousOwner",
          "type": "address"
        },
        {
          "indexed": true,
          "internalType": "address",
          "name": "newOwner",
          "type": "address"
        }
      ],
      "name": "OwnershipTransferred",
      "type": "event"
    },
    {
      "anonymous": false,
      "inputs": [
        {
          "indexed": false,
          "internalType": "uint256",
          "name": "stakeId",
          "type": "uint256"
        },
        {
          "indexed": false,
          "internalType": "uint256",
          "name": "rewardClaimed",
          "type": "uint256"
        },
        {
          "indexed": false,
          "internalType": "uint48",
          "name": "lastClaimedAt",
          "type": "uint48"
        }
      ],
      "name": "RewardClaimed",
      "type": "event"
    },
    {
      "anonymous": false,
      "inputs": [
        {
          "indexed": false,
          "internalType": "uint256",
          "name": "stakeId",
          "type": "uint256"
        },
        {
          "indexed": false,
          "internalType": "address",
          "name": "staker",
          "type": "address"
        },
        {
          "indexed": false,
          "internalType": "uint256",
          "name": "farmId",
          "type": "uint256"
        },
        {
          "indexed": false,
          "internalType": "uint48",
          "name": "start",
          "type": "uint48"
        },
        {
          "indexed": false,
          "internalType": "uint256",
          "name": "amount",
          "type": "uint256"
        }
      ],
      "name": "Staked",
      "type": "event"
    },
    {
      "anonymous": false,
      "inputs": [
        {
          "indexed": false,
          "internalType": "uint256",
          "name": "stakeId",
          "type": "uint256"
        },
        {
          "indexed": false,
          "internalType": "uint48",
          "name": "unstakedAt",
          "type": "uint48"
        }
      ],
      "name": "Unstaked",
      "type": "event"
    },
    {
      "inputs": [
        {
          "internalType": "address",
          "name": "operator",
          "type": "address"
        },
        {
          "internalType": "string",
          "name": "role",
          "type": "string"
        },
        {
          "internalType": "bool",
          "name": "authorized",
          "type": "bool"
        }
      ],
      "name": "authorize",
      "outputs": [],
      "stateMutability": "nonpayable",
      "type": "function"
    },
    {
      "inputs": [
        {
          "internalType": "uint256",
          "name": "_stakeId",
          "type": "uint256"
        }
      ],
      "name": "calculateReward",
      "outputs": [
        {
          "internalType": "uint256",
          "name": "",
          "type": "uint256"
        }
      ],
      "stateMutability": "view",
      "type": "function"
    },
    {
      "inputs": [
        {
          "internalType": "uint256",
          "name": "_stakeId",
          "type": "uint256"
        }
      ],
      "name": "claim",
      "outputs": [],
      "stateMutability": "nonpayable",
      "type": "function"
    },
    {
      "inputs": [
        {
          "internalType": "uint256",
          "name": "_farmId",
          "type": "uint256"
        }
      ],
      "name": "claimBatch",
      "outputs": [],
      "stateMutability": "nonpayable",
      "type": "function"
    },
    {
      "inputs": [
        {
          "internalType": "address",
          "name": "_stakeToken",
          "type": "address"
        },
        {
          "internalType": "uint48",
          "name": "_end",
          "type": "uint48"
        },
        {
          "internalType": "uint256",
          "name": "_totalReward",
          "type": "uint256"
        }
      ],
      "name": "create",
      "outputs": [],
      "stateMutability": "nonpayable",
      "type": "function"
    },
    {
      "inputs": [
        {
          "internalType": "uint256",
          "name": "_farmId",
          "type": "uint256"
        },
        {
          "internalType": "uint256",
          "name": "_amount",
          "type": "uint256"
        }
      ],
      "name": "deposit",
      "outputs": [],
      "stateMutability": "nonpayable",
      "type": "function"
    },
    {
      "inputs": [
        {
          "internalType": "uint256",
          "name": "",
          "type": "uint256"
        }
      ],
      "name": "farms",
      "outputs": [
        {
          "internalType": "address",
          "name": "token",
          "type": "address"
        },
        {
          "internalType": "uint48",
          "name": "start",
          "type": "uint48"
        },
        {
          "internalType": "uint48",
          "name": "end",
          "type": "uint48"
        },
        {
          "internalType": "uint256",
          "name": "totalReward",
          "type": "uint256"
        },
        {
          "internalType": "uint256",
          "name": "totalStaked",
          "type": "uint256"
        }
      ],
      "stateMutability": "view",
      "type": "function"
    },
    {
      "inputs": [
        {
          "internalType": "address",
          "name": "",
          "type": "address"
        },
        {
          "internalType": "string",
          "name": "",
          "type": "string"
        }
      ],
      "name": "hasRole",
      "outputs": [
        {
          "internalType": "bool",
          "name": "",
          "type": "bool"
        }
      ],
      "stateMutability": "view",
      "type": "function"
    },
    {
      "inputs": [],
      "name": "nend",
      "outputs": [
        {
          "internalType": "address",
          "name": "",
          "type": "address"
        }
      ],
      "stateMutability": "view",
      "type": "function"
    },
    {
      "inputs": [],
      "name": "owner",
      "outputs": [
        {
          "internalType": "address",
          "name": "",
          "type": "address"
        }
      ],
      "stateMutability": "view",
      "type": "function"
    },
    {
      "inputs": [],
      "name": "renounceOwnership",
      "outputs": [],
      "stateMutability": "nonpayable",
      "type": "function"
    },
    {
      "inputs": [
        {
          "internalType": "uint256",
          "name": "",
          "type": "uint256"
        }
      ],
      "name": "stakes",
      "outputs": [
        {
          "internalType": "address",
          "name": "staker",
          "type": "address"
        },
        {
          "internalType": "uint256",
          "name": "farmId",
          "type": "uint256"
        },
        {
          "internalType": "uint48",
          "name": "start",
          "type": "uint48"
        },
        {
          "internalType": "uint48",
          "name": "end",
          "type": "uint48"
        },
        {
          "internalType": "uint48",
          "name": "lastClaimedAt",
          "type": "uint48"
        },
        {
          "internalType": "uint256",
          "name": "amount",
          "type": "uint256"
        },
        {
          "internalType": "uint256",
          "name": "rewardClaimed",
          "type": "uint256"
        }
      ],
      "stateMutability": "view",
      "type": "function"
    },
    {
      "inputs": [
        {
          "internalType": "address",
          "name": "newOwner",
          "type": "address"
        }
      ],
      "name": "transferOwnership",
      "outputs": [],
      "stateMutability": "nonpayable",
      "type": "function"
    },
    {
      "inputs": [
        {
          "internalType": "uint256",
          "name": "_stakeId",
          "type": "uint256"
        }
      ],
      "name": "unstake",
      "outputs": [],
      "stateMutability": "nonpayable",
      "type": "function"
    }
  ],
  "transactionHash": "0x6ba2c56b06d9deac053a9d344d165e9cf6df162067cb604c900bc55c2e9ff010",
  "args": [
    "0x91b2a4d34C953Dc036a94dA066b1cFd8b948b38E"
  ],
  "numDeployments": 1,
  "solcInputHash": "9f9b24330e64b4aed8e24e00b5f5786e",
  "bytecode": "0x60803461006757601f61185c38819003918201601f19168301916001600160401b0383118484101761006c5780849260209460405283398101031261006757516001600160a01b03811681036100675761005890610082565b60405161177290816100ea8239f35b600080fd5b634e487b7160e01b600052604160045260246000fd5b600054737e8ae5c72eca86946b695dcc211863d9721a09619160018060a01b031992808484161760005560018060a01b038093167f8be0079c531659141344cd1fd0a4f28419497f9722a3daafe3b4186f6b6457e06000604051a31690600254161760025556fe60806040526004361015610013575b600080fd5b60003560e01c8063217fe6c61461012b5780632d97712f146101225780632e17de7814610119578063379607f51461011057806339d2525f14610107578063715018a6146100fe5780637da470ea146100f557806382952200146100ec5780638da5cb5b146100e3578063b7314ef9146100da578063d2d7231f146100d1578063d5a44f86146100c8578063e2bbb158146100bf5763f2fde38b146100b757600080fd5b61000e610bfc565b5061000e610a17565b5061000e61097c565b5061000e61090c565b5061000e61081f565b5061000e6107f7565b5061000e6107cf565b5061000e610762565b5061000e6106a3565b5061000e6105de565b5061000e61053e565b5061000e61039d565b5061000e61030d565b5061000e610251565b600435906001600160a01b038216820361000e57565b50634e487b7160e01b600052604160045260246000fd5b6040810190811067ffffffffffffffff82111761017d57604052565b61018561014a565b604052565b90601f8019910116810190811067ffffffffffffffff82111761017d57604052565b6040519060e0820182811067ffffffffffffffff82111761017d57604052565b6040519060a0820182811067ffffffffffffffff82111761017d57604052565b81601f8201121561000e5780359067ffffffffffffffff8211610244575b60405192610222601f8401601f19166020018561018a565b8284526020838301011161000e57816000926020809301838601378301015290565b61024c61014a565b61020a565b503461000e57604036600319011261000e5761026b610134565b60243567ffffffffffffffff811161000e576102936001600160a01b039136906004016101ec565b9116600052602090600182526040600020604051918051906000905b8282106102fa576102eb6102d986888188888089116102ef575b8201908152030190205460ff1690565b60405190151581529081906020820190565b0390f35b6000818401526102c9565b81810186015185830152908501906102af565b503461000e5760208060031936011261000e57600480359160005b825481101561039b5780610346610340600193610933565b50611297565b85848201511490811591610385575b50610380576103638161138d565b6000198114610373575b01610328565b61037b610ee2565b61036d565b610363565b65ffffffffffff91506060015116151538610355565b005b503461000e57602036600319011261000e577f2db5acd5bced5f44f73d621255e9e4f7f24d6d2d9682a513df5ea7043fd693d26004356103dc81610933565b50906104d860206103f0600185015461071b565b50600285019461045665ffffffffffff61041f816104188a5465ffffffffffff9060301c1690565b161561124b565b6104288761138d565b42168097906bffffffffffff00000000000082549160301b16906bffffffffffff0000000000001916179055565b6104a16104936104876104876003850195865461047860028301918254610f16565b9055546001600160a01b031690565b6001600160a01b031690565b91546001600160a01b031690565b915460405163a9059cbb60e01b81526001600160a01b03909316600484015260248301529092839190829060009082906044820190565b03925af18015610531575b610503575b506040805191825265ffffffffffff929092166020820152a1005b6105239060203d811161052a575b61051b818361018a565b810190611103565b50386104e8565b503d610511565b610539610dc3565b6104e3565b503461000e57602036600319011261000e576004356001600160a01b0361056482610933565b505416330361059f578061059a65ffffffffffff610418600261058961039b96610933565b50015460301c65ffffffffffff1690565b61138d565b60405162461bcd60e51b815260206004820152600d60248201526c4e6f74206f776e207374616b6560981b6044820152606490fd5b8015150361000e57565b503461000e57606036600319011261000e576105f8610134565b60243567ffffffffffffffff811161000e576106189036906004016101ec565b6001600160a01b036044359261062d846105d4565b610635610cc4565b166000526020600181526040600020916040519281849251906000905b8583831061068d5750508110610682575b8201908152030190209060ff8019835416911515161790556000604051f35b600081840152610663565b8282018101518884015287955090910190610652565b503461000e57600080600319360112610701576106be610cc4565b80546001600160a01b031981168255816001600160a01b0360405192167f8be0079c531659141344cd1fd0a4f28419497f9722a3daafe3b4186f6b6457e08284a3f35b80fd5b50634e487b7160e01b600052603260045260246000fd5b6003908154811015610755575b81600052027fc2575a0e9e593c00f959f8c92f12db2869c3395a3b0502d05e2516446f71f85b0190600090565b61075d610704565b610728565b503461000e57602036600319011261000e5760043560035481101561000e5761078c60a09161071b565b508054906002600182015491015490604051926001600160a01b038116845265ffffffffffff81861c16602085015260d01c604084015260608301526080820152f35b503461000e57600036600319011261000e5760206001600160a01b0360025416604051908152f35b503461000e57600036600319011261000e5760206001600160a01b0360005416604051908152f35b503461000e57606036600319011261000e57610839610134565b6024359065ffffffffffff8216820361000e576040519061085982610161565b600582526020926430b236b4b760d91b848401526000926001600160a01b0384541633149485156108a2575b505061089461089d9394610d1c565b60443591610f2d565b604051f35b90945033845260018152604084206040519580519086905b8282106108f9575092876108e8938361089d999a9461089497116108ef578201908152030190205460ff1690565b9493610885565b8a818401526102c9565b81810185015189830152908401906108ba565b503461000e57602036600319011261000e57602061092b600435611641565b604051908152f35b60059060045481101561096f575b6004600052027f8a35acfbc15ff81a39ae7d344fd709f28e8600b4aa8c65c6b64bfe7fe36bd19b0190600090565b610977610704565b610941565b503461000e57602036600319011261000e5760043560045481101561000e576109a490610933565b508054600182015460028301546003840154600490940154604080516001600160a01b039095168552602085019390935265ffffffffffff80831693850193909352603082901c83166060808601919091529190911c909116608083015260a082019290925260c081019190915260e090f35b503461000e5760408060031936011261000e576000907f8fa1b1e2223dcdbb644ad66a5181f5667692fc6c202efb5c90eae671dc569f1e600435602435610b92610a608361071b565b509160026001600160a01b038454610a7c428260d01c1161107d565b88516370a0823160e01b8152336004820152602096929190911690610abc9085908881602481875afa908115610bef575b8d91610bc2575b5010156110b7565b88516323b872dd60e01b815233600482015230602482015260448101859052908690829060649082908e905af18015610bb5575b610b98575b5001610b0282825461111b565b9055610b5465ffffffffffff42169385610b1a6101ac565b3381529182015265ffffffffffff8516888201526060810189905265ffffffffffff851660808201528260a08201528860c0820152611133565b610b5f600454610ef9565b8651908152336020820152604081019490945265ffffffffffff90921660608401526080830191909152819060a0820190565b0390a151f35b610bae90863d881161052a5761051b818361018a565b5038610af5565b610bbd610dc3565b610af0565b610be29150893d8b11610be8575b610bda818361018a565b810190610db4565b38610ab4565b503d610bd0565b610bf7610dc3565b610aad565b503461000e57602036600319011261000e57610c16610134565b610c1e610cc4565b6001600160a01b03809116908115610c7057600091825491816001600160a01b0319841617845560405192167f8be0079c531659141344cd1fd0a4f28419497f9722a3daafe3b4186f6b6457e08484a3f35b60405162461bcd60e51b815260206004820152602660248201527f4f776e61626c653a206e6577206f776e657220697320746865207a65726f206160448201526564647265737360d01b6064820152608490fd5b6001600160a01b03600054163303610cd857565b606460405162461bcd60e51b815260206004820152602060248201527f4f776e61626c653a2063616c6c6572206973206e6f7420746865206f776e65726044820152fd5b15610d2357565b60405162461bcd60e51b815260206004820152600e60248201527f4e6f7420617574686f72697a65640000000000000000000000000000000000006044820152606490fd5b15610d6f57565b60405162461bcd60e51b815260206004820152601060248201527f496e76616c696420656e642074696d65000000000000000000000000000000006044820152606490fd5b9081602091031261000e575190565b506040513d6000823e3d90fd5b15610dd757565b60405162461bcd60e51b815260206004820152601b60248201527f4e6f7420656e6f756768206c697175696469747920737570706c7900000000006044820152606490fd5b50634e487b7160e01b600052600060045260246000fd5b60026080610e5b60035468010000000000000000811015610ed5575b6001810160035561071b565b939093610ec8575b8051602082015160408301516001600160a01b0390921660a09190911b65ffffffffffff60a01b161760d09190911b7fffffffffffff000000000000000000000000000000000000000000000000000016178455606081015160018501550151910155565b610ed0610e1c565b610e63565b610edd61014a565b610e4f565b50634e487b7160e01b600052601160045260246000fd5b60018110610f09575b6000190190565b610f11610ee2565b610f02565b818110610f21570390565b610f29610ee2565b0390565b9061104d7f15c2d2647680bb2008b9c7ebba268afb710b03da5b18d7e39cf399b7e081770f9365ffffffffffff610f674282861611610d68565b610fbb82610f836104876104876002546001600160a01b031690565b6040516370a0823160e01b815230600482015290602090829060249082905afa908115611070575b600091611052575b501015610dd0565b421692611003610fc96101cc565b6001600160a01b038716815265ffffffffffff8616602082015265ffffffffffff8316604082015283606082015260006080820152610e33565b61100e600354610ef9565b936040519586958691936001600160a01b036080949297969560a0850198855216602084015265ffffffffffff80921660408401521660608201520152565b0390a1565b61106a915060203d8111610be857610bda818361018a565b38610fb3565b611078610dc3565b610fab565b1561108457565b60405162461bcd60e51b815260206004820152600b60248201526a11985c9b4818db1bdcd95960aa1b6044820152606490fd5b156110be57565b60405162461bcd60e51b815260206004820152601d60248201527f496e73756666696369656e74206c7020746f6b656e2062616c616e63650000006044820152606490fd5b9081602091031261000e5751611118816105d4565b90565b81198111611127570190565b61112f610ee2565b0190565b600460c061115982546801000000000000000081101561123e575b600181018455610933565b939093611231575b8051845473ffffffffffffffffffffffffffffffffffffffff19166001600160a01b0391909116178455602081015160018501556112206002850165ffffffffffff60408401511665ffffffffffff198254161781556111f76111cd606085015165ffffffffffff1690565b82546bffffffffffff000000000000191660309190911b6bffffffffffff00000000000016178255565b6080830151815465ffffffffffff60601b191660609190911b65ffffffffffff60601b16179055565b60a081015160038501550151910155565b611239610e1c565b611161565b61124661014a565b61114e565b1561125257565b60405162461bcd60e51b815260206004820152601060248201527f416c726561647920756e7374616b6564000000000000000000000000000000006044820152606490fd5b9060405160e0810181811067ffffffffffffffff821117611334575b60405260c0600482946001600160a01b03815416845260018101546020850152611323600282015465ffffffffffff906112fa828216604089019065ffffffffffff169052565b65ffffffffffff603082901c831616606088015260601c16608086019065ffffffffffff169052565b600381015460a08501520154910152565b61133c61014a565b6112b3565b1561134857565b60405162461bcd60e51b815260206004820152601d60248201527f496e73756666696369656e74206c697175696469747920737570706c790000006044820152606490fd5b61139681610933565b506113a4600182015461071b565b50916113af81611641565b806113bb575b50505050565b6114f9611520917f13e74023f2254e8a849a98d1797107bbe684613be7b7717f205affdd644b16a59560016113fe6104876104876002546001600160a01b031690565b6040516370a0823160e01b81523060048201526020939161143e9186918690829060249082905afa908115611574575b600091611557575b501015611341565b0161144a838254610f16565b90556114d681600488019361146081865461111b565b855560028901805465ffffffffffff60601b19164260601b65ffffffffffff60601b16178155986114a26104936104876104876002546001600160a01b031690565b600060405180968195829463a9059cbb60e01b845260048401602090939291936001600160a01b0360408201951681520152565b03925af1801561154a575b61152c575b505054935460601c65ffffffffffff1690565b6040519384938491604091949365ffffffffffff9160608501968552602085015216910152565b0390a1388080806113b5565b8161154292903d1061052a5761051b818361018a565b5038806114e6565b611552610dc3565b6114e1565b61156e9150863d8811610be857610bda818361018a565b38611436565b61157c610dc3565b61142e565b9060405160a0810181811067ffffffffffffffff8211176115de575b60405260806002829480546001600160a01b038116855265ffffffffffff8160a01c16602086015260d01c6040850152600181015460608501520154910152565b6115e661014a565b61159d565b65ffffffffffff9182169116818110610f21570390565b8060001904821181151516611615570290565b61161d610ee2565b0290565b811561162b570490565b634e487b7160e01b600052601260045260246000fd5b61034061164d91610933565b65ffffffffffff80611668606084015165ffffffffffff1690565b1661173557611721611716836116d460206117086116fb6116f061169a611694856111189c015161071b565b50611581565b9560408701996116b08b5165ffffffffffff1690565b808216421161172757506116e860a06116da8342165b608086015165ffffffffffff165b906115eb565b93015160608a015190611602565b911690611602565b608086015190611621565b965165ffffffffffff1690565b92015165ffffffffffff1690565b65ffffffffffff1690565b90611621565b60a06116da6116e8926116c6565b505060009056fea264697066735822122036300dd9c8fd3638a349453a25603948f368569e02d10d7a4a82373aa8a8074a64736f6c634300080e0033",
  "devdoc": {
    "kind": "dev",
    "methods": {
      "owner()": {
        "details": "Returns the address of the current owner."
      },
      "renounceOwnership()": {
        "details": "Leaves the contract without owner. It will not be possible to call `onlyOwner` functions anymore. Can only be called by the current owner. NOTE: Renouncing ownership will leave the contract without an owner, thereby removing any functionality that is only available to the owner."
      },
      "transferOwnership(address)": {
        "details": "Transfers ownership of the contract to a new account (`newOwner`). Can only be called by the current owner."
      }
    },
    "version": 1
  },
  "userdoc": {
    "kind": "user",
    "methods": {},
    "version": 1
  },
  "storageLayout": {
    "storage": [
      {
        "astId": 8424,
        "contract": "contracts/staking/LiquidityPoolStaking.sol:LiquidityPoolStaking",
        "label": "_owner",
        "offset": 0,
        "slot": "0",
        "type": "t_address"
      },
      {
        "astId": 8539,
        "contract": "contracts/staking/LiquidityPoolStaking.sol:LiquidityPoolStaking",
        "label": "hasRole",
        "offset": 0,
        "slot": "1",
        "type": "t_mapping(t_address,t_mapping(t_string_memory_ptr,t_bool))"
      },
      {
        "astId": 25506,
        "contract": "contracts/staking/LiquidityPoolStaking.sol:LiquidityPoolStaking",
        "label": "nend",
        "offset": 0,
        "slot": "2",
        "type": "t_address"
      },
      {
        "astId": 25510,
        "contract": "contracts/staking/LiquidityPoolStaking.sol:LiquidityPoolStaking",
        "label": "farms",
        "offset": 0,
        "slot": "3",
        "type": "t_array(t_struct(Farm)26173_storage)dyn_storage"
      },
      {
        "astId": 25514,
        "contract": "contracts/staking/LiquidityPoolStaking.sol:LiquidityPoolStaking",
        "label": "stakes",
        "offset": 0,
        "slot": "4",
        "type": "t_array(t_struct(Stake)26188_storage)dyn_storage"
      }
    ],
    "types": {
      "t_address": {
        "encoding": "inplace",
        "label": "address",
        "numberOfBytes": "20"
      },
      "t_array(t_struct(Farm)26173_storage)dyn_storage": {
        "base": "t_struct(Farm)26173_storage",
        "encoding": "dynamic_array",
        "label": "struct ILiquidityPoolStaking.Farm[]",
        "numberOfBytes": "32"
      },
      "t_array(t_struct(Stake)26188_storage)dyn_storage": {
        "base": "t_struct(Stake)26188_storage",
        "encoding": "dynamic_array",
        "label": "struct ILiquidityPoolStaking.Stake[]",
        "numberOfBytes": "32"
      },
      "t_bool": {
        "encoding": "inplace",
        "label": "bool",
        "numberOfBytes": "1"
      },
      "t_mapping(t_address,t_mapping(t_string_memory_ptr,t_bool))": {
        "encoding": "mapping",
        "key": "t_address",
        "label": "mapping(address => mapping(string => bool))",
        "numberOfBytes": "32",
        "value": "t_mapping(t_string_memory_ptr,t_bool)"
      },
      "t_mapping(t_string_memory_ptr,t_bool)": {
        "encoding": "mapping",
        "key": "t_string_memory_ptr",
        "label": "mapping(string => bool)",
        "numberOfBytes": "32",
        "value": "t_bool"
      },
      "t_string_memory_ptr": {
        "encoding": "bytes",
        "label": "string",
        "numberOfBytes": "32"
      },
      "t_struct(Farm)26173_storage": {
        "encoding": "inplace",
        "label": "struct ILiquidityPoolStaking.Farm",
        "members": [
          {
            "astId": 26164,
            "contract": "contracts/staking/LiquidityPoolStaking.sol:LiquidityPoolStaking",
            "label": "token",
            "offset": 0,
            "slot": "0",
            "type": "t_address"
          },
          {
            "astId": 26166,
            "contract": "contracts/staking/LiquidityPoolStaking.sol:LiquidityPoolStaking",
            "label": "start",
            "offset": 20,
            "slot": "0",
            "type": "t_uint48"
          },
          {
            "astId": 26168,
            "contract": "contracts/staking/LiquidityPoolStaking.sol:LiquidityPoolStaking",
            "label": "end",
            "offset": 26,
            "slot": "0",
            "type": "t_uint48"
          },
          {
            "astId": 26170,
            "contract": "contracts/staking/LiquidityPoolStaking.sol:LiquidityPoolStaking",
            "label": "totalReward",
            "offset": 0,
            "slot": "1",
            "type": "t_uint256"
          },
          {
            "astId": 26172,
            "contract": "contracts/staking/LiquidityPoolStaking.sol:LiquidityPoolStaking",
            "label": "totalStaked",
            "offset": 0,
            "slot": "2",
            "type": "t_uint256"
          }
        ],
        "numberOfBytes": "96"
      },
      "t_struct(Stake)26188_storage": {
        "encoding": "inplace",
        "label": "struct ILiquidityPoolStaking.Stake",
        "members": [
          {
            "astId": 26175,
            "contract": "contracts/staking/LiquidityPoolStaking.sol:LiquidityPoolStaking",
            "label": "staker",
            "offset": 0,
            "slot": "0",
            "type": "t_address"
          },
          {
            "astId": 26177,
            "contract": "contracts/staking/LiquidityPoolStaking.sol:LiquidityPoolStaking",
            "label": "farmId",
            "offset": 0,
            "slot": "1",
            "type": "t_uint256"
          },
          {
            "astId": 26179,
            "contract": "contracts/staking/LiquidityPoolStaking.sol:LiquidityPoolStaking",
            "label": "start",
            "offset": 0,
            "slot": "2",
            "type": "t_uint48"
          },
          {
            "astId": 26181,
            "contract": "contracts/staking/LiquidityPoolStaking.sol:LiquidityPoolStaking",
            "label": "end",
            "offset": 6,
            "slot": "2",
            "type": "t_uint48"
          },
          {
            "astId": 26183,
            "contract": "contracts/staking/LiquidityPoolStaking.sol:LiquidityPoolStaking",
            "label": "lastClaimedAt",
            "offset": 12,
            "slot": "2",
            "type": "t_uint48"
          },
          {
            "astId": 26185,
            "contract": "contracts/staking/LiquidityPoolStaking.sol:LiquidityPoolStaking",
            "label": "amount",
            "offset": 0,
            "slot": "3",
            "type": "t_uint256"
          },
          {
            "astId": 26187,
            "contract": "contracts/staking/LiquidityPoolStaking.sol:LiquidityPoolStaking",
            "label": "rewardClaimed",
            "offset": 0,
            "slot": "4",
            "type": "t_uint256"
          }
        ],
        "numberOfBytes": "160"
      },
      "t_uint256": {
        "encoding": "inplace",
        "label": "uint256",
        "numberOfBytes": "32"
      },
      "t_uint48": {
        "encoding": "inplace",
        "label": "uint48",
        "numberOfBytes": "6"
      }
    }
  }
}