{
  "address": "0x884FE97ebBc2766b1d3b2d39FE2c23a4A1d6b199",
  "abi": [
    {
      "inputs": [
        {
          "internalType": "address",
          "name": "_insuranceVaultAddress",
          "type": "address"
        },
        {
          "internalType": "address",
          "name": "_lendingPoolAddress",
          "type": "address"
        },
        {
          "internalType": "address",
          "name": "_masterWalletAddress",
          "type": "address"
        },
        {
          "internalType": "address",
          "name": "_periFiAdminAddress",
          "type": "address"
        },
        {
          "internalType": "address",
          "name": "_curationRewardPoolAddress",
          "type": "address"
        }
      ],
      "stateMutability": "nonpayable",
      "type": "constructor"
    },
    {
      "inputs": [],
      "name": "curationRewardPoolAddress",
      "outputs": [
        {
          "internalType": "address",
          "name": "",
          "type": "address"
        }
      ],
      "stateMutability": "view",
      "type": "function"
    },
    {
      "inputs": [
        {
          "internalType": "uint256",
          "name": "loanId",
          "type": "uint256"
        },
        {
          "internalType": "uint256",
          "name": "repaymentAmount",
          "type": "uint256"
        },
        {
          "internalType": "uint256",
          "name": "loanAmount",
          "type": "uint256"
        },
        {
          "internalType": "address",
          "name": "lender",
          "type": "address"
        }
      ],
      "name": "getDestinations",
      "outputs": [
        {
          "components": [
            {
              "internalType": "address",
              "name": "targetAddress",
              "type": "address"
            },
            {
              "internalType": "uint256",
              "name": "value",
              "type": "uint256"
            },
            {
              "internalType": "bool",
              "name": "guaranteed",
              "type": "bool"
            }
          ],
          "internalType": "struct Repayment[]",
          "name": "results",
          "type": "tuple[]"
        }
      ],
      "stateMutability": "view",
      "type": "function"
    },
    {
      "inputs": [],
      "name": "insuranceVaultAddress",
      "outputs": [
        {
          "internalType": "address",
          "name": "",
          "type": "address"
        }
      ],
      "stateMutability": "view",
      "type": "function"
    },
    {
      "inputs": [],
      "name": "lendingPoolAddress",
      "outputs": [
        {
          "internalType": "address",
          "name": "",
          "type": "address"
        }
      ],
      "stateMutability": "view",
      "type": "function"
    },
    {
      "inputs": [],
      "name": "masterWalletAddress",
      "outputs": [
        {
          "internalType": "address",
          "name": "",
          "type": "address"
        }
      ],
      "stateMutability": "view",
      "type": "function"
    },
    {
      "inputs": [],
      "name": "periFiAdminAddress",
      "outputs": [
        {
          "internalType": "address",
          "name": "",
          "type": "address"
        }
      ],
      "stateMutability": "view",
      "type": "function"
    }
  ],
  "transactionHash": "0x70ca04fbd5e10202e573a4b5c65fac3bc72485a3775a6538b3c1ad3419ab3166",
  "args": [
    "0x5379A0b3f8c391E211354EC20e4c66D8Ac521392",
    "0x7aD43D0cecd610053E874068264e4C9d632cE4C7",
    "0x7E8aE5C72eCA86946b695dCc211863D9721A0961",
    "0x63b7B222C7fe9Af3a11871446062C19f6d032092",
    "0x455129a6378c6D0d3D667554267112ad4000997F"
  ],
  "numDeployments": 1,
  "solcInputHash": "976fcd60ab8b72a945fedcc4d0f05f37",
  "bytecode": "0x608034620000e857601f6200126138819003918201601f19168301916001600160401b03831184841017620000ed5780849260a094604052833981010312620000e8578062000052620000d89262000103565b90620000616020820162000103565b6200006f6040830162000103565b906200008c6080620000846060860162000103565b940162000103565b919260018060a01b0380948180948160018060a01b0319991689600054161760005516876001541617600155168560025416176002551683600354161760035516906004541617600455565b6040516111489081620001198239f35b600080fd5b634e487b7160e01b600052604160045260246000fd5b51906001600160a01b0382168203620000e85756fe608080604052600436101561001357600080fd5b6000803560e01c91826301397bba14610090575050806313113df01461008757806380d249901461007e5780638341e13c14610075578063b0a89bd91461006c5763d3ae26b314610064575b600080fd5b61005f610296565b5061005f6101d9565b5061005f610186565b5061005f610133565b5061005f6100e0565b346100dc57817ffffffffffffffffffffffffffffffffffffffffffffffffffffffffffffffffc3601126100dc5773ffffffffffffffffffffffffffffffffffffffff60209254168152f35b5080fd5b503461005f5760007ffffffffffffffffffffffffffffffffffffffffffffffffffffffffffffffffc36011261005f57602073ffffffffffffffffffffffffffffffffffffffff60025416604051908152f35b503461005f5760007ffffffffffffffffffffffffffffffffffffffffffffffffffffffffffffffffc36011261005f57602073ffffffffffffffffffffffffffffffffffffffff60035416604051908152f35b503461005f5760007ffffffffffffffffffffffffffffffffffffffffffffffffffffffffffffffffc36011261005f57602073ffffffffffffffffffffffffffffffffffffffff60045416604051908152f35b503461005f5760807ffffffffffffffffffffffffffffffffffffffffffffffffffffffffffffffffc36011261005f5773ffffffffffffffffffffffffffffffffffffffff606435818116810361005f5761023c906044356024356004356106b5565b6040908151916020808401908085528351809252808386019401926000905b8382106102685786860387f35b845180518916875280840151878501528101511515868201526060909501949382019360019091019061025b565b503461005f5760007ffffffffffffffffffffffffffffffffffffffffffffffffffffffffffffffffc36011261005f57602073ffffffffffffffffffffffffffffffffffffffff60015416604051908152f35b507f4e487b7100000000000000000000000000000000000000000000000000000000600052601160045260246000fd5b818110610324570390565b61032c6102e9565b0390565b507f4e487b7100000000000000000000000000000000000000000000000000000000600052604160045260246000fd5b6060810190811067ffffffffffffffff82111761037c57604052565b610384610330565b604052565b90601f7fffffffffffffffffffffffffffffffffffffffffffffffffffffffffffffffe0910116810190811067ffffffffffffffff82111761037c57604052565b9081602091031261005f575190565b506040513d6000823e3d90fd5b604051906103f382610360565b565b604090815161040381610360565b600281528092600090815b81811061041b5750505050565b602090825161042981610360565b848152828581830152858583015282870101520161040e565b60409081519180830183811067ffffffffffffffff8211176104a5575b81526001835282916000805b60208082101561049c5784516020929161048482610360565b8482528481830152848783015282890101520161046b565b50505091925050565b6104ad610330565b61045f565b6040908151610100810181811067ffffffffffffffff821117610512575b8352600781528092600090815b60e081106104eb5750505050565b60209082516104f981610360565b84815282858183015285858301528287010152016104dd565b61051a610330565b6104d0565b60409081516080810181811067ffffffffffffffff82111761057e575b8352600381528092600090815b606081106105575750505050565b602090825161056581610360565b8481528285818301528585830152828701015201610549565b610586610330565b61053c565b8051156105985760200190565b7f4e487b7100000000000000000000000000000000000000000000000000000000600052603260045260246000fd5b8051600110156105985760400190565b8051600210156105985760600190565b8051600310156105985760800190565b8051600410156105985760a00190565b8051600510156105985760c00190565b8051600610156105985760e00190565b807fffffffffffffffffffffffffffffffffffffffffffffffffffffffffffffffff04821181151516610658570290565b6106606102e9565b0290565b811561066e570490565b7f4e487b7100000000000000000000000000000000000000000000000000000000600052601260045260246000fd5b811981116106a9570190565b6106b16102e9565b0190565b93919290836106c391610319565b936106e360015473ffffffffffffffffffffffffffffffffffffffff1690565b9173ffffffffffffffffffffffffffffffffffffffff90818416906040938451987f34c23b5c000000000000000000000000000000000000000000000000000000008a52602096878b8061073f86600483019190602083019252565b0381885afa9a8b15610d33575b60009b610d14575b508115610c415761078b6107858c61077f6107788e6107738489610627565b610664565b8096610319565b9c610319565b9a610d40565b97919490968d156000146108a257505050505061088c95969798506107b8906107b261051f565b9961069d565b6107df6107c36103e6565b73ffffffffffffffffffffffffffffffffffffffff9093168352565b868201526000848201526107f28861058b565b526107fc8761058b565b5060025473ffffffffffffffffffffffffffffffffffffffff16906108226107c36103e6565b85820152600083820152610835876105c7565b5261083f866105c7565b5060045473ffffffffffffffffffffffffffffffffffffffff16936108816108656103e6565b73ffffffffffffffffffffffffffffffffffffffff9096168652565b840152820160019052565b610895836105d7565b5261089f826105d7565b50565b99898161092593819e9f98979b9a9c9d6108ed6108d460035473ffffffffffffffffffffffffffffffffffffffff1690565b73ffffffffffffffffffffffffffffffffffffffff1690565b935180809781947f79d35e02000000000000000000000000000000000000000000000000000000008352600483019190602083019252565b03915afa928315610c34575b600093610c15575b5060048c51809581937f549b4c7b000000000000000000000000000000000000000000000000000000008352165afa918215610c08575b600092610bd5575b5061098290610e19565b61098c9088610627565b61271090049061099c9088610627565b6127109004966109ac888361069d565b6109b591610319565b936109be6104b2565b9c6109c76103e6565b73ffffffffffffffffffffffffffffffffffffffff8516815290818d015260018b8201528d6109f59061058b565b526109ff8d61058b565b50610a086103e6565b73ffffffffffffffffffffffffffffffffffffffff8716815290818c015260008a820152610a358d6105c7565b52610a3f8c6105c7565b50610a486103e6565b73ffffffffffffffffffffffffffffffffffffffff9092168252818a0152600088820152610a758b6105d7565b52610a7f8a6105d7565b50610a899161069d565b610a916103e6565b73ffffffffffffffffffffffffffffffffffffffff909216825281870152600085820152610abe886105e7565b52610ac8876105e7565b5060045473ffffffffffffffffffffffffffffffffffffffff1690610aeb6103e6565b73ffffffffffffffffffffffffffffffffffffffff909216825281860152600184820152610b18876105f7565b52610b22866105f7565b5060005473ffffffffffffffffffffffffffffffffffffffff1690610b456103e6565b73ffffffffffffffffffffffffffffffffffffffff909216825281850152600083820152610b7286610607565b52610b7c85610607565b5060025473ffffffffffffffffffffffffffffffffffffffff1692610b9f6103e6565b73ffffffffffffffffffffffffffffffffffffffff9094168452830152810160009052610bcb83610617565b5261089f82610617565b610982919250610bfa908c8d3d10610c01575b610bf28183610389565b8101906103ca565b9190610978565b503d610be8565b610c106103d9565b610970565b610c2d919350823d8411610c0157610bf28183610389565b9138610939565b610c3c6103d9565b610931565b989450505093949680915015600014610c8c5750600092939450610c63610442565b94610c6f6108656103e6565b840152820152610c7e8261058b565b52610c888161058b565b5090565b610cef906000949592610c9d6103f5565b97610cc5610ca96103e6565b73ffffffffffffffffffffffffffffffffffffffff9092168252565b8285820152610cd686820160019052565b610cdf8961058b565b52610ce98861058b565b50610319565b90610cfb6108656103e6565b840152820152610d0a826105c7565b52610c88816105c7565b610d2c919b50883d8a11610c0157610bf28183610389565b9938610754565b610d3b6103d9565b61074c565b6004602073ffffffffffffffffffffffffffffffffffffffff60035416604051928380927f442ce24b0000000000000000000000000000000000000000000000000000000082525afa908115610e0c575b600091610dee575b5060648110610de6575b610db06127109183610627565b046064820490818110610dd9575b81810392818110610dcd570392565b610dd56102e9565b0392565b610de16102e9565b610dbe565b506064610da3565b610e06915060203d8111610c0157610bf28183610389565b38610d99565b610e146103d9565b610d91565b602073ffffffffffffffffffffffffffffffffffffffff91610e536108d460035473ffffffffffffffffffffffffffffffffffffffff1690565b906107d08111610ec657506004604051809481937fd4c77d0c000000000000000000000000000000000000000000000000000000008352165afa908115610eb9575b600091610ea157505b90565b610e9e915060203d8111610c0157610bf28183610389565b610ec16103d9565b610e95565b610bb88111610f1157506004604051809481937f84707482000000000000000000000000000000000000000000000000000000008352165afa908115610eb957600091610ea1575090565b610fa08111610f5c57506004604051809481937f06c8327f000000000000000000000000000000000000000000000000000000008352165afa908115610eb957600091610ea1575090565b6113888111610fa757506004604051809481937f6b787492000000000000000000000000000000000000000000000000000000008352165afa908115610eb957600091610ea1575090565b6117708111610ff257506004604051809481937f6854fa8c000000000000000000000000000000000000000000000000000000008352165afa908115610eb957600091610ea1575090565b611b58811161103d57506004604051809481937fe39d1cf7000000000000000000000000000000000000000000000000000000008352165afa908115610eb957600091610ea1575090565b611f40811161108857506004604051809481937f894f453a000000000000000000000000000000000000000000000000000000008352165afa908115610eb957600091610ea1575090565b612328106110d1576004604051809481937ffa71cbc0000000000000000000000000000000000000000000000000000000008352165afa908115610eb957600091610ea1575090565b6004604051809481937fc11dfd56000000000000000000000000000000000000000000000000000000008352165afa908115610eb957600091610ea157509056fea26469706673582212201e4f161d943926491937955cb98a7c59f1f4fb4142b875ad93f8b5b2889e550a64736f6c634300080e0033"
}