{
  "address": "0x0F443432584953EEbE27C7D0dbc927c9D1b0b27b",
  "abi": [
    {
      "inputs": [
        {
          "internalType": "address",
          "name": "_periFiAdminAddr",
          "type": "address"
        },
        {
          "internalType": "address",
          "name": "_loanRepaymentAddr",
          "type": "address"
        }
      ],
      "stateMutability": "nonpayable",
      "type": "constructor"
    },
    {
      "inputs": [
        {
          "internalType": "uint256",
          "name": "auctionId",
          "type": "uint256"
        },
        {
          "internalType": "enum AuctionStatus",
          "name": "status",
          "type": "uint8"
        }
      ],
      "name": "AuctionInvalidStatus",
      "type": "error"
    },
    {
      "inputs": [],
      "name": "AuctionNotRegistered",
      "type": "error"
    },
    {
      "inputs": [],
      "name": "CollateralOwnershipNotTransferred",
      "type": "error"
    },
    {
      "inputs": [],
      "name": "IncompleteStepDownConfig",
      "type": "error"
    },
    {
      "inputs": [],
      "name": "InexactFraction",
      "type": "error"
    },
    {
      "inputs": [
        {
          "internalType": "uint256",
          "name": "startAmount",
          "type": "uint256"
        },
        {
          "internalType": "uint256",
          "name": "endAmount",
          "type": "uint256"
        }
      ],
      "name": "InvalidPriceRange",
      "type": "error"
    },
    {
      "inputs": [],
      "name": "InvalidStepDownConfig",
      "type": "error"
    },
    {
      "inputs": [
        {
          "internalType": "uint256",
          "name": "startTime",
          "type": "uint256"
        },
        {
          "internalType": "uint256",
          "name": "endTime",
          "type": "uint256"
        }
      ],
      "name": "InvalidTimeRange",
      "type": "error"
    },
    {
      "inputs": [],
      "name": "NotAuthorized",
      "type": "error"
    },
    {
      "inputs": [],
      "name": "ProtectionNotOver",
      "type": "error"
    },
    {
      "inputs": [],
      "name": "ProtectionOver",
      "type": "error"
    },
    {
      "inputs": [],
      "name": "StepDownConfigAndAuctionTimeMismatch",
      "type": "error"
    },
    {
      "inputs": [],
      "name": "StepDownConfigOverflow",
      "type": "error"
    },
    {
      "anonymous": false,
      "inputs": [
        {
          "indexed": true,
          "internalType": "uint256",
          "name": "auctionId",
          "type": "uint256"
        },
        {
          "indexed": false,
          "internalType": "uint256",
          "name": "loanId",
          "type": "uint256"
        },
        {
          "indexed": false,
          "internalType": "address",
          "name": "tokenAddr",
          "type": "address"
        },
        {
          "indexed": false,
          "internalType": "address",
          "name": "paymentToken",
          "type": "address"
        },
        {
          "indexed": false,
          "internalType": "address",
          "name": "loanBorrower",
          "type": "address"
        },
        {
          "indexed": false,
          "internalType": "uint256",
          "name": "tokenId",
          "type": "uint256"
        },
        {
          "indexed": false,
          "internalType": "uint256",
          "name": "startAmount",
          "type": "uint256"
        },
        {
          "indexed": false,
          "internalType": "uint256",
          "name": "endAmount",
          "type": "uint256"
        },
        {
          "indexed": false,
          "internalType": "uint256",
          "name": "startTime",
          "type": "uint256"
        },
        {
          "indexed": false,
          "internalType": "uint256",
          "name": "endTime",
          "type": "uint256"
        },
        {
          "indexed": false,
          "internalType": "uint256",
          "name": "protectedUntil",
          "type": "uint256"
        },
        {
          "indexed": false,
          "internalType": "uint256",
          "name": "loanRepaymentAmount",
          "type": "uint256"
        },
        {
          "indexed": false,
          "internalType": "bytes",
          "name": "stepDownConfig",
          "type": "bytes"
        }
      ],
      "name": "LoanAuctionBegun",
      "type": "event"
    },
    {
      "anonymous": false,
      "inputs": [
        {
          "indexed": true,
          "internalType": "uint256",
          "name": "auctionId",
          "type": "uint256"
        },
        {
          "indexed": false,
          "internalType": "address",
          "name": "borrower",
          "type": "address"
        },
        {
          "indexed": false,
          "internalType": "uint256",
          "name": "payout",
          "type": "uint256"
        }
      ],
      "name": "LoanAuctionCancelledByPayout",
      "type": "event"
    },
    {
      "anonymous": false,
      "inputs": [
        {
          "indexed": true,
          "internalType": "uint256",
          "name": "auctionId",
          "type": "uint256"
        },
        {
          "indexed": false,
          "internalType": "address",
          "name": "bidder",
          "type": "address"
        },
        {
          "indexed": false,
          "internalType": "address",
          "name": "borrower",
          "type": "address"
        },
        {
          "indexed": false,
          "internalType": "uint256",
          "name": "bidAmount",
          "type": "uint256"
        }
      ],
      "name": "LoanAuctionSoldAndProtected",
      "type": "event"
    },
    {
      "anonymous": false,
      "inputs": [
        {
          "indexed": true,
          "internalType": "uint256",
          "name": "auctionId",
          "type": "uint256"
        },
        {
          "indexed": false,
          "internalType": "address",
          "name": "bidder",
          "type": "address"
        },
        {
          "indexed": false,
          "internalType": "uint256",
          "name": "bidAmount",
          "type": "uint256"
        }
      ],
      "name": "LoanAuctionSoldToBidder",
      "type": "event"
    },
    {
      "anonymous": false,
      "inputs": [
        {
          "indexed": true,
          "internalType": "address",
          "name": "previousOwner",
          "type": "address"
        },
        {
          "indexed": true,
          "internalType": "address",
          "name": "newOwner",
          "type": "address"
        }
      ],
      "name": "OwnershipTransferred",
      "type": "event"
    },
    {
      "inputs": [],
      "name": "auctionCount",
      "outputs": [
        {
          "internalType": "uint256",
          "name": "",
          "type": "uint256"
        }
      ],
      "stateMutability": "view",
      "type": "function"
    },
    {
      "inputs": [
        {
          "internalType": "uint256",
          "name": "",
          "type": "uint256"
        }
      ],
      "name": "auctions",
      "outputs": [
        {
          "internalType": "uint256",
          "name": "id",
          "type": "uint256"
        },
        {
          "internalType": "uint256",
          "name": "protectedUntil",
          "type": "uint256"
        },
        {
          "components": [
            {
              "internalType": "uint256",
              "name": "loanId",
              "type": "uint256"
            },
            {
              "internalType": "address",
              "name": "tokenAddress",
              "type": "address"
            },
            {
              "internalType": "address",
              "name": "paymentToken",
              "type": "address"
            },
            {
              "internalType": "uint256",
              "name": "tokenId",
              "type": "uint256"
            },
            {
              "internalType": "uint256",
              "name": "startAmount",
              "type": "uint256"
            },
            {
              "internalType": "uint256",
              "name": "endAmount",
              "type": "uint256"
            },
            {
              "internalType": "uint256",
              "name": "startTime",
              "type": "uint256"
            },
            {
              "internalType": "uint256",
              "name": "endTime",
              "type": "uint256"
            },
            {
              "internalType": "bytes",
              "name": "stepDownConfig",
              "type": "bytes"
            },
            {
              "internalType": "address",
              "name": "loanBorrower",
              "type": "address"
            },
            {
              "internalType": "uint256",
              "name": "loanAmount",
              "type": "uint256"
            },
            {
              "internalType": "uint256",
              "name": "loanRepaymentAmount",
              "type": "uint256"
            },
            {
              "internalType": "address",
              "name": "lender",
              "type": "address"
            },
            {
              "internalType": "bool",
              "name": "isProtected",
              "type": "bool"
            }
          ],
          "internalType": "struct AuctionParameters",
          "name": "parameters",
          "type": "tuple"
        }
      ],
      "stateMutability": "view",
      "type": "function"
    },
    {
      "inputs": [
        {
          "components": [
            {
              "internalType": "uint256",
              "name": "loanId",
              "type": "uint256"
            },
            {
              "internalType": "address",
              "name": "tokenAddress",
              "type": "address"
            },
            {
              "internalType": "address",
              "name": "paymentToken",
              "type": "address"
            },
            {
              "internalType": "uint256",
              "name": "tokenId",
              "type": "uint256"
            },
            {
              "internalType": "uint256",
              "name": "startAmount",
              "type": "uint256"
            },
            {
              "internalType": "uint256",
              "name": "endAmount",
              "type": "uint256"
            },
            {
              "internalType": "uint256",
              "name": "startTime",
              "type": "uint256"
            },
            {
              "internalType": "uint256",
              "name": "endTime",
              "type": "uint256"
            },
            {
              "internalType": "bytes",
              "name": "stepDownConfig",
              "type": "bytes"
            },
            {
              "internalType": "address",
              "name": "loanBorrower",
              "type": "address"
            },
            {
              "internalType": "uint256",
              "name": "loanAmount",
              "type": "uint256"
            },
            {
              "internalType": "uint256",
              "name": "loanRepaymentAmount",
              "type": "uint256"
            },
            {
              "internalType": "address",
              "name": "lender",
              "type": "address"
            },
            {
              "internalType": "bool",
              "name": "isProtected",
              "type": "bool"
            }
          ],
          "internalType": "struct AuctionParameters",
          "name": "params",
          "type": "tuple"
        }
      ],
      "name": "beginAuction",
      "outputs": [],
      "stateMutability": "nonpayable",
      "type": "function"
    },
    {
      "inputs": [
        {
          "internalType": "uint256",
          "name": "",
          "type": "uint256"
        }
      ],
      "name": "bidAmounts",
      "outputs": [
        {
          "internalType": "uint256",
          "name": "",
          "type": "uint256"
        }
      ],
      "stateMutability": "view",
      "type": "function"
    },
    {
      "inputs": [
        {
          "internalType": "uint256",
          "name": "",
          "type": "uint256"
        }
      ],
      "name": "bidders",
      "outputs": [
        {
          "internalType": "address",
          "name": "",
          "type": "address"
        }
      ],
      "stateMutability": "view",
      "type": "function"
    },
    {
      "inputs": [
        {
          "internalType": "uint256",
          "name": "auctionId",
          "type": "uint256"
        }
      ],
      "name": "claim",
      "outputs": [],
      "stateMutability": "nonpayable",
      "type": "function"
    },
    {
      "inputs": [
        {
          "internalType": "uint256",
          "name": "auctionId",
          "type": "uint256"
        }
      ],
      "name": "currentBidPrice",
      "outputs": [
        {
          "internalType": "uint256",
          "name": "amount",
          "type": "uint256"
        }
      ],
      "stateMutability": "view",
      "type": "function"
    },
    {
      "inputs": [
        {
          "internalType": "uint256",
          "name": "auctionId",
          "type": "uint256"
        }
      ],
      "name": "currentDebt",
      "outputs": [
        {
          "internalType": "uint256",
          "name": "debt",
          "type": "uint256"
        }
      ],
      "stateMutability": "view",
      "type": "function"
    },
    {
      "inputs": [],
      "name": "decrementInterval",
      "outputs": [
        {
          "internalType": "uint256",
          "name": "",
          "type": "uint256"
        }
      ],
      "stateMutability": "view",
      "type": "function"
    },
    {
      "inputs": [],
      "name": "loanRepaymentAddr",
      "outputs": [
        {
          "internalType": "address",
          "name": "",
          "type": "address"
        }
      ],
      "stateMutability": "view",
      "type": "function"
    },
    {
      "inputs": [
        {
          "internalType": "uint256",
          "name": "auctionId",
          "type": "uint256"
        }
      ],
      "name": "makeBid",
      "outputs": [
        {
          "internalType": "bool",
          "name": "completed",
          "type": "bool"
        }
      ],
      "stateMutability": "nonpayable",
      "type": "function"
    },
    {
      "inputs": [],
      "name": "owner",
      "outputs": [
        {
          "internalType": "address",
          "name": "",
          "type": "address"
        }
      ],
      "stateMutability": "view",
      "type": "function"
    },
    {
      "inputs": [
        {
          "internalType": "uint256",
          "name": "auctionId",
          "type": "uint256"
        }
      ],
      "name": "payout",
      "outputs": [],
      "stateMutability": "nonpayable",
      "type": "function"
    },
    {
      "inputs": [],
      "name": "periFiAdminAddr",
      "outputs": [
        {
          "internalType": "address",
          "name": "",
          "type": "address"
        }
      ],
      "stateMutability": "view",
      "type": "function"
    },
    {
      "inputs": [],
      "name": "renounceOwnership",
      "outputs": [],
      "stateMutability": "nonpayable",
      "type": "function"
    },
    {
      "inputs": [
        {
          "internalType": "uint256",
          "name": "",
          "type": "uint256"
        }
      ],
      "name": "status",
      "outputs": [
        {
          "internalType": "enum AuctionStatus",
          "name": "",
          "type": "uint8"
        }
      ],
      "stateMutability": "view",
      "type": "function"
    },
    {
      "inputs": [
        {
          "internalType": "address",
          "name": "newOwner",
          "type": "address"
        }
      ],
      "name": "transferOwnership",
      "outputs": [],
      "stateMutability": "nonpayable",
      "type": "function"
    },
    {
      "inputs": [
        {
          "internalType": "uint256",
          "name": "intervalInSec",
          "type": "uint256"
        }
      ],
      "name": "updateDecrementInterval",
      "outputs": [],
      "stateMutability": "nonpayable",
      "type": "function"
    }
  ],
  "transactionHash": "0x781bf6584d8f688359e61d712234ad6d43e71086959b0784065a7a0076c562ff",
  "args": [
    "0x63b7B222C7fe9Af3a11871446062C19f6d032092",
    "0x884FE97ebBc2766b1d3b2d39FE2c23a4A1d6b199"
  ],
  "numDeployments": 1,
  "solcInputHash": "9f9b24330e64b4aed8e24e00b5f5786e",
  "bytecode": "0x6080346200007657601f62002fd338819003918201601f19168301916001600160401b038311848410176200007b5780849260409485528339810103126200007657806200005f602062000057620000669462000091565b920162000091565b90620000a6565b604051612ea09081620001338239f35b600080fd5b634e487b7160e01b600052604160045260246000fd5b51906001600160a01b03821682036200007657565b600080546001600160a01b0319808216737e8ae5c72eca86946b695dcc211863d9721a0961908117845560405191956001600160a01b0395909486949193918516917f8be0079c531659141344cd1fd0a4f28419497f9722a3daafe3b4186f6b6457e09190a360018055600060025562015180600955168360075416176007551690600854161760085556fe60806040526004361015610013575b600080fd5b60003560e01c8063175b23041461017b5780632ad7157314610172578063379607f51461016957806342d21ef714610160578063571a26a014610157578063715018a61461014e5780638da5cb5b146101455780639b3e45b41461013c578063a754807a14610133578063b8b9e2941461012a578063bcb2966714610121578063c18c277514610118578063cb0fc56d1461010f578063cff29dfd14610106578063d0f7146d146100fd578063d126b4e5146100f4578063e1152343146100eb5763f2fde38b146100e357600080fd5b61000e6118e9565b5061000e61138a565b5061000e611325565b5061000e6112fd565b5061000e6112c7565b5061000e6112a8565b5061000e611280565b5061000e611259565b5061000e610eb7565b5061000e610e8a565b5061000e610e6b565b5061000e610e43565b5061000e610de2565b5061000e610cae565b5061000e610985565b5061000e6101e6565b5061000e6101c7565b503461000e57602036600319011261000e5761019c60026001541415611a0d565b600260015560206101ae600435612251565b600180556040519015158152f35b600091031261000e57565b503461000e57600036600319011261000e576020600254604051908152f35b503461000e57602036600319011261000e5761020760026001541415611a0d565b6002600155600261022e6102276004356000526004602052604060002090565b5460ff1690565b61023781610958565b0361091c5761025a6102556004356000526003602052604060002090565b611fca565b60206040820151910151421061090a5761029061028461028460208401516001600160a01b031690565b6001600160a01b031690565b606082015190803b1561000e576040516323b872dd60e01b815230600482015233602482015260448101929092526000908290606490829084905af180156108fd575b6108e4575b506102ff6102f26004356000526004602052604060002090565b805460ff19166003179055565b6103156004356000526005602052604060002090565b54600461033d61033082356000526006602052604060002090565b546001600160a01b031690565b926103566102846102846008546001600160a01b031690565b8151906000610160840151610140850151936103bc6103806101808801516001600160a01b031690565b604051968794859463b0a89bd960e01b86528b860192936001600160a01b03919594606093608086019786526020860152604085015216910152565b0381845afa9182156108d7575b6000926108af575b5060209060405194858092629cbddd60e11b82525afa9283156108a2575b600093610871575b5061040f61028460408401516001600160a01b031690565b6040516370a0823160e01b81526001600160a01b0385166004820152909385929091602081806024810103816001600160a01b038a165afa908115610864575b600091610835575b50815160005b81811061059d575b5050505050917feaa5e39b43e701893bc019e42337b913a8c5cdce162a87d5a36b0f75c4bfd0d59391836104c1946104cf575b5050506040519182916004359583602090939291936001600160a01b0360408201951681520152565b0390a26104cd60018055565b005b6105499261050d61012060209401610500846104f283516001600160a01b031690565b306104fb612142565b612e10565b516001600160a01b031690565b60006001600160a01b0360405180978196829563a9059cbb60e01b845260048401602090939291936001600160a01b0360408201951681520152565b0393165af18015610590575b610561575b8080610498565b6105829060203d602011610589575b61057a8183610a66565b810190612018565b503861055a565b503d610570565b610598611be4565b610555565b6105a78185612120565b51936020850151876107b4575b85516001600160a01b03166001600160a01b0381166001600160a01b038916146107a6576105ec6105e86040890151151590565b1590565b6107a65781861015610713575050505050916104c1959391837feaa5e39b43e701893bc019e42337b913a8c5cdce162a87d5a36b0f75c4bfd0d598969461063b575b8496985083959750610465565b6106cf928261066483610657602096516001600160a01b031690565b61065f61220e565b612da3565b60006001600160a01b0361069361068560408b01516001600160a01b031690565b93516001600160a01b031690565b60405163276d76f960e21b81526001600160a01b0394851660048201529316602484015260448301949094529094859384929183906064820190565b0393165af18015610706575b6106e7575b808061062e565b6106ff9060203d6020116105895761057a8183610a66565b50386106e0565b61070e611be4565b6106db565b946107556020838a61076c96989a60008f61069361068560406107729d9f93610747896001600160a01b039661065f6121d5565b01516001600160a01b031690565b0393165af18015610799575b61077a575b5061217b565b926120f9565b92909261045d565b6107929060203d6020116105895761057a8183610a66565b5038610766565b6107a1611be4565b610761565b5050919350610772906120f9565b898189939910156108045750906107fb916107e3826107da89516001600160a01b031690565b306104fb612192565b6107556020838d61050d8b516001600160a01b031690565b956000966105b4565b9161075560208361082f9561050d8b6105006107729a9f9b9d6104f28691516001600160a01b031690565b956120f9565b610857915060203d60201161085d575b61084f8183610a66565b810190611c2e565b38610457565b503d610845565b61086c611be4565b61044f565b61089491935060203d60201161089b575b61088c8183610a66565b810190611bcf565b91386103f7565b503d610882565b6108aa611be4565b6103ef565b60209192506108d0903d806000833e6108c88183610a66565b81019061202d565b91906103d1565b6108df611be4565b6103c9565b806108f16108f792610a0d565b806101bc565b386102d8565b610905611be4565b6102d3565b604051632ab4e4b960e21b8152600490fd5b6109546109386102276004356000526004602052604060002090565b604051635430ca1760e01b815291829160048035908401611fb4565b0390fd5b6005111561096257565b634e487b7160e01b600052602160045260246000fd5b9060058210156109625752565b503461000e57602036600319011261000e576004356000526004602052602060ff604060002054166109ba6040518092610978565bf35b90600182811c921680156109ec575b60208310146109d657565b634e487b7160e01b600052602260045260246000fd5b91607f16916109cb565b50634e487b7160e01b600052604160045260246000fd5b67ffffffffffffffff8111610a2157604052565b610a296109f6565b604052565b6060810190811067ffffffffffffffff821117610a2157604052565b6040810190811067ffffffffffffffff821117610a2157604052565b90601f8019910116810190811067ffffffffffffffff821117610a2157604052565b9060405191826000825492610a9c846109bc565b908184526001948581169081600014610b0b5750600114610ac8575b5050610ac692500383610a66565b565b9093915060005260209081600020936000915b818310610af3575050610ac693508201013880610ab8565b85548884018501529485019487945091830191610adb565b9550505050505060ff19166020830152610ac682604081013880610ab8565b604051906101c0820182811067ffffffffffffffff821117610a2157604052565b60405190610ac682610a2e565b90610ac660ff600c610b68610b2a565b9480548652610b94610b8460018301546001600160a01b031690565b6001600160a01b03166020880152565b610bbb610bab60028301546001600160a01b031690565b6001600160a01b03166040880152565b6003810154606087015260048101546080870152600581015460a0870152600681015460c0870152600781015460e0870152610bf960088201610a88565b610100870152610c27610c1660098301546001600160a01b031690565b6001600160a01b0316610120880152565b600a810154610140870152600b81015461016087015201546001600160a01b03811661018086015260a01c1615156101a0840152565b91908251928382526000905b848210610c96575092806020939411610c89575b601f01601f1916010190565b6000838284010152610c7d565b90602090818082850101519082860101520190610c69565b503461000e57602036600319011261000e57600435600052600360205260406000208054610ce3600260018401549301610b58565b604051928392835260208301526060604083015280516060830152610d18602082015160808401906001600160a01b03169052565b60408101516001600160a01b031660a0830152606081015160c0830152608081015160e0830152610dde60a0820151610100908185015260c0830151926101209384860152610dd260e0820151926101409384880152820151926101c0610d8c6101609582878b01526102208a0190610c5d565b9684015191610da961018093848b01906001600160a01b03169052565b840151946101a095868a0152840151908801528201516101e08701906001600160a01b03169052565b01511515610200840152565b0390f35b503461000e57600080600319360112610e4057610dfd6119b5565b80546001600160a01b031981168255816001600160a01b0360405192167f8be0079c531659141344cd1fd0a4f28419497f9722a3daafe3b4186f6b6457e08284a3f35b80fd5b503461000e57600036600319011261000e5760206001600160a01b0360005416604051908152f35b503461000e57600036600319011261000e576020600954604051908152f35b503461000e57602036600319011261000e5760043560005260056020526020604060002054604051908152f35b503461000e5760031960203682011261000e5767ffffffffffffffff6004351161000e576101c0906004353603011261000e57610ef26119b5565b610f0160026001541415611a0d565b6002600155600254610f11610b4b565b9080825260006020830152610f2b36600435600401611ae1565b6040830152610f44610284610284602460043501611bc5565b6040516331a9108f60e11b815260048035606401359082015290602090829081806024810103915afa90811561124c575b60009161122d575b506001600160a01b033091160361121b5760a460043501356084600435013511156111f25760e4600435013560c4600435013510156111c95760e460043501354210156111c9578161100b61101092610fe161010460043501600435600401611bf1565b905061118f575b610ff76101a460043501611c24565b6110fe576000526003602052604060002090565b611dad565b6110366110296002546000526004602052604060002090565b805460ff19166001179055565b611049611044600254611c54565b600255565b7f9646b4a182fb1ac357dcde11fd0f02336fff19d5cd9177879d352d0fe85ba81981519161107b602460043501611bc5565b6104c161108c604460043501611bc5565b92602061109e61012460043501611bc5565b9101516110b661010460043501600435600401611bf1565b92909160405196879661016460043501359360e460043501359260c460043501359260a4600435013592608460043501359260646004350135928d6004356004013590611f34565b61114e6004602061111d6102846102846007546001600160a01b031690565b60405163cf4e00cf60e01b815292839182905afa908115611182575b600091611163575b5060c46004350135611c70565b60208401526000526003602052604060002090565b61117c915060203d60201161085d5761084f8183610a66565b38611141565b61118a611be4565b611139565b6111c46111b16111aa61010460043501600435600401611bf1565b3691611a59565b60e4600435013560c46004350135612bf2565b610fe8565b604051630e781b2360e31b815260c460048035918201359083015260e401356024820152604490fd5b6040516347cc0ae160e01b8152608460048035918201359083015260a401356024820152604490fd5b6040516355a5813d60e11b8152600490fd5b611246915060203d60201161089b5761088c8183610a66565b38610f7d565b611254611be4565b610f75565b503461000e57602036600319011261000e5760206112786004356129f4565b604051908152f35b503461000e57600036600319011261000e5760206001600160a01b0360075416604051908152f35b503461000e57602036600319011261000e576020611278600435612ad5565b503461000e57602036600319011261000e57600435600052600660205260206001600160a01b0360406000205416604051908152f35b503461000e57600036600319011261000e5760206001600160a01b0360085416604051908152f35b503461000e57602036600319011261000e57600435801561134557600955005b60405162461bcd60e51b815260206004820152601f60248201527f696e74657276616c206d757374206265206e6f6e2d7a65726f2076616c7565006044820152606490fd5b503461000e5760208060031936011261000e5760049081356113b160026001541415611a0d565b60026001556113cd610227826000526004602052604060002090565b926113d784610958565b6001841415806118b9575b61189e576113fd610255836000526003602052604060002090565b92604093848101519061141e6102846101208401516001600160a01b031690565b330361188e57820151421161187e57610160810195865190600260009161144481610958565b146116e5575b61145391611c70565b9561146d610284610284858501516001600160a01b031690565b606083015192813b1561000e5787516323b872dd60e01b80825230828901908152336020820152604081019690965294899360009183919082908490829060600103925af180156116d8575b6116c5575b5060006114d96102846102846008546001600160a01b031690565b8251945190610140840151958961153a6114fe6101808801516001600160a01b031690565b8851998a968795869563b0a89bd960e01b8752860192936001600160a01b03919594606093608086019786526020860152604085015216910152565b03915afa9283156116b8575b600093611693575b500151909390611566906001600160a01b0316610284565b908451946001600160a01b0360009316925b8681106115f257600089897fd9778e84173ed82dd2bb850ad64fd44439124d54c442898c74f70496d817590d6115e38e6115cc6115bf856000526004602052604060002090565b805460ff19166004179055565b845133815260208101919091529081906040820190565b0390a26115ef60018055565b51f35b8061164b876116046116649486612120565b518161161782516001600160a01b031690565b9101518d518a8152338982019081526001600160a01b03909316602084015260408301919091529283918291606090910190565b038160008a5af18015611686575b611669575b506120f9565b611578565b61167f90883d8a116105895761057a8183610a66565b503861165e565b61168e611be4565b611659565b916116af6115669361028493953d8091833e6108c88183610a66565b9391509161154e565b6116c0611be4565b611546565b806108f16116d292610a0d565b386114be565b6116e0611be4565b6114b9565b506116fa856000526005602052604060002090565b54906117058261299f565b6064900490858589860194898b83878951611726906001600160a01b031690565b6001600160a01b03166001600160a01b031661174c856000526006602052604060002090565b5484516323b872dd60e01b815233998101998a526001600160a01b0390911660208a0152604089019290925290968791908290036060019082905a90600091f18b81156103306117c26102846102846114539e6118039c6000986117d397611871575b611854575b50516001600160a01b031690565b956000526006602052604060002090565b92519687958694859363a9059cbb60e01b85528401602090939291936001600160a01b0360408201951681520152565b03925af18015611847575b61182a575b50600087815260056020526040812055915061144a565b61184090863d88116105895761057a8183610a66565b5038611813565b61184f611be4565b61180e565b61186a908d803d106105895761057a8183610a66565b50386117b4565b611879611be4565b6117af565b8451639ae4be8360e01b81528390fd5b855163ea8e4eb560e01b81528490fd5b61095484604051938493635430ca1760e01b85528401611fb4565b506118c384610958565b60028414156113e2565b6001600160a01b0381160361000e57565b3590610ac6826118cd565b503461000e57602036600319011261000e57600435611907816118cd565b61190f6119b5565b6001600160a01b0380911690811561196157600091825491816001600160a01b0319841617845560405192167f8be0079c531659141344cd1fd0a4f28419497f9722a3daafe3b4186f6b6457e08484a3f35b60405162461bcd60e51b815260206004820152602660248201527f4f776e61626c653a206e6577206f776e657220697320746865207a65726f206160448201526564647265737360d01b6064820152608490fd5b6001600160a01b036000541633036119c957565b606460405162461bcd60e51b815260206004820152602060248201527f4f776e61626c653a2063616c6c6572206973206e6f7420746865206f776e65726044820152fd5b15611a1457565b60405162461bcd60e51b815260206004820152601f60248201527f5265656e7472616e637947756172643a207265656e7472616e742063616c6c006044820152606490fd5b92919267ffffffffffffffff8211611aa1575b60405191611a84601f8201601f191660200184610a66565b82948184528183011161000e578281602093846000960137010152565b611aa96109f6565b611a6c565b9080601f8301121561000e57816020611ac993359101611a59565b90565b8015150361000e57565b3590610ac682611acc565b9190916101c08184031261000e57611af7610b2a565b9281358452611b08602083016118de565b6020850152611b19604083016118de565b6040850152606082013560608501526080820135608085015260a082013560a085015260c082013560c085015260e082013560e085015261010090818301359067ffffffffffffffff821161000e57611b73918401611aae565b90840152610120611b858183016118de565b9084015261014080820135908401526101608082013590840152610180611bad8183016118de565b90840152611bbf6101a0809201611ad6565b90830152565b35611ac9816118cd565b9081602091031261000e5751611ac9816118cd565b506040513d6000823e3d90fd5b903590601e198136030182121561000e570180359067ffffffffffffffff821161000e5760200191813603831361000e57565b35611ac981611acc565b9081602091031261000e575190565b50634e487b7160e01b600052601160045260246000fd5b6001906001198111611c64570190565b611c6c611c3d565b0190565b81198111611c64570190565b90601f8111611c8a57505050565b600091825260208220906020601f850160051c83019410611cc6575b601f0160051c01915b828110611cbb57505050565b818155600101611caf565b9092508290611ca6565b919091825167ffffffffffffffff8111611da0575b611cf981611cf384546109bc565b84611c7c565b602080601f8311600114611d35575081929394600092611d2a575b50508160011b916000199060031b1c1916179055565b015190503880611d14565b90601f19831695611d4b85600052602060002090565b926000905b888210611d8857505083600195969710611d6f575b505050811b019055565b015160001960f88460031b161c19169055388080611d65565b80600185968294968601518155019501930190611d50565b611da86109f6565b611ce5565b611f1a6101a0600e6040610ac695805186556020810151600187015501519384516002820155611e09611dea60208701516001600160a01b031690565b60038301906001600160a01b03166001600160a01b0319825416179055565b611e3f611e2060408701516001600160a01b031690565b60048301906001600160a01b03166001600160a01b0319825416179055565b606085015160058201556080850151600682015560a0850151600782015560c0850151600882015560e08501516009820155611e83610100860151600a8301611cd0565b611eba611e9b6101208701516001600160a01b031690565b600b8301906001600160a01b03166001600160a01b0319825416179055565b610140850151600c820155610160850151600d8201550192611f13611eea6101808301516001600160a01b031690565b855473ffffffffffffffffffffffffffffffffffffffff19166001600160a01b03909116178555565b0151151590565b815460ff60a01b191690151560a01b60ff60a01b16179055565b9b9c9a999897969594939190926020938d528c6001600160a01b0394858094169101521660408c01521660608a0152608089015260a088015260c087015260e08601526101008501526101208401526101408301528061018080610160850152830152806101a093848401376000828201840152601f01601f1916010190565b908152604081019291610ac69160200190610978565b906040516060810181811067ffffffffffffffff82111761200b575b604052604061200660028395805485526001810154602086015201610b58565b910152565b6120136109f6565b611fe6565b9081602091031261000e5751611ac981611acc565b6020808284031261000e57815167ffffffffffffffff9283821161000e57019083601f8301121561000e5781519283116120ec575b604093845194612077838660051b0187610a66565b848652828601918360608097028601019481861161000e578401925b8584106120a4575050505050505090565b868483031261000e5784879184516120bb81610a2e565b86516120c6816118cd565b81528287015183820152858701516120dd81611acc565b86820152815201930192612093565b6120f46109f6565b612062565b6001906000198114611c64570190565b50634e487b7160e01b600052603260045260246000fd5b6020918151811015612135575b60051b010190565b61213d612109565b61212d565b6040519061214f82610a4a565b601982527f73656e64696e672066726f6d20257320746f2025732c202573000000000000006020830152565b818110612186570390565b61218e611c3d565b0390565b6040519061219f82610a2e565b60218252607360f81b6040837f73656e64696e67207061727469616c2066726f6d20257320746f2025732c202560208201520152565b604051906121e282610a4a565b601982527f73656e64696e672066726f6d20495620746f2025732c202573000000000000006020830152565b6040519061221b82610a2e565b60218252607360f81b6040837f73656e64696e67207061727469616c2066726f6d20495620746f2025732c202560208201520152565b90600161226b610227846000526004602052604060002090565b61227481610958565b0361296a5761228282612ad5565b9161229a610255826000526003602052604060002090565b9260206040850151940151421061281b576122c561028461028460208701516001600160a01b031690565b606085015190803b1561000e576040516323b872dd60e01b815230600482015233602482015260448101929092526000908290606490829084905af1801561280e575b6127fb575b506123266102846102846008546001600160a01b031690565b9380519460006101608301516101408401519761238e6123516101808701516001600160a01b031690565b6040519a8b94859463b0a89bd960e01b86526004860192936001600160a01b03919594606093608086019786526020860152604085015216910152565b0381845afa9586156127ee575b6000966127c9575b5090602060049260405193848092629cbddd60e11b82525afa9182156127bc575b60009261279b575b506123e461028460408301516001600160a01b031690565b6040516370a0823160e01b81526001600160a01b038416600482015290928491602081806024810103816001600160a01b0389165afa90811561278e575b60009161276f575b50885160005b818110612556575b505050506124a395965084936102f295937feaa5e39b43e701893bc019e42337b913a8c5cdce162a87d5a36b0f75c4bfd0d59383612490946124a8575b50506040805133815260208101939093529192839283019150565b0390a26000526004602052604060002090565b600190565b612512926124d461012060209401610500846124cb83516001600160a01b031690565b336104fb612142565b6040516323b872dd60e01b81523360048201526001600160a01b03918216602482015260448101939093529193849283916000919083906064820190565b0393165af18015612549575b61252a575b8080612475565b6125429060203d6020116105895761057a8183610a66565b5038612523565b612551611be4565b61251e565b612560818c612120565b519a60208c0151866126fc575b8c516001600160a01b03166001600160a01b0381166001600160a01b038816146126ee576125a16105e88f60400151151590565b6126ee5781861015612662575050505050937feaa5e39b43e701893bc019e42337b913a8c5cdce162a87d5a36b0f75c4bfd0d593612490938897936124a39a9b886102f29b99612602575b505050938a995083975082969850819550612438565b61261e928261066483610657602096516001600160a01b031690565b0393165af18015612655575b612636575b80806125ec565b61264e9060203d6020116105895761057a8183610a66565b503861262f565b61265d611be4565b61262a565b9481602061076c94969f61269461268660408e610747876126e69c9e61065f6121d5565b91516001600160a01b031690565b60405163276d76f960e21b81526001600160a01b039283166004820152911660248201526044810192909252818060648101038160006001600160a01b038d165af180156107995761077a575061217b565b999099612430565b5050919a506126e6906120f9565b80879297101561273e57906127359161075560208f8c6124d4826105008861272c8196516001600160a01b031690565b336104fb612192565b9460009561256d565b6127699161075560206126e69599969f8c6124d482610500886124cb8196516001600160a01b031690565b946120f9565b612788915060203d60201161085d5761084f8183610a66565b3861242a565b612796611be4565b612422565b6127b591925060203d60201161089b5761088c8183610a66565b90386123cc565b6127c4611be4565b6123c4565b6004929196506127e56020913d806000833e6108c88183610a66565b969192506123a3565b6127f6611be4565b61239b565b806108f161280892610a0d565b3861230d565b612816611be4565b612308565b6129176101208561285f61028461028460407f3005fc6b3bb46c08e0cf129dca16ec43a82367c23823eddfdfbb7a1c41f4c35b98999a01516001600160a01b031690565b6040516323b872dd60e01b81523360048201523060248201526044810186905290602090829060649082906000905af1801561295d575b61293e575b506128cf336128b4886000526006602052604060002090565b906001600160a01b03166001600160a01b0319825416179055565b6128f36128e6876000526004602052604060002090565b805460ff19166002179055565b83612908876000526005602052604060002090565b5501516001600160a01b031690565b604080513381526001600160a01b03929092166020830152810191909152606090a2600090565b6129569060203d6020116105895761057a8183610a66565b503861289b565b612965611be4565b612896565b50612982610227826000526004602052604060002090565b604051635430ca1760e01b81529182916109549160048401611fb4565b60059080600019048211811515166129b5570290565b6129bd611c3d565b0290565b80600019048211811515166129b5570290565b81156129de570490565b634e487b7160e01b600052601260045260246000fd5b612a0b610227826000526004602052604060002090565b612a1481610958565b600181141580612ac1575b612aba576040612a3c610255846000526003602052604060002090565b015191612a576102846101208501516001600160a01b031690565b3303612ab257610160611ac9930151906002600093612a7581610958565b14612a81575b50611c70565b612aab919250612a9e612aa4916000526005602052604060002090565b5461299f565b6064900490565b9038612a7b565b505050600090565b5050600090565b50612acb81610958565b6002811415612a1f565b6001612aee610227836000526004602052604060002090565b612af781610958565b03612b6157612b156102556040926000526003602052604060002090565b015161010081019081515115612b4157611ac99160808201519160c060a0820151910151915192612ce8565b611ac9915060808101519060a081015160e060c083015192015192612b67565b50600090565b9092838203612b765750505090565b92612b9a612ba092612b9485600196970396420391828803906129c1565b926129c1565b90611c70565b91600019830104019015150290565b906020918051821015612bc157010190565b612bc9612109565b010190565b60ff6001911660ff8114611c64570190565b60ff6002911660fd8111611c64570190565b90825115612cd65760008093805190825b828410612c5e575b5050505090612c199161217b565b612c3c60095460ff612c36612c30838388166129c1565b95612be0565b166129c1565b91811115612c4c571015612c4c57565b604051633176730d60e21b8152600490fd5b60ff969293969081612ca2612c9c612c768b87612baf565b517fff000000000000000000000000000000000000000000000000000000000000001690565b60f81c90565b16918214612ccd57612cba612cc692612cc092611c70565b93612bce565b966120f9565b9291612c03565b50829650612c0b565b60405163431abebf60e01b8152600490fd5b92909192828103612cfa575050905090565b600091612d0d83956009549042036129d4565b81519084925b828410612d3d575b5050505091612b9a82612b94600195612d37612ba0968961217b565b906129c1565b9091929660ff9081612d55612c9c612c768c87612baf565b16918214612d9c57838910612d80575b612d7891612d7291611c70565b976120f9565b929190612d13565b9581612d92612d7893612d7293611c70565b9791509150612d65565b9750612d1b565b612df590612ddb92610ac6946001600160a01b036040519586946307c8121760e01b6020870152606060248701526084860190610c5d565b92166044840152606483015203601f198101835282610a66565b600080916020815191016a636f6e736f6c652e6c6f675afa50565b612e4092610ac694612df593604051958694636eb7943d60e01b60208701526080602487015260a4860190610c5d565b6001600160a01b03918216604486015292166064840152608483015203601f198101835282610a6656fea2646970667358221220979293070761a077ddfdfdd823010bc24e5883abc6623a5146b031355468ce3764736f6c634300080e0033",
  "devdoc": {
    "errors": {
      "InexactFraction()": [
        {
          "details": "Revert with an error when attempting to apply a fraction as part of      a partial fill that does not divide the target amount cleanly."
        }
      ]
    },
    "kind": "dev",
    "methods": {
      "owner()": {
        "details": "Returns the address of the current owner."
      },
      "renounceOwnership()": {
        "details": "Leaves the contract without owner. It will not be possible to call `onlyOwner` functions anymore. Can only be called by the current owner. NOTE: Renouncing ownership will leave the contract without an owner, thereby removing any functionality that is only available to the owner."
      },
      "transferOwnership(address)": {
        "details": "Transfers ownership of the contract to a new account (`newOwner`). Can only be called by the current owner."
      }
    },
    "version": 1
  },
  "userdoc": {
    "kind": "user",
    "methods": {},
    "version": 1
  },
  "storageLayout": {
    "storage": [
      {
        "astId": 8424,
        "contract": "contracts/loan/LoanAuction.sol:LoanAuction",
        "label": "_owner",
        "offset": 0,
        "slot": "0",
        "type": "t_address"
      },
      {
        "astId": 4007,
        "contract": "contracts/loan/LoanAuction.sol:LoanAuction",
        "label": "_status",
        "offset": 0,
        "slot": "1",
        "type": "t_uint256"
      },
      {
        "astId": 19193,
        "contract": "contracts/loan/LoanAuction.sol:LoanAuction",
        "label": "auctionCount",
        "offset": 0,
        "slot": "2",
        "type": "t_uint256"
      },
      {
        "astId": 19198,
        "contract": "contracts/loan/LoanAuction.sol:LoanAuction",
        "label": "auctions",
        "offset": 0,
        "slot": "3",
        "type": "t_mapping(t_uint256,t_struct(Auction)20883_storage)"
      },
      {
        "astId": 19203,
        "contract": "contracts/loan/LoanAuction.sol:LoanAuction",
        "label": "status",
        "offset": 0,
        "slot": "4",
        "type": "t_mapping(t_uint256,t_enum(AuctionStatus)20735)"
      },
      {
        "astId": 19207,
        "contract": "contracts/loan/LoanAuction.sol:LoanAuction",
        "label": "bidAmounts",
        "offset": 0,
        "slot": "5",
        "type": "t_mapping(t_uint256,t_uint256)"
      },
      {
        "astId": 19211,
        "contract": "contracts/loan/LoanAuction.sol:LoanAuction",
        "label": "bidders",
        "offset": 0,
        "slot": "6",
        "type": "t_mapping(t_uint256,t_address)"
      },
      {
        "astId": 19213,
        "contract": "contracts/loan/LoanAuction.sol:LoanAuction",
        "label": "periFiAdminAddr",
        "offset": 0,
        "slot": "7",
        "type": "t_address"
      },
      {
        "astId": 19215,
        "contract": "contracts/loan/LoanAuction.sol:LoanAuction",
        "label": "loanRepaymentAddr",
        "offset": 0,
        "slot": "8",
        "type": "t_address"
      },
      {
        "astId": 19218,
        "contract": "contracts/loan/LoanAuction.sol:LoanAuction",
        "label": "decrementInterval",
        "offset": 0,
        "slot": "9",
        "type": "t_uint256"
      }
    ],
    "types": {
      "t_address": {
        "encoding": "inplace",
        "label": "address",
        "numberOfBytes": "20"
      },
      "t_bool": {
        "encoding": "inplace",
        "label": "bool",
        "numberOfBytes": "1"
      },
      "t_bytes_storage": {
        "encoding": "bytes",
        "label": "bytes",
        "numberOfBytes": "32"
      },
      "t_enum(AuctionStatus)20735": {
        "encoding": "inplace",
        "label": "enum AuctionStatus",
        "numberOfBytes": "1"
      },
      "t_mapping(t_uint256,t_address)": {
        "encoding": "mapping",
        "key": "t_uint256",
        "label": "mapping(uint256 => address)",
        "numberOfBytes": "32",
        "value": "t_address"
      },
      "t_mapping(t_uint256,t_enum(AuctionStatus)20735)": {
        "encoding": "mapping",
        "key": "t_uint256",
        "label": "mapping(uint256 => enum AuctionStatus)",
        "numberOfBytes": "32",
        "value": "t_enum(AuctionStatus)20735"
      },
      "t_mapping(t_uint256,t_struct(Auction)20883_storage)": {
        "encoding": "mapping",
        "key": "t_uint256",
        "label": "mapping(uint256 => struct Auction)",
        "numberOfBytes": "32",
        "value": "t_struct(Auction)20883_storage"
      },
      "t_mapping(t_uint256,t_uint256)": {
        "encoding": "mapping",
        "key": "t_uint256",
        "label": "mapping(uint256 => uint256)",
        "numberOfBytes": "32",
        "value": "t_uint256"
      },
      "t_struct(Auction)20883_storage": {
        "encoding": "inplace",
        "label": "struct Auction",
        "members": [
          {
            "astId": 20877,
            "contract": "contracts/loan/LoanAuction.sol:LoanAuction",
            "label": "id",
            "offset": 0,
            "slot": "0",
            "type": "t_uint256"
          },
          {
            "astId": 20879,
            "contract": "contracts/loan/LoanAuction.sol:LoanAuction",
            "label": "protectedUntil",
            "offset": 0,
            "slot": "1",
            "type": "t_uint256"
          },
          {
            "astId": 20882,
            "contract": "contracts/loan/LoanAuction.sol:LoanAuction",
            "label": "parameters",
            "offset": 0,
            "slot": "2",
            "type": "t_struct(AuctionParameters)20867_storage"
          }
        ],
        "numberOfBytes": "480"
      },
      "t_struct(AuctionParameters)20867_storage": {
        "encoding": "inplace",
        "label": "struct AuctionParameters",
        "members": [
          {
            "astId": 20840,
            "contract": "contracts/loan/LoanAuction.sol:LoanAuction",
            "label": "loanId",
            "offset": 0,
            "slot": "0",
            "type": "t_uint256"
          },
          {
            "astId": 20842,
            "contract": "contracts/loan/LoanAuction.sol:LoanAuction",
            "label": "tokenAddress",
            "offset": 0,
            "slot": "1",
            "type": "t_address"
          },
          {
            "astId": 20844,
            "contract": "contracts/loan/LoanAuction.sol:LoanAuction",
            "label": "paymentToken",
            "offset": 0,
            "slot": "2",
            "type": "t_address"
          },
          {
            "astId": 20846,
            "contract": "contracts/loan/LoanAuction.sol:LoanAuction",
            "label": "tokenId",
            "offset": 0,
            "slot": "3",
            "type": "t_uint256"
          },
          {
            "astId": 20848,
            "contract": "contracts/loan/LoanAuction.sol:LoanAuction",
            "label": "startAmount",
            "offset": 0,
            "slot": "4",
            "type": "t_uint256"
          },
          {
            "astId": 20850,
            "contract": "contracts/loan/LoanAuction.sol:LoanAuction",
            "label": "endAmount",
            "offset": 0,
            "slot": "5",
            "type": "t_uint256"
          },
          {
            "astId": 20852,
            "contract": "contracts/loan/LoanAuction.sol:LoanAuction",
            "label": "startTime",
            "offset": 0,
            "slot": "6",
            "type": "t_uint256"
          },
          {
            "astId": 20854,
            "contract": "contracts/loan/LoanAuction.sol:LoanAuction",
            "label": "endTime",
            "offset": 0,
            "slot": "7",
            "type": "t_uint256"
          },
          {
            "astId": 20856,
            "contract": "contracts/loan/LoanAuction.sol:LoanAuction",
            "label": "stepDownConfig",
            "offset": 0,
            "slot": "8",
            "type": "t_bytes_storage"
          },
          {
            "astId": 20858,
            "contract": "contracts/loan/LoanAuction.sol:LoanAuction",
            "label": "loanBorrower",
            "offset": 0,
            "slot": "9",
            "type": "t_address"
          },
          {
            "astId": 20860,
            "contract": "contracts/loan/LoanAuction.sol:LoanAuction",
            "label": "loanAmount",
            "offset": 0,
            "slot": "10",
            "type": "t_uint256"
          },
          {
            "astId": 20862,
            "contract": "contracts/loan/LoanAuction.sol:LoanAuction",
            "label": "loanRepaymentAmount",
            "offset": 0,
            "slot": "11",
            "type": "t_uint256"
          },
          {
            "astId": 20864,
            "contract": "contracts/loan/LoanAuction.sol:LoanAuction",
            "label": "lender",
            "offset": 0,
            "slot": "12",
            "type": "t_address"
          },
          {
            "astId": 20866,
            "contract": "contracts/loan/LoanAuction.sol:LoanAuction",
            "label": "isProtected",
            "offset": 20,
            "slot": "12",
            "type": "t_bool"
          }
        ],
        "numberOfBytes": "416"
      },
      "t_uint256": {
        "encoding": "inplace",
        "label": "uint256",
        "numberOfBytes": "32"
      }
    }
  }
}