{
  "address": "0x91b2a4d34C953Dc036a94dA066b1cFd8b948b38E",
  "abi": [
    {
      "inputs": [
        {
          "internalType": "bool",
          "name": "_isMainChain",
          "type": "bool"
        },
        {
          "internalType": "uint256[]",
          "name": "_chains",
          "type": "uint256[]"
        }
      ],
      "stateMutability": "nonpayable",
      "type": "constructor"
    },
    {
      "anonymous": false,
      "inputs": [
        {
          "indexed": true,
          "internalType": "address",
          "name": "addresses",
          "type": "address"
        },
        {
          "indexed": false,
          "internalType": "uint256",
          "name": "amount",
          "type": "uint256"
        }
      ],
      "name": "AirdropCreated",
      "type": "event"
    },
    {
      "anonymous": false,
      "inputs": [
        {
          "indexed": true,
          "internalType": "address",
          "name": "owner",
          "type": "address"
        },
        {
          "indexed": true,
          "internalType": "address",
          "name": "spender",
          "type": "address"
        },
        {
          "indexed": false,
          "internalType": "uint256",
          "name": "value",
          "type": "uint256"
        }
      ],
      "name": "Approval",
      "type": "event"
    },
    {
      "anonymous": false,
      "inputs": [
        {
          "indexed": false,
          "internalType": "uint48",
          "name": "enteredAt",
          "type": "uint48"
        },
        {
          "indexed": false,
          "internalType": "uint256",
          "name": "targetChainId",
          "type": "uint256"
        },
        {
          "indexed": false,
          "internalType": "address",
          "name": "sender",
          "type": "address"
        },
        {
          "indexed": false,
          "internalType": "address",
          "name": "receiver",
          "type": "address"
        },
        {
          "indexed": false,
          "internalType": "uint256",
          "name": "amount",
          "type": "uint256"
        },
        {
          "indexed": false,
          "internalType": "uint256",
          "name": "nonce",
          "type": "uint256"
        }
      ],
      "name": "EnterBridge",
      "type": "event"
    },
    {
      "anonymous": false,
      "inputs": [
        {
          "indexed": false,
          "internalType": "uint256",
          "name": "nonce",
          "type": "uint256"
        },
        {
          "indexed": false,
          "internalType": "uint256",
          "name": "sourceChainId",
          "type": "uint256"
        },
        {
          "indexed": false,
          "internalType": "uint48",
          "name": "leftAt",
          "type": "uint48"
        }
      ],
      "name": "LeaveBridge",
      "type": "event"
    },
    {
      "anonymous": false,
      "inputs": [
        {
          "indexed": true,
          "internalType": "address",
          "name": "previousOwner",
          "type": "address"
        },
        {
          "indexed": true,
          "internalType": "address",
          "name": "newOwner",
          "type": "address"
        }
      ],
      "name": "OwnershipTransferred",
      "type": "event"
    },
    {
      "anonymous": false,
      "inputs": [
        {
          "indexed": true,
          "internalType": "address",
          "name": "from",
          "type": "address"
        },
        {
          "indexed": true,
          "internalType": "address",
          "name": "to",
          "type": "address"
        },
        {
          "indexed": false,
          "internalType": "uint256",
          "name": "value",
          "type": "uint256"
        }
      ],
      "name": "Transfer",
      "type": "event"
    },
    {
      "inputs": [
        {
          "internalType": "address",
          "name": "owner",
          "type": "address"
        },
        {
          "internalType": "address",
          "name": "spender",
          "type": "address"
        }
      ],
      "name": "allowance",
      "outputs": [
        {
          "internalType": "uint256",
          "name": "",
          "type": "uint256"
        }
      ],
      "stateMutability": "view",
      "type": "function"
    },
    {
      "inputs": [
        {
          "internalType": "address",
          "name": "spender",
          "type": "address"
        },
        {
          "internalType": "uint256",
          "name": "amount",
          "type": "uint256"
        }
      ],
      "name": "approve",
      "outputs": [
        {
          "internalType": "bool",
          "name": "",
          "type": "bool"
        }
      ],
      "stateMutability": "nonpayable",
      "type": "function"
    },
    {
      "inputs": [
        {
          "internalType": "address",
          "name": "operator",
          "type": "address"
        },
        {
          "internalType": "string",
          "name": "role",
          "type": "string"
        },
        {
          "internalType": "bool",
          "name": "authorized",
          "type": "bool"
        }
      ],
      "name": "authorize",
      "outputs": [],
      "stateMutability": "nonpayable",
      "type": "function"
    },
    {
      "inputs": [
        {
          "internalType": "address",
          "name": "account",
          "type": "address"
        }
      ],
      "name": "balanceOf",
      "outputs": [
        {
          "internalType": "uint256",
          "name": "",
          "type": "uint256"
        }
      ],
      "stateMutability": "view",
      "type": "function"
    },
    {
      "inputs": [
        {
          "internalType": "uint256",
          "name": "amount",
          "type": "uint256"
        }
      ],
      "name": "burn",
      "outputs": [],
      "stateMutability": "nonpayable",
      "type": "function"
    },
    {
      "inputs": [
        {
          "internalType": "address",
          "name": "account",
          "type": "address"
        },
        {
          "internalType": "uint256",
          "name": "amount",
          "type": "uint256"
        }
      ],
      "name": "burnFrom",
      "outputs": [],
      "stateMutability": "nonpayable",
      "type": "function"
    },
    {
      "inputs": [
        {
          "internalType": "address",
          "name": "_receiver",
          "type": "address"
        },
        {
          "internalType": "uint256",
          "name": "_amount",
          "type": "uint256"
        }
      ],
      "name": "createAirdrop",
      "outputs": [],
      "stateMutability": "nonpayable",
      "type": "function"
    },
    {
      "inputs": [
        {
          "internalType": "address[]",
          "name": "_receivers",
          "type": "address[]"
        },
        {
          "internalType": "uint256",
          "name": "_amount",
          "type": "uint256"
        }
      ],
      "name": "createAirdropBatch",
      "outputs": [],
      "stateMutability": "nonpayable",
      "type": "function"
    },
    {
      "inputs": [],
      "name": "crossChainInflationAmount",
      "outputs": [
        {
          "internalType": "uint256",
          "name": "",
          "type": "uint256"
        }
      ],
      "stateMutability": "view",
      "type": "function"
    },
    {
      "inputs": [],
      "name": "crossChainSupply",
      "outputs": [
        {
          "internalType": "uint256",
          "name": "",
          "type": "uint256"
        }
      ],
      "stateMutability": "view",
      "type": "function"
    },
    {
      "inputs": [],
      "name": "decimals",
      "outputs": [
        {
          "internalType": "uint8",
          "name": "",
          "type": "uint8"
        }
      ],
      "stateMutability": "view",
      "type": "function"
    },
    {
      "inputs": [
        {
          "internalType": "address",
          "name": "spender",
          "type": "address"
        },
        {
          "internalType": "uint256",
          "name": "subtractedValue",
          "type": "uint256"
        }
      ],
      "name": "decreaseAllowance",
      "outputs": [
        {
          "internalType": "bool",
          "name": "",
          "type": "bool"
        }
      ],
      "stateMutability": "nonpayable",
      "type": "function"
    },
    {
      "inputs": [
        {
          "internalType": "address",
          "name": "_to",
          "type": "address"
        },
        {
          "internalType": "uint256",
          "name": "_amount",
          "type": "uint256"
        }
      ],
      "name": "distribute",
      "outputs": [],
      "stateMutability": "nonpayable",
      "type": "function"
    },
    {
      "inputs": [
        {
          "internalType": "uint256",
          "name": "_targetChainId",
          "type": "uint256"
        },
        {
          "internalType": "address",
          "name": "_receiver",
          "type": "address"
        },
        {
          "internalType": "uint256",
          "name": "_amount",
          "type": "uint256"
        }
      ],
      "name": "enterBridge",
      "outputs": [],
      "stateMutability": "nonpayable",
      "type": "function"
    },
    {
      "inputs": [
        {
          "internalType": "address",
          "name": "",
          "type": "address"
        },
        {
          "internalType": "string",
          "name": "",
          "type": "string"
        }
      ],
      "name": "hasRole",
      "outputs": [
        {
          "internalType": "bool",
          "name": "",
          "type": "bool"
        }
      ],
      "stateMutability": "view",
      "type": "function"
    },
    {
      "inputs": [
        {
          "internalType": "address",
          "name": "spender",
          "type": "address"
        },
        {
          "internalType": "uint256",
          "name": "addedValue",
          "type": "uint256"
        }
      ],
      "name": "increaseAllowance",
      "outputs": [
        {
          "internalType": "bool",
          "name": "",
          "type": "bool"
        }
      ],
      "stateMutability": "nonpayable",
      "type": "function"
    },
    {
      "inputs": [
        {
          "internalType": "uint8",
          "name": "_count",
          "type": "uint8"
        },
        {
          "internalType": "uint256",
          "name": "_amount",
          "type": "uint256"
        },
        {
          "internalType": "bytes",
          "name": "_signature",
          "type": "bytes"
        }
      ],
      "name": "inflate",
      "outputs": [],
      "stateMutability": "nonpayable",
      "type": "function"
    },
    {
      "inputs": [],
      "name": "isMintChain",
      "outputs": [
        {
          "internalType": "bool",
          "name": "",
          "type": "bool"
        }
      ],
      "stateMutability": "view",
      "type": "function"
    },
    {
      "inputs": [
        {
          "internalType": "uint8",
          "name": "",
          "type": "uint8"
        }
      ],
      "name": "isProcessed",
      "outputs": [
        {
          "internalType": "bool",
          "name": "",
          "type": "bool"
        }
      ],
      "stateMutability": "view",
      "type": "function"
    },
    {
      "inputs": [],
      "name": "lastInflation",
      "outputs": [
        {
          "internalType": "uint48",
          "name": "",
          "type": "uint48"
        }
      ],
      "stateMutability": "view",
      "type": "function"
    },
    {
      "inputs": [
        {
          "internalType": "uint256",
          "name": "_sourceChainId",
          "type": "uint256"
        },
        {
          "internalType": "address",
          "name": "_receiver",
          "type": "address"
        },
        {
          "internalType": "uint256",
          "name": "_amount",
          "type": "uint256"
        },
        {
          "internalType": "uint256",
          "name": "_nonce",
          "type": "uint256"
        },
        {
          "internalType": "bytes",
          "name": "_signature",
          "type": "bytes"
        }
      ],
      "name": "leaveBridge",
      "outputs": [],
      "stateMutability": "nonpayable",
      "type": "function"
    },
    {
      "inputs": [
        {
          "internalType": "address",
          "name": "_receiver",
          "type": "address"
        },
        {
          "internalType": "uint256",
          "name": "_amount",
          "type": "uint256"
        }
      ],
      "name": "mint",
      "outputs": [],
      "stateMutability": "nonpayable",
      "type": "function"
    },
    {
      "inputs": [],
      "name": "name",
      "outputs": [
        {
          "internalType": "string",
          "name": "",
          "type": "string"
        }
      ],
      "stateMutability": "view",
      "type": "function"
    },
    {
      "inputs": [],
      "name": "owner",
      "outputs": [
        {
          "internalType": "address",
          "name": "",
          "type": "address"
        }
      ],
      "stateMutability": "view",
      "type": "function"
    },
    {
      "inputs": [],
      "name": "renounceOwnership",
      "outputs": [],
      "stateMutability": "nonpayable",
      "type": "function"
    },
    {
      "inputs": [],
      "name": "reset",
      "outputs": [],
      "stateMutability": "nonpayable",
      "type": "function"
    },
    {
      "inputs": [
        {
          "internalType": "address",
          "name": "_staking",
          "type": "address"
        }
      ],
      "name": "setStaking",
      "outputs": [],
      "stateMutability": "nonpayable",
      "type": "function"
    },
    {
      "inputs": [
        {
          "internalType": "bool",
          "name": "_testing",
          "type": "bool"
        }
      ],
      "name": "setTesting",
      "outputs": [],
      "stateMutability": "nonpayable",
      "type": "function"
    },
    {
      "inputs": [],
      "name": "staking",
      "outputs": [
        {
          "internalType": "contract ILendingPoolStaking",
          "name": "",
          "type": "address"
        }
      ],
      "stateMutability": "view",
      "type": "function"
    },
    {
      "inputs": [
        {
          "internalType": "uint256",
          "name": "",
          "type": "uint256"
        }
      ],
      "name": "supportedChainIds",
      "outputs": [
        {
          "internalType": "uint256",
          "name": "",
          "type": "uint256"
        }
      ],
      "stateMutability": "view",
      "type": "function"
    },
    {
      "inputs": [],
      "name": "symbol",
      "outputs": [
        {
          "internalType": "string",
          "name": "",
          "type": "string"
        }
      ],
      "stateMutability": "view",
      "type": "function"
    },
    {
      "inputs": [],
      "name": "testing",
      "outputs": [
        {
          "internalType": "bool",
          "name": "",
          "type": "bool"
        }
      ],
      "stateMutability": "view",
      "type": "function"
    },
    {
      "inputs": [],
      "name": "timeSlicedCrossChainSupply",
      "outputs": [
        {
          "internalType": "uint256",
          "name": "",
          "type": "uint256"
        }
      ],
      "stateMutability": "view",
      "type": "function"
    },
    {
      "inputs": [],
      "name": "totalSupply",
      "outputs": [
        {
          "internalType": "uint256",
          "name": "",
          "type": "uint256"
        }
      ],
      "stateMutability": "view",
      "type": "function"
    },
    {
      "inputs": [
        {
          "internalType": "address",
          "name": "to",
          "type": "address"
        },
        {
          "internalType": "uint256",
          "name": "amount",
          "type": "uint256"
        }
      ],
      "name": "transfer",
      "outputs": [
        {
          "internalType": "bool",
          "name": "",
          "type": "bool"
        }
      ],
      "stateMutability": "nonpayable",
      "type": "function"
    },
    {
      "inputs": [
        {
          "internalType": "address",
          "name": "from",
          "type": "address"
        },
        {
          "internalType": "address",
          "name": "to",
          "type": "address"
        },
        {
          "internalType": "uint256",
          "name": "amount",
          "type": "uint256"
        }
      ],
      "name": "transferFrom",
      "outputs": [
        {
          "internalType": "bool",
          "name": "",
          "type": "bool"
        }
      ],
      "stateMutability": "nonpayable",
      "type": "function"
    },
    {
      "inputs": [
        {
          "internalType": "address",
          "name": "newOwner",
          "type": "address"
        }
      ],
      "name": "transferOwnership",
      "outputs": [],
      "stateMutability": "nonpayable",
      "type": "function"
    },
    {
      "inputs": [
        {
          "internalType": "uint256",
          "name": "_crossChainSupply",
          "type": "uint256"
        },
        {
          "internalType": "uint256",
          "name": "_crossChainInflationAmount",
          "type": "uint256"
        }
      ],
      "name": "update",
      "outputs": [],
      "stateMutability": "nonpayable",
      "type": "function"
    }
  ],
  "transactionHash": "0xfe8031fca4a32b066683ff13d43f3da196440110057d0b8b572e244bb1924879",
  "args": [
    true,
    [
      137,
      43114
    ]
  ],
  "numDeployments": 1,
  "solcInputHash": "9f9b24330e64b4aed8e24e00b5f5786e",
  "bytecode": "0x608060405234620000ca576200293f803803806200001d81620000f6565b928339810190604081830312620000ca578051918215158303620000ca576020828101516001600160401b0393919291848211620000ca570181601f82011215620000ca578051938411620000cf575b8360051b90838062000081818501620000f6565b809781520192820101928311620000ca578301905b828210620000ba57620000aa85876200016d565b6040516120a79081620008788239f35b8151815290830190830162000096565b600080fd5b620000d9620000df565b6200006d565b50634e487b7160e01b600052604160045260246000fd5b6040519190601f01601f191682016001600160401b038111838210176200011c57604052565b62000126620000df565b604052565b60408051919082016001600160401b038111838210176200015d575b60405260048252631391539160e21b6020830152565b62000167620000df565b62000147565b90620001786200012b565b620001826200012b565b815190916001600160401b03821162000323575b620001ae82620001a8600354620004dc565b62000519565b60209081601f841160011462000287575092826200024c969593620001f69362000215966000926200027b575b50508160011b916000199060031b1c191617600355620005a1565b62000200620007bc565b6200020f600182511162000333565b620003c2565b6200022a62000224466200081c565b62000469565b6200023a60ff19600a5416600a55565b60ff8019600f54169115151617600f55565b600f5460ff166200025957565b6200026e6a084595161401484a000000600655565b6200027930620006d8565b565b015190503880620001db565b60036000529190601f1984167fc2575a0e9e593c00f959f8c92f12db2869c3395a3b0502d05e2516446f71f85b936000905b8282106200030a57505093620001f693620002159693600193836200024c9b9a9810620002f0575b505050811b01600355620005a1565b015160001960f88460031b161c19169055388080620002e1565b80600186978294978701518155019601940190620002b9565b6200032d620000df565b62000196565b156200033b57565b60405162461bcd60e51b815260206004820152602960248201527f4d7573742068617665206174206c656173742074776f2064657374696e6174696044820152686f6e20636861696e7360b81b6064820152608490fd5b50634e487b7160e01b600052601160045260246000fd5b818110620003b5575050565b60008155600101620003a9565b80519068010000000000000000821162000459575b600954826009558083106200042c575b5060096000908152906020906000805160206200291f8339815191529082015b84841062000416575050505050565b6001838282935185550192019301929062000407565b600960005262000452906000805160206200291f833981519152908101908401620003a9565b38620003e7565b62000463620000df565b620003d7565b156200047157565b60405162461bcd60e51b815260206004820152603460248201527f54686520686f7374656420636861696e206d757374206265206f6e65206f662060448201527f74686520737570706f7274656420636861696e730000000000000000000000006064820152608490fd5b90600182811c921680156200050e575b6020831014620004f857565b634e487b7160e01b600052602260045260246000fd5b91607f1691620004ec565b90601f821162000527575050565b620002799160036000526020600020906020601f840160051c8301931062000558575b601f0160051c0190620003a9565b90915081906200054a565b90601f821162000571575050565b620002799160046000526020600020906020601f840160051c830193106200055857601f0160051c0190620003a9565b80519091906001600160401b03811162000695575b620005ce81620005c8600454620004dc565b62000563565b602080601f83116001146200060d575081929360009262000601575b50508160011b916000199060031b1c191617600455565b015190503880620005ea565b6004600052601f198316949091907f8a35acfbc15ff81a39ae7d344fd709f28e8600b4aa8c65c6b64bfe7fe36bd19b926000905b8782106200067c57505083600195961062000662575b505050811b01600455565b015160001960f88460031b161c1916905538808062000657565b8060018596829496860151815501950193019062000641565b6200069f620000df565b620005b6565b6a39e7139a8c08fa06000000906a39e7139a8c08fa06000000198111620006ca570190565b620006d462000392565b0190565b6001600160a01b0316801562000777576a39e7139a8c08fa060000006002548119811162000767575b0160025580600052600060205260406000206200071f8154620006a5565b905560007fddf252ad1be2c89b69c2b068fc378daa952ba7f163c4a11628f55a4df523b3ef604051806200076281906a39e7139a8c08fa06000000602083019252565b0390a3565b6200077162000392565b62000701565b60405162461bcd60e51b815260206004820152601f60248201527f45524332303a206d696e7420746f20746865207a65726f2061646472657373006044820152606490fd5b60058054737e8ae5c72eca86946b695dcc211863d9721a09616001600160a01b0319821681179092556040516001600160a01b03909116907f8be0079c531659141344cd1fd0a4f28419497f9722a3daafe3b4186f6b6457e090600090a3565b60009060098054925b838110620008365750505050600090565b81600052828160206000200154146200086e5760019060001981146200085e575b0162000825565b6200086862000392565b62000857565b5050505060019056fe60806040526004361015610013575b600080fd5b60003560e01c8063036750221461030b57806306fdde031461030257806308ed8d16146102f9578063095ea7b3146102f05780630e1e5e70146102e757806318160ddd146102de578063217fe6c6146102d557806323b872dd146102cc5780632608ab61146102c35780632fb565e8146102ba578063313ce567146102b157806333d31cb5146102a8578063395093511461029f57806339d2525f146102965780633e533a1f1461028d57806340c10f191461028457806342966c681461027b5780634cf088d9146102725780634cf2ab321461026957806361c0cf5e146102605780636eccc7671461025757806370a082311461024e578063715018a61461024557806379cc67901461023c5780637fb5d58e14610233578063873c59a51461022a5780638d03b102146102215780638da5cb5b146102185780638ff390991461020f57806395d89b41146102065780639f64f2d8146101fd578063a457c2d7146101f4578063a9059cbb146101eb578063d826f88f146101e2578063dd62ed3e146101d9578063e15841b5146101d0578063f2fde38b146101c75763fb932108146101bf57600080fd5b61000e611277565b5061000e6111ad565b5061000e61115d565b5061000e6110ff565b5061000e6110b4565b5061000e61108d565b5061000e610fd1565b5061000e610f82565b5061000e610ebe565b5061000e610e4a565b5061000e610e22565b5061000e610dfe565b5061000e610ddf565b5061000e610dbb565b5061000e610d8a565b5061000e610d2a565b5061000e610cef565b5061000e610c4b565b5061000e610ad4565b5061000e610a82565b5061000e610a57565b5061000e610a39565b5061000e610991565b5061000e610957565b5061000e6108aa565b5061000e610850565b5061000e610826565b5061000e610809565b5061000e6107e1565b5061000e6107bd565b5061000e610784565b5061000e6106f9565b5061000e6105e3565b5061000e6105c4565b5061000e610592565b5061000e610556565b5061000e61044e565b5061000e610354565b600435906001600160a01b038216820361000e57565b602435906001600160a01b038216820361000e57565b35906001600160a01b038216820361000e57565b503461000e57604036600319011261000e5761036e610314565b7f69e4f3213b628a2b80dab9e90ea182bebd29bc7279115728fbea918fa067d3e760206001600160a01b03602435936103a56117d7565b846006548181106103b68115611e45565b6103d5575b036006556103ca858230611388565b6040519485521692a2005b6103dd6112a6565b6103bb565b600091031261000e57565b918091926000905b82821061040d575011610406575050565b6000910152565b915080602091830151818601520182916103f5565b6040916020825261044281518092816020860152602086860191016103ed565b601f01601f1916010190565b503461000e576000806003193601126105535760405190806003549060019180831c92808216928315610549575b602092838610851461053557858852602088019490811561051957506001146104c0575b6104bc876104b081890382610672565b60405191829182610422565b0390f35b600360005294509192917fc2575a0e9e593c00f959f8c92f12db2869c3395a3b0502d05e2516446f71f85b5b83861061050857505050910190506104b0826104bc38806104a0565b8054858701529482019481016104ec565b60ff191685525050500191506104b09050826104bc38806104a0565b634e487b7160e01b82526022600452602482fd5b93607f169361047c565b80fd5b503461000e57602036600319011261000e5760043580151580910361000e5761057d6117d7565b60ff8019600a5416911617600a556000604051f35b503461000e57604036600319011261000e576105b96105af610314565b60243590336114ac565b602060405160018152f35b503461000e57600036600319011261000e576020600d54604051908152f35b503461000e57600036600319011261000e576020600254604051908152f35b50634e487b7160e01b600052604160045260246000fd5b67ffffffffffffffff811161062d57604052565b610635610602565b604052565b6040810190811067ffffffffffffffff82111761062d57604052565b60a0810190811067ffffffffffffffff82111761062d57604052565b90601f8019910116810190811067ffffffffffffffff82111761062d57604052565b81601f8201121561000e5780359067ffffffffffffffff82116106ec575b604051926106ca601f8401601f191660200185610672565b8284526020838301011161000e57816000926020809301838601378301015290565b6106f4610602565b6106b2565b503461000e57604036600319011261000e57610713610314565b60243567ffffffffffffffff811161000e5761076760206104bc936001600160a01b0361074660ff953690600401610694565b9116600052600e8252604060002082604051948386809551938492016103ed565b820190815203019020546040519116151581529081906020820190565b503461000e57606036600319011261000e576105b96107a1610314565b6107a961032a565b604435916107b88333836115d9565b611388565b503461000e57600036600319011261000e57602060ff600f54166040519015158152f35b503461000e57604036600319011261000e576107fb6117d7565b600435600c55602435600d55005b503461000e57600036600319011261000e57602060405160128152f35b503461000e57600036600319011261000e57602065ffffffffffff600a5460081c16604051908152f35b503461000e57604036600319011261000e576105b961086d610314565b3360005260016020526108a360243561089d836040600020906001600160a01b0316600052602052604060002090565b546112bd565b90336114ac565b503461000e57606036600319011261000e576108c4610314565b60243567ffffffffffffffff811161000e576108e4903690600401610694565b60443590811515820361000e57602061092b916001600160a01b036109459561090b6117d7565b16600052600e8252604060002082604051948386809551938492016103ed565b8201908152030190209060ff801983541691151516179055565b005b6004359060ff8216820361000e57565b503461000e57602036600319011261000e5760ff610973610947565b16600052600b602052602060ff604060002054166040519015158152f35b503461000e57604036600319011261000e576109456109ae610314565b6109ee6040516109bd8161063a565b60068152602081016536b4b73a32b960d11b81526001600160a01b036005541633149182156109f7575b5050611df9565b602435906119ff565b610a329250610a229160209133600052600e83526040600020906040519485938492519283916103ed565b8201908152030190205460ff1690565b38806109e7565b503461000e57602036600319011261000e5761094560043533611695565b503461000e57600036600319011261000e5760206001600160a01b03600a5460381c16604051908152f35b503461000e57602036600319011261000e5760043560095481101561000e5760209060096000527f6e1540171b6c0c960b71a7020d9f60077f6af931a8bbf590da0223dacf75c7af0154604051908152f35b503461000e57606036600319011261000e57600435610af161032a565b60443591610afe81611abd565b80610c41575b15610bfc578215610bb757610bb27f03e3807b3a9878d6a3f82fb311f5785f5c7160b382b89fe8fc43c31bda6d066e93336000526000602052610b4d816040600020541161182f565b610b578133611695565b60085490610b6c610b678361187b565b600855565b604080514265ffffffffffff168152602081019590955233908501526001600160a01b039094166060840152608083019390935260a082019290925290819060c0820190565b0390a1005b60405162461bcd60e51b815260206004820152600e60248201527f496e76616c696420616d6f756e740000000000000000000000000000000000006044820152606490fd5b60405162461bcd60e51b815260206004820152601960248201527f496e76616c69642064657374696e6174696f6e20636861696e000000000000006044820152606490fd5b5080461415610b04565b503461000e57604036600319011261000e5767ffffffffffffffff60043581811161000e573660238201121561000e578060040135918211610ce2575b8160051b9060405191602093610ca085830185610672565b83526024848401918301019136831161000e57602401905b828210610ccb5761094560243585611e91565b848091610cd784610340565b815201910190610cb8565b610cea610602565b610c88565b503461000e57602036600319011261000e576001600160a01b03610d11610314565b1660005260006020526020604060002054604051908152f35b503461000e5760008060031936011261055357610d456117d7565b6005546001600160a01b03198116600555816001600160a01b0360405192167f8be0079c531659141344cd1fd0a4f28419497f9722a3daafe3b4186f6b6457e08284a3f35b503461000e57604036600319011261000e57610945610da7610314565b60243590610db68233836115d9565b611695565b503461000e57600036600319011261000e576020610dd7611fb6565b604051908152f35b503461000e57600036600319011261000e576020600c54604051908152f35b503461000e57600036600319011261000e57602060ff600a54166040519015158152f35b503461000e57600036600319011261000e5760206001600160a01b0360055416604051908152f35b503461000e57602036600319011261000e57610e64610314565b610e6c6117d7565b7fffffffffff0000000000000000000000000000000000000000ffffffffffffff7affffffffffffffffffffffffffffffffffffffff00000000000000600a549260381b16911617600a556000604051f35b503461000e576000806003193601126105535760405190806004549060019180831c92808216928315610f78575b60209283861085146105355785885260208801949081156105195750600114610f1f576104bc876104b081890382610672565b600460005294509192917f8a35acfbc15ff81a39ae7d344fd709f28e8600b4aa8c65c6b64bfe7fe36bd19b5b838610610f6757505050910190506104b0826104bc38806104a0565b805485870152948201948101610f4b565b93607f1693610eec565b503461000e5760a036600319011261000e57610f9c61032a565b6084359067ffffffffffffffff821161000e57610fc0610945923690600401610694565b9060643590604435906004356118d7565b503461000e57604036600319011261000e57610feb610314565b60243590336000526001602052611019816040600020906001600160a01b0316600052602052604060002090565b549180831061103a5761102e920390336114ac565b60405160018152602090f35b60405162461bcd60e51b815260206004820152602560248201527f45524332303a2064656372656173656420616c6c6f77616e63652062656c6f77604482015264207a65726f60d81b6064820152608490fd5b503461000e57604036600319011261000e576105b96110aa610314565b6024359033611388565b503461000e57600080600319360112610553576110cf6117d7565b805b60ff908116808352600b60205260408320805460ff191690559081146110f9576001016110d1565b50604051f35b503461000e57604036600319011261000e57602061115461111e610314565b6001600160a01b0361112e61032a565b9116600052600183526040600020906001600160a01b0316600052602052604060002090565b54604051908152f35b503461000e57606036600319011261000e57611177610947565b6044359067ffffffffffffffff821161000e5761119b610945923690600401610694565b906111a46117d7565b60243590611c87565b503461000e57602036600319011261000e576111c7610314565b6111cf6117d7565b6001600160a01b038091169081156112235760009160055491816001600160a01b031984161760055560405192167f8be0079c531659141344cd1fd0a4f28419497f9722a3daafe3b4186f6b6457e08484a3f35b60405162461bcd60e51b815260206004820152602660248201527f4f776e61626c653a206e6577206f776e657220697320746865207a65726f206160448201526564647265737360d01b6064820152608490fd5b503461000e57604036600319011261000e57610945611294610314565b61129c6117d7565b6024359030611388565b50634e487b7160e01b600052601160045260246000fd5b811981116112c9570190565b6112d16112a6565b0190565b156112dc57565b60405162461bcd60e51b815260206004820152602360248201527f45524332303a207472616e7366657220746f20746865207a65726f206164647260448201526265737360e81b6064820152608490fd5b1561133457565b60405162461bcd60e51b815260206004820152602660248201527f45524332303a207472616e7366657220616d6f756e7420657863656564732062604482015265616c616e636560d01b6064820152608490fd5b91906001600160a01b039081841692831561145957611437827fddf252ad1be2c89b69c2b068fc378daa952ba7f163c4a11628f55a4df523b3ef946114549416966113d48815156112d5565b61141d846113f5836001600160a01b03166000526000602052604060002090565b546114028282101561132d565b03916001600160a01b03166000526000602052604060002090565b556001600160a01b03166000526000602052604060002090565b6114428282546112bd565b90556040519081529081906020820190565b0390a3565b60405162461bcd60e51b815260206004820152602560248201527f45524332303a207472616e736665722066726f6d20746865207a65726f206164604482015264647265737360d81b6064820152608490fd5b906001600160a01b039182811692831561158857821693841561153857806115277f8c5be1e5ebec7d5bd14f71427d1e84f3dd0314c0f7b2291e5b200ac8c7c3b9259461150f611454956001600160a01b03166000526001602052604060002090565b906001600160a01b0316600052602052604060002090565b556040519081529081906020820190565b60405162461bcd60e51b815260206004820152602260248201527f45524332303a20617070726f766520746f20746865207a65726f206164647265604482015261737360f01b6064820152608490fd5b60405162461bcd60e51b8152602060048201526024808201527f45524332303a20617070726f76652066726f6d20746865207a65726f206164646044820152637265737360e01b6064820152608490fd5b906001600160a01b038216600052600160205261160d816040600020906001600160a01b0316600052602052604060002090565b54926001840161161e575b50505050565b808410611639576116309303916114ac565b38808080611618565b60405162461bcd60e51b815260206004820152601d60248201527f45524332303a20696e73756666696369656e7420616c6c6f77616e63650000006044820152606490fd5b818110611689570390565b6116916112a6565b0390565b6001600160a01b038116908115611788576116c3816001600160a01b03166000526000602052604060002090565b5483811061173857837fddf252ad1be2c89b69c2b068fc378daa952ba7f163c4a11628f55a4df523b3ef926117136000966114549403916001600160a01b03166000526000602052604060002090565b556117286117238260025461167e565b600255565b6040519081529081906020820190565b60405162461bcd60e51b815260206004820152602260248201527f45524332303a206275726e20616d6f756e7420657863656564732062616c616e604482015261636560f01b6064820152608490fd5b60405162461bcd60e51b815260206004820152602160248201527f45524332303a206275726e2066726f6d20746865207a65726f206164647265736044820152607360f81b6064820152608490fd5b6001600160a01b036005541633036117eb57565b606460405162461bcd60e51b815260206004820152602060248201527f4f776e61626c653a2063616c6c6572206973206e6f7420746865206f776e65726044820152fd5b1561183657565b60405162461bcd60e51b815260206004820152601460248201527f496e73756666696369656e742062616c616e63650000000000000000000000006044820152606490fd5b60019060001981146112c9570190565b1561189257565b60405162461bcd60e51b815260206004820152601160248201527f496e76616c6964207369676e61747572650000000000000000000000000000006044820152606490fd5b91936119246119559160405160208101908682526bffffffffffffffffffffffff198660601b1660408201528860548201528760748201526074815261191c81610656565b519020611b46565b6001600160a01b0361194d6119416005546001600160a01b031690565b6001600160a01b031690565b91161461188b565b61198661197f84611970856000526007602052604060002090565b90600052602052604060002090565b5460ff1690565b611618577f1aab301e8c9017b1d984dad0933c71fa7c467adbdf37196a9510d62045d84ece936119dd916119d86119cb86611970876000526007602052604060002090565b805460ff19166001179055565b6119ff565b60408051928352602083019190915265ffffffffffff421690820152606090a1565b6001600160a01b038116918215611a7857602081611a62600094611a467fddf252ad1be2c89b69c2b068fc378daa952ba7f163c4a11628f55a4df523b3ef956002546112bd565b6002556001600160a01b03166000526000602052604060002090565b611a6d8282546112bd565b9055604051908152a3565b60405162461bcd60e51b815260206004820152601f60248201527f45524332303a206d696e7420746f20746865207a65726f2061646472657373006044820152606490fd5b600090819060098054925b838110611ad6575050505090565b81855282817f6e1540171b6c0c960b71a7020d9f60077f6af931a8bbf590da0223dacf75c7af015414611b1157611b0c9061187b565b611ac8565b5050505050600190565b6020929190611b318492828151948592016103ed565b019081520190565b506040513d6000823e3d90fd5b600090602092838101519060ff604160408301519201511692601b8410611c13575b90611bf191611bb9611bc760405192611b808461063a565b601c84527f19457468657265756d205369676e6564204d6573736167653a0a3332000000008a8501526040519283918b83019586611b1b565b03601f198101835282610672565b51902092604051948594859094939260ff6060936080840197845216602083015260408201520152565b838052039060015afa15611c06575b60005190565b611c0e611b39565b611c00565b9290601b8260e4611bf19411611c2e575b0193909150611b68565b611c366112a6565b611c24565b15611c4257565b60405162461bcd60e51b815260206004820152600f60248201527f5374616b696e67206e6f742073657400000000000000000000000000000000006044820152606490fd5b9190916001600160a01b0390611cb882611cb0611941600a546001600160a01b039060381c1690565b161515611c3b565b611cd261197f8260ff16600052600b602052604060002090565b61161857611d479281611cf86119cb611d3f9460ff16600052600b602052604060002090565b60405160f89190911b7fff000000000000000000000000000000000000000000000000000000000000001660208201908152602182018790529061191c8160418101611bb9565b16331461188b565b611d64816119d8611941600a546001600160a01b039060381c1690565b600a54611d7c9060381c6001600160a01b0316611941565b803b1561000e57604051631ef0ae0960e11b815260048101929092526000908290602490829084905af18015611dec575b611dd3575b50600a805466ffffffffffff0019164260081b66ffffffffffff0016179055565b80611de0611de692610619565b806103e2565b38611db2565b611df4611b39565b611dad565b15611e0057565b60405162461bcd60e51b815260206004820152600e60248201527f4e6f7420617574686f72697a65640000000000000000000000000000000000006044820152606490fd5b15611e4c57565b60405162461bcd60e51b815260206004820152601860248201527f4e6f7420656e6f7567682061697264726f702066756e647300000000000000006044820152606490fd5b9190611e9b6117d7565b600654611eb3611eac838651611f4d565b8211611e45565b611ebe828551611f4d565b90818110611f40575b0360065560005b8351811015611f3a57611f35906001600160a01b03611efa8482611ef2858a611f6c565b511630611388565b611f048287611f6c565b51167f69e4f3213b628a2b80dab9e90ea182bebd29bc7279115728fbea918fa067d3e76020604051868152a261187b565b611ece565b50509050565b611f486112a6565b611ec7565b8060001904821181151516611f60570290565b611f686112a6565b0290565b8051821015611f805760209160051b010190565b634e487b7160e01b600052603260045260246000fd5b8115611fa0570490565b634e487b7160e01b600052601260045260246000fd5b600a5465ffffffffffff8160081c1680156120695761200c6120369282421061205c575b60ff834203916127109483600019048611904214151661204f575b1615612041578262ffffff6102585b169102611f96565b90808211612039575b50612030612028600c5492600d54611f4d565b612710900490565b906112bd565b90565b905038612015565b8262ffffff62093a80612004565b6120576112a6565b611ff5565b6120646112a6565b611fda565b5050600c549056fea2646970667358221220e4147d1928d6e498d45a137f87bf2225cf08bcf9e1ce79212c8b39e43902759a64736f6c634300080e00336e1540171b6c0c960b71a7020d9f60077f6af931a8bbf590da0223dacf75c7af",
  "devdoc": {
    "kind": "dev",
    "methods": {
      "allowance(address,address)": {
        "details": "See {IERC20-allowance}."
      },
      "approve(address,uint256)": {
        "details": "See {IERC20-approve}. NOTE: If `amount` is the maximum `uint256`, the allowance is not updated on `transferFrom`. This is semantically equivalent to an infinite approval. Requirements: - `spender` cannot be the zero address."
      },
      "balanceOf(address)": {
        "details": "See {IERC20-balanceOf}."
      },
      "burn(uint256)": {
        "details": "Destroys `amount` tokens from the caller. See {ERC20-_burn}."
      },
      "burnFrom(address,uint256)": {
        "details": "Destroys `amount` tokens from `account`, deducting from the caller's allowance. See {ERC20-_burn} and {ERC20-allowance}. Requirements: - the caller must have allowance for ``accounts``'s tokens of at least `amount`."
      },
      "decimals()": {
        "details": "Returns the number of decimals used to get its user representation. For example, if `decimals` equals `2`, a balance of `505` tokens should be displayed to a user as `5.05` (`505 / 10 ** 2`). Tokens usually opt for a value of 18, imitating the relationship between Ether and Wei. This is the value {ERC20} uses, unless this function is overridden; NOTE: This information is only used for _display_ purposes: it in no way affects any of the arithmetic of the contract, including {IERC20-balanceOf} and {IERC20-transfer}."
      },
      "decreaseAllowance(address,uint256)": {
        "details": "Atomically decreases the allowance granted to `spender` by the caller. This is an alternative to {approve} that can be used as a mitigation for problems described in {IERC20-approve}. Emits an {Approval} event indicating the updated allowance. Requirements: - `spender` cannot be the zero address. - `spender` must have allowance for the caller of at least `subtractedValue`."
      },
      "increaseAllowance(address,uint256)": {
        "details": "Atomically increases the allowance granted to `spender` by the caller. This is an alternative to {approve} that can be used as a mitigation for problems described in {IERC20-approve}. Emits an {Approval} event indicating the updated allowance. Requirements: - `spender` cannot be the zero address."
      },
      "name()": {
        "details": "Returns the name of the token."
      },
      "owner()": {
        "details": "Returns the address of the current owner."
      },
      "renounceOwnership()": {
        "details": "Leaves the contract without owner. It will not be possible to call `onlyOwner` functions anymore. Can only be called by the current owner. NOTE: Renouncing ownership will leave the contract without an owner, thereby removing any functionality that is only available to the owner."
      },
      "symbol()": {
        "details": "Returns the symbol of the token, usually a shorter version of the name."
      },
      "totalSupply()": {
        "details": "See {IERC20-totalSupply}."
      },
      "transfer(address,uint256)": {
        "details": "See {IERC20-transfer}. Requirements: - `to` cannot be the zero address. - the caller must have a balance of at least `amount`."
      },
      "transferFrom(address,address,uint256)": {
        "details": "See {IERC20-transferFrom}. Emits an {Approval} event indicating the updated allowance. This is not required by the EIP. See the note at the beginning of {ERC20}. NOTE: Does not update the allowance if the current allowance is the maximum `uint256`. Requirements: - `from` and `to` cannot be the zero address. - `from` must have a balance of at least `amount`. - the caller must have allowance for ``from``'s tokens of at least `amount`."
      },
      "transferOwnership(address)": {
        "details": "Transfers ownership of the contract to a new account (`newOwner`). Can only be called by the current owner."
      }
    },
    "version": 1
  },
  "userdoc": {
    "kind": "user",
    "methods": {},
    "version": 1
  },
  "storageLayout": {
    "storage": [
      {
        "astId": 4174,
        "contract": "contracts/token/ERC20/NEND.sol:NEND",
        "label": "_balances",
        "offset": 0,
        "slot": "0",
        "type": "t_mapping(t_address,t_uint256)"
      },
      {
        "astId": 4180,
        "contract": "contracts/token/ERC20/NEND.sol:NEND",
        "label": "_allowances",
        "offset": 0,
        "slot": "1",
        "type": "t_mapping(t_address,t_mapping(t_address,t_uint256))"
      },
      {
        "astId": 4182,
        "contract": "contracts/token/ERC20/NEND.sol:NEND",
        "label": "_totalSupply",
        "offset": 0,
        "slot": "2",
        "type": "t_uint256"
      },
      {
        "astId": 4184,
        "contract": "contracts/token/ERC20/NEND.sol:NEND",
        "label": "_name",
        "offset": 0,
        "slot": "3",
        "type": "t_string_storage"
      },
      {
        "astId": 4186,
        "contract": "contracts/token/ERC20/NEND.sol:NEND",
        "label": "_symbol",
        "offset": 0,
        "slot": "4",
        "type": "t_string_storage"
      },
      {
        "astId": 8424,
        "contract": "contracts/token/ERC20/NEND.sol:NEND",
        "label": "_owner",
        "offset": 0,
        "slot": "5",
        "type": "t_address"
      },
      {
        "astId": 26492,
        "contract": "contracts/token/ERC20/NEND.sol:NEND",
        "label": "airdrop",
        "offset": 0,
        "slot": "6",
        "type": "t_uint256"
      },
      {
        "astId": 10291,
        "contract": "contracts/token/ERC20/NEND.sol:NEND",
        "label": "chainNonceToExecutedMapping",
        "offset": 0,
        "slot": "7",
        "type": "t_mapping(t_uint256,t_mapping(t_uint256,t_bool))"
      },
      {
        "astId": 10293,
        "contract": "contracts/token/ERC20/NEND.sol:NEND",
        "label": "nonce",
        "offset": 0,
        "slot": "8",
        "type": "t_uint256"
      },
      {
        "astId": 10296,
        "contract": "contracts/token/ERC20/NEND.sol:NEND",
        "label": "supportedChainIds",
        "offset": 0,
        "slot": "9",
        "type": "t_array(t_uint256)dyn_storage"
      },
      {
        "astId": 26378,
        "contract": "contracts/token/ERC20/NEND.sol:NEND",
        "label": "testing",
        "offset": 0,
        "slot": "10",
        "type": "t_bool"
      },
      {
        "astId": 11162,
        "contract": "contracts/token/ERC20/NEND.sol:NEND",
        "label": "lastInflation",
        "offset": 1,
        "slot": "10",
        "type": "t_uint48"
      },
      {
        "astId": 11165,
        "contract": "contracts/token/ERC20/NEND.sol:NEND",
        "label": "staking",
        "offset": 7,
        "slot": "10",
        "type": "t_contract(ILendingPoolStaking)26118"
      },
      {
        "astId": 11169,
        "contract": "contracts/token/ERC20/NEND.sol:NEND",
        "label": "isProcessed",
        "offset": 0,
        "slot": "11",
        "type": "t_mapping(t_uint8,t_bool)"
      },
      {
        "astId": 26601,
        "contract": "contracts/token/ERC20/NEND.sol:NEND",
        "label": "crossChainSupply",
        "offset": 0,
        "slot": "12",
        "type": "t_uint256"
      },
      {
        "astId": 26603,
        "contract": "contracts/token/ERC20/NEND.sol:NEND",
        "label": "crossChainInflationAmount",
        "offset": 0,
        "slot": "13",
        "type": "t_uint256"
      },
      {
        "astId": 8539,
        "contract": "contracts/token/ERC20/NEND.sol:NEND",
        "label": "hasRole",
        "offset": 0,
        "slot": "14",
        "type": "t_mapping(t_address,t_mapping(t_string_memory_ptr,t_bool))"
      },
      {
        "astId": 26411,
        "contract": "contracts/token/ERC20/NEND.sol:NEND",
        "label": "isMintChain",
        "offset": 0,
        "slot": "15",
        "type": "t_bool"
      }
    ],
    "types": {
      "t_address": {
        "encoding": "inplace",
        "label": "address",
        "numberOfBytes": "20"
      },
      "t_array(t_uint256)dyn_storage": {
        "base": "t_uint256",
        "encoding": "dynamic_array",
        "label": "uint256[]",
        "numberOfBytes": "32"
      },
      "t_bool": {
        "encoding": "inplace",
        "label": "bool",
        "numberOfBytes": "1"
      },
      "t_contract(ILendingPoolStaking)26118": {
        "encoding": "inplace",
        "label": "contract ILendingPoolStaking",
        "numberOfBytes": "20"
      },
      "t_mapping(t_address,t_mapping(t_address,t_uint256))": {
        "encoding": "mapping",
        "key": "t_address",
        "label": "mapping(address => mapping(address => uint256))",
        "numberOfBytes": "32",
        "value": "t_mapping(t_address,t_uint256)"
      },
      "t_mapping(t_address,t_mapping(t_string_memory_ptr,t_bool))": {
        "encoding": "mapping",
        "key": "t_address",
        "label": "mapping(address => mapping(string => bool))",
        "numberOfBytes": "32",
        "value": "t_mapping(t_string_memory_ptr,t_bool)"
      },
      "t_mapping(t_address,t_uint256)": {
        "encoding": "mapping",
        "key": "t_address",
        "label": "mapping(address => uint256)",
        "numberOfBytes": "32",
        "value": "t_uint256"
      },
      "t_mapping(t_string_memory_ptr,t_bool)": {
        "encoding": "mapping",
        "key": "t_string_memory_ptr",
        "label": "mapping(string => bool)",
        "numberOfBytes": "32",
        "value": "t_bool"
      },
      "t_mapping(t_uint256,t_bool)": {
        "encoding": "mapping",
        "key": "t_uint256",
        "label": "mapping(uint256 => bool)",
        "numberOfBytes": "32",
        "value": "t_bool"
      },
      "t_mapping(t_uint256,t_mapping(t_uint256,t_bool))": {
        "encoding": "mapping",
        "key": "t_uint256",
        "label": "mapping(uint256 => mapping(uint256 => bool))",
        "numberOfBytes": "32",
        "value": "t_mapping(t_uint256,t_bool)"
      },
      "t_mapping(t_uint8,t_bool)": {
        "encoding": "mapping",
        "key": "t_uint8",
        "label": "mapping(uint8 => bool)",
        "numberOfBytes": "32",
        "value": "t_bool"
      },
      "t_string_memory_ptr": {
        "encoding": "bytes",
        "label": "string",
        "numberOfBytes": "32"
      },
      "t_string_storage": {
        "encoding": "bytes",
        "label": "string",
        "numberOfBytes": "32"
      },
      "t_uint256": {
        "encoding": "inplace",
        "label": "uint256",
        "numberOfBytes": "32"
      },
      "t_uint48": {
        "encoding": "inplace",
        "label": "uint48",
        "numberOfBytes": "6"
      },
      "t_uint8": {
        "encoding": "inplace",
        "label": "uint8",
        "numberOfBytes": "1"
      }
    }
  }
}