{
  "address": "0xb345a53643CaF6EeF284B4b3127Df3FF14E8ec56",
  "abi": [
    {
      "inputs": [
        {
          "internalType": "contract Vault",
          "name": "_rewardPool",
          "type": "address"
        },
        {
          "internalType": "contract NEND",
          "name": "_rewardToken",
          "type": "address"
        },
        {
          "internalType": "address[4]",
          "name": "_vpcAddresses",
          "type": "address[4]"
        }
      ],
      "stateMutability": "nonpayable",
      "type": "constructor"
    },
    {
      "anonymous": false,
      "inputs": [
        {
          "indexed": false,
          "internalType": "bytes32",
          "name": "curationHash",
          "type": "bytes32"
        },
        {
          "indexed": false,
          "internalType": "address[]",
          "name": "votersRedeemableCard",
          "type": "address[]"
        },
        {
          "indexed": false,
          "internalType": "address[]",
          "name": "votersRewarded",
          "type": "address[]"
        },
        {
          "indexed": false,
          "internalType": "uint256[]",
          "name": "rewards",
          "type": "uint256[]"
        }
      ],
      "name": "CurationEnded",
      "type": "event"
    },
    {
      "anonymous": false,
      "inputs": [
        {
          "indexed": true,
          "internalType": "address",
          "name": "previousOwner",
          "type": "address"
        },
        {
          "indexed": true,
          "internalType": "address",
          "name": "newOwner",
          "type": "address"
        }
      ],
      "name": "OwnershipTransferred",
      "type": "event"
    },
    {
      "anonymous": false,
      "inputs": [
        {
          "indexed": false,
          "internalType": "bytes32",
          "name": "curationHash",
          "type": "bytes32"
        },
        {
          "indexed": false,
          "internalType": "address",
          "name": "voter",
          "type": "address"
        }
      ],
      "name": "VPCRedeemed",
      "type": "event"
    },
    {
      "anonymous": false,
      "inputs": [
        {
          "indexed": false,
          "internalType": "bool",
          "name": "accept",
          "type": "bool"
        },
        {
          "indexed": false,
          "internalType": "bool",
          "name": "bet",
          "type": "bool"
        },
        {
          "indexed": false,
          "internalType": "bool",
          "name": "leverageLending",
          "type": "bool"
        },
        {
          "indexed": false,
          "internalType": "uint8",
          "name": "loanAmount",
          "type": "uint8"
        },
        {
          "indexed": false,
          "internalType": "uint8",
          "name": "duration",
          "type": "uint8"
        },
        {
          "indexed": false,
          "internalType": "uint8",
          "name": "apr",
          "type": "uint8"
        },
        {
          "indexed": false,
          "internalType": "uint8",
          "name": "cardLevel",
          "type": "uint8"
        },
        {
          "indexed": false,
          "internalType": "uint256",
          "name": "cardId",
          "type": "uint256"
        },
        {
          "indexed": false,
          "internalType": "uint48",
          "name": "voteTime",
          "type": "uint48"
        },
        {
          "indexed": false,
          "internalType": "bytes32",
          "name": "curationHash",
          "type": "bytes32"
        },
        {
          "indexed": false,
          "internalType": "address",
          "name": "voter",
          "type": "address"
        }
      ],
      "name": "VoteCasted",
      "type": "event"
    },
    {
      "inputs": [
        {
          "internalType": "bool",
          "name": "_accept",
          "type": "bool"
        },
        {
          "internalType": "bool",
          "name": "_bet",
          "type": "bool"
        },
        {
          "internalType": "bool",
          "name": "_leverageLending",
          "type": "bool"
        },
        {
          "internalType": "uint8",
          "name": "_loanAmount",
          "type": "uint8"
        },
        {
          "internalType": "uint8",
          "name": "_duration",
          "type": "uint8"
        },
        {
          "internalType": "uint8",
          "name": "_apr",
          "type": "uint8"
        },
        {
          "internalType": "uint8",
          "name": "_cardLevel",
          "type": "uint8"
        },
        {
          "internalType": "uint256",
          "name": "_cardId",
          "type": "uint256"
        },
        {
          "internalType": "uint48",
          "name": "_curationEnd",
          "type": "uint48"
        },
        {
          "internalType": "bytes32",
          "name": "_curationHash",
          "type": "bytes32"
        },
        {
          "internalType": "bytes",
          "name": "_signature",
          "type": "bytes"
        }
      ],
      "name": "castVote",
      "outputs": [],
      "stateMutability": "nonpayable",
      "type": "function"
    },
    {
      "inputs": [
        {
          "internalType": "bytes32",
          "name": "",
          "type": "bytes32"
        }
      ],
      "name": "curationHashToEndTime",
      "outputs": [
        {
          "internalType": "uint48",
          "name": "",
          "type": "uint48"
        }
      ],
      "stateMutability": "view",
      "type": "function"
    },
    {
      "inputs": [
        {
          "internalType": "bytes32",
          "name": "",
          "type": "bytes32"
        }
      ],
      "name": "curationHashToEnded",
      "outputs": [
        {
          "internalType": "bool",
          "name": "",
          "type": "bool"
        }
      ],
      "stateMutability": "view",
      "type": "function"
    },
    {
      "inputs": [
        {
          "components": [
            {
              "internalType": "bytes32",
              "name": "curationHash",
              "type": "bytes32"
            },
            {
              "internalType": "bool",
              "name": "rejected",
              "type": "bool"
            },
            {
              "internalType": "uint8",
              "name": "winningOption",
              "type": "uint8"
            },
            {
              "internalType": "uint256",
              "name": "totalRewards",
              "type": "uint256"
            },
            {
              "internalType": "uint256",
              "name": "winningPower",
              "type": "uint256"
            }
          ],
          "internalType": "struct ICuration.EndCurationArgs",
          "name": "args",
          "type": "tuple"
        }
      ],
      "name": "endCuration",
      "outputs": [],
      "stateMutability": "nonpayable",
      "type": "function"
    },
    {
      "inputs": [
        {
          "internalType": "bytes32",
          "name": "_curationHash",
          "type": "bytes32"
        }
      ],
      "name": "getVoteCount",
      "outputs": [
        {
          "internalType": "uint256",
          "name": "",
          "type": "uint256"
        }
      ],
      "stateMutability": "view",
      "type": "function"
    },
    {
      "inputs": [],
      "name": "nend",
      "outputs": [
        {
          "internalType": "contract NEND",
          "name": "",
          "type": "address"
        }
      ],
      "stateMutability": "view",
      "type": "function"
    },
    {
      "inputs": [],
      "name": "owner",
      "outputs": [
        {
          "internalType": "address",
          "name": "",
          "type": "address"
        }
      ],
      "stateMutability": "view",
      "type": "function"
    },
    {
      "inputs": [
        {
          "internalType": "bytes32",
          "name": "_curationHash",
          "type": "bytes32"
        }
      ],
      "name": "redeemVpc",
      "outputs": [],
      "stateMutability": "nonpayable",
      "type": "function"
    },
    {
      "inputs": [],
      "name": "renounceOwnership",
      "outputs": [],
      "stateMutability": "nonpayable",
      "type": "function"
    },
    {
      "inputs": [],
      "name": "rewardPool",
      "outputs": [
        {
          "internalType": "contract Vault",
          "name": "",
          "type": "address"
        }
      ],
      "stateMutability": "view",
      "type": "function"
    },
    {
      "inputs": [
        {
          "internalType": "contract NEND",
          "name": "_nend",
          "type": "address"
        }
      ],
      "name": "setNend",
      "outputs": [],
      "stateMutability": "nonpayable",
      "type": "function"
    },
    {
      "inputs": [
        {
          "internalType": "contract Vault",
          "name": "_rewardPool",
          "type": "address"
        }
      ],
      "name": "setRewardPool",
      "outputs": [],
      "stateMutability": "nonpayable",
      "type": "function"
    },
    {
      "inputs": [
        {
          "internalType": "uint8",
          "name": "_level",
          "type": "uint8"
        },
        {
          "internalType": "address",
          "name": "_address",
          "type": "address"
        }
      ],
      "name": "setVPCAddress",
      "outputs": [],
      "stateMutability": "nonpayable",
      "type": "function"
    },
    {
      "inputs": [
        {
          "internalType": "address[4]",
          "name": "_addresses",
          "type": "address[4]"
        }
      ],
      "name": "setVPCAddresses",
      "outputs": [],
      "stateMutability": "nonpayable",
      "type": "function"
    },
    {
      "inputs": [
        {
          "internalType": "address",
          "name": "newOwner",
          "type": "address"
        }
      ],
      "name": "transferOwnership",
      "outputs": [],
      "stateMutability": "nonpayable",
      "type": "function"
    },
    {
      "inputs": [
        {
          "internalType": "bytes32",
          "name": "",
          "type": "bytes32"
        },
        {
          "internalType": "uint256",
          "name": "",
          "type": "uint256"
        }
      ],
      "name": "votes",
      "outputs": [
        {
          "internalType": "bool",
          "name": "accept",
          "type": "bool"
        },
        {
          "internalType": "bool",
          "name": "bet",
          "type": "bool"
        },
        {
          "internalType": "bool",
          "name": "leverageLending",
          "type": "bool"
        },
        {
          "internalType": "bool",
          "name": "vpcRedeemable",
          "type": "bool"
        },
        {
          "internalType": "bool",
          "name": "rewardsClaimed",
          "type": "bool"
        },
        {
          "internalType": "uint8",
          "name": "loanAmount",
          "type": "uint8"
        },
        {
          "internalType": "uint8",
          "name": "duration",
          "type": "uint8"
        },
        {
          "internalType": "uint8",
          "name": "apr",
          "type": "uint8"
        },
        {
          "internalType": "uint8",
          "name": "cardLevel",
          "type": "uint8"
        },
        {
          "internalType": "uint256",
          "name": "cardId",
          "type": "uint256"
        },
        {
          "internalType": "uint48",
          "name": "voteTime",
          "type": "uint48"
        },
        {
          "internalType": "address",
          "name": "voter",
          "type": "address"
        }
      ],
      "stateMutability": "view",
      "type": "function"
    },
    {
      "inputs": [
        {
          "internalType": "uint256",
          "name": "",
          "type": "uint256"
        }
      ],
      "name": "vpcAddresses",
      "outputs": [
        {
          "internalType": "address",
          "name": "",
          "type": "address"
        }
      ],
      "stateMutability": "view",
      "type": "function"
    }
  ],
  "transactionHash": "0x331f33d545b94000c3269f0bf40c7984a6737a8e65a31f4385ea59897343b72c",
  "args": [
    "0x455129a6378c6D0d3D667554267112ad4000997F",
    "0x91b2a4d34C953Dc036a94dA066b1cFd8b948b38E",
    [
      "0x789299E539Fc70161aF6d60493638bC14B1b8E44",
      "0x584e23759606115DDFd76a3A8A0708f079333058",
      "0x20707Efb9637C0850ecfC3141047D1fa8Ce81249",
      "0x6228D8Dc9E8F19365D9379F985bED7b9eC5D57EB"
    ]
  ],
  "numDeployments": 1,
  "solcInputHash": "9f9b24330e64b4aed8e24e00b5f5786e",
  "bytecode": "0x608060405234620000b95762002751803803806200001d8162000104565b92833981019060c081830312620000b9578051916200003c836200012a565b60209283830151916200004f836200012a565b80605f85011215620000b95762000065620000d5565b809460c08101928311620000b957604001905b8282106200009d576200008d8686866200019b565b60405161233290816200041f8239f35b8680918351620000ad816200012a565b81520191019062000078565b600080fd5b50634e487b7160e01b600052604160045260246000fd5b60405190608082016001600160401b03811183821017620000f557604052565b620000ff620000be565b604052565b6040519190601f01601f191682016001600160401b03811183821017620000f557604052565b6001600160a01b03811603620000b957565b81811062000148575050565b600081556001016200013c565b6008906000905b600482106200016a57505050565b805183546001600160a01b0319166001600160a01b039190911617835560019283019291909101906020016200015c565b620002aa929162000282620002a49260008054737e8ae5c72eca86946b695dcc211863d9721a0961908160018060a01b0319821617835560018060a01b03167f8be0079c531659141344cd1fd0a4f28419497f9722a3daafe3b4186f6b6457e083604051a36200020d60015462000311565b601f8111620002d0575b5060066206966760ec1b01600155600254620002339062000311565b601f8111620002ac575b50506006621a599b60ea1b01600255620002566200034e565b62000260620003b6565b600d80546001600160a01b0319166001600160a01b0392909216919091179055565b600e80546001600160a01b0319166001600160a01b0392909216919091179055565b62000155565b565b601f6020836002620002c8955220910160051c8101906200013c565b38806200023d565b600182526200030a90601f0160051c7fb10e2d527612073b26eecdfd717e6a320cf44b4afac2b0732d9fcbe2b7fa0cf6908101906200013c565b3862000217565b90600182811c9216801562000343575b60208310146200032d57565b634e487b7160e01b600052602260045260246000fd5b91607f169162000321565b6200035b60035462000311565b601f811162000374575b50600461746360f01b01600355565b6003600052620003af90601f0160051c7fc2575a0e9e593c00f959f8c92f12db2869c3395a3b0502d05e2516446f71f85b908101906200013c565b3862000365565b620003c360045462000311565b601f8111620003dc575b50600461626360f01b01600455565b60046000526200041790601f0160051c7f8a35acfbc15ff81a39ae7d344fd709f28e8600b4aa8c65c6b64bfe7fe36bd19b908101906200013c565b38620003cd56fe60806040526004361015610013575b600080fd5b60003560e01c80630733d541146101675780630847a4fb1461015e57806324761aec146101555780634396a63c1461014c578063463de8d4146101435780635a5e3e6c1461013a57806366666aa914610131578063715018a61461012857806378238c371461011f57806382952200146101165780638da5cb5b1461010d57806392e8d5bc14610104578063a1695993146100fb578063badadff8146100f2578063cc61ce48146100e9578063f2fde38b146100e05763fd43bfb1146100d857600080fd5b61000e610955565b5061000e610889565b5061000e610814565b5061000e6107de565b5061000e610791565b5061000e610719565b5061000e6106f1565b5061000e6106c9565b5061000e610682565b5061000e610621565b5061000e6105f9565b5061000e6105bc565b5061000e61051f565b5061000e61043d565b5061000e610408565b5061000e61035d565b5061000e610234565b50634e487b7160e01b600052604160045260246000fd5b6080810190811067ffffffffffffffff8211176101a357604052565b6101ab610170565b604052565b67ffffffffffffffff81116101a357604052565b6040810190811067ffffffffffffffff8211176101a357604052565b90601f8019910116810190811067ffffffffffffffff8211176101a357604052565b60405190610180820182811067ffffffffffffffff8211176101a357604052565b6001600160a01b0381160361000e57565b503461000e57608036600319011261000e57366023121561000e5760405161025b81610187565b60848136821161000e576004905b82821061027b5761027984610a2b565b005b60208091833561028a81610223565b815201910190610269565b50634e487b7160e01b600052603260045260246000fd5b80548210156102c9575b6000526003602060002091020190600090565b6102d1610295565b6102b6565b99979593919c9b9a98969492909c6101808b019d15158b52151560208b0152151560408a0152151560608901521515608088015260a087016103199160ff169052565b60ff1660c086015260ff1660e085015260ff1661010084015261012083015265ffffffffffff166101408201526101600161035b916001600160a01b03169052565b565b503461000e57604036600319011261000e576024356004356000526005602052604060002090815481101561000e57610395916102ac565b508054906104046002600183015492015460405193849360ff65ffffffffffff6001600160a01b038560301c16941692818160401c1691808260381c1691818160301c1691808260281c1691818160201c1691808260181c1691818160101c1691808260081c1691168d6102d6565b0390f35b503461000e57602036600319011261000e576004356000526006602052602065ffffffffffff60406000205416604051908152f35b503461000e57602036600319011261000e57610279600435611542565b8015150361000e57565b6084359060ff8216820361000e57565b60a4359060ff8216820361000e57565b60c4359060ff8216820361000e57565b6044359060ff8216820361000e57565b610104359065ffffffffffff8216820361000e57565b81601f8201121561000e5780359067ffffffffffffffff8211610512575b604051926104f0601f8401601f1916602001856101e0565b8284526020838301011161000e57816000926020809301838601378301015290565b61051a610170565b6104d8565b503461000e5761016036600319011261000e5760043561053e8161045a565b60243561054a8161045a565b604435906105578261045a565b6064359260ff8416840361000e5761056d610464565b90610576610474565b61057e610484565b906105876104a4565b93610144359767ffffffffffffffff891161000e576105ad6102799936906004016104ba565b97610124359760e43596610f98565b503461000e57602036600319011261000e576004356000526007602052602060ff604060002054166040519015158152f35b600091031261000e57565b503461000e57600036600319011261000e5760206001600160a01b03600d5416604051908152f35b503461000e5760008060031936011261067f5761063c61099c565b80546001600160a01b031981168255816001600160a01b0360405192167f8be0079c531659141344cd1fd0a4f28419497f9722a3daafe3b4186f6b6457e08284a3f35b80fd5b503461000e57602036600319011261000e576001600160a01b036004356106a881610223565b6106b061099c565b166001600160a01b0319600d541617600d556000604051f35b503461000e57600036600319011261000e5760206001600160a01b03600e5416604051908152f35b503461000e57600036600319011261000e5760206001600160a01b0360005416604051908152f35b503461000e5760a036600319011261000e5761027960405160a0810181811067ffffffffffffffff821117610784575b604052600435815260243561075d8161045a565b602082015261076a610494565b6040820152606435606082015260843560808201526116ee565b61078c610170565b610749565b503461000e57602036600319011261000e5760043560005260056020526020604060002054604051908152f35b60048110156107d1575b60080190600090565b6107d9610295565b6107c8565b503461000e57602036600319011261000e57600435600481101561000e576001600160a01b036020916008015416604051908152f35b503461000e57604036600319011261000e5760043560ff8116810361000e57610279906108546024359161084783610223565b61084f61099c565b610a0b565b600481101561087c575b600801906001600160a01b03166001600160a01b0319825416179055565b610884610295565b61085e565b503461000e57602036600319011261000e576004356108a781610223565b6108af61099c565b6001600160a01b0380911690811561090157600091825491816001600160a01b0319841617845560405192167f8be0079c531659141344cd1fd0a4f28419497f9722a3daafe3b4186f6b6457e08484a3f35b60405162461bcd60e51b815260206004820152602660248201527f4f776e61626c653a206e6577206f776e657220697320746865207a65726f206160448201526564647265737360d01b6064820152608490fd5b503461000e57602036600319011261000e576001600160a01b0360043561097b81610223565b61098361099c565b166001600160a01b0319600e541617600e556000604051f35b6001600160a01b036000541633036109b057565b606460405162461bcd60e51b815260206004820152602060248201527f4f776e61626c653a2063616c6c6572206973206e6f7420746865206f776e65726044820152fd5b50634e487b7160e01b600052601160045260246000fd5b60ff1660018110610a1e575b6000190190565b610a266109f4565b610a17565b610a3361099c565b6008906000905b60048210610a4757505050565b6001602082610a776001600160a01b038495511687906001600160a01b03166001600160a01b0319825416179055565b01930191019091610a3a565b8060001904821181151516610a96570290565b610a9e6109f4565b0290565b15610aa957565b60405162461bcd60e51b815260206004820152600e60248201527f4375726174696f6e20656e6465640000000000000000000000000000000000006044820152606490fd5b15610af557565b60405162461bcd60e51b815260206004820152601160248201527f496e76616c6964207369676e61747572650000000000000000000000000000006044820152606490fd5b15610b4157565b60405162461bcd60e51b815260206004820152601260248201527f496e76616c69642063617264206c6576656c00000000000000000000000000006044820152606490fd5b9081602091031261000e5751610b9b8161045a565b90565b506040513d6000823e3d90fd5b15610bb257565b60405162461bcd60e51b815260206004820152601160248201527f43617264206e6f742072656c65617665640000000000000000000000000000006044820152606490fd5b6001906000198114610c07570190565b610c0f6109f4565b0190565b15610c1a57565b60405162461bcd60e51b815260206004820152601560248201527f4375726174696f6e20656e64206d69736d6174636800000000000000000000006044820152606490fd5b15610c6657565b60405162461bcd60e51b815260206004820152601360248201527f5650432061646472657373206e6f7420736574000000000000000000000000006044820152606490fd5b8054610cce9168010000000000000000821015610f19575b6001820181556102ac565b919091610f0357610eb9610160600261035b94610d00610cee8651151590565b829060ff801983541691151516179055565b610d26610d106020870151151590565b825461ff00191690151560081b61ff0016178255565b610d4e610d366040870151151590565b825462ff0000191690151560101b62ff000016178255565b610d78610d5e6060870151151590565b825463ff000000191690151560181b63ff00000016178255565b610da4610d886080870151151590565b825464ff00000000191690151560201b64ff0000000016178255565b610dd3610db560a087015160ff1690565b825465ff0000000000191660289190911b65ff000000000016178255565b610e04610de460c087015160ff1690565b825466ff000000000000191660309190911b66ff00000000000016178255565b610e37610e1560e087015160ff1690565b825467ff00000000000000191660389190911b67ff0000000000000016178255565b610e6d610e4961010087015160ff1690565b825468ff0000000000000000191660409190911b68ff000000000000000016178255565b61012085015160018201550192610eab610e9161014083015165ffffffffffff1690565b855465ffffffffffff191665ffffffffffff909116178555565b01516001600160a01b031690565b7fffffffffffff0000000000000000000000000000000000000000ffffffffffff79ffffffffffffffffffffffffffffffffffffffff00000000000083549260301b169116179055565b634e487b7160e01b600052600060045260246000fd5b610f21610170565b610cc3565b98969492909b9a99979593916101608a019c15158a52151560208a01521515604089015260ff16606088015260ff16608087015260ff1660a086015260ff1660c085015260e084015265ffffffffffff166101008301526101208201526101400161035b916001600160a01b03169052565b6040805160d08b901b7fffffffffffff000000000000000000000000000000000000000000000000000016602082019081523360601b6bffffffffffffffffffffffff19166026830152603a82018d9052949c939b929a92999897969594919391899161101281605a81015b03601f1981018352826101e0565b519020888b61103765ffffffffffff958688169461103286421115610aa2565b61145b565b928560009761107061105f6110538b546001600160a01b031690565b6001600160a01b031690565b6001600160a01b0380981614610aee565b6110ed6110b66110536110536110a361109e60ff8b169a61084f60019c8d811015908161140a575b50610b3a565b6107be565b90546001600160a01b039160031b1c1690565b8b51632084ab8360e01b815260048082019a909a5290602090829060249082905afa9081156113fd575b8b916113cf575b50610bab565b81611111611105866000526006602052604060002090565b5465ffffffffffff1690565b16156113845750611132611105611139946000526006602052604060002090565b1614610c13565b84815b6112d9575b505061115e906111566110a361109e8c610a0b565b161515610c5f565b6111736110536110536110a361109e8c610a0b565b90813b156112d5578b8d7f1f74c8a38eb331d380842b3a000862b09c56213e82b5cbaab23d0997805e15489f9e9d9b98958f61124a906112aa9f9d9a976112268f9e9b98916112028f87906112429561129e9c838f518096819582946323b872dd60e01b84523090339085016040919493929460608201956001600160a01b0380921683521660208201520152565b03925af180156112c8575b6112af575b5042169e6000526005602052604060002090565b94611239611232610202565b9715158852565b15156020870152565b151584870152565b60608301819052608083015260ff851660a083015260ff861660c083015260ff871660e083015260ff8816610100830152610120820189905265ffffffffffff8a1661014083015233610160830152610cab565b519a8b9a33998c610f26565b0390a1565b806112bc6112c2926101b0565b806105ee565b38611212565b6112d0610b9e565b61120d565b8380fd5b8c6112ee816000526005602052604060002090565b5482101561137e578161130e611313926000526005602052604060002090565b6102ac565b5060020154339061132f9060301c6001600160a01b0316611053565b146113435761133d90610bf7565b8161113c565b865162461bcd60e51b81526020818601818152600d918101919091526c105b1c9958591e481d9bdd1959609a1b604082015281906060010390fd5b50611141565b91505061139e6113b7926000526006602052604060002090565b9065ffffffffffff1665ffffffffffff19825416179055565b6113ca6113c5600c54610bf7565b600c55565b611139565b6113f0915060203d81116113f6575b6113e881836101e0565b810190610b86565b386110e7565b503d6113de565b611405610b9e565b6110e0565b600591501038611098565b929190928351906000945b828610611446575081602094951161143b575b019081520190565b600082820152611433565b94806020809288010151818401520194611420565b600090602092838101519060ff604160408301519201511692601b841061151a575b906114f8916110046114ce60405192611495846101c4565b601c84527f19457468657265756d205369676e6564204d6573736167653a0a3332000000008a8501526040519283918b83019586611415565b51902092604051948594859094939260ff6060936080840197845216602083015260408201520152565b838052039060015afa1561150d575b60005190565b611515610b9e565b611507565b9290601b8260e46114f89411611535575b019390915061147d565b61153d6109f4565b61152b565b611556816000526005602052604060002090565b9060005b82548110156116a95761156d81846102ac565b50600281013361158b61105383546001600160a01b039060301c1690565b148061169b575b6115a65750506115a190610bf7565b61155a565b815463ff0000001916825590935091905060016115eb6115da6110536110536110a361109e61084f8a5460ff9060401c1690565b935460301c6001600160a01b031690565b93015492823b1561000e57604080516323b872dd60e01b81523060048201526001600160a01b0392909216602483015260448201949094527f3d7a2d41e455d272e8f9f78d749d3f4a9f08dfbb1ea5350137e48fefb27c1cf7936112aa939091906000908290606490829084905af1801561168e575b61167b575b50519081523360208201529081906040820190565b806112bc611688926101b0565b38611666565b611696610b9e565b611661565b50815460181c60ff16611592565b60405162461bcd60e51b815260206004820152601c60248201527f4e6f20766f74652076616c696420666f72207670632072656465656d000000006044820152606490fd5b61035b906116fa61099c565b611a2c565b1561170657565b60405162461bcd60e51b815260206004820152601d60248201527f4375726174696f6e20656e642074696d65206e6f7420726561636865640000006044820152606490fd5b60209067ffffffffffffffff8111611765575b60051b0190565b61176d610170565b61175e565b6040519060e0820182811067ffffffffffffffff82111761179f575b6040526006825260c0366020840137565b6117a7610170565b61178e565b906117b68261174b565b6117c360405191826101e0565b82815280926117d4601f199161174b565b0190602036910137565b9061035b6001600160a01b0360026117f4610202565b94611881815460ff9061180b8282168a9015159052565b600881901c8216151560208a0152601081901c8216151560408a0152601881901c8216151560608a0152602081901c8216151560808a015260ff602882901c83161660a08a015260ff603082901c83161660c08a015260ff603882901c83161660e08a015260401c1661010088019060ff169052565b6001810154610120870152015465ffffffffffff811661014086015260301c166101608401906001600160a01b03169052565b6020908051156118c2570190565b610c0f610295565b6040908051600110156118c2570190565b60c0908051600510156118c2570190565b6060908051600210156118c2570190565b60a0908051600410156118c2570190565b6080908051600310156118c2570190565b6020918151811015611934575b60051b010190565b61193c610295565b61192c565b9081602091031261000e575190565b811561195a570490565b634e487b7160e01b600052601260045260246000fd5b81198111610c07570190565b8015610a1e576000190190565b90815180825260208080930193019160005b8281106119a9575050505090565b83516001600160a01b03168552938101939281019260010161199b565b91926119f29183526119e46020946080868601526080850190611989565b908382036040850152611989565b90606081830391015281808451928381520193019160005b828110611a18575050505090565b835185529381019392810192600101611a0a565b90611a5b611a56611a52611a4b85516000526007602052604060002090565b5460ff1690565b1590565b610aa2565b65ffffffffffff611a7a61110584516000526006602052604060002090565b161580156122d3575b611a8c906116ff565b611ab1611aa483516000526007602052604060002090565b805460ff19166001179055565b611ad7611acc61110584516000526006602052604060002090565b65ffffffffffff1690565b156122cf57611af182516000526005602052604060002090565b611af9611772565b9260008254905b8181106121c6575050600c54801515806121b4575b6120ed575b50611b2d611b27856118b4565b516117ac565b91611b3a611b27866118ca565b94611b47611b27826118ca565b9160005b8154811015611f3c57611b5e81836102ac565b50906020611b8e611a52828901611b758151151590565b8015611f26575b8015611efa575b611ead575b51151590565b80611e9f575b611ba9575b50611ba49150610bf7565b611b4b565b82548a604091611bc5611bbf848c015160ff1690565b60ff1690565b8a60ff91828460281c1614600014611df957611c8b92611bfb926060611bf093015191871c16610a83565b60808c015190611950565b95611c0f611c088a6118db565b5188611970565b611c22611c1b8b61190e565b518c61191f565b52611c766002820193611c68611c4386546001600160a01b039060301c1690565b91611c4d8d61190e565b51908d611c62611c5c84610bf7565b9161190e565b5261191f565b906001600160a01b03169052565b805464ff000000001916640100000000179055565b600e90611ca261105383546001600160a01b031690565b91611cb882546001600160a01b039060301c1690565b91833b1561000e57600080611cff8896611ba49b89519485809481936340c10f1960e01b835260049b8c8401602090939291936001600160a01b0360408201951681520152565b03925af18015611dec575b611dd9575b506000611d4f611d3e611053611d30611053600d546001600160a01b031690565b95546001600160a01b031690565b925460301c6001600160a01b031690565b93611d95611d5c8d6118db565b5197519788968795869463276d76f960e21b865285016040919493929460608201956001600160a01b0380921683521660208201520152565b03925af18015611dcc575b611dae575b50505b38611b99565b81611dc492903d106113f6576113e881836101e0565b503880611da5565b611dd4610b9e565b611da0565b806112bc611de6926101b0565b38611d0f565b611df4610b9e565b611d0a565b50611ba496506004925092611e226110536110536110a361109e8998611e569a97871c16610a0b565b905163c002d23d60e01b815292839182905afa918215611e92575b600092611e65575b5050611e50866118fd565b51611970565b611e5f856118fd565b52611da8565b611e849250803d10611e8b575b611e7c81836101e0565b810190611941565b3880611e45565b503d611e72565b611e9a610b9e565b611e3d565b50825460081c60ff16611b94565b855463ff000000191663010000001786556002860154611ef59060301c6001600160a01b0316611c688d611ee08c6118ec565b51908c611c62611eef84610bf7565b916118ec565b611b88565b508960ff611f1e611bbf6040611f158b5460ff9060281c1690565b94015160ff1690565b911614611b83565b508554611f379060081c60ff161590565b611b7c565b505094919394611f4b816118fd565b51611f94575b506112aa907f301ac066778ae05acf080a031c91a5dfa7f7f3263ef036803c216021374c4d4194611f866113c5600c5461197c565b5192604051948594856119c6565b90611faa611053600e546001600160a01b031690565b94611fc0611053600d546001600160a01b031690565b6040516370a0823160e01b81526001600160a01b03821660048201529093602082806024810103816001600160a01b038c165afa9182156120e0575b6000926120c0575b508161200f826118fd565b5111156120af5750925b803b1561000e57604051632770a7eb60e21b81526001600160a01b0397909716600488015260248701939093527f301ac066778ae05acf080a031c91a5dfa7f7f3263ef036803c216021374c4d41956112aa936000908290604490829084905af180156120a2575b61208f575b50945090611f51565b806112bc61209c926101b0565b38612086565b6120aa610b9e565b612081565b6120b991506118fd565b5192612019565b6120d991925060203d8111611e8b57611e7c81836101e0565b9038612004565b6120e8610b9e565b611ffc565b6121696121799161214f602061210e611053600e546001600160a01b031690565b612123611053600d546001600160a01b031690565b6040516370a0823160e01b81526001600160a01b03909116600482015292839190829081906024820190565b03915afa9081156121a7575b600091612189575b50611950565b612172866118ca565b5190611950565b612182856118db565b5238611b1a565b6121a1915060203d8111611e8b57611e7c81836101e0565b38612163565b6121af610b9e565b61215b565b506121be856118ca565b511515611b15565b806121dd6121d761222393876102ac565b506117de565b60209061220b611a528388016121f38151151590565b80156122ba575b8015612296575b61227b5751151590565b918261226e575b5081612249575b5061222857610bf7565b611b00565b61223a612234886118ca565b51610bf7565b612243886118ca565b52610bf7565b60a0015160ff16905060ff612265611bbf604088015160ff1690565b91161438612219565b8101511515915038612212565b6122876122348d6118b4565b6122908d6118b4565b52611b88565b5060a084015160ff1660ff6122b2611bbf60408d015160ff1690565b911614612201565b506122ca611a5286860151151590565b6121fa565b9050565b50611a8c6122f2611acc61110585516000526006602052604060002090565b4210159050611a8356fea26469706673582212205fb527fc31599f853cc089cd34196f4c560f2e04e74d79f904171623006674d464736f6c634300080e0033",
  "devdoc": {
    "kind": "dev",
    "methods": {
      "owner()": {
        "details": "Returns the address of the current owner."
      },
      "renounceOwnership()": {
        "details": "Leaves the contract without owner. It will not be possible to call `onlyOwner` functions anymore. Can only be called by the current owner. NOTE: Renouncing ownership will leave the contract without an owner, thereby removing any functionality that is only available to the owner."
      },
      "transferOwnership(address)": {
        "details": "Transfers ownership of the contract to a new account (`newOwner`). Can only be called by the current owner."
      }
    },
    "version": 1
  },
  "userdoc": {
    "kind": "user",
    "methods": {},
    "version": 1
  },
  "storageLayout": {
    "storage": [
      {
        "astId": 8424,
        "contract": "contracts/voting/PeriFiCuration.sol:PeriFiCuration",
        "label": "_owner",
        "offset": 0,
        "slot": "0",
        "type": "t_address"
      },
      {
        "astId": 26896,
        "contract": "contracts/voting/PeriFiCuration.sol:PeriFiCuration",
        "label": "interestForPoolBalanceName",
        "offset": 0,
        "slot": "1",
        "type": "t_string_storage"
      },
      {
        "astId": 26899,
        "contract": "contracts/voting/PeriFiCuration.sol:PeriFiCuration",
        "label": "interestForLenderBalanceName",
        "offset": 0,
        "slot": "2",
        "type": "t_string_storage"
      },
      {
        "astId": 26902,
        "contract": "contracts/voting/PeriFiCuration.sol:PeriFiCuration",
        "label": "tradeCommissionBalanceName",
        "offset": 0,
        "slot": "3",
        "type": "t_string_storage"
      },
      {
        "astId": 26905,
        "contract": "contracts/voting/PeriFiCuration.sol:PeriFiCuration",
        "label": "bondingCommissionBalanceName",
        "offset": 0,
        "slot": "4",
        "type": "t_string_storage"
      },
      {
        "astId": 28499,
        "contract": "contracts/voting/PeriFiCuration.sol:PeriFiCuration",
        "label": "votes",
        "offset": 0,
        "slot": "5",
        "type": "t_mapping(t_bytes32,t_array(t_struct(Vote)32228_storage)dyn_storage)"
      },
      {
        "astId": 28503,
        "contract": "contracts/voting/PeriFiCuration.sol:PeriFiCuration",
        "label": "curationHashToEndTime",
        "offset": 0,
        "slot": "6",
        "type": "t_mapping(t_bytes32,t_uint48)"
      },
      {
        "astId": 28507,
        "contract": "contracts/voting/PeriFiCuration.sol:PeriFiCuration",
        "label": "curationHashToEnded",
        "offset": 0,
        "slot": "7",
        "type": "t_mapping(t_bytes32,t_bool)"
      },
      {
        "astId": 28511,
        "contract": "contracts/voting/PeriFiCuration.sol:PeriFiCuration",
        "label": "vpcAddresses",
        "offset": 0,
        "slot": "8",
        "type": "t_array(t_address)4_storage"
      },
      {
        "astId": 28513,
        "contract": "contracts/voting/PeriFiCuration.sol:PeriFiCuration",
        "label": "ongoingCurationCount",
        "offset": 0,
        "slot": "12",
        "type": "t_uint256"
      },
      {
        "astId": 28516,
        "contract": "contracts/voting/PeriFiCuration.sol:PeriFiCuration",
        "label": "rewardPool",
        "offset": 0,
        "slot": "13",
        "type": "t_contract(Vault)27506"
      },
      {
        "astId": 28519,
        "contract": "contracts/voting/PeriFiCuration.sol:PeriFiCuration",
        "label": "nend",
        "offset": 0,
        "slot": "14",
        "type": "t_contract(NEND)26482"
      }
    ],
    "types": {
      "t_address": {
        "encoding": "inplace",
        "label": "address",
        "numberOfBytes": "20"
      },
      "t_array(t_address)4_storage": {
        "base": "t_address",
        "encoding": "inplace",
        "label": "address[4]",
        "numberOfBytes": "128"
      },
      "t_array(t_struct(Vote)32228_storage)dyn_storage": {
        "base": "t_struct(Vote)32228_storage",
        "encoding": "dynamic_array",
        "label": "struct ICuration.Vote[]",
        "numberOfBytes": "32"
      },
      "t_bool": {
        "encoding": "inplace",
        "label": "bool",
        "numberOfBytes": "1"
      },
      "t_bytes32": {
        "encoding": "inplace",
        "label": "bytes32",
        "numberOfBytes": "32"
      },
      "t_contract(NEND)26482": {
        "encoding": "inplace",
        "label": "contract NEND",
        "numberOfBytes": "20"
      },
      "t_contract(Vault)27506": {
        "encoding": "inplace",
        "label": "contract Vault",
        "numberOfBytes": "20"
      },
      "t_mapping(t_bytes32,t_array(t_struct(Vote)32228_storage)dyn_storage)": {
        "encoding": "mapping",
        "key": "t_bytes32",
        "label": "mapping(bytes32 => struct ICuration.Vote[])",
        "numberOfBytes": "32",
        "value": "t_array(t_struct(Vote)32228_storage)dyn_storage"
      },
      "t_mapping(t_bytes32,t_bool)": {
        "encoding": "mapping",
        "key": "t_bytes32",
        "label": "mapping(bytes32 => bool)",
        "numberOfBytes": "32",
        "value": "t_bool"
      },
      "t_mapping(t_bytes32,t_uint48)": {
        "encoding": "mapping",
        "key": "t_bytes32",
        "label": "mapping(bytes32 => uint48)",
        "numberOfBytes": "32",
        "value": "t_uint48"
      },
      "t_string_storage": {
        "encoding": "bytes",
        "label": "string",
        "numberOfBytes": "32"
      },
      "t_struct(Vote)32228_storage": {
        "encoding": "inplace",
        "label": "struct ICuration.Vote",
        "members": [
          {
            "astId": 32205,
            "contract": "contracts/voting/PeriFiCuration.sol:PeriFiCuration",
            "label": "accept",
            "offset": 0,
            "slot": "0",
            "type": "t_bool"
          },
          {
            "astId": 32207,
            "contract": "contracts/voting/PeriFiCuration.sol:PeriFiCuration",
            "label": "bet",
            "offset": 1,
            "slot": "0",
            "type": "t_bool"
          },
          {
            "astId": 32209,
            "contract": "contracts/voting/PeriFiCuration.sol:PeriFiCuration",
            "label": "leverageLending",
            "offset": 2,
            "slot": "0",
            "type": "t_bool"
          },
          {
            "astId": 32211,
            "contract": "contracts/voting/PeriFiCuration.sol:PeriFiCuration",
            "label": "vpcRedeemable",
            "offset": 3,
            "slot": "0",
            "type": "t_bool"
          },
          {
            "astId": 32213,
            "contract": "contracts/voting/PeriFiCuration.sol:PeriFiCuration",
            "label": "rewardsClaimed",
            "offset": 4,
            "slot": "0",
            "type": "t_bool"
          },
          {
            "astId": 32215,
            "contract": "contracts/voting/PeriFiCuration.sol:PeriFiCuration",
            "label": "loanAmount",
            "offset": 5,
            "slot": "0",
            "type": "t_uint8"
          },
          {
            "astId": 32217,
            "contract": "contracts/voting/PeriFiCuration.sol:PeriFiCuration",
            "label": "duration",
            "offset": 6,
            "slot": "0",
            "type": "t_uint8"
          },
          {
            "astId": 32219,
            "contract": "contracts/voting/PeriFiCuration.sol:PeriFiCuration",
            "label": "apr",
            "offset": 7,
            "slot": "0",
            "type": "t_uint8"
          },
          {
            "astId": 32221,
            "contract": "contracts/voting/PeriFiCuration.sol:PeriFiCuration",
            "label": "cardLevel",
            "offset": 8,
            "slot": "0",
            "type": "t_uint8"
          },
          {
            "astId": 32223,
            "contract": "contracts/voting/PeriFiCuration.sol:PeriFiCuration",
            "label": "cardId",
            "offset": 0,
            "slot": "1",
            "type": "t_uint256"
          },
          {
            "astId": 32225,
            "contract": "contracts/voting/PeriFiCuration.sol:PeriFiCuration",
            "label": "voteTime",
            "offset": 0,
            "slot": "2",
            "type": "t_uint48"
          },
          {
            "astId": 32227,
            "contract": "contracts/voting/PeriFiCuration.sol:PeriFiCuration",
            "label": "voter",
            "offset": 6,
            "slot": "2",
            "type": "t_address"
          }
        ],
        "numberOfBytes": "96"
      },
      "t_uint256": {
        "encoding": "inplace",
        "label": "uint256",
        "numberOfBytes": "32"
      },
      "t_uint48": {
        "encoding": "inplace",
        "label": "uint48",
        "numberOfBytes": "6"
      },
      "t_uint8": {
        "encoding": "inplace",
        "label": "uint8",
        "numberOfBytes": "1"
      }
    }
  }
}