{
  "address": "0x63b7B222C7fe9Af3a11871446062C19f6d032092",
  "abi": [
    {
      "anonymous": false,
      "inputs": [
        {
          "indexed": true,
          "internalType": "address",
          "name": "previousOwner",
          "type": "address"
        },
        {
          "indexed": true,
          "internalType": "address",
          "name": "newOwner",
          "type": "address"
        }
      ],
      "name": "OwnershipTransferred",
      "type": "event"
    },
    {
      "inputs": [],
      "name": "claimCollateralDuration",
      "outputs": [
        {
          "internalType": "uint256",
          "name": "",
          "type": "uint256"
        }
      ],
      "stateMutability": "view",
      "type": "function"
    },
    {
      "inputs": [],
      "name": "commissionForIFL",
      "outputs": [
        {
          "internalType": "uint256",
          "name": "",
          "type": "uint256"
        }
      ],
      "stateMutability": "view",
      "type": "function"
    },
    {
      "inputs": [],
      "name": "ivCommissionForIFP",
      "outputs": [
        {
          "internalType": "uint256",
          "name": "",
          "type": "uint256"
        }
      ],
      "stateMutability": "view",
      "type": "function"
    },
    {
      "inputs": [],
      "name": "liquidateProtectionDuration",
      "outputs": [
        {
          "internalType": "uint256",
          "name": "",
          "type": "uint256"
        }
      ],
      "stateMutability": "view",
      "type": "function"
    },
    {
      "inputs": [],
      "name": "liquidationThresholdInBasisPoints",
      "outputs": [
        {
          "internalType": "uint256",
          "name": "",
          "type": "uint256"
        }
      ],
      "stateMutability": "view",
      "type": "function"
    },
    {
      "inputs": [],
      "name": "maximumLoanDuration",
      "outputs": [
        {
          "internalType": "uint256",
          "name": "",
          "type": "uint256"
        }
      ],
      "stateMutability": "view",
      "type": "function"
    },
    {
      "inputs": [],
      "name": "maximumNumberOfActiveLoans",
      "outputs": [
        {
          "internalType": "uint256",
          "name": "",
          "type": "uint256"
        }
      ],
      "stateMutability": "view",
      "type": "function"
    },
    {
      "inputs": [],
      "name": "owner",
      "outputs": [
        {
          "internalType": "address",
          "name": "",
          "type": "address"
        }
      ],
      "stateMutability": "view",
      "type": "function"
    },
    {
      "inputs": [],
      "name": "poolCommissionIFPUpTo100",
      "outputs": [
        {
          "internalType": "uint256",
          "name": "",
          "type": "uint256"
        }
      ],
      "stateMutability": "view",
      "type": "function"
    },
    {
      "inputs": [],
      "name": "poolCommissionIFPUpTo20",
      "outputs": [
        {
          "internalType": "uint256",
          "name": "",
          "type": "uint256"
        }
      ],
      "stateMutability": "view",
      "type": "function"
    },
    {
      "inputs": [],
      "name": "poolCommissionIFPUpTo30",
      "outputs": [
        {
          "internalType": "uint256",
          "name": "",
          "type": "uint256"
        }
      ],
      "stateMutability": "view",
      "type": "function"
    },
    {
      "inputs": [],
      "name": "poolCommissionIFPUpTo40",
      "outputs": [
        {
          "internalType": "uint256",
          "name": "",
          "type": "uint256"
        }
      ],
      "stateMutability": "view",
      "type": "function"
    },
    {
      "inputs": [],
      "name": "poolCommissionIFPUpTo50",
      "outputs": [
        {
          "internalType": "uint256",
          "name": "",
          "type": "uint256"
        }
      ],
      "stateMutability": "view",
      "type": "function"
    },
    {
      "inputs": [],
      "name": "poolCommissionIFPUpTo60",
      "outputs": [
        {
          "internalType": "uint256",
          "name": "",
          "type": "uint256"
        }
      ],
      "stateMutability": "view",
      "type": "function"
    },
    {
      "inputs": [],
      "name": "poolCommissionIFPUpTo70",
      "outputs": [
        {
          "internalType": "uint256",
          "name": "",
          "type": "uint256"
        }
      ],
      "stateMutability": "view",
      "type": "function"
    },
    {
      "inputs": [],
      "name": "poolCommissionIFPUpTo80",
      "outputs": [
        {
          "internalType": "uint256",
          "name": "",
          "type": "uint256"
        }
      ],
      "stateMutability": "view",
      "type": "function"
    },
    {
      "inputs": [],
      "name": "poolCommissionIFPUpTo90",
      "outputs": [
        {
          "internalType": "uint256",
          "name": "",
          "type": "uint256"
        }
      ],
      "stateMutability": "view",
      "type": "function"
    },
    {
      "inputs": [],
      "name": "preLiquidationDuration",
      "outputs": [
        {
          "internalType": "uint256",
          "name": "",
          "type": "uint256"
        }
      ],
      "stateMutability": "view",
      "type": "function"
    },
    {
      "inputs": [],
      "name": "renounceOwnership",
      "outputs": [],
      "stateMutability": "nonpayable",
      "type": "function"
    },
    {
      "inputs": [
        {
          "internalType": "address",
          "name": "newOwner",
          "type": "address"
        }
      ],
      "name": "transferOwnership",
      "outputs": [],
      "stateMutability": "nonpayable",
      "type": "function"
    },
    {
      "inputs": [
        {
          "internalType": "uint256",
          "name": "_newClaimCollateralDuration",
          "type": "uint256"
        }
      ],
      "name": "updateClaimCollateralDuration",
      "outputs": [],
      "stateMutability": "nonpayable",
      "type": "function"
    },
    {
      "inputs": [
        {
          "internalType": "uint256",
          "name": "_newCommissionForIFL",
          "type": "uint256"
        }
      ],
      "name": "updateCommissionForIFL",
      "outputs": [],
      "stateMutability": "nonpayable",
      "type": "function"
    },
    {
      "inputs": [
        {
          "internalType": "uint256",
          "name": "_newIVCommissionForIFP",
          "type": "uint256"
        }
      ],
      "name": "updateIVCommissionForIFP",
      "outputs": [],
      "stateMutability": "nonpayable",
      "type": "function"
    },
    {
      "inputs": [
        {
          "internalType": "uint256",
          "name": "_newLiquidateProtectionDuration",
          "type": "uint256"
        }
      ],
      "name": "updateLiquidateProtectionDuration",
      "outputs": [],
      "stateMutability": "nonpayable",
      "type": "function"
    },
    {
      "inputs": [
        {
          "internalType": "uint256",
          "name": "_newLiquidationThresholdInBasisPoints",
          "type": "uint256"
        }
      ],
      "name": "updateLiquidationThreshold",
      "outputs": [],
      "stateMutability": "nonpayable",
      "type": "function"
    },
    {
      "inputs": [
        {
          "internalType": "uint256",
          "name": "_newMaximumLoanDuration",
          "type": "uint256"
        }
      ],
      "name": "updateMaximumLoanDuration",
      "outputs": [],
      "stateMutability": "nonpayable",
      "type": "function"
    },
    {
      "inputs": [
        {
          "internalType": "uint256",
          "name": "_newMaximumNumberOfActiveLoans",
          "type": "uint256"
        }
      ],
      "name": "updateMaximumNumberOfActiveLoans",
      "outputs": [],
      "stateMutability": "nonpayable",
      "type": "function"
    },
    {
      "inputs": [
        {
          "internalType": "uint256",
          "name": "leveragePercent",
          "type": "uint256"
        },
        {
          "internalType": "uint256",
          "name": "poolCommissionInBasisPoint",
          "type": "uint256"
        }
      ],
      "name": "updatePoolCommission",
      "outputs": [],
      "stateMutability": "nonpayable",
      "type": "function"
    },
    {
      "inputs": [
        {
          "internalType": "uint256",
          "name": "_newPreLiquidationDuration",
          "type": "uint256"
        }
      ],
      "name": "updatePreLiquidationDuration",
      "outputs": [],
      "stateMutability": "nonpayable",
      "type": "function"
    }
  ],
  "transactionHash": "0xf91f25c79722c3a72dd419ba982bf7a02cb145bf8dc07f24e7149d0fcf3bfd31",
  "args": [],
  "numDeployments": 1,
  "solcInputHash": "68474430fdeb505d127d4783e29525db",
  "bytecode": "0x6080806040523461011f5760008054737e8ae5c72eca86946b695dcc211863d9721a09616001600160a01b0319821681178355916001600160a01b03909116907f8be0079c531659141344cd1fd0a4f28419497f9722a3daafe3b4186f6b6457e09084a36301e91c806001556064600255610fa0600355610081611194600455565b61008c611388600555565b610097611388600655565b6100a261157c600755565b6100ad611770600855565b6100b8611b58600955565b6100c3611f40600a55565b6100ce612328600b55565b6100d96101f4600c55565b6100e46101f4600d55565b6100f062015180600e55565b6100fc62015180600f55565b6101086202a300601055565b610113611f40601155565b610f3390816101258239f35b600080fdfe60806040526004361015610013575b600080fd5b60003560e01c806302a11ee81461025757806306c8327f1461024e578063192b355d146102455780632cf793d01461023c578063442ce24b1461023357806347948d921461022a5780635191151414610221578063549b4c7b146102185780635ec828721461020f57806360b65f5e14610206578063643f6e32146101fd5780636854fa8c146101f45780636b787492146101eb578063715018a6146101e2578063752e8104146101d957806384707482146101d0578063894f453a146101c75780638da5cb5b146101be578063b124001b146101b5578063c11dfd56146101ac578063c378ecbe146101a3578063cf4e00cf1461019a578063cfd332e114610191578063d3b5be1a14610188578063d4c77d0c1461017f578063e39d1cf714610176578063eaccaf651461016d578063f2fde38b146101645763fa71cbc01461015c57600080fd5b61000e610ba6565b5061000e610abb565b5061000e610a7e565b5061000e610a41565b5061000e610a04565b5061000e6109b6565b5061000e610979565b5061000e61093c565b5061000e6108ee565b5061000e6108b1565b5061000e6107cd565b5061000e61077a565b5061000e61073d565b5061000e610700565b5061000e6106b2565b5061000e61060e565b5061000e6105d1565b5061000e610594565b5061000e610554565b5061000e610514565b5061000e6104d7565b5061000e61049a565b5061000e61045d565b5061000e61038e565b5061000e610351565b5061000e610311565b5061000e6102d4565b5061000e610297565b503461000e5760207ffffffffffffffffffffffffffffffffffffffffffffffffffffffffffffffffc36011261000e5761028f610e0f565b600435600f55005b503461000e5760007ffffffffffffffffffffffffffffffffffffffffffffffffffffffffffffffffc36011261000e576020600554604051908152f35b503461000e5760007ffffffffffffffffffffffffffffffffffffffffffffffffffffffffffffffffc36011261000e576020600154604051908152f35b503461000e5760207ffffffffffffffffffffffffffffffffffffffffffffffffffffffffffffffffc36011261000e57610349610e0f565b600435600e55005b503461000e5760007ffffffffffffffffffffffffffffffffffffffffffffffffffffffffffffffffc36011261000e576020600d54604051908152f35b503461000e5760207ffffffffffffffffffffffffffffffffffffffffffffffffffffffffffffffffc36011261000e576004356103c9610e0f565b63ffffffff81116103d957600155005b60846040517f08c379a000000000000000000000000000000000000000000000000000000000815260206004820152603360248201527f6c6f616e206475726174696f6e2063616e6e6f7420657863656564207370616360448201527f6520616c6f7474656420696e20737472756374000000000000000000000000006064820152fd5b503461000e5760007ffffffffffffffffffffffffffffffffffffffffffffffffffffffffffffffffc36011261000e576020600e54604051908152f35b503461000e5760007ffffffffffffffffffffffffffffffffffffffffffffffffffffffffffffffffc36011261000e576020600c54604051908152f35b503461000e5760007ffffffffffffffffffffffffffffffffffffffffffffffffffffffffffffffffc36011261000e576020601154604051908152f35b503461000e5760207ffffffffffffffffffffffffffffffffffffffffffffffffffffffffffffffffc36011261000e5761054c610e0f565b600435601055005b503461000e5760207ffffffffffffffffffffffffffffffffffffffffffffffffffffffffffffffffc36011261000e5761058c610e0f565b600435600255005b503461000e5760007ffffffffffffffffffffffffffffffffffffffffffffffffffffffffffffffffc36011261000e576020600754604051908152f35b503461000e5760007ffffffffffffffffffffffffffffffffffffffffffffffffffffffffffffffffc36011261000e576020600654604051908152f35b503461000e576000807ffffffffffffffffffffffffffffffffffffffffffffffffffffffffffffffffc3601126106af57610647610e0f565b80547fffffffffffffffffffffffff0000000000000000000000000000000000000000811682558173ffffffffffffffffffffffffffffffffffffffff60405192167f8be0079c531659141344cd1fd0a4f28419497f9722a3daafe3b4186f6b6457e08284a3f35b80fd5b503461000e5760207ffffffffffffffffffffffffffffffffffffffffffffffffffffffffffffffffc36011261000e576004356106ed610e0f565b6106fb612710821115610d84565b600c55005b503461000e5760007ffffffffffffffffffffffffffffffffffffffffffffffffffffffffffffffffc36011261000e576020600454604051908152f35b503461000e5760007ffffffffffffffffffffffffffffffffffffffffffffffffffffffffffffffffc36011261000e576020600954604051908152f35b503461000e5760007ffffffffffffffffffffffffffffffffffffffffffffffffffffffffffffffffc36011261000e57602073ffffffffffffffffffffffffffffffffffffffff60005416604051908152f35b503461000e5760407ffffffffffffffffffffffffffffffffffffffffffffffffffffffffffffffffc36011261000e5760243560043561080b610e0f565b610818600a820615610be3565b6108256014821015610c6e565b6108326064821115610cf9565b6014810361084157506003555b005b601e810361084f5750600455005b6028810361085d5750600555005b6032810361086b5750600655005b603c81036108795750600755005b604681036108875750600855005b605081036108955750600955005b605a81036108a35750600a55005b6064146108ac57005b600b55005b503461000e5760007ffffffffffffffffffffffffffffffffffffffffffffffffffffffffffffffffc36011261000e576020600b54604051908152f35b503461000e5760207ffffffffffffffffffffffffffffffffffffffffffffffffffffffffffffffffc36011261000e57600435610929610e0f565b610937612710821115610d84565b600d55005b503461000e5760007ffffffffffffffffffffffffffffffffffffffffffffffffffffffffffffffffc36011261000e576020601054604051908152f35b503461000e5760007ffffffffffffffffffffffffffffffffffffffffffffffffffffffffffffffffc36011261000e576020600f54604051908152f35b503461000e5760207ffffffffffffffffffffffffffffffffffffffffffffffffffffffffffffffffc36011261000e576004356109f1610e0f565b6109ff612710821115610d84565b601155005b503461000e5760007ffffffffffffffffffffffffffffffffffffffffffffffffffffffffffffffffc36011261000e576020600354604051908152f35b503461000e5760007ffffffffffffffffffffffffffffffffffffffffffffffffffffffffffffffffc36011261000e576020600854604051908152f35b503461000e5760007ffffffffffffffffffffffffffffffffffffffffffffffffffffffffffffffffc36011261000e576020600254604051908152f35b503461000e5760207ffffffffffffffffffffffffffffffffffffffffffffffffffffffffffffffffc36011261000e5760043573ffffffffffffffffffffffffffffffffffffffff811680820361000e57610b14610e0f565b15610b225761083f90610e8e565b60846040517f08c379a000000000000000000000000000000000000000000000000000000000815260206004820152602660248201527f4f776e61626c653a206e6577206f776e657220697320746865207a65726f206160448201527f64647265737300000000000000000000000000000000000000000000000000006064820152fd5b503461000e5760007ffffffffffffffffffffffffffffffffffffffffffffffffffffffffffffffffc36011261000e576020600a54604051908152f35b15610bea57565b60846040517f08c379a000000000000000000000000000000000000000000000000000000000815260206004820152602760248201527f6c6576657261676550657263656e74206d757374206265206d756c7469706c6560448201527f73206f66203130000000000000000000000000000000000000000000000000006064820152fd5b15610c7557565b60846040517f08c379a000000000000000000000000000000000000000000000000000000000815260206004820152603260248201527f6c6576657261676550657263656e74206d75737420626520626967676572207460448201527f68616e206f7220657175616c20746f20323000000000000000000000000000006064820152fd5b15610d0057565b60846040517f08c379a000000000000000000000000000000000000000000000000000000000815260206004820152603460248201527f6c6576657261676550657263656e74206d75737420626520736d616c6c65722060448201527f7468616e206f7220657175616c20746f203130300000000000000000000000006064820152fd5b15610d8b57565b60846040517f08c379a000000000000000000000000000000000000000000000000000000000815260206004820152602f60248201527f427920646566696e6974696f6e2c20626173697320706f696e74732063616e6e60448201527f6f742065786365656420313030303000000000000000000000000000000000006064820152fd5b73ffffffffffffffffffffffffffffffffffffffff600054163303610e3057565b60646040517f08c379a000000000000000000000000000000000000000000000000000000000815260206004820152602060248201527f4f776e61626c653a2063616c6c6572206973206e6f7420746865206f776e65726044820152fd5b6000549073ffffffffffffffffffffffffffffffffffffffff80911691827fffffffffffffffffffffffff0000000000000000000000000000000000000000821617600055167f8be0079c531659141344cd1fd0a4f28419497f9722a3daafe3b4186f6b6457e06000604051a356fea26469706673582212200d6d4aadf0a070a285f9d4d03baae4506f530f6fe2455736d99a996ea8c888ef64736f6c634300080e0033"
}