{
  "address": "0x92Af40B92ca9d3C9135B2b0354368dB34a8C67f9",
  "abi": [
    {
      "inputs": [
        {
          "internalType": "contract PERIv2[]",
          "name": "_vpcs",
          "type": "address[]"
        },
        {
          "internalType": "contract IERC20[]",
          "name": "_tickets",
          "type": "address[]"
        },
        {
          "internalType": "uint256[]",
          "name": "_supportedChainIds",
          "type": "uint256[]"
        },
        {
          "internalType": "contract Vault",
          "name": "_curationRewardPool",
          "type": "address"
        },
        {
          "internalType": "contract NEND",
          "name": "_nend",
          "type": "address"
        }
      ],
      "stateMutability": "nonpayable",
      "type": "constructor"
    },
    {
      "anonymous": false,
      "inputs": [
        {
          "indexed": false,
          "internalType": "uint256",
          "name": "targetChainId",
          "type": "uint256"
        },
        {
          "indexed": false,
          "internalType": "address",
          "name": "sender",
          "type": "address"
        },
        {
          "indexed": false,
          "internalType": "address",
          "name": "recipient",
          "type": "address"
        },
        {
          "indexed": false,
          "internalType": "uint8",
          "name": "cardLevel",
          "type": "uint8"
        },
        {
          "indexed": false,
          "internalType": "uint256",
          "name": "tokenId",
          "type": "uint256"
        },
        {
          "indexed": false,
          "internalType": "bool",
          "name": "revealed",
          "type": "bool"
        },
        {
          "indexed": false,
          "internalType": "string",
          "name": "tokenHash",
          "type": "string"
        },
        {
          "indexed": false,
          "internalType": "uint256",
          "name": "nonce",
          "type": "uint256"
        },
        {
          "indexed": false,
          "internalType": "uint48",
          "name": "enteredAt",
          "type": "uint48"
        }
      ],
      "name": "EnterBridge",
      "type": "event"
    },
    {
      "anonymous": false,
      "inputs": [
        {
          "indexed": false,
          "internalType": "uint256",
          "name": "nonce",
          "type": "uint256"
        },
        {
          "indexed": false,
          "internalType": "uint256",
          "name": "sourceChainId",
          "type": "uint256"
        },
        {
          "indexed": false,
          "internalType": "uint48",
          "name": "leftAt",
          "type": "uint48"
        }
      ],
      "name": "LeaveBridge",
      "type": "event"
    },
    {
      "anonymous": false,
      "inputs": [
        {
          "indexed": true,
          "internalType": "address",
          "name": "previousOwner",
          "type": "address"
        },
        {
          "indexed": true,
          "internalType": "address",
          "name": "newOwner",
          "type": "address"
        }
      ],
      "name": "OwnershipTransferred",
      "type": "event"
    },
    {
      "inputs": [
        {
          "internalType": "uint256",
          "name": "_targetChainId",
          "type": "uint256"
        },
        {
          "internalType": "address",
          "name": "_recipient",
          "type": "address"
        },
        {
          "internalType": "uint8",
          "name": "_cardLevel",
          "type": "uint8"
        },
        {
          "internalType": "uint256",
          "name": "_tokenId",
          "type": "uint256"
        }
      ],
      "name": "enterBridge",
      "outputs": [],
      "stateMutability": "nonpayable",
      "type": "function"
    },
    {
      "inputs": [
        {
          "internalType": "uint256",
          "name": "_sourceChainId",
          "type": "uint256"
        },
        {
          "internalType": "address",
          "name": "_recipient",
          "type": "address"
        },
        {
          "internalType": "uint8",
          "name": "_cardLevel",
          "type": "uint8"
        },
        {
          "internalType": "uint256",
          "name": "_tokenId",
          "type": "uint256"
        },
        {
          "internalType": "bool",
          "name": "_revealed",
          "type": "bool"
        },
        {
          "internalType": "string",
          "name": "_tokenHash",
          "type": "string"
        },
        {
          "internalType": "uint256",
          "name": "_nonce",
          "type": "uint256"
        },
        {
          "internalType": "bytes",
          "name": "_signature",
          "type": "bytes"
        }
      ],
      "name": "leaveBridge",
      "outputs": [],
      "stateMutability": "nonpayable",
      "type": "function"
    },
    {
      "inputs": [],
      "name": "owner",
      "outputs": [
        {
          "internalType": "address",
          "name": "",
          "type": "address"
        }
      ],
      "stateMutability": "view",
      "type": "function"
    },
    {
      "inputs": [],
      "name": "renounceOwnership",
      "outputs": [],
      "stateMutability": "nonpayable",
      "type": "function"
    },
    {
      "inputs": [
        {
          "internalType": "uint256",
          "name": "",
          "type": "uint256"
        }
      ],
      "name": "supportedChainIds",
      "outputs": [
        {
          "internalType": "uint256",
          "name": "",
          "type": "uint256"
        }
      ],
      "stateMutability": "view",
      "type": "function"
    },
    {
      "inputs": [
        {
          "internalType": "address",
          "name": "newOwner",
          "type": "address"
        }
      ],
      "name": "transferOwnership",
      "outputs": [],
      "stateMutability": "nonpayable",
      "type": "function"
    },
    {
      "inputs": [
        {
          "internalType": "uint256",
          "name": "",
          "type": "uint256"
        }
      ],
      "name": "vpcs",
      "outputs": [
        {
          "internalType": "contract PERIv2",
          "name": "",
          "type": "address"
        }
      ],
      "stateMutability": "view",
      "type": "function"
    }
  ],
  "transactionHash": "0x010bca50955c603c0f1b7b6fcbbd17fa69c7b3c0457d46206b815c2f7d5cc76c",
  "args": [
    [
      "0x789299E539Fc70161aF6d60493638bC14B1b8E44",
      "0x584e23759606115DDFd76a3A8A0708f079333058",
      "0x20707Efb9637C0850ecfC3141047D1fa8Ce81249",
      "0x6228D8Dc9E8F19365D9379F985bED7b9eC5D57EB"
    ],
    [
      "0x2208B3F4b6755f07022e5540e9556811634cb015",
      "0x2208B3F4b6755f07022e5540e9556811634cb015",
      "0x2208B3F4b6755f07022e5540e9556811634cb015",
      "0x2208B3F4b6755f07022e5540e9556811634cb015"
    ],
    [
      137,
      43114
    ],
    "0x455129a6378c6D0d3D667554267112ad4000997F",
    "0x91b2a4d34C953Dc036a94dA066b1cFd8b948b38E"
  ],
  "numDeployments": 1,
  "solcInputHash": "9f9b24330e64b4aed8e24e00b5f5786e",
  "bytecode": "0x60808060405234620001095762001d76803803809162000020828562000142565b833981019060a081830312620001095780516001600160401b039190828111620001095781019183601f8401121562000109578251620000608162000175565b9362000070604051958662000142565b818552602091828087019160051b83010191878311620001095783809101915b8383106200010e5750505050820151818111620001095784620000b5918401620001b1565b9060408301519081116200010957620000f994620000d591840162000223565b90620000f26080620000ea6060860162000289565b940162000289565b936200059f565b6040516115589081620007fe8239f35b600080fd5b819083516200011d816200019f565b815201910190839062000090565b50634e487b7160e01b600052604160045260246000fd5b601f909101601f19168101906001600160401b038211908210176200016657604052565b620001706200012b565b604052565b6020906001600160401b0381116200018f575b60051b0190565b620001996200012b565b62000188565b6001600160a01b038116036200010957565b81601f820112156200010957805191620001cb8362000175565b92620001db604051948562000142565b808452602092838086019260051b82010192831162000109578301905b82821062000207575050505090565b838091835162000217816200019f565b815201910190620001f8565b81601f8201121562000109578051916200023d8362000175565b926200024d604051948562000142565b808452602092838086019260051b82010192831162000109578301905b82821062000279575050505090565b815181529083019083016200026a565b519062000296826200019f565b565b15620002a057565b60405162461bcd60e51b8152602060048201526012602482015271496e76616c696420767063206c6576656c7360701b6044820152606490fd5b50634e487b7160e01b600052601160045260246000fd5b60ff6001911660ff811462000304570190565b6200030e620002da565b0190565b8051821015620003275760209160051b010190565b634e487b7160e01b600052603260045260246000fd5b908160209103126200010957518015158103620001095790565b506040513d6000823e3d90fd5b90815168010000000000000000811162000409575b6001928354828555808310620003db575b5060208091019084600052806000206000925b848410620003ae5750505050509050565b805182546001600160a01b0319166001600160a01b0391909116178255928601929086019082016200039d565b600085815285846020832093840193015b838110620003fd575050506200038a565b828155018690620003ec565b620004136200012b565b62000379565b156200042157565b60405162461bcd60e51b815260206004820152602960248201527f4d7573742068617665206174206c656173742074776f2064657374696e6174696044820152686f6e20636861696e7360b81b6064820152608490fd5b8051906801000000000000000082116200051c575b60065482600655808310620004e2575b50600660009081529060209060008051602062001d568339815191529082015b848410620004cc575050505050565b60018382829351855501920193019290620004bd565b6006600090815260008051602062001d568339815191529182019184015b828110620005105750506200049d565b81815560010162000500565b620005266200012b565b6200048d565b156200053457565b60405162461bcd60e51b815260206004820152603460248201527f54686520686f7374656420636861696e206d757374206265206f6e65206f662060448201527f74686520737570706f7274656420636861696e730000000000000000000000006064820152608490fd5b919490939293620005af62000744565b600491620005c08385511462000298565b600094855b60ff811685811015620006b55790816200061962000605620005f86200061162000605620005f86200066a988c62000312565b516001600160a01b031690565b6001600160a01b031690565b938b62000312565b6040805163095ea7b360e01b81526001600160a01b03909216828a01908152612710602082810191909152938492849283918f9183910103925af18015620006a5575b62000670575b5050620002f1565b620005c5565b816200069492903d106200069d575b6200068b818362000142565b8101906200033d565b50388062000662565b503d6200067f565b620006af62000357565b6200065c565b505094509562000296959250620006eb9150620006d6620007229462000364565b620006e5600182511162000419565b62000478565b62000700620006fa46620007a2565b6200052c565b600280546001600160a01b0319166001600160a01b0392909216919091179055565b600380546001600160a01b0319166001600160a01b0392909216919091179055565b60008054737e8ae5c72eca86946b695dcc211863d9721a09616001600160a01b031982168117835560405190926001600160a01b03909216917f8be0079c531659141344cd1fd0a4f28419497f9722a3daafe3b4186f6b6457e091a3565b60009060068054925b838110620007bc5750505050600090565b8160005282816020600020015414620007f4576001906000198114620007e4575b01620007ab565b620007ee620002da565b620007dd565b5050505060019056fe6040608081526004908136101561001557600080fd5b600090813560e01c9283632df9f3f7146100a85750505080634a3f2be01461009f5780634cf2ab32146100965780635cf568cd1461008d578063715018a6146100845780638da5cb5b1461007b5763f2fde38b14610073575b600080fd5b61006e6107c9565b5061006e6107a1565b5061006e610740565b5061006e6106da565b5061006e610688565b5061006e610595565b346103ef5760803660031901126103ef576024356100c581610474565b6100cd610485565b90606435926100ed60ff84168260018210159182610469575b50506108ed565b6101236101176101046100ff86610950565b610643565b90546001600160a01b039160031b1c1690565b6001600160a01b031690565b908551946331a9108f60e11b865261017060209687818061014b868883019190602083019252565b0381885afa90811561045c575b8a9161042f575b506001600160a01b03163314610992565b6101856101176002546001600160a01b031690565b8861019b6101176003546001600160a01b031690565b895163c002d23d60e01b81529092898287818a5afa918215610422575b83926103f3575b50803b156103ef578a51632770a7eb60e21b81526001600160a01b039094168685019081526020810192909252839182908490829060400103925af180156103e2575b6103cf575b50823b156103cb5786516323b872dd60e01b815233838201908152306020820152604081018390527f7fcd41b856b58df3f891055d587c8102c43582176268717046e94415617fcdf89761032595909290918b9082908190606001038183865af180156103be575b6103a5575b508851632084ab8360e01b81528481018481528390829081906020010381855afa928315610398575b8b93610369575b5050898951809263c87b56dd60e01b825281806102c8888a83019190602083019252565b03915afa90811561035c575b8a9161033a575b50811561032b57806102f06102f69251610ac8565b90611464565b905b6005549261030d61030885610afc565b600555565b895197889765ffffffffffff4216963390358a610b3d565b0390a151f35b50610334610a96565b906102f8565b61035691503d808c833e61034e81836104f3565b810190610a37565b8a6102db565b610364610985565b6102d4565b610389929350803d10610391575b61038181836104f3565b8101906109ed565b908a806102a4565b503d610377565b6103a0610985565b61029d565b806103b26103b8926104b6565b80610735565b8a610274565b6103c6610985565b61026f565b8780fd5b806103b26103dc926104b6565b88610207565b6103ea610985565b610202565b8280fd5b6104149192508a3d8c1161041b575b61040c81836104f3565b8101906109de565b908c6101bf565b503d610402565b61042a610985565b6101b8565b61044f9150883d8a11610455575b61044781836104f3565b810190610970565b8a61015f565b503d61043d565b610464610985565b610158565b1115905082896100e6565b6001600160a01b0381160361006e57565b6044359060ff8216820361006e57565b8015150361006e57565b50634e487b7160e01b600052604160045260246000fd5b67ffffffffffffffff81116104ca57604052565b6104d261049f565b604052565b6040810190811067ffffffffffffffff8211176104ca57604052565b90601f8019910116810190811067ffffffffffffffff8211176104ca57604052565b60209067ffffffffffffffff8111610533575b601f01601f19160190565b61053b61049f565b610528565b92919261054c82610515565b9161055a60405193846104f3565b82948184528183011161006e578281602093846000960137010152565b9080601f8301121561006e5781602061059293359101610540565b90565b503461006e5761010036600319011261006e576024356105b481610474565b6105bc610485565b90608435916105ca83610495565b67ffffffffffffffff9260a43584811161006e573660238201121561006e576105fd903690602481600401359101610540565b9060e43594851161006e5761061961062a953690600401610577565b9360c4359360643591600435610b9e565b005b50634e487b7160e01b600052603260045260246000fd5b60015481101561067b575b60016000527fb10e2d527612073b26eecdfd717e6a320cf44b4afac2b0732d9fcbe2b7fa0cf60190600090565b61068361062c565b61064e565b503461006e57602036600319011261006e5760043560065481101561006e5760209060066000527ff652222313e28459528d920b65115c16c04f3efc82aaedc97be59f3f377c0d3f0154604051908152f35b503461006e57602036600319011261006e5760043560015481101561006e576001600160a01b0360209160016000527fb10e2d527612073b26eecdfd717e6a320cf44b4afac2b0732d9fcbe2b7fa0cf6015416604051908152f35b600091031261006e57565b503461006e5760008060031936011261079e5761075b610895565b80546001600160a01b031981168255816001600160a01b0360405192167f8be0079c531659141344cd1fd0a4f28419497f9722a3daafe3b4186f6b6457e08284a3f35b80fd5b503461006e57600036600319011261006e5760206001600160a01b0360005416604051908152f35b503461006e57602036600319011261006e576004356107e781610474565b6107ef610895565b6001600160a01b0380911690811561084157600091825491816001600160a01b0319841617845560405192167f8be0079c531659141344cd1fd0a4f28419497f9722a3daafe3b4186f6b6457e08484a3f35b60405162461bcd60e51b815260206004820152602660248201527f4f776e61626c653a206e6577206f776e657220697320746865207a65726f206160448201526564647265737360d01b6064820152608490fd5b6001600160a01b036000541633036108a957565b606460405162461bcd60e51b815260206004820152602060248201527f4f776e61626c653a2063616c6c6572206973206e6f7420746865206f776e65726044820152fd5b156108f457565b60405162461bcd60e51b815260206004820152601260248201527f496e76616c69642063617264206c6576656c00000000000000000000000000006044820152606490fd5b50634e487b7160e01b600052601160045260246000fd5b60ff1660018110610963575b6000190190565b61096b610939565b61095c565b9081602091031261006e575161059281610474565b506040513d6000823e3d90fd5b1561099957565b60405162461bcd60e51b815260206004820152600e60248201527f4e6f742063617264206f776e65720000000000000000000000000000000000006044820152606490fd5b9081602091031261006e575190565b9081602091031261006e575161059281610495565b918091926000905b828210610a22575011610a1b575050565b6000910152565b91508060209183015181860152018291610a0a565b60208183031261006e5780519067ffffffffffffffff821161006e570181601f8201121561006e578051610a6a81610515565b92610a7860405194856104f3565b8184526020828401011161006e576105929160208085019101610a02565b604051906020820182811067ffffffffffffffff821117610abb575b60405260008252565b610ac361049f565b610ab2565b60058110610ad8575b6004190190565b610ae0610939565b610ad1565b818110610af0570390565b610af8610939565b0390565b6001906000198114610b0c570190565b610b14610939565b0190565b90602091610b3181518092818552858086019101610a02565b601f01601f1916010190565b9799989490610b929465ffffffffffff9793610100999560ff938c526001600160a01b0380921660208d01521660408b01521660608901526080880152151560a08701526101208060c0880152860190610b18565b9560e085015216910152565b90610bc797969594939291610bc260ff841660018110159081610bc9575b506108ed565b610ddc565b565b60049150111538610bbc565b93916076979695939185526bffffffffffffffffffffffff199060601b16602085015260ff60f81b9060f81b1660348401526035830152151560f81b6055820152610c2a825180936020605685019101610a02565b019060568201520190565b15610c3c57565b60405162461bcd60e51b815260206004820152601160248201527f496e76616c6964207369676e61747572650000000000000000000000000000006044820152606490fd5b15610c8857565b60405162461bcd60e51b815260206004820152601760248201527f565043206e6f74206f776e6564206279206272696467650000000000000000006044820152606490fd5b6001906001198111610b0c570190565b60405190610cea826104d7565b6001825260203681840137565b602090805115610d05570190565b610b1461062c565b604051610d19816104d7565b600181528060005b602080821015610d3c57906060602092828501015201610d21565b50505090565b906040820191604081528151809352606081019260208093019060005b818110610dc857505050818184039101528251908183528083019281808460051b8301019501936000915b848310610d9a5750505050505090565b9091929394958480610db8600193601f198682030187528a51610b18565b9801930193019194939290610d8a565b825186529484019491840191600101610d5f565b9492829897949293604095838751808a8c868a8960209d8e870198610e01968a610bd5565b03601f1981018252610e1390826104f3565b51902090610e2091611350565b9360009a8b54610e36906001600160a01b031690565b6001600160a01b03166001600160a01b0380971614610e5490610c35565b89610e698a6000526004602052604060002090565b6000918252602052604090205460ff166113245790610ecc6101176101046100ff8f979695610ec78f8f90610eab610eba926000526004602052604060002090565b90600052602052604060002090565b805460ff19166001179055565b610950565b8851633b330f2160e11b8082529197610f08918a816004818d5afa908115611317575b88916112fa575b50861090811591611298575b50610c81565b885181815288816004818b5afa90811561128b575b869161126e575b508410156111c1575b5080611165575b6110d7575b50833b156110d35785516323b872dd60e01b81523060048201526001600160a01b0393909316602484015260448301528160648183865af180156110c6575b6110b3575b50610f936101176003546001600160a01b031690565b90600483610fac6101176002546001600160a01b031690565b9286519283809263c002d23d60e01b82525afa9384156110a6575b8994611087575b5050813b156103cb5783516340c10f1960e01b81526001600160a01b03919091166004820152602481019290925294957f1aab301e8c9017b1d984dad0933c71fa7c467adbdf37196a9510d62045d84ece95611062939291908290604490829084905af1801561107a575b611067575b505192835260208301919091524265ffffffffffff16604083015281906060820190565b0390a1565b806103b2611074926104b6565b3861103e565b611082610985565b611039565b61109e929450803d1061041b5761040c81836104f3565b913880610fce565b6110ae610985565b610fc7565b806103b26110c0926104b6565b38610f7d565b6110ce610985565b610f78565b5080fd5b6110df610cdd565b826110e982610cf7565b526110f2610d0d565b916110fc83610cf7565b5261110682610cf7565b50853b156111615787516314f79e0160e21b81529184918391829161112f919060048401610d42565b038183895af18015611154575b15610f3957806103b261114e926104b6565b38610f39565b61115c610985565b61113c565b8380fd5b508651632084ab8360e01b8152600481018390528681602481895afa9081156111b4575b8491611197575b5015610f34565b6111ae9150873d89116103915761038181836104f3565b38611190565b6111bc610985565b611189565b6111eb6111f0918a5190815289816004818c5afa908115611261575b8791611244575b5085610ae5565b610ccd565b863b156112405788516302b140d360e41b815260048101919091528481602481838b5af18015611233575b15610f2d57806103b261122d926104b6565b38610f2d565b61123b610985565b61121b565b8480fd5b61125b91508a3d8c1161041b5761040c81836104f3565b386111e4565b611269610985565b6111dd565b6112859150893d8b1161041b5761040c81836104f3565b38610f24565b611293610985565b610f1d565b8b516331a9108f60e11b81526004810188905291508a826024818d5afa9182156112ed575b88926112ce575b5016301438610f02565b6112e69192508b3d8d116104555761044781836104f3565b90386112c4565b6112f5610985565b6112bd565b61131191508b3d8d1161041b5761040c81836104f3565b38610ef6565b61131f610985565b610eef565b505050505050505050509050565b6020929190611348849282815194859201610a02565b019081520190565b600090602092838101519060ff604160408301519201511692601b841061141d575b906113fb916113c36113d16040519261138a846104d7565b601c84527f19457468657265756d205369676e6564204d6573736167653a0a3332000000008a8501526040519283918b83019586611332565b03601f1981018352826104f3565b51902092604051948594859094939260ff6060936080840197845216602083015260408201520152565b838052039060015afa15611410575b60005190565b611418610985565b61140a565b9290601b8260e46113fb9411611438575b0193909150611372565b611440610939565b61142e565b90602091805182101561145757010190565b61145f61062c565b010190565b906043808210611515575b604219908183019361148085610515565b9461148e60405196876104f3565b80865261149d601f1991610515565b01366020870137815b8481106114b557505050505090565b611503907fff000000000000000000000000000000000000000000000000000000000000006114e48285611445565b5116848210611508575b60001a6114fd86830189611445565b53610afc565b6114a6565b611510610939565b6114ee565b61151d610939565b61146f56fea26469706673582212203d1f27de003a3e03e20205ecaa82c7913ea49b7969dc00b51888756fc65d1bd264736f6c634300080e0033f652222313e28459528d920b65115c16c04f3efc82aaedc97be59f3f377c0d3f",
  "devdoc": {
    "kind": "dev",
    "methods": {
      "owner()": {
        "details": "Returns the address of the current owner."
      },
      "renounceOwnership()": {
        "details": "Leaves the contract without owner. It will not be possible to call `onlyOwner` functions anymore. Can only be called by the current owner. NOTE: Renouncing ownership will leave the contract without an owner, thereby removing any functionality that is only available to the owner."
      },
      "transferOwnership(address)": {
        "details": "Transfers ownership of the contract to a new account (`newOwner`). Can only be called by the current owner."
      }
    },
    "version": 1
  },
  "userdoc": {
    "kind": "user",
    "methods": {},
    "version": 1
  },
  "storageLayout": {
    "storage": [
      {
        "astId": 8424,
        "contract": "contracts/voting/VPCBridge.sol:VPCBridge",
        "label": "_owner",
        "offset": 0,
        "slot": "0",
        "type": "t_address"
      },
      {
        "astId": 31631,
        "contract": "contracts/voting/VPCBridge.sol:VPCBridge",
        "label": "vpcs",
        "offset": 0,
        "slot": "1",
        "type": "t_array(t_contract(PERIv2)31078)dyn_storage"
      },
      {
        "astId": 31634,
        "contract": "contracts/voting/VPCBridge.sol:VPCBridge",
        "label": "curationRewardPool",
        "offset": 0,
        "slot": "2",
        "type": "t_contract(Vault)27506"
      },
      {
        "astId": 31637,
        "contract": "contracts/voting/VPCBridge.sol:VPCBridge",
        "label": "nend",
        "offset": 0,
        "slot": "3",
        "type": "t_contract(NEND)26482"
      },
      {
        "astId": 31678,
        "contract": "contracts/voting/VPCBridge.sol:VPCBridge",
        "label": "chainNonceToExecutedMapping",
        "offset": 0,
        "slot": "4",
        "type": "t_mapping(t_uint256,t_mapping(t_uint256,t_bool))"
      },
      {
        "astId": 31680,
        "contract": "contracts/voting/VPCBridge.sol:VPCBridge",
        "label": "nonce",
        "offset": 0,
        "slot": "5",
        "type": "t_uint256"
      },
      {
        "astId": 31683,
        "contract": "contracts/voting/VPCBridge.sol:VPCBridge",
        "label": "supportedChainIds",
        "offset": 0,
        "slot": "6",
        "type": "t_array(t_uint256)dyn_storage"
      }
    ],
    "types": {
      "t_address": {
        "encoding": "inplace",
        "label": "address",
        "numberOfBytes": "20"
      },
      "t_array(t_contract(PERIv2)31078)dyn_storage": {
        "base": "t_contract(PERIv2)31078",
        "encoding": "dynamic_array",
        "label": "contract PERIv2[]",
        "numberOfBytes": "32"
      },
      "t_array(t_uint256)dyn_storage": {
        "base": "t_uint256",
        "encoding": "dynamic_array",
        "label": "uint256[]",
        "numberOfBytes": "32"
      },
      "t_bool": {
        "encoding": "inplace",
        "label": "bool",
        "numberOfBytes": "1"
      },
      "t_contract(NEND)26482": {
        "encoding": "inplace",
        "label": "contract NEND",
        "numberOfBytes": "20"
      },
      "t_contract(PERIv2)31078": {
        "encoding": "inplace",
        "label": "contract PERIv2",
        "numberOfBytes": "20"
      },
      "t_contract(Vault)27506": {
        "encoding": "inplace",
        "label": "contract Vault",
        "numberOfBytes": "20"
      },
      "t_mapping(t_uint256,t_bool)": {
        "encoding": "mapping",
        "key": "t_uint256",
        "label": "mapping(uint256 => bool)",
        "numberOfBytes": "32",
        "value": "t_bool"
      },
      "t_mapping(t_uint256,t_mapping(t_uint256,t_bool))": {
        "encoding": "mapping",
        "key": "t_uint256",
        "label": "mapping(uint256 => mapping(uint256 => bool))",
        "numberOfBytes": "32",
        "value": "t_mapping(t_uint256,t_bool)"
      },
      "t_uint256": {
        "encoding": "inplace",
        "label": "uint256",
        "numberOfBytes": "32"
      }
    }
  }
}