{
  "address": "0x5E529a9a459535B0C144310aEF5a8624e79d2e67",
  "abi": [
    {
      "inputs": [],
      "name": "AlreadyClaimed",
      "type": "error"
    },
    {
      "inputs": [],
      "name": "InsufficientBalance",
      "type": "error"
    },
    {
      "inputs": [
        {
          "internalType": "string",
          "name": "details",
          "type": "string"
        }
      ],
      "name": "InvalidArgument",
      "type": "error"
    },
    {
      "inputs": [],
      "name": "InvalidState",
      "type": "error"
    },
    {
      "inputs": [],
      "name": "NoRewardsAvailable",
      "type": "error"
    },
    {
      "inputs": [],
      "name": "NoStakeYet",
      "type": "error"
    },
    {
      "inputs": [],
      "name": "NotOwned",
      "type": "error"
    },
    {
      "inputs": [],
      "name": "StakeNotFound",
      "type": "error"
    },
    {
      "inputs": [],
      "name": "Unauthorized",
      "type": "error"
    },
    {
      "anonymous": false,
      "inputs": [
        {
          "indexed": false,
          "internalType": "address",
          "name": "previousAdmin",
          "type": "address"
        },
        {
          "indexed": false,
          "internalType": "address",
          "name": "newAdmin",
          "type": "address"
        }
      ],
      "name": "AdminChanged",
      "type": "event"
    },
    {
      "anonymous": false,
      "inputs": [
        {
          "indexed": true,
          "internalType": "address",
          "name": "owner",
          "type": "address"
        },
        {
          "indexed": true,
          "internalType": "address",
          "name": "approved",
          "type": "address"
        },
        {
          "indexed": true,
          "internalType": "uint256",
          "name": "tokenId",
          "type": "uint256"
        }
      ],
      "name": "Approval",
      "type": "event"
    },
    {
      "anonymous": false,
      "inputs": [
        {
          "indexed": true,
          "internalType": "address",
          "name": "owner",
          "type": "address"
        },
        {
          "indexed": true,
          "internalType": "address",
          "name": "operator",
          "type": "address"
        },
        {
          "indexed": false,
          "internalType": "bool",
          "name": "approved",
          "type": "bool"
        }
      ],
      "name": "ApprovalForAll",
      "type": "event"
    },
    {
      "anonymous": false,
      "inputs": [
        {
          "indexed": false,
          "internalType": "uint256",
          "name": "_fromTokenId",
          "type": "uint256"
        },
        {
          "indexed": false,
          "internalType": "uint256",
          "name": "_toTokenId",
          "type": "uint256"
        }
      ],
      "name": "BatchMetadataUpdate",
      "type": "event"
    },
    {
      "anonymous": false,
      "inputs": [
        {
          "indexed": true,
          "internalType": "uint256",
          "name": "startId",
          "type": "uint256"
        },
        {
          "indexed": false,
          "internalType": "uint256",
          "name": "endId",
          "type": "uint256"
        }
      ],
      "name": "BatchMigrationCompleted",
      "type": "event"
    },
    {
      "anonymous": false,
      "inputs": [
        {
          "indexed": true,
          "internalType": "address",
          "name": "beacon",
          "type": "address"
        }
      ],
      "name": "BeaconUpgraded",
      "type": "event"
    },
    {
      "anonymous": false,
      "inputs": [
        {
          "indexed": true,
          "internalType": "uint256",
          "name": "stakeId",
          "type": "uint256"
        },
        {
          "indexed": false,
          "internalType": "enum ILendingPoolStakingV2.EscrowStatus",
          "name": "status",
          "type": "uint8"
        }
      ],
      "name": "EscrowStatusChanged",
      "type": "event"
    },
    {
      "anonymous": false,
      "inputs": [],
      "name": "InflationRewardDistributed",
      "type": "event"
    },
    {
      "anonymous": false,
      "inputs": [
        {
          "indexed": false,
          "internalType": "uint8",
          "name": "version",
          "type": "uint8"
        }
      ],
      "name": "Initialized",
      "type": "event"
    },
    {
      "anonymous": false,
      "inputs": [
        {
          "indexed": false,
          "internalType": "uint256",
          "name": "_tokenId",
          "type": "uint256"
        }
      ],
      "name": "MetadataUpdate",
      "type": "event"
    },
    {
      "anonymous": false,
      "inputs": [
        {
          "indexed": false,
          "internalType": "uint64",
          "name": "periodId",
          "type": "uint64"
        },
        {
          "indexed": false,
          "internalType": "uint64",
          "name": "timestamp",
          "type": "uint64"
        }
      ],
      "name": "NewPeriodStarted",
      "type": "event"
    },
    {
      "anonymous": false,
      "inputs": [
        {
          "indexed": true,
          "internalType": "address",
          "name": "previousOwner",
          "type": "address"
        },
        {
          "indexed": true,
          "internalType": "address",
          "name": "newOwner",
          "type": "address"
        }
      ],
      "name": "OwnershipTransferred",
      "type": "event"
    },
    {
      "anonymous": false,
      "inputs": [
        {
          "indexed": true,
          "internalType": "uint256",
          "name": "stakeId",
          "type": "uint256"
        },
        {
          "indexed": true,
          "internalType": "address",
          "name": "user",
          "type": "address"
        },
        {
          "indexed": true,
          "internalType": "address",
          "name": "token",
          "type": "address"
        },
        {
          "indexed": false,
          "internalType": "uint256",
          "name": "inflationReward",
          "type": "uint256"
        },
        {
          "indexed": false,
          "internalType": "uint256",
          "name": "ifpReward",
          "type": "uint256"
        },
        {
          "indexed": false,
          "internalType": "uint64",
          "name": "periodId",
          "type": "uint64"
        }
      ],
      "name": "RewardsClaimed",
      "type": "event"
    },
    {
      "anonymous": false,
      "inputs": [
        {
          "indexed": true,
          "internalType": "uint256",
          "name": "stakeId",
          "type": "uint256"
        },
        {
          "indexed": false,
          "internalType": "enum ILendingPoolStakingV2.StakeStatus",
          "name": "status",
          "type": "uint8"
        }
      ],
      "name": "StakeStatusChanged",
      "type": "event"
    },
    {
      "anonymous": false,
      "inputs": [
        {
          "indexed": true,
          "internalType": "uint256",
          "name": "stakeId",
          "type": "uint256"
        },
        {
          "indexed": true,
          "internalType": "address",
          "name": "staker",
          "type": "address"
        },
        {
          "indexed": true,
          "internalType": "address",
          "name": "token",
          "type": "address"
        },
        {
          "indexed": false,
          "internalType": "uint48",
          "name": "start",
          "type": "uint48"
        },
        {
          "indexed": false,
          "internalType": "uint48",
          "name": "end",
          "type": "uint48"
        },
        {
          "indexed": false,
          "internalType": "uint256[3]",
          "name": "amountsPerDuration",
          "type": "uint256[3]"
        },
        {
          "indexed": false,
          "internalType": "bool",
          "name": "isEscrow",
          "type": "bool"
        }
      ],
      "name": "Staked",
      "type": "event"
    },
    {
      "anonymous": false,
      "inputs": [
        {
          "indexed": true,
          "internalType": "address",
          "name": "from",
          "type": "address"
        },
        {
          "indexed": true,
          "internalType": "address",
          "name": "to",
          "type": "address"
        },
        {
          "indexed": true,
          "internalType": "uint256",
          "name": "tokenId",
          "type": "uint256"
        }
      ],
      "name": "Transfer",
      "type": "event"
    },
    {
      "anonymous": false,
      "inputs": [
        {
          "indexed": true,
          "internalType": "address",
          "name": "implementation",
          "type": "address"
        }
      ],
      "name": "Upgraded",
      "type": "event"
    },
    {
      "inputs": [],
      "name": "REWARD_PERIOD_LENGTH",
      "outputs": [
        {
          "internalType": "uint8",
          "name": "",
          "type": "uint8"
        }
      ],
      "stateMutability": "view",
      "type": "function"
    },
    {
      "inputs": [],
      "name": "__Testing_init",
      "outputs": [],
      "stateMutability": "nonpayable",
      "type": "function"
    },
    {
      "inputs": [
        {
          "internalType": "address",
          "name": "",
          "type": "address"
        }
      ],
      "name": "activeStakeTokens",
      "outputs": [
        {
          "internalType": "bool",
          "name": "",
          "type": "bool"
        }
      ],
      "stateMutability": "view",
      "type": "function"
    },
    {
      "inputs": [],
      "name": "activeStakesCount",
      "outputs": [
        {
          "internalType": "uint256",
          "name": "",
          "type": "uint256"
        }
      ],
      "stateMutability": "view",
      "type": "function"
    },
    {
      "inputs": [
        {
          "internalType": "address",
          "name": "_stakeToken",
          "type": "address"
        }
      ],
      "name": "addStakeToken",
      "outputs": [],
      "stateMutability": "nonpayable",
      "type": "function"
    },
    {
      "inputs": [
        {
          "internalType": "address",
          "name": "to",
          "type": "address"
        },
        {
          "internalType": "uint256",
          "name": "tokenId",
          "type": "uint256"
        }
      ],
      "name": "approve",
      "outputs": [],
      "stateMutability": "nonpayable",
      "type": "function"
    },
    {
      "inputs": [
        {
          "internalType": "address",
          "name": "operator",
          "type": "address"
        },
        {
          "internalType": "string",
          "name": "role",
          "type": "string"
        },
        {
          "internalType": "bool",
          "name": "authorized",
          "type": "bool"
        }
      ],
      "name": "authorize",
      "outputs": [],
      "stateMutability": "nonpayable",
      "type": "function"
    },
    {
      "inputs": [
        {
          "internalType": "address",
          "name": "owner",
          "type": "address"
        }
      ],
      "name": "balanceOf",
      "outputs": [
        {
          "internalType": "uint256",
          "name": "",
          "type": "uint256"
        }
      ],
      "stateMutability": "view",
      "type": "function"
    },
    {
      "inputs": [
        {
          "internalType": "address",
          "name": "_token",
          "type": "address"
        }
      ],
      "name": "claim",
      "outputs": [],
      "stateMutability": "nonpayable",
      "type": "function"
    },
    {
      "inputs": [
        {
          "internalType": "address",
          "name": "_token",
          "type": "address"
        },
        {
          "internalType": "uint256",
          "name": "_amount",
          "type": "uint256"
        },
        {
          "internalType": "uint8",
          "name": "_durationId",
          "type": "uint8"
        }
      ],
      "name": "deposit",
      "outputs": [],
      "stateMutability": "payable",
      "type": "function"
    },
    {
      "inputs": [
        {
          "internalType": "uint256",
          "name": "_inflationReward",
          "type": "uint256"
        }
      ],
      "name": "distributeInflationRewards",
      "outputs": [],
      "stateMutability": "nonpayable",
      "type": "function"
    },
    {
      "inputs": [],
      "name": "escrowLockPeriod",
      "outputs": [
        {
          "internalType": "uint48",
          "name": "",
          "type": "uint48"
        }
      ],
      "stateMutability": "view",
      "type": "function"
    },
    {
      "inputs": [
        {
          "internalType": "uint256",
          "name": "tokenId",
          "type": "uint256"
        }
      ],
      "name": "getApproved",
      "outputs": [
        {
          "internalType": "address",
          "name": "",
          "type": "address"
        }
      ],
      "stateMutability": "view",
      "type": "function"
    },
    {
      "inputs": [
        {
          "internalType": "address",
          "name": "_user",
          "type": "address"
        },
        {
          "internalType": "address",
          "name": "_token",
          "type": "address"
        }
      ],
      "name": "getClaimableRewards",
      "outputs": [
        {
          "internalType": "uint256",
          "name": "inflationReward",
          "type": "uint256"
        },
        {
          "internalType": "uint256",
          "name": "ifpReward",
          "type": "uint256"
        }
      ],
      "stateMutability": "view",
      "type": "function"
    },
    {
      "inputs": [],
      "name": "getCurrentPeriodId",
      "outputs": [
        {
          "internalType": "uint256",
          "name": "",
          "type": "uint256"
        }
      ],
      "stateMutability": "view",
      "type": "function"
    },
    {
      "inputs": [],
      "name": "getPoolRollOver",
      "outputs": [
        {
          "internalType": "uint256",
          "name": "inflationRewardRemained",
          "type": "uint256"
        }
      ],
      "stateMutability": "view",
      "type": "function"
    },
    {
      "inputs": [
        {
          "internalType": "address",
          "name": "_user",
          "type": "address"
        },
        {
          "internalType": "uint256",
          "name": "_index",
          "type": "uint256"
        }
      ],
      "name": "getStakeByUserIndex",
      "outputs": [
        {
          "components": [
            {
              "internalType": "address",
              "name": "staker",
              "type": "address"
            },
            {
              "internalType": "address",
              "name": "token",
              "type": "address"
            },
            {
              "internalType": "uint48",
              "name": "start",
              "type": "uint48"
            },
            {
              "internalType": "uint48",
              "name": "end",
              "type": "uint48"
            },
            {
              "internalType": "uint256[3]",
              "name": "amountsPerDuration",
              "type": "uint256[3]"
            },
            {
              "internalType": "uint256",
              "name": "rewardAllocated",
              "type": "uint256"
            },
            {
              "internalType": "bool",
              "name": "isEscrow",
              "type": "bool"
            },
            {
              "internalType": "enum ILendingPoolStakingV2.EscrowStatus",
              "name": "escrowStatus",
              "type": "uint8"
            },
            {
              "internalType": "enum ILendingPoolStakingV2.StakeStatus",
              "name": "stakeStatus",
              "type": "uint8"
            }
          ],
          "internalType": "struct ILendingPoolStakingV2.Stake",
          "name": "",
          "type": "tuple"
        }
      ],
      "stateMutability": "view",
      "type": "function"
    },
    {
      "inputs": [
        {
          "internalType": "uint256",
          "name": "_stakeId",
          "type": "uint256"
        }
      ],
      "name": "getStakeEntry",
      "outputs": [
        {
          "components": [
            {
              "internalType": "address",
              "name": "user",
              "type": "address"
            },
            {
              "internalType": "uint256",
              "name": "userIndex",
              "type": "uint256"
            },
            {
              "internalType": "uint256",
              "name": "stakeId",
              "type": "uint256"
            },
            {
              "internalType": "bool",
              "name": "exists",
              "type": "bool"
            }
          ],
          "internalType": "struct ILendingPoolStakingV2.StakeMappingEntry",
          "name": "",
          "type": "tuple"
        }
      ],
      "stateMutability": "view",
      "type": "function"
    },
    {
      "inputs": [
        {
          "internalType": "address",
          "name": "_user",
          "type": "address"
        },
        {
          "internalType": "uint256",
          "name": "_userIndex",
          "type": "uint256"
        }
      ],
      "name": "getUserStakeId",
      "outputs": [
        {
          "internalType": "uint256",
          "name": "",
          "type": "uint256"
        }
      ],
      "stateMutability": "view",
      "type": "function"
    },
    {
      "inputs": [
        {
          "internalType": "uint256",
          "name": "_stakeId",
          "type": "uint256"
        }
      ],
      "name": "getUserStakeIndex",
      "outputs": [
        {
          "internalType": "uint256",
          "name": "",
          "type": "uint256"
        }
      ],
      "stateMutability": "view",
      "type": "function"
    },
    {
      "inputs": [
        {
          "internalType": "address",
          "name": "_user",
          "type": "address"
        },
        {
          "internalType": "address",
          "name": "_token",
          "type": "address"
        }
      ],
      "name": "getUserStakesTotal",
      "outputs": [
        {
          "internalType": "uint256",
          "name": "",
          "type": "uint256"
        }
      ],
      "stateMutability": "view",
      "type": "function"
    },
    {
      "inputs": [
        {
          "internalType": "address",
          "name": "",
          "type": "address"
        },
        {
          "internalType": "string",
          "name": "",
          "type": "string"
        }
      ],
      "name": "hasRole",
      "outputs": [
        {
          "internalType": "bool",
          "name": "",
          "type": "bool"
        }
      ],
      "stateMutability": "view",
      "type": "function"
    },
    {
      "inputs": [
        {
          "internalType": "address",
          "name": "",
          "type": "address"
        }
      ],
      "name": "inflationRollOver",
      "outputs": [
        {
          "internalType": "uint256",
          "name": "",
          "type": "uint256"
        }
      ],
      "stateMutability": "view",
      "type": "function"
    },
    {
      "inputs": [
        {
          "internalType": "address",
          "name": "_nend",
          "type": "address"
        },
        {
          "internalType": "contract Vault",
          "name": "_lendingPool",
          "type": "address"
        }
      ],
      "name": "initialize",
      "outputs": [],
      "stateMutability": "nonpayable",
      "type": "function"
    },
    {
      "inputs": [
        {
          "internalType": "address",
          "name": "owner",
          "type": "address"
        },
        {
          "internalType": "address",
          "name": "operator",
          "type": "address"
        }
      ],
      "name": "isApprovedForAll",
      "outputs": [
        {
          "internalType": "bool",
          "name": "",
          "type": "bool"
        }
      ],
      "stateMutability": "view",
      "type": "function"
    },
    {
      "inputs": [
        {
          "internalType": "uint256",
          "name": "_stakeId",
          "type": "uint256"
        }
      ],
      "name": "issueEAB",
      "outputs": [],
      "stateMutability": "nonpayable",
      "type": "function"
    },
    {
      "inputs": [
        {
          "internalType": "address",
          "name": "",
          "type": "address"
        },
        {
          "internalType": "uint8",
          "name": "",
          "type": "uint8"
        }
      ],
      "name": "lastEscrowRewardByToken_Duration",
      "outputs": [
        {
          "internalType": "uint256",
          "name": "",
          "type": "uint256"
        }
      ],
      "stateMutability": "view",
      "type": "function"
    },
    {
      "inputs": [],
      "name": "lendingPool",
      "outputs": [
        {
          "internalType": "contract Vault",
          "name": "",
          "type": "address"
        }
      ],
      "stateMutability": "view",
      "type": "function"
    },
    {
      "inputs": [
        {
          "internalType": "uint256",
          "name": "startId",
          "type": "uint256"
        },
        {
          "internalType": "uint256",
          "name": "batchSize",
          "type": "uint256"
        }
      ],
      "name": "migrateStakesInBatch",
      "outputs": [],
      "stateMutability": "nonpayable",
      "type": "function"
    },
    {
      "inputs": [],
      "name": "name",
      "outputs": [
        {
          "internalType": "string",
          "name": "",
          "type": "string"
        }
      ],
      "stateMutability": "view",
      "type": "function"
    },
    {
      "inputs": [],
      "name": "nend",
      "outputs": [
        {
          "internalType": "address",
          "name": "",
          "type": "address"
        }
      ],
      "stateMutability": "view",
      "type": "function"
    },
    {
      "inputs": [],
      "name": "nextStakeId",
      "outputs": [
        {
          "internalType": "uint256",
          "name": "",
          "type": "uint256"
        }
      ],
      "stateMutability": "view",
      "type": "function"
    },
    {
      "inputs": [],
      "name": "owner",
      "outputs": [
        {
          "internalType": "address",
          "name": "",
          "type": "address"
        }
      ],
      "stateMutability": "view",
      "type": "function"
    },
    {
      "inputs": [
        {
          "internalType": "uint256",
          "name": "tokenId",
          "type": "uint256"
        }
      ],
      "name": "ownerOf",
      "outputs": [
        {
          "internalType": "address",
          "name": "",
          "type": "address"
        }
      ],
      "stateMutability": "view",
      "type": "function"
    },
    {
      "inputs": [],
      "name": "poolRollOver",
      "outputs": [
        {
          "internalType": "uint256",
          "name": "",
          "type": "uint256"
        }
      ],
      "stateMutability": "view",
      "type": "function"
    },
    {
      "inputs": [],
      "name": "proxiableUUID",
      "outputs": [
        {
          "internalType": "bytes32",
          "name": "",
          "type": "bytes32"
        }
      ],
      "stateMutability": "view",
      "type": "function"
    },
    {
      "inputs": [
        {
          "internalType": "uint256",
          "name": "",
          "type": "uint256"
        }
      ],
      "name": "recentPeriods",
      "outputs": [
        {
          "internalType": "uint64",
          "name": "periodId",
          "type": "uint64"
        },
        {
          "internalType": "uint64",
          "name": "startTime",
          "type": "uint64"
        },
        {
          "internalType": "uint256",
          "name": "rewardsToDistribute",
          "type": "uint256"
        },
        {
          "internalType": "uint256",
          "name": "rewardsStaked",
          "type": "uint256"
        }
      ],
      "stateMutability": "view",
      "type": "function"
    },
    {
      "inputs": [
        {
          "internalType": "address",
          "name": "_stakeToken",
          "type": "address"
        }
      ],
      "name": "removeStakeToken",
      "outputs": [],
      "stateMutability": "nonpayable",
      "type": "function"
    },
    {
      "inputs": [],
      "name": "renounceOwnership",
      "outputs": [],
      "stateMutability": "nonpayable",
      "type": "function"
    },
    {
      "inputs": [
        {
          "internalType": "uint256",
          "name": "",
          "type": "uint256"
        }
      ],
      "name": "rewardAllocations",
      "outputs": [
        {
          "internalType": "uint8",
          "name": "",
          "type": "uint8"
        }
      ],
      "stateMutability": "view",
      "type": "function"
    },
    {
      "inputs": [
        {
          "internalType": "address",
          "name": "from",
          "type": "address"
        },
        {
          "internalType": "address",
          "name": "to",
          "type": "address"
        },
        {
          "internalType": "uint256",
          "name": "tokenId",
          "type": "uint256"
        }
      ],
      "name": "safeTransferFrom",
      "outputs": [],
      "stateMutability": "nonpayable",
      "type": "function"
    },
    {
      "inputs": [
        {
          "internalType": "address",
          "name": "from",
          "type": "address"
        },
        {
          "internalType": "address",
          "name": "to",
          "type": "address"
        },
        {
          "internalType": "uint256",
          "name": "tokenId",
          "type": "uint256"
        },
        {
          "internalType": "bytes",
          "name": "data",
          "type": "bytes"
        }
      ],
      "name": "safeTransferFrom",
      "outputs": [],
      "stateMutability": "nonpayable",
      "type": "function"
    },
    {
      "inputs": [
        {
          "internalType": "address",
          "name": "operator",
          "type": "address"
        },
        {
          "internalType": "bool",
          "name": "approved",
          "type": "bool"
        }
      ],
      "name": "setApprovalForAll",
      "outputs": [],
      "stateMutability": "nonpayable",
      "type": "function"
    },
    {
      "inputs": [
        {
          "internalType": "uint8[3]",
          "name": "_rewardAllocations",
          "type": "uint8[3]"
        }
      ],
      "name": "setRewardAllocations",
      "outputs": [],
      "stateMutability": "nonpayable",
      "type": "function"
    },
    {
      "inputs": [
        {
          "internalType": "bool",
          "name": "_deprecated",
          "type": "bool"
        }
      ],
      "name": "setStakesDeprecated",
      "outputs": [],
      "stateMutability": "nonpayable",
      "type": "function"
    },
    {
      "inputs": [
        {
          "internalType": "bool",
          "name": "_testing",
          "type": "bool"
        }
      ],
      "name": "setTesting",
      "outputs": [],
      "stateMutability": "nonpayable",
      "type": "function"
    },
    {
      "inputs": [
        {
          "internalType": "uint256",
          "name": "_tokenId",
          "type": "uint256"
        },
        {
          "internalType": "string",
          "name": "_tokenURI",
          "type": "string"
        }
      ],
      "name": "setTokenURI",
      "outputs": [],
      "stateMutability": "nonpayable",
      "type": "function"
    },
    {
      "inputs": [
        {
          "internalType": "uint256",
          "name": "",
          "type": "uint256"
        }
      ],
      "name": "stakeDurations",
      "outputs": [
        {
          "internalType": "uint48",
          "name": "",
          "type": "uint48"
        }
      ],
      "stateMutability": "view",
      "type": "function"
    },
    {
      "inputs": [
        {
          "internalType": "uint256",
          "name": "_stakeId",
          "type": "uint256"
        }
      ],
      "name": "stakeEscrowedReward",
      "outputs": [],
      "stateMutability": "nonpayable",
      "type": "function"
    },
    {
      "inputs": [],
      "name": "stakeTokenCount",
      "outputs": [
        {
          "internalType": "uint256",
          "name": "",
          "type": "uint256"
        }
      ],
      "stateMutability": "view",
      "type": "function"
    },
    {
      "inputs": [
        {
          "internalType": "uint256",
          "name": "",
          "type": "uint256"
        }
      ],
      "name": "stakeTokens",
      "outputs": [
        {
          "internalType": "address",
          "name": "",
          "type": "address"
        }
      ],
      "stateMutability": "view",
      "type": "function"
    },
    {
      "inputs": [
        {
          "internalType": "uint256",
          "name": "",
          "type": "uint256"
        }
      ],
      "name": "stakes",
      "outputs": [
        {
          "internalType": "address",
          "name": "staker",
          "type": "address"
        },
        {
          "internalType": "address",
          "name": "token",
          "type": "address"
        },
        {
          "internalType": "uint48",
          "name": "start",
          "type": "uint48"
        },
        {
          "internalType": "uint48",
          "name": "end",
          "type": "uint48"
        },
        {
          "internalType": "uint256",
          "name": "rewardAllocated",
          "type": "uint256"
        },
        {
          "internalType": "bool",
          "name": "isEscrow",
          "type": "bool"
        },
        {
          "internalType": "enum ILendingPoolStakingV2.EscrowStatus",
          "name": "escrowStatus",
          "type": "uint8"
        },
        {
          "internalType": "enum ILendingPoolStakingV2.StakeStatus",
          "name": "stakeStatus",
          "type": "uint8"
        }
      ],
      "stateMutability": "view",
      "type": "function"
    },
    {
      "inputs": [],
      "name": "stakesDeprecated",
      "outputs": [
        {
          "internalType": "bool",
          "name": "",
          "type": "bool"
        }
      ],
      "stateMutability": "view",
      "type": "function"
    },
    {
      "inputs": [
        {
          "internalType": "bytes4",
          "name": "interfaceId",
          "type": "bytes4"
        }
      ],
      "name": "supportsInterface",
      "outputs": [
        {
          "internalType": "bool",
          "name": "",
          "type": "bool"
        }
      ],
      "stateMutability": "view",
      "type": "function"
    },
    {
      "inputs": [],
      "name": "symbol",
      "outputs": [
        {
          "internalType": "string",
          "name": "",
          "type": "string"
        }
      ],
      "stateMutability": "view",
      "type": "function"
    },
    {
      "inputs": [],
      "name": "testing",
      "outputs": [
        {
          "internalType": "bool",
          "name": "",
          "type": "bool"
        }
      ],
      "stateMutability": "view",
      "type": "function"
    },
    {
      "inputs": [
        {
          "internalType": "uint256",
          "name": "tokenId",
          "type": "uint256"
        }
      ],
      "name": "tokenURI",
      "outputs": [
        {
          "internalType": "string",
          "name": "",
          "type": "string"
        }
      ],
      "stateMutability": "view",
      "type": "function"
    },
    {
      "inputs": [
        {
          "internalType": "address",
          "name": "",
          "type": "address"
        },
        {
          "internalType": "uint8",
          "name": "",
          "type": "uint8"
        }
      ],
      "name": "totalStakedByToken_Duration",
      "outputs": [
        {
          "internalType": "uint256",
          "name": "",
          "type": "uint256"
        }
      ],
      "stateMutability": "view",
      "type": "function"
    },
    {
      "inputs": [
        {
          "internalType": "address",
          "name": "from",
          "type": "address"
        },
        {
          "internalType": "address",
          "name": "to",
          "type": "address"
        },
        {
          "internalType": "uint256",
          "name": "tokenId",
          "type": "uint256"
        }
      ],
      "name": "transferFrom",
      "outputs": [],
      "stateMutability": "nonpayable",
      "type": "function"
    },
    {
      "inputs": [
        {
          "internalType": "address",
          "name": "newOwner",
          "type": "address"
        }
      ],
      "name": "transferOwnership",
      "outputs": [],
      "stateMutability": "nonpayable",
      "type": "function"
    },
    {
      "inputs": [
        {
          "internalType": "uint256",
          "name": "_stakeId",
          "type": "uint256"
        }
      ],
      "name": "unstake",
      "outputs": [],
      "stateMutability": "nonpayable",
      "type": "function"
    },
    {
      "inputs": [
        {
          "internalType": "address",
          "name": "newImplementation",
          "type": "address"
        }
      ],
      "name": "upgradeTo",
      "outputs": [],
      "stateMutability": "nonpayable",
      "type": "function"
    },
    {
      "inputs": [
        {
          "internalType": "address",
          "name": "newImplementation",
          "type": "address"
        },
        {
          "internalType": "bytes",
          "name": "data",
          "type": "bytes"
        }
      ],
      "name": "upgradeToAndCall",
      "outputs": [],
      "stateMutability": "payable",
      "type": "function"
    },
    {
      "inputs": [
        {
          "internalType": "address",
          "name": "",
          "type": "address"
        },
        {
          "internalType": "uint256",
          "name": "",
          "type": "uint256"
        }
      ],
      "name": "userStakesById",
      "outputs": [
        {
          "internalType": "address",
          "name": "staker",
          "type": "address"
        },
        {
          "internalType": "address",
          "name": "token",
          "type": "address"
        },
        {
          "internalType": "uint48",
          "name": "start",
          "type": "uint48"
        },
        {
          "internalType": "uint48",
          "name": "end",
          "type": "uint48"
        },
        {
          "internalType": "uint256",
          "name": "rewardAllocated",
          "type": "uint256"
        },
        {
          "internalType": "bool",
          "name": "isEscrow",
          "type": "bool"
        },
        {
          "internalType": "enum ILendingPoolStakingV2.EscrowStatus",
          "name": "escrowStatus",
          "type": "uint8"
        },
        {
          "internalType": "enum ILendingPoolStakingV2.StakeStatus",
          "name": "stakeStatus",
          "type": "uint8"
        }
      ],
      "stateMutability": "view",
      "type": "function"
    },
    {
      "inputs": [
        {
          "internalType": "address",
          "name": "",
          "type": "address"
        }
      ],
      "name": "userStakesCount",
      "outputs": [
        {
          "internalType": "uint256",
          "name": "",
          "type": "uint256"
        }
      ],
      "stateMutability": "view",
      "type": "function"
    }
  ],
  "transactionHash": "0x2fe4f1495cfe152e8d3d16e319d1f4ff65aa59e4184337884e52a3008b7e34ab",
  "args": [],
  "numDeployments": 17,
  "solcInputHash": "49b3d9c2bb822e047dc3cc8b353e4c3c",
  "bytecode": "0x60a0604052346200011e576000546200003260ff8260081c1615809281936200010f575b8115620000ec575b5062000123565b8062000046600160ff196000541617600055565b620000d1575b6200005c60ff1960fb541660fb55565b6200008d575b30608052604051615fc7908162000188823960805181818161189a0152818161215001526123ea0152f35b6200009e61ff001960005416600055565b604051600181527f7f26b83ff96e1f2b6a682f133852f6798a09c465da95921460cefb384740249890602090a162000062565b620000e661010061ff00196000541617600055565b6200004c565b303b1591508162000100575b50386200002b565b6001915060ff161438620000f8565b600160ff821610915062000023565b600080fd5b156200012b57565b60405162461bcd60e51b815260206004820152602e60248201527f496e697469616c697a61626c653a20636f6e747261637420697320616c72656160448201526d191e481a5b9a5d1a585b1a5e995960921b6064820152608490fdfe60806040526004361015610013575b600080fd5b60003560e01c806301ffc9a71461052757806306fdde031461051e578063081812fc1461051557806308ed8d161461050c578063095ea7b314610503578063125cc42f146104fa578063162094c4146104f1578063166866c7146104e8578063193cf2bf146104df5780631dbd2086146104d65780631e83409a146104cd5780631fecb71a146104c4578063217fe6c6146104bb5780632372b28a146104b257806323b872dd146104a9578063273d87e2146104a05780632e17de78146104975780633431d6311461048e5780633659cfe614610485578063396b62471461047c57806339d2525f146104735780633c661b8b1461046a5780633de15c121461046157806342842e0e14610458578063485cc9551461044f5780634f1ef28614610446578063528a9e4d1461043d57806352d1902d146104345780635413aa3b1461042b5780636352211e1461042257806370a0823114610419578063715018a61461041057806372a4db4a146104075780637547c7a3146103fe57806375506c96146103f557806382952200146103ec578063848778b4146103e35780638d03b102146103da5780638da5cb5b146103d157806395d89b41146103c85780639db5fa65146103bf578063a22cb465146103b6578063a59a9973146103ad578063b5bc8534146103a4578063b88d4fde1461039b578063ba5e4bad14610392578063bad7edab14610389578063bf02155014610380578063c1592dbc14610377578063c436e3181461036e578063c51046a314610365578063c87b56dd1461035c578063d2438c2a14610353578063d495caaa1461034a578063d5a44f8614610341578063d88fe69914610338578063d909087e1461032f578063de3e3eff14610326578063e25b7d821461031d578063e985e9c514610314578063ef7bd7f31461030b578063f19ed6be14610302578063f2fde38b146102f9578063f56f4f0f146102f05763fe863ac1146102e857600080fd5b61000e6137f4565b5061000e6136a8565b5061000e613616565b5061000e613259565b5061000e613239565b5061000e6131e9565b5061000e6131c1565b5061000e61317d565b5061000e6130c3565b5061000e613063565b5061000e612fc9565b5061000e612e7a565b5061000e612d4b565b5061000e612d17565b5061000e612cf0565b5061000e612cd0565b5061000e612c90565b5061000e612c3c565b5061000e612b4e565b5061000e612b2e565b5061000e612ad6565b5061000e612ab1565b5061000e612a88565b5061000e612996565b5061000e612939565b5061000e612891565b5061000e612869565b5061000e612845565b5061000e612805565b5061000e6127dc565b5061000e6127bc565b5061000e612760565b5061000e6126be565b5061000e612630565b5061000e61258a565b5061000e61256b565b5061000e6124a6565b5061000e6123ce565b5061000e6122a4565b5061000e61210a565b5061000e612010565b5061000e611fe7565b5061000e611b4a565b5061000e611b0e565b5061000e611a32565b5061000e611a03565b5061000e611870565b5061000e61182e565b5061000e6114c5565b5061000e6112eb565b5061000e6112c1565b5061000e611193565b5061000e6110df565b5061000e611040565b5061000e610e21565b5061000e610e04565b5061000e610d49565b5061000e610c75565b5061000e610a5c565b5061000e6108a2565b5061000e6107a9565b5061000e61075b565b5061000e610721565b5061000e610644565b5061000e610542565b6001600160e01b031981160361000e57565b503461000e57602036600319011261000e57602060043561056281610530565b63ffffffff60e01b16632483248360e11b8114908115610588575b506040519015158152f35b6380ac58cd60e01b8114915081156105ba575b81156105a9575b503861057d565b6301ffc9a760e01b149050386105a2565b635b5e139f60e01b8114915061059b565b600091031261000e57565b918091926000905b8282106105f65750116105ef575050565b6000910152565b915080602091830151818601520182916105de565b90602091610624815180928185528580860191016105d6565b601f01601f1916010190565b90602061064192818152019061060b565b90565b503461000e5760008060031936011261071e57604051908060655461066881613c52565b808552916001918083169081156106fd57506001146106a2575b61069e85610692818703826109ac565b60405191829182610630565b0390f35b9250606583527f8ff97419363ffd7000167f130ef7168fbea05faf9251824ca5043f113cc6a7c75b8284106106e55750505081016020016106928261069e610682565b805460208587018101919091529093019281016106ca565b60ff191660208701525050604084019250610692915083905061069e610682565b80fd5b503461000e57602036600319011261000e576020610740600435613cfe565b6001600160a01b0360405191168152f35b8015150361000e57565b503461000e57602036600319011261000e5760043561077981610751565b610781613842565b60ff801960fb5416911515161760fb556000604051f35b6001600160a01b0381160361000e57565b503461000e57604036600319011261000e576004356107c781610798565b6024356107d381613c30565b916001600160a01b0380841680918316146108535761080593610800913314908115610807575b50613c8c565b614073565b005b61084d91506108469061082e33916001600160a01b0316600052606a602052604060002090565b906001600160a01b0316600052602052604060002090565b5460ff1690565b386107fa565b60405162461bcd60e51b815260206004820152602160248201527f4552433732313a20617070726f76616c20746f2063757272656e74206f776e656044820152603960f91b6064820152608490fd5b503461000e57602036600319011261000e576001600160a01b036004356108c881610798565b16600052610163602052602060ff604060002054166040519015158152f35b50634e487b7160e01b600052604160045260246000fd5b6080810190811067ffffffffffffffff82111761091a57604052565b6109226108e7565b604052565b67ffffffffffffffff811161091a57604052565b610120810190811067ffffffffffffffff82111761091a57604052565b6020810190811067ffffffffffffffff82111761091a57604052565b6060810190811067ffffffffffffffff82111761091a57604052565b6040810190811067ffffffffffffffff82111761091a57604052565b90601f8019910116810190811067ffffffffffffffff82111761091a57604052565b604051906109db8261093b565b565b604051906109db82610974565b60209067ffffffffffffffff8111610a08575b601f01601f19160190565b610a106108e7565b6109fd565b81601f8201121561000e57803590610a2c826109ea565b92610a3a60405194856109ac565b8284526020838301011161000e57816000926020809301838601378301015290565b503461000e57604036600319011261000e5760043567ffffffffffffffff60243581811161000e57610a92903690600401610a15565b91610a9b613842565b610abb8160005260676020526001600160a01b0360406000205416151590565b15610c0a576000918183526020906097825260408420918551918211610bfd575b610af082610aea8554613c52565b85614dec565b80601f8311600114610b6757509080610b5494939286977ff8e1a15aba9398e019f0b49df1a4fde98ee17ae345cb5f6b5e2c27f5033e8ce79792610b5c575b50508160011b916000199060031b1c19161790555b6040519081529081906020820190565b0390a1604051f35b015190503880610b2f565b90601f19831696610b7d85600052602060002090565b9287905b898210610be5575050918391600193610b549796957ff8e1a15aba9398e019f0b49df1a4fde98ee17ae345cb5f6b5e2c27f5033e8ce7999a10610bcc575b505050811b019055610b44565b015160001960f88460031b161c19169055388080610bbf565b80600185968294968601518155019501930190610b81565b610c056108e7565b610adc565b60405162461bcd60e51b815260206004820152602e60248201527f45524337323155524953746f726167653a2055524920736574206f66206e6f6e60448201527f6578697374656e7420746f6b656e0000000000000000000000000000000000006064820152608490fd5b503461000e5760208060031936011261000e57600435610c9481610798565b610c9c614558565b90610cc06001600160a01b0392848460c954163314918215610d0e575b5050614579565b1690816000526101639182825260ff60406000205416610cdc57005b61016780548015610d01575b60001901905560005252604060002060ff198154169055005b610d09614508565b610ce8565b60ff925090610d37913360005260fc8252604060002082604051948386809551938492016105d6565b82019081520301902054168438610cb9565b503461000e57602036600319011261000e5761069e60408060608151610d6e816108fe565b600091818380935282602082015282858201520152600435815261017f602052209060ff6003825193610da0856108fe565b6001600160a01b0381541685526001810154602086015260028101548486015201541615156060830152519182918291909160608060808301946001600160a01b038151168452602081015160208501526040810151604085015201511515910152565b503461000e57600036600319011261000e57602060405160028152f35b503461000e57602036600319011261000e57600435610e3f81610798565b806060610e4a6145c5565b33600090815261017c6020908152604080832061017d909252909120610ede905491610e7f610161546001600160a01b031690565b6040516325bd5c4960e01b8152600481019290925261016e6024830152604482019390935261017e606482015260848101939093526001600160a01b0395861660a4840152941660c48201523360e48201529283908190610104820190565b038173Ef8029Eb53510d1ee3b53c7A322a7Bd1BD3a7C555af4908115611033575b60009182938391610fdc575b507f476aa07c80fdb833cf2d719981e9f22c1e10dbace79a96a1a8a055d6defc1918906001600160a01b03610f41868633615295565b60405163a9059cbb60e01b81523360048201526024810188905291909416959060208160448160008b5af18015610fcf575b610fa1575b5060408051958652602086019190915267ffffffffffffffff91909116908401523392606090a4005b610fc19060203d8111610fc8575b610fb981836109ac565b810190614543565b5038610f78565b503d610faf565b610fd76139c8565b610f73565b90506110239193507f476aa07c80fdb833cf2d719981e9f22c1e10dbace79a96a1a8a055d6defc1918925060603d811161102c575b61101b81836109ac565b81019061524a565b90939192610f0b565b503d611011565b61103b6139c8565b610eff565b503461000e57602036600319011261000e5761080560043561106181610798565b61108861106c614558565b6001600160a01b0360c95416331490811561108d575b50614579565b615839565b60ff915060206110b7913360005260fc8252604060002082604051948386809551938492016105d6565b820190815203019020541638611082565b906110db602092828151948592016105d6565b0190565b503461000e57604036600319011261000e576004356110fd81610798565b60243567ffffffffffffffff811161000e57611151602061069e936001600160a01b0361113060ff953690600401610a15565b911660005260fc8252604060002082604051948386809551938492016105d6565b820190815203019020546040519116151581529081906020820190565b604090600319011261000e5760043561118681610798565b9060243561064181610798565b503461000e5761069e6001600160a01b036111ad3661116e565b911660005261017c6020526020604060002061017d8252604060002054906112206111e1610161546001600160a01b031690565b6040519586948594634f47984960e11b865260048601929094936060926080850196855260208501526001600160a01b03809216604085015216910152565b038173Ef8029Eb53510d1ee3b53c7A322a7Bd1BD3a7C555af4908115611288575b60009161125a575b506040519081529081906020820190565b61127b915060203d8111611281575b61127381836109ac565b8101906139b9565b38611249565b503d611269565b6112906139c8565b611241565b606090600319011261000e576004356112ad81610798565b906024356112ba81610798565b9060443590565b503461000e576108056112d336611295565b916112e66112e18433613e2d565b613d40565b613f08565b503461000e5760408060031936011261000e57600490813560243561130e613842565b61132a6113256113216101815460ff1690565b1590565b6144bc565b6113348183614537565b6101729182548092116000146114b45750935b73Ef8029Eb53510d1ee3b53c7A322a7Bd1BD3a7C55835b8681106113c1575050506113a86000947f2a3aeb194c33f592b722a8f82cf9c3310794dcc211135c216cc284aea0353b5e92548110156113ae575b84519081529081906020820190565b0390a251f35b610181805460ff19166001179055611399565b808061147061140a6113f06113e3600196600052610171602052604060002090565b546001600160a01b031690565b6001600160a01b031660005261017c602052604060002090565b610161546001600160a01b03168a518093819263705dd6e760e11b835260209687958c85019160c09194936001600160a01b039160e08501966101718652602086015261017d604086015261017f6060860152610180608086015260a085015216910152565b0381885af480156114a7575b611489575b50500161135e565b8161149f92903d10610fc857610fb981836109ac565b503880611481565b6114af6139c8565b61147c565b6114bf915083614537565b93611347565b503461000e57602036600319011261000e576004356114e381614466565b90811561181c578161151f61158f93611510336001600160a01b031660005261017c602052604060002090565b90600052602052604060002090565b9173Ef8029Eb53510d1ee3b53c7A322a7Bd1BD3a7C559261016161154a81546001600160a01b031690565b6040805163766757b960e11b81526004810185905261016e60248201526001600160a01b03909216604483015233606483015290969095908690889081906084820190565b0381845af492831561180f575b60009788946117d9575b50600601926115b6845460ff1690565b1561173d575050906000602061161982986115ef6115e36115e36116839a9998546001600160a01b031690565b6001600160a01b031690565b895163a9059cbb60e01b815233600482015260248101929092529093849283919082906044820190565b03925af18015611730575b611712575b505b817fab7e44c17ad2a7b4de0e42ab0bc824366a946f184a1133f0b5528347e4ccbd2986518061165f81906002602083019252565b0390a2805460019060081c60ff1661167681612da2565b14611686575b50336158e8565b51f35b6116bd906116aa8360005260676020526001600160a01b0360406000205416151590565b6116fa57805461ff001916610200179055565b807f855f5f4ea7c8c6a92f173fbc35c24d01139c2a49e9bcc085f03620cb6a1c65138551806116f181906002602083019252565b0390a23861167c565b611703836155d3565b805461ff001916610200179055565b6117299060203d8111610fc857610fb981836109ac565b5038611629565b6117386139c8565b611624565b909493929150611756610162546001600160a01b031690565b90853b1561000e5786516331fd8e6560e01b81526001600160a01b039283166004820152911660248201523360448201526064810196909652600095611683948790829060849082905af480156117cc575b6117b3575b5061162b565b806117c06117c692610927565b806105cb565b386117ad565b6117d46139c8565b6117a8565b600698506117fe919450873d8911611808575b6117f681836109ac565b810190615561565b97909793906115a6565b503d6117ec565b6118176139c8565b61159c565b604051638c877d2160e01b8152600490fd5b503461000e57602036600319011261000e5760043561184c81610751565b61185761106c614558565b6101819060ff8019835416911515161790556000604051f35b503461000e57602036600319011261000e5760043561188e81610798565b6001600160a01b0390817f000000000000000000000000000000000000000000000000000000000000000016916118c7833014156138e4565b6118f67f360894a13ba1a3210667c828492db98dca3e2076cc3735a920a3ca505d382bbc938285541614613945565b6118fe613842565b6040519061190b82610958565b600082527f4910fdfa16fed3260ed0e7147f7cc6da11a60208b5b9406d12a635614ffd91435460ff16156119455750506108059150613a33565b6020600491604094939451928380926352d1902d60e01b825286165afa600091816119e3575b506119d05760405162461bcd60e51b815260206004820152602e60248201527f45524331393637557067726164653a206e657720696d706c656d656e7461746960448201526d6f6e206973206e6f74205555505360901b6064820152608490fd5b0390fd5b610805936119de91146139d5565b613ad1565b6119fc91925060203d81116112815761127381836109ac565b903861196b565b503461000e57600036600319011261000e57602067ffffffffffffffff611a286145c5565b5416604051908152f35b503461000e57606036600319011261000e57600435611a5081610798565b6024359067ffffffffffffffff821161000e57611ab66020611a79610805943690600401610a15565b6001600160a01b0360443594611a8e86610751565b611a96613842565b1660005260fc8252604060002082604051948386809551938492016105d6565b8201908152030190209060ff801983541691151516179055565b50634e487b7160e01b600052603260045260246000fd5b906003821015611b01575b601f8260051c61016f01921690565b611b09611ad0565b611af2565b503461000e57602036600319011261000e57600435600381101561000e578060ff60209260051c61016f015460f86040519360031b161c168152f35b503461000e5760208060031936011261000e57611b6c61132160fb5460ff1690565b80611fc8575b611fb75773Ef8029Eb53510d1ee3b53c7A322a7Bd1BD3a7C559061017390611b9a825461303f565b506040908151634e868a0160e01b8152600095868280611bbe60049687830161519d565b0381845af4918215611faa575b87908893611f83575b50611be190843590614537565b875b61016554811015611e9f57611c4187611c11611bfe8461271b565b90546001600160a01b039160031b1c1690565b88518093819263c78ea24360e01b83528a830191909160206001600160a01b03604083019461016e845216910152565b0381875af4908115611e92575b8a91611e75575b50611c63575b600101611be3565b61016290611c7b6115e383546001600160a01b031690565b611ccb89611c8b611bfe8561271b565b8a5180938192630530fa2160e01b83528c830160408082526003908201526206966760ec1b60608201526001600160a01b03909116602082015260800190565b0381855afa908115611e68575b8c91611e4b575b50611cf481611cee858a6151b2565b51614537565b611cfe84896151b2565b5280611d0e575b50509050611c5b565b611d1a611bfe8461271b565b908c833b1561071e5789611da36115e36001988f968f87611deb9a611d859389809451809681958294636c49e02160e01b84528d840160608082526003908201526206966760ec1b6080820152909291906040906001600160a01b0360a08201951660208201520152565b03925af18015611e3e575b611e2b575b50546001600160a01b031690565b91611db0611bfe8861271b565b8d5163276d76f960e21b81526001600160a01b0390911692810192835230602084015260408301949094529294859384929091839160600190565b03925af18015611e1e575b611e01575b80611d05565b611e1790893d8b11610fc857610fb981836109ac565b5038611dfb565b611e266139c8565b611df6565b806117c0611e3892610927565b38611d95565b611e466139c8565b611d90565b611e6291508a3d8c116112815761127381836109ac565b38611cdf565b611e706139c8565b611cd8565b611e8c9150883d8a116112815761127381836109ac565b38611c55565b611e9a6139c8565b611c4e565b509085949693611ee59693945490611eca895196879586948594637f0440bf60e01b865285016151d4565b03915af4918215611f76575b8592611f59575b505061017355565b7f41d377f5159e61f9ec3e5d7ecc5d2f8d2b17f2b58c8f05a4f9e8fce553a59cab611f1f611f116145c5565b5467ffffffffffffffff1690565b611f3b611f2a6145c5565b5460401c67ffffffffffffffff1690565b835167ffffffffffffffff928316815291166020820152604090a151f35b611f6f9250803d106112815761127381836109ac565b3880611edd565b611f7e6139c8565b611ed6565b611be19350611fa491503d808a833e611f9c81836109ac565b8101906150a5565b92611bd4565b611fb26139c8565b611bcb565b6040516282b42960e81b8152600490fd5b50611fdf6115e3610161546001600160a01b031690565b331415611b72565b503461000e57610805611ff936611295565b906040519261200784610958565b60008452613da2565b503461000e57604036600319011261000e5760043561202e81610798565b61207e60243561203d81610798565b6000549261206260ff8560081c1615809581966120fc575b81156120dc575b50614748565b83612075600160ff196000541617600055565b6120c3576149c5565b61208457005b61209461ff001960005416600055565b604051600181527f7f26b83ff96e1f2b6a682f133852f6798a09c465da95921460cefb384740249890602090a1005b6120d761010061ff00196000541617600055565b6149c5565b303b159150816120ee575b503861205c565b6001915060ff1614386120e7565b600160ff8216109150612055565b50604036600319011261000e5760043561212381610798565b60243567ffffffffffffffff811161000e57612143903690600401610a15565b906001600160a01b0391827f0000000000000000000000000000000000000000000000000000000000000000169261217d843014156138e4565b6121ac7f360894a13ba1a3210667c828492db98dca3e2076cc3735a920a3ca505d382bbc948286541614613945565b6121b4613842565b7f4910fdfa16fed3260ed0e7147f7cc6da11a60208b5b9406d12a635614ffd91435460ff16156121ea5750506108059150613a33565b6020600491604094939451928380926352d1902d60e01b825286165afa60009181612284575b506122715760405162461bcd60e51b815260206004820152602e60248201527f45524331393637557067726164653a206e657720696d706c656d656e7461746960448201526d6f6e206973206e6f74205555505360901b6064820152608490fd5b6108059361227f91146139d5565b613b8d565b61229d91925060203d81116112815761127381836109ac565b9038612210565b503461000e57602036600319011261000e576004356122c281614466565b801561181c576122ea90611510336001600160a01b031660005261017c602052604060002090565b336001600160a01b0361230483546001600160a01b031690565b1603611fb75760068101805460ff8116159081156123b5575b506123a357612392816123887fab7e44c17ad2a7b4de0e42ab0bc824366a946f184a1133f0b5528347e4ccbd299461236361239e956201000062ff000019825416179055565b612382600261237b610161546001600160a01b031690565b9201614f7e565b90615d01565b5460101c60ff1690565b60405191829182615095565b0390a2005b60405163baf3f0f760e01b8152600490fd5b60ff915060101c166123c681612da2565b15153861231d565b503461000e57600036600319011261000e576001600160a01b037f000000000000000000000000000000000000000000000000000000000000000016300361243b576040517f360894a13ba1a3210667c828492db98dca3e2076cc3735a920a3ca505d382bbc8152602090f35b60405162461bcd60e51b815260206004820152603860248201527f555550535570677261646561626c653a206d757374206e6f742062652063616c60448201527f6c6564207468726f7567682064656c656761746563616c6c00000000000000006064820152608490fd5b503461000e5760008060031936011261071e5761069e9061017354600281101561255e575b60405190634e868a0160e01b825260021b610174016004820152604060248201528181806124fb60448201615137565b038173Ef8029Eb53510d1ee3b53c7A322a7Bd1BD3a7C555af4918215612551575b8092612535575b50506040519081529081906020820190565b61254992503d8091833e611f9c81836109ac565b503880612523565b6125596139c8565b61251c565b612566611ad0565b6124cb565b503461000e57602036600319011261000e576020610740600435613c30565b503461000e57602036600319011261000e576001600160a01b036004356125b081610798565b1680156125d957600052606860205261069e604060002054604051918291829190602083019252565b60405162461bcd60e51b815260206004820152602960248201527f4552433732313a2061646472657373207a65726f206973206e6f7420612076616044820152683634b21037bbb732b960b91b6064820152608490fd5b503461000e5760008060031936011261071e5761264b613842565b60c9546001600160a01b0319811660c955816001600160a01b0360405192167f8be0079c531659141344cd1fd0a4f28419497f9722a3daafe3b4186f6b6457e08284a3f35b6024359060ff8216820361000e57565b6044359060ff8216820361000e57565b359060ff8216820361000e57565b503461000e57606036600319011261000e57366023121561000e576040516126e581610974565b60648136821161000e576004905b82821061270357610805846145f0565b60208091612710846126b0565b8152019101906126f3565b6101658054821015612753575b6000527fd91ca5e44fa96a1732bfaed7fe33fc20ed69a9895cde1f18c7dcabca39d6a78b0190600090565b61275b611ad0565b612728565b503461000e57602036600319011261000e57600435610165805482101561000e576020916001600160a01b03916000527fd91ca5e44fa96a1732bfaed7fe33fc20ed69a9895cde1f18c7dcabca39d6a78b015416604051908152f35b503461000e57600036600319011261000e57602061017254604051908152f35b503461000e57600036600319011261000e5760206001600160a01b036101615416604051908152f35b503461000e57602036600319011261000e576001600160a01b0360043561282b81610798565b166000526101646020526020604060002054604051908152f35b503461000e57600036600319011261000e57602060ff60fb54166040519015158152f35b503461000e57600036600319011261000e5760206001600160a01b0360c95416604051908152f35b503461000e5760008060031936011261071e5760405190806066546128b581613c52565b808552916001918083169081156106fd57506001146128de5761069e85610692818703826109ac565b9250606683527f46501879b8ca8525e8c2fd519e2fbfcfa2ebea26501294aa02cbfcfb12e943545b8284106129215750505081016020016106928261069e610682565b80546020858701810191909152909301928101612906565b503461000e57604036600319011261000e57602061298d60043561295c81610798565b6001600160a01b0361296c612690565b911660005261016e835260406000209060ff16600052602052604060002090565b54604051908152f35b503461000e57604036600319011261000e576004356129b481610798565b6024356129c081610751565b6001600160a01b03821691823314612a435781612a00612a119233600052606a6020526040600020906001600160a01b0316600052602052604060002090565b9060ff801983541691151516179055565b604051901515815233907f17307eab39ab6107e8899845ad3d59bd9653f200f220920489ca2b5937696c3190602090a3005b60405162461bcd60e51b815260206004820152601960248201527f4552433732313a20617070726f766520746f2063616c6c6572000000000000006044820152606490fd5b503461000e57600036600319011261000e5760206001600160a01b036101625416604051908152f35b503461000e57600036600319011261000e57602060ff61018154166040519015158152f35b503461000e57608036600319011261000e57600435612af481610798565b602435612b0081610798565b6064359167ffffffffffffffff831161000e57612b24610805933690600401610a15565b9160443591613da2565b503461000e57600036600319011261000e57602061017054604051908152f35b503461000e57602036600319011261000e57600435612b6c81614466565b801561181c57612b9490611510336001600160a01b031660005261017c602052604060002090565b336001600160a01b03612bae83546001600160a01b031690565b1603611fb7576006018054600260ff8260101c16612bcb81612da2565b14908115612c23575b506123a357805461ff001916610100179055612bf0813361545a565b604051600181527f855f5f4ea7c8c6a92f173fbc35c24d01139c2a49e9bcc085f03620cb6a1c651390806020810161239e565b60ff915060081c16612c3481612da2565b151538612bd4565b503461000e57604036600319011261000e57602061298d600435612c5f81610798565b6001600160a01b03612c6f612690565b911660005261016b835260406000209060ff16600052602052604060002090565b503461000e57602036600319011261000e576001600160a01b03600435612cb681610798565b1660005261017d6020526020604060002054604051908152f35b503461000e57600036600319011261000e57602061016854604051908152f35b503461000e57602036600319011261000e576020612d0f600435614466565b604051908152f35b503461000e57602036600319011261000e5761069e612d37600435614257565b60405191829160208352602083019061060b565b503461000e57600036600319011261000e57612d6e60ff60005460081c16614b83565b60fb805460ff19169055005b6000915b60038310612d8b57505050565b600190825181526020809101920192019190612d7e565b60031115612dac57565b634e487b7160e01b600052602160045260246000fd5b90612dcc82612da2565b52565b6109db909291926101406101608201946001600160a01b038151168352612e06602082015160208501906001600160a01b03169052565b60408181015165ffffffffffff169084015260608181015165ffffffffffff1690840152612e3c60808201516080850190612d7a565b60a081015160e084015260c081015190612e5d610100928386019015159052565b612e7060e0820151610120860190612dc2565b0151910190612dc2565b503461000e5760408060031936011261000e5760043590612e9a82610798565b602435918151612ea98161093b565b61010060009182815282602082015282858201528260608201528451612ece81610974565b606036823760808201528260a08201528260c08201528260e0820152015282158015612f42575b612f3157612f2161069e93611510612f26936001600160a01b031660005261017c602052604060002090565b614fcd565b905191829182612dcf565b8151638c877d2160e01b8152600490fd5b50612f61816001600160a01b031660005261017d602052604060002090565b548311612ef5565b94919897969360e096939161010087019a6001600160a01b03809216885216602087015265ffffffffffff80921660408701521660608501526080840152151560a0830152612fb781612da2565b60c0820152612fc583612da2565b0152565b503461000e57602036600319011261000e5760043560005261017160205260406000206001600160a01b0361069e81835416600184015490600660058601549501549060405195869560ff8460101c169460ff808660081c169516938160d01c9265ffffffffffff8360a01c1692169089612f69565b6002811015613056575b60021b6101740190600090565b61305e611ad0565b613049565b503461000e57602036600319011261000e57600435600281101561000e5760809060021b80610174015490610176610175820154910154906040519267ffffffffffffffff90818116855260401c16602084015260408301526060820152f35b503461000e57604036600319011261000e576004356130e181610798565b6001600160a01b0380911660005261017c602052604060002060243560005260205260406000209061069e81835416600184015490600660058601549501549060405195869560ff8460101c169460ff808660081c169516938160d01c9265ffffffffffff8360a01c1692169089612f69565b906003821015613170575b6006600580840461016d0193060290565b613178611ad0565b61315f565b503461000e57602036600319011261000e57600435600381101561000e578065ffffffffffff60056020930461016d01546006600560405194060260031b1c168152f35b503461000e57600036600319011261000e57602065ffffffffffff6101665416604051908152f35b503461000e57602060ff61322d6001600160a01b036132073661116e565b9116600052606a84526040600020906001600160a01b0316600052602052604060002090565b54166040519015158152f35b503461000e57600036600319011261000e57602061016754604051908152f35b50606036600319011261000e57600480359061327482610798565b602435916132806126a0565b9273Ef8029Eb53510d1ee3b53c7A322a7Bd1BD3a7C55906132b8610846846001600160a01b0316600052610163602052604060002090565b93823b1561000e5785926040958651809263f39ce06360e01b825281806132fc8860009d8e978a850160ff6040929594936060830196151583521660208201520152565b03915af48015613609575b6135f6575b506001600160a01b0384168015801580613590575b61358057156134d957508134036134815750612f21611683939261347b9261336f88808061335b6115e3610162546001600160a01b031690565b858c51915af161336961411d565b50614f1e565b61346461345c61337d614f6a565b938361338c60ff831687614678565b5261344a61017254986133a76133a18b6148fd565b61017255565b61342f6133c8336001600160a01b031660005261017d602052604060002090565b976133d389546148fd565b809955888c6133fa82611510336001600160a01b031660005261017c602052604060002090565b928561341a6134088a613154565b905465ffffffffffff9160031b1c1690565b9161342760fb5460ff1690565b953390615d5c565b506001600160a01b031660005261016e602052604060002090565b9060ff16600052602052604060002090565b918254614537565b905533600090815261017c60205260409020611510565b90615c65565b6119cc908551918291631fff1b3b60e21b8352820160809060208152602260208201527f496e636f7272656374206e617469766520636f696e207374616b6520616d6f756040820152611b9d60f21b60608201520190565b928261353f602061347b956116839897612f21968c6135046115e3610162546001600160a01b031690565b8d516323b872dd60e01b8152339381019384526001600160a01b03909116602084015260408301949094529294859384929091839160600190565b03925af18015613573575b613555575b5061336f565b61356c9060203d8111610fc857610fb981836109ac565b503861354f565b61357b6139c8565b61354a565b8651631e9acf1760e31b81528390fd5b5086516370a0823160e01b8152338482019081528591906020908290819083010381875afa9081156135e9575b8a916135cb575b5010613321565b6135e3915060203d81116112815761127381836109ac565b386135c4565b6135f16139c8565b6135bd565b806117c061360392610927565b3861330c565b6136116139c8565b613307565b503461000e57602036600319011261000e5760043561363481610798565b61363c613842565b6001600160a01b03811615613654576108059061389a565b60405162461bcd60e51b815260206004820152602660248201527f4f776e61626c653a206e6577206f776e657220697320746865207a65726f206160448201526564647265737360d01b6064820152608490fd5b503461000e576136b73661116e565b906001600160a01b03811660005261017c60205260408092816000206137756136f4856001600160a01b031660005261017d602052604060002090565b5492610173549561370e610161546001600160a01b031690565b865197889687966365a52ecd60e11b8852600488019492610100949197969261012087019887526020870152610174604087015261017e606087015261016e608087015260a08601526001600160a01b03928380921660c08701521660e085015216910152565b038173Ef8029Eb53510d1ee3b53c7A322a7Bd1BD3a7C555af49182156137e7575b60009182936137b2575b50519081526020810191909152604090f35b816137d892945061069e93503d85116137e0575b6137d081836109ac565b810190615234565b9290916137a0565b503d6137c6565b6137ef6139c8565b613796565b503461000e57604036600319011261000e576001600160a01b0360043561381a81610798565b1660005261018060205260406000206024356000526020526020604060002054604051908152f35b6001600160a01b0360c95416330361385657565b606460405162461bcd60e51b815260206004820152602060248201527f4f776e61626c653a2063616c6c6572206973206e6f7420746865206f776e65726044820152fd5b60c954906001600160a01b0380911691826001600160a01b031982161760c955167f8be0079c531659141344cd1fd0a4f28419497f9722a3daafe3b4186f6b6457e06000604051a3565b156138eb57565b60405162461bcd60e51b815260206004820152602c60248201527f46756e6374696f6e206d7573742062652063616c6c6564207468726f7567682060448201526b19195b1959d85d1958d85b1b60a21b6064820152608490fd5b1561394c57565b60405162461bcd60e51b815260206004820152602c60248201527f46756e6374696f6e206d7573742062652063616c6c6564207468726f7567682060448201526b6163746976652070726f787960a01b6064820152608490fd5b604051906139b382610958565b60008252565b9081602091031261000e575190565b506040513d6000823e3d90fd5b156139dc57565b60405162461bcd60e51b815260206004820152602960248201527f45524331393637557067726164653a20756e737570706f727465642070726f786044820152681a58589b195555525160ba1b6064820152608490fd5b803b15613a76576001600160a01b037f360894a13ba1a3210667c828492db98dca3e2076cc3735a920a3ca505d382bbc91166001600160a01b0319825416179055565b60405162461bcd60e51b815260206004820152602d60248201527f455243313936373a206e657720696d706c656d656e746174696f6e206973206e60448201526c1bdd08184818dbdb9d1c9858dd609a1b6064820152608490fd5b613ada81613a33565b604051906001600160a01b0381167fbc7cd75a20ee27fd9adebab32041f755214dbc6bffa90cc0225b39da2e5c2d3b600084a2825115801590613b85575b613b2157505050565b600080613b8294613b3185610974565b602785527f416464726573733a206c6f772d6c6576656c2064656c65676174652063616c6c6020860152660819985a5b195960ca1b6040860152602081519101845af4613b7c61411d565b916143be565b50565b506000613b18565b613b9681613a33565b604051906001600160a01b0381167fbc7cd75a20ee27fd9adebab32041f755214dbc6bffa90cc0225b39da2e5c2d3b600084a2825115801590613bdc57613b2157505050565b506001613b18565b15613beb57565b60405162461bcd60e51b815260206004820152601860248201527f4552433732313a20696e76616c696420746f6b656e20494400000000000000006044820152606490fd5b60005260676020526001600160a01b0360406000205416610641811515613be4565b90600182811c92168015613c82575b6020831014613c6c57565b634e487b7160e01b600052602260045260246000fd5b91607f1691613c61565b15613c9357565b60405162461bcd60e51b815260206004820152603d60248201527f4552433732313a20617070726f76652063616c6c6572206973206e6f7420746f60448201527f6b656e206f776e6572206f7220617070726f76656420666f7220616c6c0000006064820152608490fd5b613d26613d218260005260676020526001600160a01b0360406000205416151590565b613be4565b60005260696020526001600160a01b036040600020541690565b15613d4757565b60405162461bcd60e51b815260206004820152602d60248201527f4552433732313a2063616c6c6572206973206e6f7420746f6b656e206f776e6560448201526c1c881bdc88185c1c1c9bdd9959609a1b6064820152608490fd5b90613dc6939291613db66112e18433613e2d565b613dc1838383613f08565b61414d565b15613dcd57565b60405162461bcd60e51b815260206004820152603260248201527f4552433732313a207472616e7366657220746f206e6f6e20455243373231526560448201527131b2b4bb32b91034b6b83632b6b2b73a32b960711b6064820152608490fd5b6001600160a01b0380613e3f84613c30565b169281831692848414948515613e75575b50508315613e5f575b50505090565b613e6b91929350613cfe565b1614388080613e59565b60ff92955090613ea491600052606a6020526040600020906001600160a01b0316600052602052604060002090565b5416923880613e50565b15613eb557565b60405162461bcd60e51b815260206004820152602560248201527f4552433732313a207472616e736665722066726f6d20696e636f72726563742060448201526437bbb732b960d91b6064820152608490fd5b90613f2e9291613f1783613c30565b6001600160a01b0382811695909182168614613eae565b8216938415614022576109db9481613f538693613f4d6115e386613c30565b14613eae565b613f7a613f6a846000526069602052604060002090565b80546001600160a01b0319169055565b613f97846001600160a01b03166000526068602052604060002090565b6000198154019055613fbc856001600160a01b03166000526068602052604060002090565b60018154019055613ff685613fdb856000526067602052604060002090565b906001600160a01b03166001600160a01b0319825416179055565b7fddf252ad1be2c89b69c2b068fc378daa952ba7f163c4a11628f55a4df523b3ef6000604051a4615adc565b60405162461bcd60e51b8152602060048201526024808201527f4552433732313a207472616e7366657220746f20746865207a65726f206164646044820152637265737360e01b6064820152608490fd5b600082815260696020526040902080546001600160a01b0319166001600160a01b0383161790556001600160a01b03806140ac84613c30565b169116907f8c5be1e5ebec7d5bd14f71427d1e84f3dd0314c0f7b2291e5b200ac8c7c3b9256000604051a4565b9081602091031261000e575161064181610530565b909261064194936080936001600160a01b0380921684521660208301526040820152816060820152019061060b565b3d15614148573d9061412e826109ea565b9161413c60405193846109ac565b82523d6000602084013e565b606090565b92909190823b1561424e576141889260209260006001600160a01b03604051809781968295630a85bd0160e11b9b8c855233600486016140ee565b0393165af16000918161421e575b50614210576141a361411d565b8051908161420b5760405162461bcd60e51b815260206004820152603260248201527f4552433732313a207472616e7366657220746f206e6f6e20455243373231526560448201527131b2b4bb32b91034b6b83632b6b2b73a32b960711b6064820152608490fd5b602001fd5b6001600160e01b0319161490565b61424091925060203d8111614247575b61423881836109ac565b8101906140d9565b9038614196565b503d61422e565b50505050600190565b61427a613d218260005260676020526001600160a01b0360406000205416151590565b600090808252602060978152604083206040518481959083549061429d82613c52565b80855294600192808416908115614359575060011461431d575b5050506142c6925003846109ac565b6142ce6139a6565b928351156143165780516142e85750506106419150614379565b6106419250614308906143026040519586948501906110c8565b906110c8565b03601f1981018352826109ac565b9250505090565b869350819291528282205b8583106143415750506142c693508201013880806142b7565b8054838a018501528894508693909201918101614328565b965050505050505060ff1916818401526142c683604081013880806142b7565b613d2161439c9160005260676020526001600160a01b0360406000205416151590565b60006040516143aa81610958565b526040516143b781610958565b6000815290565b9192901561442057508151156143d2575090565b3b156143db5790565b60405162461bcd60e51b815260206004820152601d60248201527f416464726573733a2063616c6c20746f206e6f6e2d636f6e74726163740000006044820152606490fd5b8251909150156144335750805190602001fd5b60405162461bcd60e51b81529081906119cc9060048301610630565b50634e487b7160e01b600052601260045260246000fd5b60005261017f6020526040600020604051614480816108fe565b6001600160a01b038254168152600182015490606060ff600360208401958587526002810154604086015201541615159101521561181c575190565b156144c357565b60405162461bcd60e51b815260206004820152601b60248201527f4d6967726174696f6e20616c726561647920636f6d706c6574656400000000006044820152606490fd5b50634e487b7160e01b600052601160045260246000fd5b600190600119811161452f570190565b6110db614508565b8119811161452f570190565b9081602091031261000e575161064181610751565b6040519061456582610990565b600582526430b236b4b760d91b6020830152565b1561458057565b60405162461bcd60e51b815260206004820152600e60248201527f4e6f7420617574686f72697a65640000000000000000000000000000000000006044820152606490fd5b60046101735460026001821610156145e3575b60021b166101740190565b6145eb611ad0565b6145d8565b6145fb61106c614558565b606460ff614623614616828551168360208701511690614697565b8260408601511690614697565b1603614632576109db906146e3565b604051631fff1b3b60e21b815260206004820152601260248201527f4d7573742073756d20757020746f2031303000000000000000000000000000006044820152606490fd5b90600381101561468a575b60051b0190565b614692611ad0565b614683565b60ff8091169116908160ff03811161452f570190565b80600019048211811515166146c0570290565b6146c8614508565b0290565b8181106146d7575050565b600081556001016146cc565b9061016f60009081935b600380861015614740579060209160ff908183511691868654921b90811b9283911b169119161783550193600180930192601f8411614731575b50600101936146ed565b60009350909101906001614727565b505050509050565b1561474f57565b60405162461bcd60e51b815260206004820152602e60248201527f496e697469616c697a61626c653a20636f6e747261637420697320616c72656160448201527f647920696e697469616c697a65640000000000000000000000000000000000006064820152608490fd5b156147c157565b60405162461bcd60e51b815260206004820152600f60248201527f496e76616c6964206164647265737300000000000000000000000000000000006044820152606490fd5b6101658054906801000000000000000082101561486f575b60018201808255821015614862575b6000527fd91ca5e44fa96a1732bfaed7fe33fc20ed69a9895cde1f18c7dcabca39d6a78b0180546001600160a01b0319169055565b61486a611ad0565b61482d565b6148776108e7565b61481e565b6001600160a01b03610165805490680100000000000000008210156148f0575b600182018082558210156148e3575b6000527fd91ca5e44fa96a1732bfaed7fe33fc20ed69a9895cde1f18c7dcabca39d6a78b0191166001600160a01b0319825416179055565b6148eb611ad0565b6148ab565b6148f86108e7565b61489c565b600190600019811461452f570190565b9061016d600080935b600380861015614740578160209162ffffff600694511690858754911b65ffffffffffff811b9283911b1691191617855501910193601a851161495e575b6001019390614916565b60009450600190920191614954565b6040519061497a82610990565b601382527f457363726f77656420417373657420426f6e64000000000000000000000000006020830152565b604051906149b382610990565b600382526222a0a160e91b6020830152565b614a8a90614a27614abc936149ed6001600160a01b0380851615159081614b77575b506147ba565b61016180546001600160a01b0319166001600160a01b0385161790556001600160a01b0361016291166001600160a01b0319825416179055565b614a32600161017255565b60008052610163602052614a6e7f323947e965fafc5a11fbcfc7a37a72d1b12094b96c7e62e08b97c054e8e6b0a75b805460ff19166001179055565b614a76614806565b614ab661016791614a90614a8a84546148fd565b61016755565b614ab1614a61826001600160a01b0316600052610163602052604060002090565b61487c565b546148fd565b610166805465ffffffffffff1916630114db00179055614afa614add6109dd565b62093a8081526224ea006020820152626ebe00604082015261490d565b614b1c614b056109dd565b60148152601e6020820152603260408201526146e3565b610181805460ff19169055614b46614b326145c5565b805467ffffffffffffffff19166001179055565b614b5f614b5161496d565b614b596149a6565b90614c17565b614b67614be3565b614b6f615f74565b6109db614c06565b905082161515386149e7565b15614b8a57565b60405162461bcd60e51b815260206004820152602b60248201527f496e697469616c697a61626c653a20636f6e7472616374206973206e6f74206960448201526a6e697469616c697a696e6760a81b6064820152608490fd5b614bfd60ff60005460081c16614bf881614b83565b614b83565b6109db3361389a565b6109db60ff60005460081c16614b83565b90614c2d60ff60005460081c16614bf881614b83565b815167ffffffffffffffff8111614d28575b614c5381614c4e606554613c52565b614d35565b602080601f8311600114614c95575081906109db94600092614c8a575b50508160011b916000199060031b1c191617606555614e26565b015190503880614c70565b919293601f198416614cc960656000527f8ff97419363ffd7000167f130ef7168fbea05faf9251824ca5043f113cc6a7c790565b936000905b828210614d105750509160019391856109db97969410614cf7575b505050811b01606555614e26565b015160001960f88460031b161c19169055388080614ce9565b80600186978294978701518155019601940190614cce565b614d306108e7565b614c3f565b90601f8211614d42575050565b6109db9160656000527f8ff97419363ffd7000167f130ef7168fbea05faf9251824ca5043f113cc6a7c7906020601f840160051c83019310614d8c575b601f0160051c01906146cc565b9091508190614d7f565b90601f8211614da3575050565b6109db9160666000527f46501879b8ca8525e8c2fd519e2fbfcfa2ebea26501294aa02cbfcfb12e94354906020601f840160051c83019310614d8c57601f0160051c01906146cc565b9190601f8111614dfb57505050565b6109db926000526020600020906020601f840160051c83019310614d8c57601f0160051c01906146cc565b90815167ffffffffffffffff8111614f11575b614e4d81614e48606654613c52565b614d96565b602080601f8311600114614e895750819293600092614e7e575b50508160011b916000199060031b1c191617606655565b015190503880614e67565b90601f19831694614ebc60666000527f46501879b8ca8525e8c2fd519e2fbfcfa2ebea26501294aa02cbfcfb12e9435490565b926000905b878210614ef9575050836001959610614ee0575b505050811b01606655565b015160001960f88460031b161c19169055388080614ed5565b80600185968294968601518155019501930190614ec1565b614f196108e7565b614e39565b15614f2557565b60405162461bcd60e51b815260206004820152601f60248201527f4661696c656420746f207472616e73666572206e617469766520746f6b656e006044820152606490fd5b60405190614f7782610974565b6060368337565b60405191906000835b60038210614fae575050506060820182811067ffffffffffffffff82111761091a57604052565b6001602081928554815201930191019091614f87565b612dcc82612da2565b906109db60ff6006614fdd6109ce565b94614fff614ff282546001600160a01b031690565b6001600160a01b03168752565b60018101546001600160a01b038116602088015265ffffffffffff60a082901c16604088015260d01c606087015261503960028201614f7e565b6080870152600581015460a08701520154818116151560c0860152615066828260081c1660e08701614fc4565b60101c166101008401614fc4565b9061507e81612da2565b62ff000082549160101b169062ff00001916179055565b91906020830192612dcc82612da2565b91909160408184031261000e578051926020908183015167ffffffffffffffff9384821161000e570181601f8201121561000e57805193841161512a575b8360051b90604051946150f8858401876109ac565b8552838086019282010192831161000e578301905b82821061511b575050505090565b8151815290830190830161510d565b6151326108e7565b6150e3565b6101659081548082526020809201926000527fd91ca5e44fa96a1732bfaed7fe33fc20ed69a9895cde1f18c7dcabca39d6a78b916000905b82821061517d575050505090565b83546001600160a01b03168552938401936001938401939091019061516f565b60409061064192815281602082015201615137565b60209181518110156151c7575b60051b010190565b6151cf611ad0565b6151bf565b90929160a0820190610174835260209485840152604083015260a0606083015282518091528360c0830193019360005b8281106152205750505061064192506080818303910152615137565b855185529481019493810193600101615204565b919082604091031261000e576020825192015190565b9081606091031261000e578051916040602083015192015167ffffffffffffffff8116810361000e5790565b9061528081612da2565b61ff0082549160081b169061ff001916179055565b9061529e614f6a565b9060005b60ff90818116600381101561533f57906152fe6001926152ed6152e66152e06152da6152cd87611ae7565b905460ff9160031b1c1690565b60ff1690565b886146ad565b6064900490565b6152f78289614678565b5286614678565b5161533661345c8361344a61531c610161546001600160a01b031690565b6001600160a01b031660005261016e602052604060002090565b905501166152a2565b50505050612f21615408916115106109db949695966113f0600661017254809a61536b6133a1836148fd565b6153f261538c866001600160a01b031660005261017d602052604060002090565b9761539789546148fd565b809955886153bd816115108a6001600160a01b031660005261017c602052604060002090565b946153d1610161546001600160a01b031690565b6101665465ffffffffffff16906153ea60fb5460ff1690565b948b89615e74565b50600582015501805461ff001916610200179055565b83615c65565b1561541557565b60405162461bcd60e51b815260206004820152601c60248201527f4552433732313a20746f6b656e20616c7265616479206d696e746564000000006044820152606490fd5b6001600160a01b03811690811561551d576154f3906154986154928560005260676020526001600160a01b0360406000205416151590565b1561540e565b6154bb6154928560005260676020526001600160a01b0360406000205416151590565b6154d8816001600160a01b03166000526068602052604060002090565b60018154019055613fdb846000526067602052604060002090565b60007fddf252ad1be2c89b69c2b068fc378daa952ba7f163c4a11628f55a4df523b3ef81604051a4565b606460405162461bcd60e51b815260206004820152602060248201527f4552433732313a206d696e7420746f20746865207a65726f20616464726573736044820152fd5b919082604091031261000e576020825192015161064181610798565b6106419054613c52565b6155918154613c52565b908161559b575050565b81601f600093116001146155ad575055565b818352602083206155c991601f0160051c8101906001016146cc565b8160208120915555565b6155dc81613c30565b506155e681613c30565b6000908282526069602052604082206001600160a01b0319908181541690556001600160a01b0382169081845260686020526040842060001981540190558484526067602052604084209081541690558383827fddf252ad1be2c89b69c2b068fc378daa952ba7f163c4a11628f55a4df523b3ef82604051a4151580615832575b6156ad575b505061568a615685826000526097602052604060002090565b61557d565b6156915750565b6156a86109db916000526097602052604060002090565b615587565b6156b683614466565b806156c2575b5061566c565b80846156ec612f216156f594611510876001600160a01b031660005261017c602052604060002090565b938585526158e8565b6000805261017d60205261576761572d7f570683e83a763565db96d79020a21094d1eed3afde1dfb6258e82fee3838deb05b5461451f565b6000805261017c60205291615762837fdf42de3f6f21d051fad2ddf44fdf9c714eaaa0a956bf2970fe63b68205b0d06e611510565b6159b6565b73Ef8029Eb53510d1ee3b53c7A322a7Bd1BD3a7C55803b1561582e5760405163093c769560e21b815261017f6004820152610180602482015260448101859052600060648201526084810192909252909190829060a49082905af48015615821575b61580e575b506000805261017d6020527f570683e83a763565db96d79020a21094d1eed3afde1dfb6258e82fee3838deb061580481546148fd565b90553880806156bc565b806117c061581b92610927565b386157ce565b6158296139c8565b6157c9565b8280fd5b5081615667565b906001600160a01b039081831680600052610163602052615863611321604060002060ff90541690565b6158b3575b61016554939260005b60ff908682821610156158a457838361588c611bfe8461271b565b161461589b5760010116615871565b50505050915050565b5050505091506109db9061487c565b6158c2614a8a610167546148fd565b6158e3614a61856001600160a01b0316600052610163602052604060002090565b615868565b90916001600160a01b0373Ef8029Eb53510d1ee3b53c7A322a7Bd1BD3a7C559216908160005261017c6020526040600020833b1561000e5760009360e492604051968795869463f97681bd60e01b8652600486015261017f6024860152610180604486015261017d6064860152608485015260a484015260c48301525af48015615981575b6159745750565b806117c06109db92610927565b6159896139c8565b61596d565b906000905b600382106159a057505050565b6001602082829351865501930191019091615993565b9061010060066109db936159f06159d485516001600160a01b031690565b82546001600160a01b0319166001600160a01b03909116178255565b615a7560018201615a0e6159d460208801516001600160a01b031690565b615a48615a24604088015165ffffffffffff1690565b825465ffffffffffff60a01b191660a09190911b65ffffffffffff60a01b16178255565b606086015165ffffffffffff1681546001600160d01b031660d09190911b6001600160d01b031916179055565b615a8660808501516002830161598e565b60a084015160058201550191615ab4615aa260c0830151151590565b849060ff801983541691151516179055565b615acb60e0820151615ac581612da2565b84615276565b015190615ad782612da2565b615074565b916001600160a01b0380841615159081615c59575b50615afb57505050565b615b0481614466565b80615b10575b50505050565b8082615b3a612f21615b4c94611510896001600160a01b031660005261017c602052604060002090565b6001600160a01b0386168152956158e8565b615b93615b70615727846001600160a01b031660005261017d602052604060002090565b9361576285611510866001600160a01b031660005261017c602052604060002090565b73Ef8029Eb53510d1ee3b53c7A322a7Bd1BD3a7C5590813b1561000e5760405163093c769560e21b815261017f6004820152610180602482015260448101919091526001600160a01b03831660648201526084810193909352615c249290600090829060a49082905af48015615c4c575b615c39575b506001600160a01b031660005261017d602052604060002090565b615c2e81546148fd565b905538808080615b0a565b806117c0615c4692610927565b38615c09565b615c546139c8565b615c04565b90508216151538615af1565b906001600160a01b0391828251169160209384820151169365ffffffffffff9182604082015116926060820151169160c0608083015192015115159260405194855281850152604084016000905b60038210615cec57505050508160c09160a07fbbad5407299f3773930327d215f85a16617efbbddc1fe3902bd39ba46feacf26940152a4565b82806001928651815201940191019092615cb3565b91600092835b60ff90818116600381101561589b5790615d2360019287614678565b516001600160a01b038516885261016e602052615d5361345c8360408b209060ff16600052602052604060002090565b90550116615d07565b615e31615e4a93615e28899a9685986006966106419c9b9965ffffffffffff928391615da1834216948b906001600160a01b03166001600160a01b0319825416179055565b615dc560018b019687906001600160a01b03166001600160a01b0319825416179055565b855465ffffffffffff60a01b191660a085901b65ffffffffffff60a01b1617865515615e69578161ffff6103f05b16918215615e5c575b1604168092038111615e4f575b82546001600160d01b0316910160d01b6001600160d01b031916179055565b6002830161598e565b6000600582015501805462ffffff191662010000179055565b615ed2565b615e57614508565b615e09565b615e6461444f565b615dfc565b8161ffff6001615df3565b615eb9615e4a93615e28899a9685986006966106419c9b9965ffffffffffff928391615da1834216948b906001600160a01b03166001600160a01b0319825416179055565b6000600582015501805462ffffff191662010001179055565b91906040918251615ee2816108fe565b615f5f6001600160a01b0380941691828152600360208201858152878301898152606084019160018352615f3d6000998c8b5261017f6020528b8b2096511686906001600160a01b03166001600160a01b0319825416179055565b51600185015551600284015551151591019060ff801983541691151516179055565b82526101806020528282209082526020522055565b615f8560ff60005460081c16614b83565b60ff1960fb541660fb5556fea2646970667358221220360c37b3555ffee2d35af90944cfdcf95adfd66b14aa141b4b8911d57cb7f6c764736f6c634300080e0033",
  "deployedBytecode": "0x60806040526004361015610013575b600080fd5b60003560e01c806301ffc9a71461052757806306fdde031461051e578063081812fc1461051557806308ed8d161461050c578063095ea7b314610503578063125cc42f146104fa578063162094c4146104f1578063166866c7146104e8578063193cf2bf146104df5780631dbd2086146104d65780631e83409a146104cd5780631fecb71a146104c4578063217fe6c6146104bb5780632372b28a146104b257806323b872dd146104a9578063273d87e2146104a05780632e17de78146104975780633431d6311461048e5780633659cfe614610485578063396b62471461047c57806339d2525f146104735780633c661b8b1461046a5780633de15c121461046157806342842e0e14610458578063485cc9551461044f5780634f1ef28614610446578063528a9e4d1461043d57806352d1902d146104345780635413aa3b1461042b5780636352211e1461042257806370a0823114610419578063715018a61461041057806372a4db4a146104075780637547c7a3146103fe57806375506c96146103f557806382952200146103ec578063848778b4146103e35780638d03b102146103da5780638da5cb5b146103d157806395d89b41146103c85780639db5fa65146103bf578063a22cb465146103b6578063a59a9973146103ad578063b5bc8534146103a4578063b88d4fde1461039b578063ba5e4bad14610392578063bad7edab14610389578063bf02155014610380578063c1592dbc14610377578063c436e3181461036e578063c51046a314610365578063c87b56dd1461035c578063d2438c2a14610353578063d495caaa1461034a578063d5a44f8614610341578063d88fe69914610338578063d909087e1461032f578063de3e3eff14610326578063e25b7d821461031d578063e985e9c514610314578063ef7bd7f31461030b578063f19ed6be14610302578063f2fde38b146102f9578063f56f4f0f146102f05763fe863ac1146102e857600080fd5b61000e6137f4565b5061000e6136a8565b5061000e613616565b5061000e613259565b5061000e613239565b5061000e6131e9565b5061000e6131c1565b5061000e61317d565b5061000e6130c3565b5061000e613063565b5061000e612fc9565b5061000e612e7a565b5061000e612d4b565b5061000e612d17565b5061000e612cf0565b5061000e612cd0565b5061000e612c90565b5061000e612c3c565b5061000e612b4e565b5061000e612b2e565b5061000e612ad6565b5061000e612ab1565b5061000e612a88565b5061000e612996565b5061000e612939565b5061000e612891565b5061000e612869565b5061000e612845565b5061000e612805565b5061000e6127dc565b5061000e6127bc565b5061000e612760565b5061000e6126be565b5061000e612630565b5061000e61258a565b5061000e61256b565b5061000e6124a6565b5061000e6123ce565b5061000e6122a4565b5061000e61210a565b5061000e612010565b5061000e611fe7565b5061000e611b4a565b5061000e611b0e565b5061000e611a32565b5061000e611a03565b5061000e611870565b5061000e61182e565b5061000e6114c5565b5061000e6112eb565b5061000e6112c1565b5061000e611193565b5061000e6110df565b5061000e611040565b5061000e610e21565b5061000e610e04565b5061000e610d49565b5061000e610c75565b5061000e610a5c565b5061000e6108a2565b5061000e6107a9565b5061000e61075b565b5061000e610721565b5061000e610644565b5061000e610542565b6001600160e01b031981160361000e57565b503461000e57602036600319011261000e57602060043561056281610530565b63ffffffff60e01b16632483248360e11b8114908115610588575b506040519015158152f35b6380ac58cd60e01b8114915081156105ba575b81156105a9575b503861057d565b6301ffc9a760e01b149050386105a2565b635b5e139f60e01b8114915061059b565b600091031261000e57565b918091926000905b8282106105f65750116105ef575050565b6000910152565b915080602091830151818601520182916105de565b90602091610624815180928185528580860191016105d6565b601f01601f1916010190565b90602061064192818152019061060b565b90565b503461000e5760008060031936011261071e57604051908060655461066881613c52565b808552916001918083169081156106fd57506001146106a2575b61069e85610692818703826109ac565b60405191829182610630565b0390f35b9250606583527f8ff97419363ffd7000167f130ef7168fbea05faf9251824ca5043f113cc6a7c75b8284106106e55750505081016020016106928261069e610682565b805460208587018101919091529093019281016106ca565b60ff191660208701525050604084019250610692915083905061069e610682565b80fd5b503461000e57602036600319011261000e576020610740600435613cfe565b6001600160a01b0360405191168152f35b8015150361000e57565b503461000e57602036600319011261000e5760043561077981610751565b610781613842565b60ff801960fb5416911515161760fb556000604051f35b6001600160a01b0381160361000e57565b503461000e57604036600319011261000e576004356107c781610798565b6024356107d381613c30565b916001600160a01b0380841680918316146108535761080593610800913314908115610807575b50613c8c565b614073565b005b61084d91506108469061082e33916001600160a01b0316600052606a602052604060002090565b906001600160a01b0316600052602052604060002090565b5460ff1690565b386107fa565b60405162461bcd60e51b815260206004820152602160248201527f4552433732313a20617070726f76616c20746f2063757272656e74206f776e656044820152603960f91b6064820152608490fd5b503461000e57602036600319011261000e576001600160a01b036004356108c881610798565b16600052610163602052602060ff604060002054166040519015158152f35b50634e487b7160e01b600052604160045260246000fd5b6080810190811067ffffffffffffffff82111761091a57604052565b6109226108e7565b604052565b67ffffffffffffffff811161091a57604052565b610120810190811067ffffffffffffffff82111761091a57604052565b6020810190811067ffffffffffffffff82111761091a57604052565b6060810190811067ffffffffffffffff82111761091a57604052565b6040810190811067ffffffffffffffff82111761091a57604052565b90601f8019910116810190811067ffffffffffffffff82111761091a57604052565b604051906109db8261093b565b565b604051906109db82610974565b60209067ffffffffffffffff8111610a08575b601f01601f19160190565b610a106108e7565b6109fd565b81601f8201121561000e57803590610a2c826109ea565b92610a3a60405194856109ac565b8284526020838301011161000e57816000926020809301838601378301015290565b503461000e57604036600319011261000e5760043567ffffffffffffffff60243581811161000e57610a92903690600401610a15565b91610a9b613842565b610abb8160005260676020526001600160a01b0360406000205416151590565b15610c0a576000918183526020906097825260408420918551918211610bfd575b610af082610aea8554613c52565b85614dec565b80601f8311600114610b6757509080610b5494939286977ff8e1a15aba9398e019f0b49df1a4fde98ee17ae345cb5f6b5e2c27f5033e8ce79792610b5c575b50508160011b916000199060031b1c19161790555b6040519081529081906020820190565b0390a1604051f35b015190503880610b2f565b90601f19831696610b7d85600052602060002090565b9287905b898210610be5575050918391600193610b549796957ff8e1a15aba9398e019f0b49df1a4fde98ee17ae345cb5f6b5e2c27f5033e8ce7999a10610bcc575b505050811b019055610b44565b015160001960f88460031b161c19169055388080610bbf565b80600185968294968601518155019501930190610b81565b610c056108e7565b610adc565b60405162461bcd60e51b815260206004820152602e60248201527f45524337323155524953746f726167653a2055524920736574206f66206e6f6e60448201527f6578697374656e7420746f6b656e0000000000000000000000000000000000006064820152608490fd5b503461000e5760208060031936011261000e57600435610c9481610798565b610c9c614558565b90610cc06001600160a01b0392848460c954163314918215610d0e575b5050614579565b1690816000526101639182825260ff60406000205416610cdc57005b61016780548015610d01575b60001901905560005252604060002060ff198154169055005b610d09614508565b610ce8565b60ff925090610d37913360005260fc8252604060002082604051948386809551938492016105d6565b82019081520301902054168438610cb9565b503461000e57602036600319011261000e5761069e60408060608151610d6e816108fe565b600091818380935282602082015282858201520152600435815261017f602052209060ff6003825193610da0856108fe565b6001600160a01b0381541685526001810154602086015260028101548486015201541615156060830152519182918291909160608060808301946001600160a01b038151168452602081015160208501526040810151604085015201511515910152565b503461000e57600036600319011261000e57602060405160028152f35b503461000e57602036600319011261000e57600435610e3f81610798565b806060610e4a6145c5565b33600090815261017c6020908152604080832061017d909252909120610ede905491610e7f610161546001600160a01b031690565b6040516325bd5c4960e01b8152600481019290925261016e6024830152604482019390935261017e606482015260848101939093526001600160a01b0395861660a4840152941660c48201523360e48201529283908190610104820190565b038173__$f048dbd5170c0ac319fa0222065b281d84$__5af4908115611033575b60009182938391610fdc575b507f476aa07c80fdb833cf2d719981e9f22c1e10dbace79a96a1a8a055d6defc1918906001600160a01b03610f41868633615295565b60405163a9059cbb60e01b81523360048201526024810188905291909416959060208160448160008b5af18015610fcf575b610fa1575b5060408051958652602086019190915267ffffffffffffffff91909116908401523392606090a4005b610fc19060203d8111610fc8575b610fb981836109ac565b810190614543565b5038610f78565b503d610faf565b610fd76139c8565b610f73565b90506110239193507f476aa07c80fdb833cf2d719981e9f22c1e10dbace79a96a1a8a055d6defc1918925060603d811161102c575b61101b81836109ac565b81019061524a565b90939192610f0b565b503d611011565b61103b6139c8565b610eff565b503461000e57602036600319011261000e5761080560043561106181610798565b61108861106c614558565b6001600160a01b0360c95416331490811561108d575b50614579565b615839565b60ff915060206110b7913360005260fc8252604060002082604051948386809551938492016105d6565b820190815203019020541638611082565b906110db602092828151948592016105d6565b0190565b503461000e57604036600319011261000e576004356110fd81610798565b60243567ffffffffffffffff811161000e57611151602061069e936001600160a01b0361113060ff953690600401610a15565b911660005260fc8252604060002082604051948386809551938492016105d6565b820190815203019020546040519116151581529081906020820190565b604090600319011261000e5760043561118681610798565b9060243561064181610798565b503461000e5761069e6001600160a01b036111ad3661116e565b911660005261017c6020526020604060002061017d8252604060002054906112206111e1610161546001600160a01b031690565b6040519586948594634f47984960e11b865260048601929094936060926080850196855260208501526001600160a01b03809216604085015216910152565b038173__$f048dbd5170c0ac319fa0222065b281d84$__5af4908115611288575b60009161125a575b506040519081529081906020820190565b61127b915060203d8111611281575b61127381836109ac565b8101906139b9565b38611249565b503d611269565b6112906139c8565b611241565b606090600319011261000e576004356112ad81610798565b906024356112ba81610798565b9060443590565b503461000e576108056112d336611295565b916112e66112e18433613e2d565b613d40565b613f08565b503461000e5760408060031936011261000e57600490813560243561130e613842565b61132a6113256113216101815460ff1690565b1590565b6144bc565b6113348183614537565b6101729182548092116000146114b45750935b73__$f048dbd5170c0ac319fa0222065b281d84$__835b8681106113c1575050506113a86000947f2a3aeb194c33f592b722a8f82cf9c3310794dcc211135c216cc284aea0353b5e92548110156113ae575b84519081529081906020820190565b0390a251f35b610181805460ff19166001179055611399565b808061147061140a6113f06113e3600196600052610171602052604060002090565b546001600160a01b031690565b6001600160a01b031660005261017c602052604060002090565b610161546001600160a01b03168a518093819263705dd6e760e11b835260209687958c85019160c09194936001600160a01b039160e08501966101718652602086015261017d604086015261017f6060860152610180608086015260a085015216910152565b0381885af480156114a7575b611489575b50500161135e565b8161149f92903d10610fc857610fb981836109ac565b503880611481565b6114af6139c8565b61147c565b6114bf915083614537565b93611347565b503461000e57602036600319011261000e576004356114e381614466565b90811561181c578161151f61158f93611510336001600160a01b031660005261017c602052604060002090565b90600052602052604060002090565b9173__$f048dbd5170c0ac319fa0222065b281d84$__9261016161154a81546001600160a01b031690565b6040805163766757b960e11b81526004810185905261016e60248201526001600160a01b03909216604483015233606483015290969095908690889081906084820190565b0381845af492831561180f575b60009788946117d9575b50600601926115b6845460ff1690565b1561173d575050906000602061161982986115ef6115e36115e36116839a9998546001600160a01b031690565b6001600160a01b031690565b895163a9059cbb60e01b815233600482015260248101929092529093849283919082906044820190565b03925af18015611730575b611712575b505b817fab7e44c17ad2a7b4de0e42ab0bc824366a946f184a1133f0b5528347e4ccbd2986518061165f81906002602083019252565b0390a2805460019060081c60ff1661167681612da2565b14611686575b50336158e8565b51f35b6116bd906116aa8360005260676020526001600160a01b0360406000205416151590565b6116fa57805461ff001916610200179055565b807f855f5f4ea7c8c6a92f173fbc35c24d01139c2a49e9bcc085f03620cb6a1c65138551806116f181906002602083019252565b0390a23861167c565b611703836155d3565b805461ff001916610200179055565b6117299060203d8111610fc857610fb981836109ac565b5038611629565b6117386139c8565b611624565b909493929150611756610162546001600160a01b031690565b90853b1561000e5786516331fd8e6560e01b81526001600160a01b039283166004820152911660248201523360448201526064810196909652600095611683948790829060849082905af480156117cc575b6117b3575b5061162b565b806117c06117c692610927565b806105cb565b386117ad565b6117d46139c8565b6117a8565b600698506117fe919450873d8911611808575b6117f681836109ac565b810190615561565b97909793906115a6565b503d6117ec565b6118176139c8565b61159c565b604051638c877d2160e01b8152600490fd5b503461000e57602036600319011261000e5760043561184c81610751565b61185761106c614558565b6101819060ff8019835416911515161790556000604051f35b503461000e57602036600319011261000e5760043561188e81610798565b6001600160a01b0390817f000000000000000000000000000000000000000000000000000000000000000016916118c7833014156138e4565b6118f67f360894a13ba1a3210667c828492db98dca3e2076cc3735a920a3ca505d382bbc938285541614613945565b6118fe613842565b6040519061190b82610958565b600082527f4910fdfa16fed3260ed0e7147f7cc6da11a60208b5b9406d12a635614ffd91435460ff16156119455750506108059150613a33565b6020600491604094939451928380926352d1902d60e01b825286165afa600091816119e3575b506119d05760405162461bcd60e51b815260206004820152602e60248201527f45524331393637557067726164653a206e657720696d706c656d656e7461746960448201526d6f6e206973206e6f74205555505360901b6064820152608490fd5b0390fd5b610805936119de91146139d5565b613ad1565b6119fc91925060203d81116112815761127381836109ac565b903861196b565b503461000e57600036600319011261000e57602067ffffffffffffffff611a286145c5565b5416604051908152f35b503461000e57606036600319011261000e57600435611a5081610798565b6024359067ffffffffffffffff821161000e57611ab66020611a79610805943690600401610a15565b6001600160a01b0360443594611a8e86610751565b611a96613842565b1660005260fc8252604060002082604051948386809551938492016105d6565b8201908152030190209060ff801983541691151516179055565b50634e487b7160e01b600052603260045260246000fd5b906003821015611b01575b601f8260051c61016f01921690565b611b09611ad0565b611af2565b503461000e57602036600319011261000e57600435600381101561000e578060ff60209260051c61016f015460f86040519360031b161c168152f35b503461000e5760208060031936011261000e57611b6c61132160fb5460ff1690565b80611fc8575b611fb75773__$f048dbd5170c0ac319fa0222065b281d84$__9061017390611b9a825461303f565b506040908151634e868a0160e01b8152600095868280611bbe60049687830161519d565b0381845af4918215611faa575b87908893611f83575b50611be190843590614537565b875b61016554811015611e9f57611c4187611c11611bfe8461271b565b90546001600160a01b039160031b1c1690565b88518093819263c78ea24360e01b83528a830191909160206001600160a01b03604083019461016e845216910152565b0381875af4908115611e92575b8a91611e75575b50611c63575b600101611be3565b61016290611c7b6115e383546001600160a01b031690565b611ccb89611c8b611bfe8561271b565b8a5180938192630530fa2160e01b83528c830160408082526003908201526206966760ec1b60608201526001600160a01b03909116602082015260800190565b0381855afa908115611e68575b8c91611e4b575b50611cf481611cee858a6151b2565b51614537565b611cfe84896151b2565b5280611d0e575b50509050611c5b565b611d1a611bfe8461271b565b908c833b1561071e5789611da36115e36001988f968f87611deb9a611d859389809451809681958294636c49e02160e01b84528d840160608082526003908201526206966760ec1b6080820152909291906040906001600160a01b0360a08201951660208201520152565b03925af18015611e3e575b611e2b575b50546001600160a01b031690565b91611db0611bfe8861271b565b8d5163276d76f960e21b81526001600160a01b0390911692810192835230602084015260408301949094529294859384929091839160600190565b03925af18015611e1e575b611e01575b80611d05565b611e1790893d8b11610fc857610fb981836109ac565b5038611dfb565b611e266139c8565b611df6565b806117c0611e3892610927565b38611d95565b611e466139c8565b611d90565b611e6291508a3d8c116112815761127381836109ac565b38611cdf565b611e706139c8565b611cd8565b611e8c9150883d8a116112815761127381836109ac565b38611c55565b611e9a6139c8565b611c4e565b509085949693611ee59693945490611eca895196879586948594637f0440bf60e01b865285016151d4565b03915af4918215611f76575b8592611f59575b505061017355565b7f41d377f5159e61f9ec3e5d7ecc5d2f8d2b17f2b58c8f05a4f9e8fce553a59cab611f1f611f116145c5565b5467ffffffffffffffff1690565b611f3b611f2a6145c5565b5460401c67ffffffffffffffff1690565b835167ffffffffffffffff928316815291166020820152604090a151f35b611f6f9250803d106112815761127381836109ac565b3880611edd565b611f7e6139c8565b611ed6565b611be19350611fa491503d808a833e611f9c81836109ac565b8101906150a5565b92611bd4565b611fb26139c8565b611bcb565b6040516282b42960e81b8152600490fd5b50611fdf6115e3610161546001600160a01b031690565b331415611b72565b503461000e57610805611ff936611295565b906040519261200784610958565b60008452613da2565b503461000e57604036600319011261000e5760043561202e81610798565b61207e60243561203d81610798565b6000549261206260ff8560081c1615809581966120fc575b81156120dc575b50614748565b83612075600160ff196000541617600055565b6120c3576149c5565b61208457005b61209461ff001960005416600055565b604051600181527f7f26b83ff96e1f2b6a682f133852f6798a09c465da95921460cefb384740249890602090a1005b6120d761010061ff00196000541617600055565b6149c5565b303b159150816120ee575b503861205c565b6001915060ff1614386120e7565b600160ff8216109150612055565b50604036600319011261000e5760043561212381610798565b60243567ffffffffffffffff811161000e57612143903690600401610a15565b906001600160a01b0391827f0000000000000000000000000000000000000000000000000000000000000000169261217d843014156138e4565b6121ac7f360894a13ba1a3210667c828492db98dca3e2076cc3735a920a3ca505d382bbc948286541614613945565b6121b4613842565b7f4910fdfa16fed3260ed0e7147f7cc6da11a60208b5b9406d12a635614ffd91435460ff16156121ea5750506108059150613a33565b6020600491604094939451928380926352d1902d60e01b825286165afa60009181612284575b506122715760405162461bcd60e51b815260206004820152602e60248201527f45524331393637557067726164653a206e657720696d706c656d656e7461746960448201526d6f6e206973206e6f74205555505360901b6064820152608490fd5b6108059361227f91146139d5565b613b8d565b61229d91925060203d81116112815761127381836109ac565b9038612210565b503461000e57602036600319011261000e576004356122c281614466565b801561181c576122ea90611510336001600160a01b031660005261017c602052604060002090565b336001600160a01b0361230483546001600160a01b031690565b1603611fb75760068101805460ff8116159081156123b5575b506123a357612392816123887fab7e44c17ad2a7b4de0e42ab0bc824366a946f184a1133f0b5528347e4ccbd299461236361239e956201000062ff000019825416179055565b612382600261237b610161546001600160a01b031690565b9201614f7e565b90615d01565b5460101c60ff1690565b60405191829182615095565b0390a2005b60405163baf3f0f760e01b8152600490fd5b60ff915060101c166123c681612da2565b15153861231d565b503461000e57600036600319011261000e576001600160a01b037f000000000000000000000000000000000000000000000000000000000000000016300361243b576040517f360894a13ba1a3210667c828492db98dca3e2076cc3735a920a3ca505d382bbc8152602090f35b60405162461bcd60e51b815260206004820152603860248201527f555550535570677261646561626c653a206d757374206e6f742062652063616c60448201527f6c6564207468726f7567682064656c656761746563616c6c00000000000000006064820152608490fd5b503461000e5760008060031936011261071e5761069e9061017354600281101561255e575b60405190634e868a0160e01b825260021b610174016004820152604060248201528181806124fb60448201615137565b038173__$f048dbd5170c0ac319fa0222065b281d84$__5af4918215612551575b8092612535575b50506040519081529081906020820190565b61254992503d8091833e611f9c81836109ac565b503880612523565b6125596139c8565b61251c565b612566611ad0565b6124cb565b503461000e57602036600319011261000e576020610740600435613c30565b503461000e57602036600319011261000e576001600160a01b036004356125b081610798565b1680156125d957600052606860205261069e604060002054604051918291829190602083019252565b60405162461bcd60e51b815260206004820152602960248201527f4552433732313a2061646472657373207a65726f206973206e6f7420612076616044820152683634b21037bbb732b960b91b6064820152608490fd5b503461000e5760008060031936011261071e5761264b613842565b60c9546001600160a01b0319811660c955816001600160a01b0360405192167f8be0079c531659141344cd1fd0a4f28419497f9722a3daafe3b4186f6b6457e08284a3f35b6024359060ff8216820361000e57565b6044359060ff8216820361000e57565b359060ff8216820361000e57565b503461000e57606036600319011261000e57366023121561000e576040516126e581610974565b60648136821161000e576004905b82821061270357610805846145f0565b60208091612710846126b0565b8152019101906126f3565b6101658054821015612753575b6000527fd91ca5e44fa96a1732bfaed7fe33fc20ed69a9895cde1f18c7dcabca39d6a78b0190600090565b61275b611ad0565b612728565b503461000e57602036600319011261000e57600435610165805482101561000e576020916001600160a01b03916000527fd91ca5e44fa96a1732bfaed7fe33fc20ed69a9895cde1f18c7dcabca39d6a78b015416604051908152f35b503461000e57600036600319011261000e57602061017254604051908152f35b503461000e57600036600319011261000e5760206001600160a01b036101615416604051908152f35b503461000e57602036600319011261000e576001600160a01b0360043561282b81610798565b166000526101646020526020604060002054604051908152f35b503461000e57600036600319011261000e57602060ff60fb54166040519015158152f35b503461000e57600036600319011261000e5760206001600160a01b0360c95416604051908152f35b503461000e5760008060031936011261071e5760405190806066546128b581613c52565b808552916001918083169081156106fd57506001146128de5761069e85610692818703826109ac565b9250606683527f46501879b8ca8525e8c2fd519e2fbfcfa2ebea26501294aa02cbfcfb12e943545b8284106129215750505081016020016106928261069e610682565b80546020858701810191909152909301928101612906565b503461000e57604036600319011261000e57602061298d60043561295c81610798565b6001600160a01b0361296c612690565b911660005261016e835260406000209060ff16600052602052604060002090565b54604051908152f35b503461000e57604036600319011261000e576004356129b481610798565b6024356129c081610751565b6001600160a01b03821691823314612a435781612a00612a119233600052606a6020526040600020906001600160a01b0316600052602052604060002090565b9060ff801983541691151516179055565b604051901515815233907f17307eab39ab6107e8899845ad3d59bd9653f200f220920489ca2b5937696c3190602090a3005b60405162461bcd60e51b815260206004820152601960248201527f4552433732313a20617070726f766520746f2063616c6c6572000000000000006044820152606490fd5b503461000e57600036600319011261000e5760206001600160a01b036101625416604051908152f35b503461000e57600036600319011261000e57602060ff61018154166040519015158152f35b503461000e57608036600319011261000e57600435612af481610798565b602435612b0081610798565b6064359167ffffffffffffffff831161000e57612b24610805933690600401610a15565b9160443591613da2565b503461000e57600036600319011261000e57602061017054604051908152f35b503461000e57602036600319011261000e57600435612b6c81614466565b801561181c57612b9490611510336001600160a01b031660005261017c602052604060002090565b336001600160a01b03612bae83546001600160a01b031690565b1603611fb7576006018054600260ff8260101c16612bcb81612da2565b14908115612c23575b506123a357805461ff001916610100179055612bf0813361545a565b604051600181527f855f5f4ea7c8c6a92f173fbc35c24d01139c2a49e9bcc085f03620cb6a1c651390806020810161239e565b60ff915060081c16612c3481612da2565b151538612bd4565b503461000e57604036600319011261000e57602061298d600435612c5f81610798565b6001600160a01b03612c6f612690565b911660005261016b835260406000209060ff16600052602052604060002090565b503461000e57602036600319011261000e576001600160a01b03600435612cb681610798565b1660005261017d6020526020604060002054604051908152f35b503461000e57600036600319011261000e57602061016854604051908152f35b503461000e57602036600319011261000e576020612d0f600435614466565b604051908152f35b503461000e57602036600319011261000e5761069e612d37600435614257565b60405191829160208352602083019061060b565b503461000e57600036600319011261000e57612d6e60ff60005460081c16614b83565b60fb805460ff19169055005b6000915b60038310612d8b57505050565b600190825181526020809101920192019190612d7e565b60031115612dac57565b634e487b7160e01b600052602160045260246000fd5b90612dcc82612da2565b52565b6109db909291926101406101608201946001600160a01b038151168352612e06602082015160208501906001600160a01b03169052565b60408181015165ffffffffffff169084015260608181015165ffffffffffff1690840152612e3c60808201516080850190612d7a565b60a081015160e084015260c081015190612e5d610100928386019015159052565b612e7060e0820151610120860190612dc2565b0151910190612dc2565b503461000e5760408060031936011261000e5760043590612e9a82610798565b602435918151612ea98161093b565b61010060009182815282602082015282858201528260608201528451612ece81610974565b606036823760808201528260a08201528260c08201528260e0820152015282158015612f42575b612f3157612f2161069e93611510612f26936001600160a01b031660005261017c602052604060002090565b614fcd565b905191829182612dcf565b8151638c877d2160e01b8152600490fd5b50612f61816001600160a01b031660005261017d602052604060002090565b548311612ef5565b94919897969360e096939161010087019a6001600160a01b03809216885216602087015265ffffffffffff80921660408701521660608501526080840152151560a0830152612fb781612da2565b60c0820152612fc583612da2565b0152565b503461000e57602036600319011261000e5760043560005261017160205260406000206001600160a01b0361069e81835416600184015490600660058601549501549060405195869560ff8460101c169460ff808660081c169516938160d01c9265ffffffffffff8360a01c1692169089612f69565b6002811015613056575b60021b6101740190600090565b61305e611ad0565b613049565b503461000e57602036600319011261000e57600435600281101561000e5760809060021b80610174015490610176610175820154910154906040519267ffffffffffffffff90818116855260401c16602084015260408301526060820152f35b503461000e57604036600319011261000e576004356130e181610798565b6001600160a01b0380911660005261017c602052604060002060243560005260205260406000209061069e81835416600184015490600660058601549501549060405195869560ff8460101c169460ff808660081c169516938160d01c9265ffffffffffff8360a01c1692169089612f69565b906003821015613170575b6006600580840461016d0193060290565b613178611ad0565b61315f565b503461000e57602036600319011261000e57600435600381101561000e578065ffffffffffff60056020930461016d01546006600560405194060260031b1c168152f35b503461000e57600036600319011261000e57602065ffffffffffff6101665416604051908152f35b503461000e57602060ff61322d6001600160a01b036132073661116e565b9116600052606a84526040600020906001600160a01b0316600052602052604060002090565b54166040519015158152f35b503461000e57600036600319011261000e57602061016754604051908152f35b50606036600319011261000e57600480359061327482610798565b602435916132806126a0565b9273__$f048dbd5170c0ac319fa0222065b281d84$__906132b8610846846001600160a01b0316600052610163602052604060002090565b93823b1561000e5785926040958651809263f39ce06360e01b825281806132fc8860009d8e978a850160ff6040929594936060830196151583521660208201520152565b03915af48015613609575b6135f6575b506001600160a01b0384168015801580613590575b61358057156134d957508134036134815750612f21611683939261347b9261336f88808061335b6115e3610162546001600160a01b031690565b858c51915af161336961411d565b50614f1e565b61346461345c61337d614f6a565b938361338c60ff831687614678565b5261344a61017254986133a76133a18b6148fd565b61017255565b61342f6133c8336001600160a01b031660005261017d602052604060002090565b976133d389546148fd565b809955888c6133fa82611510336001600160a01b031660005261017c602052604060002090565b928561341a6134088a613154565b905465ffffffffffff9160031b1c1690565b9161342760fb5460ff1690565b953390615d5c565b506001600160a01b031660005261016e602052604060002090565b9060ff16600052602052604060002090565b918254614537565b905533600090815261017c60205260409020611510565b90615c65565b6119cc908551918291631fff1b3b60e21b8352820160809060208152602260208201527f496e636f7272656374206e617469766520636f696e207374616b6520616d6f756040820152611b9d60f21b60608201520190565b928261353f602061347b956116839897612f21968c6135046115e3610162546001600160a01b031690565b8d516323b872dd60e01b8152339381019384526001600160a01b03909116602084015260408301949094529294859384929091839160600190565b03925af18015613573575b613555575b5061336f565b61356c9060203d8111610fc857610fb981836109ac565b503861354f565b61357b6139c8565b61354a565b8651631e9acf1760e31b81528390fd5b5086516370a0823160e01b8152338482019081528591906020908290819083010381875afa9081156135e9575b8a916135cb575b5010613321565b6135e3915060203d81116112815761127381836109ac565b386135c4565b6135f16139c8565b6135bd565b806117c061360392610927565b3861330c565b6136116139c8565b613307565b503461000e57602036600319011261000e5760043561363481610798565b61363c613842565b6001600160a01b03811615613654576108059061389a565b60405162461bcd60e51b815260206004820152602660248201527f4f776e61626c653a206e6577206f776e657220697320746865207a65726f206160448201526564647265737360d01b6064820152608490fd5b503461000e576136b73661116e565b906001600160a01b03811660005261017c60205260408092816000206137756136f4856001600160a01b031660005261017d602052604060002090565b5492610173549561370e610161546001600160a01b031690565b865197889687966365a52ecd60e11b8852600488019492610100949197969261012087019887526020870152610174604087015261017e606087015261016e608087015260a08601526001600160a01b03928380921660c08701521660e085015216910152565b038173__$f048dbd5170c0ac319fa0222065b281d84$__5af49182156137e7575b60009182936137b2575b50519081526020810191909152604090f35b816137d892945061069e93503d85116137e0575b6137d081836109ac565b810190615234565b9290916137a0565b503d6137c6565b6137ef6139c8565b613796565b503461000e57604036600319011261000e576001600160a01b0360043561381a81610798565b1660005261018060205260406000206024356000526020526020604060002054604051908152f35b6001600160a01b0360c95416330361385657565b606460405162461bcd60e51b815260206004820152602060248201527f4f776e61626c653a2063616c6c6572206973206e6f7420746865206f776e65726044820152fd5b60c954906001600160a01b0380911691826001600160a01b031982161760c955167f8be0079c531659141344cd1fd0a4f28419497f9722a3daafe3b4186f6b6457e06000604051a3565b156138eb57565b60405162461bcd60e51b815260206004820152602c60248201527f46756e6374696f6e206d7573742062652063616c6c6564207468726f7567682060448201526b19195b1959d85d1958d85b1b60a21b6064820152608490fd5b1561394c57565b60405162461bcd60e51b815260206004820152602c60248201527f46756e6374696f6e206d7573742062652063616c6c6564207468726f7567682060448201526b6163746976652070726f787960a01b6064820152608490fd5b604051906139b382610958565b60008252565b9081602091031261000e575190565b506040513d6000823e3d90fd5b156139dc57565b60405162461bcd60e51b815260206004820152602960248201527f45524331393637557067726164653a20756e737570706f727465642070726f786044820152681a58589b195555525160ba1b6064820152608490fd5b803b15613a76576001600160a01b037f360894a13ba1a3210667c828492db98dca3e2076cc3735a920a3ca505d382bbc91166001600160a01b0319825416179055565b60405162461bcd60e51b815260206004820152602d60248201527f455243313936373a206e657720696d706c656d656e746174696f6e206973206e60448201526c1bdd08184818dbdb9d1c9858dd609a1b6064820152608490fd5b613ada81613a33565b604051906001600160a01b0381167fbc7cd75a20ee27fd9adebab32041f755214dbc6bffa90cc0225b39da2e5c2d3b600084a2825115801590613b85575b613b2157505050565b600080613b8294613b3185610974565b602785527f416464726573733a206c6f772d6c6576656c2064656c65676174652063616c6c6020860152660819985a5b195960ca1b6040860152602081519101845af4613b7c61411d565b916143be565b50565b506000613b18565b613b9681613a33565b604051906001600160a01b0381167fbc7cd75a20ee27fd9adebab32041f755214dbc6bffa90cc0225b39da2e5c2d3b600084a2825115801590613bdc57613b2157505050565b506001613b18565b15613beb57565b60405162461bcd60e51b815260206004820152601860248201527f4552433732313a20696e76616c696420746f6b656e20494400000000000000006044820152606490fd5b60005260676020526001600160a01b0360406000205416610641811515613be4565b90600182811c92168015613c82575b6020831014613c6c57565b634e487b7160e01b600052602260045260246000fd5b91607f1691613c61565b15613c9357565b60405162461bcd60e51b815260206004820152603d60248201527f4552433732313a20617070726f76652063616c6c6572206973206e6f7420746f60448201527f6b656e206f776e6572206f7220617070726f76656420666f7220616c6c0000006064820152608490fd5b613d26613d218260005260676020526001600160a01b0360406000205416151590565b613be4565b60005260696020526001600160a01b036040600020541690565b15613d4757565b60405162461bcd60e51b815260206004820152602d60248201527f4552433732313a2063616c6c6572206973206e6f7420746f6b656e206f776e6560448201526c1c881bdc88185c1c1c9bdd9959609a1b6064820152608490fd5b90613dc6939291613db66112e18433613e2d565b613dc1838383613f08565b61414d565b15613dcd57565b60405162461bcd60e51b815260206004820152603260248201527f4552433732313a207472616e7366657220746f206e6f6e20455243373231526560448201527131b2b4bb32b91034b6b83632b6b2b73a32b960711b6064820152608490fd5b6001600160a01b0380613e3f84613c30565b169281831692848414948515613e75575b50508315613e5f575b50505090565b613e6b91929350613cfe565b1614388080613e59565b60ff92955090613ea491600052606a6020526040600020906001600160a01b0316600052602052604060002090565b5416923880613e50565b15613eb557565b60405162461bcd60e51b815260206004820152602560248201527f4552433732313a207472616e736665722066726f6d20696e636f72726563742060448201526437bbb732b960d91b6064820152608490fd5b90613f2e9291613f1783613c30565b6001600160a01b0382811695909182168614613eae565b8216938415614022576109db9481613f538693613f4d6115e386613c30565b14613eae565b613f7a613f6a846000526069602052604060002090565b80546001600160a01b0319169055565b613f97846001600160a01b03166000526068602052604060002090565b6000198154019055613fbc856001600160a01b03166000526068602052604060002090565b60018154019055613ff685613fdb856000526067602052604060002090565b906001600160a01b03166001600160a01b0319825416179055565b7fddf252ad1be2c89b69c2b068fc378daa952ba7f163c4a11628f55a4df523b3ef6000604051a4615adc565b60405162461bcd60e51b8152602060048201526024808201527f4552433732313a207472616e7366657220746f20746865207a65726f206164646044820152637265737360e01b6064820152608490fd5b600082815260696020526040902080546001600160a01b0319166001600160a01b0383161790556001600160a01b03806140ac84613c30565b169116907f8c5be1e5ebec7d5bd14f71427d1e84f3dd0314c0f7b2291e5b200ac8c7c3b9256000604051a4565b9081602091031261000e575161064181610530565b909261064194936080936001600160a01b0380921684521660208301526040820152816060820152019061060b565b3d15614148573d9061412e826109ea565b9161413c60405193846109ac565b82523d6000602084013e565b606090565b92909190823b1561424e576141889260209260006001600160a01b03604051809781968295630a85bd0160e11b9b8c855233600486016140ee565b0393165af16000918161421e575b50614210576141a361411d565b8051908161420b5760405162461bcd60e51b815260206004820152603260248201527f4552433732313a207472616e7366657220746f206e6f6e20455243373231526560448201527131b2b4bb32b91034b6b83632b6b2b73a32b960711b6064820152608490fd5b602001fd5b6001600160e01b0319161490565b61424091925060203d8111614247575b61423881836109ac565b8101906140d9565b9038614196565b503d61422e565b50505050600190565b61427a613d218260005260676020526001600160a01b0360406000205416151590565b600090808252602060978152604083206040518481959083549061429d82613c52565b80855294600192808416908115614359575060011461431d575b5050506142c6925003846109ac565b6142ce6139a6565b928351156143165780516142e85750506106419150614379565b6106419250614308906143026040519586948501906110c8565b906110c8565b03601f1981018352826109ac565b9250505090565b869350819291528282205b8583106143415750506142c693508201013880806142b7565b8054838a018501528894508693909201918101614328565b965050505050505060ff1916818401526142c683604081013880806142b7565b613d2161439c9160005260676020526001600160a01b0360406000205416151590565b60006040516143aa81610958565b526040516143b781610958565b6000815290565b9192901561442057508151156143d2575090565b3b156143db5790565b60405162461bcd60e51b815260206004820152601d60248201527f416464726573733a2063616c6c20746f206e6f6e2d636f6e74726163740000006044820152606490fd5b8251909150156144335750805190602001fd5b60405162461bcd60e51b81529081906119cc9060048301610630565b50634e487b7160e01b600052601260045260246000fd5b60005261017f6020526040600020604051614480816108fe565b6001600160a01b038254168152600182015490606060ff600360208401958587526002810154604086015201541615159101521561181c575190565b156144c357565b60405162461bcd60e51b815260206004820152601b60248201527f4d6967726174696f6e20616c726561647920636f6d706c6574656400000000006044820152606490fd5b50634e487b7160e01b600052601160045260246000fd5b600190600119811161452f570190565b6110db614508565b8119811161452f570190565b9081602091031261000e575161064181610751565b6040519061456582610990565b600582526430b236b4b760d91b6020830152565b1561458057565b60405162461bcd60e51b815260206004820152600e60248201527f4e6f7420617574686f72697a65640000000000000000000000000000000000006044820152606490fd5b60046101735460026001821610156145e3575b60021b166101740190565b6145eb611ad0565b6145d8565b6145fb61106c614558565b606460ff614623614616828551168360208701511690614697565b8260408601511690614697565b1603614632576109db906146e3565b604051631fff1b3b60e21b815260206004820152601260248201527f4d7573742073756d20757020746f2031303000000000000000000000000000006044820152606490fd5b90600381101561468a575b60051b0190565b614692611ad0565b614683565b60ff8091169116908160ff03811161452f570190565b80600019048211811515166146c0570290565b6146c8614508565b0290565b8181106146d7575050565b600081556001016146cc565b9061016f60009081935b600380861015614740579060209160ff908183511691868654921b90811b9283911b169119161783550193600180930192601f8411614731575b50600101936146ed565b60009350909101906001614727565b505050509050565b1561474f57565b60405162461bcd60e51b815260206004820152602e60248201527f496e697469616c697a61626c653a20636f6e747261637420697320616c72656160448201527f647920696e697469616c697a65640000000000000000000000000000000000006064820152608490fd5b156147c157565b60405162461bcd60e51b815260206004820152600f60248201527f496e76616c6964206164647265737300000000000000000000000000000000006044820152606490fd5b6101658054906801000000000000000082101561486f575b60018201808255821015614862575b6000527fd91ca5e44fa96a1732bfaed7fe33fc20ed69a9895cde1f18c7dcabca39d6a78b0180546001600160a01b0319169055565b61486a611ad0565b61482d565b6148776108e7565b61481e565b6001600160a01b03610165805490680100000000000000008210156148f0575b600182018082558210156148e3575b6000527fd91ca5e44fa96a1732bfaed7fe33fc20ed69a9895cde1f18c7dcabca39d6a78b0191166001600160a01b0319825416179055565b6148eb611ad0565b6148ab565b6148f86108e7565b61489c565b600190600019811461452f570190565b9061016d600080935b600380861015614740578160209162ffffff600694511690858754911b65ffffffffffff811b9283911b1691191617855501910193601a851161495e575b6001019390614916565b60009450600190920191614954565b6040519061497a82610990565b601382527f457363726f77656420417373657420426f6e64000000000000000000000000006020830152565b604051906149b382610990565b600382526222a0a160e91b6020830152565b614a8a90614a27614abc936149ed6001600160a01b0380851615159081614b77575b506147ba565b61016180546001600160a01b0319166001600160a01b0385161790556001600160a01b0361016291166001600160a01b0319825416179055565b614a32600161017255565b60008052610163602052614a6e7f323947e965fafc5a11fbcfc7a37a72d1b12094b96c7e62e08b97c054e8e6b0a75b805460ff19166001179055565b614a76614806565b614ab661016791614a90614a8a84546148fd565b61016755565b614ab1614a61826001600160a01b0316600052610163602052604060002090565b61487c565b546148fd565b610166805465ffffffffffff1916630114db00179055614afa614add6109dd565b62093a8081526224ea006020820152626ebe00604082015261490d565b614b1c614b056109dd565b60148152601e6020820152603260408201526146e3565b610181805460ff19169055614b46614b326145c5565b805467ffffffffffffffff19166001179055565b614b5f614b5161496d565b614b596149a6565b90614c17565b614b67614be3565b614b6f615f74565b6109db614c06565b905082161515386149e7565b15614b8a57565b60405162461bcd60e51b815260206004820152602b60248201527f496e697469616c697a61626c653a20636f6e7472616374206973206e6f74206960448201526a6e697469616c697a696e6760a81b6064820152608490fd5b614bfd60ff60005460081c16614bf881614b83565b614b83565b6109db3361389a565b6109db60ff60005460081c16614b83565b90614c2d60ff60005460081c16614bf881614b83565b815167ffffffffffffffff8111614d28575b614c5381614c4e606554613c52565b614d35565b602080601f8311600114614c95575081906109db94600092614c8a575b50508160011b916000199060031b1c191617606555614e26565b015190503880614c70565b919293601f198416614cc960656000527f8ff97419363ffd7000167f130ef7168fbea05faf9251824ca5043f113cc6a7c790565b936000905b828210614d105750509160019391856109db97969410614cf7575b505050811b01606555614e26565b015160001960f88460031b161c19169055388080614ce9565b80600186978294978701518155019601940190614cce565b614d306108e7565b614c3f565b90601f8211614d42575050565b6109db9160656000527f8ff97419363ffd7000167f130ef7168fbea05faf9251824ca5043f113cc6a7c7906020601f840160051c83019310614d8c575b601f0160051c01906146cc565b9091508190614d7f565b90601f8211614da3575050565b6109db9160666000527f46501879b8ca8525e8c2fd519e2fbfcfa2ebea26501294aa02cbfcfb12e94354906020601f840160051c83019310614d8c57601f0160051c01906146cc565b9190601f8111614dfb57505050565b6109db926000526020600020906020601f840160051c83019310614d8c57601f0160051c01906146cc565b90815167ffffffffffffffff8111614f11575b614e4d81614e48606654613c52565b614d96565b602080601f8311600114614e895750819293600092614e7e575b50508160011b916000199060031b1c191617606655565b015190503880614e67565b90601f19831694614ebc60666000527f46501879b8ca8525e8c2fd519e2fbfcfa2ebea26501294aa02cbfcfb12e9435490565b926000905b878210614ef9575050836001959610614ee0575b505050811b01606655565b015160001960f88460031b161c19169055388080614ed5565b80600185968294968601518155019501930190614ec1565b614f196108e7565b614e39565b15614f2557565b60405162461bcd60e51b815260206004820152601f60248201527f4661696c656420746f207472616e73666572206e617469766520746f6b656e006044820152606490fd5b60405190614f7782610974565b6060368337565b60405191906000835b60038210614fae575050506060820182811067ffffffffffffffff82111761091a57604052565b6001602081928554815201930191019091614f87565b612dcc82612da2565b906109db60ff6006614fdd6109ce565b94614fff614ff282546001600160a01b031690565b6001600160a01b03168752565b60018101546001600160a01b038116602088015265ffffffffffff60a082901c16604088015260d01c606087015261503960028201614f7e565b6080870152600581015460a08701520154818116151560c0860152615066828260081c1660e08701614fc4565b60101c166101008401614fc4565b9061507e81612da2565b62ff000082549160101b169062ff00001916179055565b91906020830192612dcc82612da2565b91909160408184031261000e578051926020908183015167ffffffffffffffff9384821161000e570181601f8201121561000e57805193841161512a575b8360051b90604051946150f8858401876109ac565b8552838086019282010192831161000e578301905b82821061511b575050505090565b8151815290830190830161510d565b6151326108e7565b6150e3565b6101659081548082526020809201926000527fd91ca5e44fa96a1732bfaed7fe33fc20ed69a9895cde1f18c7dcabca39d6a78b916000905b82821061517d575050505090565b83546001600160a01b03168552938401936001938401939091019061516f565b60409061064192815281602082015201615137565b60209181518110156151c7575b60051b010190565b6151cf611ad0565b6151bf565b90929160a0820190610174835260209485840152604083015260a0606083015282518091528360c0830193019360005b8281106152205750505061064192506080818303910152615137565b855185529481019493810193600101615204565b919082604091031261000e576020825192015190565b9081606091031261000e578051916040602083015192015167ffffffffffffffff8116810361000e5790565b9061528081612da2565b61ff0082549160081b169061ff001916179055565b9061529e614f6a565b9060005b60ff90818116600381101561533f57906152fe6001926152ed6152e66152e06152da6152cd87611ae7565b905460ff9160031b1c1690565b60ff1690565b886146ad565b6064900490565b6152f78289614678565b5286614678565b5161533661345c8361344a61531c610161546001600160a01b031690565b6001600160a01b031660005261016e602052604060002090565b905501166152a2565b50505050612f21615408916115106109db949695966113f0600661017254809a61536b6133a1836148fd565b6153f261538c866001600160a01b031660005261017d602052604060002090565b9761539789546148fd565b809955886153bd816115108a6001600160a01b031660005261017c602052604060002090565b946153d1610161546001600160a01b031690565b6101665465ffffffffffff16906153ea60fb5460ff1690565b948b89615e74565b50600582015501805461ff001916610200179055565b83615c65565b1561541557565b60405162461bcd60e51b815260206004820152601c60248201527f4552433732313a20746f6b656e20616c7265616479206d696e746564000000006044820152606490fd5b6001600160a01b03811690811561551d576154f3906154986154928560005260676020526001600160a01b0360406000205416151590565b1561540e565b6154bb6154928560005260676020526001600160a01b0360406000205416151590565b6154d8816001600160a01b03166000526068602052604060002090565b60018154019055613fdb846000526067602052604060002090565b60007fddf252ad1be2c89b69c2b068fc378daa952ba7f163c4a11628f55a4df523b3ef81604051a4565b606460405162461bcd60e51b815260206004820152602060248201527f4552433732313a206d696e7420746f20746865207a65726f20616464726573736044820152fd5b919082604091031261000e576020825192015161064181610798565b6106419054613c52565b6155918154613c52565b908161559b575050565b81601f600093116001146155ad575055565b818352602083206155c991601f0160051c8101906001016146cc565b8160208120915555565b6155dc81613c30565b506155e681613c30565b6000908282526069602052604082206001600160a01b0319908181541690556001600160a01b0382169081845260686020526040842060001981540190558484526067602052604084209081541690558383827fddf252ad1be2c89b69c2b068fc378daa952ba7f163c4a11628f55a4df523b3ef82604051a4151580615832575b6156ad575b505061568a615685826000526097602052604060002090565b61557d565b6156915750565b6156a86109db916000526097602052604060002090565b615587565b6156b683614466565b806156c2575b5061566c565b80846156ec612f216156f594611510876001600160a01b031660005261017c602052604060002090565b938585526158e8565b6000805261017d60205261576761572d7f570683e83a763565db96d79020a21094d1eed3afde1dfb6258e82fee3838deb05b5461451f565b6000805261017c60205291615762837fdf42de3f6f21d051fad2ddf44fdf9c714eaaa0a956bf2970fe63b68205b0d06e611510565b6159b6565b73__$f048dbd5170c0ac319fa0222065b281d84$__803b1561582e5760405163093c769560e21b815261017f6004820152610180602482015260448101859052600060648201526084810192909252909190829060a49082905af48015615821575b61580e575b506000805261017d6020527f570683e83a763565db96d79020a21094d1eed3afde1dfb6258e82fee3838deb061580481546148fd565b90553880806156bc565b806117c061581b92610927565b386157ce565b6158296139c8565b6157c9565b8280fd5b5081615667565b906001600160a01b039081831680600052610163602052615863611321604060002060ff90541690565b6158b3575b61016554939260005b60ff908682821610156158a457838361588c611bfe8461271b565b161461589b5760010116615871565b50505050915050565b5050505091506109db9061487c565b6158c2614a8a610167546148fd565b6158e3614a61856001600160a01b0316600052610163602052604060002090565b615868565b90916001600160a01b0373__$f048dbd5170c0ac319fa0222065b281d84$__9216908160005261017c6020526040600020833b1561000e5760009360e492604051968795869463f97681bd60e01b8652600486015261017f6024860152610180604486015261017d6064860152608485015260a484015260c48301525af48015615981575b6159745750565b806117c06109db92610927565b6159896139c8565b61596d565b906000905b600382106159a057505050565b6001602082829351865501930191019091615993565b9061010060066109db936159f06159d485516001600160a01b031690565b82546001600160a01b0319166001600160a01b03909116178255565b615a7560018201615a0e6159d460208801516001600160a01b031690565b615a48615a24604088015165ffffffffffff1690565b825465ffffffffffff60a01b191660a09190911b65ffffffffffff60a01b16178255565b606086015165ffffffffffff1681546001600160d01b031660d09190911b6001600160d01b031916179055565b615a8660808501516002830161598e565b60a084015160058201550191615ab4615aa260c0830151151590565b849060ff801983541691151516179055565b615acb60e0820151615ac581612da2565b84615276565b015190615ad782612da2565b615074565b916001600160a01b0380841615159081615c59575b50615afb57505050565b615b0481614466565b80615b10575b50505050565b8082615b3a612f21615b4c94611510896001600160a01b031660005261017c602052604060002090565b6001600160a01b0386168152956158e8565b615b93615b70615727846001600160a01b031660005261017d602052604060002090565b9361576285611510866001600160a01b031660005261017c602052604060002090565b73__$f048dbd5170c0ac319fa0222065b281d84$__90813b1561000e5760405163093c769560e21b815261017f6004820152610180602482015260448101919091526001600160a01b03831660648201526084810193909352615c249290600090829060a49082905af48015615c4c575b615c39575b506001600160a01b031660005261017d602052604060002090565b615c2e81546148fd565b905538808080615b0a565b806117c0615c4692610927565b38615c09565b615c546139c8565b615c04565b90508216151538615af1565b906001600160a01b0391828251169160209384820151169365ffffffffffff9182604082015116926060820151169160c0608083015192015115159260405194855281850152604084016000905b60038210615cec57505050508160c09160a07fbbad5407299f3773930327d215f85a16617efbbddc1fe3902bd39ba46feacf26940152a4565b82806001928651815201940191019092615cb3565b91600092835b60ff90818116600381101561589b5790615d2360019287614678565b516001600160a01b038516885261016e602052615d5361345c8360408b209060ff16600052602052604060002090565b90550116615d07565b615e31615e4a93615e28899a9685986006966106419c9b9965ffffffffffff928391615da1834216948b906001600160a01b03166001600160a01b0319825416179055565b615dc560018b019687906001600160a01b03166001600160a01b0319825416179055565b855465ffffffffffff60a01b191660a085901b65ffffffffffff60a01b1617865515615e69578161ffff6103f05b16918215615e5c575b1604168092038111615e4f575b82546001600160d01b0316910160d01b6001600160d01b031916179055565b6002830161598e565b6000600582015501805462ffffff191662010000179055565b615ed2565b615e57614508565b615e09565b615e6461444f565b615dfc565b8161ffff6001615df3565b615eb9615e4a93615e28899a9685986006966106419c9b9965ffffffffffff928391615da1834216948b906001600160a01b03166001600160a01b0319825416179055565b6000600582015501805462ffffff191662010001179055565b91906040918251615ee2816108fe565b615f5f6001600160a01b0380941691828152600360208201858152878301898152606084019160018352615f3d6000998c8b5261017f6020528b8b2096511686906001600160a01b03166001600160a01b0319825416179055565b51600185015551600284015551151591019060ff801983541691151516179055565b82526101806020528282209082526020522055565b615f8560ff60005460081c16614b83565b60ff1960fb541660fb5556fea2646970667358221220360c37b3555ffee2d35af90944cfdcf95adfd66b14aa141b4b8911d57cb7f6c764736f6c634300080e0033",
  "libraries": {
    "StakingLib": "0xEf8029Eb53510d1ee3b53c7A322a7Bd1BD3a7C55"
  },
  "devdoc": {
    "kind": "dev",
    "methods": {
      "approve(address,uint256)": {
        "details": "See {IERC721-approve}."
      },
      "balanceOf(address)": {
        "details": "See {IERC721-balanceOf}."
      },
      "getApproved(uint256)": {
        "details": "See {IERC721-getApproved}."
      },
      "getStakeEntry(uint256)": {
        "params": {
          "_stakeId": "Global stake ID"
        },
        "returns": {
          "_0": "The stake mapping entry"
        }
      },
      "getUserStakeId(address,uint256)": {
        "params": {
          "_user": "Owner address",
          "_userIndex": "Index in the user's personal mapping"
        },
        "returns": {
          "_0": "The stake ID"
        }
      },
      "getUserStakeIndex(uint256)": {
        "params": {
          "_stakeId": "Global stake ID"
        },
        "returns": {
          "_0": "The user index"
        }
      },
      "isApprovedForAll(address,address)": {
        "details": "See {IERC721-isApprovedForAll}."
      },
      "name()": {
        "details": "See {IERC721Metadata-name}."
      },
      "owner()": {
        "details": "Returns the address of the current owner."
      },
      "ownerOf(uint256)": {
        "details": "See {IERC721-ownerOf}."
      },
      "proxiableUUID()": {
        "details": "Implementation of the ERC1822 {proxiableUUID} function. This returns the storage slot used by the implementation. It is used to validate the implementation's compatibility when performing an upgrade. IMPORTANT: A proxy pointing at a proxiable contract should not be considered proxiable itself, because this risks bricking a proxy that upgrades to it, by delegating to itself until out of gas. Thus it is critical that this function revert if invoked through a proxy. This is guaranteed by the `notDelegated` modifier."
      },
      "renounceOwnership()": {
        "details": "Leaves the contract without owner. It will not be possible to call `onlyOwner` functions. Can only be called by the current owner. NOTE: Renouncing ownership will leave the contract without an owner, thereby disabling any functionality that is only available to the owner."
      },
      "safeTransferFrom(address,address,uint256)": {
        "details": "See {IERC721-safeTransferFrom}."
      },
      "safeTransferFrom(address,address,uint256,bytes)": {
        "details": "See {IERC721-safeTransferFrom}."
      },
      "setApprovalForAll(address,bool)": {
        "details": "See {IERC721-setApprovalForAll}."
      },
      "supportsInterface(bytes4)": {
        "details": "See {IERC165-supportsInterface}"
      },
      "symbol()": {
        "details": "See {IERC721Metadata-symbol}."
      },
      "tokenURI(uint256)": {
        "details": "See {IERC721Metadata-tokenURI}."
      },
      "transferFrom(address,address,uint256)": {
        "details": "See {IERC721-transferFrom}."
      },
      "transferOwnership(address)": {
        "details": "Transfers ownership of the contract to a new account (`newOwner`). Can only be called by the current owner."
      },
      "upgradeTo(address)": {
        "custom:oz-upgrades-unsafe-allow-reachable": "delegatecall",
        "details": "Upgrade the implementation of the proxy to `newImplementation`. Calls {_authorizeUpgrade}. Emits an {Upgraded} event."
      },
      "upgradeToAndCall(address,bytes)": {
        "custom:oz-upgrades-unsafe-allow-reachable": "delegatecall",
        "details": "Upgrade the implementation of the proxy to `newImplementation`, and subsequently execute the function call encoded in `data`. Calls {_authorizeUpgrade}. Emits an {Upgraded} event."
      }
    },
    "stateVariables": {
      "__gap": {
        "details": "IMPORTANT: When adding new storage variables, add them BELOW this comment and ABOVE the storage gap."
      },
      "_oldStakes": {
        "details": "DEPRECATED - Do not use. Kept for storage layout compatibility "
      },
      "activeStakesCount": {
        "details": "DEPRECATED - Do not use. Kept for storage layout compatibility "
      },
      "inflationRollOver": {
        "details": "DEPRECATED - Do not use. Kept for storage layout compatibility "
      },
      "lastEscrowRewardByToken_Duration": {
        "details": "DEPRECATED - Do not use. Kept for storage layout compatibility "
      },
      "poolRollOver": {
        "details": "DEPRECATED - Do not use. Kept for storage layout compatibility "
      },
      "stakes": {
        "details": "DEPRECATED - Do not use. Kept for storage layout compatibility "
      },
      "userToStakeTokenToLastEscrowId": {
        "details": "DEPRECATED - Do not use. Kept for storage layout compatibility "
      }
    },
    "version": 1
  },
  "userdoc": {
    "kind": "user",
    "methods": {
      "getStakeEntry(uint256)": {
        "notice": "Gets stake entry by ID"
      },
      "getUserStakeId(address,uint256)": {
        "notice": "Gets stake ID by user and index"
      },
      "getUserStakeIndex(uint256)": {
        "notice": "Gets user index by stake ID"
      }
    },
    "version": 1
  },
  "storageLayout": {
    "storage": [
      {
        "astId": 533,
        "contract": "contracts/staking/LendingPoolStakingV2.sol:LendingPoolStakingV2",
        "label": "_initialized",
        "offset": 0,
        "slot": "0",
        "type": "t_uint8"
      },
      {
        "astId": 536,
        "contract": "contracts/staking/LendingPoolStakingV2.sol:LendingPoolStakingV2",
        "label": "_initializing",
        "offset": 1,
        "slot": "0",
        "type": "t_bool"
      },
      {
        "astId": 2503,
        "contract": "contracts/staking/LendingPoolStakingV2.sol:LendingPoolStakingV2",
        "label": "__gap",
        "offset": 0,
        "slot": "1",
        "type": "t_array(t_uint256)50_storage"
      },
      {
        "astId": 2887,
        "contract": "contracts/staking/LendingPoolStakingV2.sol:LendingPoolStakingV2",
        "label": "__gap",
        "offset": 0,
        "slot": "51",
        "type": "t_array(t_uint256)50_storage"
      },
      {
        "astId": 862,
        "contract": "contracts/staking/LendingPoolStakingV2.sol:LendingPoolStakingV2",
        "label": "_name",
        "offset": 0,
        "slot": "101",
        "type": "t_string_storage"
      },
      {
        "astId": 864,
        "contract": "contracts/staking/LendingPoolStakingV2.sol:LendingPoolStakingV2",
        "label": "_symbol",
        "offset": 0,
        "slot": "102",
        "type": "t_string_storage"
      },
      {
        "astId": 868,
        "contract": "contracts/staking/LendingPoolStakingV2.sol:LendingPoolStakingV2",
        "label": "_owners",
        "offset": 0,
        "slot": "103",
        "type": "t_mapping(t_uint256,t_address)"
      },
      {
        "astId": 872,
        "contract": "contracts/staking/LendingPoolStakingV2.sol:LendingPoolStakingV2",
        "label": "_balances",
        "offset": 0,
        "slot": "104",
        "type": "t_mapping(t_address,t_uint256)"
      },
      {
        "astId": 876,
        "contract": "contracts/staking/LendingPoolStakingV2.sol:LendingPoolStakingV2",
        "label": "_tokenApprovals",
        "offset": 0,
        "slot": "105",
        "type": "t_mapping(t_uint256,t_address)"
      },
      {
        "astId": 882,
        "contract": "contracts/staking/LendingPoolStakingV2.sol:LendingPoolStakingV2",
        "label": "_operatorApprovals",
        "offset": 0,
        "slot": "106",
        "type": "t_mapping(t_address,t_mapping(t_address,t_bool))"
      },
      {
        "astId": 1784,
        "contract": "contracts/staking/LendingPoolStakingV2.sol:LendingPoolStakingV2",
        "label": "__gap",
        "offset": 0,
        "slot": "107",
        "type": "t_array(t_uint256)44_storage"
      },
      {
        "astId": 1939,
        "contract": "contracts/staking/LendingPoolStakingV2.sol:LendingPoolStakingV2",
        "label": "_tokenURIs",
        "offset": 0,
        "slot": "151",
        "type": "t_mapping(t_uint256,t_string_storage)"
      },
      {
        "astId": 2095,
        "contract": "contracts/staking/LendingPoolStakingV2.sol:LendingPoolStakingV2",
        "label": "__gap",
        "offset": 0,
        "slot": "152",
        "type": "t_array(t_uint256)49_storage"
      },
      {
        "astId": 11,
        "contract": "contracts/staking/LendingPoolStakingV2.sol:LendingPoolStakingV2",
        "label": "_owner",
        "offset": 0,
        "slot": "201",
        "type": "t_address"
      },
      {
        "astId": 131,
        "contract": "contracts/staking/LendingPoolStakingV2.sol:LendingPoolStakingV2",
        "label": "__gap",
        "offset": 0,
        "slot": "202",
        "type": "t_array(t_uint256)49_storage"
      },
      {
        "astId": 8483,
        "contract": "contracts/staking/LendingPoolStakingV2.sol:LendingPoolStakingV2",
        "label": "testing",
        "offset": 0,
        "slot": "251",
        "type": "t_bool"
      },
      {
        "astId": 5268,
        "contract": "contracts/staking/LendingPoolStakingV2.sol:LendingPoolStakingV2",
        "label": "hasRole",
        "offset": 0,
        "slot": "252",
        "type": "t_mapping(t_address,t_mapping(t_string_memory_ptr,t_bool))"
      },
      {
        "astId": 515,
        "contract": "contracts/staking/LendingPoolStakingV2.sol:LendingPoolStakingV2",
        "label": "__gap",
        "offset": 0,
        "slot": "253",
        "type": "t_array(t_uint256)50_storage"
      },
      {
        "astId": 831,
        "contract": "contracts/staking/LendingPoolStakingV2.sol:LendingPoolStakingV2",
        "label": "__gap",
        "offset": 0,
        "slot": "303",
        "type": "t_array(t_uint256)50_storage"
      },
      {
        "astId": 5473,
        "contract": "contracts/staking/LendingPoolStakingV2.sol:LendingPoolStakingV2",
        "label": "nend",
        "offset": 0,
        "slot": "353",
        "type": "t_address"
      },
      {
        "astId": 5476,
        "contract": "contracts/staking/LendingPoolStakingV2.sol:LendingPoolStakingV2",
        "label": "lendingPool",
        "offset": 0,
        "slot": "354",
        "type": "t_contract(Vault)9142"
      },
      {
        "astId": 5480,
        "contract": "contracts/staking/LendingPoolStakingV2.sol:LendingPoolStakingV2",
        "label": "activeStakeTokens",
        "offset": 0,
        "slot": "355",
        "type": "t_mapping(t_address,t_bool)"
      },
      {
        "astId": 5485,
        "contract": "contracts/staking/LendingPoolStakingV2.sol:LendingPoolStakingV2",
        "label": "inflationRollOver",
        "offset": 0,
        "slot": "356",
        "type": "t_mapping(t_address,t_uint256)"
      },
      {
        "astId": 5488,
        "contract": "contracts/staking/LendingPoolStakingV2.sol:LendingPoolStakingV2",
        "label": "stakeTokens",
        "offset": 0,
        "slot": "357",
        "type": "t_array(t_address)dyn_storage"
      },
      {
        "astId": 5490,
        "contract": "contracts/staking/LendingPoolStakingV2.sol:LendingPoolStakingV2",
        "label": "escrowLockPeriod",
        "offset": 0,
        "slot": "358",
        "type": "t_uint48"
      },
      {
        "astId": 5492,
        "contract": "contracts/staking/LendingPoolStakingV2.sol:LendingPoolStakingV2",
        "label": "stakeTokenCount",
        "offset": 0,
        "slot": "359",
        "type": "t_uint256"
      },
      {
        "astId": 5495,
        "contract": "contracts/staking/LendingPoolStakingV2.sol:LendingPoolStakingV2",
        "label": "activeStakesCount",
        "offset": 0,
        "slot": "360",
        "type": "t_uint256"
      },
      {
        "astId": 5499,
        "contract": "contracts/staking/LendingPoolStakingV2.sol:LendingPoolStakingV2",
        "label": "ifpTokenToAmount",
        "offset": 0,
        "slot": "361",
        "type": "t_mapping(t_address,t_uint256)"
      },
      {
        "astId": 5506,
        "contract": "contracts/staking/LendingPoolStakingV2.sol:LendingPoolStakingV2",
        "label": "userToStakeTokenToLastEscrowId",
        "offset": 0,
        "slot": "362",
        "type": "t_mapping(t_address,t_mapping(t_address,t_uint256))"
      },
      {
        "astId": 5513,
        "contract": "contracts/staking/LendingPoolStakingV2.sol:LendingPoolStakingV2",
        "label": "lastEscrowRewardByToken_Duration",
        "offset": 0,
        "slot": "363",
        "type": "t_mapping(t_address,t_mapping(t_uint8,t_uint256))"
      },
      {
        "astId": 5518,
        "contract": "contracts/staking/LendingPoolStakingV2.sol:LendingPoolStakingV2",
        "label": "_oldStakes",
        "offset": 0,
        "slot": "364",
        "type": "t_array(t_struct(Stake)8381_storage)dyn_storage"
      },
      {
        "astId": 5522,
        "contract": "contracts/staking/LendingPoolStakingV2.sol:LendingPoolStakingV2",
        "label": "stakeDurations",
        "offset": 0,
        "slot": "365",
        "type": "t_array(t_uint48)3_storage"
      },
      {
        "astId": 5528,
        "contract": "contracts/staking/LendingPoolStakingV2.sol:LendingPoolStakingV2",
        "label": "totalStakedByToken_Duration",
        "offset": 0,
        "slot": "366",
        "type": "t_mapping(t_address,t_mapping(t_uint8,t_uint256))"
      },
      {
        "astId": 5532,
        "contract": "contracts/staking/LendingPoolStakingV2.sol:LendingPoolStakingV2",
        "label": "rewardAllocations",
        "offset": 0,
        "slot": "367",
        "type": "t_array(t_uint8)3_storage"
      },
      {
        "astId": 5535,
        "contract": "contracts/staking/LendingPoolStakingV2.sol:LendingPoolStakingV2",
        "label": "poolRollOver",
        "offset": 0,
        "slot": "368",
        "type": "t_uint256"
      },
      {
        "astId": 5541,
        "contract": "contracts/staking/LendingPoolStakingV2.sol:LendingPoolStakingV2",
        "label": "stakes",
        "offset": 0,
        "slot": "369",
        "type": "t_mapping(t_uint256,t_struct(Stake)8381_storage)"
      },
      {
        "astId": 5543,
        "contract": "contracts/staking/LendingPoolStakingV2.sol:LendingPoolStakingV2",
        "label": "nextStakeId",
        "offset": 0,
        "slot": "370",
        "type": "t_uint256"
      },
      {
        "astId": 5548,
        "contract": "contracts/staking/LendingPoolStakingV2.sol:LendingPoolStakingV2",
        "label": "_currentPeriodIdx",
        "offset": 0,
        "slot": "371",
        "type": "t_uint256"
      },
      {
        "astId": 5553,
        "contract": "contracts/staking/LendingPoolStakingV2.sol:LendingPoolStakingV2",
        "label": "recentPeriods",
        "offset": 0,
        "slot": "372",
        "type": "t_array(t_struct(RewardPeriod)8349_storage)2_storage"
      },
      {
        "astId": 5560,
        "contract": "contracts/staking/LendingPoolStakingV2.sol:LendingPoolStakingV2",
        "label": "userStakesById",
        "offset": 0,
        "slot": "380",
        "type": "t_mapping(t_address,t_mapping(t_uint256,t_struct(Stake)8381_storage))"
      },
      {
        "astId": 5564,
        "contract": "contracts/staking/LendingPoolStakingV2.sol:LendingPoolStakingV2",
        "label": "userStakesCount",
        "offset": 0,
        "slot": "381",
        "type": "t_mapping(t_address,t_uint256)"
      },
      {
        "astId": 5572,
        "contract": "contracts/staking/LendingPoolStakingV2.sol:LendingPoolStakingV2",
        "label": "_userClaimedForPeriod",
        "offset": 0,
        "slot": "382",
        "type": "t_mapping(t_address,t_mapping(t_uint64,t_mapping(t_address,t_bool)))"
      },
      {
        "astId": 5577,
        "contract": "contracts/staking/LendingPoolStakingV2.sol:LendingPoolStakingV2",
        "label": "_stakeEntries",
        "offset": 0,
        "slot": "383",
        "type": "t_mapping(t_uint256,t_struct(StakeMappingEntry)8358_storage)"
      },
      {
        "astId": 5583,
        "contract": "contracts/staking/LendingPoolStakingV2.sol:LendingPoolStakingV2",
        "label": "_userIndexToId",
        "offset": 0,
        "slot": "384",
        "type": "t_mapping(t_address,t_mapping(t_uint256,t_uint256))"
      },
      {
        "astId": 5585,
        "contract": "contracts/staking/LendingPoolStakingV2.sol:LendingPoolStakingV2",
        "label": "stakesDeprecated",
        "offset": 0,
        "slot": "385",
        "type": "t_bool"
      },
      {
        "astId": 5590,
        "contract": "contracts/staking/LendingPoolStakingV2.sol:LendingPoolStakingV2",
        "label": "__gap",
        "offset": 0,
        "slot": "386",
        "type": "t_array(t_uint256)50_storage"
      }
    ],
    "types": {
      "t_address": {
        "encoding": "inplace",
        "label": "address",
        "numberOfBytes": "20"
      },
      "t_array(t_address)dyn_storage": {
        "base": "t_address",
        "encoding": "dynamic_array",
        "label": "address[]",
        "numberOfBytes": "32"
      },
      "t_array(t_struct(RewardPeriod)8349_storage)2_storage": {
        "base": "t_struct(RewardPeriod)8349_storage",
        "encoding": "inplace",
        "label": "struct ILendingPoolStakingV2.RewardPeriod[2]",
        "numberOfBytes": "256"
      },
      "t_array(t_struct(Stake)8381_storage)dyn_storage": {
        "base": "t_struct(Stake)8381_storage",
        "encoding": "dynamic_array",
        "label": "struct ILendingPoolStakingV2.Stake[]",
        "numberOfBytes": "32"
      },
      "t_array(t_uint256)3_storage": {
        "base": "t_uint256",
        "encoding": "inplace",
        "label": "uint256[3]",
        "numberOfBytes": "96"
      },
      "t_array(t_uint256)44_storage": {
        "base": "t_uint256",
        "encoding": "inplace",
        "label": "uint256[44]",
        "numberOfBytes": "1408"
      },
      "t_array(t_uint256)49_storage": {
        "base": "t_uint256",
        "encoding": "inplace",
        "label": "uint256[49]",
        "numberOfBytes": "1568"
      },
      "t_array(t_uint256)50_storage": {
        "base": "t_uint256",
        "encoding": "inplace",
        "label": "uint256[50]",
        "numberOfBytes": "1600"
      },
      "t_array(t_uint48)3_storage": {
        "base": "t_uint48",
        "encoding": "inplace",
        "label": "uint48[3]",
        "numberOfBytes": "32"
      },
      "t_array(t_uint8)3_storage": {
        "base": "t_uint8",
        "encoding": "inplace",
        "label": "uint8[3]",
        "numberOfBytes": "32"
      },
      "t_bool": {
        "encoding": "inplace",
        "label": "bool",
        "numberOfBytes": "1"
      },
      "t_contract(Vault)9142": {
        "encoding": "inplace",
        "label": "contract Vault",
        "numberOfBytes": "20"
      },
      "t_enum(EscrowStatus)8330": {
        "encoding": "inplace",
        "label": "enum ILendingPoolStakingV2.EscrowStatus",
        "numberOfBytes": "1"
      },
      "t_enum(StakeStatus)8326": {
        "encoding": "inplace",
        "label": "enum ILendingPoolStakingV2.StakeStatus",
        "numberOfBytes": "1"
      },
      "t_mapping(t_address,t_bool)": {
        "encoding": "mapping",
        "key": "t_address",
        "label": "mapping(address => bool)",
        "numberOfBytes": "32",
        "value": "t_bool"
      },
      "t_mapping(t_address,t_mapping(t_address,t_bool))": {
        "encoding": "mapping",
        "key": "t_address",
        "label": "mapping(address => mapping(address => bool))",
        "numberOfBytes": "32",
        "value": "t_mapping(t_address,t_bool)"
      },
      "t_mapping(t_address,t_mapping(t_address,t_uint256))": {
        "encoding": "mapping",
        "key": "t_address",
        "label": "mapping(address => mapping(address => uint256))",
        "numberOfBytes": "32",
        "value": "t_mapping(t_address,t_uint256)"
      },
      "t_mapping(t_address,t_mapping(t_string_memory_ptr,t_bool))": {
        "encoding": "mapping",
        "key": "t_address",
        "label": "mapping(address => mapping(string => bool))",
        "numberOfBytes": "32",
        "value": "t_mapping(t_string_memory_ptr,t_bool)"
      },
      "t_mapping(t_address,t_mapping(t_uint256,t_struct(Stake)8381_storage))": {
        "encoding": "mapping",
        "key": "t_address",
        "label": "mapping(address => mapping(uint256 => struct ILendingPoolStakingV2.Stake))",
        "numberOfBytes": "32",
        "value": "t_mapping(t_uint256,t_struct(Stake)8381_storage)"
      },
      "t_mapping(t_address,t_mapping(t_uint256,t_uint256))": {
        "encoding": "mapping",
        "key": "t_address",
        "label": "mapping(address => mapping(uint256 => uint256))",
        "numberOfBytes": "32",
        "value": "t_mapping(t_uint256,t_uint256)"
      },
      "t_mapping(t_address,t_mapping(t_uint64,t_mapping(t_address,t_bool)))": {
        "encoding": "mapping",
        "key": "t_address",
        "label": "mapping(address => mapping(uint64 => mapping(address => bool)))",
        "numberOfBytes": "32",
        "value": "t_mapping(t_uint64,t_mapping(t_address,t_bool))"
      },
      "t_mapping(t_address,t_mapping(t_uint8,t_uint256))": {
        "encoding": "mapping",
        "key": "t_address",
        "label": "mapping(address => mapping(uint8 => uint256))",
        "numberOfBytes": "32",
        "value": "t_mapping(t_uint8,t_uint256)"
      },
      "t_mapping(t_address,t_struct(IFPRewardPeriod)8335_storage)": {
        "encoding": "mapping",
        "key": "t_address",
        "label": "mapping(address => struct ILendingPoolStakingV2.IFPRewardPeriod)",
        "numberOfBytes": "32",
        "value": "t_struct(IFPRewardPeriod)8335_storage"
      },
      "t_mapping(t_address,t_uint256)": {
        "encoding": "mapping",
        "key": "t_address",
        "label": "mapping(address => uint256)",
        "numberOfBytes": "32",
        "value": "t_uint256"
      },
      "t_mapping(t_string_memory_ptr,t_bool)": {
        "encoding": "mapping",
        "key": "t_string_memory_ptr",
        "label": "mapping(string => bool)",
        "numberOfBytes": "32",
        "value": "t_bool"
      },
      "t_mapping(t_uint256,t_address)": {
        "encoding": "mapping",
        "key": "t_uint256",
        "label": "mapping(uint256 => address)",
        "numberOfBytes": "32",
        "value": "t_address"
      },
      "t_mapping(t_uint256,t_string_storage)": {
        "encoding": "mapping",
        "key": "t_uint256",
        "label": "mapping(uint256 => string)",
        "numberOfBytes": "32",
        "value": "t_string_storage"
      },
      "t_mapping(t_uint256,t_struct(Stake)8381_storage)": {
        "encoding": "mapping",
        "key": "t_uint256",
        "label": "mapping(uint256 => struct ILendingPoolStakingV2.Stake)",
        "numberOfBytes": "32",
        "value": "t_struct(Stake)8381_storage"
      },
      "t_mapping(t_uint256,t_struct(StakeMappingEntry)8358_storage)": {
        "encoding": "mapping",
        "key": "t_uint256",
        "label": "mapping(uint256 => struct ILendingPoolStakingV2.StakeMappingEntry)",
        "numberOfBytes": "32",
        "value": "t_struct(StakeMappingEntry)8358_storage"
      },
      "t_mapping(t_uint256,t_uint256)": {
        "encoding": "mapping",
        "key": "t_uint256",
        "label": "mapping(uint256 => uint256)",
        "numberOfBytes": "32",
        "value": "t_uint256"
      },
      "t_mapping(t_uint64,t_mapping(t_address,t_bool))": {
        "encoding": "mapping",
        "key": "t_uint64",
        "label": "mapping(uint64 => mapping(address => bool))",
        "numberOfBytes": "32",
        "value": "t_mapping(t_address,t_bool)"
      },
      "t_mapping(t_uint8,t_uint256)": {
        "encoding": "mapping",
        "key": "t_uint8",
        "label": "mapping(uint8 => uint256)",
        "numberOfBytes": "32",
        "value": "t_uint256"
      },
      "t_string_memory_ptr": {
        "encoding": "bytes",
        "label": "string",
        "numberOfBytes": "32"
      },
      "t_string_storage": {
        "encoding": "bytes",
        "label": "string",
        "numberOfBytes": "32"
      },
      "t_struct(IFPRewardPeriod)8335_storage": {
        "encoding": "inplace",
        "label": "struct ILendingPoolStakingV2.IFPRewardPeriod",
        "members": [
          {
            "astId": 8332,
            "contract": "contracts/staking/LendingPoolStakingV2.sol:LendingPoolStakingV2",
            "label": "rewardToDistribute",
            "offset": 0,
            "slot": "0",
            "type": "t_uint256"
          },
          {
            "astId": 8334,
            "contract": "contracts/staking/LendingPoolStakingV2.sol:LendingPoolStakingV2",
            "label": "rewardClaimed",
            "offset": 0,
            "slot": "1",
            "type": "t_uint256"
          }
        ],
        "numberOfBytes": "64"
      },
      "t_struct(RewardPeriod)8349_storage": {
        "encoding": "inplace",
        "label": "struct ILendingPoolStakingV2.RewardPeriod",
        "members": [
          {
            "astId": 8337,
            "contract": "contracts/staking/LendingPoolStakingV2.sol:LendingPoolStakingV2",
            "label": "periodId",
            "offset": 0,
            "slot": "0",
            "type": "t_uint64"
          },
          {
            "astId": 8339,
            "contract": "contracts/staking/LendingPoolStakingV2.sol:LendingPoolStakingV2",
            "label": "startTime",
            "offset": 8,
            "slot": "0",
            "type": "t_uint64"
          },
          {
            "astId": 8341,
            "contract": "contracts/staking/LendingPoolStakingV2.sol:LendingPoolStakingV2",
            "label": "rewardsToDistribute",
            "offset": 0,
            "slot": "1",
            "type": "t_uint256"
          },
          {
            "astId": 8343,
            "contract": "contracts/staking/LendingPoolStakingV2.sol:LendingPoolStakingV2",
            "label": "rewardsStaked",
            "offset": 0,
            "slot": "2",
            "type": "t_uint256"
          },
          {
            "astId": 8348,
            "contract": "contracts/staking/LendingPoolStakingV2.sol:LendingPoolStakingV2",
            "label": "ifpRewardPeriod",
            "offset": 0,
            "slot": "3",
            "type": "t_mapping(t_address,t_struct(IFPRewardPeriod)8335_storage)"
          }
        ],
        "numberOfBytes": "128"
      },
      "t_struct(Stake)8381_storage": {
        "encoding": "inplace",
        "label": "struct ILendingPoolStakingV2.Stake",
        "members": [
          {
            "astId": 8360,
            "contract": "contracts/staking/LendingPoolStakingV2.sol:LendingPoolStakingV2",
            "label": "staker",
            "offset": 0,
            "slot": "0",
            "type": "t_address"
          },
          {
            "astId": 8362,
            "contract": "contracts/staking/LendingPoolStakingV2.sol:LendingPoolStakingV2",
            "label": "token",
            "offset": 0,
            "slot": "1",
            "type": "t_address"
          },
          {
            "astId": 8364,
            "contract": "contracts/staking/LendingPoolStakingV2.sol:LendingPoolStakingV2",
            "label": "start",
            "offset": 20,
            "slot": "1",
            "type": "t_uint48"
          },
          {
            "astId": 8366,
            "contract": "contracts/staking/LendingPoolStakingV2.sol:LendingPoolStakingV2",
            "label": "end",
            "offset": 26,
            "slot": "1",
            "type": "t_uint48"
          },
          {
            "astId": 8370,
            "contract": "contracts/staking/LendingPoolStakingV2.sol:LendingPoolStakingV2",
            "label": "amountsPerDuration",
            "offset": 0,
            "slot": "2",
            "type": "t_array(t_uint256)3_storage"
          },
          {
            "astId": 8372,
            "contract": "contracts/staking/LendingPoolStakingV2.sol:LendingPoolStakingV2",
            "label": "rewardAllocated",
            "offset": 0,
            "slot": "5",
            "type": "t_uint256"
          },
          {
            "astId": 8374,
            "contract": "contracts/staking/LendingPoolStakingV2.sol:LendingPoolStakingV2",
            "label": "isEscrow",
            "offset": 0,
            "slot": "6",
            "type": "t_bool"
          },
          {
            "astId": 8377,
            "contract": "contracts/staking/LendingPoolStakingV2.sol:LendingPoolStakingV2",
            "label": "escrowStatus",
            "offset": 1,
            "slot": "6",
            "type": "t_enum(EscrowStatus)8330"
          },
          {
            "astId": 8380,
            "contract": "contracts/staking/LendingPoolStakingV2.sol:LendingPoolStakingV2",
            "label": "stakeStatus",
            "offset": 2,
            "slot": "6",
            "type": "t_enum(StakeStatus)8326"
          }
        ],
        "numberOfBytes": "224"
      },
      "t_struct(StakeMappingEntry)8358_storage": {
        "encoding": "inplace",
        "label": "struct ILendingPoolStakingV2.StakeMappingEntry",
        "members": [
          {
            "astId": 8351,
            "contract": "contracts/staking/LendingPoolStakingV2.sol:LendingPoolStakingV2",
            "label": "user",
            "offset": 0,
            "slot": "0",
            "type": "t_address"
          },
          {
            "astId": 8353,
            "contract": "contracts/staking/LendingPoolStakingV2.sol:LendingPoolStakingV2",
            "label": "userIndex",
            "offset": 0,
            "slot": "1",
            "type": "t_uint256"
          },
          {
            "astId": 8355,
            "contract": "contracts/staking/LendingPoolStakingV2.sol:LendingPoolStakingV2",
            "label": "stakeId",
            "offset": 0,
            "slot": "2",
            "type": "t_uint256"
          },
          {
            "astId": 8357,
            "contract": "contracts/staking/LendingPoolStakingV2.sol:LendingPoolStakingV2",
            "label": "exists",
            "offset": 0,
            "slot": "3",
            "type": "t_bool"
          }
        ],
        "numberOfBytes": "128"
      },
      "t_uint256": {
        "encoding": "inplace",
        "label": "uint256",
        "numberOfBytes": "32"
      },
      "t_uint48": {
        "encoding": "inplace",
        "label": "uint48",
        "numberOfBytes": "6"
      },
      "t_uint64": {
        "encoding": "inplace",
        "label": "uint64",
        "numberOfBytes": "8"
      },
      "t_uint8": {
        "encoding": "inplace",
        "label": "uint8",
        "numberOfBytes": "1"
      }
    }
  }
}