{
  "address": "0x737c61077A24a916b8a00592A47aFa45255db694",
  "abi": [
    {
      "inputs": [],
      "name": "InsufficientBalance",
      "type": "error"
    },
    {
      "inputs": [
        {
          "internalType": "string",
          "name": "details",
          "type": "string"
        }
      ],
      "name": "InvalidArgument",
      "type": "error"
    },
    {
      "inputs": [],
      "name": "InvalidState",
      "type": "error"
    },
    {
      "inputs": [],
      "name": "Unauthorized",
      "type": "error"
    },
    {
      "anonymous": false,
      "inputs": [
        {
          "indexed": false,
          "internalType": "address",
          "name": "previousAdmin",
          "type": "address"
        },
        {
          "indexed": false,
          "internalType": "address",
          "name": "newAdmin",
          "type": "address"
        }
      ],
      "name": "AdminChanged",
      "type": "event"
    },
    {
      "anonymous": false,
      "inputs": [
        {
          "indexed": true,
          "internalType": "address",
          "name": "owner",
          "type": "address"
        },
        {
          "indexed": true,
          "internalType": "address",
          "name": "approved",
          "type": "address"
        },
        {
          "indexed": true,
          "internalType": "uint256",
          "name": "tokenId",
          "type": "uint256"
        }
      ],
      "name": "Approval",
      "type": "event"
    },
    {
      "anonymous": false,
      "inputs": [
        {
          "indexed": true,
          "internalType": "address",
          "name": "owner",
          "type": "address"
        },
        {
          "indexed": true,
          "internalType": "address",
          "name": "operator",
          "type": "address"
        },
        {
          "indexed": false,
          "internalType": "bool",
          "name": "approved",
          "type": "bool"
        }
      ],
      "name": "ApprovalForAll",
      "type": "event"
    },
    {
      "anonymous": false,
      "inputs": [
        {
          "indexed": false,
          "internalType": "uint256",
          "name": "_fromTokenId",
          "type": "uint256"
        },
        {
          "indexed": false,
          "internalType": "uint256",
          "name": "_toTokenId",
          "type": "uint256"
        }
      ],
      "name": "BatchMetadataUpdate",
      "type": "event"
    },
    {
      "anonymous": false,
      "inputs": [
        {
          "indexed": true,
          "internalType": "address",
          "name": "beacon",
          "type": "address"
        }
      ],
      "name": "BeaconUpgraded",
      "type": "event"
    },
    {
      "anonymous": false,
      "inputs": [
        {
          "indexed": false,
          "internalType": "uint256",
          "name": "stakeId",
          "type": "uint256"
        },
        {
          "indexed": false,
          "internalType": "enum ILendingPoolStaking.EscrowStatus",
          "name": "status",
          "type": "uint8"
        }
      ],
      "name": "EscrowStatusChanged",
      "type": "event"
    },
    {
      "anonymous": false,
      "inputs": [],
      "name": "InflationRewardDistributed",
      "type": "event"
    },
    {
      "anonymous": false,
      "inputs": [
        {
          "indexed": false,
          "internalType": "uint8",
          "name": "version",
          "type": "uint8"
        }
      ],
      "name": "Initialized",
      "type": "event"
    },
    {
      "anonymous": false,
      "inputs": [
        {
          "indexed": false,
          "internalType": "uint256",
          "name": "_tokenId",
          "type": "uint256"
        }
      ],
      "name": "MetadataUpdate",
      "type": "event"
    },
    {
      "anonymous": false,
      "inputs": [],
      "name": "NonInflationRewardDistributed",
      "type": "event"
    },
    {
      "anonymous": false,
      "inputs": [
        {
          "indexed": true,
          "internalType": "address",
          "name": "previousOwner",
          "type": "address"
        },
        {
          "indexed": true,
          "internalType": "address",
          "name": "newOwner",
          "type": "address"
        }
      ],
      "name": "OwnershipTransferred",
      "type": "event"
    },
    {
      "anonymous": false,
      "inputs": [
        {
          "indexed": false,
          "internalType": "uint256",
          "name": "stakeId",
          "type": "uint256"
        },
        {
          "indexed": false,
          "internalType": "enum ILendingPoolStaking.StakeStatus",
          "name": "status",
          "type": "uint8"
        }
      ],
      "name": "StakeStatusChanged",
      "type": "event"
    },
    {
      "anonymous": false,
      "inputs": [
        {
          "indexed": false,
          "internalType": "uint256",
          "name": "stakeId",
          "type": "uint256"
        },
        {
          "indexed": false,
          "internalType": "address",
          "name": "staker",
          "type": "address"
        },
        {
          "indexed": false,
          "internalType": "address",
          "name": "token",
          "type": "address"
        },
        {
          "indexed": false,
          "internalType": "uint48",
          "name": "start",
          "type": "uint48"
        },
        {
          "indexed": false,
          "internalType": "uint48",
          "name": "end",
          "type": "uint48"
        },
        {
          "indexed": false,
          "internalType": "uint256[3]",
          "name": "amountsPerDuration",
          "type": "uint256[3]"
        },
        {
          "indexed": false,
          "internalType": "bool",
          "name": "isEscrow",
          "type": "bool"
        }
      ],
      "name": "Staked",
      "type": "event"
    },
    {
      "anonymous": false,
      "inputs": [
        {
          "indexed": true,
          "internalType": "address",
          "name": "from",
          "type": "address"
        },
        {
          "indexed": true,
          "internalType": "address",
          "name": "to",
          "type": "address"
        },
        {
          "indexed": true,
          "internalType": "uint256",
          "name": "tokenId",
          "type": "uint256"
        }
      ],
      "name": "Transfer",
      "type": "event"
    },
    {
      "anonymous": false,
      "inputs": [
        {
          "indexed": true,
          "internalType": "address",
          "name": "implementation",
          "type": "address"
        }
      ],
      "name": "Upgraded",
      "type": "event"
    },
    {
      "inputs": [],
      "name": "__MWOwnable_init",
      "outputs": [],
      "stateMutability": "nonpayable",
      "type": "function"
    },
    {
      "inputs": [],
      "name": "__Testing_init",
      "outputs": [],
      "stateMutability": "nonpayable",
      "type": "function"
    },
    {
      "inputs": [
        {
          "internalType": "address",
          "name": "",
          "type": "address"
        }
      ],
      "name": "activeStakeTokens",
      "outputs": [
        {
          "internalType": "bool",
          "name": "",
          "type": "bool"
        }
      ],
      "stateMutability": "view",
      "type": "function"
    },
    {
      "inputs": [
        {
          "internalType": "address",
          "name": "_stakeToken",
          "type": "address"
        }
      ],
      "name": "addStakeToken",
      "outputs": [],
      "stateMutability": "nonpayable",
      "type": "function"
    },
    {
      "inputs": [
        {
          "internalType": "address",
          "name": "to",
          "type": "address"
        },
        {
          "internalType": "uint256",
          "name": "tokenId",
          "type": "uint256"
        }
      ],
      "name": "approve",
      "outputs": [],
      "stateMutability": "nonpayable",
      "type": "function"
    },
    {
      "inputs": [
        {
          "internalType": "address",
          "name": "operator",
          "type": "address"
        },
        {
          "internalType": "string",
          "name": "role",
          "type": "string"
        },
        {
          "internalType": "bool",
          "name": "authorized",
          "type": "bool"
        }
      ],
      "name": "authorize",
      "outputs": [],
      "stateMutability": "nonpayable",
      "type": "function"
    },
    {
      "inputs": [
        {
          "internalType": "address",
          "name": "owner",
          "type": "address"
        }
      ],
      "name": "balanceOf",
      "outputs": [
        {
          "internalType": "uint256",
          "name": "",
          "type": "uint256"
        }
      ],
      "stateMutability": "view",
      "type": "function"
    },
    {
      "inputs": [
        {
          "internalType": "address",
          "name": "_token",
          "type": "address"
        },
        {
          "internalType": "uint256",
          "name": "_amount",
          "type": "uint256"
        },
        {
          "internalType": "uint8",
          "name": "_durationId",
          "type": "uint8"
        }
      ],
      "name": "deposit",
      "outputs": [],
      "stateMutability": "payable",
      "type": "function"
    },
    {
      "inputs": [
        {
          "internalType": "uint256",
          "name": "_inflationReward",
          "type": "uint256"
        }
      ],
      "name": "distributeInflationRewards",
      "outputs": [],
      "stateMutability": "nonpayable",
      "type": "function"
    },
    {
      "inputs": [],
      "name": "distributeNonInflationRewards",
      "outputs": [],
      "stateMutability": "nonpayable",
      "type": "function"
    },
    {
      "inputs": [],
      "name": "escrowLockPeriod",
      "outputs": [
        {
          "internalType": "uint48",
          "name": "",
          "type": "uint48"
        }
      ],
      "stateMutability": "view",
      "type": "function"
    },
    {
      "inputs": [
        {
          "internalType": "uint256",
          "name": "tokenId",
          "type": "uint256"
        }
      ],
      "name": "getApproved",
      "outputs": [
        {
          "internalType": "address",
          "name": "",
          "type": "address"
        }
      ],
      "stateMutability": "view",
      "type": "function"
    },
    {
      "inputs": [],
      "name": "hasPendingNonInflationRewards",
      "outputs": [
        {
          "internalType": "bool",
          "name": "",
          "type": "bool"
        }
      ],
      "stateMutability": "view",
      "type": "function"
    },
    {
      "inputs": [
        {
          "internalType": "address",
          "name": "",
          "type": "address"
        },
        {
          "internalType": "string",
          "name": "",
          "type": "string"
        }
      ],
      "name": "hasRole",
      "outputs": [
        {
          "internalType": "bool",
          "name": "",
          "type": "bool"
        }
      ],
      "stateMutability": "view",
      "type": "function"
    },
    {
      "inputs": [
        {
          "internalType": "address",
          "name": "",
          "type": "address"
        }
      ],
      "name": "inflationRollOver",
      "outputs": [
        {
          "internalType": "uint256",
          "name": "",
          "type": "uint256"
        }
      ],
      "stateMutability": "view",
      "type": "function"
    },
    {
      "inputs": [
        {
          "internalType": "address",
          "name": "_nend",
          "type": "address"
        },
        {
          "internalType": "contract Vault",
          "name": "_lendingPool",
          "type": "address"
        }
      ],
      "name": "initialize",
      "outputs": [],
      "stateMutability": "nonpayable",
      "type": "function"
    },
    {
      "inputs": [
        {
          "internalType": "address",
          "name": "owner",
          "type": "address"
        },
        {
          "internalType": "address",
          "name": "operator",
          "type": "address"
        }
      ],
      "name": "isApprovedForAll",
      "outputs": [
        {
          "internalType": "bool",
          "name": "",
          "type": "bool"
        }
      ],
      "stateMutability": "view",
      "type": "function"
    },
    {
      "inputs": [
        {
          "internalType": "uint256",
          "name": "_stakeId",
          "type": "uint256"
        }
      ],
      "name": "issueEAB",
      "outputs": [],
      "stateMutability": "nonpayable",
      "type": "function"
    },
    {
      "inputs": [
        {
          "internalType": "address",
          "name": "",
          "type": "address"
        },
        {
          "internalType": "uint8",
          "name": "",
          "type": "uint8"
        }
      ],
      "name": "lastEscrowRewardByToken_Duration",
      "outputs": [
        {
          "internalType": "uint256",
          "name": "",
          "type": "uint256"
        }
      ],
      "stateMutability": "view",
      "type": "function"
    },
    {
      "inputs": [],
      "name": "lendingPool",
      "outputs": [
        {
          "internalType": "contract Vault",
          "name": "",
          "type": "address"
        }
      ],
      "stateMutability": "view",
      "type": "function"
    },
    {
      "inputs": [],
      "name": "name",
      "outputs": [
        {
          "internalType": "string",
          "name": "",
          "type": "string"
        }
      ],
      "stateMutability": "view",
      "type": "function"
    },
    {
      "inputs": [],
      "name": "nend",
      "outputs": [
        {
          "internalType": "address",
          "name": "",
          "type": "address"
        }
      ],
      "stateMutability": "view",
      "type": "function"
    },
    {
      "inputs": [],
      "name": "ongoingStakeCount",
      "outputs": [
        {
          "internalType": "uint256",
          "name": "",
          "type": "uint256"
        }
      ],
      "stateMutability": "view",
      "type": "function"
    },
    {
      "inputs": [],
      "name": "owner",
      "outputs": [
        {
          "internalType": "address",
          "name": "",
          "type": "address"
        }
      ],
      "stateMutability": "view",
      "type": "function"
    },
    {
      "inputs": [
        {
          "internalType": "uint256",
          "name": "tokenId",
          "type": "uint256"
        }
      ],
      "name": "ownerOf",
      "outputs": [
        {
          "internalType": "address",
          "name": "",
          "type": "address"
        }
      ],
      "stateMutability": "view",
      "type": "function"
    },
    {
      "inputs": [],
      "name": "poolRollOver",
      "outputs": [
        {
          "internalType": "uint256",
          "name": "",
          "type": "uint256"
        }
      ],
      "stateMutability": "view",
      "type": "function"
    },
    {
      "inputs": [],
      "name": "proxiableUUID",
      "outputs": [
        {
          "internalType": "bytes32",
          "name": "",
          "type": "bytes32"
        }
      ],
      "stateMutability": "view",
      "type": "function"
    },
    {
      "inputs": [
        {
          "internalType": "address",
          "name": "_stakeToken",
          "type": "address"
        }
      ],
      "name": "removeStakeToken",
      "outputs": [],
      "stateMutability": "nonpayable",
      "type": "function"
    },
    {
      "inputs": [],
      "name": "renounceOwnership",
      "outputs": [],
      "stateMutability": "nonpayable",
      "type": "function"
    },
    {
      "inputs": [
        {
          "internalType": "uint256",
          "name": "",
          "type": "uint256"
        }
      ],
      "name": "rewardAllocations",
      "outputs": [
        {
          "internalType": "uint8",
          "name": "",
          "type": "uint8"
        }
      ],
      "stateMutability": "view",
      "type": "function"
    },
    {
      "inputs": [
        {
          "internalType": "address",
          "name": "from",
          "type": "address"
        },
        {
          "internalType": "address",
          "name": "to",
          "type": "address"
        },
        {
          "internalType": "uint256",
          "name": "tokenId",
          "type": "uint256"
        }
      ],
      "name": "safeTransferFrom",
      "outputs": [],
      "stateMutability": "nonpayable",
      "type": "function"
    },
    {
      "inputs": [
        {
          "internalType": "address",
          "name": "from",
          "type": "address"
        },
        {
          "internalType": "address",
          "name": "to",
          "type": "address"
        },
        {
          "internalType": "uint256",
          "name": "tokenId",
          "type": "uint256"
        },
        {
          "internalType": "bytes",
          "name": "data",
          "type": "bytes"
        }
      ],
      "name": "safeTransferFrom",
      "outputs": [],
      "stateMutability": "nonpayable",
      "type": "function"
    },
    {
      "inputs": [
        {
          "internalType": "address",
          "name": "operator",
          "type": "address"
        },
        {
          "internalType": "bool",
          "name": "approved",
          "type": "bool"
        }
      ],
      "name": "setApprovalForAll",
      "outputs": [],
      "stateMutability": "nonpayable",
      "type": "function"
    },
    {
      "inputs": [
        {
          "internalType": "uint8[3]",
          "name": "_rewardAllocations",
          "type": "uint8[3]"
        }
      ],
      "name": "setRewardAllocations",
      "outputs": [],
      "stateMutability": "nonpayable",
      "type": "function"
    },
    {
      "inputs": [
        {
          "internalType": "bool",
          "name": "_testing",
          "type": "bool"
        }
      ],
      "name": "setTesting",
      "outputs": [],
      "stateMutability": "nonpayable",
      "type": "function"
    },
    {
      "inputs": [
        {
          "internalType": "uint256",
          "name": "_tokenId",
          "type": "uint256"
        },
        {
          "internalType": "string",
          "name": "_tokenURI",
          "type": "string"
        }
      ],
      "name": "setTokenURI",
      "outputs": [],
      "stateMutability": "nonpayable",
      "type": "function"
    },
    {
      "inputs": [
        {
          "internalType": "uint256",
          "name": "",
          "type": "uint256"
        }
      ],
      "name": "stakeDurations",
      "outputs": [
        {
          "internalType": "uint48",
          "name": "",
          "type": "uint48"
        }
      ],
      "stateMutability": "view",
      "type": "function"
    },
    {
      "inputs": [
        {
          "internalType": "uint256",
          "name": "_stakeId",
          "type": "uint256"
        }
      ],
      "name": "stakeEscrowedReward",
      "outputs": [],
      "stateMutability": "nonpayable",
      "type": "function"
    },
    {
      "inputs": [],
      "name": "stakeTokenCount",
      "outputs": [
        {
          "internalType": "uint256",
          "name": "",
          "type": "uint256"
        }
      ],
      "stateMutability": "view",
      "type": "function"
    },
    {
      "inputs": [
        {
          "internalType": "uint256",
          "name": "",
          "type": "uint256"
        }
      ],
      "name": "stakeTokens",
      "outputs": [
        {
          "internalType": "address",
          "name": "",
          "type": "address"
        }
      ],
      "stateMutability": "view",
      "type": "function"
    },
    {
      "inputs": [
        {
          "internalType": "uint256",
          "name": "",
          "type": "uint256"
        }
      ],
      "name": "stakes",
      "outputs": [
        {
          "internalType": "address",
          "name": "staker",
          "type": "address"
        },
        {
          "internalType": "address",
          "name": "token",
          "type": "address"
        },
        {
          "internalType": "uint48",
          "name": "start",
          "type": "uint48"
        },
        {
          "internalType": "uint48",
          "name": "end",
          "type": "uint48"
        },
        {
          "internalType": "uint256",
          "name": "rewardAllocated",
          "type": "uint256"
        },
        {
          "internalType": "bool",
          "name": "isEscrow",
          "type": "bool"
        },
        {
          "internalType": "enum ILendingPoolStaking.EscrowStatus",
          "name": "escrowStatus",
          "type": "uint8"
        },
        {
          "internalType": "enum ILendingPoolStaking.StakeStatus",
          "name": "stakeStatus",
          "type": "uint8"
        }
      ],
      "stateMutability": "view",
      "type": "function"
    },
    {
      "inputs": [
        {
          "internalType": "bytes4",
          "name": "interfaceId",
          "type": "bytes4"
        }
      ],
      "name": "supportsInterface",
      "outputs": [
        {
          "internalType": "bool",
          "name": "",
          "type": "bool"
        }
      ],
      "stateMutability": "view",
      "type": "function"
    },
    {
      "inputs": [],
      "name": "symbol",
      "outputs": [
        {
          "internalType": "string",
          "name": "",
          "type": "string"
        }
      ],
      "stateMutability": "view",
      "type": "function"
    },
    {
      "inputs": [],
      "name": "testing",
      "outputs": [
        {
          "internalType": "bool",
          "name": "",
          "type": "bool"
        }
      ],
      "stateMutability": "view",
      "type": "function"
    },
    {
      "inputs": [
        {
          "internalType": "uint256",
          "name": "tokenId",
          "type": "uint256"
        }
      ],
      "name": "tokenURI",
      "outputs": [
        {
          "internalType": "string",
          "name": "",
          "type": "string"
        }
      ],
      "stateMutability": "view",
      "type": "function"
    },
    {
      "inputs": [
        {
          "internalType": "address",
          "name": "",
          "type": "address"
        },
        {
          "internalType": "uint8",
          "name": "",
          "type": "uint8"
        }
      ],
      "name": "totalStakedByToken_Duration",
      "outputs": [
        {
          "internalType": "uint256",
          "name": "",
          "type": "uint256"
        }
      ],
      "stateMutability": "view",
      "type": "function"
    },
    {
      "inputs": [
        {
          "internalType": "address",
          "name": "from",
          "type": "address"
        },
        {
          "internalType": "address",
          "name": "to",
          "type": "address"
        },
        {
          "internalType": "uint256",
          "name": "tokenId",
          "type": "uint256"
        }
      ],
      "name": "transferFrom",
      "outputs": [],
      "stateMutability": "nonpayable",
      "type": "function"
    },
    {
      "inputs": [
        {
          "internalType": "address",
          "name": "newOwner",
          "type": "address"
        }
      ],
      "name": "transferOwnership",
      "outputs": [],
      "stateMutability": "nonpayable",
      "type": "function"
    },
    {
      "inputs": [
        {
          "internalType": "uint256",
          "name": "_stakeId",
          "type": "uint256"
        }
      ],
      "name": "unstake",
      "outputs": [],
      "stateMutability": "nonpayable",
      "type": "function"
    },
    {
      "inputs": [
        {
          "internalType": "address",
          "name": "newImplementation",
          "type": "address"
        }
      ],
      "name": "upgradeTo",
      "outputs": [],
      "stateMutability": "nonpayable",
      "type": "function"
    },
    {
      "inputs": [
        {
          "internalType": "address",
          "name": "newImplementation",
          "type": "address"
        },
        {
          "internalType": "bytes",
          "name": "data",
          "type": "bytes"
        }
      ],
      "name": "upgradeToAndCall",
      "outputs": [],
      "stateMutability": "payable",
      "type": "function"
    }
  ],
  "transactionHash": "0xae0db55728233f314a2a72d11ee9b75c2b13ac5810b995a1aab22f6ad888da5d",
  "args": [],
  "numDeployments": 1,
  "solcInputHash": "2b691191bd6bf894805fd6522b0009a2",
  "bytecode": "0x60a06040523462000111576000546200003260ff8260081c16158092819362000102575b8115620000df575b5062000116565b8062000046600160ff196000541617600055565b620000c4575b620000566200020d565b62000091575b620000666200017a565b3060805260405161555690816200026e82396080518181816115a301528181611c370152611ed10152f35b620000a261ff001960005416600055565b60405160018152600080516020620057c483398151915290602090a16200005c565b620000d961010061ff00196000541617600055565b6200004c565b303b15915081620000f3575b50386200002b565b6001915060ff161438620000eb565b600160ff821610915062000023565b600080fd5b156200011e57565b60405162461bcd60e51b815260206004820152602e60248201527f496e697469616c697a61626c653a20636f6e747261637420697320616c72656160448201526d191e481a5b9a5d1a585b1a5e995960921b6064820152608490fd5b600054620001a060ff8260081c16158092819362000102578115620000df575062000116565b80620001b4600160ff196000541617600055565b620001f2575b60ff1960fb541660fb55620001cb57565b61ff001960005416600055600080516020620057c4833981519152602060405160018152a1565b6200020761010061ff00196000541617600055565b620001ba565b60c98054737e8ae5c72eca86946b695dcc211863d9721a09616001600160a01b0319821681179092556040516001600160a01b03909116907f8be0079c531659141344cd1fd0a4f28419497f9722a3daafe3b4186f6b6457e090600090a356fe60806040526004361015610013575b600080fd5b60003560e01c806301ffc9a71461040f57806306fdde0314610406578063081812fc146103fd57806308ed8d16146103f4578063095ea7b3146103eb578063125cc42f146103e2578063162094c4146103d9578063166866c7146103d05780631fecb71a146103c7578063217fe6c6146103be57806323b872dd146103b55780632e17de78146103ac5780633587e161146103a35780633659cfe61461039a57806339d2525f146103915780633c661b8b146103885780633de15c121461037f57806342842e0e14610376578063485cc9551461036d5780634f1ef28614610364578063528a9e4d1461035b57806352d1902d146103525780636352211e1461034957806365b014b71461034057806370a0823114610337578063715018a61461032e57806372a4db4a146103255780637547c7a31461031c57806378fecc9914610313578063829522001461030a578063848778b4146103015780638d03b102146102f85780638da5cb5b146102ef57806395d89b41146102e65780639b45d024146102dd5780639db5fa65146102d4578063a22cb465146102cb578063a59a9973146102c2578063b88d4fde146102b9578063ba5e4bad146102b0578063bad7edab146102a7578063bf0215501461029e578063c87b56dd14610295578063d2438c2a1461028c578063d5a44f8614610283578063de3e3eff1461027a578063e25b7d8214610271578063e985e9c514610268578063ef7bd7f31461025f578063f19ed6be146102565763f2fde38b1461024e57600080fd5b61000e612d4f565b5061000e612980565b5061000e612960565b5061000e6128f5565b5061000e6128cd565b5061000e612889565b5061000e6127e3565b5061000e6126eb565b5061000e6126b7565b5061000e612663565b5061000e61259c565b5061000e61257c565b5061000e612524565b5061000e6124fb565b5061000e612409565b5061000e6123ac565b5061000e61238c565b5061000e6122e4565b5061000e6122bc565b5061000e612298565b5061000e612258565b5061000e61222f565b5061000e612209565b5061000e6121ad565b5061000e61210b565b5061000e61207d565b5061000e611fd7565b5061000e611fac565b5061000e611f8d565b5061000e611eb5565b5061000e611d8b565b5061000e611bf1565b5061000e611af2565b5061000e611ac9565b5061000e611824565b5061000e6117e8565b5061000e61170c565b5061000e611579565b5061000e611217565b5061000e610dce565b5061000e610da4565b5061000e610ce9565b5061000e610c4a565b5061000e610b86565b5061000e61096d565b5061000e6107d8565b5061000e610691565b5061000e610643565b5061000e610609565b5061000e61052c565b5061000e61042a565b6001600160e01b031981160361000e57565b503461000e57602036600319011261000e57602060043561044a81610418565b63ffffffff60e01b16632483248360e11b8114908115610470575b506040519015158152f35b6380ac58cd60e01b8114915081156104a2575b8115610491575b5038610465565b6301ffc9a760e01b1490503861048a565b635b5e139f60e01b81149150610483565b600091031261000e57565b918091926000905b8282106104de5750116104d7575050565b6000910152565b915080602091830151818601520182916104c6565b9060209161050c815180928185528580860191016104be565b601f01601f1916010190565b9060206105299281815201906104f3565b90565b503461000e576000806003193601126106065760405190806065546105508161318b565b808552916001918083169081156105e5575060011461058a575b6105868561057a818703826108a9565b60405191829182610518565b0390f35b9250606583527f8ff97419363ffd7000167f130ef7168fbea05faf9251824ca5043f113cc6a7c75b8284106105cd57505050810160200161057a8261058661056a565b805460208587018101919091529093019281016105b2565b60ff19166020870152505060408401925061057a915083905061058661056a565b80fd5b503461000e57602036600319011261000e576020610628600435613237565b6001600160a01b0360405191168152f35b8015150361000e57565b503461000e57602036600319011261000e5760043561066181610639565b610669613a2e565b60ff801960fb5416911515161760fb556000604051f35b6001600160a01b0381160361000e57565b503461000e57604036600319011261000e576004356106af81610680565b6024356106bb81613169565b916001600160a01b03808416809183161461073b576106ed936106e89133149081156106ef575b506131c5565b6135ac565b005b610735915061072e9061071633916001600160a01b0316600052606a602052604060002090565b906001600160a01b0316600052602052604060002090565b5460ff1690565b386106e2565b60405162461bcd60e51b815260206004820152602160248201527f4552433732313a20617070726f76616c20746f2063757272656e74206f776e656044820152603960f91b6064820152608490fd5b6001600160a01b031660005261016e602052604060002090565b6001600160a01b0316600052610169602052604060002090565b6001600160a01b0316600052610164602052604060002090565b503461000e57602036600319011261000e576001600160a01b036004356107fe81610680565b16600052610163602052602060ff604060002054166040519015158152f35b50634e487b7160e01b600052604160045260246000fd5b67ffffffffffffffff811161084857604052565b61085061081d565b604052565b6020810190811067ffffffffffffffff82111761084857604052565b6060810190811067ffffffffffffffff82111761084857604052565b6040810190811067ffffffffffffffff82111761084857604052565b90601f8019910116810190811067ffffffffffffffff82111761084857604052565b60405190610120820182811067ffffffffffffffff82111761084857604052565b604051906108f982610871565b565b60209067ffffffffffffffff8111610919575b601f01601f19160190565b61092161081d565b61090e565b81601f8201121561000e5780359061093d826108fb565b9261094b60405194856108a9565b8284526020838301011161000e57816000926020809301838601378301015290565b503461000e57604036600319011261000e5760043567ffffffffffffffff60243581811161000e576109a3903690600401610926565b916109ac613a2e565b6109cc8160005260676020526001600160a01b0360406000205416151590565b15610b1b576000918183526020906097825260408420918551918211610b0e575b610a01826109fb855461318b565b85614208565b80601f8311600114610a7857509080610a6594939286977ff8e1a15aba9398e019f0b49df1a4fde98ee17ae345cb5f6b5e2c27f5033e8ce79792610a6d575b50508160011b916000199060031b1c19161790555b6040519081529081906020820190565b0390a1604051f35b015190503880610a40565b90601f19831696610a8e85600052602060002090565b9287905b898210610af6575050918391600193610a659796957ff8e1a15aba9398e019f0b49df1a4fde98ee17ae345cb5f6b5e2c27f5033e8ce7999a10610add575b505050811b019055610a55565b015160001960f88460031b161c19169055388080610ad0565b80600185968294968601518155019501930190610a92565b610b1661081d565b6109ed565b60405162461bcd60e51b815260206004820152602e60248201527f45524337323155524953746f726167653a2055524920736574206f66206e6f6e60448201527f6578697374656e7420746f6b656e0000000000000000000000000000000000006064820152608490fd5b503461000e5760208060031936011261000e57600435610ba581610680565b610bad613ada565b90610bd16001600160a01b0392848460c954163314918215610c0f575b5050613afb565b1690816000526101639182825260ff60406000205416610bed57005b610167610bfa8154614e05565b905560005252604060002060ff198154169055005b60ff925090610c38913360005260fc8252604060002082604051948386809551938492016104be565b82019081520301902054168438610bca565b503461000e57602036600319011261000e576106ed600435610c6b81610680565b610c92610c76613ada565b6001600160a01b0360c954163314908115610c97575b50613afb565b614fae565b60ff91506020610cc1913360005260fc8252604060002082604051948386809551938492016104be565b820190815203019020541638610c8c565b90610ce5602092828151948592016104be565b0190565b503461000e57604036600319011261000e57600435610d0781610680565b60243567ffffffffffffffff811161000e57610d5b6020610586936001600160a01b03610d3a60ff953690600401610926565b911660005260fc8252604060002082604051948386809551938492016104be565b820190815203019020546040519116151581529081906020820190565b606090600319011261000e57600435610d9081610680565b90602435610d9d81610680565b9060443590565b503461000e576106ed610db636610d78565b91610dc9610dc48433613366565b613279565b613441565b503461000e5760208060031936011261000e57600435610df5610df082614629565b61271a565b5091610e0883546001600160a01b031690565b906001600160a01b03918233911603611206576001840190815492428460d01c1180156111e8575b80156111ca575b6111b8576005600287019683610e79610e6b8a54610e65610e5b8d60010190600090565b90549060031b1c90565b9061461d565b610e6560028c016000610e5b565b6006830197610e89895460ff1690565b156111a5575090610ee6600092610ebb610eaf610eaf610161546001600160a01b031690565b6001600160a01b031690565b60405163a9059cbb60e01b815233600482015260248101929092529093849283919082906044820190565b03925af18015611198575b61117b575b505b0154806110c8575b505082546001915060101c60ff16610f1781612763565b14611023575b50805462ff00001916620200001781556106ed9250610f9a91610df09160408051838152600260208201527fab7e44c17ad2a7b4de0e42ab0bc824366a946f184a1133f0b5528347e4ccbd2991819081010390a18054600160ff8260081c16610f8581612763565b14908115611018575b50610fa0575b50614629565b90614e12565b805461ff001916610200179055610fcd8160005260676020526001600160a01b0360406000205416151590565b61100a575b60408051828152600260208201527f855f5f4ea7c8c6a92f173fbc35c24d01139c2a49e9bcc085f03620cb6a1c65139190a138610f94565b61101381614ea0565b610fd2565b60ff91501638610f8e565b61103861103261016854614e05565b61016855565b600090815b600360ff82161061104f575050610f1d565b80611060610e5b6110a8938961466f565b855460ff16156110ad576110a16110998361108761078a610161546001600160a01b031690565b9060ff16600052602052604060002090565b918254614646565b905561465d565b61103d565b6110a16110998361108761078a88546001600160a01b031690565b61111883916110d8875460ff1690565b1561116a57610161546001600160a01b0316905b60405163a9059cbb60e01b81523360048201526024810191909152938492839160009183906044820190565b0393165af1801561115d575b61112f575b80610f00565b8161114e92903d10611156575b61114681836108a9565b81019061433a565b503880611129565b503d61113c565b611165612f01565b611124565b85546001600160a01b0316906110ec565b61119190853d87116111565761114681836108a9565b5038610ef6565b6111a0612f01565b610ef1565b6111b3925085339116615056565b610ef8565b60405163baf3f0f760e01b8152600490fd5b50600686015460029060081c60ff166111e281612763565b14610e37565b50600686015460029060101c60ff1661120081612763565b14610e30565b6040516282b42960e81b8152600490fd5b503461000e5760008060031936011261060657611232613a2e565b805b6101655481101561132b576112ec906112c261125c610eaf610162546001600160a01b031690565b61127b61126884612168565b90546001600160a01b039160031b1c1690565b6040518092630530fa2160e01b8252818060209687956004830160408082526003908201526206966760ec1b60608201526001600160a01b03909116602082015260800190565b03915afa91821561131e575b85926112f1575b50506112e66107a461126884612168565b55613e3e565b611234565b6113109250803d10611317575b61130881836108a9565b810190612ef2565b38806112d5565b503d6112fe565b611326612f01565b6112ce565b50805b61016c548110156113cd57806113466113a09261271a565b50600681015460ff91828260101c169061135f82612763565b60018092036113c45761139b936113758661460d565b9316156113a55750506113946107a4610161546001600160a01b031690565b54906149bf565b613e3e565b61132e565b01546001600160a01b0316600090815261016960205260409020611394565b50505050613e3e565b50805b6101655481101561154f57806113ee6107a461126861148c94612168565b5483611406610eaf610162546001600160a01b031690565b61141261126885612168565b60409161147a8351630530fa2160e01b815260209687828061146060049889830160408082526003908201526206966760ec1b60608201526001600160a01b03909116602082015260800190565b0381875afa918215611542575b8792611523575b50614646565b9182611491575b505050505050613e3e565b6113d0565b6114de9486946114a36112688a612168565b905163276d76f960e21b81526001600160a01b0390911692810192835230602084015260408301949094529294859384929091839160600190565b03925af18015611516575b6114f8575b8080808793611481565b8161150e92903d106111565761114681836108a9565b5038806114ee565b61151e612f01565b6114e9565b61153b919250883d8a116113175761130881836108a9565b9038611474565b61154a612f01565b61146d565b506040517f3ebfd10f795a127a78001b56051c04828d55b68d9d77ebce97b617c8adc53ed28282a1f35b503461000e57602036600319011261000e5760043561159781610680565b6001600160a01b0390817f000000000000000000000000000000000000000000000000000000000000000016916115d083301415612e1d565b6115ff7f360894a13ba1a3210667c828492db98dca3e2076cc3735a920a3ca505d382bbc938285541614612e7e565b611607613a2e565b6040519061161482610855565b600082527f4910fdfa16fed3260ed0e7147f7cc6da11a60208b5b9406d12a635614ffd91435460ff161561164e5750506106ed9150612f6c565b6020600491604094939451928380926352d1902d60e01b825286165afa600091816116ec575b506116d95760405162461bcd60e51b815260206004820152602e60248201527f45524331393637557067726164653a206e657720696d706c656d656e7461746960448201526d6f6e206973206e6f74205555505360901b6064820152608490fd5b0390fd5b6106ed936116e79114612f0e565b61300a565b61170591925060203d81116113175761130881836108a9565b9038611674565b503461000e57606036600319011261000e5760043561172a81610680565b6024359067ffffffffffffffff821161000e5761179060206117536106ed943690600401610926565b6001600160a01b036044359461176886610639565b611770613a2e565b1660005260fc8252604060002082604051948386809551938492016104be565b8201908152030190209060ff801983541691151516179055565b50634e487b7160e01b600052603260045260246000fd5b9060038210156117db575b601f8260051c61016f01921690565b6117e36117aa565b6117cc565b503461000e57602036600319011261000e57600435600381101561000e578060ff60209260051c61016f015460f86040519360031b161c168152f35b503461000e57602036600319011261000e5760043561184f610eaf610161546001600160a01b031690565b3303611206576101709061186482548261461d565b90611870600061017055565b61016c805460005b818110611a8457509054905b818110611a6a57505060005b61016554811015611a3f576118a761126882612168565b6101676118dd6118b882548761399f565b6118d6846001600160a01b0316600052610164602052604060002090565b549061461d565b60006118fd846001600160a01b0316600052610164602052604060002090565b55600090815b600360ff82161061197457505090600360ff611929959493161461192e575b5050613e3e565b611890565b61196061196791600061195861196d956001600160a01b0316600052610164602052604060002090565b55548661399f565b875461461d565b61017055565b3880611922565b6119a96119a261199c611996611989856117c1565b905460ff9160031b1c1690565b60ff1690565b84613c3a565b6064900490565b6119cb82611087886001600160a01b031660005261016e602052604060002090565b5415611a04575b906119ff916119f982611087896001600160a01b031660005261016b602052604060002090565b5561465d565b611903565b9290611a366119ff92611a2b886001600160a01b0316600052610164602052604060002090565b6110a187825461461d565b939091506119d2565b60006040517fbd9c0e36f2110aa67058734f061a385583a1d8b5758bcb065ca0f26c4c64603c8282a1f35b8061139b611a7a611a7f9361460d565b615332565b611884565b806001611aa46006611a98611ac49561271a565b50015460101c60ff1690565b611aad81612763565b0361139b5761139b86611abf8361460d565b6146a3565b611878565b503461000e576106ed611adb36610d78565b9060405192611ae984610855565b600084526132db565b503461000e57604036600319011261000e57600435611b1081610680565b611b60602435611b1f81610680565b60005492611b4460ff8560081c161580958196611be3575b8115611bc3575b50613cd5565b83611b57600160ff196000541617600055565b611baa57613f06565b611b6657005b611b7661ff001960005416600055565b604051600181527f7f26b83ff96e1f2b6a682f133852f6798a09c465da95921460cefb38474024989080602081015b0390a1005b611bbe61010061ff00196000541617600055565b613f06565b303b15915081611bd5575b5038611b3e565b6001915060ff161438611bce565b600160ff8216109150611b37565b50604036600319011261000e57600435611c0a81610680565b60243567ffffffffffffffff811161000e57611c2a903690600401610926565b906001600160a01b0391827f00000000000000000000000000000000000000000000000000000000000000001692611c6484301415612e1d565b611c937f360894a13ba1a3210667c828492db98dca3e2076cc3735a920a3ca505d382bbc948286541614612e7e565b611c9b613a2e565b7f4910fdfa16fed3260ed0e7147f7cc6da11a60208b5b9406d12a635614ffd91435460ff1615611cd15750506106ed9150612f6c565b6020600491604094939451928380926352d1902d60e01b825286165afa60009181611d6b575b50611d585760405162461bcd60e51b815260206004820152602e60248201527f45524331393637557067726164653a206e657720696d706c656d656e7461746960448201526d6f6e206973206e6f74205555505360901b6064820152608490fd5b6106ed93611d669114612f0e565b6130c6565b611d8491925060203d81116113175761130881836108a9565b9038611cf7565b503461000e57602036600319011261000e57600435611dac610df082614629565b5090611dbf82546001600160a01b031690565b6001600160a01b0333911603611206576006820180549260ff938480821615918215611e9d575b50506111b857815462ff000019166201000017825592611e0b61103261016854613e3e565b600260009401935b600382821610611e5e577fab7e44c17ad2a7b4de0e42ab0bc824366a946f184a1133f0b5528347e4ccbd2984611e4e855460ff9060101c1690565b90611ba56040519283928361468d565b611e9681611e71610e5b6003948961466f565b6110a1611e8e8361108761078a610161546001600160a01b031690565b91825461461d565b9050611e13565b60101c169050611eac81612763565b15158438611de6565b503461000e57600036600319011261000e576001600160a01b037f0000000000000000000000000000000000000000000000000000000000000000163003611f22576040517f360894a13ba1a3210667c828492db98dca3e2076cc3735a920a3ca505d382bbc8152602090f35b60405162461bcd60e51b815260206004820152603860248201527f555550535570677261646561626c653a206d757374206e6f742062652063616c60448201527f6c6564207468726f7567682064656c656761746563616c6c00000000000000006064820152608490fd5b503461000e57602036600319011261000e576020610628600435613169565b503461000e57600036600319011261000e57611fcf60ff60005460081c166139b5565b6106ed613a86565b503461000e57602036600319011261000e576001600160a01b03600435611ffd81610680565b168015612026576000526068602052610586604060002054604051918291829190602083019252565b60405162461bcd60e51b815260206004820152602960248201527f4552433732313a2061646472657373207a65726f206973206e6f7420612076616044820152683634b21037bbb732b960b91b6064820152608490fd5b503461000e5760008060031936011261060657612098613a2e565b60c9546001600160a01b0319811660c955816001600160a01b0360405192167f8be0079c531659141344cd1fd0a4f28419497f9722a3daafe3b4186f6b6457e08284a3f35b6024359060ff8216820361000e57565b6044359060ff8216820361000e57565b359060ff8216820361000e57565b503461000e57606036600319011261000e57366023121561000e5760405161213281610871565b60648136821161000e576004905b828210612150576106ed84613b47565b6020809161215d846120fd565b815201910190612140565b61016580548210156121a0575b6000527fd91ca5e44fa96a1732bfaed7fe33fc20ed69a9895cde1f18c7dcabca39d6a78b0190600090565b6121a86117aa565b612175565b503461000e57602036600319011261000e57600435610165805482101561000e576020916001600160a01b03916000527fd91ca5e44fa96a1732bfaed7fe33fc20ed69a9895cde1f18c7dcabca39d6a78b015416604051908152f35b503461000e57600036600319011261000e576020612225614b27565b6040519015158152f35b503461000e57600036600319011261000e5760206001600160a01b036101615416604051908152f35b503461000e57602036600319011261000e576001600160a01b0360043561227e81610680565b166000526101646020526020604060002054604051908152f35b503461000e57600036600319011261000e57602060ff60fb54166040519015158152f35b503461000e57600036600319011261000e5760206001600160a01b0360c95416604051908152f35b503461000e576000806003193601126106065760405190806066546123088161318b565b808552916001918083169081156105e55750600114612331576105868561057a818703826108a9565b9250606683527f46501879b8ca8525e8c2fd519e2fbfcfa2ebea26501294aa02cbfcfb12e943545b82841061237457505050810160200161057a8261058661056a565b80546020858701810191909152909301928101612359565b503461000e57600036600319011261000e57602061016854604051908152f35b503461000e57604036600319011261000e5760206124006004356123cf81610680565b6001600160a01b036123df6120dd565b911660005261016e835260406000209060ff16600052602052604060002090565b54604051908152f35b503461000e57604036600319011261000e5760043561242781610680565b60243561243381610639565b6001600160a01b038216918233146124b657816124736124849233600052606a6020526040600020906001600160a01b0316600052602052604060002090565b9060ff801983541691151516179055565b604051901515815233907f17307eab39ab6107e8899845ad3d59bd9653f200f220920489ca2b5937696c3190602090a3005b60405162461bcd60e51b815260206004820152601960248201527f4552433732313a20617070726f766520746f2063616c6c6572000000000000006044820152606490fd5b503461000e57600036600319011261000e5760206001600160a01b036101625416604051908152f35b503461000e57608036600319011261000e5760043561254281610680565b60243561254e81610680565b6064359167ffffffffffffffff831161000e576125726106ed933690600401610926565b91604435916132db565b503461000e57600036600319011261000e57602061017054604051908152f35b503461000e57602036600319011261000e576004356125bd610df082614629565b508054336001600160a01b0390911603611206576006018054600260ff8260101c166125e881612763565b1490811561264a575b506111b857805461ff0019166101001790557f855f5f4ea7c8c6a92f173fbc35c24d01139c2a49e9bcc085f03620cb6a1c651390611ba5906126338133614cfe565b604080519182526001602083015290918291820190565b60ff915060081c1661265b81612763565b1515386125f1565b503461000e57604036600319011261000e57602061240060043561268681610680565b6001600160a01b036126966120dd565b911660005261016b835260406000209060ff16600052602052604060002090565b503461000e57602036600319011261000e576105866126d7600435613790565b6040519182916020835260208301906104f3565b503461000e57600036600319011261000e5761270e60ff60005460081c166139b5565b60fb805460ff19169055005b60079061016c8054821015612756575b600052027fe5af487827b121aa2456a019311df153887da6c98285803eea72252e4f09489b0190600090565b61275e6117aa565b61272a565b6003111561276d57565b634e487b7160e01b600052602160045260246000fd5b94919897969360e096939161010087019a6001600160a01b03809216885216602087015265ffffffffffff80921660408701521660608501526080840152151560a08301526127d181612763565b60c08201526127df83612763565b0152565b503461000e57602036600319011261000e5760043561016c5481101561000e5761280c9061271a565b506001600160a01b0361058681835416600184015490600660058601549501549060405195869560ff8460101c169460ff808660081c169516938160d01c9265ffffffffffff8360a01c1692169089612783565b90600382101561287c575b6006600580840461016d0193060290565b6128846117aa565b61286b565b503461000e57602036600319011261000e57600435600381101561000e578065ffffffffffff60056020930461016d01546006600560405194060260031b1c168152f35b503461000e57600036600319011261000e57602065ffffffffffff6101665416604051908152f35b503461000e57604036600319011261000e57602060ff61295460043561291a81610680565b6001600160a01b036024359161292f83610680565b16600052606a84526040600020906001600160a01b0316600052602052604060002090565b54166040519015158152f35b503461000e57600036600319011261000e57602061016754604051908152f35b50606036600319011261000e57600480359061299b82610680565b602435916129a76120ed565b918315612d01576129d66129d261072e846001600160a01b0316600052610163602052604060002090565b1590565b612cb3576001600160a01b0382168015801580612c4b575b612c3a5785919015612b9357503403612b3a5750612b1391611087611e8e92612a3f60008080612a2a610eaf610162546001600160a01b031690565b8a604051915af1612a39613656565b5061434f565b61078a612a4a61439b565b87612a5860ff871683613bcf565b5265ffffffffffff421690612ae6612aa9612aa3612a8a612a788a612860565b905465ffffffffffff9160031b1c1690565b60fb5460ff1615612b305761ffff6103f05b16906143af565b846143d3565b612ad7612ab46108cb565b338152946001600160a01b03881660208701525b65ffffffffffff166040860152565b65ffffffffffff166060840152565b6080820152600060a0820152600060c0820152600060e0820152612b0e610100820160019052565b614462565b9055612b2461103261016854613e3e565b6106ed61016c54615332565b61ffff6001612a9c565b6116d590604051918291631fff1b3b60e21b8352820160809060208152602260208201527f496e636f7272656374206e617469766520636f696e207374616b6520616d6f756040820152611b9d60f21b60608201520190565b92612bf9602061108793611e8e96612b1398966000612bbe610eaf610162546001600160a01b031690565b604080516323b872dd60e01b8152339481019485526001600160a01b0390921660208501528301949094529294859384929091839160600190565b03925af18015612c2d575b612c0f575b50612a3f565b612c269060203d81116111565761114681836108a9565b5038612c09565b612c35612f01565b612c04565b604051631e9acf1760e31b81528390fd5b506040516370a0823160e01b8152338482019081528791906020908290819083010381875afa908115612ca6575b600091612c88575b50106129ee565b612ca0915060203d81116113175761130881836108a9565b38612c81565b612cae612f01565b612c79565b6116d590604051918291631fff1b3b60e21b8352820160609060208152601360208201527f496e76616c6964207374616b6520746f6b656e0000000000000000000000000060408201520190565b6116d590604051918291631fff1b3b60e21b8352820160609060208152601560208201527f416d6f756e742063616e6e6f74206265207a65726f000000000000000000000060408201520190565b503461000e57602036600319011261000e57600435612d6d81610680565b612d75613a2e565b6001600160a01b03809116908115612dc95760009160c95491816001600160a01b031984161760c95560405192167f8be0079c531659141344cd1fd0a4f28419497f9722a3daafe3b4186f6b6457e08484a3f35b60405162461bcd60e51b815260206004820152602660248201527f4f776e61626c653a206e6577206f776e657220697320746865207a65726f206160448201526564647265737360d01b6064820152608490fd5b15612e2457565b60405162461bcd60e51b815260206004820152602c60248201527f46756e6374696f6e206d7573742062652063616c6c6564207468726f7567682060448201526b19195b1959d85d1958d85b1b60a21b6064820152608490fd5b15612e8557565b60405162461bcd60e51b815260206004820152602c60248201527f46756e6374696f6e206d7573742062652063616c6c6564207468726f7567682060448201526b6163746976652070726f787960a01b6064820152608490fd5b60405190612eec82610855565b60008252565b9081602091031261000e575190565b506040513d6000823e3d90fd5b15612f1557565b60405162461bcd60e51b815260206004820152602960248201527f45524331393637557067726164653a20756e737570706f727465642070726f786044820152681a58589b195555525160ba1b6064820152608490fd5b803b15612faf576001600160a01b037f360894a13ba1a3210667c828492db98dca3e2076cc3735a920a3ca505d382bbc91166001600160a01b0319825416179055565b60405162461bcd60e51b815260206004820152602d60248201527f455243313936373a206e657720696d706c656d656e746174696f6e206973206e60448201526c1bdd08184818dbdb9d1c9858dd609a1b6064820152608490fd5b61301381612f6c565b604051906001600160a01b0381167fbc7cd75a20ee27fd9adebab32041f755214dbc6bffa90cc0225b39da2e5c2d3b600084a28251158015906130be575b61305a57505050565b6000806130bb9461306a85610871565b602785527f416464726573733a206c6f772d6c6576656c2064656c65676174652063616c6c6020860152660819985a5b195960ca1b6040860152602081519101845af46130b5613656565b916138f7565b50565b506000613051565b6130cf81612f6c565b604051906001600160a01b0381167fbc7cd75a20ee27fd9adebab32041f755214dbc6bffa90cc0225b39da2e5c2d3b600084a28251158015906131155761305a57505050565b506001613051565b1561312457565b60405162461bcd60e51b815260206004820152601860248201527f4552433732313a20696e76616c696420746f6b656e20494400000000000000006044820152606490fd5b60005260676020526001600160a01b036040600020541661052981151561311d565b90600182811c921680156131bb575b60208310146131a557565b634e487b7160e01b600052602260045260246000fd5b91607f169161319a565b156131cc57565b60405162461bcd60e51b815260206004820152603d60248201527f4552433732313a20617070726f76652063616c6c6572206973206e6f7420746f60448201527f6b656e206f776e6572206f7220617070726f76656420666f7220616c6c0000006064820152608490fd5b61325f61325a8260005260676020526001600160a01b0360406000205416151590565b61311d565b60005260696020526001600160a01b036040600020541690565b1561328057565b60405162461bcd60e51b815260206004820152602d60248201527f4552433732313a2063616c6c6572206973206e6f7420746f6b656e206f776e6560448201526c1c881bdc88185c1c1c9bdd9959609a1b6064820152608490fd5b906132ff9392916132ef610dc48433613366565b6132fa838383613441565b613686565b1561330657565b60405162461bcd60e51b815260206004820152603260248201527f4552433732313a207472616e7366657220746f206e6f6e20455243373231526560448201527131b2b4bb32b91034b6b83632b6b2b73a32b960711b6064820152608490fd5b6001600160a01b038061337884613169565b1692818316928484149485156133ae575b50508315613398575b50505090565b6133a491929350613237565b1614388080613392565b60ff929550906133dd91600052606a6020526040600020906001600160a01b0316600052602052604060002090565b5416923880613389565b156133ee57565b60405162461bcd60e51b815260206004820152602560248201527f4552433732313a207472616e736665722066726f6d20696e636f72726563742060448201526437bbb732b960d91b6064820152608490fd5b90613467929161345083613169565b6001600160a01b03828116959091821686146133e7565b821693841561355b576108f9948161348c8693613486610eaf86613169565b146133e7565b6134b36134a3846000526069602052604060002090565b80546001600160a01b0319169055565b6134d0846001600160a01b03166000526068602052604060002090565b60001981540190556134f5856001600160a01b03166000526068602052604060002090565b6001815401905561352f85613514856000526067602052604060002090565b906001600160a01b03166001600160a01b0319825416179055565b7fddf252ad1be2c89b69c2b068fc378daa952ba7f163c4a11628f55a4df523b3ef6000604051a4615498565b60405162461bcd60e51b8152602060048201526024808201527f4552433732313a207472616e7366657220746f20746865207a65726f206164646044820152637265737360e01b6064820152608490fd5b600082815260696020526040902080546001600160a01b0319166001600160a01b0383161790556001600160a01b03806135e584613169565b169116907f8c5be1e5ebec7d5bd14f71427d1e84f3dd0314c0f7b2291e5b200ac8c7c3b9256000604051a4565b9081602091031261000e575161052981610418565b909261052994936080936001600160a01b038092168452166020830152604082015281606082015201906104f3565b3d15613681573d90613667826108fb565b9161367560405193846108a9565b82523d6000602084013e565b606090565b92909190823b15613787576136c19260209260006001600160a01b03604051809781968295630a85bd0160e11b9b8c85523360048601613627565b0393165af160009181613757575b50613749576136dc613656565b805190816137445760405162461bcd60e51b815260206004820152603260248201527f4552433732313a207472616e7366657220746f206e6f6e20455243373231526560448201527131b2b4bb32b91034b6b83632b6b2b73a32b960711b6064820152608490fd5b602001fd5b6001600160e01b0319161490565b61377991925060203d8111613780575b61377181836108a9565b810190613612565b90386136cf565b503d613767565b50505050600190565b6137b361325a8260005260676020526001600160a01b0360406000205416151590565b60009080825260206097815260408320604051848195908354906137d68261318b565b808552946001928084169081156138925750600114613856575b5050506137ff925003846108a9565b613807612edf565b9283511561384f57805161382157505061052991506138b2565b61052992506138419061383b604051958694850190610cd2565b90610cd2565b03601f1981018352826108a9565b9250505090565b869350819291528282205b85831061387a5750506137ff93508201013880806137f0565b8054838a018501528894508693909201918101613861565b965050505050505060ff1916818401526137ff83604081013880806137f0565b61325a6138d59160005260676020526001600160a01b0360406000205416151590565b60006040516138e381610855565b526040516138f081610855565b6000815290565b91929015613959575081511561390b575090565b3b156139145790565b60405162461bcd60e51b815260206004820152601d60248201527f416464726573733a2063616c6c20746f206e6f6e2d636f6e74726163740000006044820152606490fd5b82519091501561396c5750805190602001fd5b60405162461bcd60e51b81529081906116d59060048301610518565b50634e487b7160e01b600052601260045260246000fd5b81156139a9570490565b6139b1613988565b0490565b156139bc57565b60405162461bcd60e51b815260206004820152602b60248201527f496e697469616c697a61626c653a20636f6e7472616374206973206e6f74206960448201526a6e697469616c697a696e6760a81b6064820152608490fd5b613a2660ff60005460081c166139b5565b6108f9613a86565b6001600160a01b0360c954163303613a4257565b606460405162461bcd60e51b815260206004820152602060248201527f4f776e61626c653a2063616c6c6572206973206e6f7420746865206f776e65726044820152fd5b60c9546001600160a01b03737e8ae5c72eca86946b695dcc211863d9721a09619182821982161760c955167f8be0079c531659141344cd1fd0a4f28419497f9722a3daafe3b4186f6b6457e06000604051a3565b60405190613ae78261088d565b600582526430b236b4b760d91b6020830152565b15613b0257565b60405162461bcd60e51b815260206004820152600e60248201527f4e6f7420617574686f72697a65640000000000000000000000000000000000006044820152606490fd5b613b52610c76613ada565b606460ff613b7a613b6d828551168360208701511690613c05565b8260408601511690613c05565b1603613b89576108f990613c70565b604051631fff1b3b60e21b815260206004820152601260248201527f4d7573742073756d20757020746f2031303000000000000000000000000000006044820152606490fd5b906003811015613be1575b60051b0190565b613be96117aa565b613bda565b50634e487b7160e01b600052601160045260246000fd5b60ff8091169116908160ff038111613c1b570190565b610ce5613bee565b50634e487b7160e01b600052600060045260246000fd5b8060001904821181151516613c4d570290565b613c55613bee565b0290565b818110613c64575050565b60008155600101613c59565b9061016f60009081935b600380861015613ccd579060209160ff908183511691868654921b90811b9283911b169119161783550193600180930192601f8411613cbe575b5060010193613c7a565b60009350909101906001613cb4565b505050509050565b15613cdc57565b60405162461bcd60e51b815260206004820152602e60248201527f496e697469616c697a61626c653a20636f6e747261637420697320616c72656160448201527f647920696e697469616c697a65640000000000000000000000000000000000006064820152608490fd5b61016580549068010000000000000000821015613db0575b60018201808255821015613da3575b6000527fd91ca5e44fa96a1732bfaed7fe33fc20ed69a9895cde1f18c7dcabca39d6a78b0180546001600160a01b0319169055565b613dab6117aa565b613d6e565b613db861081d565b613d5f565b6001600160a01b0361016580549068010000000000000000821015613e31575b60018201808255821015613e24575b6000527fd91ca5e44fa96a1732bfaed7fe33fc20ed69a9895cde1f18c7dcabca39d6a78b0191166001600160a01b0319825416179055565b613e2c6117aa565b613dec565b613e3961081d565b613ddd565b6001906000198114613c1b570190565b9061016d600080935b600380861015613ccd578160209162ffffff600694511690858754911b65ffffffffffff811b9283911b1691191617855501910193601a8511613e9f575b6001019390613e57565b60009450600190920191613e95565b60405190613ebb8261088d565b601382527f457363726f77656420417373657420426f6e64000000000000000000000000006020830152565b60405190613ef48261088d565b600382526222a0a160e91b6020830152565b613f7390613fa5926001600160a01b0380199061016181851683825416179055610162921690825416179055613f57613f4a60008052610163602052604060002090565b805460ff19166001179055565b613f5f613d47565b613f9f61016791613f79613f738454613e3e565b61016755565b613f9a613f4a826001600160a01b0316600052610163602052604060002090565b613dbd565b54613e3e565b610166805465ffffffffffff1916630114db00179055613fe3613fc66108ec565b62093a8081526224ea006020820152626ebe006040820152613e4e565b614005613fee6108ec565b60148152601e602082015260326040820152613c70565b61401e614010613eae565b614018613ee7565b9061402e565b614026613a15565b6108f9615503565b9061404960ff60005460081c16614044816139b5565b6139b5565b815167ffffffffffffffff8111614144575b61406f8161406a60655461318b565b614151565b602080601f83116001146140b1575081906108f9946000926140a6575b50508160011b916000199060031b1c191617606555614242565b01519050388061408c565b919293601f1984166140e560656000527f8ff97419363ffd7000167f130ef7168fbea05faf9251824ca5043f113cc6a7c790565b936000905b82821061412c5750509160019391856108f997969410614113575b505050811b01606555614242565b015160001960f88460031b161c19169055388080614105565b806001869782949787015181550196019401906140ea565b61414c61081d565b61405b565b90601f821161415e575050565b6108f99160656000527f8ff97419363ffd7000167f130ef7168fbea05faf9251824ca5043f113cc6a7c7906020601f840160051c830193106141a8575b601f0160051c0190613c59565b909150819061419b565b90601f82116141bf575050565b6108f99160666000527f46501879b8ca8525e8c2fd519e2fbfcfa2ebea26501294aa02cbfcfb12e94354906020601f840160051c830193106141a857601f0160051c0190613c59565b9190601f811161421757505050565b6108f9926000526020600020906020601f840160051c830193106141a857601f0160051c0190613c59565b90815167ffffffffffffffff811161432d575b6142698161426460665461318b565b6141b2565b602080601f83116001146142a5575081929360009261429a575b50508160011b916000199060031b1c191617606655565b015190503880614283565b90601f198316946142d860666000527f46501879b8ca8525e8c2fd519e2fbfcfa2ebea26501294aa02cbfcfb12e9435490565b926000905b8782106143155750508360019596106142fc575b505050811b01606655565b015160001960f88460031b161c191690553880806142f1565b806001859682949686015181550195019301906142dd565b61433561081d565b614255565b9081602091031261000e575161052981610639565b1561435657565b60405162461bcd60e51b815260206004820152601f60248201527f4661696c656420746f207472616e73666572206e617469766520746f6b656e006044820152606490fd5b604051906143a882610871565b6060368337565b9065ffffffffffff8091169182156143c657160490565b6143ce613988565b160490565b9065ffffffffffff8080931691168092038111613c1b570190565b6143f782612763565b52565b906000905b6003821061440c57505050565b60016020828293518655019301910190916143ff565b9061442c81612763565b61ff0082549160081b169061ff001916179055565b9061444b81612763565b62ff000082549160101b169062ff00001916179055565b6108f990610100600661449161016c80549068010000000000000000821015614600575b60018201905561271a565b6145f3575b6144c66144aa85516001600160a01b031690565b82546001600160a01b0319166001600160a01b03909116178255565b61458c600182016144e46144aa60208801516001600160a01b031690565b6145346144fa604088015165ffffffffffff1690565b82547fffffffffffff000000000000ffffffffffffffffffffffffffffffffffffffff1660a09190911b65ffffffffffff60a01b16178255565b606086015165ffffffffffff16815479ffffffffffffffffffffffffffffffffffffffffffffffffffff1660d09190911b7fffffffffffff000000000000000000000000000000000000000000000000000016179055565b61459d6080850151600283016143fa565b60a0840151600582015501916145cb6145b960c0830151151590565b849060ff801983541691151516179055565b6145e260e08201516145dc81612763565b84614422565b0151906145ee82612763565b614441565b6145fb613c23565b614496565b61460861081d565b614486565b6001906001198111613c1b570190565b81198111613c1b570190565b60018110614639575b6000190190565b614641613bee565b614632565b818110614651570390565b614659613bee565b0390565b60ff6001911660ff8114613c1b570190565b6003821015614680575b0190600090565b6146886117aa565b614679565b908152604081019291906020906127df83612763565b610df06146af91614629565b50906146c282546001600160a01b031690565b906146e1826001600160a01b031660005261016a602052604060002090565b60068401926147206146f4855460ff1690565b9283156149ac57610161546001600160a01b03165b6001600160a01b0316600052602052604060002090565b549182158015614976575b61483e575b5050610df061474191949394614629565b509060009260028082019301935b600360ff82161061476257505050505050565b61480e906148096147cd614777895460ff1690565b801561482a57610161546001600160a01b0316905b846147c761479d610e5b838d61466f565b926147ab610167548c61399f565b9015614813576118d66107be610161546001600160a01b031690565b926151f0565b6147f06147da848a61466f565b9190926147eb8385549060031b1c90565b61461d565b9082549060031b600019811b9283911b16911916179055565b61465d565b61474f565b6118d66107be60018c01546001600160a01b031690565b60018601546001600160a01b03169061478c565b6148e6925061484b61439b565b901561495a576148bf614867610161546001600160a01b031690565b612ad765ffffffffffff4216612ac861489461488e612a8a6101665465ffffffffffff1690565b836143d3565b936148af6148a06108cb565b6001600160a01b039099168952565b6001600160a01b03166020880152565b6080820152600060a0820152600160c0820152600060e08201526000610100820152614462565b614741610df061016c548061493e61492261490889546001600160a01b031690565b6001600160a01b031660005261016a602052604060002090565b875460ff161561494557610161546001600160a01b0316614709565b5591614730565b60018901546001600160a01b03165b90610716565b6148bf61497160018801546001600160a01b031690565b614867565b506149996001614988610df086614629565b50015460a01c65ffffffffffff1690565b65ffffffffffff8042169116141561472b565b60018701546001600160a01b0316614954565b610df06149cb91614629565b5060058101916006820191600281019160005b600360ff8216106149f157505050505050565b845460ff16908115614b0a57614a2883614a14610161546001600160a01b031690565b83614a22610e5b828b61466f565b916151f0565b91614a3483895461461d565b8855614a4c610eaf610162546001600160a01b031690565b9015614af757610161546001600160a01b03165b813b1561000e57604051636c49e02160e01b815260606004820152600360648201526206966760ec1b60848201526001600160a01b039190911660248201526044810193909352614acc9290600090829060a490829084905af18015614aea575b614ad1575b5061465d565b6149de565b80614ade614ae492610834565b806104b3565b38614ac6565b614af2612f01565b614ac1565b60018501546001600160a01b0316614a60565b614a2883614b2260018701546001600160a01b031690565b614a14565b60006101655490614b44610eaf610162546001600160a01b031690565b905b828110614b5557505050600090565b614b6161126882612168565b60408051630530fa2160e01b81526004810191909152600360448201526206966760ec1b60648201526001600160a01b0382166024820152602091908281608481885afa928315614ca5575b600093614c80575b5050806118d6614c41614c26614bf4614be5614c51966001600160a01b031660005261016e602052604060002090565b60008052602052604060002090565b546118d6614c16866001600160a01b031660005261016e602052604060002090565b6001600052602052604060002090565b926001600160a01b031660005261016e602052604060002090565b6002600052602052604060002090565b9015159081614c76575b50614c6e57614c6990613e3e565b614b46565b505050600190565b9050151538614c5b565b614c519293509081614c9d92903d106113175761130881836108a9565b919038614bb5565b614cad612f01565b614bad565b15614cb957565b60405162461bcd60e51b815260206004820152601c60248201527f4552433732313a20746f6b656e20616c7265616479206d696e746564000000006044820152606490fd5b6001600160a01b038116908115614dc157614d9790614d3c614d368560005260676020526001600160a01b0360406000205416151590565b15614cb2565b614d5f614d368560005260676020526001600160a01b0360406000205416151590565b614d7c816001600160a01b03166000526068602052604060002090565b60018154019055613514846000526067602052604060002090565b60007fddf252ad1be2c89b69c2b068fc378daa952ba7f163c4a11628f55a4df523b3ef81604051a4565b606460405162461bcd60e51b815260206004820152602060248201527f4552433732313a206d696e7420746f20746865207a65726f20616464726573736044820152fd5b8015614639576000190190565b600690600092614e3d575b8281558260018201558260058201614e388160028501613c59565b550155565b614e45613c23565b614e1d565b610529905461318b565b614e5e815461318b565b9081614e68575050565b81601f60009311600114614e7a575055565b81835260208320614e9691601f0160051c810190600101613c59565b8160208120915555565b614ea981613169565b50614eb381613169565b600082815260696020526001600160a01b036040822092811993848154169055169081815260686020526040812091600019928381540190558482526067602052604082208481541690558482827fddf252ad1be2c89b69c2b068fc378daa952ba7f163c4a11628f55a4df523b3ef82604051a415159081614fa6575b50614f77575b5050614f54614f4f826000526097602052604060002090565b614e4a565b614f5b5750565b614f726108f9916000526097602052604060002090565b614e54565b614f8b9060018410614f99575b830161271a565b509081541690553880614f36565b614fa1613bee565b614f84565b905038614f30565b6001600160a01b03908181168060005261016360205260ff92836040600020541615615021575b6101655460005b8186821610614ff357505050506108f99150613dbd565b8383614ffe83612168565b90549060031b1c1614615019576150149061465d565b614fdc565b505050505050565b61016761502e8154613e3e565b9055615051613f4a846001600160a01b0316600052610163602052604060002090565b614fd5565b6001600160a01b03929083811690816150fe575050615081610eaf610162546001600160a01b031690565b818131106150ec57803b1561000e57604051633e97486160e11b8152939092166001600160a01b03166004840152602483015260009082908183816044810103925af180156150df575b6150d25750565b80614ade6108f992610834565b6150e7612f01565b6150cb565b604051631e9acf1760e31b8152600490fd5b91909350615118610eaf610162546001600160a01b031690565b6040516370a0823160e01b81526001600160a01b03821660048201526020958391908790829060249082905afa9081156151e3575b6000916151c6575b50106150ec5760405163276d76f960e21b81526001600160a01b03938416600482015293909216602484015260448301528290829060649082906000905af180156151b9575b6151a3575050565b816130bb92903d106111565761114681836108a9565b6151c1612f01565b61519b565b6151dd9150873d89116113175761130881836108a9565b38615155565b6151eb612f01565b61514d565b9291600081615203575050505050600090565b6001600160a01b03606461524360409461523e61526198600389101561526d575b60ff8960051c61016f015460f88b60031b161c1690613c3a565b613c3a565b049516815261016e602052209060ff16600052602052604060002090565b549081156139a9570490565b6152756117aa565b615224565b60405191906000835b600382106152aa575050506060820182811067ffffffffffffffff82111761084857604052565b6001602081928554815201930191019091615283565b95939192979694909761012087019887526001600160a01b039081602095168589015216604087015265ffffffffffff809216606087015216608085015260a084016000905b6003821061531d5750505050610100901515910152565b82806001928651815201940191019092615306565b7fbbad5407299f3773930327d215f85a16617efbbddc1fe3902bd39ba46feacf26906001811061548b575b61536a600019820161271a565b50906154866153776108cb565b61539861538b85546001600160a01b031690565b6001600160a01b03168252565b60018401546001600160a01b038116602083019081529490919060a083901c65ffffffffffff16604083019081529260d01c6060830190815261547961547061546361545661544860066153ee6002890161527a565b9760808a01988952600581015460a08b015201549761543b60ff60c083019a61541b8282168d9015159052565b61542d828260081c1660e086016143ee565b60101c1661010083016143ee565b516001600160a01b031690565b9a516001600160a01b031690565b965165ffffffffffff1690565b925165ffffffffffff1690565b92519351151590565b93604051978897886152c0565b0390a1565b615493613bee565b61535d565b6001600160a01b03809116151590816154f7575b506154b5575050565b6154ce8260016108f994106154ea575b6000190161271a565b50906001600160a01b03166001600160a01b0319825416179055565b6154f2613bee565b6154c5565b905081161515386154ac565b61551460ff60005460081c166139b5565b60ff1960fb541660fb5556fea26469706673582212205ff6390b2ed5b7bb2a6329b256475977d954b22b624c59960371c74cf4e33f4664736f6c634300080e00337f26b83ff96e1f2b6a682f133852f6798a09c465da95921460cefb3847402498",
  "devdoc": {
    "kind": "dev",
    "methods": {
      "approve(address,uint256)": {
        "details": "See {IERC721-approve}."
      },
      "balanceOf(address)": {
        "details": "See {IERC721-balanceOf}."
      },
      "getApproved(uint256)": {
        "details": "See {IERC721-getApproved}."
      },
      "isApprovedForAll(address,address)": {
        "details": "See {IERC721-isApprovedForAll}."
      },
      "name()": {
        "details": "See {IERC721Metadata-name}."
      },
      "owner()": {
        "details": "Returns the address of the current owner."
      },
      "ownerOf(uint256)": {
        "details": "See {IERC721-ownerOf}."
      },
      "proxiableUUID()": {
        "details": "Implementation of the ERC1822 {proxiableUUID} function. This returns the storage slot used by the implementation. It is used to validate the implementation's compatibility when performing an upgrade. IMPORTANT: A proxy pointing at a proxiable contract should not be considered proxiable itself, because this risks bricking a proxy that upgrades to it, by delegating to itself until out of gas. Thus it is critical that this function revert if invoked through a proxy. This is guaranteed by the `notDelegated` modifier."
      },
      "renounceOwnership()": {
        "details": "Leaves the contract without owner. It will not be possible to call `onlyOwner` functions anymore. Can only be called by the current owner. NOTE: Renouncing ownership will leave the contract without an owner, thereby removing any functionality that is only available to the owner."
      },
      "safeTransferFrom(address,address,uint256)": {
        "details": "See {IERC721-safeTransferFrom}."
      },
      "safeTransferFrom(address,address,uint256,bytes)": {
        "details": "See {IERC721-safeTransferFrom}."
      },
      "setApprovalForAll(address,bool)": {
        "details": "See {IERC721-setApprovalForAll}."
      },
      "supportsInterface(bytes4)": {
        "details": "See {IERC165-supportsInterface}"
      },
      "symbol()": {
        "details": "See {IERC721Metadata-symbol}."
      },
      "tokenURI(uint256)": {
        "details": "See {IERC721Metadata-tokenURI}."
      },
      "transferFrom(address,address,uint256)": {
        "details": "See {IERC721-transferFrom}."
      },
      "transferOwnership(address)": {
        "details": "Transfers ownership of the contract to a new account (`newOwner`). Can only be called by the current owner."
      },
      "upgradeTo(address)": {
        "custom:oz-upgrades-unsafe-allow-reachable": "delegatecall",
        "details": "Upgrade the implementation of the proxy to `newImplementation`. Calls {_authorizeUpgrade}. Emits an {Upgraded} event."
      },
      "upgradeToAndCall(address,bytes)": {
        "custom:oz-upgrades-unsafe-allow-reachable": "delegatecall",
        "details": "Upgrade the implementation of the proxy to `newImplementation`, and subsequently execute the function call encoded in `data`. Calls {_authorizeUpgrade}. Emits an {Upgraded} event."
      }
    },
    "version": 1
  },
  "userdoc": {
    "kind": "user",
    "methods": {},
    "version": 1
  },
  "storageLayout": {
    "storage": [
      {
        "astId": 687,
        "contract": "contracts/staking/LendingPoolStaking.sol:LendingPoolStaking",
        "label": "_initialized",
        "offset": 0,
        "slot": "0",
        "type": "t_uint8"
      },
      {
        "astId": 690,
        "contract": "contracts/staking/LendingPoolStaking.sol:LendingPoolStaking",
        "label": "_initializing",
        "offset": 1,
        "slot": "0",
        "type": "t_bool"
      },
      {
        "astId": 4108,
        "contract": "contracts/staking/LendingPoolStaking.sol:LendingPoolStaking",
        "label": "__gap",
        "offset": 0,
        "slot": "1",
        "type": "t_array(t_uint256)50_storage"
      },
      {
        "astId": 5020,
        "contract": "contracts/staking/LendingPoolStaking.sol:LendingPoolStaking",
        "label": "__gap",
        "offset": 0,
        "slot": "51",
        "type": "t_array(t_uint256)50_storage"
      },
      {
        "astId": 2010,
        "contract": "contracts/staking/LendingPoolStaking.sol:LendingPoolStaking",
        "label": "_name",
        "offset": 0,
        "slot": "101",
        "type": "t_string_storage"
      },
      {
        "astId": 2012,
        "contract": "contracts/staking/LendingPoolStaking.sol:LendingPoolStaking",
        "label": "_symbol",
        "offset": 0,
        "slot": "102",
        "type": "t_string_storage"
      },
      {
        "astId": 2016,
        "contract": "contracts/staking/LendingPoolStaking.sol:LendingPoolStaking",
        "label": "_owners",
        "offset": 0,
        "slot": "103",
        "type": "t_mapping(t_uint256,t_address)"
      },
      {
        "astId": 2020,
        "contract": "contracts/staking/LendingPoolStaking.sol:LendingPoolStaking",
        "label": "_balances",
        "offset": 0,
        "slot": "104",
        "type": "t_mapping(t_address,t_uint256)"
      },
      {
        "astId": 2024,
        "contract": "contracts/staking/LendingPoolStaking.sol:LendingPoolStaking",
        "label": "_tokenApprovals",
        "offset": 0,
        "slot": "105",
        "type": "t_mapping(t_uint256,t_address)"
      },
      {
        "astId": 2030,
        "contract": "contracts/staking/LendingPoolStaking.sol:LendingPoolStaking",
        "label": "_operatorApprovals",
        "offset": 0,
        "slot": "106",
        "type": "t_mapping(t_address,t_mapping(t_address,t_bool))"
      },
      {
        "astId": 2932,
        "contract": "contracts/staking/LendingPoolStaking.sol:LendingPoolStaking",
        "label": "__gap",
        "offset": 0,
        "slot": "107",
        "type": "t_array(t_uint256)44_storage"
      },
      {
        "astId": 3513,
        "contract": "contracts/staking/LendingPoolStaking.sol:LendingPoolStaking",
        "label": "_tokenURIs",
        "offset": 0,
        "slot": "151",
        "type": "t_mapping(t_uint256,t_string_storage)"
      },
      {
        "astId": 3669,
        "contract": "contracts/staking/LendingPoolStaking.sol:LendingPoolStaking",
        "label": "__gap",
        "offset": 0,
        "slot": "152",
        "type": "t_array(t_uint256)49_storage"
      },
      {
        "astId": 13012,
        "contract": "contracts/staking/LendingPoolStaking.sol:LendingPoolStaking",
        "label": "_owner",
        "offset": 0,
        "slot": "201",
        "type": "t_address"
      },
      {
        "astId": 13132,
        "contract": "contracts/staking/LendingPoolStaking.sol:LendingPoolStaking",
        "label": "__gap",
        "offset": 0,
        "slot": "202",
        "type": "t_array(t_uint256)49_storage"
      },
      {
        "astId": 31911,
        "contract": "contracts/staking/LendingPoolStaking.sol:LendingPoolStaking",
        "label": "testing",
        "offset": 0,
        "slot": "251",
        "type": "t_bool"
      },
      {
        "astId": 13144,
        "contract": "contracts/staking/LendingPoolStaking.sol:LendingPoolStaking",
        "label": "hasRole",
        "offset": 0,
        "slot": "252",
        "type": "t_mapping(t_address,t_mapping(t_string_memory_ptr,t_bool))"
      },
      {
        "astId": 669,
        "contract": "contracts/staking/LendingPoolStaking.sol:LendingPoolStaking",
        "label": "__gap",
        "offset": 0,
        "slot": "253",
        "type": "t_array(t_uint256)50_storage"
      },
      {
        "astId": 985,
        "contract": "contracts/staking/LendingPoolStaking.sol:LendingPoolStaking",
        "label": "__gap",
        "offset": 0,
        "slot": "303",
        "type": "t_array(t_uint256)50_storage"
      },
      {
        "astId": 28784,
        "contract": "contracts/staking/LendingPoolStaking.sol:LendingPoolStaking",
        "label": "nend",
        "offset": 0,
        "slot": "353",
        "type": "t_address"
      },
      {
        "astId": 28787,
        "contract": "contracts/staking/LendingPoolStaking.sol:LendingPoolStaking",
        "label": "lendingPool",
        "offset": 0,
        "slot": "354",
        "type": "t_contract(Vault)33186"
      },
      {
        "astId": 28791,
        "contract": "contracts/staking/LendingPoolStaking.sol:LendingPoolStaking",
        "label": "activeStakeTokens",
        "offset": 0,
        "slot": "355",
        "type": "t_mapping(t_address,t_bool)"
      },
      {
        "astId": 28795,
        "contract": "contracts/staking/LendingPoolStaking.sol:LendingPoolStaking",
        "label": "inflationRollOver",
        "offset": 0,
        "slot": "356",
        "type": "t_mapping(t_address,t_uint256)"
      },
      {
        "astId": 28798,
        "contract": "contracts/staking/LendingPoolStaking.sol:LendingPoolStaking",
        "label": "stakeTokens",
        "offset": 0,
        "slot": "357",
        "type": "t_array(t_address)dyn_storage"
      },
      {
        "astId": 28800,
        "contract": "contracts/staking/LendingPoolStaking.sol:LendingPoolStaking",
        "label": "escrowLockPeriod",
        "offset": 0,
        "slot": "358",
        "type": "t_uint48"
      },
      {
        "astId": 28802,
        "contract": "contracts/staking/LendingPoolStaking.sol:LendingPoolStaking",
        "label": "stakeTokenCount",
        "offset": 0,
        "slot": "359",
        "type": "t_uint256"
      },
      {
        "astId": 28804,
        "contract": "contracts/staking/LendingPoolStaking.sol:LendingPoolStaking",
        "label": "ongoingStakeCount",
        "offset": 0,
        "slot": "360",
        "type": "t_uint256"
      },
      {
        "astId": 28808,
        "contract": "contracts/staking/LendingPoolStaking.sol:LendingPoolStaking",
        "label": "ifpTokenToAmount",
        "offset": 0,
        "slot": "361",
        "type": "t_mapping(t_address,t_uint256)"
      },
      {
        "astId": 28814,
        "contract": "contracts/staking/LendingPoolStaking.sol:LendingPoolStaking",
        "label": "userToStakeTokenToLastEscrowId",
        "offset": 0,
        "slot": "362",
        "type": "t_mapping(t_address,t_mapping(t_address,t_uint256))"
      },
      {
        "astId": 28820,
        "contract": "contracts/staking/LendingPoolStaking.sol:LendingPoolStaking",
        "label": "lastEscrowRewardByToken_Duration",
        "offset": 0,
        "slot": "363",
        "type": "t_mapping(t_address,t_mapping(t_uint8,t_uint256))"
      },
      {
        "astId": 28824,
        "contract": "contracts/staking/LendingPoolStaking.sol:LendingPoolStaking",
        "label": "stakes",
        "offset": 0,
        "slot": "364",
        "type": "t_array(t_struct(Stake)30919_storage)dyn_storage"
      },
      {
        "astId": 28828,
        "contract": "contracts/staking/LendingPoolStaking.sol:LendingPoolStaking",
        "label": "stakeDurations",
        "offset": 0,
        "slot": "365",
        "type": "t_array(t_uint48)3_storage"
      },
      {
        "astId": 28834,
        "contract": "contracts/staking/LendingPoolStaking.sol:LendingPoolStaking",
        "label": "totalStakedByToken_Duration",
        "offset": 0,
        "slot": "366",
        "type": "t_mapping(t_address,t_mapping(t_uint8,t_uint256))"
      },
      {
        "astId": 28838,
        "contract": "contracts/staking/LendingPoolStaking.sol:LendingPoolStaking",
        "label": "rewardAllocations",
        "offset": 0,
        "slot": "367",
        "type": "t_array(t_uint8)3_storage"
      },
      {
        "astId": 28840,
        "contract": "contracts/staking/LendingPoolStaking.sol:LendingPoolStaking",
        "label": "poolRollOver",
        "offset": 0,
        "slot": "368",
        "type": "t_uint256"
      }
    ],
    "types": {
      "t_address": {
        "encoding": "inplace",
        "label": "address",
        "numberOfBytes": "20"
      },
      "t_array(t_address)dyn_storage": {
        "base": "t_address",
        "encoding": "dynamic_array",
        "label": "address[]",
        "numberOfBytes": "32"
      },
      "t_array(t_struct(Stake)30919_storage)dyn_storage": {
        "base": "t_struct(Stake)30919_storage",
        "encoding": "dynamic_array",
        "label": "struct ILendingPoolStaking.Stake[]",
        "numberOfBytes": "32"
      },
      "t_array(t_uint256)3_storage": {
        "base": "t_uint256",
        "encoding": "inplace",
        "label": "uint256[3]",
        "numberOfBytes": "96"
      },
      "t_array(t_uint256)44_storage": {
        "base": "t_uint256",
        "encoding": "inplace",
        "label": "uint256[44]",
        "numberOfBytes": "1408"
      },
      "t_array(t_uint256)49_storage": {
        "base": "t_uint256",
        "encoding": "inplace",
        "label": "uint256[49]",
        "numberOfBytes": "1568"
      },
      "t_array(t_uint256)50_storage": {
        "base": "t_uint256",
        "encoding": "inplace",
        "label": "uint256[50]",
        "numberOfBytes": "1600"
      },
      "t_array(t_uint48)3_storage": {
        "base": "t_uint48",
        "encoding": "inplace",
        "label": "uint48[3]",
        "numberOfBytes": "32"
      },
      "t_array(t_uint8)3_storage": {
        "base": "t_uint8",
        "encoding": "inplace",
        "label": "uint8[3]",
        "numberOfBytes": "32"
      },
      "t_bool": {
        "encoding": "inplace",
        "label": "bool",
        "numberOfBytes": "1"
      },
      "t_contract(Vault)33186": {
        "encoding": "inplace",
        "label": "contract Vault",
        "numberOfBytes": "20"
      },
      "t_enum(EscrowStatus)30896": {
        "encoding": "inplace",
        "label": "enum ILendingPoolStaking.EscrowStatus",
        "numberOfBytes": "1"
      },
      "t_enum(StakeStatus)30892": {
        "encoding": "inplace",
        "label": "enum ILendingPoolStaking.StakeStatus",
        "numberOfBytes": "1"
      },
      "t_mapping(t_address,t_bool)": {
        "encoding": "mapping",
        "key": "t_address",
        "label": "mapping(address => bool)",
        "numberOfBytes": "32",
        "value": "t_bool"
      },
      "t_mapping(t_address,t_mapping(t_address,t_bool))": {
        "encoding": "mapping",
        "key": "t_address",
        "label": "mapping(address => mapping(address => bool))",
        "numberOfBytes": "32",
        "value": "t_mapping(t_address,t_bool)"
      },
      "t_mapping(t_address,t_mapping(t_address,t_uint256))": {
        "encoding": "mapping",
        "key": "t_address",
        "label": "mapping(address => mapping(address => uint256))",
        "numberOfBytes": "32",
        "value": "t_mapping(t_address,t_uint256)"
      },
      "t_mapping(t_address,t_mapping(t_string_memory_ptr,t_bool))": {
        "encoding": "mapping",
        "key": "t_address",
        "label": "mapping(address => mapping(string => bool))",
        "numberOfBytes": "32",
        "value": "t_mapping(t_string_memory_ptr,t_bool)"
      },
      "t_mapping(t_address,t_mapping(t_uint8,t_uint256))": {
        "encoding": "mapping",
        "key": "t_address",
        "label": "mapping(address => mapping(uint8 => uint256))",
        "numberOfBytes": "32",
        "value": "t_mapping(t_uint8,t_uint256)"
      },
      "t_mapping(t_address,t_uint256)": {
        "encoding": "mapping",
        "key": "t_address",
        "label": "mapping(address => uint256)",
        "numberOfBytes": "32",
        "value": "t_uint256"
      },
      "t_mapping(t_string_memory_ptr,t_bool)": {
        "encoding": "mapping",
        "key": "t_string_memory_ptr",
        "label": "mapping(string => bool)",
        "numberOfBytes": "32",
        "value": "t_bool"
      },
      "t_mapping(t_uint256,t_address)": {
        "encoding": "mapping",
        "key": "t_uint256",
        "label": "mapping(uint256 => address)",
        "numberOfBytes": "32",
        "value": "t_address"
      },
      "t_mapping(t_uint256,t_string_storage)": {
        "encoding": "mapping",
        "key": "t_uint256",
        "label": "mapping(uint256 => string)",
        "numberOfBytes": "32",
        "value": "t_string_storage"
      },
      "t_mapping(t_uint8,t_uint256)": {
        "encoding": "mapping",
        "key": "t_uint8",
        "label": "mapping(uint8 => uint256)",
        "numberOfBytes": "32",
        "value": "t_uint256"
      },
      "t_string_memory_ptr": {
        "encoding": "bytes",
        "label": "string",
        "numberOfBytes": "32"
      },
      "t_string_storage": {
        "encoding": "bytes",
        "label": "string",
        "numberOfBytes": "32"
      },
      "t_struct(Stake)30919_storage": {
        "encoding": "inplace",
        "label": "struct ILendingPoolStaking.Stake",
        "members": [
          {
            "astId": 30898,
            "contract": "contracts/staking/LendingPoolStaking.sol:LendingPoolStaking",
            "label": "staker",
            "offset": 0,
            "slot": "0",
            "type": "t_address"
          },
          {
            "astId": 30900,
            "contract": "contracts/staking/LendingPoolStaking.sol:LendingPoolStaking",
            "label": "token",
            "offset": 0,
            "slot": "1",
            "type": "t_address"
          },
          {
            "astId": 30902,
            "contract": "contracts/staking/LendingPoolStaking.sol:LendingPoolStaking",
            "label": "start",
            "offset": 20,
            "slot": "1",
            "type": "t_uint48"
          },
          {
            "astId": 30904,
            "contract": "contracts/staking/LendingPoolStaking.sol:LendingPoolStaking",
            "label": "end",
            "offset": 26,
            "slot": "1",
            "type": "t_uint48"
          },
          {
            "astId": 30908,
            "contract": "contracts/staking/LendingPoolStaking.sol:LendingPoolStaking",
            "label": "amountsPerDuration",
            "offset": 0,
            "slot": "2",
            "type": "t_array(t_uint256)3_storage"
          },
          {
            "astId": 30910,
            "contract": "contracts/staking/LendingPoolStaking.sol:LendingPoolStaking",
            "label": "rewardAllocated",
            "offset": 0,
            "slot": "5",
            "type": "t_uint256"
          },
          {
            "astId": 30912,
            "contract": "contracts/staking/LendingPoolStaking.sol:LendingPoolStaking",
            "label": "isEscrow",
            "offset": 0,
            "slot": "6",
            "type": "t_bool"
          },
          {
            "astId": 30915,
            "contract": "contracts/staking/LendingPoolStaking.sol:LendingPoolStaking",
            "label": "escrowStatus",
            "offset": 1,
            "slot": "6",
            "type": "t_enum(EscrowStatus)30896"
          },
          {
            "astId": 30918,
            "contract": "contracts/staking/LendingPoolStaking.sol:LendingPoolStaking",
            "label": "stakeStatus",
            "offset": 2,
            "slot": "6",
            "type": "t_enum(StakeStatus)30892"
          }
        ],
        "numberOfBytes": "224"
      },
      "t_uint256": {
        "encoding": "inplace",
        "label": "uint256",
        "numberOfBytes": "32"
      },
      "t_uint48": {
        "encoding": "inplace",
        "label": "uint48",
        "numberOfBytes": "6"
      },
      "t_uint8": {
        "encoding": "inplace",
        "label": "uint8",
        "numberOfBytes": "1"
      }
    }
  }
}