{
  "address": "0xee59FFE11B8eC2bd400fF78220554AEFE1bb80B9",
  "abi": [
    {
      "inputs": [],
      "name": "InsufficientBalance",
      "type": "error"
    },
    {
      "inputs": [
        {
          "internalType": "string",
          "name": "details",
          "type": "string"
        }
      ],
      "name": "InvalidArgument",
      "type": "error"
    },
    {
      "inputs": [],
      "name": "InvalidState",
      "type": "error"
    },
    {
      "inputs": [],
      "name": "Unauthorized",
      "type": "error"
    },
    {
      "anonymous": false,
      "inputs": [
        {
          "indexed": false,
          "internalType": "address",
          "name": "previousAdmin",
          "type": "address"
        },
        {
          "indexed": false,
          "internalType": "address",
          "name": "newAdmin",
          "type": "address"
        }
      ],
      "name": "AdminChanged",
      "type": "event"
    },
    {
      "anonymous": false,
      "inputs": [
        {
          "indexed": true,
          "internalType": "address",
          "name": "owner",
          "type": "address"
        },
        {
          "indexed": true,
          "internalType": "address",
          "name": "approved",
          "type": "address"
        },
        {
          "indexed": true,
          "internalType": "uint256",
          "name": "tokenId",
          "type": "uint256"
        }
      ],
      "name": "Approval",
      "type": "event"
    },
    {
      "anonymous": false,
      "inputs": [
        {
          "indexed": true,
          "internalType": "address",
          "name": "owner",
          "type": "address"
        },
        {
          "indexed": true,
          "internalType": "address",
          "name": "operator",
          "type": "address"
        },
        {
          "indexed": false,
          "internalType": "bool",
          "name": "approved",
          "type": "bool"
        }
      ],
      "name": "ApprovalForAll",
      "type": "event"
    },
    {
      "anonymous": false,
      "inputs": [
        {
          "indexed": false,
          "internalType": "uint256",
          "name": "_fromTokenId",
          "type": "uint256"
        },
        {
          "indexed": false,
          "internalType": "uint256",
          "name": "_toTokenId",
          "type": "uint256"
        }
      ],
      "name": "BatchMetadataUpdate",
      "type": "event"
    },
    {
      "anonymous": false,
      "inputs": [
        {
          "indexed": true,
          "internalType": "address",
          "name": "beacon",
          "type": "address"
        }
      ],
      "name": "BeaconUpgraded",
      "type": "event"
    },
    {
      "anonymous": false,
      "inputs": [
        {
          "indexed": false,
          "internalType": "uint256",
          "name": "stakeId",
          "type": "uint256"
        },
        {
          "indexed": false,
          "internalType": "enum ILendingPoolStaking.EscrowStatus",
          "name": "status",
          "type": "uint8"
        }
      ],
      "name": "EscrowStatusChanged",
      "type": "event"
    },
    {
      "anonymous": false,
      "inputs": [],
      "name": "InflationRewardDistributed",
      "type": "event"
    },
    {
      "anonymous": false,
      "inputs": [
        {
          "indexed": false,
          "internalType": "uint8",
          "name": "version",
          "type": "uint8"
        }
      ],
      "name": "Initialized",
      "type": "event"
    },
    {
      "anonymous": false,
      "inputs": [
        {
          "indexed": false,
          "internalType": "uint256",
          "name": "_tokenId",
          "type": "uint256"
        }
      ],
      "name": "MetadataUpdate",
      "type": "event"
    },
    {
      "anonymous": false,
      "inputs": [],
      "name": "NonInflationRewardDistributed",
      "type": "event"
    },
    {
      "anonymous": false,
      "inputs": [
        {
          "indexed": true,
          "internalType": "address",
          "name": "previousOwner",
          "type": "address"
        },
        {
          "indexed": true,
          "internalType": "address",
          "name": "newOwner",
          "type": "address"
        }
      ],
      "name": "OwnershipTransferred",
      "type": "event"
    },
    {
      "anonymous": false,
      "inputs": [
        {
          "indexed": false,
          "internalType": "uint256",
          "name": "stakeId",
          "type": "uint256"
        },
        {
          "indexed": false,
          "internalType": "enum ILendingPoolStaking.StakeStatus",
          "name": "status",
          "type": "uint8"
        }
      ],
      "name": "StakeStatusChanged",
      "type": "event"
    },
    {
      "anonymous": false,
      "inputs": [
        {
          "indexed": false,
          "internalType": "uint256",
          "name": "stakeId",
          "type": "uint256"
        },
        {
          "indexed": false,
          "internalType": "address",
          "name": "staker",
          "type": "address"
        },
        {
          "indexed": false,
          "internalType": "address",
          "name": "token",
          "type": "address"
        },
        {
          "indexed": false,
          "internalType": "uint48",
          "name": "start",
          "type": "uint48"
        },
        {
          "indexed": false,
          "internalType": "uint48",
          "name": "end",
          "type": "uint48"
        },
        {
          "indexed": false,
          "internalType": "uint256[3]",
          "name": "amountsPerDuration",
          "type": "uint256[3]"
        },
        {
          "indexed": false,
          "internalType": "bool",
          "name": "isEscrow",
          "type": "bool"
        }
      ],
      "name": "Staked",
      "type": "event"
    },
    {
      "anonymous": false,
      "inputs": [
        {
          "indexed": true,
          "internalType": "address",
          "name": "from",
          "type": "address"
        },
        {
          "indexed": true,
          "internalType": "address",
          "name": "to",
          "type": "address"
        },
        {
          "indexed": true,
          "internalType": "uint256",
          "name": "tokenId",
          "type": "uint256"
        }
      ],
      "name": "Transfer",
      "type": "event"
    },
    {
      "anonymous": false,
      "inputs": [
        {
          "indexed": true,
          "internalType": "address",
          "name": "implementation",
          "type": "address"
        }
      ],
      "name": "Upgraded",
      "type": "event"
    },
    {
      "inputs": [],
      "name": "__Testing_init",
      "outputs": [],
      "stateMutability": "nonpayable",
      "type": "function"
    },
    {
      "inputs": [
        {
          "internalType": "uint256",
          "name": "",
          "type": "uint256"
        }
      ],
      "name": "activeStakeIndices",
      "outputs": [
        {
          "internalType": "uint256",
          "name": "",
          "type": "uint256"
        }
      ],
      "stateMutability": "view",
      "type": "function"
    },
    {
      "inputs": [
        {
          "internalType": "address",
          "name": "",
          "type": "address"
        }
      ],
      "name": "activeStakeTokens",
      "outputs": [
        {
          "internalType": "bool",
          "name": "",
          "type": "bool"
        }
      ],
      "stateMutability": "view",
      "type": "function"
    },
    {
      "inputs": [
        {
          "internalType": "uint256",
          "name": "",
          "type": "uint256"
        }
      ],
      "name": "activeStakesById",
      "outputs": [
        {
          "internalType": "uint256",
          "name": "",
          "type": "uint256"
        }
      ],
      "stateMutability": "view",
      "type": "function"
    },
    {
      "inputs": [],
      "name": "activeStakesCount",
      "outputs": [
        {
          "internalType": "uint256",
          "name": "",
          "type": "uint256"
        }
      ],
      "stateMutability": "view",
      "type": "function"
    },
    {
      "inputs": [
        {
          "internalType": "address",
          "name": "_stakeToken",
          "type": "address"
        }
      ],
      "name": "addStakeToken",
      "outputs": [],
      "stateMutability": "nonpayable",
      "type": "function"
    },
    {
      "inputs": [
        {
          "internalType": "address",
          "name": "to",
          "type": "address"
        },
        {
          "internalType": "uint256",
          "name": "tokenId",
          "type": "uint256"
        }
      ],
      "name": "approve",
      "outputs": [],
      "stateMutability": "nonpayable",
      "type": "function"
    },
    {
      "inputs": [
        {
          "internalType": "address",
          "name": "operator",
          "type": "address"
        },
        {
          "internalType": "string",
          "name": "role",
          "type": "string"
        },
        {
          "internalType": "bool",
          "name": "authorized",
          "type": "bool"
        }
      ],
      "name": "authorize",
      "outputs": [],
      "stateMutability": "nonpayable",
      "type": "function"
    },
    {
      "inputs": [
        {
          "internalType": "address",
          "name": "owner",
          "type": "address"
        }
      ],
      "name": "balanceOf",
      "outputs": [
        {
          "internalType": "uint256",
          "name": "",
          "type": "uint256"
        }
      ],
      "stateMutability": "view",
      "type": "function"
    },
    {
      "inputs": [
        {
          "internalType": "address",
          "name": "_token",
          "type": "address"
        },
        {
          "internalType": "uint256",
          "name": "_amount",
          "type": "uint256"
        },
        {
          "internalType": "uint8",
          "name": "_durationId",
          "type": "uint8"
        }
      ],
      "name": "deposit",
      "outputs": [],
      "stateMutability": "payable",
      "type": "function"
    },
    {
      "inputs": [
        {
          "internalType": "uint256",
          "name": "_inflationReward",
          "type": "uint256"
        }
      ],
      "name": "distributeInflationRewards",
      "outputs": [],
      "stateMutability": "nonpayable",
      "type": "function"
    },
    {
      "inputs": [],
      "name": "distributeNonInflationRewards",
      "outputs": [],
      "stateMutability": "nonpayable",
      "type": "function"
    },
    {
      "inputs": [],
      "name": "escrowLockPeriod",
      "outputs": [
        {
          "internalType": "uint48",
          "name": "",
          "type": "uint48"
        }
      ],
      "stateMutability": "view",
      "type": "function"
    },
    {
      "inputs": [
        {
          "internalType": "uint256",
          "name": "tokenId",
          "type": "uint256"
        }
      ],
      "name": "getApproved",
      "outputs": [
        {
          "internalType": "address",
          "name": "",
          "type": "address"
        }
      ],
      "stateMutability": "view",
      "type": "function"
    },
    {
      "inputs": [],
      "name": "hasPendingNonInflationRewards",
      "outputs": [
        {
          "internalType": "bool",
          "name": "",
          "type": "bool"
        }
      ],
      "stateMutability": "view",
      "type": "function"
    },
    {
      "inputs": [
        {
          "internalType": "address",
          "name": "",
          "type": "address"
        },
        {
          "internalType": "string",
          "name": "",
          "type": "string"
        }
      ],
      "name": "hasRole",
      "outputs": [
        {
          "internalType": "bool",
          "name": "",
          "type": "bool"
        }
      ],
      "stateMutability": "view",
      "type": "function"
    },
    {
      "inputs": [
        {
          "internalType": "address",
          "name": "",
          "type": "address"
        }
      ],
      "name": "inflationRollOver",
      "outputs": [
        {
          "internalType": "uint256",
          "name": "",
          "type": "uint256"
        }
      ],
      "stateMutability": "view",
      "type": "function"
    },
    {
      "inputs": [
        {
          "internalType": "address",
          "name": "_nend",
          "type": "address"
        },
        {
          "internalType": "contract Vault",
          "name": "_lendingPool",
          "type": "address"
        }
      ],
      "name": "initialize",
      "outputs": [],
      "stateMutability": "nonpayable",
      "type": "function"
    },
    {
      "inputs": [
        {
          "internalType": "uint256",
          "name": "",
          "type": "uint256"
        }
      ],
      "name": "isActiveStake",
      "outputs": [
        {
          "internalType": "bool",
          "name": "",
          "type": "bool"
        }
      ],
      "stateMutability": "view",
      "type": "function"
    },
    {
      "inputs": [
        {
          "internalType": "address",
          "name": "owner",
          "type": "address"
        },
        {
          "internalType": "address",
          "name": "operator",
          "type": "address"
        }
      ],
      "name": "isApprovedForAll",
      "outputs": [
        {
          "internalType": "bool",
          "name": "",
          "type": "bool"
        }
      ],
      "stateMutability": "view",
      "type": "function"
    },
    {
      "inputs": [
        {
          "internalType": "uint256",
          "name": "_stakeId",
          "type": "uint256"
        }
      ],
      "name": "issueEAB",
      "outputs": [],
      "stateMutability": "nonpayable",
      "type": "function"
    },
    {
      "inputs": [
        {
          "internalType": "address",
          "name": "",
          "type": "address"
        },
        {
          "internalType": "uint8",
          "name": "",
          "type": "uint8"
        }
      ],
      "name": "lastEscrowRewardByToken_Duration",
      "outputs": [
        {
          "internalType": "uint256",
          "name": "",
          "type": "uint256"
        }
      ],
      "stateMutability": "view",
      "type": "function"
    },
    {
      "inputs": [],
      "name": "lendingPool",
      "outputs": [
        {
          "internalType": "contract Vault",
          "name": "",
          "type": "address"
        }
      ],
      "stateMutability": "view",
      "type": "function"
    },
    {
      "inputs": [
        {
          "internalType": "address",
          "name": "_token",
          "type": "address"
        }
      ],
      "name": "migrateStakeTokenToNend",
      "outputs": [],
      "stateMutability": "nonpayable",
      "type": "function"
    },
    {
      "inputs": [],
      "name": "name",
      "outputs": [
        {
          "internalType": "string",
          "name": "",
          "type": "string"
        }
      ],
      "stateMutability": "view",
      "type": "function"
    },
    {
      "inputs": [],
      "name": "nend",
      "outputs": [
        {
          "internalType": "address",
          "name": "",
          "type": "address"
        }
      ],
      "stateMutability": "view",
      "type": "function"
    },
    {
      "inputs": [],
      "name": "nextStakeId",
      "outputs": [
        {
          "internalType": "uint256",
          "name": "",
          "type": "uint256"
        }
      ],
      "stateMutability": "view",
      "type": "function"
    },
    {
      "inputs": [],
      "name": "ongoingStakeCount",
      "outputs": [
        {
          "internalType": "uint256",
          "name": "",
          "type": "uint256"
        }
      ],
      "stateMutability": "view",
      "type": "function"
    },
    {
      "inputs": [],
      "name": "owner",
      "outputs": [
        {
          "internalType": "address",
          "name": "",
          "type": "address"
        }
      ],
      "stateMutability": "view",
      "type": "function"
    },
    {
      "inputs": [
        {
          "internalType": "uint256",
          "name": "tokenId",
          "type": "uint256"
        }
      ],
      "name": "ownerOf",
      "outputs": [
        {
          "internalType": "address",
          "name": "",
          "type": "address"
        }
      ],
      "stateMutability": "view",
      "type": "function"
    },
    {
      "inputs": [],
      "name": "poolRollOver",
      "outputs": [
        {
          "internalType": "uint256",
          "name": "",
          "type": "uint256"
        }
      ],
      "stateMutability": "view",
      "type": "function"
    },
    {
      "inputs": [],
      "name": "proxiableUUID",
      "outputs": [
        {
          "internalType": "bytes32",
          "name": "",
          "type": "bytes32"
        }
      ],
      "stateMutability": "view",
      "type": "function"
    },
    {
      "inputs": [
        {
          "internalType": "address",
          "name": "_stakeToken",
          "type": "address"
        }
      ],
      "name": "removeStakeToken",
      "outputs": [],
      "stateMutability": "nonpayable",
      "type": "function"
    },
    {
      "inputs": [],
      "name": "renounceOwnership",
      "outputs": [],
      "stateMutability": "nonpayable",
      "type": "function"
    },
    {
      "inputs": [
        {
          "internalType": "uint256",
          "name": "_activeIdCount",
          "type": "uint256"
        }
      ],
      "name": "resetActiveStakeIds",
      "outputs": [],
      "stateMutability": "nonpayable",
      "type": "function"
    },
    {
      "inputs": [
        {
          "internalType": "uint256",
          "name": "",
          "type": "uint256"
        }
      ],
      "name": "rewardAllocations",
      "outputs": [
        {
          "internalType": "uint8",
          "name": "",
          "type": "uint8"
        }
      ],
      "stateMutability": "view",
      "type": "function"
    },
    {
      "inputs": [
        {
          "internalType": "address",
          "name": "from",
          "type": "address"
        },
        {
          "internalType": "address",
          "name": "to",
          "type": "address"
        },
        {
          "internalType": "uint256",
          "name": "tokenId",
          "type": "uint256"
        }
      ],
      "name": "safeTransferFrom",
      "outputs": [],
      "stateMutability": "nonpayable",
      "type": "function"
    },
    {
      "inputs": [
        {
          "internalType": "address",
          "name": "from",
          "type": "address"
        },
        {
          "internalType": "address",
          "name": "to",
          "type": "address"
        },
        {
          "internalType": "uint256",
          "name": "tokenId",
          "type": "uint256"
        },
        {
          "internalType": "bytes",
          "name": "data",
          "type": "bytes"
        }
      ],
      "name": "safeTransferFrom",
      "outputs": [],
      "stateMutability": "nonpayable",
      "type": "function"
    },
    {
      "inputs": [
        {
          "internalType": "address",
          "name": "operator",
          "type": "address"
        },
        {
          "internalType": "bool",
          "name": "approved",
          "type": "bool"
        }
      ],
      "name": "setApprovalForAll",
      "outputs": [],
      "stateMutability": "nonpayable",
      "type": "function"
    },
    {
      "inputs": [
        {
          "internalType": "uint8[3]",
          "name": "_rewardAllocations",
          "type": "uint8[3]"
        }
      ],
      "name": "setRewardAllocations",
      "outputs": [],
      "stateMutability": "nonpayable",
      "type": "function"
    },
    {
      "inputs": [
        {
          "internalType": "bool",
          "name": "_testing",
          "type": "bool"
        }
      ],
      "name": "setTesting",
      "outputs": [],
      "stateMutability": "nonpayable",
      "type": "function"
    },
    {
      "inputs": [
        {
          "internalType": "uint256",
          "name": "_tokenId",
          "type": "uint256"
        },
        {
          "internalType": "string",
          "name": "_tokenURI",
          "type": "string"
        }
      ],
      "name": "setTokenURI",
      "outputs": [],
      "stateMutability": "nonpayable",
      "type": "function"
    },
    {
      "inputs": [
        {
          "internalType": "uint256",
          "name": "",
          "type": "uint256"
        }
      ],
      "name": "stakeDurations",
      "outputs": [
        {
          "internalType": "uint48",
          "name": "",
          "type": "uint48"
        }
      ],
      "stateMutability": "view",
      "type": "function"
    },
    {
      "inputs": [
        {
          "internalType": "uint256",
          "name": "_stakeId",
          "type": "uint256"
        }
      ],
      "name": "stakeEscrowedReward",
      "outputs": [],
      "stateMutability": "nonpayable",
      "type": "function"
    },
    {
      "inputs": [],
      "name": "stakeTokenCount",
      "outputs": [
        {
          "internalType": "uint256",
          "name": "",
          "type": "uint256"
        }
      ],
      "stateMutability": "view",
      "type": "function"
    },
    {
      "inputs": [
        {
          "internalType": "uint256",
          "name": "",
          "type": "uint256"
        }
      ],
      "name": "stakeTokens",
      "outputs": [
        {
          "internalType": "address",
          "name": "",
          "type": "address"
        }
      ],
      "stateMutability": "view",
      "type": "function"
    },
    {
      "inputs": [
        {
          "internalType": "uint256",
          "name": "",
          "type": "uint256"
        }
      ],
      "name": "stakes",
      "outputs": [
        {
          "internalType": "address",
          "name": "staker",
          "type": "address"
        },
        {
          "internalType": "address",
          "name": "token",
          "type": "address"
        },
        {
          "internalType": "uint48",
          "name": "start",
          "type": "uint48"
        },
        {
          "internalType": "uint48",
          "name": "end",
          "type": "uint48"
        },
        {
          "internalType": "uint256",
          "name": "rewardAllocated",
          "type": "uint256"
        },
        {
          "internalType": "bool",
          "name": "isEscrow",
          "type": "bool"
        },
        {
          "internalType": "enum ILendingPoolStaking.EscrowStatus",
          "name": "escrowStatus",
          "type": "uint8"
        },
        {
          "internalType": "enum ILendingPoolStaking.StakeStatus",
          "name": "stakeStatus",
          "type": "uint8"
        }
      ],
      "stateMutability": "view",
      "type": "function"
    },
    {
      "inputs": [
        {
          "internalType": "bytes4",
          "name": "interfaceId",
          "type": "bytes4"
        }
      ],
      "name": "supportsInterface",
      "outputs": [
        {
          "internalType": "bool",
          "name": "",
          "type": "bool"
        }
      ],
      "stateMutability": "view",
      "type": "function"
    },
    {
      "inputs": [],
      "name": "symbol",
      "outputs": [
        {
          "internalType": "string",
          "name": "",
          "type": "string"
        }
      ],
      "stateMutability": "view",
      "type": "function"
    },
    {
      "inputs": [],
      "name": "testing",
      "outputs": [
        {
          "internalType": "bool",
          "name": "",
          "type": "bool"
        }
      ],
      "stateMutability": "view",
      "type": "function"
    },
    {
      "inputs": [
        {
          "internalType": "uint256",
          "name": "tokenId",
          "type": "uint256"
        }
      ],
      "name": "tokenURI",
      "outputs": [
        {
          "internalType": "string",
          "name": "",
          "type": "string"
        }
      ],
      "stateMutability": "view",
      "type": "function"
    },
    {
      "inputs": [
        {
          "internalType": "address",
          "name": "",
          "type": "address"
        },
        {
          "internalType": "uint8",
          "name": "",
          "type": "uint8"
        }
      ],
      "name": "totalStakedByToken_Duration",
      "outputs": [
        {
          "internalType": "uint256",
          "name": "",
          "type": "uint256"
        }
      ],
      "stateMutability": "view",
      "type": "function"
    },
    {
      "inputs": [
        {
          "internalType": "address",
          "name": "from",
          "type": "address"
        },
        {
          "internalType": "address",
          "name": "to",
          "type": "address"
        },
        {
          "internalType": "uint256",
          "name": "tokenId",
          "type": "uint256"
        }
      ],
      "name": "transferFrom",
      "outputs": [],
      "stateMutability": "nonpayable",
      "type": "function"
    },
    {
      "inputs": [
        {
          "internalType": "address",
          "name": "newOwner",
          "type": "address"
        }
      ],
      "name": "transferOwnership",
      "outputs": [],
      "stateMutability": "nonpayable",
      "type": "function"
    },
    {
      "inputs": [
        {
          "internalType": "uint256",
          "name": "_stakeId",
          "type": "uint256"
        }
      ],
      "name": "unstake",
      "outputs": [],
      "stateMutability": "nonpayable",
      "type": "function"
    },
    {
      "inputs": [
        {
          "internalType": "address",
          "name": "newImplementation",
          "type": "address"
        }
      ],
      "name": "upgradeTo",
      "outputs": [],
      "stateMutability": "nonpayable",
      "type": "function"
    },
    {
      "inputs": [
        {
          "internalType": "address",
          "name": "newImplementation",
          "type": "address"
        },
        {
          "internalType": "bytes",
          "name": "data",
          "type": "bytes"
        }
      ],
      "name": "upgradeToAndCall",
      "outputs": [],
      "stateMutability": "payable",
      "type": "function"
    }
  ],
  "transactionHash": "0x8675fb1adf90d6ddfa0abbdc6899a1dff21647ae07789fa7cf9214404186e79e",
  "args": [],
  "numDeployments": 10,
  "solcInputHash": "a0683b78d2d7c5ffcd1ff4887b6e5a3f",
  "bytecode": "0x60a0604052346200011e576000546200003260ff8260081c1615809281936200010f575b8115620000ec575b5062000123565b8062000046600160ff196000541617600055565b620000d1575b6200005c60ff1960fb541660fb55565b6200008d575b30608052604051615a61908162000188823960805181818161175a01528181611fbf01526122da0152f35b6200009e61ff001960005416600055565b604051600181527f7f26b83ff96e1f2b6a682f133852f6798a09c465da95921460cefb384740249890602090a162000062565b620000e661010061ff00196000541617600055565b6200004c565b303b1591508162000100575b50386200002b565b6001915060ff161438620000f8565b600160ff821610915062000023565b600080fd5b156200012b57565b60405162461bcd60e51b815260206004820152602e60248201527f496e697469616c697a61626c653a20636f6e747261637420697320616c72656160448201526d191e481a5b9a5d1a585b1a5e995960921b6064820152608490fdfe60806040526004361015610013575b600080fd5b60003560e01c806301ffc9a71461048757806306fdde031461047e578063081812fc1461047557806308ed8d161461046c578063095ea7b314610463578063125cc42f1461045a578063162094c414610451578063166866c7146104485780631fecb71a1461043f578063217fe6c61461043657806323b872dd1461042d5780632e17de78146104245780633587e1611461041b5780633659cfe61461041257806339d2525f146104095780633c661b8b146104005780633de15c12146103f757806342842e0e146103ee5780634354b5d8146103e5578063485cc955146103dc5780634f1ef286146103d3578063528a9e4d146103ca57806352d1902d146103c157806352f42e36146103b85780636352211e146103af57806370a08231146103a6578063715018a61461039d57806372a4db4a146103945780637547c7a31461038b57806375506c961461038257806378fecc99146103795780638295220014610370578063848778b4146103675780638614c5091461035e5780638d03b102146103555780638da5cb5b1461034c57806395d89b41146103435780639ad143de1461033a5780639b45d024146103315780639db5fa6514610328578063a22cb4651461031f578063a59a997314610316578063afed7ea61461030d578063b88d4fde14610304578063ba5e4bad146102fb578063bad7edab146102f2578063bf021550146102e9578063c436e318146102e0578063c87b56dd146102d7578063d2438c2a146102ce578063d5a44f86146102c5578063de3e3eff146102bc578063e25b7d82146102b3578063e985e9c5146102aa578063ef7bd7f3146102a1578063f19ed6be146102985763f2fde38b1461029057600080fd5b61000e6132fe565b5061000e612eab565b5061000e612e8b565b5061000e612e20565b5061000e612df8565b5061000e612db4565b5061000e612d15565b5061000e612c66565b5061000e612c32565b5061000e612c12565b5061000e612bbe565b5061000e612aef565b5061000e612acf565b5061000e612a77565b5061000e612a49565b5061000e612a20565b5061000e61292e565b5061000e6128d1565b5061000e6128b1565b5061000e61287e565b5061000e6127d6565b5061000e6127ae565b5061000e61278a565b5061000e61275c565b5061000e61271c565b5061000e6126f3565b5061000e6126cd565b5061000e6126ad565b5061000e612651565b5061000e6125af565b5061000e612521565b5061000e61247b565b5061000e61245c565b5061000e612396565b5061000e6122be565b5061000e612113565b5061000e611f79565b5061000e611e7a565b5061000e611cc8565b5061000e611c9f565b5061000e6119db565b5061000e61199f565b5061000e6118c3565b5061000e611730565b5061000e61138b565b5061000e610e2c565b5061000e610e02565b5061000e610d47565b5061000e610ca8565b5061000e610be4565b5061000e6109cb565b5061000e610836565b5061000e610709565b5061000e6106bb565b5061000e610681565b5061000e6105a4565b5061000e6104a2565b6001600160e01b031981160361000e57565b503461000e57602036600319011261000e5760206004356104c281610490565b63ffffffff60e01b16632483248360e11b81149081156104e8575b506040519015158152f35b6380ac58cd60e01b81149150811561051a575b8115610509575b50386104dd565b6301ffc9a760e01b14905038610502565b635b5e139f60e01b811491506104fb565b600091031261000e57565b918091926000905b82821061055657501161054f575050565b6000910152565b9150806020918301518186015201829161053e565b9060209161058481518092818552858086019101610536565b601f01601f1916010190565b9060206105a192818152019061056b565b90565b503461000e5760008060031936011261067e5760405190806065546105c8816137a0565b8085529160019180831690811561065d5750600114610602575b6105fe856105f281870382610907565b60405191829182610590565b0390f35b9250606583527f8ff97419363ffd7000167f130ef7168fbea05faf9251824ca5043f113cc6a7c75b8284106106455750505081016020016105f2826105fe6105e2565b8054602085870181019190915290930192810161062a565b60ff1916602087015250506040840192506105f291508390506105fe6105e2565b80fd5b503461000e57602036600319011261000e5760206106a060043561384c565b6001600160a01b0360405191168152f35b8015150361000e57565b503461000e57602036600319011261000e576004356106d9816106b1565b6106e1613390565b60ff801960fb5416911515161760fb556000604051f35b6001600160a01b0381160361000e57565b503461000e57604036600319011261000e57600435610727816106f8565b6024356107338161377e565b916001600160a01b0380841680918316146107b35761076593610760913314908115610767575b506137da565b613bc1565b005b6107ad91506107a69061078e33916001600160a01b0316600052606a602052604060002090565b906001600160a01b0316600052602052604060002090565b5460ff1690565b3861075a565b60405162461bcd60e51b815260206004820152602160248201527f4552433732313a20617070726f76616c20746f2063757272656e74206f776e656044820152603960f91b6064820152608490fd5b6001600160a01b031660005261016e602052604060002090565b6001600160a01b0316600052610169602052604060002090565b503461000e57602036600319011261000e576001600160a01b0360043561085c816106f8565b16600052610163602052602060ff604060002054166040519015158152f35b50634e487b7160e01b600052604160045260246000fd5b67ffffffffffffffff81116108a657604052565b6108ae61087b565b604052565b6020810190811067ffffffffffffffff8211176108a657604052565b6060810190811067ffffffffffffffff8211176108a657604052565b6040810190811067ffffffffffffffff8211176108a657604052565b90601f8019910116810190811067ffffffffffffffff8211176108a657604052565b60405190610120820182811067ffffffffffffffff8211176108a657604052565b60405190610957826108cf565b565b60209067ffffffffffffffff8111610977575b601f01601f19160190565b61097f61087b565b61096c565b81601f8201121561000e5780359061099b82610959565b926109a96040519485610907565b8284526020838301011161000e57816000926020809301838601378301015290565b503461000e57604036600319011261000e5760043567ffffffffffffffff60243581811161000e57610a01903690600401610984565b91610a0a613390565b610a2a8160005260676020526001600160a01b0360406000205416151590565b15610b79576000918183526020906097825260408420918551918211610b6c575b610a5f82610a5985546137a0565b8561489b565b80601f8311600114610ad657509080610ac394939286977ff8e1a15aba9398e019f0b49df1a4fde98ee17ae345cb5f6b5e2c27f5033e8ce79792610acb575b50508160011b916000199060031b1c19161790555b6040519081529081906020820190565b0390a1604051f35b015190503880610a9e565b90601f19831696610aec85600052602060002090565b9287905b898210610b54575050918391600193610ac39796957ff8e1a15aba9398e019f0b49df1a4fde98ee17ae345cb5f6b5e2c27f5033e8ce7999a10610b3b575b505050811b019055610ab3565b015160001960f88460031b161c19169055388080610b2e565b80600185968294968601518155019501930190610af0565b610b7461087b565b610a4b565b60405162461bcd60e51b815260206004820152602e60248201527f45524337323155524953746f726167653a2055524920736574206f66206e6f6e60448201527f6578697374656e7420746f6b656e0000000000000000000000000000000000006064820152608490fd5b503461000e5760208060031936011261000e57600435610c03816106f8565b610c0b61411c565b90610c2f6001600160a01b0392848460c954163314918215610c6d575b505061413d565b1690816000526101639182825260ff60406000205416610c4b57005b610167610c588154615374565b905560005252604060002060ff198154169055005b60ff925090610c96913360005260fc825260406000208260405194838680955193849201610536565b82019081520301902054168438610c28565b503461000e57602036600319011261000e57610765600435610cc9816106f8565b610cf0610cd461411c565b6001600160a01b0360c954163314908115610cf5575b5061413d565b6154eb565b60ff91506020610d1f913360005260fc825260406000208260405194838680955193849201610536565b820190815203019020541638610cea565b90610d4360209282815194859201610536565b0190565b503461000e57604036600319011261000e57600435610d65816106f8565b60243567ffffffffffffffff811161000e57610db960206105fe936001600160a01b03610d9860ff953690600401610984565b911660005260fc825260406000208260405194838680955193849201610536565b820190815203019020546040519116151581529081906020820190565b606090600319011261000e57600435610dee816106f8565b90602435610dfb816106f8565b9060443590565b503461000e57610765610e1436610dd6565b91610e27610e22843361397b565b61388e565b613a56565b503461000e5760208060031936011261000e57600435610e5781600052610171602052604060002090565b91610e6983546001600160a01b031690565b906001600160a01b0391823391160361137a576001840190815492428460d01c11801561135c575b801561133e575b61132c5760056002870196838854610ec0610eb68b60010190600090565b90549060031b1c90565b01610ecf60028b016000610eb6565b016006830197610ee0895460ff1690565b15611319575090610f3d600092610f12610f06610f06610161546001600160a01b031690565b6001600160a01b031690565b60405163a9059cbb60e01b815233600482015260248101929092529093849283919082906044820190565b03925af1801561130c575b6112ef575b505b01548061123c575b505082546001915060101c60ff16610f6e81612c95565b14611197575b50805462ff0000191662020000178155604080518381526002602082015261076594506110119392917fab7e44c17ad2a7b4de0e42ab0bc824366a946f184a1133f0b5528347e4ccbd2991a18054600160ff8260081c16610fd481612c95565b1490811561118c575b50611114575b50610ffc6107a682600052610173602052604060002090565b61101657600052610171602052604060002090565b615381565b61103861102e82600052610173602052604060002090565b805460ff19169055565b61104d81600052610174602052604060002090565b5461017690815461105d8161402d565b82106110c3575b5050805480611091575b505060008181526101746020526040812055600052610171602052604060002090565b6000916110a96110a36110bb93615374565b61017655565b54600052610175602052604060002090565b55388061106e565b6110e36110d261110c9261402d565b600052610175602052604060002090565b54806110fa84600052610175602052604060002090565b55600052610174602052604060002090565b553880611064565b805461ff0019166102001790556111418160005260676020526001600160a01b0360406000205416151590565b61117e575b60408051828152600260208201527f855f5f4ea7c8c6a92f173fbc35c24d01139c2a49e9bcc085f03620cb6a1c65139190a138610fe3565b611187816153fc565b611146565b60ff91501638610fdd565b6111ac6111a661016854615374565b61016855565b600090815b600360ff8216106111c3575050610f74565b806111d4610eb661121c9389614c6e565b855460ff16156112215761121561120d836111fb610802610161546001600160a01b031690565b9060ff16600052602052604060002090565b91825461404a565b9055614c5c565b6111b1565b61121561120d836111fb61080288546001600160a01b031690565b61128c839161124c875460ff1690565b156112de57610161546001600160a01b0316905b60405163a9059cbb60e01b81523360048201526024810191909152938492839160009183906044820190565b0393165af180156112d1575b6112a3575b80610f57565b816112c292903d106112ca575b6112ba8183610907565b8101906149cd565b50388061129d565b503d6112b0565b6112d9613516565b611298565b85546001600160a01b031690611260565b61130590853d87116112ca576112ba8183610907565b5038610f4d565b611314613516565b610f48565b61132792508533911661558b565b610f4f565b60405163baf3f0f760e01b8152600490fd5b50600686015460029060081c60ff1661135681612c95565b14610e98565b50600686015460029060101c60ff1661137481612c95565b14610e91565b6040516282b42960e81b8152600490fd5b503461000e5760008060031936011261067e576113a6613390565b805b6101655481101561149f57611460906114366113d0610f06610162546001600160a01b031690565b6113ef6113dc8461260c565b90546001600160a01b039160031b1c1690565b6040518092630530fa2160e01b8252818060209687956004830160408082526003908201526206966760ec1b60608201526001600160a01b03909116602082015260800190565b03915afa918215611492575b8592611465575b505061145a61081c6113dc8461260c565b556140ad565b6113a8565b6114849250803d1061148b575b61147c8183610907565b810190613507565b3880611449565b503d611472565b61149a613516565b611442565b50805b6101765481101561158457806114c661155092600052610175602052604060002090565b546114e66114e26107a683600052610173602052604060002090565b1590565b61157e576114ff81600052610171602052604060002090565b9060068201549160ff90818460101c169161151983612c95565b60018093036115745761154b94161561155557505061154461081c610161546001600160a01b031690565b5490614f55565b6140ad565b6114a2565b01546001600160a01b0316600090815261016960205260409020611544565b50505050506140ad565b506140ad565b50805b6101655481101561170657806115a561081c6113dc6116439461260c565b54836115bd610f06610162546001600160a01b031690565b6115c96113dc8561260c565b6040916116318351630530fa2160e01b815260209687828061161760049889830160408082526003908201526206966760ec1b60608201526001600160a01b03909116602082015260800190565b0381875afa9182156116f9575b87926116da575b5061404a565b9182611648575b5050505050506140ad565b611587565b61169594869461165a6113dc8a61260c565b905163276d76f960e21b81526001600160a01b0390911692810192835230602084015260408301949094529294859384929091839160600190565b03925af180156116cd575b6116af575b8080808793611638565b816116c592903d106112ca576112ba8183610907565b5038806116a5565b6116d5613516565b6116a0565b6116f2919250883d8a1161148b5761147c8183610907565b903861162b565b611701613516565b611624565b506040517f3ebfd10f795a127a78001b56051c04828d55b68d9d77ebce97b617c8adc53ed28282a1f35b503461000e57602036600319011261000e5760043561174e816106f8565b6001600160a01b0390817f0000000000000000000000000000000000000000000000000000000000000000169161178783301415613432565b6117b67f360894a13ba1a3210667c828492db98dca3e2076cc3735a920a3ca505d382bbc938285541614613493565b6117be613390565b604051906117cb826108b3565b600082527f4910fdfa16fed3260ed0e7147f7cc6da11a60208b5b9406d12a635614ffd91435460ff16156118055750506107659150613581565b6020600491604094939451928380926352d1902d60e01b825286165afa600091816118a3575b506118905760405162461bcd60e51b815260206004820152602e60248201527f45524331393637557067726164653a206e657720696d706c656d656e7461746960448201526d6f6e206973206e6f74205555505360901b6064820152608490fd5b0390fd5b6107659361189e9114613523565b61361f565b6118bc91925060203d811161148b5761147c8183610907565b903861182b565b503461000e57606036600319011261000e576004356118e1816106f8565b6024359067ffffffffffffffff821161000e57611947602061190a610765943690600401610984565b6001600160a01b036044359461191f866106b1565b611927613390565b1660005260fc825260406000208260405194838680955193849201610536565b8201908152030190209060ff801983541691151516179055565b50634e487b7160e01b600052603260045260246000fd5b906003821015611992575b601f8260051c61016f01921690565b61199a611961565b611983565b503461000e57602036600319011261000e57600435600381101561000e578060ff60209260051c61016f015460f86040519360031b161c168152f35b503461000e57602036600319011261000e57600435611a06610f06610161546001600160a01b031690565b330361137a5761017090611a1b825482614110565b90611a27600061017055565b6101765460005b818110611c1457505060005b61016554811015611be957611a516113dc8261260c565b610167611a87611a62825487613fb4565b611a80846001600160a01b0316600052610164602052604060002090565b5490614110565b6000611aa7846001600160a01b0316600052610164602052604060002090565b55600090815b600360ff821610611b1e57505090600360ff611ad39594931614611ad8575b50506140ad565b611a3a565b611b0a611b11916000611b02611b17956001600160a01b0316600052610164602052604060002090565b555486613fb4565b8754614110565b61017055565b3880611acc565b611b53611b4c611b46611b40611b3385611978565b905460ff9160031b1c1690565b60ff1690565b84614246565b6064900490565b611b75826111fb886001600160a01b031660005261016e602052604060002090565b5415611bae575b90611ba991611ba3826111fb896001600160a01b031660005261016b602052604060002090565b55614c5c565b611aad565b9290611be0611ba992611bd5886001600160a01b0316600052610164602052604060002090565b611215878254614110565b93909150611b7c565b60006040517fbd9c0e36f2110aa67058734f061a385583a1d8b5758bcb065ca0f26c4c64603c8282a1f35b80611c2c600192600052610175602052604060002090565b5485611c466107a683600052610173602052604060002090565b80611c69575b611c59575b505001611a2e565b611c6291614ca2565b3885611c51565b5083611c906006611c8585600052610171602052604060002090565b015460101c60ff1690565b611c9981612c95565b14611c4c565b503461000e57610765611cb136610dd6565b9060405192611cbf846108b3565b600084526138f0565b503461000e57602036600319011261000e576000611e77611df6600435611cee816106f8565b611cf6613390565b61016180546001600160a01b0316611d1c6001600160a01b0380831690851614156140c5565b611d79611d71611d46611d55611d46876001600160a01b031660005261016e602052604060002090565b60008052602052604060002090565b54936001600160a01b031660005261016e602052604060002090565b918254614110565b9055611dac611d9c836001600160a01b031660005261016e602052604060002090565b6001600052602052604060002090565b54611dc7611d71611d9c61080285546001600160a01b031690565b9055611e15611d71611df6610802611e06611df6876001600160a01b031660005261016e602052604060002090565b6002600052602052604060002090565b5494546001600160a01b031690565b905583611e39611d46836001600160a01b031660005261016e602052604060002090565b5583611e5c611d9c836001600160a01b031660005261016e602052604060002090565b556001600160a01b031660005261016e602052604060002090565b55005b503461000e57604036600319011261000e57600435611e98816106f8565b611ee8602435611ea7816106f8565b60005492611ecc60ff8560081c161580958196611f6b575b8115611f4b575b506142e1565b83611edf600160ff196000541617600055565b611f3257614502565b611eee57005b611efe61ff001960005416600055565b604051600181527f7f26b83ff96e1f2b6a682f133852f6798a09c465da95921460cefb38474024989080602081015b0390a1005b611f4661010061ff00196000541617600055565b614502565b303b15915081611f5d575b5038611ec6565b6001915060ff161438611f56565b600160ff8216109150611ebf565b50604036600319011261000e57600435611f92816106f8565b60243567ffffffffffffffff811161000e57611fb2903690600401610984565b906001600160a01b0391827f00000000000000000000000000000000000000000000000000000000000000001692611fec84301415613432565b61201b7f360894a13ba1a3210667c828492db98dca3e2076cc3735a920a3ca505d382bbc948286541614613493565b612023613390565b7f4910fdfa16fed3260ed0e7147f7cc6da11a60208b5b9406d12a635614ffd91435460ff16156120595750506107659150613581565b6020600491604094939451928380926352d1902d60e01b825286165afa600091816120f3575b506120e05760405162461bcd60e51b815260206004820152602e60248201527f45524331393637557067726164653a206e657720696d706c656d656e7461746960448201526d6f6e206973206e6f74205555505360901b6064820152608490fd5b610765936120ee9114613523565b6136db565b61210c91925060203d811161148b5761147c8183610907565b903861207f565b503461000e57602036600319011261000e5760043561213d81600052610171602052604060002090565b9061214f82546001600160a01b031690565b6001600160a01b033391160361137a576006820180549260ff9384808216159182156122a6575b505061132c57815462ff00001916620100001782559261219b6111a6610168546140ad565b600260009401935b60038282161061226f577fab7e44c17ad2a7b4de0e42ab0bc824366a946f184a1133f0b5528347e4ccbd29846121fd856121ee6114e26107a685600052610173602052604060002090565b61220d575b5460101c60ff1690565b90611f2d60405192839283614c8c565b61223261222584600052610173602052604060002090565b805460ff19166001179055565b61226a6110a3610176856122528254600052610175602052604060002090565b55548061145a87600052610174602052604060002090565b6121f3565b61229f81612282610eb660039489614c6e565b611215611d71836111fb610802610161546001600160a01b031690565b90506121a3565b60101c1690506122b581612c95565b15158438612176565b503461000e57600036600319011261000e576001600160a01b037f000000000000000000000000000000000000000000000000000000000000000016300361232b576040517f360894a13ba1a3210667c828492db98dca3e2076cc3735a920a3ca505d382bbc8152602090f35b60405162461bcd60e51b815260206004820152603860248201527f555550535570677261646561626c653a206d757374206e6f742062652063616c60448201527f6c6564207468726f7567682064656c656761746563616c6c00000000000000006064820152608490fd5b503461000e57602036600319011261000e576004356123b3613390565b61017254816123c460018311613fca565b1561244d576123d590821115614061565b6123e0600061017655565b60015b818111156123ed57005b8061240c6114e26107a661244894600052610173602052604060002090565b61154b5761154b6110a3610176836124308254600052610175602052604060002090565b55548061145a85600052610174602052604060002090565b6123e3565b612457915061402d565b6123d5565b503461000e57602036600319011261000e5760206106a060043561377e565b503461000e57602036600319011261000e576001600160a01b036004356124a1816106f8565b1680156124ca5760005260686020526105fe604060002054604051918291829190602083019252565b60405162461bcd60e51b815260206004820152602960248201527f4552433732313a2061646472657373207a65726f206973206e6f7420612076616044820152683634b21037bbb732b960b91b6064820152608490fd5b503461000e5760008060031936011261067e5761253c613390565b60c9546001600160a01b0319811660c955816001600160a01b0360405192167f8be0079c531659141344cd1fd0a4f28419497f9722a3daafe3b4186f6b6457e08284a3f35b6024359060ff8216820361000e57565b6044359060ff8216820361000e57565b359060ff8216820361000e57565b503461000e57606036600319011261000e57366023121561000e576040516125d6816108cf565b60648136821161000e576004905b8282106125f45761076584614189565b60208091612601846125a1565b8152019101906125e4565b6101658054821015612644575b6000527fd91ca5e44fa96a1732bfaed7fe33fc20ed69a9895cde1f18c7dcabca39d6a78b0190600090565b61264c611961565b612619565b503461000e57602036600319011261000e57600435610165805482101561000e576020916001600160a01b03916000527fd91ca5e44fa96a1732bfaed7fe33fc20ed69a9895cde1f18c7dcabca39d6a78b015416604051908152f35b503461000e57600036600319011261000e57602061017254604051908152f35b503461000e57600036600319011261000e5760206126e96150c5565b6040519015158152f35b503461000e57600036600319011261000e5760206001600160a01b036101615416604051908152f35b503461000e57602036600319011261000e576001600160a01b03600435612742816106f8565b166000526101646020526020604060002054604051908152f35b503461000e57602036600319011261000e576004356000526101746020526020604060002054604051908152f35b503461000e57600036600319011261000e57602060ff60fb54166040519015158152f35b503461000e57600036600319011261000e5760206001600160a01b0360c95416604051908152f35b503461000e5760008060031936011261067e5760405190806066546127fa816137a0565b8085529160019180831690811561065d5750600114612823576105fe856105f281870382610907565b9250606683527f46501879b8ca8525e8c2fd519e2fbfcfa2ebea26501294aa02cbfcfb12e943545b8284106128665750505081016020016105f2826105fe6105e2565b8054602085870181019190915290930192810161284b565b503461000e57602036600319011261000e57600435600052610173602052602060ff604060002054166040519015158152f35b503461000e57600036600319011261000e57602061016854604051908152f35b503461000e57604036600319011261000e5760206129256004356128f4816106f8565b6001600160a01b03612904612581565b911660005261016e835260406000209060ff16600052602052604060002090565b54604051908152f35b503461000e57604036600319011261000e5760043561294c816106f8565b602435612958816106b1565b6001600160a01b038216918233146129db57816129986129a99233600052606a6020526040600020906001600160a01b0316600052602052604060002090565b9060ff801983541691151516179055565b604051901515815233907f17307eab39ab6107e8899845ad3d59bd9653f200f220920489ca2b5937696c3190602090a3005b60405162461bcd60e51b815260206004820152601960248201527f4552433732313a20617070726f766520746f2063616c6c6572000000000000006044820152606490fd5b503461000e57600036600319011261000e5760206001600160a01b036101625416604051908152f35b503461000e57602036600319011261000e576004356000526101756020526020604060002054604051908152f35b503461000e57608036600319011261000e57600435612a95816106f8565b602435612aa1816106f8565b6064359167ffffffffffffffff831161000e57612ac5610765933690600401610984565b91604435916138f0565b503461000e57600036600319011261000e57602061017054604051908152f35b503461000e57602036600319011261000e57600435612b1981600052610171602052604060002090565b8054336001600160a01b039091160361137a576006018054600260ff8260101c16612b4381612c95565b14908115612ba5575b5061132c57805461ff0019166101001790557f855f5f4ea7c8c6a92f173fbc35c24d01139c2a49e9bcc085f03620cb6a1c651390611f2d90612b8e813361526d565b604080519182526001602083015290918291820190565b60ff915060081c16612bb681612c95565b151538612b4c565b503461000e57604036600319011261000e576020612925600435612be1816106f8565b6001600160a01b03612bf1612581565b911660005261016b835260406000209060ff16600052602052604060002090565b503461000e57600036600319011261000e57602061017654604051908152f35b503461000e57602036600319011261000e576105fe612c52600435613da5565b60405191829160208352602083019061056b565b503461000e57600036600319011261000e57612c8960ff60005460081c16614643565b60fb805460ff19169055005b60031115612c9f57565b634e487b7160e01b600052602160045260246000fd5b94919897969360e096939161010087019a6001600160a01b03809216885216602087015265ffffffffffff80921660408701521660608501526080840152151560a0830152612d0381612c95565b60c0820152612d1183612c95565b0152565b503461000e57602036600319011261000e5760043560005261017160205260406000206001600160a01b036105fe81835416600184015490600660058601549501549060405195869560ff8460101c169460ff808660081c169516938160d01c9265ffffffffffff8360a01c1692169089612cb5565b906003821015612da7575b6006600580840461016d0193060290565b612daf611961565b612d96565b503461000e57602036600319011261000e57600435600381101561000e578065ffffffffffff60056020930461016d01546006600560405194060260031b1c168152f35b503461000e57600036600319011261000e57602065ffffffffffff6101665416604051908152f35b503461000e57604036600319011261000e57602060ff612e7f600435612e45816106f8565b6001600160a01b0360243591612e5a836106f8565b16600052606a84526040600020906001600160a01b0316600052602052604060002090565b54166040519015158152f35b503461000e57600036600319011261000e57602061016754604051908152f35b50606036600319011261000e5760048035612ec5816106f8565b602435612ed0612591565b9281156132b057612efb6114e26107a6856001600160a01b0316600052610163602052604060002090565b613262576001600160a01b03831680158015806131fa575b6131e9571561314357508134036130ea57506130bc611d7161076594612f6160008080612f4c610f06610162546001600160a01b031690565b88604051915af1612f5b613c6b565b506149e2565b6111fb612f6c614a2e565b9585612f7b60ff851689614211565b52610172549661306c9088156130dc57612f9d612f978a6140ad565b61017255565b65ffffffffffff42169061302a612fed612fe7612fce612fbc8a612d8b565b905465ffffffffffff9160031b1c1690565b60fb5460ff16156130d25761ffff6103f05b1690614a42565b84614a66565b61301b612ff8610929565b338152946001600160a01b03881660208701525b65ffffffffffff166040860152565b65ffffffffffff166060840152565b6080820152600060a0820152600060c0820152600060e0820152613052610100820160019052565b61306789600052610171602052604060002090565b614af5565b61308461222588600052610173602052604060002090565b6108026110a3610176896130a48254600052610175602052604060002090565b55548061145a8b600052610174602052604060002090565b90556130cd6111a6610168546140ad565b615867565b61ffff6001612fe0565b612f9d612f9760019a6140ad565b61188c90604051918291631fff1b3b60e21b8352820160809060208152602260208201527f496e636f7272656374206e617469766520636f696e207374616b6520616d6f756040820152611b9d60f21b60608201520190565b610765946131a8602085611d71946130bc96600061316d610f06610162546001600160a01b031690565b604080516323b872dd60e01b8152339481019485526001600160a01b0390921660208501528301949094529294859384929091839160600190565b03925af180156131dc575b6131be575b50612f61565b6131d59060203d81116112ca576112ba8183610907565b50386131b8565b6131e4613516565b6131b3565b604051631e9acf1760e31b81528390fd5b506040516370a0823160e01b8152338482019081528591906020908290819083010381875afa908115613255575b600091613237575b5010612f13565b61324f915060203d811161148b5761147c8183610907565b38613230565b61325d613516565b613228565b61188c90604051918291631fff1b3b60e21b8352820160609060208152601360208201527f496e76616c6964207374616b6520746f6b656e0000000000000000000000000060408201520190565b61188c90604051918291631fff1b3b60e21b8352820160609060208152601560208201527f416d6f756e742063616e6e6f74206265207a65726f000000000000000000000060408201520190565b503461000e57602036600319011261000e5760043561331c816106f8565b613324613390565b6001600160a01b0381161561333c57610765906133e8565b60405162461bcd60e51b815260206004820152602660248201527f4f776e61626c653a206e6577206f776e657220697320746865207a65726f206160448201526564647265737360d01b6064820152608490fd5b6001600160a01b0360c9541633036133a457565b606460405162461bcd60e51b815260206004820152602060248201527f4f776e61626c653a2063616c6c6572206973206e6f7420746865206f776e65726044820152fd5b60c954906001600160a01b0380911691826001600160a01b031982161760c955167f8be0079c531659141344cd1fd0a4f28419497f9722a3daafe3b4186f6b6457e06000604051a3565b1561343957565b60405162461bcd60e51b815260206004820152602c60248201527f46756e6374696f6e206d7573742062652063616c6c6564207468726f7567682060448201526b19195b1959d85d1958d85b1b60a21b6064820152608490fd5b1561349a57565b60405162461bcd60e51b815260206004820152602c60248201527f46756e6374696f6e206d7573742062652063616c6c6564207468726f7567682060448201526b6163746976652070726f787960a01b6064820152608490fd5b60405190613501826108b3565b60008252565b9081602091031261000e575190565b506040513d6000823e3d90fd5b1561352a57565b60405162461bcd60e51b815260206004820152602960248201527f45524331393637557067726164653a20756e737570706f727465642070726f786044820152681a58589b195555525160ba1b6064820152608490fd5b803b156135c4576001600160a01b037f360894a13ba1a3210667c828492db98dca3e2076cc3735a920a3ca505d382bbc91166001600160a01b0319825416179055565b60405162461bcd60e51b815260206004820152602d60248201527f455243313936373a206e657720696d706c656d656e746174696f6e206973206e60448201526c1bdd08184818dbdb9d1c9858dd609a1b6064820152608490fd5b61362881613581565b604051906001600160a01b0381167fbc7cd75a20ee27fd9adebab32041f755214dbc6bffa90cc0225b39da2e5c2d3b600084a28251158015906136d3575b61366f57505050565b6000806136d09461367f856108cf565b602785527f416464726573733a206c6f772d6c6576656c2064656c65676174652063616c6c6020860152660819985a5b195960ca1b6040860152602081519101845af46136ca613c6b565b91613f0c565b50565b506000613666565b6136e481613581565b604051906001600160a01b0381167fbc7cd75a20ee27fd9adebab32041f755214dbc6bffa90cc0225b39da2e5c2d3b600084a282511580159061372a5761366f57505050565b506001613666565b1561373957565b60405162461bcd60e51b815260206004820152601860248201527f4552433732313a20696e76616c696420746f6b656e20494400000000000000006044820152606490fd5b60005260676020526001600160a01b03604060002054166105a1811515613732565b90600182811c921680156137d0575b60208310146137ba57565b634e487b7160e01b600052602260045260246000fd5b91607f16916137af565b156137e157565b60405162461bcd60e51b815260206004820152603d60248201527f4552433732313a20617070726f76652063616c6c6572206973206e6f7420746f60448201527f6b656e206f776e6572206f7220617070726f76656420666f7220616c6c0000006064820152608490fd5b61387461386f8260005260676020526001600160a01b0360406000205416151590565b613732565b60005260696020526001600160a01b036040600020541690565b1561389557565b60405162461bcd60e51b815260206004820152602d60248201527f4552433732313a2063616c6c6572206973206e6f7420746f6b656e206f776e6560448201526c1c881bdc88185c1c1c9bdd9959609a1b6064820152608490fd5b90613914939291613904610e22843361397b565b61390f838383613a56565b613c9b565b1561391b57565b60405162461bcd60e51b815260206004820152603260248201527f4552433732313a207472616e7366657220746f206e6f6e20455243373231526560448201527131b2b4bb32b91034b6b83632b6b2b73a32b960711b6064820152608490fd5b6001600160a01b038061398d8461377e565b1692818316928484149485156139c3575b505083156139ad575b50505090565b6139b99192935061384c565b16143880806139a7565b60ff929550906139f291600052606a6020526040600020906001600160a01b0316600052602052604060002090565b541692388061399e565b15613a0357565b60405162461bcd60e51b815260206004820152602560248201527f4552433732313a207472616e736665722066726f6d20696e636f72726563742060448201526437bbb732b960d91b6064820152608490fd5b90613a7c9291613a658361377e565b6001600160a01b03828116959091821686146139fc565b8216938415613b70576109579481613aa18693613a9b610f068661377e565b146139fc565b613ac8613ab8846000526069602052604060002090565b80546001600160a01b0319169055565b613ae5846001600160a01b03166000526068602052604060002090565b6000198154019055613b0a856001600160a01b03166000526068602052604060002090565b60018154019055613b4485613b29856000526067602052604060002090565b906001600160a01b03166001600160a01b0319825416179055565b7fddf252ad1be2c89b69c2b068fc378daa952ba7f163c4a11628f55a4df523b3ef6000604051a46159b8565b60405162461bcd60e51b8152602060048201526024808201527f4552433732313a207472616e7366657220746f20746865207a65726f206164646044820152637265737360e01b6064820152608490fd5b600082815260696020526040902080546001600160a01b0319166001600160a01b0383161790556001600160a01b0380613bfa8461377e565b169116907f8c5be1e5ebec7d5bd14f71427d1e84f3dd0314c0f7b2291e5b200ac8c7c3b9256000604051a4565b9081602091031261000e57516105a181610490565b90926105a194936080936001600160a01b0380921684521660208301526040820152816060820152019061056b565b3d15613c96573d90613c7c82610959565b91613c8a6040519384610907565b82523d6000602084013e565b606090565b92909190823b15613d9c57613cd69260209260006001600160a01b03604051809781968295630a85bd0160e11b9b8c85523360048601613c3c565b0393165af160009181613d6c575b50613d5e57613cf1613c6b565b80519081613d595760405162461bcd60e51b815260206004820152603260248201527f4552433732313a207472616e7366657220746f206e6f6e20455243373231526560448201527131b2b4bb32b91034b6b83632b6b2b73a32b960711b6064820152608490fd5b602001fd5b6001600160e01b0319161490565b613d8e91925060203d8111613d95575b613d868183610907565b810190613c27565b9038613ce4565b503d613d7c565b50505050600190565b613dc861386f8260005260676020526001600160a01b0360406000205416151590565b6000908082526020609781526040832060405184819590835490613deb826137a0565b80855294600192808416908115613ea75750600114613e6b575b505050613e1492500384610907565b613e1c6134f4565b92835115613e64578051613e365750506105a19150613ec7565b6105a19250613e5690613e50604051958694850190610d30565b90610d30565b03601f198101835282610907565b9250505090565b869350819291528282205b858310613e8f575050613e149350820101388080613e05565b8054838a018501528894508693909201918101613e76565b965050505050505060ff191681840152613e148360408101388080613e05565b61386f613eea9160005260676020526001600160a01b0360406000205416151590565b6000604051613ef8816108b3565b52604051613f05816108b3565b6000815290565b91929015613f6e5750815115613f20575090565b3b15613f295790565b60405162461bcd60e51b815260206004820152601d60248201527f416464726573733a2063616c6c20746f206e6f6e2d636f6e74726163740000006044820152606490fd5b825190915015613f815750805190602001fd5b60405162461bcd60e51b815290819061188c9060048301610590565b50634e487b7160e01b600052601260045260246000fd5b8115613fbe570490565b613fc6613f9d565b0490565b15613fd157565b60405162461bcd60e51b815260206004820152601260248201527f4e6f207374616b657320746f20726573657400000000000000000000000000006044820152606490fd5b50634e487b7160e01b600052601160045260246000fd5b6001811061403d575b6000190190565b614045614016565b614036565b818110614055570390565b61405d614016565b0390565b1561406857565b60405162461bcd60e51b815260206004820152601760248201527f496e76616c69642061637469766520494420636f756e740000000000000000006044820152606490fd5b60019060001981146140bd570190565b610d43614016565b156140cc57565b606460405162461bcd60e51b815260206004820152602060248201527f43616e6e6f74206d69677261746520746f207468652073616d6520746f6b656e6044820152fd5b811981116140bd570190565b60405190614129826108eb565b600582526430b236b4b760d91b6020830152565b1561414457565b60405162461bcd60e51b815260206004820152600e60248201527f4e6f7420617574686f72697a65640000000000000000000000000000000000006044820152606490fd5b614194610cd461411c565b606460ff6141bc6141af828551168360208701511690614230565b8260408601511690614230565b16036141cb576109579061427c565b604051631fff1b3b60e21b815260206004820152601260248201527f4d7573742073756d20757020746f2031303000000000000000000000000000006044820152606490fd5b906003811015614223575b60051b0190565b61422b611961565b61421c565b60ff8091169116908160ff0381116140bd570190565b8060001904821181151516614259570290565b614261614016565b0290565b818110614270575050565b60008155600101614265565b9061016f60009081935b6003808610156142d9579060209160ff908183511691868654921b90811b9283911b169119161783550193600180930192601f84116142ca575b5060010193614286565b600093509091019060016142c0565b505050509050565b156142e857565b60405162461bcd60e51b815260206004820152602e60248201527f496e697469616c697a61626c653a20636f6e747261637420697320616c72656160448201527f647920696e697469616c697a65640000000000000000000000000000000000006064820152608490fd5b610165805490680100000000000000008210156143bc575b600182018082558210156143af575b6000527fd91ca5e44fa96a1732bfaed7fe33fc20ed69a9895cde1f18c7dcabca39d6a78b0180546001600160a01b0319169055565b6143b7611961565b61437a565b6143c461087b565b61436b565b6001600160a01b036101658054906801000000000000000082101561443d575b60018201808255821015614430575b6000527fd91ca5e44fa96a1732bfaed7fe33fc20ed69a9895cde1f18c7dcabca39d6a78b0191166001600160a01b0319825416179055565b614438611961565b6143f8565b61444561087b565b6143e9565b9061016d600080935b6003808610156142d9578160209162ffffff600694511690858754911b65ffffffffffff811b9283911b1691191617855501910193601a851161449b575b6001019390614453565b60009450600190920191614491565b604051906144b7826108eb565b601382527f457363726f77656420417373657420426f6e64000000000000000000000000006020830152565b604051906144f0826108eb565b600382526222a0a160e91b6020830152565b614588906145ba926001600160a01b0380199061016181851683825416179055610162921690825416179055614539600161017255565b6000805261016360205261456c7f323947e965fafc5a11fbcfc7a37a72d1b12094b96c7e62e08b97c054e8e6b0a7612225565b614574614353565b6145b46101679161458e61458884546140ad565b61016755565b6145af612225826001600160a01b0316600052610163602052604060002090565b6143c9565b546140ad565b610166805465ffffffffffff1916630114db001790556145f86145db61094a565b62093a8081526224ea006020820152626ebe00604082015261444a565b61461a61460361094a565b60148152601e60208201526032604082015261427c565b6146336146256144aa565b61462d6144e3565b906146c6565b61463b6146a3565b610957615a0e565b1561464a57565b60405162461bcd60e51b815260206004820152602b60248201527f496e697469616c697a61626c653a20636f6e7472616374206973206e6f74206960448201526a6e697469616c697a696e6760a81b6064820152608490fd5b6146bd60ff60005460081c166146b881614643565b614643565b610957336133e8565b906146dc60ff60005460081c166146b881614643565b815167ffffffffffffffff81116147d7575b614702816146fd6065546137a0565b6147e4565b602080601f83116001146147445750819061095794600092614739575b50508160011b916000199060031b1c1916176065556148d5565b01519050388061471f565b919293601f19841661477860656000527f8ff97419363ffd7000167f130ef7168fbea05faf9251824ca5043f113cc6a7c790565b936000905b8282106147bf575050916001939185610957979694106147a6575b505050811b016065556148d5565b015160001960f88460031b161c19169055388080614798565b8060018697829497870151815501960194019061477d565b6147df61087b565b6146ee565b90601f82116147f1575050565b6109579160656000527f8ff97419363ffd7000167f130ef7168fbea05faf9251824ca5043f113cc6a7c7906020601f840160051c8301931061483b575b601f0160051c0190614265565b909150819061482e565b90601f8211614852575050565b6109579160666000527f46501879b8ca8525e8c2fd519e2fbfcfa2ebea26501294aa02cbfcfb12e94354906020601f840160051c8301931061483b57601f0160051c0190614265565b9190601f81116148aa57505050565b610957926000526020600020906020601f840160051c8301931061483b57601f0160051c0190614265565b90815167ffffffffffffffff81116149c0575b6148fc816148f76066546137a0565b614845565b602080601f8311600114614938575081929360009261492d575b50508160011b916000199060031b1c191617606655565b015190503880614916565b90601f1983169461496b60666000527f46501879b8ca8525e8c2fd519e2fbfcfa2ebea26501294aa02cbfcfb12e9435490565b926000905b8782106149a857505083600195961061498f575b505050811b01606655565b015160001960f88460031b161c19169055388080614984565b80600185968294968601518155019501930190614970565b6149c861087b565b6148e8565b9081602091031261000e57516105a1816106b1565b156149e957565b60405162461bcd60e51b815260206004820152601f60248201527f4661696c656420746f207472616e73666572206e617469766520746f6b656e006044820152606490fd5b60405190614a3b826108cf565b6060368337565b9065ffffffffffff809116918215614a5957160490565b614a61613f9d565b160490565b9065ffffffffffff80809316911680920381116140bd570190565b614a8a82612c95565b52565b906000905b60038210614a9f57505050565b6001602082829351865501930191019091614a92565b90614abf81612c95565b61ff0082549160081b169061ff001916179055565b90614ade81612c95565b62ff000082549160101b169062ff00001916179055565b90610100600661095793614b2f614b1385516001600160a01b031690565b82546001600160a01b0319166001600160a01b03909116178255565b614bf560018201614b4d614b1360208801516001600160a01b031690565b614b9d614b63604088015165ffffffffffff1690565b82547fffffffffffff000000000000ffffffffffffffffffffffffffffffffffffffff1660a09190911b65ffffffffffff60a01b16178255565b606086015165ffffffffffff16815479ffffffffffffffffffffffffffffffffffffffffffffffffffff1660d09190911b7fffffffffffff000000000000000000000000000000000000000000000000000016179055565b614c06608085015160028301614a8d565b60a084015160058201550191614c34614c2260c0830151151590565b849060ff801983541691151516179055565b614c4b60e0820151614c4581612c95565b84614ab5565b015190614c5782612c95565b614ad4565b60ff6001911660ff81146140bd570190565b6003821015614c7f575b0190600090565b614c87611961565b614c78565b90815260408101929190602090612d1183612c95565b614cb790600052610171602052604060002090565b90614cc6600683015460ff1690565b15614f4257610161546001600160a01b03165b614d0b8161078e614cf186546001600160a01b031690565b6001600160a01b031660005261016a602052604060002090565b5480158015614f04575b614de3575b614d3290939293600052610171602052604060002090565b92600280600094019401925b60ff9060038282161015614ddb5780614dd4614d98614d62610eb66001958b614c6e565b614d90614d726101675489613fb4565b611a808a6001600160a01b0316600052610164602052604060002090565b908489615725565b614dbb614da5848a614c6e565b919092614db68385549060031b1c90565b614110565b9082549060031b600019811b9283911b16911916179055565b0116614d3e565b505050505050565b50614d32614def614a2e565b614ea26101725491614e03612f97846140ad565b86546001600160a01b031690614e6b65ffffffffffff421661301b614e3c614e36612fce6101665465ffffffffffff1690565b83614a66565b91614e57614e48610929565b6001600160a01b039097168752565b6001600160a01b038a16602087015261300c565b6080820152600060a0820152600160c0820152600060e0820152600061010082015261306783600052610171602052604060002090565b614eba61222582600052610173602052604060002090565b614eda6110a3610176836124308254600052610175602052604060002090565b80614ef38461078e614cf189546001600160a01b031690565b55614efd81615867565b9050614d1a565b50614f2f6001614f1f83600052610171602052604060002090565b015460a01c65ffffffffffff1690565b65ffffffffffff80421691161415614d15565b60018201546001600160a01b0316614cd9565b614f6a90600052610171602052604060002090565b60058101916006820191600281019160005b60ff90600382821610156150bc57855460ff1690811561509f57614fc184614fad610161546001600160a01b031690565b83614fbb610eb6828c614c6e565b91615725565b91614fcd838a54614110565b8955614fe5610f06610162546001600160a01b031690565b901561508c57610161546001600160a01b03165b813b1561000e57604051636c49e02160e01b815260606004820152600360648201526206966760ec1b60848201526001600160a01b03919091166024820152604481019390935260019290600090829060a490829084905af1801561507f575b615066575b500116614f7c565b8061507361507992610892565b8061052b565b3861505e565b615087613516565b615059565b60018601546001600160a01b0316614ff9565b614fc1846150b760018801546001600160a01b031690565b614fad565b50505050505050565b600061016554906150e2610f06610162546001600160a01b031690565b905b8281106150f357505050600090565b6150ff6113dc8261260c565b60408051630530fa2160e01b81526004810191909152600360448201526206966760ec1b60648201526001600160a01b0382166024820152602091908281608481885afa928315615214575b6000936151ef575b505080611a80611df66151a5615183611d466151c0966001600160a01b031660005261016e602052604060002090565b54611a80611d9c866001600160a01b031660005261016e602052604060002090565b926001600160a01b031660005261016e602052604060002090565b90151590816151e5575b506151dd576151d8906140ad565b6150e4565b505050600190565b90501515386151ca565b6151c0929350908161520c92903d1061148b5761147c8183610907565b919038615153565b61521c613516565b61514b565b1561522857565b60405162461bcd60e51b815260206004820152601c60248201527f4552433732313a20746f6b656e20616c7265616479206d696e746564000000006044820152606490fd5b6001600160a01b03811690811561533057615306906152ab6152a58560005260676020526001600160a01b0360406000205416151590565b15615221565b6152ce6152a58560005260676020526001600160a01b0360406000205416151590565b6152eb816001600160a01b03166000526068602052604060002090565b60018154019055613b29846000526067602052604060002090565b60007fddf252ad1be2c89b69c2b068fc378daa952ba7f163c4a11628f55a4df523b3ef81604051a4565b606460405162461bcd60e51b815260206004820152602060248201527f4552433732313a206d696e7420746f20746865207a65726f20616464726573736044820152fd5b801561403d576000190190565b600660009182815582600182015582600582016153a18160028501614265565b550155565b6105a190546137a0565b6153ba81546137a0565b90816153c4575050565b81601f600093116001146153d6575055565b818352602083206153f291601f0160051c810190600101614265565b8160208120915555565b6154058161377e565b5061540f8161377e565b600082815260696020526001600160a01b0360408220928119938481541690551680825260686020526040822060001981540190558382526067602052604082208381541690558382827fddf252ad1be2c89b69c2b068fc378daa952ba7f163c4a11628f55a4df523b3ef82604051a41515806154e4575b6154cd575b50506154aa6154a5826000526097602052604060002090565b6153a6565b6154b15750565b6154c8610957916000526097602052604060002090565b6153b0565b60409061017160205220908154169055388061548c565b5080615487565b6001600160a01b03908181168060005261016360205260ff92836040600020541615615556575b6101655460005b8186821610615530575050505061095791506143c9565b838361553b8361260c565b90549060031b1c1614614ddb5761555190614c5c565b615519565b61016761556381546140ad565b9055615586612225846001600160a01b0316600052610163602052604060002090565b615512565b6001600160a01b03929083811690816156335750506155b6610f06610162546001600160a01b031690565b8181311061562157803b1561000e57604051633e97486160e11b8152939092166001600160a01b03166004840152602483015260009082908183816044810103925af18015615614575b6156075750565b8061507361095792610892565b61561c613516565b615600565b604051631e9acf1760e31b8152600490fd5b9190935061564d610f06610162546001600160a01b031690565b6040516370a0823160e01b81526001600160a01b03821660048201526020958391908790829060249082905afa908115615718575b6000916156fb575b50106156215760405163276d76f960e21b81526001600160a01b03938416600482015293909216602484015260448301528290829060649082906000905af180156156ee575b6156d8575050565b816136d092903d106112ca576112ba8183610907565b6156f6613516565b6156d0565b6157129150873d891161148b5761147c8183610907565b3861568a565b615720613516565b615682565b9291600081615738575050505050600090565b6001600160a01b0360646157786040946157736157969860038910156157a2575b60ff8960051c61016f015460f88b60031b161c1690614246565b614246565b049516815261016e602052209060ff16600052602052604060002090565b54908115613fbe570490565b6157aa611961565b615759565b60405191906000835b600382106157df575050506060820182811067ffffffffffffffff8211176108a657604052565b60016020819285548152019301910190916157b8565b95939192979694909761012087019887526001600160a01b039081602095168589015216604087015265ffffffffffff809216606087015216608085015260a084016000905b600382106158525750505050610100901515910152565b8280600192865181520194019101909261583b565b7fbbad5407299f3773930327d215f85a16617efbbddc1fe3902bd39ba46feacf2690806000526101716020526040600020906159b36158a4610929565b6158c56158b885546001600160a01b031690565b6001600160a01b03168252565b60018401546001600160a01b038116602083019081529490919060a083901c65ffffffffffff16604083019081529260d01c606083019081526159a661599d615990615983615975600661591b600289016157af565b9760808a01988952600581015460a08b015201549761596860ff60c083019a6159488282168d9015159052565b61595a828260081c1660e08601614a81565b60101c166101008301614a81565b516001600160a01b031690565b9a516001600160a01b031690565b965165ffffffffffff1690565b925165ffffffffffff1690565b92519351151590565b93604051978897886157f5565b0390a1565b6001600160a01b0380911615159081615a02575b506159d5575050565b610957916000526101716020526040600020906001600160a01b03166001600160a01b0319825416179055565b905081161515386159cc565b615a1f60ff60005460081c16614643565b60ff1960fb541660fb5556fea2646970667358221220322e56cdb816b0a12d13eda0676a4e626ef708e8d377d04ad6691521457c289c64736f6c634300080e0033",
  "devdoc": {
    "kind": "dev",
    "methods": {
      "approve(address,uint256)": {
        "details": "See {IERC721-approve}."
      },
      "balanceOf(address)": {
        "details": "See {IERC721-balanceOf}."
      },
      "getApproved(uint256)": {
        "details": "See {IERC721-getApproved}."
      },
      "isApprovedForAll(address,address)": {
        "details": "See {IERC721-isApprovedForAll}."
      },
      "name()": {
        "details": "See {IERC721Metadata-name}."
      },
      "owner()": {
        "details": "Returns the address of the current owner."
      },
      "ownerOf(uint256)": {
        "details": "See {IERC721-ownerOf}."
      },
      "proxiableUUID()": {
        "details": "Implementation of the ERC1822 {proxiableUUID} function. This returns the storage slot used by the implementation. It is used to validate the implementation's compatibility when performing an upgrade. IMPORTANT: A proxy pointing at a proxiable contract should not be considered proxiable itself, because this risks bricking a proxy that upgrades to it, by delegating to itself until out of gas. Thus it is critical that this function revert if invoked through a proxy. This is guaranteed by the `notDelegated` modifier."
      },
      "renounceOwnership()": {
        "details": "Leaves the contract without owner. It will not be possible to call `onlyOwner` functions. Can only be called by the current owner. NOTE: Renouncing ownership will leave the contract without an owner, thereby disabling any functionality that is only available to the owner."
      },
      "safeTransferFrom(address,address,uint256)": {
        "details": "See {IERC721-safeTransferFrom}."
      },
      "safeTransferFrom(address,address,uint256,bytes)": {
        "details": "See {IERC721-safeTransferFrom}."
      },
      "setApprovalForAll(address,bool)": {
        "details": "See {IERC721-setApprovalForAll}."
      },
      "supportsInterface(bytes4)": {
        "details": "See {IERC165-supportsInterface}"
      },
      "symbol()": {
        "details": "See {IERC721Metadata-symbol}."
      },
      "tokenURI(uint256)": {
        "details": "See {IERC721Metadata-tokenURI}."
      },
      "transferFrom(address,address,uint256)": {
        "details": "See {IERC721-transferFrom}."
      },
      "transferOwnership(address)": {
        "details": "Transfers ownership of the contract to a new account (`newOwner`). Can only be called by the current owner."
      },
      "upgradeTo(address)": {
        "custom:oz-upgrades-unsafe-allow-reachable": "delegatecall",
        "details": "Upgrade the implementation of the proxy to `newImplementation`. Calls {_authorizeUpgrade}. Emits an {Upgraded} event."
      },
      "upgradeToAndCall(address,bytes)": {
        "custom:oz-upgrades-unsafe-allow-reachable": "delegatecall",
        "details": "Upgrade the implementation of the proxy to `newImplementation`, and subsequently execute the function call encoded in `data`. Calls {_authorizeUpgrade}. Emits an {Upgraded} event."
      }
    },
    "version": 1
  },
  "userdoc": {
    "kind": "user",
    "methods": {},
    "version": 1
  },
  "storageLayout": {
    "storage": [
      {
        "astId": 533,
        "contract": "contracts/staking/LendingPoolStakingV2.sol:LendingPoolStakingV2",
        "label": "_initialized",
        "offset": 0,
        "slot": "0",
        "type": "t_uint8"
      },
      {
        "astId": 536,
        "contract": "contracts/staking/LendingPoolStakingV2.sol:LendingPoolStakingV2",
        "label": "_initializing",
        "offset": 1,
        "slot": "0",
        "type": "t_bool"
      },
      {
        "astId": 2503,
        "contract": "contracts/staking/LendingPoolStakingV2.sol:LendingPoolStakingV2",
        "label": "__gap",
        "offset": 0,
        "slot": "1",
        "type": "t_array(t_uint256)50_storage"
      },
      {
        "astId": 2887,
        "contract": "contracts/staking/LendingPoolStakingV2.sol:LendingPoolStakingV2",
        "label": "__gap",
        "offset": 0,
        "slot": "51",
        "type": "t_array(t_uint256)50_storage"
      },
      {
        "astId": 862,
        "contract": "contracts/staking/LendingPoolStakingV2.sol:LendingPoolStakingV2",
        "label": "_name",
        "offset": 0,
        "slot": "101",
        "type": "t_string_storage"
      },
      {
        "astId": 864,
        "contract": "contracts/staking/LendingPoolStakingV2.sol:LendingPoolStakingV2",
        "label": "_symbol",
        "offset": 0,
        "slot": "102",
        "type": "t_string_storage"
      },
      {
        "astId": 868,
        "contract": "contracts/staking/LendingPoolStakingV2.sol:LendingPoolStakingV2",
        "label": "_owners",
        "offset": 0,
        "slot": "103",
        "type": "t_mapping(t_uint256,t_address)"
      },
      {
        "astId": 872,
        "contract": "contracts/staking/LendingPoolStakingV2.sol:LendingPoolStakingV2",
        "label": "_balances",
        "offset": 0,
        "slot": "104",
        "type": "t_mapping(t_address,t_uint256)"
      },
      {
        "astId": 876,
        "contract": "contracts/staking/LendingPoolStakingV2.sol:LendingPoolStakingV2",
        "label": "_tokenApprovals",
        "offset": 0,
        "slot": "105",
        "type": "t_mapping(t_uint256,t_address)"
      },
      {
        "astId": 882,
        "contract": "contracts/staking/LendingPoolStakingV2.sol:LendingPoolStakingV2",
        "label": "_operatorApprovals",
        "offset": 0,
        "slot": "106",
        "type": "t_mapping(t_address,t_mapping(t_address,t_bool))"
      },
      {
        "astId": 1784,
        "contract": "contracts/staking/LendingPoolStakingV2.sol:LendingPoolStakingV2",
        "label": "__gap",
        "offset": 0,
        "slot": "107",
        "type": "t_array(t_uint256)44_storage"
      },
      {
        "astId": 1939,
        "contract": "contracts/staking/LendingPoolStakingV2.sol:LendingPoolStakingV2",
        "label": "_tokenURIs",
        "offset": 0,
        "slot": "151",
        "type": "t_mapping(t_uint256,t_string_storage)"
      },
      {
        "astId": 2095,
        "contract": "contracts/staking/LendingPoolStakingV2.sol:LendingPoolStakingV2",
        "label": "__gap",
        "offset": 0,
        "slot": "152",
        "type": "t_array(t_uint256)49_storage"
      },
      {
        "astId": 11,
        "contract": "contracts/staking/LendingPoolStakingV2.sol:LendingPoolStakingV2",
        "label": "_owner",
        "offset": 0,
        "slot": "201",
        "type": "t_address"
      },
      {
        "astId": 131,
        "contract": "contracts/staking/LendingPoolStakingV2.sol:LendingPoolStakingV2",
        "label": "__gap",
        "offset": 0,
        "slot": "202",
        "type": "t_array(t_uint256)49_storage"
      },
      {
        "astId": 7457,
        "contract": "contracts/staking/LendingPoolStakingV2.sol:LendingPoolStakingV2",
        "label": "testing",
        "offset": 0,
        "slot": "251",
        "type": "t_bool"
      },
      {
        "astId": 5268,
        "contract": "contracts/staking/LendingPoolStakingV2.sol:LendingPoolStakingV2",
        "label": "hasRole",
        "offset": 0,
        "slot": "252",
        "type": "t_mapping(t_address,t_mapping(t_string_memory_ptr,t_bool))"
      },
      {
        "astId": 515,
        "contract": "contracts/staking/LendingPoolStakingV2.sol:LendingPoolStakingV2",
        "label": "__gap",
        "offset": 0,
        "slot": "253",
        "type": "t_array(t_uint256)50_storage"
      },
      {
        "astId": 831,
        "contract": "contracts/staking/LendingPoolStakingV2.sol:LendingPoolStakingV2",
        "label": "__gap",
        "offset": 0,
        "slot": "303",
        "type": "t_array(t_uint256)50_storage"
      },
      {
        "astId": 5473,
        "contract": "contracts/staking/LendingPoolStakingV2.sol:LendingPoolStakingV2",
        "label": "nend",
        "offset": 0,
        "slot": "353",
        "type": "t_address"
      },
      {
        "astId": 5476,
        "contract": "contracts/staking/LendingPoolStakingV2.sol:LendingPoolStakingV2",
        "label": "lendingPool",
        "offset": 0,
        "slot": "354",
        "type": "t_contract(Vault)8116"
      },
      {
        "astId": 5480,
        "contract": "contracts/staking/LendingPoolStakingV2.sol:LendingPoolStakingV2",
        "label": "activeStakeTokens",
        "offset": 0,
        "slot": "355",
        "type": "t_mapping(t_address,t_bool)"
      },
      {
        "astId": 5484,
        "contract": "contracts/staking/LendingPoolStakingV2.sol:LendingPoolStakingV2",
        "label": "inflationRollOver",
        "offset": 0,
        "slot": "356",
        "type": "t_mapping(t_address,t_uint256)"
      },
      {
        "astId": 5487,
        "contract": "contracts/staking/LendingPoolStakingV2.sol:LendingPoolStakingV2",
        "label": "stakeTokens",
        "offset": 0,
        "slot": "357",
        "type": "t_array(t_address)dyn_storage"
      },
      {
        "astId": 5489,
        "contract": "contracts/staking/LendingPoolStakingV2.sol:LendingPoolStakingV2",
        "label": "escrowLockPeriod",
        "offset": 0,
        "slot": "358",
        "type": "t_uint48"
      },
      {
        "astId": 5491,
        "contract": "contracts/staking/LendingPoolStakingV2.sol:LendingPoolStakingV2",
        "label": "stakeTokenCount",
        "offset": 0,
        "slot": "359",
        "type": "t_uint256"
      },
      {
        "astId": 5493,
        "contract": "contracts/staking/LendingPoolStakingV2.sol:LendingPoolStakingV2",
        "label": "ongoingStakeCount",
        "offset": 0,
        "slot": "360",
        "type": "t_uint256"
      },
      {
        "astId": 5497,
        "contract": "contracts/staking/LendingPoolStakingV2.sol:LendingPoolStakingV2",
        "label": "ifpTokenToAmount",
        "offset": 0,
        "slot": "361",
        "type": "t_mapping(t_address,t_uint256)"
      },
      {
        "astId": 5503,
        "contract": "contracts/staking/LendingPoolStakingV2.sol:LendingPoolStakingV2",
        "label": "userToStakeTokenToLastEscrowId",
        "offset": 0,
        "slot": "362",
        "type": "t_mapping(t_address,t_mapping(t_address,t_uint256))"
      },
      {
        "astId": 5509,
        "contract": "contracts/staking/LendingPoolStakingV2.sol:LendingPoolStakingV2",
        "label": "lastEscrowRewardByToken_Duration",
        "offset": 0,
        "slot": "363",
        "type": "t_mapping(t_address,t_mapping(t_uint8,t_uint256))"
      },
      {
        "astId": 5513,
        "contract": "contracts/staking/LendingPoolStakingV2.sol:LendingPoolStakingV2",
        "label": "_oldStakes",
        "offset": 0,
        "slot": "364",
        "type": "t_array(t_struct(Stake)7371_storage)dyn_storage"
      },
      {
        "astId": 5517,
        "contract": "contracts/staking/LendingPoolStakingV2.sol:LendingPoolStakingV2",
        "label": "stakeDurations",
        "offset": 0,
        "slot": "365",
        "type": "t_array(t_uint48)3_storage"
      },
      {
        "astId": 5523,
        "contract": "contracts/staking/LendingPoolStakingV2.sol:LendingPoolStakingV2",
        "label": "totalStakedByToken_Duration",
        "offset": 0,
        "slot": "366",
        "type": "t_mapping(t_address,t_mapping(t_uint8,t_uint256))"
      },
      {
        "astId": 5527,
        "contract": "contracts/staking/LendingPoolStakingV2.sol:LendingPoolStakingV2",
        "label": "rewardAllocations",
        "offset": 0,
        "slot": "367",
        "type": "t_array(t_uint8)3_storage"
      },
      {
        "astId": 5529,
        "contract": "contracts/staking/LendingPoolStakingV2.sol:LendingPoolStakingV2",
        "label": "poolRollOver",
        "offset": 0,
        "slot": "368",
        "type": "t_uint256"
      },
      {
        "astId": 5534,
        "contract": "contracts/staking/LendingPoolStakingV2.sol:LendingPoolStakingV2",
        "label": "stakes",
        "offset": 0,
        "slot": "369",
        "type": "t_mapping(t_uint256,t_struct(Stake)7371_storage)"
      },
      {
        "astId": 5536,
        "contract": "contracts/staking/LendingPoolStakingV2.sol:LendingPoolStakingV2",
        "label": "nextStakeId",
        "offset": 0,
        "slot": "370",
        "type": "t_uint256"
      },
      {
        "astId": 5540,
        "contract": "contracts/staking/LendingPoolStakingV2.sol:LendingPoolStakingV2",
        "label": "isActiveStake",
        "offset": 0,
        "slot": "371",
        "type": "t_mapping(t_uint256,t_bool)"
      },
      {
        "astId": 5544,
        "contract": "contracts/staking/LendingPoolStakingV2.sol:LendingPoolStakingV2",
        "label": "activeStakeIndices",
        "offset": 0,
        "slot": "372",
        "type": "t_mapping(t_uint256,t_uint256)"
      },
      {
        "astId": 5548,
        "contract": "contracts/staking/LendingPoolStakingV2.sol:LendingPoolStakingV2",
        "label": "activeStakesById",
        "offset": 0,
        "slot": "373",
        "type": "t_mapping(t_uint256,t_uint256)"
      },
      {
        "astId": 5550,
        "contract": "contracts/staking/LendingPoolStakingV2.sol:LendingPoolStakingV2",
        "label": "activeStakesCount",
        "offset": 0,
        "slot": "374",
        "type": "t_uint256"
      }
    ],
    "types": {
      "t_address": {
        "encoding": "inplace",
        "label": "address",
        "numberOfBytes": "20"
      },
      "t_array(t_address)dyn_storage": {
        "base": "t_address",
        "encoding": "dynamic_array",
        "label": "address[]",
        "numberOfBytes": "32"
      },
      "t_array(t_struct(Stake)7371_storage)dyn_storage": {
        "base": "t_struct(Stake)7371_storage",
        "encoding": "dynamic_array",
        "label": "struct ILendingPoolStaking.Stake[]",
        "numberOfBytes": "32"
      },
      "t_array(t_uint256)3_storage": {
        "base": "t_uint256",
        "encoding": "inplace",
        "label": "uint256[3]",
        "numberOfBytes": "96"
      },
      "t_array(t_uint256)44_storage": {
        "base": "t_uint256",
        "encoding": "inplace",
        "label": "uint256[44]",
        "numberOfBytes": "1408"
      },
      "t_array(t_uint256)49_storage": {
        "base": "t_uint256",
        "encoding": "inplace",
        "label": "uint256[49]",
        "numberOfBytes": "1568"
      },
      "t_array(t_uint256)50_storage": {
        "base": "t_uint256",
        "encoding": "inplace",
        "label": "uint256[50]",
        "numberOfBytes": "1600"
      },
      "t_array(t_uint48)3_storage": {
        "base": "t_uint48",
        "encoding": "inplace",
        "label": "uint48[3]",
        "numberOfBytes": "32"
      },
      "t_array(t_uint8)3_storage": {
        "base": "t_uint8",
        "encoding": "inplace",
        "label": "uint8[3]",
        "numberOfBytes": "32"
      },
      "t_bool": {
        "encoding": "inplace",
        "label": "bool",
        "numberOfBytes": "1"
      },
      "t_contract(Vault)8116": {
        "encoding": "inplace",
        "label": "contract Vault",
        "numberOfBytes": "20"
      },
      "t_enum(EscrowStatus)7348": {
        "encoding": "inplace",
        "label": "enum ILendingPoolStaking.EscrowStatus",
        "numberOfBytes": "1"
      },
      "t_enum(StakeStatus)7344": {
        "encoding": "inplace",
        "label": "enum ILendingPoolStaking.StakeStatus",
        "numberOfBytes": "1"
      },
      "t_mapping(t_address,t_bool)": {
        "encoding": "mapping",
        "key": "t_address",
        "label": "mapping(address => bool)",
        "numberOfBytes": "32",
        "value": "t_bool"
      },
      "t_mapping(t_address,t_mapping(t_address,t_bool))": {
        "encoding": "mapping",
        "key": "t_address",
        "label": "mapping(address => mapping(address => bool))",
        "numberOfBytes": "32",
        "value": "t_mapping(t_address,t_bool)"
      },
      "t_mapping(t_address,t_mapping(t_address,t_uint256))": {
        "encoding": "mapping",
        "key": "t_address",
        "label": "mapping(address => mapping(address => uint256))",
        "numberOfBytes": "32",
        "value": "t_mapping(t_address,t_uint256)"
      },
      "t_mapping(t_address,t_mapping(t_string_memory_ptr,t_bool))": {
        "encoding": "mapping",
        "key": "t_address",
        "label": "mapping(address => mapping(string => bool))",
        "numberOfBytes": "32",
        "value": "t_mapping(t_string_memory_ptr,t_bool)"
      },
      "t_mapping(t_address,t_mapping(t_uint8,t_uint256))": {
        "encoding": "mapping",
        "key": "t_address",
        "label": "mapping(address => mapping(uint8 => uint256))",
        "numberOfBytes": "32",
        "value": "t_mapping(t_uint8,t_uint256)"
      },
      "t_mapping(t_address,t_uint256)": {
        "encoding": "mapping",
        "key": "t_address",
        "label": "mapping(address => uint256)",
        "numberOfBytes": "32",
        "value": "t_uint256"
      },
      "t_mapping(t_string_memory_ptr,t_bool)": {
        "encoding": "mapping",
        "key": "t_string_memory_ptr",
        "label": "mapping(string => bool)",
        "numberOfBytes": "32",
        "value": "t_bool"
      },
      "t_mapping(t_uint256,t_address)": {
        "encoding": "mapping",
        "key": "t_uint256",
        "label": "mapping(uint256 => address)",
        "numberOfBytes": "32",
        "value": "t_address"
      },
      "t_mapping(t_uint256,t_bool)": {
        "encoding": "mapping",
        "key": "t_uint256",
        "label": "mapping(uint256 => bool)",
        "numberOfBytes": "32",
        "value": "t_bool"
      },
      "t_mapping(t_uint256,t_string_storage)": {
        "encoding": "mapping",
        "key": "t_uint256",
        "label": "mapping(uint256 => string)",
        "numberOfBytes": "32",
        "value": "t_string_storage"
      },
      "t_mapping(t_uint256,t_struct(Stake)7371_storage)": {
        "encoding": "mapping",
        "key": "t_uint256",
        "label": "mapping(uint256 => struct ILendingPoolStaking.Stake)",
        "numberOfBytes": "32",
        "value": "t_struct(Stake)7371_storage"
      },
      "t_mapping(t_uint256,t_uint256)": {
        "encoding": "mapping",
        "key": "t_uint256",
        "label": "mapping(uint256 => uint256)",
        "numberOfBytes": "32",
        "value": "t_uint256"
      },
      "t_mapping(t_uint8,t_uint256)": {
        "encoding": "mapping",
        "key": "t_uint8",
        "label": "mapping(uint8 => uint256)",
        "numberOfBytes": "32",
        "value": "t_uint256"
      },
      "t_string_memory_ptr": {
        "encoding": "bytes",
        "label": "string",
        "numberOfBytes": "32"
      },
      "t_string_storage": {
        "encoding": "bytes",
        "label": "string",
        "numberOfBytes": "32"
      },
      "t_struct(Stake)7371_storage": {
        "encoding": "inplace",
        "label": "struct ILendingPoolStaking.Stake",
        "members": [
          {
            "astId": 7350,
            "contract": "contracts/staking/LendingPoolStakingV2.sol:LendingPoolStakingV2",
            "label": "staker",
            "offset": 0,
            "slot": "0",
            "type": "t_address"
          },
          {
            "astId": 7352,
            "contract": "contracts/staking/LendingPoolStakingV2.sol:LendingPoolStakingV2",
            "label": "token",
            "offset": 0,
            "slot": "1",
            "type": "t_address"
          },
          {
            "astId": 7354,
            "contract": "contracts/staking/LendingPoolStakingV2.sol:LendingPoolStakingV2",
            "label": "start",
            "offset": 20,
            "slot": "1",
            "type": "t_uint48"
          },
          {
            "astId": 7356,
            "contract": "contracts/staking/LendingPoolStakingV2.sol:LendingPoolStakingV2",
            "label": "end",
            "offset": 26,
            "slot": "1",
            "type": "t_uint48"
          },
          {
            "astId": 7360,
            "contract": "contracts/staking/LendingPoolStakingV2.sol:LendingPoolStakingV2",
            "label": "amountsPerDuration",
            "offset": 0,
            "slot": "2",
            "type": "t_array(t_uint256)3_storage"
          },
          {
            "astId": 7362,
            "contract": "contracts/staking/LendingPoolStakingV2.sol:LendingPoolStakingV2",
            "label": "rewardAllocated",
            "offset": 0,
            "slot": "5",
            "type": "t_uint256"
          },
          {
            "astId": 7364,
            "contract": "contracts/staking/LendingPoolStakingV2.sol:LendingPoolStakingV2",
            "label": "isEscrow",
            "offset": 0,
            "slot": "6",
            "type": "t_bool"
          },
          {
            "astId": 7367,
            "contract": "contracts/staking/LendingPoolStakingV2.sol:LendingPoolStakingV2",
            "label": "escrowStatus",
            "offset": 1,
            "slot": "6",
            "type": "t_enum(EscrowStatus)7348"
          },
          {
            "astId": 7370,
            "contract": "contracts/staking/LendingPoolStakingV2.sol:LendingPoolStakingV2",
            "label": "stakeStatus",
            "offset": 2,
            "slot": "6",
            "type": "t_enum(StakeStatus)7344"
          }
        ],
        "numberOfBytes": "224"
      },
      "t_uint256": {
        "encoding": "inplace",
        "label": "uint256",
        "numberOfBytes": "32"
      },
      "t_uint48": {
        "encoding": "inplace",
        "label": "uint48",
        "numberOfBytes": "6"
      },
      "t_uint8": {
        "encoding": "inplace",
        "label": "uint8",
        "numberOfBytes": "1"
      }
    }
  }
}