{
  "address": "0x27437595a65f1fB907754C0347bA741f1Cb5dAFc",
  "abi": [
    {
      "anonymous": false,
      "inputs": [
        {
          "indexed": false,
          "internalType": "address",
          "name": "previousAdmin",
          "type": "address"
        },
        {
          "indexed": false,
          "internalType": "address",
          "name": "newAdmin",
          "type": "address"
        }
      ],
      "name": "AdminChanged",
      "type": "event"
    },
    {
      "anonymous": false,
      "inputs": [
        {
          "indexed": true,
          "internalType": "address",
          "name": "owner",
          "type": "address"
        },
        {
          "indexed": true,
          "internalType": "address",
          "name": "approved",
          "type": "address"
        },
        {
          "indexed": true,
          "internalType": "uint256",
          "name": "tokenId",
          "type": "uint256"
        }
      ],
      "name": "Approval",
      "type": "event"
    },
    {
      "anonymous": false,
      "inputs": [
        {
          "indexed": true,
          "internalType": "address",
          "name": "owner",
          "type": "address"
        },
        {
          "indexed": true,
          "internalType": "address",
          "name": "operator",
          "type": "address"
        },
        {
          "indexed": false,
          "internalType": "bool",
          "name": "approved",
          "type": "bool"
        }
      ],
      "name": "ApprovalForAll",
      "type": "event"
    },
    {
      "anonymous": false,
      "inputs": [
        {
          "indexed": true,
          "internalType": "address",
          "name": "beacon",
          "type": "address"
        }
      ],
      "name": "BeaconUpgraded",
      "type": "event"
    },
    {
      "anonymous": false,
      "inputs": [
        {
          "indexed": false,
          "internalType": "uint8",
          "name": "version",
          "type": "uint8"
        }
      ],
      "name": "Initialized",
      "type": "event"
    },
    {
      "anonymous": false,
      "inputs": [
        {
          "indexed": true,
          "internalType": "address",
          "name": "previousOwner",
          "type": "address"
        },
        {
          "indexed": true,
          "internalType": "address",
          "name": "newOwner",
          "type": "address"
        }
      ],
      "name": "OwnershipTransferred",
      "type": "event"
    },
    {
      "anonymous": false,
      "inputs": [
        {
          "indexed": true,
          "internalType": "address",
          "name": "from",
          "type": "address"
        },
        {
          "indexed": true,
          "internalType": "address",
          "name": "to",
          "type": "address"
        },
        {
          "indexed": true,
          "internalType": "uint256",
          "name": "tokenId",
          "type": "uint256"
        }
      ],
      "name": "Transfer",
      "type": "event"
    },
    {
      "anonymous": false,
      "inputs": [
        {
          "indexed": true,
          "internalType": "address",
          "name": "implementation",
          "type": "address"
        }
      ],
      "name": "Upgraded",
      "type": "event"
    },
    {
      "inputs": [],
      "name": "__MWOwnable_init",
      "outputs": [],
      "stateMutability": "nonpayable",
      "type": "function"
    },
    {
      "inputs": [
        {
          "internalType": "address",
          "name": "to",
          "type": "address"
        },
        {
          "internalType": "uint256",
          "name": "tokenId",
          "type": "uint256"
        }
      ],
      "name": "approve",
      "outputs": [],
      "stateMutability": "nonpayable",
      "type": "function"
    },
    {
      "inputs": [
        {
          "internalType": "address",
          "name": "operator",
          "type": "address"
        },
        {
          "internalType": "string",
          "name": "role",
          "type": "string"
        },
        {
          "internalType": "bool",
          "name": "authorized",
          "type": "bool"
        }
      ],
      "name": "authorize",
      "outputs": [],
      "stateMutability": "nonpayable",
      "type": "function"
    },
    {
      "inputs": [
        {
          "internalType": "address",
          "name": "owner",
          "type": "address"
        }
      ],
      "name": "balanceOf",
      "outputs": [
        {
          "internalType": "uint256",
          "name": "",
          "type": "uint256"
        }
      ],
      "stateMutability": "view",
      "type": "function"
    },
    {
      "inputs": [
        {
          "internalType": "uint256",
          "name": "tokenId",
          "type": "uint256"
        }
      ],
      "name": "burn",
      "outputs": [],
      "stateMutability": "nonpayable",
      "type": "function"
    },
    {
      "inputs": [
        {
          "internalType": "uint256",
          "name": "tokenId",
          "type": "uint256"
        }
      ],
      "name": "getApproved",
      "outputs": [
        {
          "internalType": "address",
          "name": "",
          "type": "address"
        }
      ],
      "stateMutability": "view",
      "type": "function"
    },
    {
      "inputs": [
        {
          "internalType": "address",
          "name": "",
          "type": "address"
        },
        {
          "internalType": "string",
          "name": "",
          "type": "string"
        }
      ],
      "name": "hasRole",
      "outputs": [
        {
          "internalType": "bool",
          "name": "",
          "type": "bool"
        }
      ],
      "stateMutability": "view",
      "type": "function"
    },
    {
      "inputs": [],
      "name": "initialize",
      "outputs": [],
      "stateMutability": "nonpayable",
      "type": "function"
    },
    {
      "inputs": [
        {
          "internalType": "address",
          "name": "owner",
          "type": "address"
        },
        {
          "internalType": "address",
          "name": "operator",
          "type": "address"
        }
      ],
      "name": "isApprovedForAll",
      "outputs": [
        {
          "internalType": "bool",
          "name": "",
          "type": "bool"
        }
      ],
      "stateMutability": "view",
      "type": "function"
    },
    {
      "inputs": [],
      "name": "name",
      "outputs": [
        {
          "internalType": "string",
          "name": "",
          "type": "string"
        }
      ],
      "stateMutability": "view",
      "type": "function"
    },
    {
      "inputs": [],
      "name": "owner",
      "outputs": [
        {
          "internalType": "address",
          "name": "",
          "type": "address"
        }
      ],
      "stateMutability": "view",
      "type": "function"
    },
    {
      "inputs": [
        {
          "internalType": "uint256",
          "name": "tokenId",
          "type": "uint256"
        }
      ],
      "name": "ownerOf",
      "outputs": [
        {
          "internalType": "address",
          "name": "",
          "type": "address"
        }
      ],
      "stateMutability": "view",
      "type": "function"
    },
    {
      "inputs": [],
      "name": "periFiAdminAddr",
      "outputs": [
        {
          "internalType": "address",
          "name": "",
          "type": "address"
        }
      ],
      "stateMutability": "view",
      "type": "function"
    },
    {
      "inputs": [],
      "name": "periFiLoanAddr",
      "outputs": [
        {
          "internalType": "address payable",
          "name": "",
          "type": "address"
        }
      ],
      "stateMutability": "view",
      "type": "function"
    },
    {
      "inputs": [],
      "name": "proxiableUUID",
      "outputs": [
        {
          "internalType": "bytes32",
          "name": "",
          "type": "bytes32"
        }
      ],
      "stateMutability": "view",
      "type": "function"
    },
    {
      "inputs": [],
      "name": "renounceOwnership",
      "outputs": [],
      "stateMutability": "nonpayable",
      "type": "function"
    },
    {
      "inputs": [
        {
          "internalType": "uint256",
          "name": "tokenId",
          "type": "uint256"
        }
      ],
      "name": "safeBurn",
      "outputs": [],
      "stateMutability": "nonpayable",
      "type": "function"
    },
    {
      "inputs": [
        {
          "internalType": "address",
          "name": "to",
          "type": "address"
        },
        {
          "internalType": "uint256",
          "name": "tokenId",
          "type": "uint256"
        }
      ],
      "name": "safeMint",
      "outputs": [],
      "stateMutability": "nonpayable",
      "type": "function"
    },
    {
      "inputs": [
        {
          "internalType": "address",
          "name": "from",
          "type": "address"
        },
        {
          "internalType": "address",
          "name": "to",
          "type": "address"
        },
        {
          "internalType": "uint256",
          "name": "tokenId",
          "type": "uint256"
        }
      ],
      "name": "safeTransferFrom",
      "outputs": [],
      "stateMutability": "nonpayable",
      "type": "function"
    },
    {
      "inputs": [
        {
          "internalType": "address",
          "name": "from",
          "type": "address"
        },
        {
          "internalType": "address",
          "name": "to",
          "type": "address"
        },
        {
          "internalType": "uint256",
          "name": "tokenId",
          "type": "uint256"
        },
        {
          "internalType": "bytes",
          "name": "_data",
          "type": "bytes"
        }
      ],
      "name": "safeTransferFrom",
      "outputs": [],
      "stateMutability": "nonpayable",
      "type": "function"
    },
    {
      "inputs": [
        {
          "internalType": "address",
          "name": "adminAddr",
          "type": "address"
        }
      ],
      "name": "setAdminAddress",
      "outputs": [],
      "stateMutability": "nonpayable",
      "type": "function"
    },
    {
      "inputs": [
        {
          "internalType": "address",
          "name": "operator",
          "type": "address"
        },
        {
          "internalType": "bool",
          "name": "approved",
          "type": "bool"
        }
      ],
      "name": "setApprovalForAll",
      "outputs": [],
      "stateMutability": "nonpayable",
      "type": "function"
    },
    {
      "inputs": [
        {
          "internalType": "address payable",
          "name": "loanAddr",
          "type": "address"
        }
      ],
      "name": "setLoanAddress",
      "outputs": [],
      "stateMutability": "nonpayable",
      "type": "function"
    },
    {
      "inputs": [
        {
          "internalType": "uint256",
          "name": "tokenId",
          "type": "uint256"
        },
        {
          "internalType": "string",
          "name": "uri",
          "type": "string"
        }
      ],
      "name": "setTokenURI",
      "outputs": [],
      "stateMutability": "nonpayable",
      "type": "function"
    },
    {
      "inputs": [
        {
          "internalType": "bytes4",
          "name": "interfaceId",
          "type": "bytes4"
        }
      ],
      "name": "supportsInterface",
      "outputs": [
        {
          "internalType": "bool",
          "name": "",
          "type": "bool"
        }
      ],
      "stateMutability": "view",
      "type": "function"
    },
    {
      "inputs": [],
      "name": "symbol",
      "outputs": [
        {
          "internalType": "string",
          "name": "",
          "type": "string"
        }
      ],
      "stateMutability": "view",
      "type": "function"
    },
    {
      "inputs": [
        {
          "internalType": "uint256",
          "name": "tokenId",
          "type": "uint256"
        }
      ],
      "name": "tokenURI",
      "outputs": [
        {
          "internalType": "string",
          "name": "",
          "type": "string"
        }
      ],
      "stateMutability": "view",
      "type": "function"
    },
    {
      "inputs": [
        {
          "internalType": "address",
          "name": "from",
          "type": "address"
        },
        {
          "internalType": "address",
          "name": "to",
          "type": "address"
        },
        {
          "internalType": "uint256",
          "name": "tokenId",
          "type": "uint256"
        }
      ],
      "name": "transferFrom",
      "outputs": [],
      "stateMutability": "nonpayable",
      "type": "function"
    },
    {
      "inputs": [
        {
          "internalType": "address",
          "name": "newOwner",
          "type": "address"
        }
      ],
      "name": "transferOwnership",
      "outputs": [],
      "stateMutability": "nonpayable",
      "type": "function"
    },
    {
      "inputs": [
        {
          "internalType": "address",
          "name": "newImplementation",
          "type": "address"
        }
      ],
      "name": "upgradeTo",
      "outputs": [],
      "stateMutability": "nonpayable",
      "type": "function"
    },
    {
      "inputs": [
        {
          "internalType": "address",
          "name": "newImplementation",
          "type": "address"
        },
        {
          "internalType": "bytes",
          "name": "data",
          "type": "bytes"
        }
      ],
      "name": "upgradeToAndCall",
      "outputs": [],
      "stateMutability": "payable",
      "type": "function"
    }
  ],
  "transactionHash": "0x9bc4e1f1c22681ba84f0ee4e4e2ba583a520b1dfd855def3ad6210ac1e3b9cfe",
  "args": [],
  "numDeployments": 1,
  "solcInputHash": "5f4e724599e3a7403e26c4f96c760b8c",
  "bytecode": "0x60a06040523462000118576000546200003260ff8260081c16158092819362000109575b8115620000e6575b506200011d565b8062000046600160ff196000541617600055565b620000cb575b6200005662000181565b62000087575b30608052604051612db39081620001e28239608051818181610aed01528181610e9301526110030152f35b6200009861ff001960005416600055565b604051600181527f7f26b83ff96e1f2b6a682f133852f6798a09c465da95921460cefb384740249890602090a16200005c565b620000e061010061ff00196000541617600055565b6200004c565b303b15915081620000fa575b50386200002b565b6001915060ff161438620000f2565b600160ff821610915062000023565b600080fd5b156200012557565b60405162461bcd60e51b815260206004820152602e60248201527f496e697469616c697a61626c653a20636f6e747261637420697320616c72656160448201526d191e481a5b9a5d1a585b1a5e995960921b6064820152608490fd5b60fb8054737e8ae5c72eca86946b695dcc211863d9721a09616001600160a01b0319821681179092556040516001600160a01b03909116907f8be0079c531659141344cd1fd0a4f28419497f9722a3daafe3b4186f6b6457e090600090a356fe60806040526004361015610013575b600080fd5b60003560e01c806301ffc9a71461027f57806306fdde0314610276578063081812fc1461026d578063095ea7b314610264578063162094c41461025b578063217fe6c61461025257806323b872dd146102495780632c1e816d146102405780632dcf2e69146102375780633659cfe61461022e57806339d2525f1461022557806342842e0e1461021c57806342966c68146102135780634f1ef2861461020a57806352d1902d146102015780636352211e146101f857806365b014b7146101ef57806370a08231146101e6578063715018a6146101dd5780638129fc1c146101d45780638da5cb5b146101cb57806395d89b41146101c25780639e45576e146101b9578063a1448194146101b0578063a22cb465146101a7578063b88d4fde1461019e578063c18c277514610195578063c87b56dd1461018c578063dbf5132514610183578063e985e9c51461017a5763f2fde38b1461017257600080fd5b61000e61195d565b5061000e6118f2565b5061000e611819565b5061000e6117e5565b5061000e6117bc565b5061000e611764565b5061000e611672565b5061000e6114a4565b5061000e6113c1565b5061000e611319565b5061000e6112f1565b5061000e61120f565b5061000e6111af565b5061000e611109565b5061000e6110de565b5061000e6110bf565b5061000e610fe7565b5061000e610e4d565b5061000e610d30565b5061000e610cff565b5061000e610c60565b5061000e610ac3565b5061000e610a9a565b5061000e610a51565b5061000e61097c565b5061000e6108c0565b5061000e6106fd565b5061000e610495565b5061000e610454565b5061000e610377565b5061000e61029a565b6001600160e01b031981160361000e57565b503461000e57602036600319011261000e5760206004356102ba81610288565b63ffffffff60e01b166380ac58cd60e01b81149081156102f8575b81156102e7575b506040519015158152f35b6301ffc9a760e01b149050386102dc565b635b5e139f60e01b811491506102d5565b918091926000905b828210610329575011610322575050565b6000910152565b91508060209183015181860152018291610311565b9060209161035781518092818552858086019101610309565b601f01601f1916010190565b90602061037492818152019061033e565b90565b503461000e5760008060031936011261045157604051908060655461039b81611e24565b8085529160019180831690811561043057506001146103d5575b6103d1856103c581870382610669565b60405191829182610363565b0390f35b9250606583527f8ff97419363ffd7000167f130ef7168fbea05faf9251824ca5043f113cc6a7c75b8284106104185750505081016020016103c5826103d16103b5565b805460208587018101919091529093019281016103fd565b60ff1916602087015250506040840192506103c591508390506103d16103b5565b80fd5b503461000e57602036600319011261000e576020610473600435611e5e565b6001600160a01b0360405191168152f35b6001600160a01b0381160361000e57565b503461000e57604036600319011261000e5761057b6004356104b681610484565b602435906105766104df6104d3610193546001600160a01b031690565b6001600160a01b031690565b6104f56104d3610192546001600160a01b031690565b90604051631464454560e21b8152610559602093828581600482966001600160a01b038099165afa9081156105e4575b6000916105b7575b50604051633a82233360e11b8152600481018a9052602481019190915293849283919082906044820190565b0392165afa9182156105aa575b60009261057d575b505015612987565b612a45565b005b61059c9250803d106105a3575b6105948183610669565b810190612972565b388061056e565b503d61058a565b6105b2611b0f565b610566565b6105d79150843d86116105dd575b6105cf8183610669565b810190611b00565b3861052d565b503d6105c5565b6105ec611b0f565b610525565b50634e487b7160e01b600052604160045260246000fd5b6020810190811067ffffffffffffffff82111761062457604052565b61062c6105f1565b604052565b6040810190811067ffffffffffffffff82111761062457604052565b6060810190811067ffffffffffffffff82111761062457604052565b90601f8019910116810190811067ffffffffffffffff82111761062457604052565b60209067ffffffffffffffff81116106a9575b601f01601f19160190565b6106b16105f1565b61069e565b81601f8201121561000e578035906106cd8261068b565b926106db6040519485610669565b8284526020838301011161000e57816000926020809301838601378301015290565b503461000e57604036600319011261000e5767ffffffffffffffff60043560243582811161000e576107339036906004016106b6565b916107548260005260676020526001600160a01b0360406000205416151590565b1561083e5760009182526020906097825260408320918451918211610831575b610788826107828554611e24565b856123a6565b80601f83116001146107c457508394829394926107b9575b50508160011b916000199060031b1c1916179055604051f35b0151905038806107a0565b90601f198316956107da85600052602060002090565b9286905b88821061081957505083600195969710610800575b505050811b019055604051f35b015160001960f88460031b161c191690553880806107f3565b806001859682949686015181550195019301906107de565b6108396105f1565b610774565b60405162461bcd60e51b815260206004820152602e60248201527f45524337323155524953746f726167653a2055524920736574206f66206e6f6e60448201527f6578697374656e7420746f6b656e0000000000000000000000000000000000006064820152608490fd5b906108bc60209282815194859201610309565b0190565b503461000e57604036600319011261000e576004356108de81610484565b60243567ffffffffffffffff811161000e5761093360206103d1936001600160a01b0361091160ff9536906004016106b6565b911660005261012d825260406000208260405194838680955193849201610309565b820190815203019020546040519116151581529081906020820190565b606090600319011261000e5760043561096881610484565b9060243561097581610484565b9060443590565b503461000e5761057b61098e36610950565b91610a226109a86104d3610193546001600160a01b031690565b6109be6104d3610192546001600160a01b031690565b90604051631464454560e21b8152610559602093828581600482966001600160a01b038099165afa908115610a44575b600091610a27575b50604051633a82233360e11b8152600481018b9052602481019190915293849283919082906044820190565b612b78565b610a3e9150843d86116105dd576105cf8183610669565b386109f6565b610a4c611b0f565b6109ee565b503461000e57602036600319011261000e57600435610a6f81610484565b610a7761203e565b6001600160a01b0361019391166001600160a01b03198254161790556000604051f35b503461000e57600036600319011261000e5760206001600160a01b036101925416604051908152f35b503461000e57602036600319011261000e57600435610ae181610484565b6001600160a01b0390817f00000000000000000000000000000000000000000000000000000000000000001691610b1a83301415611a2b565b610b497f360894a13ba1a3210667c828492db98dca3e2076cc3735a920a3ca505d382bbc938285541614611a8c565b610b5161203e565b60405190610b5e82610608565b600082527f4910fdfa16fed3260ed0e7147f7cc6da11a60208b5b9406d12a635614ffd91435460ff1615610b9857505061057b9150611b7a565b6020600491604094939451928380926352d1902d60e01b825286165afa60009181610c36575b50610c235760405162461bcd60e51b815260206004820152602e60248201527f45524331393637557067726164653a206e657720696d706c656d656e7461746960448201526d6f6e206973206e6f74205555505360901b6064820152608490fd5b0390fd5b61057b93610c319114611b1c565b611c18565b610c4f91925060203d81116105dd576105cf8183610669565b9038610bbe565b8015150361000e57565b503461000e57606036600319011261000e57600435610c7e81610484565b6024359067ffffffffffffffff821161000e57610ce56020610ca761057b9436906004016106b6565b6001600160a01b0360443594610cbc86610c56565b610cc461203e565b1660005261012d825260406000208260405194838680955193849201610309565b8201908152030190209060ff801983541691151516179055565b503461000e5761057b610d1136610950565b91610d2b6109a86104d3610193546001600160a01b031690565b612d1e565b503461000e57602036600319011261000e57600435610d57610d528233611f02565b611ea0565b610d6081611e02565b508060006001600160a01b03610d7583611e02565b610d89846000526069602052604060002090565b82198154169055610dad816001600160a01b03166000526068602052604060002090565b83198154019055610de8610dcb856000526067602052604060002090565b805473ffffffffffffffffffffffffffffffffffffffff19169055565b167fddf252ad1be2c89b69c2b068fc378daa952ba7f163c4a11628f55a4df523b3ef82604051a4610e2b610e26826000526097602052604060002090565b61291c565b610e3157005b610e4861057b916000526097602052604060002090565b612926565b50604036600319011261000e57600435610e6681610484565b60243567ffffffffffffffff811161000e57610e869036906004016106b6565b906001600160a01b0391827f00000000000000000000000000000000000000000000000000000000000000001692610ec084301415611a2b565b610eef7f360894a13ba1a3210667c828492db98dca3e2076cc3735a920a3ca505d382bbc948286541614611a8c565b610ef761203e565b7f4910fdfa16fed3260ed0e7147f7cc6da11a60208b5b9406d12a635614ffd91435460ff1615610f2d57505061057b9150611b7a565b6020600491604094939451928380926352d1902d60e01b825286165afa60009181610fc7575b50610fb45760405162461bcd60e51b815260206004820152602e60248201527f45524331393637557067726164653a206e657720696d706c656d656e7461746960448201526d6f6e206973206e6f74205555505360901b6064820152608490fd5b61057b93610fc29114611b1c565b611d30565b610fe091925060203d81116105dd576105cf8183610669565b9038610f53565b503461000e57600036600319011261000e576001600160a01b037f0000000000000000000000000000000000000000000000000000000000000000163003611054576040517f360894a13ba1a3210667c828492db98dca3e2076cc3735a920a3ca505d382bbc8152602090f35b60405162461bcd60e51b815260206004820152603860248201527f555550535570677261646561626c653a206d757374206e6f742062652063616c60448201527f6c6564207468726f7567682064656c656761746563616c6c00000000000000006064820152608490fd5b503461000e57602036600319011261000e576020610473600435611e02565b503461000e57600036600319011261000e5761110160ff60005460081c16611fc3565b61057b612096565b503461000e57602036600319011261000e576001600160a01b0360043561112f81610484565b1680156111585760005260686020526103d1604060002054604051918291829190602083019252565b60405162461bcd60e51b815260206004820152602960248201527f4552433732313a2061646472657373207a65726f206973206e6f7420612076616044820152683634b21037bbb732b960b91b6064820152608490fd5b503461000e57600080600319360112610451576111ca61203e565b60fb546001600160a01b0319811660fb55816001600160a01b0360405192167f8be0079c531659141344cd1fd0a4f28419497f9722a3daafe3b4186f6b6457e08284a3f35b503461000e57600036600319011261000e5760005461124560ff8260081c1615809281936112e3575b81156112c3575b506120ea565b80611258600160ff196000541617600055565b6112aa575b61126561215c565b61126b57005b61127b61ff001960005416600055565b604051600181527f7f26b83ff96e1f2b6a682f133852f6798a09c465da95921460cefb384740249890602090a1005b6112be61010061ff00196000541617600055565b61125d565b303b159150816112d5575b503861123f565b6001915060ff1614386112ce565b600160ff8216109150611238565b503461000e57600036600319011261000e5760206001600160a01b0360fb5416604051908152f35b503461000e5760008060031936011261045157604051908060665461133d81611e24565b808552916001918083169081156104305750600114611366576103d1856103c581870382610669565b9250606683527f46501879b8ca8525e8c2fd519e2fbfcfa2ebea26501294aa02cbfcfb12e943545b8284106113a95750505081016020016103c5826103d16103b5565b8054602085870181019190915290930192810161138e565b503461000e57602036600319011261000e5761057b6004356113e281610484565b6113ea61203e565b6000806001600160a01b0360fb54166040519061140682610631565b601482527f6f776e65723a2025732073656e6465723a2025730000000000000000000000006020830152611475604051809261145b60208301956307e763af60e51b875260606024850152608484019061033e565b90604483015233606483015203601f198101835282610669565b51906a636f6e736f6c652e6c6f675afa506001600160a01b0361019291166001600160a01b0319825416179055565b503461000e5760408060031936011261000e57600435906114c482610484565b6024356114cf6124d8565b926114f16001600160a01b03948560fb54163314908115611638575b506124fa565b8251936114fd85610608565b60008552811680156115f55793826115ed928160009761154561154061153c6115f29960005260676020526001600160a01b0360406000205416151590565b1590565b6125ad565b61156b61154061153c8460005260676020526001600160a01b0360406000205416151590565b611588836001600160a01b03166000526068602052604060002090565b600181540190556115c2836115a7846000526067602052604060002090565b906001600160a01b03166001600160a01b0319825416179055565b887fddf252ad1be2c89b69c2b068fc378daa952ba7f163c4a11628f55a4df523b3ef818a51a4612669565b612546565b51f35b6064845162461bcd60e51b815260206004820152602060248201527f4552433732313a206d696e7420746f20746865207a65726f20616464726573736044820152fd5b60ff91506020611661913360005261012d82528760002082895194838680955193849201610309565b8201908152030190205416386114eb565b503461000e57604036600319011261000e5760043561169081610484565b60243561169c81610c56565b6001600160a01b0382169182331461171f57816116dc6116ed9233600052606a6020526040600020906001600160a01b0316600052602052604060002090565b9060ff801983541691151516179055565b604051901515815233907f17307eab39ab6107e8899845ad3d59bd9653f200f220920489ca2b5937696c3190602090a3005b60405162461bcd60e51b815260206004820152601960248201527f4552433732313a20617070726f766520746f2063616c6c6572000000000000006044820152606490fd5b503461000e57608036600319011261000e5760043561178281610484565b60243561178e81610484565b6064359167ffffffffffffffff831161000e576117b261057b9336906004016106b6565b9160443591612d36565b503461000e57600036600319011261000e5760206001600160a01b036101935416604051908152f35b503461000e57602036600319011261000e576103d16118056004356127b5565b60405191829160208352602083019061033e565b503461000e57602036600319011261000e576004356118366124d8565b6118566001600160a01b03918260fb541633149081156118c757506124fa565b6118768260005260676020526001600160a01b0360406000205416151590565b61187c57005b6000829161188983611e02565b5061189383611e02565b6118aa610dcb856000526069602052604060002090565b610dad816001600160a01b03166000526068602052604060002090565b60ff91506020611661913360005261012d825260406000208260405194838680955193849201610309565b503461000e57604036600319011261000e57602060ff61195160043561191781610484565b6001600160a01b036024359161192c83610484565b16600052606a84526040600020906001600160a01b0316600052602052604060002090565b54166040519015158152f35b503461000e57602036600319011261000e5760043561197b81610484565b61198361203e565b6001600160a01b038091169081156119d75760009160fb5491816001600160a01b031984161760fb5560405192167f8be0079c531659141344cd1fd0a4f28419497f9722a3daafe3b4186f6b6457e08484a3f35b60405162461bcd60e51b815260206004820152602660248201527f4f776e61626c653a206e6577206f776e657220697320746865207a65726f206160448201526564647265737360d01b6064820152608490fd5b15611a3257565b60405162461bcd60e51b815260206004820152602c60248201527f46756e6374696f6e206d7573742062652063616c6c6564207468726f7567682060448201526b19195b1959d85d1958d85b1b60a21b6064820152608490fd5b15611a9357565b60405162461bcd60e51b815260206004820152602c60248201527f46756e6374696f6e206d7573742062652063616c6c6564207468726f7567682060448201526b6163746976652070726f787960a01b6064820152608490fd5b60405190611afa82610608565b60008252565b9081602091031261000e575190565b506040513d6000823e3d90fd5b15611b2357565b60405162461bcd60e51b815260206004820152602960248201527f45524331393637557067726164653a20756e737570706f727465642070726f786044820152681a58589b195555525160ba1b6064820152608490fd5b803b15611bbd576001600160a01b037f360894a13ba1a3210667c828492db98dca3e2076cc3735a920a3ca505d382bbc91166001600160a01b0319825416179055565b60405162461bcd60e51b815260206004820152602d60248201527f455243313936373a206e657720696d706c656d656e746174696f6e206973206e60448201526c1bdd08184818dbdb9d1c9858dd609a1b6064820152608490fd5b611c2181611b7a565b6040516001600160a01b0382167fbc7cd75a20ee27fd9adebab32041f755214dbc6bffa90cc0225b39da2e5c2d3b600083a2825115801590611d28575b611c6757505050565b813b15611cd7575060008281926020611cd495519201905af4611c88611d86565b60405191611c958361064d565b602783527f416464726573733a206c6f772d6c6576656c2064656c65676174652063616c6c6020840152660819985a5b195960ca1b6040840152611f83565b50565b62461bcd60e51b815260206004820152602660248201527f416464726573733a2064656c65676174652063616c6c20746f206e6f6e2d636f6044820152651b9d1c9858dd60d21b6064820152608490fd5b506000611c5e565b611d3981611b7a565b6040516001600160a01b0382167fbc7cd75a20ee27fd9adebab32041f755214dbc6bffa90cc0225b39da2e5c2d3b600083a2825115801590611d7e57611c6757505050565b506001611c5e565b3d15611db1573d90611d978261068b565b91611da56040519384610669565b82523d6000602084013e565b606090565b15611dbd57565b60405162461bcd60e51b815260206004820152601860248201527f4552433732313a20696e76616c696420746f6b656e20494400000000000000006044820152606490fd5b60005260676020526001600160a01b0360406000205416610374811515611db6565b90600182811c92168015611e54575b6020831014611e3e57565b634e487b7160e01b600052602260045260246000fd5b91607f1691611e33565b611e86611e818260005260676020526001600160a01b0360406000205416151590565b611db6565b60005260696020526001600160a01b036040600020541690565b15611ea757565b60405162461bcd60e51b815260206004820152602d60248201527f4552433732313a2063616c6c6572206973206e6f7420746f6b656e206f776e6560448201526c1c881bdc88185c1c1c9bdd9959609a1b6064820152608490fd5b6001600160a01b0380611f1484611e02565b169281831692848414948515611f4a575b50508315611f34575b50505090565b611f4091929350611e5e565b1614388080611f2e565b60ff92955090611f7991600052606a6020526040600020906001600160a01b0316600052602052604060002090565b5416923880611f25565b90919015611f8f575090565b815115611f9f5750805190602001fd5b60405162461bcd60e51b815260206004820152908190610c1f90602483019061033e565b15611fca57565b60405162461bcd60e51b815260206004820152602b60248201527f496e697469616c697a61626c653a20636f6e7472616374206973206e6f74206960448201526a6e697469616c697a696e6760a81b6064820152608490fd5b61203460ff60005460081c16611fc3565b61203c612096565b565b6001600160a01b0360fb5416330361205257565b606460405162461bcd60e51b815260206004820152602060248201527f4f776e61626c653a2063616c6c6572206973206e6f7420746865206f776e65726044820152fd5b60fb546001600160a01b03737e8ae5c72eca86946b695dcc211863d9721a09619182821982161760fb55167f8be0079c531659141344cd1fd0a4f28419497f9722a3daafe3b4186f6b6457e06000604051a3565b156120f157565b60405162461bcd60e51b815260206004820152602e60248201527f496e697469616c697a61626c653a20636f6e747261637420697320616c72656160448201527f647920696e697469616c697a65640000000000000000000000000000000000006064820152608490fd5b60405161216881610631565b6016815260207f506572694669204c6f616e20547275737420446565640000000000000000000081830152604051906121a082610631565b600382526214151160ea1b818301526121c960ff60005460081c166121c481611fc3565b611fc3565b82519067ffffffffffffffff82116122cb575b6121f0826121eb606554611e24565b6122ef565b80601f8311600114612238575081906122259460009261222d575b50508160011b916000199060031b1c1916176065556123e0565b61203c612023565b01519050388061220b565b919293601f19841661226c60656000527f8ff97419363ffd7000167f130ef7168fbea05faf9251824ca5043f113cc6a7c790565b936000905b8282106122b35750509160019391856122259796941061229a575b505050811b016065556123e0565b015160001960f88460031b161c1916905538808061228c565b80600186978294978701518155019601940190612271565b6122d36105f1565b6121dc565b8181106122e3575050565b600081556001016122d8565b90601f82116122fc575050565b61203c9160656000527f8ff97419363ffd7000167f130ef7168fbea05faf9251824ca5043f113cc6a7c7906020601f840160051c83019310612346575b601f0160051c01906122d8565b9091508190612339565b90601f821161235d575050565b61203c9160666000527f46501879b8ca8525e8c2fd519e2fbfcfa2ebea26501294aa02cbfcfb12e94354906020601f840160051c8301931061234657601f0160051c01906122d8565b9190601f81116123b557505050565b61203c926000526020600020906020601f840160051c8301931061234657601f0160051c01906122d8565b90815167ffffffffffffffff81116124cb575b61240781612402606654611e24565b612350565b602080601f83116001146124435750819293600092612438575b50508160011b916000199060031b1c191617606655565b015190503880612421565b90601f1983169461247660666000527f46501879b8ca8525e8c2fd519e2fbfcfa2ebea26501294aa02cbfcfb12e9435490565b926000905b8782106124b357505083600195961061249a575b505050811b01606655565b015160001960f88460031b161c1916905538808061248f565b8060018596829496860151815501950193019061247b565b6124d36105f1565b6123f3565b604051906124e582610631565b600682526536b4b73a32b960d11b6020830152565b1561250157565b60405162461bcd60e51b815260206004820152600e60248201527f4e6f7420617574686f72697a65640000000000000000000000000000000000006044820152606490fd5b1561254d57565b60405162461bcd60e51b815260206004820152603260248201527f4552433732313a207472616e7366657220746f206e6f6e20455243373231526560448201527131b2b4bb32b91034b6b83632b6b2b73a32b960711b6064820152608490fd5b156125b457565b60405162461bcd60e51b815260206004820152601c60248201527f4552433732313a20746f6b656e20616c7265616479206d696e746564000000006044820152606490fd5b9081602091031261000e575161037481610288565b61037493926001600160a01b03608093168252600060208301526040820152816060820152019061033e565b909261037494936080936001600160a01b0380921684521660208301526040820152816060820152019061033e565b909190803b15612769576126a36020916001600160a01b03936000604051958680958194630a85bd0160e11b9a8b8452336004850161260e565b0393165af160009181612739575b5061272b576126be611d86565b805190816127265760405162461bcd60e51b815260206004820152603260248201527f4552433732313a207472616e7366657220746f206e6f6e20455243373231526560448201527131b2b4bb32b91034b6b83632b6b2b73a32b960711b6064820152608490fd5b602001fd5b6001600160e01b0319161490565b61275b91925060203d8111612762575b6127538183610669565b8101906125f9565b90386126b1565b503d612749565b505050600190565b92909190823b156127ac576126a39260209260006001600160a01b03604051809781968295630a85bd0160e11b9b8c8552336004860161263a565b50505050600190565b6127d8611e818260005260676020526001600160a01b0360406000205416151590565b60009080825260206097815260408320604051848195908354906127fb82611e24565b808552946001928084169081156128b7575060011461287b575b50505061282492500384610669565b61282c611aed565b9283511561287457805161284657505061037491506128d7565b6103749250612866906128606040519586948501906108a9565b906108a9565b03601f198101835282610669565b9250505090565b869350819291528282205b85831061289f5750506128249350820101388080612815565b8054838a018501528894508693909201918101612886565b965050505050505060ff1916818401526128248360408101388080612815565b611e816128fa9160005260676020526001600160a01b0360406000205416151590565b600060405161290881610608565b5260405161291581610608565b6000815290565b6103749054611e24565b6129308154611e24565b908161293a575050565b81601f6000931160011461294c575055565b8183526020832061296891601f0160051c8101906001016122d8565b8160208120915555565b9081602091031261000e575161037481610c56565b1561298e57565b60405162461bcd60e51b815260206004820152600f60248201527f4c6f616e206973206f76657264756500000000000000000000000000000000006044820152606490fd5b156129da57565b60405162461bcd60e51b815260206004820152603d60248201527f4552433732313a20617070726f76652063616c6c6572206973206e6f7420746f60448201527f6b656e206f776e6572206f7220617070726f76656420666f7220616c6c0000006064820152608490fd5b906001600160a01b039182612a5983611e02565b168093821614612ab6578261203c9333148015612a80575b612a7b91506129d3565b612b05565b50600052606a602052612a7b60ff612aaf336040600020906001600160a01b0316600052602052604060002090565b5416612a71565b60405162461bcd60e51b815260206004820152602160248201527f4552433732313a20617070726f76616c20746f2063757272656e74206f776e656044820152603960f91b6064820152608490fd5b6000828152606960205260409020805473ffffffffffffffffffffffffffffffffffffffff19166001600160a01b0383161790556001600160a01b0380612b4b84611e02565b169116907f8c5be1e5ebec7d5bd14f71427d1e84f3dd0314c0f7b2291e5b200ac8c7c3b9256000604051a4565b9061203c9291612b8b610d528433611f02565b612bea565b15612b9757565b60405162461bcd60e51b815260206004820152602560248201527f4552433732313a207472616e736665722066726f6d20696e636f72726563742060448201526437bbb732b960d91b6064820152608490fd5b612c0e90612bf784611e02565b6001600160a01b0382811693909182168414612b90565b8316928315612ccd57612c64612ca492612c3485612c2e6104d38a611e02565b14612b90565b612c4b610dcb886000526069602052604060002090565b6001600160a01b03166000526068602052604060002090565b6000198154019055612c89816001600160a01b03166000526068602052604060002090565b600181540190556115a7856000526067602052604060002090565b7fddf252ad1be2c89b69c2b068fc378daa952ba7f163c4a11628f55a4df523b3ef6000604051a4565b60405162461bcd60e51b8152602060048201526024808201527f4552433732313a207472616e7366657220746f20746865207a65726f206164646044820152637265737360e01b6064820152608490fd5b909161203c9260405192612d3184610608565b600084525b9061203c939291612d566109a86104d3610193546001600160a01b031690565b9161203c93916115ed93612d6d610d528433611f02565b612d78838383612bea565b61277156fea264697066735822122011f653c002de36d1f7f3647bf9ce0c195d9233986b44272a56a847e50ece1e2864736f6c634300080e0033",
  "devdoc": {
    "kind": "dev",
    "methods": {
      "approve(address,uint256)": {
        "details": "See {IERC721-approve}."
      },
      "balanceOf(address)": {
        "details": "See {IERC721-balanceOf}."
      },
      "burn(uint256)": {
        "details": "Burns `tokenId`. See {ERC721-_burn}. Requirements: - The caller must own `tokenId` or be an approved operator."
      },
      "getApproved(uint256)": {
        "details": "See {IERC721-getApproved}."
      },
      "isApprovedForAll(address,address)": {
        "details": "See {IERC721-isApprovedForAll}."
      },
      "name()": {
        "details": "See {IERC721Metadata-name}."
      },
      "owner()": {
        "details": "Returns the address of the current owner."
      },
      "ownerOf(uint256)": {
        "details": "See {IERC721-ownerOf}."
      },
      "proxiableUUID()": {
        "details": "Implementation of the ERC1822 {proxiableUUID} function. This returns the storage slot used by the implementation. It is used to validate the implementation's compatibility when performing an upgrade. IMPORTANT: A proxy pointing at a proxiable contract should not be considered proxiable itself, because this risks bricking a proxy that upgrades to it, by delegating to itself until out of gas. Thus it is critical that this function revert if invoked through a proxy. This is guaranteed by the `notDelegated` modifier."
      },
      "renounceOwnership()": {
        "details": "Leaves the contract without owner. It will not be possible to call `onlyOwner` functions anymore. Can only be called by the current owner. NOTE: Renouncing ownership will leave the contract without an owner, thereby removing any functionality that is only available to the owner."
      },
      "safeTransferFrom(address,address,uint256)": {
        "details": "See {IERC721-safeTransferFrom}."
      },
      "setApprovalForAll(address,bool)": {
        "details": "See {IERC721-setApprovalForAll}."
      },
      "supportsInterface(bytes4)": {
        "details": "See {IERC165-supportsInterface}."
      },
      "symbol()": {
        "details": "See {IERC721Metadata-symbol}."
      },
      "transferFrom(address,address,uint256)": {
        "details": "See {IERC721-transferFrom}."
      },
      "transferOwnership(address)": {
        "details": "Transfers ownership of the contract to a new account (`newOwner`). Can only be called by the current owner."
      },
      "upgradeTo(address)": {
        "details": "Upgrade the implementation of the proxy to `newImplementation`. Calls {_authorizeUpgrade}. Emits an {Upgraded} event."
      },
      "upgradeToAndCall(address,bytes)": {
        "details": "Upgrade the implementation of the proxy to `newImplementation`, and subsequently execute the function call encoded in `data`. Calls {_authorizeUpgrade}. Emits an {Upgraded} event."
      }
    },
    "version": 1
  },
  "userdoc": {
    "kind": "user",
    "methods": {},
    "version": 1
  },
  "storageLayout": {
    "storage": [
      {
        "astId": 674,
        "contract": "contracts/loan/TrustDeed.sol:TrustDeed",
        "label": "_initialized",
        "offset": 0,
        "slot": "0",
        "type": "t_uint8"
      },
      {
        "astId": 677,
        "contract": "contracts/loan/TrustDeed.sol:TrustDeed",
        "label": "_initializing",
        "offset": 1,
        "slot": "0",
        "type": "t_bool"
      },
      {
        "astId": 4007,
        "contract": "contracts/loan/TrustDeed.sol:TrustDeed",
        "label": "__gap",
        "offset": 0,
        "slot": "1",
        "type": "t_array(t_uint256)50_storage"
      },
      {
        "astId": 4788,
        "contract": "contracts/loan/TrustDeed.sol:TrustDeed",
        "label": "__gap",
        "offset": 0,
        "slot": "51",
        "type": "t_array(t_uint256)50_storage"
      },
      {
        "astId": 1980,
        "contract": "contracts/loan/TrustDeed.sol:TrustDeed",
        "label": "_name",
        "offset": 0,
        "slot": "101",
        "type": "t_string_storage"
      },
      {
        "astId": 1982,
        "contract": "contracts/loan/TrustDeed.sol:TrustDeed",
        "label": "_symbol",
        "offset": 0,
        "slot": "102",
        "type": "t_string_storage"
      },
      {
        "astId": 1986,
        "contract": "contracts/loan/TrustDeed.sol:TrustDeed",
        "label": "_owners",
        "offset": 0,
        "slot": "103",
        "type": "t_mapping(t_uint256,t_address)"
      },
      {
        "astId": 1990,
        "contract": "contracts/loan/TrustDeed.sol:TrustDeed",
        "label": "_balances",
        "offset": 0,
        "slot": "104",
        "type": "t_mapping(t_address,t_uint256)"
      },
      {
        "astId": 1994,
        "contract": "contracts/loan/TrustDeed.sol:TrustDeed",
        "label": "_tokenApprovals",
        "offset": 0,
        "slot": "105",
        "type": "t_mapping(t_uint256,t_address)"
      },
      {
        "astId": 2000,
        "contract": "contracts/loan/TrustDeed.sol:TrustDeed",
        "label": "_operatorApprovals",
        "offset": 0,
        "slot": "106",
        "type": "t_mapping(t_address,t_mapping(t_address,t_bool))"
      },
      {
        "astId": 2920,
        "contract": "contracts/loan/TrustDeed.sol:TrustDeed",
        "label": "__gap",
        "offset": 0,
        "slot": "107",
        "type": "t_array(t_uint256)44_storage"
      },
      {
        "astId": 3507,
        "contract": "contracts/loan/TrustDeed.sol:TrustDeed",
        "label": "_tokenURIs",
        "offset": 0,
        "slot": "151",
        "type": "t_mapping(t_uint256,t_string_storage)"
      },
      {
        "astId": 3623,
        "contract": "contracts/loan/TrustDeed.sol:TrustDeed",
        "label": "__gap",
        "offset": 0,
        "slot": "152",
        "type": "t_array(t_uint256)49_storage"
      },
      {
        "astId": 3104,
        "contract": "contracts/loan/TrustDeed.sol:TrustDeed",
        "label": "__gap",
        "offset": 0,
        "slot": "201",
        "type": "t_array(t_uint256)50_storage"
      },
      {
        "astId": 9827,
        "contract": "contracts/loan/TrustDeed.sol:TrustDeed",
        "label": "_owner",
        "offset": 0,
        "slot": "251",
        "type": "t_address"
      },
      {
        "astId": 9947,
        "contract": "contracts/loan/TrustDeed.sol:TrustDeed",
        "label": "__gap",
        "offset": 0,
        "slot": "252",
        "type": "t_array(t_uint256)49_storage"
      },
      {
        "astId": 9959,
        "contract": "contracts/loan/TrustDeed.sol:TrustDeed",
        "label": "hasRole",
        "offset": 0,
        "slot": "301",
        "type": "t_mapping(t_address,t_mapping(t_string_memory_ptr,t_bool))"
      },
      {
        "astId": 656,
        "contract": "contracts/loan/TrustDeed.sol:TrustDeed",
        "label": "__gap",
        "offset": 0,
        "slot": "302",
        "type": "t_array(t_uint256)50_storage"
      },
      {
        "astId": 971,
        "contract": "contracts/loan/TrustDeed.sol:TrustDeed",
        "label": "__gap",
        "offset": 0,
        "slot": "352",
        "type": "t_array(t_uint256)50_storage"
      },
      {
        "astId": 25112,
        "contract": "contracts/loan/TrustDeed.sol:TrustDeed",
        "label": "periFiLoanAddr",
        "offset": 0,
        "slot": "402",
        "type": "t_address_payable"
      },
      {
        "astId": 25114,
        "contract": "contracts/loan/TrustDeed.sol:TrustDeed",
        "label": "periFiAdminAddr",
        "offset": 0,
        "slot": "403",
        "type": "t_address"
      }
    ],
    "types": {
      "t_address": {
        "encoding": "inplace",
        "label": "address",
        "numberOfBytes": "20"
      },
      "t_address_payable": {
        "encoding": "inplace",
        "label": "address payable",
        "numberOfBytes": "20"
      },
      "t_array(t_uint256)44_storage": {
        "base": "t_uint256",
        "encoding": "inplace",
        "label": "uint256[44]",
        "numberOfBytes": "1408"
      },
      "t_array(t_uint256)49_storage": {
        "base": "t_uint256",
        "encoding": "inplace",
        "label": "uint256[49]",
        "numberOfBytes": "1568"
      },
      "t_array(t_uint256)50_storage": {
        "base": "t_uint256",
        "encoding": "inplace",
        "label": "uint256[50]",
        "numberOfBytes": "1600"
      },
      "t_bool": {
        "encoding": "inplace",
        "label": "bool",
        "numberOfBytes": "1"
      },
      "t_mapping(t_address,t_bool)": {
        "encoding": "mapping",
        "key": "t_address",
        "label": "mapping(address => bool)",
        "numberOfBytes": "32",
        "value": "t_bool"
      },
      "t_mapping(t_address,t_mapping(t_address,t_bool))": {
        "encoding": "mapping",
        "key": "t_address",
        "label": "mapping(address => mapping(address => bool))",
        "numberOfBytes": "32",
        "value": "t_mapping(t_address,t_bool)"
      },
      "t_mapping(t_address,t_mapping(t_string_memory_ptr,t_bool))": {
        "encoding": "mapping",
        "key": "t_address",
        "label": "mapping(address => mapping(string => bool))",
        "numberOfBytes": "32",
        "value": "t_mapping(t_string_memory_ptr,t_bool)"
      },
      "t_mapping(t_address,t_uint256)": {
        "encoding": "mapping",
        "key": "t_address",
        "label": "mapping(address => uint256)",
        "numberOfBytes": "32",
        "value": "t_uint256"
      },
      "t_mapping(t_string_memory_ptr,t_bool)": {
        "encoding": "mapping",
        "key": "t_string_memory_ptr",
        "label": "mapping(string => bool)",
        "numberOfBytes": "32",
        "value": "t_bool"
      },
      "t_mapping(t_uint256,t_address)": {
        "encoding": "mapping",
        "key": "t_uint256",
        "label": "mapping(uint256 => address)",
        "numberOfBytes": "32",
        "value": "t_address"
      },
      "t_mapping(t_uint256,t_string_storage)": {
        "encoding": "mapping",
        "key": "t_uint256",
        "label": "mapping(uint256 => string)",
        "numberOfBytes": "32",
        "value": "t_string_storage"
      },
      "t_string_memory_ptr": {
        "encoding": "bytes",
        "label": "string",
        "numberOfBytes": "32"
      },
      "t_string_storage": {
        "encoding": "bytes",
        "label": "string",
        "numberOfBytes": "32"
      },
      "t_uint256": {
        "encoding": "inplace",
        "label": "uint256",
        "numberOfBytes": "32"
      },
      "t_uint8": {
        "encoding": "inplace",
        "label": "uint8",
        "numberOfBytes": "1"
      }
    }
  }
}