{
  "address": "0x1eEe5638F1a296dC8bd6c52f7cD5F488155A9FA5",
  "abi": [
    {
      "anonymous": false,
      "inputs": [
        {
          "indexed": false,
          "internalType": "address",
          "name": "previousAdmin",
          "type": "address"
        },
        {
          "indexed": false,
          "internalType": "address",
          "name": "newAdmin",
          "type": "address"
        }
      ],
      "name": "AdminChanged",
      "type": "event"
    },
    {
      "anonymous": false,
      "inputs": [
        {
          "indexed": true,
          "internalType": "address",
          "name": "beacon",
          "type": "address"
        }
      ],
      "name": "BeaconUpgraded",
      "type": "event"
    },
    {
      "anonymous": false,
      "inputs": [
        {
          "indexed": false,
          "internalType": "uint256",
          "name": "targetChainId",
          "type": "uint256"
        },
        {
          "indexed": false,
          "internalType": "address",
          "name": "sender",
          "type": "address"
        },
        {
          "indexed": false,
          "internalType": "address",
          "name": "recipient",
          "type": "address"
        },
        {
          "indexed": false,
          "internalType": "uint8",
          "name": "cardLevel",
          "type": "uint8"
        },
        {
          "indexed": false,
          "internalType": "uint256",
          "name": "tokenId",
          "type": "uint256"
        },
        {
          "indexed": false,
          "internalType": "bool",
          "name": "revealed",
          "type": "bool"
        },
        {
          "indexed": false,
          "internalType": "string",
          "name": "tokenHash",
          "type": "string"
        },
        {
          "indexed": false,
          "internalType": "uint256",
          "name": "nonce",
          "type": "uint256"
        },
        {
          "indexed": false,
          "internalType": "uint48",
          "name": "enteredAt",
          "type": "uint48"
        }
      ],
      "name": "EnterBridge",
      "type": "event"
    },
    {
      "anonymous": false,
      "inputs": [
        {
          "indexed": false,
          "internalType": "uint8",
          "name": "version",
          "type": "uint8"
        }
      ],
      "name": "Initialized",
      "type": "event"
    },
    {
      "anonymous": false,
      "inputs": [
        {
          "indexed": false,
          "internalType": "uint256",
          "name": "nonce",
          "type": "uint256"
        },
        {
          "indexed": false,
          "internalType": "uint256",
          "name": "sourceChainId",
          "type": "uint256"
        },
        {
          "indexed": false,
          "internalType": "uint48",
          "name": "leftAt",
          "type": "uint48"
        }
      ],
      "name": "LeaveBridge",
      "type": "event"
    },
    {
      "anonymous": false,
      "inputs": [
        {
          "indexed": true,
          "internalType": "address",
          "name": "previousOwner",
          "type": "address"
        },
        {
          "indexed": true,
          "internalType": "address",
          "name": "newOwner",
          "type": "address"
        }
      ],
      "name": "OwnershipTransferred",
      "type": "event"
    },
    {
      "anonymous": false,
      "inputs": [
        {
          "indexed": true,
          "internalType": "address",
          "name": "implementation",
          "type": "address"
        }
      ],
      "name": "Upgraded",
      "type": "event"
    },
    {
      "inputs": [],
      "name": "__MWOwnable_init",
      "outputs": [],
      "stateMutability": "nonpayable",
      "type": "function"
    },
    {
      "inputs": [
        {
          "internalType": "uint256",
          "name": "_targetChainId",
          "type": "uint256"
        },
        {
          "internalType": "address",
          "name": "_recipient",
          "type": "address"
        },
        {
          "internalType": "uint8",
          "name": "_cardLevel",
          "type": "uint8"
        },
        {
          "internalType": "uint256",
          "name": "_tokenId",
          "type": "uint256"
        }
      ],
      "name": "enterBridge",
      "outputs": [],
      "stateMutability": "nonpayable",
      "type": "function"
    },
    {
      "inputs": [
        {
          "internalType": "contract PERIv2[]",
          "name": "_vpcs",
          "type": "address[]"
        },
        {
          "internalType": "contract IERC20[]",
          "name": "_tickets",
          "type": "address[]"
        },
        {
          "internalType": "uint256[]",
          "name": "_supportedChainIds",
          "type": "uint256[]"
        },
        {
          "internalType": "contract Vault",
          "name": "_curationRewardPool",
          "type": "address"
        },
        {
          "internalType": "contract NEND",
          "name": "_nend",
          "type": "address"
        }
      ],
      "name": "initialize",
      "outputs": [],
      "stateMutability": "nonpayable",
      "type": "function"
    },
    {
      "inputs": [
        {
          "internalType": "uint256",
          "name": "_sourceChainId",
          "type": "uint256"
        },
        {
          "internalType": "address",
          "name": "_recipient",
          "type": "address"
        },
        {
          "internalType": "uint8",
          "name": "_cardLevel",
          "type": "uint8"
        },
        {
          "internalType": "uint256",
          "name": "_tokenId",
          "type": "uint256"
        },
        {
          "internalType": "bool",
          "name": "_revealed",
          "type": "bool"
        },
        {
          "internalType": "string",
          "name": "_tokenHash",
          "type": "string"
        },
        {
          "internalType": "uint256",
          "name": "_nonce",
          "type": "uint256"
        },
        {
          "internalType": "bytes",
          "name": "_signature",
          "type": "bytes"
        }
      ],
      "name": "leaveBridge",
      "outputs": [],
      "stateMutability": "nonpayable",
      "type": "function"
    },
    {
      "inputs": [],
      "name": "owner",
      "outputs": [
        {
          "internalType": "address",
          "name": "",
          "type": "address"
        }
      ],
      "stateMutability": "view",
      "type": "function"
    },
    {
      "inputs": [],
      "name": "proxiableUUID",
      "outputs": [
        {
          "internalType": "bytes32",
          "name": "",
          "type": "bytes32"
        }
      ],
      "stateMutability": "view",
      "type": "function"
    },
    {
      "inputs": [],
      "name": "renounceOwnership",
      "outputs": [],
      "stateMutability": "nonpayable",
      "type": "function"
    },
    {
      "inputs": [
        {
          "internalType": "uint256",
          "name": "",
          "type": "uint256"
        }
      ],
      "name": "supportedChainIds",
      "outputs": [
        {
          "internalType": "uint256",
          "name": "",
          "type": "uint256"
        }
      ],
      "stateMutability": "view",
      "type": "function"
    },
    {
      "inputs": [
        {
          "internalType": "address",
          "name": "newOwner",
          "type": "address"
        }
      ],
      "name": "transferOwnership",
      "outputs": [],
      "stateMutability": "nonpayable",
      "type": "function"
    },
    {
      "inputs": [
        {
          "internalType": "address",
          "name": "newImplementation",
          "type": "address"
        }
      ],
      "name": "upgradeTo",
      "outputs": [],
      "stateMutability": "nonpayable",
      "type": "function"
    },
    {
      "inputs": [
        {
          "internalType": "address",
          "name": "newImplementation",
          "type": "address"
        },
        {
          "internalType": "bytes",
          "name": "data",
          "type": "bytes"
        }
      ],
      "name": "upgradeToAndCall",
      "outputs": [],
      "stateMutability": "payable",
      "type": "function"
    },
    {
      "inputs": [
        {
          "internalType": "uint256",
          "name": "",
          "type": "uint256"
        }
      ],
      "name": "vpcs",
      "outputs": [
        {
          "internalType": "contract PERIv2",
          "name": "",
          "type": "address"
        }
      ],
      "stateMutability": "view",
      "type": "function"
    }
  ],
  "transactionHash": "0xcbeb990a0a23e111a044033cb92bf0e53baf0808fa7c7ef05f94872b7a9f8f75",
  "args": [],
  "numDeployments": 1,
  "solcInputHash": "5f4e724599e3a7403e26c4f96c760b8c",
  "bytecode": "0x60a06040523462000118576000546200003260ff8260081c16158092819362000109575b8115620000e6575b506200011d565b8062000046600160ff196000541617600055565b620000cb575b6200005662000181565b62000087575b306080526040516126ca9081620001fb8239608051818181610529015281816109390152610ab40152f35b6200009861ff001960005416600055565b604051600181527f7f26b83ff96e1f2b6a682f133852f6798a09c465da95921460cefb384740249890602090a16200005c565b620000e061010061ff00196000541617600055565b6200004c565b303b15915081620000fa575b50386200002b565b6001915060ff161438620000f2565b600160ff821610915062000023565b600080fd5b156200012557565b60405162461bcd60e51b815260206004820152602e60248201527f496e697469616c697a61626c653a20636f6e747261637420697320616c72656160448201526d191e481a5b9a5d1a585b1a5e995960921b6064820152608490fd5b6000805462010000600160b01b03198116757e8ae5c72eca86946b695dcc211863d9721a09610000178255604051737e8ae5c72eca86946b695dcc211863d9721a09619260109290921c6001600160a01b0316917f8be0079c531659141344cd1fd0a4f28419497f9722a3daafe3b4186f6b6457e091a356fe60806040526004361015610013575b600080fd5b60003560e01c80632df9f3f7146101035780633659cfe6146100fa5780634a3f2be0146100f15780634cf2ab32146100e85780634f1ef286146100df57806352d1902d146100d65780635cf568cd146100cd57806365b014b7146100c4578063715018a6146100bb5780638da5cb5b146100b2578063f2fde38b146100a95763ffc0850f146100a157600080fd5b61000e610ec4565b5061000e610cdd565b5061000e610cb2565b5061000e610c4c565b5061000e610bcb565b5061000e610b70565b5061000e610a98565b5061000e6108f3565b5061000e6108a1565b5061000e6107b0565b5061000e6104ff565b5061000e61012d565b6001600160a01b0381160361000e57565b6044359060ff8216820361000e57565b503461000e57608036600319011261000e5760243561014b8161010c565b61015361011d565b906064359161017160ff8216600181101590816104f3575b50611b03565b6101a761019b61018861018384611b4f565b61085c565b90546001600160a01b039160031b1c1690565b6001600160a01b031690565b906040928351926331a9108f60e11b84526020936101fb6004918681806101d58c8783019190602083019252565b0381875afa9081156104e6575b6000916104b9575b506001600160a01b03163314611b84565b61021061019b6097546001600160a01b031690565b61022561019b6098546001600160a01b031690565b875163c002d23d60e01b815287818581885afa9081156104ac575b60009161047f575b50823b1561000e5761028892600092838b51809681958294632770a7eb60e21b84528a8401602090939291936001600160a01b0360408201951681520152565b03925af18015610472575b61045f575b50813b1561000e5785516323b872dd60e01b815233828201908152306020820152604081018990526000987f7fcd41b856b58df3f891055d587c8102c43582176268717046e94415617fcdf8976103ba95919390928b9082908190606001038183865af18015610452575b610439575b508851632084ab8360e01b81528481018481528390829081906020010381855afa92831561042c575b8b936103fd575b5050898951809263c87b56dd60e01b8252818061035c888a83019190602083019252565b03915afa9081156103f0575b8a916103cf575b50818a146103c0578061038561038b9251611c2f565b90612578565b905b609a54926103a261039d85611c63565b609a55565b895197889765ffffffffffff4216963390358a611c73565b0390a151f35b506103c961105d565b9061038d565b6103ea913d8091833e6103e2818361070e565b810190611bd0565b3861036f565b6103f861107f565b610368565b61041d929350803d10610425575b610415818361070e565b810190611725565b903880610338565b503d61040b565b61043461107f565b610331565b8061044661044c926106b5565b80610a8d565b38610308565b61045a61107f565b610303565b8061044661046c926106b5565b38610298565b61047a61107f565b610293565b61049f9150883d8a116104a5575b610497818361070e565b810190611070565b38610248565b503d61048d565b6104b461107f565b610240565b6104d99150873d89116104df575b6104d1818361070e565b810190611b6f565b386101ea565b503d6104c7565b6104ee61107f565b6101e2565b6004915011153861016b565b503461000e57602036600319011261000e5760043561051d8161010c565b6001600160a01b0390817f0000000000000000000000000000000000000000000000000000000000000000169161055683301415610f9b565b6105857f360894a13ba1a3210667c828492db98dca3e2076cc3735a920a3ca505d382bbc938285541614610ffc565b61058d61145a565b6040519061059a826106d6565b600082527f4910fdfa16fed3260ed0e7147f7cc6da11a60208b5b9406d12a635614ffd91435460ff16156105d65750506105d491506110ea565b005b6020600491604094939451928380926352d1902d60e01b825286165afa60009181610674575b506106615760405162461bcd60e51b815260206004820152602e60248201527f45524331393637557067726164653a206e657720696d706c656d656e7461746960448201526d6f6e206973206e6f74205555505360901b6064820152608490fd5b0390fd5b6105d49361066f911461108c565b61128a565b61068d91925060203d81116104a557610497818361070e565b90386105fc565b8015150361000e57565b50634e487b7160e01b600052604160045260246000fd5b67ffffffffffffffff81116106c957604052565b6106d161069e565b604052565b6020810190811067ffffffffffffffff8211176106c957604052565b6040810190811067ffffffffffffffff8211176106c957604052565b90601f8019910116810190811067ffffffffffffffff8211176106c957604052565b60209067ffffffffffffffff811161074e575b601f01601f19160190565b61075661069e565b610743565b92919261076782610730565b91610775604051938461070e565b82948184528183011161000e578281602093846000960137010152565b9080601f8301121561000e578160206107ad9335910161075b565b90565b503461000e5761010036600319011261000e576024356107cf8161010c565b6107d761011d565b90608435916107e583610694565b67ffffffffffffffff9260a43584811161000e573660238201121561000e5761081890369060248160040135910161075b565b9060e43594851161000e576108346105d4953690600401610792565b9360c4359360643591600435611cd4565b50634e487b7160e01b600052603260045260246000fd5b609654811015610894575b60966000527f6aa7ec8ac2a999a90ce6c78668dffe4e487e2576a97ca366ec81ecb335af90d00190600090565b61089c610845565b610867565b503461000e57602036600319011261000e57600435609b5481101561000e57602090609b6000527fbba9db4cdbea0a37c207bbb83e20f828cd4441c49891101dc94fd20dc8efc3490154604051908152f35b50604036600319011261000e5760043561090c8161010c565b60243567ffffffffffffffff811161000e5761092c903690600401610792565b906001600160a01b0391827f0000000000000000000000000000000000000000000000000000000000000000169261096684301415610f9b565b6109957f360894a13ba1a3210667c828492db98dca3e2076cc3735a920a3ca505d382bbc948286541614610ffc565b61099d61145a565b7f4910fdfa16fed3260ed0e7147f7cc6da11a60208b5b9406d12a635614ffd91435460ff16156109d35750506105d491506110ea565b6020600491604094939451928380926352d1902d60e01b825286165afa60009181610a6d575b50610a5a5760405162461bcd60e51b815260206004820152602e60248201527f45524331393637557067726164653a206e657720696d706c656d656e7461746960448201526d6f6e206973206e6f74205555505360901b6064820152608490fd5b6105d493610a68911461108c565b611188565b610a8691925060203d81116104a557610497818361070e565b90386109f9565b600091031261000e57565b503461000e57600036600319011261000e576001600160a01b037f0000000000000000000000000000000000000000000000000000000000000000163003610b05576040517f360894a13ba1a3210667c828492db98dca3e2076cc3735a920a3ca505d382bbc8152602090f35b60405162461bcd60e51b815260206004820152603860248201527f555550535570677261646561626c653a206d757374206e6f742062652063616c60448201527f6c6564207468726f7567682064656c656761746563616c6c00000000000000006064820152608490fd5b503461000e57602036600319011261000e5760043560965481101561000e576001600160a01b0360209160966000527f6aa7ec8ac2a999a90ce6c78668dffe4e487e2576a97ca366ec81ecb335af90d0015416604051908152f35b503461000e57600036600319011261000e5760ff60005460081c1615610bf3576105d46114b5565b60405162461bcd60e51b815260206004820152602b60248201527f496e697469616c697a61626c653a20636f6e7472616374206973206e6f74206960448201526a6e697469616c697a696e6760a81b6064820152608490fd5b503461000e57600080600319360112610caf57610c6761145a565b805462010000600160b01b031981168255816001600160a01b036040519260101c167f8be0079c531659141344cd1fd0a4f28419497f9722a3daafe3b4186f6b6457e08284a3f35b80fd5b503461000e57600036600319011261000e5760206001600160a01b0360005460101c16604051908152f35b503461000e57602036600319011261000e57600435610cfb8161010c565b610d0361145a565b6001600160a01b03908181168015610d675760009262010000600160b01b0384549360101b1662010000600160b01b031984161784556040519260101c167f8be0079c531659141344cd1fd0a4f28419497f9722a3daafe3b4186f6b6457e08484a3f35b60405162461bcd60e51b815260206004820152602660248201527f4f776e61626c653a206e6577206f776e657220697320746865207a65726f206160448201526564647265737360d01b6064820152608490fd5b60209067ffffffffffffffff8111610dd5575b60051b0190565b610ddd61069e565b610dce565b81601f8201121561000e57803591610df983610dbb565b92610e07604051948561070e565b808452602092838086019260051b82010192831161000e578301905b828210610e31575050505090565b8380918335610e3f8161010c565b815201910190610e23565b81601f8201121561000e57803591610e6183610dbb565b92610e6f604051948561070e565b808452602092838086019260051b82010192831161000e578301905b828210610e99575050505090565b81358152908301908301610e8b565b60643590610eb58261010c565b565b60843590610eb58261010c565b503461000e5760a036600319011261000e5767ffffffffffffffff60043581811161000e573660238201121561000e578060040135610f0281610dbb565b91610f10604051938461070e565b81835260209160248385019160051b8301019136831161000e57602401905b828210610f8257858560243582811161000e57610f50903690600401610de2565b60443592831161000e57610f6b6105d4933690600401610e4a565b610f73610ea8565b91610f7c610eb7565b9361152a565b8380918335610f908161010c565b815201910190610f2f565b15610fa257565b60405162461bcd60e51b815260206004820152602c60248201527f46756e6374696f6e206d7573742062652063616c6c6564207468726f7567682060448201526b19195b1959d85d1958d85b1b60a21b6064820152608490fd5b1561100357565b60405162461bcd60e51b815260206004820152602c60248201527f46756e6374696f6e206d7573742062652063616c6c6564207468726f7567682060448201526b6163746976652070726f787960a01b6064820152608490fd5b6040519061106a826106d6565b60008252565b9081602091031261000e575190565b506040513d6000823e3d90fd5b1561109357565b60405162461bcd60e51b815260206004820152602960248201527f45524331393637557067726164653a20756e737570706f727465642070726f786044820152681a58589b195555525160ba1b6064820152608490fd5b803b1561112d576001600160a01b037f360894a13ba1a3210667c828492db98dca3e2076cc3735a920a3ca505d382bbc91166001600160a01b0319825416179055565b60405162461bcd60e51b815260206004820152602d60248201527f455243313936373a206e657720696d706c656d656e746174696f6e206973206e60448201526c1bdd08184818dbdb9d1c9858dd609a1b6064820152608490fd5b611191816110ea565b6040516001600160a01b0382167fbc7cd75a20ee27fd9adebab32041f755214dbc6bffa90cc0225b39da2e5c2d3b600083a2825115801590611282575b6111d757505050565b813b1561123157506000828192602061122795519201905af43d1561122a573d61120081610730565b9061120e604051928361070e565b81523d6000602083013e5b611221611342565b916113aa565b50565b6060611219565b62461bcd60e51b815260206004820152602660248201527f416464726573733a2064656c65676174652063616c6c20746f206e6f6e2d636f6044820152651b9d1c9858dd60d21b6064820152608490fd5b5060016111ce565b90611294826110ea565b604051916000926001600160a01b0382167fbc7cd75a20ee27fd9adebab32041f755214dbc6bffa90cc0225b39da2e5c2d3b8583a282511580159061133b575b6112df575b50505050565b813b1561123157509180826113299460208395519201905af4903d15611333573d61130981610730565b90611317604051928361070e565b8152809160203d92013e611221611342565b50388080806112d9565b506060611219565b50836112d4565b604051906060820182811067ffffffffffffffff82111761139d575b60405260278252660819985a5b195960ca1b6040837f416464726573733a206c6f772d6c6576656c2064656c65676174652063616c6c60208201520152565b6113a561069e565b61135e565b909190156113b6575090565b8151156113c65750805190602001fd5b60405162461bcd60e51b81526020600482015290819061065d90602483019061141f565b918091926000905b82821061140a575011611403575050565b6000910152565b915080602091830151818601520182916113f2565b90602091611438815180928185528580860191016113ea565b601f01601f1916010190565b60ff60005460081c1615610bf357610eb56114b5565b6001600160a01b0360005460101c16330361147157565b606460405162461bcd60e51b815260206004820152602060248201527f4f776e61626c653a2063616c6c6572206973206e6f7420746865206f776e65726044820152fd5b737e8ae5c72eca86946b695dcc211863d9721a09616001600160a01b03600054757e8ae5c72eca86946b695dcc211863d9721a0961000062010000600160b01b031982161760005560101c167f8be0079c531659141344cd1fd0a4f28419497f9722a3daafe3b4186f6b6457e06000604051a3565b929093916000549460ff8660081c16158096819761165e575b811561163e575b50156115d3576115709486611567600160ff196000541617600055565b6115ba576119aa565b61157657565b61158661ff001960005416600055565b604051600181527f7f26b83ff96e1f2b6a682f133852f6798a09c465da95921460cefb38474024989080602081015b0390a1565b6115ce61010061ff00196000541617600055565b6119aa565b60405162461bcd60e51b815260206004820152602e60248201527f496e697469616c697a61626c653a20636f6e747261637420697320616c72656160448201527f647920696e697469616c697a65640000000000000000000000000000000000006064820152608490fd5b303b15915081611650575b503861154a565b6001915060ff161438611649565b600160ff8216109150611543565b1561167357565b60405162461bcd60e51b815260206004820152601260248201527f496e76616c696420767063206c6576656c7300000000000000000000000000006044820152606490fd5b50634e487b7160e01b600052601160045260246000fd5b60ff6001911660ff81146116e1570190565b6116e96116b8565b0190565b6020908051156116fb570190565b6116e9610845565b6020918151811015611718575b60051b010190565b611720610845565b611710565b9081602091031261000e57516107ad81610694565b805190680100000000000000008211611808575b609654826096558083106117c7575b5060208091019060966000527f6aa7ec8ac2a999a90ce6c78668dffe4e487e2576a97ca366ec81ecb335af90d06000925b84841061179c575050505050565b600183826001600160a01b03839451166001600160a01b03198654161785550192019301929061178e565b827f6aa7ec8ac2a999a90ce6c78668dffe4e487e2576a97ca366ec81ecb335af90d091820191015b8181106117fc575061175d565b600081556001016117ef565b61181061069e565b61174e565b1561181c57565b60405162461bcd60e51b815260206004820152602960248201527f4d7573742068617665206174206c656173742074776f2064657374696e6174696044820152686f6e20636861696e7360b81b6064820152608490fd5b80519068010000000000000000821161192b575b609b5482609b558083106118ea575b50602080910190609b6000527fbba9db4cdbea0a37c207bbb83e20f828cd4441c49891101dc94fd20dc8efc3496000925b8484106118d5575050505050565b600183828293518555019201930192906118c7565b827fbba9db4cdbea0a37c207bbb83e20f828cd4441c49891101dc94fd20dc8efc34991820191015b81811061191f5750611896565b60008155600101611912565b61193361069e565b611887565b1561193f57565b60405162461bcd60e51b815260206004820152603460248201527f54686520686f7374656420636861696e206d757374206265206f6e65206f662060448201527f74686520737570706f7274656420636861696e730000000000000000000000006064820152608490fd5b9194909392936004916119bf8385511461166c565b600094855b60ff811685811015611a84579081611a0261019b6119ee6119fb61019b6119ee611a54988c611703565b516001600160a01b031690565b938b611703565b9087604051809263095ea7b360e01b8252818d81611a3d602098899783016020612710919392936001600160a01b0360408201951681520152565b03925af18015611a77575b611a59575b50506116cf565b6119c4565b81611a6f92903d1061042557610415818361070e565b503880611a4d565b611a7f61107f565b611a48565b5050945095611afb959250611ab29150611aa0611adf9461173a565b611aad6001825111611815565b611873565b611ac3611abe46612636565b611938565b6001600160a01b03166001600160a01b03196097541617609755565b6001600160a01b03166001600160a01b03196098541617609855565b610eb5611444565b15611b0a57565b60405162461bcd60e51b815260206004820152601260248201527f496e76616c69642063617264206c6576656c00000000000000000000000000006044820152606490fd5b60ff1660018110611b62575b6000190190565b611b6a6116b8565b611b5b565b9081602091031261000e57516107ad8161010c565b15611b8b57565b60405162461bcd60e51b815260206004820152600e60248201527f4e6f742063617264206f776e65720000000000000000000000000000000000006044820152606490fd5b60208183031261000e5780519067ffffffffffffffff821161000e570181601f8201121561000e578051611c0381610730565b92611c11604051948561070e565b8184526020828401011161000e576107ad91602080850191016113ea565b60058110611c3f575b6004190190565b611c476116b8565b611c38565b818110611c57570390565b611c5f6116b8565b0390565b60019060001981146116e1570190565b9799989490611cc89465ffffffffffff9793610100999560ff938c526001600160a01b0380921660208d01521660408b01521660608901526080880152151560a08701526101208060c088015286019061141f565b9560e085015216910152565b90610eb597969594939291611cf760ff8416600181101590816104f35750611b03565b611eed565b93916076979695939185526bffffffffffffffffffffffff199060601b16602085015260ff60f81b9060f81b1660348401526035830152151560f81b6055820152611d518251809360206056850191016113ea565b019060568201520190565b15611d6357565b60405162461bcd60e51b815260206004820152601160248201527f496e76616c6964207369676e61747572650000000000000000000000000000006044820152606490fd5b15611daf57565b60405162461bcd60e51b815260206004820152601760248201527f565043206e6f74206f776e6564206279206272696467650000000000000000006044820152606490fd5b60019060011981116116e1570190565b60405190611e11826106f2565b6001825260203681840137565b604051611e2a816106f2565b600181528060005b602080821015611e4d57906060602092828501015201611e32565b50505090565b906040820191604081528151809352606081019260208093019060005b818110611ed957505050818184039101528251908183528083019281808460051b8301019501936000915b848310611eab5750505050505090565b9091929394958480611ec9600193601f198682030187528a5161141f565b9801930193019194939290611e9b565b825186529484019491840191600101611e70565b9492829897949293604095838751808a8c868a8960209d8e870198611f12968a611cfc565b03601f1981018252611f24908261070e565b51902090611f3191612464565b9360009a8b54611f4b906001600160a01b039060101c1690565b6001600160a01b03166001600160a01b0380971614611f6990611d5c565b89611f7e8a6000526099602052604060002090565b6000918252602052604090205460ff166124385790611fe161019b6101886101838f979695611fdc8f8f90611fc0611fcf926000526099602052604060002090565b90600052602052604060002090565b805460ff19166001179055565b611b4f565b8851633b330f2160e11b808252919761201d918a816004818d5afa90811561242b575b889161240e575b508610908115916123ac575b50611da8565b885181815288816004818b5afa90811561239f575b8691612382575b508410156122d5575b5080612279575b6121eb575b50833b156121e75785516323b872dd60e01b81523060048201526001600160a01b0393909316602484015260448301528160648183865af180156121da575b6121c7575b506120a861019b6098546001600160a01b031690565b906004836120c161019b6097546001600160a01b031690565b9286519283809263c002d23d60e01b82525afa9384156121ba575b899461219b575b5050813b156121975783516340c10f1960e01b81526001600160a01b03919091166004820152602481019290925294957f1aab301e8c9017b1d984dad0933c71fa7c467adbdf37196a9510d62045d84ece956115b5939291908290604490829084905af1801561218a575b612177575b505192835260208301919091524265ffffffffffff16604083015281906060820190565b80610446612184926106b5565b38612153565b61219261107f565b61214e565b8780fd5b6121b2929450803d106104a557610497818361070e565b9138806120e3565b6121c261107f565b6120dc565b806104466121d4926106b5565b38612092565b6121e261107f565b61208d565b5080fd5b6121f3611e04565b826121fd826116ed565b52612206611e1e565b91612210836116ed565b5261221a826116ed565b50853b156122755787516314f79e0160e21b815291849183918291612243919060048401611e53565b038183895af18015612268575b1561204e5780610446612262926106b5565b3861204e565b61227061107f565b612250565b8380fd5b508651632084ab8360e01b8152600481018390528681602481895afa9081156122c8575b84916122ab575b5015612049565b6122c29150873d891161042557610415818361070e565b386122a4565b6122d061107f565b61229d565b6122ff612304918a5190815289816004818c5afa908115612375575b8791612358575b5085611c4c565b611df4565b863b156123545788516302b140d360e41b815260048101919091528481602481838b5af18015612347575b156120425780610446612341926106b5565b38612042565b61234f61107f565b61232f565b8480fd5b61236f91508a3d8c116104a557610497818361070e565b386122f8565b61237d61107f565b6122f1565b6123999150893d8b116104a557610497818361070e565b38612039565b6123a761107f565b612032565b8b516331a9108f60e11b81526004810188905291508a826024818d5afa918215612401575b88926123e2575b5016301438612017565b6123fa9192508b3d8d116104df576104d1818361070e565b90386123d8565b61240961107f565b6123d1565b61242591508b3d8d116104a557610497818361070e565b3861200b565b61243361107f565b612004565b505050505050505050509050565b602092919061245c8492828151948592016113ea565b019081520190565b600090602092838101519060ff604160408301519201511692601b8410612531575b9061250f916124d76124e56040519261249e846106f2565b601c84527f19457468657265756d205369676e6564204d6573736167653a0a3332000000008a8501526040519283918b83019586612446565b03601f19810183528261070e565b51902092604051948594859094939260ff6060936080840197845216602083015260408201520152565b838052039060015afa15612524575b60005190565b61252c61107f565b61251e565b9290601b8260e461250f941161254c575b0193909150612486565b6125546116b8565b612542565b90602091805182101561256b57010190565b612573610845565b010190565b906043808210612629575b604219908183019361259485610730565b946125a2604051968761070e565b8086526125b1601f1991610730565b01366020870137815b8481106125c957505050505090565b612617907fff000000000000000000000000000000000000000000000000000000000000006125f88285612559565b511684821061261c575b60001a61261186830189612559565b53611c63565b6125ba565b6126246116b8565b612602565b6126316116b8565b612583565b6000908190609b8054925b83811061264f575050505090565b81855282817fbba9db4cdbea0a37c207bbb83e20f828cd4441c49891101dc94fd20dc8efc34901541461268a5761268590611c63565b612641565b505050505060019056fea26469706673582212202eceb83b66a3760cc0faddf614ef261be1d1ccb1a872835c9ee3e7f13f92d14b64736f6c634300080e0033",
  "devdoc": {
    "kind": "dev",
    "methods": {
      "owner()": {
        "details": "Returns the address of the current owner."
      },
      "proxiableUUID()": {
        "details": "Implementation of the ERC1822 {proxiableUUID} function. This returns the storage slot used by the implementation. It is used to validate the implementation's compatibility when performing an upgrade. IMPORTANT: A proxy pointing at a proxiable contract should not be considered proxiable itself, because this risks bricking a proxy that upgrades to it, by delegating to itself until out of gas. Thus it is critical that this function revert if invoked through a proxy. This is guaranteed by the `notDelegated` modifier."
      },
      "renounceOwnership()": {
        "details": "Leaves the contract without owner. It will not be possible to call `onlyOwner` functions anymore. Can only be called by the current owner. NOTE: Renouncing ownership will leave the contract without an owner, thereby removing any functionality that is only available to the owner."
      },
      "transferOwnership(address)": {
        "details": "Transfers ownership of the contract to a new account (`newOwner`). Can only be called by the current owner."
      },
      "upgradeTo(address)": {
        "details": "Upgrade the implementation of the proxy to `newImplementation`. Calls {_authorizeUpgrade}. Emits an {Upgraded} event."
      },
      "upgradeToAndCall(address,bytes)": {
        "details": "Upgrade the implementation of the proxy to `newImplementation`, and subsequently execute the function call encoded in `data`. Calls {_authorizeUpgrade}. Emits an {Upgraded} event."
      }
    },
    "version": 1
  },
  "userdoc": {
    "kind": "user",
    "methods": {},
    "version": 1
  },
  "storageLayout": {
    "storage": [
      {
        "astId": 674,
        "contract": "contracts/voting/VPCBridge.sol:VPCBridge",
        "label": "_initialized",
        "offset": 0,
        "slot": "0",
        "type": "t_uint8"
      },
      {
        "astId": 677,
        "contract": "contracts/voting/VPCBridge.sol:VPCBridge",
        "label": "_initializing",
        "offset": 1,
        "slot": "0",
        "type": "t_bool"
      },
      {
        "astId": 9827,
        "contract": "contracts/voting/VPCBridge.sol:VPCBridge",
        "label": "_owner",
        "offset": 2,
        "slot": "0",
        "type": "t_address"
      },
      {
        "astId": 9947,
        "contract": "contracts/voting/VPCBridge.sol:VPCBridge",
        "label": "__gap",
        "offset": 0,
        "slot": "1",
        "type": "t_array(t_uint256)49_storage"
      },
      {
        "astId": 656,
        "contract": "contracts/voting/VPCBridge.sol:VPCBridge",
        "label": "__gap",
        "offset": 0,
        "slot": "50",
        "type": "t_array(t_uint256)50_storage"
      },
      {
        "astId": 971,
        "contract": "contracts/voting/VPCBridge.sol:VPCBridge",
        "label": "__gap",
        "offset": 0,
        "slot": "100",
        "type": "t_array(t_uint256)50_storage"
      },
      {
        "astId": 32971,
        "contract": "contracts/voting/VPCBridge.sol:VPCBridge",
        "label": "vpcs",
        "offset": 0,
        "slot": "150",
        "type": "t_array(t_contract(PERIv2)32412)dyn_storage"
      },
      {
        "astId": 32974,
        "contract": "contracts/voting/VPCBridge.sol:VPCBridge",
        "label": "curationRewardPool",
        "offset": 0,
        "slot": "151",
        "type": "t_contract(Vault)29380"
      },
      {
        "astId": 32977,
        "contract": "contracts/voting/VPCBridge.sol:VPCBridge",
        "label": "nend",
        "offset": 0,
        "slot": "152",
        "type": "t_contract(NEND)28261"
      },
      {
        "astId": 33018,
        "contract": "contracts/voting/VPCBridge.sol:VPCBridge",
        "label": "chainNonceToExecutedMapping",
        "offset": 0,
        "slot": "153",
        "type": "t_mapping(t_uint256,t_mapping(t_uint256,t_bool))"
      },
      {
        "astId": 33020,
        "contract": "contracts/voting/VPCBridge.sol:VPCBridge",
        "label": "nonce",
        "offset": 0,
        "slot": "154",
        "type": "t_uint256"
      },
      {
        "astId": 33023,
        "contract": "contracts/voting/VPCBridge.sol:VPCBridge",
        "label": "supportedChainIds",
        "offset": 0,
        "slot": "155",
        "type": "t_array(t_uint256)dyn_storage"
      }
    ],
    "types": {
      "t_address": {
        "encoding": "inplace",
        "label": "address",
        "numberOfBytes": "20"
      },
      "t_array(t_contract(PERIv2)32412)dyn_storage": {
        "base": "t_contract(PERIv2)32412",
        "encoding": "dynamic_array",
        "label": "contract PERIv2[]",
        "numberOfBytes": "32"
      },
      "t_array(t_uint256)49_storage": {
        "base": "t_uint256",
        "encoding": "inplace",
        "label": "uint256[49]",
        "numberOfBytes": "1568"
      },
      "t_array(t_uint256)50_storage": {
        "base": "t_uint256",
        "encoding": "inplace",
        "label": "uint256[50]",
        "numberOfBytes": "1600"
      },
      "t_array(t_uint256)dyn_storage": {
        "base": "t_uint256",
        "encoding": "dynamic_array",
        "label": "uint256[]",
        "numberOfBytes": "32"
      },
      "t_bool": {
        "encoding": "inplace",
        "label": "bool",
        "numberOfBytes": "1"
      },
      "t_contract(NEND)28261": {
        "encoding": "inplace",
        "label": "contract NEND",
        "numberOfBytes": "20"
      },
      "t_contract(PERIv2)32412": {
        "encoding": "inplace",
        "label": "contract PERIv2",
        "numberOfBytes": "20"
      },
      "t_contract(Vault)29380": {
        "encoding": "inplace",
        "label": "contract Vault",
        "numberOfBytes": "20"
      },
      "t_mapping(t_uint256,t_bool)": {
        "encoding": "mapping",
        "key": "t_uint256",
        "label": "mapping(uint256 => bool)",
        "numberOfBytes": "32",
        "value": "t_bool"
      },
      "t_mapping(t_uint256,t_mapping(t_uint256,t_bool))": {
        "encoding": "mapping",
        "key": "t_uint256",
        "label": "mapping(uint256 => mapping(uint256 => bool))",
        "numberOfBytes": "32",
        "value": "t_mapping(t_uint256,t_bool)"
      },
      "t_uint256": {
        "encoding": "inplace",
        "label": "uint256",
        "numberOfBytes": "32"
      },
      "t_uint8": {
        "encoding": "inplace",
        "label": "uint8",
        "numberOfBytes": "1"
      }
    }
  }
}