{
  "address": "0x4A7bCE6241328D4590956B614B37Eea2355FE5e4",
  "abi": [
    {
      "inputs": [
        {
          "internalType": "address",
          "name": "_tokenOwner",
          "type": "address"
        }
      ],
      "name": "publicMint",
      "outputs": [],
      "stateMutability": "nonpayable",
      "type": "function"
    }
  ],
  "transactionHash": "0x53dbefad29235da38e23dff49a912ff31b5ba6defd63a6c697dd5fa1e43f5ae1",
  "args": [],
  "numDeployments": 2,
  "solcInputHash": "5f4e724599e3a7403e26c4f96c760b8c",
  "bytecode": "0x60808060405234601457608b908161001a8239f35b600080fdfe6004361015600c57600080fd5b6000803560e01c6332a93a3a14602157600080fd5b34605257602036600319011260525760043573ffffffffffffffffffffffffffffffffffffffff8116036052576080f35b80fdfea2646970667358221220102dc66615b84bc535fa46b4de17af0a02f13d9e9efc18a614e49263898fe76d64736f6c634300080e0033",
  "devdoc": {
    "kind": "dev",
    "methods": {},
    "version": 1
  },
  "userdoc": {
    "kind": "user",
    "methods": {},
    "version": 1
  },
  "storageLayout": {
    "storage": [],
    "types": null
  }
}