{
  "address": "0x7C03C0e909f01f975167E961D03277d910f9e706",
  "abi": [
    {
      "inputs": [
        {
          "internalType": "uint64",
          "name": "_subscriptionId",
          "type": "uint64"
        },
        {
          "internalType": "address",
          "name": "_vrfCoordinator",
          "type": "address"
        },
        {
          "internalType": "bytes32",
          "name": "_keyHash",
          "type": "bytes32"
        }
      ],
      "stateMutability": "nonpayable",
      "type": "constructor"
    },
    {
      "inputs": [
        {
          "internalType": "address",
          "name": "have",
          "type": "address"
        },
        {
          "internalType": "address",
          "name": "want",
          "type": "address"
        }
      ],
      "name": "OnlyCoordinatorCanFulfill",
      "type": "error"
    },
    {
      "anonymous": false,
      "inputs": [
        {
          "indexed": true,
          "internalType": "address",
          "name": "previousOwner",
          "type": "address"
        },
        {
          "indexed": true,
          "internalType": "address",
          "name": "newOwner",
          "type": "address"
        }
      ],
      "name": "OwnershipTransferred",
      "type": "event"
    },
    {
      "anonymous": false,
      "inputs": [
        {
          "indexed": false,
          "internalType": "bytes32[]",
          "name": "curationHashes",
          "type": "bytes32[]"
        },
        {
          "indexed": false,
          "internalType": "uint8[]",
          "name": "winningOptions",
          "type": "uint8[]"
        }
      ],
      "name": "WinningOptionsSettled",
      "type": "event"
    },
    {
      "inputs": [],
      "name": "callbackGasLimitPerWord",
      "outputs": [
        {
          "internalType": "uint32",
          "name": "",
          "type": "uint32"
        }
      ],
      "stateMutability": "view",
      "type": "function"
    },
    {
      "inputs": [
        {
          "internalType": "bytes32",
          "name": "",
          "type": "bytes32"
        }
      ],
      "name": "hashToWinningOption",
      "outputs": [
        {
          "internalType": "uint8",
          "name": "",
          "type": "uint8"
        }
      ],
      "stateMutability": "view",
      "type": "function"
    },
    {
      "inputs": [],
      "name": "keyHash",
      "outputs": [
        {
          "internalType": "bytes32",
          "name": "",
          "type": "bytes32"
        }
      ],
      "stateMutability": "view",
      "type": "function"
    },
    {
      "inputs": [],
      "name": "owner",
      "outputs": [
        {
          "internalType": "address",
          "name": "",
          "type": "address"
        }
      ],
      "stateMutability": "view",
      "type": "function"
    },
    {
      "inputs": [
        {
          "internalType": "uint256",
          "name": "requestId",
          "type": "uint256"
        },
        {
          "internalType": "uint256[]",
          "name": "randomWords",
          "type": "uint256[]"
        }
      ],
      "name": "rawFulfillRandomWords",
      "outputs": [],
      "stateMutability": "nonpayable",
      "type": "function"
    },
    {
      "inputs": [],
      "name": "renounceOwnership",
      "outputs": [],
      "stateMutability": "nonpayable",
      "type": "function"
    },
    {
      "inputs": [],
      "name": "requestConfirmations",
      "outputs": [
        {
          "internalType": "uint16",
          "name": "",
          "type": "uint16"
        }
      ],
      "stateMutability": "view",
      "type": "function"
    },
    {
      "inputs": [
        {
          "internalType": "bytes32[]",
          "name": "hashes",
          "type": "bytes32[]"
        }
      ],
      "name": "requestCurationWinningOption",
      "outputs": [],
      "stateMutability": "nonpayable",
      "type": "function"
    },
    {
      "inputs": [
        {
          "internalType": "uint32",
          "name": "_gasLimit",
          "type": "uint32"
        }
      ],
      "name": "setCallbackGasLimitPerWord",
      "outputs": [],
      "stateMutability": "nonpayable",
      "type": "function"
    },
    {
      "inputs": [
        {
          "internalType": "address",
          "name": "_vrfCoordinator",
          "type": "address"
        }
      ],
      "name": "setCoordinator",
      "outputs": [],
      "stateMutability": "nonpayable",
      "type": "function"
    },
    {
      "inputs": [
        {
          "internalType": "bytes32",
          "name": "_keyHash",
          "type": "bytes32"
        }
      ],
      "name": "setKeyHash",
      "outputs": [],
      "stateMutability": "nonpayable",
      "type": "function"
    },
    {
      "inputs": [
        {
          "internalType": "uint16",
          "name": "_confirmationCount",
          "type": "uint16"
        }
      ],
      "name": "setRequestConfirmations",
      "outputs": [],
      "stateMutability": "nonpayable",
      "type": "function"
    },
    {
      "inputs": [],
      "name": "subscriptionId",
      "outputs": [
        {
          "internalType": "uint64",
          "name": "",
          "type": "uint64"
        }
      ],
      "stateMutability": "view",
      "type": "function"
    },
    {
      "inputs": [
        {
          "internalType": "address",
          "name": "newOwner",
          "type": "address"
        }
      ],
      "name": "transferOwnership",
      "outputs": [],
      "stateMutability": "nonpayable",
      "type": "function"
    },
    {
      "inputs": [],
      "name": "vrfCoordinator",
      "outputs": [
        {
          "internalType": "address",
          "name": "",
          "type": "address"
        }
      ],
      "stateMutability": "view",
      "type": "function"
    }
  ],
  "transactionHash": "0x47f083dc12245d9e44c807a97cf0042e8a57578f5eb3d0f82080ce35cafecfb6",
  "args": [
    91,
    "0xd5D517aBE5cF79B7e95eC98dB0f0277788aFF634",
    "0x83250c5584ffa93feb6ee082981c5ebe484c865196750b39835ad4f13780435d"
  ],
  "numDeployments": 1,
  "solcInputHash": "0ae4e343e63da4670584dc1ef4b5d6c7",
  "bytecode": "0x60a034610085576001600160401b03601f610e1438819003918201601f19168401918383118584101761008a5780859260609460405283398101031261008557815190811681036100855760208201516001600160a01b038116810361008557604061006d930151916100a0565b604051610cc9908161014b8239608051816106150152f35b600080fd5b634e487b7160e01b600052604160045260246000fd5b9060025460018060a01b0380821660805260005492737e8ae5c72eca86946b695dcc211863d9721a09618260018060a01b0319958287821617600055167f8be0079c531659141344cd1fd0a4f28419497f9722a3daafe3b4186f6b6457e06000604051a3640100030d4065ffffffffffff19600454161760045516928360015491600160a01b600160e01b039060a01b169163ffffffff60e01b161717600155161760025560035556fe60806040526004361015610013575b600080fd5b60003560e01c8063040550ce1461013f57806309c1ba2e146101365780631fe543e31461012d57806361728f3914610124578063715018a61461011b57806379a2c3b9146101125780638824f5a7146101095780638cae5eb3146101005780638da5cb5b146100f75780638ea98117146100ee57806398544710146100e5578063a3e56fa8146100dc578063b0fb162f146100d3578063e222be0d146100ca5763f2fde38b146100c257600080fd5b61000e61054b565b5061000e61050b565b5061000e6104e6565b5061000e6104be565b5061000e61049c565b5061000e61045a565b5061000e610410565b5061000e610388565b5061000e61033c565b5061000e610317565b5061000e6102b6565b5061000e610297565b5061000e610208565b5061000e61016f565b503461000e57602036600319011261000e576004356000526005602052602060ff60406000205416604051908152f35b503461000e57600036600319011261000e57602067ffffffffffffffff60015460a01c16604051908152f35b50634e487b7160e01b600052604160045260246000fd5b90601f8019910116810190811067ffffffffffffffff8211176101d457604052565b6101dc61019b565b604052565b60209067ffffffffffffffff81116101fb575b60051b0190565b61020361019b565b6101f4565b503461000e57604036600319011261000e5760243567ffffffffffffffff811161000e573660238201121561000e57806004013590610246826101e1565b9061025460405192836101b2565b82825260209260248484019160051b8301019136831161000e57602401905b8282106102885761028684600435610608565b005b81358152908401908401610273565b503461000e57600036600319011261000e576020600354604051908152f35b503461000e57600080600319360112610314576102d161077f565b80546001600160a01b031981168255816001600160a01b0360405192167f8be0079c531659141344cd1fd0a4f28419497f9722a3daafe3b4186f6b6457e08284a3f35b80fd5b503461000e57600036600319011261000e57602063ffffffff60045416604051908152f35b503461000e57602036600319011261000e5760043561ffff8116810361000e5761036461077f565b65ffff000000006004549160201b169065ffff000000001916176004556000604051f35b503461000e5760208060031936011261000e5760043567ffffffffffffffff811161000e573660238201121561000e578060040135906103c7826101e1565b916103d560405193846101b2565b80835260248484019160051b8301019136831161000e57602401905b82821061040157610286846107d7565b813581529084019084016103f1565b503461000e57600036600319011261000e5760206001600160a01b0360005416604051908152f35b602090600319011261000e576004356001600160a01b038116810361000e5790565b503461000e576001600160a01b0361047136610438565b61047961077f565b166001600160a01b03198181600254161760025560015416176001556000604051f35b503461000e57602036600319011261000e576104b661077f565b600435600355005b503461000e57600036600319011261000e5760206001600160a01b0360025416604051908152f35b503461000e57600036600319011261000e57602060045461ffff60405191831c168152f35b503461000e57602036600319011261000e5760043563ffffffff811680910361000e5761053661077f565b63ffffffff1960045416176004556000604051f35b503461000e5761055a36610438565b61056261077f565b6001600160a01b038091169081156105b457600091825491816001600160a01b0319841617845560405192167f8be0079c531659141344cd1fd0a4f28419497f9722a3daafe3b4186f6b6457e08484a3f35b60405162461bcd60e51b815260206004820152602660248201527f4f776e61626c653a206e6577206f776e657220697320746865207a65726f206160448201526564647265737360d01b6064820152608490fd5b9190916001600160a01b037f0000000000000000000000000000000000000000000000000000000000000000168033036107615750610654610659916000526006602052604060002090565b610b2b565b6106638151610b7a565b906106718151855114610bac565b60005b815181101561072857806106b26106ac6106a561069461071095876109cc565b516000526005602052604060002090565b5460ff1690565b60ff1690565b6107155761070b6106d96106d46106ac6106cc858b6109cc565b516005900690565b610c0c565b6106f9816106ea61069486896109cc565b9060ff1660ff19825416179055565b61070383876109cc565b9060ff169052565b6109b0565b610674565b61070b6106f96106a561069484876109cc565b507f4f285d82b5a9bc69229b646fca51fc092373640d42423bb68fa3c33d54a0ed5192935061075c60405192839283610c1e565b0390a1565b6044906040519063073e64fd60e21b82523360048301526024820152fd5b6001600160a01b0360005416330361079357565b606460405162461bcd60e51b815260206004820152602060248201527f4f776e61626c653a2063616c6c6572206973206e6f7420746865206f776e65726044820152fd5b6107df61077f565b805163ffffffff919082166107fd811515828161092f575b5061093c565b60005b825181101561082e578061070b6108236106ac6106a561069461082996896109cc565b156109f6565b610800565b506108ed9060206108f29460015461ffff60006001600160a01b03600354946108c761085f89600454938416610a52565b98604051998a98899788956305d3b1d360e41b87528c1c169067ffffffffffffffff8a60a01c169060048701939160809367ffffffffffffffff61ffff929897939860a0880199885216602087015216604085015263ffffffff809216606085015216910152565b0393165af1908115610922575b6000916108f4575b506000526006602052604060002090565b610a98565b565b610915915060203d811161091b575b61090d81836101b2565b810190610a7c565b386108dc565b503d610903565b61092a610a8b565b6108d4565b6101f491501115386107f7565b1561094357565b60405162461bcd60e51b815260206004820152602860248201527f496e76616c6964206e756d626572206f662072616e646f6d20776f7264732072604482015267195c5d595cdd195960c21b6064820152608490fd5b50634e487b7160e01b600052601160045260246000fd5b60019060001981146109c0570190565b6109c8610999565b0190565b80518210156109e05760209160051b010190565b634e487b7160e01b600052603260045260246000fd5b156109fd57565b60405162461bcd60e51b815260206004820152602760248201527f4375726174696f6e2077696e6e696e67206f7074696f6e20616c7265616479206044820152661cd95d1d1b195960ca1b6064820152608490fd5b63ffffffff9182809216918291169204821181151516610a70570290565b610a78610999565b0290565b9081602091031261000e575190565b506040513d6000823e3d90fd5b815191680100000000000000008311610b1e575b8154838355808410610af5575b50610ace602080920192600052602060002090565b6000925b848410610ae0575050505050565b60018382829351855501920193019290610ad2565b6000838152846020822092830192015b828110610b13575050610ab9565b818155600101610b05565b610b2661019b565b610aac565b9060405191828154918282526020928383019160005283600020936000905b828210610b60575050506108f2925003836101b2565b855484526001958601958895509381019390910190610b4a565b90610b84826101e1565b610b9160405191826101b2565b8281528092610ba2601f19916101e1565b0190602036910137565b15610bb357565b60405162461bcd60e51b815260206004820152602b60248201527f48617368657320616e642072616e646f6d20776f726473206c656e677468206e60448201526a6f74206d61746368696e6760a81b6064820152608490fd5b60ff6001911660fe81116109c0570190565b6040810190604081528251809252606081019160208094019060005b818110610c7f575050508281830391015281808451928381520193019160005b828110610c68575050505090565b835160ff1685529381019392810192600101610c5a565b825185529385019391850191600101610c3a56fea26469706673582212203f6e9782a8a96e3e502a436afc8999cbb595779a1178fd43acc42a2a009c1a8c64736f6c634300080e0033",
  "devdoc": {
    "kind": "dev",
    "methods": {
      "owner()": {
        "details": "Returns the address of the current owner."
      },
      "renounceOwnership()": {
        "details": "Leaves the contract without owner. It will not be possible to call `onlyOwner` functions anymore. Can only be called by the current owner. NOTE: Renouncing ownership will leave the contract without an owner, thereby removing any functionality that is only available to the owner."
      },
      "transferOwnership(address)": {
        "details": "Transfers ownership of the contract to a new account (`newOwner`). Can only be called by the current owner."
      }
    },
    "version": 1
  },
  "userdoc": {
    "kind": "user",
    "methods": {},
    "version": 1
  },
  "storageLayout": {
    "storage": [
      {
        "astId": 8424,
        "contract": "contracts/voting/Gamification.sol:Gamification",
        "label": "_owner",
        "offset": 0,
        "slot": "0",
        "type": "t_address"
      },
      {
        "astId": 28277,
        "contract": "contracts/voting/Gamification.sol:Gamification",
        "label": "COORDINATOR",
        "offset": 0,
        "slot": "1",
        "type": "t_contract(VRFCoordinatorV2Interface)146"
      },
      {
        "astId": 28279,
        "contract": "contracts/voting/Gamification.sol:Gamification",
        "label": "subscriptionId",
        "offset": 20,
        "slot": "1",
        "type": "t_uint64"
      },
      {
        "astId": 28281,
        "contract": "contracts/voting/Gamification.sol:Gamification",
        "label": "vrfCoordinator",
        "offset": 0,
        "slot": "2",
        "type": "t_address"
      },
      {
        "astId": 28283,
        "contract": "contracts/voting/Gamification.sol:Gamification",
        "label": "keyHash",
        "offset": 0,
        "slot": "3",
        "type": "t_bytes32"
      },
      {
        "astId": 28286,
        "contract": "contracts/voting/Gamification.sol:Gamification",
        "label": "callbackGasLimitPerWord",
        "offset": 0,
        "slot": "4",
        "type": "t_uint32"
      },
      {
        "astId": 28289,
        "contract": "contracts/voting/Gamification.sol:Gamification",
        "label": "requestConfirmations",
        "offset": 4,
        "slot": "4",
        "type": "t_uint16"
      },
      {
        "astId": 28293,
        "contract": "contracts/voting/Gamification.sol:Gamification",
        "label": "hashToWinningOption",
        "offset": 0,
        "slot": "5",
        "type": "t_mapping(t_bytes32,t_uint8)"
      },
      {
        "astId": 28298,
        "contract": "contracts/voting/Gamification.sol:Gamification",
        "label": "requestIdToHashes",
        "offset": 0,
        "slot": "6",
        "type": "t_mapping(t_uint256,t_array(t_bytes32)dyn_storage)"
      }
    ],
    "types": {
      "t_address": {
        "encoding": "inplace",
        "label": "address",
        "numberOfBytes": "20"
      },
      "t_array(t_bytes32)dyn_storage": {
        "base": "t_bytes32",
        "encoding": "dynamic_array",
        "label": "bytes32[]",
        "numberOfBytes": "32"
      },
      "t_bytes32": {
        "encoding": "inplace",
        "label": "bytes32",
        "numberOfBytes": "32"
      },
      "t_contract(VRFCoordinatorV2Interface)146": {
        "encoding": "inplace",
        "label": "contract VRFCoordinatorV2Interface",
        "numberOfBytes": "20"
      },
      "t_mapping(t_bytes32,t_uint8)": {
        "encoding": "mapping",
        "key": "t_bytes32",
        "label": "mapping(bytes32 => uint8)",
        "numberOfBytes": "32",
        "value": "t_uint8"
      },
      "t_mapping(t_uint256,t_array(t_bytes32)dyn_storage)": {
        "encoding": "mapping",
        "key": "t_uint256",
        "label": "mapping(uint256 => bytes32[])",
        "numberOfBytes": "32",
        "value": "t_array(t_bytes32)dyn_storage"
      },
      "t_uint16": {
        "encoding": "inplace",
        "label": "uint16",
        "numberOfBytes": "2"
      },
      "t_uint256": {
        "encoding": "inplace",
        "label": "uint256",
        "numberOfBytes": "32"
      },
      "t_uint32": {
        "encoding": "inplace",
        "label": "uint32",
        "numberOfBytes": "4"
      },
      "t_uint64": {
        "encoding": "inplace",
        "label": "uint64",
        "numberOfBytes": "8"
      },
      "t_uint8": {
        "encoding": "inplace",
        "label": "uint8",
        "numberOfBytes": "1"
      }
    }
  }
}