{
  "address": "0x1a713D088E40F7BEC35308F768576e9474bA4fC4",
  "abi": [
    {
      "anonymous": false,
      "inputs": [
        {
          "indexed": false,
          "internalType": "address",
          "name": "previousAdmin",
          "type": "address"
        },
        {
          "indexed": false,
          "internalType": "address",
          "name": "newAdmin",
          "type": "address"
        }
      ],
      "name": "AdminChanged",
      "type": "event"
    },
    {
      "anonymous": false,
      "inputs": [
        {
          "indexed": true,
          "internalType": "address",
          "name": "beacon",
          "type": "address"
        }
      ],
      "name": "BeaconUpgraded",
      "type": "event"
    },
    {
      "anonymous": false,
      "inputs": [
        {
          "indexed": true,
          "internalType": "uint256",
          "name": "id",
          "type": "uint256"
        }
      ],
      "name": "CloseMarket",
      "type": "event"
    },
    {
      "anonymous": false,
      "inputs": [
        {
          "indexed": true,
          "internalType": "uint256",
          "name": "id",
          "type": "uint256"
        },
        {
          "indexed": true,
          "internalType": "address",
          "name": "quoteToken",
          "type": "address"
        },
        {
          "indexed": false,
          "internalType": "uint48",
          "name": "conclusion",
          "type": "uint48"
        },
        {
          "indexed": false,
          "internalType": "uint256",
          "name": "capacity",
          "type": "uint256"
        },
        {
          "indexed": false,
          "internalType": "bool",
          "name": "capacityInQuote",
          "type": "bool"
        }
      ],
      "name": "CreateMarket",
      "type": "event"
    },
    {
      "anonymous": false,
      "inputs": [
        {
          "indexed": false,
          "internalType": "uint8",
          "name": "version",
          "type": "uint8"
        }
      ],
      "name": "Initialized",
      "type": "event"
    },
    {
      "anonymous": false,
      "inputs": [
        {
          "indexed": false,
          "internalType": "address",
          "name": "ownerAddress",
          "type": "address"
        },
        {
          "indexed": false,
          "internalType": "uint48",
          "name": "marketId",
          "type": "uint48"
        },
        {
          "indexed": false,
          "internalType": "uint256",
          "name": "noteId",
          "type": "uint256"
        },
        {
          "indexed": false,
          "internalType": "uint256",
          "name": "amount",
          "type": "uint256"
        },
        {
          "indexed": false,
          "internalType": "uint256",
          "name": "price",
          "type": "uint256"
        },
        {
          "indexed": false,
          "internalType": "uint256",
          "name": "payout",
          "type": "uint256"
        },
        {
          "indexed": false,
          "internalType": "uint256",
          "name": "payoutPerVesting",
          "type": "uint256"
        },
        {
          "indexed": false,
          "internalType": "uint48",
          "name": "created",
          "type": "uint48"
        }
      ],
      "name": "NoteCreated",
      "type": "event"
    },
    {
      "anonymous": false,
      "inputs": [
        {
          "indexed": false,
          "internalType": "address",
          "name": "ownerAddress",
          "type": "address"
        },
        {
          "indexed": false,
          "internalType": "uint256[]",
          "name": "indexes",
          "type": "uint256[]"
        },
        {
          "indexed": false,
          "internalType": "uint8[]",
          "name": "vestingCount",
          "type": "uint8[]"
        },
        {
          "indexed": false,
          "internalType": "uint256[]",
          "name": "totalVested",
          "type": "uint256[]"
        }
      ],
      "name": "NotesRedeemed",
      "type": "event"
    },
    {
      "anonymous": false,
      "inputs": [
        {
          "indexed": true,
          "internalType": "address",
          "name": "previousOwner",
          "type": "address"
        },
        {
          "indexed": true,
          "internalType": "address",
          "name": "newOwner",
          "type": "address"
        }
      ],
      "name": "OwnershipTransferred",
      "type": "event"
    },
    {
      "anonymous": false,
      "inputs": [
        {
          "indexed": true,
          "internalType": "address",
          "name": "implementation",
          "type": "address"
        }
      ],
      "name": "Upgraded",
      "type": "event"
    },
    {
      "inputs": [],
      "name": "__MWOwnable_init",
      "outputs": [],
      "stateMutability": "nonpayable",
      "type": "function"
    },
    {
      "inputs": [],
      "name": "__Testing_init",
      "outputs": [],
      "stateMutability": "nonpayable",
      "type": "function"
    },
    {
      "inputs": [
        {
          "internalType": "uint256",
          "name": "",
          "type": "uint256"
        }
      ],
      "name": "adjustments",
      "outputs": [
        {
          "internalType": "uint256",
          "name": "change",
          "type": "uint256"
        },
        {
          "internalType": "uint48",
          "name": "lastAdjustment",
          "type": "uint48"
        },
        {
          "internalType": "uint48",
          "name": "timeToAdjusted",
          "type": "uint48"
        },
        {
          "internalType": "bool",
          "name": "active",
          "type": "bool"
        }
      ],
      "stateMutability": "view",
      "type": "function"
    },
    {
      "inputs": [
        {
          "internalType": "address",
          "name": "operator",
          "type": "address"
        },
        {
          "internalType": "string",
          "name": "role",
          "type": "string"
        },
        {
          "internalType": "bool",
          "name": "authorized",
          "type": "bool"
        }
      ],
      "name": "authorize",
      "outputs": [],
      "stateMutability": "nonpayable",
      "type": "function"
    },
    {
      "inputs": [
        {
          "internalType": "uint256",
          "name": "_id",
          "type": "uint256"
        }
      ],
      "name": "close",
      "outputs": [],
      "stateMutability": "nonpayable",
      "type": "function"
    },
    {
      "inputs": [],
      "name": "commissionRate",
      "outputs": [
        {
          "internalType": "uint16",
          "name": "",
          "type": "uint16"
        }
      ],
      "stateMutability": "view",
      "type": "function"
    },
    {
      "inputs": [
        {
          "internalType": "contract IERC20",
          "name": "_quoteToken",
          "type": "address"
        },
        {
          "internalType": "uint256",
          "name": "_capacity",
          "type": "uint256"
        },
        {
          "internalType": "bool",
          "name": "_capacityInQuote",
          "type": "bool"
        },
        {
          "internalType": "uint256",
          "name": "_initialPrice",
          "type": "uint256"
        },
        {
          "internalType": "uint48",
          "name": "_conclusion",
          "type": "uint48"
        },
        {
          "internalType": "uint32",
          "name": "_depositInterval",
          "type": "uint32"
        },
        {
          "internalType": "uint32",
          "name": "_tuneInterval",
          "type": "uint32"
        }
      ],
      "name": "create",
      "outputs": [
        {
          "internalType": "uint256",
          "name": "id_",
          "type": "uint256"
        }
      ],
      "stateMutability": "nonpayable",
      "type": "function"
    },
    {
      "inputs": [
        {
          "internalType": "uint256",
          "name": "_id",
          "type": "uint256"
        },
        {
          "internalType": "uint256",
          "name": "_amount",
          "type": "uint256"
        },
        {
          "internalType": "uint256",
          "name": "_maxPrice",
          "type": "uint256"
        }
      ],
      "name": "deposit",
      "outputs": [
        {
          "internalType": "uint256",
          "name": "payout_",
          "type": "uint256"
        },
        {
          "internalType": "uint256",
          "name": "index_",
          "type": "uint256"
        }
      ],
      "stateMutability": "nonpayable",
      "type": "function"
    },
    {
      "inputs": [],
      "name": "ecosystemPool",
      "outputs": [
        {
          "internalType": "address",
          "name": "",
          "type": "address"
        }
      ],
      "stateMutability": "view",
      "type": "function"
    },
    {
      "inputs": [
        {
          "internalType": "uint256",
          "name": "_id",
          "type": "uint256"
        }
      ],
      "name": "getMarketData",
      "outputs": [
        {
          "internalType": "uint256",
          "name": "",
          "type": "uint256"
        },
        {
          "internalType": "uint256",
          "name": "",
          "type": "uint256"
        },
        {
          "internalType": "uint256",
          "name": "",
          "type": "uint256"
        }
      ],
      "stateMutability": "view",
      "type": "function"
    },
    {
      "inputs": [
        {
          "internalType": "address",
          "name": "",
          "type": "address"
        },
        {
          "internalType": "string",
          "name": "",
          "type": "string"
        }
      ],
      "name": "hasRole",
      "outputs": [
        {
          "internalType": "bool",
          "name": "",
          "type": "bool"
        }
      ],
      "stateMutability": "view",
      "type": "function"
    },
    {
      "inputs": [
        {
          "internalType": "address",
          "name": "_nend",
          "type": "address"
        },
        {
          "internalType": "address",
          "name": "_insurancePool",
          "type": "address"
        },
        {
          "internalType": "address",
          "name": "_ecosystemPool",
          "type": "address"
        }
      ],
      "name": "initialize",
      "outputs": [],
      "stateMutability": "nonpayable",
      "type": "function"
    },
    {
      "inputs": [],
      "name": "insurancePool",
      "outputs": [
        {
          "internalType": "address",
          "name": "",
          "type": "address"
        }
      ],
      "stateMutability": "view",
      "type": "function"
    },
    {
      "inputs": [
        {
          "internalType": "uint256",
          "name": "",
          "type": "uint256"
        }
      ],
      "name": "markets",
      "outputs": [
        {
          "internalType": "uint256",
          "name": "capacity",
          "type": "uint256"
        },
        {
          "internalType": "contract IERC20",
          "name": "quoteToken",
          "type": "address"
        },
        {
          "internalType": "bool",
          "name": "capacityInQuote",
          "type": "bool"
        },
        {
          "internalType": "uint256",
          "name": "totalDebt",
          "type": "uint256"
        },
        {
          "internalType": "uint256",
          "name": "maxPayout",
          "type": "uint256"
        },
        {
          "internalType": "uint256",
          "name": "sold",
          "type": "uint256"
        },
        {
          "internalType": "uint256",
          "name": "purchased",
          "type": "uint256"
        }
      ],
      "stateMutability": "view",
      "type": "function"
    },
    {
      "inputs": [
        {
          "internalType": "address",
          "name": "",
          "type": "address"
        },
        {
          "internalType": "uint256",
          "name": "",
          "type": "uint256"
        }
      ],
      "name": "marketsForQuote",
      "outputs": [
        {
          "internalType": "uint256",
          "name": "",
          "type": "uint256"
        }
      ],
      "stateMutability": "view",
      "type": "function"
    },
    {
      "inputs": [
        {
          "internalType": "uint256",
          "name": "",
          "type": "uint256"
        }
      ],
      "name": "metadata",
      "outputs": [
        {
          "internalType": "uint48",
          "name": "lastTune",
          "type": "uint48"
        },
        {
          "internalType": "uint48",
          "name": "lastDecay",
          "type": "uint48"
        },
        {
          "internalType": "uint48",
          "name": "length",
          "type": "uint48"
        },
        {
          "internalType": "uint48",
          "name": "depositInterval",
          "type": "uint48"
        },
        {
          "internalType": "uint48",
          "name": "tuneInterval",
          "type": "uint48"
        },
        {
          "internalType": "uint8",
          "name": "quoteDecimals",
          "type": "uint8"
        }
      ],
      "stateMutability": "view",
      "type": "function"
    },
    {
      "inputs": [],
      "name": "nend",
      "outputs": [
        {
          "internalType": "address",
          "name": "",
          "type": "address"
        }
      ],
      "stateMutability": "view",
      "type": "function"
    },
    {
      "inputs": [
        {
          "internalType": "address",
          "name": "",
          "type": "address"
        },
        {
          "internalType": "uint256",
          "name": "",
          "type": "uint256"
        }
      ],
      "name": "notes",
      "outputs": [
        {
          "internalType": "uint256",
          "name": "payout",
          "type": "uint256"
        },
        {
          "internalType": "uint256",
          "name": "payoutPerVesting",
          "type": "uint256"
        },
        {
          "internalType": "uint48",
          "name": "created",
          "type": "uint48"
        },
        {
          "internalType": "uint48",
          "name": "marketID",
          "type": "uint48"
        },
        {
          "internalType": "uint8",
          "name": "vestingCount",
          "type": "uint8"
        }
      ],
      "stateMutability": "view",
      "type": "function"
    },
    {
      "inputs": [],
      "name": "owner",
      "outputs": [
        {
          "internalType": "address",
          "name": "",
          "type": "address"
        }
      ],
      "stateMutability": "view",
      "type": "function"
    },
    {
      "inputs": [],
      "name": "proxiableUUID",
      "outputs": [
        {
          "internalType": "bytes32",
          "name": "",
          "type": "bytes32"
        }
      ],
      "stateMutability": "view",
      "type": "function"
    },
    {
      "inputs": [
        {
          "internalType": "uint256[]",
          "name": "_indexes",
          "type": "uint256[]"
        }
      ],
      "name": "redeem",
      "outputs": [
        {
          "internalType": "uint256",
          "name": "payout_",
          "type": "uint256"
        }
      ],
      "stateMutability": "nonpayable",
      "type": "function"
    },
    {
      "inputs": [
        {
          "internalType": "uint256",
          "name": "_marketId",
          "type": "uint256"
        }
      ],
      "name": "redeemAll",
      "outputs": [
        {
          "internalType": "uint256",
          "name": "",
          "type": "uint256"
        }
      ],
      "stateMutability": "nonpayable",
      "type": "function"
    },
    {
      "inputs": [],
      "name": "renounceOwnership",
      "outputs": [],
      "stateMutability": "nonpayable",
      "type": "function"
    },
    {
      "inputs": [
        {
          "internalType": "bool",
          "name": "_testing",
          "type": "bool"
        }
      ],
      "name": "setTesting",
      "outputs": [],
      "stateMutability": "nonpayable",
      "type": "function"
    },
    {
      "inputs": [
        {
          "internalType": "uint256",
          "name": "",
          "type": "uint256"
        }
      ],
      "name": "terms",
      "outputs": [
        {
          "internalType": "uint256",
          "name": "controlVariable",
          "type": "uint256"
        },
        {
          "internalType": "uint48",
          "name": "conclusion",
          "type": "uint48"
        },
        {
          "internalType": "uint256",
          "name": "maxDebt",
          "type": "uint256"
        }
      ],
      "stateMutability": "view",
      "type": "function"
    },
    {
      "inputs": [],
      "name": "testVestingInverval",
      "outputs": [
        {
          "internalType": "uint48",
          "name": "",
          "type": "uint48"
        }
      ],
      "stateMutability": "view",
      "type": "function"
    },
    {
      "inputs": [],
      "name": "testing",
      "outputs": [
        {
          "internalType": "bool",
          "name": "",
          "type": "bool"
        }
      ],
      "stateMutability": "view",
      "type": "function"
    },
    {
      "inputs": [],
      "name": "totalVestingCount",
      "outputs": [
        {
          "internalType": "uint8",
          "name": "",
          "type": "uint8"
        }
      ],
      "stateMutability": "view",
      "type": "function"
    },
    {
      "inputs": [
        {
          "internalType": "address",
          "name": "newOwner",
          "type": "address"
        }
      ],
      "name": "transferOwnership",
      "outputs": [],
      "stateMutability": "nonpayable",
      "type": "function"
    },
    {
      "inputs": [
        {
          "internalType": "uint16",
          "name": "_commissionRate",
          "type": "uint16"
        }
      ],
      "name": "updateCommissionRate",
      "outputs": [],
      "stateMutability": "nonpayable",
      "type": "function"
    },
    {
      "inputs": [
        {
          "internalType": "address",
          "name": "_ecosystemPool",
          "type": "address"
        }
      ],
      "name": "updateEcosystemPool",
      "outputs": [],
      "stateMutability": "nonpayable",
      "type": "function"
    },
    {
      "inputs": [
        {
          "internalType": "address",
          "name": "_insurancePool",
          "type": "address"
        }
      ],
      "name": "updateInsurancePool",
      "outputs": [],
      "stateMutability": "nonpayable",
      "type": "function"
    },
    {
      "inputs": [
        {
          "internalType": "address",
          "name": "_nend",
          "type": "address"
        }
      ],
      "name": "updateNend",
      "outputs": [],
      "stateMutability": "nonpayable",
      "type": "function"
    },
    {
      "inputs": [
        {
          "internalType": "address",
          "name": "newImplementation",
          "type": "address"
        }
      ],
      "name": "upgradeTo",
      "outputs": [],
      "stateMutability": "nonpayable",
      "type": "function"
    },
    {
      "inputs": [
        {
          "internalType": "address",
          "name": "newImplementation",
          "type": "address"
        },
        {
          "internalType": "bytes",
          "name": "data",
          "type": "bytes"
        }
      ],
      "name": "upgradeToAndCall",
      "outputs": [],
      "stateMutability": "payable",
      "type": "function"
    },
    {
      "inputs": [],
      "name": "vestingInverval",
      "outputs": [
        {
          "internalType": "uint48",
          "name": "",
          "type": "uint48"
        }
      ],
      "stateMutability": "view",
      "type": "function"
    }
  ],
  "transactionHash": "0xc6b1d7fa7b47fb57093e15cff7946a2b1edbce614cd3bad9e8ab41b60a755570",
  "args": [],
  "numDeployments": 1,
  "solcInputHash": "5f4e724599e3a7403e26c4f96c760b8c",
  "bytecode": "0x60a06040523462000111576000546200003260ff8260081c16158092819362000102575b8115620000df575b5062000116565b8062000046600160ff196000541617600055565b620000c4575b620000566200020d565b62000091575b620000666200017a565b30608052604051613bfe90816200028782396080518181816108c301528181610c330152610cb20152f35b620000a261ff001960005416600055565b6040516001815260008051602062003e8583398151915290602090a16200005c565b620000d961010061ff00196000541617600055565b6200004c565b303b15915081620000f3575b50386200002b565b6001915060ff161438620000eb565b600160ff821610915062000023565b600080fd5b156200011e57565b60405162461bcd60e51b815260206004820152602e60248201527f496e697469616c697a61626c653a20636f6e747261637420697320616c72656160448201526d191e481a5b9a5d1a585b1a5e995960921b6064820152608490fd5b600054620001a060ff8260081c16158092819362000102578115620000df575062000116565b80620001b4600160ff196000541617600055565b620001f2575b60ff1960325416603255620001cb57565b61ff00196000541660005560008051602062003e85833981519152602060405160018152a1565b6200020761010061ff00196000541617600055565b620001ba565b6000805462010000600160b01b03198116757e8ae5c72eca86946b695dcc211863d9721a09610000178255604051737e8ae5c72eca86946b695dcc211863d9721a09619260109290921c6001600160a01b0316917f8be0079c531659141344cd1fd0a4f28419497f9722a3daafe3b4186f6b6457e091a356fe60806040526004361015610013575b600080fd5b60003560e01c8062aeef8a146102e257806308ed8d16146102d95780630aebeb4e146102d0578063203732b4146102c7578063217fe6c6146102be578063231259d9146102b55780633659cfe6146102ac57806339d2525f146102a35780633eca1cf01461029a57806345fd86ac14610291578063498e324f146102885780634f1ef2861461027f57806352d1902d146102765780635ea1d6f81461026d5780636088d1091461026457806365b014b71461025b5780637136a7a614610252578063715018a6146102495780637cbd26ef146102405780637ecb084d14610237578063829522001461022e5780638d03b102146102255780638da5cb5b1461021c57806399d508c014610213578063ab2adc001461020a578063b1283e7714610201578063bc3b2b12146101f8578063bfacba3d146101ef578063c0680e20146101e6578063c0aa0e8a146101dd578063c0c53b8b146101d4578063d2438c2a146101cb578063e0b117ff146101c2578063e3684e39146101b9578063f2fde38b146101b05763f9afb26a146101a857600080fd5b61000e611874565b5061000e61176f565b5061000e6116d2565b5061000e611637565b5061000e611608565b5061000e611501565b5061000e61144f565b5061000e611381565b5061000e61124f565b5061000e6111f6565b5061000e61116c565b5061000e6110e4565b5061000e6110bf565b5061000e611094565b5061000e611070565b5061000e611048565b5061000e611021565b5061000e610ff9565b5061000e610f93565b5061000e610e57565b5061000e610e2c565b5061000e610d94565b5061000e610d6e565b5061000e610c96565b5061000e610bd6565b5061000e610b8f565b5061000e610b65565b5061000e610ae9565b5061000e610a38565b5061000e610899565b5061000e610852565b5061000e6107c3565b5061000e61059e565b5061000e610509565b5061000e6104cc565b503461000e57606036600319011261000e5760043560243561030382611123565b509161030e816113dc565b5061031890612056565b9265ffffffffffff93818386421692602081015161033b9065ffffffffffff1690565b65ffffffffffff16841061034e906120a5565b61035884836123fc565b610361826130e9565b61036f6044358211156120f1565b8061037989612154565b90610383916121ac565b61038c84611316565b505460f01c60ff1661039d906121cc565b6103a6916121ac565b9760038501548911156103b8906121eb565b80600186019a8a8c546103cf9060ff9060a01c1690565b6000149661045d956104499461043b9460409a6104b9576103f2825b8d54612237565b8c5560058c0161040383825461224e565b9055610431600267ffffffffffffffff87169d8e6104266004830191825461224e565b9055019c8d5461224e565b8c553393166133d2565b9a546001600160a01b031690565b6035546001600160a01b0316903390612266565b0151905411156104a95750600090557f8401d05adbea6548a6999cc1540766e6d2ff919292142862893d0e62ec79fbe56000604051a25b604080519182526020820192909252f35b0390f35b90506104b49161278e565b610494565b6103f2856103eb565b8015150361000e57565b503461000e57602036600319011261000e576004356104ea816104c2565b6104f2611e49565b60ff80196032541691151516176032556000604051f35b503461000e57602036600319011261000e57610545610526612a2a565b6001600160a01b0360005460101c163314908115610552575b50612a4b565b61055060043561308a565b005b60ff9150602061057c9133600052603882526040600020826040519483868095519384920161078e565b82019081520301902054163861053f565b6001600160a01b0381160361000e57565b503461000e57602036600319011261000e576001600160a01b036004356105c48161058d565b6105cc611e49565b166001600160a01b031960355416176035556000604051f35b50634e487b7160e01b600052604160045260246000fd5b6060810190811067ffffffffffffffff82111761061857604052565b6106206105e5565b604052565b6020810190811067ffffffffffffffff82111761061857604052565b6040810190811067ffffffffffffffff82111761061857604052565b90601f8019910116810190811067ffffffffffffffff82111761061857604052565b604051906080820182811067ffffffffffffffff82111761061857604052565b6040519060e0820182811067ffffffffffffffff82111761061857604052565b604051906106cc826105fc565b565b6040519060c0820182811067ffffffffffffffff82111761061857604052565b6040519060a0820182811067ffffffffffffffff82111761061857604052565b60209067ffffffffffffffff811161072c575b601f01601f19160190565b6107346105e5565b610721565b9291926107458261070e565b91610753604051938461065d565b82948184528183011161000e578281602093846000960137010152565b9080601f8301121561000e5781602061078b93359101610739565b90565b918091926000905b8282106107ae5750116107a7575050565b6000910152565b91508060209183015181860152018291610796565b503461000e57604036600319011261000e576004356107e18161058d565b60243567ffffffffffffffff811161000e5761083560206104a5936001600160a01b0361081460ff953690600401610770565b9116600052603882526040600020826040519483868095519384920161078e565b820190815203019020546040519116151581529081906020820190565b503461000e57602036600319011261000e576001600160a01b036004356108788161058d565b610880611e49565b166001600160a01b031960365416176036556000604051f35b503461000e57602036600319011261000e576004356108b78161058d565b6001600160a01b0390817f000000000000000000000000000000000000000000000000000000000000000016916108f0833014156118ff565b61091f7f360894a13ba1a3210667c828492db98dca3e2076cc3735a920a3ca505d382bbc938285541614611960565b610927611e49565b6040519061093482610625565b600082527f4910fdfa16fed3260ed0e7147f7cc6da11a60208b5b9406d12a635614ffd91435460ff161561096e5750506105509150611b53565b6020600491604094939451928380926352d1902d60e01b825286165afa60009181610a08575b506109f55760405162461bcd60e51b815260206004820152602e60248201527f45524331393637557067726164653a206e657720696d706c656d656e7461746960448201526d6f6e206973206e6f74205555505360901b6064820152608490fd5b61055093610a0391146119dd565b611bf1565b610a2a91925060203d8111610a31575b610a22818361065d565b8101906119c1565b9038610994565b503d610a18565b503461000e57606036600319011261000e57600435610a568161058d565b6024359067ffffffffffffffff821161000e57610abc6020610a7f610550943690600401610770565b6001600160a01b0360443594610a94866104c2565b610a9c611e49565b16600052603882526040600020826040519483868095519384920161078e565b8201908152030190209060ff801983541691151516179055565b60c4359063ffffffff8216820361000e57565b503461000e5760e036600319011261000e57600435610b078161058d565b60443590610b14826104c2565b6084359165ffffffffffff8316830361000e5760a43563ffffffff8116810361000e576104a593610b5593610b47610ad6565b936064359160243590612a97565b6040519081529081906020820190565b503461000e57600036600319011261000e57602065ffffffffffff60365460b81c16604051908152f35b503461000e57602036600319011261000e576001600160a01b03600435610bb58161058d565b610bbd611e49565b166001600160a01b031960345416176034556000604051f35b50604036600319011261000e57600435610bef8161058d565b6024359067ffffffffffffffff821161000e573660238301121561000e57610c24610550923690602481600401359101610739565b90610c896001600160a01b03807f00000000000000000000000000000000000000000000000000000000000000001690610c60823014156118ff565b7f360894a13ba1a3210667c828492db98dca3e2076cc3735a920a3ca505d382bbc541614611960565b610c91611e49565b611a3b565b503461000e57600036600319011261000e576001600160a01b037f0000000000000000000000000000000000000000000000000000000000000000163003610d03576040517f360894a13ba1a3210667c828492db98dca3e2076cc3735a920a3ca505d382bbc8152602090f35b60405162461bcd60e51b815260206004820152603860248201527f555550535570677261646561626c653a206d757374206e6f742062652063616c60448201527f6c6564207468726f7567682064656c656761746563616c6c00000000000000006064820152608490fd5b503461000e57600036600319011261000e57602061ffff60365460a81c16604051908152f35b503461000e57602036600319011261000e5760043561ffff811680820361000e5761271090610dc1611e49565b11610de7576036805461ffff60a81b191660a89290921b61ffff60a81b16919091179055005b60405162461bcd60e51b815260206004820152601360248201527f496e76616c696420626173697320706f696e74000000000000000000000000006044820152606490fd5b503461000e57600036600319011261000e57610e4f60ff60005460081c16611de9565b610550611ea4565b503461000e57602036600319011261000e57600435610e91610e8c336001600160a01b03166000526033602052604060002090565b613a72565b6000805b8251811015610f08578365ffffffffffff610ec36060610eb58588613724565b51015165ffffffffffff1690565b161480610ef3575b610ede575b610ed990613714565b610e95565b90610eeb610ed991613714565b919050610ed0565b5060ff610f008233613ada565b161515610ecb565b50610f12906136e2565b6000805b8351811015610f87578465ffffffffffff610f366060610eb58589613724565b161480610f72575b610f51575b610f4c90613714565b610f16565b90610f6a8183610f64610f4c9487613724565b52613714565b919050610f43565b5060ff610f7f8233613ada565b161515610f3e565b6104a5610b558461384e565b503461000e57600080600319360112610ff657610fae611e49565b805462010000600160b01b031981168255816001600160a01b036040519260101c167f8be0079c531659141344cd1fd0a4f28419497f9722a3daafe3b4186f6b6457e08284a3f35b80fd5b503461000e57600036600319011261000e5760206001600160a01b0360355416604051908152f35b503461000e57600036600319011261000e57602065ffffffffffff60375416604051908152f35b503461000e57600036600319011261000e5760206001600160a01b0360365416604051908152f35b503461000e57600036600319011261000e57602060ff603254166040519015158152f35b503461000e57600036600319011261000e5760206001600160a01b0360005460101c16604051908152f35b503461000e57600036600319011261000e57602060ff60365460a01c16604051908152f35b503461000e57600036600319011261000e5760206001600160a01b0360345416604051908152f35b50634e487b7160e01b600052603260045260246000fd5b600690609d5481101561115f575b609d600052027fd26e832454299e9fabb89e0e5fffdc046d4e14431bc1bf607ffb2e8a1ddecf7b0190600090565b61116761110c565b611131565b503461000e57602036600319011261000e57600435609d5481101561000e5761119490611123565b5080546001820154600283015460038401546004850154600590950154604080519586526001600160a01b038516602087015260ff60a095861c16151590860152606085019290925260808401529082019290925260c081019190915260e090f35b503461000e57602036600319011261000e5760043560005260a06020526080604060002060ff6001825492015460405192835265ffffffffffff80821660208501528160301c16604084015260601c1615156060820152f35b503461000e57602036600319011261000e5760043561126d816130e9565b6104a56b033b2e3c9fd0803ce80000006112eb836112e661128d87611123565b5054966112e060ff60036112a084611123565b50015492609f54811015611309575b609f6000527f0bc14066c33013fe88f66e314e4cf150b0b2d4d6451a1a51dbbd1c27cd11de28015460f01c166121cc565b90612199565b612199565b04604051938493846040919493926060820195825260208201520152565b61131161110c565b6112af565b609f5481101561134e575b609f6000527f0bc14066c33013fe88f66e314e4cf150b0b2d4d6451a1a51dbbd1c27cd11de280190600090565b61135661110c565b611321565b8054821015611374575b60005260206000200190600090565b61137c61110c565b611365565b503461000e57604036600319011261000e5760043561139f8161058d565b6001600160a01b03602435911660005260a16020526040600020805482101561000e576020916113ce9161135b565b90546040519160031b1c8152f35b600390609e54811015611418575b609e600052027fcfe2a20ff701a1f3e14f63bd70d6c6bc6fba8172ec6d5a505cdab3927c0a9de60190600090565b61142061110c565b6113ea565b8054821015611442575b6000526003602060002091020190600090565b61144a61110c565b61142f565b503461000e57602036600319011261000e57600435609e5481101561000e576003606091609e60005202807fcfe2a20ff701a1f3e14f63bd70d6c6bc6fba8172ec6d5a505cdab3927c0a9de60154907fcfe2a20ff701a1f3e14f63bd70d6c6bc6fba8172ec6d5a505cdab3927c0a9de865ffffffffffff7fcfe2a20ff701a1f3e14f63bd70d6c6bc6fba8172ec6d5a505cdab3927c0a9de7830154169101549060405192835260208301526040820152f35b503461000e57606036600319011261000e5760043561151f8161058d565b61157c60243561152e8161058d565b6044359061153b8261058d565b6000549361156060ff8660081c1615809681976115fa575b81156115da575b50611f19565b84611573600160ff196000541617600055565b6115c157611f8b565b61158257005b61159261ff001960005416600055565b604051600181527f7f26b83ff96e1f2b6a682f133852f6798a09c465da95921460cefb384740249890602090a1005b6115d561010061ff00196000541617600055565b611f8b565b303b159150816115ec575b503861155a565b6001915060ff1614386115e5565b600160ff8216109150611553565b503461000e57600036600319011261000e5761162b60ff60005460081c16611de9565b6032805460ff19169055005b503461000e57604036600319011261000e576004356116558161058d565b6001600160a01b0360243591166000526033602052604060002090815481101561000e5761168291611425565b508054600182015460029092015460408051928352602083019390935265ffffffffffff80821693830193909352603081901c9092166060808301919091529190911c60ff16608082015260a090f35b503461000e57602036600319011261000e57600435609f5481101561000e57609f6000527f0bc14066c33013fe88f66e314e4cf150b0b2d4d6451a1a51dbbd1c27cd11de2801546040805165ffffffffffff8084168252603084901c81166020830152606084811c821693830193909352609084901c81169282019290925260c083811c909216608082015260f09290921c60ff1660a083015290f35b503461000e57602036600319011261000e5760043561178d8161058d565b611795611e49565b6001600160a01b039081811680156117f95760009262010000600160b01b0384549360101b1662010000600160b01b031984161784556040519260101c167f8be0079c531659141344cd1fd0a4f28419497f9722a3daafe3b4186f6b6457e08484a3f35b60405162461bcd60e51b815260206004820152602660248201527f4f776e61626c653a206e6577206f776e657220697320746865207a65726f206160448201526564647265737360d01b6064820152608490fd5b60209067ffffffffffffffff8111611867575b60051b0190565b61186f6105e5565b611860565b503461000e5760208060031936011261000e5760043567ffffffffffffffff811161000e573660238201121561000e578060040135906118b38261184d565b916118c1604051938461065d565b80835260248484019160051b8301019136831161000e57602401905b8282106118f0576104a5610b558561384e565b813581529084019084016118dd565b1561190657565b60405162461bcd60e51b815260206004820152602c60248201527f46756e6374696f6e206d7573742062652063616c6c6564207468726f7567682060448201526b19195b1959d85d1958d85b1b60a21b6064820152608490fd5b1561196757565b60405162461bcd60e51b815260206004820152602c60248201527f46756e6374696f6e206d7573742062652063616c6c6564207468726f7567682060448201526b6163746976652070726f787960a01b6064820152608490fd5b9081602091031261000e575190565b506040513d6000823e3d90fd5b156119e457565b60405162461bcd60e51b815260206004820152602960248201527f45524331393637557067726164653a20756e737570706f727465642070726f786044820152681a58589b195555525160ba1b6064820152608490fd5b90611a677f4910fdfa16fed3260ed0e7147f7cc6da11a60208b5b9406d12a635614ffd91435460ff1690565b15611a7657506106cc90611b53565b6040516352d1902d60e01b8152916020836004816001600160a01b0385165afa60009381611b33575b50611b005760405162461bcd60e51b815260206004820152602e60248201527f45524331393637557067726164653a206e657720696d706c656d656e7461746960448201526d6f6e206973206e6f74205555505360901b6064820152608490fd5b611b2e7f360894a13ba1a3210667c828492db98dca3e2076cc3735a920a3ca505d382bbc6106cc94146119dd565b611d09565b611b4c91945060203d8111610a3157610a22818361065d565b9238611a9f565b803b15611b96576001600160a01b037f360894a13ba1a3210667c828492db98dca3e2076cc3735a920a3ca505d382bbc91166001600160a01b0319825416179055565b60405162461bcd60e51b815260206004820152602d60248201527f455243313936373a206e657720696d706c656d656e746174696f6e206973206e60448201526c1bdd08184818dbdb9d1c9858dd609a1b6064820152608490fd5b611bfa81611b53565b6040516001600160a01b0382167fbc7cd75a20ee27fd9adebab32041f755214dbc6bffa90cc0225b39da2e5c2d3b600083a2825115801590611d01575b611c4057505050565b813b15611cb0575060008281926020611cad95519201905af4611c61611d5f565b60405191611c6e836105fc565b602783527f416464726573733a206c6f772d6c6576656c2064656c65676174652063616c6c6020840152660819985a5b195960ca1b6040840152611d8f565b50565b62461bcd60e51b815260206004820152602660248201527f416464726573733a2064656c65676174652063616c6c20746f206e6f6e2d636f6044820152651b9d1c9858dd60d21b6064820152608490fd5b506000611c37565b611d1281611b53565b6040516001600160a01b0382167fbc7cd75a20ee27fd9adebab32041f755214dbc6bffa90cc0225b39da2e5c2d3b600083a2825115801590611d5757611c4057505050565b506001611c37565b3d15611d8a573d90611d708261070e565b91611d7e604051938461065d565b82523d6000602084013e565b606090565b90919015611d9b575090565b815115611dab5750805190602001fd5b6044604051809262461bcd60e51b825260206004830152611ddb815180928160248601526020868601910161078e565b601f01601f19168101030190fd5b15611df057565b60405162461bcd60e51b815260206004820152602b60248201527f496e697469616c697a61626c653a20636f6e7472616374206973206e6f74206960448201526a6e697469616c697a696e6760a81b6064820152608490fd5b6001600160a01b0360005460101c163303611e6057565b606460405162461bcd60e51b815260206004820152602060248201527f4f776e61626c653a2063616c6c6572206973206e6f7420746865206f776e65726044820152fd5b737e8ae5c72eca86946b695dcc211863d9721a09616001600160a01b03600054757e8ae5c72eca86946b695dcc211863d9721a0961000062010000600160b01b031982161760005560101c167f8be0079c531659141344cd1fd0a4f28419497f9722a3daafe3b4186f6b6457e06000604051a3565b15611f2057565b60405162461bcd60e51b815260206004820152602e60248201527f496e697469616c697a61626c653a20636f6e747261637420697320616c72656160448201527f647920696e697469616c697a65640000000000000000000000000000000000006064820152608490fd5b917fffffff0000000000000000ffffffffffffffffffffffffffffffffffffffffff6120319360ff60005460081c1693611fc485611de9565b603654906001600160a01b038095816001600160a01b031993168360345416176034551690603554161760355563a8c0000f60a91b93600560a01b9216906affffffffffffffffffffff60a81b161717161760365561025865ffffffffffff196037541617603755611de9565b612039611ea4565b61204a60ff60005460081c16611de9565b60ff1960325416603255565b906040516060810181811067ffffffffffffffff821117612098575b6040526040600282948054845265ffffffffffff60018201541660208501520154910152565b6120a06105e5565b612072565b156120ac57565b60405162461bcd60e51b815260206004820152601c60248201527f4465706f7369746f72793a206d61726b657420636f6e636c75646564000000006044820152606490fd5b156120f857565b60405162461bcd60e51b815260206004820152601f60248201527f4465706f7369746f72793a206d6f7265207468616e206d6178207072696365006044820152606490fd5b50634e487b7160e01b600052601160045260246000fd5b6b033b2e3c9fd0803ce8000000908060001904821181151516612175570290565b61217d61213d565b0290565b620f4240908060001904821181151516612175570290565b8060001904821181151516612175570290565b81156121b6570490565b634e487b7160e01b600052601260045260246000fd5b60ff16604d81116121de575b600a0a90565b6121e661213d565b6121d8565b156121f257565b60405162461bcd60e51b815260206004820152601d60248201527f4465706f7369746f72793a206d61782073697a652065786365656465640000006044820152606490fd5b818110612242570390565b61224a61213d565b0390565b8119811161225a570190565b61226261213d565b0190565b6040516323b872dd60e01b60208083019182526001600160a01b0394851660248401529484166044830152606480830196909652948152929391906122ac60848561065d565b1690604051926122bb84610641565b8484527f5361666545524332303a206c6f772d6c6576656c2063616c6c206661696c656485850152823b1561232c57612307939260009283809351925af1612301611d5f565b90611d8f565b8051908161231457505050565b826106cc93612327938301019101612371565b612386565b60405162461bcd60e51b815260048101869052601d60248201527f416464726573733a2063616c6c20746f206e6f6e2d636f6e74726163740000006044820152606490fd5b9081602091031261000e575161078b816104c2565b1561238d57565b60405162461bcd60e51b815260206004820152602a60248201527f5361666545524332303a204552433230206f7065726174696f6e20646964206e6044820152691bdd081cdd58d8d9595960b21b6064820152608490fd5b65ffffffffffff9182169116818110612242570390565b90609f548210156125d3575b609f60005261248a61247d61247d612441857f0bc14066c33013fe88f66e314e4cf150b0b2d4d6451a1a51dbbd1c27cd11de28016125e0565b65ffffffffffff6040612473826020850151168042106125c6575b60026124678b611123565b50914203910154612199565b92015116906121ac565b67ffffffffffffffff1690565b6124a2600261249885611123565b5001918254612237565b90556124d6816124b184611316565b509065ffffffffffff60301b82549160301b169065ffffffffffff60301b1916179055565b6124fa60016124ef8460005260a0602052604060002090565b015460601c60ff1690565b612502575050565b6125168260005260a0602052604060002090565b9161252c612523826131ec565b919290936113dc565b50612538838254612237565b9055156125b35761257360018561255661259a946106cc9854612237565b8155019261256e845465ffffffffffff9060301c1690565b6123e5565b82546bffffffffffff000000000000191660309190911b65ffffffffffff60301b16178255565b9065ffffffffffff1665ffffffffffff19825416179055565b505050600101805460ff60601b19169055565b6125ce61213d565b61245c565b6125db61110c565b612408565b9060405160c0810181811067ffffffffffffffff821117612646575b60405260a060ff82945465ffffffffffff8082168552808260301c166020860152808260601c166040860152808260901c1660608601528160c01c16608085015260f01c16910152565b61264e6105e5565b6125fc565b9065ffffffffffff808093169116809203811161225a570190565b9060405160e0810181811067ffffffffffffffff8211176126e4575b60405260c060058294805484526126bf60ff60018301546001600160a01b038116602088015260a01c16604086019015159052565b6002810154606085015260038101546080850152600481015460a08501520154910152565b6126ec6105e5565b61268a565b50634e487b7160e01b600052600060045260246000fd5b6060600161278a9284518155019261276f65ffffffffffff61274481602085015116879065ffffffffffff1665ffffffffffff19825416179055565b604083015186546bffffffffffff0000000000001916911660301b65ffffffffffff60301b16178555565b0151825460ff60601b191690151560601b60ff60601b161790565b9055565b906127a161279b83611316565b506125e0565b805165ffffffffffff16926127d86127cd60808401956127c7875165ffffffffffff1690565b90612653565b65ffffffffffff1690565b65ffffffffffff841610156127ee575b50505050565b6129759361292c61247d8561287460046128db61295b98612874896112e06127cd60406128466127cd61282961282387611123565b5061266e565b9b61256e6001612838896113dc565b50015465ffffffffffff1690565b95612850856130e9565b9a8b61285e84830151151590565b15612a2257612879906128746128959351612154565b6121ac565b61288f61288a60a085015160ff1690565b6121cc565b906121ac565b945b60036128cb6128c561247d61247d8c6128746128bf6127cd60608b015165ffffffffffff1690565b8d612199565b92611123565b500155015165ffffffffffff1690565b9260206129026128f66128f66036546001600160a01b031690565b6001600160a01b031690565b604051633fdaeac760e11b815293849182905afa918215612a15575b6000926129f5575b50612199565b9067ffffffffffffffff61293f846113dc565b5054921691821061297e5750612954826113dc565b5055611316565b509065ffffffffffff1665ffffffffffff19825416179055565b388080806127e8565b6129d06129a861299b6129f094612994876113dc565b5054612237565b925165ffffffffffff1690565b6129b061067f565b92835265ffffffffffff8716602084015265ffffffffffff166040830152565b600160608201526129eb8360005260a0602052604060002090565b612708565b611316565b612a0e91925060203d8111610a3157610a22818361065d565b9038612926565b612a1d6119d0565b61291e565b505194612897565b60405190612a3782610641565b600582526430b236b4b760d91b6020830152565b15612a5257565b60405162461bcd60e51b815260206004820152600e60248201527f4e6f7420617574686f72697a65640000000000000000000000000000000000006044820152606490fd5b9094929394612aa4612a2a565b92612ac86001600160a01b03948560005460101c1633149081156105525750612a4b565b612ada4265ffffffffffff8916612237565b916040519663313ce56760e01b88526020886004818989165afa978815612d92575b600098612d61575b508215612d595788612b28612b1c8361287486612154565b61288f60ff8c16612db8565b915b609d549b8c9a87612b4163ffffffff8d1687612199565b90612b4b916121ac565b612b5361069f565b8781526001600160a01b038b166020820152908815156040830152866060830152608082015260a081016000905260c0810160009052612b9290612dc6565b603654604051633fdaeac760e11b8152928691849081906001600160a01b03165a92600491602094fa90811563ffffffff7f3f414051967f5a5e84f3af856364502239c9052e98e136c6ed4ed90bc5f5b0ba9f612ca965ffffffffffff612d2c9f612c70612cd99e60209e612c66612cd49f60ff9f612cc99e6128748c9f612c4b94612cb99f94612c2f95612d4c575b600092612d325750612199565b93612c45612c3c82612181565b620186a0900490565b9061224e565b91612c546106bf565b93845265ffffffffffff166020840152565b6040820152612e82565b612c99824216612c7e6106ce565b65ffffffffffff821681529e8f019065ffffffffffff169052565b1665ffffffffffff1660408c0152565b1665ffffffffffff166060890152565b1665ffffffffffff166080860152565b1660ff1660a0830152565b612eff565b612d0187612cfc8787166001600160a01b031660005260a1602052604060002090565b613045565b6040519485941697849192604091949365ffffffffffff606085019616845260208401521515910152565b0390a390565b6020612a0e9293503d602011610a3157610a22818361065d565b612d546119d0565b612c22565b888291612b2a565b612d8491985060203d602011612d8b575b612d7c818361065d565b810190612d9f565b9638612b04565b503d612d72565b612d9a6119d0565b612afc565b9081602091031261000e575160ff8116810361000e5790565b604d81116121de57600a0a90565b600560c0612de9609d54600160401b811015612e75575b60018101609d55611123565b939093612e68575b8051845560018401612e266001600160a01b0360208401511682906001600160a01b03166001600160a01b0319825416179055565b6040820151815460ff60a01b191690151560a01b60ff60a01b16179055606081015160028501556080810151600385015560a081015160048501550151910155565b612e706126f1565b612df1565b612e7d6105e5565b612ddd565b60026040612ea5609e54600160401b811015612ef2575b60018101609e556113dc565b939093612ee5575b80518455612ede65ffffffffffff602083015116600186019065ffffffffffff1665ffffffffffff19825416179055565b0151910155565b612eed6126f1565b612ead565b612efa6105e5565b612e99565b6106cc9061301160a0612f27609f54600160401b811015613038575b60018101609f55611316565b93909361302b575b805184546020830151604084015160608086015191901b71ffffffffffff0000000000000000000000001660309290921b65ffffffffffff60301b1665ffffffffffff9485167fffffffffffffffff00000000000000000000000000000000000000000000000090941693909317929092171760909190911b77ffffffffffff000000000000000000000000000000000000161785556080820151613009911685547fffff000000000000ffffffffffffffffffffffffffffffffffffffffffffffff1660c09190911b65ffffffffffff60c01b16178555565b015160ff1690565b815460ff60f01b191660f09190911b60ff60f01b16179055565b6130336126f1565b612f2f565b6130406105e5565b612f1b565b805461306391600160401b82101561307d575b60018201815561135b565b819291549060031b600019811b9283911b16911916179055565b6130856105e5565b613058565b6130b3613096826113dc565b50600101805465ffffffffffff19164265ffffffffffff16179055565b60006130be82611123565b50557f8401d05adbea6548a6999cc1540766e6d2ff919292142862893d0e62ec79fbe56000604051a2565b61078b9061288f61288a6131a76131a1613102856113dc565b50546112e0600461315d60026131178a611123565b500154609f548a10156131df575b609f6000527f0bc14066c33013fe88f66e314e4cf150b0b2d4d6451a1a51dbbd1c27cd11de288a01546112e09060f01c60ff166121cc565b60206131776128f66128f66036546001600160a01b031690565b604051633fdaeac760e11b815293849182905afa9182156131d2575b6000926131b2575b506121ac565b93611316565b505460f01c60ff1690565b6131cb91925060203d8111610a3157610a22818361065d565b903861319b565b6131da6119d0565b613193565b6131e761110c565b613125565b600090815260a060205260408120906001604051926080840184811067ffffffffffffffff8211176132a9575b6040528054845201549165ffffffffffff9283811680602084015260ff6040840192868160301c16845260601c16158015606085015261329e5761325f908542166123e5565b936132736127cd835165ffffffffffff1690565b90851690811093508315613298576127cd61299b61288f926132959551612199565b92565b50505192565b505050809150918190565b6132b16105e5565b613219565b156132bd57565b60405162461bcd60e51b815260206004820152602860248201527f496e73756666696369656e742074726561737572792062616c616e636520666f6044820152671c881c185e5bdd5d60c21b6064820152608490fd5b60ff6080600261333b61278a94805490600160401b8210156133c5575b600182018155611425565b6133b8575b855181556020860151600182015560408601519101805465ffffffffffff191665ffffffffffff928316178155949061339e90606083015187546bffffffffffff0000000000001916911660301b65ffffffffffff60301b16178655565b0151835460ff60601b1916911660601b60ff60601b161790565b6133c06126f1565b613340565b6133cd6105e5565b613330565b909493929160009061348a6133ef6036546001600160a01b031690565b866134026035546001600160a01b031690565b6040516370a0823160e01b81526001600160a01b03828116600483015260209788959290919061344f90869088816024818988165afa908115613689575b859161366c575b5010156132b6565b60405163276d76f960e21b81526001600160a01b03909316600484015230602484015260448301949094529094859384929183906064820190565b0393165af1801561365f575b613642575b5060365460a81c61ffff1661ffff166134b49086612199565b612710900494856134c491612237565b966134e2856001600160a01b03166000526033602052604060002090565b549761350289966001600160a01b03166000526033602052604060002090565b9260058204924265ffffffffffff169461351a6106ee565b84815287810186905265ffffffffffff8716604082015265ffffffffffff891660608201526000608082015261354f91613313565b60365460345460405163a9059cbb60e01b81526001600160a01b039182166004820152602481019b909b5287918b916044918391165a90600091f17f129794f6f9aa0adfa6dda6ca7d08d05812fea954f80008e5cf68ae7b9fa898b49961360297918015613635575b613607575b50506040805133815265ffffffffffff9889166020820152908101989098526060880152608087015260a086015260c085015290911660e08301528190610100820190565b0390a1565b8161362692903d1061362e575b61361e818361065d565b810190612371565b5038806135bd565b503d613614565b61363d6119d0565b6135b8565b61365890833d851161362e5761361e818361065d565b503861349b565b6136676119d0565b613496565b6136839150893d8b11610a3157610a22818361065d565b38613447565b6136916119d0565b613440565b1561369d57565b60405162461bcd60e51b815260206004820152601160248201527f4e6f7468696e6720746f2072656465656d0000000000000000000000000000006044820152606490fd5b906136ec8261184d565b6136f9604051918261065d565b828152809261370a601f199161184d565b0190602036910137565b600190600019811461225a570190565b6020918151811015613739575b60051b010190565b61374161110c565b613731565b1561374d57565b60405162461bcd60e51b815260206004820152601260248201527f4e6f2070656e64696e672076657374696e6700000000000000000000000000006044820152606490fd5b60ff8091169116908160ff03811161225a570190565b90815180825260208080930193019160005b8281106137c8575050505090565b8351855293810193928101926001016137ba565b906001600160a01b03909594929516815261380360209560808784015260808301906137a8565b818103604083015285808551928381520194019060005b8181106138375750505061078b93945060608184039101526137a8565b825160ff168652948701949187019160010161381a565b9060009161385e81511515613696565b61386881516136e2565b9061387381516136e2565b9160005b8251811015613954573360009081526033602052604090206138998285613724565b516138a391611425565b506138ae8285613724565b516138b99033613ada565b9660ff90818916928315156138cd90613746565b600281018054909a9060601c60ff16906138e691613792565b8a5460ff60601b191660609190911b60ff60601b16178a55600101549261390d9084612199565b6139169161224e565b975460601c60ff16806139298587613724565b60ff9091169052169061393b91612199565b6139458286613724565b5261394f90613714565b613877565b50906136027f5a21b90378728eb82fe7be28a8f4a46d422e5c1f08ac7521b84ef5c190b0cc8693600060206139c361399a6128f66128f66036546001600160a01b031690565b60405163a9059cbb60e01b8152336004820152602481018c905293849283919082906044820190565b03925af180156139ff575b6139e1575b5060405193849333856137dc565b6139f89060203d811161362e5761361e818361065d565b50386139d3565b613a076119d0565b6139ce565b9060405160a0810181811067ffffffffffffffff821117613a65575b604052608060ff600283958054855260018101546020860152015465ffffffffffff80821660408601528160301c16606085015260601c16910152565b613a6d6105e5565b613a28565b908154613a7e8161184d565b92613a8c604051948561065d565b818452600090815260208082208186015b848410613aab575050505050565b600383600192613aba85613a0c565b815201920193019290613a9d565b60ff9182169116818110612242570390565b613b0560ff92613b00613b0b936001600160a01b03166000526033602052604060002090565b611425565b50613a0c565b6080810190613b1b825160ff1690565b60365490848260a01c169485911614613bbf5761078b93613b8c613b9e92613b5a613b546127cd604060ff98015165ffffffffffff1690565b42612237565b90613b6760325460ff1690565b15613bad575065ffffffffffff613b8560375465ffffffffffff1690565b16906121ac565b81811115613ba55750925b5160ff1690565b9116613ac8565b905092613b97565b65ffffffffffff809160b81c16613b85565b5050505060009056fea2646970667358221220de3c2e5e376aa5f999116cb7b132ca356d9f178801b0bc21825ba58c33deb22d64736f6c634300080e00337f26b83ff96e1f2b6a682f133852f6798a09c465da95921460cefb3847402498",
  "devdoc": {
    "kind": "dev",
    "methods": {
      "close(uint256)": {
        "params": {
          "_id": "ID of market to close"
        }
      },
      "deposit(uint256,uint256,uint256)": {
        "params": {
          "_amount": "the amount of quote token to spend",
          "_id": "the ID of the market",
          "_maxPrice": "the maxeimum price at which to buy"
        },
        "returns": {
          "index_": "     the user index of the Note (usd to redeem or query information)",
          "payout_": "    the amount of NEND due"
        }
      },
      "owner()": {
        "details": "Returns the address of the current owner."
      },
      "proxiableUUID()": {
        "details": "Implementation of the ERC1822 {proxiableUUID} function. This returns the storage slot used by the implementation. It is used to validate the implementation's compatibility when performing an upgrade. IMPORTANT: A proxy pointing at a proxiable contract should not be considered proxiable itself, because this risks bricking a proxy that upgrades to it, by delegating to itself until out of gas. Thus it is critical that this function revert if invoked through a proxy. This is guaranteed by the `notDelegated` modifier."
      },
      "redeem(uint256[])": {
        "params": {
          "_indexes": "the note indexes to redeem"
        },
        "returns": {
          "payout_": "    sum of payout sent, in NEND"
        }
      },
      "redeemAll(uint256)": {
        "details": "if possible, query indexesFor() off-chain and input in redeem() to save gas",
        "returns": {
          "_0": "sum of payout sent, in NEND"
        }
      },
      "renounceOwnership()": {
        "details": "Leaves the contract without owner. It will not be possible to call `onlyOwner` functions anymore. Can only be called by the current owner. NOTE: Renouncing ownership will leave the contract without an owner, thereby removing any functionality that is only available to the owner."
      },
      "transferOwnership(address)": {
        "details": "Transfers ownership of the contract to a new account (`newOwner`). Can only be called by the current owner."
      },
      "upgradeTo(address)": {
        "details": "Upgrade the implementation of the proxy to `newImplementation`. Calls {_authorizeUpgrade}. Emits an {Upgraded} event."
      },
      "upgradeToAndCall(address,bytes)": {
        "details": "Upgrade the implementation of the proxy to `newImplementation`, and subsequently execute the function call encoded in `data`. Calls {_authorizeUpgrade}. Emits an {Upgraded} event."
      }
    },
    "version": 1
  },
  "userdoc": {
    "kind": "user",
    "methods": {
      "close(uint256)": {
        "notice": "disable existing market"
      },
      "deposit(uint256,uint256,uint256)": {
        "notice": "deposit quote tokens in exchange for a bond from a specified market"
      },
      "redeem(uint256[])": {
        "notice": "redeem notes for user"
      },
      "redeemAll(uint256)": {
        "notice": "redeem all redeemable markets for user"
      }
    },
    "version": 1
  },
  "storageLayout": {
    "storage": [
      {
        "astId": 674,
        "contract": "contracts/bonding/BondDepository.sol:BondDepository",
        "label": "_initialized",
        "offset": 0,
        "slot": "0",
        "type": "t_uint8"
      },
      {
        "astId": 677,
        "contract": "contracts/bonding/BondDepository.sol:BondDepository",
        "label": "_initializing",
        "offset": 1,
        "slot": "0",
        "type": "t_bool"
      },
      {
        "astId": 9827,
        "contract": "contracts/bonding/BondDepository.sol:BondDepository",
        "label": "_owner",
        "offset": 2,
        "slot": "0",
        "type": "t_address"
      },
      {
        "astId": 9947,
        "contract": "contracts/bonding/BondDepository.sol:BondDepository",
        "label": "__gap",
        "offset": 0,
        "slot": "1",
        "type": "t_array(t_uint256)49_storage"
      },
      {
        "astId": 28121,
        "contract": "contracts/bonding/BondDepository.sol:BondDepository",
        "label": "testing",
        "offset": 0,
        "slot": "50",
        "type": "t_bool"
      },
      {
        "astId": 11148,
        "contract": "contracts/bonding/BondDepository.sol:BondDepository",
        "label": "notes",
        "offset": 0,
        "slot": "51",
        "type": "t_mapping(t_address,t_array(t_struct(Note)11086_storage)dyn_storage)"
      },
      {
        "astId": 11150,
        "contract": "contracts/bonding/BondDepository.sol:BondDepository",
        "label": "insurancePool",
        "offset": 0,
        "slot": "52",
        "type": "t_address"
      },
      {
        "astId": 11152,
        "contract": "contracts/bonding/BondDepository.sol:BondDepository",
        "label": "ecosystemPool",
        "offset": 0,
        "slot": "53",
        "type": "t_address"
      },
      {
        "astId": 11154,
        "contract": "contracts/bonding/BondDepository.sol:BondDepository",
        "label": "nend",
        "offset": 0,
        "slot": "54",
        "type": "t_address"
      },
      {
        "astId": 11156,
        "contract": "contracts/bonding/BondDepository.sol:BondDepository",
        "label": "totalVestingCount",
        "offset": 20,
        "slot": "54",
        "type": "t_uint8"
      },
      {
        "astId": 11158,
        "contract": "contracts/bonding/BondDepository.sol:BondDepository",
        "label": "commissionRate",
        "offset": 21,
        "slot": "54",
        "type": "t_uint16"
      },
      {
        "astId": 11160,
        "contract": "contracts/bonding/BondDepository.sol:BondDepository",
        "label": "vestingInverval",
        "offset": 23,
        "slot": "54",
        "type": "t_uint48"
      },
      {
        "astId": 11162,
        "contract": "contracts/bonding/BondDepository.sol:BondDepository",
        "label": "testVestingInverval",
        "offset": 0,
        "slot": "55",
        "type": "t_uint48"
      },
      {
        "astId": 9959,
        "contract": "contracts/bonding/BondDepository.sol:BondDepository",
        "label": "hasRole",
        "offset": 0,
        "slot": "56",
        "type": "t_mapping(t_address,t_mapping(t_string_memory_ptr,t_bool))"
      },
      {
        "astId": 656,
        "contract": "contracts/bonding/BondDepository.sol:BondDepository",
        "label": "__gap",
        "offset": 0,
        "slot": "57",
        "type": "t_array(t_uint256)50_storage"
      },
      {
        "astId": 971,
        "contract": "contracts/bonding/BondDepository.sol:BondDepository",
        "label": "__gap",
        "offset": 0,
        "slot": "107",
        "type": "t_array(t_uint256)50_storage"
      },
      {
        "astId": 10100,
        "contract": "contracts/bonding/BondDepository.sol:BondDepository",
        "label": "markets",
        "offset": 0,
        "slot": "157",
        "type": "t_array(t_struct(Market)10993_storage)dyn_storage"
      },
      {
        "astId": 10104,
        "contract": "contracts/bonding/BondDepository.sol:BondDepository",
        "label": "terms",
        "offset": 0,
        "slot": "158",
        "type": "t_array(t_struct(Terms)11000_storage)dyn_storage"
      },
      {
        "astId": 10108,
        "contract": "contracts/bonding/BondDepository.sol:BondDepository",
        "label": "metadata",
        "offset": 0,
        "slot": "159",
        "type": "t_array(t_struct(Metadata)11013_storage)dyn_storage"
      },
      {
        "astId": 10113,
        "contract": "contracts/bonding/BondDepository.sol:BondDepository",
        "label": "adjustments",
        "offset": 0,
        "slot": "160",
        "type": "t_mapping(t_uint256,t_struct(Adjustment)11022_storage)"
      },
      {
        "astId": 10118,
        "contract": "contracts/bonding/BondDepository.sol:BondDepository",
        "label": "marketsForQuote",
        "offset": 0,
        "slot": "161",
        "type": "t_mapping(t_address,t_array(t_uint256)dyn_storage)"
      }
    ],
    "types": {
      "t_address": {
        "encoding": "inplace",
        "label": "address",
        "numberOfBytes": "20"
      },
      "t_array(t_struct(Market)10993_storage)dyn_storage": {
        "base": "t_struct(Market)10993_storage",
        "encoding": "dynamic_array",
        "label": "struct IBondDepository.Market[]",
        "numberOfBytes": "32"
      },
      "t_array(t_struct(Metadata)11013_storage)dyn_storage": {
        "base": "t_struct(Metadata)11013_storage",
        "encoding": "dynamic_array",
        "label": "struct IBondDepository.Metadata[]",
        "numberOfBytes": "32"
      },
      "t_array(t_struct(Note)11086_storage)dyn_storage": {
        "base": "t_struct(Note)11086_storage",
        "encoding": "dynamic_array",
        "label": "struct INoteKeeper.Note[]",
        "numberOfBytes": "32"
      },
      "t_array(t_struct(Terms)11000_storage)dyn_storage": {
        "base": "t_struct(Terms)11000_storage",
        "encoding": "dynamic_array",
        "label": "struct IBondDepository.Terms[]",
        "numberOfBytes": "32"
      },
      "t_array(t_uint256)49_storage": {
        "base": "t_uint256",
        "encoding": "inplace",
        "label": "uint256[49]",
        "numberOfBytes": "1568"
      },
      "t_array(t_uint256)50_storage": {
        "base": "t_uint256",
        "encoding": "inplace",
        "label": "uint256[50]",
        "numberOfBytes": "1600"
      },
      "t_array(t_uint256)dyn_storage": {
        "base": "t_uint256",
        "encoding": "dynamic_array",
        "label": "uint256[]",
        "numberOfBytes": "32"
      },
      "t_bool": {
        "encoding": "inplace",
        "label": "bool",
        "numberOfBytes": "1"
      },
      "t_contract(IERC20)6605": {
        "encoding": "inplace",
        "label": "contract IERC20",
        "numberOfBytes": "20"
      },
      "t_mapping(t_address,t_array(t_struct(Note)11086_storage)dyn_storage)": {
        "encoding": "mapping",
        "key": "t_address",
        "label": "mapping(address => struct INoteKeeper.Note[])",
        "numberOfBytes": "32",
        "value": "t_array(t_struct(Note)11086_storage)dyn_storage"
      },
      "t_mapping(t_address,t_array(t_uint256)dyn_storage)": {
        "encoding": "mapping",
        "key": "t_address",
        "label": "mapping(address => uint256[])",
        "numberOfBytes": "32",
        "value": "t_array(t_uint256)dyn_storage"
      },
      "t_mapping(t_address,t_mapping(t_string_memory_ptr,t_bool))": {
        "encoding": "mapping",
        "key": "t_address",
        "label": "mapping(address => mapping(string => bool))",
        "numberOfBytes": "32",
        "value": "t_mapping(t_string_memory_ptr,t_bool)"
      },
      "t_mapping(t_string_memory_ptr,t_bool)": {
        "encoding": "mapping",
        "key": "t_string_memory_ptr",
        "label": "mapping(string => bool)",
        "numberOfBytes": "32",
        "value": "t_bool"
      },
      "t_mapping(t_uint256,t_struct(Adjustment)11022_storage)": {
        "encoding": "mapping",
        "key": "t_uint256",
        "label": "mapping(uint256 => struct IBondDepository.Adjustment)",
        "numberOfBytes": "32",
        "value": "t_struct(Adjustment)11022_storage"
      },
      "t_string_memory_ptr": {
        "encoding": "bytes",
        "label": "string",
        "numberOfBytes": "32"
      },
      "t_struct(Adjustment)11022_storage": {
        "encoding": "inplace",
        "label": "struct IBondDepository.Adjustment",
        "members": [
          {
            "astId": 11015,
            "contract": "contracts/bonding/BondDepository.sol:BondDepository",
            "label": "change",
            "offset": 0,
            "slot": "0",
            "type": "t_uint256"
          },
          {
            "astId": 11017,
            "contract": "contracts/bonding/BondDepository.sol:BondDepository",
            "label": "lastAdjustment",
            "offset": 0,
            "slot": "1",
            "type": "t_uint48"
          },
          {
            "astId": 11019,
            "contract": "contracts/bonding/BondDepository.sol:BondDepository",
            "label": "timeToAdjusted",
            "offset": 6,
            "slot": "1",
            "type": "t_uint48"
          },
          {
            "astId": 11021,
            "contract": "contracts/bonding/BondDepository.sol:BondDepository",
            "label": "active",
            "offset": 12,
            "slot": "1",
            "type": "t_bool"
          }
        ],
        "numberOfBytes": "64"
      },
      "t_struct(Market)10993_storage": {
        "encoding": "inplace",
        "label": "struct IBondDepository.Market",
        "members": [
          {
            "astId": 10979,
            "contract": "contracts/bonding/BondDepository.sol:BondDepository",
            "label": "capacity",
            "offset": 0,
            "slot": "0",
            "type": "t_uint256"
          },
          {
            "astId": 10982,
            "contract": "contracts/bonding/BondDepository.sol:BondDepository",
            "label": "quoteToken",
            "offset": 0,
            "slot": "1",
            "type": "t_contract(IERC20)6605"
          },
          {
            "astId": 10984,
            "contract": "contracts/bonding/BondDepository.sol:BondDepository",
            "label": "capacityInQuote",
            "offset": 20,
            "slot": "1",
            "type": "t_bool"
          },
          {
            "astId": 10986,
            "contract": "contracts/bonding/BondDepository.sol:BondDepository",
            "label": "totalDebt",
            "offset": 0,
            "slot": "2",
            "type": "t_uint256"
          },
          {
            "astId": 10988,
            "contract": "contracts/bonding/BondDepository.sol:BondDepository",
            "label": "maxPayout",
            "offset": 0,
            "slot": "3",
            "type": "t_uint256"
          },
          {
            "astId": 10990,
            "contract": "contracts/bonding/BondDepository.sol:BondDepository",
            "label": "sold",
            "offset": 0,
            "slot": "4",
            "type": "t_uint256"
          },
          {
            "astId": 10992,
            "contract": "contracts/bonding/BondDepository.sol:BondDepository",
            "label": "purchased",
            "offset": 0,
            "slot": "5",
            "type": "t_uint256"
          }
        ],
        "numberOfBytes": "192"
      },
      "t_struct(Metadata)11013_storage": {
        "encoding": "inplace",
        "label": "struct IBondDepository.Metadata",
        "members": [
          {
            "astId": 11002,
            "contract": "contracts/bonding/BondDepository.sol:BondDepository",
            "label": "lastTune",
            "offset": 0,
            "slot": "0",
            "type": "t_uint48"
          },
          {
            "astId": 11004,
            "contract": "contracts/bonding/BondDepository.sol:BondDepository",
            "label": "lastDecay",
            "offset": 6,
            "slot": "0",
            "type": "t_uint48"
          },
          {
            "astId": 11006,
            "contract": "contracts/bonding/BondDepository.sol:BondDepository",
            "label": "length",
            "offset": 12,
            "slot": "0",
            "type": "t_uint48"
          },
          {
            "astId": 11008,
            "contract": "contracts/bonding/BondDepository.sol:BondDepository",
            "label": "depositInterval",
            "offset": 18,
            "slot": "0",
            "type": "t_uint48"
          },
          {
            "astId": 11010,
            "contract": "contracts/bonding/BondDepository.sol:BondDepository",
            "label": "tuneInterval",
            "offset": 24,
            "slot": "0",
            "type": "t_uint48"
          },
          {
            "astId": 11012,
            "contract": "contracts/bonding/BondDepository.sol:BondDepository",
            "label": "quoteDecimals",
            "offset": 30,
            "slot": "0",
            "type": "t_uint8"
          }
        ],
        "numberOfBytes": "32"
      },
      "t_struct(Note)11086_storage": {
        "encoding": "inplace",
        "label": "struct INoteKeeper.Note",
        "members": [
          {
            "astId": 11077,
            "contract": "contracts/bonding/BondDepository.sol:BondDepository",
            "label": "payout",
            "offset": 0,
            "slot": "0",
            "type": "t_uint256"
          },
          {
            "astId": 11079,
            "contract": "contracts/bonding/BondDepository.sol:BondDepository",
            "label": "payoutPerVesting",
            "offset": 0,
            "slot": "1",
            "type": "t_uint256"
          },
          {
            "astId": 11081,
            "contract": "contracts/bonding/BondDepository.sol:BondDepository",
            "label": "created",
            "offset": 0,
            "slot": "2",
            "type": "t_uint48"
          },
          {
            "astId": 11083,
            "contract": "contracts/bonding/BondDepository.sol:BondDepository",
            "label": "marketID",
            "offset": 6,
            "slot": "2",
            "type": "t_uint48"
          },
          {
            "astId": 11085,
            "contract": "contracts/bonding/BondDepository.sol:BondDepository",
            "label": "vestingCount",
            "offset": 12,
            "slot": "2",
            "type": "t_uint8"
          }
        ],
        "numberOfBytes": "96"
      },
      "t_struct(Terms)11000_storage": {
        "encoding": "inplace",
        "label": "struct IBondDepository.Terms",
        "members": [
          {
            "astId": 10995,
            "contract": "contracts/bonding/BondDepository.sol:BondDepository",
            "label": "controlVariable",
            "offset": 0,
            "slot": "0",
            "type": "t_uint256"
          },
          {
            "astId": 10997,
            "contract": "contracts/bonding/BondDepository.sol:BondDepository",
            "label": "conclusion",
            "offset": 0,
            "slot": "1",
            "type": "t_uint48"
          },
          {
            "astId": 10999,
            "contract": "contracts/bonding/BondDepository.sol:BondDepository",
            "label": "maxDebt",
            "offset": 0,
            "slot": "2",
            "type": "t_uint256"
          }
        ],
        "numberOfBytes": "96"
      },
      "t_uint16": {
        "encoding": "inplace",
        "label": "uint16",
        "numberOfBytes": "2"
      },
      "t_uint256": {
        "encoding": "inplace",
        "label": "uint256",
        "numberOfBytes": "32"
      },
      "t_uint48": {
        "encoding": "inplace",
        "label": "uint48",
        "numberOfBytes": "6"
      },
      "t_uint8": {
        "encoding": "inplace",
        "label": "uint8",
        "numberOfBytes": "1"
      }
    }
  }
}