{
  "address": "0x2EAf7404D89889d7aa4779849F6642A8997A55F5",
  "abi": [
    {
      "anonymous": false,
      "inputs": [
        {
          "indexed": false,
          "internalType": "address",
          "name": "previousAdmin",
          "type": "address"
        },
        {
          "indexed": false,
          "internalType": "address",
          "name": "newAdmin",
          "type": "address"
        }
      ],
      "name": "AdminChanged",
      "type": "event"
    },
    {
      "anonymous": false,
      "inputs": [
        {
          "indexed": true,
          "internalType": "address",
          "name": "owner",
          "type": "address"
        },
        {
          "indexed": true,
          "internalType": "address",
          "name": "spender",
          "type": "address"
        },
        {
          "indexed": false,
          "internalType": "uint256",
          "name": "value",
          "type": "uint256"
        }
      ],
      "name": "Approval",
      "type": "event"
    },
    {
      "anonymous": false,
      "inputs": [
        {
          "indexed": true,
          "internalType": "address",
          "name": "beacon",
          "type": "address"
        }
      ],
      "name": "BeaconUpgraded",
      "type": "event"
    },
    {
      "anonymous": false,
      "inputs": [
        {
          "indexed": false,
          "internalType": "uint48",
          "name": "enteredAt",
          "type": "uint48"
        },
        {
          "indexed": false,
          "internalType": "uint256",
          "name": "targetChainId",
          "type": "uint256"
        },
        {
          "indexed": false,
          "internalType": "address",
          "name": "sender",
          "type": "address"
        },
        {
          "indexed": false,
          "internalType": "address",
          "name": "receiver",
          "type": "address"
        },
        {
          "indexed": false,
          "internalType": "uint256",
          "name": "amount",
          "type": "uint256"
        },
        {
          "indexed": false,
          "internalType": "uint256",
          "name": "nonce",
          "type": "uint256"
        }
      ],
      "name": "EnterBridge",
      "type": "event"
    },
    {
      "anonymous": false,
      "inputs": [
        {
          "indexed": false,
          "internalType": "uint8",
          "name": "version",
          "type": "uint8"
        }
      ],
      "name": "Initialized",
      "type": "event"
    },
    {
      "anonymous": false,
      "inputs": [
        {
          "indexed": false,
          "internalType": "uint256",
          "name": "nonce",
          "type": "uint256"
        },
        {
          "indexed": false,
          "internalType": "uint256",
          "name": "sourceChainId",
          "type": "uint256"
        },
        {
          "indexed": false,
          "internalType": "uint48",
          "name": "leftAt",
          "type": "uint48"
        }
      ],
      "name": "LeaveBridge",
      "type": "event"
    },
    {
      "anonymous": false,
      "inputs": [
        {
          "indexed": true,
          "internalType": "address",
          "name": "previousOwner",
          "type": "address"
        },
        {
          "indexed": true,
          "internalType": "address",
          "name": "newOwner",
          "type": "address"
        }
      ],
      "name": "OwnershipTransferred",
      "type": "event"
    },
    {
      "anonymous": false,
      "inputs": [
        {
          "indexed": true,
          "internalType": "address",
          "name": "from",
          "type": "address"
        },
        {
          "indexed": true,
          "internalType": "address",
          "name": "to",
          "type": "address"
        },
        {
          "indexed": false,
          "internalType": "uint256",
          "name": "value",
          "type": "uint256"
        }
      ],
      "name": "Transfer",
      "type": "event"
    },
    {
      "anonymous": false,
      "inputs": [
        {
          "indexed": true,
          "internalType": "address",
          "name": "implementation",
          "type": "address"
        }
      ],
      "name": "Upgraded",
      "type": "event"
    },
    {
      "inputs": [],
      "name": "__MWOwnable_init",
      "outputs": [],
      "stateMutability": "nonpayable",
      "type": "function"
    },
    {
      "inputs": [],
      "name": "__Testing_init",
      "outputs": [],
      "stateMutability": "nonpayable",
      "type": "function"
    },
    {
      "inputs": [
        {
          "internalType": "address",
          "name": "owner",
          "type": "address"
        },
        {
          "internalType": "address",
          "name": "spender",
          "type": "address"
        }
      ],
      "name": "allowance",
      "outputs": [
        {
          "internalType": "uint256",
          "name": "",
          "type": "uint256"
        }
      ],
      "stateMutability": "view",
      "type": "function"
    },
    {
      "inputs": [
        {
          "internalType": "address",
          "name": "spender",
          "type": "address"
        },
        {
          "internalType": "uint256",
          "name": "amount",
          "type": "uint256"
        }
      ],
      "name": "approve",
      "outputs": [
        {
          "internalType": "bool",
          "name": "",
          "type": "bool"
        }
      ],
      "stateMutability": "nonpayable",
      "type": "function"
    },
    {
      "inputs": [
        {
          "internalType": "address",
          "name": "operator",
          "type": "address"
        },
        {
          "internalType": "string",
          "name": "role",
          "type": "string"
        },
        {
          "internalType": "bool",
          "name": "authorized",
          "type": "bool"
        }
      ],
      "name": "authorize",
      "outputs": [],
      "stateMutability": "nonpayable",
      "type": "function"
    },
    {
      "inputs": [
        {
          "internalType": "address",
          "name": "account",
          "type": "address"
        }
      ],
      "name": "balanceOf",
      "outputs": [
        {
          "internalType": "uint256",
          "name": "",
          "type": "uint256"
        }
      ],
      "stateMutability": "view",
      "type": "function"
    },
    {
      "inputs": [
        {
          "internalType": "uint256",
          "name": "amount",
          "type": "uint256"
        }
      ],
      "name": "burn",
      "outputs": [],
      "stateMutability": "nonpayable",
      "type": "function"
    },
    {
      "inputs": [
        {
          "internalType": "address",
          "name": "account",
          "type": "address"
        },
        {
          "internalType": "uint256",
          "name": "amount",
          "type": "uint256"
        }
      ],
      "name": "burnFrom",
      "outputs": [],
      "stateMutability": "nonpayable",
      "type": "function"
    },
    {
      "inputs": [],
      "name": "crossChainInflationAmount",
      "outputs": [
        {
          "internalType": "uint256",
          "name": "",
          "type": "uint256"
        }
      ],
      "stateMutability": "view",
      "type": "function"
    },
    {
      "inputs": [],
      "name": "crossChainSupply",
      "outputs": [
        {
          "internalType": "uint256",
          "name": "",
          "type": "uint256"
        }
      ],
      "stateMutability": "view",
      "type": "function"
    },
    {
      "inputs": [],
      "name": "decimals",
      "outputs": [
        {
          "internalType": "uint8",
          "name": "",
          "type": "uint8"
        }
      ],
      "stateMutability": "view",
      "type": "function"
    },
    {
      "inputs": [
        {
          "internalType": "address",
          "name": "spender",
          "type": "address"
        },
        {
          "internalType": "uint256",
          "name": "subtractedValue",
          "type": "uint256"
        }
      ],
      "name": "decreaseAllowance",
      "outputs": [
        {
          "internalType": "bool",
          "name": "",
          "type": "bool"
        }
      ],
      "stateMutability": "nonpayable",
      "type": "function"
    },
    {
      "inputs": [
        {
          "internalType": "address",
          "name": "_to",
          "type": "address"
        },
        {
          "internalType": "uint256",
          "name": "_amount",
          "type": "uint256"
        }
      ],
      "name": "distribute",
      "outputs": [],
      "stateMutability": "nonpayable",
      "type": "function"
    },
    {
      "inputs": [
        {
          "internalType": "uint256",
          "name": "_targetChainId",
          "type": "uint256"
        },
        {
          "internalType": "address",
          "name": "_receiver",
          "type": "address"
        },
        {
          "internalType": "uint256",
          "name": "_amount",
          "type": "uint256"
        }
      ],
      "name": "enterBridge",
      "outputs": [],
      "stateMutability": "nonpayable",
      "type": "function"
    },
    {
      "inputs": [
        {
          "internalType": "address",
          "name": "",
          "type": "address"
        },
        {
          "internalType": "string",
          "name": "",
          "type": "string"
        }
      ],
      "name": "hasRole",
      "outputs": [
        {
          "internalType": "bool",
          "name": "",
          "type": "bool"
        }
      ],
      "stateMutability": "view",
      "type": "function"
    },
    {
      "inputs": [
        {
          "internalType": "address",
          "name": "spender",
          "type": "address"
        },
        {
          "internalType": "uint256",
          "name": "addedValue",
          "type": "uint256"
        }
      ],
      "name": "increaseAllowance",
      "outputs": [
        {
          "internalType": "bool",
          "name": "",
          "type": "bool"
        }
      ],
      "stateMutability": "nonpayable",
      "type": "function"
    },
    {
      "inputs": [
        {
          "internalType": "uint8",
          "name": "_count",
          "type": "uint8"
        },
        {
          "internalType": "uint256",
          "name": "_amount",
          "type": "uint256"
        },
        {
          "internalType": "bytes",
          "name": "_signature",
          "type": "bytes"
        }
      ],
      "name": "inflate",
      "outputs": [],
      "stateMutability": "nonpayable",
      "type": "function"
    },
    {
      "inputs": [
        {
          "internalType": "bool",
          "name": "_isMainChain",
          "type": "bool"
        },
        {
          "internalType": "uint256[]",
          "name": "_chains",
          "type": "uint256[]"
        }
      ],
      "name": "initialize",
      "outputs": [],
      "stateMutability": "nonpayable",
      "type": "function"
    },
    {
      "inputs": [],
      "name": "isMintChain",
      "outputs": [
        {
          "internalType": "bool",
          "name": "",
          "type": "bool"
        }
      ],
      "stateMutability": "view",
      "type": "function"
    },
    {
      "inputs": [
        {
          "internalType": "uint8",
          "name": "",
          "type": "uint8"
        }
      ],
      "name": "isProcessed",
      "outputs": [
        {
          "internalType": "bool",
          "name": "",
          "type": "bool"
        }
      ],
      "stateMutability": "view",
      "type": "function"
    },
    {
      "inputs": [],
      "name": "lastInflation",
      "outputs": [
        {
          "internalType": "uint48",
          "name": "",
          "type": "uint48"
        }
      ],
      "stateMutability": "view",
      "type": "function"
    },
    {
      "inputs": [
        {
          "internalType": "uint256",
          "name": "_sourceChainId",
          "type": "uint256"
        },
        {
          "internalType": "address",
          "name": "_receiver",
          "type": "address"
        },
        {
          "internalType": "uint256",
          "name": "_amount",
          "type": "uint256"
        },
        {
          "internalType": "uint256",
          "name": "_nonce",
          "type": "uint256"
        },
        {
          "internalType": "bytes",
          "name": "_signature",
          "type": "bytes"
        }
      ],
      "name": "leaveBridge",
      "outputs": [],
      "stateMutability": "nonpayable",
      "type": "function"
    },
    {
      "inputs": [
        {
          "internalType": "address",
          "name": "_receiver",
          "type": "address"
        },
        {
          "internalType": "uint256",
          "name": "_amount",
          "type": "uint256"
        }
      ],
      "name": "mint",
      "outputs": [],
      "stateMutability": "nonpayable",
      "type": "function"
    },
    {
      "inputs": [],
      "name": "name",
      "outputs": [
        {
          "internalType": "string",
          "name": "",
          "type": "string"
        }
      ],
      "stateMutability": "view",
      "type": "function"
    },
    {
      "inputs": [],
      "name": "owner",
      "outputs": [
        {
          "internalType": "address",
          "name": "",
          "type": "address"
        }
      ],
      "stateMutability": "view",
      "type": "function"
    },
    {
      "inputs": [],
      "name": "proxiableUUID",
      "outputs": [
        {
          "internalType": "bytes32",
          "name": "",
          "type": "bytes32"
        }
      ],
      "stateMutability": "view",
      "type": "function"
    },
    {
      "inputs": [],
      "name": "renounceOwnership",
      "outputs": [],
      "stateMutability": "nonpayable",
      "type": "function"
    },
    {
      "inputs": [],
      "name": "reset",
      "outputs": [],
      "stateMutability": "nonpayable",
      "type": "function"
    },
    {
      "inputs": [
        {
          "internalType": "address",
          "name": "_staking",
          "type": "address"
        }
      ],
      "name": "setStaking",
      "outputs": [],
      "stateMutability": "nonpayable",
      "type": "function"
    },
    {
      "inputs": [
        {
          "internalType": "bool",
          "name": "_testing",
          "type": "bool"
        }
      ],
      "name": "setTesting",
      "outputs": [],
      "stateMutability": "nonpayable",
      "type": "function"
    },
    {
      "inputs": [],
      "name": "staking",
      "outputs": [
        {
          "internalType": "contract ILendingPoolStaking",
          "name": "",
          "type": "address"
        }
      ],
      "stateMutability": "view",
      "type": "function"
    },
    {
      "inputs": [
        {
          "internalType": "uint256",
          "name": "",
          "type": "uint256"
        }
      ],
      "name": "supportedChainIds",
      "outputs": [
        {
          "internalType": "uint256",
          "name": "",
          "type": "uint256"
        }
      ],
      "stateMutability": "view",
      "type": "function"
    },
    {
      "inputs": [],
      "name": "symbol",
      "outputs": [
        {
          "internalType": "string",
          "name": "",
          "type": "string"
        }
      ],
      "stateMutability": "view",
      "type": "function"
    },
    {
      "inputs": [],
      "name": "testing",
      "outputs": [
        {
          "internalType": "bool",
          "name": "",
          "type": "bool"
        }
      ],
      "stateMutability": "view",
      "type": "function"
    },
    {
      "inputs": [],
      "name": "timeSlicedCrossChainSupply",
      "outputs": [
        {
          "internalType": "uint256",
          "name": "",
          "type": "uint256"
        }
      ],
      "stateMutability": "view",
      "type": "function"
    },
    {
      "inputs": [],
      "name": "totalSupply",
      "outputs": [
        {
          "internalType": "uint256",
          "name": "",
          "type": "uint256"
        }
      ],
      "stateMutability": "view",
      "type": "function"
    },
    {
      "inputs": [
        {
          "internalType": "address",
          "name": "to",
          "type": "address"
        },
        {
          "internalType": "uint256",
          "name": "amount",
          "type": "uint256"
        }
      ],
      "name": "transfer",
      "outputs": [
        {
          "internalType": "bool",
          "name": "",
          "type": "bool"
        }
      ],
      "stateMutability": "nonpayable",
      "type": "function"
    },
    {
      "inputs": [
        {
          "internalType": "address",
          "name": "from",
          "type": "address"
        },
        {
          "internalType": "address",
          "name": "to",
          "type": "address"
        },
        {
          "internalType": "uint256",
          "name": "amount",
          "type": "uint256"
        }
      ],
      "name": "transferFrom",
      "outputs": [
        {
          "internalType": "bool",
          "name": "",
          "type": "bool"
        }
      ],
      "stateMutability": "nonpayable",
      "type": "function"
    },
    {
      "inputs": [
        {
          "internalType": "address",
          "name": "newOwner",
          "type": "address"
        }
      ],
      "name": "transferOwnership",
      "outputs": [],
      "stateMutability": "nonpayable",
      "type": "function"
    },
    {
      "inputs": [
        {
          "internalType": "uint256",
          "name": "_crossChainSupply",
          "type": "uint256"
        },
        {
          "internalType": "uint256",
          "name": "_crossChainInflationAmount",
          "type": "uint256"
        }
      ],
      "name": "update",
      "outputs": [],
      "stateMutability": "nonpayable",
      "type": "function"
    },
    {
      "inputs": [
        {
          "internalType": "address",
          "name": "newImplementation",
          "type": "address"
        }
      ],
      "name": "upgradeTo",
      "outputs": [],
      "stateMutability": "nonpayable",
      "type": "function"
    },
    {
      "inputs": [
        {
          "internalType": "address",
          "name": "newImplementation",
          "type": "address"
        },
        {
          "internalType": "bytes",
          "name": "data",
          "type": "bytes"
        }
      ],
      "name": "upgradeToAndCall",
      "outputs": [],
      "stateMutability": "payable",
      "type": "function"
    }
  ],
  "transactionHash": "0x762c27419f1156bbd77643df2f020c752be7be7f39c93cf664ef1110c0e3430c",
  "args": [],
  "numDeployments": 1,
  "solcInputHash": "5f4e724599e3a7403e26c4f96c760b8c",
  "bytecode": "0x60a06040523462000111576000546200003260ff8260081c16158092819362000102575b8115620000df575b5062000116565b8062000046600160ff196000541617600055565b620000c4575b620000566200020d565b62000091575b620000666200017a565b30608052604051612f8790816200026e823960805181818161082f01528181610c6e0152610dde0152f35b620000a261ff001960005416600055565b60405160018152600080516020620031f583398151915290602090a16200005c565b620000d961010061ff00196000541617600055565b6200004c565b303b15915081620000f3575b50386200002b565b6001915060ff161438620000eb565b600160ff821610915062000023565b600080fd5b156200011e57565b60405162461bcd60e51b815260206004820152602e60248201527f496e697469616c697a61626c653a20636f6e747261637420697320616c72656160448201526d191e481a5b9a5d1a585b1a5e995960921b6064820152608490fd5b600054620001a060ff8260081c16158092819362000102578115620000df575062000116565b80620001b4600160ff196000541617600055565b620001f2575b60ff19609a5416609a55620001cb57565b61ff001960005416600055600080516020620031f5833981519152602060405160018152a1565b6200020761010061ff00196000541617600055565b620001ba565b60658054737e8ae5c72eca86946b695dcc211863d9721a09616001600160a01b0319821681179092556040516001600160a01b03909116907f8be0079c531659141344cd1fd0a4f28419497f9722a3daafe3b4186f6b6457e090600090a356fe60806040526004361015610013575b600080fd5b60003560e01c806306fdde031461035b57806308ed8d1614610352578063095ea7b3146103495780630e1e5e701461034057806318160ddd14610337578063217fe6c61461032e57806323b872dd146103255780632608ab611461031c5780632fb565e814610313578063313ce5671461030a57806333d31cb5146103015780633659cfe6146102f857806339509351146102ef57806339d2525f146102e65780633e533a1f146102dd57806340c10f19146102d457806342966c68146102cb5780634cf088d9146102c25780634cf2ab32146102b95780634f1ef286146102b057806352d1902d146102a757806361c0cf5e1461029e57806365b014b71461029557806370a082311461028c578063715018a61461028357806379cc67901461027a5780637fb5d58e14610271578063873c59a5146102685780638d03b1021461025f5780638da5cb5b146102565780638ff390991461024d57806395d89b41146102445780639f64f2d81461023b578063a457c2d714610232578063a9059cbb14610229578063b130840d14610220578063d2438c2a14610217578063d826f88f1461020e578063dd62ed3e14610205578063e15841b5146101fc578063f2fde38b146101f35763fb932108146101eb57600080fd5b61000e611689565b5061000e6115bf565b5061000e61156f565b5061000e611511565b5061000e6114c6565b5061000e611497565b5061000e6113f5565b5061000e6113ce565b5061000e611312565b5061000e6112c3565b5061000e61121b565b5061000e6111a7565b5061000e61117f565b5061000e61115b565b5061000e61113c565b5061000e611118565b5061000e6110e7565b5061000e611087565b5061000e61104c565b5061000e611021565b5061000e610e9a565b5061000e610dc2565b5061000e610c2c565b5061000e610bda565b5061000e610baf565b5061000e610b91565b5061000e610ae9565b5061000e610aaf565b5061000e610a04565b5061000e6109aa565b5061000e610809565b5061000e6107df565b5061000e6107c2565b5061000e61079a565b5061000e610775565b5061000e61073c565b5061000e6106b1565b5061000e610572565b5061000e610553565b5061000e610521565b5061000e6104bc565b5061000e6103d0565b600091031261000e57565b918091926000905b82821061038f575011610388575050565b6000910152565b91508060209183015181860152018291610377565b604091602082526103c4815180928160208601526020868601910161036f565b601f01601f1916010190565b503461000e576000806003193601126104aa5760405190806036546103f481611ab4565b80855291600191808316908115610489575060011461042e575b61042a8561041e8187038261061d565b604051918291826103a4565b0390f35b9250603683527f4a11f94e20a93c79f6ec743a1954ec4fc2c08429ae2122118bf234b2185c81b85b82841061047157505050810160200161041e8261042a61040e565b80546020858701810191909152909301928101610456565b60ff19166020870152505060408401925061041e915083905061042a61040e565b80fd5b60043590811515820361000e57565b503461000e57602036600319011261000e576104d66104ad565b6104de6120ac565b60ff8019609a54169115151617609a556000604051f35b600435906001600160a01b038216820361000e57565b602435906001600160a01b038216820361000e57565b503461000e57604036600319011261000e5761054861053e6104f5565b6024359033611ced565b602060405160018152f35b503461000e57600036600319011261000e576020609d54604051908152f35b503461000e57600036600319011261000e576020603554604051908152f35b50634e487b7160e01b600052604160045260246000fd5b67ffffffffffffffff81116105bc57604052565b6105c4610591565b604052565b6020810190811067ffffffffffffffff8211176105bc57604052565b6040810190811067ffffffffffffffff8211176105bc57604052565b60a0810190811067ffffffffffffffff8211176105bc57604052565b90601f8019910116810190811067ffffffffffffffff8211176105bc57604052565b60209067ffffffffffffffff811161065d575b601f01601f19160190565b610665610591565b610652565b81601f8201121561000e578035906106818261063f565b9261068f604051948561061d565b8284526020838301011161000e57816000926020809301838601378301015290565b503461000e57604036600319011261000e576106cb6104f5565b60243567ffffffffffffffff811161000e5761071f602061042a936001600160a01b036106fe60ff95369060040161066a565b9116600052609e82526040600020826040519483868095519384920161036f565b820190815203019020546040519116151581529081906020820190565b503461000e57606036600319011261000e576105486107596104f5565b61076161050b565b60443591610770833383611e1a565b611bd0565b503461000e57600036600319011261000e57602060ff61013554166040519015158152f35b503461000e57604036600319011261000e576107b46120ac565b600435609c55602435609d55005b503461000e57600036600319011261000e57602060405160128152f35b503461000e57600036600319011261000e57602065ffffffffffff609a5460081c16604051908152f35b503461000e57602036600319011261000e576108236104f5565b6001600160a01b0390817f0000000000000000000000000000000000000000000000000000000000000000169161085c833014156116b8565b61088b7f360894a13ba1a3210667c828492db98dca3e2076cc3735a920a3ca505d382bbc938285541614611719565b6108936120ac565b604051906108a0826105c9565b600082527f4910fdfa16fed3260ed0e7147f7cc6da11a60208b5b9406d12a635614ffd91435460ff16156108dc5750506108da91506117f4565b005b6020600491604094939451928380926352d1902d60e01b825286165afa6000918161097a575b506109675760405162461bcd60e51b815260206004820152602e60248201527f45524331393637557067726164653a206e657720696d706c656d656e7461746960448201526d6f6e206973206e6f74205555505360901b6064820152608490fd5b0390fd5b6108da936109759114611796565b611892565b61099c91925060203d81116109a3575b610994818361061d565b81019061177a565b9038610902565b503d61098a565b503461000e57604036600319011261000e576105486109c76104f5565b3360005260346020526109fd6024356109f7836040600020906001600160a01b0316600052602052604060002090565b54611b05565b9033611ced565b503461000e57606036600319011261000e57610a1e6104f5565b60243567ffffffffffffffff811161000e57610a3e90369060040161066a565b60443590811515820361000e576020610a85916001600160a01b036108da95610a656120ac565b16600052609e82526040600020826040519483868095519384920161036f565b8201908152030190209060ff801983541691151516179055565b6004359060ff8216820361000e57565b503461000e57602036600319011261000e5760ff610acb610a9f565b16600052609b602052602060ff604060002054166040519015158152f35b503461000e57604036600319011261000e576108da610b066104f5565b610b46604051610b15816105e5565b60068152602081016536b4b73a32b960d11b81526001600160a01b03606554163314918215610b4f575b50506127ba565b6024359061240b565b610b8a9250610b7a9160209133600052609e835260406000209060405194859384925192839161036f565b8201908152030190205460ff1690565b3880610b3f565b503461000e57602036600319011261000e576108da60043533611ebe565b503461000e57600036600319011261000e5760206001600160a01b03609a5460381c16604051908152f35b503461000e57602036600319011261000e5760043560995481101561000e5760209060996000527f72a152ddfb8e864297c917af52ea6c1c68aead0fee1a62673fcc7e0c94979d000154604051908152f35b50604036600319011261000e57610c416104f5565b60243567ffffffffffffffff811161000e57610c6190369060040161066a565b906001600160a01b0391827f00000000000000000000000000000000000000000000000000000000000000001692610c9b843014156116b8565b610cca7f360894a13ba1a3210667c828492db98dca3e2076cc3735a920a3ca505d382bbc948286541614611719565b610cd26120ac565b7f4910fdfa16fed3260ed0e7147f7cc6da11a60208b5b9406d12a635614ffd91435460ff1615610d085750506108da91506117f4565b6020600491604094939451928380926352d1902d60e01b825286165afa60009181610da2575b50610d8f5760405162461bcd60e51b815260206004820152602e60248201527f45524331393637557067726164653a206e657720696d706c656d656e7461746960448201526d6f6e206973206e6f74205555505360901b6064820152608490fd5b6108da93610d9d9114611796565b6119a2565b610dbb91925060203d81116109a357610994818361061d565b9038610d2e565b503461000e57600036600319011261000e576001600160a01b037f0000000000000000000000000000000000000000000000000000000000000000163003610e2f576040517f360894a13ba1a3210667c828492db98dca3e2076cc3735a920a3ca505d382bbc8152602090f35b60405162461bcd60e51b815260206004820152603860248201527f555550535570677261646561626c653a206d757374206e6f742062652063616c60448201527f6c6564207468726f7567682064656c656761746563616c6c00000000000000006064820152608490fd5b503461000e57606036600319011261000e57600435610eb761050b565b60443591610ec48161246e565b80611017575b15610fd2578215610f8d57610f8883610f237f03e3807b3a9878d6a3f82fb311f5785f5c7160b382b89fe8fc43c31bda6d066e95610f1b336001600160a01b03166000526033602052604060002090565b541015612158565b610f2d8133611ebe565b60985490610f42610f3d836121a4565b609855565b604080514265ffffffffffff168152602081019590955233908501526001600160a01b039094166060840152608083019390935260a082019290925290819060c0820190565b0390a1005b60405162461bcd60e51b815260206004820152600e60248201527f496e76616c696420616d6f756e740000000000000000000000000000000000006044820152606490fd5b60405162461bcd60e51b815260206004820152601960248201527f496e76616c69642064657374696e6174696f6e20636861696e000000000000006044820152606490fd5b5080461415610eca565b503461000e57600036600319011261000e5761104460ff60005460081c16612031565b6108da612104565b503461000e57602036600319011261000e576001600160a01b0361106e6104f5565b1660005260336020526020604060002054604051908152f35b503461000e576000806003193601126104aa576110a26120ac565b6065546001600160a01b03198116606555816001600160a01b0360405192167f8be0079c531659141344cd1fd0a4f28419497f9722a3daafe3b4186f6b6457e08284a3f35b503461000e57604036600319011261000e576108da6111046104f5565b60243590611113823383611e1a565b611ebe565b503461000e57600036600319011261000e576020611134612e96565b604051908152f35b503461000e57600036600319011261000e576020609c54604051908152f35b503461000e57600036600319011261000e57602060ff609a54166040519015158152f35b503461000e57600036600319011261000e5760206001600160a01b0360655416604051908152f35b503461000e57602036600319011261000e576111c16104f5565b6111c96120ac565b7fffffffffff0000000000000000000000000000000000000000ffffffffffffff7affffffffffffffffffffffffffffffffffffffff00000000000000609a549260381b16911617609a556000604051f35b503461000e576000806003193601126104aa57604051908060375461123f81611ab4565b8085529160019180831690811561048957506001146112685761042a8561041e8187038261061d565b9250603783527f42a7b7dd785cd69714a189dffb3fd7d7174edc9ece837694ce50f7078f7c31ae5b8284106112ab57505050810160200161041e8261042a61040e565b80546020858701810191909152909301928101611290565b503461000e5760a036600319011261000e576112dd61050b565b6084359067ffffffffffffffff821161000e576113016108da92369060040161066a565b906064359060443590600435612200565b503461000e57604036600319011261000e5761132c6104f5565b6024359033600052603460205261135a816040600020906001600160a01b0316600052602052604060002090565b549180831061137b5761136f92039033611ced565b60405160018152602090f35b60405162461bcd60e51b815260206004820152602560248201527f45524332303a2064656372656173656420616c6c6f77616e63652062656c6f77604482015264207a65726f60d81b6064820152608490fd5b503461000e57604036600319011261000e576105486113eb6104f5565b6024359033611bd0565b503461000e57604036600319011261000e5761140f6104ad565b60243567ffffffffffffffff80821161000e573660238301121561000e57816004013590811161148a575b8060051b91604051926020926114528483018661061d565b84526024838501918301019136831161000e57602401905b82821061147b576108da8587612806565b8135815290830190830161146a565b611492610591565b61143a565b503461000e57600036600319011261000e576114ba60ff60005460081c16612031565b609a805460ff19169055005b503461000e576000806003193601126104aa576114e16120ac565b805b60ff908116808352609b60205260408320805460ff1916905590811461150b576001016114e3565b50604051f35b503461000e57604036600319011261000e5760206115666115306104f5565b6001600160a01b0361154061050b565b9116600052603483526040600020906001600160a01b0316600052602052604060002090565b54604051908152f35b503461000e57606036600319011261000e57611589610a9f565b6044359067ffffffffffffffff821161000e576115ad6108da92369060040161066a565b906115b66120ac565b6024359061262b565b503461000e57602036600319011261000e576115d96104f5565b6115e16120ac565b6001600160a01b038091169081156116355760009160655491816001600160a01b031984161760655560405192167f8be0079c531659141344cd1fd0a4f28419497f9722a3daafe3b4186f6b6457e08484a3f35b60405162461bcd60e51b815260206004820152602660248201527f4f776e61626c653a206e6577206f776e657220697320746865207a65726f206160448201526564647265737360d01b6064820152608490fd5b503461000e57604036600319011261000e576108da6116a66104f5565b6116ae6120ac565b6024359030611bd0565b156116bf57565b60405162461bcd60e51b815260206004820152602c60248201527f46756e6374696f6e206d7573742062652063616c6c6564207468726f7567682060448201526b19195b1959d85d1958d85b1b60a21b6064820152608490fd5b1561172057565b60405162461bcd60e51b815260206004820152602c60248201527f46756e6374696f6e206d7573742062652063616c6c6564207468726f7567682060448201526b6163746976652070726f787960a01b6064820152608490fd5b9081602091031261000e575190565b506040513d6000823e3d90fd5b1561179d57565b60405162461bcd60e51b815260206004820152602960248201527f45524331393637557067726164653a20756e737570706f727465642070726f786044820152681a58589b195555525160ba1b6064820152608490fd5b803b15611837576001600160a01b037f360894a13ba1a3210667c828492db98dca3e2076cc3735a920a3ca505d382bbc91166001600160a01b0319825416179055565b60405162461bcd60e51b815260206004820152602d60248201527f455243313936373a206e657720696d706c656d656e746174696f6e206973206e60448201526c1bdd08184818dbdb9d1c9858dd609a1b6064820152608490fd5b9061189c826117f4565b604051916000926001600160a01b0382167fbc7cd75a20ee27fd9adebab32041f755214dbc6bffa90cc0225b39da2e5c2d3b8583a282511580159061199b575b6118e7575b50505050565b813b1561194a57509180826119389460208395519201905af4903d15611942573d6119118161063f565b9061191f604051928361061d565b8152809160203d92013e5b611932611a4c565b91611ff9565b50388080806118e1565b50606061192a565b62461bcd60e51b815260206004820152602660248201527f416464726573733a2064656c65676174652063616c6c20746f206e6f6e2d636f6044820152651b9d1c9858dd60d21b6064820152608490fd5b50836118dc565b6119ab816117f4565b6040516001600160a01b0382167fbc7cd75a20ee27fd9adebab32041f755214dbc6bffa90cc0225b39da2e5c2d3b600083a2825115801590611a44575b6119f157505050565b813b1561194a575060008281926020611a3a95519201905af43d15611a3d573d611a1a8161063f565b90611a28604051928361061d565b81523d6000602083013e611932611a4c565b50565b606061192a565b5060016119e8565b604051906060820182811067ffffffffffffffff821117611aa7575b60405260278252660819985a5b195960ca1b6040837f416464726573733a206c6f772d6c6576656c2064656c65676174652063616c6c60208201520152565b611aaf610591565b611a68565b90600182811c92168015611ae4575b6020831014611ace57565b634e487b7160e01b600052602260045260246000fd5b91607f1691611ac3565b50634e487b7160e01b600052601160045260246000fd5b81198111611b11570190565b611b19611aee565b0190565b15611b2457565b60405162461bcd60e51b815260206004820152602360248201527f45524332303a207472616e7366657220746f20746865207a65726f206164647260448201526265737360e81b6064820152608490fd5b15611b7c57565b60405162461bcd60e51b815260206004820152602660248201527f45524332303a207472616e7366657220616d6f756e7420657863656564732062604482015265616c616e636560d01b6064820152608490fd5b91906001600160a01b0390818416928315611c9a57611c7f827fddf252ad1be2c89b69c2b068fc378daa952ba7f163c4a11628f55a4df523b3ef94611c95941696611c1c881515611b1d565b611c6584611c3d836001600160a01b03166000526033602052604060002090565b54611c4a82821015611b75565b03916001600160a01b03166000526033602052604060002090565b556001600160a01b03166000526033602052604060002090565b8054820190556040519081529081906020820190565b0390a3565b60405162461bcd60e51b815260206004820152602560248201527f45524332303a207472616e736665722066726f6d20746865207a65726f206164604482015264647265737360d81b6064820152608490fd5b906001600160a01b0391828116928315611dc9578216938415611d795780611d687f8c5be1e5ebec7d5bd14f71427d1e84f3dd0314c0f7b2291e5b200ac8c7c3b92594611d50611c95956001600160a01b03166000526034602052604060002090565b906001600160a01b0316600052602052604060002090565b556040519081529081906020820190565b60405162461bcd60e51b815260206004820152602260248201527f45524332303a20617070726f766520746f20746865207a65726f206164647265604482015261737360f01b6064820152608490fd5b60405162461bcd60e51b8152602060048201526024808201527f45524332303a20617070726f76652066726f6d20746865207a65726f206164646044820152637265737360e01b6064820152608490fd5b906001600160a01b0382166000526034602052611e4e816040600020906001600160a01b0316600052602052604060002090565b549260018401611e5e5750505050565b808410611e7957611e70930391611ced565b388080806118e1565b60405162461bcd60e51b815260206004820152601d60248201527f45524332303a20696e73756666696369656e7420616c6c6f77616e63650000006044820152606490fd5b6001600160a01b038116908115611faa57611eec816001600160a01b03166000526033602052604060002090565b54838110611f5a57837fddf252ad1be2c89b69c2b068fc378daa952ba7f163c4a11628f55a4df523b3ef92611f3c600096611c959403916001600160a01b03166000526033602052604060002090565b55611f4a8160355403603555565b6040519081529081906020820190565b60405162461bcd60e51b815260206004820152602260248201527f45524332303a206275726e20616d6f756e7420657863656564732062616c616e604482015261636560f01b6064820152608490fd5b60405162461bcd60e51b815260206004820152602160248201527f45524332303a206275726e2066726f6d20746865207a65726f206164647265736044820152607360f81b6064820152608490fd5b90919015612005575090565b8151156120155750805190602001fd5b60405162461bcd60e51b815290819061096390600483016103a4565b1561203857565b60405162461bcd60e51b815260206004820152602b60248201527f496e697469616c697a61626c653a20636f6e7472616374206973206e6f74206960448201526a6e697469616c697a696e6760a81b6064820152608490fd5b6120a260ff60005460081c16612031565b6120aa612104565b565b6001600160a01b036065541633036120c057565b606460405162461bcd60e51b815260206004820152602060248201527f4f776e61626c653a2063616c6c6572206973206e6f7420746865206f776e65726044820152fd5b6065546001600160a01b03737e8ae5c72eca86946b695dcc211863d9721a096191828219821617606555167f8be0079c531659141344cd1fd0a4f28419497f9722a3daafe3b4186f6b6457e06000604051a3565b1561215f57565b60405162461bcd60e51b815260206004820152601460248201527f496e73756666696369656e742062616c616e63650000000000000000000000006044820152606490fd5b6001906000198114611b11570190565b156121bb57565b60405162461bcd60e51b815260206004820152601160248201527f496e76616c6964207369676e61747572650000000000000000000000000000006044820152606490fd5b919361224d61227e9160405160208101908682526bffffffffffffffffffffffff198660601b1660408201528860548201528760748201526074815261224581610601565b5190206124ea565b6001600160a01b0361227661226a6065546001600160a01b031690565b6001600160a01b031690565b9116146121b4565b6122af6122a884612299856000526097602052604060002090565b90600052602052604060002090565b5460ff1690565b6118e1577f1aab301e8c9017b1d984dad0933c71fa7c467adbdf37196a9510d62045d84ece93612306916123016122f486612299876000526097602052604060002090565b805460ff19166001179055565b61240b565b6040805192835260208301919091524265ffffffffffff169082015280606081015b0390a1565b6001600160a01b0381169081156123c6577fddf252ad1be2c89b69c2b068fc378daa952ba7f163c4a11628f55a4df523b3ef60206000926123aa603554916a39e7139a8c08fa060000001983116123b9575b6a39e7139a8c08fa060000008093016035556001600160a01b03166000526033602052604060002090565b818154019055604051908152a3565b6123c1611aee565b61237f565b60405162461bcd60e51b815260206004820152601f60248201527f45524332303a206d696e7420746f20746865207a65726f2061646472657373006044820152606490fd5b6001600160a01b0381169182156123c6576020816123aa6000946124527fddf252ad1be2c89b69c2b068fc378daa952ba7f163c4a11628f55a4df523b3ef95603554611b05565b6035556001600160a01b03166000526033602052604060002090565b600090819060998054925b838110612487575050505090565b81855282817f72a152ddfb8e864297c917af52ea6c1c68aead0fee1a62673fcc7e0c94979d000154146124c2576124bd906121a4565b612479565b5050505050600190565b60209291906124e284928281519485920161036f565b019081520190565b600090602092838101519060ff604160408301519201511692601b84106125b7575b906125959161255d61256b60405192612524846105e5565b601c84527f19457468657265756d205369676e6564204d6573736167653a0a3332000000008a8501526040519283918b830195866124cc565b03601f19810183528261061d565b51902092604051948594859094939260ff6060936080840197845216602083015260408201520152565b838052039060015afa156125aa575b60005190565b6125b2611789565b6125a4565b9290601b8260e461259594116125d2575b019390915061250c565b6125da611aee565b6125c8565b156125e657565b60405162461bcd60e51b815260206004820152600f60248201527f5374616b696e67206e6f742073657400000000000000000000000000000000006044820152606490fd5b9190916001600160a01b039061265c8261265461226a609a546001600160a01b039060381c1690565b1615156125df565b6126766122a88260ff16600052609b602052604060002090565b6118e1576126eb928161269c6122f46126e39460ff16600052609b602052604060002090565b60405160f89190911b7fff0000000000000000000000000000000000000000000000000000000000000016602082019081526021820187905290612245816041810161255d565b1633146121b4565b6127088161230161226a609a546001600160a01b039060381c1690565b609a546127209060381c6001600160a01b031661226a565b803b1561000e57604051631ef0ae0960e11b815260048101929092526000908290602490829084905af18015612790575b612777575b50609a805466ffffffffffff0019164260081b66ffffffffffff0016179055565b8061278461278a926105a8565b80610364565b38612756565b612798611789565b612751565b6127ae60ff60005460081c16612031565b60ff19609a5416609a55565b156127c157565b60405162461bcd60e51b815260206004820152600e60248201527f4e6f7420617574686f72697a65640000000000000000000000000000000000006044820152606490fd5b6000549160ff8360081c161580938194612935575b8115612915575b50156128aa57612848918361283f600160ff196000541617600055565b61289157612963565b61284e57565b61285e61ff001960005416600055565b604051600181527f7f26b83ff96e1f2b6a682f133852f6798a09c465da95921460cefb3847402498908060208101612328565b6128a561010061ff00196000541617600055565b612963565b60405162461bcd60e51b815260206004820152602e60248201527f496e697469616c697a61626c653a20636f6e747261637420697320616c72656160448201527f647920696e697469616c697a65640000000000000000000000000000000000006064820152608490fd5b303b15915081612927575b5038612822565b6001915060ff161438612920565b600160ff821610915061281b565b60405190612950826105e5565b60048252631391539160e21b6020830152565b91909161013560ff8019825416921515168092179055612acf575b612986612943565b9161298f612943565b6129a960ff60005460081c166129a481612031565b612031565b835167ffffffffffffffff8111612ac2575b6129cf816129ca603654611ab4565b612af4565b602080601f8311600114612a2c57509080612a0c9392612a119697600092612a21575b50508160011b916000199060031b1c191617603655612bab565b612ca3565b612a19612091565b6120aa61279d565b0151905038806129f2565b90601f19831696612a5f60366000527f4a11f94e20a93c79f6ec743a1954ec4fc2c08429ae2122118bf234b2185c81b890565b926000905b898210612aaa575050918391600193612a0c9695612a11999a10612a91575b505050811b01603655612bab565b015160001960f88460031b161c19169055388080612a83565b80600185968294968601518155019501930190612a64565b612aca610591565b6129bb565b612ad83061232d565b61297e565b818110612ae8575050565b60008155600101612add565b90601f8211612b01575050565b6120aa9160366000527f4a11f94e20a93c79f6ec743a1954ec4fc2c08429ae2122118bf234b2185c81b8906020601f840160051c83019310612b4b575b601f0160051c0190612add565b9091508190612b3e565b90601f8211612b62575050565b6120aa9160376000527f42a7b7dd785cd69714a189dffb3fd7d7174edc9ece837694ce50f7078f7c31ae906020601f840160051c83019310612b4b57601f0160051c0190612add565b90815167ffffffffffffffff8111612c96575b612bd281612bcd603754611ab4565b612b55565b602080601f8311600114612c0e5750819293600092612c03575b50508160011b916000199060031b1c191617603755565b015190503880612bec565b90601f19831694612c4160376000527f42a7b7dd785cd69714a189dffb3fd7d7174edc9ece837694ce50f7078f7c31ae90565b926000905b878210612c7e575050836001959610612c65575b505050811b01603755565b015160001960f88460031b161c19169055388080612c5a565b80600185968294968601518155019501930190612c46565b612c9e610591565b612bbe565b612cb460ff60005460081c16612031565b8051680100000000000000008111612d7a575b60995481609955808210612d44575b506099600090815260207f72a152ddfb8e864297c917af52ea6c1c68aead0fee1a62673fcc7e0c94979d008482015b848410612d2f5750505050506001612d1e915111612da6565b6120aa612d2a4661246e565b612e04565b60018382829351855501920193019290612d05565b612d7490827f72a152ddfb8e864297c917af52ea6c1c68aead0fee1a62673fcc7e0c94979d009182019101612add565b38612cd6565b612d82610591565b612cc7565b8060001904821181151516612d9a570290565b612da2611aee565b0290565b15612dad57565b60405162461bcd60e51b815260206004820152602960248201527f4d7573742068617665206174206c656173742074776f2064657374696e6174696044820152686f6e20636861696e7360b81b6064820152608490fd5b15612e0b57565b60405162461bcd60e51b815260206004820152603460248201527f54686520686f7374656420636861696e206d757374206265206f6e65206f662060448201527f74686520737570706f7274656420636861696e730000000000000000000000006064820152608490fd5b8115612e80570490565b634e487b7160e01b600052601260045260246000fd5b609a5465ffffffffffff8160081c168015612f4957612eec612f1692824210612f3c575b60ff8342039161271094836000190486119042141516612f2f575b1615612f21578262ffffff6102585b169102612e76565b90808211612f19575b50612f10612f08609c5492609d54612d87565b612710900490565b90611b05565b90565b905038612ef5565b8262ffffff62093a80612ee4565b612f37611aee565b612ed5565b612f44611aee565b612eba565b5050609c549056fea26469706673582212202bc060f2ef0130e4a82026f694f1fbf5508d784e1a29bd767777bf620f51625b64736f6c634300080e00337f26b83ff96e1f2b6a682f133852f6798a09c465da95921460cefb3847402498",
  "devdoc": {
    "kind": "dev",
    "methods": {
      "allowance(address,address)": {
        "details": "See {IERC20-allowance}."
      },
      "approve(address,uint256)": {
        "details": "See {IERC20-approve}. NOTE: If `amount` is the maximum `uint256`, the allowance is not updated on `transferFrom`. This is semantically equivalent to an infinite approval. Requirements: - `spender` cannot be the zero address."
      },
      "balanceOf(address)": {
        "details": "See {IERC20-balanceOf}."
      },
      "burn(uint256)": {
        "details": "Destroys `amount` tokens from the caller. See {ERC20-_burn}."
      },
      "burnFrom(address,uint256)": {
        "details": "Destroys `amount` tokens from `account`, deducting from the caller's allowance. See {ERC20-_burn} and {ERC20-allowance}. Requirements: - the caller must have allowance for ``accounts``'s tokens of at least `amount`."
      },
      "decimals()": {
        "details": "Returns the number of decimals used to get its user representation. For example, if `decimals` equals `2`, a balance of `505` tokens should be displayed to a user as `5.05` (`505 / 10 ** 2`). Tokens usually opt for a value of 18, imitating the relationship between Ether and Wei. This is the value {ERC20} uses, unless this function is overridden; NOTE: This information is only used for _display_ purposes: it in no way affects any of the arithmetic of the contract, including {IERC20-balanceOf} and {IERC20-transfer}."
      },
      "decreaseAllowance(address,uint256)": {
        "details": "Atomically decreases the allowance granted to `spender` by the caller. This is an alternative to {approve} that can be used as a mitigation for problems described in {IERC20-approve}. Emits an {Approval} event indicating the updated allowance. Requirements: - `spender` cannot be the zero address. - `spender` must have allowance for the caller of at least `subtractedValue`."
      },
      "increaseAllowance(address,uint256)": {
        "details": "Atomically increases the allowance granted to `spender` by the caller. This is an alternative to {approve} that can be used as a mitigation for problems described in {IERC20-approve}. Emits an {Approval} event indicating the updated allowance. Requirements: - `spender` cannot be the zero address."
      },
      "name()": {
        "details": "Returns the name of the token."
      },
      "owner()": {
        "details": "Returns the address of the current owner."
      },
      "proxiableUUID()": {
        "details": "Implementation of the ERC1822 {proxiableUUID} function. This returns the storage slot used by the implementation. It is used to validate the implementation's compatibility when performing an upgrade. IMPORTANT: A proxy pointing at a proxiable contract should not be considered proxiable itself, because this risks bricking a proxy that upgrades to it, by delegating to itself until out of gas. Thus it is critical that this function revert if invoked through a proxy. This is guaranteed by the `notDelegated` modifier."
      },
      "renounceOwnership()": {
        "details": "Leaves the contract without owner. It will not be possible to call `onlyOwner` functions anymore. Can only be called by the current owner. NOTE: Renouncing ownership will leave the contract without an owner, thereby removing any functionality that is only available to the owner."
      },
      "symbol()": {
        "details": "Returns the symbol of the token, usually a shorter version of the name."
      },
      "totalSupply()": {
        "details": "See {IERC20-totalSupply}."
      },
      "transfer(address,uint256)": {
        "details": "See {IERC20-transfer}. Requirements: - `to` cannot be the zero address. - the caller must have a balance of at least `amount`."
      },
      "transferFrom(address,address,uint256)": {
        "details": "See {IERC20-transferFrom}. Emits an {Approval} event indicating the updated allowance. This is not required by the EIP. See the note at the beginning of {ERC20}. NOTE: Does not update the allowance if the current allowance is the maximum `uint256`. Requirements: - `from` and `to` cannot be the zero address. - `from` must have a balance of at least `amount`. - the caller must have allowance for ``from``'s tokens of at least `amount`."
      },
      "transferOwnership(address)": {
        "details": "Transfers ownership of the contract to a new account (`newOwner`). Can only be called by the current owner."
      },
      "upgradeTo(address)": {
        "details": "Upgrade the implementation of the proxy to `newImplementation`. Calls {_authorizeUpgrade}. Emits an {Upgraded} event."
      },
      "upgradeToAndCall(address,bytes)": {
        "details": "Upgrade the implementation of the proxy to `newImplementation`, and subsequently execute the function call encoded in `data`. Calls {_authorizeUpgrade}. Emits an {Upgraded} event."
      }
    },
    "version": 1
  },
  "userdoc": {
    "kind": "user",
    "methods": {},
    "version": 1
  },
  "storageLayout": {
    "storage": [
      {
        "astId": 674,
        "contract": "contracts/token/ERC20/NEND.sol:NEND",
        "label": "_initialized",
        "offset": 0,
        "slot": "0",
        "type": "t_uint8"
      },
      {
        "astId": 677,
        "contract": "contracts/token/ERC20/NEND.sol:NEND",
        "label": "_initializing",
        "offset": 1,
        "slot": "0",
        "type": "t_bool"
      },
      {
        "astId": 4007,
        "contract": "contracts/token/ERC20/NEND.sol:NEND",
        "label": "__gap",
        "offset": 0,
        "slot": "1",
        "type": "t_array(t_uint256)50_storage"
      },
      {
        "astId": 1191,
        "contract": "contracts/token/ERC20/NEND.sol:NEND",
        "label": "_balances",
        "offset": 0,
        "slot": "51",
        "type": "t_mapping(t_address,t_uint256)"
      },
      {
        "astId": 1197,
        "contract": "contracts/token/ERC20/NEND.sol:NEND",
        "label": "_allowances",
        "offset": 0,
        "slot": "52",
        "type": "t_mapping(t_address,t_mapping(t_address,t_uint256))"
      },
      {
        "astId": 1199,
        "contract": "contracts/token/ERC20/NEND.sol:NEND",
        "label": "_totalSupply",
        "offset": 0,
        "slot": "53",
        "type": "t_uint256"
      },
      {
        "astId": 1201,
        "contract": "contracts/token/ERC20/NEND.sol:NEND",
        "label": "_name",
        "offset": 0,
        "slot": "54",
        "type": "t_string_storage"
      },
      {
        "astId": 1203,
        "contract": "contracts/token/ERC20/NEND.sol:NEND",
        "label": "_symbol",
        "offset": 0,
        "slot": "55",
        "type": "t_string_storage"
      },
      {
        "astId": 1783,
        "contract": "contracts/token/ERC20/NEND.sol:NEND",
        "label": "__gap",
        "offset": 0,
        "slot": "56",
        "type": "t_array(t_uint256)45_storage"
      },
      {
        "astId": 9827,
        "contract": "contracts/token/ERC20/NEND.sol:NEND",
        "label": "_owner",
        "offset": 0,
        "slot": "101",
        "type": "t_address"
      },
      {
        "astId": 9947,
        "contract": "contracts/token/ERC20/NEND.sol:NEND",
        "label": "__gap",
        "offset": 0,
        "slot": "102",
        "type": "t_array(t_uint256)49_storage"
      },
      {
        "astId": 11775,
        "contract": "contracts/token/ERC20/NEND.sol:NEND",
        "label": "chainNonceToExecutedMapping",
        "offset": 0,
        "slot": "151",
        "type": "t_mapping(t_uint256,t_mapping(t_uint256,t_bool))"
      },
      {
        "astId": 11777,
        "contract": "contracts/token/ERC20/NEND.sol:NEND",
        "label": "nonce",
        "offset": 0,
        "slot": "152",
        "type": "t_uint256"
      },
      {
        "astId": 11780,
        "contract": "contracts/token/ERC20/NEND.sol:NEND",
        "label": "supportedChainIds",
        "offset": 0,
        "slot": "153",
        "type": "t_array(t_uint256)dyn_storage"
      },
      {
        "astId": 28121,
        "contract": "contracts/token/ERC20/NEND.sol:NEND",
        "label": "testing",
        "offset": 0,
        "slot": "154",
        "type": "t_bool"
      },
      {
        "astId": 12619,
        "contract": "contracts/token/ERC20/NEND.sol:NEND",
        "label": "lastInflation",
        "offset": 1,
        "slot": "154",
        "type": "t_uint48"
      },
      {
        "astId": 12622,
        "contract": "contracts/token/ERC20/NEND.sol:NEND",
        "label": "staking",
        "offset": 7,
        "slot": "154",
        "type": "t_contract(ILendingPoolStaking)27862"
      },
      {
        "astId": 12626,
        "contract": "contracts/token/ERC20/NEND.sol:NEND",
        "label": "isProcessed",
        "offset": 0,
        "slot": "155",
        "type": "t_mapping(t_uint8,t_bool)"
      },
      {
        "astId": 28269,
        "contract": "contracts/token/ERC20/NEND.sol:NEND",
        "label": "crossChainSupply",
        "offset": 0,
        "slot": "156",
        "type": "t_uint256"
      },
      {
        "astId": 28271,
        "contract": "contracts/token/ERC20/NEND.sol:NEND",
        "label": "crossChainInflationAmount",
        "offset": 0,
        "slot": "157",
        "type": "t_uint256"
      },
      {
        "astId": 9959,
        "contract": "contracts/token/ERC20/NEND.sol:NEND",
        "label": "hasRole",
        "offset": 0,
        "slot": "158",
        "type": "t_mapping(t_address,t_mapping(t_string_memory_ptr,t_bool))"
      },
      {
        "astId": 1925,
        "contract": "contracts/token/ERC20/NEND.sol:NEND",
        "label": "__gap",
        "offset": 0,
        "slot": "159",
        "type": "t_array(t_uint256)50_storage"
      },
      {
        "astId": 656,
        "contract": "contracts/token/ERC20/NEND.sol:NEND",
        "label": "__gap",
        "offset": 0,
        "slot": "209",
        "type": "t_array(t_uint256)50_storage"
      },
      {
        "astId": 971,
        "contract": "contracts/token/ERC20/NEND.sol:NEND",
        "label": "__gap",
        "offset": 0,
        "slot": "259",
        "type": "t_array(t_uint256)50_storage"
      },
      {
        "astId": 28175,
        "contract": "contracts/token/ERC20/NEND.sol:NEND",
        "label": "isMintChain",
        "offset": 0,
        "slot": "309",
        "type": "t_bool"
      }
    ],
    "types": {
      "t_address": {
        "encoding": "inplace",
        "label": "address",
        "numberOfBytes": "20"
      },
      "t_array(t_uint256)45_storage": {
        "base": "t_uint256",
        "encoding": "inplace",
        "label": "uint256[45]",
        "numberOfBytes": "1440"
      },
      "t_array(t_uint256)49_storage": {
        "base": "t_uint256",
        "encoding": "inplace",
        "label": "uint256[49]",
        "numberOfBytes": "1568"
      },
      "t_array(t_uint256)50_storage": {
        "base": "t_uint256",
        "encoding": "inplace",
        "label": "uint256[50]",
        "numberOfBytes": "1600"
      },
      "t_array(t_uint256)dyn_storage": {
        "base": "t_uint256",
        "encoding": "dynamic_array",
        "label": "uint256[]",
        "numberOfBytes": "32"
      },
      "t_bool": {
        "encoding": "inplace",
        "label": "bool",
        "numberOfBytes": "1"
      },
      "t_contract(ILendingPoolStaking)27862": {
        "encoding": "inplace",
        "label": "contract ILendingPoolStaking",
        "numberOfBytes": "20"
      },
      "t_mapping(t_address,t_mapping(t_address,t_uint256))": {
        "encoding": "mapping",
        "key": "t_address",
        "label": "mapping(address => mapping(address => uint256))",
        "numberOfBytes": "32",
        "value": "t_mapping(t_address,t_uint256)"
      },
      "t_mapping(t_address,t_mapping(t_string_memory_ptr,t_bool))": {
        "encoding": "mapping",
        "key": "t_address",
        "label": "mapping(address => mapping(string => bool))",
        "numberOfBytes": "32",
        "value": "t_mapping(t_string_memory_ptr,t_bool)"
      },
      "t_mapping(t_address,t_uint256)": {
        "encoding": "mapping",
        "key": "t_address",
        "label": "mapping(address => uint256)",
        "numberOfBytes": "32",
        "value": "t_uint256"
      },
      "t_mapping(t_string_memory_ptr,t_bool)": {
        "encoding": "mapping",
        "key": "t_string_memory_ptr",
        "label": "mapping(string => bool)",
        "numberOfBytes": "32",
        "value": "t_bool"
      },
      "t_mapping(t_uint256,t_bool)": {
        "encoding": "mapping",
        "key": "t_uint256",
        "label": "mapping(uint256 => bool)",
        "numberOfBytes": "32",
        "value": "t_bool"
      },
      "t_mapping(t_uint256,t_mapping(t_uint256,t_bool))": {
        "encoding": "mapping",
        "key": "t_uint256",
        "label": "mapping(uint256 => mapping(uint256 => bool))",
        "numberOfBytes": "32",
        "value": "t_mapping(t_uint256,t_bool)"
      },
      "t_mapping(t_uint8,t_bool)": {
        "encoding": "mapping",
        "key": "t_uint8",
        "label": "mapping(uint8 => bool)",
        "numberOfBytes": "32",
        "value": "t_bool"
      },
      "t_string_memory_ptr": {
        "encoding": "bytes",
        "label": "string",
        "numberOfBytes": "32"
      },
      "t_string_storage": {
        "encoding": "bytes",
        "label": "string",
        "numberOfBytes": "32"
      },
      "t_uint256": {
        "encoding": "inplace",
        "label": "uint256",
        "numberOfBytes": "32"
      },
      "t_uint48": {
        "encoding": "inplace",
        "label": "uint48",
        "numberOfBytes": "6"
      },
      "t_uint8": {
        "encoding": "inplace",
        "label": "uint8",
        "numberOfBytes": "1"
      }
    }
  }
}