{
  "address": "0xc655B72Fc91405Dc016eEFfF98b6175837898A89",
  "abi": [
    {
      "inputs": [
        {
          "internalType": "contract NEND",
          "name": "_nend",
          "type": "address"
        },
        {
          "internalType": "address",
          "name": "insurance",
          "type": "address"
        },
        {
          "internalType": "address",
          "name": "_treasury",
          "type": "address"
        }
      ],
      "stateMutability": "nonpayable",
      "type": "constructor"
    },
    {
      "anonymous": false,
      "inputs": [
        {
          "indexed": true,
          "internalType": "uint256",
          "name": "id",
          "type": "uint256"
        }
      ],
      "name": "CloseMarket",
      "type": "event"
    },
    {
      "anonymous": false,
      "inputs": [
        {
          "indexed": false,
          "internalType": "uint16",
          "name": "commissionRate",
          "type": "uint16"
        }
      ],
      "name": "CommissionRateUpdated",
      "type": "event"
    },
    {
      "anonymous": false,
      "inputs": [
        {
          "indexed": true,
          "internalType": "uint256",
          "name": "id",
          "type": "uint256"
        },
        {
          "indexed": true,
          "internalType": "address",
          "name": "quoteToken",
          "type": "address"
        },
        {
          "indexed": false,
          "internalType": "uint48",
          "name": "conclusion",
          "type": "uint48"
        },
        {
          "indexed": false,
          "internalType": "bool",
          "name": "capacityInQuote",
          "type": "bool"
        }
      ],
      "name": "CreateMarket",
      "type": "event"
    },
    {
      "anonymous": false,
      "inputs": [
        {
          "indexed": false,
          "internalType": "address",
          "name": "ownerAddress",
          "type": "address"
        },
        {
          "indexed": false,
          "internalType": "uint48",
          "name": "marketId",
          "type": "uint48"
        },
        {
          "indexed": false,
          "internalType": "uint256",
          "name": "noteId",
          "type": "uint256"
        },
        {
          "indexed": false,
          "internalType": "uint256",
          "name": "amount",
          "type": "uint256"
        },
        {
          "indexed": false,
          "internalType": "uint256",
          "name": "price",
          "type": "uint256"
        },
        {
          "indexed": false,
          "internalType": "uint256",
          "name": "payout",
          "type": "uint256"
        },
        {
          "indexed": false,
          "internalType": "uint256",
          "name": "payoutPerVesting",
          "type": "uint256"
        },
        {
          "indexed": false,
          "internalType": "uint48",
          "name": "created",
          "type": "uint48"
        }
      ],
      "name": "NoteCreated",
      "type": "event"
    },
    {
      "anonymous": false,
      "inputs": [
        {
          "indexed": false,
          "internalType": "address",
          "name": "ownerAddress",
          "type": "address"
        },
        {
          "indexed": false,
          "internalType": "uint256[]",
          "name": "indexes",
          "type": "uint256[]"
        },
        {
          "indexed": false,
          "internalType": "uint8[]",
          "name": "vestingCount",
          "type": "uint8[]"
        },
        {
          "indexed": false,
          "internalType": "uint256[]",
          "name": "totalVested",
          "type": "uint256[]"
        }
      ],
      "name": "NotesRedeemed",
      "type": "event"
    },
    {
      "anonymous": false,
      "inputs": [
        {
          "indexed": true,
          "internalType": "address",
          "name": "previousOwner",
          "type": "address"
        },
        {
          "indexed": true,
          "internalType": "address",
          "name": "newOwner",
          "type": "address"
        }
      ],
      "name": "OwnershipTransferred",
      "type": "event"
    },
    {
      "inputs": [
        {
          "internalType": "uint256",
          "name": "",
          "type": "uint256"
        }
      ],
      "name": "adjustments",
      "outputs": [
        {
          "internalType": "uint256",
          "name": "change",
          "type": "uint256"
        },
        {
          "internalType": "uint48",
          "name": "lastAdjustment",
          "type": "uint48"
        },
        {
          "internalType": "uint48",
          "name": "timeToAdjusted",
          "type": "uint48"
        },
        {
          "internalType": "bool",
          "name": "active",
          "type": "bool"
        }
      ],
      "stateMutability": "view",
      "type": "function"
    },
    {
      "inputs": [
        {
          "internalType": "address",
          "name": "operator",
          "type": "address"
        },
        {
          "internalType": "string",
          "name": "role",
          "type": "string"
        },
        {
          "internalType": "bool",
          "name": "authorized",
          "type": "bool"
        }
      ],
      "name": "authorize",
      "outputs": [],
      "stateMutability": "nonpayable",
      "type": "function"
    },
    {
      "inputs": [
        {
          "internalType": "uint256",
          "name": "_id",
          "type": "uint256"
        }
      ],
      "name": "close",
      "outputs": [],
      "stateMutability": "nonpayable",
      "type": "function"
    },
    {
      "inputs": [],
      "name": "commissionRate",
      "outputs": [
        {
          "internalType": "uint16",
          "name": "",
          "type": "uint16"
        }
      ],
      "stateMutability": "view",
      "type": "function"
    },
    {
      "inputs": [
        {
          "internalType": "contract IERC20",
          "name": "_quoteToken",
          "type": "address"
        },
        {
          "internalType": "uint256",
          "name": "_capacity",
          "type": "uint256"
        },
        {
          "internalType": "bool",
          "name": "_capacityInQuote",
          "type": "bool"
        },
        {
          "internalType": "uint256",
          "name": "_initialPrice",
          "type": "uint256"
        },
        {
          "internalType": "uint48",
          "name": "_conclusion",
          "type": "uint48"
        },
        {
          "internalType": "uint32",
          "name": "_depositInterval",
          "type": "uint32"
        },
        {
          "internalType": "uint32",
          "name": "_tuneInterval",
          "type": "uint32"
        }
      ],
      "name": "create",
      "outputs": [
        {
          "internalType": "uint256",
          "name": "id_",
          "type": "uint256"
        }
      ],
      "stateMutability": "nonpayable",
      "type": "function"
    },
    {
      "inputs": [
        {
          "internalType": "uint256",
          "name": "_id",
          "type": "uint256"
        },
        {
          "internalType": "uint256",
          "name": "_amount",
          "type": "uint256"
        },
        {
          "internalType": "uint256",
          "name": "_maxPrice",
          "type": "uint256"
        }
      ],
      "name": "deposit",
      "outputs": [
        {
          "internalType": "uint256",
          "name": "payout_",
          "type": "uint256"
        },
        {
          "internalType": "uint256",
          "name": "index_",
          "type": "uint256"
        }
      ],
      "stateMutability": "nonpayable",
      "type": "function"
    },
    {
      "inputs": [
        {
          "internalType": "uint256",
          "name": "_id",
          "type": "uint256"
        }
      ],
      "name": "getMarketData",
      "outputs": [
        {
          "internalType": "uint256",
          "name": "",
          "type": "uint256"
        },
        {
          "internalType": "uint256",
          "name": "",
          "type": "uint256"
        },
        {
          "internalType": "uint256",
          "name": "",
          "type": "uint256"
        }
      ],
      "stateMutability": "view",
      "type": "function"
    },
    {
      "inputs": [
        {
          "internalType": "address",
          "name": "",
          "type": "address"
        },
        {
          "internalType": "string",
          "name": "",
          "type": "string"
        }
      ],
      "name": "hasRole",
      "outputs": [
        {
          "internalType": "bool",
          "name": "",
          "type": "bool"
        }
      ],
      "stateMutability": "view",
      "type": "function"
    },
    {
      "inputs": [],
      "name": "insurance",
      "outputs": [
        {
          "internalType": "address",
          "name": "",
          "type": "address"
        }
      ],
      "stateMutability": "view",
      "type": "function"
    },
    {
      "inputs": [
        {
          "internalType": "uint256",
          "name": "",
          "type": "uint256"
        }
      ],
      "name": "markets",
      "outputs": [
        {
          "internalType": "uint256",
          "name": "capacity",
          "type": "uint256"
        },
        {
          "internalType": "contract IERC20",
          "name": "quoteToken",
          "type": "address"
        },
        {
          "internalType": "bool",
          "name": "capacityInQuote",
          "type": "bool"
        },
        {
          "internalType": "uint256",
          "name": "totalDebt",
          "type": "uint256"
        },
        {
          "internalType": "uint256",
          "name": "maxPayout",
          "type": "uint256"
        },
        {
          "internalType": "uint256",
          "name": "sold",
          "type": "uint256"
        },
        {
          "internalType": "uint256",
          "name": "purchased",
          "type": "uint256"
        }
      ],
      "stateMutability": "view",
      "type": "function"
    },
    {
      "inputs": [
        {
          "internalType": "address",
          "name": "",
          "type": "address"
        },
        {
          "internalType": "uint256",
          "name": "",
          "type": "uint256"
        }
      ],
      "name": "marketsForQuote",
      "outputs": [
        {
          "internalType": "uint256",
          "name": "",
          "type": "uint256"
        }
      ],
      "stateMutability": "view",
      "type": "function"
    },
    {
      "inputs": [
        {
          "internalType": "uint256",
          "name": "",
          "type": "uint256"
        }
      ],
      "name": "metadata",
      "outputs": [
        {
          "internalType": "uint48",
          "name": "lastTune",
          "type": "uint48"
        },
        {
          "internalType": "uint48",
          "name": "lastDecay",
          "type": "uint48"
        },
        {
          "internalType": "uint48",
          "name": "length",
          "type": "uint48"
        },
        {
          "internalType": "uint48",
          "name": "depositInterval",
          "type": "uint48"
        },
        {
          "internalType": "uint48",
          "name": "tuneInterval",
          "type": "uint48"
        },
        {
          "internalType": "uint8",
          "name": "quoteDecimals",
          "type": "uint8"
        }
      ],
      "stateMutability": "view",
      "type": "function"
    },
    {
      "inputs": [],
      "name": "nend",
      "outputs": [
        {
          "internalType": "contract NEND",
          "name": "",
          "type": "address"
        }
      ],
      "stateMutability": "view",
      "type": "function"
    },
    {
      "inputs": [
        {
          "internalType": "address",
          "name": "",
          "type": "address"
        },
        {
          "internalType": "uint256",
          "name": "",
          "type": "uint256"
        }
      ],
      "name": "notes",
      "outputs": [
        {
          "internalType": "uint256",
          "name": "payout",
          "type": "uint256"
        },
        {
          "internalType": "uint256",
          "name": "payoutPerVesting",
          "type": "uint256"
        },
        {
          "internalType": "uint48",
          "name": "created",
          "type": "uint48"
        },
        {
          "internalType": "uint48",
          "name": "marketID",
          "type": "uint48"
        },
        {
          "internalType": "uint8",
          "name": "vestingCount",
          "type": "uint8"
        }
      ],
      "stateMutability": "view",
      "type": "function"
    },
    {
      "inputs": [],
      "name": "owner",
      "outputs": [
        {
          "internalType": "address",
          "name": "",
          "type": "address"
        }
      ],
      "stateMutability": "view",
      "type": "function"
    },
    {
      "inputs": [
        {
          "internalType": "uint256[]",
          "name": "_indexes",
          "type": "uint256[]"
        }
      ],
      "name": "redeem",
      "outputs": [
        {
          "internalType": "uint256",
          "name": "payout_",
          "type": "uint256"
        }
      ],
      "stateMutability": "nonpayable",
      "type": "function"
    },
    {
      "inputs": [
        {
          "internalType": "uint256",
          "name": "_marketId",
          "type": "uint256"
        }
      ],
      "name": "redeemAll",
      "outputs": [
        {
          "internalType": "uint256",
          "name": "",
          "type": "uint256"
        }
      ],
      "stateMutability": "nonpayable",
      "type": "function"
    },
    {
      "inputs": [],
      "name": "renounceOwnership",
      "outputs": [],
      "stateMutability": "nonpayable",
      "type": "function"
    },
    {
      "inputs": [
        {
          "internalType": "bool",
          "name": "_testing",
          "type": "bool"
        }
      ],
      "name": "setTesting",
      "outputs": [],
      "stateMutability": "nonpayable",
      "type": "function"
    },
    {
      "inputs": [
        {
          "internalType": "uint256",
          "name": "",
          "type": "uint256"
        }
      ],
      "name": "terms",
      "outputs": [
        {
          "internalType": "uint256",
          "name": "controlVariable",
          "type": "uint256"
        },
        {
          "internalType": "uint48",
          "name": "conclusion",
          "type": "uint48"
        },
        {
          "internalType": "uint256",
          "name": "maxDebt",
          "type": "uint256"
        }
      ],
      "stateMutability": "view",
      "type": "function"
    },
    {
      "inputs": [],
      "name": "testVestingInverval",
      "outputs": [
        {
          "internalType": "uint48",
          "name": "",
          "type": "uint48"
        }
      ],
      "stateMutability": "view",
      "type": "function"
    },
    {
      "inputs": [],
      "name": "testing",
      "outputs": [
        {
          "internalType": "bool",
          "name": "",
          "type": "bool"
        }
      ],
      "stateMutability": "view",
      "type": "function"
    },
    {
      "inputs": [],
      "name": "totalVestingCount",
      "outputs": [
        {
          "internalType": "uint8",
          "name": "",
          "type": "uint8"
        }
      ],
      "stateMutability": "view",
      "type": "function"
    },
    {
      "inputs": [
        {
          "internalType": "address",
          "name": "newOwner",
          "type": "address"
        }
      ],
      "name": "transferOwnership",
      "outputs": [],
      "stateMutability": "nonpayable",
      "type": "function"
    },
    {
      "inputs": [],
      "name": "treasury",
      "outputs": [
        {
          "internalType": "address",
          "name": "",
          "type": "address"
        }
      ],
      "stateMutability": "view",
      "type": "function"
    },
    {
      "inputs": [
        {
          "internalType": "uint16",
          "name": "_commissionRate",
          "type": "uint16"
        }
      ],
      "name": "updateCommissionRate",
      "outputs": [],
      "stateMutability": "nonpayable",
      "type": "function"
    },
    {
      "inputs": [
        {
          "internalType": "address",
          "name": "_insurance",
          "type": "address"
        }
      ],
      "name": "updateInsurance",
      "outputs": [],
      "stateMutability": "nonpayable",
      "type": "function"
    },
    {
      "inputs": [
        {
          "internalType": "contract NEND",
          "name": "_nend",
          "type": "address"
        }
      ],
      "name": "updateNend",
      "outputs": [],
      "stateMutability": "nonpayable",
      "type": "function"
    },
    {
      "inputs": [],
      "name": "vestingInverval",
      "outputs": [
        {
          "internalType": "uint48",
          "name": "",
          "type": "uint48"
        }
      ],
      "stateMutability": "view",
      "type": "function"
    }
  ],
  "transactionHash": "0xc8112ec9b1a4a6fa06b102b5093ffdbad28a1c42a468c8df47f467566e167670",
  "args": [
    "0xE1e80b525Aafb72800a85d35CbbC43E2b2d05872",
    "0xb7aD8a9410129EF1BC45Ea6b04b249a0255B8be2",
    "0x71286d060fF93423760BE25F0c0e33B95a70D887"
  ],
  "numDeployments": 1,
  "solcInputHash": "91942d0bfd6efcf2f85da000c34c69e0",
  "bytecode": "0x60e034620000bb57601f6200307338819003918201601f19168301916001600160401b03831184841017620000c057808492606094604052833981010312620000bb5780516200007b916200005482620000d6565b60406020820151916200006783620000d6565b0151916200007583620000d6565b620000e8565b604051612ec39081620001b08239608051818181610d210152612da5015260a05181818161094b0152612e61015260c051818181610c430152612e100152f35b600080fd5b634e487b7160e01b600052604160045260246000fd5b6001600160a01b03811603620000bb57565b90916000549174012f358b80ed2d296c09560d2b9f70a7f81d57e35260018060a01b0393732f358b80ed2d296c09560d2b9f70a7f81d57e3528582167f8be0079c531659141344cd1fd0a4f28419497f9722a3daafe3b4186f6b6457e06000604051a36001600160a81b031916176000556005608052600380546201518060a05261025860c052600280546001600160a01b03199081169787169790971790556001600160b01b03191691841691909117600f60a11b17905560098054909316911617905556fe60806040526004361015610013575b600080fd5b60003560e01c8062aeef8a1461025657806308ed8d161461024d5780630aebeb4e14610244578063217fe6c61461023b57806321858b9e14610232578063231259d91461022957806339d2525f146102205780633eca1cf01461021757806345fd86ac1461020e5780635ea1d6f8146102055780636088d109146101fc57806361d027b3146101f35780637136a7a6146101ea578063715018a6146101e15780637ecb084d146101d857806382952200146101cf57806389cf3204146101c65780638d03b102146101bd5780638da5cb5b146101b457806399d508c0146101ab578063b1283e77146101a2578063bc3b2b1214610199578063bfacba3d14610190578063c0680e2014610187578063c0aa0e8a1461017e578063e0b117ff14610175578063e3684e391461016c578063f2fde38b146101635763f9afb26a1461015b57600080fd5b61000e611365565b5061000e611272565b5061000e6111d5565b5061000e61113a565b5061000e611088565b5061000e610fba565b5061000e610e88565b5061000e610e2f565b5061000e610da5565b5061000e610d06565b5061000e610cde565b5061000e610cb7565b5061000e610c8f565b5061000e610c67565b5061000e610c23565b5061000e610bc2565b5061000e610a86565b5061000e610a5e565b5061000e610995565b5061000e61096f565b5061000e61092b565b5061000e6108a4565b5061000e6107fa565b5061000e6107b3565b5061000e61076c565b5061000e6106dd565b5061000e610485565b5061000e610440565b503461000e57606036600319011261000e5760043560243561027782610d5c565b509161028281611015565b5061028c90611448565b9265ffffffffffff9381838642169260208101516102af9065ffffffffffff1690565b65ffffffffffff1684106102c290611497565b6102cc8483611880565b6102d5826124d6565b6102e36044358211156114e3565b806102ed89611546565b906102f79161159e565b61030084610f4f565b505460f01c60ff16610311906115be565b61031a9161159e565b97600385015489111561032c906115dd565b80600186019a8a8c546103439060ff9060a01c1690565b600014966103d1956103bd946103af9460409a61042d57610366825b8d54611629565b8c5560058c01610377838254611640565b90556103a5600267ffffffffffffffff87169d8e61039a60048301918254611640565b9055019c8d54611640565b8c5533931661275f565b9a546001600160a01b031690565b6009546001600160a01b0316903390611658565b01519054111561041d5750600090557f8401d05adbea6548a6999cc1540766e6d2ff919292142862893d0e62ec79fbe56000604051a25b604080519182526020820192909252f35b0390f35b905061042891611c2e565b610408565b6103668561035f565b8015150361000e57565b503461000e57602036600319011261000e5760043561045e81610436565b6104666113f0565b6000805460ff60a01b191691151560a01b60ff60a01b16919091179055005b503461000e57602036600319011261000e5760006004356104a4611ed7565b506104ce6104b182611015565b50600101805465ffffffffffff19164265ffffffffffff16179055565b816104d882610d5c565b5055604051907f8401d05adbea6548a6999cc1540766e6d2ff919292142862893d0e62ec79fbe58383a2f35b6001600160a01b0381160361000e57565b50634e487b7160e01b600052604160045260246000fd5b67ffffffffffffffff811161054057604052565b610548610515565b604052565b60a0810190811067ffffffffffffffff82111761054057604052565b6040810190811067ffffffffffffffff82111761054057604052565b90601f8019910116810190811067ffffffffffffffff82111761054057604052565b604051906080820182811067ffffffffffffffff82111761054057604052565b6040519060e0820182811067ffffffffffffffff82111761054057604052565b604051906060820182811067ffffffffffffffff82111761054057604052565b6040519060c0820182811067ffffffffffffffff82111761054057604052565b604051906106348261054d565b565b60209067ffffffffffffffff8111610654575b601f01601f19160190565b61065c610515565b610649565b81601f8201121561000e5780359061067882610636565b926106866040519485610585565b8284526020838301011161000e57816000926020809301838601378301015290565b918091926000905b8282106106c85750116106c1575050565b6000910152565b915080602091830151818601520182916106b0565b503461000e57604036600319011261000e576004356106fb81610504565b60243567ffffffffffffffff811161000e5761074f6020610419936001600160a01b0361072e60ff953690600401610661565b911660005260048252604060002082604051948386809551938492016106a8565b820190815203019020546040519116151581529081906020820190565b503461000e57602036600319011261000e576001600160a01b0360043561079281610504565b61079a6113f0565b166001600160a01b031960025416176002556000604051f35b503461000e57602036600319011261000e576001600160a01b036004356107d981610504565b6107e16113f0565b166001600160a01b031960035416176003556000604051f35b503461000e57606036600319011261000e5760043561081881610504565b60243567ffffffffffffffff811161000e57602061083d610872923690600401610661565b6001600160a01b036044359461085286610436565b1660005260048252604060002082604051948386809551938492016106a8565b8201908152030190209060ff8019835416911515161790556000604051f35b60c4359063ffffffff8216820361000e57565b503461000e5760e036600319011261000e576004356108c281610504565b604435906108cf82610436565b6084359165ffffffffffff8316830361000e5760a43563ffffffff8116810361000e576104199361091093610902610891565b936064359160243590611ef8565b6040519081529081906020820190565b600091031261000e57565b503461000e57600036600319011261000e57602060405165ffffffffffff7f0000000000000000000000000000000000000000000000000000000000000000168152f35b503461000e57600036600319011261000e57602061ffff60035460a01c16604051908152f35b503461000e57602036600319011261000e5760043561ffff811680820361000e57612710906109c26113f0565b11610a19576003805461ffff60a01b191660a092831b61ffff60a01b16179081905560405161ffff9190921c1681527ff69a8384d789b6b304597fc1147f16f21bb27e5edc34a043e102aed91e63d80590602090a1005b60405162461bcd60e51b815260206004820152601360248201527f496e76616c696420626173697320706f696e74000000000000000000000000006044820152606490fd5b503461000e57600036600319011261000e5760206001600160a01b0360095416604051908152f35b503461000e57602036600319011261000e57600435610ac0610abb336001600160a01b03166000526001602052604060002090565b612cfb565b6000805b8251811015610b37578365ffffffffffff610af26060610ae485886129bc565b51015165ffffffffffff1690565b161480610b22575b610b0d575b610b08906129ac565b610ac4565b90610b1a610b08916129ac565b919050610aff565b5060ff610b2f8233612d63565b161515610afa565b50610b419061297a565b6000805b8351811015610bb6578465ffffffffffff610b656060610ae485896129bc565b161480610ba1575b610b80575b610b7b906129ac565b610b45565b90610b998183610b93610b7b94876129bc565b526129ac565b919050610b72565b5060ff610bae8233612d63565b161515610b6d565b61041961091084612ae6565b503461000e57600080600319360112610c2057610bdd6113f0565b80546001600160a01b031981168255816001600160a01b0360405192167f8be0079c531659141344cd1fd0a4f28419497f9722a3daafe3b4186f6b6457e08284a3f35b80fd5b503461000e57600036600319011261000e57602060405165ffffffffffff7f0000000000000000000000000000000000000000000000000000000000000000168152f35b503461000e57600036600319011261000e5760206001600160a01b0360035416604051908152f35b503461000e57600036600319011261000e5760206001600160a01b0360025416604051908152f35b503461000e57600036600319011261000e57602060ff60005460a01c166040519015158152f35b503461000e57600036600319011261000e5760206001600160a01b0360005416604051908152f35b503461000e57600036600319011261000e57602060405160ff7f0000000000000000000000000000000000000000000000000000000000000000168152f35b50634e487b7160e01b600052603260045260246000fd5b600690600554811015610d98575b6005600052027f036b6384b5eca791c62761152d0c79bb0604c104a5fb6f4eb0703f3154bb3db00190600090565b610da0610d45565b610d6a565b503461000e57602036600319011261000e5760043560055481101561000e57610dcd90610d5c565b5080546001820154600283015460038401546004850154600590950154604080519586526001600160a01b038516602087015260ff60a095861c16151590860152606085019290925260808401529082019290925260c081019190915260e090f35b503461000e57602036600319011261000e5760043560005260086020526080604060002060ff6001825492015460405192835265ffffffffffff80821660208501528160301c16604084015260601c1615156060820152f35b503461000e57602036600319011261000e57600435610ea6816124d6565b6104196b033b2e3c9fd0803ce8000000610f2483610f1f610ec687610d5c565b505496610f1960ff6003610ed984610d5c565b50015492600754811015610f42575b60076000527fa66cc928b5edb82af9bd49922954155ab7b0942694bea4ce44661d9a8736c688015460f01c166115be565b9061158b565b61158b565b04604051938493846040919493926060820195825260208201520152565b610f4a610d45565b610ee8565b600754811015610f87575b60076000527fa66cc928b5edb82af9bd49922954155ab7b0942694bea4ce44661d9a8736c6880190600090565b610f8f610d45565b610f5a565b8054821015610fad575b60005260206000200190600090565b610fb5610d45565b610f9e565b503461000e57604036600319011261000e57600435610fd881610504565b6001600160a01b036024359116600052600a6020526040600020805482101561000e5760209161100791610f94565b90546040519160031b1c8152f35b600390600654811015611051575b6006600052027ff652222313e28459528d920b65115c16c04f3efc82aaedc97be59f3f377c0d3f0190600090565b611059610d45565b611023565b805482101561107b575b6000526003602060002091020190600090565b611083610d45565b611068565b503461000e57602036600319011261000e5760043560065481101561000e576003606091600660005202807ff652222313e28459528d920b65115c16c04f3efc82aaedc97be59f3f377c0d3f0154907ff652222313e28459528d920b65115c16c04f3efc82aaedc97be59f3f377c0d4165ffffffffffff7ff652222313e28459528d920b65115c16c04f3efc82aaedc97be59f3f377c0d40830154169101549060405192835260208301526040820152f35b503461000e57604036600319011261000e5760043561115881610504565b6001600160a01b0360243591166000526001602052604060002090815481101561000e576111859161105e565b508054600182015460029092015460408051928352602083019390935265ffffffffffff80821693830193909352603081901c9092166060808301919091529190911c60ff16608082015260a090f35b503461000e57602036600319011261000e5760043560075481101561000e5760076000527fa66cc928b5edb82af9bd49922954155ab7b0942694bea4ce44661d9a8736c68801546040805165ffffffffffff8084168252603084901c81166020830152606084811c821693830193909352609084901c81169282019290925260c083811c909216608082015260f09290921c60ff1660a083015290f35b503461000e57602036600319011261000e5760043561129081610504565b6112986113f0565b6001600160a01b038091169081156112ea57600091825491816001600160a01b0319841617845560405192167f8be0079c531659141344cd1fd0a4f28419497f9722a3daafe3b4186f6b6457e08484a3f35b60405162461bcd60e51b815260206004820152602660248201527f4f776e61626c653a206e6577206f776e657220697320746865207a65726f206160448201526564647265737360d01b6064820152608490fd5b60209067ffffffffffffffff8111611358575b60051b0190565b611360610515565b611351565b503461000e5760208060031936011261000e5760043567ffffffffffffffff811161000e573660238201121561000e578060040135906113a48261133e565b916113b26040519384610585565b80835260248484019160051b8301019136831161000e57602401905b8282106113e15761041961091085612ae6565b813581529084019084016113ce565b6001600160a01b0360005416330361140457565b606460405162461bcd60e51b815260206004820152602060248201527f4f776e61626c653a2063616c6c6572206973206e6f7420746865206f776e65726044820152fd5b906040516060810181811067ffffffffffffffff82111761148a575b6040526040600282948054845265ffffffffffff60018201541660208501520154910152565b611492610515565b611464565b1561149e57565b60405162461bcd60e51b815260206004820152601c60248201527f4465706f7369746f72793a206d61726b657420636f6e636c75646564000000006044820152606490fd5b156114ea57565b60405162461bcd60e51b815260206004820152601f60248201527f4465706f7369746f72793a206d6f7265207468616e206d6178207072696365006044820152606490fd5b50634e487b7160e01b600052601160045260246000fd5b6b033b2e3c9fd0803ce8000000908060001904821181151516611567570290565b61156f61152f565b0290565b620f4240908060001904821181151516611567570290565b8060001904821181151516611567570290565b81156115a8570490565b634e487b7160e01b600052601260045260246000fd5b60ff16604d81116115d0575b600a0a90565b6115d861152f565b6115ca565b156115e457565b60405162461bcd60e51b815260206004820152601d60248201527f4465706f7369746f72793a206d61782073697a652065786365656465640000006044820152606490fd5b818110611634570390565b61163c61152f565b0390565b8119811161164c570190565b61165461152f565b0190565b6000916116f7949383926040519560208701936323b872dd60e01b85526001600160a01b03938480921660248a015216604488015260648701526064865261169f8661054d565b169082604051956116af87610569565b602087527f5361666545524332303a206c6f772d6c6576656c2063616c6c206661696c656460208801526116e5843b1515611793565b51925af16116f16117df565b9061180f565b805180611702575050565b8160208061171793610634950101910161171c565b611734565b9081602091031261000e575161173181610436565b90565b1561173b57565b60405162461bcd60e51b815260206004820152602a60248201527f5361666545524332303a204552433230206f7065726174696f6e20646964206e6044820152691bdd081cdd58d8d9595960b21b6064820152608490fd5b1561179a57565b60405162461bcd60e51b815260206004820152601d60248201527f416464726573733a2063616c6c20746f206e6f6e2d636f6e74726163740000006044820152606490fd5b3d1561180a573d906117f082610636565b916117fe6040519384610585565b82523d6000602084013e565b606090565b9091901561181b575090565b81511561182b5750805190602001fd5b6044604051809262461bcd60e51b82526020600483015261185b81518092816024860152602086860191016106a8565b601f01601f19168101030190fd5b65ffffffffffff9182169116818110611634570390565b90600754821015611a57575b600760005261190e6119016119016118c5857fa66cc928b5edb82af9bd49922954155ab7b0942694bea4ce44661d9a8736c68801611a64565b65ffffffffffff60406118f782602085015116804210611a4a575b60026118eb8b610d5c565b5091420391015461158b565b920151169061159e565b67ffffffffffffffff1690565b611926600261191c85610d5c565b5001918254611629565b905561195a8161193584610f4f565b509065ffffffffffff60301b82549160301b169065ffffffffffff60301b1916179055565b61197e6001611973846000526008602052604060002090565b015460601c60ff1690565b611986575050565b61199a826000526008602052604060002090565b916119b06119a7826125d6565b91929093611015565b506119bc838254611629565b905515611a37576119f76001856119da611a1e946106349854611629565b815501926119f2845465ffffffffffff9060301c1690565b611869565b82546bffffffffffff000000000000191660309190911b65ffffffffffff60301b16178255565b9065ffffffffffff1665ffffffffffff19825416179055565b505050600101805460ff60601b19169055565b611a5261152f565b6118e0565b611a5f610d45565b61188c565b9060405160c0810181811067ffffffffffffffff821117611aca575b60405260a060ff82945465ffffffffffff8082168552808260301c166020860152808260601c166040860152808260901c1660608601528160c01c16608085015260f01c16910152565b611ad2610515565b611a80565b9065ffffffffffff808093169116809203811161164c570190565b9060405160e0810181811067ffffffffffffffff821117611b68575b60405260c06005829480548452611b4360ff60018301546001600160a01b038116602088015260a01c16604086019015159052565b6002810154606085015260038101546080850152600481015460a08501520154910152565b611b70610515565b611b0e565b9081602091031261000e575190565b506040513d6000823e3d90fd5b50634e487b7160e01b600052600060045260246000fd5b60606001611c2a92845181550192611c0f65ffffffffffff611be481602085015116879065ffffffffffff1665ffffffffffff19825416179055565b604083015186546bffffffffffff0000000000001916911660301b65ffffffffffff60301b16178555565b0151825460ff60601b191690151560601b60ff60601b161790565b9055565b90611c41611c3b83610f4f565b50611a64565b805165ffffffffffff1692611c78611c6d6080840195611c67875165ffffffffffff1690565b90611ad7565b65ffffffffffff1690565b65ffffffffffff84161015611c8e575b50505050565b611e1293611dc961190185611d146004611d7b611df898611d1489610f19611c6d6040611ce6611c6d611cc9611cc387610d5c565b50611af2565b9b6119f26001611cd889611015565b50015465ffffffffffff1690565b95611cf0856124d6565b9a8b611cfe84830151151590565b15611ecf57611d1990611d14611d359351611546565b61159e565b611d2f611d2a60a085015160ff1690565b6115be565b9061159e565b945b6003611d6b611d656119016119018c611d14611d5f611c6d60608b015165ffffffffffff1690565b8d61158b565b92610d5c565b500155015165ffffffffffff1690565b926020611d9f611d936003546001600160a01b031690565b6001600160a01b031690565b604051633fdaeac760e11b815293849182905afa918215611ec2575b600092611e92575b5061158b565b9067ffffffffffffffff611ddc84611015565b50549216918210611e1b5750611df182611015565b5055610f4f565b509065ffffffffffff1665ffffffffffff19825416179055565b38808080611c88565b611e6d611e45611e38611e8d94611e3187611015565b5054611629565b925165ffffffffffff1690565b611e4d6105a7565b92835265ffffffffffff8716602084015265ffffffffffff166040830152565b60016060820152611e88836000526008602052604060002090565b611ba8565b610f4f565b611eb491925060203d8111611ebb575b611eac8183610585565b810190611b75565b9038611dc3565b503d611ea2565b611eca611b84565b611dbb565b505194611d37565b60405190611ee482610569565b600582526430b236b4b760d91b6020830152565b90939491959295611f07611ed7565b50611f1a4265ffffffffffff8816611629565b906040519763313ce56760e01b89526020896004816001600160a01b0388165afa9889156121db575b6000996121aa575b5081156121a25787611f6f611f6383611d148b611546565b611d2f60ff8d16612201565b915b6005549a8b9986611f8863ffffffff8b168761158b565b90611f929161159e565b611f9a6105c7565b9182526001600160a01b03891660208301528615156040830152856060830152608082015260a081016000905260c0810160009052611fd89061220f565b600354604051633fdaeac760e11b815291908590839081906001600160a01b03165a92600491602094fa80159b61210863ffffffff6001600160a01b039d7fabc443215e32d8be9e2437c2c0032632966baa3b53a06e4a3ddcb16d3cc3d1e49f65ffffffffffff6121759e6120bf6121289e60209e6120b56121239f60ff9f6121189e611d148c9f61209a9461207e946120f89d612195575b60009261217b575061158b565b9361209461208b82611573565b620186a0900490565b90611640565b916120a36105e7565b93845265ffffffffffff166020840152565b60408201526122ce565b6120e88242166120cd610607565b65ffffffffffff821681529e8f019065ffffffffffff169052565b1665ffffffffffff1660408c0152565b1665ffffffffffff166060890152565b1665ffffffffffff166080860152565b1660ff1660a0830152565b61234b565b6121508661214b8686166001600160a01b0316600052600a602052604060002090565b612491565b60405193849316968390929160209065ffffffffffff60408401951683521515910152565b0390a390565b6020611eb49293503d602011611ebb57611eac8183610585565b61219d611b84565b612071565b878791611f71565b6121cd91995060203d6020116121d4575b6121c58183610585565b8101906121e8565b9738611f4b565b503d6121bb565b6121e3611b84565b611f43565b9081602091031261000e575160ff8116810361000e5790565b604d81116115d057600a0a90565b600560c06122308254600160401b8110156122c1575b600181018455610d5c565b9390936122b4575b8051845561228f600185016122706001600160a01b0360208501511682906001600160a01b03166001600160a01b0319825416179055565b6040830151815460ff60a01b191690151560a01b60ff60a01b16179055565b606081015160028501556080810151600385015560a081015160048501550151910155565b6122bc611b91565b612238565b6122c9610515565b612225565b600260406122f1600654600160401b81101561233e575b60018101600655611015565b939093612331575b8051845561232a65ffffffffffff602083015116600186019065ffffffffffff1665ffffffffffff19825416179055565b0151910155565b612339611b91565b6122f9565b612346610515565b6122e5565b6106349061245d60a0612373600754600160401b811015612484575b60018101600755610f4f565b939093612477575b805184546020830151604084015160608086015191901b71ffffffffffff0000000000000000000000001660309290921b65ffffffffffff60301b1665ffffffffffff9485167fffffffffffffffff00000000000000000000000000000000000000000000000090941693909317929092171760909190911b77ffffffffffff000000000000000000000000000000000000161785556080820151612455911685547fffff000000000000ffffffffffffffffffffffffffffffffffffffffffffffff1660c09190911b65ffffffffffff60c01b16178555565b015160ff1690565b815460ff60f01b191660f09190911b60ff60f01b16179055565b61247f611b91565b61237b565b61248c610515565b612367565b80546124af91600160401b8210156124c9575b600182018155610f94565b819291549060031b600019811b9283911b16911916179055565b6124d1610515565b6124a4565b61173190611d2f611d2a61259161258b6124ef85611015565b5054610f19600461254a60026125048a610d5c565b5001546007548a10156125c9575b60076000527fa66cc928b5edb82af9bd49922954155ab7b0942694bea4ce44661d9a8736c6888a0154610f199060f01c60ff166115be565b6020612561611d936003546001600160a01b031690565b604051633fdaeac760e11b815293849182905afa9182156125bc575b60009261259c575b5061159e565b93610f4f565b505460f01c60ff1690565b6125b591925060203d8111611ebb57611eac8183610585565b9038612585565b6125c4611b84565b61257d565b6125d1610d45565b612512565b6000908152600860205260408120906001604051926080840184811067ffffffffffffffff821117612693575b6040528054845201549165ffffffffffff9283811680602084015260ff6040840192868160301c16845260601c1615801560608501526126885761264990854216611869565b9361265d611c6d835165ffffffffffff1690565b9085169081109350831561268257611c6d611e38611d2f9261267f955161158b565b92565b50505192565b505050809150918190565b61269b610515565b612603565b60ff608060026126c8611c2a94805490600160401b821015612752575b60018201815561105e565b612745575b855181556020860151600182015560408601519101805465ffffffffffff191665ffffffffffff928316178155949061272b90606083015187546bffffffffffff0000000000001916911660301b65ffffffffffff60301b16178655565b0151835460ff60601b1916911660601b60ff60601b161790565b61274d611b91565b6126cd565b61275a610515565b6126bd565b909192949361279d61279661278e61278861278160035461ffff9060a01c1690565b61ffff1690565b8461158b565b612710900490565b8092611629565b6127d86127bd886001600160a01b03166000526001602052604060002090565b54976001600160a01b03166000526001602052604060002090565b90600581049061282665ffffffffffff4216936127f3610627565b8381526020810185905265ffffffffffff861660408201529065ffffffffffff88166060830152600060808301526126a0565b61283b611d936003546001600160a01b031690565b9661284e6002546001600160a01b031690565b96883b1561000e576040516340c10f1960e01b81526001600160a01b0398909816600489015260248801959095527f129794f6f9aa0adfa6dda6ca7d08d05812fea954f80008e5cf68ae7b9fa898b4978a9761290396916000908290604490829084905af18015612921575b612908575b506040805133815265ffffffffffff9889166020820152908101989098526060880152608087015260a086015260c085015290911660e08301528190610100820190565b0390a1565b8061291561291b9261052c565b80610920565b386128bf565b612929611b84565b6128ba565b1561293557565b60405162461bcd60e51b815260206004820152601160248201527f4e6f7468696e6720746f2072656465656d0000000000000000000000000000006044820152606490fd5b906129848261133e565b6129916040519182610585565b82815280926129a2601f199161133e565b0190602036910137565b600190600019811461164c570190565b60209181518110156129d1575b60051b010190565b6129d9610d45565b6129c9565b156129e557565b60405162461bcd60e51b815260206004820152601260248201527f4e6f2070656e64696e672076657374696e6700000000000000000000000000006044820152606490fd5b60ff8091169116908160ff03811161164c570190565b90815180825260208080930193019160005b828110612a60575050505090565b835185529381019392810192600101612a52565b906001600160a01b039095949295168152612a9b6020956080878401526080830190612a40565b818103604083015285808551928381520194019060005b818110612acf575050506117319394506060818403910152612a40565b825160ff1686529487019491870191600101612ab2565b90600091612af68151151561292e565b612b00815161297a565b90612b0b815161297a565b9160005b8251811015612bec57336000908152600160205260409020612b3182856129bc565b51612b3b9161105e565b50612b4682856129bc565b51612b519033612d63565b9660ff9081891692831515612b65906129de565b600281018054909a9060601c60ff1690612b7e91612a2a565b8a5460ff60601b191660609190911b60ff60601b16178a556001015492612ba5908461158b565b612bae91611640565b975460601c60ff1680612bc185876129bc565b60ff90911690521690612bd39161158b565b612bdd82866129bc565b52612be7906129ac565b612b0f565b5090612c03611d936003546001600160a01b031690565b803b1561000e576040516340c10f1960e01b8152336004820152602481018790527f5a21b90378728eb82fe7be28a8f4a46d422e5c1f08ac7521b84ef5c190b0cc8694612903929091906000908290604490829084905af18015612c88575b612c75575b506040519384933385612a74565b80612915612c829261052c565b38612c67565b612c90611b84565b612c62565b9060405160a0810181811067ffffffffffffffff821117612cee575b604052608060ff600283958054855260018101546020860152015465ffffffffffff80821660408601528160301c16606085015260601c16910152565b612cf6610515565b612cb1565b908154612d078161133e565b92612d156040519485610585565b818452600090815260208082208186015b848410612d34575050505050565b600383600192612d4385612c95565b815201920193019290612d26565b60ff9182169116818110611634570390565b612d9291612d87612d8c926001600160a01b03166000526001602052604060002090565b61105e565b50612c95565b6080810160ff612da3825160ff1690565b7f0000000000000000000000000000000000000000000000000000000000000000821691168114612e8557612e4960ff91612e37612df9612df3611c6d604061173199015165ffffffffffff1690565b42611629565b60005460a01c60ff1615612e585765ffffffffffff7f00000000000000000000000000000000000000000000000000000000000000005b169061159e565b81811115612e505750925b5160ff1690565b9116612d51565b905092612e42565b65ffffffffffff7f0000000000000000000000000000000000000000000000000000000000000000612e30565b50505060009056fea264697066735822122008feeb9c0fcfda0605cc6b962ac07e334361336f319495c303d51540fee0388964736f6c634300080e0033",
  "devdoc": {
    "kind": "dev",
    "methods": {
      "close(uint256)": {
        "params": {
          "_id": "ID of market to close"
        }
      },
      "deposit(uint256,uint256,uint256)": {
        "params": {
          "_amount": "the amount of quote token to spend",
          "_id": "the ID of the market",
          "_maxPrice": "the maxeimum price at which to buy"
        },
        "returns": {
          "index_": "     the user index of the Note (usd to redeem or query information)",
          "payout_": "    the amount of NEND due"
        }
      },
      "owner()": {
        "details": "Returns the address of the current owner."
      },
      "redeem(uint256[])": {
        "params": {
          "_indexes": "the note indexes to redeem"
        },
        "returns": {
          "payout_": "    sum of payout sent, in NEND"
        }
      },
      "redeemAll(uint256)": {
        "details": "if possible, query indexesFor() off-chain and input in redeem() to save gas",
        "returns": {
          "_0": "sum of payout sent, in NEND"
        }
      },
      "renounceOwnership()": {
        "details": "Leaves the contract without owner. It will not be possible to call `onlyOwner` functions anymore. Can only be called by the current owner. NOTE: Renouncing ownership will leave the contract without an owner, thereby removing any functionality that is only available to the owner."
      },
      "transferOwnership(address)": {
        "details": "Transfers ownership of the contract to a new account (`newOwner`). Can only be called by the current owner."
      }
    },
    "version": 1
  },
  "userdoc": {
    "kind": "user",
    "methods": {
      "close(uint256)": {
        "notice": "disable existing market"
      },
      "deposit(uint256,uint256,uint256)": {
        "notice": "deposit quote tokens in exchange for a bond from a specified market"
      },
      "redeem(uint256[])": {
        "notice": "redeem notes for user"
      },
      "redeemAll(uint256)": {
        "notice": "redeem all redeemable markets for user"
      }
    },
    "version": 1
  },
  "storageLayout": {
    "storage": [
      {
        "astId": 8357,
        "contract": "contracts/bonding/BondDepository.sol:BondDepository",
        "label": "_owner",
        "offset": 0,
        "slot": "0",
        "type": "t_address"
      },
      {
        "astId": 23950,
        "contract": "contracts/bonding/BondDepository.sol:BondDepository",
        "label": "testing",
        "offset": 20,
        "slot": "0",
        "type": "t_bool"
      },
      {
        "astId": 9561,
        "contract": "contracts/bonding/BondDepository.sol:BondDepository",
        "label": "notes",
        "offset": 0,
        "slot": "1",
        "type": "t_mapping(t_address,t_array(t_struct(Note)9496_storage)dyn_storage)"
      },
      {
        "astId": 9563,
        "contract": "contracts/bonding/BondDepository.sol:BondDepository",
        "label": "insurance",
        "offset": 0,
        "slot": "2",
        "type": "t_address"
      },
      {
        "astId": 9566,
        "contract": "contracts/bonding/BondDepository.sol:BondDepository",
        "label": "nend",
        "offset": 0,
        "slot": "3",
        "type": "t_contract(NEND)24073"
      },
      {
        "astId": 9572,
        "contract": "contracts/bonding/BondDepository.sol:BondDepository",
        "label": "commissionRate",
        "offset": 20,
        "slot": "3",
        "type": "t_uint16"
      },
      {
        "astId": 8472,
        "contract": "contracts/bonding/BondDepository.sol:BondDepository",
        "label": "hasRole",
        "offset": 0,
        "slot": "4",
        "type": "t_mapping(t_address,t_mapping(t_string_memory_ptr,t_bool))"
      },
      {
        "astId": 8531,
        "contract": "contracts/bonding/BondDepository.sol:BondDepository",
        "label": "markets",
        "offset": 0,
        "slot": "5",
        "type": "t_array(t_struct(Market)9403_storage)dyn_storage"
      },
      {
        "astId": 8535,
        "contract": "contracts/bonding/BondDepository.sol:BondDepository",
        "label": "terms",
        "offset": 0,
        "slot": "6",
        "type": "t_array(t_struct(Terms)9410_storage)dyn_storage"
      },
      {
        "astId": 8539,
        "contract": "contracts/bonding/BondDepository.sol:BondDepository",
        "label": "metadata",
        "offset": 0,
        "slot": "7",
        "type": "t_array(t_struct(Metadata)9423_storage)dyn_storage"
      },
      {
        "astId": 8544,
        "contract": "contracts/bonding/BondDepository.sol:BondDepository",
        "label": "adjustments",
        "offset": 0,
        "slot": "8",
        "type": "t_mapping(t_uint256,t_struct(Adjustment)9432_storage)"
      },
      {
        "astId": 8546,
        "contract": "contracts/bonding/BondDepository.sol:BondDepository",
        "label": "treasury",
        "offset": 0,
        "slot": "9",
        "type": "t_address"
      },
      {
        "astId": 8551,
        "contract": "contracts/bonding/BondDepository.sol:BondDepository",
        "label": "marketsForQuote",
        "offset": 0,
        "slot": "10",
        "type": "t_mapping(t_address,t_array(t_uint256)dyn_storage)"
      }
    ],
    "types": {
      "t_address": {
        "encoding": "inplace",
        "label": "address",
        "numberOfBytes": "20"
      },
      "t_array(t_struct(Market)9403_storage)dyn_storage": {
        "base": "t_struct(Market)9403_storage",
        "encoding": "dynamic_array",
        "label": "struct IBondDepository.Market[]",
        "numberOfBytes": "32"
      },
      "t_array(t_struct(Metadata)9423_storage)dyn_storage": {
        "base": "t_struct(Metadata)9423_storage",
        "encoding": "dynamic_array",
        "label": "struct IBondDepository.Metadata[]",
        "numberOfBytes": "32"
      },
      "t_array(t_struct(Note)9496_storage)dyn_storage": {
        "base": "t_struct(Note)9496_storage",
        "encoding": "dynamic_array",
        "label": "struct INoteKeeper.Note[]",
        "numberOfBytes": "32"
      },
      "t_array(t_struct(Terms)9410_storage)dyn_storage": {
        "base": "t_struct(Terms)9410_storage",
        "encoding": "dynamic_array",
        "label": "struct IBondDepository.Terms[]",
        "numberOfBytes": "32"
      },
      "t_array(t_uint256)dyn_storage": {
        "base": "t_uint256",
        "encoding": "dynamic_array",
        "label": "uint256[]",
        "numberOfBytes": "32"
      },
      "t_bool": {
        "encoding": "inplace",
        "label": "bool",
        "numberOfBytes": "1"
      },
      "t_contract(IERC20)4822": {
        "encoding": "inplace",
        "label": "contract IERC20",
        "numberOfBytes": "20"
      },
      "t_contract(NEND)24073": {
        "encoding": "inplace",
        "label": "contract NEND",
        "numberOfBytes": "20"
      },
      "t_mapping(t_address,t_array(t_struct(Note)9496_storage)dyn_storage)": {
        "encoding": "mapping",
        "key": "t_address",
        "label": "mapping(address => struct INoteKeeper.Note[])",
        "numberOfBytes": "32",
        "value": "t_array(t_struct(Note)9496_storage)dyn_storage"
      },
      "t_mapping(t_address,t_array(t_uint256)dyn_storage)": {
        "encoding": "mapping",
        "key": "t_address",
        "label": "mapping(address => uint256[])",
        "numberOfBytes": "32",
        "value": "t_array(t_uint256)dyn_storage"
      },
      "t_mapping(t_address,t_mapping(t_string_memory_ptr,t_bool))": {
        "encoding": "mapping",
        "key": "t_address",
        "label": "mapping(address => mapping(string => bool))",
        "numberOfBytes": "32",
        "value": "t_mapping(t_string_memory_ptr,t_bool)"
      },
      "t_mapping(t_string_memory_ptr,t_bool)": {
        "encoding": "mapping",
        "key": "t_string_memory_ptr",
        "label": "mapping(string => bool)",
        "numberOfBytes": "32",
        "value": "t_bool"
      },
      "t_mapping(t_uint256,t_struct(Adjustment)9432_storage)": {
        "encoding": "mapping",
        "key": "t_uint256",
        "label": "mapping(uint256 => struct IBondDepository.Adjustment)",
        "numberOfBytes": "32",
        "value": "t_struct(Adjustment)9432_storage"
      },
      "t_string_memory_ptr": {
        "encoding": "bytes",
        "label": "string",
        "numberOfBytes": "32"
      },
      "t_struct(Adjustment)9432_storage": {
        "encoding": "inplace",
        "label": "struct IBondDepository.Adjustment",
        "members": [
          {
            "astId": 9425,
            "contract": "contracts/bonding/BondDepository.sol:BondDepository",
            "label": "change",
            "offset": 0,
            "slot": "0",
            "type": "t_uint256"
          },
          {
            "astId": 9427,
            "contract": "contracts/bonding/BondDepository.sol:BondDepository",
            "label": "lastAdjustment",
            "offset": 0,
            "slot": "1",
            "type": "t_uint48"
          },
          {
            "astId": 9429,
            "contract": "contracts/bonding/BondDepository.sol:BondDepository",
            "label": "timeToAdjusted",
            "offset": 6,
            "slot": "1",
            "type": "t_uint48"
          },
          {
            "astId": 9431,
            "contract": "contracts/bonding/BondDepository.sol:BondDepository",
            "label": "active",
            "offset": 12,
            "slot": "1",
            "type": "t_bool"
          }
        ],
        "numberOfBytes": "64"
      },
      "t_struct(Market)9403_storage": {
        "encoding": "inplace",
        "label": "struct IBondDepository.Market",
        "members": [
          {
            "astId": 9389,
            "contract": "contracts/bonding/BondDepository.sol:BondDepository",
            "label": "capacity",
            "offset": 0,
            "slot": "0",
            "type": "t_uint256"
          },
          {
            "astId": 9392,
            "contract": "contracts/bonding/BondDepository.sol:BondDepository",
            "label": "quoteToken",
            "offset": 0,
            "slot": "1",
            "type": "t_contract(IERC20)4822"
          },
          {
            "astId": 9394,
            "contract": "contracts/bonding/BondDepository.sol:BondDepository",
            "label": "capacityInQuote",
            "offset": 20,
            "slot": "1",
            "type": "t_bool"
          },
          {
            "astId": 9396,
            "contract": "contracts/bonding/BondDepository.sol:BondDepository",
            "label": "totalDebt",
            "offset": 0,
            "slot": "2",
            "type": "t_uint256"
          },
          {
            "astId": 9398,
            "contract": "contracts/bonding/BondDepository.sol:BondDepository",
            "label": "maxPayout",
            "offset": 0,
            "slot": "3",
            "type": "t_uint256"
          },
          {
            "astId": 9400,
            "contract": "contracts/bonding/BondDepository.sol:BondDepository",
            "label": "sold",
            "offset": 0,
            "slot": "4",
            "type": "t_uint256"
          },
          {
            "astId": 9402,
            "contract": "contracts/bonding/BondDepository.sol:BondDepository",
            "label": "purchased",
            "offset": 0,
            "slot": "5",
            "type": "t_uint256"
          }
        ],
        "numberOfBytes": "192"
      },
      "t_struct(Metadata)9423_storage": {
        "encoding": "inplace",
        "label": "struct IBondDepository.Metadata",
        "members": [
          {
            "astId": 9412,
            "contract": "contracts/bonding/BondDepository.sol:BondDepository",
            "label": "lastTune",
            "offset": 0,
            "slot": "0",
            "type": "t_uint48"
          },
          {
            "astId": 9414,
            "contract": "contracts/bonding/BondDepository.sol:BondDepository",
            "label": "lastDecay",
            "offset": 6,
            "slot": "0",
            "type": "t_uint48"
          },
          {
            "astId": 9416,
            "contract": "contracts/bonding/BondDepository.sol:BondDepository",
            "label": "length",
            "offset": 12,
            "slot": "0",
            "type": "t_uint48"
          },
          {
            "astId": 9418,
            "contract": "contracts/bonding/BondDepository.sol:BondDepository",
            "label": "depositInterval",
            "offset": 18,
            "slot": "0",
            "type": "t_uint48"
          },
          {
            "astId": 9420,
            "contract": "contracts/bonding/BondDepository.sol:BondDepository",
            "label": "tuneInterval",
            "offset": 24,
            "slot": "0",
            "type": "t_uint48"
          },
          {
            "astId": 9422,
            "contract": "contracts/bonding/BondDepository.sol:BondDepository",
            "label": "quoteDecimals",
            "offset": 30,
            "slot": "0",
            "type": "t_uint8"
          }
        ],
        "numberOfBytes": "32"
      },
      "t_struct(Note)9496_storage": {
        "encoding": "inplace",
        "label": "struct INoteKeeper.Note",
        "members": [
          {
            "astId": 9487,
            "contract": "contracts/bonding/BondDepository.sol:BondDepository",
            "label": "payout",
            "offset": 0,
            "slot": "0",
            "type": "t_uint256"
          },
          {
            "astId": 9489,
            "contract": "contracts/bonding/BondDepository.sol:BondDepository",
            "label": "payoutPerVesting",
            "offset": 0,
            "slot": "1",
            "type": "t_uint256"
          },
          {
            "astId": 9491,
            "contract": "contracts/bonding/BondDepository.sol:BondDepository",
            "label": "created",
            "offset": 0,
            "slot": "2",
            "type": "t_uint48"
          },
          {
            "astId": 9493,
            "contract": "contracts/bonding/BondDepository.sol:BondDepository",
            "label": "marketID",
            "offset": 6,
            "slot": "2",
            "type": "t_uint48"
          },
          {
            "astId": 9495,
            "contract": "contracts/bonding/BondDepository.sol:BondDepository",
            "label": "vestingCount",
            "offset": 12,
            "slot": "2",
            "type": "t_uint8"
          }
        ],
        "numberOfBytes": "96"
      },
      "t_struct(Terms)9410_storage": {
        "encoding": "inplace",
        "label": "struct IBondDepository.Terms",
        "members": [
          {
            "astId": 9405,
            "contract": "contracts/bonding/BondDepository.sol:BondDepository",
            "label": "controlVariable",
            "offset": 0,
            "slot": "0",
            "type": "t_uint256"
          },
          {
            "astId": 9407,
            "contract": "contracts/bonding/BondDepository.sol:BondDepository",
            "label": "conclusion",
            "offset": 0,
            "slot": "1",
            "type": "t_uint48"
          },
          {
            "astId": 9409,
            "contract": "contracts/bonding/BondDepository.sol:BondDepository",
            "label": "maxDebt",
            "offset": 0,
            "slot": "2",
            "type": "t_uint256"
          }
        ],
        "numberOfBytes": "96"
      },
      "t_uint16": {
        "encoding": "inplace",
        "label": "uint16",
        "numberOfBytes": "2"
      },
      "t_uint256": {
        "encoding": "inplace",
        "label": "uint256",
        "numberOfBytes": "32"
      },
      "t_uint48": {
        "encoding": "inplace",
        "label": "uint48",
        "numberOfBytes": "6"
      },
      "t_uint8": {
        "encoding": "inplace",
        "label": "uint8",
        "numberOfBytes": "1"
      }
    }
  }
}