{
  "address": "0x1eaf7Dcb5a032e7688BAD347A81bB253F2A2997b",
  "abi": [
    {
      "inputs": [
        {
          "internalType": "address",
          "name": "_nend",
          "type": "address"
        }
      ],
      "stateMutability": "nonpayable",
      "type": "constructor"
    },
    {
      "anonymous": false,
      "inputs": [
        {
          "indexed": false,
          "internalType": "uint256",
          "name": "farmId",
          "type": "uint256"
        }
      ],
      "name": "FarmClosed",
      "type": "event"
    },
    {
      "anonymous": false,
      "inputs": [
        {
          "indexed": false,
          "internalType": "uint256",
          "name": "farmId",
          "type": "uint256"
        },
        {
          "indexed": false,
          "internalType": "address",
          "name": "token",
          "type": "address"
        },
        {
          "indexed": false,
          "internalType": "uint48",
          "name": "start",
          "type": "uint48"
        },
        {
          "indexed": false,
          "internalType": "uint48",
          "name": "end",
          "type": "uint48"
        },
        {
          "indexed": false,
          "internalType": "uint256",
          "name": "totalReward",
          "type": "uint256"
        }
      ],
      "name": "FarmCreated",
      "type": "event"
    },
    {
      "anonymous": false,
      "inputs": [
        {
          "indexed": true,
          "internalType": "address",
          "name": "previousOwner",
          "type": "address"
        },
        {
          "indexed": true,
          "internalType": "address",
          "name": "newOwner",
          "type": "address"
        }
      ],
      "name": "OwnershipTransferred",
      "type": "event"
    },
    {
      "anonymous": false,
      "inputs": [
        {
          "indexed": false,
          "internalType": "uint256",
          "name": "stakeId",
          "type": "uint256"
        },
        {
          "indexed": false,
          "internalType": "uint256",
          "name": "rewardClaimed",
          "type": "uint256"
        }
      ],
      "name": "RewardClaimed",
      "type": "event"
    },
    {
      "anonymous": false,
      "inputs": [
        {
          "indexed": false,
          "internalType": "uint256",
          "name": "stakeId",
          "type": "uint256"
        },
        {
          "indexed": false,
          "internalType": "address",
          "name": "staker",
          "type": "address"
        },
        {
          "indexed": false,
          "internalType": "uint256",
          "name": "farmId",
          "type": "uint256"
        },
        {
          "indexed": false,
          "internalType": "uint48",
          "name": "start",
          "type": "uint48"
        },
        {
          "indexed": false,
          "internalType": "uint256",
          "name": "amount",
          "type": "uint256"
        }
      ],
      "name": "Staked",
      "type": "event"
    },
    {
      "anonymous": false,
      "inputs": [
        {
          "indexed": false,
          "internalType": "uint256",
          "name": "stakeId",
          "type": "uint256"
        },
        {
          "indexed": false,
          "internalType": "uint48",
          "name": "unstakedAt",
          "type": "uint48"
        }
      ],
      "name": "Unstaked",
      "type": "event"
    },
    {
      "inputs": [
        {
          "internalType": "address",
          "name": "operator",
          "type": "address"
        },
        {
          "internalType": "string",
          "name": "role",
          "type": "string"
        },
        {
          "internalType": "bool",
          "name": "authorized",
          "type": "bool"
        }
      ],
      "name": "authorize",
      "outputs": [],
      "stateMutability": "nonpayable",
      "type": "function"
    },
    {
      "inputs": [
        {
          "internalType": "uint256",
          "name": "_stakeId",
          "type": "uint256"
        }
      ],
      "name": "calculateReward",
      "outputs": [
        {
          "internalType": "uint256",
          "name": "",
          "type": "uint256"
        }
      ],
      "stateMutability": "view",
      "type": "function"
    },
    {
      "inputs": [
        {
          "internalType": "uint256",
          "name": "_stakeId",
          "type": "uint256"
        }
      ],
      "name": "claim",
      "outputs": [],
      "stateMutability": "nonpayable",
      "type": "function"
    },
    {
      "inputs": [
        {
          "internalType": "address",
          "name": "_stakeToken",
          "type": "address"
        },
        {
          "internalType": "uint48",
          "name": "_end",
          "type": "uint48"
        },
        {
          "internalType": "uint256",
          "name": "_totalReward",
          "type": "uint256"
        }
      ],
      "name": "create",
      "outputs": [],
      "stateMutability": "nonpayable",
      "type": "function"
    },
    {
      "inputs": [
        {
          "internalType": "uint256",
          "name": "_farmId",
          "type": "uint256"
        },
        {
          "internalType": "uint256",
          "name": "_amount",
          "type": "uint256"
        }
      ],
      "name": "deposit",
      "outputs": [],
      "stateMutability": "nonpayable",
      "type": "function"
    },
    {
      "inputs": [
        {
          "internalType": "uint256",
          "name": "",
          "type": "uint256"
        }
      ],
      "name": "farms",
      "outputs": [
        {
          "internalType": "address",
          "name": "token",
          "type": "address"
        },
        {
          "internalType": "uint48",
          "name": "start",
          "type": "uint48"
        },
        {
          "internalType": "uint48",
          "name": "end",
          "type": "uint48"
        },
        {
          "internalType": "uint256",
          "name": "totalReward",
          "type": "uint256"
        },
        {
          "internalType": "uint256",
          "name": "totalStaked",
          "type": "uint256"
        }
      ],
      "stateMutability": "view",
      "type": "function"
    },
    {
      "inputs": [
        {
          "internalType": "address",
          "name": "",
          "type": "address"
        },
        {
          "internalType": "string",
          "name": "",
          "type": "string"
        }
      ],
      "name": "hasRole",
      "outputs": [
        {
          "internalType": "bool",
          "name": "",
          "type": "bool"
        }
      ],
      "stateMutability": "view",
      "type": "function"
    },
    {
      "inputs": [],
      "name": "nend",
      "outputs": [
        {
          "internalType": "address",
          "name": "",
          "type": "address"
        }
      ],
      "stateMutability": "view",
      "type": "function"
    },
    {
      "inputs": [],
      "name": "owner",
      "outputs": [
        {
          "internalType": "address",
          "name": "",
          "type": "address"
        }
      ],
      "stateMutability": "view",
      "type": "function"
    },
    {
      "inputs": [],
      "name": "renounceOwnership",
      "outputs": [],
      "stateMutability": "nonpayable",
      "type": "function"
    },
    {
      "inputs": [
        {
          "internalType": "uint256",
          "name": "",
          "type": "uint256"
        }
      ],
      "name": "stakes",
      "outputs": [
        {
          "internalType": "address",
          "name": "staker",
          "type": "address"
        },
        {
          "internalType": "uint256",
          "name": "farmId",
          "type": "uint256"
        },
        {
          "internalType": "uint48",
          "name": "start",
          "type": "uint48"
        },
        {
          "internalType": "uint48",
          "name": "end",
          "type": "uint48"
        },
        {
          "internalType": "uint48",
          "name": "lastClaimedAt",
          "type": "uint48"
        },
        {
          "internalType": "uint256",
          "name": "amount",
          "type": "uint256"
        },
        {
          "internalType": "uint256",
          "name": "rewardClaimed",
          "type": "uint256"
        }
      ],
      "stateMutability": "view",
      "type": "function"
    },
    {
      "inputs": [
        {
          "internalType": "address",
          "name": "newOwner",
          "type": "address"
        }
      ],
      "name": "transferOwnership",
      "outputs": [],
      "stateMutability": "nonpayable",
      "type": "function"
    },
    {
      "inputs": [
        {
          "internalType": "uint256",
          "name": "_stakeId",
          "type": "uint256"
        }
      ],
      "name": "unstake",
      "outputs": [],
      "stateMutability": "nonpayable",
      "type": "function"
    }
  ],
  "transactionHash": "0xfee8c4c19f23ad4f29d6642c8dc6bca421a275dbac4ce3b925191bbef93a0c5c",
  "args": [
    "0xE1e80b525Aafb72800a85d35CbbC43E2b2d05872"
  ],
  "numDeployments": 1,
  "solcInputHash": "91942d0bfd6efcf2f85da000c34c69e0",
  "bytecode": "0x60803461006757601f61169c38819003918201601f19168301916001600160401b0383118484101761006c5780849260209460405283398101031261006757516001600160a01b03811681036100675761005890610082565b6040516115b290816100ea8239f35b600080fd5b634e487b7160e01b600052604160045260246000fd5b600054732f358b80ed2d296c09560d2b9f70a7f81d57e3529160018060a01b031992808484161760005560018060a01b038093167f8be0079c531659141344cd1fd0a4f28419497f9722a3daafe3b4186f6b6457e06000604051a31690600254161760025556fe60806040526004361015610013575b600080fd5b60003560e01c8063217fe6c6146101175780632e17de781461010e578063379607f51461010557806339d2525f146100fc578063715018a6146100f35780637da470ea146100ea57806382952200146100e15780638da5cb5b146100d8578063b7314ef9146100cf578063d2d7231f146100c6578063d5a44f86146100bd578063e2bbb158146100b45763f2fde38b146100ac57600080fd5b61000e610bfe565b5061000e610a29565b5061000e61098e565b5061000e61091e565b5061000e61077c565b5061000e610754565b5061000e61072c565b5061000e6106bf565b5061000e610600565b5061000e610543565b5061000e6104a1565b5061000e6102f9565b5061000e61023d565b600435906001600160a01b038216820361000e57565b50634e487b7160e01b600052604160045260246000fd5b6040810190811067ffffffffffffffff82111761016957604052565b610171610136565b604052565b90601f8019910116810190811067ffffffffffffffff82111761016957604052565b6040519060a0820182811067ffffffffffffffff82111761016957604052565b6040519060e0820182811067ffffffffffffffff82111761016957604052565b81601f8201121561000e5780359067ffffffffffffffff8211610230575b6040519261020e601f8401601f191660200185610176565b8284526020838301011161000e57816000926020809301838601378301015290565b610238610136565b6101f6565b503461000e57604036600319011261000e57610257610120565b60243567ffffffffffffffff811161000e5761027f6001600160a01b039136906004016101d8565b9116600052602090600182526040600020604051918051906000905b8282106102e6576102d76102c586888188888089116102db575b8201908152030190205460ff1690565b60405190151581529081906020820190565b0390f35b6000818401526102b5565b818101860151858301529085019061029b565b503461000e57602036600319011261000e577f2db5acd5bced5f44f73d621255e9e4f7f24d6d2d9682a513df5ea7043fd693d260043561033881610945565b5090610434602061034c6001850154610678565b5060028501946103b265ffffffffffff61037b816103748a5465ffffffffffff9060301c1690565b16156110b1565b61038487611149565b42168097906bffffffffffff00000000000082549160301b16906bffffffffffff0000000000001916179055565b6103fd6103ef6103e36103e3600385019586546103d460028301918254610ecc565b9055546001600160a01b031690565b6001600160a01b031690565b91546001600160a01b031690565b915460405163a9059cbb60e01b81526001600160a01b03909316600484015260248301529092839190829060009082906044820190565b03925af18015610494575b610466575b506040805191825265ffffffffffff909216602082015290819081015b0390a1005b6104869060203d811161048d575b61047e8183610176565b810190610f69565b5038610444565b503d610474565b61049c610d79565b61043f565b503461000e57602036600319011261000e576004356001600160a01b036104c782610945565b505416330361050457806104fd65ffffffffffff61037460026104ec61050296610945565b50015460301c65ffffffffffff1690565b611149565b005b60405162461bcd60e51b815260206004820152600d60248201526c4e6f74206f776e207374616b6560981b6044820152606490fd5b8015150361000e57565b503461000e57606036600319011261000e5761055d610120565b60243567ffffffffffffffff811161000e5761057d9036906004016101d8565b6001600160a01b036044359261059284610539565b166000526020600181526040600020916040519281849251906000905b858383106105ea57505081106105df575b8201908152030190209060ff8019835416911515161790556000604051f35b6000818401526105c0565b82820181015188840152879550909101906105af565b503461000e5760008060031936011261065e5761061b610cc6565b80546001600160a01b031981168255816001600160a01b0360405192167f8be0079c531659141344cd1fd0a4f28419497f9722a3daafe3b4186f6b6457e08284a3f35b80fd5b50634e487b7160e01b600052603260045260246000fd5b60039081548110156106b2575b81600052027fc2575a0e9e593c00f959f8c92f12db2869c3395a3b0502d05e2516446f71f85b0190600090565b6106ba610661565b610685565b503461000e57602036600319011261000e5760043560035481101561000e576106e960a091610678565b508054906002600182015491015490604051926001600160a01b038116845265ffffffffffff81861c16602085015260d01c604084015260608301526080820152f35b503461000e57600036600319011261000e5760206001600160a01b0360025416604051908152f35b503461000e57600036600319011261000e5760206001600160a01b0360005416604051908152f35b503461000e57606036600319011261000e57610796610120565b65ffffffffffff602435818116929183820361000e577f15c2d2647680bb2008b9c7ebba268afb710b03da5b18d7e39cf399b7e081770f93610461916107fd604435926430b236b4b760d91b60206040516107f08161014d565b6005815201524210610d1e565b610851826108196103e36103e36002546001600160a01b031690565b6040516370a0823160e01b815230600482015290602090829060249082905afa908115610911575b6000916108e3575b501015610d86565b42169261089961085f610198565b6001600160a01b038716815265ffffffffffff8616602082015265ffffffffffff8316604082015283606082015260006080820152610de9565b6108a4600354610eaf565b936040519586958691936001600160a01b036080949297969560a0850198855216602084015265ffffffffffff80921660408401521660608201520152565b610904915060203d811161090a575b6108fc8183610176565b810190610d6a565b38610849565b503d6108f2565b610919610d79565b610841565b503461000e57602036600319011261000e57602061093d60043561147b565b604051908152f35b600590600454811015610981575b6004600052027f8a35acfbc15ff81a39ae7d344fd709f28e8600b4aa8c65c6b64bfe7fe36bd19b0190600090565b610989610661565b610953565b503461000e57602036600319011261000e5760043560045481101561000e576109b690610945565b508054600182015460028301546003840154600490940154604080516001600160a01b039095168552602085019390935265ffffffffffff80831693850193909352603082901c83166060808601919091529190911c909116608083015260a082019290925260c081019190915260e090f35b503461000e5760408060031936011261000e576000907f8fa1b1e2223dcdbb644ad66a5181f5667692fc6c202efb5c90eae671dc569f1e600435602435610ba4610a7283610678565b509160026001600160a01b038454610a8e428260d01c11610ee3565b88516370a0823160e01b8152336004820152602096929190911690610ace9085908881602481875afa908115610bf1575b8d91610bd4575b501015610f1d565b88516323b872dd60e01b815233600482015230602482015260448101859052908690829060649082908e905af18015610bc7575b610baa575b5001610b14828254610f81565b9055610b6665ffffffffffff42169385610b2c6101b8565b3381529182015265ffffffffffff8516888201526060810189905265ffffffffffff851660808201528260a08201528860c0820152610f99565b610b71600454610eaf565b8651908152336020820152604081019490945265ffffffffffff90921660608401526080830191909152819060a0820190565b0390a151f35b610bc090863d881161048d5761047e8183610176565b5038610b07565b610bcf610d79565b610b02565b610beb9150893d8b1161090a576108fc8183610176565b38610ac6565b610bf9610d79565b610abf565b503461000e57602036600319011261000e57610c18610120565b610c20610cc6565b6001600160a01b03809116908115610c7257600091825491816001600160a01b0319841617845560405192167f8be0079c531659141344cd1fd0a4f28419497f9722a3daafe3b4186f6b6457e08484a3f35b60405162461bcd60e51b815260206004820152602660248201527f4f776e61626c653a206e6577206f776e657220697320746865207a65726f206160448201526564647265737360d01b6064820152608490fd5b6001600160a01b03600054163303610cda57565b606460405162461bcd60e51b815260206004820152602060248201527f4f776e61626c653a2063616c6c6572206973206e6f7420746865206f776e65726044820152fd5b15610d2557565b60405162461bcd60e51b815260206004820152601060248201527f496e76616c696420656e642074696d65000000000000000000000000000000006044820152606490fd5b9081602091031261000e575190565b506040513d6000823e3d90fd5b15610d8d57565b60405162461bcd60e51b815260206004820152601b60248201527f4e6f7420656e6f756768206c697175696469747920737570706c7900000000006044820152606490fd5b50634e487b7160e01b600052600060045260246000fd5b60026080610e1160035468010000000000000000811015610e8b575b60018101600355610678565b939093610e7e575b8051602082015160408301516001600160a01b0390921660a09190911b65ffffffffffff60a01b161760d09190911b7fffffffffffff000000000000000000000000000000000000000000000000000016178455606081015160018501550151910155565b610e86610dd2565b610e19565b610e93610136565b610e05565b50634e487b7160e01b600052601160045260246000fd5b60018110610ebf575b6000190190565b610ec7610e98565b610eb8565b818110610ed7570390565b610edf610e98565b0390565b15610eea57565b60405162461bcd60e51b815260206004820152600b60248201526a11985c9b4818db1bdcd95960aa1b6044820152606490fd5b15610f2457565b60405162461bcd60e51b815260206004820152601d60248201527f496e73756666696369656e74206c7020746f6b656e2062616c616e63650000006044820152606490fd5b9081602091031261000e5751610f7e81610539565b90565b81198111610f8d570190565b610f95610e98565b0190565b600460c0610fbf8254680100000000000000008110156110a4575b600181018455610945565b939093611097575b8051845473ffffffffffffffffffffffffffffffffffffffff19166001600160a01b0391909116178455602081015160018501556110866002850165ffffffffffff60408401511665ffffffffffff1982541617815561105d611033606085015165ffffffffffff1690565b82546bffffffffffff000000000000191660309190911b6bffffffffffff00000000000016178255565b6080830151815465ffffffffffff60601b191660609190911b65ffffffffffff60601b16179055565b60a081015160038501550151910155565b61109f610dd2565b610fc7565b6110ac610136565b610fb4565b156110b857565b60405162461bcd60e51b815260206004820152601060248201527f416c726561647920756e7374616b6564000000000000000000000000000000006044820152606490fd5b1561110457565b60405162461bcd60e51b815260206004820152601d60248201527f496e73756666696369656e74206c697175696469747920737570706c790000006044820152606490fd5b61115281610945565b50906111616001830154610678565b509161116c8261147b565b9283611179575b50505050565b61128f7f47b0878030426a9511b1cd915a0ac34bd29f33d4f846616b55847303ff8ebcbe946111b66103e36103e36002546001600160a01b031690565b6040516370a0823160e01b81523060048201526020948593926001926111fc918591908790829060249082905afa908115611304575b6000916112e7575b5010156110fd565b01611208828254610ecc565b9055600485019461121a828754610f81565b865560028101805465ffffffffffff60601b19164260601b65ffffffffffff60601b1617905561125b6103ef6103e36103e36002546001600160a01b031690565b600060405180968195829463a9059cbb60e01b845260048401602090939291936001600160a01b0360408201951681520152565b03925af180156112da575b6112bc575b50505460408051928352602083019190915290a138808080611173565b816112d292903d1061048d5761047e8183610176565b50388061129f565b6112e2610d79565b61129a565b6112fe9150873d891161090a576108fc8183610176565b386111f4565b61130c610d79565b6111ec565b9060405160e0810181811067ffffffffffffffff8211176113ae575b60405260c0600482946001600160a01b0381541684526001810154602085015261139d600282015465ffffffffffff90611374828216604089019065ffffffffffff169052565b65ffffffffffff603082901c831616606088015260601c16608086019065ffffffffffff169052565b600381015460a08501520154910152565b6113b6610136565b61132d565b9060405160a0810181811067ffffffffffffffff821117611418575b60405260806002829480546001600160a01b038116855265ffffffffffff8160a01c16602086015260d01c6040850152600181015460608501520154910152565b611420610136565b6113d7565b65ffffffffffff9182169116818110610ed7570390565b806000190482118115151661144f570290565b611457610e98565b0290565b8115611465570490565b634e487b7160e01b600052601260045260246000fd5b61148761148d91610945565b50611311565b65ffffffffffff806114a8606084015165ffffffffffff1690565b166115755761156161155683611514602061154861153b6115306114da6114d485610f7e9c0151610678565b506113bb565b9560408701996114f08b5165ffffffffffff1690565b8082164211611567575061152860a061151a8342165b608086015165ffffffffffff165b90611425565b93015160608a01519061143c565b91169061143c565b60808601519061145b565b965165ffffffffffff1690565b92015165ffffffffffff1690565b65ffffffffffff1690565b9061145b565b60a061151a61152892611506565b505060009056fea2646970667358221220e24fa61162e4b9e85056ef92526b923c87450fe891e06f030b7c22786d79d94d64736f6c634300080e0033",
  "devdoc": {
    "kind": "dev",
    "methods": {
      "owner()": {
        "details": "Returns the address of the current owner."
      },
      "renounceOwnership()": {
        "details": "Leaves the contract without owner. It will not be possible to call `onlyOwner` functions anymore. Can only be called by the current owner. NOTE: Renouncing ownership will leave the contract without an owner, thereby removing any functionality that is only available to the owner."
      },
      "transferOwnership(address)": {
        "details": "Transfers ownership of the contract to a new account (`newOwner`). Can only be called by the current owner."
      }
    },
    "version": 1
  },
  "userdoc": {
    "kind": "user",
    "methods": {},
    "version": 1
  },
  "storageLayout": {
    "storage": [
      {
        "astId": 8357,
        "contract": "contracts/staking/LiquidityPoolStaking.sol:LiquidityPoolStaking",
        "label": "_owner",
        "offset": 0,
        "slot": "0",
        "type": "t_address"
      },
      {
        "astId": 8472,
        "contract": "contracts/staking/LiquidityPoolStaking.sol:LiquidityPoolStaking",
        "label": "hasRole",
        "offset": 0,
        "slot": "1",
        "type": "t_mapping(t_address,t_mapping(t_string_memory_ptr,t_bool))"
      },
      {
        "astId": 23114,
        "contract": "contracts/staking/LiquidityPoolStaking.sol:LiquidityPoolStaking",
        "label": "nend",
        "offset": 0,
        "slot": "2",
        "type": "t_address"
      },
      {
        "astId": 23118,
        "contract": "contracts/staking/LiquidityPoolStaking.sol:LiquidityPoolStaking",
        "label": "farms",
        "offset": 0,
        "slot": "3",
        "type": "t_array(t_struct(Farm)23750_storage)dyn_storage"
      },
      {
        "astId": 23122,
        "contract": "contracts/staking/LiquidityPoolStaking.sol:LiquidityPoolStaking",
        "label": "stakes",
        "offset": 0,
        "slot": "4",
        "type": "t_array(t_struct(Stake)23765_storage)dyn_storage"
      }
    ],
    "types": {
      "t_address": {
        "encoding": "inplace",
        "label": "address",
        "numberOfBytes": "20"
      },
      "t_array(t_struct(Farm)23750_storage)dyn_storage": {
        "base": "t_struct(Farm)23750_storage",
        "encoding": "dynamic_array",
        "label": "struct ILiquidityPoolStaking.Farm[]",
        "numberOfBytes": "32"
      },
      "t_array(t_struct(Stake)23765_storage)dyn_storage": {
        "base": "t_struct(Stake)23765_storage",
        "encoding": "dynamic_array",
        "label": "struct ILiquidityPoolStaking.Stake[]",
        "numberOfBytes": "32"
      },
      "t_bool": {
        "encoding": "inplace",
        "label": "bool",
        "numberOfBytes": "1"
      },
      "t_mapping(t_address,t_mapping(t_string_memory_ptr,t_bool))": {
        "encoding": "mapping",
        "key": "t_address",
        "label": "mapping(address => mapping(string => bool))",
        "numberOfBytes": "32",
        "value": "t_mapping(t_string_memory_ptr,t_bool)"
      },
      "t_mapping(t_string_memory_ptr,t_bool)": {
        "encoding": "mapping",
        "key": "t_string_memory_ptr",
        "label": "mapping(string => bool)",
        "numberOfBytes": "32",
        "value": "t_bool"
      },
      "t_string_memory_ptr": {
        "encoding": "bytes",
        "label": "string",
        "numberOfBytes": "32"
      },
      "t_struct(Farm)23750_storage": {
        "encoding": "inplace",
        "label": "struct ILiquidityPoolStaking.Farm",
        "members": [
          {
            "astId": 23741,
            "contract": "contracts/staking/LiquidityPoolStaking.sol:LiquidityPoolStaking",
            "label": "token",
            "offset": 0,
            "slot": "0",
            "type": "t_address"
          },
          {
            "astId": 23743,
            "contract": "contracts/staking/LiquidityPoolStaking.sol:LiquidityPoolStaking",
            "label": "start",
            "offset": 20,
            "slot": "0",
            "type": "t_uint48"
          },
          {
            "astId": 23745,
            "contract": "contracts/staking/LiquidityPoolStaking.sol:LiquidityPoolStaking",
            "label": "end",
            "offset": 26,
            "slot": "0",
            "type": "t_uint48"
          },
          {
            "astId": 23747,
            "contract": "contracts/staking/LiquidityPoolStaking.sol:LiquidityPoolStaking",
            "label": "totalReward",
            "offset": 0,
            "slot": "1",
            "type": "t_uint256"
          },
          {
            "astId": 23749,
            "contract": "contracts/staking/LiquidityPoolStaking.sol:LiquidityPoolStaking",
            "label": "totalStaked",
            "offset": 0,
            "slot": "2",
            "type": "t_uint256"
          }
        ],
        "numberOfBytes": "96"
      },
      "t_struct(Stake)23765_storage": {
        "encoding": "inplace",
        "label": "struct ILiquidityPoolStaking.Stake",
        "members": [
          {
            "astId": 23752,
            "contract": "contracts/staking/LiquidityPoolStaking.sol:LiquidityPoolStaking",
            "label": "staker",
            "offset": 0,
            "slot": "0",
            "type": "t_address"
          },
          {
            "astId": 23754,
            "contract": "contracts/staking/LiquidityPoolStaking.sol:LiquidityPoolStaking",
            "label": "farmId",
            "offset": 0,
            "slot": "1",
            "type": "t_uint256"
          },
          {
            "astId": 23756,
            "contract": "contracts/staking/LiquidityPoolStaking.sol:LiquidityPoolStaking",
            "label": "start",
            "offset": 0,
            "slot": "2",
            "type": "t_uint48"
          },
          {
            "astId": 23758,
            "contract": "contracts/staking/LiquidityPoolStaking.sol:LiquidityPoolStaking",
            "label": "end",
            "offset": 6,
            "slot": "2",
            "type": "t_uint48"
          },
          {
            "astId": 23760,
            "contract": "contracts/staking/LiquidityPoolStaking.sol:LiquidityPoolStaking",
            "label": "lastClaimedAt",
            "offset": 12,
            "slot": "2",
            "type": "t_uint48"
          },
          {
            "astId": 23762,
            "contract": "contracts/staking/LiquidityPoolStaking.sol:LiquidityPoolStaking",
            "label": "amount",
            "offset": 0,
            "slot": "3",
            "type": "t_uint256"
          },
          {
            "astId": 23764,
            "contract": "contracts/staking/LiquidityPoolStaking.sol:LiquidityPoolStaking",
            "label": "rewardClaimed",
            "offset": 0,
            "slot": "4",
            "type": "t_uint256"
          }
        ],
        "numberOfBytes": "160"
      },
      "t_uint256": {
        "encoding": "inplace",
        "label": "uint256",
        "numberOfBytes": "32"
      },
      "t_uint48": {
        "encoding": "inplace",
        "label": "uint48",
        "numberOfBytes": "6"
      }
    }
  }
}