{
  "address": "0xA20137659466c89A785Cb9E4435D444f0ee7946A",
  "abi": [
    {
      "inputs": [
        {
          "internalType": "address",
          "name": "_periFiAdminAddr",
          "type": "address"
        },
        {
          "internalType": "address",
          "name": "_loanRepaymentAddr",
          "type": "address"
        }
      ],
      "stateMutability": "nonpayable",
      "type": "constructor"
    },
    {
      "inputs": [
        {
          "internalType": "uint256",
          "name": "auctionId",
          "type": "uint256"
        },
        {
          "internalType": "enum AuctionStatus",
          "name": "status",
          "type": "uint8"
        }
      ],
      "name": "AuctionInvalidStatus",
      "type": "error"
    },
    {
      "inputs": [],
      "name": "AuctionNotRegistered",
      "type": "error"
    },
    {
      "inputs": [],
      "name": "CollateralOwnershipNotTransferred",
      "type": "error"
    },
    {
      "inputs": [],
      "name": "IncompleteStepDownConfig",
      "type": "error"
    },
    {
      "inputs": [],
      "name": "InexactFraction",
      "type": "error"
    },
    {
      "inputs": [
        {
          "internalType": "uint256",
          "name": "startAmount",
          "type": "uint256"
        },
        {
          "internalType": "uint256",
          "name": "endAmount",
          "type": "uint256"
        }
      ],
      "name": "InvalidPriceRange",
      "type": "error"
    },
    {
      "inputs": [],
      "name": "InvalidStepDownConfig",
      "type": "error"
    },
    {
      "inputs": [
        {
          "internalType": "uint256",
          "name": "startTime",
          "type": "uint256"
        },
        {
          "internalType": "uint256",
          "name": "endTime",
          "type": "uint256"
        }
      ],
      "name": "InvalidTimeRange",
      "type": "error"
    },
    {
      "inputs": [],
      "name": "NotAuthorized",
      "type": "error"
    },
    {
      "inputs": [],
      "name": "ProtectionNotOver",
      "type": "error"
    },
    {
      "inputs": [],
      "name": "ProtectionOver",
      "type": "error"
    },
    {
      "inputs": [],
      "name": "StepDownConfigAndAuctionTimeMismatch",
      "type": "error"
    },
    {
      "inputs": [],
      "name": "StepDownConfigOverflow",
      "type": "error"
    },
    {
      "anonymous": false,
      "inputs": [
        {
          "indexed": true,
          "internalType": "uint256",
          "name": "auctionId",
          "type": "uint256"
        },
        {
          "indexed": false,
          "internalType": "uint256",
          "name": "loanId",
          "type": "uint256"
        },
        {
          "indexed": false,
          "internalType": "address",
          "name": "tokenAddr",
          "type": "address"
        },
        {
          "indexed": false,
          "internalType": "address",
          "name": "paymentToken",
          "type": "address"
        },
        {
          "indexed": false,
          "internalType": "address",
          "name": "loanBorrower",
          "type": "address"
        },
        {
          "indexed": false,
          "internalType": "uint256",
          "name": "tokenId",
          "type": "uint256"
        },
        {
          "indexed": false,
          "internalType": "uint256",
          "name": "startAmount",
          "type": "uint256"
        },
        {
          "indexed": false,
          "internalType": "uint256",
          "name": "endAmount",
          "type": "uint256"
        },
        {
          "indexed": false,
          "internalType": "uint256",
          "name": "startTime",
          "type": "uint256"
        },
        {
          "indexed": false,
          "internalType": "uint256",
          "name": "endTime",
          "type": "uint256"
        },
        {
          "indexed": false,
          "internalType": "uint256",
          "name": "protectedUntil",
          "type": "uint256"
        },
        {
          "indexed": false,
          "internalType": "uint256",
          "name": "loanRepaymentAmount",
          "type": "uint256"
        },
        {
          "indexed": false,
          "internalType": "bytes",
          "name": "stepDownConfig",
          "type": "bytes"
        }
      ],
      "name": "LoanAuctionBegun",
      "type": "event"
    },
    {
      "anonymous": false,
      "inputs": [
        {
          "indexed": true,
          "internalType": "uint256",
          "name": "auctionId",
          "type": "uint256"
        },
        {
          "indexed": false,
          "internalType": "address",
          "name": "borrower",
          "type": "address"
        },
        {
          "indexed": false,
          "internalType": "uint256",
          "name": "payout",
          "type": "uint256"
        }
      ],
      "name": "LoanAuctionCancelledByPayout",
      "type": "event"
    },
    {
      "anonymous": false,
      "inputs": [
        {
          "indexed": true,
          "internalType": "uint256",
          "name": "auctionId",
          "type": "uint256"
        },
        {
          "indexed": false,
          "internalType": "address",
          "name": "bidder",
          "type": "address"
        },
        {
          "indexed": false,
          "internalType": "address",
          "name": "borrower",
          "type": "address"
        },
        {
          "indexed": false,
          "internalType": "uint256",
          "name": "bidAmount",
          "type": "uint256"
        }
      ],
      "name": "LoanAuctionSoldAndProtected",
      "type": "event"
    },
    {
      "anonymous": false,
      "inputs": [
        {
          "indexed": true,
          "internalType": "uint256",
          "name": "auctionId",
          "type": "uint256"
        },
        {
          "indexed": false,
          "internalType": "address",
          "name": "bidder",
          "type": "address"
        },
        {
          "indexed": false,
          "internalType": "uint256",
          "name": "bidAmount",
          "type": "uint256"
        }
      ],
      "name": "LoanAuctionSoldToBidder",
      "type": "event"
    },
    {
      "anonymous": false,
      "inputs": [
        {
          "indexed": true,
          "internalType": "address",
          "name": "previousOwner",
          "type": "address"
        },
        {
          "indexed": true,
          "internalType": "address",
          "name": "newOwner",
          "type": "address"
        }
      ],
      "name": "OwnershipTransferred",
      "type": "event"
    },
    {
      "inputs": [],
      "name": "auctionCount",
      "outputs": [
        {
          "internalType": "uint256",
          "name": "",
          "type": "uint256"
        }
      ],
      "stateMutability": "view",
      "type": "function"
    },
    {
      "inputs": [
        {
          "internalType": "uint256",
          "name": "",
          "type": "uint256"
        }
      ],
      "name": "auctions",
      "outputs": [
        {
          "internalType": "uint256",
          "name": "id",
          "type": "uint256"
        },
        {
          "internalType": "uint256",
          "name": "protectedUntil",
          "type": "uint256"
        },
        {
          "components": [
            {
              "internalType": "uint256",
              "name": "loanId",
              "type": "uint256"
            },
            {
              "internalType": "address",
              "name": "tokenAddress",
              "type": "address"
            },
            {
              "internalType": "address",
              "name": "paymentToken",
              "type": "address"
            },
            {
              "internalType": "uint256",
              "name": "tokenId",
              "type": "uint256"
            },
            {
              "internalType": "uint256",
              "name": "startAmount",
              "type": "uint256"
            },
            {
              "internalType": "uint256",
              "name": "endAmount",
              "type": "uint256"
            },
            {
              "internalType": "uint256",
              "name": "startTime",
              "type": "uint256"
            },
            {
              "internalType": "uint256",
              "name": "endTime",
              "type": "uint256"
            },
            {
              "internalType": "bytes",
              "name": "stepDownConfig",
              "type": "bytes"
            },
            {
              "internalType": "address",
              "name": "loanBorrower",
              "type": "address"
            },
            {
              "internalType": "uint256",
              "name": "loanAmount",
              "type": "uint256"
            },
            {
              "internalType": "uint256",
              "name": "loanRepaymentAmount",
              "type": "uint256"
            },
            {
              "internalType": "address",
              "name": "lender",
              "type": "address"
            },
            {
              "internalType": "bool",
              "name": "isProtected",
              "type": "bool"
            }
          ],
          "internalType": "struct AuctionParameters",
          "name": "parameters",
          "type": "tuple"
        }
      ],
      "stateMutability": "view",
      "type": "function"
    },
    {
      "inputs": [
        {
          "components": [
            {
              "internalType": "uint256",
              "name": "loanId",
              "type": "uint256"
            },
            {
              "internalType": "address",
              "name": "tokenAddress",
              "type": "address"
            },
            {
              "internalType": "address",
              "name": "paymentToken",
              "type": "address"
            },
            {
              "internalType": "uint256",
              "name": "tokenId",
              "type": "uint256"
            },
            {
              "internalType": "uint256",
              "name": "startAmount",
              "type": "uint256"
            },
            {
              "internalType": "uint256",
              "name": "endAmount",
              "type": "uint256"
            },
            {
              "internalType": "uint256",
              "name": "startTime",
              "type": "uint256"
            },
            {
              "internalType": "uint256",
              "name": "endTime",
              "type": "uint256"
            },
            {
              "internalType": "bytes",
              "name": "stepDownConfig",
              "type": "bytes"
            },
            {
              "internalType": "address",
              "name": "loanBorrower",
              "type": "address"
            },
            {
              "internalType": "uint256",
              "name": "loanAmount",
              "type": "uint256"
            },
            {
              "internalType": "uint256",
              "name": "loanRepaymentAmount",
              "type": "uint256"
            },
            {
              "internalType": "address",
              "name": "lender",
              "type": "address"
            },
            {
              "internalType": "bool",
              "name": "isProtected",
              "type": "bool"
            }
          ],
          "internalType": "struct AuctionParameters",
          "name": "params",
          "type": "tuple"
        }
      ],
      "name": "beginAuction",
      "outputs": [],
      "stateMutability": "nonpayable",
      "type": "function"
    },
    {
      "inputs": [
        {
          "internalType": "uint256",
          "name": "",
          "type": "uint256"
        }
      ],
      "name": "bidAmounts",
      "outputs": [
        {
          "internalType": "uint256",
          "name": "",
          "type": "uint256"
        }
      ],
      "stateMutability": "view",
      "type": "function"
    },
    {
      "inputs": [
        {
          "internalType": "uint256",
          "name": "",
          "type": "uint256"
        }
      ],
      "name": "bidders",
      "outputs": [
        {
          "internalType": "address",
          "name": "",
          "type": "address"
        }
      ],
      "stateMutability": "view",
      "type": "function"
    },
    {
      "inputs": [
        {
          "internalType": "uint256",
          "name": "auctionId",
          "type": "uint256"
        }
      ],
      "name": "claim",
      "outputs": [],
      "stateMutability": "nonpayable",
      "type": "function"
    },
    {
      "inputs": [
        {
          "internalType": "uint256",
          "name": "auctionId",
          "type": "uint256"
        }
      ],
      "name": "currentBidPrice",
      "outputs": [
        {
          "internalType": "uint256",
          "name": "amount",
          "type": "uint256"
        }
      ],
      "stateMutability": "view",
      "type": "function"
    },
    {
      "inputs": [
        {
          "internalType": "uint256",
          "name": "auctionId",
          "type": "uint256"
        }
      ],
      "name": "currentDebt",
      "outputs": [
        {
          "internalType": "uint256",
          "name": "debt",
          "type": "uint256"
        }
      ],
      "stateMutability": "view",
      "type": "function"
    },
    {
      "inputs": [],
      "name": "loanRepaymentAddr",
      "outputs": [
        {
          "internalType": "address",
          "name": "",
          "type": "address"
        }
      ],
      "stateMutability": "view",
      "type": "function"
    },
    {
      "inputs": [
        {
          "internalType": "uint256",
          "name": "auctionId",
          "type": "uint256"
        }
      ],
      "name": "makeBid",
      "outputs": [
        {
          "internalType": "bool",
          "name": "completed",
          "type": "bool"
        }
      ],
      "stateMutability": "nonpayable",
      "type": "function"
    },
    {
      "inputs": [],
      "name": "owner",
      "outputs": [
        {
          "internalType": "address",
          "name": "",
          "type": "address"
        }
      ],
      "stateMutability": "view",
      "type": "function"
    },
    {
      "inputs": [
        {
          "internalType": "uint256",
          "name": "auctionId",
          "type": "uint256"
        }
      ],
      "name": "payout",
      "outputs": [],
      "stateMutability": "nonpayable",
      "type": "function"
    },
    {
      "inputs": [],
      "name": "periFiAdminAddr",
      "outputs": [
        {
          "internalType": "address",
          "name": "",
          "type": "address"
        }
      ],
      "stateMutability": "view",
      "type": "function"
    },
    {
      "inputs": [],
      "name": "renounceOwnership",
      "outputs": [],
      "stateMutability": "nonpayable",
      "type": "function"
    },
    {
      "inputs": [
        {
          "internalType": "uint256",
          "name": "",
          "type": "uint256"
        }
      ],
      "name": "status",
      "outputs": [
        {
          "internalType": "enum AuctionStatus",
          "name": "",
          "type": "uint8"
        }
      ],
      "stateMutability": "view",
      "type": "function"
    },
    {
      "inputs": [
        {
          "internalType": "address",
          "name": "newOwner",
          "type": "address"
        }
      ],
      "name": "transferOwnership",
      "outputs": [],
      "stateMutability": "nonpayable",
      "type": "function"
    }
  ],
  "transactionHash": "0x1c833dabb34dc1fc7046c98522da389d35d86cc051dc7dedff10dec5cb0775bf",
  "args": [
    "0x96027820200a4b9Cc3c278345531957fc0923B49",
    "0xE1BD31a576597e88E340Ad7978798837DE62036A"
  ],
  "numDeployments": 1,
  "solcInputHash": "91942d0bfd6efcf2f85da000c34c69e0",
  "bytecode": "0x6080346200007657601f62002ee638819003918201601f19168301916001600160401b038311848410176200007b5780849260409485528339810103126200007657806200005f602062000057620000669462000091565b920162000091565b90620000a6565b604051612dba90816200012c8239f35b600080fd5b634e487b7160e01b600052604160045260246000fd5b51906001600160a01b03821682036200007657565b600080546001600160a01b0319808216732f358b80ed2d296c09560d2b9f70a7f81d57e352908117845560405191956001600160a01b0395909486949193918516917f8be0079c531659141344cd1fd0a4f28419497f9722a3daafe3b4186f6b6457e09190a3600180556000600255168360075416176007551690600854161760085556fe60806040526004361015610013575b600080fd5b60003560e01c8063175b2304146101535780632ad715731461014a578063379607f51461014157806342d21ef714610138578063571a26a01461012f578063715018a6146101265780638da5cb5b1461011d578063a754807a14610114578063b8b9e2941461010b578063bcb2966714610102578063c18c2775146100f9578063cb0fc56d146100f0578063cff29dfd146100e7578063d0f7146d146100de578063e1152343146100d55763f2fde38b146100cd57600080fd5b61000e611825565b5061000e6112c6565b5061000e61129e565b5061000e611268565b5061000e611249565b5061000e611221565b5061000e6111fa565b5061000e610e58565b5061000e610e2b565b5061000e610e03565b5061000e610da2565b5061000e610c6e565b5061000e610945565b5061000e6101be565b5061000e61019f565b503461000e57602036600319011261000e5761017460026001541415611949565b60026001556020610186600435612179565b600180556040519015158152f35b600091031261000e57565b503461000e57600036600319011261000e576020600254604051908152f35b503461000e57602036600319011261000e576101df60026001541415611949565b600260015560026102066101ff6004356000526004602052604060002090565b5460ff1690565b61020f81610918565b036108dc5761023261022d6004356000526003602052604060002090565b611f06565b6020604082015191015142106108ca5761026861025c61025c60208401516001600160a01b031690565b6001600160a01b031690565b606082015190803b1561000e576040516323b872dd60e01b815230600482015233602482015260448101929092526000908290606490829084905af180156108bd575b6108a4575b506102d76102ca6004356000526004602052604060002090565b805460ff19166003179055565b6102ed6004356000526005602052604060002090565b54600461031561030882356000526006602052604060002090565b546001600160a01b031690565b9261032e61025c61025c6008546001600160a01b031690565b8151906000610160840151610140850151936103946103586101808801516001600160a01b031690565b604051968794859463b0a89bd960e01b86528b860192936001600160a01b03919594606093608086019786526020860152604085015216910152565b0381845afa918215610897575b60009261086f575b5060209060405194858092629cbddd60e11b82525afa928315610862575b600093610831575b506103e761025c60408401516001600160a01b031690565b6040516370a0823160e01b81526001600160a01b0385166004820152909385929091602081806024810103816001600160a01b038a165afa908115610824575b6000916107f5575b50815160005b818110610575575b5050505050917feaa5e39b43e701893bc019e42337b913a8c5cdce162a87d5a36b0f75c4bfd0d5939183610499946104a7575b5050506040519182916004359583602090939291936001600160a01b0360408201951681520152565b0390a26104a560018055565b005b610521926104e5610120602094016104d8846104ca83516001600160a01b031690565b306104d361206a565b612d2a565b516001600160a01b031690565b60006001600160a01b0360405180978196829563a9059cbb60e01b845260048401602090939291936001600160a01b0360408201951681520152565b0393165af18015610568575b610539575b8080610470565b61055a9060203d602011610561575b6105528183610a26565b810190611f54565b5038610532565b503d610548565b610570611b20565b61052d565b61057f8185612048565b5193602085015187610774575b85516001600160a01b03166001600160a01b0381166001600160a01b0389161461076657818610156106d357505050505091610499959391837feaa5e39b43e701893bc019e42337b913a8c5cdce162a87d5a36b0f75c4bfd0d59896946105fb575b849698508395975061043d565b61068f928261062483610617602096516001600160a01b031690565b61061f612136565b612cbd565b60006001600160a01b0361065361064560408b01516001600160a01b031690565b93516001600160a01b031690565b60405163276d76f960e21b81526001600160a01b0394851660048201529316602484015260448301949094529094859384929183906064820190565b0393165af180156106c6575b6106a7575b80806105ee565b6106bf9060203d602011610561576105528183610a26565b50386106a0565b6106ce611b20565b61069b565b946107156020838a61072c96989a60008f61065361064560406107329d9f93610707896001600160a01b039661061f6120fd565b01516001600160a01b031690565b0393165af18015610759575b61073a575b506120a3565b92612021565b929092610435565b6107529060203d602011610561576105528183610a26565b5038610726565b610761611b20565b610721565b505091935061073290612021565b898189939910156107c45750906107bb916107a38261079a89516001600160a01b031690565b306104d36120ba565b6107156020838d6104e58b516001600160a01b031690565b9560009661058c565b916107156020836107ef956104e58b6104d86107329a9f9b9d6104ca8691516001600160a01b031690565b95612021565b610817915060203d60201161081d575b61080f8183610a26565b810190611b6a565b3861042f565b503d610805565b61082c611b20565b610427565b61085491935060203d60201161085b575b61084c8183610a26565b810190611b0b565b91386103cf565b503d610842565b61086a611b20565b6103c7565b6020919250610890903d806000833e6108888183610a26565b810190611f69565b91906103a9565b61089f611b20565b6103a1565b806108b16108b7926109cd565b80610194565b386102b0565b6108c5611b20565b6102ab565b604051632ab4e4b960e21b8152600490fd5b6109146108f86101ff6004356000526004602052604060002090565b604051635430ca1760e01b815291829160048035908401611ef0565b0390fd5b6005111561092257565b634e487b7160e01b600052602160045260246000fd5b9060058210156109225752565b503461000e57602036600319011261000e576004356000526004602052602060ff6040600020541661097a6040518092610938565bf35b90600182811c921680156109ac575b602083101461099657565b634e487b7160e01b600052602260045260246000fd5b91607f169161098b565b50634e487b7160e01b600052604160045260246000fd5b67ffffffffffffffff81116109e157604052565b6109e96109b6565b604052565b6040810190811067ffffffffffffffff8211176109e157604052565b6060810190811067ffffffffffffffff8211176109e157604052565b90601f8019910116810190811067ffffffffffffffff8211176109e157604052565b9060405191826000825492610a5c8461097c565b908184526001948581169081600014610acb5750600114610a88575b5050610a8692500383610a26565b565b9093915060005260209081600020936000915b818310610ab3575050610a8693508201013880610a78565b85548884018501529485019487945091830191610a9b565b9550505050505060ff19166020830152610a8682604081013880610a78565b604051906101c0820182811067ffffffffffffffff8211176109e157604052565b60405190610a8682610a0a565b90610a8660ff600c610b28610aea565b9480548652610b54610b4460018301546001600160a01b031690565b6001600160a01b03166020880152565b610b7b610b6b60028301546001600160a01b031690565b6001600160a01b03166040880152565b6003810154606087015260048101546080870152600581015460a0870152600681015460c0870152600781015460e0870152610bb960088201610a48565b610100870152610be7610bd660098301546001600160a01b031690565b6001600160a01b0316610120880152565b600a810154610140870152600b81015461016087015201546001600160a01b03811661018086015260a01c1615156101a0840152565b91908251928382526000905b848210610c56575092806020939411610c49575b601f01601f1916010190565b6000838284010152610c3d565b90602090818082850101519082860101520190610c29565b503461000e57602036600319011261000e57600435600052600360205260406000208054610ca3600260018401549301610b18565b604051928392835260208301526060604083015280516060830152610cd8602082015160808401906001600160a01b03169052565b60408101516001600160a01b031660a0830152606081015160c0830152608081015160e0830152610d9e60a0820151610100908185015260c0830151926101209384860152610d9260e0820151926101409384880152820151926101c0610d4c6101609582878b01526102208a0190610c1d565b9684015191610d6961018093848b01906001600160a01b03169052565b840151946101a095868a0152840151908801528201516101e08701906001600160a01b03169052565b01511515610200840152565b0390f35b503461000e57600080600319360112610e0057610dbd6118f1565b80546001600160a01b031981168255816001600160a01b0360405192167f8be0079c531659141344cd1fd0a4f28419497f9722a3daafe3b4186f6b6457e08284a3f35b80fd5b503461000e57600036600319011261000e5760206001600160a01b0360005416604051908152f35b503461000e57602036600319011261000e5760043560005260056020526020604060002054604051908152f35b503461000e5760031960203682011261000e5767ffffffffffffffff6004351161000e576101c0906004353603011261000e57610e936118f1565b610ea260026001541415611949565b6002600155600254610eb2610b0b565b9080825260006020830152610ecc36600435600401611a1d565b6040830152610ee561025c61025c602460043501611b01565b6040516331a9108f60e11b815260048035606401359082015290602090829081806024810103915afa9081156111ed575b6000916111ce575b506001600160a01b03309116036111bc5760a460043501356084600435013511156111935760e4600435013560c46004350135101561116a5760e4600435013542101561116a5781610fac610fb192610f8261010460043501600435600401611b2d565b9050611130575b610f986101a460043501611b60565b61109f576000526003602052604060002090565b611ce9565b610fd7610fca6002546000526004602052604060002090565b805460ff19166001179055565b610fea610fe5600254611b90565b600255565b7f9646b4a182fb1ac357dcde11fd0f02336fff19d5cd9177879d352d0fe85ba81981519161101c602460043501611b01565b61049961102d604460043501611b01565b92602061103f61012460043501611b01565b91015161105761010460043501600435600401611b2d565b92909160405196879661016460043501359360e460043501359260c460043501359260a4600435013592608460043501359260646004350135928d6004356004013590611e70565b6110ef600460206110be61025c61025c6007546001600160a01b031690565b60405163cf4e00cf60e01b815292839182905afa908115611123575b600091611104575b5060c46004350135611bac565b60208401526000526003602052604060002090565b61111d915060203d60201161081d5761080f8183610a26565b386110e2565b61112b611b20565b6110da565b61116561115261114b61010460043501600435600401611b2d565b3691611995565b60e4600435013560c46004350135612b02565b610f89565b604051630e781b2360e31b815260c460048035918201359083015260e401356024820152604490fd5b6040516347cc0ae160e01b8152608460048035918201359083015260a401356024820152604490fd5b6040516355a5813d60e11b8152600490fd5b6111e7915060203d60201161085b5761084c8183610a26565b38610f1e565b6111f5611b20565b610f16565b503461000e57602036600319011261000e5760206112196004356128e8565b604051908152f35b503461000e57600036600319011261000e5760206001600160a01b0360075416604051908152f35b503461000e57602036600319011261000e5760206112196004356129c9565b503461000e57602036600319011261000e57600435600052600660205260206001600160a01b0360406000205416604051908152f35b503461000e57600036600319011261000e5760206001600160a01b0360085416604051908152f35b503461000e5760208060031936011261000e5760049081356112ed60026001541415611949565b60026001556113096101ff826000526004602052604060002090565b9261131384610918565b6001841415806117f5575b6117da5761133961022d836000526003602052604060002090565b92604093848101519061135a61025c6101208401516001600160a01b031690565b33036117ca5782015142116117ba57610160810195865190600260009161138081610918565b14611621575b61138f91611bac565b956113a961025c61025c858501516001600160a01b031690565b606083015192813b1561000e5787516323b872dd60e01b80825230828901908152336020820152604081019690965294899360009183919082908490829060600103925af18015611614575b611601575b50600061141561025c61025c6008546001600160a01b031690565b8251945190610140840151958961147661143a6101808801516001600160a01b031690565b8851998a968795869563b0a89bd960e01b8752860192936001600160a01b03919594606093608086019786526020860152604085015216910152565b03915afa9283156115f4575b6000936115cf575b5001519093906114a2906001600160a01b031661025c565b908451946001600160a01b0360009316925b86811061152e57600089897fd9778e84173ed82dd2bb850ad64fd44439124d54c442898c74f70496d817590d61151f8e6115086114fb856000526004602052604060002090565b805460ff19166004179055565b845133815260208101919091529081906040820190565b0390a261152b60018055565b51f35b80611587876115406115a09486612048565b518161155382516001600160a01b031690565b9101518d518a8152338982019081526001600160a01b03909316602084015260408301919091529283918291606090910190565b038160008a5af180156115c2575b6115a5575b50612021565b6114b4565b6115bb90883d8a11610561576105528183610a26565b503861159a565b6115ca611b20565b611595565b916115eb6114a29361025c93953d8091833e6108888183610a26565b9391509161148a565b6115fc611b20565b611482565b806108b161160e926109cd565b386113fa565b61161c611b20565b6113f5565b50611636856000526005602052604060002090565b5490611641826128b3565b6064900490858589860194898b83878951611662906001600160a01b031690565b6001600160a01b03166001600160a01b0316611688856000526006602052604060002090565b5484516323b872dd60e01b815233998101998a526001600160a01b0390911660208a0152604089019290925290968791908290036060019082905a90600091f18b81156103086116fe61025c61025c61138f9e61173f9c60009861170f976117ad575b611790575b50516001600160a01b031690565b956000526006602052604060002090565b92519687958694859363a9059cbb60e01b85528401602090939291936001600160a01b0360408201951681520152565b03925af18015611783575b611766575b506000878152600560205260408120559150611386565b61177c90863d8811610561576105528183610a26565b503861174f565b61178b611b20565b61174a565b6117a6908d803d10610561576105528183610a26565b50386116f0565b6117b5611b20565b6116eb565b8451639ae4be8360e01b81528390fd5b855163ea8e4eb560e01b81528490fd5b61091484604051938493635430ca1760e01b85528401611ef0565b506117ff84610918565b600284141561131e565b6001600160a01b0381160361000e57565b3590610a8682611809565b503461000e57602036600319011261000e5760043561184381611809565b61184b6118f1565b6001600160a01b0380911690811561189d57600091825491816001600160a01b0319841617845560405192167f8be0079c531659141344cd1fd0a4f28419497f9722a3daafe3b4186f6b6457e08484a3f35b60405162461bcd60e51b815260206004820152602660248201527f4f776e61626c653a206e6577206f776e657220697320746865207a65726f206160448201526564647265737360d01b6064820152608490fd5b6001600160a01b0360005416330361190557565b606460405162461bcd60e51b815260206004820152602060248201527f4f776e61626c653a2063616c6c6572206973206e6f7420746865206f776e65726044820152fd5b1561195057565b60405162461bcd60e51b815260206004820152601f60248201527f5265656e7472616e637947756172643a207265656e7472616e742063616c6c006044820152606490fd5b92919267ffffffffffffffff82116119dd575b604051916119c0601f8201601f191660200184610a26565b82948184528183011161000e578281602093846000960137010152565b6119e56109b6565b6119a8565b9080601f8301121561000e57816020611a0593359101611995565b90565b8015150361000e57565b3590610a8682611a08565b9190916101c08184031261000e57611a33610aea565b9281358452611a446020830161181a565b6020850152611a556040830161181a565b6040850152606082013560608501526080820135608085015260a082013560a085015260c082013560c085015260e082013560e085015261010090818301359067ffffffffffffffff821161000e57611aaf9184016119ea565b90840152610120611ac181830161181a565b9084015261014080820135908401526101608082013590840152610180611ae981830161181a565b90840152611afb6101a0809201611a12565b90830152565b35611a0581611809565b9081602091031261000e5751611a0581611809565b506040513d6000823e3d90fd5b903590601e198136030182121561000e570180359067ffffffffffffffff821161000e5760200191813603831361000e57565b35611a0581611a08565b9081602091031261000e575190565b50634e487b7160e01b600052601160045260246000fd5b6001906001198111611ba0570190565b611ba8611b79565b0190565b81198111611ba0570190565b90601f8111611bc657505050565b600091825260208220906020601f850160051c83019410611c02575b601f0160051c01915b828110611bf757505050565b818155600101611beb565b9092508290611be2565b919091825167ffffffffffffffff8111611cdc575b611c3581611c2f845461097c565b84611bb8565b602080601f8311600114611c71575081929394600092611c66575b50508160011b916000199060031b1c1916179055565b015190503880611c50565b90601f19831695611c8785600052602060002090565b926000905b888210611cc457505083600195969710611cab575b505050811b019055565b015160001960f88460031b161c19169055388080611ca1565b80600185968294968601518155019501930190611c8c565b611ce46109b6565b611c21565b611e566101a0600e6040610a8695805186556020810151600187015501519384516002820155611d45611d2660208701516001600160a01b031690565b60038301906001600160a01b03166001600160a01b0319825416179055565b611d7b611d5c60408701516001600160a01b031690565b60048301906001600160a01b03166001600160a01b0319825416179055565b606085015160058201556080850151600682015560a0850151600782015560c0850151600882015560e08501516009820155611dbf610100860151600a8301611c0c565b611df6611dd76101208701516001600160a01b031690565b600b8301906001600160a01b03166001600160a01b0319825416179055565b610140850151600c820155610160850151600d8201550192611e4f611e266101808301516001600160a01b031690565b855473ffffffffffffffffffffffffffffffffffffffff19166001600160a01b03909116178555565b0151151590565b815460ff60a01b191690151560a01b60ff60a01b16179055565b9b9c9a999897969594939190926020938d528c6001600160a01b0394858094169101521660408c01521660608a0152608089015260a088015260c087015260e08601526101008501526101208401526101408301528061018080610160850152830152806101a093848401376000828201840152601f01601f1916010190565b908152604081019291610a869160200190610938565b906040516060810181811067ffffffffffffffff821117611f47575b6040526040611f4260028395805485526001810154602086015201610b18565b910152565b611f4f6109b6565b611f22565b9081602091031261000e5751611a0581611a08565b6020808284031261000e57815167ffffffffffffffff9283821161000e57019083601f8301121561000e578151928311612014575b604092835194611fb3838360051b0187610a26565b818652828087019260061b8501019381851161000e578301915b848310611fdd5750505050505090565b858383031261000e578386918251611ff4816109ee565b8551611fff81611809565b81528286015183820152815201920191611fcd565b61201c6109b6565b611f9e565b6001906000198114611ba0570190565b50634e487b7160e01b600052603260045260246000fd5b602091815181101561205d575b60051b010190565b612065612031565b612055565b60405190612077826109ee565b601982527f73656e64696e672066726f6d20257320746f2025732c202573000000000000006020830152565b8181106120ae570390565b6120b6611b79565b0390565b604051906120c782610a0a565b60218252607360f81b6040837f73656e64696e67207061727469616c2066726f6d20257320746f2025732c202560208201520152565b6040519061210a826109ee565b601982527f73656e64696e672066726f6d20495620746f2025732c202573000000000000006020830152565b6040519061214382610a0a565b60218252607360f81b6040837f73656e64696e67207061727469616c2066726f6d20495620746f2025732c202560208201520152565b9060016121936101ff846000526004602052604060002090565b61219c81610918565b0361287e576121aa826129c9565b916121c261022d826000526003602052604060002090565b9260206040850151940151421061272f576121ed61025c61025c60208701516001600160a01b031690565b606085015190803b1561000e576040516323b872dd60e01b815230600482015233602482015260448101929092526000908290606490829084905af18015612722575b61270f575b5061224e61025c61025c6008546001600160a01b031690565b938051946000610160830151610140840151976122b66122796101808701516001600160a01b031690565b6040519a8b94859463b0a89bd960e01b86526004860192936001600160a01b03919594606093608086019786526020860152604085015216910152565b0381845afa958615612702575b6000966126dd575b5090602060049260405193848092629cbddd60e11b82525afa9182156126d0575b6000926126af575b5061230c61025c60408301516001600160a01b031690565b6040516370a0823160e01b81526001600160a01b038416600482015290928491602081806024810103816001600160a01b0389165afa9081156126a2575b600091612683575b50885160005b81811061247e575b505050506123cb95965084936102ca95937feaa5e39b43e701893bc019e42337b913a8c5cdce162a87d5a36b0f75c4bfd0d593836123b8946123d0575b50506040805133815260208101939093529192839283019150565b0390a26000526004602052604060002090565b600190565b61243a926123fc610120602094016104d8846123f383516001600160a01b031690565b336104d361206a565b6040516323b872dd60e01b81523360048201526001600160a01b03918216602482015260448101939093529193849283916000919083906064820190565b0393165af18015612471575b612452575b808061239d565b61246a9060203d602011610561576105528183610a26565b503861244b565b612479611b20565b612446565b612488818c612048565b519a60208c015186612610575b8c516001600160a01b03166001600160a01b0381166001600160a01b038816146126025781861015612576575050505050937feaa5e39b43e701893bc019e42337b913a8c5cdce162a87d5a36b0f75c4bfd0d5936123b8938897936123cb9a9b886102ca9b99612516575b505050938a995083975082969850819550612360565b612532928261062483610617602096516001600160a01b031690565b0393165af18015612569575b61254a575b8080612500565b6125629060203d602011610561576105528183610a26565b5038612543565b612571611b20565b61253e565b9481602061072c94969f6125a861259a60408e610707876125fa9c9e61061f6120fd565b91516001600160a01b031690565b60405163276d76f960e21b81526001600160a01b039283166004820152911660248201526044810192909252818060648101038160006001600160a01b038d165af180156107595761073a57506120a3565b999099612358565b5050919a506125fa90612021565b80879297101561265257906126499161071560208f8c6123fc826104d8886126408196516001600160a01b031690565b336104d36120ba565b94600095612495565b61267d9161071560206125fa9599969f8c6123fc826104d8886123f38196516001600160a01b031690565b94612021565b61269c915060203d60201161081d5761080f8183610a26565b38612352565b6126aa611b20565b61234a565b6126c991925060203d60201161085b5761084c8183610a26565b90386122f4565b6126d8611b20565b6122ec565b6004929196506126f96020913d806000833e6108888183610a26565b969192506122cb565b61270a611b20565b6122c3565b806108b161271c926109cd565b38612235565b61272a611b20565b612230565b61282b6101208561277361025c61025c60407f3005fc6b3bb46c08e0cf129dca16ec43a82367c23823eddfdfbb7a1c41f4c35b98999a01516001600160a01b031690565b6040516323b872dd60e01b81523360048201523060248201526044810186905290602090829060649082906000905af18015612871575b612852575b506127e3336127c8886000526006602052604060002090565b906001600160a01b03166001600160a01b0319825416179055565b6128076127fa876000526004602052604060002090565b805460ff19166002179055565b8361281c876000526005602052604060002090565b5501516001600160a01b031690565b604080513381526001600160a01b03929092166020830152810191909152606090a2600090565b61286a9060203d602011610561576105528183610a26565b50386127af565b612879611b20565b6127aa565b506128966101ff826000526004602052604060002090565b604051635430ca1760e01b81529182916109149160048401611ef0565b60059080600019048211811515166128c9570290565b6128d1611b79565b0290565b80600019048211811515166128c9570290565b6128ff6101ff826000526004602052604060002090565b61290881610918565b6001811415806129b5575b6129ae57604061293061022d846000526003602052604060002090565b01519161294b61025c6101208501516001600160a01b031690565b33036129a657610160611a0593015190600260009361296981610918565b14612975575b50611bac565b61299f919250612992612998916000526005602052604060002090565b546128b3565b6064900490565b903861296f565b505050600090565b5050600090565b506129bf81610918565b6002811415612913565b60016129e26101ff836000526004602052604060002090565b6129eb81610918565b03612a5557612a0961022d6040926000526003602052604060002090565b015161010081019081515115612a3557611a059160808201519160c060a0820151910151915192612c09565b611a05915060808101519060a081015160e060c083015192015192612a5b565b50600090565b9092838203612a6a5750505090565b92612a8e612a9492612a8885600196970396420391828803906128d5565b926128d5565b90611bac565b91600019830104019015150290565b906020918051821015612ab557010190565b612abd612031565b010190565b60ff6001911660ff8114611ba0570190565b62ffffff809116806201518092048211811515166128c9570290565b60ff6002911660fd8111611ba0570190565b90825115612bf75760008093805190825b828410612b7f575b5050505090612b29916120a3565b612b5d612b44612b58612b52612b4c612b4460ff8816612ad4565b62ffffff1690565b95612af0565b60ff1690565b612ad4565b91811115612b6d571015612b6d57565b604051633176730d60e21b8152600490fd5b60ff969293969081612bc3612bbd612b978b87612aa3565b517fff000000000000000000000000000000000000000000000000000000000000001690565b60f81c90565b16918214612bee57612bdb612be792612be192611bac565b93612ac2565b96612021565b9291612b13565b50829650612b1b565b60405163431abebf60e01b8152600490fd5b92909192828103612c1b575050905090565b60009162015180839542030481519084925b828410612c57575b5050505091612a8e82612a88600195612c51612a9496896120a3565b906128d5565b9091929660ff9081612c6f612bbd612b978c87612aa3565b16918214612cb657838910612c9a575b612c9291612c8c91611bac565b97612021565b929190612c2d565b9581612cac612c9293612c8c93611bac565b9791509150612c7f565b9750612c35565b612d0f90612cf592610a86946001600160a01b036040519586946307c8121760e01b6020870152606060248701526084860190610c1d565b92166044840152606483015203601f198101835282610a26565b600080916020815191016a636f6e736f6c652e6c6f675afa50565b612d5a92610a8694612d0f93604051958694636eb7943d60e01b60208701526080602487015260a4860190610c1d565b6001600160a01b03918216604486015292166064840152608483015203601f198101835282610a2656fea264697066735822122047d4c8d0fba1a9e5804e6552369e1d872c6d0d9c9639a57baac38ea1497a061364736f6c634300080e0033",
  "devdoc": {
    "errors": {
      "InexactFraction()": [
        {
          "details": "Revert with an error when attempting to apply a fraction as part of      a partial fill that does not divide the target amount cleanly."
        }
      ]
    },
    "kind": "dev",
    "methods": {
      "owner()": {
        "details": "Returns the address of the current owner."
      },
      "renounceOwnership()": {
        "details": "Leaves the contract without owner. It will not be possible to call `onlyOwner` functions anymore. Can only be called by the current owner. NOTE: Renouncing ownership will leave the contract without an owner, thereby removing any functionality that is only available to the owner."
      },
      "transferOwnership(address)": {
        "details": "Transfers ownership of the contract to a new account (`newOwner`). Can only be called by the current owner."
      }
    },
    "version": 1
  },
  "userdoc": {
    "kind": "user",
    "methods": {},
    "version": 1
  },
  "storageLayout": {
    "storage": [
      {
        "astId": 8357,
        "contract": "contracts/loan/LoanAuction.sol:LoanAuction",
        "label": "_owner",
        "offset": 0,
        "slot": "0",
        "type": "t_address"
      },
      {
        "astId": 4007,
        "contract": "contracts/loan/LoanAuction.sol:LoanAuction",
        "label": "_status",
        "offset": 0,
        "slot": "1",
        "type": "t_uint256"
      },
      {
        "astId": 18990,
        "contract": "contracts/loan/LoanAuction.sol:LoanAuction",
        "label": "auctionCount",
        "offset": 0,
        "slot": "2",
        "type": "t_uint256"
      },
      {
        "astId": 18995,
        "contract": "contracts/loan/LoanAuction.sol:LoanAuction",
        "label": "auctions",
        "offset": 0,
        "slot": "3",
        "type": "t_mapping(t_uint256,t_struct(Auction)20648_storage)"
      },
      {
        "astId": 19000,
        "contract": "contracts/loan/LoanAuction.sol:LoanAuction",
        "label": "status",
        "offset": 0,
        "slot": "4",
        "type": "t_mapping(t_uint256,t_enum(AuctionStatus)20500)"
      },
      {
        "astId": 19004,
        "contract": "contracts/loan/LoanAuction.sol:LoanAuction",
        "label": "bidAmounts",
        "offset": 0,
        "slot": "5",
        "type": "t_mapping(t_uint256,t_uint256)"
      },
      {
        "astId": 19008,
        "contract": "contracts/loan/LoanAuction.sol:LoanAuction",
        "label": "bidders",
        "offset": 0,
        "slot": "6",
        "type": "t_mapping(t_uint256,t_address)"
      },
      {
        "astId": 19010,
        "contract": "contracts/loan/LoanAuction.sol:LoanAuction",
        "label": "periFiAdminAddr",
        "offset": 0,
        "slot": "7",
        "type": "t_address"
      },
      {
        "astId": 19012,
        "contract": "contracts/loan/LoanAuction.sol:LoanAuction",
        "label": "loanRepaymentAddr",
        "offset": 0,
        "slot": "8",
        "type": "t_address"
      }
    ],
    "types": {
      "t_address": {
        "encoding": "inplace",
        "label": "address",
        "numberOfBytes": "20"
      },
      "t_bool": {
        "encoding": "inplace",
        "label": "bool",
        "numberOfBytes": "1"
      },
      "t_bytes_storage": {
        "encoding": "bytes",
        "label": "bytes",
        "numberOfBytes": "32"
      },
      "t_enum(AuctionStatus)20500": {
        "encoding": "inplace",
        "label": "enum AuctionStatus",
        "numberOfBytes": "1"
      },
      "t_mapping(t_uint256,t_address)": {
        "encoding": "mapping",
        "key": "t_uint256",
        "label": "mapping(uint256 => address)",
        "numberOfBytes": "32",
        "value": "t_address"
      },
      "t_mapping(t_uint256,t_enum(AuctionStatus)20500)": {
        "encoding": "mapping",
        "key": "t_uint256",
        "label": "mapping(uint256 => enum AuctionStatus)",
        "numberOfBytes": "32",
        "value": "t_enum(AuctionStatus)20500"
      },
      "t_mapping(t_uint256,t_struct(Auction)20648_storage)": {
        "encoding": "mapping",
        "key": "t_uint256",
        "label": "mapping(uint256 => struct Auction)",
        "numberOfBytes": "32",
        "value": "t_struct(Auction)20648_storage"
      },
      "t_mapping(t_uint256,t_uint256)": {
        "encoding": "mapping",
        "key": "t_uint256",
        "label": "mapping(uint256 => uint256)",
        "numberOfBytes": "32",
        "value": "t_uint256"
      },
      "t_struct(Auction)20648_storage": {
        "encoding": "inplace",
        "label": "struct Auction",
        "members": [
          {
            "astId": 20642,
            "contract": "contracts/loan/LoanAuction.sol:LoanAuction",
            "label": "id",
            "offset": 0,
            "slot": "0",
            "type": "t_uint256"
          },
          {
            "astId": 20644,
            "contract": "contracts/loan/LoanAuction.sol:LoanAuction",
            "label": "protectedUntil",
            "offset": 0,
            "slot": "1",
            "type": "t_uint256"
          },
          {
            "astId": 20647,
            "contract": "contracts/loan/LoanAuction.sol:LoanAuction",
            "label": "parameters",
            "offset": 0,
            "slot": "2",
            "type": "t_struct(AuctionParameters)20632_storage"
          }
        ],
        "numberOfBytes": "480"
      },
      "t_struct(AuctionParameters)20632_storage": {
        "encoding": "inplace",
        "label": "struct AuctionParameters",
        "members": [
          {
            "astId": 20605,
            "contract": "contracts/loan/LoanAuction.sol:LoanAuction",
            "label": "loanId",
            "offset": 0,
            "slot": "0",
            "type": "t_uint256"
          },
          {
            "astId": 20607,
            "contract": "contracts/loan/LoanAuction.sol:LoanAuction",
            "label": "tokenAddress",
            "offset": 0,
            "slot": "1",
            "type": "t_address"
          },
          {
            "astId": 20609,
            "contract": "contracts/loan/LoanAuction.sol:LoanAuction",
            "label": "paymentToken",
            "offset": 0,
            "slot": "2",
            "type": "t_address"
          },
          {
            "astId": 20611,
            "contract": "contracts/loan/LoanAuction.sol:LoanAuction",
            "label": "tokenId",
            "offset": 0,
            "slot": "3",
            "type": "t_uint256"
          },
          {
            "astId": 20613,
            "contract": "contracts/loan/LoanAuction.sol:LoanAuction",
            "label": "startAmount",
            "offset": 0,
            "slot": "4",
            "type": "t_uint256"
          },
          {
            "astId": 20615,
            "contract": "contracts/loan/LoanAuction.sol:LoanAuction",
            "label": "endAmount",
            "offset": 0,
            "slot": "5",
            "type": "t_uint256"
          },
          {
            "astId": 20617,
            "contract": "contracts/loan/LoanAuction.sol:LoanAuction",
            "label": "startTime",
            "offset": 0,
            "slot": "6",
            "type": "t_uint256"
          },
          {
            "astId": 20619,
            "contract": "contracts/loan/LoanAuction.sol:LoanAuction",
            "label": "endTime",
            "offset": 0,
            "slot": "7",
            "type": "t_uint256"
          },
          {
            "astId": 20621,
            "contract": "contracts/loan/LoanAuction.sol:LoanAuction",
            "label": "stepDownConfig",
            "offset": 0,
            "slot": "8",
            "type": "t_bytes_storage"
          },
          {
            "astId": 20623,
            "contract": "contracts/loan/LoanAuction.sol:LoanAuction",
            "label": "loanBorrower",
            "offset": 0,
            "slot": "9",
            "type": "t_address"
          },
          {
            "astId": 20625,
            "contract": "contracts/loan/LoanAuction.sol:LoanAuction",
            "label": "loanAmount",
            "offset": 0,
            "slot": "10",
            "type": "t_uint256"
          },
          {
            "astId": 20627,
            "contract": "contracts/loan/LoanAuction.sol:LoanAuction",
            "label": "loanRepaymentAmount",
            "offset": 0,
            "slot": "11",
            "type": "t_uint256"
          },
          {
            "astId": 20629,
            "contract": "contracts/loan/LoanAuction.sol:LoanAuction",
            "label": "lender",
            "offset": 0,
            "slot": "12",
            "type": "t_address"
          },
          {
            "astId": 20631,
            "contract": "contracts/loan/LoanAuction.sol:LoanAuction",
            "label": "isProtected",
            "offset": 20,
            "slot": "12",
            "type": "t_bool"
          }
        ],
        "numberOfBytes": "416"
      },
      "t_uint256": {
        "encoding": "inplace",
        "label": "uint256",
        "numberOfBytes": "32"
      }
    }
  }
}