{
  "address": "0xE1BD31a576597e88E340Ad7978798837DE62036A",
  "abi": [
    {
      "inputs": [
        {
          "internalType": "address",
          "name": "_insuranceVaultAddress",
          "type": "address"
        },
        {
          "internalType": "address",
          "name": "_lendingPoolAddress",
          "type": "address"
        },
        {
          "internalType": "address",
          "name": "_masterWalletAddress",
          "type": "address"
        },
        {
          "internalType": "address",
          "name": "_periFiAdminAddress",
          "type": "address"
        },
        {
          "internalType": "address",
          "name": "_curationRewardPoolAddress",
          "type": "address"
        }
      ],
      "stateMutability": "nonpayable",
      "type": "constructor"
    },
    {
      "inputs": [],
      "name": "curationRewardPoolAddress",
      "outputs": [
        {
          "internalType": "address",
          "name": "",
          "type": "address"
        }
      ],
      "stateMutability": "view",
      "type": "function"
    },
    {
      "inputs": [
        {
          "internalType": "uint256",
          "name": "loanId",
          "type": "uint256"
        },
        {
          "internalType": "uint256",
          "name": "repaymentAmount",
          "type": "uint256"
        },
        {
          "internalType": "uint256",
          "name": "loanAmount",
          "type": "uint256"
        },
        {
          "internalType": "address",
          "name": "lender",
          "type": "address"
        }
      ],
      "name": "getDestinations",
      "outputs": [
        {
          "components": [
            {
              "internalType": "address",
              "name": "targetAddress",
              "type": "address"
            },
            {
              "internalType": "uint256",
              "name": "value",
              "type": "uint256"
            }
          ],
          "internalType": "struct Repayment[]",
          "name": "results",
          "type": "tuple[]"
        }
      ],
      "stateMutability": "view",
      "type": "function"
    },
    {
      "inputs": [],
      "name": "insuranceVaultAddress",
      "outputs": [
        {
          "internalType": "address",
          "name": "",
          "type": "address"
        }
      ],
      "stateMutability": "view",
      "type": "function"
    },
    {
      "inputs": [],
      "name": "lendingPoolAddress",
      "outputs": [
        {
          "internalType": "address",
          "name": "",
          "type": "address"
        }
      ],
      "stateMutability": "view",
      "type": "function"
    },
    {
      "inputs": [],
      "name": "masterWalletAddress",
      "outputs": [
        {
          "internalType": "address",
          "name": "",
          "type": "address"
        }
      ],
      "stateMutability": "view",
      "type": "function"
    },
    {
      "inputs": [],
      "name": "periFiAdminAddress",
      "outputs": [
        {
          "internalType": "address",
          "name": "",
          "type": "address"
        }
      ],
      "stateMutability": "view",
      "type": "function"
    }
  ],
  "transactionHash": "0x49c56401c0498f140ccf71a756288cec49b5f3f7970a07ecad765695eccadd78",
  "args": [
    "0xb7aD8a9410129EF1BC45Ea6b04b249a0255B8be2",
    "0x4BA4f6B089A151a7B5F738caCdBFE055d0336821",
    "0x2F358B80eD2d296C09560d2b9F70a7f81d57e352",
    "0x96027820200a4b9Cc3c278345531957fc0923B49",
    "0x8fcaFF5942F4A1AdC99B989217946f986dcEa35f"
  ],
  "numDeployments": 1,
  "solcInputHash": "e9e52d8b489d05c93082115b02ac6c59",
  "bytecode": "0x6080346100d857601f610e7238819003918201601f19168301916001600160401b038311848410176100dd5780849260a0946040528339810103126100d8578061004b6100c9926100f3565b90610058602082016100f3565b610064604083016100f3565b9061007d6080610076606086016100f3565b94016100f3565b919260018060a01b0380948180948160018060a01b0319991689600054161760005516876001541617600155168560025416176002551683600354161760035516906004541617600455565b604051610d6a90816101088239f35b600080fd5b634e487b7160e01b600052604160045260246000fd5b51906001600160a01b03821682036100d85756fe608080604052600436101561001357600080fd5b6000803560e01c91826301397bba14610090575050806313113df01461008757806380d249901461007e5780638341e13c14610075578063b0a89bd91461006c5763d3ae26b314610064575b600080fd5b61005f61028a565b5061005f6101d9565b5061005f610186565b5061005f610133565b5061005f6100e0565b346100dc57817ffffffffffffffffffffffffffffffffffffffffffffffffffffffffffffffffc3601126100dc5773ffffffffffffffffffffffffffffffffffffffff60209254168152f35b5080fd5b503461005f5760007ffffffffffffffffffffffffffffffffffffffffffffffffffffffffffffffffc36011261005f57602073ffffffffffffffffffffffffffffffffffffffff60025416604051908152f35b503461005f5760007ffffffffffffffffffffffffffffffffffffffffffffffffffffffffffffffffc36011261005f57602073ffffffffffffffffffffffffffffffffffffffff60035416604051908152f35b503461005f5760007ffffffffffffffffffffffffffffffffffffffffffffffffffffffffffffffffc36011261005f57602073ffffffffffffffffffffffffffffffffffffffff60045416604051908152f35b503461005f5760807ffffffffffffffffffffffffffffffffffffffffffffffffffffffffffffffffc36011261005f5773ffffffffffffffffffffffffffffffffffffffff606435818116810361005f5761023c90604435602435600435610673565b6040908151916020808401908085528351809252808386019401926000905b8382106102685786860387f35b845180518916875283015186840152948501949382019360019091019061025b565b503461005f5760007ffffffffffffffffffffffffffffffffffffffffffffffffffffffffffffffffc36011261005f57602073ffffffffffffffffffffffffffffffffffffffff60015416604051908152f35b507f4e487b7100000000000000000000000000000000000000000000000000000000600052601160045260246000fd5b818110610318570390565b6103206102dd565b0390565b507f4e487b7100000000000000000000000000000000000000000000000000000000600052604160045260246000fd5b6040810190811067ffffffffffffffff82111761037057604052565b610378610324565b604052565b90601f7fffffffffffffffffffffffffffffffffffffffffffffffffffffffffffffffe0910116810190811067ffffffffffffffff82111761037057604052565b9081602091031261005f575190565b506040513d6000823e3d90fd5b604051906103e782610354565b565b6040908151916060830183811067ffffffffffffffff821117610441575b815260028352826000805b83811061041f5750505050565b602090845161042d81610354565b838152828481830152828601015201610412565b610449610324565b610407565b60409081519161045d83610354565b600183528291600091825b6020808210156104945782516020929161048182610354565b8682528681830152828901015201610468565b50505091925050565b60409081519160c0830183811067ffffffffffffffff8211176104f6575b815260058352826000805b60a081106104d45750505050565b60209084516104e281610354565b8381528284818301528286010152016104c6565b6104fe610324565b6104bb565b6040908151916080830183811067ffffffffffffffff82111761055c575b815260038352826000805b6060811061053a5750505050565b602090845161054881610354565b83815282848183015282860101520161052c565b610564610324565b610521565b8051156105765760200190565b7f4e487b7100000000000000000000000000000000000000000000000000000000600052603260045260246000fd5b8051600110156105765760400190565b8051600210156105765760600190565b8051600310156105765760800190565b8051600410156105765760a00190565b807fffffffffffffffffffffffffffffffffffffffffffffffffffffffffffffffff04821181151516610616570290565b61061e6102dd565b0290565b811561062c570490565b7f4e487b7100000000000000000000000000000000000000000000000000000000600052601260045260246000fd5b81198111610667570190565b61066f6102dd565b0190565b91939290846106819161030d565b916106a160015473ffffffffffffffffffffffffffffffffffffffff1690565b9173ffffffffffffffffffffffffffffffffffffffff9384841690604051907f34c23b5c0000000000000000000000000000000000000000000000000000000082526020968783806106fb89600483019190602083019252565b0381875afa928315610bda575b600093610bbb575b508115610b02576107476107418461073b6107348e61072f84896105e5565b610622565b809661030d565b9c61030d565b9a610be7565b989195909785156000146108435750505050505061076d90610767610503565b9761065b565b6107946107786103da565b73ffffffffffffffffffffffffffffffffffffffff9093168352565b848201526107a186610569565b526107ab85610569565b5060025473ffffffffffffffffffffffffffffffffffffffff16906107d16107786103da565b838201526107de856105a5565b526107e8846105a5565b5060045473ffffffffffffffffffffffffffffffffffffffff169161082a61080e6103da565b73ffffffffffffffffffffffffffffffffffffffff9094168452565b820152610836836105b5565b52610840826105b5565b50565b91846108ce8c6109a2989f948161099d989761089461087b9b9e9d9b60035473ffffffffffffffffffffffffffffffffffffffff1690565b73ffffffffffffffffffffffffffffffffffffffff1690565b9260405180809781947f79d35e02000000000000000000000000000000000000000000000000000000008352600483019190602083019252565b03915afa928315610af5575b600093610ad6575b506004604051809881937f5f1286b0000000000000000000000000000000000000000000000000000000008352165afa948515610ac9575b8d600096610a7a575b505061095661094761094f6109476109759561094161096796610cc0565b906105e5565b612710900490565b968c6105e5565b996109618b8761065b565b9061030d565b61096f61049d565b9e61065b565b6109806107786103da565b8b82015261098d8d610569565b526109978c610569565b5061065b565b61065b565b6109ad6107786103da565b858201526109ba876105a5565b526109c4866105a5565b5060005473ffffffffffffffffffffffffffffffffffffffff16906109ea6107786103da565b848201526109f7866105b5565b52610a01856105b5565b5060025473ffffffffffffffffffffffffffffffffffffffff1690610a276107786103da565b83820152610a34856105c5565b52610a3e846105c5565b5060045473ffffffffffffffffffffffffffffffffffffffff1691610a6461080e6103da565b820152610a70836105d5565b52610840826105d5565b61096792965061094f61094761097595610941610ab3610956968661094797903d10610ac2575b610aab818361037d565b8101906103be565b9a96505095505050508d610923565b503d610aa1565b610ad16103cd565b61091a565b610aee919350823d8411610ac257610aab818361037d565b91386108e2565b610afd6103cd565b6108da565b505091949596939250508015600014610b45575050610b1f61044e565b92610b2b61080e6103da565b820152610b3782610569565b52610b4181610569565b5090565b610b99919492610b536103e9565b95610b7b610b5f6103da565b73ffffffffffffffffffffffffffffffffffffffff9092168252565b8285820152610b8987610569565b52610b9386610569565b5061030d565b90610ba561080e6103da565b820152610bb1826105a5565b52610b41816105a5565b610bd3919350883d8a11610ac257610aab818361037d565b9138610710565b610be26103cd565b610708565b6004602073ffffffffffffffffffffffffffffffffffffffff60035416604051928380927fe6f199c80000000000000000000000000000000000000000000000000000000082525afa908115610cb3575b600091610c95575b5060648110610c8d575b610c5761271091836105e5565b046064820490818110610c80575b81810392818110610c74570392565b610c7c6102dd565b0392565b610c886102dd565b610c65565b506064610c4a565b610cad915060203d8111610ac257610aab818361037d565b38610c40565b610cbb6103cd565b610c38565b6107d08111610cd0575061157c90565b610bb88111610ce0575061138890565b6113888111610cf0575061119490565b6117708111610d005750610fa090565b611b588111610d105750610dac90565b611f408111610d2057506109c490565b61232810610d2e576105dc90565b6101f49056fea2646970667358221220c9668226367f01b2fc897644818bc371684943b83853bda06a9de850ef76dde964736f6c634300080e0033"
}