{
  "address": "0x48193D5ef1cc30fEe0adfb0A603a3aE062307511",
  "abi": [
    {
      "inputs": [
        {
          "internalType": "address",
          "name": "_periFiAdminAddr",
          "type": "address"
        },
        {
          "internalType": "address",
          "name": "_loanRepaymentAddr",
          "type": "address"
        },
        {
          "internalType": "address",
          "name": "_auctionAddr",
          "type": "address"
        },
        {
          "internalType": "address",
          "name": "_trustDeedAddr",
          "type": "address"
        }
      ],
      "stateMutability": "nonpayable",
      "type": "constructor"
    },
    {
      "anonymous": false,
      "inputs": [
        {
          "indexed": true,
          "internalType": "address",
          "name": "owner",
          "type": "address"
        },
        {
          "indexed": true,
          "internalType": "address",
          "name": "approved",
          "type": "address"
        },
        {
          "indexed": true,
          "internalType": "uint256",
          "name": "tokenId",
          "type": "uint256"
        }
      ],
      "name": "Approval",
      "type": "event"
    },
    {
      "anonymous": false,
      "inputs": [
        {
          "indexed": true,
          "internalType": "address",
          "name": "owner",
          "type": "address"
        },
        {
          "indexed": true,
          "internalType": "address",
          "name": "operator",
          "type": "address"
        },
        {
          "indexed": false,
          "internalType": "bool",
          "name": "approved",
          "type": "bool"
        }
      ],
      "name": "ApprovalForAll",
      "type": "event"
    },
    {
      "anonymous": false,
      "inputs": [
        {
          "indexed": false,
          "internalType": "uint256",
          "name": "loanIndex",
          "type": "uint256"
        },
        {
          "indexed": false,
          "internalType": "address",
          "name": "borrower",
          "type": "address"
        },
        {
          "indexed": false,
          "internalType": "address",
          "name": "lender",
          "type": "address"
        },
        {
          "indexed": false,
          "internalType": "uint256",
          "name": "loanAmount",
          "type": "uint256"
        },
        {
          "indexed": false,
          "internalType": "uint256",
          "name": "tokenId",
          "type": "uint256"
        },
        {
          "indexed": false,
          "internalType": "uint256",
          "name": "loanMaturityDate",
          "type": "uint256"
        },
        {
          "indexed": false,
          "internalType": "uint256",
          "name": "loanLiquidationDate",
          "type": "uint256"
        },
        {
          "indexed": false,
          "internalType": "address",
          "name": "tokenAddress",
          "type": "address"
        },
        {
          "indexed": false,
          "internalType": "enum LiquidationTrigger",
          "name": "trigger",
          "type": "uint8"
        },
        {
          "indexed": false,
          "internalType": "enum LiquidationMethod",
          "name": "method",
          "type": "uint8"
        }
      ],
      "name": "LoanLiquidated",
      "type": "event"
    },
    {
      "anonymous": false,
      "inputs": [
        {
          "indexed": false,
          "internalType": "uint256",
          "name": "loanIndex",
          "type": "uint256"
        },
        {
          "indexed": false,
          "internalType": "address",
          "name": "borrower",
          "type": "address"
        },
        {
          "indexed": false,
          "internalType": "address",
          "name": "lender",
          "type": "address"
        },
        {
          "indexed": false,
          "internalType": "uint256",
          "name": "loanAmount",
          "type": "uint256"
        },
        {
          "indexed": false,
          "internalType": "uint256",
          "name": "tokenId",
          "type": "uint256"
        },
        {
          "indexed": false,
          "internalType": "uint256",
          "name": "amountPaidToLender",
          "type": "uint256"
        },
        {
          "indexed": false,
          "internalType": "uint256",
          "name": "interestForIV",
          "type": "uint256"
        },
        {
          "indexed": false,
          "internalType": "address",
          "name": "tokenAddress",
          "type": "address"
        },
        {
          "indexed": false,
          "internalType": "address",
          "name": "paymentToken",
          "type": "address"
        }
      ],
      "name": "LoanRepaid",
      "type": "event"
    },
    {
      "anonymous": false,
      "inputs": [
        {
          "indexed": false,
          "internalType": "uint256",
          "name": "loanIndex",
          "type": "uint256"
        },
        {
          "indexed": false,
          "internalType": "address",
          "name": "borrower",
          "type": "address"
        },
        {
          "indexed": false,
          "internalType": "address",
          "name": "lender",
          "type": "address"
        },
        {
          "indexed": false,
          "internalType": "uint256",
          "name": "loanAmount",
          "type": "uint256"
        },
        {
          "indexed": false,
          "internalType": "uint256",
          "name": "loanLeveragedAmount",
          "type": "uint256"
        },
        {
          "indexed": false,
          "internalType": "uint256",
          "name": "repaymentAmount",
          "type": "uint256"
        },
        {
          "indexed": false,
          "internalType": "uint256",
          "name": "tokenId",
          "type": "uint256"
        },
        {
          "indexed": false,
          "internalType": "uint256",
          "name": "loanStartTime",
          "type": "uint256"
        },
        {
          "indexed": false,
          "internalType": "uint256",
          "name": "loanDuration",
          "type": "uint256"
        },
        {
          "indexed": false,
          "internalType": "address",
          "name": "tokenAddress",
          "type": "address"
        },
        {
          "indexed": false,
          "internalType": "address",
          "name": "paymentToken",
          "type": "address"
        },
        {
          "indexed": false,
          "internalType": "bool",
          "name": "liquidateViaAuction",
          "type": "bool"
        }
      ],
      "name": "LoanStarted",
      "type": "event"
    },
    {
      "anonymous": false,
      "inputs": [
        {
          "indexed": false,
          "internalType": "uint256",
          "name": "loanIndex",
          "type": "uint256"
        }
      ],
      "name": "LoanTrustDeedIssued",
      "type": "event"
    },
    {
      "anonymous": false,
      "inputs": [
        {
          "indexed": true,
          "internalType": "address",
          "name": "previousOwner",
          "type": "address"
        },
        {
          "indexed": true,
          "internalType": "address",
          "name": "newOwner",
          "type": "address"
        }
      ],
      "name": "OwnershipTransferred",
      "type": "event"
    },
    {
      "anonymous": false,
      "inputs": [
        {
          "indexed": false,
          "internalType": "address",
          "name": "account",
          "type": "address"
        }
      ],
      "name": "Paused",
      "type": "event"
    },
    {
      "anonymous": false,
      "inputs": [
        {
          "indexed": true,
          "internalType": "address",
          "name": "from",
          "type": "address"
        },
        {
          "indexed": true,
          "internalType": "address",
          "name": "to",
          "type": "address"
        },
        {
          "indexed": true,
          "internalType": "uint256",
          "name": "tokenId",
          "type": "uint256"
        }
      ],
      "name": "Transfer",
      "type": "event"
    },
    {
      "anonymous": false,
      "inputs": [
        {
          "indexed": false,
          "internalType": "address",
          "name": "account",
          "type": "address"
        }
      ],
      "name": "Unpaused",
      "type": "event"
    },
    {
      "stateMutability": "payable",
      "type": "fallback"
    },
    {
      "inputs": [
        {
          "internalType": "address",
          "name": "to",
          "type": "address"
        },
        {
          "internalType": "uint256",
          "name": "tokenId",
          "type": "uint256"
        }
      ],
      "name": "approve",
      "outputs": [],
      "stateMutability": "nonpayable",
      "type": "function"
    },
    {
      "inputs": [],
      "name": "auctionAddr",
      "outputs": [
        {
          "internalType": "address",
          "name": "",
          "type": "address"
        }
      ],
      "stateMutability": "view",
      "type": "function"
    },
    {
      "inputs": [
        {
          "internalType": "address",
          "name": "owner",
          "type": "address"
        }
      ],
      "name": "balanceOf",
      "outputs": [
        {
          "internalType": "uint256",
          "name": "",
          "type": "uint256"
        }
      ],
      "stateMutability": "view",
      "type": "function"
    },
    {
      "inputs": [
        {
          "internalType": "uint256",
          "name": "_loanAmount",
          "type": "uint256"
        },
        {
          "internalType": "uint256",
          "name": "_loanLeveragedAmount",
          "type": "uint256"
        },
        {
          "internalType": "uint256",
          "name": "_repaymentAmount",
          "type": "uint256"
        },
        {
          "internalType": "uint256",
          "name": "_tokenId",
          "type": "uint256"
        },
        {
          "internalType": "uint256",
          "name": "_loanDuration",
          "type": "uint256"
        },
        {
          "internalType": "uint256",
          "name": "_interestForIVInBasisPoints",
          "type": "uint256"
        },
        {
          "internalType": "uint256[2]",
          "name": "_borrowerAndLenderNonces",
          "type": "uint256[2]"
        },
        {
          "internalType": "address",
          "name": "_tokenAddress",
          "type": "address"
        },
        {
          "internalType": "address",
          "name": "_paymentToken",
          "type": "address"
        },
        {
          "internalType": "address",
          "name": "_lender",
          "type": "address"
        },
        {
          "internalType": "bytes",
          "name": "_borrowerSignature",
          "type": "bytes"
        },
        {
          "internalType": "bytes",
          "name": "_lenderSignature",
          "type": "bytes"
        },
        {
          "internalType": "bool",
          "name": "_liquidateViaAuction",
          "type": "bool"
        }
      ],
      "name": "beginLoan",
      "outputs": [],
      "stateMutability": "nonpayable",
      "type": "function"
    },
    {
      "inputs": [
        {
          "internalType": "uint256",
          "name": "loanIndex",
          "type": "uint256"
        }
      ],
      "name": "borrower",
      "outputs": [
        {
          "internalType": "address",
          "name": "",
          "type": "address"
        }
      ],
      "stateMutability": "view",
      "type": "function"
    },
    {
      "inputs": [
        {
          "internalType": "uint256",
          "name": "_nonce",
          "type": "uint256"
        }
      ],
      "name": "cancelLoanCommitmentBeforeLoanHasBegun",
      "outputs": [],
      "stateMutability": "nonpayable",
      "type": "function"
    },
    {
      "inputs": [
        {
          "internalType": "uint256",
          "name": "_loanIndex",
          "type": "uint256"
        }
      ],
      "name": "computePriceOfLenderToPay",
      "outputs": [
        {
          "internalType": "uint256",
          "name": "",
          "type": "uint256"
        }
      ],
      "stateMutability": "view",
      "type": "function"
    },
    {
      "inputs": [
        {
          "internalType": "uint256",
          "name": "tokenId",
          "type": "uint256"
        }
      ],
      "name": "getApproved",
      "outputs": [
        {
          "internalType": "address",
          "name": "",
          "type": "address"
        }
      ],
      "stateMutability": "view",
      "type": "function"
    },
    {
      "inputs": [],
      "name": "getChainID",
      "outputs": [
        {
          "internalType": "uint256",
          "name": "",
          "type": "uint256"
        }
      ],
      "stateMutability": "view",
      "type": "function"
    },
    {
      "inputs": [
        {
          "internalType": "uint256",
          "name": "_loanIndex",
          "type": "uint256"
        }
      ],
      "name": "getPayoffAmount",
      "outputs": [
        {
          "internalType": "uint256",
          "name": "",
          "type": "uint256"
        }
      ],
      "stateMutability": "view",
      "type": "function"
    },
    {
      "inputs": [
        {
          "internalType": "address",
          "name": "_user",
          "type": "address"
        },
        {
          "internalType": "uint256",
          "name": "_nonce",
          "type": "uint256"
        }
      ],
      "name": "getWhetherNonceHasBeenUsedForUser",
      "outputs": [
        {
          "internalType": "bool",
          "name": "",
          "type": "bool"
        }
      ],
      "stateMutability": "view",
      "type": "function"
    },
    {
      "inputs": [
        {
          "internalType": "uint256",
          "name": "",
          "type": "uint256"
        }
      ],
      "name": "indexToLoan",
      "outputs": [
        {
          "internalType": "uint256",
          "name": "index",
          "type": "uint256"
        },
        {
          "internalType": "uint256",
          "name": "loanAmount",
          "type": "uint256"
        },
        {
          "internalType": "uint256",
          "name": "loanLeveragedAmount",
          "type": "uint256"
        },
        {
          "internalType": "uint256",
          "name": "repaymentAmount",
          "type": "uint256"
        },
        {
          "internalType": "uint256",
          "name": "tokenId",
          "type": "uint256"
        },
        {
          "internalType": "uint64",
          "name": "loanStartTime",
          "type": "uint64"
        },
        {
          "internalType": "uint32",
          "name": "loanDuration",
          "type": "uint32"
        },
        {
          "internalType": "uint32",
          "name": "interestForIVInBasisPoints",
          "type": "uint32"
        },
        {
          "internalType": "address",
          "name": "tokenAddress",
          "type": "address"
        },
        {
          "internalType": "address",
          "name": "paymentToken",
          "type": "address"
        },
        {
          "internalType": "address",
          "name": "borrower",
          "type": "address"
        },
        {
          "internalType": "bool",
          "name": "liquidateViaAuction",
          "type": "bool"
        }
      ],
      "stateMutability": "view",
      "type": "function"
    },
    {
      "inputs": [
        {
          "internalType": "address",
          "name": "owner",
          "type": "address"
        },
        {
          "internalType": "address",
          "name": "operator",
          "type": "address"
        }
      ],
      "name": "isApprovedForAll",
      "outputs": [
        {
          "internalType": "bool",
          "name": "",
          "type": "bool"
        }
      ],
      "stateMutability": "view",
      "type": "function"
    },
    {
      "inputs": [
        {
          "internalType": "uint256",
          "name": "_tokenId",
          "type": "uint256"
        },
        {
          "internalType": "uint256",
          "name": "_borrowerNonce",
          "type": "uint256"
        },
        {
          "internalType": "address",
          "name": "_tokenAddress",
          "type": "address"
        },
        {
          "internalType": "address",
          "name": "_borrower",
          "type": "address"
        },
        {
          "internalType": "bytes",
          "name": "_borrowerSignature",
          "type": "bytes"
        }
      ],
      "name": "isValidBorrowerSignature",
      "outputs": [
        {
          "internalType": "bool",
          "name": "",
          "type": "bool"
        }
      ],
      "stateMutability": "view",
      "type": "function"
    },
    {
      "inputs": [
        {
          "internalType": "uint256",
          "name": "_loanAmount",
          "type": "uint256"
        },
        {
          "internalType": "uint256",
          "name": "_loanLeveragedAmount",
          "type": "uint256"
        },
        {
          "internalType": "uint256",
          "name": "_repaymentAmount",
          "type": "uint256"
        },
        {
          "internalType": "uint256",
          "name": "_tokenId",
          "type": "uint256"
        },
        {
          "internalType": "uint256",
          "name": "_loanDuration",
          "type": "uint256"
        },
        {
          "internalType": "uint256",
          "name": "_adminFeeInBasisPoints",
          "type": "uint256"
        },
        {
          "internalType": "uint256",
          "name": "_lenderNonce",
          "type": "uint256"
        },
        {
          "internalType": "address",
          "name": "_tokenAddress",
          "type": "address"
        },
        {
          "internalType": "address",
          "name": "_paymentToken",
          "type": "address"
        },
        {
          "internalType": "address",
          "name": "_lender",
          "type": "address"
        },
        {
          "internalType": "bool",
          "name": "_liquidateViaAuction",
          "type": "bool"
        },
        {
          "internalType": "bytes",
          "name": "_lenderSignature",
          "type": "bytes"
        }
      ],
      "name": "isValidLenderSignature",
      "outputs": [
        {
          "internalType": "bool",
          "name": "",
          "type": "bool"
        }
      ],
      "stateMutability": "view",
      "type": "function"
    },
    {
      "inputs": [
        {
          "internalType": "uint256",
          "name": "_loanIndex",
          "type": "uint256"
        }
      ],
      "name": "issueTrustDeed",
      "outputs": [],
      "stateMutability": "nonpayable",
      "type": "function"
    },
    {
      "inputs": [
        {
          "internalType": "uint256",
          "name": "_loanIndex",
          "type": "uint256"
        }
      ],
      "name": "liquidateLowHealthFactorLoanViaAuction",
      "outputs": [],
      "stateMutability": "nonpayable",
      "type": "function"
    },
    {
      "inputs": [
        {
          "internalType": "uint256",
          "name": "_loanIndex",
          "type": "uint256"
        }
      ],
      "name": "liquidateOverdueLoan",
      "outputs": [],
      "stateMutability": "nonpayable",
      "type": "function"
    },
    {
      "inputs": [
        {
          "internalType": "uint256",
          "name": "_loanIndex",
          "type": "uint256"
        }
      ],
      "name": "liquidateOverdueLoanViaAuction",
      "outputs": [],
      "stateMutability": "nonpayable",
      "type": "function"
    },
    {
      "inputs": [
        {
          "internalType": "uint256",
          "name": "",
          "type": "uint256"
        }
      ],
      "name": "loanRepaidOrLiquidated",
      "outputs": [
        {
          "internalType": "bool",
          "name": "",
          "type": "bool"
        }
      ],
      "stateMutability": "view",
      "type": "function"
    },
    {
      "inputs": [],
      "name": "loanRepaymentAddr",
      "outputs": [
        {
          "internalType": "address",
          "name": "",
          "type": "address"
        }
      ],
      "stateMutability": "view",
      "type": "function"
    },
    {
      "inputs": [],
      "name": "maximumLoanDuration",
      "outputs": [
        {
          "internalType": "uint256",
          "name": "",
          "type": "uint256"
        }
      ],
      "stateMutability": "view",
      "type": "function"
    },
    {
      "inputs": [],
      "name": "maximumNumberOfActiveLoans",
      "outputs": [
        {
          "internalType": "uint256",
          "name": "",
          "type": "uint256"
        }
      ],
      "stateMutability": "view",
      "type": "function"
    },
    {
      "inputs": [],
      "name": "name",
      "outputs": [
        {
          "internalType": "string",
          "name": "",
          "type": "string"
        }
      ],
      "stateMutability": "view",
      "type": "function"
    },
    {
      "inputs": [],
      "name": "owner",
      "outputs": [
        {
          "internalType": "address",
          "name": "",
          "type": "address"
        }
      ],
      "stateMutability": "view",
      "type": "function"
    },
    {
      "inputs": [
        {
          "internalType": "uint256",
          "name": "tokenId",
          "type": "uint256"
        }
      ],
      "name": "ownerOf",
      "outputs": [
        {
          "internalType": "address",
          "name": "",
          "type": "address"
        }
      ],
      "stateMutability": "view",
      "type": "function"
    },
    {
      "inputs": [],
      "name": "paused",
      "outputs": [
        {
          "internalType": "bool",
          "name": "",
          "type": "bool"
        }
      ],
      "stateMutability": "view",
      "type": "function"
    },
    {
      "inputs": [
        {
          "internalType": "uint256",
          "name": "_loanIndex",
          "type": "uint256"
        }
      ],
      "name": "payBackLoan",
      "outputs": [],
      "stateMutability": "nonpayable",
      "type": "function"
    },
    {
      "inputs": [],
      "name": "periFiAdminAddr",
      "outputs": [
        {
          "internalType": "address",
          "name": "",
          "type": "address"
        }
      ],
      "stateMutability": "view",
      "type": "function"
    },
    {
      "inputs": [],
      "name": "renounceOwnership",
      "outputs": [],
      "stateMutability": "nonpayable",
      "type": "function"
    },
    {
      "inputs": [
        {
          "internalType": "address",
          "name": "from",
          "type": "address"
        },
        {
          "internalType": "address",
          "name": "to",
          "type": "address"
        },
        {
          "internalType": "uint256",
          "name": "tokenId",
          "type": "uint256"
        }
      ],
      "name": "safeTransferFrom",
      "outputs": [],
      "stateMutability": "nonpayable",
      "type": "function"
    },
    {
      "inputs": [
        {
          "internalType": "address",
          "name": "from",
          "type": "address"
        },
        {
          "internalType": "address",
          "name": "to",
          "type": "address"
        },
        {
          "internalType": "uint256",
          "name": "tokenId",
          "type": "uint256"
        },
        {
          "internalType": "bytes",
          "name": "_data",
          "type": "bytes"
        }
      ],
      "name": "safeTransferFrom",
      "outputs": [],
      "stateMutability": "nonpayable",
      "type": "function"
    },
    {
      "inputs": [
        {
          "internalType": "address",
          "name": "operator",
          "type": "address"
        },
        {
          "internalType": "bool",
          "name": "approved",
          "type": "bool"
        }
      ],
      "name": "setApprovalForAll",
      "outputs": [],
      "stateMutability": "nonpayable",
      "type": "function"
    },
    {
      "inputs": [
        {
          "internalType": "uint256",
          "name": "tokenId",
          "type": "uint256"
        },
        {
          "internalType": "string",
          "name": "uri",
          "type": "string"
        }
      ],
      "name": "setTokenURI",
      "outputs": [],
      "stateMutability": "nonpayable",
      "type": "function"
    },
    {
      "inputs": [
        {
          "internalType": "bytes4",
          "name": "interfaceId",
          "type": "bytes4"
        }
      ],
      "name": "supportsInterface",
      "outputs": [
        {
          "internalType": "bool",
          "name": "",
          "type": "bool"
        }
      ],
      "stateMutability": "view",
      "type": "function"
    },
    {
      "inputs": [],
      "name": "symbol",
      "outputs": [
        {
          "internalType": "string",
          "name": "",
          "type": "string"
        }
      ],
      "stateMutability": "view",
      "type": "function"
    },
    {
      "inputs": [
        {
          "internalType": "uint256",
          "name": "tokenId",
          "type": "uint256"
        }
      ],
      "name": "tokenURI",
      "outputs": [
        {
          "internalType": "string",
          "name": "",
          "type": "string"
        }
      ],
      "stateMutability": "view",
      "type": "function"
    },
    {
      "inputs": [],
      "name": "totalActiveLoans",
      "outputs": [
        {
          "internalType": "uint256",
          "name": "",
          "type": "uint256"
        }
      ],
      "stateMutability": "view",
      "type": "function"
    },
    {
      "inputs": [],
      "name": "totalNumLoans",
      "outputs": [
        {
          "internalType": "uint256",
          "name": "",
          "type": "uint256"
        }
      ],
      "stateMutability": "view",
      "type": "function"
    },
    {
      "inputs": [
        {
          "internalType": "address",
          "name": "from",
          "type": "address"
        },
        {
          "internalType": "address",
          "name": "to",
          "type": "address"
        },
        {
          "internalType": "uint256",
          "name": "tokenId",
          "type": "uint256"
        }
      ],
      "name": "transferFrom",
      "outputs": [],
      "stateMutability": "nonpayable",
      "type": "function"
    },
    {
      "inputs": [
        {
          "internalType": "address",
          "name": "newOwner",
          "type": "address"
        }
      ],
      "name": "transferOwnership",
      "outputs": [],
      "stateMutability": "nonpayable",
      "type": "function"
    },
    {
      "inputs": [],
      "name": "trustDeedAddr",
      "outputs": [
        {
          "internalType": "address",
          "name": "",
          "type": "address"
        }
      ],
      "stateMutability": "view",
      "type": "function"
    },
    {
      "inputs": [
        {
          "internalType": "uint256",
          "name": "_newMaximumLoanDuration",
          "type": "uint256"
        }
      ],
      "name": "updateMaximumLoanDuration",
      "outputs": [],
      "stateMutability": "nonpayable",
      "type": "function"
    },
    {
      "inputs": [
        {
          "internalType": "uint256",
          "name": "_newMaximumNumberOfActiveLoans",
          "type": "uint256"
        }
      ],
      "name": "updateMaximumNumberOfActiveLoans",
      "outputs": [],
      "stateMutability": "nonpayable",
      "type": "function"
    },
    {
      "stateMutability": "payable",
      "type": "receive"
    }
  ],
  "transactionHash": "0xaa2a69ce6e6cddec55b85670eca9d0e59ca9a5b5cf7865650964f2452991ce2f",
  "args": [
    "0x96027820200a4b9Cc3c278345531957fc0923B49",
    "0xE1BD31a576597e88E340Ad7978798837DE62036A",
    "0xA20137659466c89A785Cb9E4435D444f0ee7946A",
    "0x4c69471F682509C76Ea08aa8F5faB35E76d18B9a"
  ],
  "numDeployments": 1,
  "solcInputHash": "12c94526063dddc733204606d418c5c3",
  "bytecode": "0x608060405234620001ee576200530560808138039182620000208162000239565b938492833981010312620001ee5780620001bc62000042620001de936200025f565b6200019a62000054602085016200025f565b93620001626200007560606200006d604085016200025f565b93016200025f565b936200015c6200008462000274565b7f506572694669204c6f616e2050726f6d6973736f7279204e6f74650000000000602082015262000156620000b862000285565b936228282760e91b6020860152600054732f358b80ed2d296c09560d2b9f70a7f81d57e352908160018060a01b0382167f8be0079c531659141344cd1fd0a4f28419497f9722a3daafe3b4186f6b6457e06000604051a36001600160a81b03191617600055600180556301e91c80600255620001346064600355565b600480546001600160a01b0319166001600160a01b0392909216919091179055565b62000385565b62000489565b6200016d6000600f55565b620001786000601055565b600e80546001600160a01b0319166001600160a01b0392909216919091179055565b600d80546001600160a01b0319166001600160a01b0392909216919091179055565b600c80546001600160a01b0319166001600160a01b0392909216919091179055565b604051614d7790816200058e8239f35b600080fd5b50634e487b7160e01b600052604160045260246000fd5b60408051919082016001600160401b038111838210176200022a57604052565b62000234620001f3565b604052565b6040519190601f01601f191682016001600160401b038111838210176200022a57604052565b51906001600160a01b0382168203620001ee57565b6200027e6200020a565b90601b8252565b6200028f6200020a565b9060038252565b90600182811c92168015620002c8575b6020831014620002b257565b634e487b7160e01b600052602260045260246000fd5b91607f1691620002a6565b601f8111620002e0575050565b6000906005825260208220906020601f850160051c8301941062000321575b601f0160051c01915b8281106200031557505050565b81815560010162000308565b9092508290620002ff565b601f811162000339575050565b6000906006825260208220906020601f850160051c830194106200037a575b601f0160051c01915b8281106200036e57505050565b81815560010162000361565b909250829062000358565b80519091906001600160401b03811162000479575b620003b281620003ac60055462000296565b620002d3565b602080601f8311600114620003f15750819293600092620003e5575b50508160011b916000199060031b1c191617600555565b015190503880620003ce565b6005600052601f198316949091907f036b6384b5eca791c62761152d0c79bb0604c104a5fb6f4eb0703f3154bb3db0926000905b8782106200046057505083600195961062000446575b505050811b01600555565b015160001960f88460031b161c191690553880806200043b565b8060018596829496860151815501950193019062000425565b62000483620001f3565b6200039a565b80519091906001600160401b0381116200057d575b620004b681620004b060065462000296565b6200032c565b602080601f8311600114620004f55750819293600092620004e9575b50508160011b916000199060031b1c191617600655565b015190503880620004d2565b6006600052601f198316949091907ff652222313e28459528d920b65115c16c04f3efc82aaedc97be59f3f377c0d3f926000905b878210620005645750508360019596106200054a575b505050811b01600655565b015160001960f88460031b161c191690553880806200053f565b8060018596829496860151815501950193019062000529565b62000587620001f3565b6200049e56fe6080604052600436101561001e575b361561001957600080fd5b600080fd5b60003560e01c806284852c1461038d57806301ffc9a71461038457806306fdde031461037b578063081812fc14610372578063095ea7b3146103695780630d9476ff146103605780631320326814610357578063162094c41461034e578063192b355d14610345578063238c4dc31461033c57806323b872dd14610333578063328404b01461032a57806342842e0e1461032157806347948d921461031857806352e8698e1461030f578063564b81ef146103065780635794fefc146102fd5780635c975abb146102f45780635f89eeeb146102eb5780635fc1c87d146102e257806361851d65146102d95780636352211e146102d0578063643f6e32146102c757806365ab6a08146102be5780636c09d317146102b55780636faa8b3f146102ac57806370a08231146102a357806370c6943f1461029a578063715018a6146102915780638da5cb5b1461028857806395d89b411461027f5780639658e40514610276578063a22cb4651461026d578063b88d4fde14610264578063c18c27751461025b578063c4e3c3d214610252578063c87b56dd14610249578063d0f7146d14610240578063dc63af4114610237578063e985e9c51461022e578063eaccaf6514610225578063f2fde38b1461021c578063f4e240ff146102135763fa6a6d360361000e5761020e612367565b61000e565b5061020e612348565b5061020e61227c565b5061020e61225d565b5061020e6121f2565b5061020e6121d3565b5061020e6121ab565b5061020e612177565b5061020e61210f565b5061020e6120e7565b5061020e61208f565b5061020e611f9d565b5061020e611ea2565b5061020e611dfa565b5061020e611dd2565b5061020e611d74565b5061020e611ce5565b5061020e611c3e565b5061020e61190d565b5061020e611875565b5061020e6117c2565b5061020e6117a0565b5061020e611781565b5061020e611412565b5061020e61130a565b5061020e6111a3565b5061020e61117c565b5061020e61115d565b5061020e611141565b5061020e611119565b5061020e611081565b5061020e611039565b5061020e610fe7565b5061020e610fbd565b5061020e610db1565b5061020e610d92565b5061020e610bd5565b5061020e61094c565b5061020e61091a565b5061020e61082a565b5061020e6107bd565b5061020e6106e0565b5061020e6105f8565b5034610019576020366003190112610019576105db6105a56004356103b0612c51565b6103bf60026001541415613836565b60026001556103f16103ec6103e86103e1846000526012602052604060002090565b5460ff1690565b1590565b61404d565b7f614db18534927b3160ffb1fa66c2b36d57714bca6407428cc884b55567e9c0c461042e610429836000526011602052604060002090565b614106565b61047961045661044960a084015167ffffffffffffffff1690565b67ffffffffffffffff1690565b61047361046a60c085015163ffffffff1690565b63ffffffff1690565b906128c6565b906105926104868561238f565b916104ab61049e876000526012602052604060002090565b805460ff19166001179055565b6104be6104b9601054612862565b601055565b6101008101906104d582516001600160a01b031690565b946105006104fb608084019788516104f5600e546001600160a01b031690565b916145a6565b61434b565b610533602061050e8a614bef565b936105188b6143a3565b6105218b614b8d565b0151965193516001600160a01b031690565b9260405196879642948b89946101209691999893946000989361014088019b88526001600160a01b03968780921660208a01521660408801526060870152608086015260a085015260c08401521660e082015260016101008201520152565b0390a16000526011602052604060002090565b60086000918281558260018201558260028201558260038201558260048201558260058201558260068201558260078201550155565b6105e460018055565b005b6001600160e01b031981160361001957565b5034610019576020366003190112610019576020600435610618816105e6565b63ffffffff60e01b166380ac58cd60e01b8114908115610656575b8115610645575b506040519015158152f35b6301ffc9a760e01b1490503861063a565b635b5e139f60e01b81149150610633565b600091031261001957565b918091926000905b82821061069257501161068b575050565b6000910152565b9150806020918301518186015201829161067a565b906020916106c081518092818552858086019101610672565b601f01601f1916010190565b9060206106dd9281815201906106a7565b90565b5034610019576000806003193601126107ba57604051908060055461070481612406565b80855291600191808316908115610799575060011461073e575b61073a8561072e81870382610b30565b604051918291826106cc565b0390f35b9250600583527f036b6384b5eca791c62761152d0c79bb0604c104a5fb6f4eb0703f3154bb3db05b82841061078157505050810160200161072e8261073a61071e565b80546020858701810191909152909301928101610766565b60ff19166020870152505060408401925061072e915083905061073a61071e565b80fd5b50346100195760203660031901126100195760206107dc600435612552565b6001600160a01b0360405191168152f35b6001600160a01b0381160361001957565b610104359061080c826107ed565b565b610124359061080c826107ed565b610144359061080c826107ed565b503461001957604036600319011261001957600435610848816107ed565b6024356108548161238f565b916001600160a01b0380841680918316146108cb576105e493610881913314908115610886575b506124e0565b612a60565b6108c591506103e1906108ad33916001600160a01b0316600052600a602052604060002090565b906001600160a01b0316600052602052604060002090565b3861087b565b60405162461bcd60e51b815260206004820152602160248201527f4552433732313a20617070726f76616c20746f2063757272656e74206f776e656044820152603960f91b6064820152608490fd5b5034610019576020366003190112610019576004356000526012602052602060ff604060002054166040519015158152f35b50346100195760203660031901126100195760043561097060026001541415613836565b60026001556109926103ec6103e86103e1846000526012602052604060002090565b6001600160a01b036109ac600d546001600160a01b031690565b166109b88115156140ac565b6109fc6109f56109e96101406109db610429876000526011602052604060002090565b01516001600160a01b031690565b6001600160a01b031690565b33146141f3565b803b1561001957604051632851206560e21b8152336004820152602481018390527fa34ed617b6c9331706d4c4790e9351340ab5b321aae602ad45ce4d197771f34892610a71929091906000908290604490829084905af18015610a96575b610a7d575b506040519081529081906020820190565b0390a16105e460018055565b80610a8a610a9092610aba565b80610667565b38610a60565b610a9e612b0a565b610a5b565b50634e487b7160e01b600052604160045260246000fd5b67ffffffffffffffff8111610ace57604052565b610ad6610aa3565b604052565b6040810190811067ffffffffffffffff821117610ace57604052565b6020810190811067ffffffffffffffff821117610ace57604052565b610160810190811067ffffffffffffffff821117610ace57604052565b90601f8019910116810190811067ffffffffffffffff821117610ace57604052565b60405190610180820182811067ffffffffffffffff821117610ace57604052565b60209067ffffffffffffffff8111610b91575b601f01601f19160190565b610b99610aa3565b610b86565b929192610baa82610b73565b91610bb86040519384610b30565b829481845281830111610019578281602093846000960137010152565b50346100195760403660031901126100195767ffffffffffffffff600435602435828111610019573660238201121561001957610c1c903690602481600401359101610b9e565b91610c3d8260005260076020526001600160a01b0360406000205416151590565b15610d27576000918252602090600b825260408320918451918211610d1a575b610c7182610c6b8554612406565b85612cc0565b80601f8311600114610cad5750839482939492610ca2575b50508160011b916000199060031b1c1916179055604051f35b015190503880610c89565b90601f19831695610cc385600052602060002090565b9286905b888210610d0257505083600195969710610ce9575b505050811b019055604051f35b015160001960f88460031b161c19169055388080610cdc565b80600185968294968601518155019501930190610cc7565b610d22610aa3565b610c5d565b60405162461bcd60e51b815260206004820152602e60248201527f45524337323155524953746f726167653a2055524920736574206f66206e6f6e60448201527f6578697374656e7420746f6b656e0000000000000000000000000000000000006064820152608490fd5b5034610019576000366003190112610019576020600254604051908152f35b5034610019576020366003190112610019576105db6105a5600435610ddb60026001541415613836565b6002600155610dfd6103ec6103e86103e1846000526012602052604060002090565b7f614db18534927b3160ffb1fa66c2b36d57714bca6407428cc884b55567e9c0c4610e35610429836000526011602052604060002090565b61016081015115610f5157610e7a610e72610e5e61044960a085015167ffffffffffffffff1690565b61047361046a60c086015163ffffffff1690565b610473614d0d565b905b610592610e888561238f565b91610ea061049e876000526012602052604060002090565b610eae6104b9601054612862565b610100810190610ec582516001600160a01b031690565b94610ee56104fb608084019788516104f5600e546001600160a01b031690565b610ef3602061050e8a614bef565b9260405196879642948b89946101209691999893946000989361014088019b88526001600160a01b03968780921660208a01521660408801526060870152608086015260a085015260c08401521660e0820152826101008201520152565b610f8b610f86610e72610f7261044960a086015167ffffffffffffffff1690565b61047361046a60c087015163ffffffff1690565b612896565b90610e7c565b606090600319011261001957600435610fa9816107ed565b90602435610fb6816107ed565b9060443590565b5034610019576105e4610fcf36610f91565b91610fe2610fdd84336126fb565b6125eb565b6128d2565b5034610019576040366003190112610019576001600160a01b0360043561100d816107ed565b1660005260136020526040600020602435600052602052602060ff604060002054166040519015158152f35b5034610019576105e461104b36610f91565b90604051926020840184811067ffffffffffffffff821117611074575b60405260008452612670565b61107c610aa3565b611068565b50346100195760203660031901126100195760043561109e612c51565b63ffffffff81116110ae57600255005b60405162461bcd60e51b815260206004820152603360248201527f6c6f616e206475726174696f6e2063616e6e6f7420657863656564207370616360448201527f6520616c6f7474656420696e20737472756374000000000000000000000000006064820152608490fd5b50346100195760003660031901126100195760206001600160a01b03600d5416604051908152f35b5034610019576000366003190112610019576020604051468152f35b5034610019576000366003190112610019576020600f54604051908152f35b503461001957600036600319011261001957602060ff60005460a01c166040519015158152f35b50346100195760208060031936011261001957600435906111d76103ec6103e86103e1856000526012602052604060002090565b60006111f0610429846000526011602052604060002090565b926111fa8161238f565b936112136109e96109e9600c546001600160a01b031690565b60608201519185015160405163b0a89bd960e01b81526004810194909452602484019290925260448301919091526001600160a01b0394909416606482015292839060849082905afa9182156112fd575b6000926112da575b50815160009182935b82851061128757604051848152602090f35b9091926112948583614329565b516112a96109e982516001600160a01b031690565b33146112cf576112c691846112c0920151906128c6565b94612ee9565b93929190611275565b50936112c690612ee9565b6112f691923d8091833e6112ee8183610b30565b810190614271565b903861126c565b611305612b0a565b611264565b5034610019576020366003190112610019576004356000526011602052604060002080549061073a60018201549260028301549360038401549360048101549560058201549061136460068401546001600160a01b031690565b91600861137b60078601546001600160a01b031690565b94015460408051978852602088019690965286860192909252606080870198909852608086019890985267ffffffffffffffff881660a0808701919091529388901c63ffffffff90811660c08701529790961c90961660e08401526001600160a01b0395861661010084015285166101208301529383166101408201529190921c60ff161515610160820152908190610180820190565b503461001957602080600319360112610019576004803561143860026001541415613836565b600260015561145a6103ec6103e86103e1846000526012602052604060002090565b611471610429826000526011602052604060002090565b9261148b6114866103e8610160870151151590565b6144b0565b6114bd610e726114a961044960a088015167ffffffffffffffff1690565b61047361046a60c089015163ffffffff1690565b6114c68361238f565b90604094858701516115cc575b506105a59284926105927f614db18534927b3160ffb1fa66c2b36d57714bca6407428cc884b55567e9c0c49360009961151c61049e6115c09a6000526012602052604060002090565b61152a6104b9601054612862565b61010081019161156261154484516001600160a01b031690565b966115596104fb88608087019a8b51906145a6565b61050e8a614bef565b928b5196879642948b89946101209691999893946001989361014088019b88526001600160a01b03968780921660208a01521660408801526060870152608086015260a085015260c08401521660e082015260006101008201520152565b6115c960018055565b51f35b9561164c966001600160a01b03906115e78286163314614522565b6115ff6109e96109e9600c546001600160a01b031690565b8786606086015192898701518c51809e8194829363b0a89bd960e01b845260009889988b860192936001600160a01b03919594606093608086019786526020860152604085015216910152565b03915afa998a15611774575b819a611758575b506116786109e96101208601516001600160a01b031690565b8a519380839216915b85811061169457505050505050956114d3565b808c8b8f611710946116a591614329565b51916116b883516001600160a01b031690565b868116331461174f579282015190516323b872dd60e01b8152338a82019081526001600160a01b03909416602085015260408401919091529182908190606001038189895af18015611742575b611715575b50612ee9565b611681565b611734908c8d3d1061173b575b61172c8183610b30565b810190613efa565b503861170a565b503d611722565b61174a612b0a565b611705565b50505050612ee9565b61176d919a503d808c833e6112ee8183610b30565b983861165f565b61177c612b0a565b611658565b50346100195760203660031901126100195760206107dc60043561238f565b5034610019576020366003190112610019576117ba612c51565b600435600355005b50346100195760203660031901126100195760043560005260116020526020600360406000200154604051908152f35b8060e31215610019576040519061180882610adb565b816101049182116100195760c4905b8282106118245750505090565b8135815260209182019101611817565b9080601f83011215610019578160206106dd93359101610b9e565b8015150361001957565b6101a4359061080c8261184f565b610144359061080c8261184f565b5034610019576101c036600319011261001957611891366117f2565b6118996107fe565b906118a261080e565b916118ab61081c565b67ffffffffffffffff939061016435858111610019576118cf903690600401611834565b9161018435958611610019576118ec6105e4963690600401611834565b936118f5611859565b9560a435608435606435604435602435600435613010565b50346100195760203660031901126100195761192e60026001541415613836565b60026001556119526103ec6103e86103e16004356000526012602052604060002090565b61196b6104296004356000526011602052604060002090565b611976600435614bef565b61198a6001600160a01b03821633146141f3565b61199560043561238f565b90611a006000836119b46109e96109e9600c546001600160a01b031690565b6060870151602088015160405163b0a89bd960e01b81526004803590820152602481019290925260448201526001600160a01b0390921660648301529092839190829081906084820190565b03915afa908115611c31575b600091611c16575b50610120840190611a2f6109e983516001600160a01b031690565b8151916001600160a01b0360009216915b838110611b75577f61de14a46baf4e24c466c80f5d823c5925a65ffce385bf401fef42afd8f3a9938787611b598b89611a8861049e6004356000526012602052604060002090565b611a966104b9601054612862565b610100820180516001600160a01b031692611abb6104fb8760808401968751906145a6565b611ac66004356143a3565b611ad1600435614b8d565b60208101519351611b02611af4611af460e0606086015195015163ffffffff1690565b94516001600160a01b031690565b6040805160043581526001600160a01b03998a166020820152998916908a01526060890195909552608088015260a087015263ffffffff1660c0860152831660e08501529091166101008301528190610120820190565b0390a16105db6105a56004356000526011602052604060002090565b80611bd46020611b88611bec9486614329565b5181611b9b82516001600160a01b031690565b9101516040516323b872dd60e01b81526001600160a01b03808d1660048301529092166024830152604482015291829081906064820190565b03816000895af18015611c09575b611bf15750612ee9565b611a40565b6117349060203d60201161173b5761172c8183610b30565b611c11612b0a565b611be2565b611c2b91503d806000833e6112ee8183610b30565b38611a14565b611c39612b0a565b611a0c565b5034610019576020366003190112610019576001600160a01b03600435611c64816107ed565b168015611c8d57600052600860205261073a604060002054604051918291829190602083019252565b60405162461bcd60e51b815260206004820152602a60248201527f4552433732313a2062616c616e636520717565727920666f7220746865207a65604482015269726f206164647265737360b01b6064820152608490fd5b5034610019576101803660031901126100195760e435611d04816107ed565b611d0c6107fe565b90611d1561080e565b90611d1e611867565b610164359267ffffffffffffffff84116100195761073a94611d47611d62953690600401611834565b9360c43560a435608435606435604435602435600435614aac565b60405190151581529081906020820190565b5034610019576000806003193601126107ba57611d8f612c51565b80546001600160a01b031981168255816001600160a01b0360405192167f8be0079c531659141344cd1fd0a4f28419497f9722a3daafe3b4186f6b6457e08284a3f35b50346100195760003660031901126100195760206001600160a01b0360005416604051908152f35b5034610019576000806003193601126107ba576040519080600654611e1e81612406565b808552916001918083169081156107995750600114611e475761073a8561072e81870382610b30565b9250600683527ff652222313e28459528d920b65115c16c04f3efc82aaedc97be59f3f377c0d3f5b828410611e8a57505050810160200161072e8261073a61071e565b80546020858701810191909152909301928101611e6f565b50346100195760203660031901126100195760043533600052601360205260406000208160005260205260ff60406000205416611f0c5761049e6105e491611efd336001600160a01b03166000526013602052604060002090565b90600052602052604060002090565b60405162461bcd60e51b815260206004820152605860248201527f4e6f6e636520696e76616c69642c20757365722068617320656974686572206360448201527f616e63656c6c65642f626567756e2074686973206c6f616e2c206f722072657560648201527f7365642061206e6f6e6365207768656e207369676e696e670000000000000000608482015260a490fd5b503461001957604036600319011261001957600435611fbb816107ed565b602435611fc78161184f565b6001600160a01b0382169182331461204a57816120076120189233600052600a6020526040600020906001600160a01b0316600052602052604060002090565b9060ff801983541691151516179055565b604051901515815233907f17307eab39ab6107e8899845ad3d59bd9653f200f220920489ca2b5937696c3190602090a3005b60405162461bcd60e51b815260206004820152601960248201527f4552433732313a20617070726f766520746f2063616c6c6572000000000000006044820152606490fd5b5034610019576080366003190112610019576004356120ad816107ed565b6024356120b9816107ed565b6064359167ffffffffffffffff8311610019576120dd6105e4933690600401611834565b9160443591612670565b50346100195760003660031901126100195760206001600160a01b0360045416604051908152f35b50346100195760a03660031901126100195760443561212d816107ed565b6064359061213a826107ed565b6084359067ffffffffffffffff82116100195760209261216161216d933690600401611834565b916024356004356146a0565b6040519015158152f35b50346100195760203660031901126100195761073a612197600435612d18565b6040519182916020835260208301906106a7565b50346100195760003660031901126100195760206001600160a01b03600c5416604051908152f35b5034610019576000366003190112610019576020601054604051908152f35b503461001957604036600319011261001957602060ff612251600435612217816107ed565b6001600160a01b036024359161222c836107ed565b16600052600a84526040600020906001600160a01b0316600052602052604060002090565b54166040519015158152f35b5034610019576000366003190112610019576020600354604051908152f35b50346100195760203660031901126100195760043561229a816107ed565b6122a2612c51565b6001600160a01b038091169081156122f457600091825491816001600160a01b0319841617845560405192167f8be0079c531659141344cd1fd0a4f28419497f9722a3daafe3b4186f6b6457e08484a3f35b60405162461bcd60e51b815260206004820152602660248201527f4f776e61626c653a206e6577206f776e657220697320746865207a65726f206160448201526564647265737360d01b6064820152608490fd5b50346100195760203660031901126100195760206107dc600435614bef565b50346100195760003660031901126100195760206001600160a01b03600e5416604051908152f35b60005260076020526001600160a01b036040600020541680156123af5790565b60405162461bcd60e51b815260206004820152602960248201527f4552433732313a206f776e657220717565727920666f72206e6f6e657869737460448201526832b73a103a37b5b2b760b91b6064820152608490fd5b90600182811c92168015612436575b602083101461242057565b634e487b7160e01b600052602260045260246000fd5b91607f1691612415565b906040519182600082549261245484612406565b9081845260019485811690816000146124c1575060011461247e575b505061080c92500383610b30565b9093915060005260209081600020936000915b8183106124a957505061080c93508201013880612470565b85548884018501529485019487945091830191612491565b9550505050505060ff1916602083015261080c82604081013880612470565b156124e757565b60405162461bcd60e51b815260206004820152603860248201527f4552433732313a20617070726f76652063616c6c6572206973206e6f74206f7760448201527f6e6572206e6f7220617070726f76656420666f7220616c6c00000000000000006064820152608490fd5b6125728160005260076020526001600160a01b0360406000205416151590565b156125915760005260096020526001600160a01b036040600020541690565b60405162461bcd60e51b815260206004820152602c60248201527f4552433732313a20617070726f76656420717565727920666f72206e6f6e657860448201526b34b9ba32b73a103a37b5b2b760a11b6064820152608490fd5b156125f257565b60405162461bcd60e51b815260206004820152603160248201527f4552433732313a207472616e736665722063616c6c6572206973206e6f74206f60448201527f776e6572206e6f7220617070726f7665640000000000000000000000000000006064820152608490fd5b6040519061266a82610af7565b60008252565b90612694939291612684610fdd84336126fb565b61268f8383836128d2565b612b47565b1561269b57565b60405162461bcd60e51b815260206004820152603260248201527f4552433732313a207472616e7366657220746f206e6f6e20455243373231526560448201527131b2b4bb32b91034b6b83632b6b2b73a32b960711b6064820152608490fd5b61271b8260005260076020526001600160a01b0360406000205416151590565b15612799576127298261238f565b916001600160a01b0390818316928285168414948515612769575b50508315612753575b50505090565b61275f91929350612552565b161438808061274d565b60ff929550906108ad61278f926001600160a01b0316600052600a602052604060002090565b5416923880612744565b60405162461bcd60e51b815260206004820152602c60248201527f4552433732313a206f70657261746f7220717565727920666f72206e6f6e657860448201526b34b9ba32b73a103a37b5b2b760a11b6064820152608490fd5b156127fa57565b60405162461bcd60e51b8152602060048201526024808201527f4552433732313a207472616e7366657220746f20746865207a65726f206164646044820152637265737360e01b6064820152608490fd5b50634e487b7160e01b600052601160045260246000fd5b60018110612872575b6000190190565b61287a61284b565b61286b565b81811061288a570390565b61289261284b565b0390565b6201518090620151801981116128aa570190565b6128b261284b565b0190565b60019060011981116128aa570190565b811981116128aa570190565b906128dc8361238f565b6001600160a01b0391829182851693849116036129b75761292a61298e928216946129088615156127f3565b61291187612a0a565b6001600160a01b03166000526008602052604060002090565b6129348154612862565b9055612953816001600160a01b03166000526008602052604060002090565b61295d81546128b6565b9055612973856000526007602052604060002090565b906001600160a01b03166001600160a01b0319825416179055565b7fddf252ad1be2c89b69c2b068fc378daa952ba7f163c4a11628f55a4df523b3ef6000604051a4565b60405162461bcd60e51b815260206004820152602560248201527f4552433732313a207472616e736665722066726f6d20696e636f72726563742060448201526437bbb732b960d91b6064820152608490fd5b600081815260096020526040812080546001600160a01b03191690556001600160a01b03612a378361238f565b167f8c5be1e5ebec7d5bd14f71427d1e84f3dd0314c0f7b2291e5b200ac8c7c3b92582604051a4565b600082815260096020526040902080546001600160a01b0319166001600160a01b0383161790556001600160a01b0380612a998461238f565b169116907f8c5be1e5ebec7d5bd14f71427d1e84f3dd0314c0f7b2291e5b200ac8c7c3b9256000604051a4565b9081602091031261001957516106dd816105e6565b90926106dd94936080936001600160a01b038092168452166020830152604082015281606082015201906106a7565b506040513d6000823e3d90fd5b3d15612b42573d90612b2882610b73565b91612b366040519384610b30565b82523d6000602084013e565b606090565b92909190823b15612c4857612b829260209260006001600160a01b03604051809781968295630a85bd0160e11b9b8c85523360048601612adb565b0393165af160009181612c18575b50612c0a57612b9d612b17565b80519081612c055760405162461bcd60e51b815260206004820152603260248201527f4552433732313a207472616e7366657220746f206e6f6e20455243373231526560448201527131b2b4bb32b91034b6b83632b6b2b73a32b960711b6064820152608490fd5b602001fd5b6001600160e01b0319161490565b612c3a91925060203d8111612c41575b612c328183610b30565b810190612ac6565b9038612b90565b503d612c28565b50505050600190565b6001600160a01b03600054163303612c6557565b606460405162461bcd60e51b815260206004820152602060248201527f4f776e61626c653a2063616c6c6572206973206e6f7420746865206f776e65726044820152fd5b818110612cb4575050565b60008155600101612ca9565b9190601f8111612ccf57505050565b61080c926000526020600020906020601f840160051c83019310612cfb575b601f0160051c0190612ca9565b9091508190612cee565b906128b260209282815194859201610672565b612d388160005260076020526001600160a01b0360406000205416151590565b15612daf57612d59612d5482600052600b602052604060002090565b612440565b90612d6261265d565b805115612daa578251612d7a57506106dd9150612e1a565b6106dd9150612d9c612d96936040519485936020850190612d05565b90612d05565b03601f198101835282610b30565b505090565b60405162461bcd60e51b815260206004820152603160248201527f45524337323155524953746f726167653a2055524920717565727920666f722060448201527f6e6f6e6578697374656e7420746f6b656e0000000000000000000000000000006064820152608490fd5b612e3a8160005260076020526001600160a01b0360406000205416151590565b15612e7e57612e4761265d565b805190919015612e7457612d9691612d9c612e646106dd93612f2f565b6040519485936020850190612d05565b50506106dd61265d565b60405162461bcd60e51b815260206004820152602f60248201527f4552433732314d657461646174613a2055524920717565727920666f72206e6f60448201527f6e6578697374656e7420746f6b656e00000000000000000000000000000000006064820152608490fd5b60019060001981146128aa570190565b50634e487b7160e01b600052603260045260246000fd5b906020918051821015612f2257010190565b612f2a612ef9565b010190565b8015612ff257806000908282935b612fde5750612f4b83610b73565b92612f596040519485610b30565b80845281601f19612f6983610b73565b013660208701375b612f7b5750505090565b612f8490612862565b90600a90603082820680198211612fd1575b0160f81b7fff0000000000000000000000000000000000000000000000000000000000000016841a612fc88487612f10565b53049081612f71565b612fd961284b565b612f96565b92612fea600a91612ee9565b930480612f3d565b50604051612fff81610adb565b60018152600360fc1b602082015290565b9a989b96949392919097959760ff60005460a01c166137f1576001546002141561303990613836565b6002600155600f549b61304a610b52565b9c8d5260208d015260408c015260608b015260808a015267ffffffffffffffff421660a08a015263ffffffff1660c089015263ffffffff1660e08801526001600160a01b03166101008701526001600160a01b03166101208601523361014086015215156101608501526060840151602085015111156130c990613882565b60c08401516002546130e29163ffffffff1611156138e4565b60c08401516130f89063ffffffff161515613944565b60e084015163ffffffff1661310b614cb3565b1461311590613990565b602084015160408501511061312990613a02565b336000908152601360205260409020815161314d9190600052602052604060002090565b5460ff161561315b90613a60565b336000908152601360205260409020815161317f9190600052602052604060002090565b805460ff191660011790556131a7856001600160a01b03166000526013602052604060002090565b92602082019384516131c29190600052602052604060002090565b5460ff16156131d090613b09565b6131ed866001600160a01b03166000526013602052604060002090565b84516132029190600052602052604060002090565b805460ff19166001179055608085015191516101008601513391906001600160a01b031690613230946146a0565b61323990613bad565b60208301519184604085015160608601519060808701519060c08801516132639063ffffffff1690565b60e089015163ffffffff169551916101008a0151613287906001600160a01b031690565b936101208b015161329e906001600160a01b031690565b956101608c01516132ae90151590565b9863ffffffff169363ffffffff16926132c69b614aac565b6132cf90613bf9565b80600f546132e7906000526011602052604060002090565b906132f191613c45565b600f546132fd906128b6565b600f5560105461330c906128b6565b601055601054600354101561332090613df5565b6101008101516080820151906001600160a01b0316803b15610019576040516323b872dd60e01b815233600482015230602482015260448101929092526000908290606490829084905af180156137e4575b6137d1575b506133936109e96109e96101208401516001600160a01b031690565b604051636eb1769f60e11b81526001600160a01b03841660048201523060248201529290602090849060449082905afa9283156137c4575b600093613793575b506040820151156136c1576000602061345c6004956134066133fd8488015160408901519061287f565b80921015613e88565b6134216109e96109e96101208901516001600160a01b031690565b604080516323b872dd60e01b81526001600160a01b0388168a8201908152336020820152918201939093529194859391928492839160600190565b03925af180156136b4575b613695575b5060206134876109e96109e9600c546001600160a01b031690565b60405163d3ae26b360e01b815294859182905afa928315613688575b600093613657575b5081516101208301516001600160a01b03166040840151916001600160a01b0386163b156100195760405163ce2620c160e01b815260048101919091526001600160a01b03918216602482015260448101929092523360648301527f7a9a95acdaec2726663658ce76ffb4b960ce244a001b3252a5bb3db586e28c1b94600091839160849183918591165af1801561364a575b613637575b505b613550825182613f24565b61362b825160208401519360408101519160608201519060808301519061357e60c085015163ffffffff1690565b916135946101008601516001600160a01b031690565b936135b86101606135b06101208901516001600160a01b031690565b970151151590565b604080519485523360208601526001600160a01b039a8b1690850152606084019a909a52608083019690965260a082019590955260c08101949094524260e085015263ffffffff166101008401528416610120830152909216610140830152911515610160820152908190610180820190565b0390a161080c60018055565b80610a8a61364492610aba565b38613543565b613652612b0a565b61353e565b61367a91935060203d602011613681575b6136728183610b30565b810190613f0f565b91386134ab565b503d613668565b613690612b0a565b6134a3565b6136ad9060203d60201161173b5761172c8183610b30565b503861346c565b6136bc612b0a565b613467565b6136f27f7a9a95acdaec2726663658ce76ffb4b960ce244a001b3252a5bb3db586e28c1b9360208401511115613e88565b600060206137516137146109e96109e96101208801516001600160a01b031690565b858301516040516323b872dd60e01b81526001600160a01b0387166004820152336024820152604481019190915293849283919082906064820190565b03925af18015613786575b613767575b50613545565b61377f9060203d60201161173b5761172c8183610b30565b5038613761565b61378e612b0a565b61375c565b6137b691935060203d6020116137bd575b6137ae8183610b30565b810190613e79565b91386133d3565b503d6137a4565b6137cc612b0a565b6133cb565b80610a8a6137de92610aba565b38613377565b6137ec612b0a565b613372565b60405162461bcd60e51b815260206004820152601060248201527f5061757361626c653a20706175736564000000000000000000000000000000006044820152606490fd5b1561383d57565b60405162461bcd60e51b815260206004820152601f60248201527f5265656e7472616e637947756172643a207265656e7472616e742063616c6c006044820152606490fd5b1561388957565b60405162461bcd60e51b815260206004820152602d60248201527f4e6567617469766520696e7465726573742072617465206c6f616e732061726560448201526c103737ba1030b63637bbb2b21760991b6064820152608490fd5b156138eb57565b60405162461bcd60e51b815260206004820152602b60248201527f4c6f616e206475726174696f6e2065786365656473206d6178696d756d206c6f60448201526a30b710323ab930ba34b7b760a91b6064820152608490fd5b1561394b57565b60405162461bcd60e51b815260206004820152601c60248201527f4c6f616e206475726174696f6e2063616e6e6f74206265207a65726f000000006044820152606490fd5b1561399757565b60405162461bcd60e51b815260206004820152603660248201527f5468652061646d696e2066656520686173206368616e6765642073696e63652060448201527f74686973206f7264657220776173207369676e65642e000000000000000000006064820152608490fd5b15613a0957565b60405162461bcd60e51b815260206004820152602960248201527f4c65766572616765642076616c7565206578636565647320746f74616c206c6f604482015268185b88185b5bdd5b9d60ba1b6064820152608490fd5b15613a6757565b60405162461bcd60e51b815260206004820152606860248201527f426f72726f776572206e6f6e636520696e76616c69642c20626f72726f77657260448201527f20686173206569746865722063616e63656c6c65642f626567756e207468697360648201527f206c6f616e2c206f72207265757365642074686973206e6f6e6365207768656e608482015267207369676e696e6760c01b60a482015260c490fd5b15613b1057565b60c460405162461bcd60e51b815260206004820152606460248201527f4c656e646572206e6f6e636520696e76616c69642c206c656e6465722068617360448201527f206569746865722063616e63656c6c65642f626567756e2074686973206c6f6160648201527f6e2c206f72207265757365642074686973206e6f6e6365207768656e207369676084820152636e696e6760e01b60a4820152fd5b15613bb457565b60405162461bcd60e51b815260206004820152601d60248201527f426f72726f776572207369676e617475726520697320696e76616c69640000006044820152606490fd5b15613c0057565b60405162461bcd60e51b815260206004820152601b60248201527f4c656e646572207369676e617475726520697320696e76616c696400000000006044820152606490fd5b90613ddb610160600861080c948451815560208501516001820155604085015160028201556060850151600382015560808501516004820155613d3060058201613cbb613c9d60a089015167ffffffffffffffff1690565b825467ffffffffffffffff191667ffffffffffffffff909116178255565b613cf9613ccf60c089015163ffffffff1690565b82546bffffffff0000000000000000191660409190911b6bffffffff000000000000000016178255565b60e087015181546fffffffff000000000000000000000000191660609190911b6fffffffff00000000000000000000000016179055565b613d67613d486101008701516001600160a01b031690565b60068301906001600160a01b03166001600160a01b0319825416179055565b613d9e613d7f6101208701516001600160a01b031690565b60078301906001600160a01b03166001600160a01b0319825416179055565b0192613dd4613db86101408301516001600160a01b031690565b85546001600160a01b0319166001600160a01b03909116178555565b0151151590565b815460ff60a01b191690151560a01b60ff60a01b16179055565b15613dfc57565b60405162461bcd60e51b815260206004820152604960248201527f436f6e747261637420686173207265616368656420746865206d6178696d756d60448201527f206e756d626572206f6620616374697665206c6f616e7320616c6c6f7765642060648201526862792061646d696e7360b81b608482015260a490fd5b90816020910312610019575190565b15613e8f57565b60405162461bcd60e51b815260206004820152603a60248201527f455243323020616c6c6f77616e6365206973206e6f7420736574206279206c6560448201527f6e646572206f72206e6f7420656e6f7567682062616c616e63650000000000006064820152608490fd5b9081602091031261001957516106dd8161184f565b9081602091031261001957516106dd816107ed565b6001600160a01b03811690811561400957613f558360005260076020526001600160a01b0360406000205416151590565b613fc45780613f7a613f9a926001600160a01b03166000526008602052604060002090565b613f8481546128b6565b9055612973846000526007602052604060002090565b60007fddf252ad1be2c89b69c2b068fc378daa952ba7f163c4a11628f55a4df523b3ef81604051a4565b60405162461bcd60e51b815260206004820152601c60248201527f4552433732313a20746f6b656e20616c7265616479206d696e746564000000006044820152606490fd5b606460405162461bcd60e51b815260206004820152602060248201527f4552433732313a206d696e7420746f20746865207a65726f20616464726573736044820152fd5b1561405457565b60405162461bcd60e51b815260206004820152602a60248201527f4c6f616e2068617320616c7265616479206265656e20726570616964206f72206044820152691b1a5c5d5a59185d195960b21b6064820152608490fd5b156140b357565b60405162461bcd60e51b815260206004820152602560248201527f5472757374204465656420636f6e7472616374206861736e2774206265652073604482015264065742075760dc1b6064820152608490fd5b9061080c60ff6008614116610b52565b8554815260018601546020820152600286015460408201526003860154606082015260048601546080820152600586015467ffffffffffffffff811660a08301529095906141839063ffffffff604082901c811660c08a01529060601c1660e088019063ffffffff169052565b6141ab61419a60068301546001600160a01b031690565b6001600160a01b0316610100880152565b6141d36141c260078301546001600160a01b031690565b6001600160a01b0316610120880152565b01546001600160a01b03811661014086015260a01c161515610160840152565b156141fa57565b60a460405162461bcd60e51b815260206004820152604460248201527f4f6e6c792074686520626f72726f7765722063616e20706179206261636b206160448201527f206c6f616e20616e64207265636c61696d2074686520756e6465726c79696e676064820152630813919560e21b6084820152fd5b6020808284031261001957815167ffffffffffffffff9283821161001957019083601f8301121561001957815192831161431c575b6040928351946142bb838360051b0187610b30565b818652828087019260061b85010193818511610019578301915b8483106142e55750505050505090565b85838303126100195783869182516142fc81610adb565b8551614307816107ed565b815282860151838201528152019201916142d5565b614324610aa3565b6142a6565b602091815181101561433e575b60051b010190565b614346612ef9565b614336565b1561435257565b60405162461bcd60e51b8152602060048201526024808201527f4e465420776173206e6f74207375636365737366756c6c79207472616e7366656044820152631c9c995960e21b6064820152608490fd5b6001600160a01b036143b48261238f565b6143bd83612a0a565b169080600083819482526008602052604082208054600181106144a3575b6000190190558282526007602052604082206001600160a01b031981541690557fddf252ad1be2c89b69c2b068fc378daa952ba7f163c4a11628f55a4df523b3ef82604051a461443e61443882600052600b602052604060002090565b54612406565b614446575050565b61445a90600052600b602052604060002090565b6144648154612406565b8061446e57505050565b601f811160011461447d575055565b8183526020832061449991601f0160051c810190600101612ca9565b8160208120915555565b6144ab61284b565b6143db565b156144b757565b60405162461bcd60e51b815260206004820152603460248201527f4c6f616e20697320636f6e6669677572656420746f206265206c69717569646160448201527f746564206f6e6c79207669612061756374696f6e0000000000000000000000006064820152608490fd5b1561452957565b60405162461bcd60e51b815260206004820152604960248201527f4f6e6c7920746865206c656e6465722063616e2070617920666f72207468652060448201527f6c6576657261676520616e64206c69717569646174652074686520756e6465726064820152681b1e5a5b99c813919560ba1b608482015260a490fd5b60405163095ea7b360e01b60208201908152306024830152604480830185905282529193929190601f196145db606483610b30565b600080809481945190828a5af1506145f1612b17565b506040516323b872dd60e01b602082019081523060248301526001600160a01b03871660448301526064820186905260849283018252916146329082610b30565b519082875af1614640612b17565b501561464e57505050600190565b6106dd9260405163a9059cbb60e01b602082019081526001600160a01b0390941660248201526044810192909252600092839283906146908160648101612d9c565b51925af161469c612b17565b5090565b939190916001600160a01b03938481169586156000146146c65750505050505050600090565b61473e946147369461473193604051926020840194855260408401526bffffffffffffffffffffffff19809260601b16606084015260601b1660748201524660888201526088815260c0810181811067ffffffffffffffff821117614743575b604052519020614a4a565b6148fe565b91909161477d565b161490565b61474b610aa3565b614726565b6106dd91614736916148fe565b6005111561476757565b634e487b7160e01b600052602160045260246000fd5b6147868161475d565b8061478e5750565b6147978161475d565b600181036147e45760405162461bcd60e51b815260206004820152601860248201527f45434453413a20696e76616c6964207369676e617475726500000000000000006044820152606490fd5b6147ed8161475d565b6002810361483a5760405162461bcd60e51b815260206004820152601f60248201527f45434453413a20696e76616c6964207369676e6174757265206c656e677468006044820152606490fd5b6148438161475d565b6003810361489b5760405162461bcd60e51b815260206004820152602260248201527f45434453413a20696e76616c6964207369676e6174757265202773272076616c604482015261756560f01b6064820152608490fd5b806148a760049261475d565b146148ae57565b60405162461bcd60e51b815260206004820152602260248201527f45434453413a20696e76616c6964207369676e6174757265202776272076616c604482015261756560f01b6064820152608490fd5b81516041810361492b575090614927916020820151906060604084015193015160001a90614994565b9091565b60400361498a5781604060206149279401519101519160ff601b7f7fffffffffffffffffffffffffffffffffffffffffffffffffffffffffffffff85831c958219871161497d575b1694011690614994565b61498561284b565b614973565b5050600090600290565b9291907f7fffffffffffffffffffffffffffffff5d576e7357a4501ddfe92f46681b20a08311614a3e5760ff16601b81141580614a33575b614a27579160809493916020936040519384528484015260408301526060820152600093849182805260015afa15614a1a575b81516001600160a01b03811615614a14579190565b50600190565b614a22612b0a565b6149ff565b50505050600090600490565b50601c8114156149cc565b50505050600090600390565b60405160208101917f19457468657265756d205369676e6564204d6573736167653a0a3332000000008352603c820152603c81526060810181811067ffffffffffffffff821117614a9f575b60405251902090565b614aa7610aa3565b614a96565b95999293969a979a989094986001600160a01b0382169b8c15600014614ade5750505050505050505050505050600090565b614b899b6109e99b614b849a614b6998614b5c976040519b60208d019d8e5260408d015260608c015260808b015260a08a015260c089015260e08801526bffffffffffffffffffffffff19809260601b1661010088015260601b166101148601526101288501906bffffffffffffffffffffffff199060601b169052565b151560f81b61013c830152565b61013d46818301528152614b7c81610b13565b519020614a4a565b614750565b1490565b6001600160a01b03600d5416908115614beb57813b156100195760009160248392604051948593849263dbf5132560e01b845260048401525af18015614bde575b614bd55750565b61080c90610aba565b614be6612b0a565b614bce565b5050565b614c066103e1826000526012602052604060002090565b614cad576001600160a01b0380614c25600d546001600160a01b031690565b169081614c4c575b50506101406109db6104296106dd936000526011602052604060002090565b6040516331a9108f60e11b81526004810184905291602090839060249082905afa60009281614c8d575b5015614c2d578116614c885780614c2d565b905090565b614ca691935060203d8111613681576136728183610b30565b9138614c76565b50600090565b600460206001600160a01b03825416604051928380926305f1286b60e41b82525afa908115614d00575b600091614ce8575090565b6106dd915060203d81116137bd576137ae8183610b30565b614d08612b0a565b614cdd565b600460206001600160a01b0382541660405192838092631464454560e21b82525afa908115614d0057600091614ce857509056fea2646970667358221220df1676993e6bd33d1ac0b70979cc243fa8c5f144ed5bae75d08207c5ce1ede3e64736f6c634300080e0033"
}