{
  "address": "0xf994Dc1aD81d7DD77aedf0b57Dc7A8d1421C0f5C",
  "abi": [
    {
      "inputs": [
        {
          "internalType": "string",
          "name": "_balanceName",
          "type": "string"
        }
      ],
      "stateMutability": "nonpayable",
      "type": "constructor"
    },
    {
      "anonymous": false,
      "inputs": [
        {
          "indexed": true,
          "internalType": "address",
          "name": "previousOwner",
          "type": "address"
        },
        {
          "indexed": true,
          "internalType": "address",
          "name": "newOwner",
          "type": "address"
        }
      ],
      "name": "OwnershipTransferred",
      "type": "event"
    },
    {
      "stateMutability": "payable",
      "type": "fallback"
    },
    {
      "inputs": [
        {
          "internalType": "address",
          "name": "_tokenIn",
          "type": "address"
        },
        {
          "internalType": "address",
          "name": "_tokenOut",
          "type": "address"
        }
      ],
      "name": "addToken",
      "outputs": [],
      "stateMutability": "nonpayable",
      "type": "function"
    },
    {
      "inputs": [],
      "name": "balanceName",
      "outputs": [
        {
          "internalType": "string",
          "name": "",
          "type": "string"
        }
      ],
      "stateMutability": "view",
      "type": "function"
    },
    {
      "inputs": [],
      "name": "hasPendingTransfer",
      "outputs": [
        {
          "internalType": "bool",
          "name": "_hasPendingTransfer",
          "type": "bool"
        }
      ],
      "stateMutability": "view",
      "type": "function"
    },
    {
      "inputs": [
        {
          "internalType": "address[]",
          "name": "_tokensIn",
          "type": "address[]"
        },
        {
          "internalType": "address[]",
          "name": "_tokensOut",
          "type": "address[]"
        },
        {
          "internalType": "contract Vault",
          "name": "_targetVault",
          "type": "address"
        },
        {
          "internalType": "address",
          "name": "_swapRouter",
          "type": "address"
        }
      ],
      "name": "initialize",
      "outputs": [],
      "stateMutability": "nonpayable",
      "type": "function"
    },
    {
      "inputs": [],
      "name": "owner",
      "outputs": [
        {
          "internalType": "address",
          "name": "",
          "type": "address"
        }
      ],
      "stateMutability": "view",
      "type": "function"
    },
    {
      "inputs": [],
      "name": "poolFee",
      "outputs": [
        {
          "internalType": "uint24",
          "name": "",
          "type": "uint24"
        }
      ],
      "stateMutability": "view",
      "type": "function"
    },
    {
      "inputs": [
        {
          "internalType": "address",
          "name": "_tokenIn",
          "type": "address"
        }
      ],
      "name": "removeToken",
      "outputs": [],
      "stateMutability": "nonpayable",
      "type": "function"
    },
    {
      "inputs": [],
      "name": "renounceOwnership",
      "outputs": [],
      "stateMutability": "nonpayable",
      "type": "function"
    },
    {
      "inputs": [
        {
          "internalType": "contract Vault",
          "name": "_targetVault",
          "type": "address"
        }
      ],
      "name": "setTargetVault",
      "outputs": [],
      "stateMutability": "nonpayable",
      "type": "function"
    },
    {
      "inputs": [],
      "name": "swapRouter",
      "outputs": [
        {
          "internalType": "contract IUniswapV2Router01",
          "name": "",
          "type": "address"
        }
      ],
      "stateMutability": "view",
      "type": "function"
    },
    {
      "inputs": [],
      "name": "targetVault",
      "outputs": [
        {
          "internalType": "contract Vault",
          "name": "",
          "type": "address"
        }
      ],
      "stateMutability": "view",
      "type": "function"
    },
    {
      "inputs": [
        {
          "internalType": "address",
          "name": "receiver",
          "type": "address"
        }
      ],
      "name": "terminate",
      "outputs": [],
      "stateMutability": "nonpayable",
      "type": "function"
    },
    {
      "inputs": [
        {
          "internalType": "address",
          "name": "",
          "type": "address"
        }
      ],
      "name": "tokenInToOut",
      "outputs": [
        {
          "internalType": "address",
          "name": "",
          "type": "address"
        }
      ],
      "stateMutability": "view",
      "type": "function"
    },
    {
      "inputs": [
        {
          "internalType": "uint256",
          "name": "",
          "type": "uint256"
        }
      ],
      "name": "tokensIn",
      "outputs": [
        {
          "internalType": "address",
          "name": "",
          "type": "address"
        }
      ],
      "stateMutability": "view",
      "type": "function"
    },
    {
      "inputs": [],
      "name": "transfer",
      "outputs": [],
      "stateMutability": "nonpayable",
      "type": "function"
    },
    {
      "inputs": [
        {
          "internalType": "address",
          "name": "newOwner",
          "type": "address"
        }
      ],
      "name": "transferOwnership",
      "outputs": [],
      "stateMutability": "nonpayable",
      "type": "function"
    },
    {
      "stateMutability": "payable",
      "type": "receive"
    }
  ],
  "transactionHash": "0x514d4d6f73142728ce0c0014fab092a0434e4dbad74d4e9ddd789f06e131801a",
  "args": [
    "tc"
  ],
  "numDeployments": 1,
  "solcInputHash": "91942d0bfd6efcf2f85da000c34c69e0",
  "bytecode": "0x608060405234620000d55762001d65803803806200001d8162000101565b92833981016020918281830312620000d55780516001600160401b0391828211620000d557019282601f85011215620000d5578351918211620000da575b6200006f601f8301601f1916820162000101565b92828452818386010111620000d5576000935b828510620000bf575081620000a09411620000b0575b5050620001cc565b604051611a3a90816200032b8239f35b60009183010152388062000098565b8481018201518486018301529381019362000082565b600080fd5b620000e4620000ea565b6200005b565b50634e487b7160e01b600052604160045260246000fd5b6040519190601f01601f191682016001600160401b038111838210176200012757604052565b62000131620000ea565b604052565b90600182811c9216801562000168575b60208310146200015257565b634e487b7160e01b600052602260045260246000fd5b91607f169162000146565b601f811162000180575050565b6000906003825260208220906020601f850160051c83019410620001c1575b601f0160051c01915b828110620001b557505050565b818155600101620001a8565b90925082906200019f565b60008054732f358b80ed2d296c09560d2b9f70a7f81d57e3526001600160a01b031982168117835560405193949390916001600160a01b0316907f8be0079c531659141344cd1fd0a4f28419497f9722a3daafe3b4186f6b6457e0908490a38251906001600160401b0382116200031a575b62000256826200025060035462000136565b62000173565b6020938491601f84116001146200029557839495509262000289575b50508160011b916000199060031b1c191617600355565b01519050388062000272565b6003600052601f198416957fc2575a0e9e593c00f959f8c92f12db2869c3395a3b0502d05e2516446f71f85b939291905b87821062000301575050836001959610620002e7575b505050811b01600355565b015160001960f88460031b161c19169055388080620002dc565b80600185968294968601518155019501930190620002c6565b62000324620000ea565b6200023e56fe60806040526004361015610018575b361561001657005b005b60003560e01c8063089fe6aa146101585780631f92db451461014f57806333e7b9a5146101465780633c8bf9b31461013d5780633d0a1c2c146101345780635476bd721461012b5780635fa7b584146101225780636452c5e414610119578063715018a6146101105780638a4068dd146101075780638da5cb5b146100fe578063c31c9c07146100f5578063ca9de643146100ec578063edb45529146100e3578063f2fde38b146100da5763f6ed98bf0361000e576100d5611111565b61000e565b506100d5611045565b506100d5610ef2565b506100d5610eb1565b506100d5610e89565b506100d5610e61565b506100d56109b8565b506100d561095a565b506100d561087d565b506100d561071a565b506100d561063e565b506100d56105f7565b506100d5610368565b506100d5610213565b506100d561018f565b506100d5610171565b600091031261016c57565b600080fd5b503461016c57600036600319011261016c576020604051610bb88152f35b503461016c57600036600319011261016c5760206001600160a01b0360025416604051908152f35b50634e487b7160e01b600052603260045260246000fd5b600454811015610206575b60046000527f8a35acfbc15ff81a39ae7d344fd709f28e8600b4aa8c65c6b64bfe7fe36bd19b0190600090565b61020e6101b7565b6101d9565b503461016c57602036600319011261016c5760043560045481101561016c576001600160a01b0360209160046000527f8a35acfbc15ff81a39ae7d344fd709f28e8600b4aa8c65c6b64bfe7fe36bd19b015416604051908152f35b50634e487b7160e01b600052604160045260246000fd5b67ffffffffffffffff811161029957604052565b6102a161026e565b604052565b90601f8019910116810190811067ffffffffffffffff82111761029957604052565b60209067ffffffffffffffff81116102e2575b60051b0190565b6102ea61026e565b6102db565b6001600160a01b0381160361016c57565b81601f8201121561016c57803591610317836102c8565b9261032560405194856102a6565b808452602092838086019260051b82010192831161016c578301905b82821061034f575050505090565b838091833561035d816102ef565b815201910190610341565b503461016c57608036600319011261016c57600467ffffffffffffffff813581811161016c5761039b9036908401610300565b9060243590811161016c576103b39036908401610300565b6044356103bf816102ef565b6103f3606435916103cf836102ef565b6103d76112ba565b6001600160a01b03166001600160a01b03196002541617600255565b6001805473ffffffffffffffffffffffffffffffffffffffff19166001600160a01b039283161790556104298351835114611312565b60005b8351811015610016578061057a61045661044961057f94886113d4565b516001600160a01b031690565b61046361044984886113d4565b908581166105f1575061048d6104816001546001600160a01b031690565b6001600160a01b031690565b60405180916315ab88c960e31b8252818b60209485935afa9182156105e4575b6000926105c7575b5050905b8186166105be57506105756104d96104816001546001600160a01b031690565b60405180916315ab88c960e31b8252818c60209485935afa9182156105b1575b600092610584575b50505b61053d61053761048161052a866001600160a01b03166000526005602052604060002090565b546001600160a01b031690565b1561141b565b61055a836001600160a01b03166000526005602052604060002090565b906001600160a01b03166001600160a01b0319825416179055565b611467565b611384565b61042c565b6105a39250803d106105aa575b61059b81836102a6565b8101906113f6565b3880610501565b503d610591565b6105b961140e565b6104f9565b61057590610504565b6105dd9250803d106105aa5761059b81836102a6565b38806104b5565b6105ec61140e565b6104ad565b906104b9565b503461016c57602036600319011261016c576001600160a01b0360043561061d816102ef565b6106256112ba565b166001600160a01b031960025416176002556000604051f35b503461016c57604036600319011261016c5761001660043561065f816102ef565b61055a6024359161066f836102ef565b6106776112ba565b6001600160a01b0390808216610713575060206106a0600492600154166001600160a01b031690565b6040516315ab88c960e31b815292839182905afa908115610706575b6000916106e8575b505b6106cf81611467565b6001600160a01b03166000526005602052604060002090565b610700915060203d81116105aa5761059b81836102a6565b386106c4565b61070e61140e565b6106bc565b90506106c6565b503461016c57602036600319011261016c5761001661079d60043561073e816102ef565b6107466112ba565b6001600160a01b03908082166107e55750602060049160015416604051928380926315ab88c960e31b82525afa9081156107d8575b6000916107ba575b506001600160a01b03166000526005602052604060002090565b805473ffffffffffffffffffffffffffffffffffffffff19169055565b6107d2915060203d81116105aa5761059b81836102a6565b38610783565b6107e061140e565b61077b565b90506106cf565b90600182811c9216801561081c575b602083101461080657565b634e487b7160e01b600052602260045260246000fd5b91607f16916107fb565b919091602080825283519081818401526000945b82861061086757505080604093941161085a575b601f01601f1916010190565b600083828401015261084e565b858101820151848701604001529481019461083a565b503461016c576000806003193601126109575760405190806003546108a1816107ec565b8085529160019180831690811561093657506001146108db575b6108d7856108cb818703826102a6565b60405191829182610826565b0390f35b9250600383527fc2575a0e9e593c00f959f8c92f12db2869c3395a3b0502d05e2516446f71f85b5b82841061091e5750505081016020016108cb826108d76108bb565b80546020858701810191909152909301928101610903565b60ff1916602087015250506040840192506108cb91508390506108d76108bb565b80fd5b503461016c57600080600319360112610957576109756112ba565b80546001600160a01b031981168255816001600160a01b0360405192167f8be0079c531659141344cd1fd0a4f28419497f9722a3daafe3b4186f6b6457e08284a3f35b503461016c57600080600319360112610957576109d36112ba565b805b6004908154811015610e5b57610a006109ed826101ce565b90546001600160a01b039160031b1c1690565b9183610a2261052a856001600160a01b03166000526005602052604060002090565b6001600160a01b0390818116958615610e4c57600196610a4c61048189546001600160a01b031690565b91604098898051966315ab88c960e31b95868952602096878a8d81855afa998a15610e3f575b8b9a610e1e575b5087908c848089169c168c1495518094819382525afa908115610e11575b8a91610df4575b5016841494898c8315610d825750505047935b8415610d6e57928b9285928a958c979a1415600014610d1a57610b7d9798995083610ada6114f7565b93610af681610ae8876113a9565b906001600160a01b03169052565b610b038c610ae8876113c3565b82159182610cf5575b505080610cee575b15610c405750610b2f6104818692546001600160a01b031690565b92610b64610b486104816002546001600160a01b031690565b95516318cbafe560e01b815297889687958694429386016115e9565b03925af1908115610c33575b8591610c11575b506113c3565b51915b610b956104816002546001600160a01b031690565b9115610c0c5750825b813b15610c085783610bc795610bdd985196879586948593637bfabc8360e01b85528401611654565b03925af18015610bfb575b610be2575b50611384565b6109d5565b80610bef610bf592610285565b80610161565b38610bd7565b610c0361140e565b610bd2565b8380fd5b610b9e565b610c2d91503d8087833e610c2581836102a6565b810190611532565b38610b77565b610c3b61140e565b610b70565b9095939080610ce6575b15610c9a5750610c67610481610b6496546001600160a01b031690565b91610c7d6104816002546001600160a01b031690565b918d5196879586948593637ff36ab560e01b855242928501611622565b9294610cb16104818692546001600160a01b031690565b92610b64610cca6104816002546001600160a01b031690565b95516338ed173960e01b815297889687958694429386016115e9565b508715610c4a565b5088610b14565b610d1391610d0d61048187546001600160a01b031690565b90611782565b3885610b0c565b9450505092505092919215600014610d5057610d4b90610d456104816002546001600160a01b031690565b8361186d565b610b80565b610d4b90610d696104816002546001600160a01b031690565b611950565b50505050505050505050610bdd9150611384565b516370a0823160e01b8152309181019182529082908290819060200103818c5afa918215610de7575b8a92610dba575b505093610ab1565b610dd99250803d10610de0575b610dd181836102a6565b8101906114e8565b3880610db2565b503d610dc7565b610def61140e565b610dab565b610e0b9150873d89116105aa5761059b81836102a6565b38610a9e565b610e1961140e565b610a97565b88919a50610e3890823d84116105aa5761059b81836102a6565b9990610a79565b610e4761140e565b610a72565b5050505050610bdd9150611384565b82604051f35b503461016c57600036600319011261016c5760206001600160a01b0360005416604051908152f35b503461016c57600036600319011261016c5760206001600160a01b0360015416604051908152f35b503461016c57602036600319011261016c576020600435610ed1816102ef565b6001600160a01b038091166000526005825260406000205416604051908152f35b503461016c5760208060031936011261016c57600490813591610f14836102ef565b610f1c6112ba565b60005b81548110156110395780610f386109ed610f96936101ce565b8386610f4f6104816001546001600160a01b031690565b92876040948551948580926315ab88c960e31b82525afa92831561102c575b60009361100d575b50876001600160a01b0380831694168403610f9b575b5050505050611384565b610f1f565b93516370a0823160e01b815230888201908152610fd795919485918290819060200103915afa928315611000575b600093610fe1575b5061186d565b3880868187610f8c565b610ff9919350883d8a11610de057610dd181836102a6565b9138610fd1565b61100861140e565b610fc9565b611025919350883d8a116105aa5761059b81836102a6565b9138610f76565b61103461140e565b610f6e565b6001600160a01b038416ff5b503461016c57602036600319011261016c57600435611063816102ef565b61106b6112ba565b6001600160a01b038091169081156110bd57600091825491816001600160a01b0319841617845560405192167f8be0079c531659141344cd1fd0a4f28419497f9722a3daafe3b4186f6b6457e08484a3f35b60405162461bcd60e51b815260206004820152602660248201527f4f776e61626c653a206e6577206f776e657220697320746865207a65726f206160448201526564647265737360d01b6064820152608490fd5b503461016c57600080600319360112610957578081600480549360019261114261048185546001600160a01b031690565b915b868110611159575b6040518615158152602090f35b6111656109ed826101ce565b60409081516315ab88c960e31b8152602090818189818a5afa9081156112ad575b8691611290575b506111c061048161052a6001600160a01b0380871694168414956001600160a01b03166000526005602052604060002090565b156112835782159384611217575b5050508115611200575b506111eb576111e690611384565b611144565b5050505090506108d79150388080808061114c565b90508061120e575b386111d8565b50471515611208565b516370a0823160e01b8152308982019081529394509192839183918290819060200103915afa918215611276575b8592611259575b50501515903880806111ce565b61126f9250803d10610de057610dd181836102a6565b388061124c565b61127e61140e565b611245565b505050506111e690611384565b6112a79150823d84116105aa5761059b81836102a6565b3861118d565b6112b561140e565b611186565b6001600160a01b036000541633036112ce57565b606460405162461bcd60e51b815260206004820152602060248201527f4f776e61626c653a2063616c6c6572206973206e6f7420746865206f776e65726044820152fd5b1561131957565b60405162461bcd60e51b815260206004820152602f60248201527f546f6b656e7320696e20616e6420746f6b656e73206f7574206e6f74206d617460448201527f6368696e6720696e206c656e67746800000000000000000000000000000000006064820152608490fd5b60001981146113935760010190565b634e487b7160e01b600052601160045260246000fd5b6020908051156113b7570190565b6113bf6101b7565b0190565b6040908051600110156113b7570190565b60209181518110156113e9575b60051b010190565b6113f16101b7565b6113e1565b9081602091031261016c575161140b816102ef565b90565b506040513d6000823e3d90fd5b1561142257565b60405162461bcd60e51b815260206004820152601260248201527f4475706c696361746520746f6b656e20696e00000000000000000000000000006044820152606490fd5b6001600160a01b03600454680100000000000000008110156114db575b60018101806004558110156114ce575b60046000527f8a35acfbc15ff81a39ae7d344fd709f28e8600b4aa8c65c6b64bfe7fe36bd19b0191166001600160a01b0319825416179055565b6114d66101b7565b611494565b6114e361026e565b611484565b9081602091031261016c575190565b604051906060820182811067ffffffffffffffff821117611525575b60405260028252604082602036910137565b61152d61026e565b611513565b602090818184031261016c5780519067ffffffffffffffff821161016c57019180601f8401121561016c578251611568816102c8565b9361157660405195866102a6565b818552838086019260051b82010192831161016c578301905b82821061159d575050505090565b8151815290830190830161158f565b90815180825260208080930193019160005b8281106115cc575050505090565b83516001600160a01b0316855293810193928101926001016115be565b906116176080936001600160a01b03929796959784526000602085015260a0604085015260a08401906115ac565b951660608201520152565b6001600160a01b0361164960609396959496600084526080602085015260808401906115ac565b951660408201520152565b9291909260608152600060035461166a816107ec565b9081606085015260019081811690816000146116ff57506001146116a5575b50506001600160a01b03909416602082015260400152565b0152565b6003600090815292507fc2575a0e9e593c00f959f8c92f12db2869c3395a3b0502d05e2516446f71f85b5b8284106116e95750505081016080016116a16040611689565b80546080858701015260209093019281016116d0565b60ff19166080860152505060a0830191506116a190506040611689565b3d15611765573d9067ffffffffffffffff8211611758575b6040519161174c601f8201601f1916602001846102a6565b82523d6000602084013e565b61176061026e565b611734565b606090565b9081602091031261016c5751801515810361016c5790565b60405163095ea7b360e01b602082019081526001600160a01b039093166024820152604481019390935260009283929083906117cb81606481015b03601f1981018352826102a6565b51925af16117d761171c565b8161183e575b50156117e557565b60405162461bcd60e51b815260206004820152602b60248201527f5472616e7366657248656c7065723a3a73616665417070726f76653a2061707060448201526a1c9bdd994819985a5b195960aa1b6064820152608490fd5b8051801592508215611853575b5050386117dd565b611866925060208091830101910161176a565b388061184b565b60405163a9059cbb60e01b602082019081526001600160a01b039093166024820152604481019390935260009283929083906118ac81606481016117bd565b51925af16118b861171c565b81611921575b50156118c657565b60405162461bcd60e51b815260206004820152602d60248201527f5472616e7366657248656c7065723a3a736166655472616e736665723a20747260448201526c185b9cd9995c8819985a5b1959609a1b6064820152608490fd5b8051801592508215611936575b5050386118be565b611949925060208091830101910161176a565b388061192e565b600080929181926040519183602084019380851067ffffffffffffffff8611176119f7575b84604052525af161198461171c565b501561198c57565b60405162461bcd60e51b815260206004820152603460248201527f5472616e7366657248656c7065723a3a736166655472616e736665724554483a60448201527f20455448207472616e73666572206661696c65640000000000000000000000006064820152608490fd5b6119ff61026e565b61197556fea2646970667358221220fb9993a6f9bb207274183b86115eba8a32408068ee7eb8c939ad00b4e76357fa64736f6c634300080e0033",
  "devdoc": {
    "kind": "dev",
    "methods": {
      "owner()": {
        "details": "Returns the address of the current owner."
      },
      "renounceOwnership()": {
        "details": "Leaves the contract without owner. It will not be possible to call `onlyOwner` functions anymore. Can only be called by the current owner. NOTE: Renouncing ownership will leave the contract without an owner, thereby removing any functionality that is only available to the owner."
      },
      "transferOwnership(address)": {
        "details": "Transfers ownership of the contract to a new account (`newOwner`). Can only be called by the current owner."
      }
    },
    "version": 1
  },
  "userdoc": {
    "kind": "user",
    "methods": {},
    "version": 1
  },
  "storageLayout": {
    "storage": [
      {
        "astId": 8357,
        "contract": "contracts/vault/VaultProxy.sol:VaultProxy",
        "label": "_owner",
        "offset": 0,
        "slot": "0",
        "type": "t_address"
      },
      {
        "astId": 25183,
        "contract": "contracts/vault/VaultProxy.sol:VaultProxy",
        "label": "swapRouter",
        "offset": 0,
        "slot": "1",
        "type": "t_contract(IUniswapV2Router01)8117"
      },
      {
        "astId": 25186,
        "contract": "contracts/vault/VaultProxy.sol:VaultProxy",
        "label": "targetVault",
        "offset": 0,
        "slot": "2",
        "type": "t_contract(Vault)25170"
      },
      {
        "astId": 25188,
        "contract": "contracts/vault/VaultProxy.sol:VaultProxy",
        "label": "balanceName",
        "offset": 0,
        "slot": "3",
        "type": "t_string_storage"
      },
      {
        "astId": 25191,
        "contract": "contracts/vault/VaultProxy.sol:VaultProxy",
        "label": "tokensIn",
        "offset": 0,
        "slot": "4",
        "type": "t_array(t_address)dyn_storage"
      },
      {
        "astId": 25195,
        "contract": "contracts/vault/VaultProxy.sol:VaultProxy",
        "label": "tokenInToOut",
        "offset": 0,
        "slot": "5",
        "type": "t_mapping(t_address,t_address)"
      }
    ],
    "types": {
      "t_address": {
        "encoding": "inplace",
        "label": "address",
        "numberOfBytes": "20"
      },
      "t_array(t_address)dyn_storage": {
        "base": "t_address",
        "encoding": "dynamic_array",
        "label": "address[]",
        "numberOfBytes": "32"
      },
      "t_contract(IUniswapV2Router01)8117": {
        "encoding": "inplace",
        "label": "contract IUniswapV2Router01",
        "numberOfBytes": "20"
      },
      "t_contract(Vault)25170": {
        "encoding": "inplace",
        "label": "contract Vault",
        "numberOfBytes": "20"
      },
      "t_mapping(t_address,t_address)": {
        "encoding": "mapping",
        "key": "t_address",
        "label": "mapping(address => address)",
        "numberOfBytes": "32",
        "value": "t_address"
      },
      "t_string_storage": {
        "encoding": "bytes",
        "label": "string",
        "numberOfBytes": "32"
      }
    }
  }
}