{
  "address": "0x74fC9dc5030b22FD4DCb5C40F82E5fCd05D68888",
  "abi": [
    {
      "anonymous": false,
      "inputs": [
        {
          "indexed": true,
          "internalType": "address",
          "name": "owner",
          "type": "address"
        },
        {
          "indexed": true,
          "internalType": "address",
          "name": "approved",
          "type": "address"
        },
        {
          "indexed": true,
          "internalType": "uint256",
          "name": "tokenId",
          "type": "uint256"
        }
      ],
      "name": "Approval",
      "type": "event"
    },
    {
      "anonymous": false,
      "inputs": [
        {
          "indexed": true,
          "internalType": "address",
          "name": "owner",
          "type": "address"
        },
        {
          "indexed": true,
          "internalType": "address",
          "name": "operator",
          "type": "address"
        },
        {
          "indexed": false,
          "internalType": "bool",
          "name": "approved",
          "type": "bool"
        }
      ],
      "name": "ApprovalForAll",
      "type": "event"
    },
    {
      "anonymous": false,
      "inputs": [
        {
          "indexed": false,
          "internalType": "uint8",
          "name": "version",
          "type": "uint8"
        }
      ],
      "name": "Initialized",
      "type": "event"
    },
    {
      "anonymous": false,
      "inputs": [
        {
          "indexed": true,
          "internalType": "address",
          "name": "previousOwner",
          "type": "address"
        },
        {
          "indexed": true,
          "internalType": "address",
          "name": "newOwner",
          "type": "address"
        }
      ],
      "name": "OwnershipTransferred",
      "type": "event"
    },
    {
      "anonymous": false,
      "inputs": [
        {
          "indexed": true,
          "internalType": "address",
          "name": "from",
          "type": "address"
        },
        {
          "indexed": true,
          "internalType": "address",
          "name": "to",
          "type": "address"
        },
        {
          "indexed": true,
          "internalType": "uint256",
          "name": "tokenId",
          "type": "uint256"
        }
      ],
      "name": "Transfer",
      "type": "event"
    },
    {
      "inputs": [],
      "name": "MAX_SALE_AMOUNT",
      "outputs": [
        {
          "internalType": "uint256",
          "name": "",
          "type": "uint256"
        }
      ],
      "stateMutability": "view",
      "type": "function"
    },
    {
      "inputs": [],
      "name": "MINT_PRICE",
      "outputs": [
        {
          "internalType": "uint256",
          "name": "",
          "type": "uint256"
        }
      ],
      "stateMutability": "view",
      "type": "function"
    },
    {
      "inputs": [
        {
          "internalType": "address",
          "name": "to",
          "type": "address"
        },
        {
          "internalType": "uint256",
          "name": "tokenId",
          "type": "uint256"
        }
      ],
      "name": "approve",
      "outputs": [],
      "stateMutability": "nonpayable",
      "type": "function"
    },
    {
      "inputs": [
        {
          "internalType": "address",
          "name": "owner",
          "type": "address"
        }
      ],
      "name": "balanceOf",
      "outputs": [
        {
          "internalType": "uint256",
          "name": "",
          "type": "uint256"
        }
      ],
      "stateMutability": "view",
      "type": "function"
    },
    {
      "inputs": [
        {
          "internalType": "uint256",
          "name": "tokenId",
          "type": "uint256"
        }
      ],
      "name": "getApproved",
      "outputs": [
        {
          "internalType": "address",
          "name": "",
          "type": "address"
        }
      ],
      "stateMutability": "view",
      "type": "function"
    },
    {
      "inputs": [
        {
          "internalType": "string",
          "name": "name",
          "type": "string"
        },
        {
          "internalType": "string",
          "name": "symbol",
          "type": "string"
        },
        {
          "internalType": "address",
          "name": "wETH",
          "type": "address"
        },
        {
          "internalType": "address",
          "name": "ticket",
          "type": "address"
        },
        {
          "internalType": "uint256",
          "name": "mintPrice",
          "type": "uint256"
        }
      ],
      "name": "initialize",
      "outputs": [],
      "stateMutability": "nonpayable",
      "type": "function"
    },
    {
      "inputs": [
        {
          "internalType": "address",
          "name": "owner",
          "type": "address"
        },
        {
          "internalType": "address",
          "name": "operator",
          "type": "address"
        }
      ],
      "name": "isApprovedForAll",
      "outputs": [
        {
          "internalType": "bool",
          "name": "",
          "type": "bool"
        }
      ],
      "stateMutability": "view",
      "type": "function"
    },
    {
      "inputs": [],
      "name": "isEnabledNextScenario",
      "outputs": [
        {
          "internalType": "bool",
          "name": "",
          "type": "bool"
        }
      ],
      "stateMutability": "view",
      "type": "function"
    },
    {
      "inputs": [],
      "name": "isEnabledPublicMint",
      "outputs": [
        {
          "internalType": "bool",
          "name": "",
          "type": "bool"
        }
      ],
      "stateMutability": "view",
      "type": "function"
    },
    {
      "inputs": [],
      "name": "isEnabledTicketMint",
      "outputs": [
        {
          "internalType": "bool",
          "name": "",
          "type": "bool"
        }
      ],
      "stateMutability": "view",
      "type": "function"
    },
    {
      "inputs": [],
      "name": "isEnabledWhitelistMint",
      "outputs": [
        {
          "internalType": "bool",
          "name": "",
          "type": "bool"
        }
      ],
      "stateMutability": "view",
      "type": "function"
    },
    {
      "inputs": [],
      "name": "isRevealed",
      "outputs": [
        {
          "internalType": "bool",
          "name": "",
          "type": "bool"
        }
      ],
      "stateMutability": "view",
      "type": "function"
    },
    {
      "inputs": [],
      "name": "merkleRoot",
      "outputs": [
        {
          "internalType": "bytes32",
          "name": "",
          "type": "bytes32"
        }
      ],
      "stateMutability": "view",
      "type": "function"
    },
    {
      "inputs": [],
      "name": "mintIndexForSale",
      "outputs": [
        {
          "internalType": "uint256",
          "name": "",
          "type": "uint256"
        }
      ],
      "stateMutability": "view",
      "type": "function"
    },
    {
      "inputs": [],
      "name": "mintStartBlockNumber",
      "outputs": [
        {
          "internalType": "uint256",
          "name": "",
          "type": "uint256"
        }
      ],
      "stateMutability": "view",
      "type": "function"
    },
    {
      "inputs": [],
      "name": "mintingInformation",
      "outputs": [
        {
          "internalType": "uint256[3]",
          "name": "",
          "type": "uint256[3]"
        }
      ],
      "stateMutability": "view",
      "type": "function"
    },
    {
      "inputs": [],
      "name": "name",
      "outputs": [
        {
          "internalType": "string",
          "name": "",
          "type": "string"
        }
      ],
      "stateMutability": "view",
      "type": "function"
    },
    {
      "inputs": [],
      "name": "owner",
      "outputs": [
        {
          "internalType": "address",
          "name": "",
          "type": "address"
        }
      ],
      "stateMutability": "view",
      "type": "function"
    },
    {
      "inputs": [
        {
          "internalType": "uint256",
          "name": "tokenId",
          "type": "uint256"
        }
      ],
      "name": "ownerOf",
      "outputs": [
        {
          "internalType": "address",
          "name": "",
          "type": "address"
        }
      ],
      "stateMutability": "view",
      "type": "function"
    },
    {
      "inputs": [
        {
          "internalType": "uint256",
          "name": "requestedCount",
          "type": "uint256"
        }
      ],
      "name": "publicMint",
      "outputs": [],
      "stateMutability": "nonpayable",
      "type": "function"
    },
    {
      "inputs": [],
      "name": "renounceOwnership",
      "outputs": [],
      "stateMutability": "nonpayable",
      "type": "function"
    },
    {
      "inputs": [
        {
          "internalType": "uint256",
          "name": "tokenId",
          "type": "uint256"
        },
        {
          "internalType": "string",
          "name": "tokenHash",
          "type": "string"
        }
      ],
      "name": "repairTokenURI",
      "outputs": [],
      "stateMutability": "nonpayable",
      "type": "function"
    },
    {
      "inputs": [
        {
          "internalType": "uint256",
          "name": "",
          "type": "uint256"
        }
      ],
      "name": "revealChecked",
      "outputs": [
        {
          "internalType": "bool",
          "name": "",
          "type": "bool"
        }
      ],
      "stateMutability": "view",
      "type": "function"
    },
    {
      "inputs": [
        {
          "internalType": "uint256[]",
          "name": "tokenIds",
          "type": "uint256[]"
        },
        {
          "internalType": "string[]",
          "name": "tokenHash",
          "type": "string[]"
        }
      ],
      "name": "revealTokens",
      "outputs": [],
      "stateMutability": "nonpayable",
      "type": "function"
    },
    {
      "inputs": [
        {
          "internalType": "address",
          "name": "from",
          "type": "address"
        },
        {
          "internalType": "address",
          "name": "to",
          "type": "address"
        },
        {
          "internalType": "uint256",
          "name": "tokenId",
          "type": "uint256"
        }
      ],
      "name": "safeTransferFrom",
      "outputs": [],
      "stateMutability": "nonpayable",
      "type": "function"
    },
    {
      "inputs": [
        {
          "internalType": "address",
          "name": "from",
          "type": "address"
        },
        {
          "internalType": "address",
          "name": "to",
          "type": "address"
        },
        {
          "internalType": "uint256",
          "name": "tokenId",
          "type": "uint256"
        },
        {
          "internalType": "bytes",
          "name": "data",
          "type": "bytes"
        }
      ],
      "name": "safeTransferFrom",
      "outputs": [],
      "stateMutability": "nonpayable",
      "type": "function"
    },
    {
      "inputs": [
        {
          "internalType": "address",
          "name": "operator",
          "type": "address"
        },
        {
          "internalType": "bool",
          "name": "approved",
          "type": "bool"
        }
      ],
      "name": "setApprovalForAll",
      "outputs": [],
      "stateMutability": "nonpayable",
      "type": "function"
    },
    {
      "inputs": [
        {
          "internalType": "string",
          "name": "_newBaseURI",
          "type": "string"
        }
      ],
      "name": "setBaseURI",
      "outputs": [],
      "stateMutability": "nonpayable",
      "type": "function"
    },
    {
      "inputs": [
        {
          "internalType": "bytes32",
          "name": "_merkleRoot",
          "type": "bytes32"
        }
      ],
      "name": "setMerkleRoot",
      "outputs": [],
      "stateMutability": "nonpayable",
      "type": "function"
    },
    {
      "inputs": [
        {
          "internalType": "address",
          "name": "nextScenario",
          "type": "address"
        }
      ],
      "name": "setNextScenarioConenct",
      "outputs": [],
      "stateMutability": "nonpayable",
      "type": "function"
    },
    {
      "inputs": [
        {
          "internalType": "string",
          "name": "_newNotRevealedURI",
          "type": "string"
        }
      ],
      "name": "setNotRevealedURI",
      "outputs": [],
      "stateMutability": "nonpayable",
      "type": "function"
    },
    {
      "inputs": [
        {
          "internalType": "bool",
          "name": "_state",
          "type": "bool"
        }
      ],
      "name": "setPublicMintState",
      "outputs": [],
      "stateMutability": "nonpayable",
      "type": "function"
    },
    {
      "inputs": [
        {
          "internalType": "bool",
          "name": "_state",
          "type": "bool"
        }
      ],
      "name": "setRevealState",
      "outputs": [],
      "stateMutability": "nonpayable",
      "type": "function"
    },
    {
      "inputs": [
        {
          "internalType": "bool",
          "name": "_state",
          "type": "bool"
        }
      ],
      "name": "setTicketMintState",
      "outputs": [],
      "stateMutability": "nonpayable",
      "type": "function"
    },
    {
      "inputs": [
        {
          "internalType": "bool",
          "name": "_state",
          "type": "bool"
        }
      ],
      "name": "setWhitelistMintState",
      "outputs": [],
      "stateMutability": "nonpayable",
      "type": "function"
    },
    {
      "inputs": [
        {
          "internalType": "uint256",
          "name": "mintPrice",
          "type": "uint256"
        }
      ],
      "name": "setupSale",
      "outputs": [],
      "stateMutability": "nonpayable",
      "type": "function"
    },
    {
      "inputs": [
        {
          "internalType": "bytes4",
          "name": "interfaceId",
          "type": "bytes4"
        }
      ],
      "name": "supportsInterface",
      "outputs": [
        {
          "internalType": "bool",
          "name": "",
          "type": "bool"
        }
      ],
      "stateMutability": "view",
      "type": "function"
    },
    {
      "inputs": [],
      "name": "symbol",
      "outputs": [
        {
          "internalType": "string",
          "name": "",
          "type": "string"
        }
      ],
      "stateMutability": "view",
      "type": "function"
    },
    {
      "inputs": [
        {
          "internalType": "uint256",
          "name": "requestedCount",
          "type": "uint256"
        }
      ],
      "name": "ticketMint",
      "outputs": [],
      "stateMutability": "nonpayable",
      "type": "function"
    },
    {
      "inputs": [
        {
          "internalType": "uint256",
          "name": "index",
          "type": "uint256"
        }
      ],
      "name": "tokenByIndex",
      "outputs": [
        {
          "internalType": "uint256",
          "name": "",
          "type": "uint256"
        }
      ],
      "stateMutability": "view",
      "type": "function"
    },
    {
      "inputs": [
        {
          "internalType": "address",
          "name": "owner",
          "type": "address"
        },
        {
          "internalType": "uint256",
          "name": "index",
          "type": "uint256"
        }
      ],
      "name": "tokenOfOwnerByIndex",
      "outputs": [
        {
          "internalType": "uint256",
          "name": "",
          "type": "uint256"
        }
      ],
      "stateMutability": "view",
      "type": "function"
    },
    {
      "inputs": [
        {
          "internalType": "uint256",
          "name": "tokenId",
          "type": "uint256"
        }
      ],
      "name": "tokenURI",
      "outputs": [
        {
          "internalType": "string",
          "name": "",
          "type": "string"
        }
      ],
      "stateMutability": "view",
      "type": "function"
    },
    {
      "inputs": [],
      "name": "totalSupply",
      "outputs": [
        {
          "internalType": "uint256",
          "name": "",
          "type": "uint256"
        }
      ],
      "stateMutability": "view",
      "type": "function"
    },
    {
      "inputs": [
        {
          "internalType": "address",
          "name": "from",
          "type": "address"
        },
        {
          "internalType": "address",
          "name": "to",
          "type": "address"
        },
        {
          "internalType": "uint256",
          "name": "tokenId",
          "type": "uint256"
        }
      ],
      "name": "transferFrom",
      "outputs": [],
      "stateMutability": "nonpayable",
      "type": "function"
    },
    {
      "inputs": [
        {
          "internalType": "address",
          "name": "newOwner",
          "type": "address"
        }
      ],
      "name": "transferOwnership",
      "outputs": [],
      "stateMutability": "nonpayable",
      "type": "function"
    },
    {
      "inputs": [
        {
          "internalType": "uint256",
          "name": "requestedCount",
          "type": "uint256"
        },
        {
          "internalType": "bytes32[]",
          "name": "_merkleProof",
          "type": "bytes32[]"
        }
      ],
      "name": "whitelistMint",
      "outputs": [],
      "stateMutability": "nonpayable",
      "type": "function"
    },
    {
      "inputs": [
        {
          "internalType": "address",
          "name": "",
          "type": "address"
        }
      ],
      "name": "whitelistMintLimit",
      "outputs": [
        {
          "internalType": "uint256",
          "name": "",
          "type": "uint256"
        }
      ],
      "stateMutability": "view",
      "type": "function"
    }
  ],
  "transactionHash": "0x608400591e789d9d58c36d5261419f7db903a929e1a2cbebd80bb112f87721b6",
  "args": [],
  "numDeployments": 1,
  "solcInputHash": "91942d0bfd6efcf2f85da000c34c69e0",
  "bytecode": "0x60808060405234610016576139ae908161001c8239f35b600080fdfe60806040526004361015610013575b600080fd5b60003560e01c806301ffc9a7146103bf57806306fdde03146103b6578063081812fc146103ad57806308f9d226146103a4578063095ea7b31461039b57806318160ddd146103925780631dd8792b146103895780632084ab831461038057806323b872dd14610377578063257a1a631461036e5780632b140d30146103655780632db115441461035c5780632eb4a7ab146103535780632f745c591461034a57806330c19d0a1461034157806337fdc1a7146103385780633a1595dc1461032f57806342842e0e146103265780634f6ccce71461031d57806353de78041461031457806354214f691461030b57806355f804b3146103025780636352211e146102f95780636ce653c2146102f057806370a08231146102e7578063715018a6146102de57806371d46603146102d557806376661e42146102cc5780637cb64759146102c3578063879fbedf146102ba5780638b2e9809146102b15780638da5cb5b146102a857806395d89b411461029f578063a0d90f7614610296578063a22cb4651461028d578063a305722714610284578063b61c2b101461027b578063b88d4fde14610272578063c002d23d14610269578063c6a768f414610260578063c87b56dd14610257578063c9aba0aa1461024e578063d2cab05614610245578063d566e7a81461023c578063e985e9c514610233578063f2c4ce1e1461022a5763f2fde38b1461022257600080fd5b61000e611c57565b5061000e611b6d565b5061000e611b0a565b5061000e611ae2565b5061000e61198c565b5061000e611858565b5061000e611824565b5061000e6117de565b5061000e6117be565b5061000e61175d565b5061000e61173a565b5061000e6115e0565b5061000e6114c4565b5061000e61149d565b5061000e6113f5565b5061000e6113cd565b5061000e61138e565b5061000e61134c565b5061000e611329565b5061000e611309565b5061000e6112e9565b5061000e611289565b5061000e61125d565b5061000e611202565b5061000e6111e3565b5061000e6110d3565b5061000e610fae565b5061000e610e17565b5061000e610d3a565b5061000e610cf2565b5061000e610cca565b5061000e610ca2565b5061000e610c66565b5061000e610ba8565b5061000e610b88565b5061000e610a4b565b5061000e6108d5565b5061000e6108b5565b5061000e61088b565b5061000e610823565b5061000e61078f565b5061000e610770565b5061000e61067b565b5061000e6105df565b5061000e6105a5565b5061000e6104c8565b5061000e6103da565b6001600160e01b031981160361000e57565b503461000e57602036600319011261000e5760206004356103fa816103c8565b63ffffffff60e01b1663780e9d6360e01b8114908115610420575b506040519015158152f35b6380ac58cd60e01b811491508115610452575b8115610441575b5038610415565b6301ffc9a760e01b1490503861043a565b635b5e139f60e01b81149150610433565b91908251928382526000905b84821061049c57509280602093941161048f575b601f01601f1916010190565b6000838284010152610483565b9060209081808285010151908286010152019061046f565b9060206104c5928181520190610463565b90565b503461000e576000806003193601126105a25760405190806065546104ec81611e6c565b808552916001918083169081156105815750600114610526575b6105228561051681870382611013565b604051918291826104b4565b0390f35b9250606583527f8ff97419363ffd7000167f130ef7168fbea05faf9251824ca5043f113cc6a7c75b82841061056957505050810160200161051682610522610506565b8054602085870181019190915290930192810161054e565b60ff1916602087015250506040840192506105169150839050610522610506565b80fd5b503461000e57602036600319011261000e5760206105c4600435611fd5565b6001600160a01b0360405191168152f35b8015150361000e57565b503461000e57602036600319011261000e576004356105fd816105d5565b610605611ce5565b610130805462ff0000191691151560101b62ff000016919091179055005b600435906001600160a01b038216820361000e57565b602435906001600160a01b038216820361000e57565b604435906001600160a01b038216820361000e57565b606435906001600160a01b038216820361000e57565b503461000e57604036600319011261000e57610695610623565b6024356106a181611e4a565b916001600160a01b038084168091831614610721576106d3936106ce9133149081156106d5575b50611f63565b6123e2565b005b61071b9150610714906106fc33916001600160a01b0316600052606a602052604060002090565b906001600160a01b0316600052602052604060002090565b5460ff1690565b386106c8565b60405162461bcd60e51b815260206004820152602160248201527f4552433732313a20617070726f76616c20746f2063757272656e74206f776e656044820152603960f91b6064820152608490fd5b503461000e57600036600319011261000e57602060cb54604051908152f35b503461000e57600036600319011261000e5760606040516107af81610fea565b3690376040516060810181811067ffffffffffffffff821117610816575b60405261012d54815261013254906020918282015261012f54604082015260405191826000905b6003821061080157606085f35b828060019286518152019401910190926107f4565b61081e610fd3565b6107cd565b503461000e57602036600319011261000e57600435600052610137602052602060ff604060002054166040519015158152f35b606090600319011261000e576001600160a01b0390600435828116810361000e5791602435908116810361000e579060443590565b503461000e576106d361089d36610856565b916108b06108ab8433612114565b612017565b612249565b503461000e57600036600319011261000e57602061013254604051908152f35b503461000e57602036600319011261000e576004356109036108fe6101305460ff9060101c1690565b612c9a565b61012d9061092061091582845461223d565b610132541015612ce6565b61098960208261094861093c61013b546001600160a01b031690565b6001600160a01b031690565b60fb546040516323b872dd60e01b81523360048201526001600160a01b03909116602482015260448101929092529092839190829060009082906064820190565b03925af18015610a3e575b610a10575b5060005b8181106109b8576106d36109b283855461223d565b61012d55565b806109d06109ca610a0b93865461223d565b33612d57565b6109e384546109dd611ea6565b90612e8a565b610a066109fc8554600052610137602052604060002090565b805460ff19169055565b612d47565b61099d565b610a309060203d8111610a37575b610a288183611013565b810190612d32565b5038610999565b503d610a1e565b610a4661248c565b610994565b503461000e57602036600319011261000e57600435610a79610a746101305460ff9060081c1690565b613187565b61012d90610a8b61091582845461223d565b610afb6020610aa661093c61013a546001600160a01b031690565b60fb546001600160a01b031690610ac061012f54866131d3565b6040516323b872dd60e01b81523360048201526001600160a01b03909316602484015260448301529092839190829060009082906064820190565b03925af18015610b7b575b610b5d575b5060005b818110610b4657610b246109b283855461223d565b43610b43336001600160a01b0316600052610135602052604060002090565b55005b806109d06109ca610b5893865461223d565b610b0f565b610b749060203d8111610a3757610a288183611013565b5038610b0b565b610b8361248c565b610b06565b503461000e57600036600319011261000e57602061013154604051908152f35b503461000e57604036600319011261000e57610bc2610623565b60243590610bcf81611d87565b821015610c0d576001600160a01b031660005260c9602052604060002090600052602052610522604060002054604051918291829190602083019252565b60405162461bcd60e51b815260206004820152602b60248201527f455243373231456e756d657261626c653a206f776e657220696e646578206f7560448201526a74206f6620626f756e647360a81b6064820152608490fd5b503461000e57602036600319011261000e576001600160a01b03610c88610623565b166000526101386020526020604060002054604051908152f35b503461000e57600036600319011261000e57602060ff6101305460081c166040519015158152f35b503461000e57600036600319011261000e57602060ff6101305460181c166040519015158152f35b503461000e576106d3610d0436610856565b90604051926020840184811067ffffffffffffffff821117610d2d575b60405260008452612089565b610d35610fd3565b610d21565b503461000e57602036600319011261000e5760043560cb54811015610d8c5760cb6000527fa7ce836d032b2bf62b7e2097a8e0a6d8aeb35405ad15271e96d3b0188a1d06fb0154604051908152602090f35b60405162461bcd60e51b815260206004820152602c60248201527f455243373231456e756d657261626c653a20676c6f62616c20696e646578206f60448201526b7574206f6620626f756e647360a01b6064820152608490fd5b9181601f8401121561000e5782359167ffffffffffffffff831161000e576020808501948460051b01011161000e57565b503461000e5760408060031936011261000e5767ffffffffffffffff60043581811161000e57610e4b903690600401610de6565b909160243590811161000e57610e65903690600401610de6565b6101309391935490610e7e600160ff841615151461329c565b610e94610e8d61013354611e6c565b15156132e8565b610ea9600160ff602094851c16151514613334565b60005b848110610eb557005b610fa990610eda33610ed461093c610ece858b8b61338a565b35611e4a565b146133a8565b610f0e610f08610f03610714610ef1858b8b61338a565b35600052610137602052604060002090565b151590565b156133f4565b610fa0610f5d610f1f83868b613440565b610f4f610f3e8d94939451948593610f388c86016131f2565b9161328e565b64173539b7b760d91b815260050190565b03601f198101835282611013565b610f7b610f6e610ef1858b8b61338a565b805460ff19166001179055565b610f9b610f89848a8a61338a565b35600052610136602052604060002090565b612bac565b610a0633613490565b610eac565b503461000e57600036600319011261000e57602060ff61013054166040519015158152f35b50634e487b7160e01b600052604160045260246000fd5b6060810190811067ffffffffffffffff82111761100657604052565b61100e610fd3565b604052565b90601f8019910116810190811067ffffffffffffffff82111761100657604052565b60209067ffffffffffffffff8111611053575b601f01601f19160190565b61105b610fd3565b611048565b92919261106c82611035565b9161107a6040519384611013565b82948184528183011161000e578281602093846000960137010152565b602060031982011261000e576004359067ffffffffffffffff821161000e578060238301121561000e578160246104c593600401359101611060565b503461000e576110e236611097565b6110ea611ce5565b805167ffffffffffffffff81116111d6575b610133906111138161110e8454611e6c565b61289a565b602080601f831160011461114e5750819293600092611143575b50508160011b916000199060031b1c1916179055005b01519050388061112d565b90601f198316946111826101336000527f92e985329fb94cc1b424ebb0f7f2929b6d27383ca94c0ec71c44fb48bdf96d2c90565b926000905b8782106111be5750508360019596106111a5575b505050811b019055005b015160001960f88460031b161c1916905538808061119b565b80600185968294968601518155019501930190611187565b6111de610fd3565b6110fc565b503461000e57602036600319011261000e5760206105c4600435611e4a565b503461000e57602036600319011261000e5761121c610623565b611224611ce5565b6001600160a01b0361013991166001600160a01b031982541617905561013064010000000064ff00000000198254161790556000604051f35b503461000e57602036600319011261000e57602061128161127c610623565b611d87565b604051908152f35b503461000e576000806003193601126105a2576112a4611ce5565b60fb546001600160a01b0319811660fb55816001600160a01b0360405192167f8be0079c531659141344cd1fd0a4f28419497f9722a3daafe3b4186f6b6457e08284a3f35b503461000e57600036600319011261000e57602061012e54604051908152f35b503461000e57600036600319011261000e57602061012d54604051908152f35b503461000e57602036600319011261000e57611343611ce5565b60043561013155005b503461000e57602036600319011261000e5760043561136a816105d5565b611372611ce5565b610130805461ff00191691151560081b61ff0016919091179055005b503461000e57602036600319011261000e576004356113ac816105d5565b6113b4611ce5565b6101309060ff8019835416911515161790556000604051f35b503461000e57600036600319011261000e5760206001600160a01b0360fb5416604051908152f35b503461000e576000806003193601126105a257604051908060665461141981611e6c565b808552916001918083169081156105815750600114611442576105228561051681870382611013565b9250606683527f46501879b8ca8525e8c2fd519e2fbfcfa2ebea26501294aa02cbfcfb12e943545b82841061148557505050810160200161051682610522610506565b8054602085870181019190915290930192810161146a565b503461000e57600036600319011261000e5760206101305460ff60405191831c1615158152f35b503461000e57604036600319011261000e576114de610623565b6024356114ea816105d5565b6001600160a01b0382169182331461156d578161152a61153b9233600052606a6020526040600020906001600160a01b0316600052602052604060002090565b9060ff801983541691151516179055565b604051901515815233907f17307eab39ab6107e8899845ad3d59bd9653f200f220920489ca2b5937696c3190602090a3005b60405162461bcd60e51b815260206004820152601960248201527f4552433732313a20617070726f766520746f2063616c6c6572000000000000006044820152606490fd5b9181601f8401121561000e5782359167ffffffffffffffff831161000e576020838186019501011161000e57565b503461000e57604036600319011261000e5767ffffffffffffffff60243581811161000e576116139036906004016115b2565b919061161d611ce5565b61165460056040518095602094816116368785016131f2565b9182370164173539b7b760d91b815203601a19810186520184611013565b600091600435835261013682526040832091845191821161172d575b6116848261167e8554611e6c565b85612a60565b80601f83116001146116c057508394829394926116b5575b50508160011b916000199060031b1c1916179055604051f35b01519050388061169c565b90601f198316956116d685600052602060002090565b9286905b888210611715575050836001959697106116fc575b505050811b019055604051f35b015160001960f88460031b161c191690553880806116ef565b806001859682949686015181550195019301906116da565b611735610fd3565b611670565b503461000e57602036600319011261000e57611754611ce5565b60043561012f55005b503461000e57608036600319011261000e57611777610623565b61177f610639565b6064359167ffffffffffffffff831161000e573660238401121561000e576117b46106d3933690602481600401359101611060565b9160443591612089565b503461000e57600036600319011261000e57602061012f54604051908152f35b503461000e57602036600319011261000e576004356117fc816105d5565b611804611ce5565b610130805463ff000000191691151560181b63ff00000016919091179055005b503461000e57602036600319011261000e576105226118446004356134f6565b604051918291602083526020830190610463565b503461000e5760a036600319011261000e5767ffffffffffffffff60043581811161000e5761188b9036906004016115b2565b919060243591821161000e576118a86119009236906004016115b2565b6118b061064f565b906118b9610665565b92600054966118df60ff8960081c16158099819a61197e575b811561195e575b506125ea565b876118f2600160ff196000541617600055565b611945575b6084359561265c565b61190657005b61191661ff001960005416600055565b604051600181527f7f26b83ff96e1f2b6a682f133852f6798a09c465da95921460cefb384740249890602090a1005b61195961010061ff00196000541617600055565b6118f7565b303b15915081611970575b50386118d9565b6001915060ff161438611969565b600160ff82161091506118d2565b503461000e57604036600319011261000e5760043560243567ffffffffffffffff811161000e57611a516119c7611a56923690600401610de6565b610130546119da9060181c60ff16612fd9565b611a0e601e611a0787611a01336001600160a01b0316600052610138602052604060002090565b5461223d565b1115613030565b6040513360601b6bffffffffffffffffffffffff191660208201908152611a4c91611a3c8160348101610f4f565b519020926101315492369161307c565b61312d565b6130e1565b60005b818110611aa3576106d36109b283611a8981611a01336001600160a01b0316600052610138602052604060002090565b336000908152610138602052604090205561012d5461223d565b611add90610a066109fc61012d611abe6109ca85835461223d565b611acb81546109dd611ea6565b54600052610137602052604060002090565b611a59565b503461000e57600036600319011261000e57602060ff6101305460101c166040519015158152f35b503461000e57604036600319011261000e57602060ff611b61611b2b610623565b6001600160a01b03611b3b610639565b9116600052606a84526040600020906001600160a01b0316600052602052604060002090565b54166040519015158152f35b503461000e57611b7c36611097565b611b84611ce5565b805167ffffffffffffffff8111611c4a575b61013490611bad81611ba88454611e6c565b61290c565b602080601f8311600114611bdc57508192936000926111435750508160011b916000199060031b1c1916179055005b90601f19831694611c106101346000527fe1c588fe1269da19c317f679b04e226f5e48296f9b2c8351127eb010907c472f90565b926000905b878210611c325750508360019596106111a557505050811b019055005b80600185968294968601518155019501930190611c15565b611c52610fd3565b611b96565b503461000e57602036600319011261000e57611c71610623565b611c79611ce5565b6001600160a01b03811615611c91576106d390611d3d565b60405162461bcd60e51b815260206004820152602660248201527f4f776e61626c653a206e6577206f776e657220697320746865207a65726f206160448201526564647265737360d01b6064820152608490fd5b6001600160a01b0360fb54163303611cf957565b606460405162461bcd60e51b815260206004820152602060248201527f4f776e61626c653a2063616c6c6572206973206e6f7420746865206f776e65726044820152fd5b60fb54906001600160a01b0380911691826001600160a01b031982161760fb55167f8be0079c531659141344cd1fd0a4f28419497f9722a3daafe3b4186f6b6457e06000604051a3565b6001600160a01b03168015611da757600052606860205260406000205490565b60405162461bcd60e51b815260206004820152602960248201527f4552433732313a2061646472657373207a65726f206973206e6f7420612076616044820152683634b21037bbb732b960b91b6064820152608490fd5b15611e0557565b60405162461bcd60e51b815260206004820152601860248201527f4552433732313a20696e76616c696420746f6b656e20494400000000000000006044820152606490fd5b60005260676020526001600160a01b03604060002054166104c5811515611dfe565b90600182811c92168015611e9c575b6020831014611e8657565b634e487b7160e01b600052602260045260246000fd5b91607f1691611e7b565b60405190600082610134918254611ebc81611e6c565b80845293600191808316908115611f445750600114611ee6575b5050611ee492500383611013565b565b600090815291507fe1c588fe1269da19c317f679b04e226f5e48296f9b2c8351127eb010907c472f5b848310611f295750611ee493505081016020013880611ed6565b81935090816020925483858a01015201910190918592611f0f565b9550505050505060ff19166020830152611ee482604081013880611ed6565b15611f6a57565b60405162461bcd60e51b815260206004820152603e60248201527f4552433732313a20617070726f76652063616c6c6572206973206e6f7420746f60448201527f6b656e206f776e6572206e6f7220617070726f76656420666f7220616c6c00006064820152608490fd5b611ffd611ff88260005260676020526001600160a01b0360406000205416151590565b611dfe565b60005260696020526001600160a01b036040600020541690565b1561201e57565b60405162461bcd60e51b815260206004820152602e60248201527f4552433732313a2063616c6c6572206973206e6f7420746f6b656e206f776e6560448201527f72206e6f7220617070726f7665640000000000000000000000000000000000006064820152608490fd5b906120ad93929161209d6108ab8433612114565b6120a8838383612249565b6124c9565b156120b457565b60405162461bcd60e51b815260206004820152603260248201527f4552433732313a207472616e7366657220746f206e6f6e20455243373231526560448201527131b2b4bb32b91034b6b83632b6b2b73a32b960711b6064820152608490fd5b6001600160a01b038061212684611e4a565b16928183169284841494851561215c575b50508315612146575b50505090565b61215291929350611fd5565b1614388080612140565b60ff9295509061218b91600052606a6020526040600020906001600160a01b0316600052602052604060002090565b5416923880612137565b1561219c57565b60405162461bcd60e51b8152602060048201526024808201527f4552433732313a207472616e7366657220746f20746865207a65726f206164646044820152637265737360e01b6064820152608490fd5b50634e487b7160e01b600052601160045260246000fd5b60018110612214575b6000190190565b61221c6121ed565b61220d565b6001906001198111612231570190565b6122396121ed565b0190565b81198111612231570190565b9061225383611e4a565b6001600160a01b039182918285169384911603612339576122ac6123109282169461227f861515612195565b61228a87848361368c565b6122938761238c565b6001600160a01b03166000526068602052604060002090565b6122b68154612204565b90556122d5816001600160a01b03166000526068602052604060002090565b6122df8154612221565b90556122f5856000526067602052604060002090565b906001600160a01b03166001600160a01b0319825416179055565b7fddf252ad1be2c89b69c2b068fc378daa952ba7f163c4a11628f55a4df523b3ef6000604051a4565b60405162461bcd60e51b815260206004820152602560248201527f4552433732313a207472616e736665722066726f6d20696e636f72726563742060448201526437bbb732b960d91b6064820152608490fd5b600081815260696020526040812080546001600160a01b03191690556001600160a01b036123b983611e4a565b167f8c5be1e5ebec7d5bd14f71427d1e84f3dd0314c0f7b2291e5b200ac8c7c3b92582604051a4565b600082815260696020526040902080546001600160a01b0319166001600160a01b0383161790556001600160a01b038061241b84611e4a565b169116907f8c5be1e5ebec7d5bd14f71427d1e84f3dd0314c0f7b2291e5b200ac8c7c3b9256000604051a4565b9081602091031261000e57516104c5816103c8565b90926104c594936080936001600160a01b03809216845216602083015260408201528160608201520190610463565b506040513d6000823e3d90fd5b3d156124c4573d906124aa82611035565b916124b86040519384611013565b82523d6000602084013e565b606090565b92909190823b156125ca576125049260209260006001600160a01b03604051809781968295630a85bd0160e11b9b8c8552336004860161245d565b0393165af16000918161259a575b5061258c5761251f612499565b805190816125875760405162461bcd60e51b815260206004820152603260248201527f4552433732313a207472616e7366657220746f206e6f6e20455243373231526560448201527131b2b4bb32b91034b6b83632b6b2b73a32b960711b6064820152608490fd5b602001fd5b6001600160e01b0319161490565b6125bc91925060203d81116125c3575b6125b48183611013565b810190612448565b9038612512565b503d6125aa565b50505050600190565b50634e487b7160e01b600052603260045260246000fd5b156125f157565b60405162461bcd60e51b815260206004820152602e60248201527f496e697469616c697a61626c653a20636f6e747261637420697320616c72656160448201527f647920696e697469616c697a65640000000000000000000000000000000000006064820152608490fd5b61266f9061267793929695963691611060565b923691611060565b9061269260ff60005460081c1661268d8161281c565b61281c565b80519067ffffffffffffffff821161280f575b6126b9826126b4606554611e6c565b61297e565b60209081601f841160011461277a5750928261276995936126fc93611ee499989660009261276f575b50508160011b916000199060031b1c191617606555612ab4565b612704612c89565b61270c61287c565b610130805464ffffffffff191690556127106101325561272d600161012d55565b61013a80546001600160a01b0319166001600160a01b03938416179055166001600160a01b0361013b91166001600160a01b0319825416179055565b61012f55565b0151905038806126e2565b60656000529190601f1984167f8ff97419363ffd7000167f130ef7168fbea05faf9251824ca5043f113cc6a7c7936000905b8282106127f7575050936126fc93611ee499989693600193836127699a98106127de575b505050811b01606555612ab4565b015160001960f88460031b161c191690553880806127d0565b806001869782949787015181550196019401906127ac565b612817610fd3565b6126a5565b1561282357565b60405162461bcd60e51b815260206004820152602b60248201527f496e697469616c697a61626c653a20636f6e7472616374206973206e6f74206960448201526a6e697469616c697a696e6760a81b6064820152608490fd5b61289160ff60005460081c1661268d8161281c565b611ee433611d3d565b601f81116128a6575050565b60009061013382527f92e985329fb94cc1b424ebb0f7f2929b6d27383ca94c0ec71c44fb48bdf96d2c906020601f850160051c83019410612902575b601f0160051c01915b8281106128f757505050565b8181556001016128eb565b90925082906128e2565b601f8111612918575050565b60009061013482527fe1c588fe1269da19c317f679b04e226f5e48296f9b2c8351127eb010907c472f906020601f850160051c83019410612974575b601f0160051c01915b82811061296957505050565b81815560010161295d565b9092508290612954565b601f811161298a575050565b600090606582527f8ff97419363ffd7000167f130ef7168fbea05faf9251824ca5043f113cc6a7c7906020601f850160051c830194106129e5575b601f0160051c01915b8281106129da57505050565b8181556001016129ce565b90925082906129c5565b601f81116129fb575050565b600090606682527f46501879b8ca8525e8c2fd519e2fbfcfa2ebea26501294aa02cbfcfb12e94354906020601f850160051c83019410612a56575b601f0160051c01915b828110612a4b57505050565b818155600101612a3f565b9092508290612a36565b90601f8111612a6e57505050565b600091825260208220906020601f850160051c83019410612aaa575b601f0160051c01915b828110612a9f57505050565b818155600101612a93565b9092508290612a8a565b90815167ffffffffffffffff8111612b9f575b612adb81612ad6606654611e6c565b6129ef565b602080601f8311600114612b175750819293600092612b0c575b50508160011b916000199060031b1c191617606655565b015190503880612af5565b90601f19831694612b4a60666000527f46501879b8ca8525e8c2fd519e2fbfcfa2ebea26501294aa02cbfcfb12e9435490565b926000905b878210612b87575050836001959610612b6e575b505050811b01606655565b015160001960f88460031b161c19169055388080612b63565b80600185968294968601518155019501930190612b4f565b612ba7610fd3565b612ac7565b919091825167ffffffffffffffff8111612c7c575b612bd581612bcf8454611e6c565b84612a60565b602080601f8311600114612c11575081929394600092612c06575b50508160011b916000199060031b1c1916179055565b015190503880612bf0565b90601f19831695612c2785600052602060002090565b926000905b888210612c6457505083600195969710612c4b575b505050811b019055565b015160001960f88460031b161c19169055388080612c41565b80600185968294968601518155019501930190612c2c565b612c84610fd3565b612bc1565b611ee460ff60005460081c1661281c565b15612ca157565b60405162461bcd60e51b815260206004820152601f60248201527f546865207469636b65742073616c65206973206e6f7420656e61626c656421006044820152606490fd5b15612ced57565b60405162461bcd60e51b815260206004820152601160248201527f457863656564206d617820616d6f756e740000000000000000000000000000006044820152606490fd5b9081602091031261000e57516104c5816105d5565b6001906000198114612231570190565b6001600160a01b038116908115612e4657612d888360005260676020526001600160a01b0360406000205416151590565b612e015780612d9a84612dd793613661565b612db7816001600160a01b03166000526068602052604060002090565b612dc18154612221565b90556122f5846000526067602052604060002090565b60007fddf252ad1be2c89b69c2b068fc378daa952ba7f163c4a11628f55a4df523b3ef81604051a4565b60405162461bcd60e51b815260206004820152601c60248201527f4552433732313a20746f6b656e20616c7265616479206d696e746564000000006044820152606490fd5b606460405162461bcd60e51b815260206004820152602060248201527f4552433732313a206d696e7420746f20746865207a65726f20616464726573736044820152fd5b919091612ead8160005260676020526001600160a01b0360406000205416151590565b15612f6e5760005260206097815260406000209083519067ffffffffffffffff8211612f61575b612ee28261167e8554611e6c565b80601f8311600114612f10575081929394600092612c065750508160011b916000199060031b1c1916179055565b90601f19831695612f2685600052602060002090565b926000905b888210612f4957505083600195969710612c4b57505050811b019055565b80600185968294968601518155019501930190612f2b565b612f69610fd3565b612ed4565b60405162461bcd60e51b815260206004820152602e60248201527f45524337323155524953746f726167653a2055524920736574206f66206e6f6e60448201527f6578697374656e7420746f6b656e0000000000000000000000000000000000006064820152608490fd5b15612fe057565b60405162461bcd60e51b815260206004820152602260248201527f5468652077686974656c6973742073616c65206973206e6f7420656e61626c65604482015261642160f01b6064820152608490fd5b1561303757565b60405162461bcd60e51b815260206004820152601a60248201527f457863656564206d61782072657175657374656420636f756e740000000000006044820152606490fd5b90929167ffffffffffffffff84116130d4575b8360051b60405192602080946130a782850182611013565b809781520191810192831161000e57905b8282106130c55750505050565b813581529083019083016130b8565b6130dc610fd3565b61308f565b156130e857565b60405162461bcd60e51b815260206004820152600e60248201527f496e76616c69642070726f6f66210000000000000000000000000000000000006044820152606490fd5b9091906000915b8151831015613180576020808460051b8401015191600083821060001461316f57506000525261316960406000205b92612d47565b91613134565b906040926131699483525220613163565b9150501490565b1561318e57565b60405162461bcd60e51b815260206004820152601f60248201527f546865207075626c69632073616c65206973206e6f7420656e61626c656421006044820152606490fd5b80600019048211811515166131e6570290565b6131ee6121ed565b0290565b9060009161013390815461320581611e6c565b926001918083169081156132795750600114613222575b50505050565b9091929394506000527f92e985329fb94cc1b424ebb0f7f2929b6d27383ca94c0ec71c44fb48bdf96d2c906000915b8483106132665750505001903880808061321c565b8181602092548587015201920191613251565b60ff191684525050500191503880808061321c565b908092918237016000815290565b156132a357565b60405162461bcd60e51b815260206004820152600f60248201527f4e6f7420796574207374617274656400000000000000000000000000000000006044820152606490fd5b156132ef57565b60405162461bcd60e51b815260206004820152600f60248201527f496e76616c6964204261736555524900000000000000000000000000000000006044820152606490fd5b1561333b57565b60405162461bcd60e51b815260206004820152602160248201527f546865206e657874207363656e6172696f206973206e6f7420656e61626c65646044820152602160f81b6064820152608490fd5b919081101561339b575b60051b0190565b6133a36125d3565b613394565b156133af57565b60405162461bcd60e51b815260206004820152601860248201527f546f6b656e206f776e6572206973206e6f742066616c736500000000000000006044820152606490fd5b156133fb57565b60405162461bcd60e51b815260206004820152601760248201527f416c72656164792052657665616c656420746f6b656e210000000000000000006044820152606490fd5b9190811015613483575b60051b81013590601e198136030182121561000e57019081359167ffffffffffffffff831161000e57602001823603811361000e579190565b61348b6125d3565b61344a565b6001600160a01b039081610139541691823b1561000e5760246000928360405195869485936319549d1d60e11b85521660048401525af180156134e9575b6134d55750565b67ffffffffffffffff811161100657604052565b6134f161248c565b6134ce565b6135168160005260676020526001600160a01b0360406000205416151590565b156135f65760ff61353282600052610137602052604060002090565b5416156135ed5761354e90600052610136602052604060002090565b6040519081600082549261356184611e6c565b9081845260019485811690816000146135ce575060011461358b575b50506104c592500382611013565b9093915060005260209081600020936000915b8183106135b65750506104c59350820101388061357d565b8554878401850152948501948694509183019161359e565b9550505050505060ff191660208201526104c58160408101388061357d565b506104c5611ea6565b60405162461bcd60e51b815260206004820152603160248201527f45524337323155524953746f726167653a2055524920717565727920666f722060448201527f6e6f6e6578697374656e7420746f6b656e0000000000000000000000000000006064820152608490fd5b9061366b816137ea565b6001600160a01b03821661368357611ee49150613863565b611ee4916137b1565b9091906001600160a01b0380821691826136c657506136aa836137ea565b8316806136bd575050611ee49150613863565b03613683575050565b81851683036136d6575b506136aa565b6137496136e282611d87565b600181106137a4575b6000190161373a60009387855260ca6020526040852054838103613750575b50846137208960005260ca602052604060002090565b556001600160a01b031660005260c9602052604060002090565b90600052602052604060002090565b55386136d0565b87865260c96020526040862084875260205261379d60408720548061378c8461373a876001600160a01b031660005260c9602052604060002090565b5560005260ca602052604060002090565b553861370a565b6137ac6121ed565b6136eb565b6040906137bd81611d87565b926001600160a01b0360009216825260c96020528282208483526020528083832055815260ca6020522055565b60cb548160005260cc6020528060406000205568010000000000000000811015613856575b600181018060cb55811015613849575b60cb6000527fa7ce836d032b2bf62b7e2097a8e0a6d8aeb35405ad15271e96d3b0188a1d06fb0155565b6138516125d3565b61381f565b61385e610fd3565b61380f565b60cb80546001811061396b575b60009083825260cc602052816139126040822054956000199684888101101561395e575b8684526139017fa7ce836d032b2bf62b7e2097a8e0a6d8aeb35405ad15271e96d3b0188a1d06fa958681015490831015613951575b88865280837fa7ce836d032b2bf62b7e2097a8e0a6d8aeb35405ad15271e96d3b0188a1d06fb015560005260cc602052604060002090565b5560005260cc602052604060002090565b55825493841561393d5784019380851015613930575b838352015555565b6139386125d3565b613928565b634e487b7160e01b83526031600452602483fd5b6139596125d3565b6138c9565b6139666125d3565b613894565b6139736121ed565b61387056fea26469706673582212202af6b8e5eb1b5dc515284746b0f61ca77b4a43fc79d37a3b9d88bff057151d9064736f6c634300080e0033",
  "devdoc": {
    "kind": "dev",
    "methods": {
      "approve(address,uint256)": {
        "details": "See {IERC721-approve}."
      },
      "balanceOf(address)": {
        "details": "See {IERC721-balanceOf}."
      },
      "getApproved(uint256)": {
        "details": "See {IERC721-getApproved}."
      },
      "isApprovedForAll(address,address)": {
        "details": "See {IERC721-isApprovedForAll}."
      },
      "mintingInformation()": {
        "details": "Returns. About Minting"
      },
      "name()": {
        "details": "See {IERC721Metadata-name}."
      },
      "owner()": {
        "details": "Returns the address of the current owner."
      },
      "ownerOf(uint256)": {
        "details": "See {IERC721-ownerOf}."
      },
      "publicMint(uint256)": {
        "details": "A function that anyone can mint. Before reveal, it is minted in the unreveal state",
        "params": {
          "requestedCount": "quantity to mint"
        }
      },
      "renounceOwnership()": {
        "details": "Leaves the contract without owner. It will not be possible to call `onlyOwner` functions anymore. Can only be called by the current owner. NOTE: Renouncing ownership will leave the contract without an owner, thereby removing any functionality that is only available to the owner."
      },
      "repairTokenURI(uint256,string)": {
        "details": "A function that can be repaired in the event of an unintended error when revealed. Only the owner can execute it",
        "params": {
          "tokenHash": "The unique hash value of the token",
          "tokenId": "The ID of the token you want to repair"
        }
      },
      "revealTokens(uint256[],string[])": {
        "details": "A function that revises tokens that have not yet been revealed. It issues tokens in the next scenario at the same time",
        "params": {
          "tokenHash": "The unique hash value of the token",
          "tokenIds": "The ID of the tokens you want to reveal"
        }
      },
      "safeTransferFrom(address,address,uint256)": {
        "details": "See {IERC721-safeTransferFrom}."
      },
      "safeTransferFrom(address,address,uint256,bytes)": {
        "details": "See {IERC721-safeTransferFrom}."
      },
      "setApprovalForAll(address,bool)": {
        "details": "See {IERC721-setApprovalForAll}."
      },
      "setBaseURI(string)": {
        "details": "Set base URI of reveal tokens. Only the owner can do it",
        "params": {
          "_newBaseURI": "Base URI of revealed tokens"
        }
      },
      "setMerkleRoot(bytes32)": {
        "details": "Functions that set the required Merklute of whitelist validation",
        "params": {
          "_merkleRoot": "White List's Merkle root"
        }
      },
      "setNextScenarioConenct(address)": {
        "details": "Functions that associate with the following collection of scenarios",
        "params": {
          "nextScenario": "Address of the next scenario contract"
        }
      },
      "setNotRevealedURI(string)": {
        "details": "Set base URI of unreveal tokens. Only the owner can do it",
        "params": {
          "_newNotRevealedURI": "Base URI of unreveal tokens"
        }
      },
      "setPublicMintState(bool)": {
        "details": "A function that allows users to start mint",
        "params": {
          "_state": "True & False, Allow mint"
        }
      },
      "setRevealState(bool)": {
        "details": "A function that allows users to start reveal",
        "params": {
          "_state": "True & False, Allow reveal"
        }
      },
      "setTicketMintState(bool)": {
        "details": "Functions that allow users to initiate ticket minting",
        "params": {
          "_state": "True & False, Allow ticket Minting"
        }
      },
      "setWhitelistMintState(bool)": {
        "details": "Functions that allow users to initiate whitelist minting",
        "params": {
          "_state": "True & False, Allow Whitelist Minting"
        }
      },
      "setupSale(uint256)": {
        "details": "Prevent bot, set timer to start minting, only owner can run",
        "params": {
          "mintPrice": "Setup Mint price"
        }
      },
      "supportsInterface(bytes4)": {
        "details": "See {IERC165-supportsInterface}"
      },
      "symbol()": {
        "details": "See {IERC721Metadata-symbol}."
      },
      "ticketMint(uint256)": {
        "details": "Only those who have tickets can mint.",
        "params": {
          "requestedCount": "quantity to mint"
        }
      },
      "tokenByIndex(uint256)": {
        "details": "See {IERC721Enumerable-tokenByIndex}."
      },
      "tokenOfOwnerByIndex(address,uint256)": {
        "details": "See {IERC721Enumerable-tokenOfOwnerByIndex}."
      },
      "tokenURI(uint256)": {
        "details": "Returns the Uniform Resource Identifier (URI) for `tokenId` token"
      },
      "totalSupply()": {
        "details": "See {IERC721Enumerable-totalSupply}."
      },
      "transferFrom(address,address,uint256)": {
        "details": "See {IERC721-transferFrom}."
      },
      "transferOwnership(address)": {
        "details": "Transfers ownership of the contract to a new account (`newOwner`). Can only be called by the current owner."
      },
      "whitelistMint(uint256,bytes32[])": {
        "details": "Functions that only validated whitelists can mint",
        "params": {
          "_merkleProof": "Array of Merkle Trees",
          "requestedCount": "quantity to mint"
        }
      }
    },
    "version": 1
  },
  "userdoc": {
    "kind": "user",
    "methods": {},
    "version": 1
  },
  "storageLayout": {
    "storage": [
      {
        "astId": 285,
        "contract": "contracts/voting/ScenarioOneV2.sol:PERIv2",
        "label": "_initialized",
        "offset": 0,
        "slot": "0",
        "type": "t_uint8"
      },
      {
        "astId": 288,
        "contract": "contracts/voting/ScenarioOneV2.sol:PERIv2",
        "label": "_initializing",
        "offset": 1,
        "slot": "0",
        "type": "t_bool"
      },
      {
        "astId": 3014,
        "contract": "contracts/voting/ScenarioOneV2.sol:PERIv2",
        "label": "__gap",
        "offset": 0,
        "slot": "1",
        "type": "t_array(t_uint256)50_storage"
      },
      {
        "astId": 3786,
        "contract": "contracts/voting/ScenarioOneV2.sol:PERIv2",
        "label": "__gap",
        "offset": 0,
        "slot": "51",
        "type": "t_array(t_uint256)50_storage"
      },
      {
        "astId": 1172,
        "contract": "contracts/voting/ScenarioOneV2.sol:PERIv2",
        "label": "_name",
        "offset": 0,
        "slot": "101",
        "type": "t_string_storage"
      },
      {
        "astId": 1174,
        "contract": "contracts/voting/ScenarioOneV2.sol:PERIv2",
        "label": "_symbol",
        "offset": 0,
        "slot": "102",
        "type": "t_string_storage"
      },
      {
        "astId": 1178,
        "contract": "contracts/voting/ScenarioOneV2.sol:PERIv2",
        "label": "_owners",
        "offset": 0,
        "slot": "103",
        "type": "t_mapping(t_uint256,t_address)"
      },
      {
        "astId": 1182,
        "contract": "contracts/voting/ScenarioOneV2.sol:PERIv2",
        "label": "_balances",
        "offset": 0,
        "slot": "104",
        "type": "t_mapping(t_address,t_uint256)"
      },
      {
        "astId": 1186,
        "contract": "contracts/voting/ScenarioOneV2.sol:PERIv2",
        "label": "_tokenApprovals",
        "offset": 0,
        "slot": "105",
        "type": "t_mapping(t_uint256,t_address)"
      },
      {
        "astId": 1192,
        "contract": "contracts/voting/ScenarioOneV2.sol:PERIv2",
        "label": "_operatorApprovals",
        "offset": 0,
        "slot": "106",
        "type": "t_mapping(t_address,t_mapping(t_address,t_bool))"
      },
      {
        "astId": 2034,
        "contract": "contracts/voting/ScenarioOneV2.sol:PERIv2",
        "label": "__gap",
        "offset": 0,
        "slot": "107",
        "type": "t_array(t_uint256)44_storage"
      },
      {
        "astId": 2555,
        "contract": "contracts/voting/ScenarioOneV2.sol:PERIv2",
        "label": "_tokenURIs",
        "offset": 0,
        "slot": "151",
        "type": "t_mapping(t_uint256,t_string_storage)"
      },
      {
        "astId": 2671,
        "contract": "contracts/voting/ScenarioOneV2.sol:PERIv2",
        "label": "__gap",
        "offset": 0,
        "slot": "152",
        "type": "t_array(t_uint256)49_storage"
      },
      {
        "astId": 2199,
        "contract": "contracts/voting/ScenarioOneV2.sol:PERIv2",
        "label": "_ownedTokens",
        "offset": 0,
        "slot": "201",
        "type": "t_mapping(t_address,t_mapping(t_uint256,t_uint256))"
      },
      {
        "astId": 2203,
        "contract": "contracts/voting/ScenarioOneV2.sol:PERIv2",
        "label": "_ownedTokensIndex",
        "offset": 0,
        "slot": "202",
        "type": "t_mapping(t_uint256,t_uint256)"
      },
      {
        "astId": 2206,
        "contract": "contracts/voting/ScenarioOneV2.sol:PERIv2",
        "label": "_allTokens",
        "offset": 0,
        "slot": "203",
        "type": "t_array(t_uint256)dyn_storage"
      },
      {
        "astId": 2210,
        "contract": "contracts/voting/ScenarioOneV2.sol:PERIv2",
        "label": "_allTokensIndex",
        "offset": 0,
        "slot": "204",
        "type": "t_mapping(t_uint256,t_uint256)"
      },
      {
        "astId": 2526,
        "contract": "contracts/voting/ScenarioOneV2.sol:PERIv2",
        "label": "__gap",
        "offset": 0,
        "slot": "205",
        "type": "t_array(t_uint256)46_storage"
      },
      {
        "astId": 157,
        "contract": "contracts/voting/ScenarioOneV2.sol:PERIv2",
        "label": "_owner",
        "offset": 0,
        "slot": "251",
        "type": "t_address"
      },
      {
        "astId": 277,
        "contract": "contracts/voting/ScenarioOneV2.sol:PERIv2",
        "label": "__gap",
        "offset": 0,
        "slot": "252",
        "type": "t_array(t_uint256)49_storage"
      },
      {
        "astId": 27963,
        "contract": "contracts/voting/ScenarioOneV2.sol:PERIv2",
        "label": "mintIndexForSale",
        "offset": 0,
        "slot": "301",
        "type": "t_uint256"
      },
      {
        "astId": 27965,
        "contract": "contracts/voting/ScenarioOneV2.sol:PERIv2",
        "label": "mintStartBlockNumber",
        "offset": 0,
        "slot": "302",
        "type": "t_uint256"
      },
      {
        "astId": 27967,
        "contract": "contracts/voting/ScenarioOneV2.sol:PERIv2",
        "label": "MINT_PRICE",
        "offset": 0,
        "slot": "303",
        "type": "t_uint256"
      },
      {
        "astId": 27969,
        "contract": "contracts/voting/ScenarioOneV2.sol:PERIv2",
        "label": "isRevealed",
        "offset": 0,
        "slot": "304",
        "type": "t_bool"
      },
      {
        "astId": 27971,
        "contract": "contracts/voting/ScenarioOneV2.sol:PERIv2",
        "label": "isEnabledPublicMint",
        "offset": 1,
        "slot": "304",
        "type": "t_bool"
      },
      {
        "astId": 27973,
        "contract": "contracts/voting/ScenarioOneV2.sol:PERIv2",
        "label": "isEnabledTicketMint",
        "offset": 2,
        "slot": "304",
        "type": "t_bool"
      },
      {
        "astId": 27975,
        "contract": "contracts/voting/ScenarioOneV2.sol:PERIv2",
        "label": "isEnabledWhitelistMint",
        "offset": 3,
        "slot": "304",
        "type": "t_bool"
      },
      {
        "astId": 27977,
        "contract": "contracts/voting/ScenarioOneV2.sol:PERIv2",
        "label": "isEnabledNextScenario",
        "offset": 4,
        "slot": "304",
        "type": "t_bool"
      },
      {
        "astId": 27979,
        "contract": "contracts/voting/ScenarioOneV2.sol:PERIv2",
        "label": "merkleRoot",
        "offset": 0,
        "slot": "305",
        "type": "t_bytes32"
      },
      {
        "astId": 27981,
        "contract": "contracts/voting/ScenarioOneV2.sol:PERIv2",
        "label": "MAX_SALE_AMOUNT",
        "offset": 0,
        "slot": "306",
        "type": "t_uint256"
      },
      {
        "astId": 27983,
        "contract": "contracts/voting/ScenarioOneV2.sol:PERIv2",
        "label": "baseURI",
        "offset": 0,
        "slot": "307",
        "type": "t_string_storage"
      },
      {
        "astId": 27985,
        "contract": "contracts/voting/ScenarioOneV2.sol:PERIv2",
        "label": "notRevealedURI",
        "offset": 0,
        "slot": "308",
        "type": "t_string_storage"
      },
      {
        "astId": 27989,
        "contract": "contracts/voting/ScenarioOneV2.sol:PERIv2",
        "label": "_lastCallBlockNumber",
        "offset": 0,
        "slot": "309",
        "type": "t_mapping(t_address,t_uint256)"
      },
      {
        "astId": 27993,
        "contract": "contracts/voting/ScenarioOneV2.sol:PERIv2",
        "label": "_tokenURIs",
        "offset": 0,
        "slot": "310",
        "type": "t_mapping(t_uint256,t_string_storage)"
      },
      {
        "astId": 27997,
        "contract": "contracts/voting/ScenarioOneV2.sol:PERIv2",
        "label": "revealChecked",
        "offset": 0,
        "slot": "311",
        "type": "t_mapping(t_uint256,t_bool)"
      },
      {
        "astId": 28001,
        "contract": "contracts/voting/ScenarioOneV2.sol:PERIv2",
        "label": "whitelistMintLimit",
        "offset": 0,
        "slot": "312",
        "type": "t_mapping(t_address,t_uint256)"
      },
      {
        "astId": 28004,
        "contract": "contracts/voting/ScenarioOneV2.sol:PERIv2",
        "label": "_nextScenario",
        "offset": 0,
        "slot": "313",
        "type": "t_contract(INextScenario)29873"
      },
      {
        "astId": 28007,
        "contract": "contracts/voting/ScenarioOneV2.sol:PERIv2",
        "label": "_wETH",
        "offset": 0,
        "slot": "314",
        "type": "t_contract(WETH)29962"
      },
      {
        "astId": 28010,
        "contract": "contracts/voting/ScenarioOneV2.sol:PERIv2",
        "label": "_ticket",
        "offset": 0,
        "slot": "315",
        "type": "t_contract(ITicket)29892"
      }
    ],
    "types": {
      "t_address": {
        "encoding": "inplace",
        "label": "address",
        "numberOfBytes": "20"
      },
      "t_array(t_uint256)44_storage": {
        "base": "t_uint256",
        "encoding": "inplace",
        "label": "uint256[44]",
        "numberOfBytes": "1408"
      },
      "t_array(t_uint256)46_storage": {
        "base": "t_uint256",
        "encoding": "inplace",
        "label": "uint256[46]",
        "numberOfBytes": "1472"
      },
      "t_array(t_uint256)49_storage": {
        "base": "t_uint256",
        "encoding": "inplace",
        "label": "uint256[49]",
        "numberOfBytes": "1568"
      },
      "t_array(t_uint256)50_storage": {
        "base": "t_uint256",
        "encoding": "inplace",
        "label": "uint256[50]",
        "numberOfBytes": "1600"
      },
      "t_array(t_uint256)dyn_storage": {
        "base": "t_uint256",
        "encoding": "dynamic_array",
        "label": "uint256[]",
        "numberOfBytes": "32"
      },
      "t_bool": {
        "encoding": "inplace",
        "label": "bool",
        "numberOfBytes": "1"
      },
      "t_bytes32": {
        "encoding": "inplace",
        "label": "bytes32",
        "numberOfBytes": "32"
      },
      "t_contract(INextScenario)29873": {
        "encoding": "inplace",
        "label": "contract INextScenario",
        "numberOfBytes": "20"
      },
      "t_contract(ITicket)29892": {
        "encoding": "inplace",
        "label": "contract ITicket",
        "numberOfBytes": "20"
      },
      "t_contract(WETH)29962": {
        "encoding": "inplace",
        "label": "contract WETH",
        "numberOfBytes": "20"
      },
      "t_mapping(t_address,t_bool)": {
        "encoding": "mapping",
        "key": "t_address",
        "label": "mapping(address => bool)",
        "numberOfBytes": "32",
        "value": "t_bool"
      },
      "t_mapping(t_address,t_mapping(t_address,t_bool))": {
        "encoding": "mapping",
        "key": "t_address",
        "label": "mapping(address => mapping(address => bool))",
        "numberOfBytes": "32",
        "value": "t_mapping(t_address,t_bool)"
      },
      "t_mapping(t_address,t_mapping(t_uint256,t_uint256))": {
        "encoding": "mapping",
        "key": "t_address",
        "label": "mapping(address => mapping(uint256 => uint256))",
        "numberOfBytes": "32",
        "value": "t_mapping(t_uint256,t_uint256)"
      },
      "t_mapping(t_address,t_uint256)": {
        "encoding": "mapping",
        "key": "t_address",
        "label": "mapping(address => uint256)",
        "numberOfBytes": "32",
        "value": "t_uint256"
      },
      "t_mapping(t_uint256,t_address)": {
        "encoding": "mapping",
        "key": "t_uint256",
        "label": "mapping(uint256 => address)",
        "numberOfBytes": "32",
        "value": "t_address"
      },
      "t_mapping(t_uint256,t_bool)": {
        "encoding": "mapping",
        "key": "t_uint256",
        "label": "mapping(uint256 => bool)",
        "numberOfBytes": "32",
        "value": "t_bool"
      },
      "t_mapping(t_uint256,t_string_storage)": {
        "encoding": "mapping",
        "key": "t_uint256",
        "label": "mapping(uint256 => string)",
        "numberOfBytes": "32",
        "value": "t_string_storage"
      },
      "t_mapping(t_uint256,t_uint256)": {
        "encoding": "mapping",
        "key": "t_uint256",
        "label": "mapping(uint256 => uint256)",
        "numberOfBytes": "32",
        "value": "t_uint256"
      },
      "t_string_storage": {
        "encoding": "bytes",
        "label": "string",
        "numberOfBytes": "32"
      },
      "t_uint256": {
        "encoding": "inplace",
        "label": "uint256",
        "numberOfBytes": "32"
      },
      "t_uint8": {
        "encoding": "inplace",
        "label": "uint8",
        "numberOfBytes": "1"
      }
    }
  }
}