{
  "address": "0xfd4e4C09637676911448E6A27b16e08F665742F5",
  "abi": [
    {
      "inputs": [
        {
          "internalType": "uint256",
          "name": "auctionId",
          "type": "uint256"
        },
        {
          "internalType": "enum AuctionStatus",
          "name": "status",
          "type": "uint8"
        }
      ],
      "name": "AuctionInvalidStatus",
      "type": "error"
    },
    {
      "inputs": [],
      "name": "AuctionNotRegistered",
      "type": "error"
    },
    {
      "inputs": [],
      "name": "CollateralOwnershipNotTransferred",
      "type": "error"
    },
    {
      "inputs": [],
      "name": "IncompleteStepDownConfig",
      "type": "error"
    },
    {
      "inputs": [],
      "name": "InexactFraction",
      "type": "error"
    },
    {
      "inputs": [
        {
          "internalType": "uint256",
          "name": "startAmount",
          "type": "uint256"
        },
        {
          "internalType": "uint256",
          "name": "endAmount",
          "type": "uint256"
        }
      ],
      "name": "InvalidPriceRange",
      "type": "error"
    },
    {
      "inputs": [],
      "name": "InvalidStepDownConfig",
      "type": "error"
    },
    {
      "inputs": [
        {
          "internalType": "uint256",
          "name": "startTime",
          "type": "uint256"
        },
        {
          "internalType": "uint256",
          "name": "endTime",
          "type": "uint256"
        }
      ],
      "name": "InvalidTimeRange",
      "type": "error"
    },
    {
      "inputs": [],
      "name": "NotAuthorized",
      "type": "error"
    },
    {
      "inputs": [],
      "name": "ProtectionNotOver",
      "type": "error"
    },
    {
      "inputs": [],
      "name": "ProtectionOver",
      "type": "error"
    },
    {
      "inputs": [],
      "name": "StepDownConfigAndAuctionTimeMismatch",
      "type": "error"
    },
    {
      "inputs": [],
      "name": "StepDownConfigOverflow",
      "type": "error"
    },
    {
      "anonymous": false,
      "inputs": [
        {
          "indexed": false,
          "internalType": "address",
          "name": "previousAdmin",
          "type": "address"
        },
        {
          "indexed": false,
          "internalType": "address",
          "name": "newAdmin",
          "type": "address"
        }
      ],
      "name": "AdminChanged",
      "type": "event"
    },
    {
      "anonymous": false,
      "inputs": [
        {
          "indexed": true,
          "internalType": "address",
          "name": "beacon",
          "type": "address"
        }
      ],
      "name": "BeaconUpgraded",
      "type": "event"
    },
    {
      "anonymous": false,
      "inputs": [
        {
          "indexed": false,
          "internalType": "uint8",
          "name": "version",
          "type": "uint8"
        }
      ],
      "name": "Initialized",
      "type": "event"
    },
    {
      "anonymous": false,
      "inputs": [
        {
          "indexed": true,
          "internalType": "uint256",
          "name": "auctionId",
          "type": "uint256"
        },
        {
          "indexed": false,
          "internalType": "uint256",
          "name": "loanId",
          "type": "uint256"
        },
        {
          "indexed": false,
          "internalType": "address",
          "name": "tokenAddr",
          "type": "address"
        },
        {
          "indexed": false,
          "internalType": "address",
          "name": "paymentToken",
          "type": "address"
        },
        {
          "indexed": false,
          "internalType": "address",
          "name": "loanBorrower",
          "type": "address"
        },
        {
          "indexed": false,
          "internalType": "uint256",
          "name": "tokenId",
          "type": "uint256"
        },
        {
          "indexed": false,
          "internalType": "uint256",
          "name": "startAmount",
          "type": "uint256"
        },
        {
          "indexed": false,
          "internalType": "uint256",
          "name": "endAmount",
          "type": "uint256"
        },
        {
          "indexed": false,
          "internalType": "uint256",
          "name": "startTime",
          "type": "uint256"
        },
        {
          "indexed": false,
          "internalType": "uint256",
          "name": "endTime",
          "type": "uint256"
        },
        {
          "indexed": false,
          "internalType": "uint256",
          "name": "protectedUntil",
          "type": "uint256"
        },
        {
          "indexed": false,
          "internalType": "uint256",
          "name": "loanRepaymentAmount",
          "type": "uint256"
        },
        {
          "indexed": false,
          "internalType": "bytes",
          "name": "stepDownConfig",
          "type": "bytes"
        }
      ],
      "name": "LoanAuctionBegun",
      "type": "event"
    },
    {
      "anonymous": false,
      "inputs": [
        {
          "indexed": true,
          "internalType": "uint256",
          "name": "auctionId",
          "type": "uint256"
        },
        {
          "indexed": false,
          "internalType": "address",
          "name": "borrower",
          "type": "address"
        },
        {
          "indexed": false,
          "internalType": "uint256",
          "name": "payout",
          "type": "uint256"
        }
      ],
      "name": "LoanAuctionCancelledByPayout",
      "type": "event"
    },
    {
      "anonymous": false,
      "inputs": [
        {
          "indexed": true,
          "internalType": "uint256",
          "name": "auctionId",
          "type": "uint256"
        },
        {
          "indexed": false,
          "internalType": "address",
          "name": "bidder",
          "type": "address"
        },
        {
          "indexed": false,
          "internalType": "address",
          "name": "borrower",
          "type": "address"
        },
        {
          "indexed": false,
          "internalType": "uint256",
          "name": "bidAmount",
          "type": "uint256"
        }
      ],
      "name": "LoanAuctionSoldAndProtected",
      "type": "event"
    },
    {
      "anonymous": false,
      "inputs": [
        {
          "indexed": true,
          "internalType": "uint256",
          "name": "auctionId",
          "type": "uint256"
        },
        {
          "indexed": false,
          "internalType": "address",
          "name": "bidder",
          "type": "address"
        },
        {
          "indexed": false,
          "internalType": "uint256",
          "name": "bidAmount",
          "type": "uint256"
        }
      ],
      "name": "LoanAuctionSoldToBidder",
      "type": "event"
    },
    {
      "anonymous": false,
      "inputs": [
        {
          "indexed": true,
          "internalType": "address",
          "name": "previousOwner",
          "type": "address"
        },
        {
          "indexed": true,
          "internalType": "address",
          "name": "newOwner",
          "type": "address"
        }
      ],
      "name": "OwnershipTransferred",
      "type": "event"
    },
    {
      "anonymous": false,
      "inputs": [
        {
          "indexed": true,
          "internalType": "address",
          "name": "implementation",
          "type": "address"
        }
      ],
      "name": "Upgraded",
      "type": "event"
    },
    {
      "inputs": [],
      "name": "__MWOwnable_init",
      "outputs": [],
      "stateMutability": "nonpayable",
      "type": "function"
    },
    {
      "inputs": [],
      "name": "auctionCount",
      "outputs": [
        {
          "internalType": "uint256",
          "name": "",
          "type": "uint256"
        }
      ],
      "stateMutability": "view",
      "type": "function"
    },
    {
      "inputs": [
        {
          "internalType": "uint256",
          "name": "",
          "type": "uint256"
        }
      ],
      "name": "auctions",
      "outputs": [
        {
          "internalType": "uint256",
          "name": "id",
          "type": "uint256"
        },
        {
          "internalType": "uint256",
          "name": "protectedUntil",
          "type": "uint256"
        },
        {
          "components": [
            {
              "internalType": "uint256",
              "name": "loanId",
              "type": "uint256"
            },
            {
              "internalType": "address",
              "name": "tokenAddress",
              "type": "address"
            },
            {
              "internalType": "address",
              "name": "paymentToken",
              "type": "address"
            },
            {
              "internalType": "uint256",
              "name": "tokenId",
              "type": "uint256"
            },
            {
              "internalType": "uint256",
              "name": "startAmount",
              "type": "uint256"
            },
            {
              "internalType": "uint256",
              "name": "endAmount",
              "type": "uint256"
            },
            {
              "internalType": "uint256",
              "name": "startTime",
              "type": "uint256"
            },
            {
              "internalType": "uint256",
              "name": "endTime",
              "type": "uint256"
            },
            {
              "internalType": "bytes",
              "name": "stepDownConfig",
              "type": "bytes"
            },
            {
              "internalType": "address",
              "name": "loanBorrower",
              "type": "address"
            },
            {
              "internalType": "uint256",
              "name": "loanAmount",
              "type": "uint256"
            },
            {
              "internalType": "uint256",
              "name": "loanRepaymentAmount",
              "type": "uint256"
            },
            {
              "internalType": "address",
              "name": "lender",
              "type": "address"
            },
            {
              "internalType": "bool",
              "name": "isProtected",
              "type": "bool"
            }
          ],
          "internalType": "struct AuctionParameters",
          "name": "parameters",
          "type": "tuple"
        }
      ],
      "stateMutability": "view",
      "type": "function"
    },
    {
      "inputs": [
        {
          "components": [
            {
              "internalType": "uint256",
              "name": "loanId",
              "type": "uint256"
            },
            {
              "internalType": "address",
              "name": "tokenAddress",
              "type": "address"
            },
            {
              "internalType": "address",
              "name": "paymentToken",
              "type": "address"
            },
            {
              "internalType": "uint256",
              "name": "tokenId",
              "type": "uint256"
            },
            {
              "internalType": "uint256",
              "name": "startAmount",
              "type": "uint256"
            },
            {
              "internalType": "uint256",
              "name": "endAmount",
              "type": "uint256"
            },
            {
              "internalType": "uint256",
              "name": "startTime",
              "type": "uint256"
            },
            {
              "internalType": "uint256",
              "name": "endTime",
              "type": "uint256"
            },
            {
              "internalType": "bytes",
              "name": "stepDownConfig",
              "type": "bytes"
            },
            {
              "internalType": "address",
              "name": "loanBorrower",
              "type": "address"
            },
            {
              "internalType": "uint256",
              "name": "loanAmount",
              "type": "uint256"
            },
            {
              "internalType": "uint256",
              "name": "loanRepaymentAmount",
              "type": "uint256"
            },
            {
              "internalType": "address",
              "name": "lender",
              "type": "address"
            },
            {
              "internalType": "bool",
              "name": "isProtected",
              "type": "bool"
            }
          ],
          "internalType": "struct AuctionParameters",
          "name": "params",
          "type": "tuple"
        }
      ],
      "name": "beginAuction",
      "outputs": [],
      "stateMutability": "nonpayable",
      "type": "function"
    },
    {
      "inputs": [
        {
          "internalType": "uint256",
          "name": "",
          "type": "uint256"
        }
      ],
      "name": "bidAmounts",
      "outputs": [
        {
          "internalType": "uint256",
          "name": "",
          "type": "uint256"
        }
      ],
      "stateMutability": "view",
      "type": "function"
    },
    {
      "inputs": [
        {
          "internalType": "uint256",
          "name": "",
          "type": "uint256"
        }
      ],
      "name": "bidders",
      "outputs": [
        {
          "internalType": "address",
          "name": "",
          "type": "address"
        }
      ],
      "stateMutability": "view",
      "type": "function"
    },
    {
      "inputs": [
        {
          "internalType": "uint256",
          "name": "auctionId",
          "type": "uint256"
        }
      ],
      "name": "claim",
      "outputs": [],
      "stateMutability": "nonpayable",
      "type": "function"
    },
    {
      "inputs": [
        {
          "internalType": "uint256",
          "name": "auctionId",
          "type": "uint256"
        }
      ],
      "name": "currentBidPrice",
      "outputs": [
        {
          "internalType": "uint256",
          "name": "amount",
          "type": "uint256"
        }
      ],
      "stateMutability": "view",
      "type": "function"
    },
    {
      "inputs": [
        {
          "internalType": "uint256",
          "name": "auctionId",
          "type": "uint256"
        }
      ],
      "name": "currentDebt",
      "outputs": [
        {
          "internalType": "uint256",
          "name": "debt",
          "type": "uint256"
        }
      ],
      "stateMutability": "view",
      "type": "function"
    },
    {
      "inputs": [],
      "name": "decrementInterval",
      "outputs": [
        {
          "internalType": "uint256",
          "name": "",
          "type": "uint256"
        }
      ],
      "stateMutability": "view",
      "type": "function"
    },
    {
      "inputs": [
        {
          "internalType": "address",
          "name": "_periFiAdminAddr",
          "type": "address"
        },
        {
          "internalType": "address",
          "name": "_loanRepaymentAddr",
          "type": "address"
        }
      ],
      "name": "initialize",
      "outputs": [],
      "stateMutability": "nonpayable",
      "type": "function"
    },
    {
      "inputs": [],
      "name": "loanRepaymentAddr",
      "outputs": [
        {
          "internalType": "address",
          "name": "",
          "type": "address"
        }
      ],
      "stateMutability": "view",
      "type": "function"
    },
    {
      "inputs": [
        {
          "internalType": "uint256",
          "name": "auctionId",
          "type": "uint256"
        }
      ],
      "name": "makeBid",
      "outputs": [
        {
          "internalType": "bool",
          "name": "completed",
          "type": "bool"
        }
      ],
      "stateMutability": "nonpayable",
      "type": "function"
    },
    {
      "inputs": [],
      "name": "owner",
      "outputs": [
        {
          "internalType": "address",
          "name": "",
          "type": "address"
        }
      ],
      "stateMutability": "view",
      "type": "function"
    },
    {
      "inputs": [
        {
          "internalType": "uint256",
          "name": "auctionId",
          "type": "uint256"
        }
      ],
      "name": "payout",
      "outputs": [],
      "stateMutability": "nonpayable",
      "type": "function"
    },
    {
      "inputs": [],
      "name": "periFiAdminAddr",
      "outputs": [
        {
          "internalType": "address",
          "name": "",
          "type": "address"
        }
      ],
      "stateMutability": "view",
      "type": "function"
    },
    {
      "inputs": [],
      "name": "proxiableUUID",
      "outputs": [
        {
          "internalType": "bytes32",
          "name": "",
          "type": "bytes32"
        }
      ],
      "stateMutability": "view",
      "type": "function"
    },
    {
      "inputs": [],
      "name": "renounceOwnership",
      "outputs": [],
      "stateMutability": "nonpayable",
      "type": "function"
    },
    {
      "inputs": [
        {
          "internalType": "uint256",
          "name": "",
          "type": "uint256"
        }
      ],
      "name": "status",
      "outputs": [
        {
          "internalType": "enum AuctionStatus",
          "name": "",
          "type": "uint8"
        }
      ],
      "stateMutability": "view",
      "type": "function"
    },
    {
      "inputs": [
        {
          "internalType": "address",
          "name": "newOwner",
          "type": "address"
        }
      ],
      "name": "transferOwnership",
      "outputs": [],
      "stateMutability": "nonpayable",
      "type": "function"
    },
    {
      "inputs": [
        {
          "internalType": "uint256",
          "name": "intervalInSec",
          "type": "uint256"
        }
      ],
      "name": "updateDecrementInterval",
      "outputs": [],
      "stateMutability": "nonpayable",
      "type": "function"
    },
    {
      "inputs": [
        {
          "internalType": "address",
          "name": "newImplementation",
          "type": "address"
        }
      ],
      "name": "upgradeTo",
      "outputs": [],
      "stateMutability": "nonpayable",
      "type": "function"
    },
    {
      "inputs": [
        {
          "internalType": "address",
          "name": "newImplementation",
          "type": "address"
        },
        {
          "internalType": "bytes",
          "name": "data",
          "type": "bytes"
        }
      ],
      "name": "upgradeToAndCall",
      "outputs": [],
      "stateMutability": "payable",
      "type": "function"
    }
  ],
  "transactionHash": "0x00b646566709afec4590838474587339aa3f6bcf8e02dbb97a1322b229449ea9",
  "args": [],
  "numDeployments": 1,
  "solcInputHash": "a98b85679c117a20c3b99df23d476f7d",
  "bytecode": "0x60a0604052346200011c576001600055306080526001546200003b60ff8260081c1615809281936200010d575b8115620000ea575b5062000121565b806200004e600160ff1981541617600155565b620000cf575b6200005e62000185565b6200008b575b6040516139c09081620001e6823960805181818161029301528181610e6a0152610fda0152f35b6200009c61ff001960015416600155565b604051600181527f7f26b83ff96e1f2b6a682f133852f6798a09c465da95921460cefb384740249890602090a162000064565b620000e461010061ff00196001541617600155565b62000054565b303b15915081620000fe575b503862000034565b6001915060ff161438620000f6565b600160ff82161091506200002c565b600080fd5b156200012957565b60405162461bcd60e51b815260206004820152602e60248201527f496e697469616c697a61626c653a20636f6e747261637420697320616c72656160448201526d191e481a5b9a5d1a585b1a5e995960921b6064820152608490fd5b60668054734a580d71c0f73202c51c58147aa7c7e09245b10a6001600160a01b0319821681179092556040516001600160a01b03909116907f8be0079c531659141344cd1fd0a4f28419497f9722a3daafe3b4186f6b6457e090600090a356fe60806040526004361015610013575b600080fd5b60003560e01c8063175b2304146101df5780632ad71573146101d65780633659cfe6146101cd578063379607f5146101c457806342d21ef7146101bb578063485cc955146101b25780634f1ef286146101a957806352d1902d146101a0578063571a26a01461019757806365b014b71461018e578063715018a6146101855780638da5cb5b1461017c5780639b3e45b414610173578063a754807a1461016a578063b8b9e29414610161578063bcb2966714610158578063c18c27751461014f578063cb0fc56d14610146578063cff29dfd1461013d578063d0f7146d14610134578063d126b4e51461012b578063e1152343146101225763f2fde38b1461011a57600080fd5b61000e611f6d565b5061000e611a25565b5061000e6119c0565b5061000e611998565b5061000e611962565b5061000e611943565b5061000e61191b565b5061000e6118f4565b5061000e611552565b5061000e611525565b5061000e611506565b5061000e6114de565b5061000e61147b565b5061000e6113fa565b5061000e6112ca565b5061000e610fbe565b5061000e610e24565b5061000e610bcf565b5061000e610b98565b5061000e61040e565b5061000e610269565b5061000e61022c565b503461000e57602036600319011261000e57610200600260005414156125bc565b60026000556020610212600435612d71565b60016000556040519015158152f35b600091031261000e57565b503461000e57600036600319011261000e576020609854604051908152f35b6001600160a01b0381160361000e57565b35906102678261024b565b565b503461000e57602036600319011261000e576004356102878161024b565b6001600160a01b0390817f000000000000000000000000000000000000000000000000000000000000000016916102c08330141561203b565b6102ef7f360894a13ba1a3210667c828492db98dca3e2076cc3735a920a3ca505d382bbc93828554161461209c565b6102f7612458565b6040519061030482610d1c565b600082527f4910fdfa16fed3260ed0e7147f7cc6da11a60208b5b9406d12a635614ffd91435460ff161561034057505061033e9150612177565b005b6020600491604094939451928380926352d1902d60e01b825286165afa600091816103de575b506103cb5760405162461bcd60e51b815260206004820152602e60248201527f45524331393637557067726164653a206e657720696d706c656d656e7461746960448201526d6f6e206973206e6f74205555505360901b6064820152608490fd5b0390fd5b61033e936103d99114612119565b612215565b61040091925060203d8111610407575b6103f88183610d54565b8101906120fd565b9038610366565b503d6103ee565b503461000e57602036600319011261000e5761042f600260005414156125bc565b6002600055600261045661044f600435600052609a602052604060002090565b5460ff1690565b61045f81610b6b565b03610b335761048261047d6004356000526099602052604060002090565b612aea565b602060408201519101514210610b21576104b86104ac6104ac60208401516001600160a01b031690565b6001600160a01b031690565b606082015190803b1561000e576040516323b872dd60e01b815230600482015233602482015260448101929092526000908290606490829084905af18015610b14575b610afb575b5061052761051a600435600052609a602052604060002090565b805460ff19166003179055565b61053d600435600052609b602052604060002090565b5460046105656105588235600052609c602052604060002090565b546001600160a01b031690565b9261057e6104ac6104ac609e546001600160a01b031690565b8151906000610160840151610140850151936105e46105a86101808801516001600160a01b031690565b604051968794859463b0a89bd960e01b86528b860192936001600160a01b03919594606093608086019786526020860152604085015216910152565b0381845afa918215610aee575b600092610ac6575b5060209060405194858092629cbddd60e11b82525afa928315610ab9575b600093610a88575b506106376104ac60408401516001600160a01b031690565b6040516370a0823160e01b81526001600160a01b0385166004820152909385929091602081806024810103816001600160a01b038a165afa908115610a7b575b600091610a5c575b50815160005b8181106107c4575b5050505050917feaa5e39b43e701893bc019e42337b913a8c5cdce162a87d5a36b0f75c4bfd0d59391836106e9946106f6575b5050506040519182916004359583602090939291936001600160a01b0360408201951681520152565b0390a261033e6001600055565b61077092610734610120602094016107278461071983516001600160a01b031690565b30610722612c62565b613930565b516001600160a01b031690565b60006001600160a01b0360405180978196829563a9059cbb60e01b845260048401602090939291936001600160a01b0360408201951681520152565b0393165af180156107b7575b610788575b80806106c0565b6107a99060203d6020116107b0575b6107a18183610d54565b810190612b38565b5038610781565b503d610797565b6107bf61210c565b61077c565b6107ce8185612c40565b51936020850151876109db575b85516001600160a01b03166001600160a01b0381166001600160a01b038916146109cd5761081361080f6040890151151590565b1590565b6109cd578186101561093a575050505050916106e9959391837feaa5e39b43e701893bc019e42337b913a8c5cdce162a87d5a36b0f75c4bfd0d5989694610862575b849698508395975061068d565b6108f6928261088b8361087e602096516001600160a01b031690565b610886612d2e565b6138c3565b60006001600160a01b036108ba6108ac60408b01516001600160a01b031690565b93516001600160a01b031690565b60405163276d76f960e21b81526001600160a01b0394851660048201529316602484015260448301949094529094859384929183906064820190565b0393165af1801561092d575b61090e575b8080610855565b6109269060203d6020116107b0576107a18183610d54565b5038610907565b61093561210c565b610902565b9461097c6020838a61099396989a60008f6108ba6108ac60406109999d9f9361096e896001600160a01b0396610886612cf5565b01516001600160a01b031690565b0393165af180156109c0575b6109a1575b50612c9b565b92612c19565b929092610685565b6109b99060203d6020116107b0576107a18183610d54565b503861098d565b6109c861210c565b610988565b505091935061099990612c19565b89818993991015610a2b575090610a2291610a0a82610a0189516001600160a01b031690565b30610722612cb2565b61097c6020838d6107348b516001600160a01b031690565b956000966107db565b9161097c602083610a56956107348b6107276109999a9f9b9d6107198691516001600160a01b031690565b95612c19565b610a75915060203d602011610407576103f88183610d54565b3861067f565b610a8361210c565b610677565b610aab91935060203d602011610ab2575b610aa38183610d54565b81019061270b565b913861061f565b503d610a99565b610ac161210c565b610617565b6020919250610ae7903d806000833e610adf8183610d54565b810190612b4d565b91906105f9565b610af661210c565b6105f1565b80610b08610b0e92610cdf565b80610221565b38610500565b610b1c61210c565b6104fb565b604051632ab4e4b960e21b8152600490fd5b6103c7610b4f61044f600435600052609a602052604060002090565b604051635430ca1760e01b815291829160048035908401612ad4565b60051115610b7557565b634e487b7160e01b600052602160045260246000fd5b906005821015610b755752565b503461000e57602036600319011261000e57600435600052609a602052602060ff60406000205416610bcd6040518092610b8b565bf35b503461000e57604036600319011261000e57600435610bed8161024b565b610c3c602435610bfc8161024b565b60015492610c2160ff8560081c161580958196610cba575b8115610c9a575b50612504565b83610c33600160ff1981541617600155565b610c8157612576565b610c4257005b610c5261ff001960015416600155565b604051600181527f7f26b83ff96e1f2b6a682f133852f6798a09c465da95921460cefb384740249890602090a1005b610c9561010061ff00196001541617600155565b612576565b303b15915081610cac575b5038610c1b565b6001915060ff161438610ca5565b600160ff8216109150610c14565b50634e487b7160e01b600052604160045260246000fd5b67ffffffffffffffff8111610cf357604052565b610cfb610cc8565b604052565b6060810190811067ffffffffffffffff821117610cf357604052565b6020810190811067ffffffffffffffff821117610cf357604052565b6040810190811067ffffffffffffffff821117610cf357604052565b90601f8019910116810190811067ffffffffffffffff821117610cf357604052565b604051906101c0820182811067ffffffffffffffff821117610cf357604052565b6040519061026782610d00565b60209067ffffffffffffffff8111610dc2575b601f01601f19160190565b610dca610cc8565b610db7565b929192610ddb82610da4565b91610de96040519384610d54565b82948184528183011161000e578281602093846000960137010152565b9080601f8301121561000e57816020610e2193359101610dcf565b90565b50604036600319011261000e57600435610e3d8161024b565b60243567ffffffffffffffff811161000e57610e5d903690600401610e06565b906001600160a01b0391827f00000000000000000000000000000000000000000000000000000000000000001692610e978430141561203b565b610ec67f360894a13ba1a3210667c828492db98dca3e2076cc3735a920a3ca505d382bbc94828654161461209c565b610ece612458565b7f4910fdfa16fed3260ed0e7147f7cc6da11a60208b5b9406d12a635614ffd91435460ff1615610f0457505061033e9150612177565b6020600491604094939451928380926352d1902d60e01b825286165afa60009181610f9e575b50610f8b5760405162461bcd60e51b815260206004820152602e60248201527f45524331393637557067726164653a206e657720696d706c656d656e7461746960448201526d6f6e206973206e6f74205555505360901b6064820152608490fd5b61033e93610f999114612119565b612325565b610fb791925060203d8111610407576103f88183610d54565b9038610f2a565b503461000e57600036600319011261000e576001600160a01b037f000000000000000000000000000000000000000000000000000000000000000016300361102f576040517f360894a13ba1a3210667c828492db98dca3e2076cc3735a920a3ca505d382bbc8152602090f35b0390f35b60405162461bcd60e51b815260206004820152603860248201527f555550535570677261646561626c653a206d757374206e6f742062652063616c60448201527f6c6564207468726f7567682064656c656761746563616c6c00000000000000006064820152608490fd5b90600182811c921680156110ca575b60208310146110b457565b634e487b7160e01b600052602260045260246000fd5b91607f16916110a9565b90604051918260008254926110e88461109a565b9081845260019485811690816000146111555750600114611112575b505061026792500383610d54565b9093915060005260209081600020936000915b81831061113d57505061026793508201013880611104565b85548884018501529485019487945091830191611125565b9550505050505060ff1916602083015261026782604081013880611104565b9061026760ff600c611184610d76565b94805486526111b06111a060018301546001600160a01b031690565b6001600160a01b03166020880152565b6111d76111c760028301546001600160a01b031690565b6001600160a01b03166040880152565b6003810154606087015260048101546080870152600581015460a0870152600681015460c0870152600781015460e0870152611215600882016110d4565b61010087015261124361123260098301546001600160a01b031690565b6001600160a01b0316610120880152565b600a810154610140870152600b81015461016087015201546001600160a01b03811661018086015260a01c1615156101a0840152565b91908251928382526000905b8482106112b25750928060209394116112a5575b601f01601f1916010190565b6000838284010152611299565b90602090818082850101519082860101520190611285565b503461000e57602036600319011261000e576004356000526099602052604060002080546112ff600260018401549301611174565b604051928392835260208301526060604083015280516060830152611334602082015160808401906001600160a01b03169052565b60408101516001600160a01b031660a0830152606081015160c0830152608081015160e083015261102b60a0820151610100908185015260c08301519261012093848601526113ee60e0820151926101409384880152820151926101c06113a86101609582878b01526102208a0190611279565b96840151916113c561018093848b01906001600160a01b03169052565b840151946101a095868a0152840151908801528201516101e08701906001600160a01b03169052565b01511515610200840152565b503461000e57600036600319011261000e5760ff60015460081c16156114225761033e6124b0565b60405162461bcd60e51b815260206004820152602b60248201527f496e697469616c697a61626c653a20636f6e7472616374206973206e6f74206960448201526a6e697469616c697a696e6760a81b6064820152608490fd5b503461000e576000806003193601126114db57611496612458565b6066546001600160a01b03198116606655816001600160a01b0360405192167f8be0079c531659141344cd1fd0a4f28419497f9722a3daafe3b4186f6b6457e08284a3f35b80fd5b503461000e57600036600319011261000e5760206001600160a01b0360665416604051908152f35b503461000e57600036600319011261000e576020609f54604051908152f35b503461000e57602036600319011261000e57600435600052609b6020526020604060002054604051908152f35b503461000e5760031960203682011261000e5767ffffffffffffffff6004351161000e576101c0906004353603011261000e5761158d612458565b61159c600260005414156125bc565b60026000556098546115ac610d97565b90808252600060208301526115c63660043560040161261d565b60408301526115df6104ac6104ac602460043501612701565b6040516331a9108f60e11b815260048035606401359082015290602090829081806024810103915afa9081156118e7575b6000916118c8575b506001600160a01b03309116036118b65760a4600435013560846004350135111561188d5760e4600435013560c4600435013510156118645760e4600435013542101561186457816116a66116ab9261167c61010460043501600435600401612720565b905061182a575b6116926101a460043501612753565b611799576000526099602052604060002090565b6128cd565b6116d16116c4609854600052609a602052604060002090565b805460ff19166001179055565b6116e46116df609854612774565b609855565b7f9646b4a182fb1ac357dcde11fd0f02336fff19d5cd9177879d352d0fe85ba819815191611716602460043501612701565b6106e9611727604460043501612701565b92602061173961012460043501612701565b91015161175161010460043501600435600401612720565b92909160405196879661016460043501359360e460043501359260c460043501359260a4600435013592608460043501359260646004350135928d6004356004013590612a54565b6117e9600460206117b86104ac6104ac609d546001600160a01b031690565b60405163cf4e00cf60e01b815292839182905afa90811561181d575b6000916117fe575b5060c46004350135612790565b60208401526000526099602052604060002090565b611817915060203d602011610407576103f88183610d54565b386117dc565b61182561210c565b6117d4565b61185f61184c61184561010460043501600435600401612720565b3691610dcf565b60e4600435013560c46004350135613712565b611683565b604051630e781b2360e31b815260c460048035918201359083015260e401356024820152604490fd5b6040516347cc0ae160e01b8152608460048035918201359083015260a401356024820152604490fd5b6040516355a5813d60e11b8152600490fd5b6118e1915060203d602011610ab257610aa38183610d54565b38611618565b6118ef61210c565b611610565b503461000e57602036600319011261000e576020611913600435613514565b604051908152f35b503461000e57600036600319011261000e5760206001600160a01b03609d5416604051908152f35b503461000e57602036600319011261000e5760206119136004356135f5565b503461000e57602036600319011261000e57600435600052609c60205260206001600160a01b0360406000205416604051908152f35b503461000e57600036600319011261000e5760206001600160a01b03609e5416604051908152f35b503461000e57602036600319011261000e5760043580156119e057609f55005b60405162461bcd60e51b815260206004820152601f60248201527f696e74657276616c206d757374206265206e6f6e2d7a65726f2076616c7565006044820152606490fd5b503461000e5760208060031936011261000e576004908135600092611a4e6002855414156125bc565b60028455611a6961044f83600052609a602052604060002090565b90611a7382610b6b565b600182141580611f59575b611f3d57611a9961047d846000526099602052604060002090565b936040948581015190611aba6104ac6101208401516001600160a01b031690565b3303611f2d578201514211611f1d5761016081019384519060028991611adf81610b6b565b14611d84575b611aee91612790565b93611b086104ac6104ac858501516001600160a01b031690565b9160608101519089843b156114db5789516323b872dd60e01b80825230828a019081523360208201526040810195909552958b9491929183919082908490829060600103925af18015611d77575b611d64575b5089611b756104ac6104ac609e546001600160a01b031690565b82519451906101408401519589611bd6611b9a6101808801516001600160a01b031690565b8851998a968795869563b0a89bd960e01b8752860192936001600160a01b03919594606093608086019786526020860152604085015216910152565b03915afa928315611d57575b8a93611d30575b500151909390611c01906001600160a01b03166104ac565b908451946001600160a01b038a9316925b898b888310611c8d57908a7fd9778e84173ed82dd2bb850ad64fd44439124d54c442898c74f70496d817590d611c7d8c611c66611c5985600052609a602052604060002090565b805460ff19166004179055565b845133815260208101919091529081906040820190565b0390a2611c8a6001600055565b51f35b878392611cea92611ca1611d019688612c40565b518a84611cb583516001600160a01b031690565b9201519351958694859384938452338d85016040919493929460608201956001600160a01b0380921683521660208201520152565b03918a5af18015611d23575b611d06575b50612c19565b611c12565b611d1c90883d8a116107b0576107a18183610d54565b5038611cfb565b611d2b61210c565b611cf6565b6104ac91935091611d4e611c01938c3d8091833e610adf8183610d54565b93915091611be9565b611d5f61210c565b611be2565b80610b08611d7192610cdf565b38611b5b565b611d7f61210c565b611b56565b50611d9986600052609b602052604060002090565b5490611da4826134bf565b606490049089858a8601948a8c848b858a51611dc6906001600160a01b031690565b6001600160a01b03166001600160a01b0316611dec86600052609c602052604060002090565b5485516323b872dd60e01b8152338582019081526001600160a01b039092166020830152604082018d9052998a9291839003606001918391905af18015611e5a6104ac6104ac611aee9e611e9b9c611e6b9661055896611f10575b611ef3575b50516001600160a01b031690565b95600052609c602052604060002090565b92519687958694859363a9059cbb60e01b85528401602090939291936001600160a01b0360408201951681520152565b03925af18015611ee6575b611ec9575b5089611ec189600052609b602052604060002090565b559150611ae5565b611edf90863d88116107b0576107a18183610d54565b5038611eab565b611eee61210c565b611ea6565b611f09908d803d106107b0576107a18183610d54565b5038611e4c565b611f1861210c565b611e47565b8551639ae4be8360e01b81528390fd5b865163ea8e4eb560e01b81528490fd5b906103c790604051938493635430ca1760e01b85528401612ad4565b50611f6382610b6b565b6002821415611a7e565b503461000e57602036600319011261000e57600435611f8b8161024b565b611f93612458565b6001600160a01b03809116908115611fe75760009160665491816001600160a01b031984161760665560405192167f8be0079c531659141344cd1fd0a4f28419497f9722a3daafe3b4186f6b6457e08484a3f35b60405162461bcd60e51b815260206004820152602660248201527f4f776e61626c653a206e6577206f776e657220697320746865207a65726f206160448201526564647265737360d01b6064820152608490fd5b1561204257565b60405162461bcd60e51b815260206004820152602c60248201527f46756e6374696f6e206d7573742062652063616c6c6564207468726f7567682060448201526b19195b1959d85d1958d85b1b60a21b6064820152608490fd5b156120a357565b60405162461bcd60e51b815260206004820152602c60248201527f46756e6374696f6e206d7573742062652063616c6c6564207468726f7567682060448201526b6163746976652070726f787960a01b6064820152608490fd5b9081602091031261000e575190565b506040513d6000823e3d90fd5b1561212057565b60405162461bcd60e51b815260206004820152602960248201527f45524331393637557067726164653a20756e737570706f727465642070726f786044820152681a58589b195555525160ba1b6064820152608490fd5b803b156121ba576001600160a01b037f360894a13ba1a3210667c828492db98dca3e2076cc3735a920a3ca505d382bbc91166001600160a01b0319825416179055565b60405162461bcd60e51b815260206004820152602d60248201527f455243313936373a206e657720696d706c656d656e746174696f6e206973206e60448201526c1bdd08184818dbdb9d1c9858dd609a1b6064820152608490fd5b9061221f82612177565b604051916000926001600160a01b0382167fbc7cd75a20ee27fd9adebab32041f755214dbc6bffa90cc0225b39da2e5c2d3b8583a282511580159061231e575b61226a575b50505050565b813b156122cd57509180826122bb9460208395519201905af4903d156122c5573d61229481610da4565b906122a26040519283610d54565b8152809160203d92013e5b6122b56123cf565b91612418565b5038808080612264565b5060606122ad565b62461bcd60e51b815260206004820152602660248201527f416464726573733a2064656c65676174652063616c6c20746f206e6f6e2d636f6044820152651b9d1c9858dd60d21b6064820152608490fd5b508361225f565b61232e81612177565b6040516001600160a01b0382167fbc7cd75a20ee27fd9adebab32041f755214dbc6bffa90cc0225b39da2e5c2d3b600083a28251158015906123c7575b61237457505050565b813b156122cd5750600082819260206123bd95519201905af43d156123c0573d61239d81610da4565b906123ab6040519283610d54565b81523d6000602083013e6122b56123cf565b50565b60606122ad565b50600161236b565b604051906123dc82610d00565b60278252660819985a5b195960ca1b6040837f416464726573733a206c6f772d6c6576656c2064656c65676174652063616c6c60208201520152565b90919015612424575090565b8151156124345750805190602001fd5b60405162461bcd60e51b8152602060048201529081906103c7906024830190611279565b6001600160a01b0360665416330361246c57565b606460405162461bcd60e51b815260206004820152602060248201527f4f776e61626c653a2063616c6c6572206973206e6f7420746865206f776e65726044820152fd5b6066546001600160a01b03734a580d71c0f73202c51c58147aa7c7e09245b10a91828219821617606655167f8be0079c531659141344cd1fd0a4f28419497f9722a3daafe3b4186f6b6457e06000604051a3565b1561250b57565b60405162461bcd60e51b815260206004820152602e60248201527f496e697469616c697a61626c653a20636f6e747261637420697320616c72656160448201527f647920696e697469616c697a65640000000000000000000000000000000000006064820152608490fd5b906001600160a01b0390816001600160a01b0319931683609d541617609d551690609e541617609e5562015180609f5560ff60015460081c1615611422576102676124b0565b156125c357565b60405162461bcd60e51b815260206004820152601f60248201527f5265656e7472616e637947756172643a207265656e7472616e742063616c6c006044820152606490fd5b8015150361000e57565b359061026782612608565b9190916101c08184031261000e57612633610d76565b92813584526126446020830161025c565b60208501526126556040830161025c565b6040850152606082013560608501526080820135608085015260a082013560a085015260c082013560c085015260e082013560e085015261010090818301359067ffffffffffffffff821161000e576126af918401610e06565b908401526101206126c181830161025c565b90840152610140808201359084015261016080820135908401526101806126e981830161025c565b908401526126fb6101a0809201612612565b90830152565b35610e218161024b565b9081602091031261000e5751610e218161024b565b903590601e198136030182121561000e570180359067ffffffffffffffff821161000e5760200191813603831361000e57565b35610e2181612608565b50634e487b7160e01b600052601160045260246000fd5b6001906001198111612784570190565b61278c61275d565b0190565b81198111612784570190565b90601f81116127aa57505050565b600091825260208220906020601f850160051c830194106127e6575b601f0160051c01915b8281106127db57505050565b8181556001016127cf565b90925082906127c6565b919091825167ffffffffffffffff81116128c0575b61281981612813845461109a565b8461279c565b602080601f831160011461285557508192939460009261284a575b50508160011b916000199060031b1c1916179055565b015190503880612834565b90601f1983169561286b85600052602060002090565b926000905b8882106128a85750508360019596971061288f575b505050811b019055565b015160001960f88460031b161c19169055388080612885565b80600185968294968601518155019501930190612870565b6128c8610cc8565b612805565b612a3a6101a0600e60406102679580518655602081015160018701550151938451600282015561292961290a60208701516001600160a01b031690565b60038301906001600160a01b03166001600160a01b0319825416179055565b61295f61294060408701516001600160a01b031690565b60048301906001600160a01b03166001600160a01b0319825416179055565b606085015160058201556080850151600682015560a0850151600782015560c0850151600882015560e085015160098201556129a3610100860151600a83016127f0565b6129da6129bb6101208701516001600160a01b031690565b600b8301906001600160a01b03166001600160a01b0319825416179055565b610140850151600c820155610160850151600d8201550192612a33612a0a6101808301516001600160a01b031690565b855473ffffffffffffffffffffffffffffffffffffffff19166001600160a01b03909116178555565b0151151590565b815460ff60a01b191690151560a01b60ff60a01b16179055565b9b9c9a999897969594939190926020938d528c6001600160a01b0394858094169101521660408c01521660608a0152608089015260a088015260c087015260e08601526101008501526101208401526101408301528061018080610160850152830152806101a093848401376000828201840152601f01601f1916010190565b9081526040810192916102679160200190610b8b565b906040516060810181811067ffffffffffffffff821117612b2b575b6040526040612b2660028395805485526001810154602086015201611174565b910152565b612b33610cc8565b612b06565b9081602091031261000e5751610e2181612608565b6020808284031261000e57815167ffffffffffffffff9283821161000e57019083601f8301121561000e578151928311612c0c575b604093845194612b97838660051b0187610d54565b848652828601918360608097028601019481861161000e578401925b858410612bc4575050505050505090565b868483031261000e578487918451612bdb81610d00565b8651612be68161024b565b8152828701518382015285870151612bfd81612608565b86820152815201930192612bb3565b612c14610cc8565b612b82565b6001906000198114612784570190565b50634e487b7160e01b600052603260045260246000fd5b6020918151811015612c55575b60051b010190565b612c5d612c29565b612c4d565b60405190612c6f82610d38565b601982527f73656e64696e672066726f6d20257320746f2025732c202573000000000000006020830152565b818110612ca6570390565b612cae61275d565b0390565b60405190612cbf82610d00565b60218252607360f81b6040837f73656e64696e67207061727469616c2066726f6d20257320746f2025732c202560208201520152565b60405190612d0282610d38565b601982527f73656e64696e672066726f6d20495620746f2025732c202573000000000000006020830152565b60405190612d3b82610d00565b60218252607360f81b6040837f73656e64696e67207061727469616c2066726f6d20495620746f2025732c202560208201520152565b906001612d8b61044f84600052609a602052604060002090565b612d9481610b6b565b0361348a57612da2826135f5565b91612dba61047d826000526099602052604060002090565b9260206040850151940151421061333b57612de56104ac6104ac60208701516001600160a01b031690565b606085015190803b1561000e576040516323b872dd60e01b815230600482015233602482015260448101929092526000908290606490829084905af1801561332e575b61331b575b50612e466104ac6104ac609e546001600160a01b031690565b93805194600061016083015161014084015197612eae612e716101808701516001600160a01b031690565b6040519a8b94859463b0a89bd960e01b86526004860192936001600160a01b03919594606093608086019786526020860152604085015216910152565b0381845afa95861561330e575b6000966132e9575b5090602060049260405193848092629cbddd60e11b82525afa9182156132dc575b6000926132bb575b50612f046104ac60408301516001600160a01b031690565b6040516370a0823160e01b81526001600160a01b038416600482015290928491602081806024810103816001600160a01b0389165afa9081156132ae575b60009161328f575b50885160005b818110613076575b50505050612fc3959650849361051a95937feaa5e39b43e701893bc019e42337b913a8c5cdce162a87d5a36b0f75c4bfd0d59383612fb094612fc8575b50506040805133815260208101939093529192839283019150565b0390a2600052609a602052604060002090565b600190565b61303292612ff46101206020940161072784612feb83516001600160a01b031690565b33610722612c62565b6040516323b872dd60e01b81523360048201526001600160a01b03918216602482015260448101939093529193849283916000919083906064820190565b0393165af18015613069575b61304a575b8080612f95565b6130629060203d6020116107b0576107a18183610d54565b5038613043565b61307161210c565b61303e565b613080818c612c40565b519a60208c01518661321c575b8c516001600160a01b03166001600160a01b0381166001600160a01b0388161461320e576130c161080f8f60400151151590565b61320e5781861015613182575050505050937feaa5e39b43e701893bc019e42337b913a8c5cdce162a87d5a36b0f75c4bfd0d593612fb093889793612fc39a9b8861051a9b99613122575b505050938a995083975082969850819550612f58565b61313e928261088b8361087e602096516001600160a01b031690565b0393165af18015613175575b613156575b808061310c565b61316e9060203d6020116107b0576107a18183610d54565b503861314f565b61317d61210c565b61314a565b9481602061099394969f6131b46131a660408e61096e876132069c9e610886612cf5565b91516001600160a01b031690565b60405163276d76f960e21b81526001600160a01b039283166004820152911660248201526044810192909252818060648101038160006001600160a01b038d165af180156109c0576109a15750612c9b565b999099612f50565b5050919a5061320690612c19565b80879297101561325e57906132559161097c60208f8c612ff4826107278861324c8196516001600160a01b031690565b33610722612cb2565b9460009561308d565b6132899161097c60206132069599969f8c612ff48261072788612feb8196516001600160a01b031690565b94612c19565b6132a8915060203d602011610407576103f88183610d54565b38612f4a565b6132b661210c565b612f42565b6132d591925060203d602011610ab257610aa38183610d54565b9038612eec565b6132e461210c565b612ee4565b6004929196506133056020913d806000833e610adf8183610d54565b96919250612ec3565b61331661210c565b612ebb565b80610b0861332892610cdf565b38612e2d565b61333661210c565b612e28565b6134376101208561337f6104ac6104ac60407f3005fc6b3bb46c08e0cf129dca16ec43a82367c23823eddfdfbb7a1c41f4c35b98999a01516001600160a01b031690565b6040516323b872dd60e01b81523360048201523060248201526044810186905290602090829060649082906000905af1801561347d575b61345e575b506133ef336133d488600052609c602052604060002090565b906001600160a01b03166001600160a01b0319825416179055565b61341361340687600052609a602052604060002090565b805460ff19166002179055565b8361342887600052609b602052604060002090565b5501516001600160a01b031690565b604080513381526001600160a01b03929092166020830152810191909152606090a2600090565b6134769060203d6020116107b0576107a18183610d54565b50386133bb565b61348561210c565b6133b6565b506134a261044f82600052609a602052604060002090565b604051635430ca1760e01b81529182916103c79160048401612ad4565b60059080600019048211811515166134d5570290565b6134dd61275d565b0290565b80600019048211811515166134d5570290565b81156134fe570490565b634e487b7160e01b600052601260045260246000fd5b61352b61044f82600052609a602052604060002090565b61353481610b6b565b6001811415806135e1575b6135da57604061355c61047d846000526099602052604060002090565b0151916135776104ac6101208501516001600160a01b031690565b33036135d257610160610e2193015190600260009361359581610b6b565b146135a1575b50612790565b6135cb9192506135be6135c491600052609b602052604060002090565b546134bf565b6064900490565b903861359b565b505050600090565b5050600090565b506135eb81610b6b565b600281141561353f565b600161360e61044f83600052609a602052604060002090565b61361781610b6b565b036136815761363561047d6040926000526099602052604060002090565b01516101008101908151511561366157610e219160808201519160c060a0820151910151915192613808565b610e21915060808101519060a081015160e060c083015192015192613687565b50600090565b90928382036136965750505090565b926136ba6136c0926136b485600196970396420391828803906134e1565b926134e1565b90612790565b91600019830104019015150290565b9060209180518210156136e157010190565b6136e9612c29565b010190565b60ff6001911660ff8114612784570190565b60ff6002911660fd8111612784570190565b908251156137f65760008093805190825b82841061377e575b505050509061373991612c9b565b61375c609f5460ff613756613750838388166134e1565b95613700565b166134e1565b9181111561376c57101561376c57565b604051633176730d60e21b8152600490fd5b60ff9692939690816137c26137bc6137968b876136cf565b517fff000000000000000000000000000000000000000000000000000000000000001690565b60f81c90565b169182146137ed576137da6137e6926137e092612790565b936136ee565b96612c19565b9291613723565b5082965061372b565b60405163431abebf60e01b8152600490fd5b9290919282810361381a575050905090565b60009161382d8395609f549042036134f4565b81519084925b82841061385d575b50505050916136ba826136b46001956138576136c09689612c9b565b906134e1565b9091929660ff90816138756137bc6137968c876136cf565b169182146138bc578389106138a0575b6138989161389291612790565b97612c19565b929190613833565b95816138b26138989361389293612790565b9791509150613885565b975061383b565b613915906138fb92610267946001600160a01b036040519586946307c8121760e01b6020870152606060248701526084860190611279565b92166044840152606483015203601f198101835282610d54565b600080916020815191016a636f6e736f6c652e6c6f675afa50565b613960926102679461391593604051958694636eb7943d60e01b60208701526080602487015260a4860190611279565b6001600160a01b03918216604486015292166064840152608483015203601f198101835282610d5456fea2646970667358221220bccaf89217e26c84fb179a3781e5242b90bb20ee9036bc794e9d6951aefab5a064736f6c634300080e0033",
  "devdoc": {
    "errors": {
      "InexactFraction()": [
        {
          "details": "Revert with an error when attempting to apply a fraction as part of      a partial fill that does not divide the target amount cleanly."
        }
      ]
    },
    "kind": "dev",
    "methods": {
      "owner()": {
        "details": "Returns the address of the current owner."
      },
      "proxiableUUID()": {
        "details": "Implementation of the ERC1822 {proxiableUUID} function. This returns the storage slot used by the implementation. It is used to validate the implementation's compatibility when performing an upgrade. IMPORTANT: A proxy pointing at a proxiable contract should not be considered proxiable itself, because this risks bricking a proxy that upgrades to it, by delegating to itself until out of gas. Thus it is critical that this function revert if invoked through a proxy. This is guaranteed by the `notDelegated` modifier."
      },
      "renounceOwnership()": {
        "details": "Leaves the contract without owner. It will not be possible to call `onlyOwner` functions anymore. Can only be called by the current owner. NOTE: Renouncing ownership will leave the contract without an owner, thereby removing any functionality that is only available to the owner."
      },
      "transferOwnership(address)": {
        "details": "Transfers ownership of the contract to a new account (`newOwner`). Can only be called by the current owner."
      },
      "upgradeTo(address)": {
        "details": "Upgrade the implementation of the proxy to `newImplementation`. Calls {_authorizeUpgrade}. Emits an {Upgraded} event."
      },
      "upgradeToAndCall(address,bytes)": {
        "details": "Upgrade the implementation of the proxy to `newImplementation`, and subsequently execute the function call encoded in `data`. Calls {_authorizeUpgrade}. Emits an {Upgraded} event."
      }
    },
    "version": 1
  },
  "userdoc": {
    "kind": "user",
    "methods": {},
    "version": 1
  },
  "storageLayout": {
    "storage": [
      {
        "astId": 5790,
        "contract": "contracts/loan/LoanAuction.sol:LoanAuction",
        "label": "_status",
        "offset": 0,
        "slot": "0",
        "type": "t_uint256"
      },
      {
        "astId": 674,
        "contract": "contracts/loan/LoanAuction.sol:LoanAuction",
        "label": "_initialized",
        "offset": 0,
        "slot": "1",
        "type": "t_uint8"
      },
      {
        "astId": 677,
        "contract": "contracts/loan/LoanAuction.sol:LoanAuction",
        "label": "_initializing",
        "offset": 1,
        "slot": "1",
        "type": "t_bool"
      },
      {
        "astId": 656,
        "contract": "contracts/loan/LoanAuction.sol:LoanAuction",
        "label": "__gap",
        "offset": 0,
        "slot": "2",
        "type": "t_array(t_uint256)50_storage"
      },
      {
        "astId": 971,
        "contract": "contracts/loan/LoanAuction.sol:LoanAuction",
        "label": "__gap",
        "offset": 0,
        "slot": "52",
        "type": "t_array(t_uint256)50_storage"
      },
      {
        "astId": 9827,
        "contract": "contracts/loan/LoanAuction.sol:LoanAuction",
        "label": "_owner",
        "offset": 0,
        "slot": "102",
        "type": "t_address"
      },
      {
        "astId": 9947,
        "contract": "contracts/loan/LoanAuction.sol:LoanAuction",
        "label": "__gap",
        "offset": 0,
        "slot": "103",
        "type": "t_array(t_uint256)49_storage"
      },
      {
        "astId": 20648,
        "contract": "contracts/loan/LoanAuction.sol:LoanAuction",
        "label": "auctionCount",
        "offset": 0,
        "slot": "152",
        "type": "t_uint256"
      },
      {
        "astId": 20653,
        "contract": "contracts/loan/LoanAuction.sol:LoanAuction",
        "label": "auctions",
        "offset": 0,
        "slot": "153",
        "type": "t_mapping(t_uint256,t_struct(Auction)22357_storage)"
      },
      {
        "astId": 20658,
        "contract": "contracts/loan/LoanAuction.sol:LoanAuction",
        "label": "status",
        "offset": 0,
        "slot": "154",
        "type": "t_mapping(t_uint256,t_enum(AuctionStatus)22209)"
      },
      {
        "astId": 20662,
        "contract": "contracts/loan/LoanAuction.sol:LoanAuction",
        "label": "bidAmounts",
        "offset": 0,
        "slot": "155",
        "type": "t_mapping(t_uint256,t_uint256)"
      },
      {
        "astId": 20666,
        "contract": "contracts/loan/LoanAuction.sol:LoanAuction",
        "label": "bidders",
        "offset": 0,
        "slot": "156",
        "type": "t_mapping(t_uint256,t_address)"
      },
      {
        "astId": 20668,
        "contract": "contracts/loan/LoanAuction.sol:LoanAuction",
        "label": "periFiAdminAddr",
        "offset": 0,
        "slot": "157",
        "type": "t_address"
      },
      {
        "astId": 20670,
        "contract": "contracts/loan/LoanAuction.sol:LoanAuction",
        "label": "loanRepaymentAddr",
        "offset": 0,
        "slot": "158",
        "type": "t_address"
      },
      {
        "astId": 20672,
        "contract": "contracts/loan/LoanAuction.sol:LoanAuction",
        "label": "decrementInterval",
        "offset": 0,
        "slot": "159",
        "type": "t_uint256"
      }
    ],
    "types": {
      "t_address": {
        "encoding": "inplace",
        "label": "address",
        "numberOfBytes": "20"
      },
      "t_array(t_uint256)49_storage": {
        "base": "t_uint256",
        "encoding": "inplace",
        "label": "uint256[49]",
        "numberOfBytes": "1568"
      },
      "t_array(t_uint256)50_storage": {
        "base": "t_uint256",
        "encoding": "inplace",
        "label": "uint256[50]",
        "numberOfBytes": "1600"
      },
      "t_bool": {
        "encoding": "inplace",
        "label": "bool",
        "numberOfBytes": "1"
      },
      "t_bytes_storage": {
        "encoding": "bytes",
        "label": "bytes",
        "numberOfBytes": "32"
      },
      "t_enum(AuctionStatus)22209": {
        "encoding": "inplace",
        "label": "enum AuctionStatus",
        "numberOfBytes": "1"
      },
      "t_mapping(t_uint256,t_address)": {
        "encoding": "mapping",
        "key": "t_uint256",
        "label": "mapping(uint256 => address)",
        "numberOfBytes": "32",
        "value": "t_address"
      },
      "t_mapping(t_uint256,t_enum(AuctionStatus)22209)": {
        "encoding": "mapping",
        "key": "t_uint256",
        "label": "mapping(uint256 => enum AuctionStatus)",
        "numberOfBytes": "32",
        "value": "t_enum(AuctionStatus)22209"
      },
      "t_mapping(t_uint256,t_struct(Auction)22357_storage)": {
        "encoding": "mapping",
        "key": "t_uint256",
        "label": "mapping(uint256 => struct Auction)",
        "numberOfBytes": "32",
        "value": "t_struct(Auction)22357_storage"
      },
      "t_mapping(t_uint256,t_uint256)": {
        "encoding": "mapping",
        "key": "t_uint256",
        "label": "mapping(uint256 => uint256)",
        "numberOfBytes": "32",
        "value": "t_uint256"
      },
      "t_struct(Auction)22357_storage": {
        "encoding": "inplace",
        "label": "struct Auction",
        "members": [
          {
            "astId": 22351,
            "contract": "contracts/loan/LoanAuction.sol:LoanAuction",
            "label": "id",
            "offset": 0,
            "slot": "0",
            "type": "t_uint256"
          },
          {
            "astId": 22353,
            "contract": "contracts/loan/LoanAuction.sol:LoanAuction",
            "label": "protectedUntil",
            "offset": 0,
            "slot": "1",
            "type": "t_uint256"
          },
          {
            "astId": 22356,
            "contract": "contracts/loan/LoanAuction.sol:LoanAuction",
            "label": "parameters",
            "offset": 0,
            "slot": "2",
            "type": "t_struct(AuctionParameters)22341_storage"
          }
        ],
        "numberOfBytes": "480"
      },
      "t_struct(AuctionParameters)22341_storage": {
        "encoding": "inplace",
        "label": "struct AuctionParameters",
        "members": [
          {
            "astId": 22314,
            "contract": "contracts/loan/LoanAuction.sol:LoanAuction",
            "label": "loanId",
            "offset": 0,
            "slot": "0",
            "type": "t_uint256"
          },
          {
            "astId": 22316,
            "contract": "contracts/loan/LoanAuction.sol:LoanAuction",
            "label": "tokenAddress",
            "offset": 0,
            "slot": "1",
            "type": "t_address"
          },
          {
            "astId": 22318,
            "contract": "contracts/loan/LoanAuction.sol:LoanAuction",
            "label": "paymentToken",
            "offset": 0,
            "slot": "2",
            "type": "t_address"
          },
          {
            "astId": 22320,
            "contract": "contracts/loan/LoanAuction.sol:LoanAuction",
            "label": "tokenId",
            "offset": 0,
            "slot": "3",
            "type": "t_uint256"
          },
          {
            "astId": 22322,
            "contract": "contracts/loan/LoanAuction.sol:LoanAuction",
            "label": "startAmount",
            "offset": 0,
            "slot": "4",
            "type": "t_uint256"
          },
          {
            "astId": 22324,
            "contract": "contracts/loan/LoanAuction.sol:LoanAuction",
            "label": "endAmount",
            "offset": 0,
            "slot": "5",
            "type": "t_uint256"
          },
          {
            "astId": 22326,
            "contract": "contracts/loan/LoanAuction.sol:LoanAuction",
            "label": "startTime",
            "offset": 0,
            "slot": "6",
            "type": "t_uint256"
          },
          {
            "astId": 22328,
            "contract": "contracts/loan/LoanAuction.sol:LoanAuction",
            "label": "endTime",
            "offset": 0,
            "slot": "7",
            "type": "t_uint256"
          },
          {
            "astId": 22330,
            "contract": "contracts/loan/LoanAuction.sol:LoanAuction",
            "label": "stepDownConfig",
            "offset": 0,
            "slot": "8",
            "type": "t_bytes_storage"
          },
          {
            "astId": 22332,
            "contract": "contracts/loan/LoanAuction.sol:LoanAuction",
            "label": "loanBorrower",
            "offset": 0,
            "slot": "9",
            "type": "t_address"
          },
          {
            "astId": 22334,
            "contract": "contracts/loan/LoanAuction.sol:LoanAuction",
            "label": "loanAmount",
            "offset": 0,
            "slot": "10",
            "type": "t_uint256"
          },
          {
            "astId": 22336,
            "contract": "contracts/loan/LoanAuction.sol:LoanAuction",
            "label": "loanRepaymentAmount",
            "offset": 0,
            "slot": "11",
            "type": "t_uint256"
          },
          {
            "astId": 22338,
            "contract": "contracts/loan/LoanAuction.sol:LoanAuction",
            "label": "lender",
            "offset": 0,
            "slot": "12",
            "type": "t_address"
          },
          {
            "astId": 22340,
            "contract": "contracts/loan/LoanAuction.sol:LoanAuction",
            "label": "isProtected",
            "offset": 20,
            "slot": "12",
            "type": "t_bool"
          }
        ],
        "numberOfBytes": "416"
      },
      "t_uint256": {
        "encoding": "inplace",
        "label": "uint256",
        "numberOfBytes": "32"
      },
      "t_uint8": {
        "encoding": "inplace",
        "label": "uint8",
        "numberOfBytes": "1"
      }
    }
  }
}