{
  "address": "0x3353e35CcE0c517cf2DAd18f21b31DCB8320Cd43",
  "abi": [
    {
      "anonymous": false,
      "inputs": [
        {
          "indexed": false,
          "internalType": "address",
          "name": "previousAdmin",
          "type": "address"
        },
        {
          "indexed": false,
          "internalType": "address",
          "name": "newAdmin",
          "type": "address"
        }
      ],
      "name": "AdminChanged",
      "type": "event"
    },
    {
      "anonymous": false,
      "inputs": [
        {
          "indexed": true,
          "internalType": "address",
          "name": "owner",
          "type": "address"
        },
        {
          "indexed": true,
          "internalType": "address",
          "name": "spender",
          "type": "address"
        },
        {
          "indexed": false,
          "internalType": "uint256",
          "name": "value",
          "type": "uint256"
        }
      ],
      "name": "Approval",
      "type": "event"
    },
    {
      "anonymous": false,
      "inputs": [
        {
          "indexed": true,
          "internalType": "address",
          "name": "beacon",
          "type": "address"
        }
      ],
      "name": "BeaconUpgraded",
      "type": "event"
    },
    {
      "anonymous": false,
      "inputs": [
        {
          "indexed": false,
          "internalType": "uint48",
          "name": "enteredAt",
          "type": "uint48"
        },
        {
          "indexed": false,
          "internalType": "uint256",
          "name": "targetChainId",
          "type": "uint256"
        },
        {
          "indexed": false,
          "internalType": "address",
          "name": "sender",
          "type": "address"
        },
        {
          "indexed": false,
          "internalType": "address",
          "name": "receiver",
          "type": "address"
        },
        {
          "indexed": false,
          "internalType": "uint256",
          "name": "amount",
          "type": "uint256"
        },
        {
          "indexed": false,
          "internalType": "uint256",
          "name": "nonce",
          "type": "uint256"
        }
      ],
      "name": "EnterBridge",
      "type": "event"
    },
    {
      "anonymous": false,
      "inputs": [
        {
          "indexed": false,
          "internalType": "uint8",
          "name": "version",
          "type": "uint8"
        }
      ],
      "name": "Initialized",
      "type": "event"
    },
    {
      "anonymous": false,
      "inputs": [
        {
          "indexed": false,
          "internalType": "uint256",
          "name": "nonce",
          "type": "uint256"
        },
        {
          "indexed": false,
          "internalType": "uint256",
          "name": "sourceChainId",
          "type": "uint256"
        },
        {
          "indexed": false,
          "internalType": "uint48",
          "name": "leftAt",
          "type": "uint48"
        }
      ],
      "name": "LeaveBridge",
      "type": "event"
    },
    {
      "anonymous": false,
      "inputs": [
        {
          "indexed": true,
          "internalType": "address",
          "name": "previousOwner",
          "type": "address"
        },
        {
          "indexed": true,
          "internalType": "address",
          "name": "newOwner",
          "type": "address"
        }
      ],
      "name": "OwnershipTransferred",
      "type": "event"
    },
    {
      "anonymous": false,
      "inputs": [
        {
          "indexed": true,
          "internalType": "address",
          "name": "from",
          "type": "address"
        },
        {
          "indexed": true,
          "internalType": "address",
          "name": "to",
          "type": "address"
        },
        {
          "indexed": false,
          "internalType": "uint256",
          "name": "value",
          "type": "uint256"
        }
      ],
      "name": "Transfer",
      "type": "event"
    },
    {
      "anonymous": false,
      "inputs": [
        {
          "indexed": true,
          "internalType": "address",
          "name": "implementation",
          "type": "address"
        }
      ],
      "name": "Upgraded",
      "type": "event"
    },
    {
      "inputs": [],
      "name": "__MWOwnable_init",
      "outputs": [],
      "stateMutability": "nonpayable",
      "type": "function"
    },
    {
      "inputs": [],
      "name": "__Testing_init",
      "outputs": [],
      "stateMutability": "nonpayable",
      "type": "function"
    },
    {
      "inputs": [
        {
          "internalType": "address",
          "name": "owner",
          "type": "address"
        },
        {
          "internalType": "address",
          "name": "spender",
          "type": "address"
        }
      ],
      "name": "allowance",
      "outputs": [
        {
          "internalType": "uint256",
          "name": "",
          "type": "uint256"
        }
      ],
      "stateMutability": "view",
      "type": "function"
    },
    {
      "inputs": [
        {
          "internalType": "address",
          "name": "spender",
          "type": "address"
        },
        {
          "internalType": "uint256",
          "name": "amount",
          "type": "uint256"
        }
      ],
      "name": "approve",
      "outputs": [
        {
          "internalType": "bool",
          "name": "",
          "type": "bool"
        }
      ],
      "stateMutability": "nonpayable",
      "type": "function"
    },
    {
      "inputs": [
        {
          "internalType": "address",
          "name": "operator",
          "type": "address"
        },
        {
          "internalType": "string",
          "name": "role",
          "type": "string"
        },
        {
          "internalType": "bool",
          "name": "authorized",
          "type": "bool"
        }
      ],
      "name": "authorize",
      "outputs": [],
      "stateMutability": "nonpayable",
      "type": "function"
    },
    {
      "inputs": [
        {
          "internalType": "address",
          "name": "account",
          "type": "address"
        }
      ],
      "name": "balanceOf",
      "outputs": [
        {
          "internalType": "uint256",
          "name": "",
          "type": "uint256"
        }
      ],
      "stateMutability": "view",
      "type": "function"
    },
    {
      "inputs": [
        {
          "internalType": "uint256",
          "name": "amount",
          "type": "uint256"
        }
      ],
      "name": "burn",
      "outputs": [],
      "stateMutability": "nonpayable",
      "type": "function"
    },
    {
      "inputs": [
        {
          "internalType": "address",
          "name": "account",
          "type": "address"
        },
        {
          "internalType": "uint256",
          "name": "amount",
          "type": "uint256"
        }
      ],
      "name": "burnFrom",
      "outputs": [],
      "stateMutability": "nonpayable",
      "type": "function"
    },
    {
      "inputs": [],
      "name": "crossChainInflationAmount",
      "outputs": [
        {
          "internalType": "uint256",
          "name": "",
          "type": "uint256"
        }
      ],
      "stateMutability": "view",
      "type": "function"
    },
    {
      "inputs": [],
      "name": "crossChainSupply",
      "outputs": [
        {
          "internalType": "uint256",
          "name": "",
          "type": "uint256"
        }
      ],
      "stateMutability": "view",
      "type": "function"
    },
    {
      "inputs": [],
      "name": "decimals",
      "outputs": [
        {
          "internalType": "uint8",
          "name": "",
          "type": "uint8"
        }
      ],
      "stateMutability": "view",
      "type": "function"
    },
    {
      "inputs": [
        {
          "internalType": "address",
          "name": "spender",
          "type": "address"
        },
        {
          "internalType": "uint256",
          "name": "subtractedValue",
          "type": "uint256"
        }
      ],
      "name": "decreaseAllowance",
      "outputs": [
        {
          "internalType": "bool",
          "name": "",
          "type": "bool"
        }
      ],
      "stateMutability": "nonpayable",
      "type": "function"
    },
    {
      "inputs": [
        {
          "internalType": "address",
          "name": "_to",
          "type": "address"
        },
        {
          "internalType": "uint256",
          "name": "_amount",
          "type": "uint256"
        }
      ],
      "name": "distribute",
      "outputs": [],
      "stateMutability": "nonpayable",
      "type": "function"
    },
    {
      "inputs": [
        {
          "internalType": "uint256",
          "name": "_targetChainId",
          "type": "uint256"
        },
        {
          "internalType": "address",
          "name": "_receiver",
          "type": "address"
        },
        {
          "internalType": "uint256",
          "name": "_amount",
          "type": "uint256"
        }
      ],
      "name": "enterBridge",
      "outputs": [],
      "stateMutability": "nonpayable",
      "type": "function"
    },
    {
      "inputs": [],
      "name": "getVersion",
      "outputs": [
        {
          "internalType": "uint8",
          "name": "",
          "type": "uint8"
        }
      ],
      "stateMutability": "view",
      "type": "function"
    },
    {
      "inputs": [
        {
          "internalType": "address",
          "name": "",
          "type": "address"
        },
        {
          "internalType": "string",
          "name": "",
          "type": "string"
        }
      ],
      "name": "hasRole",
      "outputs": [
        {
          "internalType": "bool",
          "name": "",
          "type": "bool"
        }
      ],
      "stateMutability": "view",
      "type": "function"
    },
    {
      "inputs": [
        {
          "internalType": "address",
          "name": "spender",
          "type": "address"
        },
        {
          "internalType": "uint256",
          "name": "addedValue",
          "type": "uint256"
        }
      ],
      "name": "increaseAllowance",
      "outputs": [
        {
          "internalType": "bool",
          "name": "",
          "type": "bool"
        }
      ],
      "stateMutability": "nonpayable",
      "type": "function"
    },
    {
      "inputs": [
        {
          "internalType": "uint8",
          "name": "_count",
          "type": "uint8"
        },
        {
          "internalType": "uint256",
          "name": "_amount",
          "type": "uint256"
        },
        {
          "internalType": "bytes",
          "name": "_signature",
          "type": "bytes"
        }
      ],
      "name": "inflate",
      "outputs": [],
      "stateMutability": "nonpayable",
      "type": "function"
    },
    {
      "inputs": [
        {
          "internalType": "bool",
          "name": "_isMainChain",
          "type": "bool"
        },
        {
          "internalType": "uint256[]",
          "name": "_chains",
          "type": "uint256[]"
        }
      ],
      "name": "initialize",
      "outputs": [],
      "stateMutability": "nonpayable",
      "type": "function"
    },
    {
      "inputs": [],
      "name": "isMintChain",
      "outputs": [
        {
          "internalType": "bool",
          "name": "",
          "type": "bool"
        }
      ],
      "stateMutability": "view",
      "type": "function"
    },
    {
      "inputs": [
        {
          "internalType": "uint8",
          "name": "",
          "type": "uint8"
        }
      ],
      "name": "isProcessed",
      "outputs": [
        {
          "internalType": "bool",
          "name": "",
          "type": "bool"
        }
      ],
      "stateMutability": "view",
      "type": "function"
    },
    {
      "inputs": [],
      "name": "lastInflation",
      "outputs": [
        {
          "internalType": "uint48",
          "name": "",
          "type": "uint48"
        }
      ],
      "stateMutability": "view",
      "type": "function"
    },
    {
      "inputs": [
        {
          "internalType": "uint256",
          "name": "_sourceChainId",
          "type": "uint256"
        },
        {
          "internalType": "address",
          "name": "_receiver",
          "type": "address"
        },
        {
          "internalType": "uint256",
          "name": "_amount",
          "type": "uint256"
        },
        {
          "internalType": "uint256",
          "name": "_nonce",
          "type": "uint256"
        },
        {
          "internalType": "bytes",
          "name": "_signature",
          "type": "bytes"
        }
      ],
      "name": "leaveBridge",
      "outputs": [],
      "stateMutability": "nonpayable",
      "type": "function"
    },
    {
      "inputs": [
        {
          "internalType": "address",
          "name": "_receiver",
          "type": "address"
        },
        {
          "internalType": "uint256",
          "name": "_amount",
          "type": "uint256"
        }
      ],
      "name": "mint",
      "outputs": [],
      "stateMutability": "nonpayable",
      "type": "function"
    },
    {
      "inputs": [],
      "name": "name",
      "outputs": [
        {
          "internalType": "string",
          "name": "",
          "type": "string"
        }
      ],
      "stateMutability": "view",
      "type": "function"
    },
    {
      "inputs": [],
      "name": "owner",
      "outputs": [
        {
          "internalType": "address",
          "name": "",
          "type": "address"
        }
      ],
      "stateMutability": "view",
      "type": "function"
    },
    {
      "inputs": [],
      "name": "proxiableUUID",
      "outputs": [
        {
          "internalType": "bytes32",
          "name": "",
          "type": "bytes32"
        }
      ],
      "stateMutability": "view",
      "type": "function"
    },
    {
      "inputs": [],
      "name": "renounceOwnership",
      "outputs": [],
      "stateMutability": "nonpayable",
      "type": "function"
    },
    {
      "inputs": [],
      "name": "reset",
      "outputs": [],
      "stateMutability": "nonpayable",
      "type": "function"
    },
    {
      "inputs": [
        {
          "internalType": "address",
          "name": "_staking",
          "type": "address"
        }
      ],
      "name": "setStaking",
      "outputs": [],
      "stateMutability": "nonpayable",
      "type": "function"
    },
    {
      "inputs": [
        {
          "internalType": "bool",
          "name": "_testing",
          "type": "bool"
        }
      ],
      "name": "setTesting",
      "outputs": [],
      "stateMutability": "nonpayable",
      "type": "function"
    },
    {
      "inputs": [],
      "name": "staking",
      "outputs": [
        {
          "internalType": "contract ILendingPoolStaking",
          "name": "",
          "type": "address"
        }
      ],
      "stateMutability": "view",
      "type": "function"
    },
    {
      "inputs": [
        {
          "internalType": "uint256",
          "name": "",
          "type": "uint256"
        }
      ],
      "name": "supportedChainIds",
      "outputs": [
        {
          "internalType": "uint256",
          "name": "",
          "type": "uint256"
        }
      ],
      "stateMutability": "view",
      "type": "function"
    },
    {
      "inputs": [],
      "name": "symbol",
      "outputs": [
        {
          "internalType": "string",
          "name": "",
          "type": "string"
        }
      ],
      "stateMutability": "view",
      "type": "function"
    },
    {
      "inputs": [],
      "name": "testing",
      "outputs": [
        {
          "internalType": "bool",
          "name": "",
          "type": "bool"
        }
      ],
      "stateMutability": "view",
      "type": "function"
    },
    {
      "inputs": [],
      "name": "timeSlicedCrossChainSupply",
      "outputs": [
        {
          "internalType": "uint256",
          "name": "",
          "type": "uint256"
        }
      ],
      "stateMutability": "view",
      "type": "function"
    },
    {
      "inputs": [],
      "name": "totalSupply",
      "outputs": [
        {
          "internalType": "uint256",
          "name": "",
          "type": "uint256"
        }
      ],
      "stateMutability": "view",
      "type": "function"
    },
    {
      "inputs": [
        {
          "internalType": "address",
          "name": "to",
          "type": "address"
        },
        {
          "internalType": "uint256",
          "name": "amount",
          "type": "uint256"
        }
      ],
      "name": "transfer",
      "outputs": [
        {
          "internalType": "bool",
          "name": "",
          "type": "bool"
        }
      ],
      "stateMutability": "nonpayable",
      "type": "function"
    },
    {
      "inputs": [
        {
          "internalType": "address",
          "name": "from",
          "type": "address"
        },
        {
          "internalType": "address",
          "name": "to",
          "type": "address"
        },
        {
          "internalType": "uint256",
          "name": "amount",
          "type": "uint256"
        }
      ],
      "name": "transferFrom",
      "outputs": [
        {
          "internalType": "bool",
          "name": "",
          "type": "bool"
        }
      ],
      "stateMutability": "nonpayable",
      "type": "function"
    },
    {
      "inputs": [
        {
          "internalType": "address",
          "name": "newOwner",
          "type": "address"
        }
      ],
      "name": "transferOwnership",
      "outputs": [],
      "stateMutability": "nonpayable",
      "type": "function"
    },
    {
      "inputs": [
        {
          "internalType": "uint256",
          "name": "_crossChainSupply",
          "type": "uint256"
        },
        {
          "internalType": "uint256",
          "name": "_crossChainInflationAmount",
          "type": "uint256"
        }
      ],
      "name": "update",
      "outputs": [],
      "stateMutability": "nonpayable",
      "type": "function"
    },
    {
      "inputs": [
        {
          "internalType": "address",
          "name": "newImplementation",
          "type": "address"
        }
      ],
      "name": "upgradeTo",
      "outputs": [],
      "stateMutability": "nonpayable",
      "type": "function"
    },
    {
      "inputs": [
        {
          "internalType": "address",
          "name": "newImplementation",
          "type": "address"
        },
        {
          "internalType": "bytes",
          "name": "data",
          "type": "bytes"
        }
      ],
      "name": "upgradeToAndCall",
      "outputs": [],
      "stateMutability": "payable",
      "type": "function"
    },
    {
      "inputs": [],
      "name": "version",
      "outputs": [
        {
          "internalType": "uint8",
          "name": "",
          "type": "uint8"
        }
      ],
      "stateMutability": "view",
      "type": "function"
    }
  ],
  "transactionHash": "0x6d8eb6b883dc879071ea56ce15c45ed303400d50e5cb0523aadbb60a15e152a1",
  "args": [],
  "numDeployments": 2,
  "solcInputHash": "7e39eafc1562b1de0b3e82128371060c",
  "bytecode": "0x60a06040523462000121576000546200003260ff8260081c16158092819362000112575b8115620000ef575b5062000126565b8062000046600160ff196000541617600055565b620000d4575b620000566200021d565b620000a1575b620000666200018a565b30608052610135805461ff001916610200179055604051612ff190816200027e823960805181818161089001528181610ccf0152610e3f0152f35b620000b261ff001960005416600055565b604051600181526000805160206200326f83398151915290602090a16200005c565b620000e961010061ff00196000541617600055565b6200004c565b303b1591508162000103575b50386200002b565b6001915060ff161438620000fb565b600160ff821610915062000023565b600080fd5b156200012e57565b60405162461bcd60e51b815260206004820152602e60248201527f496e697469616c697a61626c653a20636f6e747261637420697320616c72656160448201526d191e481a5b9a5d1a585b1a5e995960921b6064820152608490fd5b600054620001b060ff8260081c16158092819362000112578115620000ef575062000126565b80620001c4600160ff196000541617600055565b62000202575b60ff19609a5416609a55620001db57565b61ff0019600054166000556000805160206200326f833981519152602060405160018152a1565b6200021761010061ff00196000541617600055565b620001ca565b60658054737e8ae5c72eca86946b695dcc211863d9721a09616001600160a01b0319821681179092556040516001600160a01b03909116907f8be0079c531659141344cd1fd0a4f28419497f9722a3daafe3b4186f6b6457e090600090a356fe60806040526004361015610013575b600080fd5b60003560e01c806306fdde031461037a57806308ed8d1614610371578063095ea7b3146103685780630d8e6e2c146102bd5780630e1e5e701461035f57806318160ddd14610356578063217fe6c61461034d57806323b872dd146103445780632608ab611461033b5780632fb565e814610332578063313ce5671461032957806333d31cb5146103205780633659cfe614610317578063395093511461030e57806339d2525f146103055780633e533a1f146102fc57806340c10f19146102f357806342966c68146102ea5780634cf088d9146102e15780634cf2ab32146102d85780634f1ef286146102cf57806352d1902d146102c657806354fd4d50146102bd57806361c0cf5e146102b457806365b014b7146102ab57806370a08231146102a2578063715018a61461029957806379cc6790146102905780637fb5d58e14610287578063873c59a51461027e5780638d03b102146102755780638da5cb5b1461026c5780638ff390991461026357806395d89b411461025a5780639f64f2d814610251578063a457c2d714610248578063a9059cbb1461023f578063b130840d14610236578063d2438c2a1461022d578063d826f88f14610224578063dd62ed3e1461021b578063e15841b514610212578063f2fde38b146102095763fb9321081461020157600080fd5b61000e6116ea565b5061000e611620565b5061000e6115d0565b5061000e611572565b5061000e611527565b5061000e6114f8565b5061000e611456565b5061000e61142f565b5061000e611373565b5061000e611324565b5061000e61127c565b5061000e611208565b5061000e6111e0565b5061000e6111bc565b5061000e61119d565b5061000e611179565b5061000e611148565b5061000e6110e8565b5061000e6110ad565b5061000e611082565b5061000e610efb565b5061000e610572565b5061000e610e23565b5061000e610c8d565b5061000e610c3b565b5061000e610c10565b5061000e610bf2565b5061000e610b4a565b5061000e610b10565b5061000e610a65565b5061000e610a0b565b5061000e61086a565b5061000e610840565b5061000e610823565b5061000e6107fb565b5061000e6107d6565b5061000e61079d565b5061000e610712565b5061000e6105b7565b5061000e610598565b5061000e610540565b5061000e6104db565b5061000e6103ef565b600091031261000e57565b918091926000905b8282106103ae5750116103a7575050565b6000910152565b91508060209183015181860152018291610396565b604091602082526103e3815180928160208601526020868601910161038e565b601f01601f1916010190565b503461000e576000806003193601126104c957604051908060365461041381611ac5565b808552916001918083169081156104a8575060011461044d575b6104498561043d8187038261067e565b604051918291826103c3565b0390f35b9250603683527f4a11f94e20a93c79f6ec743a1954ec4fc2c08429ae2122118bf234b2185c81b85b82841061049057505050810160200161043d8261044961042d565b80546020858701810191909152909301928101610475565b60ff19166020870152505060408401925061043d915083905061044961042d565b80fd5b60043590811515820361000e57565b503461000e57602036600319011261000e576104f56104cc565b6104fd612116565b60ff8019609a54169115151617609a556000604051f35b600435906001600160a01b038216820361000e57565b602435906001600160a01b038216820361000e57565b503461000e57604036600319011261000e5761056761055d610514565b6024359033611cfe565b602060405160018152f35b503461000e57600036600319011261000e57602060ff6101355460081c16604051908152f35b503461000e57600036600319011261000e576020609d54604051908152f35b503461000e57600036600319011261000e576020603554604051908152f35b50634e487b7160e01b600052604160045260246000fd5b67ffffffffffffffff811161060157604052565b6106096105d6565b604052565b6020810190811067ffffffffffffffff82111761060157604052565b6040810190811067ffffffffffffffff82111761060157604052565b6060810190811067ffffffffffffffff82111761060157604052565b60a0810190811067ffffffffffffffff82111761060157604052565b90601f8019910116810190811067ffffffffffffffff82111761060157604052565b60209067ffffffffffffffff81116106be575b601f01601f19160190565b6106c66105d6565b6106b3565b81601f8201121561000e578035906106e2826106a0565b926106f0604051948561067e565b8284526020838301011161000e57816000926020809301838601378301015290565b503461000e57604036600319011261000e5761072c610514565b60243567ffffffffffffffff811161000e576107806020610449936001600160a01b0361075f60ff9536906004016106cb565b9116600052609e82526040600020826040519483868095519384920161038e565b820190815203019020546040519116151581529081906020820190565b503461000e57606036600319011261000e576105676107ba610514565b6107c261052a565b604435916107d1833383611e2b565b611be1565b503461000e57600036600319011261000e57602060ff61013554166040519015158152f35b503461000e57604036600319011261000e57610815612116565b600435609c55602435609d55005b503461000e57600036600319011261000e57602060405160128152f35b503461000e57600036600319011261000e57602065ffffffffffff609a5460081c16604051908152f35b503461000e57602036600319011261000e57610884610514565b6001600160a01b0390817f000000000000000000000000000000000000000000000000000000000000000016916108bd83301415611719565b6108ec7f360894a13ba1a3210667c828492db98dca3e2076cc3735a920a3ca505d382bbc93828554161461177a565b6108f4612116565b604051906109018261060e565b600082527f4910fdfa16fed3260ed0e7147f7cc6da11a60208b5b9406d12a635614ffd91435460ff161561093d57505061093b9150611855565b005b6020600491604094939451928380926352d1902d60e01b825286165afa600091816109db575b506109c85760405162461bcd60e51b815260206004820152602e60248201527f45524331393637557067726164653a206e657720696d706c656d656e7461746960448201526d6f6e206973206e6f74205555505360901b6064820152608490fd5b0390fd5b61093b936109d691146117f7565b6118f3565b6109fd91925060203d8111610a04575b6109f5818361067e565b8101906117db565b9038610963565b503d6109eb565b503461000e57604036600319011261000e57610567610a28610514565b336000526034602052610a5e602435610a58836040600020906001600160a01b0316600052602052604060002090565b54611b16565b9033611cfe565b503461000e57606036600319011261000e57610a7f610514565b60243567ffffffffffffffff811161000e57610a9f9036906004016106cb565b60443590811515820361000e576020610ae6916001600160a01b0361093b95610ac6612116565b16600052609e82526040600020826040519483868095519384920161038e565b8201908152030190209060ff801983541691151516179055565b6004359060ff8216820361000e57565b503461000e57602036600319011261000e5760ff610b2c610b00565b16600052609b602052602060ff604060002054166040519015158152f35b503461000e57604036600319011261000e5761093b610b67610514565b610ba7604051610b768161062a565b60068152602081016536b4b73a32b960d11b81526001600160a01b03606554163314918215610bb0575b5050612824565b60243590612475565b610beb9250610bdb9160209133600052609e835260406000209060405194859384925192839161038e565b8201908152030190205460ff1690565b3880610ba0565b503461000e57602036600319011261000e5761093b60043533611ecf565b503461000e57600036600319011261000e5760206001600160a01b03609a5460381c16604051908152f35b503461000e57602036600319011261000e5760043560995481101561000e5760209060996000527f72a152ddfb8e864297c917af52ea6c1c68aead0fee1a62673fcc7e0c94979d000154604051908152f35b50604036600319011261000e57610ca2610514565b60243567ffffffffffffffff811161000e57610cc29036906004016106cb565b906001600160a01b0391827f00000000000000000000000000000000000000000000000000000000000000001692610cfc84301415611719565b610d2b7f360894a13ba1a3210667c828492db98dca3e2076cc3735a920a3ca505d382bbc94828654161461177a565b610d33612116565b7f4910fdfa16fed3260ed0e7147f7cc6da11a60208b5b9406d12a635614ffd91435460ff1615610d6957505061093b9150611855565b6020600491604094939451928380926352d1902d60e01b825286165afa60009181610e03575b50610df05760405162461bcd60e51b815260206004820152602e60248201527f45524331393637557067726164653a206e657720696d706c656d656e7461746960448201526d6f6e206973206e6f74205555505360901b6064820152608490fd5b61093b93610dfe91146117f7565b6119e1565b610e1c91925060203d8111610a04576109f5818361067e565b9038610d8f565b503461000e57600036600319011261000e576001600160a01b037f0000000000000000000000000000000000000000000000000000000000000000163003610e90576040517f360894a13ba1a3210667c828492db98dca3e2076cc3735a920a3ca505d382bbc8152602090f35b60405162461bcd60e51b815260206004820152603860248201527f555550535570677261646561626c653a206d757374206e6f742062652063616c60448201527f6c6564207468726f7567682064656c656761746563616c6c00000000000000006064820152608490fd5b503461000e57606036600319011261000e57600435610f1861052a565b60443591610f25816124d8565b80611078575b15611033578215610fee57610fe983610f847f03e3807b3a9878d6a3f82fb311f5785f5c7160b382b89fe8fc43c31bda6d066e95610f7c336001600160a01b03166000526033602052604060002090565b5410156121c2565b610f8e8133611ecf565b60985490610fa3610f9e8361220e565b609855565b604080514265ffffffffffff168152602081019590955233908501526001600160a01b039094166060840152608083019390935260a082019290925290819060c0820190565b0390a1005b60405162461bcd60e51b815260206004820152600e60248201527f496e76616c696420616d6f756e740000000000000000000000000000000000006044820152606490fd5b60405162461bcd60e51b815260206004820152601960248201527f496e76616c69642064657374696e6174696f6e20636861696e000000000000006044820152606490fd5b5080461415610f2b565b503461000e57600036600319011261000e576110a560ff60005460081c1661209b565b61093b61216e565b503461000e57602036600319011261000e576001600160a01b036110cf610514565b1660005260336020526020604060002054604051908152f35b503461000e576000806003193601126104c957611103612116565b6065546001600160a01b03198116606555816001600160a01b0360405192167f8be0079c531659141344cd1fd0a4f28419497f9722a3daafe3b4186f6b6457e08284a3f35b503461000e57604036600319011261000e5761093b611165610514565b60243590611174823383611e2b565b611ecf565b503461000e57600036600319011261000e576020611195612f00565b604051908152f35b503461000e57600036600319011261000e576020609c54604051908152f35b503461000e57600036600319011261000e57602060ff609a54166040519015158152f35b503461000e57600036600319011261000e5760206001600160a01b0360655416604051908152f35b503461000e57602036600319011261000e57611222610514565b61122a612116565b7fffffffffff0000000000000000000000000000000000000000ffffffffffffff7affffffffffffffffffffffffffffffffffffffff00000000000000609a549260381b16911617609a556000604051f35b503461000e576000806003193601126104c95760405190806037546112a081611ac5565b808552916001918083169081156104a857506001146112c9576104498561043d8187038261067e565b9250603783527f42a7b7dd785cd69714a189dffb3fd7d7174edc9ece837694ce50f7078f7c31ae5b82841061130c57505050810160200161043d8261044961042d565b805460208587018101919091529093019281016112f1565b503461000e5760a036600319011261000e5761133e61052a565b6084359067ffffffffffffffff821161000e5761136261093b9236906004016106cb565b90606435906044359060043561226a565b503461000e57604036600319011261000e5761138d610514565b602435903360005260346020526113bb816040600020906001600160a01b0316600052602052604060002090565b54918083106113dc576113d092039033611cfe565b60405160018152602090f35b60405162461bcd60e51b815260206004820152602560248201527f45524332303a2064656372656173656420616c6c6f77616e63652062656c6f77604482015264207a65726f60d81b6064820152608490fd5b503461000e57604036600319011261000e5761056761144c610514565b6024359033611be1565b503461000e57604036600319011261000e576114706104cc565b60243567ffffffffffffffff80821161000e573660238301121561000e5781600401359081116114eb575b8060051b91604051926020926114b38483018661067e565b84526024838501918301019136831161000e57602401905b8282106114dc5761093b8587612870565b813581529083019083016114cb565b6114f36105d6565b61149b565b503461000e57600036600319011261000e5761151b60ff60005460081c1661209b565b609a805460ff19169055005b503461000e576000806003193601126104c957611542612116565b805b60ff908116808352609b60205260408320805460ff1916905590811461156c57600101611544565b50604051f35b503461000e57604036600319011261000e5760206115c7611591610514565b6001600160a01b036115a161052a565b9116600052603483526040600020906001600160a01b0316600052602052604060002090565b54604051908152f35b503461000e57606036600319011261000e576115ea610b00565b6044359067ffffffffffffffff821161000e5761160e61093b9236906004016106cb565b90611617612116565b60243590612695565b503461000e57602036600319011261000e5761163a610514565b611642612116565b6001600160a01b038091169081156116965760009160655491816001600160a01b031984161760655560405192167f8be0079c531659141344cd1fd0a4f28419497f9722a3daafe3b4186f6b6457e08484a3f35b60405162461bcd60e51b815260206004820152602660248201527f4f776e61626c653a206e6577206f776e657220697320746865207a65726f206160448201526564647265737360d01b6064820152608490fd5b503461000e57604036600319011261000e5761093b611707610514565b61170f612116565b6024359030611be1565b1561172057565b60405162461bcd60e51b815260206004820152602c60248201527f46756e6374696f6e206d7573742062652063616c6c6564207468726f7567682060448201526b19195b1959d85d1958d85b1b60a21b6064820152608490fd5b1561178157565b60405162461bcd60e51b815260206004820152602c60248201527f46756e6374696f6e206d7573742062652063616c6c6564207468726f7567682060448201526b6163746976652070726f787960a01b6064820152608490fd5b9081602091031261000e575190565b506040513d6000823e3d90fd5b156117fe57565b60405162461bcd60e51b815260206004820152602960248201527f45524331393637557067726164653a20756e737570706f727465642070726f786044820152681a58589b195555525160ba1b6064820152608490fd5b803b15611898576001600160a01b037f360894a13ba1a3210667c828492db98dca3e2076cc3735a920a3ca505d382bbc91166001600160a01b0319825416179055565b60405162461bcd60e51b815260206004820152602d60248201527f455243313936373a206e657720696d706c656d656e746174696f6e206973206e60448201526c1bdd08184818dbdb9d1c9858dd609a1b6064820152608490fd5b6118fc81611855565b604051906000906001600160a01b0381167fbc7cd75a20ee27fd9adebab32041f755214dbc6bffa90cc0225b39da2e5c2d3b8385a28351158015906119da575b611947575b50505050565b81806119c79561195686610646565b602786527f416464726573733a206c6f772d6c6576656c2064656c65676174652063616c6c6020870152660819985a5b195960ca1b6040870152602081519101845af4903d156119d1573d6119aa816106a0565b906119b8604051928361067e565b8152809360203d92013e61200a565b5038808080611941565b6060925061200a565b508161193c565b6119ea81611855565b604051906001600160a01b0381167fbc7cd75a20ee27fd9adebab32041f755214dbc6bffa90cc0225b39da2e5c2d3b600084a2825115801590611abd575b611a3157505050565b600080611ab294611a4185610646565b602785527f416464726573733a206c6f772d6c6576656c2064656c65676174652063616c6c6020860152660819985a5b195960ca1b6040860152602081519101845af43d15611ab5573d91611a95836106a0565b92611aa3604051948561067e565b83523d6000602085013e61200a565b50565b60609161200a565b506001611a28565b90600182811c92168015611af5575b6020831014611adf57565b634e487b7160e01b600052602260045260246000fd5b91607f1691611ad4565b50634e487b7160e01b600052601160045260246000fd5b81198111611b22570190565b611b2a611aff565b0190565b15611b3557565b60405162461bcd60e51b815260206004820152602360248201527f45524332303a207472616e7366657220746f20746865207a65726f206164647260448201526265737360e81b6064820152608490fd5b15611b8d57565b60405162461bcd60e51b815260206004820152602660248201527f45524332303a207472616e7366657220616d6f756e7420657863656564732062604482015265616c616e636560d01b6064820152608490fd5b91906001600160a01b0390818416928315611cab57611c90827fddf252ad1be2c89b69c2b068fc378daa952ba7f163c4a11628f55a4df523b3ef94611ca6941696611c2d881515611b2e565b611c7684611c4e836001600160a01b03166000526033602052604060002090565b54611c5b82821015611b86565b03916001600160a01b03166000526033602052604060002090565b556001600160a01b03166000526033602052604060002090565b8054820190556040519081529081906020820190565b0390a3565b60405162461bcd60e51b815260206004820152602560248201527f45524332303a207472616e736665722066726f6d20746865207a65726f206164604482015264647265737360d81b6064820152608490fd5b906001600160a01b0391828116928315611dda578216938415611d8a5780611d797f8c5be1e5ebec7d5bd14f71427d1e84f3dd0314c0f7b2291e5b200ac8c7c3b92594611d61611ca6956001600160a01b03166000526034602052604060002090565b906001600160a01b0316600052602052604060002090565b556040519081529081906020820190565b60405162461bcd60e51b815260206004820152602260248201527f45524332303a20617070726f766520746f20746865207a65726f206164647265604482015261737360f01b6064820152608490fd5b60405162461bcd60e51b8152602060048201526024808201527f45524332303a20617070726f76652066726f6d20746865207a65726f206164646044820152637265737360e01b6064820152608490fd5b906001600160a01b0382166000526034602052611e5f816040600020906001600160a01b0316600052602052604060002090565b549260018401611e6f5750505050565b808410611e8a57611e81930391611cfe565b38808080611941565b60405162461bcd60e51b815260206004820152601d60248201527f45524332303a20696e73756666696369656e7420616c6c6f77616e63650000006044820152606490fd5b6001600160a01b038116908115611fbb57611efd816001600160a01b03166000526033602052604060002090565b54838110611f6b57837fddf252ad1be2c89b69c2b068fc378daa952ba7f163c4a11628f55a4df523b3ef92611f4d600096611ca69403916001600160a01b03166000526033602052604060002090565b55611f5b8160355403603555565b6040519081529081906020820190565b60405162461bcd60e51b815260206004820152602260248201527f45524332303a206275726e20616d6f756e7420657863656564732062616c616e604482015261636560f01b6064820152608490fd5b60405162461bcd60e51b815260206004820152602160248201527f45524332303a206275726e2066726f6d20746865207a65726f206164647265736044820152607360f81b6064820152608490fd5b9192901561206c575081511561201e575090565b3b156120275790565b60405162461bcd60e51b815260206004820152601d60248201527f416464726573733a2063616c6c20746f206e6f6e2d636f6e74726163740000006044820152606490fd5b82519091501561207f5750805190602001fd5b60405162461bcd60e51b81529081906109c490600483016103c3565b156120a257565b60405162461bcd60e51b815260206004820152602b60248201527f496e697469616c697a61626c653a20636f6e7472616374206973206e6f74206960448201526a6e697469616c697a696e6760a81b6064820152608490fd5b61210c60ff60005460081c1661209b565b61211461216e565b565b6001600160a01b0360655416330361212a57565b606460405162461bcd60e51b815260206004820152602060248201527f4f776e61626c653a2063616c6c6572206973206e6f7420746865206f776e65726044820152fd5b6065546001600160a01b03737e8ae5c72eca86946b695dcc211863d9721a096191828219821617606555167f8be0079c531659141344cd1fd0a4f28419497f9722a3daafe3b4186f6b6457e06000604051a3565b156121c957565b60405162461bcd60e51b815260206004820152601460248201527f496e73756666696369656e742062616c616e63650000000000000000000000006044820152606490fd5b6001906000198114611b22570190565b1561222557565b60405162461bcd60e51b815260206004820152601160248201527f496e76616c6964207369676e61747572650000000000000000000000000000006044820152606490fd5b91936122b76122e89160405160208101908682526bffffffffffffffffffffffff198660601b166040820152886054820152876074820152607481526122af81610662565b519020612554565b6001600160a01b036122e06122d46065546001600160a01b031690565b6001600160a01b031690565b91161461221e565b61231961231284612303856000526097602052604060002090565b90600052602052604060002090565b5460ff1690565b611941577f1aab301e8c9017b1d984dad0933c71fa7c467adbdf37196a9510d62045d84ece936123709161236b61235e86612303876000526097602052604060002090565b805460ff19166001179055565b612475565b6040805192835260208301919091524265ffffffffffff169082015280606081015b0390a1565b6001600160a01b038116908115612430577fddf252ad1be2c89b69c2b068fc378daa952ba7f163c4a11628f55a4df523b3ef6020600092612414603554916a39e7139a8c08fa06000000198311612423575b6a39e7139a8c08fa060000008093016035556001600160a01b03166000526033602052604060002090565b818154019055604051908152a3565b61242b611aff565b6123e9565b60405162461bcd60e51b815260206004820152601f60248201527f45524332303a206d696e7420746f20746865207a65726f2061646472657373006044820152606490fd5b6001600160a01b038116918215612430576020816124146000946124bc7fddf252ad1be2c89b69c2b068fc378daa952ba7f163c4a11628f55a4df523b3ef95603554611b16565b6035556001600160a01b03166000526033602052604060002090565b600090819060998054925b8381106124f1575050505090565b81855282817f72a152ddfb8e864297c917af52ea6c1c68aead0fee1a62673fcc7e0c94979d0001541461252c576125279061220e565b6124e3565b5050505050600190565b602092919061254c84928281519485920161038e565b019081520190565b600090602092838101519060ff604160408301519201511692601b8410612621575b906125ff916125c76125d56040519261258e8461062a565b601c84527f19457468657265756d205369676e6564204d6573736167653a0a3332000000008a8501526040519283918b83019586612536565b03601f19810183528261067e565b51902092604051948594859094939260ff6060936080840197845216602083015260408201520152565b838052039060015afa15612614575b60005190565b61261c6117ea565b61260e565b9290601b8260e46125ff941161263c575b0193909150612576565b612644611aff565b612632565b1561265057565b60405162461bcd60e51b815260206004820152600f60248201527f5374616b696e67206e6f742073657400000000000000000000000000000000006044820152606490fd5b9190916001600160a01b03906126c6826126be6122d4609a546001600160a01b039060381c1690565b161515612649565b6126e06123128260ff16600052609b602052604060002090565b61194157612755928161270661235e61274d9460ff16600052609b602052604060002090565b60405160f89190911b7fff00000000000000000000000000000000000000000000000000000000000000166020820190815260218201879052906122af81604181016125c7565b16331461221e565b6127728161236b6122d4609a546001600160a01b039060381c1690565b609a5461278a9060381c6001600160a01b03166122d4565b803b1561000e57604051631ef0ae0960e11b815260048101929092526000908290602490829084905af180156127fa575b6127e1575b50609a805466ffffffffffff0019164260081b66ffffffffffff0016179055565b806127ee6127f4926105ed565b80610383565b386127c0565b6128026117ea565b6127bb565b61281860ff60005460081c1661209b565b60ff19609a5416609a55565b1561282b57565b60405162461bcd60e51b815260206004820152600e60248201527f4e6f7420617574686f72697a65640000000000000000000000000000000000006044820152606490fd5b6000549160ff8360081c16158093819461299f575b811561297f575b5015612914576128b291836128a9600160ff196000541617600055565b6128fb576129cd565b6128b857565b6128c861ff001960005416600055565b604051600181527f7f26b83ff96e1f2b6a682f133852f6798a09c465da95921460cefb3847402498908060208101612392565b61290f61010061ff00196000541617600055565b6129cd565b60405162461bcd60e51b815260206004820152602e60248201527f496e697469616c697a61626c653a20636f6e747261637420697320616c72656160448201527f647920696e697469616c697a65640000000000000000000000000000000000006064820152608490fd5b303b15915081612991575b503861288c565b6001915060ff16143861298a565b600160ff8216109150612885565b604051906129ba8261062a565b60048252631391539160e21b6020830152565b91909161013560ff8019825416921515168092179055612b39575b6129f06129ad565b916129f96129ad565b612a1360ff60005460081c16612a0e8161209b565b61209b565b835167ffffffffffffffff8111612b2c575b612a3981612a34603654611ac5565b612b5e565b602080601f8311600114612a9657509080612a769392612a7b9697600092612a8b575b50508160011b916000199060031b1c191617603655612c15565b612d0d565b612a836120fb565b612114612807565b015190503880612a5c565b90601f19831696612ac960366000527f4a11f94e20a93c79f6ec743a1954ec4fc2c08429ae2122118bf234b2185c81b890565b926000905b898210612b14575050918391600193612a769695612a7b999a10612afb575b505050811b01603655612c15565b015160001960f88460031b161c19169055388080612aed565b80600185968294968601518155019501930190612ace565b612b346105d6565b612a25565b612b4230612397565b6129e8565b818110612b52575050565b60008155600101612b47565b90601f8211612b6b575050565b6121149160366000527f4a11f94e20a93c79f6ec743a1954ec4fc2c08429ae2122118bf234b2185c81b8906020601f840160051c83019310612bb5575b601f0160051c0190612b47565b9091508190612ba8565b90601f8211612bcc575050565b6121149160376000527f42a7b7dd785cd69714a189dffb3fd7d7174edc9ece837694ce50f7078f7c31ae906020601f840160051c83019310612bb557601f0160051c0190612b47565b90815167ffffffffffffffff8111612d00575b612c3c81612c37603754611ac5565b612bbf565b602080601f8311600114612c785750819293600092612c6d575b50508160011b916000199060031b1c191617603755565b015190503880612c56565b90601f19831694612cab60376000527f42a7b7dd785cd69714a189dffb3fd7d7174edc9ece837694ce50f7078f7c31ae90565b926000905b878210612ce8575050836001959610612ccf575b505050811b01603755565b015160001960f88460031b161c19169055388080612cc4565b80600185968294968601518155019501930190612cb0565b612d086105d6565b612c28565b612d1e60ff60005460081c1661209b565b8051680100000000000000008111612de4575b60995481609955808210612dae575b506099600090815260207f72a152ddfb8e864297c917af52ea6c1c68aead0fee1a62673fcc7e0c94979d008482015b848410612d995750505050506001612d88915111612e10565b612114612d94466124d8565b612e6e565b60018382829351855501920193019290612d6f565b612dde90827f72a152ddfb8e864297c917af52ea6c1c68aead0fee1a62673fcc7e0c94979d009182019101612b47565b38612d40565b612dec6105d6565b612d31565b8060001904821181151516612e04570290565b612e0c611aff565b0290565b15612e1757565b60405162461bcd60e51b815260206004820152602960248201527f4d7573742068617665206174206c656173742074776f2064657374696e6174696044820152686f6e20636861696e7360b81b6064820152608490fd5b15612e7557565b60405162461bcd60e51b815260206004820152603460248201527f54686520686f7374656420636861696e206d757374206265206f6e65206f662060448201527f74686520737570706f7274656420636861696e730000000000000000000000006064820152608490fd5b8115612eea570490565b634e487b7160e01b600052601260045260246000fd5b609a5465ffffffffffff8160081c168015612fb357612f56612f8092824210612fa6575b60ff8342039161271094836000190486119042141516612f99575b1615612f8b578262ffffff6102585b169102612ee0565b90808211612f83575b50612f7a612f72609c5492609d54612df1565b612710900490565b90611b16565b90565b905038612f5f565b8262ffffff62093a80612f4e565b612fa1611aff565b612f3f565b612fae611aff565b612f24565b5050609c549056fea264697066735822122068b8852a89f374da1a436f1e367ab333486fb22a38d06261ddf4173d24a72fe264736f6c634300080e00337f26b83ff96e1f2b6a682f133852f6798a09c465da95921460cefb3847402498",
  "devdoc": {
    "kind": "dev",
    "methods": {
      "allowance(address,address)": {
        "details": "See {IERC20-allowance}."
      },
      "approve(address,uint256)": {
        "details": "See {IERC20-approve}. NOTE: If `amount` is the maximum `uint256`, the allowance is not updated on `transferFrom`. This is semantically equivalent to an infinite approval. Requirements: - `spender` cannot be the zero address."
      },
      "balanceOf(address)": {
        "details": "See {IERC20-balanceOf}."
      },
      "burn(uint256)": {
        "details": "Destroys `amount` tokens from the caller. See {ERC20-_burn}."
      },
      "burnFrom(address,uint256)": {
        "details": "Destroys `amount` tokens from `account`, deducting from the caller's allowance. See {ERC20-_burn} and {ERC20-allowance}. Requirements: - the caller must have allowance for ``accounts``'s tokens of at least `amount`."
      },
      "decimals()": {
        "details": "Returns the number of decimals used to get its user representation. For example, if `decimals` equals `2`, a balance of `505` tokens should be displayed to a user as `5.05` (`505 / 10 ** 2`). Tokens usually opt for a value of 18, imitating the relationship between Ether and Wei. This is the default value returned by this function, unless it's overridden. NOTE: This information is only used for _display_ purposes: it in no way affects any of the arithmetic of the contract, including {IERC20-balanceOf} and {IERC20-transfer}."
      },
      "decreaseAllowance(address,uint256)": {
        "details": "Atomically decreases the allowance granted to `spender` by the caller. This is an alternative to {approve} that can be used as a mitigation for problems described in {IERC20-approve}. Emits an {Approval} event indicating the updated allowance. Requirements: - `spender` cannot be the zero address. - `spender` must have allowance for the caller of at least `subtractedValue`."
      },
      "increaseAllowance(address,uint256)": {
        "details": "Atomically increases the allowance granted to `spender` by the caller. This is an alternative to {approve} that can be used as a mitigation for problems described in {IERC20-approve}. Emits an {Approval} event indicating the updated allowance. Requirements: - `spender` cannot be the zero address."
      },
      "name()": {
        "details": "Returns the name of the token."
      },
      "owner()": {
        "details": "Returns the address of the current owner."
      },
      "proxiableUUID()": {
        "details": "Implementation of the ERC1822 {proxiableUUID} function. This returns the storage slot used by the implementation. It is used to validate the implementation's compatibility when performing an upgrade. IMPORTANT: A proxy pointing at a proxiable contract should not be considered proxiable itself, because this risks bricking a proxy that upgrades to it, by delegating to itself until out of gas. Thus it is critical that this function revert if invoked through a proxy. This is guaranteed by the `notDelegated` modifier."
      },
      "renounceOwnership()": {
        "details": "Leaves the contract without owner. It will not be possible to call `onlyOwner` functions anymore. Can only be called by the current owner. NOTE: Renouncing ownership will leave the contract without an owner, thereby removing any functionality that is only available to the owner."
      },
      "symbol()": {
        "details": "Returns the symbol of the token, usually a shorter version of the name."
      },
      "totalSupply()": {
        "details": "See {IERC20-totalSupply}."
      },
      "transfer(address,uint256)": {
        "details": "See {IERC20-transfer}. Requirements: - `to` cannot be the zero address. - the caller must have a balance of at least `amount`."
      },
      "transferFrom(address,address,uint256)": {
        "details": "See {IERC20-transferFrom}. Emits an {Approval} event indicating the updated allowance. This is not required by the EIP. See the note at the beginning of {ERC20}. NOTE: Does not update the allowance if the current allowance is the maximum `uint256`. Requirements: - `from` and `to` cannot be the zero address. - `from` must have a balance of at least `amount`. - the caller must have allowance for ``from``'s tokens of at least `amount`."
      },
      "transferOwnership(address)": {
        "details": "Transfers ownership of the contract to a new account (`newOwner`). Can only be called by the current owner."
      },
      "upgradeTo(address)": {
        "custom:oz-upgrades-unsafe-allow-reachable": "delegatecall",
        "details": "Upgrade the implementation of the proxy to `newImplementation`. Calls {_authorizeUpgrade}. Emits an {Upgraded} event."
      },
      "upgradeToAndCall(address,bytes)": {
        "custom:oz-upgrades-unsafe-allow-reachable": "delegatecall",
        "details": "Upgrade the implementation of the proxy to `newImplementation`, and subsequently execute the function call encoded in `data`. Calls {_authorizeUpgrade}. Emits an {Upgraded} event."
      }
    },
    "version": 1
  },
  "userdoc": {
    "kind": "user",
    "methods": {},
    "version": 1
  },
  "storageLayout": {
    "storage": [
      {
        "astId": 687,
        "contract": "contracts/token/ERC20/NENDV2.sol:NENDV2",
        "label": "_initialized",
        "offset": 0,
        "slot": "0",
        "type": "t_uint8"
      },
      {
        "astId": 690,
        "contract": "contracts/token/ERC20/NENDV2.sol:NENDV2",
        "label": "_initializing",
        "offset": 1,
        "slot": "0",
        "type": "t_bool"
      },
      {
        "astId": 4108,
        "contract": "contracts/token/ERC20/NENDV2.sol:NENDV2",
        "label": "__gap",
        "offset": 0,
        "slot": "1",
        "type": "t_array(t_uint256)50_storage"
      },
      {
        "astId": 1219,
        "contract": "contracts/token/ERC20/NENDV2.sol:NENDV2",
        "label": "_balances",
        "offset": 0,
        "slot": "51",
        "type": "t_mapping(t_address,t_uint256)"
      },
      {
        "astId": 1225,
        "contract": "contracts/token/ERC20/NENDV2.sol:NENDV2",
        "label": "_allowances",
        "offset": 0,
        "slot": "52",
        "type": "t_mapping(t_address,t_mapping(t_address,t_uint256))"
      },
      {
        "astId": 1227,
        "contract": "contracts/token/ERC20/NENDV2.sol:NENDV2",
        "label": "_totalSupply",
        "offset": 0,
        "slot": "53",
        "type": "t_uint256"
      },
      {
        "astId": 1229,
        "contract": "contracts/token/ERC20/NENDV2.sol:NENDV2",
        "label": "_name",
        "offset": 0,
        "slot": "54",
        "type": "t_string_storage"
      },
      {
        "astId": 1231,
        "contract": "contracts/token/ERC20/NENDV2.sol:NENDV2",
        "label": "_symbol",
        "offset": 0,
        "slot": "55",
        "type": "t_string_storage"
      },
      {
        "astId": 1811,
        "contract": "contracts/token/ERC20/NENDV2.sol:NENDV2",
        "label": "__gap",
        "offset": 0,
        "slot": "56",
        "type": "t_array(t_uint256)45_storage"
      },
      {
        "astId": 13012,
        "contract": "contracts/token/ERC20/NENDV2.sol:NENDV2",
        "label": "_owner",
        "offset": 0,
        "slot": "101",
        "type": "t_address"
      },
      {
        "astId": 13132,
        "contract": "contracts/token/ERC20/NENDV2.sol:NENDV2",
        "label": "__gap",
        "offset": 0,
        "slot": "102",
        "type": "t_array(t_uint256)49_storage"
      },
      {
        "astId": 14960,
        "contract": "contracts/token/ERC20/NENDV2.sol:NENDV2",
        "label": "chainNonceToExecutedMapping",
        "offset": 0,
        "slot": "151",
        "type": "t_mapping(t_uint256,t_mapping(t_uint256,t_bool))"
      },
      {
        "astId": 14962,
        "contract": "contracts/token/ERC20/NENDV2.sol:NENDV2",
        "label": "nonce",
        "offset": 0,
        "slot": "152",
        "type": "t_uint256"
      },
      {
        "astId": 14965,
        "contract": "contracts/token/ERC20/NENDV2.sol:NENDV2",
        "label": "supportedChainIds",
        "offset": 0,
        "slot": "153",
        "type": "t_array(t_uint256)dyn_storage"
      },
      {
        "astId": 33674,
        "contract": "contracts/token/ERC20/NENDV2.sol:NENDV2",
        "label": "testing",
        "offset": 0,
        "slot": "154",
        "type": "t_bool"
      },
      {
        "astId": 15804,
        "contract": "contracts/token/ERC20/NENDV2.sol:NENDV2",
        "label": "lastInflation",
        "offset": 1,
        "slot": "154",
        "type": "t_uint48"
      },
      {
        "astId": 15807,
        "contract": "contracts/token/ERC20/NENDV2.sol:NENDV2",
        "label": "staking",
        "offset": 7,
        "slot": "154",
        "type": "t_contract(ILendingPoolStaking)32761"
      },
      {
        "astId": 15811,
        "contract": "contracts/token/ERC20/NENDV2.sol:NENDV2",
        "label": "isProcessed",
        "offset": 0,
        "slot": "155",
        "type": "t_mapping(t_uint8,t_bool)"
      },
      {
        "astId": 33822,
        "contract": "contracts/token/ERC20/NENDV2.sol:NENDV2",
        "label": "crossChainSupply",
        "offset": 0,
        "slot": "156",
        "type": "t_uint256"
      },
      {
        "astId": 33824,
        "contract": "contracts/token/ERC20/NENDV2.sol:NENDV2",
        "label": "crossChainInflationAmount",
        "offset": 0,
        "slot": "157",
        "type": "t_uint256"
      },
      {
        "astId": 13144,
        "contract": "contracts/token/ERC20/NENDV2.sol:NENDV2",
        "label": "hasRole",
        "offset": 0,
        "slot": "158",
        "type": "t_mapping(t_address,t_mapping(t_string_memory_ptr,t_bool))"
      },
      {
        "astId": 1954,
        "contract": "contracts/token/ERC20/NENDV2.sol:NENDV2",
        "label": "__gap",
        "offset": 0,
        "slot": "159",
        "type": "t_array(t_uint256)50_storage"
      },
      {
        "astId": 669,
        "contract": "contracts/token/ERC20/NENDV2.sol:NENDV2",
        "label": "__gap",
        "offset": 0,
        "slot": "209",
        "type": "t_array(t_uint256)50_storage"
      },
      {
        "astId": 985,
        "contract": "contracts/token/ERC20/NENDV2.sol:NENDV2",
        "label": "__gap",
        "offset": 0,
        "slot": "259",
        "type": "t_array(t_uint256)50_storage"
      },
      {
        "astId": 33728,
        "contract": "contracts/token/ERC20/NENDV2.sol:NENDV2",
        "label": "isMintChain",
        "offset": 0,
        "slot": "309",
        "type": "t_bool"
      },
      {
        "astId": 33902,
        "contract": "contracts/token/ERC20/NENDV2.sol:NENDV2",
        "label": "version",
        "offset": 1,
        "slot": "309",
        "type": "t_uint8"
      }
    ],
    "types": {
      "t_address": {
        "encoding": "inplace",
        "label": "address",
        "numberOfBytes": "20"
      },
      "t_array(t_uint256)45_storage": {
        "base": "t_uint256",
        "encoding": "inplace",
        "label": "uint256[45]",
        "numberOfBytes": "1440"
      },
      "t_array(t_uint256)49_storage": {
        "base": "t_uint256",
        "encoding": "inplace",
        "label": "uint256[49]",
        "numberOfBytes": "1568"
      },
      "t_array(t_uint256)50_storage": {
        "base": "t_uint256",
        "encoding": "inplace",
        "label": "uint256[50]",
        "numberOfBytes": "1600"
      },
      "t_array(t_uint256)dyn_storage": {
        "base": "t_uint256",
        "encoding": "dynamic_array",
        "label": "uint256[]",
        "numberOfBytes": "32"
      },
      "t_bool": {
        "encoding": "inplace",
        "label": "bool",
        "numberOfBytes": "1"
      },
      "t_contract(ILendingPoolStaking)32761": {
        "encoding": "inplace",
        "label": "contract ILendingPoolStaking",
        "numberOfBytes": "20"
      },
      "t_mapping(t_address,t_mapping(t_address,t_uint256))": {
        "encoding": "mapping",
        "key": "t_address",
        "label": "mapping(address => mapping(address => uint256))",
        "numberOfBytes": "32",
        "value": "t_mapping(t_address,t_uint256)"
      },
      "t_mapping(t_address,t_mapping(t_string_memory_ptr,t_bool))": {
        "encoding": "mapping",
        "key": "t_address",
        "label": "mapping(address => mapping(string => bool))",
        "numberOfBytes": "32",
        "value": "t_mapping(t_string_memory_ptr,t_bool)"
      },
      "t_mapping(t_address,t_uint256)": {
        "encoding": "mapping",
        "key": "t_address",
        "label": "mapping(address => uint256)",
        "numberOfBytes": "32",
        "value": "t_uint256"
      },
      "t_mapping(t_string_memory_ptr,t_bool)": {
        "encoding": "mapping",
        "key": "t_string_memory_ptr",
        "label": "mapping(string => bool)",
        "numberOfBytes": "32",
        "value": "t_bool"
      },
      "t_mapping(t_uint256,t_bool)": {
        "encoding": "mapping",
        "key": "t_uint256",
        "label": "mapping(uint256 => bool)",
        "numberOfBytes": "32",
        "value": "t_bool"
      },
      "t_mapping(t_uint256,t_mapping(t_uint256,t_bool))": {
        "encoding": "mapping",
        "key": "t_uint256",
        "label": "mapping(uint256 => mapping(uint256 => bool))",
        "numberOfBytes": "32",
        "value": "t_mapping(t_uint256,t_bool)"
      },
      "t_mapping(t_uint8,t_bool)": {
        "encoding": "mapping",
        "key": "t_uint8",
        "label": "mapping(uint8 => bool)",
        "numberOfBytes": "32",
        "value": "t_bool"
      },
      "t_string_memory_ptr": {
        "encoding": "bytes",
        "label": "string",
        "numberOfBytes": "32"
      },
      "t_string_storage": {
        "encoding": "bytes",
        "label": "string",
        "numberOfBytes": "32"
      },
      "t_uint256": {
        "encoding": "inplace",
        "label": "uint256",
        "numberOfBytes": "32"
      },
      "t_uint48": {
        "encoding": "inplace",
        "label": "uint48",
        "numberOfBytes": "6"
      },
      "t_uint8": {
        "encoding": "inplace",
        "label": "uint8",
        "numberOfBytes": "1"
      }
    }
  }
}