{
  "address": "0x32E6862e7970aFCa46A00B01CB5deC5167B2F9aA",
  "abi": [
    {
      "anonymous": false,
      "inputs": [
        {
          "indexed": false,
          "internalType": "address",
          "name": "previousAdmin",
          "type": "address"
        },
        {
          "indexed": false,
          "internalType": "address",
          "name": "newAdmin",
          "type": "address"
        }
      ],
      "name": "AdminChanged",
      "type": "event"
    },
    {
      "anonymous": false,
      "inputs": [
        {
          "indexed": true,
          "internalType": "address",
          "name": "beacon",
          "type": "address"
        }
      ],
      "name": "BeaconUpgraded",
      "type": "event"
    },
    {
      "anonymous": false,
      "inputs": [
        {
          "indexed": false,
          "internalType": "bytes32",
          "name": "curationHash",
          "type": "bytes32"
        },
        {
          "indexed": false,
          "internalType": "address[]",
          "name": "votersRedeemableCard",
          "type": "address[]"
        },
        {
          "indexed": false,
          "internalType": "address[]",
          "name": "votersRewarded",
          "type": "address[]"
        },
        {
          "indexed": false,
          "internalType": "uint256[]",
          "name": "rewards",
          "type": "uint256[]"
        }
      ],
      "name": "CurationEnded",
      "type": "event"
    },
    {
      "anonymous": false,
      "inputs": [
        {
          "indexed": false,
          "internalType": "uint8",
          "name": "version",
          "type": "uint8"
        }
      ],
      "name": "Initialized",
      "type": "event"
    },
    {
      "anonymous": false,
      "inputs": [
        {
          "indexed": true,
          "internalType": "address",
          "name": "previousOwner",
          "type": "address"
        },
        {
          "indexed": true,
          "internalType": "address",
          "name": "newOwner",
          "type": "address"
        }
      ],
      "name": "OwnershipTransferred",
      "type": "event"
    },
    {
      "anonymous": false,
      "inputs": [
        {
          "indexed": false,
          "internalType": "bytes32",
          "name": "curationHash",
          "type": "bytes32"
        },
        {
          "indexed": false,
          "internalType": "address",
          "name": "voter",
          "type": "address"
        }
      ],
      "name": "RewardClaimed",
      "type": "event"
    },
    {
      "anonymous": false,
      "inputs": [
        {
          "indexed": true,
          "internalType": "address",
          "name": "implementation",
          "type": "address"
        }
      ],
      "name": "Upgraded",
      "type": "event"
    },
    {
      "anonymous": false,
      "inputs": [
        {
          "indexed": false,
          "internalType": "bytes32",
          "name": "curationHash",
          "type": "bytes32"
        },
        {
          "indexed": false,
          "internalType": "address",
          "name": "voter",
          "type": "address"
        }
      ],
      "name": "VPCRedeemed",
      "type": "event"
    },
    {
      "anonymous": false,
      "inputs": [
        {
          "indexed": false,
          "internalType": "bool",
          "name": "accept",
          "type": "bool"
        },
        {
          "indexed": false,
          "internalType": "bool",
          "name": "bet",
          "type": "bool"
        },
        {
          "indexed": false,
          "internalType": "bool",
          "name": "leverageLending",
          "type": "bool"
        },
        {
          "indexed": false,
          "internalType": "uint8",
          "name": "loanAmount",
          "type": "uint8"
        },
        {
          "indexed": false,
          "internalType": "uint8",
          "name": "duration",
          "type": "uint8"
        },
        {
          "indexed": false,
          "internalType": "uint8",
          "name": "apr",
          "type": "uint8"
        },
        {
          "indexed": false,
          "internalType": "uint8",
          "name": "cardLevel",
          "type": "uint8"
        },
        {
          "indexed": false,
          "internalType": "uint256",
          "name": "cardId",
          "type": "uint256"
        },
        {
          "indexed": false,
          "internalType": "uint48",
          "name": "voteTime",
          "type": "uint48"
        },
        {
          "indexed": false,
          "internalType": "bytes32",
          "name": "curationHash",
          "type": "bytes32"
        },
        {
          "indexed": false,
          "internalType": "address",
          "name": "voter",
          "type": "address"
        }
      ],
      "name": "VoteCasted",
      "type": "event"
    },
    {
      "inputs": [],
      "name": "__MWOwnable_init",
      "outputs": [],
      "stateMutability": "nonpayable",
      "type": "function"
    },
    {
      "inputs": [
        {
          "internalType": "bool",
          "name": "_accept",
          "type": "bool"
        },
        {
          "internalType": "bool",
          "name": "_bet",
          "type": "bool"
        },
        {
          "internalType": "bool",
          "name": "_leverageLending",
          "type": "bool"
        },
        {
          "internalType": "uint8",
          "name": "_loanAmount",
          "type": "uint8"
        },
        {
          "internalType": "uint8",
          "name": "_duration",
          "type": "uint8"
        },
        {
          "internalType": "uint8",
          "name": "_apr",
          "type": "uint8"
        },
        {
          "internalType": "uint8",
          "name": "_cardLevel",
          "type": "uint8"
        },
        {
          "internalType": "uint256",
          "name": "_cardId",
          "type": "uint256"
        },
        {
          "internalType": "uint48",
          "name": "_curationEnd",
          "type": "uint48"
        },
        {
          "internalType": "bytes32",
          "name": "_curationHash",
          "type": "bytes32"
        },
        {
          "internalType": "bytes",
          "name": "_signature",
          "type": "bytes"
        }
      ],
      "name": "castVote",
      "outputs": [],
      "stateMutability": "nonpayable",
      "type": "function"
    },
    {
      "inputs": [
        {
          "internalType": "bytes32",
          "name": "_curationHash",
          "type": "bytes32"
        },
        {
          "internalType": "bytes",
          "name": "_signature",
          "type": "bytes"
        }
      ],
      "name": "claimReward",
      "outputs": [],
      "stateMutability": "nonpayable",
      "type": "function"
    },
    {
      "inputs": [
        {
          "internalType": "bytes32",
          "name": "",
          "type": "bytes32"
        }
      ],
      "name": "curationHashToEndTime",
      "outputs": [
        {
          "internalType": "uint48",
          "name": "",
          "type": "uint48"
        }
      ],
      "stateMutability": "view",
      "type": "function"
    },
    {
      "inputs": [
        {
          "internalType": "bytes32",
          "name": "",
          "type": "bytes32"
        }
      ],
      "name": "curationHashToEnded",
      "outputs": [
        {
          "internalType": "bool",
          "name": "",
          "type": "bool"
        }
      ],
      "stateMutability": "view",
      "type": "function"
    },
    {
      "inputs": [
        {
          "components": [
            {
              "internalType": "bytes32",
              "name": "curationHash",
              "type": "bytes32"
            },
            {
              "internalType": "bool",
              "name": "rejected",
              "type": "bool"
            },
            {
              "internalType": "uint8",
              "name": "winningOption",
              "type": "uint8"
            },
            {
              "internalType": "uint256",
              "name": "totalRewards",
              "type": "uint256"
            },
            {
              "internalType": "uint256",
              "name": "winningPower",
              "type": "uint256"
            }
          ],
          "internalType": "struct ICuration.EndCurationArgs",
          "name": "args",
          "type": "tuple"
        }
      ],
      "name": "endCuration",
      "outputs": [],
      "stateMutability": "nonpayable",
      "type": "function"
    },
    {
      "inputs": [
        {
          "internalType": "bytes32",
          "name": "_curationHash",
          "type": "bytes32"
        }
      ],
      "name": "getVoteCount",
      "outputs": [
        {
          "internalType": "uint256",
          "name": "",
          "type": "uint256"
        }
      ],
      "stateMutability": "view",
      "type": "function"
    },
    {
      "inputs": [
        {
          "internalType": "contract Vault",
          "name": "_rewardPool",
          "type": "address"
        },
        {
          "internalType": "contract NEND",
          "name": "_rewardToken",
          "type": "address"
        },
        {
          "internalType": "address[4]",
          "name": "_vpcAddresses",
          "type": "address[4]"
        }
      ],
      "name": "initialize",
      "outputs": [],
      "stateMutability": "nonpayable",
      "type": "function"
    },
    {
      "inputs": [],
      "name": "nend",
      "outputs": [
        {
          "internalType": "contract NEND",
          "name": "",
          "type": "address"
        }
      ],
      "stateMutability": "view",
      "type": "function"
    },
    {
      "inputs": [],
      "name": "owner",
      "outputs": [
        {
          "internalType": "address",
          "name": "",
          "type": "address"
        }
      ],
      "stateMutability": "view",
      "type": "function"
    },
    {
      "inputs": [],
      "name": "proxiableUUID",
      "outputs": [
        {
          "internalType": "bytes32",
          "name": "",
          "type": "bytes32"
        }
      ],
      "stateMutability": "view",
      "type": "function"
    },
    {
      "inputs": [
        {
          "internalType": "bytes32",
          "name": "_curationHash",
          "type": "bytes32"
        }
      ],
      "name": "redeemVpc",
      "outputs": [],
      "stateMutability": "nonpayable",
      "type": "function"
    },
    {
      "inputs": [],
      "name": "renounceOwnership",
      "outputs": [],
      "stateMutability": "nonpayable",
      "type": "function"
    },
    {
      "inputs": [],
      "name": "rewardPool",
      "outputs": [
        {
          "internalType": "contract Vault",
          "name": "",
          "type": "address"
        }
      ],
      "stateMutability": "view",
      "type": "function"
    },
    {
      "inputs": [
        {
          "internalType": "contract NEND",
          "name": "_nend",
          "type": "address"
        }
      ],
      "name": "setNend",
      "outputs": [],
      "stateMutability": "nonpayable",
      "type": "function"
    },
    {
      "inputs": [
        {
          "internalType": "contract Vault",
          "name": "_rewardPool",
          "type": "address"
        }
      ],
      "name": "setRewardPool",
      "outputs": [],
      "stateMutability": "nonpayable",
      "type": "function"
    },
    {
      "inputs": [
        {
          "internalType": "uint8",
          "name": "_level",
          "type": "uint8"
        },
        {
          "internalType": "address",
          "name": "_address",
          "type": "address"
        }
      ],
      "name": "setVPCAddress",
      "outputs": [],
      "stateMutability": "nonpayable",
      "type": "function"
    },
    {
      "inputs": [
        {
          "internalType": "address[4]",
          "name": "_addresses",
          "type": "address[4]"
        }
      ],
      "name": "setVPCAddresses",
      "outputs": [],
      "stateMutability": "nonpayable",
      "type": "function"
    },
    {
      "inputs": [
        {
          "internalType": "address",
          "name": "newOwner",
          "type": "address"
        }
      ],
      "name": "transferOwnership",
      "outputs": [],
      "stateMutability": "nonpayable",
      "type": "function"
    },
    {
      "inputs": [
        {
          "internalType": "address",
          "name": "newImplementation",
          "type": "address"
        }
      ],
      "name": "upgradeTo",
      "outputs": [],
      "stateMutability": "nonpayable",
      "type": "function"
    },
    {
      "inputs": [
        {
          "internalType": "address",
          "name": "newImplementation",
          "type": "address"
        },
        {
          "internalType": "bytes",
          "name": "data",
          "type": "bytes"
        }
      ],
      "name": "upgradeToAndCall",
      "outputs": [],
      "stateMutability": "payable",
      "type": "function"
    },
    {
      "inputs": [
        {
          "internalType": "bytes32",
          "name": "",
          "type": "bytes32"
        },
        {
          "internalType": "uint256",
          "name": "",
          "type": "uint256"
        }
      ],
      "name": "votes",
      "outputs": [
        {
          "internalType": "bool",
          "name": "accept",
          "type": "bool"
        },
        {
          "internalType": "bool",
          "name": "bet",
          "type": "bool"
        },
        {
          "internalType": "bool",
          "name": "leverageLending",
          "type": "bool"
        },
        {
          "internalType": "bool",
          "name": "vpcRedeemable",
          "type": "bool"
        },
        {
          "internalType": "bool",
          "name": "rewardsClaimed",
          "type": "bool"
        },
        {
          "internalType": "uint8",
          "name": "loanAmount",
          "type": "uint8"
        },
        {
          "internalType": "uint8",
          "name": "duration",
          "type": "uint8"
        },
        {
          "internalType": "uint8",
          "name": "apr",
          "type": "uint8"
        },
        {
          "internalType": "uint8",
          "name": "cardLevel",
          "type": "uint8"
        },
        {
          "internalType": "uint256",
          "name": "cardId",
          "type": "uint256"
        },
        {
          "internalType": "uint48",
          "name": "voteTime",
          "type": "uint48"
        },
        {
          "internalType": "address",
          "name": "voter",
          "type": "address"
        },
        {
          "internalType": "uint256",
          "name": "reward",
          "type": "uint256"
        }
      ],
      "stateMutability": "view",
      "type": "function"
    },
    {
      "inputs": [
        {
          "internalType": "uint256",
          "name": "",
          "type": "uint256"
        }
      ],
      "name": "vpcAddresses",
      "outputs": [
        {
          "internalType": "address",
          "name": "",
          "type": "address"
        }
      ],
      "stateMutability": "view",
      "type": "function"
    }
  ],
  "transactionHash": "0x857e73e54dfafb3ec2ec68f5d9d0c2decafe2eb2168a867bb3a2cce0323a86d9",
  "args": [],
  "numDeployments": 1,
  "solcInputHash": "a98b85679c117a20c3b99df23d476f7d",
  "bytecode": "0x60a06040523462000118576000546200003260ff8260081c16158092819362000109575b8115620000e6575b506200011d565b8062000046600160ff196000541617600055565b620000cb575b6200005662000181565b62000087575b30608052604051612f6d9081620001fb82396080518181816106b3015281816109fa0152610b750152f35b6200009861ff001960005416600055565b604051600181527f7f26b83ff96e1f2b6a682f133852f6798a09c465da95921460cefb384740249890602090a16200005c565b620000e061010061ff00196000541617600055565b6200004c565b303b15915081620000fa575b50386200002b565b6001915060ff161438620000f2565b600160ff821610915062000023565b600080fd5b156200012557565b60405162461bcd60e51b815260206004820152602e60248201527f496e697469616c697a61626c653a20636f6e747261637420697320616c72656160448201526d191e481a5b9a5d1a585b1a5e995960921b6064820152608490fd5b6000805462010000600160b01b03198116754a580d71c0f73202c51c58147aa7c7e09245b10a0000178255604051734a580d71c0f73202c51c58147aa7c7e09245b10a9260109290921c6001600160a01b0316917f8be0079c531659141344cd1fd0a4f28419497f9722a3daafe3b4186f6b6457e091a356fe60806040526004361015610013575b600080fd5b60003560e01c80630733d541146101df5780630847a4fb146101d657806324761aec146101cd5780632d63d274146101c45780633659cfe6146101bb5780634396a63c146101b2578063463de8d4146101a95780634f1ef286146101a057806352d1902d146101975780635a5e3e6c1461018e57806365b014b71461018557806366666aa91461017c578063687e046514610173578063715018a61461016a57806378238c371461016157806382952200146101585780638da5cb5b1461014f57806392e8d5bc14610146578063a16959931461013d578063badadff814610134578063cc61ce481461012b578063f2fde38b146101225763fd43bfb11461011a57600080fd5b61000e611097565b5061000e610fb9565b5061000e610f44565b5061000e610f0e565b5061000e610ec1565b5061000e610e49565b5061000e610e1e565b5061000e610df6565b5061000e610daf565b5061000e610d49565b5061000e610d0c565b5061000e610ce4565b5061000e610c63565b5061000e610c31565b5061000e610b59565b5061000e6109b4565b5061000e610917565b5061000e610828565b5061000e610689565b5061000e610584565b5061000e61054f565b5061000e61049c565b5061000e610313565b50634e487b7160e01b600052604160045260246000fd5b6080810190811067ffffffffffffffff82111761021b57604052565b6102236101e8565b604052565b67ffffffffffffffff811161021b57604052565b6020810190811067ffffffffffffffff82111761021b57604052565b6040810190811067ffffffffffffffff82111761021b57604052565b90601f8019910116810190811067ffffffffffffffff82111761021b57604052565b604051906101a0820182811067ffffffffffffffff82111761021b57604052565b6001600160a01b0381160361000e57565b806063121561000e57604051906102de826101ff565b8160c491821161000e576044905b8282106102f95750505090565b602080918335610308816102b7565b8152019101906102ec565b503461000e57608036600319011261000e57366023121561000e5760405161033a816101ff565b80608436811161000e5760049283905b8282106103bb5750505061035c611569565b9060996000925b82841061036c57005b60016020826103af6103868495516001600160a01b031690565b865473ffffffffffffffffffffffffffffffffffffffff19166001600160a01b03909116178655565b01920193019290610363565b6020809183356103ca816102b7565b81520191019061034a565b50634e487b7160e01b600052603260045260246000fd5b8054821015610409575b60005260206000209060021b0190600090565b6104116103d5565b6103f6565b9a98969492909d9c9b99979593916101a08c019e15158c52151560208c0152151560408b0152151560608a0152608089016104519115159052565b60ff1660a088015260ff1660c087015260ff1660e086015260ff1661010085015261012084015265ffffffffffff166101408301526001600160a01b03166101608201526101800152565b503461000e57604036600319011261000e576024356004356000526096602052604060002090815481101561000e576104d4916103ec565b5080549061054b600182015491600360028201549101549060405194859460ff65ffffffffffff6001600160a01b038560301c16941692818160401c1691808260381c1691818160301c1691808260281c1691818160201c1691808260181c16918d828260101c1692808360081c16921690610416565b0390f35b503461000e57602036600319011261000e576004356000526097602052602065ffffffffffff60406000205416604051908152f35b503461000e5760c036600319011261000e576004356105a2816102b7565b6105fc6024356105b1816102b7565b6105ba366102c8565b90600054936105e060ff8660081c16158096819761067b575b811561065b575b50611639565b846105f3600160ff196000541617600055565b610642576116e1565b610603575b005b61061361ff001960005416600055565b604051600181527f7f26b83ff96e1f2b6a682f133852f6798a09c465da95921460cefb384740249890602090a1005b61065661010061ff00196000541617600055565b6116e1565b303b1591508161066d575b50386105da565b6001915060ff161438610666565b600160ff82161091506105d3565b503461000e57602036600319011261000e576004356106a7816102b7565b6001600160a01b0390817f000000000000000000000000000000000000000000000000000000000000000016916106e0833014156110de565b61070f7f360894a13ba1a3210667c828492db98dca3e2076cc3735a920a3ca505d382bbc93828554161461113f565b610717611569565b604051906107248261023c565b600082527f4910fdfa16fed3260ed0e7147f7cc6da11a60208b5b9406d12a635614ffd91435460ff161561075e575050610601915061121a565b6020600491604094939451928380926352d1902d60e01b825286165afa600091816107f8575b506107e55760405162461bcd60e51b815260206004820152602e60248201527f45524331393637557067726164653a206e657720696d706c656d656e7461746960448201526d6f6e206973206e6f74205555505360901b6064820152608490fd5b610601936107f391146111bc565b6112b8565b61081a91925060203d8111610821575b6108128183610274565b8101906111a0565b9038610784565b503d610808565b503461000e57602036600319011261000e576106016004356121f9565b8015150361000e57565b6084359060ff8216820361000e57565b60a4359060ff8216820361000e57565b60c4359060ff8216820361000e57565b6044359060ff8216820361000e57565b610104359065ffffffffffff8216820361000e57565b60209067ffffffffffffffff81116108c3575b601f01601f19160190565b6108cb6101e8565b6108b8565b81601f8201121561000e578035906108e7826108a5565b926108f56040519485610274565b8284526020838301011161000e57816000926020809301838601378301015290565b503461000e5761016036600319011261000e5760043561093681610845565b60243561094281610845565b6044359061094f82610845565b6064359260ff8416840361000e5761096561084f565b9061096e61085f565b61097661086f565b9061097f61088f565b93610144359767ffffffffffffffff891161000e576109a56106019936906004016108d0565b97610124359760e43596611c74565b50604036600319011261000e576004356109cd816102b7565b60243567ffffffffffffffff811161000e576109ed9036906004016108d0565b906001600160a01b0391827f00000000000000000000000000000000000000000000000000000000000000001692610a27843014156110de565b610a567f360894a13ba1a3210667c828492db98dca3e2076cc3735a920a3ca505d382bbc94828654161461113f565b610a5e611569565b7f4910fdfa16fed3260ed0e7147f7cc6da11a60208b5b9406d12a635614ffd91435460ff1615610a94575050610601915061121a565b6020600491604094939451928380926352d1902d60e01b825286165afa60009181610b2e575b50610b1b5760405162461bcd60e51b815260206004820152602e60248201527f45524331393637557067726164653a206e657720696d706c656d656e7461746960448201526d6f6e206973206e6f74205555505360901b6064820152608490fd5b61060193610b2991146111bc565b6113c8565b610b4791925060203d8111610821576108128183610274565b9038610aba565b600091031261000e57565b503461000e57600036600319011261000e576001600160a01b037f0000000000000000000000000000000000000000000000000000000000000000163003610bc6576040517f360894a13ba1a3210667c828492db98dca3e2076cc3735a920a3ca505d382bbc8152602090f35b60405162461bcd60e51b815260206004820152603860248201527f555550535570677261646561626c653a206d757374206e6f742062652063616c60448201527f6c6564207468726f7567682064656c656761746563616c6c00000000000000006064820152608490fd5b503461000e57602036600319011261000e576004356000526098602052602060ff604060002054166040519015158152f35b503461000e57600036600319011261000e5760ff60005460081c1615610c8b576106016115c4565b60405162461bcd60e51b815260206004820152602b60248201527f496e697469616c697a61626c653a20636f6e7472616374206973206e6f74206960448201526a6e697469616c697a696e6760a81b6064820152608490fd5b503461000e57600036600319011261000e5760206001600160a01b03609d5416604051908152f35b503461000e57604036600319011261000e5760243567ffffffffffffffff811161000e57610d416106019136906004016108d0565b600435612d7d565b503461000e57600080600319360112610dac57610d64611569565b805462010000600160b01b031981168255816001600160a01b036040519260101c167f8be0079c531659141344cd1fd0a4f28419497f9722a3daafe3b4186f6b6457e08284a3f35b80fd5b503461000e57602036600319011261000e576001600160a01b03600435610dd5816102b7565b610ddd611569565b166001600160a01b0319609d541617609d556000604051f35b503461000e57600036600319011261000e5760206001600160a01b03609e5416604051908152f35b503461000e57600036600319011261000e5760206001600160a01b0360005460101c16604051908152f35b503461000e5760a036600319011261000e5761060160405160a0810181811067ffffffffffffffff821117610eb4575b6040526004358152602435610e8d81610845565b6020820152610e9a61087f565b6040820152606435606082015260843560808201526123b7565b610ebc6101e8565b610e79565b503461000e57602036600319011261000e5760043560005260966020526020604060002054604051908152f35b6004811015610f01575b60990190600090565b610f096103d5565b610ef8565b503461000e57602036600319011261000e57600435600481101561000e576001600160a01b036020916099015416604051908152f35b503461000e57604036600319011261000e5760043560ff8116810361000e5761060190610f8460243591610f77836102b7565b610f7f611569565b61176c565b6004811015610fac575b609901906001600160a01b03166001600160a01b0319825416179055565b610fb46103d5565b610f8e565b503461000e57602036600319011261000e57600435610fd7816102b7565b610fdf611569565b6001600160a01b039081811680156110435760009262010000600160b01b0384549360101b1662010000600160b01b031984161784556040519260101c167f8be0079c531659141344cd1fd0a4f28419497f9722a3daafe3b4186f6b6457e08484a3f35b60405162461bcd60e51b815260206004820152602660248201527f4f776e61626c653a206e6577206f776e657220697320746865207a65726f206160448201526564647265737360d01b6064820152608490fd5b503461000e57602036600319011261000e576001600160a01b036004356110bd816102b7565b6110c5611569565b166001600160a01b0319609e541617609e556000604051f35b156110e557565b60405162461bcd60e51b815260206004820152602c60248201527f46756e6374696f6e206d7573742062652063616c6c6564207468726f7567682060448201526b19195b1959d85d1958d85b1b60a21b6064820152608490fd5b1561114657565b60405162461bcd60e51b815260206004820152602c60248201527f46756e6374696f6e206d7573742062652063616c6c6564207468726f7567682060448201526b6163746976652070726f787960a01b6064820152608490fd5b9081602091031261000e575190565b506040513d6000823e3d90fd5b156111c357565b60405162461bcd60e51b815260206004820152602960248201527f45524331393637557067726164653a20756e737570706f727465642070726f786044820152681a58589b195555525160ba1b6064820152608490fd5b803b1561125d576001600160a01b037f360894a13ba1a3210667c828492db98dca3e2076cc3735a920a3ca505d382bbc91166001600160a01b0319825416179055565b60405162461bcd60e51b815260206004820152602d60248201527f455243313936373a206e657720696d706c656d656e746174696f6e206973206e60448201526c1bdd08184818dbdb9d1c9858dd609a1b6064820152608490fd5b906112c28261121a565b604051916000926001600160a01b0382167fbc7cd75a20ee27fd9adebab32041f755214dbc6bffa90cc0225b39da2e5c2d3b8583a28251158015906113c1575b61130d575b50505050565b813b15611370575091808261135e9460208395519201905af4903d15611368573d611337816108a5565b906113456040519283610274565b8152809160203d92013e5b611358611472565b916114da565b5038808080611307565b506060611350565b62461bcd60e51b815260206004820152602660248201527f416464726573733a2064656c65676174652063616c6c20746f206e6f6e2d636f6044820152651b9d1c9858dd60d21b6064820152608490fd5b5083611302565b6113d18161121a565b6040516001600160a01b0382167fbc7cd75a20ee27fd9adebab32041f755214dbc6bffa90cc0225b39da2e5c2d3b600083a282511580159061146a575b61141757505050565b813b1561137057506000828192602061146095519201905af43d15611463573d611440816108a5565b9061144e6040519283610274565b81523d6000602083013e611358611472565b50565b6060611350565b50600161140e565b604051906060820182811067ffffffffffffffff8211176114cd575b60405260278252660819985a5b195960ca1b6040837f416464726573733a206c6f772d6c6576656c2064656c65676174652063616c6c60208201520152565b6114d56101e8565b61148e565b909190156114e6575090565b8151156114f65750805190602001fd5b6044604051809262461bcd60e51b8252602060048301526115268151809281602486015260208686019101611534565b601f01601f19168101030190fd5b918091926000905b82821061155457501161154d575050565b6000910152565b9150806020918301518186015201829161153c565b6001600160a01b0360005460101c16330361158057565b606460405162461bcd60e51b815260206004820152602060248201527f4f776e61626c653a2063616c6c6572206973206e6f7420746865206f776e65726044820152fd5b734a580d71c0f73202c51c58147aa7c7e09245b10a6001600160a01b03600054754a580d71c0f73202c51c58147aa7c7e09245b10a000062010000600160b01b031982161760005560101c167f8be0079c531659141344cd1fd0a4f28419497f9722a3daafe3b4186f6b6457e06000604051a3565b1561164057565b60405162461bcd60e51b815260206004820152602e60248201527f496e697469616c697a61626c653a20636f6e747261637420697320616c72656160448201527f647920696e697469616c697a65640000000000000000000000000000000000006064820152608490fd5b50634e487b7160e01b600052601160045260246000fd5b80600019048211811515166116d5570290565b6116dd6116ab565b0290565b9190916001600160a01b038093816001600160a01b0319931683609d541617609d551690609e541617609e5560996000915b60048310611737575050505060ff60005460081c1615610c8b576117356115c4565b565b6001602082611760878495511686906001600160a01b03166001600160a01b0319825416179055565b01920192019190611713565b60ff166001811061177f575b6000190190565b6117876116ab565b611778565b1561179357565b60405162461bcd60e51b815260206004820152600e60248201527f4375726174696f6e20656e6465640000000000000000000000000000000000006044820152606490fd5b156117df57565b60405162461bcd60e51b815260206004820152601160248201527f496e76616c6964207369676e61747572650000000000000000000000000000006044820152606490fd5b1561182b57565b60405162461bcd60e51b815260206004820152601260248201527f496e76616c69642063617264206c6576656c00000000000000000000000000006044820152606490fd5b9081602091031261000e575161188581610845565b90565b1561188f57565b60405162461bcd60e51b815260206004820152601160248201527f43617264206e6f742072656c65617665640000000000000000000000000000006044820152606490fd5b156118db57565b60405162461bcd60e51b815260206004820152601560248201527f4375726174696f6e20656e64206d69736d6174636800000000000000000000006044820152606490fd5b6001906000198114611930570190565b6119386116ab565b0190565b1561194357565b60405162461bcd60e51b815260206004820152601360248201527f5650432061646472657373206e6f7420736574000000000000000000000000006044820152606490fd5b80546119ab9168010000000000000000821015611bf5575b6001820181556103ec565b919091611bdf57610180816119d76119c560039451151590565b859060ff801983541691151516179055565b6119fd6119e76020830151151590565b855461ff00191690151560081b61ff0016178555565b611a25611a0d6040830151151590565b855462ff0000191690151560101b62ff000016178555565b611a4f611a356060830151151590565b855463ff000000191690151560181b63ff00000016178555565b611a7b611a5f6080830151151590565b855464ff00000000191690151560201b64ff0000000016178555565b611aaa611a8c60a083015160ff1690565b855465ff0000000000191660289190911b65ff000000000016178555565b611adb611abb60c083015160ff1690565b855466ff000000000000191660309190911b66ff00000000000016178555565b611b0e611aec60e083015160ff1690565b855467ff00000000000000191660389190911b67ff0000000000000016178555565b611b44611b2061010083015160ff1690565b855468ff0000000000000000191660409190911b68ff000000000000000016178555565b6101208101516001850155611bd860028501611b87611b6d61014085015165ffffffffffff1690565b825465ffffffffffff191665ffffffffffff909116178255565b61016083015181547fffffffffffff0000000000000000000000000000000000000000ffffffffffff1660309190911b79ffffffffffffffffffffffffffffffffffffffff00000000000016179055565b0151910155565b634e487b7160e01b600052600060045260246000fd5b611bfd6101e8565b6119a0565b98969492909b9a99979593916101608a019c15158a52151560208a01521515604089015260ff16606088015260ff16608087015260ff1660a086015260ff1660c085015260e084015265ffffffffffff1661010083015261012082015261014001611735916001600160a01b03169052565b96949a9990979895939291986040918683516020810190611cdb81611ccd8d33898791603a939165ffffffffffff60d01b9060d01b1683526bffffffffffffffffffffffff199060601b166006830152601a8201520190565b03601f198101835282610274565b519020878a611d0065ffffffffffff9586881694611cfb8642111561178c565b612112565b9285600097611d3d611d2c611d208b546001600160a01b039060101c1690565b6001600160a01b031690565b6001600160a01b03809816146117d8565b611dba611d83611d20611d20611d70611d6b60ff8b169a610f7f60019c8d81101590816120e9575b50611824565b610eee565b90546001600160a01b039160031b1c1690565b8b51632084ab8360e01b815260048082019a909a5290602090829060249082905afa9081156120dc575b8b916120ae575b50611888565b81611dde611dd2866000526097602052604060002090565b5465ffffffffffff1690565b16156120765750611dff611dd2611e06946000526097602052604060002090565b16146118d4565b84815b611fcb575b5050611e2b90611e23611d70611d6b8b61176c565b16151561193c565b611e40611d20611d20611d70611d6b8b61176c565b90611e56611d20609d546001600160a01b031690565b90823b15611fc7579a7f1f74c8a38eb331d380842b3a000862b09c56213e82b5cbaab23d0997805e15489e9f9592858f8f9290611f9c9f859f9e9c998f9e9c99611ee78f92611f0b93611f2f97611f909c838f98611f279951968795869485936323b872dd60e01b8552339085016040919493929460608201956001600160a01b0380921683521660208201520152565b03925af18015611fba575b611fa1575b5042169e6000526096602052604060002090565b94611f1e611f17610296565b9715158852565b15156020870152565b151584870152565b806060840152806080840152611f4b8660a085019060ff169052565b60ff871660c084015260ff881660e084015260ff891661010084015261012083018a905265ffffffffffff8b1661014084015233610160840152610180830152611988565b519a8b9a33998c611c02565b0390a1565b80611fae611fb492610228565b80610b4e565b38611ef7565b611fc26111af565b611ef2565b8480fd5b8b611fe0816000526096602052604060002090565b548210156120705781612000612005926000526096602052604060002090565b6103ec565b506002015433906120219060301c6001600160a01b0316611d20565b146120355761202f90611920565b81611e09565b865162461bcd60e51b81526020818601818152600d918101919091526c105b1c9958591e481d9bdd1959609a1b604082015281906060010390fd5b50611e0e565b9150506120906120a9926000526097602052604060002090565b9065ffffffffffff1665ffffffffffff19825416179055565b611e06565b6120cf915060203d81116120d5575b6120c78183610274565b810190611870565b38611db4565b503d6120bd565b6120e46111af565b611dad565b600591501038611d65565b602092919061210a849282815194859201611534565b019081520190565b600090602092838101519060ff604160408301519201511692601b84106121d1575b906121af91611ccd6121856040519261214c84610258565b601c84527f19457468657265756d205369676e6564204d6573736167653a0a3332000000008a8501526040519283918b830195866120f4565b51902092604051948594859094939260ff6060936080840197845216602083015260408201520152565b838052039060015afa156121c4575b60005190565b6121cc6111af565b6121be565b9290601b8260e46121af94116121ec575b0193909150612134565b6121f46116ab565b6121e2565b61220d816000526096602052604060002090565b9060005b82548110156123725761222481846103ec565b506002810133612242611d2083546001600160a01b039060301c1690565b1480612364575b61225d57505061225890611920565b612211565b815463ff00000019168255909350919050612283611d20609d546001600160a01b031690565b9160016122b26122a1611d70611d6b610f7f895460ff9060401c1690565b925460301c6001600160a01b031690565b94015492803b1561000e5760408051630d6531bb60e11b81526001600160a01b03938416600482015295909216602486015260448501939093527f3d7a2d41e455d272e8f9f78d749d3f4a9f08dfbb1ea5350137e48fefb27c1cf793611f9c936000908290818381606481015b03925af18015612357575b612344575b50519081523360208201529081906040820190565b80611fae61235192610228565b3861232f565b61235f6111af565b61232a565b50815460181c60ff16612249565b60405162461bcd60e51b815260206004820152601c60248201527f4e6f20766f74652076616c696420666f72207670632072656465656d000000006044820152606490fd5b611735906123c3611569565b6126c5565b156123cf57565b60405162461bcd60e51b815260206004820152601d60248201527f4375726174696f6e20656e642074696d65206e6f7420726561636865640000006044820152606490fd5b60209067ffffffffffffffff811161242e575b60051b0190565b6124366101e8565b612427565b6040519060c0820182811067ffffffffffffffff821117612468575b6040526005825260a0366020840137565b6124706101e8565b612457565b9061247f82612414565b61248c6040519182610274565b828152809261249d601f1991612414565b0190602036910137565b9060036124b2610296565b9261253f815460ff906124c9828216889015159052565b600881901c821615156020880152601081901c821615156040880152601881901c821615156060880152602081901c82161515608088015260ff602882901c83161660a088015260ff603082901c83161660c088015260ff603882901c83161660e088015260401c1661010086019060ff169052565b6001810154610120850152600281015465ffffffffffff811661014086015260301c6001600160a01b03166101608501520154610180830152565b602090805115612588570190565b6119386103d5565b604090805160011015612588570190565b606090805160021015612588570190565b60a090805160041015612588570190565b608090805160031015612588570190565b60209181518110156125e9575b60051b010190565b6125f16103d5565b6125e1565b81198111611930570190565b811561260c570490565b634e487b7160e01b600052601260045260246000fd5b90815180825260208080930193019160005b828110612642575050505090565b83516001600160a01b031685529381019392810192600101612634565b919261268b91835261267d6020946080868601526080850190612622565b908382036040850152612622565b90606081830391015281808451928381520193019160005b8281106126b1575050505090565b8351855293810193928101926001016126a3565b906126f46126ef6126eb6126e485516000526098602052604060002090565b5460ff1690565b1590565b61178c565b65ffffffffffff612713611dd284516000526097602052604060002090565b16158015612cd0575b612725906123c8565b61274a61273d83516000526098602052604060002090565b805460ff19166001179055565b612770612765611dd284516000526097602052604060002090565b65ffffffffffff1690565b15612ccc5761278a82516000526096602052604060002090565b9161279361243b565b9060008454905b818110612bc35750506127b56127af8361257a565b51612475565b6127c16127af84612590565b916127ce6127af85612590565b9060005b8754811015612a2057806127e961282c928a6103ec565b508760206128196126eb8288016128008151151590565b8015612a0a575b80156129e6575b612994575b51151590565b80612986575b612831575b505050611920565b6127d2565b8254906040918761284e6128488583015160ff1690565b60ff1690565b9260ff93848460281c16146000146128f45750936128a16128926128876002966128ec999661289a9660606128b89b0151921c166116c2565b60808c015190612602565b9283926125c3565b518b6125d4565b526003820155015460301c6001600160a01b031690565b6128de6128c48a6125c3565b516128ce81611920565b6128d78c6125c3565b52896125d4565b906001600160a01b03169052565b388781612824565b94505061294d945091612919611d20611d20611d70611d6b8896600498871c1661176c565b905163c002d23d60e01b815292839182905afa918215612979575b60009261295c575b5050612947896125b2565b516125f6565b612956886125b2565b526128ec565b6129729250803d10610821576108128183610274565b388061293c565b6129816111af565b612934565b50825460081c60ff1661281f565b855463ff0000001916630100000017865560028601546129e19060301c6001600160a01b03166128de8d6129c7896125a1565b51906129d282611920565b6129db8b6125a1565b526125d4565b612813565b50855460281c60ff1660ff612a0261284860408d015160ff1690565b91161461280e565b508554612a1b9060081c60ff161590565b612807565b509495509092612a2f816125b2565b51612a6a575b50611f9c907f301ac066778ae05acf080a031c91a5dfa7f7f3263ef036803c216021374c4d419451926040519485948561265f565b90612a80611d20609e546001600160a01b031690565b94612a96611d20609d546001600160a01b031690565b6040516370a0823160e01b81526001600160a01b03821660048201529093602082806024810103816001600160a01b038c165afa918215612bb6575b600092612b96575b5081612ae5826125b2565b511115612b855750925b803b1561000e57604051632770a7eb60e21b81526001600160a01b0397909716600488015260248701939093527f301ac066778ae05acf080a031c91a5dfa7f7f3263ef036803c216021374c4d4195611f9c936000908290604490829084905af18015612b78575b612b65575b50945090612a35565b80611fae612b7292610228565b38612b5c565b612b806111af565b612b57565b612b8f91506125b2565b5192612aef565b612baf91925060203d8111610821576108128183610274565b9038612ada565b612bbe6111af565b612ad2565b80612bda612bd4612c2093896103ec565b506124a7565b602090612c086126eb838801612bf08151151590565b8015612cb7575b8015612c93575b612c785751151590565b9182612c6b575b5081612c46575b50612c2557611920565b61279a565b612c37612c3186612590565b51611920565b612c4086612590565b52611920565b60a0015160ff16905060ff612c62612848604088015160ff1690565b91161438612c16565b8101511515915038612c0f565b612c84612c318b61257a565b612c8d8b61257a565b52612813565b5060a084015160ff1660ff612caf61284860408d015160ff1690565b911614612bfe565b50612cc76126eb86860151151590565b612bf7565b9050565b50612725612cef612765611dd285516000526097602052604060002090565b421015905061271c565b15612d0057565b60405162461bcd60e51b815260206004820152600f60248201527f416c726561647920636c61696d656400000000000000000000000000000000006044820152606490fd5b15612d4c57565b60405162461bcd60e51b8152602060048201526009602482015268139bc81c995dd85c9960ba1b6044820152606490fd5b604080513360601b6bffffffffffffffffffffffff1916602082019081526034820184905292939192612dc09291612db88160548101611ccd565b519020612112565b612dee6000916001600160a01b03612de6611d2085546001600160a01b039060101c1690565b9116146117d8565b612e02836000526096602052604060002090565b815b8154811015612f0757612e1781836103ec565b50600201543390612e339060301c6001600160a01b0316611d20565b03612ef957612e41916103ec565b50612e5c612e576126eb835460ff9060201c1690565b612cf9565b612e856003820191612e7083541515612d45565b805464ff000000001916640100000000179055565b612e9a611d20609e546001600160a01b031690565b9054813b15612ef55783516340c10f1960e01b815233600482015260248101919091527fb28d276399f08f8991810bacda244e0bee8ef88ac7440413f0d9a29283a027cd94611f9c949093909282908183816044810161231f565b8280fd5b612f0290611920565b612e04565b835162461bcd60e51b8152602060048201526009602482015268139bdd081d9bdd195960ba1b6044820152606490fdfea264697066735822122087f5e660a68d9542cebc4eed76c644331b6eacdce2c12e754f3fbf6af290fe2564736f6c634300080e0033",
  "devdoc": {
    "kind": "dev",
    "methods": {
      "owner()": {
        "details": "Returns the address of the current owner."
      },
      "proxiableUUID()": {
        "details": "Implementation of the ERC1822 {proxiableUUID} function. This returns the storage slot used by the implementation. It is used to validate the implementation's compatibility when performing an upgrade. IMPORTANT: A proxy pointing at a proxiable contract should not be considered proxiable itself, because this risks bricking a proxy that upgrades to it, by delegating to itself until out of gas. Thus it is critical that this function revert if invoked through a proxy. This is guaranteed by the `notDelegated` modifier."
      },
      "renounceOwnership()": {
        "details": "Leaves the contract without owner. It will not be possible to call `onlyOwner` functions anymore. Can only be called by the current owner. NOTE: Renouncing ownership will leave the contract without an owner, thereby removing any functionality that is only available to the owner."
      },
      "transferOwnership(address)": {
        "details": "Transfers ownership of the contract to a new account (`newOwner`). Can only be called by the current owner."
      },
      "upgradeTo(address)": {
        "details": "Upgrade the implementation of the proxy to `newImplementation`. Calls {_authorizeUpgrade}. Emits an {Upgraded} event."
      },
      "upgradeToAndCall(address,bytes)": {
        "details": "Upgrade the implementation of the proxy to `newImplementation`, and subsequently execute the function call encoded in `data`. Calls {_authorizeUpgrade}. Emits an {Upgraded} event."
      }
    },
    "version": 1
  },
  "userdoc": {
    "kind": "user",
    "methods": {},
    "version": 1
  },
  "storageLayout": {
    "storage": [
      {
        "astId": 674,
        "contract": "contracts/voting/PeriFiCuration.sol:PeriFiCuration",
        "label": "_initialized",
        "offset": 0,
        "slot": "0",
        "type": "t_uint8"
      },
      {
        "astId": 677,
        "contract": "contracts/voting/PeriFiCuration.sol:PeriFiCuration",
        "label": "_initializing",
        "offset": 1,
        "slot": "0",
        "type": "t_bool"
      },
      {
        "astId": 9827,
        "contract": "contracts/voting/PeriFiCuration.sol:PeriFiCuration",
        "label": "_owner",
        "offset": 2,
        "slot": "0",
        "type": "t_address"
      },
      {
        "astId": 9947,
        "contract": "contracts/voting/PeriFiCuration.sol:PeriFiCuration",
        "label": "__gap",
        "offset": 0,
        "slot": "1",
        "type": "t_array(t_uint256)49_storage"
      },
      {
        "astId": 656,
        "contract": "contracts/voting/PeriFiCuration.sol:PeriFiCuration",
        "label": "__gap",
        "offset": 0,
        "slot": "50",
        "type": "t_array(t_uint256)50_storage"
      },
      {
        "astId": 971,
        "contract": "contracts/voting/PeriFiCuration.sol:PeriFiCuration",
        "label": "__gap",
        "offset": 0,
        "slot": "100",
        "type": "t_array(t_uint256)50_storage"
      },
      {
        "astId": 29574,
        "contract": "contracts/voting/PeriFiCuration.sol:PeriFiCuration",
        "label": "votes",
        "offset": 0,
        "slot": "150",
        "type": "t_mapping(t_bytes32,t_array(t_struct(Vote)33409_storage)dyn_storage)"
      },
      {
        "astId": 29578,
        "contract": "contracts/voting/PeriFiCuration.sol:PeriFiCuration",
        "label": "curationHashToEndTime",
        "offset": 0,
        "slot": "151",
        "type": "t_mapping(t_bytes32,t_uint48)"
      },
      {
        "astId": 29582,
        "contract": "contracts/voting/PeriFiCuration.sol:PeriFiCuration",
        "label": "curationHashToEnded",
        "offset": 0,
        "slot": "152",
        "type": "t_mapping(t_bytes32,t_bool)"
      },
      {
        "astId": 29586,
        "contract": "contracts/voting/PeriFiCuration.sol:PeriFiCuration",
        "label": "vpcAddresses",
        "offset": 0,
        "slot": "153",
        "type": "t_array(t_address)4_storage"
      },
      {
        "astId": 29589,
        "contract": "contracts/voting/PeriFiCuration.sol:PeriFiCuration",
        "label": "rewardPool",
        "offset": 0,
        "slot": "157",
        "type": "t_contract(Vault)29199"
      },
      {
        "astId": 29592,
        "contract": "contracts/voting/PeriFiCuration.sol:PeriFiCuration",
        "label": "nend",
        "offset": 0,
        "slot": "158",
        "type": "t_contract(NEND)28080"
      }
    ],
    "types": {
      "t_address": {
        "encoding": "inplace",
        "label": "address",
        "numberOfBytes": "20"
      },
      "t_array(t_address)4_storage": {
        "base": "t_address",
        "encoding": "inplace",
        "label": "address[4]",
        "numberOfBytes": "128"
      },
      "t_array(t_struct(Vote)33409_storage)dyn_storage": {
        "base": "t_struct(Vote)33409_storage",
        "encoding": "dynamic_array",
        "label": "struct ICuration.Vote[]",
        "numberOfBytes": "32"
      },
      "t_array(t_uint256)49_storage": {
        "base": "t_uint256",
        "encoding": "inplace",
        "label": "uint256[49]",
        "numberOfBytes": "1568"
      },
      "t_array(t_uint256)50_storage": {
        "base": "t_uint256",
        "encoding": "inplace",
        "label": "uint256[50]",
        "numberOfBytes": "1600"
      },
      "t_bool": {
        "encoding": "inplace",
        "label": "bool",
        "numberOfBytes": "1"
      },
      "t_bytes32": {
        "encoding": "inplace",
        "label": "bytes32",
        "numberOfBytes": "32"
      },
      "t_contract(NEND)28080": {
        "encoding": "inplace",
        "label": "contract NEND",
        "numberOfBytes": "20"
      },
      "t_contract(Vault)29199": {
        "encoding": "inplace",
        "label": "contract Vault",
        "numberOfBytes": "20"
      },
      "t_mapping(t_bytes32,t_array(t_struct(Vote)33409_storage)dyn_storage)": {
        "encoding": "mapping",
        "key": "t_bytes32",
        "label": "mapping(bytes32 => struct ICuration.Vote[])",
        "numberOfBytes": "32",
        "value": "t_array(t_struct(Vote)33409_storage)dyn_storage"
      },
      "t_mapping(t_bytes32,t_bool)": {
        "encoding": "mapping",
        "key": "t_bytes32",
        "label": "mapping(bytes32 => bool)",
        "numberOfBytes": "32",
        "value": "t_bool"
      },
      "t_mapping(t_bytes32,t_uint48)": {
        "encoding": "mapping",
        "key": "t_bytes32",
        "label": "mapping(bytes32 => uint48)",
        "numberOfBytes": "32",
        "value": "t_uint48"
      },
      "t_struct(Vote)33409_storage": {
        "encoding": "inplace",
        "label": "struct ICuration.Vote",
        "members": [
          {
            "astId": 33384,
            "contract": "contracts/voting/PeriFiCuration.sol:PeriFiCuration",
            "label": "accept",
            "offset": 0,
            "slot": "0",
            "type": "t_bool"
          },
          {
            "astId": 33386,
            "contract": "contracts/voting/PeriFiCuration.sol:PeriFiCuration",
            "label": "bet",
            "offset": 1,
            "slot": "0",
            "type": "t_bool"
          },
          {
            "astId": 33388,
            "contract": "contracts/voting/PeriFiCuration.sol:PeriFiCuration",
            "label": "leverageLending",
            "offset": 2,
            "slot": "0",
            "type": "t_bool"
          },
          {
            "astId": 33390,
            "contract": "contracts/voting/PeriFiCuration.sol:PeriFiCuration",
            "label": "vpcRedeemable",
            "offset": 3,
            "slot": "0",
            "type": "t_bool"
          },
          {
            "astId": 33392,
            "contract": "contracts/voting/PeriFiCuration.sol:PeriFiCuration",
            "label": "rewardsClaimed",
            "offset": 4,
            "slot": "0",
            "type": "t_bool"
          },
          {
            "astId": 33394,
            "contract": "contracts/voting/PeriFiCuration.sol:PeriFiCuration",
            "label": "loanAmount",
            "offset": 5,
            "slot": "0",
            "type": "t_uint8"
          },
          {
            "astId": 33396,
            "contract": "contracts/voting/PeriFiCuration.sol:PeriFiCuration",
            "label": "duration",
            "offset": 6,
            "slot": "0",
            "type": "t_uint8"
          },
          {
            "astId": 33398,
            "contract": "contracts/voting/PeriFiCuration.sol:PeriFiCuration",
            "label": "apr",
            "offset": 7,
            "slot": "0",
            "type": "t_uint8"
          },
          {
            "astId": 33400,
            "contract": "contracts/voting/PeriFiCuration.sol:PeriFiCuration",
            "label": "cardLevel",
            "offset": 8,
            "slot": "0",
            "type": "t_uint8"
          },
          {
            "astId": 33402,
            "contract": "contracts/voting/PeriFiCuration.sol:PeriFiCuration",
            "label": "cardId",
            "offset": 0,
            "slot": "1",
            "type": "t_uint256"
          },
          {
            "astId": 33404,
            "contract": "contracts/voting/PeriFiCuration.sol:PeriFiCuration",
            "label": "voteTime",
            "offset": 0,
            "slot": "2",
            "type": "t_uint48"
          },
          {
            "astId": 33406,
            "contract": "contracts/voting/PeriFiCuration.sol:PeriFiCuration",
            "label": "voter",
            "offset": 6,
            "slot": "2",
            "type": "t_address"
          },
          {
            "astId": 33408,
            "contract": "contracts/voting/PeriFiCuration.sol:PeriFiCuration",
            "label": "reward",
            "offset": 0,
            "slot": "3",
            "type": "t_uint256"
          }
        ],
        "numberOfBytes": "128"
      },
      "t_uint256": {
        "encoding": "inplace",
        "label": "uint256",
        "numberOfBytes": "32"
      },
      "t_uint48": {
        "encoding": "inplace",
        "label": "uint48",
        "numberOfBytes": "6"
      },
      "t_uint8": {
        "encoding": "inplace",
        "label": "uint8",
        "numberOfBytes": "1"
      }
    }
  }
}