{
  "address": "0xBaAbAdDC673dD1397D51eF4921b5CD18Bf6C0356",
  "abi": [
    {
      "inputs": [],
      "name": "InsufficientBalance",
      "type": "error"
    },
    {
      "inputs": [
        {
          "internalType": "string",
          "name": "details",
          "type": "string"
        }
      ],
      "name": "InvalidArgument",
      "type": "error"
    },
    {
      "inputs": [],
      "name": "InvalidState",
      "type": "error"
    },
    {
      "inputs": [],
      "name": "Unauthorized",
      "type": "error"
    },
    {
      "anonymous": false,
      "inputs": [
        {
          "indexed": false,
          "internalType": "address",
          "name": "previousAdmin",
          "type": "address"
        },
        {
          "indexed": false,
          "internalType": "address",
          "name": "newAdmin",
          "type": "address"
        }
      ],
      "name": "AdminChanged",
      "type": "event"
    },
    {
      "anonymous": false,
      "inputs": [
        {
          "indexed": true,
          "internalType": "address",
          "name": "owner",
          "type": "address"
        },
        {
          "indexed": true,
          "internalType": "address",
          "name": "approved",
          "type": "address"
        },
        {
          "indexed": true,
          "internalType": "uint256",
          "name": "tokenId",
          "type": "uint256"
        }
      ],
      "name": "Approval",
      "type": "event"
    },
    {
      "anonymous": false,
      "inputs": [
        {
          "indexed": true,
          "internalType": "address",
          "name": "owner",
          "type": "address"
        },
        {
          "indexed": true,
          "internalType": "address",
          "name": "operator",
          "type": "address"
        },
        {
          "indexed": false,
          "internalType": "bool",
          "name": "approved",
          "type": "bool"
        }
      ],
      "name": "ApprovalForAll",
      "type": "event"
    },
    {
      "anonymous": false,
      "inputs": [
        {
          "indexed": true,
          "internalType": "address",
          "name": "beacon",
          "type": "address"
        }
      ],
      "name": "BeaconUpgraded",
      "type": "event"
    },
    {
      "anonymous": false,
      "inputs": [
        {
          "indexed": false,
          "internalType": "uint256",
          "name": "stakeId",
          "type": "uint256"
        },
        {
          "indexed": false,
          "internalType": "enum ILendingPoolStaking.EscrowStatus",
          "name": "status",
          "type": "uint8"
        }
      ],
      "name": "EscrowStatusChanged",
      "type": "event"
    },
    {
      "anonymous": false,
      "inputs": [],
      "name": "InflationRewardDistributed",
      "type": "event"
    },
    {
      "anonymous": false,
      "inputs": [
        {
          "indexed": false,
          "internalType": "uint8",
          "name": "version",
          "type": "uint8"
        }
      ],
      "name": "Initialized",
      "type": "event"
    },
    {
      "anonymous": false,
      "inputs": [],
      "name": "NonInflationRewardDistributed",
      "type": "event"
    },
    {
      "anonymous": false,
      "inputs": [
        {
          "indexed": true,
          "internalType": "address",
          "name": "previousOwner",
          "type": "address"
        },
        {
          "indexed": true,
          "internalType": "address",
          "name": "newOwner",
          "type": "address"
        }
      ],
      "name": "OwnershipTransferred",
      "type": "event"
    },
    {
      "anonymous": false,
      "inputs": [
        {
          "indexed": false,
          "internalType": "uint256",
          "name": "stakeId",
          "type": "uint256"
        },
        {
          "indexed": false,
          "internalType": "enum ILendingPoolStaking.StakeStatus",
          "name": "status",
          "type": "uint8"
        }
      ],
      "name": "StakeStatusChanged",
      "type": "event"
    },
    {
      "anonymous": false,
      "inputs": [
        {
          "indexed": false,
          "internalType": "uint256",
          "name": "stakeId",
          "type": "uint256"
        },
        {
          "indexed": false,
          "internalType": "address",
          "name": "staker",
          "type": "address"
        },
        {
          "indexed": false,
          "internalType": "address",
          "name": "token",
          "type": "address"
        },
        {
          "indexed": false,
          "internalType": "uint48",
          "name": "start",
          "type": "uint48"
        },
        {
          "indexed": false,
          "internalType": "uint48",
          "name": "end",
          "type": "uint48"
        },
        {
          "indexed": false,
          "internalType": "uint256[3]",
          "name": "amountsPerDuration",
          "type": "uint256[3]"
        },
        {
          "indexed": false,
          "internalType": "bool",
          "name": "isEscrow",
          "type": "bool"
        }
      ],
      "name": "Staked",
      "type": "event"
    },
    {
      "anonymous": false,
      "inputs": [
        {
          "indexed": true,
          "internalType": "address",
          "name": "from",
          "type": "address"
        },
        {
          "indexed": true,
          "internalType": "address",
          "name": "to",
          "type": "address"
        },
        {
          "indexed": true,
          "internalType": "uint256",
          "name": "tokenId",
          "type": "uint256"
        }
      ],
      "name": "Transfer",
      "type": "event"
    },
    {
      "anonymous": false,
      "inputs": [
        {
          "indexed": true,
          "internalType": "address",
          "name": "implementation",
          "type": "address"
        }
      ],
      "name": "Upgraded",
      "type": "event"
    },
    {
      "inputs": [],
      "name": "__MWOwnable_init",
      "outputs": [],
      "stateMutability": "nonpayable",
      "type": "function"
    },
    {
      "inputs": [],
      "name": "__Testing_init",
      "outputs": [],
      "stateMutability": "nonpayable",
      "type": "function"
    },
    {
      "inputs": [
        {
          "internalType": "address",
          "name": "",
          "type": "address"
        }
      ],
      "name": "activeStakeTokens",
      "outputs": [
        {
          "internalType": "bool",
          "name": "",
          "type": "bool"
        }
      ],
      "stateMutability": "view",
      "type": "function"
    },
    {
      "inputs": [
        {
          "internalType": "address",
          "name": "_stakeToken",
          "type": "address"
        }
      ],
      "name": "addStakeToken",
      "outputs": [],
      "stateMutability": "nonpayable",
      "type": "function"
    },
    {
      "inputs": [
        {
          "internalType": "address",
          "name": "to",
          "type": "address"
        },
        {
          "internalType": "uint256",
          "name": "tokenId",
          "type": "uint256"
        }
      ],
      "name": "approve",
      "outputs": [],
      "stateMutability": "nonpayable",
      "type": "function"
    },
    {
      "inputs": [
        {
          "internalType": "address",
          "name": "operator",
          "type": "address"
        },
        {
          "internalType": "string",
          "name": "role",
          "type": "string"
        },
        {
          "internalType": "bool",
          "name": "authorized",
          "type": "bool"
        }
      ],
      "name": "authorize",
      "outputs": [],
      "stateMutability": "nonpayable",
      "type": "function"
    },
    {
      "inputs": [
        {
          "internalType": "address",
          "name": "owner",
          "type": "address"
        }
      ],
      "name": "balanceOf",
      "outputs": [
        {
          "internalType": "uint256",
          "name": "",
          "type": "uint256"
        }
      ],
      "stateMutability": "view",
      "type": "function"
    },
    {
      "inputs": [
        {
          "internalType": "address",
          "name": "_token",
          "type": "address"
        },
        {
          "internalType": "uint256",
          "name": "_amount",
          "type": "uint256"
        },
        {
          "internalType": "uint8",
          "name": "_durationId",
          "type": "uint8"
        }
      ],
      "name": "deposit",
      "outputs": [],
      "stateMutability": "payable",
      "type": "function"
    },
    {
      "inputs": [
        {
          "internalType": "uint256",
          "name": "_inflationReward",
          "type": "uint256"
        }
      ],
      "name": "distributeInflationRewards",
      "outputs": [],
      "stateMutability": "nonpayable",
      "type": "function"
    },
    {
      "inputs": [],
      "name": "distributeNonInflationRewards",
      "outputs": [],
      "stateMutability": "nonpayable",
      "type": "function"
    },
    {
      "inputs": [],
      "name": "escrowLockPeriod",
      "outputs": [
        {
          "internalType": "uint48",
          "name": "",
          "type": "uint48"
        }
      ],
      "stateMutability": "view",
      "type": "function"
    },
    {
      "inputs": [
        {
          "internalType": "uint256",
          "name": "tokenId",
          "type": "uint256"
        }
      ],
      "name": "getApproved",
      "outputs": [
        {
          "internalType": "address",
          "name": "",
          "type": "address"
        }
      ],
      "stateMutability": "view",
      "type": "function"
    },
    {
      "inputs": [],
      "name": "hasPendingNonInflationRewards",
      "outputs": [
        {
          "internalType": "bool",
          "name": "",
          "type": "bool"
        }
      ],
      "stateMutability": "view",
      "type": "function"
    },
    {
      "inputs": [
        {
          "internalType": "address",
          "name": "",
          "type": "address"
        },
        {
          "internalType": "string",
          "name": "",
          "type": "string"
        }
      ],
      "name": "hasRole",
      "outputs": [
        {
          "internalType": "bool",
          "name": "",
          "type": "bool"
        }
      ],
      "stateMutability": "view",
      "type": "function"
    },
    {
      "inputs": [
        {
          "internalType": "address",
          "name": "",
          "type": "address"
        }
      ],
      "name": "inflationRollOver",
      "outputs": [
        {
          "internalType": "uint256",
          "name": "",
          "type": "uint256"
        }
      ],
      "stateMutability": "view",
      "type": "function"
    },
    {
      "inputs": [],
      "name": "initalizeV2",
      "outputs": [],
      "stateMutability": "nonpayable",
      "type": "function"
    },
    {
      "inputs": [
        {
          "internalType": "address",
          "name": "_nend",
          "type": "address"
        },
        {
          "internalType": "contract Vault",
          "name": "_lendingPool",
          "type": "address"
        }
      ],
      "name": "initialize",
      "outputs": [],
      "stateMutability": "nonpayable",
      "type": "function"
    },
    {
      "inputs": [
        {
          "internalType": "address",
          "name": "owner",
          "type": "address"
        },
        {
          "internalType": "address",
          "name": "operator",
          "type": "address"
        }
      ],
      "name": "isApprovedForAll",
      "outputs": [
        {
          "internalType": "bool",
          "name": "",
          "type": "bool"
        }
      ],
      "stateMutability": "view",
      "type": "function"
    },
    {
      "inputs": [
        {
          "internalType": "uint256",
          "name": "_stakeId",
          "type": "uint256"
        }
      ],
      "name": "issueEAB",
      "outputs": [],
      "stateMutability": "nonpayable",
      "type": "function"
    },
    {
      "inputs": [
        {
          "internalType": "address",
          "name": "",
          "type": "address"
        },
        {
          "internalType": "uint8",
          "name": "",
          "type": "uint8"
        }
      ],
      "name": "lastEscrowRewardByToken_Duration",
      "outputs": [
        {
          "internalType": "uint256",
          "name": "",
          "type": "uint256"
        }
      ],
      "stateMutability": "view",
      "type": "function"
    },
    {
      "inputs": [],
      "name": "lendingPool",
      "outputs": [
        {
          "internalType": "contract Vault",
          "name": "",
          "type": "address"
        }
      ],
      "stateMutability": "view",
      "type": "function"
    },
    {
      "inputs": [],
      "name": "name",
      "outputs": [
        {
          "internalType": "string",
          "name": "",
          "type": "string"
        }
      ],
      "stateMutability": "view",
      "type": "function"
    },
    {
      "inputs": [],
      "name": "nend",
      "outputs": [
        {
          "internalType": "address",
          "name": "",
          "type": "address"
        }
      ],
      "stateMutability": "view",
      "type": "function"
    },
    {
      "inputs": [],
      "name": "ongoingStakeCount",
      "outputs": [
        {
          "internalType": "uint256",
          "name": "",
          "type": "uint256"
        }
      ],
      "stateMutability": "view",
      "type": "function"
    },
    {
      "inputs": [],
      "name": "owner",
      "outputs": [
        {
          "internalType": "address",
          "name": "",
          "type": "address"
        }
      ],
      "stateMutability": "view",
      "type": "function"
    },
    {
      "inputs": [
        {
          "internalType": "uint256",
          "name": "tokenId",
          "type": "uint256"
        }
      ],
      "name": "ownerOf",
      "outputs": [
        {
          "internalType": "address",
          "name": "",
          "type": "address"
        }
      ],
      "stateMutability": "view",
      "type": "function"
    },
    {
      "inputs": [],
      "name": "poolRollOver",
      "outputs": [
        {
          "internalType": "uint256",
          "name": "",
          "type": "uint256"
        }
      ],
      "stateMutability": "view",
      "type": "function"
    },
    {
      "inputs": [],
      "name": "proxiableUUID",
      "outputs": [
        {
          "internalType": "bytes32",
          "name": "",
          "type": "bytes32"
        }
      ],
      "stateMutability": "view",
      "type": "function"
    },
    {
      "inputs": [
        {
          "internalType": "address",
          "name": "_stakeToken",
          "type": "address"
        }
      ],
      "name": "removeStakeToken",
      "outputs": [],
      "stateMutability": "nonpayable",
      "type": "function"
    },
    {
      "inputs": [],
      "name": "renounceOwnership",
      "outputs": [],
      "stateMutability": "nonpayable",
      "type": "function"
    },
    {
      "inputs": [
        {
          "internalType": "uint256",
          "name": "",
          "type": "uint256"
        }
      ],
      "name": "rewardAllocations",
      "outputs": [
        {
          "internalType": "uint8",
          "name": "",
          "type": "uint8"
        }
      ],
      "stateMutability": "view",
      "type": "function"
    },
    {
      "inputs": [
        {
          "internalType": "address",
          "name": "from",
          "type": "address"
        },
        {
          "internalType": "address",
          "name": "to",
          "type": "address"
        },
        {
          "internalType": "uint256",
          "name": "tokenId",
          "type": "uint256"
        }
      ],
      "name": "safeTransferFrom",
      "outputs": [],
      "stateMutability": "nonpayable",
      "type": "function"
    },
    {
      "inputs": [
        {
          "internalType": "address",
          "name": "from",
          "type": "address"
        },
        {
          "internalType": "address",
          "name": "to",
          "type": "address"
        },
        {
          "internalType": "uint256",
          "name": "tokenId",
          "type": "uint256"
        },
        {
          "internalType": "bytes",
          "name": "data",
          "type": "bytes"
        }
      ],
      "name": "safeTransferFrom",
      "outputs": [],
      "stateMutability": "nonpayable",
      "type": "function"
    },
    {
      "inputs": [
        {
          "internalType": "address",
          "name": "operator",
          "type": "address"
        },
        {
          "internalType": "bool",
          "name": "approved",
          "type": "bool"
        }
      ],
      "name": "setApprovalForAll",
      "outputs": [],
      "stateMutability": "nonpayable",
      "type": "function"
    },
    {
      "inputs": [
        {
          "internalType": "uint8[3]",
          "name": "_rewardAllocations",
          "type": "uint8[3]"
        }
      ],
      "name": "setRewardAllocations",
      "outputs": [],
      "stateMutability": "nonpayable",
      "type": "function"
    },
    {
      "inputs": [
        {
          "internalType": "bool",
          "name": "_testing",
          "type": "bool"
        }
      ],
      "name": "setTesting",
      "outputs": [],
      "stateMutability": "nonpayable",
      "type": "function"
    },
    {
      "inputs": [
        {
          "internalType": "uint256",
          "name": "_tokenId",
          "type": "uint256"
        },
        {
          "internalType": "string",
          "name": "_tokenURI",
          "type": "string"
        }
      ],
      "name": "setTokenURI",
      "outputs": [],
      "stateMutability": "nonpayable",
      "type": "function"
    },
    {
      "inputs": [
        {
          "internalType": "uint256",
          "name": "",
          "type": "uint256"
        }
      ],
      "name": "stakeDurations",
      "outputs": [
        {
          "internalType": "uint48",
          "name": "",
          "type": "uint48"
        }
      ],
      "stateMutability": "view",
      "type": "function"
    },
    {
      "inputs": [
        {
          "internalType": "uint256",
          "name": "_stakeId",
          "type": "uint256"
        }
      ],
      "name": "stakeEscrowedReward",
      "outputs": [],
      "stateMutability": "nonpayable",
      "type": "function"
    },
    {
      "inputs": [],
      "name": "stakeTokenCount",
      "outputs": [
        {
          "internalType": "uint256",
          "name": "",
          "type": "uint256"
        }
      ],
      "stateMutability": "view",
      "type": "function"
    },
    {
      "inputs": [
        {
          "internalType": "uint256",
          "name": "",
          "type": "uint256"
        }
      ],
      "name": "stakeTokens",
      "outputs": [
        {
          "internalType": "address",
          "name": "",
          "type": "address"
        }
      ],
      "stateMutability": "view",
      "type": "function"
    },
    {
      "inputs": [
        {
          "internalType": "uint256",
          "name": "",
          "type": "uint256"
        }
      ],
      "name": "stakes",
      "outputs": [
        {
          "internalType": "address",
          "name": "staker",
          "type": "address"
        },
        {
          "internalType": "address",
          "name": "token",
          "type": "address"
        },
        {
          "internalType": "uint48",
          "name": "start",
          "type": "uint48"
        },
        {
          "internalType": "uint48",
          "name": "end",
          "type": "uint48"
        },
        {
          "internalType": "uint256",
          "name": "rewardAllocated",
          "type": "uint256"
        },
        {
          "internalType": "bool",
          "name": "isEscrow",
          "type": "bool"
        },
        {
          "internalType": "enum ILendingPoolStaking.EscrowStatus",
          "name": "escrowStatus",
          "type": "uint8"
        },
        {
          "internalType": "enum ILendingPoolStaking.StakeStatus",
          "name": "stakeStatus",
          "type": "uint8"
        }
      ],
      "stateMutability": "view",
      "type": "function"
    },
    {
      "inputs": [
        {
          "internalType": "bytes4",
          "name": "interfaceId",
          "type": "bytes4"
        }
      ],
      "name": "supportsInterface",
      "outputs": [
        {
          "internalType": "bool",
          "name": "",
          "type": "bool"
        }
      ],
      "stateMutability": "view",
      "type": "function"
    },
    {
      "inputs": [],
      "name": "symbol",
      "outputs": [
        {
          "internalType": "string",
          "name": "",
          "type": "string"
        }
      ],
      "stateMutability": "view",
      "type": "function"
    },
    {
      "inputs": [],
      "name": "testing",
      "outputs": [
        {
          "internalType": "bool",
          "name": "",
          "type": "bool"
        }
      ],
      "stateMutability": "view",
      "type": "function"
    },
    {
      "inputs": [
        {
          "internalType": "uint256",
          "name": "tokenId",
          "type": "uint256"
        }
      ],
      "name": "tokenURI",
      "outputs": [
        {
          "internalType": "string",
          "name": "",
          "type": "string"
        }
      ],
      "stateMutability": "view",
      "type": "function"
    },
    {
      "inputs": [
        {
          "internalType": "address",
          "name": "",
          "type": "address"
        },
        {
          "internalType": "uint8",
          "name": "",
          "type": "uint8"
        }
      ],
      "name": "totalStakedByToken_Duration",
      "outputs": [
        {
          "internalType": "uint256",
          "name": "",
          "type": "uint256"
        }
      ],
      "stateMutability": "view",
      "type": "function"
    },
    {
      "inputs": [
        {
          "internalType": "address",
          "name": "from",
          "type": "address"
        },
        {
          "internalType": "address",
          "name": "to",
          "type": "address"
        },
        {
          "internalType": "uint256",
          "name": "tokenId",
          "type": "uint256"
        }
      ],
      "name": "transferFrom",
      "outputs": [],
      "stateMutability": "nonpayable",
      "type": "function"
    },
    {
      "inputs": [
        {
          "internalType": "address",
          "name": "newOwner",
          "type": "address"
        }
      ],
      "name": "transferOwnership",
      "outputs": [],
      "stateMutability": "nonpayable",
      "type": "function"
    },
    {
      "inputs": [
        {
          "internalType": "uint256",
          "name": "_stakeId",
          "type": "uint256"
        }
      ],
      "name": "unstake",
      "outputs": [],
      "stateMutability": "nonpayable",
      "type": "function"
    },
    {
      "inputs": [
        {
          "internalType": "address",
          "name": "newImplementation",
          "type": "address"
        }
      ],
      "name": "upgradeTo",
      "outputs": [],
      "stateMutability": "nonpayable",
      "type": "function"
    },
    {
      "inputs": [
        {
          "internalType": "address",
          "name": "newImplementation",
          "type": "address"
        },
        {
          "internalType": "bytes",
          "name": "data",
          "type": "bytes"
        }
      ],
      "name": "upgradeToAndCall",
      "outputs": [],
      "stateMutability": "payable",
      "type": "function"
    }
  ],
  "transactionHash": "0xf19613aa3e75e8737d1a85fae4bbde4c70d125a021486e5a7c5e1e908ea68952",
  "args": [],
  "numDeployments": 2,
  "solcInputHash": "8c1810abb7d55761cf48f5e29925b8cc",
  "bytecode": "0x60a0604052346200019f57620000216200001b60c954620002fe565b6200033b565b60066206966760ec1b0160c955620000456200003f60ca54620002fe565b62000375565b6006621a599b60ea1b0160ca55620000696200006360cb54620002fe565b620003af565b600461746360f01b0160cb556200008c6200008660cc54620002fe565b620003e9565b600461626360f01b0160cc55600054620000c060ff8260081c16158092819362000190575b81156200016d575b50620001a4565b80620000d4600160ff196000541617600055565b62000152575b620000e46200029e565b6200011f575b620000f462000208565b3060805260405161554390816200042482396080518181816114d301528181611b680152611e020152f35b6200013061ff001960005416600055565b604051600181526000805160206200596783398151915290602090a1620000ea565b6200016761010061ff00196000541617600055565b620000da565b303b1591508162000181575b5038620000b9565b6001915060ff16143862000179565b600160ff8216109150620000b1565b600080fd5b15620001ac57565b60405162461bcd60e51b815260206004820152602e60248201527f496e697469616c697a61626c653a20636f6e747261637420697320616c72656160448201526d191e481a5b9a5d1a585b1a5e995960921b6064820152608490fd5b6000546200022e60ff8260081c161580928193620001905781156200016d5750620001a4565b8062000242600160ff196000541617600055565b62000283575b600160ff1960ff54161760ff556200025c57565b61ff00196000541660005560008051602062005967833981519152602060405160018152a1565b6200029861010061ff00196000541617600055565b62000248565b60cd8054734a580d71c0f73202c51c58147aa7c7e09245b10a6001600160a01b0319821681179092556040516001600160a01b03909116907f8be0079c531659141344cd1fd0a4f28419497f9722a3daafe3b4186f6b6457e090600090a3565b90600182811c9216801562000330575b60208310146200031a57565b634e487b7160e01b600052602260045260246000fd5b91607f16916200030e565b601f8111620003475750565b600060c98152601f60208220920160051c8201915b8281106200036957505050565b8181556001016200035c565b601f8111620003815750565b600060ca8152601f60208220920160051c8201915b828110620003a357505050565b81815560010162000396565b601f8111620003bb5750565b600060cb8152601f60208220920160051c8201915b828110620003dd57505050565b818155600101620003d0565b601f8111620003f55750565b600060cc8152601f60208220920160051c8201915b8281106200041757505050565b8181556001016200040a56fe60806040526004361015610013575b600080fd5b60003560e01c806301ffc9a71461042357806306fdde031461041a578063081812fc1461041157806308ed8d1614610408578063095ea7b3146103ff578063125cc42f146103f6578063162094c4146103ed578063166866c7146103e45780631fecb71a146103db578063217fe6c6146103d257806323b872dd146103c95780632e17de78146103c05780633587e161146103b75780633659cfe6146103ae57806339d2525f146103a55780633c661b8b1461039c5780633de15c121461039357806342842e0e1461038a578063485cc955146103815780634f1ef28614610378578063528a9e4d1461036f57806352d1902d146103665780636352211e1461035d57806365b014b71461035457806370a082311461034b578063715018a61461034257806372a4db4a146103395780637547c7a31461033057806378fecc9914610327578063829522001461031e578063848778b4146103155780638d03b1021461030c5780638da5cb5b1461030357806395d89b41146102fa5780639b45d024146102f15780639db5fa65146102e8578063a22cb465146102df578063a59a9973146102d6578063b88d4fde146102cd578063ba5e4bad146102c4578063bad7edab146102bb578063bf021550146102b2578063c87b56dd146102a9578063d2438c2a146102a0578063d5a44f8614610297578063d7453bd91461028e578063de3e3eff14610285578063e25b7d821461027c578063e985e9c514610273578063ef7bd7f31461026a578063f19ed6be146102615763f2fde38b1461025957600080fd5b61000e612de3565b5061000e612a15565b5061000e6129f5565b5061000e61298a565b5061000e612962565b5061000e61291e565b5061000e612860565b5061000e6127e3565b5061000e6126e8565b5061000e6125e7565b5061000e612593565b5061000e6124cc565b5061000e6124ac565b5061000e612454565b5061000e61242b565b5061000e612339565b5061000e6122dc565b5061000e6122bc565b5061000e612214565b5061000e6121ec565b5061000e6121c9565b5061000e612189565b5061000e612160565b5061000e61213a565b5061000e6120de565b5061000e61203c565b5061000e611fae565b5061000e611f08565b5061000e611edd565b5061000e611ebe565b5061000e611de6565b5061000e611cbc565b5061000e611b22565b5061000e611a23565b5061000e6119fa565b5061000e611755565b5061000e611719565b5061000e61163c565b5061000e6114a9565b5061000e611197565b5061000e610d4e565b5061000e610d24565b5061000e610c68565b5061000e610bdf565b5061000e610b1a565b5061000e610966565b5061000e6107d1565b5061000e61068a565b5061000e61063d565b5061000e610603565b5061000e610526565b5061000e61043e565b6001600160e01b031981160361000e57565b503461000e57602036600319011261000e57602060043561045e8161042c565b63ffffffff60e01b166380ac58cd60e01b811490811561049c575b811561048b575b506040519015158152f35b6301ffc9a760e01b14905038610480565b635b5e139f60e01b81149150610479565b600091031261000e57565b918091926000905b8282106104d85750116104d1575050565b6000910152565b915080602091830151818601520182916104c0565b90602091610506815180928185528580860191016104b8565b601f01601f1916010190565b9060206105239281815201906104ed565b90565b503461000e5760008060031936011261060057604051908060655461054a81613297565b808552916001918083169081156105df5750600114610584575b61058085610574818703826108a2565b60405191829182610512565b0390f35b9250606583527f8ff97419363ffd7000167f130ef7168fbea05faf9251824ca5043f113cc6a7c75b8284106105c757505050810160200161057482610580610564565b805460208587018101919091529093019281016105ac565b60ff1916602087015250506040840192506105749150839050610580610564565b80fd5b503461000e57602036600319011261000e5760206106226004356133dd565b6001600160a01b0360405191168152f35b8015150361000e57565b503461000e57602036600319011261000e5760043561065b81610633565b610663613a5a565b60ff8019815416911515161760ff556000604051f35b6001600160a01b0381160361000e57565b503461000e57604036600319011261000e576004356106a881610679565b6024356106b481613275565b916001600160a01b038084168091831614610734576106e6936106e19133149081156106e8575b5061336b565b61374d565b005b61072e91506107279061070f33916001600160a01b0316600052606a602052604060002090565b906001600160a01b0316600052602052604060002090565b5460ff1690565b386106db565b60405162461bcd60e51b815260206004820152602160248201527f4552433732313a20617070726f76616c20746f2063757272656e74206f776e656044820152603960f91b6064820152608490fd5b6001600160a01b0316600052610172602052604060002090565b6001600160a01b031660005261016d602052604060002090565b6001600160a01b0316600052610168602052604060002090565b503461000e57602036600319011261000e576001600160a01b036004356107f781610679565b16600052610167602052602060ff604060002054166040519015158152f35b50634e487b7160e01b600052604160045260246000fd5b67ffffffffffffffff811161084157604052565b610849610816565b604052565b6020810190811067ffffffffffffffff82111761084157604052565b6060810190811067ffffffffffffffff82111761084157604052565b6040810190811067ffffffffffffffff82111761084157604052565b90601f8019910116810190811067ffffffffffffffff82111761084157604052565b60405190610120820182811067ffffffffffffffff82111761084157604052565b604051906108f28261086a565b565b60209067ffffffffffffffff8111610912575b601f01601f19160190565b61091a610816565b610907565b81601f8201121561000e57803590610936826108f4565b9261094460405194856108a2565b8284526020838301011161000e57816000926020809301838601378301015290565b503461000e57604036600319011261000e5767ffffffffffffffff60043560243582811161000e5761099c90369060040161091f565b916109a5613a5a565b6109c58260005260676020526001600160a01b0360406000205416151590565b15610aaf5760009182526020906097825260408320918451918211610aa2575b6109f9826109f38554613297565b85614215565b80601f8311600114610a355750839482939492610a2a575b50508160011b916000199060031b1c1916179055604051f35b015190503880610a11565b90601f19831695610a4b85600052602060002090565b9286905b888210610a8a57505083600195969710610a71575b505050811b019055604051f35b015160001960f88460031b161c19169055388080610a64565b80600185968294968601518155019501930190610a4f565b610aaa610816565b6109e5565b60405162461bcd60e51b815260206004820152602e60248201527f45524337323155524953746f726167653a2055524920736574206f66206e6f6e60448201527f6578697374656e7420746f6b656e0000000000000000000000000000000000006064820152608490fd5b503461000e5760208060031936011261000e57600435610b3981610679565b610b41613b06565b90610b656001600160a01b0392848460cd54163314918215610ba3575b5050613b27565b1690816000526101679182825260ff60406000205416610b8157005b61016b610b8e8154614d7f565b905560005252604060002060ff198154169055005b60ff925090610bcd91336000526101008252604060002082604051948386809551938492016104b8565b82019081520301902054168438610b5e565b503461000e57602036600319011261000e576106e6600435610c0081610679565b610c27610c0b613b06565b6001600160a01b0360cd54163314908115610c2c575b50613b27565b614f4c565b60ff91506020610c5791336000526101008252604060002082604051948386809551938492016104b8565b820190815203019020541638610c21565b503461000e57604036600319011261000e57600435610c8681610679565b60243567ffffffffffffffff811161000e57610cdb6020610580936001600160a01b03610cb960ff95369060040161091f565b91166000526101008252604060002082604051948386809551938492016104b8565b820190815203019020546040519116151581529081906020820190565b606090600319011261000e57600435610d1081610679565b90602435610d1d81610679565b9060443590565b503461000e576106e6610d3636610cf8565b91610d49610d448433613507565b61341a565b6135e2565b503461000e5760208060031936011261000e57600435610d75610d7082613918565b61271a565b5091610d8883546001600160a01b031690565b906001600160a01b03918233911603611186576001840190815492428460d01c118015611168575b801561114a575b611138576005600287019683610df9610deb8a54610de5610ddb8d60010190600090565b90549060031b1c90565b90613968565b610de560028c016000610ddb565b6006830197610e09895460ff1690565b15611125575090610e66600092610e3b610e2f610e2f610165546001600160a01b031690565b6001600160a01b031690565b60405163a9059cbb60e01b815233600482015260248101929092529093849283919082906044820190565b03925af18015611118575b6110fb575b505b015480611048575b505082546001915060101c60ff16610e9781612763565b14610fa3575b50805462ff00001916620200001781556106e69250610f1a91610d709160408051838152600260208201527fab7e44c17ad2a7b4de0e42ab0bc824366a946f184a1133f0b5528347e4ccbd2991819081010390a18054600160ff8260081c16610f0581612763565b14908115610f98575b50610f20575b50613918565b90614d8c565b805461ff001916610200179055610f4d8160005260676020526001600160a01b0360406000205416151590565b610f8a575b60408051828152600260208201527f855f5f4ea7c8c6a92f173fbc35c24d01139c2a49e9bcc085f03620cb6a1c65139190a138610f14565b610f9381614e1a565b610f52565b60ff91501638610f0e565b610fb8610fb261016c54614d7f565b61016c55565b600090815b600360ff821610610fcf575050610e9d565b80610fe0610ddb611028938961437a565b855460ff161561102d5761102161101983611007610783610165546001600160a01b031690565b9060ff16600052602052604060002090565b918254613935565b9055614368565b610fbd565b6110216110198361100761078388546001600160a01b031690565b6110988391611058875460ff1690565b156110ea57610165546001600160a01b0316905b60405163a9059cbb60e01b81523360048201526024810191909152938492839160009183906044820190565b0393165af180156110dd575b6110af575b80610e80565b816110ce92903d106110d6575b6110c681836108a2565b81019061493f565b5038806110a9565b503d6110bc565b6110e5612f82565b6110a4565b85546001600160a01b03169061106c565b61111190853d87116110d6576110c681836108a2565b5038610e76565b611120612f82565b610e71565b611133925085339116614ff4565b610e78565b60405163baf3f0f760e01b8152600490fd5b50600686015460029060081c60ff1661116281612763565b14610db7565b50600686015460029060101c60ff1661118081612763565b14610db0565b6040516282b42960e81b8152600490fd5b503461000e57600080600319360112610600576111b2613a5a565b805b61016954811015611283576112449061121a6111dc610e2f610166546001600160a01b031690565b6111fb6111e884612099565b90546001600160a01b039160031b1c1690565b6040518092630530fa2160e01b8252818060209687956004830161491b565b03915afa918215611276575b8592611249575b505061123e61079d6111e884612099565b55613e4b565b6111b4565b6112689250803d1061126f575b61126081836108a2565b810190612f73565b388061122d565b503d611256565b61127e612f82565b611226565b50805b61017054811015611325578061129e6112f89261271a565b50600681015460ff91828260101c16906112b782612763565b600180920361131c576112f3936112cd8661394c565b9316156112fd5750506112ec61079d610165546001600160a01b031690565b549061497e565b613e4b565b611286565b01546001600160a01b0316600090815261016d602052604090206112ec565b50505050613e4b565b50805b6101695481101561147f578061134661079d6111e86113bc94612099565b548361135e610e2f610166546001600160a01b031690565b61136a6111e885612099565b6040916113aa8351630530fa2160e01b815260209687828061139060049889830161491b565b0381875afa918215611472575b8792611453575b50613935565b91826113c1575b505050505050613e4b565b611328565b61140e9486946113d36111e88a612099565b905163276d76f960e21b81526001600160a01b0390911692810192835230602084015260408301949094529294859384929091839160600190565b03925af18015611446575b611428575b80808087936113b1565b8161143e92903d106110d6576110c681836108a2565b50388061141e565b61144e612f82565b611419565b61146b919250883d8a1161126f5761126081836108a2565b90386113a4565b61147a612f82565b61139d565b506040517f3ebfd10f795a127a78001b56051c04828d55b68d9d77ebce97b617c8adc53ed28282a1f35b503461000e57602036600319011261000e576004356114c781610679565b6001600160a01b0390817f0000000000000000000000000000000000000000000000000000000000000000169161150083301415612eb1565b61152f7f360894a13ba1a3210667c828492db98dca3e2076cc3735a920a3ca505d382bbc938285541614612f12565b611537613a5a565b604051906115448261084e565b600082527f4910fdfa16fed3260ed0e7147f7cc6da11a60208b5b9406d12a635614ffd91435460ff161561157e5750506106e69150612fed565b6020600491604094939451928380926352d1902d60e01b825286165afa6000918161161c575b506116095760405162461bcd60e51b815260206004820152602e60248201527f45524331393637557067726164653a206e657720696d706c656d656e7461746960448201526d6f6e206973206e6f74205555505360901b6064820152608490fd5b0390fd5b6106e6936116179114612f8f565b61308b565b61163591925060203d811161126f5761126081836108a2565b90386115a4565b503461000e57606036600319011261000e5760043561165a81610679565b6024359067ffffffffffffffff821161000e576116c160206116836106e694369060040161091f565b6001600160a01b036044359461169886610633565b6116a0613a5a565b166000526101008252604060002082604051948386809551938492016104b8565b8201908152030190209060ff801983541691151516179055565b50634e487b7160e01b600052603260045260246000fd5b90600382101561170c575b601f8260051c61017301921690565b6117146116db565b6116fd565b503461000e57602036600319011261000e57600435600381101561000e578060ff60209260051c610173015460f86040519360031b161c168152f35b503461000e57602036600319011261000e57600435611780610e2f610165546001600160a01b031690565b33036111865761017490611795825482613968565b906117a1600061017455565b610170805460005b8181106119b557509054905b81811061199b57505060005b61016954811015611970576117d86111e882612099565b61016b61180e6117e98254876139cb565b611807846001600160a01b0316600052610168602052604060002090565b5490613968565b600061182e846001600160a01b0316600052610168602052604060002090565b55600090815b600360ff8216106118a557505090600360ff61185a959493161461185f575b5050613e4b565b6117c1565b61189161189891600061188961189e956001600160a01b0316600052610168602052604060002090565b5554866139cb565b8754613968565b61017455565b3880611853565b6118da6118d36118cd6118c76118ba856116f2565b905460ff9160031b1c1690565b60ff1690565b84613c47565b6064900490565b6118fc82611007886001600160a01b0316600052610172602052604060002090565b5415611935575b906119309161192a82611007896001600160a01b031660005261016f602052604060002090565b55614368565b611834565b92906119676119309261195c886001600160a01b0316600052610168602052604060002090565b611021878254613968565b93909150611903565b60006040517fbd9c0e36f2110aa67058734f061a385583a1d8b5758bcb065ca0f26c4c64603c8282a1f35b806112f36119ab6119b09361394c565b6152d0565b6117b5565b8060016119d560066119c96119f59561271a565b50015460101c60ff1690565b6119de81612763565b036112f3576112f3866119f08361394c565b6145ff565b6117a9565b503461000e576106e6611a0c36610cf8565b9060405192611a1a8461084e565b6000845261347c565b503461000e57604036600319011261000e57600435611a4181610679565b611a91602435611a5081610679565b60005492611a7560ff8560081c161580958196611b14575b8115611af4575b50613ce2565b83611a88600160ff196000541617600055565b611adb57613f13565b611a9757005b611aa761ff001960005416600055565b604051600181527f7f26b83ff96e1f2b6a682f133852f6798a09c465da95921460cefb38474024989080602081015b0390a1005b611aef61010061ff00196000541617600055565b613f13565b303b15915081611b06575b5038611a6f565b6001915060ff161438611aff565b600160ff8216109150611a68565b50604036600319011261000e57600435611b3b81610679565b60243567ffffffffffffffff811161000e57611b5b90369060040161091f565b906001600160a01b0391827f00000000000000000000000000000000000000000000000000000000000000001692611b9584301415612eb1565b611bc47f360894a13ba1a3210667c828492db98dca3e2076cc3735a920a3ca505d382bbc948286541614612f12565b611bcc613a5a565b7f4910fdfa16fed3260ed0e7147f7cc6da11a60208b5b9406d12a635614ffd91435460ff1615611c025750506106e69150612fed565b6020600491604094939451928380926352d1902d60e01b825286165afa60009181611c9c575b50611c895760405162461bcd60e51b815260206004820152602e60248201527f45524331393637557067726164653a206e657720696d706c656d656e7461746960448201526d6f6e206973206e6f74205555505360901b6064820152608490fd5b6106e693611c979114612f8f565b6131a3565b611cb591925060203d811161126f5761126081836108a2565b9038611c28565b503461000e57602036600319011261000e57600435611cdd610d7082613918565b5090611cf082546001600160a01b031690565b6001600160a01b0333911603611186576006820180549260ff938480821615918215611dce575b505061113857815462ff000019166201000017825592611d3c610fb261016c54613e4b565b600260009401935b600382821610611d8f577fab7e44c17ad2a7b4de0e42ab0bc824366a946f184a1133f0b5528347e4ccbd2984611d7f855460ff9060101c1690565b90611ad660405192839283614398565b611dc781611da2610ddb6003948961437a565b611021611dbf83611007610783610165546001600160a01b031690565b918254613968565b9050611d44565b60101c169050611ddd81612763565b15158438611d17565b503461000e57600036600319011261000e576001600160a01b037f0000000000000000000000000000000000000000000000000000000000000000163003611e53576040517f360894a13ba1a3210667c828492db98dca3e2076cc3735a920a3ca505d382bbc8152602090f35b60405162461bcd60e51b815260206004820152603860248201527f555550535570677261646561626c653a206d757374206e6f742062652063616c60448201527f6c6564207468726f7567682064656c656761746563616c6c00000000000000006064820152608490fd5b503461000e57602036600319011261000e576020610622600435613275565b503461000e57600036600319011261000e57611f0060ff60005460081c166139e1565b6106e6613ab2565b503461000e57602036600319011261000e576001600160a01b03600435611f2e81610679565b168015611f57576000526068602052610580604060002054604051918291829190602083019252565b60405162461bcd60e51b815260206004820152602960248201527f4552433732313a2061646472657373207a65726f206973206e6f7420612076616044820152683634b21037bbb732b960b91b6064820152608490fd5b503461000e5760008060031936011261060057611fc9613a5a565b60cd546001600160a01b0319811660cd55816001600160a01b0360405192167f8be0079c531659141344cd1fd0a4f28419497f9722a3daafe3b4186f6b6457e08284a3f35b6024359060ff8216820361000e57565b6044359060ff8216820361000e57565b359060ff8216820361000e57565b503461000e57606036600319011261000e57366023121561000e576040516120638161086a565b60648136821161000e576004905b828210612081576106e684613b73565b6020809161208e8461202e565b815201910190612071565b61016980548210156120d1575b6000527fbd88e1fd0aa5f3038c0cd2a68644e2d11f4e4e7e3693adba414318f2127ca4260190600090565b6120d96116db565b6120a6565b503461000e57602036600319011261000e57600435610169805482101561000e576020916001600160a01b03916000527fbd88e1fd0aa5f3038c0cd2a68644e2d11f4e4e7e3693adba414318f2127ca426015416604051908152f35b503461000e57600036600319011261000e576020612156614abf565b6040519015158152f35b503461000e57600036600319011261000e5760206001600160a01b036101655416604051908152f35b503461000e57602036600319011261000e576001600160a01b036004356121af81610679565b166000526101686020526020604060002054604051908152f35b503461000e57600036600319011261000e57602060ff8054166040519015158152f35b503461000e57600036600319011261000e5760206001600160a01b0360cd5416604051908152f35b503461000e5760008060031936011261060057604051908060665461223881613297565b808552916001918083169081156105df57506001146122615761058085610574818703826108a2565b9250606683527f46501879b8ca8525e8c2fd519e2fbfcfa2ebea26501294aa02cbfcfb12e943545b8284106122a457505050810160200161057482610580610564565b80546020858701810191909152909301928101612289565b503461000e57600036600319011261000e57602061016c54604051908152f35b503461000e57604036600319011261000e5760206123306004356122ff81610679565b6001600160a01b0361230f61200e565b9116600052610172835260406000209060ff16600052602052604060002090565b54604051908152f35b503461000e57604036600319011261000e5760043561235781610679565b60243561236381610633565b6001600160a01b038216918233146123e657816123a36123b49233600052606a6020526040600020906001600160a01b0316600052602052604060002090565b9060ff801983541691151516179055565b604051901515815233907f17307eab39ab6107e8899845ad3d59bd9653f200f220920489ca2b5937696c3190602090a3005b60405162461bcd60e51b815260206004820152601960248201527f4552433732313a20617070726f766520746f2063616c6c6572000000000000006044820152606490fd5b503461000e57600036600319011261000e5760206001600160a01b036101665416604051908152f35b503461000e57608036600319011261000e5760043561247281610679565b60243561247e81610679565b6064359167ffffffffffffffff831161000e576124a26106e693369060040161091f565b916044359161347c565b503461000e57600036600319011261000e57602061017454604051908152f35b503461000e57602036600319011261000e576004356124ed610d7082613918565b508054336001600160a01b0390911603611186576006018054600260ff8260101c1661251881612763565b1490811561257a575b5061113857805461ff0019166101001790557f855f5f4ea7c8c6a92f173fbc35c24d01139c2a49e9bcc085f03620cb6a1c651390611ad6906125638133614c78565b604080519182526001602083015290918291820190565b60ff915060081c1661258b81612763565b151538612521565b503461000e57604036600319011261000e5760206123306004356125b681610679565b6001600160a01b036125c661200e565b911660005261016f835260406000209060ff16600052602052604060002090565b503461000e5760208060031936011261000e57600435906126266126218360005260676020526001600160a01b0360406000205416151590565b613229565b6000918252609781526040822091604051928382825461264581613297565b808452936001918083169081156126ca575060011461268e575b505061266d925003846108a2565b6040516126798161084e565b526105806040519282849384528301906104ed565b86925085528185209085915b8583106126b257505061266d9350820101388061265f565b8054838a01850152889450879390920191810161269a565b9550505050505060ff19168284015261266d8360408101388061265f565b503461000e57600036600319011261000e5761270b60ff60005460081c166139e1565b60ff805460ff19166001179055005b6007906101708054821015612756575b600052027f88e1afb22f13be7fec203799fd189c3b9471c5b75e2b22a6d5efec11c7f392550190600090565b61275e6116db565b61272a565b6003111561276d57565b634e487b7160e01b600052602160045260246000fd5b94919897969360e096939161010087019a6001600160a01b03809216885216602087015265ffffffffffff80921660408701521660608501526080840152151560a08301526127d181612763565b60c08201526127df83612763565b0152565b503461000e57602036600319011261000e576004356101705481101561000e5761280c9061271a565b506001600160a01b0361058081835416600184015490600660058601549501549060405195869560ff8460101c169460ff808660081c169516938160d01c9265ffffffffffff8360a01c1692169089612783565b503461000e576000806003193601126106005761287e60c954613297565b601f81116128b1575b507f696670000000000000000000000000000000000000000000000000000000000660c955604051f35b601f7f66be4f155c5ef2ebd3772b228f2f00681e4ed5826cdb3b1943cc11ad15ad1d28910160051c8101905b8181106128ea5750612887565b8281556001016128dd565b906003821015612911575b600660058084046101710193060290565b6129196116db565b612900565b503461000e57602036600319011261000e57600435600381101561000e578065ffffffffffff60056020930461017101546006600560405194060260031b1c168152f35b503461000e57600036600319011261000e57602065ffffffffffff61016a5416604051908152f35b503461000e57604036600319011261000e57602060ff6129e96004356129af81610679565b6001600160a01b03602435916129c483610679565b16600052606a84526040600020906001600160a01b0316600052602052604060002090565b54166040519015158152f35b503461000e57600036600319011261000e57602061016b54604051908152f35b50606036600319011261000e576004803590612a3082610679565b60243591612a3c61201e565b918315612d9557612a6b612a67610727846001600160a01b0316600052610167602052604060002090565b1590565b612d47576001600160a01b0382168015801580612cdf575b612cce5785919015612c2757503403612bce5750612ba791611007611dbf92612ad460008080612abf610e2f610166546001600160a01b031690565b8a604051915af1612ace6131f9565b506154a1565b610783612adf6143ae565b87612aed60ff871683613bfb565b5265ffffffffffff421690612b7a612b3d612b37612b1f612b0d8a6128f5565b905465ffffffffffff9160031b1c1690565b60ff80541615612bc45761ffff6103f05b16906143c2565b846143e6565b612b6b612b486108c4565b338152946001600160a01b03881660208701525b65ffffffffffff166040860152565b65ffffffffffff166060840152565b6080820152600060a0820152600060c0820152600060e0820152612ba2610100820160019052565b614454565b9055612bb8610fb261016c54613e4b565b6106e6610170546152d0565b61ffff6001612b30565b61160590604051918291631fff1b3b60e21b8352820160809060208152602260208201527f496e636f7272656374206e617469766520636f696e207374616b6520616d6f756040820152611b9d60f21b60608201520190565b92612c8d602061100793611dbf96612ba798966000612c52610e2f610166546001600160a01b031690565b604080516323b872dd60e01b8152339481019485526001600160a01b0390921660208501528301949094529294859384929091839160600190565b03925af18015612cc1575b612ca3575b50612ad4565b612cba9060203d81116110d6576110c681836108a2565b5038612c9d565b612cc9612f82565b612c98565b604051631e9acf1760e31b81528390fd5b506040516370a0823160e01b8152338482019081528791906020908290819083010381875afa908115612d3a575b600091612d1c575b5010612a83565b612d34915060203d811161126f5761126081836108a2565b38612d15565b612d42612f82565b612d0d565b61160590604051918291631fff1b3b60e21b8352820160609060208152601360208201527f496e76616c6964207374616b6520746f6b656e0000000000000000000000000060408201520190565b61160590604051918291631fff1b3b60e21b8352820160609060208152601560208201527f416d6f756e742063616e6e6f74206265207a65726f000000000000000000000060408201520190565b503461000e57602036600319011261000e57600435612e0181610679565b612e09613a5a565b6001600160a01b03809116908115612e5d5760009160cd5491816001600160a01b031984161760cd5560405192167f8be0079c531659141344cd1fd0a4f28419497f9722a3daafe3b4186f6b6457e08484a3f35b60405162461bcd60e51b815260206004820152602660248201527f4f776e61626c653a206e6577206f776e657220697320746865207a65726f206160448201526564647265737360d01b6064820152608490fd5b15612eb857565b60405162461bcd60e51b815260206004820152602c60248201527f46756e6374696f6e206d7573742062652063616c6c6564207468726f7567682060448201526b19195b1959d85d1958d85b1b60a21b6064820152608490fd5b15612f1957565b60405162461bcd60e51b815260206004820152602c60248201527f46756e6374696f6e206d7573742062652063616c6c6564207468726f7567682060448201526b6163746976652070726f787960a01b6064820152608490fd5b9081602091031261000e575190565b506040513d6000823e3d90fd5b15612f9657565b60405162461bcd60e51b815260206004820152602960248201527f45524331393637557067726164653a20756e737570706f727465642070726f786044820152681a58589b195555525160ba1b6064820152608490fd5b803b15613030576001600160a01b037f360894a13ba1a3210667c828492db98dca3e2076cc3735a920a3ca505d382bbc91166001600160a01b0319825416179055565b60405162461bcd60e51b815260206004820152602d60248201527f455243313936373a206e657720696d706c656d656e746174696f6e206973206e60448201526c1bdd08184818dbdb9d1c9858dd609a1b6064820152608490fd5b61309481612fed565b6040516001600160a01b0382167fbc7cd75a20ee27fd9adebab32041f755214dbc6bffa90cc0225b39da2e5c2d3b600083a282511580159061319b575b6130da57505050565b813b1561314a57506000828192602061314795519201905af46130fb6131f9565b604051916131088361086a565b602783527f416464726573733a206c6f772d6c6576656c2064656c65676174652063616c6c6020840152660819985a5b195960ca1b6040840152613974565b50565b62461bcd60e51b815260206004820152602660248201527f416464726573733a2064656c65676174652063616c6c20746f206e6f6e2d636f6044820152651b9d1c9858dd60d21b6064820152608490fd5b5060006130d1565b6131ac81612fed565b6040516001600160a01b0382167fbc7cd75a20ee27fd9adebab32041f755214dbc6bffa90cc0225b39da2e5c2d3b600083a28251158015906131f1576130da57505050565b5060016130d1565b3d15613224573d9061320a826108f4565b9161321860405193846108a2565b82523d6000602084013e565b606090565b1561323057565b60405162461bcd60e51b815260206004820152601860248201527f4552433732313a20696e76616c696420746f6b656e20494400000000000000006044820152606490fd5b60005260676020526001600160a01b0360406000205416610523811515613229565b90600182811c921680156132c7575b60208310146132b157565b634e487b7160e01b600052602260045260246000fd5b91607f16916132a6565b60c954600092916132e182613297565b8082529160019081811690811561335857506001146132ff57505050565b9192935060c96000527f66be4f155c5ef2ebd3772b228f2f00681e4ed5826cdb3b1943cc11ad15ad1d28916000925b84841061334057505060209250010190565b8054602085850181019190915290930192810161332e565b60ff191660208401525050604001925050565b1561337257565b60405162461bcd60e51b815260206004820152603d60248201527f4552433732313a20617070726f76652063616c6c6572206973206e6f7420746f60448201527f6b656e206f776e6572206f7220617070726f76656420666f7220616c6c0000006064820152608490fd5b6134006126218260005260676020526001600160a01b0360406000205416151590565b60005260696020526001600160a01b036040600020541690565b1561342157565b60405162461bcd60e51b815260206004820152602d60248201527f4552433732313a2063616c6c6572206973206e6f7420746f6b656e206f776e6560448201526c1c881bdc88185c1c1c9bdd9959609a1b6064820152608490fd5b906134a0939291613490610d448433613507565b61349b8383836135e2565b6137f7565b156134a757565b60405162461bcd60e51b815260206004820152603260248201527f4552433732313a207472616e7366657220746f206e6f6e20455243373231526560448201527131b2b4bb32b91034b6b83632b6b2b73a32b960711b6064820152608490fd5b6001600160a01b038061351984613275565b16928183169284841494851561354f575b50508315613539575b50505090565b613545919293506133dd565b1614388080613533565b60ff9295509061357e91600052606a6020526040600020906001600160a01b0316600052602052604060002090565b541692388061352a565b1561358f57565b60405162461bcd60e51b815260206004820152602560248201527f4552433732313a207472616e736665722066726f6d20696e636f72726563742060448201526437bbb732b960d91b6064820152608490fd5b9061360892916135f183613275565b6001600160a01b0382811695909182168614613588565b82169384156136fc576108f2948161362d8693613627610e2f86613275565b14613588565b613654613644846000526069602052604060002090565b80546001600160a01b0319169055565b613671846001600160a01b03166000526068602052604060002090565b6000198154019055613696856001600160a01b03166000526068602052604060002090565b600181540190556136d0856136b5856000526067602052604060002090565b906001600160a01b03166001600160a01b0319825416179055565b7fddf252ad1be2c89b69c2b068fc378daa952ba7f163c4a11628f55a4df523b3ef6000604051a4615436565b60405162461bcd60e51b8152602060048201526024808201527f4552433732313a207472616e7366657220746f20746865207a65726f206164646044820152637265737360e01b6064820152608490fd5b600082815260696020526040902080546001600160a01b0319166001600160a01b0383161790556001600160a01b038061378684613275565b169116907f8c5be1e5ebec7d5bd14f71427d1e84f3dd0314c0f7b2291e5b200ac8c7c3b9256000604051a4565b9081602091031261000e57516105238161042c565b909261052394936080936001600160a01b038092168452166020830152604082015281606082015201906104ed565b92909190823b156138f8576138329260209260006001600160a01b03604051809781968295630a85bd0160e11b9b8c855233600486016137c8565b0393165af1600091816138c8575b506138ba5761384d6131f9565b805190816138b55760405162461bcd60e51b815260206004820152603260248201527f4552433732313a207472616e7366657220746f206e6f6e20455243373231526560448201527131b2b4bb32b91034b6b83632b6b2b73a32b960711b6064820152608490fd5b602001fd5b6001600160e01b0319161490565b6138ea91925060203d81116138f1575b6138e281836108a2565b8101906137b3565b9038613840565b503d6138d8565b50505050600190565b50634e487b7160e01b600052601160045260246000fd5b60018110613928575b6000190190565b613930613901565b613921565b818110613940570390565b613948613901565b0390565b600190600119811161395c570190565b613964613901565b0190565b8119811161395c570190565b90919015613980575090565b8151156139905750805190602001fd5b60405162461bcd60e51b8152602060048201529081906116059060248301906104ed565b50634e487b7160e01b600052601260045260246000fd5b81156139d5570490565b6139dd6139b4565b0490565b156139e857565b60405162461bcd60e51b815260206004820152602b60248201527f496e697469616c697a61626c653a20636f6e7472616374206973206e6f74206960448201526a6e697469616c697a696e6760a81b6064820152608490fd5b613a5260ff60005460081c166139e1565b6108f2613ab2565b6001600160a01b0360cd54163303613a6e57565b606460405162461bcd60e51b815260206004820152602060248201527f4f776e61626c653a2063616c6c6572206973206e6f7420746865206f776e65726044820152fd5b60cd546001600160a01b03734a580d71c0f73202c51c58147aa7c7e09245b10a9182821982161760cd55167f8be0079c531659141344cd1fd0a4f28419497f9722a3daafe3b4186f6b6457e06000604051a3565b60405190613b1382610886565b600582526430b236b4b760d91b6020830152565b15613b2e57565b60405162461bcd60e51b815260206004820152600e60248201527f4e6f7420617574686f72697a65640000000000000000000000000000000000006044820152606490fd5b613b7e610c0b613b06565b606460ff613ba6613b99828551168360208701511690613c1a565b8260408601511690613c1a565b1603613bb5576108f290613c7d565b604051631fff1b3b60e21b815260206004820152601260248201527f4d7573742073756d20757020746f2031303000000000000000000000000000006044820152606490fd5b906003811015613c0d575b60051b0190565b613c156116db565b613c06565b60ff8091169116908160ff03811161395c570190565b50634e487b7160e01b600052600060045260246000fd5b8060001904821181151516613c5a570290565b613c62613901565b0290565b818110613c71575050565b60008155600101613c66565b9061017360009081935b600380861015613cda579060209160ff908183511691868654921b90811b9283911b169119161783550193600180930192601f8411613ccb575b5060010193613c87565b60009350909101906001613cc1565b505050509050565b15613ce957565b60405162461bcd60e51b815260206004820152602e60248201527f496e697469616c697a61626c653a20636f6e747261637420697320616c72656160448201527f647920696e697469616c697a65640000000000000000000000000000000000006064820152608490fd5b61016980549068010000000000000000821015613dbd575b60018201808255821015613db0575b6000527fbd88e1fd0aa5f3038c0cd2a68644e2d11f4e4e7e3693adba414318f2127ca4260180546001600160a01b0319169055565b613db86116db565b613d7b565b613dc5610816565b613d6c565b6001600160a01b0361016980549068010000000000000000821015613e3e575b60018201808255821015613e31575b6000527fbd88e1fd0aa5f3038c0cd2a68644e2d11f4e4e7e3693adba414318f2127ca4260191166001600160a01b0319825416179055565b613e396116db565b613df9565b613e46610816565b613dea565b600190600019811461395c570190565b90610171600080935b600380861015613cda578160209162ffffff600694511690858754911b65ffffffffffff811b9283911b1691191617855501910193601a8511613eac575b6001019390613e64565b60009450600190920191613ea2565b60405190613ec882610886565b601382527f457363726f77656420417373657420426f6e64000000000000000000000000006020830152565b60405190613f0182610886565b600382526222a0a160e91b6020830152565b613f8090613fb2926001600160a01b0380199061016581851683825416179055610166921690825416179055613f64613f5760008052610167602052604060002090565b805460ff19166001179055565b613f6c613d54565b613fac61016b91613f86613f808454613e4b565b61016b55565b613fa7613f57826001600160a01b0316600052610167602052604060002090565b613dca565b54613e4b565b61016a805465ffffffffffff1916630114db00179055613ff0613fd36108e5565b62093a8081526224ea006020820152626ebe006040820152613e5b565b614012613ffb6108e5565b60148152601e602082015260326040820152613c7d565b61402b61401d613ebb565b614025613ef4565b9061403b565b614033613a41565b6108f26154ed565b9061405660ff60005460081c16614051816139e1565b6139e1565b815167ffffffffffffffff8111614151575b61407c81614077606554613297565b61415e565b602080601f83116001146140be575081906108f2946000926140b3575b50508160011b916000199060031b1c19161760655561424f565b015190503880614099565b919293601f1984166140f260656000527f8ff97419363ffd7000167f130ef7168fbea05faf9251824ca5043f113cc6a7c790565b936000905b8282106141395750509160019391856108f297969410614120575b505050811b0160655561424f565b015160001960f88460031b161c19169055388080614112565b806001869782949787015181550196019401906140f7565b614159610816565b614068565b90601f821161416b575050565b6108f29160656000527f8ff97419363ffd7000167f130ef7168fbea05faf9251824ca5043f113cc6a7c7906020601f840160051c830193106141b5575b601f0160051c0190613c66565b90915081906141a8565b90601f82116141cc575050565b6108f29160666000527f46501879b8ca8525e8c2fd519e2fbfcfa2ebea26501294aa02cbfcfb12e94354906020601f840160051c830193106141b557601f0160051c0190613c66565b9190601f811161422457505050565b6108f2926000526020600020906020601f840160051c830193106141b557601f0160051c0190613c66565b90815167ffffffffffffffff811161433a575b61427681614271606654613297565b6141bf565b602080601f83116001146142b257508192936000926142a7575b50508160011b916000199060031b1c191617606655565b015190503880614290565b90601f198316946142e560666000527f46501879b8ca8525e8c2fd519e2fbfcfa2ebea26501294aa02cbfcfb12e9435490565b926000905b878210614322575050836001959610614309575b505050811b01606655565b015160001960f88460031b161c191690553880806142fe565b806001859682949686015181550195019301906142ea565b614342610816565b614262565b9061435181612763565b62ff000082549160101b169062ff00001916179055565b60ff6001911660ff811461395c570190565b600382101561438b575b0190600090565b6143936116db565b614384565b908152604081019291906020906127df83612763565b604051906143bb8261086a565b6060368337565b9065ffffffffffff8091169182156143d957160490565b6143e16139b4565b160490565b9065ffffffffffff808093169116809203811161395c570190565b61440a82612763565b52565b906000905b6003821061441f57505050565b6001602082829351865501930191019091614412565b9061443f81612763565b61ff0082549160081b169061ff001916179055565b6108f2906101006006614483610170805490680100000000000000008210156145f2575b60018201905561271a565b6145e5575b6144b861449c85516001600160a01b031690565b82546001600160a01b0319166001600160a01b03909116178255565b61457e600182016144d661449c60208801516001600160a01b031690565b6145266144ec604088015165ffffffffffff1690565b82547fffffffffffff000000000000ffffffffffffffffffffffffffffffffffffffff1660a09190911b65ffffffffffff60a01b16178255565b606086015165ffffffffffff16815479ffffffffffffffffffffffffffffffffffffffffffffffffffff1660d09190911b7fffffffffffff000000000000000000000000000000000000000000000000000016179055565b61458f60808501516002830161440d565b60a0840151600582015501916145bd6145ab60c0830151151590565b849060ff801983541691151516179055565b6145d460e08201516145ce81612763565b84614435565b0151906145e082612763565b614347565b6145ed613c30565b614488565b6145fa610816565b614478565b610d7061460b91613918565b509061461e82546001600160a01b031690565b9061463d826001600160a01b031660005261016e602052604060002090565b600684019261467c614650855460ff1690565b92831561490857610165546001600160a01b03165b6001600160a01b0316600052602052604060002090565b5491821580156148d2575b61479a575b5050610d7061469d91949394613918565b509060009260028082019301935b600360ff8216106146be57505050505050565b61476a906147656147296146d3895460ff1690565b801561478657610165546001600160a01b0316905b846147236146f9610ddb838d61437a565b9261470761016b548c6139cb565b901561476f576118076107b7610165546001600160a01b031690565b9261518e565b61474c614736848a61437a565b9190926147478385549060031b1c90565b613968565b9082549060031b600019811b9283911b16911916179055565b614368565b6146ab565b6118076107b760018c01546001600160a01b031690565b60018601546001600160a01b0316906146e8565b61484292506147a76143ae565b90156148b65761481b6147c3610165546001600160a01b031690565b612b6b65ffffffffffff4216612b5c6147f06147ea612b1f61016a5465ffffffffffff1690565b836143e6565b9361480b6147fc6108c4565b6001600160a01b039099168952565b6001600160a01b03166020880152565b6080820152600060a0820152600160c0820152600060e08201526000610100820152614454565b61469d610d70610170548061489a61487e61486489546001600160a01b031690565b6001600160a01b031660005261016e602052604060002090565b875460ff16156148a157610165546001600160a01b0316614665565b559161468c565b60018901546001600160a01b03165b9061070f565b61481b6148cd60018801546001600160a01b031690565b6147c3565b506148f560016148e4610d7086613918565b50015460a01c65ffffffffffff1690565b65ffffffffffff80421691161415614687565b60018701546001600160a01b03166148b0565b9190916040815260206001600160a01b03614938604084016132d1565b9416910152565b9081602091031261000e575161052381610633565b60409093929193606081526001600160a01b03614973606083016132d1565b951660208201520152565b610d7061498a91613918565b5060058101916006820191600281019160005b600360ff8216106149b057505050505050565b845460ff16908115614aa2576149e7836149d3610165546001600160a01b031690565b836149e1610ddb828b61437a565b9161518e565b916149f3838954613968565b8855614a0b610e2f610166546001600160a01b031690565b9015614a8f57610165546001600160a01b03165b813b1561000e57614a6493614a4e9260009283604051809681958294636c49e02160e01b845260048401614954565b03925af18015614a82575b614a69575b50614368565b61499d565b80614a76614a7c9261082d565b806104ad565b38614a5e565b614a8a612f82565b614a59565b60018501546001600160a01b0316614a1f565b6149e783614aba60018701546001600160a01b031690565b6149d3565b60006101695490614adc610e2f610166546001600160a01b031690565b905b828110614aed57505050600090565b614af96111e882612099565b604051630530fa2160e01b815260209190828180614b1a856004830161491b565b0381885afa928315614c1f575b600093614bfa575b505080611807614bbb614ba0614b6e614b5f614bcb966001600160a01b0316600052610172602052604060002090565b60008052602052604060002090565b54611807614b90866001600160a01b0316600052610172602052604060002090565b6001600052602052604060002090565b926001600160a01b0316600052610172602052604060002090565b6002600052602052604060002090565b9015159081614bf0575b50614be857614be390613e4b565b614ade565b505050600190565b9050151538614bd5565b614bcb9293509081614c1792903d1061126f5761126081836108a2565b919038614b2f565b614c27612f82565b614b27565b15614c3357565b60405162461bcd60e51b815260206004820152601c60248201527f4552433732313a20746f6b656e20616c7265616479206d696e746564000000006044820152606490fd5b6001600160a01b038116908115614d3b57614d1190614cb6614cb08560005260676020526001600160a01b0360406000205416151590565b15614c2c565b614cd9614cb08560005260676020526001600160a01b0360406000205416151590565b614cf6816001600160a01b03166000526068602052604060002090565b600181540190556136b5846000526067602052604060002090565b60007fddf252ad1be2c89b69c2b068fc378daa952ba7f163c4a11628f55a4df523b3ef81604051a4565b606460405162461bcd60e51b815260206004820152602060248201527f4552433732313a206d696e7420746f20746865207a65726f20616464726573736044820152fd5b8015613928576000190190565b600690600092614db7575b8281558260018201558260058201614db28160028501613c66565b550155565b614dbf613c30565b614d97565b6105239054613297565b614dd88154613297565b9081614de2575050565b81601f60009311600114614df4575055565b81835260208320614e1091601f0160051c810190600101613c66565b8160208120915555565b614e2381613275565b50614e2d81613275565b614e41826000526069602052604060002090565b906001600160a01b0319918281541690556001600160a01b03614e77826001600160a01b03166000526068602052604060002090565b9160001992838154019055614e96856000526067602052604060002090565b84815416905516836000827fddf252ad1be2c89b69c2b068fc378daa952ba7f163c4a11628f55a4df523b3ef82604051a4151580614f44575b614f15575b5050614ef2614eed826000526097602052604060002090565b614dc4565b614ef95750565b614f106108f2916000526097602052604060002090565b614dce565b614f299060018410614f37575b830161271a565b509081541690553880614ed4565b614f3f613901565b614f22565b506000614ecf565b6001600160a01b03908181168060005261016760205260ff92836040600020541615614fbf575b6101695460005b8186821610614f9157505050506108f29150613dca565b8383614f9c83612099565b90549060031b1c1614614fb757614fb290614368565b614f7a565b505050505050565b61016b614fcc8154613e4b565b9055614fef613f57846001600160a01b0316600052610167602052604060002090565b614f73565b6001600160a01b039290838116908161509c57505061501f610e2f610166546001600160a01b031690565b8181311061508a57803b1561000e57604051633e97486160e11b8152939092166001600160a01b03166004840152602483015260009082908183816044810103925af1801561507d575b6150705750565b80614a766108f29261082d565b615085612f82565b615069565b604051631e9acf1760e31b8152600490fd5b919093506150b6610e2f610166546001600160a01b031690565b6040516370a0823160e01b81526001600160a01b03821660048201526020958391908790829060249082905afa908115615181575b600091615164575b501061508a5760405163276d76f960e21b81526001600160a01b03938416600482015293909216602484015260448301528290829060649082906000905af18015615157575b615141575050565b8161314792903d106110d6576110c681836108a2565b61515f612f82565b615139565b61517b9150873d891161126f5761126081836108a2565b386150f3565b615189612f82565b6150eb565b92916000816151a1575050505050600090565b6001600160a01b0360646151e16040946151dc6151ff98600389101561520b575b60ff8960051c610173015460f88b60031b161c1690613c47565b613c47565b0495168152610172602052209060ff16600052602052604060002090565b549081156139d5570490565b6152136116db565b6151c2565b60405191906000835b60038210615248575050506060820182811067ffffffffffffffff82111761084157604052565b6001602081928554815201930191019091615221565b95939192979694909761012087019887526001600160a01b039081602095168589015216604087015265ffffffffffff809216606087015216608085015260a084016000905b600382106152bb5750505050610100901515910152565b828060019286518152019401910190926152a4565b7fbbad5407299f3773930327d215f85a16617efbbddc1fe3902bd39ba46feacf269060018110615429575b615308600019820161271a565b50906154246153156108c4565b61533661532985546001600160a01b031690565b6001600160a01b03168252565b60018401546001600160a01b038116602083019081529490919060a083901c65ffffffffffff16604083019081529260d01c6060830190815261541761540e6154016153f46153e6600661538c60028901615218565b9760808a01988952600581015460a08b01520154976153d960ff60c083019a6153b98282168d9015159052565b6153cb828260081c1660e08601614401565b60101c166101008301614401565b516001600160a01b031690565b9a516001600160a01b031690565b965165ffffffffffff1690565b925165ffffffffffff1690565b92519351151590565b936040519788978861525e565b0390a1565b615431613901565b6152fb565b6001600160a01b0380911615159081615495575b50615453575050565b61546c8260016108f29410615488575b6000190161271a565b50906001600160a01b03166001600160a01b0319825416179055565b615490613901565b615463565b9050811615153861544a565b156154a857565b60405162461bcd60e51b815260206004820152601f60248201527f4661696c656420746f207472616e73666572206e617469766520746f6b656e006044820152606490fd5b6154fe60ff60005460081c166139e1565b600160ff1960ff54161760ff5556fea2646970667358221220c5a788ece12dc3b32bb355fb2aeafe87d4f58a216cc42291fa4ba3a8cf8001b964736f6c634300080e00337f26b83ff96e1f2b6a682f133852f6798a09c465da95921460cefb3847402498",
  "devdoc": {
    "kind": "dev",
    "methods": {
      "approve(address,uint256)": {
        "details": "See {IERC721-approve}."
      },
      "balanceOf(address)": {
        "details": "See {IERC721-balanceOf}."
      },
      "getApproved(uint256)": {
        "details": "See {IERC721-getApproved}."
      },
      "isApprovedForAll(address,address)": {
        "details": "See {IERC721-isApprovedForAll}."
      },
      "name()": {
        "details": "See {IERC721Metadata-name}."
      },
      "owner()": {
        "details": "Returns the address of the current owner."
      },
      "ownerOf(uint256)": {
        "details": "See {IERC721-ownerOf}."
      },
      "proxiableUUID()": {
        "details": "Implementation of the ERC1822 {proxiableUUID} function. This returns the storage slot used by the implementation. It is used to validate the implementation's compatibility when performing an upgrade. IMPORTANT: A proxy pointing at a proxiable contract should not be considered proxiable itself, because this risks bricking a proxy that upgrades to it, by delegating to itself until out of gas. Thus it is critical that this function revert if invoked through a proxy. This is guaranteed by the `notDelegated` modifier."
      },
      "renounceOwnership()": {
        "details": "Leaves the contract without owner. It will not be possible to call `onlyOwner` functions anymore. Can only be called by the current owner. NOTE: Renouncing ownership will leave the contract without an owner, thereby removing any functionality that is only available to the owner."
      },
      "safeTransferFrom(address,address,uint256)": {
        "details": "See {IERC721-safeTransferFrom}."
      },
      "safeTransferFrom(address,address,uint256,bytes)": {
        "details": "See {IERC721-safeTransferFrom}."
      },
      "setApprovalForAll(address,bool)": {
        "details": "See {IERC721-setApprovalForAll}."
      },
      "supportsInterface(bytes4)": {
        "details": "See {IERC165-supportsInterface}."
      },
      "symbol()": {
        "details": "See {IERC721Metadata-symbol}."
      },
      "tokenURI(uint256)": {
        "details": "See {IERC721Metadata-tokenURI}."
      },
      "transferFrom(address,address,uint256)": {
        "details": "See {IERC721-transferFrom}."
      },
      "transferOwnership(address)": {
        "details": "Transfers ownership of the contract to a new account (`newOwner`). Can only be called by the current owner."
      },
      "upgradeTo(address)": {
        "details": "Upgrade the implementation of the proxy to `newImplementation`. Calls {_authorizeUpgrade}. Emits an {Upgraded} event."
      },
      "upgradeToAndCall(address,bytes)": {
        "details": "Upgrade the implementation of the proxy to `newImplementation`, and subsequently execute the function call encoded in `data`. Calls {_authorizeUpgrade}. Emits an {Upgraded} event."
      }
    },
    "version": 1
  },
  "userdoc": {
    "kind": "user",
    "methods": {},
    "version": 1
  },
  "storageLayout": {
    "storage": [
      {
        "astId": 674,
        "contract": "contracts/staking/LendingPoolStakingV2.sol:LendingPoolStakingV2",
        "label": "_initialized",
        "offset": 0,
        "slot": "0",
        "type": "t_uint8"
      },
      {
        "astId": 677,
        "contract": "contracts/staking/LendingPoolStakingV2.sol:LendingPoolStakingV2",
        "label": "_initializing",
        "offset": 1,
        "slot": "0",
        "type": "t_bool"
      },
      {
        "astId": 4007,
        "contract": "contracts/staking/LendingPoolStakingV2.sol:LendingPoolStakingV2",
        "label": "__gap",
        "offset": 0,
        "slot": "1",
        "type": "t_array(t_uint256)50_storage"
      },
      {
        "astId": 4788,
        "contract": "contracts/staking/LendingPoolStakingV2.sol:LendingPoolStakingV2",
        "label": "__gap",
        "offset": 0,
        "slot": "51",
        "type": "t_array(t_uint256)50_storage"
      },
      {
        "astId": 1980,
        "contract": "contracts/staking/LendingPoolStakingV2.sol:LendingPoolStakingV2",
        "label": "_name",
        "offset": 0,
        "slot": "101",
        "type": "t_string_storage"
      },
      {
        "astId": 1982,
        "contract": "contracts/staking/LendingPoolStakingV2.sol:LendingPoolStakingV2",
        "label": "_symbol",
        "offset": 0,
        "slot": "102",
        "type": "t_string_storage"
      },
      {
        "astId": 1986,
        "contract": "contracts/staking/LendingPoolStakingV2.sol:LendingPoolStakingV2",
        "label": "_owners",
        "offset": 0,
        "slot": "103",
        "type": "t_mapping(t_uint256,t_address)"
      },
      {
        "astId": 1990,
        "contract": "contracts/staking/LendingPoolStakingV2.sol:LendingPoolStakingV2",
        "label": "_balances",
        "offset": 0,
        "slot": "104",
        "type": "t_mapping(t_address,t_uint256)"
      },
      {
        "astId": 1994,
        "contract": "contracts/staking/LendingPoolStakingV2.sol:LendingPoolStakingV2",
        "label": "_tokenApprovals",
        "offset": 0,
        "slot": "105",
        "type": "t_mapping(t_uint256,t_address)"
      },
      {
        "astId": 2000,
        "contract": "contracts/staking/LendingPoolStakingV2.sol:LendingPoolStakingV2",
        "label": "_operatorApprovals",
        "offset": 0,
        "slot": "106",
        "type": "t_mapping(t_address,t_mapping(t_address,t_bool))"
      },
      {
        "astId": 2920,
        "contract": "contracts/staking/LendingPoolStakingV2.sol:LendingPoolStakingV2",
        "label": "__gap",
        "offset": 0,
        "slot": "107",
        "type": "t_array(t_uint256)44_storage"
      },
      {
        "astId": 3507,
        "contract": "contracts/staking/LendingPoolStakingV2.sol:LendingPoolStakingV2",
        "label": "_tokenURIs",
        "offset": 0,
        "slot": "151",
        "type": "t_mapping(t_uint256,t_string_storage)"
      },
      {
        "astId": 3623,
        "contract": "contracts/staking/LendingPoolStakingV2.sol:LendingPoolStakingV2",
        "label": "__gap",
        "offset": 0,
        "slot": "152",
        "type": "t_array(t_uint256)49_storage"
      },
      {
        "astId": 28581,
        "contract": "contracts/staking/LendingPoolStakingV2.sol:LendingPoolStakingV2",
        "label": "interestForPoolBalanceName",
        "offset": 0,
        "slot": "201",
        "type": "t_string_storage"
      },
      {
        "astId": 28584,
        "contract": "contracts/staking/LendingPoolStakingV2.sol:LendingPoolStakingV2",
        "label": "interestForLenderBalanceName",
        "offset": 0,
        "slot": "202",
        "type": "t_string_storage"
      },
      {
        "astId": 28587,
        "contract": "contracts/staking/LendingPoolStakingV2.sol:LendingPoolStakingV2",
        "label": "tradeCommissionBalanceName",
        "offset": 0,
        "slot": "203",
        "type": "t_string_storage"
      },
      {
        "astId": 28590,
        "contract": "contracts/staking/LendingPoolStakingV2.sol:LendingPoolStakingV2",
        "label": "bondingCommissionBalanceName",
        "offset": 0,
        "slot": "204",
        "type": "t_string_storage"
      },
      {
        "astId": 9827,
        "contract": "contracts/staking/LendingPoolStakingV2.sol:LendingPoolStakingV2",
        "label": "_owner",
        "offset": 0,
        "slot": "205",
        "type": "t_address"
      },
      {
        "astId": 9947,
        "contract": "contracts/staking/LendingPoolStakingV2.sol:LendingPoolStakingV2",
        "label": "__gap",
        "offset": 0,
        "slot": "206",
        "type": "t_array(t_uint256)49_storage"
      },
      {
        "astId": 28121,
        "contract": "contracts/staking/LendingPoolStakingV2.sol:LendingPoolStakingV2",
        "label": "testing",
        "offset": 0,
        "slot": "255",
        "type": "t_bool"
      },
      {
        "astId": 9959,
        "contract": "contracts/staking/LendingPoolStakingV2.sol:LendingPoolStakingV2",
        "label": "hasRole",
        "offset": 0,
        "slot": "256",
        "type": "t_mapping(t_address,t_mapping(t_string_memory_ptr,t_bool))"
      },
      {
        "astId": 656,
        "contract": "contracts/staking/LendingPoolStakingV2.sol:LendingPoolStakingV2",
        "label": "__gap",
        "offset": 0,
        "slot": "257",
        "type": "t_array(t_uint256)50_storage"
      },
      {
        "astId": 971,
        "contract": "contracts/staking/LendingPoolStakingV2.sol:LendingPoolStakingV2",
        "label": "__gap",
        "offset": 0,
        "slot": "307",
        "type": "t_array(t_uint256)50_storage"
      },
      {
        "astId": 25473,
        "contract": "contracts/staking/LendingPoolStakingV2.sol:LendingPoolStakingV2",
        "label": "nend",
        "offset": 0,
        "slot": "357",
        "type": "t_address"
      },
      {
        "astId": 25476,
        "contract": "contracts/staking/LendingPoolStakingV2.sol:LendingPoolStakingV2",
        "label": "lendingPool",
        "offset": 0,
        "slot": "358",
        "type": "t_contract(Vault)29380"
      },
      {
        "astId": 25480,
        "contract": "contracts/staking/LendingPoolStakingV2.sol:LendingPoolStakingV2",
        "label": "activeStakeTokens",
        "offset": 0,
        "slot": "359",
        "type": "t_mapping(t_address,t_bool)"
      },
      {
        "astId": 25484,
        "contract": "contracts/staking/LendingPoolStakingV2.sol:LendingPoolStakingV2",
        "label": "inflationRollOver",
        "offset": 0,
        "slot": "360",
        "type": "t_mapping(t_address,t_uint256)"
      },
      {
        "astId": 25487,
        "contract": "contracts/staking/LendingPoolStakingV2.sol:LendingPoolStakingV2",
        "label": "stakeTokens",
        "offset": 0,
        "slot": "361",
        "type": "t_array(t_address)dyn_storage"
      },
      {
        "astId": 25489,
        "contract": "contracts/staking/LendingPoolStakingV2.sol:LendingPoolStakingV2",
        "label": "escrowLockPeriod",
        "offset": 0,
        "slot": "362",
        "type": "t_uint48"
      },
      {
        "astId": 25491,
        "contract": "contracts/staking/LendingPoolStakingV2.sol:LendingPoolStakingV2",
        "label": "stakeTokenCount",
        "offset": 0,
        "slot": "363",
        "type": "t_uint256"
      },
      {
        "astId": 25493,
        "contract": "contracts/staking/LendingPoolStakingV2.sol:LendingPoolStakingV2",
        "label": "ongoingStakeCount",
        "offset": 0,
        "slot": "364",
        "type": "t_uint256"
      },
      {
        "astId": 25497,
        "contract": "contracts/staking/LendingPoolStakingV2.sol:LendingPoolStakingV2",
        "label": "ifpTokenToAmount",
        "offset": 0,
        "slot": "365",
        "type": "t_mapping(t_address,t_uint256)"
      },
      {
        "astId": 25503,
        "contract": "contracts/staking/LendingPoolStakingV2.sol:LendingPoolStakingV2",
        "label": "userToStakeTokenToLastEscrowId",
        "offset": 0,
        "slot": "366",
        "type": "t_mapping(t_address,t_mapping(t_address,t_uint256))"
      },
      {
        "astId": 25509,
        "contract": "contracts/staking/LendingPoolStakingV2.sol:LendingPoolStakingV2",
        "label": "lastEscrowRewardByToken_Duration",
        "offset": 0,
        "slot": "367",
        "type": "t_mapping(t_address,t_mapping(t_uint8,t_uint256))"
      },
      {
        "astId": 25513,
        "contract": "contracts/staking/LendingPoolStakingV2.sol:LendingPoolStakingV2",
        "label": "stakes",
        "offset": 0,
        "slot": "368",
        "type": "t_array(t_struct(Stake)27783_storage)dyn_storage"
      },
      {
        "astId": 25517,
        "contract": "contracts/staking/LendingPoolStakingV2.sol:LendingPoolStakingV2",
        "label": "stakeDurations",
        "offset": 0,
        "slot": "369",
        "type": "t_array(t_uint48)3_storage"
      },
      {
        "astId": 25523,
        "contract": "contracts/staking/LendingPoolStakingV2.sol:LendingPoolStakingV2",
        "label": "totalStakedByToken_Duration",
        "offset": 0,
        "slot": "370",
        "type": "t_mapping(t_address,t_mapping(t_uint8,t_uint256))"
      },
      {
        "astId": 25527,
        "contract": "contracts/staking/LendingPoolStakingV2.sol:LendingPoolStakingV2",
        "label": "rewardAllocations",
        "offset": 0,
        "slot": "371",
        "type": "t_array(t_uint8)3_storage"
      },
      {
        "astId": 25529,
        "contract": "contracts/staking/LendingPoolStakingV2.sol:LendingPoolStakingV2",
        "label": "poolRollOver",
        "offset": 0,
        "slot": "372",
        "type": "t_uint256"
      }
    ],
    "types": {
      "t_address": {
        "encoding": "inplace",
        "label": "address",
        "numberOfBytes": "20"
      },
      "t_array(t_address)dyn_storage": {
        "base": "t_address",
        "encoding": "dynamic_array",
        "label": "address[]",
        "numberOfBytes": "32"
      },
      "t_array(t_struct(Stake)27783_storage)dyn_storage": {
        "base": "t_struct(Stake)27783_storage",
        "encoding": "dynamic_array",
        "label": "struct ILendingPoolStaking.Stake[]",
        "numberOfBytes": "32"
      },
      "t_array(t_uint256)3_storage": {
        "base": "t_uint256",
        "encoding": "inplace",
        "label": "uint256[3]",
        "numberOfBytes": "96"
      },
      "t_array(t_uint256)44_storage": {
        "base": "t_uint256",
        "encoding": "inplace",
        "label": "uint256[44]",
        "numberOfBytes": "1408"
      },
      "t_array(t_uint256)49_storage": {
        "base": "t_uint256",
        "encoding": "inplace",
        "label": "uint256[49]",
        "numberOfBytes": "1568"
      },
      "t_array(t_uint256)50_storage": {
        "base": "t_uint256",
        "encoding": "inplace",
        "label": "uint256[50]",
        "numberOfBytes": "1600"
      },
      "t_array(t_uint48)3_storage": {
        "base": "t_uint48",
        "encoding": "inplace",
        "label": "uint48[3]",
        "numberOfBytes": "32"
      },
      "t_array(t_uint8)3_storage": {
        "base": "t_uint8",
        "encoding": "inplace",
        "label": "uint8[3]",
        "numberOfBytes": "32"
      },
      "t_bool": {
        "encoding": "inplace",
        "label": "bool",
        "numberOfBytes": "1"
      },
      "t_contract(Vault)29380": {
        "encoding": "inplace",
        "label": "contract Vault",
        "numberOfBytes": "20"
      },
      "t_enum(EscrowStatus)27760": {
        "encoding": "inplace",
        "label": "enum ILendingPoolStaking.EscrowStatus",
        "numberOfBytes": "1"
      },
      "t_enum(StakeStatus)27756": {
        "encoding": "inplace",
        "label": "enum ILendingPoolStaking.StakeStatus",
        "numberOfBytes": "1"
      },
      "t_mapping(t_address,t_bool)": {
        "encoding": "mapping",
        "key": "t_address",
        "label": "mapping(address => bool)",
        "numberOfBytes": "32",
        "value": "t_bool"
      },
      "t_mapping(t_address,t_mapping(t_address,t_bool))": {
        "encoding": "mapping",
        "key": "t_address",
        "label": "mapping(address => mapping(address => bool))",
        "numberOfBytes": "32",
        "value": "t_mapping(t_address,t_bool)"
      },
      "t_mapping(t_address,t_mapping(t_address,t_uint256))": {
        "encoding": "mapping",
        "key": "t_address",
        "label": "mapping(address => mapping(address => uint256))",
        "numberOfBytes": "32",
        "value": "t_mapping(t_address,t_uint256)"
      },
      "t_mapping(t_address,t_mapping(t_string_memory_ptr,t_bool))": {
        "encoding": "mapping",
        "key": "t_address",
        "label": "mapping(address => mapping(string => bool))",
        "numberOfBytes": "32",
        "value": "t_mapping(t_string_memory_ptr,t_bool)"
      },
      "t_mapping(t_address,t_mapping(t_uint8,t_uint256))": {
        "encoding": "mapping",
        "key": "t_address",
        "label": "mapping(address => mapping(uint8 => uint256))",
        "numberOfBytes": "32",
        "value": "t_mapping(t_uint8,t_uint256)"
      },
      "t_mapping(t_address,t_uint256)": {
        "encoding": "mapping",
        "key": "t_address",
        "label": "mapping(address => uint256)",
        "numberOfBytes": "32",
        "value": "t_uint256"
      },
      "t_mapping(t_string_memory_ptr,t_bool)": {
        "encoding": "mapping",
        "key": "t_string_memory_ptr",
        "label": "mapping(string => bool)",
        "numberOfBytes": "32",
        "value": "t_bool"
      },
      "t_mapping(t_uint256,t_address)": {
        "encoding": "mapping",
        "key": "t_uint256",
        "label": "mapping(uint256 => address)",
        "numberOfBytes": "32",
        "value": "t_address"
      },
      "t_mapping(t_uint256,t_string_storage)": {
        "encoding": "mapping",
        "key": "t_uint256",
        "label": "mapping(uint256 => string)",
        "numberOfBytes": "32",
        "value": "t_string_storage"
      },
      "t_mapping(t_uint8,t_uint256)": {
        "encoding": "mapping",
        "key": "t_uint8",
        "label": "mapping(uint8 => uint256)",
        "numberOfBytes": "32",
        "value": "t_uint256"
      },
      "t_string_memory_ptr": {
        "encoding": "bytes",
        "label": "string",
        "numberOfBytes": "32"
      },
      "t_string_storage": {
        "encoding": "bytes",
        "label": "string",
        "numberOfBytes": "32"
      },
      "t_struct(Stake)27783_storage": {
        "encoding": "inplace",
        "label": "struct ILendingPoolStaking.Stake",
        "members": [
          {
            "astId": 27762,
            "contract": "contracts/staking/LendingPoolStakingV2.sol:LendingPoolStakingV2",
            "label": "staker",
            "offset": 0,
            "slot": "0",
            "type": "t_address"
          },
          {
            "astId": 27764,
            "contract": "contracts/staking/LendingPoolStakingV2.sol:LendingPoolStakingV2",
            "label": "token",
            "offset": 0,
            "slot": "1",
            "type": "t_address"
          },
          {
            "astId": 27766,
            "contract": "contracts/staking/LendingPoolStakingV2.sol:LendingPoolStakingV2",
            "label": "start",
            "offset": 20,
            "slot": "1",
            "type": "t_uint48"
          },
          {
            "astId": 27768,
            "contract": "contracts/staking/LendingPoolStakingV2.sol:LendingPoolStakingV2",
            "label": "end",
            "offset": 26,
            "slot": "1",
            "type": "t_uint48"
          },
          {
            "astId": 27772,
            "contract": "contracts/staking/LendingPoolStakingV2.sol:LendingPoolStakingV2",
            "label": "amountsPerDuration",
            "offset": 0,
            "slot": "2",
            "type": "t_array(t_uint256)3_storage"
          },
          {
            "astId": 27774,
            "contract": "contracts/staking/LendingPoolStakingV2.sol:LendingPoolStakingV2",
            "label": "rewardAllocated",
            "offset": 0,
            "slot": "5",
            "type": "t_uint256"
          },
          {
            "astId": 27776,
            "contract": "contracts/staking/LendingPoolStakingV2.sol:LendingPoolStakingV2",
            "label": "isEscrow",
            "offset": 0,
            "slot": "6",
            "type": "t_bool"
          },
          {
            "astId": 27779,
            "contract": "contracts/staking/LendingPoolStakingV2.sol:LendingPoolStakingV2",
            "label": "escrowStatus",
            "offset": 1,
            "slot": "6",
            "type": "t_enum(EscrowStatus)27760"
          },
          {
            "astId": 27782,
            "contract": "contracts/staking/LendingPoolStakingV2.sol:LendingPoolStakingV2",
            "label": "stakeStatus",
            "offset": 2,
            "slot": "6",
            "type": "t_enum(StakeStatus)27756"
          }
        ],
        "numberOfBytes": "224"
      },
      "t_uint256": {
        "encoding": "inplace",
        "label": "uint256",
        "numberOfBytes": "32"
      },
      "t_uint48": {
        "encoding": "inplace",
        "label": "uint48",
        "numberOfBytes": "6"
      },
      "t_uint8": {
        "encoding": "inplace",
        "label": "uint8",
        "numberOfBytes": "1"
      }
    }
  }
}