{
  "address": "0x7319ED1D3Aee482E01664b7007619e9F171858b7",
  "abi": [
    {
      "inputs": [],
      "name": "InsufficientBalance",
      "type": "error"
    },
    {
      "inputs": [
        {
          "internalType": "string",
          "name": "details",
          "type": "string"
        }
      ],
      "name": "InvalidArgument",
      "type": "error"
    },
    {
      "inputs": [],
      "name": "InvalidState",
      "type": "error"
    },
    {
      "inputs": [],
      "name": "Unauthorized",
      "type": "error"
    },
    {
      "anonymous": false,
      "inputs": [
        {
          "indexed": false,
          "internalType": "address",
          "name": "previousAdmin",
          "type": "address"
        },
        {
          "indexed": false,
          "internalType": "address",
          "name": "newAdmin",
          "type": "address"
        }
      ],
      "name": "AdminChanged",
      "type": "event"
    },
    {
      "anonymous": false,
      "inputs": [
        {
          "indexed": true,
          "internalType": "address",
          "name": "owner",
          "type": "address"
        },
        {
          "indexed": true,
          "internalType": "address",
          "name": "approved",
          "type": "address"
        },
        {
          "indexed": true,
          "internalType": "uint256",
          "name": "tokenId",
          "type": "uint256"
        }
      ],
      "name": "Approval",
      "type": "event"
    },
    {
      "anonymous": false,
      "inputs": [
        {
          "indexed": true,
          "internalType": "address",
          "name": "owner",
          "type": "address"
        },
        {
          "indexed": true,
          "internalType": "address",
          "name": "operator",
          "type": "address"
        },
        {
          "indexed": false,
          "internalType": "bool",
          "name": "approved",
          "type": "bool"
        }
      ],
      "name": "ApprovalForAll",
      "type": "event"
    },
    {
      "anonymous": false,
      "inputs": [
        {
          "indexed": false,
          "internalType": "uint256",
          "name": "_fromTokenId",
          "type": "uint256"
        },
        {
          "indexed": false,
          "internalType": "uint256",
          "name": "_toTokenId",
          "type": "uint256"
        }
      ],
      "name": "BatchMetadataUpdate",
      "type": "event"
    },
    {
      "anonymous": false,
      "inputs": [
        {
          "indexed": true,
          "internalType": "address",
          "name": "beacon",
          "type": "address"
        }
      ],
      "name": "BeaconUpgraded",
      "type": "event"
    },
    {
      "anonymous": false,
      "inputs": [
        {
          "indexed": false,
          "internalType": "uint256",
          "name": "stakeId",
          "type": "uint256"
        },
        {
          "indexed": false,
          "internalType": "enum ILendingPoolStaking.EscrowStatus",
          "name": "status",
          "type": "uint8"
        }
      ],
      "name": "EscrowStatusChanged",
      "type": "event"
    },
    {
      "anonymous": false,
      "inputs": [],
      "name": "InflationRewardDistributed",
      "type": "event"
    },
    {
      "anonymous": false,
      "inputs": [
        {
          "indexed": false,
          "internalType": "uint8",
          "name": "version",
          "type": "uint8"
        }
      ],
      "name": "Initialized",
      "type": "event"
    },
    {
      "anonymous": false,
      "inputs": [
        {
          "indexed": false,
          "internalType": "uint256",
          "name": "_tokenId",
          "type": "uint256"
        }
      ],
      "name": "MetadataUpdate",
      "type": "event"
    },
    {
      "anonymous": false,
      "inputs": [],
      "name": "NonInflationRewardDistributed",
      "type": "event"
    },
    {
      "anonymous": false,
      "inputs": [
        {
          "indexed": true,
          "internalType": "address",
          "name": "previousOwner",
          "type": "address"
        },
        {
          "indexed": true,
          "internalType": "address",
          "name": "newOwner",
          "type": "address"
        }
      ],
      "name": "OwnershipTransferred",
      "type": "event"
    },
    {
      "anonymous": false,
      "inputs": [
        {
          "indexed": false,
          "internalType": "uint256",
          "name": "stakedMigrated",
          "type": "uint256"
        }
      ],
      "name": "StakeMigrationCompleted",
      "type": "event"
    },
    {
      "anonymous": false,
      "inputs": [
        {
          "indexed": false,
          "internalType": "uint256",
          "name": "stakeId",
          "type": "uint256"
        },
        {
          "indexed": false,
          "internalType": "enum ILendingPoolStaking.StakeStatus",
          "name": "status",
          "type": "uint8"
        }
      ],
      "name": "StakeStatusChanged",
      "type": "event"
    },
    {
      "anonymous": false,
      "inputs": [
        {
          "indexed": false,
          "internalType": "uint256",
          "name": "stakeId",
          "type": "uint256"
        },
        {
          "indexed": false,
          "internalType": "address",
          "name": "staker",
          "type": "address"
        },
        {
          "indexed": false,
          "internalType": "address",
          "name": "token",
          "type": "address"
        },
        {
          "indexed": false,
          "internalType": "uint48",
          "name": "start",
          "type": "uint48"
        },
        {
          "indexed": false,
          "internalType": "uint48",
          "name": "end",
          "type": "uint48"
        },
        {
          "indexed": false,
          "internalType": "uint256[3]",
          "name": "amountsPerDuration",
          "type": "uint256[3]"
        },
        {
          "indexed": false,
          "internalType": "bool",
          "name": "isEscrow",
          "type": "bool"
        }
      ],
      "name": "Staked",
      "type": "event"
    },
    {
      "anonymous": false,
      "inputs": [
        {
          "indexed": true,
          "internalType": "address",
          "name": "from",
          "type": "address"
        },
        {
          "indexed": true,
          "internalType": "address",
          "name": "to",
          "type": "address"
        },
        {
          "indexed": true,
          "internalType": "uint256",
          "name": "tokenId",
          "type": "uint256"
        }
      ],
      "name": "Transfer",
      "type": "event"
    },
    {
      "anonymous": false,
      "inputs": [
        {
          "indexed": true,
          "internalType": "address",
          "name": "implementation",
          "type": "address"
        }
      ],
      "name": "Upgraded",
      "type": "event"
    },
    {
      "inputs": [],
      "name": "__MWOwnable_init",
      "outputs": [],
      "stateMutability": "nonpayable",
      "type": "function"
    },
    {
      "inputs": [],
      "name": "__Testing_init",
      "outputs": [],
      "stateMutability": "nonpayable",
      "type": "function"
    },
    {
      "inputs": [
        {
          "internalType": "uint256",
          "name": "",
          "type": "uint256"
        }
      ],
      "name": "activeStakeIds",
      "outputs": [
        {
          "internalType": "uint256",
          "name": "",
          "type": "uint256"
        }
      ],
      "stateMutability": "view",
      "type": "function"
    },
    {
      "inputs": [
        {
          "internalType": "address",
          "name": "",
          "type": "address"
        }
      ],
      "name": "activeStakeTokens",
      "outputs": [
        {
          "internalType": "bool",
          "name": "",
          "type": "bool"
        }
      ],
      "stateMutability": "view",
      "type": "function"
    },
    {
      "inputs": [
        {
          "internalType": "address",
          "name": "_stakeToken",
          "type": "address"
        }
      ],
      "name": "addStakeToken",
      "outputs": [],
      "stateMutability": "nonpayable",
      "type": "function"
    },
    {
      "inputs": [
        {
          "internalType": "address",
          "name": "to",
          "type": "address"
        },
        {
          "internalType": "uint256",
          "name": "tokenId",
          "type": "uint256"
        }
      ],
      "name": "approve",
      "outputs": [],
      "stateMutability": "nonpayable",
      "type": "function"
    },
    {
      "inputs": [
        {
          "internalType": "address",
          "name": "operator",
          "type": "address"
        },
        {
          "internalType": "string",
          "name": "role",
          "type": "string"
        },
        {
          "internalType": "bool",
          "name": "authorized",
          "type": "bool"
        }
      ],
      "name": "authorize",
      "outputs": [],
      "stateMutability": "nonpayable",
      "type": "function"
    },
    {
      "inputs": [
        {
          "internalType": "address",
          "name": "owner",
          "type": "address"
        }
      ],
      "name": "balanceOf",
      "outputs": [
        {
          "internalType": "uint256",
          "name": "",
          "type": "uint256"
        }
      ],
      "stateMutability": "view",
      "type": "function"
    },
    {
      "inputs": [
        {
          "internalType": "address",
          "name": "_token",
          "type": "address"
        },
        {
          "internalType": "uint256",
          "name": "_amount",
          "type": "uint256"
        },
        {
          "internalType": "uint8",
          "name": "_durationId",
          "type": "uint8"
        }
      ],
      "name": "deposit",
      "outputs": [],
      "stateMutability": "payable",
      "type": "function"
    },
    {
      "inputs": [
        {
          "internalType": "uint256",
          "name": "_inflationReward",
          "type": "uint256"
        }
      ],
      "name": "distributeInflationRewards",
      "outputs": [],
      "stateMutability": "nonpayable",
      "type": "function"
    },
    {
      "inputs": [],
      "name": "distributeNonInflationRewards",
      "outputs": [],
      "stateMutability": "nonpayable",
      "type": "function"
    },
    {
      "inputs": [],
      "name": "escrowLockPeriod",
      "outputs": [
        {
          "internalType": "uint48",
          "name": "",
          "type": "uint48"
        }
      ],
      "stateMutability": "view",
      "type": "function"
    },
    {
      "inputs": [
        {
          "internalType": "uint256",
          "name": "tokenId",
          "type": "uint256"
        }
      ],
      "name": "getApproved",
      "outputs": [
        {
          "internalType": "address",
          "name": "",
          "type": "address"
        }
      ],
      "stateMutability": "view",
      "type": "function"
    },
    {
      "inputs": [],
      "name": "hasPendingNonInflationRewards",
      "outputs": [
        {
          "internalType": "bool",
          "name": "",
          "type": "bool"
        }
      ],
      "stateMutability": "view",
      "type": "function"
    },
    {
      "inputs": [
        {
          "internalType": "address",
          "name": "",
          "type": "address"
        },
        {
          "internalType": "string",
          "name": "",
          "type": "string"
        }
      ],
      "name": "hasRole",
      "outputs": [
        {
          "internalType": "bool",
          "name": "",
          "type": "bool"
        }
      ],
      "stateMutability": "view",
      "type": "function"
    },
    {
      "inputs": [
        {
          "internalType": "address",
          "name": "",
          "type": "address"
        }
      ],
      "name": "inflationRollOver",
      "outputs": [
        {
          "internalType": "uint256",
          "name": "",
          "type": "uint256"
        }
      ],
      "stateMutability": "view",
      "type": "function"
    },
    {
      "inputs": [
        {
          "internalType": "address",
          "name": "_nend",
          "type": "address"
        },
        {
          "internalType": "contract Vault",
          "name": "_lendingPool",
          "type": "address"
        }
      ],
      "name": "initialize",
      "outputs": [],
      "stateMutability": "nonpayable",
      "type": "function"
    },
    {
      "inputs": [
        {
          "internalType": "uint256",
          "name": "",
          "type": "uint256"
        }
      ],
      "name": "isActiveStake",
      "outputs": [
        {
          "internalType": "bool",
          "name": "",
          "type": "bool"
        }
      ],
      "stateMutability": "view",
      "type": "function"
    },
    {
      "inputs": [
        {
          "internalType": "address",
          "name": "owner",
          "type": "address"
        },
        {
          "internalType": "address",
          "name": "operator",
          "type": "address"
        }
      ],
      "name": "isApprovedForAll",
      "outputs": [
        {
          "internalType": "bool",
          "name": "",
          "type": "bool"
        }
      ],
      "stateMutability": "view",
      "type": "function"
    },
    {
      "inputs": [
        {
          "internalType": "uint256",
          "name": "_stakeId",
          "type": "uint256"
        }
      ],
      "name": "issueEAB",
      "outputs": [],
      "stateMutability": "nonpayable",
      "type": "function"
    },
    {
      "inputs": [
        {
          "internalType": "address",
          "name": "",
          "type": "address"
        },
        {
          "internalType": "uint8",
          "name": "",
          "type": "uint8"
        }
      ],
      "name": "lastEscrowRewardByToken_Duration",
      "outputs": [
        {
          "internalType": "uint256",
          "name": "",
          "type": "uint256"
        }
      ],
      "stateMutability": "view",
      "type": "function"
    },
    {
      "inputs": [],
      "name": "lendingPool",
      "outputs": [
        {
          "internalType": "contract Vault",
          "name": "",
          "type": "address"
        }
      ],
      "stateMutability": "view",
      "type": "function"
    },
    {
      "inputs": [],
      "name": "migrateStakesToMapping",
      "outputs": [],
      "stateMutability": "nonpayable",
      "type": "function"
    },
    {
      "inputs": [],
      "name": "migrationCompleted",
      "outputs": [
        {
          "internalType": "bool",
          "name": "",
          "type": "bool"
        }
      ],
      "stateMutability": "view",
      "type": "function"
    },
    {
      "inputs": [],
      "name": "name",
      "outputs": [
        {
          "internalType": "string",
          "name": "",
          "type": "string"
        }
      ],
      "stateMutability": "view",
      "type": "function"
    },
    {
      "inputs": [],
      "name": "nend",
      "outputs": [
        {
          "internalType": "address",
          "name": "",
          "type": "address"
        }
      ],
      "stateMutability": "view",
      "type": "function"
    },
    {
      "inputs": [],
      "name": "nextStakeId",
      "outputs": [
        {
          "internalType": "uint256",
          "name": "",
          "type": "uint256"
        }
      ],
      "stateMutability": "view",
      "type": "function"
    },
    {
      "inputs": [],
      "name": "ongoingStakeCount",
      "outputs": [
        {
          "internalType": "uint256",
          "name": "",
          "type": "uint256"
        }
      ],
      "stateMutability": "view",
      "type": "function"
    },
    {
      "inputs": [],
      "name": "owner",
      "outputs": [
        {
          "internalType": "address",
          "name": "",
          "type": "address"
        }
      ],
      "stateMutability": "view",
      "type": "function"
    },
    {
      "inputs": [
        {
          "internalType": "uint256",
          "name": "tokenId",
          "type": "uint256"
        }
      ],
      "name": "ownerOf",
      "outputs": [
        {
          "internalType": "address",
          "name": "",
          "type": "address"
        }
      ],
      "stateMutability": "view",
      "type": "function"
    },
    {
      "inputs": [],
      "name": "poolRollOver",
      "outputs": [
        {
          "internalType": "uint256",
          "name": "",
          "type": "uint256"
        }
      ],
      "stateMutability": "view",
      "type": "function"
    },
    {
      "inputs": [],
      "name": "proxiableUUID",
      "outputs": [
        {
          "internalType": "bytes32",
          "name": "",
          "type": "bytes32"
        }
      ],
      "stateMutability": "view",
      "type": "function"
    },
    {
      "inputs": [
        {
          "internalType": "address",
          "name": "_stakeToken",
          "type": "address"
        }
      ],
      "name": "removeStakeToken",
      "outputs": [],
      "stateMutability": "nonpayable",
      "type": "function"
    },
    {
      "inputs": [],
      "name": "renounceOwnership",
      "outputs": [],
      "stateMutability": "nonpayable",
      "type": "function"
    },
    {
      "inputs": [
        {
          "internalType": "uint256",
          "name": "",
          "type": "uint256"
        }
      ],
      "name": "rewardAllocations",
      "outputs": [
        {
          "internalType": "uint8",
          "name": "",
          "type": "uint8"
        }
      ],
      "stateMutability": "view",
      "type": "function"
    },
    {
      "inputs": [
        {
          "internalType": "address",
          "name": "from",
          "type": "address"
        },
        {
          "internalType": "address",
          "name": "to",
          "type": "address"
        },
        {
          "internalType": "uint256",
          "name": "tokenId",
          "type": "uint256"
        }
      ],
      "name": "safeTransferFrom",
      "outputs": [],
      "stateMutability": "nonpayable",
      "type": "function"
    },
    {
      "inputs": [
        {
          "internalType": "address",
          "name": "from",
          "type": "address"
        },
        {
          "internalType": "address",
          "name": "to",
          "type": "address"
        },
        {
          "internalType": "uint256",
          "name": "tokenId",
          "type": "uint256"
        },
        {
          "internalType": "bytes",
          "name": "data",
          "type": "bytes"
        }
      ],
      "name": "safeTransferFrom",
      "outputs": [],
      "stateMutability": "nonpayable",
      "type": "function"
    },
    {
      "inputs": [
        {
          "internalType": "address",
          "name": "operator",
          "type": "address"
        },
        {
          "internalType": "bool",
          "name": "approved",
          "type": "bool"
        }
      ],
      "name": "setApprovalForAll",
      "outputs": [],
      "stateMutability": "nonpayable",
      "type": "function"
    },
    {
      "inputs": [
        {
          "internalType": "uint8[3]",
          "name": "_rewardAllocations",
          "type": "uint8[3]"
        }
      ],
      "name": "setRewardAllocations",
      "outputs": [],
      "stateMutability": "nonpayable",
      "type": "function"
    },
    {
      "inputs": [
        {
          "internalType": "bool",
          "name": "_testing",
          "type": "bool"
        }
      ],
      "name": "setTesting",
      "outputs": [],
      "stateMutability": "nonpayable",
      "type": "function"
    },
    {
      "inputs": [
        {
          "internalType": "uint256",
          "name": "_tokenId",
          "type": "uint256"
        },
        {
          "internalType": "string",
          "name": "_tokenURI",
          "type": "string"
        }
      ],
      "name": "setTokenURI",
      "outputs": [],
      "stateMutability": "nonpayable",
      "type": "function"
    },
    {
      "inputs": [
        {
          "internalType": "uint256",
          "name": "",
          "type": "uint256"
        }
      ],
      "name": "stakeDurations",
      "outputs": [
        {
          "internalType": "uint48",
          "name": "",
          "type": "uint48"
        }
      ],
      "stateMutability": "view",
      "type": "function"
    },
    {
      "inputs": [
        {
          "internalType": "uint256",
          "name": "_stakeId",
          "type": "uint256"
        }
      ],
      "name": "stakeEscrowedReward",
      "outputs": [],
      "stateMutability": "nonpayable",
      "type": "function"
    },
    {
      "inputs": [],
      "name": "stakeTokenCount",
      "outputs": [
        {
          "internalType": "uint256",
          "name": "",
          "type": "uint256"
        }
      ],
      "stateMutability": "view",
      "type": "function"
    },
    {
      "inputs": [
        {
          "internalType": "uint256",
          "name": "",
          "type": "uint256"
        }
      ],
      "name": "stakeTokens",
      "outputs": [
        {
          "internalType": "address",
          "name": "",
          "type": "address"
        }
      ],
      "stateMutability": "view",
      "type": "function"
    },
    {
      "inputs": [
        {
          "internalType": "uint256",
          "name": "",
          "type": "uint256"
        }
      ],
      "name": "stakes",
      "outputs": [
        {
          "internalType": "address",
          "name": "staker",
          "type": "address"
        },
        {
          "internalType": "address",
          "name": "token",
          "type": "address"
        },
        {
          "internalType": "uint48",
          "name": "start",
          "type": "uint48"
        },
        {
          "internalType": "uint48",
          "name": "end",
          "type": "uint48"
        },
        {
          "internalType": "uint256",
          "name": "rewardAllocated",
          "type": "uint256"
        },
        {
          "internalType": "bool",
          "name": "isEscrow",
          "type": "bool"
        },
        {
          "internalType": "enum ILendingPoolStaking.EscrowStatus",
          "name": "escrowStatus",
          "type": "uint8"
        },
        {
          "internalType": "enum ILendingPoolStaking.StakeStatus",
          "name": "stakeStatus",
          "type": "uint8"
        }
      ],
      "stateMutability": "view",
      "type": "function"
    },
    {
      "inputs": [
        {
          "internalType": "bytes4",
          "name": "interfaceId",
          "type": "bytes4"
        }
      ],
      "name": "supportsInterface",
      "outputs": [
        {
          "internalType": "bool",
          "name": "",
          "type": "bool"
        }
      ],
      "stateMutability": "view",
      "type": "function"
    },
    {
      "inputs": [],
      "name": "symbol",
      "outputs": [
        {
          "internalType": "string",
          "name": "",
          "type": "string"
        }
      ],
      "stateMutability": "view",
      "type": "function"
    },
    {
      "inputs": [],
      "name": "testing",
      "outputs": [
        {
          "internalType": "bool",
          "name": "",
          "type": "bool"
        }
      ],
      "stateMutability": "view",
      "type": "function"
    },
    {
      "inputs": [
        {
          "internalType": "uint256",
          "name": "tokenId",
          "type": "uint256"
        }
      ],
      "name": "tokenURI",
      "outputs": [
        {
          "internalType": "string",
          "name": "",
          "type": "string"
        }
      ],
      "stateMutability": "view",
      "type": "function"
    },
    {
      "inputs": [
        {
          "internalType": "address",
          "name": "",
          "type": "address"
        },
        {
          "internalType": "uint8",
          "name": "",
          "type": "uint8"
        }
      ],
      "name": "totalStakedByToken_Duration",
      "outputs": [
        {
          "internalType": "uint256",
          "name": "",
          "type": "uint256"
        }
      ],
      "stateMutability": "view",
      "type": "function"
    },
    {
      "inputs": [
        {
          "internalType": "address",
          "name": "from",
          "type": "address"
        },
        {
          "internalType": "address",
          "name": "to",
          "type": "address"
        },
        {
          "internalType": "uint256",
          "name": "tokenId",
          "type": "uint256"
        }
      ],
      "name": "transferFrom",
      "outputs": [],
      "stateMutability": "nonpayable",
      "type": "function"
    },
    {
      "inputs": [
        {
          "internalType": "address",
          "name": "newOwner",
          "type": "address"
        }
      ],
      "name": "transferOwnership",
      "outputs": [],
      "stateMutability": "nonpayable",
      "type": "function"
    },
    {
      "inputs": [
        {
          "internalType": "uint256",
          "name": "_stakeId",
          "type": "uint256"
        }
      ],
      "name": "unstake",
      "outputs": [],
      "stateMutability": "nonpayable",
      "type": "function"
    },
    {
      "inputs": [
        {
          "internalType": "address",
          "name": "newImplementation",
          "type": "address"
        }
      ],
      "name": "upgradeTo",
      "outputs": [],
      "stateMutability": "nonpayable",
      "type": "function"
    },
    {
      "inputs": [
        {
          "internalType": "address",
          "name": "newImplementation",
          "type": "address"
        },
        {
          "internalType": "bytes",
          "name": "data",
          "type": "bytes"
        }
      ],
      "name": "upgradeToAndCall",
      "outputs": [],
      "stateMutability": "payable",
      "type": "function"
    }
  ],
  "transactionHash": "0x1885b322c48cf9c4ff69562cd66c6bf7aed8910dc60326888f42d706fbe5eaab",
  "args": [],
  "numDeployments": 2,
  "solcInputHash": "8b35663eb8413af98fed6fcbd33cb7d5",
  "bytecode": "0x60a0604052346200011d576000546200003260ff8260081c1615809281936200010e575b8115620000eb575b5062000122565b8062000046600160ff196000541617600055565b620000d0575b6200005662000219565b6200009d575b6200006662000186565b3060805262000076600161017255565b60405161595490816200027a82396080518181816116cf01528181611ec901526121b00152f35b620000ae61ff001960005416600055565b6040516001815260008051602062005bce83398151915290602090a16200005c565b620000e561010061ff00196000541617600055565b6200004c565b303b15915081620000ff575b50386200002b565b6001915060ff161438620000f7565b600160ff821610915062000023565b600080fd5b156200012a57565b60405162461bcd60e51b815260206004820152602e60248201527f496e697469616c697a61626c653a20636f6e747261637420697320616c72656160448201526d191e481a5b9a5d1a585b1a5e995960921b6064820152608490fd5b600054620001ac60ff8260081c1615809281936200010e578115620000eb575062000122565b80620001c0600160ff196000541617600055565b620001fe575b60ff1960fb541660fb55620001d757565b61ff00196000541660005560008051602062005bce833981519152602060405160018152a1565b6200021361010061ff00196000541617600055565b620001c6565b60c98054737e8ae5c72eca86946b695dcc211863d9721a09616001600160a01b0319821681179092556040516001600160a01b03909116907f8be0079c531659141344cd1fd0a4f28419497f9722a3daafe3b4186f6b6457e090600090a356fe60806040526004361015610013575b600080fd5b60003560e01c806301ffc9a71461047357806306fdde031461046a578063081812fc1461046157806308ed8d1614610458578063095ea7b31461044f578063125cc42f14610446578063162094c41461043d578063166866c7146104345780631fecb71a1461042b578063217fe6c61461042257806323b872dd146104195780632e17de781461041057806331677980146104075780633587e161146103fe5780633659cfe6146103f557806339d2525f146103ec5780633c2ee203146103e35780633c661b8b146103da5780633de15c12146103d157806342842e0e146103c8578063485cc955146103bf5780634f1ef286146103b6578063528a9e4d146103ad57806352d1902d146103a45780636352211e1461039b57806365b014b71461039257806370a0823114610389578063715018a61461038057806372a4db4a146103775780637547c7a31461036e57806375506c961461036557806378fecc991461035c5780638295220014610353578063848778b41461034a5780638d03b102146103415780638da5cb5b1461033857806395d89b411461032f5780639ad143de146103265780639b45d0241461031d5780639db5fa6514610314578063a22cb4651461030b578063a59a997314610302578063a7061423146102f9578063b88d4fde146102f0578063ba5e4bad146102e7578063bad7edab146102de578063bf021550146102d5578063c87b56dd146102cc578063d2438c2a146102c3578063d5a44f86146102ba578063de3e3eff146102b1578063e25b7d82146102a8578063e985e9c51461029f578063ef7bd7f314610296578063f19ed6be1461028d5763f2fde38b1461028557600080fd5b61000e613101565b5061000e612d02565b5061000e612ce2565b5061000e612c77565b5061000e612c4f565b5061000e612c0b565b5061000e612b6c565b5061000e612abd565b5061000e612a89565b5061000e612a35565b5061000e612966565b5061000e612946565b5061000e6128ee565b5061000e61289b565b5061000e612872565b5061000e612780565b5061000e612723565b5061000e612703565b5061000e6126d0565b5061000e612628565b5061000e612600565b5061000e6125dc565b5061000e61259c565b5061000e612573565b5061000e61254d565b5061000e61252d565b5061000e6124d1565b5061000e6123ea565b5061000e61235c565b5061000e6122b6565b5061000e61228b565b5061000e61226c565b5061000e612194565b5061000e61201d565b5061000e611e83565b5061000e611d89565b5061000e611d60565b5061000e611a7a565b5061000e611a3e565b5061000e6118d6565b5061000e611838565b5061000e6116a5565b5061000e6112f5565b5061000e6112d0565b5061000e610e32565b5061000e610e08565b5061000e610d4d565b5061000e610cae565b5061000e610bea565b5061000e6109d1565b5061000e61083c565b5061000e6106f5565b5061000e6106a7565b5061000e61066d565b5061000e610590565b5061000e61048e565b6001600160e01b031981160361000e57565b503461000e57602036600319011261000e5760206004356104ae8161047c565b63ffffffff60e01b16632483248360e11b81149081156104d4575b506040519015158152f35b6380ac58cd60e01b811491508115610506575b81156104f5575b50386104c9565b6301ffc9a760e01b149050386104ee565b635b5e139f60e01b811491506104e7565b600091031261000e57565b918091926000905b82821061054257501161053b575050565b6000910152565b9150806020918301518186015201829161052a565b9060209161057081518092818552858086019101610522565b601f01601f1916010190565b90602061058d928181520190610557565b90565b503461000e5760008060031936011261066a5760405190806065546105b48161353d565b8085529160019180831690811561064957506001146105ee575b6105ea856105de8187038261090d565b6040519182918261057c565b0390f35b9250606583527f8ff97419363ffd7000167f130ef7168fbea05faf9251824ca5043f113cc6a7c75b8284106106315750505081016020016105de826105ea6105ce565b80546020858701810191909152909301928101610616565b60ff1916602087015250506040840192506105de91508390506105ea6105ce565b80fd5b503461000e57602036600319011261000e57602061068c6004356135e9565b6001600160a01b0360405191168152f35b8015150361000e57565b503461000e57602036600319011261000e576004356106c58161069d565b6106cd613de0565b60ff801960fb5416911515161760fb556000604051f35b6001600160a01b0381160361000e57565b503461000e57604036600319011261000e57600435610713816106e4565b60243561071f8161351b565b916001600160a01b03808416809183161461079f576107519361074c913314908115610753575b50613577565b61395e565b005b61079991506107929061077a33916001600160a01b0316600052606a602052604060002090565b906001600160a01b0316600052602052604060002090565b5460ff1690565b38610746565b60405162461bcd60e51b815260206004820152602160248201527f4552433732313a20617070726f76616c20746f2063757272656e74206f776e656044820152603960f91b6064820152608490fd5b6001600160a01b031660005261016e602052604060002090565b6001600160a01b0316600052610169602052604060002090565b6001600160a01b0316600052610164602052604060002090565b503461000e57602036600319011261000e576001600160a01b03600435610862816106e4565b16600052610163602052602060ff604060002054166040519015158152f35b50634e487b7160e01b600052604160045260246000fd5b67ffffffffffffffff81116108ac57604052565b6108b4610881565b604052565b6020810190811067ffffffffffffffff8211176108ac57604052565b6060810190811067ffffffffffffffff8211176108ac57604052565b6040810190811067ffffffffffffffff8211176108ac57604052565b90601f8019910116810190811067ffffffffffffffff8211176108ac57604052565b60405190610120820182811067ffffffffffffffff8211176108ac57604052565b6040519061095d826108d5565b565b60209067ffffffffffffffff811161097d575b601f01601f19160190565b610985610881565b610972565b81601f8201121561000e578035906109a18261095f565b926109af604051948561090d565b8284526020838301011161000e57816000926020809301838601378301015290565b503461000e57604036600319011261000e5760043567ffffffffffffffff60243581811161000e57610a0790369060040161098a565b91610a10613de0565b610a308160005260676020526001600160a01b0360406000205416151590565b15610b7f576000918183526020906097825260408420918551918211610b72575b610a6582610a5f855461353d565b85614978565b80601f8311600114610adc57509080610ac994939286977ff8e1a15aba9398e019f0b49df1a4fde98ee17ae345cb5f6b5e2c27f5033e8ce79792610ad1575b50508160011b916000199060031b1c19161790555b6040519081529081906020820190565b0390a1604051f35b015190503880610aa4565b90601f19831696610af285600052602060002090565b9287905b898210610b5a575050918391600193610ac99796957ff8e1a15aba9398e019f0b49df1a4fde98ee17ae345cb5f6b5e2c27f5033e8ce7999a10610b41575b505050811b019055610ab9565b015160001960f88460031b161c19169055388080610b34565b80600185968294968601518155019501930190610af6565b610b7a610881565b610a51565b60405162461bcd60e51b815260206004820152602e60248201527f45524337323155524953746f726167653a2055524920736574206f66206e6f6e60448201527f6578697374656e7420746f6b656e0000000000000000000000000000000000006064820152608490fd5b503461000e5760208060031936011261000e57600435610c09816106e4565b610c116142d3565b90610c356001600160a01b0392848460c954163314918215610c73575b50506142f4565b1690816000526101639182825260ff60406000205416610c5157005b610167610c5e8154615399565b905560005252604060002060ff198154169055005b60ff925090610c9c913360005260fc825260406000208260405194838680955193849201610522565b82019081520301902054168438610c2e565b503461000e57602036600319011261000e57610751600435610ccf816106e4565b610cf6610cda6142d3565b6001600160a01b0360c954163314908115610cfb575b506142f4565b61551e565b60ff91506020610d25913360005260fc825260406000208260405194838680955193849201610522565b820190815203019020541638610cf0565b90610d4960209282815194859201610522565b0190565b503461000e57604036600319011261000e57600435610d6b816106e4565b60243567ffffffffffffffff811161000e57610dbf60206105ea936001600160a01b03610d9e60ff95369060040161098a565b911660005260fc825260406000208260405194838680955193849201610522565b820190815203019020546040519116151581529081906020820190565b606090600319011261000e57600435610df4816106e4565b90602435610e01816106e4565b9060443590565b503461000e57610751610e1a36610ddc565b91610e2d610e288433613718565b61362b565b6137f3565b503461000e5760208060031936011261000e57600435610e5d81600052610171602052604060002090565b91610e6f83546001600160a01b031690565b906001600160a01b039182339116036112bf576001840190815492428460d01c1180156112a1575b8015611283575b611271576005600287019683610ee0610ed28a54610ecc610ec28d60010190600090565b90549060031b1c90565b90614059565b610ecc60028c016000610ec2565b6006830197610ef0895460ff1690565b1561125e575090610f4d600092610f22610f16610f16610161546001600160a01b031690565b6001600160a01b031690565b60405163a9059cbb60e01b815233600482015260248101929092529093849283919082906044820190565b03925af18015611251575b611234575b505b015480611181575b505082546001915060101c60ff16610f7e81612aec565b146110dc575b50805462ff0000191662020000178155604080518381526002602082015261075194506110219392917fab7e44c17ad2a7b4de0e42ab0bc824366a946f184a1133f0b5528347e4ccbd2991a18054600160ff8260081c16610fe481612aec565b149081156110d1575b50611059575b5061100c61079282600052610173602052604060002090565b61102657600052610171602052604060002090565b6153b4565b61104861103e82600052610173602052604060002090565b805460ff19169055565b600052610171602052604060002090565b805461ff0019166102001790556110868160005260676020526001600160a01b0360406000205416151590565b6110c3575b60408051828152600260208201527f855f5f4ea7c8c6a92f173fbc35c24d01139c2a49e9bcc085f03620cb6a1c65139190a138610ff3565b6110cc8161542f565b61108b565b60ff91501638610fed565b6110f16110eb61016854615399565b61016855565b600090815b600360ff821610611108575050610f84565b80611119610ec26111619389614b70565b855460ff16156111665761115a611152836111406107ee610161546001600160a01b031690565b9060ff16600052602052604060002090565b918254614f34565b9055614b5e565b6110f6565b61115a611152836111406107ee88546001600160a01b031690565b6111d18391611191875460ff1690565b1561122357610161546001600160a01b0316905b60405163a9059cbb60e01b81523360048201526024810191909152938492839160009183906044820190565b0393165af18015611216575b6111e8575b80610f67565b8161120792903d1061120f575b6111ff818361090d565b810190614aaa565b5038806111e2565b503d6111f5565b61121e6132b3565b6111dd565b85546001600160a01b0316906111a5565b61124a90853d871161120f576111ff818361090d565b5038610f5d565b6112596132b3565b610f58565b61126c9250853391166155c6565b610f5f565b60405163baf3f0f760e01b8152600490fd5b50600686015460029060081c60ff1661129b81612aec565b14610e9e565b50600686015460029060101c60ff166112b981612aec565b14610e97565b6040516282b42960e81b8152600490fd5b503461000e57600036600319011261000e57602060ff61017554166040519015158152f35b503461000e5760008060031936011261066a57611310613de0565b6113256113206101755460ff1690565b614ba4565b805b6101655481101561141e576113df906113b561134f610f16610162546001600160a01b031690565b61136e61135b84612447565b90546001600160a01b039160031b1c1690565b6040518092630530fa2160e01b8252818060209687956004830160408082526003908201526206966760ec1b60608201526001600160a01b03909116602082015260800190565b03915afa918215611411575b85926113e4575b50506113d961080861135b84612447565b55613eef565b611327565b6114039250803d1061140a575b6113fb818361090d565b8101906132a4565b38806113c8565b503d6113f1565b6114196132b3565b6113c1565b50805b610174548110156114f9578061143c610ec26114c59361248c565b61145b61145761079283600052610173602052604060002090565b1590565b6114f35761147481600052610171602052604060002090565b9060068201549160ff90818460101c169161148e83612aec565b60018093036114e9576114c09416156114ca5750506114b9610808610161546001600160a01b031690565b5490614f4b565b613eef565b611421565b01546001600160a01b03166000908152610169602052604090206114b9565b5050505050613eef565b50613eef565b50805b6101655481101561167b578061151a61080861135b6115b894612447565b5483611532610f16610162546001600160a01b031690565b61153e61135b85612447565b6040916115a68351630530fa2160e01b815260209687828061158c60049889830160408082526003908201526206966760ec1b60608201526001600160a01b03909116602082015260800190565b0381875afa91821561166e575b879261164f575b50614f34565b91826115bd575b505050505050613eef565b6114fc565b61160a9486946115cf61135b8a612447565b905163276d76f960e21b81526001600160a01b0390911692810192835230602084015260408301949094529294859384929091839160600190565b03925af18015611642575b611624575b80808087936115ad565b8161163a92903d1061120f576111ff818361090d565b50388061161a565b61164a6132b3565b611615565b611667919250883d8a1161140a576113fb818361090d565b90386115a0565b6116766132b3565b611599565b506040517f3ebfd10f795a127a78001b56051c04828d55b68d9d77ebce97b617c8adc53ed28282a1f35b503461000e57602036600319011261000e576004356116c3816106e4565b6001600160a01b0390817f000000000000000000000000000000000000000000000000000000000000000016916116fc833014156131cf565b61172b7f360894a13ba1a3210667c828492db98dca3e2076cc3735a920a3ca505d382bbc938285541614613230565b611733613de0565b60405190611740826108b9565b600082527f4910fdfa16fed3260ed0e7147f7cc6da11a60208b5b9406d12a635614ffd91435460ff161561177a575050610751915061331e565b6020600491604094939451928380926352d1902d60e01b825286165afa60009181611818575b506118055760405162461bcd60e51b815260206004820152602e60248201527f45524331393637557067726164653a206e657720696d706c656d656e7461746960448201526d6f6e206973206e6f74205555505360901b6064820152608490fd5b0390fd5b6107519361181391146132c0565b6133bc565b61183191925060203d811161140a576113fb818361090d565b90386117a0565b503461000e57606036600319011261000e57600435611856816106e4565b6024359067ffffffffffffffff821161000e576118bc602061187f61075194369060040161098a565b6001600160a01b03604435946118948661069d565b61189c613de0565b1660005260fc825260406000208260405194838680955193849201610522565b8201908152030190209060ff801983541691151516179055565b503461000e57600036600319011261000e576118f0613de0565b6119086119036114576101755460ff1690565b613e8c565b61016c5460005b818110611965577f4ecbc2a518da375eb925941a298a8cd4db6c0c6ed78e70d196ca5c9a92b979676119608361194d61194782614049565b61017255565b610175805460ff19166001179055610ab9565b0390a1005b8061197b6119756119c793613f07565b50613fa2565b600161010061198984614049565b926119a8816119a386600052610171602052604060002090565b614103565b01516119b381612aec565b6119bc81612aec565b146119cc5750613eef565b61190f565b806119f56119e86119fa93600052610173602052604060002090565b805460ff19166001179055565b61426a565b386114f3565b50634e487b7160e01b600052603260045260246000fd5b906003821015611a31575b601f8260051c61016f01921690565b611a39611a00565b611a22565b503461000e57602036600319011261000e57600435600381101561000e578060ff60209260051c61016f015460f86040519360031b161c168152f35b503461000e57602036600319011261000e57600435611aa5610f16610161546001600160a01b031690565b33036112bf57611abb6113206101755460ff1690565b61017090611aca825482614059565b90611ad6600061017055565b610174805460005b818110611ced57509054905b818110611cd057505060005b61016554811015611ca557611b0d61135b82612447565b610167611b43611b1e825487613d51565b611b3c846001600160a01b0316600052610164602052604060002090565b5490614059565b6000611b63846001600160a01b0316600052610164602052604060002090565b55600090815b600360ff821610611bda57505090600360ff611b8f9594931614611b94575b5050613eef565b611af6565b611bc6611bcd916000611bbe611bd3956001600160a01b0316600052610164602052604060002090565b555486613d51565b8754614059565b61017055565b3880611b88565b611c0f611c08611c02611bfc611bef85611a17565b905460ff9160031b1c1690565b60ff1690565b84614065565b6064900490565b611c3182611140886001600160a01b031660005261016e602052604060002090565b5415611c6a575b90611c6591611c5f82611140896001600160a01b031660005261016b602052604060002090565b55614b5e565b611b69565b9290611c9c611c6592611c91886001600160a01b0316600052610164602052604060002090565b61115a878254614059565b93909150611c38565b60006040517fbd9c0e36f2110aa67058734f061a385583a1d8b5758bcb065ca0f26c4c64603c8282a1f35b806114c0611ce3610ec2611ce89461248c565b6157ea565b611aea565b80611cfd610ec2611d5b9361248c565b611d1861145761079283600052610173602052604060002090565b6114f357866001611d446006611d3985600052610171602052604060002090565b015460101c60ff1690565b611d4d81612aec565b03611b88576114c091614bf0565b611ade565b503461000e57610751611d7236610ddc565b9060405192611d80846108b9565b6000845261368d565b503461000e57604036600319011261000e57600435611da7816106e4565b611df7602435611db6816106e4565b60005492611ddb60ff8560081c161580958196611e75575b8115611e55575b50614462565b83611dee600160ff196000541617600055565b611e3c57614683565b611dfd57005b611e0d61ff001960005416600055565b604051600181527f7f26b83ff96e1f2b6a682f133852f6798a09c465da95921460cefb384740249890602090a1005b611e5061010061ff00196000541617600055565b614683565b303b15915081611e67575b5038611dd5565b6001915060ff161438611e60565b600160ff8216109150611dce565b50604036600319011261000e57600435611e9c816106e4565b60243567ffffffffffffffff811161000e57611ebc90369060040161098a565b906001600160a01b0391827f00000000000000000000000000000000000000000000000000000000000000001692611ef6843014156131cf565b611f257f360894a13ba1a3210667c828492db98dca3e2076cc3735a920a3ca505d382bbc948286541614613230565b611f2d613de0565b7f4910fdfa16fed3260ed0e7147f7cc6da11a60208b5b9406d12a635614ffd91435460ff1615611f63575050610751915061331e565b6020600491604094939451928380926352d1902d60e01b825286165afa60009181611ffd575b50611fea5760405162461bcd60e51b815260206004820152602e60248201527f45524331393637557067726164653a206e657720696d706c656d656e7461746960448201526d6f6e206973206e6f74205555505360901b6064820152608490fd5b61075193611ff891146132c0565b613478565b61201691925060203d811161140a576113fb818361090d565b9038611f89565b503461000e57602036600319011261000e5760043561204781600052610171602052604060002090565b9061205982546001600160a01b031690565b6001600160a01b03339116036112bf576006820180549260ff93848082161591821561217c575b505061127157815462ff0000191662010000178255926120a56110eb61016854613eef565b600260009401935b60038282161061213d577fab7e44c17ad2a7b4de0e42ab0bc824366a946f184a1133f0b5528347e4ccbd2984612107856120f861145761079285600052610173602052604060002090565b612117575b5460101c60ff1690565b9061196060405192839283614b8e565b61212f6119e884600052610173602052604060002090565b6121388361426a565b6120fd565b61217581612150610ec260039489614b70565b61115a61216d836111406107ee610161546001600160a01b031690565b918254614059565b90506120ad565b60101c16905061218b81612aec565b15158438612080565b503461000e57600036600319011261000e576001600160a01b037f0000000000000000000000000000000000000000000000000000000000000000163003612201576040517f360894a13ba1a3210667c828492db98dca3e2076cc3735a920a3ca505d382bbc8152602090f35b60405162461bcd60e51b815260206004820152603860248201527f555550535570677261646561626c653a206d757374206e6f742062652063616c60448201527f6c6564207468726f7567682064656c656761746563616c6c00000000000000006064820152608490fd5b503461000e57602036600319011261000e57602061068c60043561351b565b503461000e57600036600319011261000e576122ae60ff60005460081c16613d67565b610751613e38565b503461000e57602036600319011261000e576001600160a01b036004356122dc816106e4565b1680156123055760005260686020526105ea604060002054604051918291829190602083019252565b60405162461bcd60e51b815260206004820152602960248201527f4552433732313a2061646472657373207a65726f206973206e6f7420612076616044820152683634b21037bbb732b960b91b6064820152608490fd5b503461000e5760008060031936011261066a57612377613de0565b60c9546001600160a01b0319811660c955816001600160a01b0360405192167f8be0079c531659141344cd1fd0a4f28419497f9722a3daafe3b4186f6b6457e08284a3f35b6024359060ff8216820361000e57565b6044359060ff8216820361000e57565b359060ff8216820361000e57565b503461000e57606036600319011261000e57366023121561000e57604051612411816108d5565b60648136821161000e576004905b82821061242f5761075184614340565b6020809161243c846123dc565b81520191019061241f565b610165805482101561247f575b6000527fd91ca5e44fa96a1732bfaed7fe33fc20ed69a9895cde1f18c7dcabca39d6a78b0190600090565b612487611a00565b612454565b61017480548210156124c4575b6000527f19628ef4f1e52435a91694e0b17e2591e7982b96f1883cadfe58900fe74230c40190600090565b6124cc611a00565b612499565b503461000e57602036600319011261000e57600435610165805482101561000e576020916001600160a01b03916000527fd91ca5e44fa96a1732bfaed7fe33fc20ed69a9895cde1f18c7dcabca39d6a78b015416604051908152f35b503461000e57600036600319011261000e57602061017254604051908152f35b503461000e57600036600319011261000e5760206125696150bb565b6040519015158152f35b503461000e57600036600319011261000e5760206001600160a01b036101615416604051908152f35b503461000e57602036600319011261000e576001600160a01b036004356125c2816106e4565b166000526101646020526020604060002054604051908152f35b503461000e57600036600319011261000e57602060ff60fb54166040519015158152f35b503461000e57600036600319011261000e5760206001600160a01b0360c95416604051908152f35b503461000e5760008060031936011261066a57604051908060665461264c8161353d565b808552916001918083169081156106495750600114612675576105ea856105de8187038261090d565b9250606683527f46501879b8ca8525e8c2fd519e2fbfcfa2ebea26501294aa02cbfcfb12e943545b8284106126b85750505081016020016105de826105ea6105ce565b8054602085870181019190915290930192810161269d565b503461000e57602036600319011261000e57600435600052610173602052602060ff604060002054166040519015158152f35b503461000e57600036600319011261000e57602061016854604051908152f35b503461000e57604036600319011261000e576020612777600435612746816106e4565b6001600160a01b036127566123bc565b911660005261016e835260406000209060ff16600052602052604060002090565b54604051908152f35b503461000e57604036600319011261000e5760043561279e816106e4565b6024356127aa8161069d565b6001600160a01b0382169182331461282d57816127ea6127fb9233600052606a6020526040600020906001600160a01b0316600052602052604060002090565b9060ff801983541691151516179055565b604051901515815233907f17307eab39ab6107e8899845ad3d59bd9653f200f220920489ca2b5937696c3190602090a3005b60405162461bcd60e51b815260206004820152601960248201527f4552433732313a20617070726f766520746f2063616c6c6572000000000000006044820152606490fd5b503461000e57600036600319011261000e5760206001600160a01b036101625416604051908152f35b503461000e57602036600319011261000e5760043561017490815481101561000e576020916000527f19628ef4f1e52435a91694e0b17e2591e7982b96f1883cadfe58900fe74230c40154604051908152f35b503461000e57608036600319011261000e5760043561290c816106e4565b602435612918816106e4565b6064359167ffffffffffffffff831161000e5761293c61075193369060040161098a565b916044359161368d565b503461000e57600036600319011261000e57602061017054604051908152f35b503461000e57602036600319011261000e5760043561299081600052610171602052604060002090565b8054336001600160a01b03909116036112bf576006018054600260ff8260101c166129ba81612aec565b14908115612a1c575b5061127157805461ff0019166101001790557f855f5f4ea7c8c6a92f173fbc35c24d01139c2a49e9bcc085f03620cb6a1c65139061196090612a058133615292565b604080519182526001602083015290918291820190565b60ff915060081c16612a2d81612aec565b1515386129c3565b503461000e57604036600319011261000e576020612777600435612a58816106e4565b6001600160a01b03612a686123bc565b911660005261016b835260406000209060ff16600052602052604060002090565b503461000e57602036600319011261000e576105ea612aa9600435613b42565b604051918291602083526020830190610557565b503461000e57600036600319011261000e57612ae060ff60005460081c16613d67565b60fb805460ff19169055005b60031115612af657565b634e487b7160e01b600052602160045260246000fd5b94919897969360e096939161010087019a6001600160a01b03809216885216602087015265ffffffffffff80921660408701521660608501526080840152151560a0830152612b5a81612aec565b60c0820152612b6883612aec565b0152565b503461000e57602036600319011261000e5760043560005261017160205260406000206001600160a01b036105ea81835416600184015490600660058601549501549060405195869560ff8460101c169460ff808660081c169516938160d01c9265ffffffffffff8360a01c1692169089612b0c565b906003821015612bfe575b6006600580840461016d0193060290565b612c06611a00565b612bed565b503461000e57602036600319011261000e57600435600381101561000e578065ffffffffffff60056020930461016d01546006600560405194060260031b1c168152f35b503461000e57600036600319011261000e57602065ffffffffffff6101665416604051908152f35b503461000e57604036600319011261000e57602060ff612cd6600435612c9c816106e4565b6001600160a01b0360243591612cb1836106e4565b16600052606a84526040600020906001600160a01b0316600052602052604060002090565b54166040519015158152f35b503461000e57600036600319011261000e57602061016754604051908152f35b50606036600319011261000e5760048035612d1c816106e4565b602435612d276123cc565b9281156130b357612d52611457610792856001600160a01b0316600052610163602052604060002090565b613065576001600160a01b0383168015801580612ffd575b612fec5715612f465750813403612eed5750612ed261216d61075194612db860008080612da3610f16610162546001600160a01b031690565b88604051915af1612db2613a08565b50614abf565b611140612dc3614b0b565b9585612dd260ff8516896143c8565b52612eb16101725497612de76119478a613eef565b65ffffffffffff421690612e74612e37612e31612e18612e068a612be2565b905465ffffffffffff9160031b1c1690565b60fb5460ff1615612ee35761ffff6103f05b1690614b1f565b84614b43565b612e65612e4261092f565b338152946001600160a01b03881660208701525b65ffffffffffff166040860152565b65ffffffffffff166060840152565b6080820152600060a0820152600060c0820152600060e0820152612e9c610100820160019052565b6119a389600052610171602052604060002090565b612ec96119e888600052610173602052604060002090565b6107ee8761426a565b9055611ce36110eb61016854613eef565b61ffff6001612e2a565b61180190604051918291631fff1b3b60e21b8352820160809060208152602260208201527f496e636f7272656374206e617469766520636f696e207374616b6520616d6f756040820152611b9d60f21b60608201520190565b61075194612fab60208561216d94612ed2966000612f70610f16610162546001600160a01b031690565b604080516323b872dd60e01b8152339481019485526001600160a01b0390921660208501528301949094529294859384929091839160600190565b03925af18015612fdf575b612fc1575b50612db8565b612fd89060203d811161120f576111ff818361090d565b5038612fbb565b612fe76132b3565b612fb6565b604051631e9acf1760e31b81528390fd5b506040516370a0823160e01b8152338482019081528591906020908290819083010381875afa908115613058575b60009161303a575b5010612d6a565b613052915060203d811161140a576113fb818361090d565b38613033565b6130606132b3565b61302b565b61180190604051918291631fff1b3b60e21b8352820160609060208152601360208201527f496e76616c6964207374616b6520746f6b656e0000000000000000000000000060408201520190565b61180190604051918291631fff1b3b60e21b8352820160609060208152601560208201527f416d6f756e742063616e6e6f74206265207a65726f000000000000000000000060408201520190565b503461000e57602036600319011261000e5760043561311f816106e4565b613127613de0565b6001600160a01b0380911690811561317b5760009160c95491816001600160a01b031984161760c95560405192167f8be0079c531659141344cd1fd0a4f28419497f9722a3daafe3b4186f6b6457e08484a3f35b60405162461bcd60e51b815260206004820152602660248201527f4f776e61626c653a206e6577206f776e657220697320746865207a65726f206160448201526564647265737360d01b6064820152608490fd5b156131d657565b60405162461bcd60e51b815260206004820152602c60248201527f46756e6374696f6e206d7573742062652063616c6c6564207468726f7567682060448201526b19195b1959d85d1958d85b1b60a21b6064820152608490fd5b1561323757565b60405162461bcd60e51b815260206004820152602c60248201527f46756e6374696f6e206d7573742062652063616c6c6564207468726f7567682060448201526b6163746976652070726f787960a01b6064820152608490fd5b6040519061329e826108b9565b60008252565b9081602091031261000e575190565b506040513d6000823e3d90fd5b156132c757565b60405162461bcd60e51b815260206004820152602960248201527f45524331393637557067726164653a20756e737570706f727465642070726f786044820152681a58589b195555525160ba1b6064820152608490fd5b803b15613361576001600160a01b037f360894a13ba1a3210667c828492db98dca3e2076cc3735a920a3ca505d382bbc91166001600160a01b0319825416179055565b60405162461bcd60e51b815260206004820152602d60248201527f455243313936373a206e657720696d706c656d656e746174696f6e206973206e60448201526c1bdd08184818dbdb9d1c9858dd609a1b6064820152608490fd5b6133c58161331e565b604051906001600160a01b0381167fbc7cd75a20ee27fd9adebab32041f755214dbc6bffa90cc0225b39da2e5c2d3b600084a2825115801590613470575b61340c57505050565b60008061346d9461341c856108d5565b602785527f416464726573733a206c6f772d6c6576656c2064656c65676174652063616c6c6020860152660819985a5b195960ca1b6040860152602081519101845af4613467613a08565b91613ca9565b50565b506000613403565b6134818161331e565b604051906001600160a01b0381167fbc7cd75a20ee27fd9adebab32041f755214dbc6bffa90cc0225b39da2e5c2d3b600084a28251158015906134c75761340c57505050565b506001613403565b156134d657565b60405162461bcd60e51b815260206004820152601860248201527f4552433732313a20696e76616c696420746f6b656e20494400000000000000006044820152606490fd5b60005260676020526001600160a01b036040600020541661058d8115156134cf565b90600182811c9216801561356d575b602083101461355757565b634e487b7160e01b600052602260045260246000fd5b91607f169161354c565b1561357e57565b60405162461bcd60e51b815260206004820152603d60248201527f4552433732313a20617070726f76652063616c6c6572206973206e6f7420746f60448201527f6b656e206f776e6572206f7220617070726f76656420666f7220616c6c0000006064820152608490fd5b61361161360c8260005260676020526001600160a01b0360406000205416151590565b6134cf565b60005260696020526001600160a01b036040600020541690565b1561363257565b60405162461bcd60e51b815260206004820152602d60248201527f4552433732313a2063616c6c6572206973206e6f7420746f6b656e206f776e6560448201526c1c881bdc88185c1c1c9bdd9959609a1b6064820152608490fd5b906136b19392916136a1610e288433613718565b6136ac8383836137f3565b613a38565b156136b857565b60405162461bcd60e51b815260206004820152603260248201527f4552433732313a207472616e7366657220746f206e6f6e20455243373231526560448201527131b2b4bb32b91034b6b83632b6b2b73a32b960711b6064820152608490fd5b6001600160a01b038061372a8461351b565b169281831692848414948515613760575b5050831561374a575b50505090565b613756919293506135e9565b1614388080613744565b60ff9295509061378f91600052606a6020526040600020906001600160a01b0316600052602052604060002090565b541692388061373b565b156137a057565b60405162461bcd60e51b815260206004820152602560248201527f4552433732313a207472616e736665722066726f6d20696e636f72726563742060448201526437bbb732b960d91b6064820152608490fd5b9061381992916138028361351b565b6001600160a01b0382811695909182168614613799565b821693841561390d5761095d948161383e8693613838610f168661351b565b14613799565b613865613855846000526069602052604060002090565b80546001600160a01b0319169055565b613882846001600160a01b03166000526068602052604060002090565b60001981540190556138a7856001600160a01b03166000526068602052604060002090565b600181540190556138e1856138c6856000526067602052604060002090565b906001600160a01b03166001600160a01b0319825416179055565b7fddf252ad1be2c89b69c2b068fc378daa952ba7f163c4a11628f55a4df523b3ef6000604051a46158ab565b60405162461bcd60e51b8152602060048201526024808201527f4552433732313a207472616e7366657220746f20746865207a65726f206164646044820152637265737360e01b6064820152608490fd5b600082815260696020526040902080546001600160a01b0319166001600160a01b0383161790556001600160a01b03806139978461351b565b169116907f8c5be1e5ebec7d5bd14f71427d1e84f3dd0314c0f7b2291e5b200ac8c7c3b9256000604051a4565b9081602091031261000e575161058d8161047c565b909261058d94936080936001600160a01b03809216845216602083015260408201528160608201520190610557565b3d15613a33573d90613a198261095f565b91613a27604051938461090d565b82523d6000602084013e565b606090565b92909190823b15613b3957613a739260209260006001600160a01b03604051809781968295630a85bd0160e11b9b8c855233600486016139d9565b0393165af160009181613b09575b50613afb57613a8e613a08565b80519081613af65760405162461bcd60e51b815260206004820152603260248201527f4552433732313a207472616e7366657220746f206e6f6e20455243373231526560448201527131b2b4bb32b91034b6b83632b6b2b73a32b960711b6064820152608490fd5b602001fd5b6001600160e01b0319161490565b613b2b91925060203d8111613b32575b613b23818361090d565b8101906139c4565b9038613a81565b503d613b19565b50505050600190565b613b6561360c8260005260676020526001600160a01b0360406000205416151590565b6000908082526020609781526040832060405184819590835490613b888261353d565b80855294600192808416908115613c445750600114613c08575b505050613bb19250038461090d565b613bb9613291565b92835115613c01578051613bd357505061058d9150613c64565b61058d9250613bf390613bed604051958694850190610d36565b90610d36565b03601f19810183528261090d565b9250505090565b869350819291528282205b858310613c2c575050613bb19350820101388080613ba2565b8054838a018501528894508693909201918101613c13565b965050505050505060ff191681840152613bb18360408101388080613ba2565b61360c613c879160005260676020526001600160a01b0360406000205416151590565b6000604051613c95816108b9565b52604051613ca2816108b9565b6000815290565b91929015613d0b5750815115613cbd575090565b3b15613cc65790565b60405162461bcd60e51b815260206004820152601d60248201527f416464726573733a2063616c6c20746f206e6f6e2d636f6e74726163740000006044820152606490fd5b825190915015613d1e5750805190602001fd5b60405162461bcd60e51b8152908190611801906004830161057c565b50634e487b7160e01b600052601260045260246000fd5b8115613d5b570490565b613d63613d3a565b0490565b15613d6e57565b60405162461bcd60e51b815260206004820152602b60248201527f496e697469616c697a61626c653a20636f6e7472616374206973206e6f74206960448201526a6e697469616c697a696e6760a81b6064820152608490fd5b613dd860ff60005460081c16613d67565b61095d613e38565b6001600160a01b0360c954163303613df457565b606460405162461bcd60e51b815260206004820152602060248201527f4f776e61626c653a2063616c6c6572206973206e6f7420746865206f776e65726044820152fd5b60c9546001600160a01b03737e8ae5c72eca86946b695dcc211863d9721a09619182821982161760c955167f8be0079c531659141344cd1fd0a4f28419497f9722a3daafe3b4186f6b6457e06000604051a3565b15613e9357565b60405162461bcd60e51b815260206004820152601b60248201527f4d6967726174696f6e20616c726561647920706572666f726d656400000000006044820152606490fd5b50634e487b7160e01b600052601160045260246000fd5b6001906000198114613eff570190565b610d49613ed8565b60079061016c8054821015613f43575b600052027fe5af487827b121aa2456a019311df153887da6c98285803eea72252e4f09489b0190600090565b613f4b611a00565b613f17565b60405191906000835b60038210613f80575050506060820182811067ffffffffffffffff8211176108ac57604052565b6001602081928554815201930191019091613f59565b613f9f82612aec565b52565b9061095d60ff6006613fb261092f565b94613fd4613fc782546001600160a01b031690565b6001600160a01b03168752565b60018101546001600160a01b038116602088015265ffffffffffff60a082901c16604088015260d01c606087015261400e60028201613f50565b6080870152600581015460a08701520154818116151560c086015261403b828260081c1660e08701613f96565b60101c166101008401613f96565b6001906001198111613eff570190565b81198111613eff570190565b8060001904821181151516614078570290565b614080613ed8565b0290565b81811061408f575050565b60008155600101614084565b906000905b600382106140ad57505050565b60016020828293518655019301910190916140a0565b906140cd81612aec565b61ff0082549160081b169061ff001916179055565b906140ec81612aec565b62ff000082549160101b169062ff00001916179055565b90610100600661095d9361413d61412185516001600160a01b031690565b82546001600160a01b0319166001600160a01b03909116178255565b6142036001820161415b61412160208801516001600160a01b031690565b6141ab614171604088015165ffffffffffff1690565b82547fffffffffffff000000000000ffffffffffffffffffffffffffffffffffffffff1660a09190911b65ffffffffffff60a01b16178255565b606086015165ffffffffffff16815479ffffffffffffffffffffffffffffffffffffffffffffffffffff1660d09190911b7fffffffffffff000000000000000000000000000000000000000000000000000016179055565b61421460808501516002830161409b565b60a08401516005820155019161424261423060c0830151151590565b849060ff801983541691151516179055565b61425960e082015161425381612aec565b846140c3565b01519061426582612aec565b6140e2565b610174805490680100000000000000008210156142c6575b600182018082558210156142b9575b6000527f19628ef4f1e52435a91694e0b17e2591e7982b96f1883cadfe58900fe74230c40155565b6142c1611a00565b614291565b6142ce610881565b614282565b604051906142e0826108f1565b600582526430b236b4b760d91b6020830152565b156142fb57565b60405162461bcd60e51b815260206004820152600e60248201527f4e6f7420617574686f72697a65640000000000000000000000000000000000006044820152606490fd5b61434b610cda6142d3565b606460ff6143736143668285511683602087015116906143e7565b82604086015116906143e7565b16036143825761095d906143fd565b604051631fff1b3b60e21b815260206004820152601260248201527f4d7573742073756d20757020746f2031303000000000000000000000000000006044820152606490fd5b9060038110156143da575b60051b0190565b6143e2611a00565b6143d3565b60ff8091169116908160ff038111613eff570190565b9061016f60009081935b60038086101561445a579060209160ff908183511691868654921b90811b9283911b169119161783550193600180930192601f841161444b575b5060010193614407565b60009350909101906001614441565b505050509050565b1561446957565b60405162461bcd60e51b815260206004820152602e60248201527f496e697469616c697a61626c653a20636f6e747261637420697320616c72656160448201527f647920696e697469616c697a65640000000000000000000000000000000000006064820152608490fd5b6101658054906801000000000000000082101561453d575b60018201808255821015614530575b6000527fd91ca5e44fa96a1732bfaed7fe33fc20ed69a9895cde1f18c7dcabca39d6a78b0180546001600160a01b0319169055565b614538611a00565b6144fb565b614545610881565b6144ec565b6001600160a01b03610165805490680100000000000000008210156145be575b600182018082558210156145b1575b6000527fd91ca5e44fa96a1732bfaed7fe33fc20ed69a9895cde1f18c7dcabca39d6a78b0191166001600160a01b0319825416179055565b6145b9611a00565b614579565b6145c6610881565b61456a565b9061016d600080935b60038086101561445a578160209162ffffff600694511690858754911b65ffffffffffff811b9283911b1691191617855501910193601a851161461c575b60010193906145d4565b60009450600190920191614612565b60405190614638826108f1565b601382527f457363726f77656420417373657420426f6e64000000000000000000000000006020830152565b60405190614671826108f1565b600382526222a0a160e91b6020830152565b6146e390614715926001600160a01b03801990610161818516838254161790556101629216908254161790556146c76119e860008052610163602052604060002090565b6146cf6144d4565b61470f610167916146e96146e38454613eef565b61016755565b61470a6119e8826001600160a01b0316600052610163602052604060002090565b61454a565b54613eef565b610166805465ffffffffffff1916630114db00179055614753614736610950565b62093a8081526224ea006020820152626ebe0060408201526145cb565b61477561475e610950565b60148152601e6020820152603260408201526143fd565b61478e61478061462b565b614788614664565b9061479e565b614796613dc7565b61095d615901565b906147b960ff60005460081c166147b481613d67565b613d67565b815167ffffffffffffffff81116148b4575b6147df816147da60655461353d565b6148c1565b602080601f83116001146148215750819061095d94600092614816575b50508160011b916000199060031b1c1916176065556149b2565b0151905038806147fc565b919293601f19841661485560656000527f8ff97419363ffd7000167f130ef7168fbea05faf9251824ca5043f113cc6a7c790565b936000905b82821061489c57505091600193918561095d97969410614883575b505050811b016065556149b2565b015160001960f88460031b161c19169055388080614875565b8060018697829497870151815501960194019061485a565b6148bc610881565b6147cb565b90601f82116148ce575050565b61095d9160656000527f8ff97419363ffd7000167f130ef7168fbea05faf9251824ca5043f113cc6a7c7906020601f840160051c83019310614918575b601f0160051c0190614084565b909150819061490b565b90601f821161492f575050565b61095d9160666000527f46501879b8ca8525e8c2fd519e2fbfcfa2ebea26501294aa02cbfcfb12e94354906020601f840160051c8301931061491857601f0160051c0190614084565b9190601f811161498757505050565b61095d926000526020600020906020601f840160051c8301931061491857601f0160051c0190614084565b90815167ffffffffffffffff8111614a9d575b6149d9816149d460665461353d565b614922565b602080601f8311600114614a155750819293600092614a0a575b50508160011b916000199060031b1c191617606655565b0151905038806149f3565b90601f19831694614a4860666000527f46501879b8ca8525e8c2fd519e2fbfcfa2ebea26501294aa02cbfcfb12e9435490565b926000905b878210614a85575050836001959610614a6c575b505050811b01606655565b015160001960f88460031b161c19169055388080614a61565b80600185968294968601518155019501930190614a4d565b614aa5610881565b6149c5565b9081602091031261000e575161058d8161069d565b15614ac657565b60405162461bcd60e51b815260206004820152601f60248201527f4661696c656420746f207472616e73666572206e617469766520746f6b656e006044820152606490fd5b60405190614b18826108d5565b6060368337565b9065ffffffffffff809116918215614b3657160490565b614b3e613d3a565b160490565b9065ffffffffffff8080931691168092038111613eff570190565b60ff6001911660ff8114613eff570190565b6003821015614b81575b0190600090565b614b89611a00565b614b7a565b90815260408101929190602090612b6883612aec565b15614bab57565b60405162461bcd60e51b815260206004820152601960248201527f4d757374206d696772617465207374616b6573206669727374000000000000006044820152606490fd5b614c0590600052610171602052604060002090565b90614c34614c1a83546001600160a01b031690565b6001600160a01b031660005261016a602052604060002090565b90614c726006840192614c48845460ff1690565b15614f2157610161546001600160a01b03165b6001600160a01b0316600052602052604060002090565b5480158015614ee3575b614d95575b614c9990939293600052610171602052604060002090565b9060009260028082019301935b600360ff821610614cb957505050505050565b614d6590614d60614d24614cce895460ff1690565b8015614d8157610161546001600160a01b0316905b84614d1e614cf4610ec2838d614b70565b92614d02610167548c613d51565b9015614d6a57611b3c610822610161546001600160a01b031690565b92615760565b614d47614d31848a614b70565b919092614d428385549060031b1c90565b614059565b9082549060031b600019811b9283911b16911916179055565b614b5e565b614ca6565b611b3c61082260018c01546001600160a01b031690565b60018601546001600160a01b031690614ce3565b50614c99614da1614b0b565b614e766101725491614db561194784613eef565b86546001600160a01b031690614dcc875460ff1690565b15614ec757614e3f614de7610161546001600160a01b031690565b612e6565ffffffffffff4216612e56614e14614e0e612e186101665465ffffffffffff1690565b83614b43565b93614e2f614e2061092f565b6001600160a01b039099168952565b6001600160a01b03166020880152565b6080820152600060a0820152600160c0820152600060e082015260006101008201526119a383600052610171602052604060002090565b80614eaa614e8e614c1a88546001600160a01b031690565b865460ff1615614eb257610161546001600160a01b0316614c5b565b559050614c81565b60018801546001600160a01b03165b9061077a565b614e3f614ede60018a01546001600160a01b031690565b614de7565b50614f0e6001614efe83600052610171602052604060002090565b015460a01c65ffffffffffff1690565b65ffffffffffff80421691161415614c7c565b60018501546001600160a01b0316614ec1565b818110614f3f570390565b614f47613ed8565b0390565b614f6090600052610171602052604060002090565b60058101916006820191600281019160005b600360ff821610614f8557505050505050565b845460ff1690811561509e57614fbc83614fa8610161546001600160a01b031690565b83614fb6610ec2828b614b70565b91615760565b91614fc8838954614059565b8855614fe0610f16610162546001600160a01b031690565b901561508b57610161546001600160a01b03165b813b1561000e57604051636c49e02160e01b815260606004820152600360648201526206966760ec1b60848201526001600160a01b0391909116602482015260448101939093526150609290600090829060a490829084905af1801561507e575b615065575b50614b5e565b614f72565b8061507261507892610898565b80610517565b3861505a565b6150866132b3565b615055565b60018501546001600160a01b0316614ff4565b614fbc836150b660018701546001600160a01b031690565b614fa8565b600061016554906150d8610f16610162546001600160a01b031690565b905b8281106150e957505050600090565b6150f561135b82612447565b60408051630530fa2160e01b81526004810191909152600360448201526206966760ec1b60648201526001600160a01b0382166024820152602091908281608481885afa928315615239575b600093615214575b505080611b3c6151d56151ba6151886151796151e5966001600160a01b031660005261016e602052604060002090565b60008052602052604060002090565b54611b3c6151aa866001600160a01b031660005261016e602052604060002090565b6001600052602052604060002090565b926001600160a01b031660005261016e602052604060002090565b6002600052602052604060002090565b901515908161520a575b50615202576151fd90613eef565b6150da565b505050600190565b90501515386151ef565b6151e5929350908161523192903d1061140a576113fb818361090d565b919038615149565b6152416132b3565b615141565b1561524d57565b60405162461bcd60e51b815260206004820152601c60248201527f4552433732313a20746f6b656e20616c7265616479206d696e746564000000006044820152606490fd5b6001600160a01b0381169081156153555761532b906152d06152ca8560005260676020526001600160a01b0360406000205416151590565b15615246565b6152f36152ca8560005260676020526001600160a01b0360406000205416151590565b615310816001600160a01b03166000526068602052604060002090565b600181540190556138c6846000526067602052604060002090565b60007fddf252ad1be2c89b69c2b068fc378daa952ba7f163c4a11628f55a4df523b3ef81604051a4565b606460405162461bcd60e51b815260206004820152602060248201527f4552433732313a206d696e7420746f20746865207a65726f20616464726573736044820152fd5b80156153a7575b6000190190565b6153af613ed8565b6153a0565b600660009182815582600182015582600582016153d48160028501614084565b550155565b61058d905461353d565b6153ed815461353d565b90816153f7575050565b81601f60009311600114615409575055565b8183526020832061542591601f0160051c810190600101614084565b8160208120915555565b6154388161351b565b506154428161351b565b600082815260696020526001600160a01b0360408220928119938481541690551680825260686020526040822060001981540190558382526067602052604082208381541690558382827fddf252ad1be2c89b69c2b068fc378daa952ba7f163c4a11628f55a4df523b3ef82604051a4151580615517575b615500575b50506154dd6154d8826000526097602052604060002090565b6153d9565b6154e45750565b6154fb61095d916000526097602052604060002090565b6153e3565b6040906101716020522090815416905538806154bf565b50806154ba565b6001600160a01b03908181168060005261016360205260ff92836040600020541615615591575b6101655460005b8186821610615563575050505061095d915061454a565b838361556e83612447565b90549060031b1c16146155895761558490614b5e565b61554c565b505050505050565b61016761559e8154613eef565b90556155c16119e8846001600160a01b0316600052610163602052604060002090565b615545565b6001600160a01b039290838116908161566e5750506155f1610f16610162546001600160a01b031690565b8181311061565c57803b1561000e57604051633e97486160e11b8152939092166001600160a01b03166004840152602483015260009082908183816044810103925af1801561564f575b6156425750565b8061507261095d92610898565b6156576132b3565b61563b565b604051631e9acf1760e31b8152600490fd5b91909350615688610f16610162546001600160a01b031690565b6040516370a0823160e01b81526001600160a01b03821660048201526020958391908790829060249082905afa908115615753575b600091615736575b501061565c5760405163276d76f960e21b81526001600160a01b03938416600482015293909216602484015260448301528290829060649082906000905af18015615729575b615713575050565b8161346d92903d1061120f576111ff818361090d565b6157316132b3565b61570b565b61574d9150873d891161140a576113fb818361090d565b386156c5565b61575b6132b3565b6156bd565b9291600081615773575050505050600090565b6001600160a01b0360646157b36040946157ae6157d19860038910156157dd575b60ff8960051c61016f015460f88b60031b161c1690614065565b614065565b049516815261016e602052209060ff16600052602052604060002090565b54908115613d5b570490565b6157e5611a00565b615794565b80600052602061017181526158026040600020613fa2565b6001600160a01b03918282511692818301511665ffffffffffff80604085015116906060850151169160c060808601519501511515956040519788528488015260408701526060860152608085015260a084016000905b60038210615896575050505015156101008201527fbbad5407299f3773930327d215f85a16617efbbddc1fe3902bd39ba46feacf269061012090a1565b82806001928651815201940191019092615859565b6001600160a01b03809116151590816158f5575b506158c8575050565b61095d916000526101716020526040600020906001600160a01b03166001600160a01b0319825416179055565b905081161515386158bf565b61591260ff60005460081c16613d67565b60ff1960fb541660fb5556fea26469706673582212206796081f5a13a06e086fd52aac0dae50537f3cf7a89c239724cb7b559aaab68364736f6c634300080e00337f26b83ff96e1f2b6a682f133852f6798a09c465da95921460cefb3847402498",
  "devdoc": {
    "kind": "dev",
    "methods": {
      "approve(address,uint256)": {
        "details": "See {IERC721-approve}."
      },
      "balanceOf(address)": {
        "details": "See {IERC721-balanceOf}."
      },
      "getApproved(uint256)": {
        "details": "See {IERC721-getApproved}."
      },
      "isApprovedForAll(address,address)": {
        "details": "See {IERC721-isApprovedForAll}."
      },
      "name()": {
        "details": "See {IERC721Metadata-name}."
      },
      "owner()": {
        "details": "Returns the address of the current owner."
      },
      "ownerOf(uint256)": {
        "details": "See {IERC721-ownerOf}."
      },
      "proxiableUUID()": {
        "details": "Implementation of the ERC1822 {proxiableUUID} function. This returns the storage slot used by the implementation. It is used to validate the implementation's compatibility when performing an upgrade. IMPORTANT: A proxy pointing at a proxiable contract should not be considered proxiable itself, because this risks bricking a proxy that upgrades to it, by delegating to itself until out of gas. Thus it is critical that this function revert if invoked through a proxy. This is guaranteed by the `notDelegated` modifier."
      },
      "renounceOwnership()": {
        "details": "Leaves the contract without owner. It will not be possible to call `onlyOwner` functions anymore. Can only be called by the current owner. NOTE: Renouncing ownership will leave the contract without an owner, thereby removing any functionality that is only available to the owner."
      },
      "safeTransferFrom(address,address,uint256)": {
        "details": "See {IERC721-safeTransferFrom}."
      },
      "safeTransferFrom(address,address,uint256,bytes)": {
        "details": "See {IERC721-safeTransferFrom}."
      },
      "setApprovalForAll(address,bool)": {
        "details": "See {IERC721-setApprovalForAll}."
      },
      "supportsInterface(bytes4)": {
        "details": "See {IERC165-supportsInterface}"
      },
      "symbol()": {
        "details": "See {IERC721Metadata-symbol}."
      },
      "tokenURI(uint256)": {
        "details": "See {IERC721Metadata-tokenURI}."
      },
      "transferFrom(address,address,uint256)": {
        "details": "See {IERC721-transferFrom}."
      },
      "transferOwnership(address)": {
        "details": "Transfers ownership of the contract to a new account (`newOwner`). Can only be called by the current owner."
      },
      "upgradeTo(address)": {
        "custom:oz-upgrades-unsafe-allow-reachable": "delegatecall",
        "details": "Upgrade the implementation of the proxy to `newImplementation`. Calls {_authorizeUpgrade}. Emits an {Upgraded} event."
      },
      "upgradeToAndCall(address,bytes)": {
        "custom:oz-upgrades-unsafe-allow-reachable": "delegatecall",
        "details": "Upgrade the implementation of the proxy to `newImplementation`, and subsequently execute the function call encoded in `data`. Calls {_authorizeUpgrade}. Emits an {Upgraded} event."
      }
    },
    "version": 1
  },
  "userdoc": {
    "kind": "user",
    "methods": {},
    "version": 1
  },
  "storageLayout": {
    "storage": [
      {
        "astId": 533,
        "contract": "contracts/staking/LendingPoolStakingV2.sol:LendingPoolStakingV2",
        "label": "_initialized",
        "offset": 0,
        "slot": "0",
        "type": "t_uint8"
      },
      {
        "astId": 536,
        "contract": "contracts/staking/LendingPoolStakingV2.sol:LendingPoolStakingV2",
        "label": "_initializing",
        "offset": 1,
        "slot": "0",
        "type": "t_bool"
      },
      {
        "astId": 2503,
        "contract": "contracts/staking/LendingPoolStakingV2.sol:LendingPoolStakingV2",
        "label": "__gap",
        "offset": 0,
        "slot": "1",
        "type": "t_array(t_uint256)50_storage"
      },
      {
        "astId": 2887,
        "contract": "contracts/staking/LendingPoolStakingV2.sol:LendingPoolStakingV2",
        "label": "__gap",
        "offset": 0,
        "slot": "51",
        "type": "t_array(t_uint256)50_storage"
      },
      {
        "astId": 862,
        "contract": "contracts/staking/LendingPoolStakingV2.sol:LendingPoolStakingV2",
        "label": "_name",
        "offset": 0,
        "slot": "101",
        "type": "t_string_storage"
      },
      {
        "astId": 864,
        "contract": "contracts/staking/LendingPoolStakingV2.sol:LendingPoolStakingV2",
        "label": "_symbol",
        "offset": 0,
        "slot": "102",
        "type": "t_string_storage"
      },
      {
        "astId": 868,
        "contract": "contracts/staking/LendingPoolStakingV2.sol:LendingPoolStakingV2",
        "label": "_owners",
        "offset": 0,
        "slot": "103",
        "type": "t_mapping(t_uint256,t_address)"
      },
      {
        "astId": 872,
        "contract": "contracts/staking/LendingPoolStakingV2.sol:LendingPoolStakingV2",
        "label": "_balances",
        "offset": 0,
        "slot": "104",
        "type": "t_mapping(t_address,t_uint256)"
      },
      {
        "astId": 876,
        "contract": "contracts/staking/LendingPoolStakingV2.sol:LendingPoolStakingV2",
        "label": "_tokenApprovals",
        "offset": 0,
        "slot": "105",
        "type": "t_mapping(t_uint256,t_address)"
      },
      {
        "astId": 882,
        "contract": "contracts/staking/LendingPoolStakingV2.sol:LendingPoolStakingV2",
        "label": "_operatorApprovals",
        "offset": 0,
        "slot": "106",
        "type": "t_mapping(t_address,t_mapping(t_address,t_bool))"
      },
      {
        "astId": 1784,
        "contract": "contracts/staking/LendingPoolStakingV2.sol:LendingPoolStakingV2",
        "label": "__gap",
        "offset": 0,
        "slot": "107",
        "type": "t_array(t_uint256)44_storage"
      },
      {
        "astId": 1939,
        "contract": "contracts/staking/LendingPoolStakingV2.sol:LendingPoolStakingV2",
        "label": "_tokenURIs",
        "offset": 0,
        "slot": "151",
        "type": "t_mapping(t_uint256,t_string_storage)"
      },
      {
        "astId": 2095,
        "contract": "contracts/staking/LendingPoolStakingV2.sol:LendingPoolStakingV2",
        "label": "__gap",
        "offset": 0,
        "slot": "152",
        "type": "t_array(t_uint256)49_storage"
      },
      {
        "astId": 5007,
        "contract": "contracts/staking/LendingPoolStakingV2.sol:LendingPoolStakingV2",
        "label": "_owner",
        "offset": 0,
        "slot": "201",
        "type": "t_address"
      },
      {
        "astId": 5127,
        "contract": "contracts/staking/LendingPoolStakingV2.sol:LendingPoolStakingV2",
        "label": "__gap",
        "offset": 0,
        "slot": "202",
        "type": "t_array(t_uint256)49_storage"
      },
      {
        "astId": 7214,
        "contract": "contracts/staking/LendingPoolStakingV2.sol:LendingPoolStakingV2",
        "label": "testing",
        "offset": 0,
        "slot": "251",
        "type": "t_bool"
      },
      {
        "astId": 5139,
        "contract": "contracts/staking/LendingPoolStakingV2.sol:LendingPoolStakingV2",
        "label": "hasRole",
        "offset": 0,
        "slot": "252",
        "type": "t_mapping(t_address,t_mapping(t_string_memory_ptr,t_bool))"
      },
      {
        "astId": 515,
        "contract": "contracts/staking/LendingPoolStakingV2.sol:LendingPoolStakingV2",
        "label": "__gap",
        "offset": 0,
        "slot": "253",
        "type": "t_array(t_uint256)50_storage"
      },
      {
        "astId": 831,
        "contract": "contracts/staking/LendingPoolStakingV2.sol:LendingPoolStakingV2",
        "label": "__gap",
        "offset": 0,
        "slot": "303",
        "type": "t_array(t_uint256)50_storage"
      },
      {
        "astId": 5344,
        "contract": "contracts/staking/LendingPoolStakingV2.sol:LendingPoolStakingV2",
        "label": "nend",
        "offset": 0,
        "slot": "353",
        "type": "t_address"
      },
      {
        "astId": 5347,
        "contract": "contracts/staking/LendingPoolStakingV2.sol:LendingPoolStakingV2",
        "label": "lendingPool",
        "offset": 0,
        "slot": "354",
        "type": "t_contract(Vault)7873"
      },
      {
        "astId": 5351,
        "contract": "contracts/staking/LendingPoolStakingV2.sol:LendingPoolStakingV2",
        "label": "activeStakeTokens",
        "offset": 0,
        "slot": "355",
        "type": "t_mapping(t_address,t_bool)"
      },
      {
        "astId": 5355,
        "contract": "contracts/staking/LendingPoolStakingV2.sol:LendingPoolStakingV2",
        "label": "inflationRollOver",
        "offset": 0,
        "slot": "356",
        "type": "t_mapping(t_address,t_uint256)"
      },
      {
        "astId": 5358,
        "contract": "contracts/staking/LendingPoolStakingV2.sol:LendingPoolStakingV2",
        "label": "stakeTokens",
        "offset": 0,
        "slot": "357",
        "type": "t_array(t_address)dyn_storage"
      },
      {
        "astId": 5360,
        "contract": "contracts/staking/LendingPoolStakingV2.sol:LendingPoolStakingV2",
        "label": "escrowLockPeriod",
        "offset": 0,
        "slot": "358",
        "type": "t_uint48"
      },
      {
        "astId": 5362,
        "contract": "contracts/staking/LendingPoolStakingV2.sol:LendingPoolStakingV2",
        "label": "stakeTokenCount",
        "offset": 0,
        "slot": "359",
        "type": "t_uint256"
      },
      {
        "astId": 5364,
        "contract": "contracts/staking/LendingPoolStakingV2.sol:LendingPoolStakingV2",
        "label": "ongoingStakeCount",
        "offset": 0,
        "slot": "360",
        "type": "t_uint256"
      },
      {
        "astId": 5368,
        "contract": "contracts/staking/LendingPoolStakingV2.sol:LendingPoolStakingV2",
        "label": "ifpTokenToAmount",
        "offset": 0,
        "slot": "361",
        "type": "t_mapping(t_address,t_uint256)"
      },
      {
        "astId": 5374,
        "contract": "contracts/staking/LendingPoolStakingV2.sol:LendingPoolStakingV2",
        "label": "userToStakeTokenToLastEscrowId",
        "offset": 0,
        "slot": "362",
        "type": "t_mapping(t_address,t_mapping(t_address,t_uint256))"
      },
      {
        "astId": 5380,
        "contract": "contracts/staking/LendingPoolStakingV2.sol:LendingPoolStakingV2",
        "label": "lastEscrowRewardByToken_Duration",
        "offset": 0,
        "slot": "363",
        "type": "t_mapping(t_address,t_mapping(t_uint8,t_uint256))"
      },
      {
        "astId": 5384,
        "contract": "contracts/staking/LendingPoolStakingV2.sol:LendingPoolStakingV2",
        "label": "_oldStakes",
        "offset": 0,
        "slot": "364",
        "type": "t_array(t_struct(Stake)7128_storage)dyn_storage"
      },
      {
        "astId": 5388,
        "contract": "contracts/staking/LendingPoolStakingV2.sol:LendingPoolStakingV2",
        "label": "stakeDurations",
        "offset": 0,
        "slot": "365",
        "type": "t_array(t_uint48)3_storage"
      },
      {
        "astId": 5394,
        "contract": "contracts/staking/LendingPoolStakingV2.sol:LendingPoolStakingV2",
        "label": "totalStakedByToken_Duration",
        "offset": 0,
        "slot": "366",
        "type": "t_mapping(t_address,t_mapping(t_uint8,t_uint256))"
      },
      {
        "astId": 5398,
        "contract": "contracts/staking/LendingPoolStakingV2.sol:LendingPoolStakingV2",
        "label": "rewardAllocations",
        "offset": 0,
        "slot": "367",
        "type": "t_array(t_uint8)3_storage"
      },
      {
        "astId": 5400,
        "contract": "contracts/staking/LendingPoolStakingV2.sol:LendingPoolStakingV2",
        "label": "poolRollOver",
        "offset": 0,
        "slot": "368",
        "type": "t_uint256"
      },
      {
        "astId": 5405,
        "contract": "contracts/staking/LendingPoolStakingV2.sol:LendingPoolStakingV2",
        "label": "stakes",
        "offset": 0,
        "slot": "369",
        "type": "t_mapping(t_uint256,t_struct(Stake)7128_storage)"
      },
      {
        "astId": 5408,
        "contract": "contracts/staking/LendingPoolStakingV2.sol:LendingPoolStakingV2",
        "label": "nextStakeId",
        "offset": 0,
        "slot": "370",
        "type": "t_uint256"
      },
      {
        "astId": 5412,
        "contract": "contracts/staking/LendingPoolStakingV2.sol:LendingPoolStakingV2",
        "label": "isActiveStake",
        "offset": 0,
        "slot": "371",
        "type": "t_mapping(t_uint256,t_bool)"
      },
      {
        "astId": 5415,
        "contract": "contracts/staking/LendingPoolStakingV2.sol:LendingPoolStakingV2",
        "label": "activeStakeIds",
        "offset": 0,
        "slot": "372",
        "type": "t_array(t_uint256)dyn_storage"
      },
      {
        "astId": 5417,
        "contract": "contracts/staking/LendingPoolStakingV2.sol:LendingPoolStakingV2",
        "label": "migrationCompleted",
        "offset": 0,
        "slot": "373",
        "type": "t_bool"
      }
    ],
    "types": {
      "t_address": {
        "encoding": "inplace",
        "label": "address",
        "numberOfBytes": "20"
      },
      "t_array(t_address)dyn_storage": {
        "base": "t_address",
        "encoding": "dynamic_array",
        "label": "address[]",
        "numberOfBytes": "32"
      },
      "t_array(t_struct(Stake)7128_storage)dyn_storage": {
        "base": "t_struct(Stake)7128_storage",
        "encoding": "dynamic_array",
        "label": "struct ILendingPoolStaking.Stake[]",
        "numberOfBytes": "32"
      },
      "t_array(t_uint256)3_storage": {
        "base": "t_uint256",
        "encoding": "inplace",
        "label": "uint256[3]",
        "numberOfBytes": "96"
      },
      "t_array(t_uint256)44_storage": {
        "base": "t_uint256",
        "encoding": "inplace",
        "label": "uint256[44]",
        "numberOfBytes": "1408"
      },
      "t_array(t_uint256)49_storage": {
        "base": "t_uint256",
        "encoding": "inplace",
        "label": "uint256[49]",
        "numberOfBytes": "1568"
      },
      "t_array(t_uint256)50_storage": {
        "base": "t_uint256",
        "encoding": "inplace",
        "label": "uint256[50]",
        "numberOfBytes": "1600"
      },
      "t_array(t_uint256)dyn_storage": {
        "base": "t_uint256",
        "encoding": "dynamic_array",
        "label": "uint256[]",
        "numberOfBytes": "32"
      },
      "t_array(t_uint48)3_storage": {
        "base": "t_uint48",
        "encoding": "inplace",
        "label": "uint48[3]",
        "numberOfBytes": "32"
      },
      "t_array(t_uint8)3_storage": {
        "base": "t_uint8",
        "encoding": "inplace",
        "label": "uint8[3]",
        "numberOfBytes": "32"
      },
      "t_bool": {
        "encoding": "inplace",
        "label": "bool",
        "numberOfBytes": "1"
      },
      "t_contract(Vault)7873": {
        "encoding": "inplace",
        "label": "contract Vault",
        "numberOfBytes": "20"
      },
      "t_enum(EscrowStatus)7105": {
        "encoding": "inplace",
        "label": "enum ILendingPoolStaking.EscrowStatus",
        "numberOfBytes": "1"
      },
      "t_enum(StakeStatus)7101": {
        "encoding": "inplace",
        "label": "enum ILendingPoolStaking.StakeStatus",
        "numberOfBytes": "1"
      },
      "t_mapping(t_address,t_bool)": {
        "encoding": "mapping",
        "key": "t_address",
        "label": "mapping(address => bool)",
        "numberOfBytes": "32",
        "value": "t_bool"
      },
      "t_mapping(t_address,t_mapping(t_address,t_bool))": {
        "encoding": "mapping",
        "key": "t_address",
        "label": "mapping(address => mapping(address => bool))",
        "numberOfBytes": "32",
        "value": "t_mapping(t_address,t_bool)"
      },
      "t_mapping(t_address,t_mapping(t_address,t_uint256))": {
        "encoding": "mapping",
        "key": "t_address",
        "label": "mapping(address => mapping(address => uint256))",
        "numberOfBytes": "32",
        "value": "t_mapping(t_address,t_uint256)"
      },
      "t_mapping(t_address,t_mapping(t_string_memory_ptr,t_bool))": {
        "encoding": "mapping",
        "key": "t_address",
        "label": "mapping(address => mapping(string => bool))",
        "numberOfBytes": "32",
        "value": "t_mapping(t_string_memory_ptr,t_bool)"
      },
      "t_mapping(t_address,t_mapping(t_uint8,t_uint256))": {
        "encoding": "mapping",
        "key": "t_address",
        "label": "mapping(address => mapping(uint8 => uint256))",
        "numberOfBytes": "32",
        "value": "t_mapping(t_uint8,t_uint256)"
      },
      "t_mapping(t_address,t_uint256)": {
        "encoding": "mapping",
        "key": "t_address",
        "label": "mapping(address => uint256)",
        "numberOfBytes": "32",
        "value": "t_uint256"
      },
      "t_mapping(t_string_memory_ptr,t_bool)": {
        "encoding": "mapping",
        "key": "t_string_memory_ptr",
        "label": "mapping(string => bool)",
        "numberOfBytes": "32",
        "value": "t_bool"
      },
      "t_mapping(t_uint256,t_address)": {
        "encoding": "mapping",
        "key": "t_uint256",
        "label": "mapping(uint256 => address)",
        "numberOfBytes": "32",
        "value": "t_address"
      },
      "t_mapping(t_uint256,t_bool)": {
        "encoding": "mapping",
        "key": "t_uint256",
        "label": "mapping(uint256 => bool)",
        "numberOfBytes": "32",
        "value": "t_bool"
      },
      "t_mapping(t_uint256,t_string_storage)": {
        "encoding": "mapping",
        "key": "t_uint256",
        "label": "mapping(uint256 => string)",
        "numberOfBytes": "32",
        "value": "t_string_storage"
      },
      "t_mapping(t_uint256,t_struct(Stake)7128_storage)": {
        "encoding": "mapping",
        "key": "t_uint256",
        "label": "mapping(uint256 => struct ILendingPoolStaking.Stake)",
        "numberOfBytes": "32",
        "value": "t_struct(Stake)7128_storage"
      },
      "t_mapping(t_uint8,t_uint256)": {
        "encoding": "mapping",
        "key": "t_uint8",
        "label": "mapping(uint8 => uint256)",
        "numberOfBytes": "32",
        "value": "t_uint256"
      },
      "t_string_memory_ptr": {
        "encoding": "bytes",
        "label": "string",
        "numberOfBytes": "32"
      },
      "t_string_storage": {
        "encoding": "bytes",
        "label": "string",
        "numberOfBytes": "32"
      },
      "t_struct(Stake)7128_storage": {
        "encoding": "inplace",
        "label": "struct ILendingPoolStaking.Stake",
        "members": [
          {
            "astId": 7107,
            "contract": "contracts/staking/LendingPoolStakingV2.sol:LendingPoolStakingV2",
            "label": "staker",
            "offset": 0,
            "slot": "0",
            "type": "t_address"
          },
          {
            "astId": 7109,
            "contract": "contracts/staking/LendingPoolStakingV2.sol:LendingPoolStakingV2",
            "label": "token",
            "offset": 0,
            "slot": "1",
            "type": "t_address"
          },
          {
            "astId": 7111,
            "contract": "contracts/staking/LendingPoolStakingV2.sol:LendingPoolStakingV2",
            "label": "start",
            "offset": 20,
            "slot": "1",
            "type": "t_uint48"
          },
          {
            "astId": 7113,
            "contract": "contracts/staking/LendingPoolStakingV2.sol:LendingPoolStakingV2",
            "label": "end",
            "offset": 26,
            "slot": "1",
            "type": "t_uint48"
          },
          {
            "astId": 7117,
            "contract": "contracts/staking/LendingPoolStakingV2.sol:LendingPoolStakingV2",
            "label": "amountsPerDuration",
            "offset": 0,
            "slot": "2",
            "type": "t_array(t_uint256)3_storage"
          },
          {
            "astId": 7119,
            "contract": "contracts/staking/LendingPoolStakingV2.sol:LendingPoolStakingV2",
            "label": "rewardAllocated",
            "offset": 0,
            "slot": "5",
            "type": "t_uint256"
          },
          {
            "astId": 7121,
            "contract": "contracts/staking/LendingPoolStakingV2.sol:LendingPoolStakingV2",
            "label": "isEscrow",
            "offset": 0,
            "slot": "6",
            "type": "t_bool"
          },
          {
            "astId": 7124,
            "contract": "contracts/staking/LendingPoolStakingV2.sol:LendingPoolStakingV2",
            "label": "escrowStatus",
            "offset": 1,
            "slot": "6",
            "type": "t_enum(EscrowStatus)7105"
          },
          {
            "astId": 7127,
            "contract": "contracts/staking/LendingPoolStakingV2.sol:LendingPoolStakingV2",
            "label": "stakeStatus",
            "offset": 2,
            "slot": "6",
            "type": "t_enum(StakeStatus)7101"
          }
        ],
        "numberOfBytes": "224"
      },
      "t_uint256": {
        "encoding": "inplace",
        "label": "uint256",
        "numberOfBytes": "32"
      },
      "t_uint48": {
        "encoding": "inplace",
        "label": "uint48",
        "numberOfBytes": "6"
      },
      "t_uint8": {
        "encoding": "inplace",
        "label": "uint8",
        "numberOfBytes": "1"
      }
    }
  }
}