{
  "address": "0xE483C3FE3E5158BF2Fa605aea1Ee5e7112208Bac",
  "abi": [
    {
      "inputs": [],
      "name": "InsufficientBalance",
      "type": "error"
    },
    {
      "inputs": [
        {
          "internalType": "string",
          "name": "details",
          "type": "string"
        }
      ],
      "name": "InvalidArgument",
      "type": "error"
    },
    {
      "inputs": [],
      "name": "InvalidState",
      "type": "error"
    },
    {
      "inputs": [],
      "name": "Unauthorized",
      "type": "error"
    },
    {
      "anonymous": false,
      "inputs": [
        {
          "indexed": false,
          "internalType": "address",
          "name": "previousAdmin",
          "type": "address"
        },
        {
          "indexed": false,
          "internalType": "address",
          "name": "newAdmin",
          "type": "address"
        }
      ],
      "name": "AdminChanged",
      "type": "event"
    },
    {
      "anonymous": false,
      "inputs": [
        {
          "indexed": true,
          "internalType": "address",
          "name": "owner",
          "type": "address"
        },
        {
          "indexed": true,
          "internalType": "address",
          "name": "approved",
          "type": "address"
        },
        {
          "indexed": true,
          "internalType": "uint256",
          "name": "tokenId",
          "type": "uint256"
        }
      ],
      "name": "Approval",
      "type": "event"
    },
    {
      "anonymous": false,
      "inputs": [
        {
          "indexed": true,
          "internalType": "address",
          "name": "owner",
          "type": "address"
        },
        {
          "indexed": true,
          "internalType": "address",
          "name": "operator",
          "type": "address"
        },
        {
          "indexed": false,
          "internalType": "bool",
          "name": "approved",
          "type": "bool"
        }
      ],
      "name": "ApprovalForAll",
      "type": "event"
    },
    {
      "anonymous": false,
      "inputs": [
        {
          "indexed": false,
          "internalType": "uint256",
          "name": "_fromTokenId",
          "type": "uint256"
        },
        {
          "indexed": false,
          "internalType": "uint256",
          "name": "_toTokenId",
          "type": "uint256"
        }
      ],
      "name": "BatchMetadataUpdate",
      "type": "event"
    },
    {
      "anonymous": false,
      "inputs": [
        {
          "indexed": true,
          "internalType": "address",
          "name": "beacon",
          "type": "address"
        }
      ],
      "name": "BeaconUpgraded",
      "type": "event"
    },
    {
      "anonymous": false,
      "inputs": [
        {
          "indexed": false,
          "internalType": "uint256",
          "name": "stakeId",
          "type": "uint256"
        },
        {
          "indexed": false,
          "internalType": "enum ILendingPoolStaking.EscrowStatus",
          "name": "status",
          "type": "uint8"
        }
      ],
      "name": "EscrowStatusChanged",
      "type": "event"
    },
    {
      "anonymous": false,
      "inputs": [
        {
          "indexed": false,
          "internalType": "uint256",
          "name": "stakeId",
          "type": "uint256"
        },
        {
          "indexed": false,
          "internalType": "address",
          "name": "staker",
          "type": "address"
        },
        {
          "indexed": false,
          "internalType": "address",
          "name": "token",
          "type": "address"
        },
        {
          "indexed": false,
          "internalType": "uint48",
          "name": "start",
          "type": "uint48"
        },
        {
          "indexed": false,
          "internalType": "uint48",
          "name": "end",
          "type": "uint48"
        },
        {
          "indexed": false,
          "internalType": "uint256[3]",
          "name": "amountsPerDuration",
          "type": "uint256[3]"
        },
        {
          "indexed": false,
          "internalType": "uint256",
          "name": "rewardAllocated",
          "type": "uint256"
        },
        {
          "indexed": false,
          "internalType": "bool",
          "name": "isEscrow",
          "type": "bool"
        },
        {
          "indexed": false,
          "internalType": "enum ILendingPoolStaking.EscrowStatus",
          "name": "escrowStatus",
          "type": "uint8"
        },
        {
          "indexed": false,
          "internalType": "enum ILendingPoolStaking.StakeStatus",
          "name": "stakeStatus",
          "type": "uint8"
        }
      ],
      "name": "InPutParam",
      "type": "event"
    },
    {
      "anonymous": false,
      "inputs": [],
      "name": "InflationRewardDistributed",
      "type": "event"
    },
    {
      "anonymous": false,
      "inputs": [
        {
          "indexed": false,
          "internalType": "uint8",
          "name": "version",
          "type": "uint8"
        }
      ],
      "name": "Initialized",
      "type": "event"
    },
    {
      "anonymous": false,
      "inputs": [
        {
          "indexed": false,
          "internalType": "uint256",
          "name": "_tokenId",
          "type": "uint256"
        }
      ],
      "name": "MetadataUpdate",
      "type": "event"
    },
    {
      "anonymous": false,
      "inputs": [],
      "name": "NonInflationRewardDistributed",
      "type": "event"
    },
    {
      "anonymous": false,
      "inputs": [
        {
          "indexed": false,
          "internalType": "uint256",
          "name": "clearedStakes",
          "type": "uint256"
        }
      ],
      "name": "OldStakesCleared",
      "type": "event"
    },
    {
      "anonymous": false,
      "inputs": [
        {
          "indexed": true,
          "internalType": "address",
          "name": "previousOwner",
          "type": "address"
        },
        {
          "indexed": true,
          "internalType": "address",
          "name": "newOwner",
          "type": "address"
        }
      ],
      "name": "OwnershipTransferred",
      "type": "event"
    },
    {
      "anonymous": false,
      "inputs": [
        {
          "indexed": false,
          "internalType": "uint256",
          "name": "stakedMigrated",
          "type": "uint256"
        }
      ],
      "name": "StakeMigrationCompleted",
      "type": "event"
    },
    {
      "anonymous": false,
      "inputs": [
        {
          "indexed": false,
          "internalType": "uint256",
          "name": "stakeId",
          "type": "uint256"
        },
        {
          "indexed": false,
          "internalType": "enum ILendingPoolStaking.StakeStatus",
          "name": "status",
          "type": "uint8"
        }
      ],
      "name": "StakeStatusChanged",
      "type": "event"
    },
    {
      "anonymous": false,
      "inputs": [
        {
          "indexed": false,
          "internalType": "uint256",
          "name": "stakeId",
          "type": "uint256"
        },
        {
          "indexed": false,
          "internalType": "address",
          "name": "staker",
          "type": "address"
        },
        {
          "indexed": false,
          "internalType": "address",
          "name": "token",
          "type": "address"
        },
        {
          "indexed": false,
          "internalType": "uint48",
          "name": "start",
          "type": "uint48"
        },
        {
          "indexed": false,
          "internalType": "uint48",
          "name": "end",
          "type": "uint48"
        },
        {
          "indexed": false,
          "internalType": "uint256[3]",
          "name": "amountsPerDuration",
          "type": "uint256[3]"
        },
        {
          "indexed": false,
          "internalType": "bool",
          "name": "isEscrow",
          "type": "bool"
        }
      ],
      "name": "Staked",
      "type": "event"
    },
    {
      "anonymous": false,
      "inputs": [
        {
          "indexed": true,
          "internalType": "address",
          "name": "from",
          "type": "address"
        },
        {
          "indexed": true,
          "internalType": "address",
          "name": "to",
          "type": "address"
        },
        {
          "indexed": true,
          "internalType": "uint256",
          "name": "tokenId",
          "type": "uint256"
        }
      ],
      "name": "Transfer",
      "type": "event"
    },
    {
      "anonymous": false,
      "inputs": [
        {
          "indexed": true,
          "internalType": "address",
          "name": "implementation",
          "type": "address"
        }
      ],
      "name": "Upgraded",
      "type": "event"
    },
    {
      "inputs": [],
      "name": "__Testing_init",
      "outputs": [],
      "stateMutability": "nonpayable",
      "type": "function"
    },
    {
      "inputs": [
        {
          "internalType": "uint256",
          "name": "",
          "type": "uint256"
        }
      ],
      "name": "activeStakeIndices",
      "outputs": [
        {
          "internalType": "uint256",
          "name": "",
          "type": "uint256"
        }
      ],
      "stateMutability": "view",
      "type": "function"
    },
    {
      "inputs": [
        {
          "internalType": "address",
          "name": "",
          "type": "address"
        }
      ],
      "name": "activeStakeTokens",
      "outputs": [
        {
          "internalType": "bool",
          "name": "",
          "type": "bool"
        }
      ],
      "stateMutability": "view",
      "type": "function"
    },
    {
      "inputs": [
        {
          "internalType": "uint256",
          "name": "",
          "type": "uint256"
        }
      ],
      "name": "activeStakesById",
      "outputs": [
        {
          "internalType": "uint256",
          "name": "",
          "type": "uint256"
        }
      ],
      "stateMutability": "view",
      "type": "function"
    },
    {
      "inputs": [],
      "name": "activeStakesCount",
      "outputs": [
        {
          "internalType": "uint256",
          "name": "",
          "type": "uint256"
        }
      ],
      "stateMutability": "view",
      "type": "function"
    },
    {
      "inputs": [
        {
          "internalType": "address",
          "name": "_stakeToken",
          "type": "address"
        }
      ],
      "name": "addStakeToken",
      "outputs": [],
      "stateMutability": "nonpayable",
      "type": "function"
    },
    {
      "inputs": [
        {
          "internalType": "address",
          "name": "to",
          "type": "address"
        },
        {
          "internalType": "uint256",
          "name": "tokenId",
          "type": "uint256"
        }
      ],
      "name": "approve",
      "outputs": [],
      "stateMutability": "nonpayable",
      "type": "function"
    },
    {
      "inputs": [
        {
          "internalType": "address",
          "name": "operator",
          "type": "address"
        },
        {
          "internalType": "string",
          "name": "role",
          "type": "string"
        },
        {
          "internalType": "bool",
          "name": "authorized",
          "type": "bool"
        }
      ],
      "name": "authorize",
      "outputs": [],
      "stateMutability": "nonpayable",
      "type": "function"
    },
    {
      "inputs": [
        {
          "internalType": "address",
          "name": "owner",
          "type": "address"
        }
      ],
      "name": "balanceOf",
      "outputs": [
        {
          "internalType": "uint256",
          "name": "",
          "type": "uint256"
        }
      ],
      "stateMutability": "view",
      "type": "function"
    },
    {
      "inputs": [],
      "name": "clearOldStakesStorage",
      "outputs": [],
      "stateMutability": "nonpayable",
      "type": "function"
    },
    {
      "inputs": [
        {
          "internalType": "address",
          "name": "_token",
          "type": "address"
        },
        {
          "internalType": "uint256",
          "name": "_amount",
          "type": "uint256"
        },
        {
          "internalType": "uint8",
          "name": "_durationId",
          "type": "uint8"
        }
      ],
      "name": "deposit",
      "outputs": [],
      "stateMutability": "payable",
      "type": "function"
    },
    {
      "inputs": [
        {
          "internalType": "uint256",
          "name": "_inflationReward",
          "type": "uint256"
        }
      ],
      "name": "distributeInflationRewards",
      "outputs": [],
      "stateMutability": "nonpayable",
      "type": "function"
    },
    {
      "inputs": [],
      "name": "distributeNonInflationRewards",
      "outputs": [],
      "stateMutability": "nonpayable",
      "type": "function"
    },
    {
      "inputs": [],
      "name": "escrowLockPeriod",
      "outputs": [
        {
          "internalType": "uint48",
          "name": "",
          "type": "uint48"
        }
      ],
      "stateMutability": "view",
      "type": "function"
    },
    {
      "inputs": [
        {
          "internalType": "uint256",
          "name": "tokenId",
          "type": "uint256"
        }
      ],
      "name": "getApproved",
      "outputs": [
        {
          "internalType": "address",
          "name": "",
          "type": "address"
        }
      ],
      "stateMutability": "view",
      "type": "function"
    },
    {
      "inputs": [],
      "name": "hasPendingNonInflationRewards",
      "outputs": [
        {
          "internalType": "bool",
          "name": "",
          "type": "bool"
        }
      ],
      "stateMutability": "view",
      "type": "function"
    },
    {
      "inputs": [
        {
          "internalType": "address",
          "name": "",
          "type": "address"
        },
        {
          "internalType": "string",
          "name": "",
          "type": "string"
        }
      ],
      "name": "hasRole",
      "outputs": [
        {
          "internalType": "bool",
          "name": "",
          "type": "bool"
        }
      ],
      "stateMutability": "view",
      "type": "function"
    },
    {
      "inputs": [
        {
          "components": [
            {
              "internalType": "address",
              "name": "staker",
              "type": "address"
            },
            {
              "internalType": "address",
              "name": "token",
              "type": "address"
            },
            {
              "internalType": "uint48",
              "name": "start",
              "type": "uint48"
            },
            {
              "internalType": "uint48",
              "name": "end",
              "type": "uint48"
            },
            {
              "internalType": "uint256[3]",
              "name": "amountsPerDuration",
              "type": "uint256[3]"
            },
            {
              "internalType": "uint256",
              "name": "rewardAllocated",
              "type": "uint256"
            },
            {
              "internalType": "bool",
              "name": "isEscrow",
              "type": "bool"
            },
            {
              "internalType": "enum ILendingPoolStaking.EscrowStatus",
              "name": "escrowStatus",
              "type": "uint8"
            },
            {
              "internalType": "enum ILendingPoolStaking.StakeStatus",
              "name": "stakeStatus",
              "type": "uint8"
            }
          ],
          "internalType": "struct ILendingPoolStaking.Stake[]",
          "name": "_stakesToImport",
          "type": "tuple[]"
        },
        {
          "internalType": "uint256[]",
          "name": "_stakeIds",
          "type": "uint256[]"
        }
      ],
      "name": "importStakes",
      "outputs": [],
      "stateMutability": "nonpayable",
      "type": "function"
    },
    {
      "inputs": [
        {
          "internalType": "address",
          "name": "",
          "type": "address"
        }
      ],
      "name": "inflationRollOver",
      "outputs": [
        {
          "internalType": "uint256",
          "name": "",
          "type": "uint256"
        }
      ],
      "stateMutability": "view",
      "type": "function"
    },
    {
      "inputs": [
        {
          "internalType": "address",
          "name": "_nend",
          "type": "address"
        },
        {
          "internalType": "contract Vault",
          "name": "_lendingPool",
          "type": "address"
        }
      ],
      "name": "initialize",
      "outputs": [],
      "stateMutability": "nonpayable",
      "type": "function"
    },
    {
      "inputs": [
        {
          "internalType": "uint256",
          "name": "",
          "type": "uint256"
        }
      ],
      "name": "isActiveStake",
      "outputs": [
        {
          "internalType": "bool",
          "name": "",
          "type": "bool"
        }
      ],
      "stateMutability": "view",
      "type": "function"
    },
    {
      "inputs": [
        {
          "internalType": "address",
          "name": "owner",
          "type": "address"
        },
        {
          "internalType": "address",
          "name": "operator",
          "type": "address"
        }
      ],
      "name": "isApprovedForAll",
      "outputs": [
        {
          "internalType": "bool",
          "name": "",
          "type": "bool"
        }
      ],
      "stateMutability": "view",
      "type": "function"
    },
    {
      "inputs": [
        {
          "internalType": "uint256",
          "name": "_stakeId",
          "type": "uint256"
        }
      ],
      "name": "issueEAB",
      "outputs": [],
      "stateMutability": "nonpayable",
      "type": "function"
    },
    {
      "inputs": [
        {
          "internalType": "address",
          "name": "",
          "type": "address"
        },
        {
          "internalType": "uint8",
          "name": "",
          "type": "uint8"
        }
      ],
      "name": "lastEscrowRewardByToken_Duration",
      "outputs": [
        {
          "internalType": "uint256",
          "name": "",
          "type": "uint256"
        }
      ],
      "stateMutability": "view",
      "type": "function"
    },
    {
      "inputs": [],
      "name": "lendingPool",
      "outputs": [
        {
          "internalType": "contract Vault",
          "name": "",
          "type": "address"
        }
      ],
      "stateMutability": "view",
      "type": "function"
    },
    {
      "inputs": [],
      "name": "migrateStakesToMapping",
      "outputs": [],
      "stateMutability": "nonpayable",
      "type": "function"
    },
    {
      "inputs": [],
      "name": "migrationCompleted",
      "outputs": [
        {
          "internalType": "bool",
          "name": "",
          "type": "bool"
        }
      ],
      "stateMutability": "view",
      "type": "function"
    },
    {
      "inputs": [],
      "name": "name",
      "outputs": [
        {
          "internalType": "string",
          "name": "",
          "type": "string"
        }
      ],
      "stateMutability": "view",
      "type": "function"
    },
    {
      "inputs": [],
      "name": "nend",
      "outputs": [
        {
          "internalType": "address",
          "name": "",
          "type": "address"
        }
      ],
      "stateMutability": "view",
      "type": "function"
    },
    {
      "inputs": [],
      "name": "nextStakeId",
      "outputs": [
        {
          "internalType": "uint256",
          "name": "",
          "type": "uint256"
        }
      ],
      "stateMutability": "view",
      "type": "function"
    },
    {
      "inputs": [],
      "name": "ongoingStakeCount",
      "outputs": [
        {
          "internalType": "uint256",
          "name": "",
          "type": "uint256"
        }
      ],
      "stateMutability": "view",
      "type": "function"
    },
    {
      "inputs": [],
      "name": "owner",
      "outputs": [
        {
          "internalType": "address",
          "name": "",
          "type": "address"
        }
      ],
      "stateMutability": "view",
      "type": "function"
    },
    {
      "inputs": [
        {
          "internalType": "uint256",
          "name": "tokenId",
          "type": "uint256"
        }
      ],
      "name": "ownerOf",
      "outputs": [
        {
          "internalType": "address",
          "name": "",
          "type": "address"
        }
      ],
      "stateMutability": "view",
      "type": "function"
    },
    {
      "inputs": [],
      "name": "poolRollOver",
      "outputs": [
        {
          "internalType": "uint256",
          "name": "",
          "type": "uint256"
        }
      ],
      "stateMutability": "view",
      "type": "function"
    },
    {
      "inputs": [],
      "name": "proxiableUUID",
      "outputs": [
        {
          "internalType": "bytes32",
          "name": "",
          "type": "bytes32"
        }
      ],
      "stateMutability": "view",
      "type": "function"
    },
    {
      "inputs": [
        {
          "internalType": "address",
          "name": "_stakeToken",
          "type": "address"
        }
      ],
      "name": "removeStakeToken",
      "outputs": [],
      "stateMutability": "nonpayable",
      "type": "function"
    },
    {
      "inputs": [],
      "name": "renounceOwnership",
      "outputs": [],
      "stateMutability": "nonpayable",
      "type": "function"
    },
    {
      "inputs": [
        {
          "internalType": "uint256",
          "name": "_activeIdCount",
          "type": "uint256"
        }
      ],
      "name": "resetActiveStakeIds",
      "outputs": [],
      "stateMutability": "nonpayable",
      "type": "function"
    },
    {
      "inputs": [
        {
          "internalType": "uint256",
          "name": "",
          "type": "uint256"
        }
      ],
      "name": "rewardAllocations",
      "outputs": [
        {
          "internalType": "uint8",
          "name": "",
          "type": "uint8"
        }
      ],
      "stateMutability": "view",
      "type": "function"
    },
    {
      "inputs": [
        {
          "internalType": "address",
          "name": "from",
          "type": "address"
        },
        {
          "internalType": "address",
          "name": "to",
          "type": "address"
        },
        {
          "internalType": "uint256",
          "name": "tokenId",
          "type": "uint256"
        }
      ],
      "name": "safeTransferFrom",
      "outputs": [],
      "stateMutability": "nonpayable",
      "type": "function"
    },
    {
      "inputs": [
        {
          "internalType": "address",
          "name": "from",
          "type": "address"
        },
        {
          "internalType": "address",
          "name": "to",
          "type": "address"
        },
        {
          "internalType": "uint256",
          "name": "tokenId",
          "type": "uint256"
        },
        {
          "internalType": "bytes",
          "name": "data",
          "type": "bytes"
        }
      ],
      "name": "safeTransferFrom",
      "outputs": [],
      "stateMutability": "nonpayable",
      "type": "function"
    },
    {
      "inputs": [
        {
          "internalType": "address",
          "name": "operator",
          "type": "address"
        },
        {
          "internalType": "bool",
          "name": "approved",
          "type": "bool"
        }
      ],
      "name": "setApprovalForAll",
      "outputs": [],
      "stateMutability": "nonpayable",
      "type": "function"
    },
    {
      "inputs": [
        {
          "internalType": "uint8[3]",
          "name": "_rewardAllocations",
          "type": "uint8[3]"
        }
      ],
      "name": "setRewardAllocations",
      "outputs": [],
      "stateMutability": "nonpayable",
      "type": "function"
    },
    {
      "inputs": [
        {
          "internalType": "bool",
          "name": "_testing",
          "type": "bool"
        }
      ],
      "name": "setTesting",
      "outputs": [],
      "stateMutability": "nonpayable",
      "type": "function"
    },
    {
      "inputs": [
        {
          "internalType": "uint256",
          "name": "_tokenId",
          "type": "uint256"
        },
        {
          "internalType": "string",
          "name": "_tokenURI",
          "type": "string"
        }
      ],
      "name": "setTokenURI",
      "outputs": [],
      "stateMutability": "nonpayable",
      "type": "function"
    },
    {
      "inputs": [
        {
          "internalType": "uint256",
          "name": "",
          "type": "uint256"
        }
      ],
      "name": "stakeDurations",
      "outputs": [
        {
          "internalType": "uint48",
          "name": "",
          "type": "uint48"
        }
      ],
      "stateMutability": "view",
      "type": "function"
    },
    {
      "inputs": [
        {
          "internalType": "uint256",
          "name": "_stakeId",
          "type": "uint256"
        }
      ],
      "name": "stakeEscrowedReward",
      "outputs": [],
      "stateMutability": "nonpayable",
      "type": "function"
    },
    {
      "inputs": [],
      "name": "stakeTokenCount",
      "outputs": [
        {
          "internalType": "uint256",
          "name": "",
          "type": "uint256"
        }
      ],
      "stateMutability": "view",
      "type": "function"
    },
    {
      "inputs": [
        {
          "internalType": "uint256",
          "name": "",
          "type": "uint256"
        }
      ],
      "name": "stakeTokens",
      "outputs": [
        {
          "internalType": "address",
          "name": "",
          "type": "address"
        }
      ],
      "stateMutability": "view",
      "type": "function"
    },
    {
      "inputs": [
        {
          "internalType": "uint256",
          "name": "",
          "type": "uint256"
        }
      ],
      "name": "stakes",
      "outputs": [
        {
          "internalType": "address",
          "name": "staker",
          "type": "address"
        },
        {
          "internalType": "address",
          "name": "token",
          "type": "address"
        },
        {
          "internalType": "uint48",
          "name": "start",
          "type": "uint48"
        },
        {
          "internalType": "uint48",
          "name": "end",
          "type": "uint48"
        },
        {
          "internalType": "uint256",
          "name": "rewardAllocated",
          "type": "uint256"
        },
        {
          "internalType": "bool",
          "name": "isEscrow",
          "type": "bool"
        },
        {
          "internalType": "enum ILendingPoolStaking.EscrowStatus",
          "name": "escrowStatus",
          "type": "uint8"
        },
        {
          "internalType": "enum ILendingPoolStaking.StakeStatus",
          "name": "stakeStatus",
          "type": "uint8"
        }
      ],
      "stateMutability": "view",
      "type": "function"
    },
    {
      "inputs": [
        {
          "internalType": "bytes4",
          "name": "interfaceId",
          "type": "bytes4"
        }
      ],
      "name": "supportsInterface",
      "outputs": [
        {
          "internalType": "bool",
          "name": "",
          "type": "bool"
        }
      ],
      "stateMutability": "view",
      "type": "function"
    },
    {
      "inputs": [],
      "name": "symbol",
      "outputs": [
        {
          "internalType": "string",
          "name": "",
          "type": "string"
        }
      ],
      "stateMutability": "view",
      "type": "function"
    },
    {
      "inputs": [],
      "name": "testing",
      "outputs": [
        {
          "internalType": "bool",
          "name": "",
          "type": "bool"
        }
      ],
      "stateMutability": "view",
      "type": "function"
    },
    {
      "inputs": [
        {
          "internalType": "uint256",
          "name": "tokenId",
          "type": "uint256"
        }
      ],
      "name": "tokenURI",
      "outputs": [
        {
          "internalType": "string",
          "name": "",
          "type": "string"
        }
      ],
      "stateMutability": "view",
      "type": "function"
    },
    {
      "inputs": [
        {
          "internalType": "address",
          "name": "",
          "type": "address"
        },
        {
          "internalType": "uint8",
          "name": "",
          "type": "uint8"
        }
      ],
      "name": "totalStakedByToken_Duration",
      "outputs": [
        {
          "internalType": "uint256",
          "name": "",
          "type": "uint256"
        }
      ],
      "stateMutability": "view",
      "type": "function"
    },
    {
      "inputs": [
        {
          "internalType": "address",
          "name": "from",
          "type": "address"
        },
        {
          "internalType": "address",
          "name": "to",
          "type": "address"
        },
        {
          "internalType": "uint256",
          "name": "tokenId",
          "type": "uint256"
        }
      ],
      "name": "transferFrom",
      "outputs": [],
      "stateMutability": "nonpayable",
      "type": "function"
    },
    {
      "inputs": [
        {
          "internalType": "address",
          "name": "newOwner",
          "type": "address"
        }
      ],
      "name": "transferOwnership",
      "outputs": [],
      "stateMutability": "nonpayable",
      "type": "function"
    },
    {
      "inputs": [
        {
          "internalType": "uint256",
          "name": "_stakeId",
          "type": "uint256"
        }
      ],
      "name": "unstake",
      "outputs": [],
      "stateMutability": "nonpayable",
      "type": "function"
    },
    {
      "inputs": [
        {
          "internalType": "address",
          "name": "newImplementation",
          "type": "address"
        }
      ],
      "name": "upgradeTo",
      "outputs": [],
      "stateMutability": "nonpayable",
      "type": "function"
    },
    {
      "inputs": [
        {
          "internalType": "address",
          "name": "newImplementation",
          "type": "address"
        },
        {
          "internalType": "bytes",
          "name": "data",
          "type": "bytes"
        }
      ],
      "name": "upgradeToAndCall",
      "outputs": [],
      "stateMutability": "payable",
      "type": "function"
    }
  ],
  "transactionHash": "0xf4e7886806c6a1bd9eb00173566f842663304b0460f0ed60d894b7b75465b165",
  "args": [],
  "numDeployments": 14,
  "solcInputHash": "0916601fd1c890a80596ef0ee9aba7f0",
  "bytecode": "0x60a0604052346200011e576000546200003260ff8260081c1615809281936200010f575b8115620000ec575b5062000123565b8062000046600160ff196000541617600055565b620000d1575b6200005c60ff1960fb541660fb55565b6200008d575b30608052604051615e9190816200018882396080518181816117d001528181611fe901526122ff0152f35b6200009e61ff001960005416600055565b604051600181527f7f26b83ff96e1f2b6a682f133852f6798a09c465da95921460cefb384740249890602090a162000062565b620000e661010061ff00196000541617600055565b6200004c565b303b1591508162000100575b50386200002b565b6001915060ff161438620000f8565b600160ff821610915062000023565b600080fd5b156200012b57565b60405162461bcd60e51b815260206004820152602e60248201527f496e697469616c697a61626c653a20636f6e747261637420697320616c72656160448201526d191e481a5b9a5d1a585b1a5e995960921b6064820152608490fdfe60806040526004361015610013575b600080fd5b60003560e01c806301ffc9a7146104c357806306fdde03146104ba578063081812fc146104b157806308ed8d16146104a8578063095ea7b31461049f578063125cc42f14610496578063162094c41461048d578063166866c7146104845780631fecb71a1461047b578063217fe6c61461047257806323b872dd146104695780632e17de781461046057806331677980146104575780633587e1611461044e5780633659cfe61461044557806339d2525f1461043c5780633c2ee203146104335780633c661b8b1461042a5780633de15c121461042157806342842e0e14610418578063485cc9551461040f5780634f1ef28614610406578063528a9e4d146103fd57806352d1902d146103f457806352f42e36146103eb5780636352211e146103e25780636fd10dc7146103d957806370a08231146103d0578063715018a6146103c757806372a4db4a146103be5780637547c7a3146103b557806375506c96146103ac57806378fecc99146103a3578063829522001461039a578063848778b4146103915780638614c509146103885780638d03b1021461037f5780638da5cb5b146103765780639296328c1461036d57806395d89b41146103645780639ad143de1461035b5780639b45d024146103525780639db5fa6514610349578063a22cb46514610340578063a59a997314610337578063afed7ea61461032e578063b88d4fde14610325578063ba5e4bad1461031c578063bad7edab14610313578063bf0215501461030a578063c436e31814610301578063c87b56dd146102f8578063d2438c2a146102ef578063d5a44f86146102e6578063de3e3eff146102dd578063e25b7d82146102d4578063e985e9c5146102cb578063ef7bd7f3146102c2578063f19ed6be146102b95763f2fde38b146102b157600080fd5b61000e613486565b5061000e61303e565b5061000e61301e565b5061000e612fb3565b5061000e612f8b565b5061000e612f47565b5061000e612ea8565b5061000e612df9565b5061000e612dc5565b5061000e612da5565b5061000e612d51565b5061000e612c82565b5061000e612c62565b5061000e612c0a565b5061000e612bdc565b5061000e612bb3565b5061000e612ac1565b5061000e612a64565b5061000e612a44565b5061000e612a11565b5061000e612969565b5061000e6128f5565b5061000e61289c565b5061000e612878565b5061000e61284a565b5061000e61280a565b5061000e6127e1565b5061000e6127bb565b5061000e61279b565b5061000e61273f565b5061000e61269d565b5061000e61260f565b5061000e612569565b5061000e6124bf565b5061000e6124a0565b5061000e6123bb565b5061000e6122e3565b5061000e61213d565b5061000e611fa3565b5061000e611ea9565b5061000e611e80565b5061000e611bac565b5061000e611b70565b5061000e6119d7565b5061000e611939565b5061000e6117a6565b5061000e6113ec565b5061000e6113c7565b5061000e610e68565b5061000e610e3e565b5061000e610d83565b5061000e610ce4565b5061000e610c20565b5061000e610a07565b5061000e610872565b5061000e610745565b5061000e6106f7565b5061000e6106bd565b5061000e6105e0565b5061000e6104de565b6001600160e01b031981160361000e57565b503461000e57602036600319011261000e5760206004356104fe816104cc565b63ffffffff60e01b16632483248360e11b8114908115610524575b506040519015158152f35b6380ac58cd60e01b811491508115610556575b8115610545575b5038610519565b6301ffc9a760e01b1490503861053e565b635b5e139f60e01b81149150610537565b600091031261000e57565b918091926000905b82821061059257501161058b575050565b6000910152565b9150806020918301518186015201829161057a565b906020916105c081518092818552858086019101610572565b601f01601f1916010190565b9060206105dd9281815201906105a7565b90565b503461000e576000806003193601126106ba57604051908060655461060481613928565b80855291600191808316908115610699575060011461063e575b61063a8561062e81870382610943565b604051918291826105cc565b0390f35b9250606583527f8ff97419363ffd7000167f130ef7168fbea05faf9251824ca5043f113cc6a7c75b82841061068157505050810160200161062e8261063a61061e565b80546020858701810191909152909301928101610666565b60ff19166020870152505060408401925061062e915083905061063a61061e565b80fd5b503461000e57602036600319011261000e5760206106dc6004356139d4565b6001600160a01b0360405191168152f35b8015150361000e57565b503461000e57602036600319011261000e57600435610715816106ed565b61071d613518565b60ff801960fb5416911515161760fb556000604051f35b6001600160a01b0381160361000e57565b503461000e57604036600319011261000e5760043561076381610734565b60243561076f81613906565b916001600160a01b0380841680918316146107ef576107a19361079c9133149081156107a3575b50613962565b613d49565b005b6107e991506107e2906107ca33916001600160a01b0316600052606a602052604060002090565b906001600160a01b0316600052602052604060002090565b5460ff1690565b38610796565b60405162461bcd60e51b815260206004820152602160248201527f4552433732313a20617070726f76616c20746f2063757272656e74206f776e656044820152603960f91b6064820152608490fd5b6001600160a01b031660005261016e602052604060002090565b6001600160a01b0316600052610169602052604060002090565b503461000e57602036600319011261000e576001600160a01b0360043561089881610734565b16600052610163602052602060ff604060002054166040519015158152f35b50634e487b7160e01b600052604160045260246000fd5b67ffffffffffffffff81116108e257604052565b6108ea6108b7565b604052565b6020810190811067ffffffffffffffff8211176108e257604052565b6060810190811067ffffffffffffffff8211176108e257604052565b6040810190811067ffffffffffffffff8211176108e257604052565b90601f8019910116810190811067ffffffffffffffff8211176108e257604052565b60405190610120820182811067ffffffffffffffff8211176108e257604052565b604051906109938261090b565b565b60209067ffffffffffffffff81116109b3575b601f01601f19160190565b6109bb6108b7565b6109a8565b81601f8201121561000e578035906109d782610995565b926109e56040519485610943565b8284526020838301011161000e57816000926020809301838601378301015290565b503461000e57604036600319011261000e5760043567ffffffffffffffff60243581811161000e57610a3d9036906004016109c0565b91610a46613518565b610a668160005260676020526001600160a01b0360406000205416151590565b15610bb5576000918183526020906097825260408420918551918211610ba8575b610a9b82610a958554613928565b85614f6e565b80601f8311600114610b1257509080610aff94939286977ff8e1a15aba9398e019f0b49df1a4fde98ee17ae345cb5f6b5e2c27f5033e8ce79792610b07575b50508160011b916000199060031b1c19161790555b6040519081529081906020820190565b0390a1604051f35b015190503880610ada565b90601f19831696610b2885600052602060002090565b9287905b898210610b90575050918391600193610aff9796957ff8e1a15aba9398e019f0b49df1a4fde98ee17ae345cb5f6b5e2c27f5033e8ce7999a10610b77575b505050811b019055610aef565b015160001960f88460031b161c19169055388080610b6a565b80600185968294968601518155019501930190610b2c565b610bb06108b7565b610a87565b60405162461bcd60e51b815260206004820152602e60248201527f45524337323155524953746f726167653a2055524920736574206f66206e6f6e60448201527f6578697374656e7420746f6b656e0000000000000000000000000000000000006064820152608490fd5b503461000e5760208060031936011261000e57600435610c3f81610734565b610c47614844565b90610c6b6001600160a01b0392848460c954163314918215610ca9575b5050614865565b1690816000526101639182825260ff60406000205416610c8757005b610167610c9481546158ec565b905560005252604060002060ff198154169055005b60ff925090610cd2913360005260fc825260406000208260405194838680955193849201610572565b82019081520301902054168438610c64565b503461000e57602036600319011261000e576107a1600435610d0581610734565b610d2c610d10614844565b6001600160a01b0360c954163314908115610d31575b50614865565b615a63565b60ff91506020610d5b913360005260fc825260406000208260405194838680955193849201610572565b820190815203019020541638610d26565b90610d7f60209282815194859201610572565b0190565b503461000e57604036600319011261000e57600435610da181610734565b60243567ffffffffffffffff811161000e57610df5602061063a936001600160a01b03610dd460ff9536906004016109c0565b911660005260fc825260406000208260405194838680955193849201610572565b820190815203019020546040519116151581529081906020820190565b606090600319011261000e57600435610e2a81610734565b90602435610e3781610734565b9060443590565b503461000e576107a1610e5036610e12565b91610e63610e5e8433613b03565b613a16565b613bde565b503461000e5760208060031936011261000e57600435610e9381600052610171602052604060002090565b91610ea583546001600160a01b031690565b906001600160a01b039182339116036113b6576001840190815492428460d01c118015611398575b801561137a575b6113685760056002870196838854610efc610ef28b60010190600090565b90549060031b1c90565b01610f0b60028b016000610ef2565b016006830197610f1c895460ff1690565b15611355575090610f79600092610f4e610f42610f42610161546001600160a01b031690565b6001600160a01b031690565b60405163a9059cbb60e01b815233600482015260248101929092529093849283919082906044820190565b03925af18015611348575b61132b575b505b015480611278575b505082546001915060101c60ff16610faa81612e28565b146111d3575b50805462ff000019166202000017815560408051838152600260208201526107a1945061104d9392917fab7e44c17ad2a7b4de0e42ab0bc824366a946f184a1133f0b5528347e4ccbd2991a18054600160ff8260081c1661101081612e28565b149081156111c8575b50611150575b506110386107e282600052610173602052604060002090565b61105257600052610171602052604060002090565b6158f9565b61107461106a82600052610173602052604060002090565b805460ff19169055565b61108981600052610174602052604060002090565b5461017690815461109981615499565b82106110ff575b50508054806110cd575b505060008181526101746020526040812055600052610171602052604060002090565b6000916110e56110df6110f7936158ec565b61017655565b54600052610175602052604060002090565b5538806110aa565b61111f61110e61114892615499565b600052610175602052604060002090565b548061113684600052610175602052604060002090565b55600052610174602052604060002090565b5538806110a0565b805461ff00191661020017905561117d8160005260676020526001600160a01b0360406000205416151590565b6111ba575b60408051828152600260208201527f855f5f4ea7c8c6a92f173fbc35c24d01139c2a49e9bcc085f03620cb6a1c65139190a13861101f565b6111c381615974565b611182565b60ff91501638611019565b6111e86111e2610168546158ec565b61016855565b600090815b600360ff8216106111ff575050610fb0565b80611210610ef26112589389615166565b855460ff161561125d576112516112498361123761083e610161546001600160a01b031690565b9060ff16600052602052604060002090565b9182546154b6565b9055615154565b6111ed565b6112516112498361123761083e88546001600160a01b031690565b6112c88391611288875460ff1690565b1561131a57610161546001600160a01b0316905b60405163a9059cbb60e01b81523360048201526024810191909152938492839160009183906044820190565b0393165af1801561130d575b6112df575b80610f93565b816112fe92903d10611306575b6112f68183610943565b8101906150a0565b5038806112d9565b503d6112ec565b61131561369e565b6112d4565b85546001600160a01b03169061129c565b61134190853d8711611306576112f68183610943565b5038610f89565b61135061369e565b610f84565b611363925085339116615b03565b610f8b565b60405163baf3f0f760e01b8152600490fd5b50600686015460029060081c60ff1661139281612e28565b14610ed4565b50600686015460029060101c60ff166113b081612e28565b14610ecd565b6040516282b42960e81b8152600490fd5b503461000e57600036600319011261000e57602060ff61017754166040519015158152f35b503461000e576000806003193601126106ba57611407613518565b61141c6114176101775460ff1690565b61519a565b805b61016554811015611515576114d6906114ac611446610f42610162546001600160a01b031690565b611465611452846126fa565b90546001600160a01b039160031b1c1690565b6040518092630530fa2160e01b8252818060209687956004830160408082526003908201526206966760ec1b60608201526001600160a01b03909116602082015260800190565b03915afa918215611508575b85926114db575b50506114d0610858611452846126fa565b55614169565b61141e565b6114fa9250803d10611501575b6114f28183610943565b81019061368f565b38806114bf565b503d6114e8565b61151061369e565b6114b8565b50805b610176548110156115fa578061153c6115c692600052610175602052604060002090565b5461155c6115586107e283600052610173602052604060002090565b1590565b6115f45761157581600052610171602052604060002090565b9060068201549160ff90818460101c169161158f83612e28565b60018093036115ea576115c19416156115cb5750506115ba610858610161546001600160a01b031690565b54906154cd565b614169565b611518565b01546001600160a01b03166000908152610169602052604090206115ba565b5050505050614169565b50614169565b50805b6101655481101561177c578061161b6108586114526116b9946126fa565b5483611633610f42610162546001600160a01b031690565b61163f611452856126fa565b6040916116a78351630530fa2160e01b815260209687828061168d60049889830160408082526003908201526206966760ec1b60608201526001600160a01b03909116602082015260800190565b0381875afa91821561176f575b8792611750575b506154b6565b91826116be575b505050505050614169565b6115fd565b61170b9486946116d06114528a6126fa565b905163276d76f960e21b81526001600160a01b0390911692810192835230602084015260408301949094529294859384929091839160600190565b03925af18015611743575b611725575b80808087936116ae565b8161173b92903d10611306576112f68183610943565b50388061171b565b61174b61369e565b611716565b611768919250883d8a11611501576114f28183610943565b90386116a1565b61177761369e565b61169a565b506040517f3ebfd10f795a127a78001b56051c04828d55b68d9d77ebce97b617c8adc53ed28282a1f35b503461000e57602036600319011261000e576004356117c481610734565b6001600160a01b0390817f000000000000000000000000000000000000000000000000000000000000000016916117fd833014156135ba565b61182c7f360894a13ba1a3210667c828492db98dca3e2076cc3735a920a3ca505d382bbc93828554161461361b565b611834613518565b60405190611841826108ef565b600082527f4910fdfa16fed3260ed0e7147f7cc6da11a60208b5b9406d12a635614ffd91435460ff161561187b5750506107a19150613709565b6020600491604094939451928380926352d1902d60e01b825286165afa60009181611919575b506119065760405162461bcd60e51b815260206004820152602e60248201527f45524331393637557067726164653a206e657720696d706c656d656e7461746960448201526d6f6e206973206e6f74205555505360901b6064820152608490fd5b0390fd5b6107a19361191491146136ab565b6137a7565b61193291925060203d8111611501576114f28183610943565b90386118a1565b503461000e57606036600319011261000e5760043561195781610734565b6024359067ffffffffffffffff821161000e576119bd60206119806107a19436906004016109c0565b6001600160a01b0360443594611995866106ed565b61199d613518565b1660005260fc825260406000208260405194838680955193849201610572565b8201908152030190209060ff801983541691151516179055565b503461000e57600036600319011261000e576119f1613518565b611a09611a046115586101775460ff1690565b6145c3565b61016c5460005b818110611a66577f4ecbc2a518da375eb925941a298a8cd4db6c0c6ed78e70d196ca5c9a92b97967611a6183611a4e611a48826143fa565b61017255565b610177805460ff19166001179055610aef565b0390a1005b80611a7c611a76611ac89361460f565b506146aa565b6001610100611a8a846143fa565b92611aa981611aa486600052610171602052604060002090565b614779565b0151611ab481612e28565b611abd81612e28565b14611acd5750614169565b611a10565b6110df6114d082611afc611aef611b2c95600052610173602052604060002090565b805460ff19166001179055565b61017681611b168254600052610175602052604060002090565b5554918291600052610174602052604060002090565b386115f4565b50634e487b7160e01b600052603260045260246000fd5b906003821015611b63575b601f8260051c61016f01921690565b611b6b611b32565b611b54565b503461000e57602036600319011261000e57600435600381101561000e578060ff60209260051c61016f015460f86040519360031b161c168152f35b503461000e57602036600319011261000e57600435611bd7610f42610161546001600160a01b031690565b33036113b657611bed6114176101775460ff1690565b61017090611bfc82548261440a565b90611c08600061017055565b6101765460005b818110611df557505060005b61016554811015611dca57611c32611452826126fa565b610167611c68611c4382548761413c565b611c61846001600160a01b0316600052610164602052604060002090565b549061440a565b6000611c88846001600160a01b0316600052610164602052604060002090565b55600090815b600360ff821610611cff57505090600360ff611cb49594931614611cb9575b5050614169565b611c1b565b611ceb611cf2916000611ce3611cf8956001600160a01b0316600052610164602052604060002090565b55548661413c565b875461440a565b61017055565b3880611cad565b611d34611d2d611d27611d21611d1485611b49565b905460ff9160031b1c1690565b60ff1690565b846141ee565b6064900490565b611d5682611237886001600160a01b031660005261016e602052604060002090565b5415611d8f575b90611d8a91611d8482611237896001600160a01b031660005261016b602052604060002090565b55615154565b611c8e565b9290611dc1611d8a92611db6886001600160a01b0316600052610164602052604060002090565b61125187825461440a565b93909150611d5d565b60006040517fbd9c0e36f2110aa67058734f061a385583a1d8b5758bcb065ca0f26c4c64603c8282a1f35b80611e0d600192600052610175602052604060002090565b5485611e276107e283600052610173602052604060002090565b80611e4a575b611e3a575b505001611c0f565b611e43916151e6565b3885611e32565b5083611e716006611e6685600052610171602052604060002090565b015460101c60ff1690565b611e7a81612e28565b14611e2d565b503461000e576107a1611e9236610e12565b9060405192611ea0846108ef565b60008452613a78565b503461000e57604036600319011261000e57600435611ec781610734565b611f17602435611ed681610734565b60005492611efb60ff8560081c161580958196611f95575b8115611f75575b506149b4565b83611f0e600160ff196000541617600055565b611f5c57614bd5565b611f1d57005b611f2d61ff001960005416600055565b604051600181527f7f26b83ff96e1f2b6a682f133852f6798a09c465da95921460cefb384740249890602090a1005b611f7061010061ff00196000541617600055565b614bd5565b303b15915081611f87575b5038611ef5565b6001915060ff161438611f80565b600160ff8216109150611eee565b50604036600319011261000e57600435611fbc81610734565b60243567ffffffffffffffff811161000e57611fdc9036906004016109c0565b906001600160a01b0391827f00000000000000000000000000000000000000000000000000000000000000001692612016843014156135ba565b6120457f360894a13ba1a3210667c828492db98dca3e2076cc3735a920a3ca505d382bbc94828654161461361b565b61204d613518565b7f4910fdfa16fed3260ed0e7147f7cc6da11a60208b5b9406d12a635614ffd91435460ff16156120835750506107a19150613709565b6020600491604094939451928380926352d1902d60e01b825286165afa6000918161211d575b5061210a5760405162461bcd60e51b815260206004820152602e60248201527f45524331393637557067726164653a206e657720696d706c656d656e7461746960448201526d6f6e206973206e6f74205555505360901b6064820152608490fd5b6107a19361211891146136ab565b613863565b61213691925060203d8111611501576114f28183610943565b90386120a9565b503461000e57602036600319011261000e5760043561216781600052610171602052604060002090565b9061217982546001600160a01b031690565b6001600160a01b03339116036113b6576006820180549260ff9384808216159182156122cb575b505061136857815462ff0000191662010000178255926121c56111e261016854614169565b600260009401935b60038282161061228c577fab7e44c17ad2a7b4de0e42ab0bc824366a946f184a1133f0b5528347e4ccbd2984612227856122186115586107e285600052610173602052604060002090565b612237575b5460101c60ff1690565b90611a6160405192839283615184565b61224f611aef84600052610173602052604060002090565b6122876110df6101768561226f8254600052610175602052604060002090565b5554806114d087600052610174602052604060002090565b61221d565b6122c48161229f610ef260039489615166565b6112516122bc8361123761083e610161546001600160a01b031690565b91825461440a565b90506121cd565b60101c1690506122da81612e28565b151584386121a0565b503461000e57600036600319011261000e576001600160a01b037f0000000000000000000000000000000000000000000000000000000000000000163003612350576040517f360894a13ba1a3210667c828492db98dca3e2076cc3735a920a3ca505d382bbc8152602090f35b60405162461bcd60e51b815260206004820152603860248201527f555550535570677261646561626c653a206d757374206e6f742062652063616c60448201527f6c6564207468726f7567682064656c656761746563616c6c00000000000000006064820152608490fd5b503461000e57602036600319011261000e576004356123d8613518565b6001610172540361245b576123ee600061017655565b60015b818111156123fb57005b8061241a6115586107e261245694600052610173602052604060002090565b6115c1576115c16110df6101768361243e8254600052610175602052604060002090565b5554806114d085600052610174602052604060002090565b6123f1565b60405162461bcd60e51b815260206004820152601260248201527f4e6f207374616b657320746f20726573657400000000000000000000000000006044820152606490fd5b503461000e57602036600319011261000e5760206106dc600435613906565b503461000e57600036600319011261000e576124d9613518565b60ff61017754161561251a577fa46c7471822a6bdf82b5230c4056f248ea912a2772b35b3f984485b9c9f6cc31602061016c600081549155604051908152a1005b60405162461bcd60e51b815260206004820152602160248201527f4d6967726174696f6e206d75737420626520636f6d706c6574656420666972736044820152601d60fa1b6064820152608490fd5b503461000e57602036600319011261000e576001600160a01b0360043561258f81610734565b1680156125b857600052606860205261063a604060002054604051918291829190602083019252565b60405162461bcd60e51b815260206004820152602960248201527f4552433732313a2061646472657373207a65726f206973206e6f7420612076616044820152683634b21037bbb732b960b91b6064820152608490fd5b503461000e576000806003193601126106ba5761262a613518565b60c9546001600160a01b0319811660c955816001600160a01b0360405192167f8be0079c531659141344cd1fd0a4f28419497f9722a3daafe3b4186f6b6457e08284a3f35b6024359060ff8216820361000e57565b6044359060ff8216820361000e57565b359060ff8216820361000e57565b503461000e57606036600319011261000e57366023121561000e576040516126c48161090b565b60648136821161000e576004905b8282106126e2576107a1846148b1565b602080916126ef8461268f565b8152019101906126d2565b6101658054821015612732575b6000527fd91ca5e44fa96a1732bfaed7fe33fc20ed69a9895cde1f18c7dcabca39d6a78b0190600090565b61273a611b32565b612707565b503461000e57602036600319011261000e57600435610165805482101561000e576020916001600160a01b03916000527fd91ca5e44fa96a1732bfaed7fe33fc20ed69a9895cde1f18c7dcabca39d6a78b015416604051908152f35b503461000e57600036600319011261000e57602061017254604051908152f35b503461000e57600036600319011261000e5760206127d761563d565b6040519015158152f35b503461000e57600036600319011261000e5760206001600160a01b036101615416604051908152f35b503461000e57602036600319011261000e576001600160a01b0360043561283081610734565b166000526101646020526020604060002054604051908152f35b503461000e57602036600319011261000e576004356000526101746020526020604060002054604051908152f35b503461000e57600036600319011261000e57602060ff60fb54166040519015158152f35b503461000e57600036600319011261000e5760206001600160a01b0360c95416604051908152f35b9181601f8401121561000e5782359167ffffffffffffffff831161000e576020808501948460051b01011161000e57565b503461000e57604036600319011261000e5760043567ffffffffffffffff80821161000e573660238301121561000e5781600401359181831161000e5736602461016085028301011161000e5760243591821161000e576107a19261296060249336906004016128c4565b93909201614181565b503461000e576000806003193601126106ba57604051908060665461298d81613928565b8085529160019180831690811561069957506001146129b65761063a8561062e81870382610943565b9250606683527f46501879b8ca8525e8c2fd519e2fbfcfa2ebea26501294aa02cbfcfb12e943545b8284106129f957505050810160200161062e8261063a61061e565b805460208587018101919091529093019281016129de565b503461000e57602036600319011261000e57600435600052610173602052602060ff604060002054166040519015158152f35b503461000e57600036600319011261000e57602061016854604051908152f35b503461000e57604036600319011261000e576020612ab8600435612a8781610734565b6001600160a01b03612a9761266f565b911660005261016e835260406000209060ff16600052602052604060002090565b54604051908152f35b503461000e57604036600319011261000e57600435612adf81610734565b602435612aeb816106ed565b6001600160a01b03821691823314612b6e5781612b2b612b3c9233600052606a6020526040600020906001600160a01b0316600052602052604060002090565b9060ff801983541691151516179055565b604051901515815233907f17307eab39ab6107e8899845ad3d59bd9653f200f220920489ca2b5937696c3190602090a3005b60405162461bcd60e51b815260206004820152601960248201527f4552433732313a20617070726f766520746f2063616c6c6572000000000000006044820152606490fd5b503461000e57600036600319011261000e5760206001600160a01b036101625416604051908152f35b503461000e57602036600319011261000e576004356000526101756020526020604060002054604051908152f35b503461000e57608036600319011261000e57600435612c2881610734565b602435612c3481610734565b6064359167ffffffffffffffff831161000e57612c586107a19336906004016109c0565b9160443591613a78565b503461000e57600036600319011261000e57602061017054604051908152f35b503461000e57602036600319011261000e57600435612cac81600052610171602052604060002090565b8054336001600160a01b03909116036113b6576006018054600260ff8260101c16612cd681612e28565b14908115612d38575b5061136857805461ff0019166101001790557f855f5f4ea7c8c6a92f173fbc35c24d01139c2a49e9bcc085f03620cb6a1c651390611a6190612d2181336157e5565b604080519182526001602083015290918291820190565b60ff915060081c16612d4981612e28565b151538612cdf565b503461000e57604036600319011261000e576020612ab8600435612d7481610734565b6001600160a01b03612d8461266f565b911660005261016b835260406000209060ff16600052602052604060002090565b503461000e57600036600319011261000e57602061017654604051908152f35b503461000e57602036600319011261000e5761063a612de5600435613f2d565b6040519182916020835260208301906105a7565b503461000e57600036600319011261000e57612e1c60ff60005460081c16614d16565b60fb805460ff19169055005b60031115612e3257565b634e487b7160e01b600052602160045260246000fd5b94919897969360e096939161010087019a6001600160a01b03809216885216602087015265ffffffffffff80921660408701521660608501526080840152151560a0830152612e9681612e28565b60c0820152612ea483612e28565b0152565b503461000e57602036600319011261000e5760043560005261017160205260406000206001600160a01b0361063a81835416600184015490600660058601549501549060405195869560ff8460101c169460ff808660081c169516938160d01c9265ffffffffffff8360a01c1692169089612e48565b906003821015612f3a575b6006600580840461016d0193060290565b612f42611b32565b612f29565b503461000e57602036600319011261000e57600435600381101561000e578065ffffffffffff60056020930461016d01546006600560405194060260031b1c168152f35b503461000e57600036600319011261000e57602065ffffffffffff6101665416604051908152f35b503461000e57604036600319011261000e57602060ff613012600435612fd881610734565b6001600160a01b0360243591612fed83610734565b16600052606a84526040600020906001600160a01b0316600052602052604060002090565b54166040519015158152f35b503461000e57600036600319011261000e57602061016754604051908152f35b50606036600319011261000e576004803561305881610734565b60243561306361267f565b9281156134385761308e6115586107e2856001600160a01b0316600052610163602052604060002090565b6133ea576001600160a01b0383168015801580613382575b61337157156132cb575081340361327257506132446122bc6107a1946130f4600080806130df610f42610162546001600160a01b031690565b88604051915af16130ee613df3565b506150b5565b6112376130ff615101565b958561310e60ff8516896143e9565b5261017254966131f49088156132645761312a611a488a614169565b65ffffffffffff4216906131b761317a61317461315b6131498a612f1e565b905465ffffffffffff9160031b1c1690565b60fb5460ff161561325a5761ffff6103f05b1690615115565b84615139565b6131a8613185610965565b338152946001600160a01b03881660208701525b65ffffffffffff166040860152565b65ffffffffffff166060840152565b6080820152600060a0820152600060c0820152600060e08201526131df610100820160019052565b611aa489600052610171602052604060002090565b61320c611aef88600052610173602052604060002090565b61083e6110df6101768961322c8254600052610175602052604060002090565b5554806114d08b600052610174602052604060002090565b90556132556111e261016854614169565b615d27565b61ffff600161316d565b61312a611a4860019a614169565b61190290604051918291631fff1b3b60e21b8352820160809060208152602260208201527f496e636f7272656374206e617469766520636f696e207374616b6520616d6f756040820152611b9d60f21b60608201520190565b6107a1946133306020856122bc946132449660006132f5610f42610162546001600160a01b031690565b604080516323b872dd60e01b8152339481019485526001600160a01b0390921660208501528301949094529294859384929091839160600190565b03925af18015613364575b613346575b506130f4565b61335d9060203d8111611306576112f68183610943565b5038613340565b61336c61369e565b61333b565b604051631e9acf1760e31b81528390fd5b506040516370a0823160e01b8152338482019081528591906020908290819083010381875afa9081156133dd575b6000916133bf575b50106130a6565b6133d7915060203d8111611501576114f28183610943565b386133b8565b6133e561369e565b6133b0565b61190290604051918291631fff1b3b60e21b8352820160609060208152601360208201527f496e76616c6964207374616b6520746f6b656e0000000000000000000000000060408201520190565b61190290604051918291631fff1b3b60e21b8352820160609060208152601560208201527f416d6f756e742063616e6e6f74206265207a65726f000000000000000000000060408201520190565b503461000e57602036600319011261000e576004356134a481610734565b6134ac613518565b6001600160a01b038116156134c4576107a190613570565b60405162461bcd60e51b815260206004820152602660248201527f4f776e61626c653a206e6577206f776e657220697320746865207a65726f206160448201526564647265737360d01b6064820152608490fd5b6001600160a01b0360c95416330361352c57565b606460405162461bcd60e51b815260206004820152602060248201527f4f776e61626c653a2063616c6c6572206973206e6f7420746865206f776e65726044820152fd5b60c954906001600160a01b0380911691826001600160a01b031982161760c955167f8be0079c531659141344cd1fd0a4f28419497f9722a3daafe3b4186f6b6457e06000604051a3565b156135c157565b60405162461bcd60e51b815260206004820152602c60248201527f46756e6374696f6e206d7573742062652063616c6c6564207468726f7567682060448201526b19195b1959d85d1958d85b1b60a21b6064820152608490fd5b1561362257565b60405162461bcd60e51b815260206004820152602c60248201527f46756e6374696f6e206d7573742062652063616c6c6564207468726f7567682060448201526b6163746976652070726f787960a01b6064820152608490fd5b60405190613689826108ef565b60008252565b9081602091031261000e575190565b506040513d6000823e3d90fd5b156136b257565b60405162461bcd60e51b815260206004820152602960248201527f45524331393637557067726164653a20756e737570706f727465642070726f786044820152681a58589b195555525160ba1b6064820152608490fd5b803b1561374c576001600160a01b037f360894a13ba1a3210667c828492db98dca3e2076cc3735a920a3ca505d382bbc91166001600160a01b0319825416179055565b60405162461bcd60e51b815260206004820152602d60248201527f455243313936373a206e657720696d706c656d656e746174696f6e206973206e60448201526c1bdd08184818dbdb9d1c9858dd609a1b6064820152608490fd5b6137b081613709565b604051906001600160a01b0381167fbc7cd75a20ee27fd9adebab32041f755214dbc6bffa90cc0225b39da2e5c2d3b600084a282511580159061385b575b6137f757505050565b600080613858946138078561090b565b602785527f416464726573733a206c6f772d6c6576656c2064656c65676174652063616c6c6020860152660819985a5b195960ca1b6040860152602081519101845af4613852613df3565b91614094565b50565b5060006137ee565b61386c81613709565b604051906001600160a01b0381167fbc7cd75a20ee27fd9adebab32041f755214dbc6bffa90cc0225b39da2e5c2d3b600084a28251158015906138b2576137f757505050565b5060016137ee565b156138c157565b60405162461bcd60e51b815260206004820152601860248201527f4552433732313a20696e76616c696420746f6b656e20494400000000000000006044820152606490fd5b60005260676020526001600160a01b03604060002054166105dd8115156138ba565b90600182811c92168015613958575b602083101461394257565b634e487b7160e01b600052602260045260246000fd5b91607f1691613937565b1561396957565b60405162461bcd60e51b815260206004820152603d60248201527f4552433732313a20617070726f76652063616c6c6572206973206e6f7420746f60448201527f6b656e206f776e6572206f7220617070726f76656420666f7220616c6c0000006064820152608490fd5b6139fc6139f78260005260676020526001600160a01b0360406000205416151590565b6138ba565b60005260696020526001600160a01b036040600020541690565b15613a1d57565b60405162461bcd60e51b815260206004820152602d60248201527f4552433732313a2063616c6c6572206973206e6f7420746f6b656e206f776e6560448201526c1c881bdc88185c1c1c9bdd9959609a1b6064820152608490fd5b90613a9c939291613a8c610e5e8433613b03565b613a97838383613bde565b613e23565b15613aa357565b60405162461bcd60e51b815260206004820152603260248201527f4552433732313a207472616e7366657220746f206e6f6e20455243373231526560448201527131b2b4bb32b91034b6b83632b6b2b73a32b960711b6064820152608490fd5b6001600160a01b0380613b1584613906565b169281831692848414948515613b4b575b50508315613b35575b50505090565b613b41919293506139d4565b1614388080613b2f565b60ff92955090613b7a91600052606a6020526040600020906001600160a01b0316600052602052604060002090565b5416923880613b26565b15613b8b57565b60405162461bcd60e51b815260206004820152602560248201527f4552433732313a207472616e736665722066726f6d20696e636f72726563742060448201526437bbb732b960d91b6064820152608490fd5b90613c049291613bed83613906565b6001600160a01b0382811695909182168614613b84565b8216938415613cf8576109939481613c298693613c23610f4286613906565b14613b84565b613c50613c40846000526069602052604060002090565b80546001600160a01b0319169055565b613c6d846001600160a01b03166000526068602052604060002090565b6000198154019055613c92856001600160a01b03166000526068602052604060002090565b60018154019055613ccc85613cb1856000526067602052604060002090565b906001600160a01b03166001600160a01b0319825416179055565b7fddf252ad1be2c89b69c2b068fc378daa952ba7f163c4a11628f55a4df523b3ef6000604051a4615de8565b60405162461bcd60e51b8152602060048201526024808201527f4552433732313a207472616e7366657220746f20746865207a65726f206164646044820152637265737360e01b6064820152608490fd5b600082815260696020526040902080546001600160a01b0319166001600160a01b0383161790556001600160a01b0380613d8284613906565b169116907f8c5be1e5ebec7d5bd14f71427d1e84f3dd0314c0f7b2291e5b200ac8c7c3b9256000604051a4565b9081602091031261000e57516105dd816104cc565b90926105dd94936080936001600160a01b038092168452166020830152604082015281606082015201906105a7565b3d15613e1e573d90613e0482610995565b91613e126040519384610943565b82523d6000602084013e565b606090565b92909190823b15613f2457613e5e9260209260006001600160a01b03604051809781968295630a85bd0160e11b9b8c85523360048601613dc4565b0393165af160009181613ef4575b50613ee657613e79613df3565b80519081613ee15760405162461bcd60e51b815260206004820152603260248201527f4552433732313a207472616e7366657220746f206e6f6e20455243373231526560448201527131b2b4bb32b91034b6b83632b6b2b73a32b960711b6064820152608490fd5b602001fd5b6001600160e01b0319161490565b613f1691925060203d8111613f1d575b613f0e8183610943565b810190613daf565b9038613e6c565b503d613f04565b50505050600190565b613f506139f78260005260676020526001600160a01b0360406000205416151590565b6000908082526020609781526040832060405184819590835490613f7382613928565b8085529460019280841690811561402f5750600114613ff3575b505050613f9c92500384610943565b613fa461367c565b92835115613fec578051613fbe5750506105dd915061404f565b6105dd9250613fde90613fd8604051958694850190610d6c565b90610d6c565b03601f198101835282610943565b9250505090565b869350819291528282205b858310614017575050613f9c9350820101388080613f8d565b8054838a018501528894508693909201918101613ffe565b965050505050505060ff191681840152613f9c8360408101388080613f8d565b6139f76140729160005260676020526001600160a01b0360406000205416151590565b6000604051614080816108ef565b5260405161408d816108ef565b6000815290565b919290156140f657508151156140a8575090565b3b156140b15790565b60405162461bcd60e51b815260206004820152601d60248201527f416464726573733a2063616c6c20746f206e6f6e2d636f6e74726163740000006044820152606490fd5b8251909150156141095750805190602001fd5b60405162461bcd60e51b815290819061190290600483016105cc565b50634e487b7160e01b600052601260045260246000fd5b8115614146570490565b61414e614125565b0490565b50634e487b7160e01b600052601160045260246000fd5b6001906000198114614179570190565b610d7f614152565b90610993939291614190613518565b614416565b91908110156141a6575b60051b0190565b6141ae611b32565b61419f565b91610160918110156141c457020190565b6141cc611b32565b020190565b356105dd81610734565b3565ffffffffffff8116810361000e5790565b8060001904821181151516614201570290565b614209614152565b0290565b818110614218575050565b6000815560010161420d565b356105dd816106ed565b35600381101561000e5790565b9061424581612e28565b61ff0082549160081b169061ff001916179055565b9061426481612e28565b62ff000082549160101b169062ff00001916179055565b6142a5823561428981610734565b82546001600160a01b0319166001600160a01b03909116178255565b6001602061435f8383016142bf8684013561428981610734565b6143086142ce604088016141db565b82547fffffffffffff000000000000ffffffffffffffffffffffffffffffffffffffff1660a09190911b65ffffffffffff60a01b16178255565b614314606087016141db565b815479ffffffffffffffffffffffffffffffffffffffffffffffffffff1660d09190911b7fffffffffffff000000000000000000000000000000000000000000000000000016179055565b6080840160028401916000915b600383106143d6575050505050906143d061014060066109939460e0850135600582015501926143b46143a26101008301614224565b859060ff801983541691151516179055565b6143ca6143c4610120830161422e565b8561423b565b0161422e565b9061425a565b803584559284019291840191810161436c565b9060038110156141a65760051b0190565b6001906001198111614179570190565b81198111614179570190565b9291909283156145bd5761017654936000918294835b83811061444957505050505050906110df611a48610993936143fa565b614454818388614195565b35908782116145b4575b6144698186866141b3565b916144888361448383600052610171602052604060002090565b61427b565b614495610140840161422e565b9261449f84612e28565b60018094146144b9575b506144b390615d27565b0161442c565b8382989b81926144da611aef6144b396600052610173602052604060002090565b8a6144f083600052610175602052604060002090565b55816145078c600052610174602052604060002090565b5561459860c061458e61457e61083e6020860161453861452961083e836141d1565b60008052602052604060002090565b6145476080890135825461440a565b905561456861455861083e836141d1565b6001600052602052604060002090565b61457760a0890135825461440a565b90556141d1565b6002600052602052604060002090565b920135825461440a565b9055019a6145ac6111e26101685460010190565b0196906144a9565b9650809661445e565b50505050565b156145ca57565b60405162461bcd60e51b815260206004820152601b60248201527f4d6967726174696f6e20616c726561647920706572666f726d656400000000006044820152606490fd5b60079061016c805482101561464b575b600052027fe5af487827b121aa2456a019311df153887da6c98285803eea72252e4f09489b0190600090565b614653611b32565b61461f565b60405191906000835b60038210614688575050506060820182811067ffffffffffffffff8211176108e257604052565b6001602081928554815201930191019091614661565b6146a782612e28565b52565b9061099360ff60066146ba610965565b946146dc6146cf82546001600160a01b031690565b6001600160a01b03168752565b60018101546001600160a01b038116602088015265ffffffffffff60a082901c16604088015260d01c606087015261471660028201614658565b6080870152600581015460a08701520154818116151560c0860152614743828260081c1660e0870161469e565b60101c16610100840161469e565b906000905b6003821061476357505050565b6001602082829351865501930191019091614756565b9061010060066109939361479761428985516001600160a01b031690565b6147dd600182016147b561428960208801516001600160a01b031690565b6147cb6142ce604088015165ffffffffffff1690565b606086015165ffffffffffff16614314565b6147ee608085015160028301614751565b60a08401516005820155019161481c61480a60c0830151151590565b849060ff801983541691151516179055565b61483360e082015161482d81612e28565b8461423b565b01519061483f82612e28565b61425a565b6040519061485182610927565b600582526430b236b4b760d91b6020830152565b1561486c57565b60405162461bcd60e51b815260206004820152600e60248201527f4e6f7420617574686f72697a65640000000000000000000000000000000000006044820152606490fd5b6148bc610d10614844565b606460ff6148e46148d7828551168360208701511690614939565b8260408601511690614939565b16036148f3576109939061494f565b604051631fff1b3b60e21b815260206004820152601260248201527f4d7573742073756d20757020746f2031303000000000000000000000000000006044820152606490fd5b60ff8091169116908160ff038111614179570190565b9061016f60009081935b6003808610156149ac579060209160ff908183511691868654921b90811b9283911b169119161783550193600180930192601f841161499d575b5060010193614959565b60009350909101906001614993565b505050509050565b156149bb57565b60405162461bcd60e51b815260206004820152602e60248201527f496e697469616c697a61626c653a20636f6e747261637420697320616c72656160448201527f647920696e697469616c697a65640000000000000000000000000000000000006064820152608490fd5b61016580549068010000000000000000821015614a8f575b60018201808255821015614a82575b6000527fd91ca5e44fa96a1732bfaed7fe33fc20ed69a9895cde1f18c7dcabca39d6a78b0180546001600160a01b0319169055565b614a8a611b32565b614a4d565b614a976108b7565b614a3e565b6001600160a01b0361016580549068010000000000000000821015614b10575b60018201808255821015614b03575b6000527fd91ca5e44fa96a1732bfaed7fe33fc20ed69a9895cde1f18c7dcabca39d6a78b0191166001600160a01b0319825416179055565b614b0b611b32565b614acb565b614b186108b7565b614abc565b9061016d600080935b6003808610156149ac578160209162ffffff600694511690858754911b65ffffffffffff811b9283911b1691191617855501910193601a8511614b6e575b6001019390614b26565b60009450600190920191614b64565b60405190614b8a82610927565b601382527f457363726f77656420417373657420426f6e64000000000000000000000000006020830152565b60405190614bc382610927565b600382526222a0a160e91b6020830152565b614c5b90614c8d926001600160a01b0380199061016181851683825416179055610162921690825416179055614c0c600161017255565b60008052610163602052614c3f7f323947e965fafc5a11fbcfc7a37a72d1b12094b96c7e62e08b97c054e8e6b0a7611aef565b614c47614a26565b614c8761016791614c61614c5b8454614169565b61016755565b614c82611aef826001600160a01b0316600052610163602052604060002090565b614a9c565b54614169565b610166805465ffffffffffff1916630114db00179055614ccb614cae610986565b62093a8081526224ea006020820152626ebe006040820152614b1d565b614ced614cd6610986565b60148152601e60208201526032604082015261494f565b614d06614cf8614b7d565b614d00614bb6565b90614d99565b614d0e614d76565b610993615e3e565b15614d1d57565b60405162461bcd60e51b815260206004820152602b60248201527f496e697469616c697a61626c653a20636f6e7472616374206973206e6f74206960448201526a6e697469616c697a696e6760a81b6064820152608490fd5b614d9060ff60005460081c16614d8b81614d16565b614d16565b61099333613570565b90614daf60ff60005460081c16614d8b81614d16565b815167ffffffffffffffff8111614eaa575b614dd581614dd0606554613928565b614eb7565b602080601f8311600114614e175750819061099394600092614e0c575b50508160011b916000199060031b1c191617606555614fa8565b015190503880614df2565b919293601f198416614e4b60656000527f8ff97419363ffd7000167f130ef7168fbea05faf9251824ca5043f113cc6a7c790565b936000905b828210614e9257505091600193918561099397969410614e79575b505050811b01606555614fa8565b015160001960f88460031b161c19169055388080614e6b565b80600186978294978701518155019601940190614e50565b614eb26108b7565b614dc1565b90601f8211614ec4575050565b6109939160656000527f8ff97419363ffd7000167f130ef7168fbea05faf9251824ca5043f113cc6a7c7906020601f840160051c83019310614f0e575b601f0160051c019061420d565b9091508190614f01565b90601f8211614f25575050565b6109939160666000527f46501879b8ca8525e8c2fd519e2fbfcfa2ebea26501294aa02cbfcfb12e94354906020601f840160051c83019310614f0e57601f0160051c019061420d565b9190601f8111614f7d57505050565b610993926000526020600020906020601f840160051c83019310614f0e57601f0160051c019061420d565b90815167ffffffffffffffff8111615093575b614fcf81614fca606654613928565b614f18565b602080601f831160011461500b5750819293600092615000575b50508160011b916000199060031b1c191617606655565b015190503880614fe9565b90601f1983169461503e60666000527f46501879b8ca8525e8c2fd519e2fbfcfa2ebea26501294aa02cbfcfb12e9435490565b926000905b87821061507b575050836001959610615062575b505050811b01606655565b015160001960f88460031b161c19169055388080615057565b80600185968294968601518155019501930190615043565b61509b6108b7565b614fbb565b9081602091031261000e57516105dd816106ed565b156150bc57565b60405162461bcd60e51b815260206004820152601f60248201527f4661696c656420746f207472616e73666572206e617469766520746f6b656e006044820152606490fd5b6040519061510e8261090b565b6060368337565b9065ffffffffffff80911691821561512c57160490565b615134614125565b160490565b9065ffffffffffff8080931691168092038111614179570190565b60ff6001911660ff8114614179570190565b6003821015615177575b0190600090565b61517f611b32565b615170565b90815260408101929190602090612ea483612e28565b156151a157565b60405162461bcd60e51b815260206004820152601960248201527f4d757374206d696772617465207374616b6573206669727374000000000000006044820152606490fd5b6151fb90600052610171602052604060002090565b9061520a600683015460ff1690565b1561548657610161546001600160a01b03165b61524f816107ca61523586546001600160a01b031690565b6001600160a01b031660005261016a602052604060002090565b5480158015615448575b615327575b61527690939293600052610171602052604060002090565b92600280600094019401925b60ff906003828216101561531f57806153186152dc6152a6610ef26001958b615166565b6152d46152b6610167548961413c565b611c618a6001600160a01b0316600052610164602052604060002090565b908489615c9d565b6152ff6152e9848a615166565b9190926152fa8385549060031b1c90565b61440a565b9082549060031b600019811b9283911b16911916179055565b0116615282565b505050505050565b50615276615333615101565b6153e66101725491615347611a4884614169565b86546001600160a01b0316906153af65ffffffffffff42166131a861538061537a61315b6101665465ffffffffffff1690565b83615139565b9161539b61538c610965565b6001600160a01b039097168752565b6001600160a01b038a166020870152613199565b6080820152600060a0820152600160c0820152600060e08201526000610100820152611aa483600052610171602052604060002090565b6153fe611aef82600052610173602052604060002090565b61541e6110df6101768361243e8254600052610175602052604060002090565b80615437846107ca61523589546001600160a01b031690565b5561544181615d27565b905061525e565b50615473600161546383600052610171602052604060002090565b015460a01c65ffffffffffff1690565b65ffffffffffff80421691161415615259565b60018201546001600160a01b031661521d565b600181106154a9575b6000190190565b6154b1614152565b6154a2565b8181106154c1570390565b6154c9614152565b0390565b6154e290600052610171602052604060002090565b60058101916006820191600281019160005b60ff906003828216101561563457855460ff169081156156175761553984615525610161546001600160a01b031690565b83615533610ef2828c615166565b91615c9d565b91615545838a5461440a565b895561555d610f42610162546001600160a01b031690565b901561560457610161546001600160a01b03165b813b1561000e57604051636c49e02160e01b815260606004820152600360648201526206966760ec1b60848201526001600160a01b03919091166024820152604481019390935260019290600090829060a490829084905af180156155f7575b6155de575b5001166154f4565b806155eb6155f1926108ce565b80610567565b386155d6565b6155ff61369e565b6155d1565b60018601546001600160a01b0316615571565b6155398461562f60018801546001600160a01b031690565b615525565b50505050505050565b6000610165549061565a610f42610162546001600160a01b031690565b905b82811061566b57505050600090565b615677611452826126fa565b60408051630530fa2160e01b81526004810191909152600360448201526206966760ec1b60648201526001600160a01b0382166024820152602091908281608481885afa92831561578c575b600093615767575b505080611c6161457e61571d6156fb614529615738966001600160a01b031660005261016e602052604060002090565b54611c61614558866001600160a01b031660005261016e602052604060002090565b926001600160a01b031660005261016e602052604060002090565b901515908161575d575b506157555761575090614169565b61565c565b505050600190565b9050151538615742565b615738929350908161578492903d10611501576114f28183610943565b9190386156cb565b61579461369e565b6156c3565b156157a057565b60405162461bcd60e51b815260206004820152601c60248201527f4552433732313a20746f6b656e20616c7265616479206d696e746564000000006044820152606490fd5b6001600160a01b0381169081156158a85761587e9061582361581d8560005260676020526001600160a01b0360406000205416151590565b15615799565b61584661581d8560005260676020526001600160a01b0360406000205416151590565b615863816001600160a01b03166000526068602052604060002090565b60018154019055613cb1846000526067602052604060002090565b60007fddf252ad1be2c89b69c2b068fc378daa952ba7f163c4a11628f55a4df523b3ef81604051a4565b606460405162461bcd60e51b815260206004820152602060248201527f4552433732313a206d696e7420746f20746865207a65726f20616464726573736044820152fd5b80156154a9576000190190565b60066000918281558260018201558260058201615919816002850161420d565b550155565b6105dd9054613928565b6159328154613928565b908161593c575050565b81601f6000931160011461594e575055565b8183526020832061596a91601f0160051c81019060010161420d565b8160208120915555565b61597d81613906565b5061598781613906565b600082815260696020526001600160a01b0360408220928119938481541690551680825260686020526040822060001981540190558382526067602052604082208381541690558382827fddf252ad1be2c89b69c2b068fc378daa952ba7f163c4a11628f55a4df523b3ef82604051a4151580615a5c575b615a45575b5050615a22615a1d826000526097602052604060002090565b61591e565b615a295750565b615a40610993916000526097602052604060002090565b615928565b604090610171602052209081541690553880615a04565b50806159ff565b6001600160a01b03908181168060005261016360205260ff92836040600020541615615ace575b6101655460005b8186821610615aa857505050506109939150614a9c565b8383615ab3836126fa565b90549060031b1c161461531f57615ac990615154565b615a91565b610167615adb8154614169565b9055615afe611aef846001600160a01b0316600052610163602052604060002090565b615a8a565b6001600160a01b0392908381169081615bab575050615b2e610f42610162546001600160a01b031690565b81813110615b9957803b1561000e57604051633e97486160e11b8152939092166001600160a01b03166004840152602483015260009082908183816044810103925af18015615b8c575b615b7f5750565b806155eb610993926108ce565b615b9461369e565b615b78565b604051631e9acf1760e31b8152600490fd5b91909350615bc5610f42610162546001600160a01b031690565b6040516370a0823160e01b81526001600160a01b03821660048201526020958391908790829060249082905afa908115615c90575b600091615c73575b5010615b995760405163276d76f960e21b81526001600160a01b03938416600482015293909216602484015260448301528290829060649082906000905af18015615c66575b615c50575050565b8161385892903d10611306576112f68183610943565b615c6e61369e565b615c48565b615c8a9150873d8911611501576114f28183610943565b38615c02565b615c9861369e565b615bfa565b9291600081615cb0575050505050600090565b6001600160a01b036064615cf0604094615ceb615d0e986003891015615d1a575b60ff8960051c61016f015460f88b60031b161c16906141ee565b6141ee565b049516815261016e602052209060ff16600052602052604060002090565b54908115614146570490565b615d22611b32565b615cd1565b8060005260206101718152615d3f60406000206146aa565b6001600160a01b03918282511692818301511665ffffffffffff80604085015116906060850151169160c060808601519501511515956040519788528488015260408701526060860152608085015260a084016000905b60038210615dd3575050505015156101008201527fbbad5407299f3773930327d215f85a16617efbbddc1fe3902bd39ba46feacf269061012090a1565b82806001928651815201940191019092615d96565b6001600160a01b0380911615159081615e32575b50615e05575050565b610993916000526101716020526040600020906001600160a01b03166001600160a01b0319825416179055565b90508116151538615dfc565b615e4f60ff60005460081c16614d16565b60ff1960fb541660fb5556fea264697066735822122041ff118766b650ed37d86e3341d2b87c214b0f53628ddcbbeb4ec59d5b7ce2c464736f6c634300080e0033",
  "devdoc": {
    "kind": "dev",
    "methods": {
      "approve(address,uint256)": {
        "details": "See {IERC721-approve}."
      },
      "balanceOf(address)": {
        "details": "See {IERC721-balanceOf}."
      },
      "clearOldStakesStorage()": {
        "details": "Can only be called after migration is complete"
      },
      "getApproved(uint256)": {
        "details": "See {IERC721-getApproved}."
      },
      "importStakes((address,address,uint48,uint48,uint256[3],uint256,bool,uint8,uint8)[],uint256[])": {
        "details": "Gas-optimized import function with support for custom stake IDs",
        "params": {
          "_stakeIds": "Optional array of specific IDs to use (must match _stakesToImport.length)",
          "_stakesToImport": "Array of Stake structs to import"
        }
      },
      "isApprovedForAll(address,address)": {
        "details": "See {IERC721-isApprovedForAll}."
      },
      "name()": {
        "details": "See {IERC721Metadata-name}."
      },
      "owner()": {
        "details": "Returns the address of the current owner."
      },
      "ownerOf(uint256)": {
        "details": "See {IERC721-ownerOf}."
      },
      "proxiableUUID()": {
        "details": "Implementation of the ERC1822 {proxiableUUID} function. This returns the storage slot used by the implementation. It is used to validate the implementation's compatibility when performing an upgrade. IMPORTANT: A proxy pointing at a proxiable contract should not be considered proxiable itself, because this risks bricking a proxy that upgrades to it, by delegating to itself until out of gas. Thus it is critical that this function revert if invoked through a proxy. This is guaranteed by the `notDelegated` modifier."
      },
      "renounceOwnership()": {
        "details": "Leaves the contract without owner. It will not be possible to call `onlyOwner` functions. Can only be called by the current owner. NOTE: Renouncing ownership will leave the contract without an owner, thereby disabling any functionality that is only available to the owner."
      },
      "safeTransferFrom(address,address,uint256)": {
        "details": "See {IERC721-safeTransferFrom}."
      },
      "safeTransferFrom(address,address,uint256,bytes)": {
        "details": "See {IERC721-safeTransferFrom}."
      },
      "setApprovalForAll(address,bool)": {
        "details": "See {IERC721-setApprovalForAll}."
      },
      "supportsInterface(bytes4)": {
        "details": "See {IERC165-supportsInterface}"
      },
      "symbol()": {
        "details": "See {IERC721Metadata-symbol}."
      },
      "tokenURI(uint256)": {
        "details": "See {IERC721Metadata-tokenURI}."
      },
      "transferFrom(address,address,uint256)": {
        "details": "See {IERC721-transferFrom}."
      },
      "transferOwnership(address)": {
        "details": "Transfers ownership of the contract to a new account (`newOwner`). Can only be called by the current owner."
      },
      "upgradeTo(address)": {
        "custom:oz-upgrades-unsafe-allow-reachable": "delegatecall",
        "details": "Upgrade the implementation of the proxy to `newImplementation`. Calls {_authorizeUpgrade}. Emits an {Upgraded} event."
      },
      "upgradeToAndCall(address,bytes)": {
        "custom:oz-upgrades-unsafe-allow-reachable": "delegatecall",
        "details": "Upgrade the implementation of the proxy to `newImplementation`, and subsequently execute the function call encoded in `data`. Calls {_authorizeUpgrade}. Emits an {Upgraded} event."
      }
    },
    "version": 1
  },
  "userdoc": {
    "kind": "user",
    "methods": {
      "clearOldStakesStorage()": {
        "notice": "Clears the old stakes array to free up storage after migration"
      },
      "importStakes((address,address,uint48,uint48,uint256[3],uint256,bool,uint8,uint8)[],uint256[])": {
        "notice": "Import multiple stakes at once into the mapping storage"
      }
    },
    "version": 1
  },
  "storageLayout": {
    "storage": [
      {
        "astId": 533,
        "contract": "contracts/staking/LendingPoolStakingV2.sol:LendingPoolStakingV2",
        "label": "_initialized",
        "offset": 0,
        "slot": "0",
        "type": "t_uint8"
      },
      {
        "astId": 536,
        "contract": "contracts/staking/LendingPoolStakingV2.sol:LendingPoolStakingV2",
        "label": "_initializing",
        "offset": 1,
        "slot": "0",
        "type": "t_bool"
      },
      {
        "astId": 2503,
        "contract": "contracts/staking/LendingPoolStakingV2.sol:LendingPoolStakingV2",
        "label": "__gap",
        "offset": 0,
        "slot": "1",
        "type": "t_array(t_uint256)50_storage"
      },
      {
        "astId": 2887,
        "contract": "contracts/staking/LendingPoolStakingV2.sol:LendingPoolStakingV2",
        "label": "__gap",
        "offset": 0,
        "slot": "51",
        "type": "t_array(t_uint256)50_storage"
      },
      {
        "astId": 862,
        "contract": "contracts/staking/LendingPoolStakingV2.sol:LendingPoolStakingV2",
        "label": "_name",
        "offset": 0,
        "slot": "101",
        "type": "t_string_storage"
      },
      {
        "astId": 864,
        "contract": "contracts/staking/LendingPoolStakingV2.sol:LendingPoolStakingV2",
        "label": "_symbol",
        "offset": 0,
        "slot": "102",
        "type": "t_string_storage"
      },
      {
        "astId": 868,
        "contract": "contracts/staking/LendingPoolStakingV2.sol:LendingPoolStakingV2",
        "label": "_owners",
        "offset": 0,
        "slot": "103",
        "type": "t_mapping(t_uint256,t_address)"
      },
      {
        "astId": 872,
        "contract": "contracts/staking/LendingPoolStakingV2.sol:LendingPoolStakingV2",
        "label": "_balances",
        "offset": 0,
        "slot": "104",
        "type": "t_mapping(t_address,t_uint256)"
      },
      {
        "astId": 876,
        "contract": "contracts/staking/LendingPoolStakingV2.sol:LendingPoolStakingV2",
        "label": "_tokenApprovals",
        "offset": 0,
        "slot": "105",
        "type": "t_mapping(t_uint256,t_address)"
      },
      {
        "astId": 882,
        "contract": "contracts/staking/LendingPoolStakingV2.sol:LendingPoolStakingV2",
        "label": "_operatorApprovals",
        "offset": 0,
        "slot": "106",
        "type": "t_mapping(t_address,t_mapping(t_address,t_bool))"
      },
      {
        "astId": 1784,
        "contract": "contracts/staking/LendingPoolStakingV2.sol:LendingPoolStakingV2",
        "label": "__gap",
        "offset": 0,
        "slot": "107",
        "type": "t_array(t_uint256)44_storage"
      },
      {
        "astId": 1939,
        "contract": "contracts/staking/LendingPoolStakingV2.sol:LendingPoolStakingV2",
        "label": "_tokenURIs",
        "offset": 0,
        "slot": "151",
        "type": "t_mapping(t_uint256,t_string_storage)"
      },
      {
        "astId": 2095,
        "contract": "contracts/staking/LendingPoolStakingV2.sol:LendingPoolStakingV2",
        "label": "__gap",
        "offset": 0,
        "slot": "152",
        "type": "t_array(t_uint256)49_storage"
      },
      {
        "astId": 11,
        "contract": "contracts/staking/LendingPoolStakingV2.sol:LendingPoolStakingV2",
        "label": "_owner",
        "offset": 0,
        "slot": "201",
        "type": "t_address"
      },
      {
        "astId": 131,
        "contract": "contracts/staking/LendingPoolStakingV2.sol:LendingPoolStakingV2",
        "label": "__gap",
        "offset": 0,
        "slot": "202",
        "type": "t_array(t_uint256)49_storage"
      },
      {
        "astId": 7714,
        "contract": "contracts/staking/LendingPoolStakingV2.sol:LendingPoolStakingV2",
        "label": "testing",
        "offset": 0,
        "slot": "251",
        "type": "t_bool"
      },
      {
        "astId": 5268,
        "contract": "contracts/staking/LendingPoolStakingV2.sol:LendingPoolStakingV2",
        "label": "hasRole",
        "offset": 0,
        "slot": "252",
        "type": "t_mapping(t_address,t_mapping(t_string_memory_ptr,t_bool))"
      },
      {
        "astId": 515,
        "contract": "contracts/staking/LendingPoolStakingV2.sol:LendingPoolStakingV2",
        "label": "__gap",
        "offset": 0,
        "slot": "253",
        "type": "t_array(t_uint256)50_storage"
      },
      {
        "astId": 831,
        "contract": "contracts/staking/LendingPoolStakingV2.sol:LendingPoolStakingV2",
        "label": "__gap",
        "offset": 0,
        "slot": "303",
        "type": "t_array(t_uint256)50_storage"
      },
      {
        "astId": 5473,
        "contract": "contracts/staking/LendingPoolStakingV2.sol:LendingPoolStakingV2",
        "label": "nend",
        "offset": 0,
        "slot": "353",
        "type": "t_address"
      },
      {
        "astId": 5476,
        "contract": "contracts/staking/LendingPoolStakingV2.sol:LendingPoolStakingV2",
        "label": "lendingPool",
        "offset": 0,
        "slot": "354",
        "type": "t_contract(Vault)8373"
      },
      {
        "astId": 5480,
        "contract": "contracts/staking/LendingPoolStakingV2.sol:LendingPoolStakingV2",
        "label": "activeStakeTokens",
        "offset": 0,
        "slot": "355",
        "type": "t_mapping(t_address,t_bool)"
      },
      {
        "astId": 5484,
        "contract": "contracts/staking/LendingPoolStakingV2.sol:LendingPoolStakingV2",
        "label": "inflationRollOver",
        "offset": 0,
        "slot": "356",
        "type": "t_mapping(t_address,t_uint256)"
      },
      {
        "astId": 5487,
        "contract": "contracts/staking/LendingPoolStakingV2.sol:LendingPoolStakingV2",
        "label": "stakeTokens",
        "offset": 0,
        "slot": "357",
        "type": "t_array(t_address)dyn_storage"
      },
      {
        "astId": 5489,
        "contract": "contracts/staking/LendingPoolStakingV2.sol:LendingPoolStakingV2",
        "label": "escrowLockPeriod",
        "offset": 0,
        "slot": "358",
        "type": "t_uint48"
      },
      {
        "astId": 5491,
        "contract": "contracts/staking/LendingPoolStakingV2.sol:LendingPoolStakingV2",
        "label": "stakeTokenCount",
        "offset": 0,
        "slot": "359",
        "type": "t_uint256"
      },
      {
        "astId": 5493,
        "contract": "contracts/staking/LendingPoolStakingV2.sol:LendingPoolStakingV2",
        "label": "ongoingStakeCount",
        "offset": 0,
        "slot": "360",
        "type": "t_uint256"
      },
      {
        "astId": 5497,
        "contract": "contracts/staking/LendingPoolStakingV2.sol:LendingPoolStakingV2",
        "label": "ifpTokenToAmount",
        "offset": 0,
        "slot": "361",
        "type": "t_mapping(t_address,t_uint256)"
      },
      {
        "astId": 5503,
        "contract": "contracts/staking/LendingPoolStakingV2.sol:LendingPoolStakingV2",
        "label": "userToStakeTokenToLastEscrowId",
        "offset": 0,
        "slot": "362",
        "type": "t_mapping(t_address,t_mapping(t_address,t_uint256))"
      },
      {
        "astId": 5509,
        "contract": "contracts/staking/LendingPoolStakingV2.sol:LendingPoolStakingV2",
        "label": "lastEscrowRewardByToken_Duration",
        "offset": 0,
        "slot": "363",
        "type": "t_mapping(t_address,t_mapping(t_uint8,t_uint256))"
      },
      {
        "astId": 5513,
        "contract": "contracts/staking/LendingPoolStakingV2.sol:LendingPoolStakingV2",
        "label": "_oldStakes",
        "offset": 0,
        "slot": "364",
        "type": "t_array(t_struct(Stake)7628_storage)dyn_storage"
      },
      {
        "astId": 5517,
        "contract": "contracts/staking/LendingPoolStakingV2.sol:LendingPoolStakingV2",
        "label": "stakeDurations",
        "offset": 0,
        "slot": "365",
        "type": "t_array(t_uint48)3_storage"
      },
      {
        "astId": 5523,
        "contract": "contracts/staking/LendingPoolStakingV2.sol:LendingPoolStakingV2",
        "label": "totalStakedByToken_Duration",
        "offset": 0,
        "slot": "366",
        "type": "t_mapping(t_address,t_mapping(t_uint8,t_uint256))"
      },
      {
        "astId": 5527,
        "contract": "contracts/staking/LendingPoolStakingV2.sol:LendingPoolStakingV2",
        "label": "rewardAllocations",
        "offset": 0,
        "slot": "367",
        "type": "t_array(t_uint8)3_storage"
      },
      {
        "astId": 5529,
        "contract": "contracts/staking/LendingPoolStakingV2.sol:LendingPoolStakingV2",
        "label": "poolRollOver",
        "offset": 0,
        "slot": "368",
        "type": "t_uint256"
      },
      {
        "astId": 5534,
        "contract": "contracts/staking/LendingPoolStakingV2.sol:LendingPoolStakingV2",
        "label": "stakes",
        "offset": 0,
        "slot": "369",
        "type": "t_mapping(t_uint256,t_struct(Stake)7628_storage)"
      },
      {
        "astId": 5536,
        "contract": "contracts/staking/LendingPoolStakingV2.sol:LendingPoolStakingV2",
        "label": "nextStakeId",
        "offset": 0,
        "slot": "370",
        "type": "t_uint256"
      },
      {
        "astId": 5540,
        "contract": "contracts/staking/LendingPoolStakingV2.sol:LendingPoolStakingV2",
        "label": "isActiveStake",
        "offset": 0,
        "slot": "371",
        "type": "t_mapping(t_uint256,t_bool)"
      },
      {
        "astId": 5544,
        "contract": "contracts/staking/LendingPoolStakingV2.sol:LendingPoolStakingV2",
        "label": "activeStakeIndices",
        "offset": 0,
        "slot": "372",
        "type": "t_mapping(t_uint256,t_uint256)"
      },
      {
        "astId": 5548,
        "contract": "contracts/staking/LendingPoolStakingV2.sol:LendingPoolStakingV2",
        "label": "activeStakesById",
        "offset": 0,
        "slot": "373",
        "type": "t_mapping(t_uint256,t_uint256)"
      },
      {
        "astId": 5550,
        "contract": "contracts/staking/LendingPoolStakingV2.sol:LendingPoolStakingV2",
        "label": "activeStakesCount",
        "offset": 0,
        "slot": "374",
        "type": "t_uint256"
      },
      {
        "astId": 5552,
        "contract": "contracts/staking/LendingPoolStakingV2.sol:LendingPoolStakingV2",
        "label": "migrationCompleted",
        "offset": 0,
        "slot": "375",
        "type": "t_bool"
      }
    ],
    "types": {
      "t_address": {
        "encoding": "inplace",
        "label": "address",
        "numberOfBytes": "20"
      },
      "t_array(t_address)dyn_storage": {
        "base": "t_address",
        "encoding": "dynamic_array",
        "label": "address[]",
        "numberOfBytes": "32"
      },
      "t_array(t_struct(Stake)7628_storage)dyn_storage": {
        "base": "t_struct(Stake)7628_storage",
        "encoding": "dynamic_array",
        "label": "struct ILendingPoolStaking.Stake[]",
        "numberOfBytes": "32"
      },
      "t_array(t_uint256)3_storage": {
        "base": "t_uint256",
        "encoding": "inplace",
        "label": "uint256[3]",
        "numberOfBytes": "96"
      },
      "t_array(t_uint256)44_storage": {
        "base": "t_uint256",
        "encoding": "inplace",
        "label": "uint256[44]",
        "numberOfBytes": "1408"
      },
      "t_array(t_uint256)49_storage": {
        "base": "t_uint256",
        "encoding": "inplace",
        "label": "uint256[49]",
        "numberOfBytes": "1568"
      },
      "t_array(t_uint256)50_storage": {
        "base": "t_uint256",
        "encoding": "inplace",
        "label": "uint256[50]",
        "numberOfBytes": "1600"
      },
      "t_array(t_uint48)3_storage": {
        "base": "t_uint48",
        "encoding": "inplace",
        "label": "uint48[3]",
        "numberOfBytes": "32"
      },
      "t_array(t_uint8)3_storage": {
        "base": "t_uint8",
        "encoding": "inplace",
        "label": "uint8[3]",
        "numberOfBytes": "32"
      },
      "t_bool": {
        "encoding": "inplace",
        "label": "bool",
        "numberOfBytes": "1"
      },
      "t_contract(Vault)8373": {
        "encoding": "inplace",
        "label": "contract Vault",
        "numberOfBytes": "20"
      },
      "t_enum(EscrowStatus)7605": {
        "encoding": "inplace",
        "label": "enum ILendingPoolStaking.EscrowStatus",
        "numberOfBytes": "1"
      },
      "t_enum(StakeStatus)7601": {
        "encoding": "inplace",
        "label": "enum ILendingPoolStaking.StakeStatus",
        "numberOfBytes": "1"
      },
      "t_mapping(t_address,t_bool)": {
        "encoding": "mapping",
        "key": "t_address",
        "label": "mapping(address => bool)",
        "numberOfBytes": "32",
        "value": "t_bool"
      },
      "t_mapping(t_address,t_mapping(t_address,t_bool))": {
        "encoding": "mapping",
        "key": "t_address",
        "label": "mapping(address => mapping(address => bool))",
        "numberOfBytes": "32",
        "value": "t_mapping(t_address,t_bool)"
      },
      "t_mapping(t_address,t_mapping(t_address,t_uint256))": {
        "encoding": "mapping",
        "key": "t_address",
        "label": "mapping(address => mapping(address => uint256))",
        "numberOfBytes": "32",
        "value": "t_mapping(t_address,t_uint256)"
      },
      "t_mapping(t_address,t_mapping(t_string_memory_ptr,t_bool))": {
        "encoding": "mapping",
        "key": "t_address",
        "label": "mapping(address => mapping(string => bool))",
        "numberOfBytes": "32",
        "value": "t_mapping(t_string_memory_ptr,t_bool)"
      },
      "t_mapping(t_address,t_mapping(t_uint8,t_uint256))": {
        "encoding": "mapping",
        "key": "t_address",
        "label": "mapping(address => mapping(uint8 => uint256))",
        "numberOfBytes": "32",
        "value": "t_mapping(t_uint8,t_uint256)"
      },
      "t_mapping(t_address,t_uint256)": {
        "encoding": "mapping",
        "key": "t_address",
        "label": "mapping(address => uint256)",
        "numberOfBytes": "32",
        "value": "t_uint256"
      },
      "t_mapping(t_string_memory_ptr,t_bool)": {
        "encoding": "mapping",
        "key": "t_string_memory_ptr",
        "label": "mapping(string => bool)",
        "numberOfBytes": "32",
        "value": "t_bool"
      },
      "t_mapping(t_uint256,t_address)": {
        "encoding": "mapping",
        "key": "t_uint256",
        "label": "mapping(uint256 => address)",
        "numberOfBytes": "32",
        "value": "t_address"
      },
      "t_mapping(t_uint256,t_bool)": {
        "encoding": "mapping",
        "key": "t_uint256",
        "label": "mapping(uint256 => bool)",
        "numberOfBytes": "32",
        "value": "t_bool"
      },
      "t_mapping(t_uint256,t_string_storage)": {
        "encoding": "mapping",
        "key": "t_uint256",
        "label": "mapping(uint256 => string)",
        "numberOfBytes": "32",
        "value": "t_string_storage"
      },
      "t_mapping(t_uint256,t_struct(Stake)7628_storage)": {
        "encoding": "mapping",
        "key": "t_uint256",
        "label": "mapping(uint256 => struct ILendingPoolStaking.Stake)",
        "numberOfBytes": "32",
        "value": "t_struct(Stake)7628_storage"
      },
      "t_mapping(t_uint256,t_uint256)": {
        "encoding": "mapping",
        "key": "t_uint256",
        "label": "mapping(uint256 => uint256)",
        "numberOfBytes": "32",
        "value": "t_uint256"
      },
      "t_mapping(t_uint8,t_uint256)": {
        "encoding": "mapping",
        "key": "t_uint8",
        "label": "mapping(uint8 => uint256)",
        "numberOfBytes": "32",
        "value": "t_uint256"
      },
      "t_string_memory_ptr": {
        "encoding": "bytes",
        "label": "string",
        "numberOfBytes": "32"
      },
      "t_string_storage": {
        "encoding": "bytes",
        "label": "string",
        "numberOfBytes": "32"
      },
      "t_struct(Stake)7628_storage": {
        "encoding": "inplace",
        "label": "struct ILendingPoolStaking.Stake",
        "members": [
          {
            "astId": 7607,
            "contract": "contracts/staking/LendingPoolStakingV2.sol:LendingPoolStakingV2",
            "label": "staker",
            "offset": 0,
            "slot": "0",
            "type": "t_address"
          },
          {
            "astId": 7609,
            "contract": "contracts/staking/LendingPoolStakingV2.sol:LendingPoolStakingV2",
            "label": "token",
            "offset": 0,
            "slot": "1",
            "type": "t_address"
          },
          {
            "astId": 7611,
            "contract": "contracts/staking/LendingPoolStakingV2.sol:LendingPoolStakingV2",
            "label": "start",
            "offset": 20,
            "slot": "1",
            "type": "t_uint48"
          },
          {
            "astId": 7613,
            "contract": "contracts/staking/LendingPoolStakingV2.sol:LendingPoolStakingV2",
            "label": "end",
            "offset": 26,
            "slot": "1",
            "type": "t_uint48"
          },
          {
            "astId": 7617,
            "contract": "contracts/staking/LendingPoolStakingV2.sol:LendingPoolStakingV2",
            "label": "amountsPerDuration",
            "offset": 0,
            "slot": "2",
            "type": "t_array(t_uint256)3_storage"
          },
          {
            "astId": 7619,
            "contract": "contracts/staking/LendingPoolStakingV2.sol:LendingPoolStakingV2",
            "label": "rewardAllocated",
            "offset": 0,
            "slot": "5",
            "type": "t_uint256"
          },
          {
            "astId": 7621,
            "contract": "contracts/staking/LendingPoolStakingV2.sol:LendingPoolStakingV2",
            "label": "isEscrow",
            "offset": 0,
            "slot": "6",
            "type": "t_bool"
          },
          {
            "astId": 7624,
            "contract": "contracts/staking/LendingPoolStakingV2.sol:LendingPoolStakingV2",
            "label": "escrowStatus",
            "offset": 1,
            "slot": "6",
            "type": "t_enum(EscrowStatus)7605"
          },
          {
            "astId": 7627,
            "contract": "contracts/staking/LendingPoolStakingV2.sol:LendingPoolStakingV2",
            "label": "stakeStatus",
            "offset": 2,
            "slot": "6",
            "type": "t_enum(StakeStatus)7601"
          }
        ],
        "numberOfBytes": "224"
      },
      "t_uint256": {
        "encoding": "inplace",
        "label": "uint256",
        "numberOfBytes": "32"
      },
      "t_uint48": {
        "encoding": "inplace",
        "label": "uint48",
        "numberOfBytes": "6"
      },
      "t_uint8": {
        "encoding": "inplace",
        "label": "uint8",
        "numberOfBytes": "1"
      }
    }
  }
}