{
  "address": "0xA4f39f4FCA5e4EA4871baF3902A769804756D58a",
  "abi": [
    {
      "anonymous": false,
      "inputs": [
        {
          "indexed": false,
          "internalType": "address",
          "name": "previousAdmin",
          "type": "address"
        },
        {
          "indexed": false,
          "internalType": "address",
          "name": "newAdmin",
          "type": "address"
        }
      ],
      "name": "AdminChanged",
      "type": "event"
    },
    {
      "anonymous": false,
      "inputs": [
        {
          "indexed": true,
          "internalType": "address",
          "name": "owner",
          "type": "address"
        },
        {
          "indexed": true,
          "internalType": "address",
          "name": "approved",
          "type": "address"
        },
        {
          "indexed": true,
          "internalType": "uint256",
          "name": "tokenId",
          "type": "uint256"
        }
      ],
      "name": "Approval",
      "type": "event"
    },
    {
      "anonymous": false,
      "inputs": [
        {
          "indexed": true,
          "internalType": "address",
          "name": "owner",
          "type": "address"
        },
        {
          "indexed": true,
          "internalType": "address",
          "name": "operator",
          "type": "address"
        },
        {
          "indexed": false,
          "internalType": "bool",
          "name": "approved",
          "type": "bool"
        }
      ],
      "name": "ApprovalForAll",
      "type": "event"
    },
    {
      "anonymous": false,
      "inputs": [
        {
          "indexed": true,
          "internalType": "address",
          "name": "beacon",
          "type": "address"
        }
      ],
      "name": "BeaconUpgraded",
      "type": "event"
    },
    {
      "anonymous": false,
      "inputs": [
        {
          "indexed": false,
          "internalType": "uint8",
          "name": "version",
          "type": "uint8"
        }
      ],
      "name": "Initialized",
      "type": "event"
    },
    {
      "anonymous": false,
      "inputs": [
        {
          "indexed": true,
          "internalType": "address",
          "name": "previousOwner",
          "type": "address"
        },
        {
          "indexed": true,
          "internalType": "address",
          "name": "newOwner",
          "type": "address"
        }
      ],
      "name": "OwnershipTransferred",
      "type": "event"
    },
    {
      "anonymous": false,
      "inputs": [
        {
          "indexed": true,
          "internalType": "address",
          "name": "from",
          "type": "address"
        },
        {
          "indexed": true,
          "internalType": "address",
          "name": "to",
          "type": "address"
        },
        {
          "indexed": true,
          "internalType": "uint256",
          "name": "tokenId",
          "type": "uint256"
        }
      ],
      "name": "Transfer",
      "type": "event"
    },
    {
      "anonymous": false,
      "inputs": [
        {
          "indexed": true,
          "internalType": "address",
          "name": "implementation",
          "type": "address"
        }
      ],
      "name": "Upgraded",
      "type": "event"
    },
    {
      "inputs": [],
      "name": "MAX_SALE_AMOUNT",
      "outputs": [
        {
          "internalType": "uint256",
          "name": "",
          "type": "uint256"
        }
      ],
      "stateMutability": "view",
      "type": "function"
    },
    {
      "inputs": [],
      "name": "MINT_PRICE",
      "outputs": [
        {
          "internalType": "uint256",
          "name": "",
          "type": "uint256"
        }
      ],
      "stateMutability": "view",
      "type": "function"
    },
    {
      "inputs": [],
      "name": "__MWOwnable_init",
      "outputs": [],
      "stateMutability": "nonpayable",
      "type": "function"
    },
    {
      "inputs": [
        {
          "internalType": "address",
          "name": "to",
          "type": "address"
        },
        {
          "internalType": "uint256",
          "name": "tokenId",
          "type": "uint256"
        }
      ],
      "name": "approve",
      "outputs": [],
      "stateMutability": "nonpayable",
      "type": "function"
    },
    {
      "inputs": [
        {
          "internalType": "address",
          "name": "operator",
          "type": "address"
        },
        {
          "internalType": "string",
          "name": "role",
          "type": "string"
        },
        {
          "internalType": "bool",
          "name": "authorized",
          "type": "bool"
        }
      ],
      "name": "authorize",
      "outputs": [],
      "stateMutability": "nonpayable",
      "type": "function"
    },
    {
      "inputs": [
        {
          "internalType": "address",
          "name": "owner",
          "type": "address"
        }
      ],
      "name": "balanceOf",
      "outputs": [
        {
          "internalType": "uint256",
          "name": "",
          "type": "uint256"
        }
      ],
      "stateMutability": "view",
      "type": "function"
    },
    {
      "inputs": [
        {
          "internalType": "uint256",
          "name": "tokenId",
          "type": "uint256"
        }
      ],
      "name": "getApproved",
      "outputs": [
        {
          "internalType": "address",
          "name": "",
          "type": "address"
        }
      ],
      "stateMutability": "view",
      "type": "function"
    },
    {
      "inputs": [
        {
          "internalType": "address",
          "name": "",
          "type": "address"
        },
        {
          "internalType": "string",
          "name": "",
          "type": "string"
        }
      ],
      "name": "hasRole",
      "outputs": [
        {
          "internalType": "bool",
          "name": "",
          "type": "bool"
        }
      ],
      "stateMutability": "view",
      "type": "function"
    },
    {
      "inputs": [
        {
          "internalType": "string",
          "name": "name",
          "type": "string"
        },
        {
          "internalType": "string",
          "name": "symbol",
          "type": "string"
        },
        {
          "internalType": "address",
          "name": "wETH",
          "type": "address"
        },
        {
          "internalType": "address",
          "name": "ticket",
          "type": "address"
        },
        {
          "internalType": "uint256",
          "name": "mintPrice",
          "type": "uint256"
        }
      ],
      "name": "initialize",
      "outputs": [],
      "stateMutability": "nonpayable",
      "type": "function"
    },
    {
      "inputs": [
        {
          "internalType": "address",
          "name": "owner",
          "type": "address"
        },
        {
          "internalType": "address",
          "name": "operator",
          "type": "address"
        }
      ],
      "name": "isApprovedForAll",
      "outputs": [
        {
          "internalType": "bool",
          "name": "",
          "type": "bool"
        }
      ],
      "stateMutability": "view",
      "type": "function"
    },
    {
      "inputs": [],
      "name": "isEnabledNextScenario",
      "outputs": [
        {
          "internalType": "bool",
          "name": "",
          "type": "bool"
        }
      ],
      "stateMutability": "view",
      "type": "function"
    },
    {
      "inputs": [],
      "name": "isEnabledPublicMint",
      "outputs": [
        {
          "internalType": "bool",
          "name": "",
          "type": "bool"
        }
      ],
      "stateMutability": "view",
      "type": "function"
    },
    {
      "inputs": [],
      "name": "isEnabledTicketMint",
      "outputs": [
        {
          "internalType": "bool",
          "name": "",
          "type": "bool"
        }
      ],
      "stateMutability": "view",
      "type": "function"
    },
    {
      "inputs": [],
      "name": "isEnabledWhitelistMint",
      "outputs": [
        {
          "internalType": "bool",
          "name": "",
          "type": "bool"
        }
      ],
      "stateMutability": "view",
      "type": "function"
    },
    {
      "inputs": [],
      "name": "isRevealed",
      "outputs": [
        {
          "internalType": "bool",
          "name": "",
          "type": "bool"
        }
      ],
      "stateMutability": "view",
      "type": "function"
    },
    {
      "inputs": [],
      "name": "merkleRoot",
      "outputs": [
        {
          "internalType": "bytes32",
          "name": "",
          "type": "bytes32"
        }
      ],
      "stateMutability": "view",
      "type": "function"
    },
    {
      "inputs": [],
      "name": "mintIndexForSale",
      "outputs": [
        {
          "internalType": "uint256",
          "name": "",
          "type": "uint256"
        }
      ],
      "stateMutability": "view",
      "type": "function"
    },
    {
      "inputs": [],
      "name": "mintStartBlockNumber",
      "outputs": [
        {
          "internalType": "uint256",
          "name": "",
          "type": "uint256"
        }
      ],
      "stateMutability": "view",
      "type": "function"
    },
    {
      "inputs": [],
      "name": "mintingInformation",
      "outputs": [
        {
          "internalType": "uint256[3]",
          "name": "",
          "type": "uint256[3]"
        }
      ],
      "stateMutability": "view",
      "type": "function"
    },
    {
      "inputs": [],
      "name": "name",
      "outputs": [
        {
          "internalType": "string",
          "name": "",
          "type": "string"
        }
      ],
      "stateMutability": "view",
      "type": "function"
    },
    {
      "inputs": [],
      "name": "owner",
      "outputs": [
        {
          "internalType": "address",
          "name": "",
          "type": "address"
        }
      ],
      "stateMutability": "view",
      "type": "function"
    },
    {
      "inputs": [
        {
          "internalType": "uint256",
          "name": "tokenId",
          "type": "uint256"
        }
      ],
      "name": "ownerOf",
      "outputs": [
        {
          "internalType": "address",
          "name": "",
          "type": "address"
        }
      ],
      "stateMutability": "view",
      "type": "function"
    },
    {
      "inputs": [],
      "name": "proxiableUUID",
      "outputs": [
        {
          "internalType": "bytes32",
          "name": "",
          "type": "bytes32"
        }
      ],
      "stateMutability": "view",
      "type": "function"
    },
    {
      "inputs": [
        {
          "internalType": "uint256",
          "name": "requestedCount",
          "type": "uint256"
        }
      ],
      "name": "publicMint",
      "outputs": [],
      "stateMutability": "nonpayable",
      "type": "function"
    },
    {
      "inputs": [],
      "name": "renounceOwnership",
      "outputs": [],
      "stateMutability": "nonpayable",
      "type": "function"
    },
    {
      "inputs": [
        {
          "internalType": "uint256",
          "name": "tokenId",
          "type": "uint256"
        },
        {
          "internalType": "string",
          "name": "tokenHash",
          "type": "string"
        }
      ],
      "name": "repairTokenURI",
      "outputs": [],
      "stateMutability": "nonpayable",
      "type": "function"
    },
    {
      "inputs": [
        {
          "internalType": "uint256",
          "name": "",
          "type": "uint256"
        }
      ],
      "name": "revealChecked",
      "outputs": [
        {
          "internalType": "bool",
          "name": "",
          "type": "bool"
        }
      ],
      "stateMutability": "view",
      "type": "function"
    },
    {
      "inputs": [
        {
          "internalType": "uint256[]",
          "name": "tokenIds",
          "type": "uint256[]"
        },
        {
          "internalType": "string[]",
          "name": "tokenHash",
          "type": "string[]"
        }
      ],
      "name": "revealTokens",
      "outputs": [],
      "stateMutability": "nonpayable",
      "type": "function"
    },
    {
      "inputs": [
        {
          "internalType": "address",
          "name": "from",
          "type": "address"
        },
        {
          "internalType": "address",
          "name": "to",
          "type": "address"
        },
        {
          "internalType": "uint256",
          "name": "tokenId",
          "type": "uint256"
        }
      ],
      "name": "safeTransferFrom",
      "outputs": [],
      "stateMutability": "nonpayable",
      "type": "function"
    },
    {
      "inputs": [
        {
          "internalType": "address",
          "name": "from",
          "type": "address"
        },
        {
          "internalType": "address",
          "name": "to",
          "type": "address"
        },
        {
          "internalType": "uint256",
          "name": "tokenId",
          "type": "uint256"
        },
        {
          "internalType": "bytes",
          "name": "data",
          "type": "bytes"
        }
      ],
      "name": "safeTransferFrom",
      "outputs": [],
      "stateMutability": "nonpayable",
      "type": "function"
    },
    {
      "inputs": [
        {
          "internalType": "address",
          "name": "operator",
          "type": "address"
        },
        {
          "internalType": "bool",
          "name": "approved",
          "type": "bool"
        }
      ],
      "name": "setApprovalForAll",
      "outputs": [],
      "stateMutability": "nonpayable",
      "type": "function"
    },
    {
      "inputs": [
        {
          "internalType": "string",
          "name": "_newBaseURI",
          "type": "string"
        }
      ],
      "name": "setBaseURI",
      "outputs": [],
      "stateMutability": "nonpayable",
      "type": "function"
    },
    {
      "inputs": [
        {
          "internalType": "bytes32",
          "name": "_merkleRoot",
          "type": "bytes32"
        }
      ],
      "name": "setMerkleRoot",
      "outputs": [],
      "stateMutability": "nonpayable",
      "type": "function"
    },
    {
      "inputs": [
        {
          "internalType": "address",
          "name": "nextScenario",
          "type": "address"
        }
      ],
      "name": "setNextScenarioConenct",
      "outputs": [],
      "stateMutability": "nonpayable",
      "type": "function"
    },
    {
      "inputs": [
        {
          "internalType": "string",
          "name": "_newNotRevealedURI",
          "type": "string"
        }
      ],
      "name": "setNotRevealedURI",
      "outputs": [],
      "stateMutability": "nonpayable",
      "type": "function"
    },
    {
      "inputs": [
        {
          "internalType": "bool",
          "name": "_state",
          "type": "bool"
        }
      ],
      "name": "setPublicMintState",
      "outputs": [],
      "stateMutability": "nonpayable",
      "type": "function"
    },
    {
      "inputs": [
        {
          "internalType": "bool",
          "name": "_state",
          "type": "bool"
        }
      ],
      "name": "setRevealState",
      "outputs": [],
      "stateMutability": "nonpayable",
      "type": "function"
    },
    {
      "inputs": [
        {
          "internalType": "bool",
          "name": "_state",
          "type": "bool"
        }
      ],
      "name": "setTicketMintState",
      "outputs": [],
      "stateMutability": "nonpayable",
      "type": "function"
    },
    {
      "inputs": [
        {
          "internalType": "bool",
          "name": "_state",
          "type": "bool"
        }
      ],
      "name": "setWhitelistMintState",
      "outputs": [],
      "stateMutability": "nonpayable",
      "type": "function"
    },
    {
      "inputs": [
        {
          "internalType": "uint256",
          "name": "mintPrice",
          "type": "uint256"
        }
      ],
      "name": "setupSale",
      "outputs": [],
      "stateMutability": "nonpayable",
      "type": "function"
    },
    {
      "inputs": [
        {
          "internalType": "bytes4",
          "name": "interfaceId",
          "type": "bytes4"
        }
      ],
      "name": "supportsInterface",
      "outputs": [
        {
          "internalType": "bool",
          "name": "",
          "type": "bool"
        }
      ],
      "stateMutability": "view",
      "type": "function"
    },
    {
      "inputs": [],
      "name": "symbol",
      "outputs": [
        {
          "internalType": "string",
          "name": "",
          "type": "string"
        }
      ],
      "stateMutability": "view",
      "type": "function"
    },
    {
      "inputs": [
        {
          "internalType": "uint256",
          "name": "requestedCount",
          "type": "uint256"
        }
      ],
      "name": "ticketMint",
      "outputs": [],
      "stateMutability": "nonpayable",
      "type": "function"
    },
    {
      "inputs": [
        {
          "internalType": "uint256",
          "name": "index",
          "type": "uint256"
        }
      ],
      "name": "tokenByIndex",
      "outputs": [
        {
          "internalType": "uint256",
          "name": "",
          "type": "uint256"
        }
      ],
      "stateMutability": "view",
      "type": "function"
    },
    {
      "inputs": [
        {
          "internalType": "address",
          "name": "owner",
          "type": "address"
        },
        {
          "internalType": "uint256",
          "name": "index",
          "type": "uint256"
        }
      ],
      "name": "tokenOfOwnerByIndex",
      "outputs": [
        {
          "internalType": "uint256",
          "name": "",
          "type": "uint256"
        }
      ],
      "stateMutability": "view",
      "type": "function"
    },
    {
      "inputs": [
        {
          "internalType": "uint256",
          "name": "tokenId",
          "type": "uint256"
        }
      ],
      "name": "tokenURI",
      "outputs": [
        {
          "internalType": "string",
          "name": "",
          "type": "string"
        }
      ],
      "stateMutability": "view",
      "type": "function"
    },
    {
      "inputs": [],
      "name": "totalSupply",
      "outputs": [
        {
          "internalType": "uint256",
          "name": "",
          "type": "uint256"
        }
      ],
      "stateMutability": "view",
      "type": "function"
    },
    {
      "inputs": [
        {
          "internalType": "address",
          "name": "from",
          "type": "address"
        },
        {
          "internalType": "address",
          "name": "to",
          "type": "address"
        },
        {
          "internalType": "uint256",
          "name": "tokenId",
          "type": "uint256"
        }
      ],
      "name": "transferFrom",
      "outputs": [],
      "stateMutability": "nonpayable",
      "type": "function"
    },
    {
      "inputs": [
        {
          "internalType": "address",
          "name": "newOwner",
          "type": "address"
        }
      ],
      "name": "transferOwnership",
      "outputs": [],
      "stateMutability": "nonpayable",
      "type": "function"
    },
    {
      "inputs": [
        {
          "internalType": "address",
          "name": "newImplementation",
          "type": "address"
        }
      ],
      "name": "upgradeTo",
      "outputs": [],
      "stateMutability": "nonpayable",
      "type": "function"
    },
    {
      "inputs": [
        {
          "internalType": "address",
          "name": "newImplementation",
          "type": "address"
        },
        {
          "internalType": "bytes",
          "name": "data",
          "type": "bytes"
        }
      ],
      "name": "upgradeToAndCall",
      "outputs": [],
      "stateMutability": "payable",
      "type": "function"
    },
    {
      "inputs": [
        {
          "internalType": "uint256",
          "name": "requestedCount",
          "type": "uint256"
        },
        {
          "internalType": "bytes32[]",
          "name": "_merkleProof",
          "type": "bytes32[]"
        }
      ],
      "name": "whitelistMint",
      "outputs": [],
      "stateMutability": "nonpayable",
      "type": "function"
    },
    {
      "inputs": [
        {
          "internalType": "address",
          "name": "",
          "type": "address"
        }
      ],
      "name": "whitelistMintLimit",
      "outputs": [
        {
          "internalType": "uint256",
          "name": "",
          "type": "uint256"
        }
      ],
      "stateMutability": "view",
      "type": "function"
    }
  ],
  "transactionHash": "0x88b97fd350c195f97da476e39bd22c3668943d6fd15591b0aeb1f0e5bf3ffba0",
  "args": [],
  "numDeployments": 1,
  "solcInputHash": "a98b85679c117a20c3b99df23d476f7d",
  "bytecode": "0x60a06040523462000118576000546200003260ff8260081c16158092819362000109575b8115620000e6575b506200011d565b8062000046600160ff196000541617600055565b620000cb575b6200005662000181565b62000087575b306080526040516144539081620001e28239608051818181610f330152818161113901526112320152f35b6200009861ff001960005416600055565b604051600181527f7f26b83ff96e1f2b6a682f133852f6798a09c465da95921460cefb384740249890602090a16200005c565b620000e061010061ff00196000541617600055565b6200004c565b303b15915081620000fa575b50386200002b565b6001915060ff161438620000f2565b600160ff821610915062000023565b600080fd5b156200012557565b60405162461bcd60e51b815260206004820152602e60248201527f496e697469616c697a61626c653a20636f6e747261637420697320616c72656160448201526d191e481a5b9a5d1a585b1a5e995960921b6064820152608490fd5b60fb8054734a580d71c0f73202c51c58147aa7c7e09245b10a6001600160a01b0319821681179092556040516001600160a01b03909116907f8be0079c531659141344cd1fd0a4f28419497f9722a3daafe3b4186f6b6457e090600090a356fe60806040526004361015610013575b600080fd5b60003560e01c806301ffc9a71461043757806306fdde031461042e578063081812fc1461042557806308f9d2261461041c578063095ea7b31461041357806318160ddd1461040a5780631dd8792b146104015780632084ab83146103f8578063217fe6c6146103ef57806323b872dd146103e6578063257a1a63146103dd5780632b140d30146103d45780632db11544146103cb5780632eb4a7ab146103c25780632f745c59146103b957806330c19d0a146103b05780633659cfe6146103a757806337fdc1a71461039e57806339d2525f146103955780633a1595dc1461038c57806342842e0e146103835780634f1ef2861461037a5780634f6ccce71461037157806352d1902d1461036857806353de78041461035f57806354214f691461035657806355f804b31461034d5780636352211e1461034457806365b014b71461033b5780636ce653c21461033257806370a0823114610329578063715018a61461032057806371d466031461031757806376661e421461030e5780637cb6475914610305578063879fbedf146102fc5780638b2e9809146102f35780638da5cb5b146102ea57806395d89b41146102e1578063a0d90f76146102d8578063a22cb465146102cf578063a3057227146102c6578063b61c2b10146102bd578063b88d4fde146102b4578063c002d23d146102ab578063c6a768f4146102a2578063c87b56dd14610299578063c9aba0aa14610290578063d2cab05614610287578063d566e7a81461027e578063e985e9c514610275578063f2c4ce1e1461026c5763f2fde38b1461026457600080fd5b61000e6120c8565b5061000e611fde565b5061000e611f7b565b5061000e611f53565b5061000e611dfd565b5061000e611cc9565b5061000e611c95565b5061000e611c4c565b5061000e611c2c565b5061000e611bdc565b5061000e611bb6565b5061000e611a5c565b5061000e611940565b5061000e611919565b5061000e611871565b5061000e611849565b5061000e611807565b5061000e6117c2565b5061000e61179c565b5061000e61177c565b5061000e61175c565b5061000e6116fc565b5061000e6116d0565b5061000e611660565b5061000e611635565b5061000e611616565b5061000e611506565b5061000e6114b6565b5061000e61131f565b5061000e611216565b5061000e61116a565b5061000e6110ee565b5061000e6110a6565b5061000e61107e565b5061000e610fe3565b5061000e610fbb565b5061000e610f05565b5061000e610ec9565b5061000e610e0b565b5061000e610deb565b5061000e610cae565b5061000e610b38565b5061000e610b18565b5061000e610aee565b5061000e610a2d565b5061000e6108ff565b5061000e61086b565b5061000e61084c565b5061000e610757565b5061000e610660565b5061000e610626565b5061000e610549565b5061000e610452565b6001600160e01b031981160361000e57565b503461000e57602036600319011261000e57602060043561047281610440565b63ffffffff60e01b1663780e9d6360e01b8114908115610498575b506040519015158152f35b6380ac58cd60e01b8114915081156104ca575b81156104b9575b503861048d565b6301ffc9a760e01b149050386104b2565b635b5e139f60e01b811491506104ab565b918091926000905b8282106104fb5750116104f4575050565b6000910152565b915080602091830151818601520182916104e3565b90602091610529815180928185528580860191016104db565b601f01601f1916010190565b906020610546928181520190610510565b90565b503461000e5760008060031936011261062357604051908060655461056d81612835565b8085529160019180831690811561060257506001146105a7575b6105a3856105978187038261098e565b60405191829182610535565b0390f35b9250606583527f8ff97419363ffd7000167f130ef7168fbea05faf9251824ca5043f113cc6a7c75b8284106105ea575050508101602001610597826105a3610587565b805460208587018101919091529093019281016105cf565b60ff19166020870152505060408401925061059791508390506105a3610587565b80fd5b503461000e57602036600319011261000e57602061064560043561299c565b6001600160a01b0360405191168152f35b8015150361000e57565b503461000e57602036600319011261000e5760043561067e81610656565b6106a5610689613eca565b6001600160a01b0360fb541633149081156106c3575b50613f0d565b610195805462ff0000191691151560101b62ff000016919091179055005b60ff915060206106ee913360005261012d8252604060002082604051948386809551938492016104db565b82019081520301902054163861069f565b600435906001600160a01b038216820361000e57565b602435906001600160a01b038216820361000e57565b604435906001600160a01b038216820361000e57565b606435906001600160a01b038216820361000e57565b503461000e57604036600319011261000e576107716106ff565b60243561077d81612813565b916001600160a01b0380841680918316146107fd576107af936107aa9133149081156107b1575b5061292a565b612d10565b005b6107f791506107f0906107d833916001600160a01b0316600052606a602052604060002090565b906001600160a01b0316600052602052604060002090565b5460ff1690565b386107a4565b60405162461bcd60e51b815260206004820152602160248201527f4552433732313a20617070726f76616c20746f2063757272656e74206f776e656044820152603960f91b6064820152608490fd5b503461000e57600036600319011261000e57602060cb54604051908152f35b503461000e57600036600319011261000e57606060405161088b81610949565b3690376040516060810181811067ffffffffffffffff8211176108f2575b60405261019254815261019754906020918282015261019454604082015260405191826000905b600382106108dd57606085f35b828060019286518152019401910190926108d0565b6108fa610932565b6108a9565b503461000e57602036600319011261000e5760043560005261019c602052602060ff604060002054166040519015158152f35b50634e487b7160e01b600052604160045260246000fd5b6060810190811067ffffffffffffffff82111761096557604052565b61096d610932565b604052565b6020810190811067ffffffffffffffff82111761096557604052565b90601f8019910116810190811067ffffffffffffffff82111761096557604052565b60209067ffffffffffffffff81116109ce575b601f01601f19160190565b6109d6610932565b6109c3565b9291926109e7826109b0565b916109f5604051938461098e565b82948184528183011161000e578281602093846000960137010152565b9080601f8301121561000e57816020610546933591016109db565b503461000e57604036600319011261000e57610a476106ff565b60243567ffffffffffffffff811161000e57610a9c60206105a3936001600160a01b03610a7a60ff953690600401610a12565b911660005261012d8252604060002082604051948386809551938492016104db565b820190815203019020546040519116151581529081906020820190565b606090600319011261000e576001600160a01b0390600435828116810361000e5791602435908116810361000e579060443590565b503461000e576107af610b0036610ab9565b91610b13610b0e8433612acb565b6129de565b612ba6565b503461000e57600036600319011261000e57602061019754604051908152f35b503461000e57602036600319011261000e57600435610b66610b616101955460ff9060101c1690565b613672565b61019290610b83610b788284546136d5565b6101975410156136ed565b610bec602082610bab610b9f6101a0546001600160a01b031690565b6001600160a01b031690565b60fb546040516323b872dd60e01b81523360048201526001600160a01b03909116602482015260448101929092529092839190829060009082906064820190565b03925af18015610ca1575b610c73575b5060005b818110610c1b576107af610c158385546136d5565b61019255565b80610c33610c2d610c6e9386546136d5565b336137aa565b610c468454610c4061286f565b906138c4565b610c69610c5f855460005261019c602052604060002090565b805460ff19169055565b61374e565b610c00565b610c939060203d8111610c9a575b610c8b818361098e565b810190613739565b5038610bfc565b503d610c81565b610ca9612263565b610bf7565b503461000e57602036600319011261000e57600435610cdc610cd76101955460ff9060081c1690565b613bc1565b61019290610cee610b788284546136d5565b610d5e6020610d09610b9f61019f546001600160a01b031690565b60fb546001600160a01b031690610d236101945486613c0d565b6040516323b872dd60e01b81523360048201526001600160a01b03909316602484015260448301529092839190829060009082906064820190565b03925af18015610dde575b610dc0575b5060005b818110610da957610d87610c158385546136d5565b43610da6336001600160a01b031660005261019a602052604060002090565b55005b80610c33610c2d610dbb9386546136d5565b610d72565b610dd79060203d8111610c9a57610c8b818361098e565b5038610d6e565b610de6612263565b610d69565b503461000e57600036600319011261000e57602061019654604051908152f35b503461000e57604036600319011261000e57610e256106ff565b60243590610e3281612750565b821015610e70576001600160a01b031660005260c96020526040600020906000526020526105a3604060002054604051918291829190602083019252565b60405162461bcd60e51b815260206004820152602b60248201527f455243373231456e756d657261626c653a206f776e657220696e646578206f7560448201526a74206f6620626f756e647360a81b6064820152608490fd5b503461000e57602036600319011261000e576001600160a01b03610eeb6106ff565b1660005261019d6020526020604060002054604051908152f35b503461000e57602036600319011261000e576107af610f226106ff565b610fa56001600160a01b03610f89817f000000000000000000000000000000000000000000000000000000000000000016610f5f81301415612192565b827f360894a13ba1a3210667c828492db98dca3e2076cc3735a920a3ca505d382bbc5416146121f3565b610f91613eca565b9060fb541633149081156106c35750613f0d565b60405190610fb282610972565b600082526122ce565b503461000e57600036600319011261000e57602060ff6101955460081c166040519015158152f35b503461000e57606036600319011261000e57610ffd6106ff565b6024359067ffffffffffffffff821161000e5761106460206110266107af943690600401610a12565b6001600160a01b036044359461103b86610656565b611043612f94565b1660005261012d8252604060002082604051948386809551938492016104db565b8201908152030190209060ff801983541691151516179055565b503461000e57600036600319011261000e57602060ff6101955460181c166040519015158152f35b503461000e576107af6110b836610ab9565b90604051926020840184811067ffffffffffffffff8211176110e1575b60405260008452612a40565b6110e9610932565b6110d5565b50604036600319011261000e576111036106ff565b6024359067ffffffffffffffff821161000e576111276107af923690600401610a12565b906111656001600160a01b03610f89817f000000000000000000000000000000000000000000000000000000000000000016610f5f81301415612192565b6123fc565b503461000e57602036600319011261000e5760043560cb548110156111bc5760cb6000527fa7ce836d032b2bf62b7e2097a8e0a6d8aeb35405ad15271e96d3b0188a1d06fb0154604051908152602090f35b60405162461bcd60e51b815260206004820152602c60248201527f455243373231456e756d657261626c653a20676c6f62616c20696e646578206f60448201526b7574206f6620626f756e647360a01b6064820152608490fd5b503461000e57600036600319011261000e576001600160a01b037f0000000000000000000000000000000000000000000000000000000000000000163003611283576040517f360894a13ba1a3210667c828492db98dca3e2076cc3735a920a3ca505d382bbc8152602090f35b60405162461bcd60e51b815260206004820152603860248201527f555550535570677261646561626c653a206d757374206e6f742062652063616c60448201527f6c6564207468726f7567682064656c656761746563616c6c00000000000000006064820152608490fd5b9181601f8401121561000e5782359167ffffffffffffffff831161000e576020808501948460051b01011161000e57565b503461000e5760408060031936011261000e5767ffffffffffffffff60043581811161000e576113539036906004016112ee565b909160243590811161000e5761136d9036906004016112ee565b6101959391935490611386600160ff8416151514613cd6565b61139c61139561019854612835565b1515613d22565b6113b1600160ff602094851c16151514613d6e565b60005b8481106113bd57005b6114b1906113e2336113dc610b9f6113d6858b8b613dc4565b35612813565b14613de2565b61141661141061140b6107f06113f9858b8b613dc4565b3560005261019c602052604060002090565b151590565b15613e2e565b6114a861146561142783868b613e7a565b6114576114468d949394519485936114408c8601613c2c565b91613cc8565b64173539b7b760d91b815260050190565b03601f19810183528261098e565b6114836114766113f9858b8b613dc4565b805460ff19166001179055565b6114a3611491848a8a613dc4565b3560005261019b602052604060002090565b613584565b610c6933613f59565b6113b4565b503461000e57600036600319011261000e57602060ff61019554166040519015158152f35b602060031982011261000e576004359067ffffffffffffffff821161000e5761054691600401610a12565b503461000e57611515366114db565b61151d612f94565b805167ffffffffffffffff8111611609575b61019890611546816115418454612835565b613272565b602080601f83116001146115815750819293600092611576575b50508160011b916000199060031b1c1916179055005b015190503880611560565b90601f198316946115b56101986000527f3f539f465397ab387efa93a617e37005205c037386b5b474fcfac82f47f77f0d90565b926000905b8782106115f15750508360019596106115d8575b505050811b019055005b015160001960f88460031b161c191690553880806115ce565b806001859682949686015181550195019301906115ba565b611611610932565b61152f565b503461000e57602036600319011261000e576020610645600435612813565b503461000e57600036600319011261000e5761165860ff60005460081c16612f1b565b6107af612fec565b503461000e57602036600319011261000e5761167a6106ff565b611682613eca565b6116a26001600160a01b03918260fb541633149081156106c35750613f0d565b61019e80546001600160a01b03191691909216179055610195805464ff000000001916640100000000179055005b503461000e57602036600319011261000e5760206116f46116ef6106ff565b612750565b604051908152f35b503461000e5760008060031936011261062357611717612f94565b60fb546001600160a01b0319811660fb55816001600160a01b0360405192167f8be0079c531659141344cd1fd0a4f28419497f9722a3daafe3b4186f6b6457e08284a3f35b503461000e57600036600319011261000e57602061019354604051908152f35b503461000e57600036600319011261000e57602061019254604051908152f35b503461000e57602036600319011261000e576117b9610689613eca565b60043561019655005b503461000e57602036600319011261000e576004356117e081610656565b6117eb610689613eca565b610195805461ff00191691151560081b61ff0016919091179055005b503461000e57602036600319011261000e5760043561182581610656565b611830610689613eca565b6101959060ff8019835416911515161790556000604051f35b503461000e57600036600319011261000e5760206001600160a01b0360fb5416604051908152f35b503461000e5760008060031936011261062357604051908060665461189581612835565b8085529160019180831690811561060257506001146118be576105a3856105978187038261098e565b9250606683527f46501879b8ca8525e8c2fd519e2fbfcfa2ebea26501294aa02cbfcfb12e943545b828410611901575050508101602001610597826105a3610587565b805460208587018101919091529093019281016118e6565b503461000e57600036600319011261000e5760206101955460ff60405191831c1615158152f35b503461000e57604036600319011261000e5761195a6106ff565b60243561196681610656565b6001600160a01b038216918233146119e957816119a66119b79233600052606a6020526040600020906001600160a01b0316600052602052604060002090565b9060ff801983541691151516179055565b604051901515815233907f17307eab39ab6107e8899845ad3d59bd9653f200f220920489ca2b5937696c3190602090a3005b60405162461bcd60e51b815260206004820152601960248201527f4552433732313a20617070726f766520746f2063616c6c6572000000000000006044820152606490fd5b9181601f8401121561000e5782359167ffffffffffffffff831161000e576020838186019501011161000e57565b503461000e57604036600319011261000e5767ffffffffffffffff60243581811161000e57611a8f903690600401611a2e565b9190611a99612f94565b611ad06005604051809560209481611ab2878501613c2c565b9182370164173539b7b760d91b815203601a1981018652018461098e565b600091600435835261019b825260408320918451918211611ba9575b611b0082611afa8554612835565b85613438565b80601f8311600114611b3c5750839482939492611b31575b50508160011b916000199060031b1c1916179055604051f35b015190503880611b18565b90601f19831695611b5285600052602060002090565b9286905b888210611b9157505083600195969710611b78575b505050811b019055604051f35b015160001960f88460031b161c19169055388080611b6b565b80600185968294968601518155019501930190611b56565b611bb1610932565b611aec565b503461000e57602036600319011261000e57611bd3610689613eca565b60043561019455005b503461000e57608036600319011261000e57611bf66106ff565b611bfe610715565b6064359167ffffffffffffffff831161000e57611c226107af933690600401610a12565b9160443591612a40565b503461000e57600036600319011261000e57602061019454604051908152f35b503461000e57602036600319011261000e57600435611c6a81610656565b611c75610689613eca565b610195805463ff000000191691151560181b63ff00000016919091179055005b503461000e57602036600319011261000e576105a3611cb5600435613fbf565b604051918291602083526020830190610510565b503461000e5760a036600319011261000e5767ffffffffffffffff60043581811161000e57611cfc903690600401611a2e565b919060243591821161000e57611d19611d71923690600401611a2e565b611d2161072b565b90611d2a610741565b9260005496611d5060ff8960081c16158099819a611def575b8115611dcf575b50613040565b87611d63600160ff196000541617600055565b611db6575b608435956130b2565b611d7757005b611d8761ff001960005416600055565b604051600181527f7f26b83ff96e1f2b6a682f133852f6798a09c465da95921460cefb384740249890602090a1005b611dca61010061ff00196000541617600055565b611d68565b303b15915081611de1575b5038611d4a565b6001915060ff161438611dda565b600160ff8216109150611d43565b503461000e57604036600319011261000e5760043560243567ffffffffffffffff811161000e57611ec2611e38611ec79236906004016112ee565b61019554611e4b9060181c60ff16613a13565b611e7f601e611e7887611e72336001600160a01b031660005261019d602052604060002090565b546136d5565b1115613a6a565b6040513360601b6bffffffffffffffffffffffff191660208201908152611ebd91611ead8160348101611457565b5190209261019654923691613ab6565b613b67565b613b1b565b60005b818110611f14576107af610c1583611efa81611e72336001600160a01b031660005261019d602052604060002090565b33600090815261019d6020526040902055610192546136d5565b611f4e90610c69610c5f610192611f2f610c2d8583546136d5565b611f3c8154610c4061286f565b5460005261019c602052604060002090565b611eca565b503461000e57600036600319011261000e57602060ff6101955460101c166040519015158152f35b503461000e57604036600319011261000e57602060ff611fd2611f9c6106ff565b6001600160a01b03611fac610715565b9116600052606a84526040600020906001600160a01b0316600052602052604060002090565b54166040519015158152f35b503461000e57611fed366114db565b611ff5612f94565b805167ffffffffffffffff81116120bb575b6101999061201e816120198454612835565b6132e4565b602080601f831160011461204d57508192936000926115765750508160011b916000199060031b1c1916179055005b90601f198316946120816101996000527f960942b7bcefc06c4573016a89cb45882597f73bb18f9afb0df2c0e01c496e1b90565b926000905b8782106120a35750508360019596106115d857505050811b019055005b80600185968294968601518155019501930190612086565b6120c3610932565b612007565b503461000e57602036600319011261000e576120e26106ff565b6120ea612f94565b6001600160a01b0380911690811561213e5760009160fb5491816001600160a01b031984161760fb5560405192167f8be0079c531659141344cd1fd0a4f28419497f9722a3daafe3b4186f6b6457e08484a3f35b60405162461bcd60e51b815260206004820152602660248201527f4f776e61626c653a206e6577206f776e657220697320746865207a65726f206160448201526564647265737360d01b6064820152608490fd5b1561219957565b60405162461bcd60e51b815260206004820152602c60248201527f46756e6374696f6e206d7573742062652063616c6c6564207468726f7567682060448201526b19195b1959d85d1958d85b1b60a21b6064820152608490fd5b156121fa57565b60405162461bcd60e51b815260206004820152602c60248201527f46756e6374696f6e206d7573742062652063616c6c6564207468726f7567682060448201526b6163746976652070726f787960a01b6064820152608490fd5b9081602091031261000e575190565b506040513d6000823e3d90fd5b1561227757565b60405162461bcd60e51b815260206004820152602960248201527f45524331393637557067726164653a20756e737570706f727465642070726f786044820152681a58589b195555525160ba1b6064820152608490fd5b906122fa7f4910fdfa16fed3260ed0e7147f7cc6da11a60208b5b9406d12a635614ffd91435460ff1690565b1561230b575061230990612514565b565b6040516352d1902d60e01b8152916020836004816001600160a01b0385165afa600093816123cc575b506123995760405162461bcd60e51b815260206004820152602e60248201527f45524331393637557067726164653a206e657720696d706c656d656e7461746960448201526d6f6e206973206e6f74205555505360901b6064820152608490fd5b0390fd5b6123c77f360894a13ba1a3210667c828492db98dca3e2076cc3735a920a3ca505d382bbc6123099414612270565b6125b2565b6123ee91945060203d81116123f5575b6123e6818361098e565b810190612254565b9238612334565b503d6123dc565b906124287f4910fdfa16fed3260ed0e7147f7cc6da11a60208b5b9406d12a635614ffd91435460ff1690565b15612437575061230990612514565b6040516352d1902d60e01b8152916020836004816001600160a01b0385165afa600093816124f4575b506124c15760405162461bcd60e51b815260206004820152602e60248201527f45524331393637557067726164653a206e657720696d706c656d656e7461746960448201526d6f6e206973206e6f74205555505360901b6064820152608490fd5b6124ef7f360894a13ba1a3210667c828492db98dca3e2076cc3735a920a3ca505d382bbc6123099414612270565b6126ca565b61250d91945060203d81116123f5576123e6818361098e565b9238612460565b803b15612557576001600160a01b037f360894a13ba1a3210667c828492db98dca3e2076cc3735a920a3ca505d382bbc91166001600160a01b0319825416179055565b60405162461bcd60e51b815260206004820152602d60248201527f455243313936373a206e657720696d706c656d656e746174696f6e206973206e60448201526c1bdd08184818dbdb9d1c9858dd609a1b6064820152608490fd5b6125bb81612514565b6040516001600160a01b0382167fbc7cd75a20ee27fd9adebab32041f755214dbc6bffa90cc0225b39da2e5c2d3b600083a28251158015906126c2575b61260157505050565b813b1561267157506000828192602061266e95519201905af4612622612720565b6040519161262f83610949565b602783527f416464726573733a206c6f772d6c6576656c2064656c65676174652063616c6c6020840152660819985a5b195960ca1b6040840152612edb565b50565b62461bcd60e51b815260206004820152602660248201527f416464726573733a2064656c65676174652063616c6c20746f206e6f6e2d636f6044820152651b9d1c9858dd60d21b6064820152608490fd5b5060006125f8565b6126d381612514565b6040516001600160a01b0382167fbc7cd75a20ee27fd9adebab32041f755214dbc6bffa90cc0225b39da2e5c2d3b600083a28251158015906127185761260157505050565b5060016125f8565b3d1561274b573d90612731826109b0565b9161273f604051938461098e565b82523d6000602084013e565b606090565b6001600160a01b0316801561277057600052606860205260406000205490565b60405162461bcd60e51b815260206004820152602960248201527f4552433732313a2061646472657373207a65726f206973206e6f7420612076616044820152683634b21037bbb732b960b91b6064820152608490fd5b156127ce57565b60405162461bcd60e51b815260206004820152601860248201527f4552433732313a20696e76616c696420746f6b656e20494400000000000000006044820152606490fd5b60005260676020526001600160a01b03604060002054166105468115156127c7565b90600182811c92168015612865575b602083101461284f57565b634e487b7160e01b600052602260045260246000fd5b91607f1691612844565b6040519060008261019991825461288581612835565b8084529360019180831690811561290b57506001146128ad575b50506123099250038361098e565b600090815291507f960942b7bcefc06c4573016a89cb45882597f73bb18f9afb0df2c0e01c496e1b5b8483106128f057506123099350508101602001388061289f565b81935090816020925483858a010152019101909185926128d6565b9550505050505060ff191660208301526123098260408101388061289f565b1561293157565b60405162461bcd60e51b815260206004820152603d60248201527f4552433732313a20617070726f76652063616c6c6572206973206e6f7420746f60448201527f6b656e206f776e6572206f7220617070726f76656420666f7220616c6c0000006064820152608490fd5b6129c46129bf8260005260676020526001600160a01b0360406000205416151590565b6127c7565b60005260696020526001600160a01b036040600020541690565b156129e557565b60405162461bcd60e51b815260206004820152602d60248201527f4552433732313a2063616c6c6572206973206e6f7420746f6b656e206f776e6560448201526c1c881bdc88185c1c1c9bdd9959609a1b6064820152608490fd5b90612a64939291612a54610b0e8433612acb565b612a5f838383612ba6565b612dba565b15612a6b57565b60405162461bcd60e51b815260206004820152603260248201527f4552433732313a207472616e7366657220746f206e6f6e20455243373231526560448201527131b2b4bb32b91034b6b83632b6b2b73a32b960711b6064820152608490fd5b6001600160a01b0380612add84612813565b169281831692848414948515612b13575b50508315612afd575b50505090565b612b099192935061299c565b1614388080612af7565b60ff92955090612b4291600052606a6020526040600020906001600160a01b0316600052602052604060002090565b5416923880612aee565b15612b5357565b60405162461bcd60e51b815260206004820152602560248201527f4552433732313a207472616e736665722066726f6d20696e636f72726563742060448201526437bbb732b960d91b6064820152608490fd5b612bca90612bb384612813565b6001600160a01b0382811693909182168414612b4c565b8316928315612cbf57612c3b82612be58784612c969661412a565b612bfb85612bf5610b9f8a612813565b14612b4c565b612c22612c12886000526069602052604060002090565b80546001600160a01b0319169055565b6001600160a01b03166000526068602052604060002090565b6000198154019055612c60816001600160a01b03166000526068602052604060002090565b60018154019055612c7b856000526067602052604060002090565b906001600160a01b03166001600160a01b0319825416179055565b7fddf252ad1be2c89b69c2b068fc378daa952ba7f163c4a11628f55a4df523b3ef6000604051a4565b60405162461bcd60e51b8152602060048201526024808201527f4552433732313a207472616e7366657220746f20746865207a65726f206164646044820152637265737360e01b6064820152608490fd5b600082815260696020526040902080546001600160a01b0319166001600160a01b0383161790556001600160a01b0380612d4984612813565b169116907f8c5be1e5ebec7d5bd14f71427d1e84f3dd0314c0f7b2291e5b200ac8c7c3b9256000604051a4565b9081602091031261000e575161054681610440565b909261054694936080936001600160a01b03809216845216602083015260408201528160608201520190610510565b92909190823b15612ebb57612df59260209260006001600160a01b03604051809781968295630a85bd0160e11b9b8c85523360048601612d8b565b0393165af160009181612e8b575b50612e7d57612e10612720565b80519081612e785760405162461bcd60e51b815260206004820152603260248201527f4552433732313a207472616e7366657220746f206e6f6e20455243373231526560448201527131b2b4bb32b91034b6b83632b6b2b73a32b960711b6064820152608490fd5b602001fd5b6001600160e01b0319161490565b612ead91925060203d8111612eb4575b612ea5818361098e565b810190612d76565b9038612e03565b503d612e9b565b50505050600190565b50634e487b7160e01b600052603260045260246000fd5b90919015612ee7575090565b815115612ef75750805190602001fd5b60405162461bcd60e51b815260206004820152908190612395906024830190610510565b15612f2257565b60405162461bcd60e51b815260206004820152602b60248201527f496e697469616c697a61626c653a20636f6e7472616374206973206e6f74206960448201526a6e697469616c697a696e6760a81b6064820152608490fd5b612f8c60ff60005460081c16612f1b565b612309612fec565b6001600160a01b0360fb54163303612fa857565b606460405162461bcd60e51b815260206004820152602060248201527f4f776e61626c653a2063616c6c6572206973206e6f7420746865206f776e65726044820152fd5b60fb546001600160a01b03734a580d71c0f73202c51c58147aa7c7e09245b10a9182821982161760fb55167f8be0079c531659141344cd1fd0a4f28419497f9722a3daafe3b4186f6b6457e06000604051a3565b1561304757565b60405162461bcd60e51b815260206004820152602e60248201527f496e697469616c697a61626c653a20636f6e747261637420697320616c72656160448201527f647920696e697469616c697a65640000000000000000000000000000000000006064820152608490fd5b6130c5906130cd939296959636916109db565b9236916109db565b906130e860ff60005460081c166130e381612f1b565b612f1b565b80519067ffffffffffffffff8211613265575b61310f8261310a606554612835565b613356565b60209081601f84116001146131d0575092826131bf9593613152936123099998966000926131c5575b50508160011b916000199060031b1c19161760655561348c565b61315a613661565b613162612f7b565b610195805464ffffffffff1916905561271061019755613183600161019255565b61019f80546001600160a01b0319166001600160a01b03938416179055166001600160a01b036101a091166001600160a01b0319825416179055565b61019455565b015190503880613138565b60656000529190601f1984167f8ff97419363ffd7000167f130ef7168fbea05faf9251824ca5043f113cc6a7c7936000905b82821061324d575050936131529361230999989693600193836131bf9a9810613234575b505050811b0160655561348c565b015160001960f88460031b161c19169055388080613226565b80600186978294978701518155019601940190613202565b61326d610932565b6130fb565b601f811161327e575050565b60009061019882527f3f539f465397ab387efa93a617e37005205c037386b5b474fcfac82f47f77f0d906020601f850160051c830194106132da575b601f0160051c01915b8281106132cf57505050565b8181556001016132c3565b90925082906132ba565b601f81116132f0575050565b60009061019982527f960942b7bcefc06c4573016a89cb45882597f73bb18f9afb0df2c0e01c496e1b906020601f850160051c8301941061334c575b601f0160051c01915b82811061334157505050565b818155600101613335565b909250829061332c565b601f8111613362575050565b600090606582527f8ff97419363ffd7000167f130ef7168fbea05faf9251824ca5043f113cc6a7c7906020601f850160051c830194106133bd575b601f0160051c01915b8281106133b257505050565b8181556001016133a6565b909250829061339d565b601f81116133d3575050565b600090606682527f46501879b8ca8525e8c2fd519e2fbfcfa2ebea26501294aa02cbfcfb12e94354906020601f850160051c8301941061342e575b601f0160051c01915b82811061342357505050565b818155600101613417565b909250829061340e565b90601f811161344657505050565b600091825260208220906020601f850160051c83019410613482575b601f0160051c01915b82811061347757505050565b81815560010161346b565b9092508290613462565b90815167ffffffffffffffff8111613577575b6134b3816134ae606654612835565b6133c7565b602080601f83116001146134ef57508192936000926134e4575b50508160011b916000199060031b1c191617606655565b0151905038806134cd565b90601f1983169461352260666000527f46501879b8ca8525e8c2fd519e2fbfcfa2ebea26501294aa02cbfcfb12e9435490565b926000905b87821061355f575050836001959610613546575b505050811b01606655565b015160001960f88460031b161c1916905538808061353b565b80600185968294968601518155019501930190613527565b61357f610932565b61349f565b919091825167ffffffffffffffff8111613654575b6135ad816135a78454612835565b84613438565b602080601f83116001146135e95750819293946000926135de575b50508160011b916000199060031b1c1916179055565b0151905038806135c8565b90601f198316956135ff85600052602060002090565b926000905b88821061363c57505083600195969710613623575b505050811b019055565b015160001960f88460031b161c19169055388080613619565b80600185968294968601518155019501930190613604565b61365c610932565b613599565b61230960ff60005460081c16612f1b565b1561367957565b60405162461bcd60e51b815260206004820152601f60248201527f546865207469636b65742073616c65206973206e6f7420656e61626c656421006044820152606490fd5b50634e487b7160e01b600052601160045260246000fd5b811981116136e1570190565b6136e96136be565b0190565b156136f457565b60405162461bcd60e51b815260206004820152601160248201527f457863656564206d617820616d6f756e740000000000000000000000000000006044820152606490fd5b9081602091031261000e575161054681610656565b60019060001981146136e1570190565b1561376557565b60405162461bcd60e51b815260206004820152601c60248201527f4552433732313a20746f6b656e20616c7265616479206d696e746564000000006044820152606490fd5b6001600160a01b03811690811561388057613856906137e86137e28560005260676020526001600160a01b0360406000205416151590565b1561375e565b6137f18461428f565b6137fb8482614256565b61381e6137e28560005260676020526001600160a01b0360406000205416151590565b61383b816001600160a01b03166000526068602052604060002090565b60018154019055612c7b846000526067602052604060002090565b60007fddf252ad1be2c89b69c2b068fc378daa952ba7f163c4a11628f55a4df523b3ef81604051a4565b606460405162461bcd60e51b815260206004820152602060248201527f4552433732313a206d696e7420746f20746865207a65726f20616464726573736044820152fd5b9190916138e78160005260676020526001600160a01b0360406000205416151590565b156139a85760005260206097815260406000209083519067ffffffffffffffff821161399b575b61391c82611afa8554612835565b80601f831160011461394a5750819293946000926135de5750508160011b916000199060031b1c1916179055565b90601f1983169561396085600052602060002090565b926000905b8882106139835750508360019596971061362357505050811b019055565b80600185968294968601518155019501930190613965565b6139a3610932565b61390e565b60405162461bcd60e51b815260206004820152602e60248201527f45524337323155524953746f726167653a2055524920736574206f66206e6f6e60448201527f6578697374656e7420746f6b656e0000000000000000000000000000000000006064820152608490fd5b15613a1a57565b60405162461bcd60e51b815260206004820152602260248201527f5468652077686974656c6973742073616c65206973206e6f7420656e61626c65604482015261642160f01b6064820152608490fd5b15613a7157565b60405162461bcd60e51b815260206004820152601a60248201527f457863656564206d61782072657175657374656420636f756e740000000000006044820152606490fd5b90929167ffffffffffffffff8411613b0e575b8360051b6040519260208094613ae18285018261098e565b809781520191810192831161000e57905b828210613aff5750505050565b81358152908301908301613af2565b613b16610932565b613ac9565b15613b2257565b60405162461bcd60e51b815260206004820152600e60248201527f496e76616c69642070726f6f66210000000000000000000000000000000000006044820152606490fd5b9091906000915b8151831015613bba576020808460051b84010151916000838210600014613ba9575060005252613ba360406000205b9261374e565b91613b6e565b90604092613ba39483525220613b9d565b9150501490565b15613bc857565b60405162461bcd60e51b815260206004820152601f60248201527f546865207075626c69632073616c65206973206e6f7420656e61626c656421006044820152606490fd5b8060001904821181151516613c20570290565b613c286136be565b0290565b90600091610198908154613c3f81612835565b92600191808316908115613cb35750600114613c5c575b50505050565b9091929394506000527f3f539f465397ab387efa93a617e37005205c037386b5b474fcfac82f47f77f0d906000915b848310613ca057505050019038808080613c56565b8181602092548587015201920191613c8b565b60ff1916845250505001915038808080613c56565b908092918237016000815290565b15613cdd57565b60405162461bcd60e51b815260206004820152600f60248201527f4e6f7420796574207374617274656400000000000000000000000000000000006044820152606490fd5b15613d2957565b60405162461bcd60e51b815260206004820152600f60248201527f496e76616c6964204261736555524900000000000000000000000000000000006044820152606490fd5b15613d7557565b60405162461bcd60e51b815260206004820152602160248201527f546865206e657874207363656e6172696f206973206e6f7420656e61626c65646044820152602160f81b6064820152608490fd5b9190811015613dd5575b60051b0190565b613ddd612ec4565b613dce565b15613de957565b60405162461bcd60e51b815260206004820152601860248201527f546f6b656e206f776e6572206973206e6f742066616c736500000000000000006044820152606490fd5b15613e3557565b60405162461bcd60e51b815260206004820152601760248201527f416c72656164792052657665616c656420746f6b656e210000000000000000006044820152606490fd5b9190811015613ebd575b60051b81013590601e198136030182121561000e57019081359167ffffffffffffffff831161000e57602001823603811361000e579190565b613ec5612ec4565b613e84565b604051906040820182811067ffffffffffffffff821117613f00575b60405260088252673232b83637bcb2b960c11b6020830152565b613f08610932565b613ee6565b15613f1457565b60405162461bcd60e51b815260206004820152600e60248201527f4e6f7420617574686f72697a65640000000000000000000000000000000000006044820152606490fd5b6001600160a01b03908161019e541691823b1561000e5760246000928360405195869485936319549d1d60e11b85521660048401525af18015613fb2575b613f9e5750565b67ffffffffffffffff811161096557604052565b613fba612263565b613f97565b613fdf8160005260676020526001600160a01b0360406000205416151590565b156140bf5760ff613ffb8260005261019c602052604060002090565b5416156140b6576140179060005261019b602052604060002090565b6040519081600082549261402a84612835565b9081845260019485811690816000146140975750600114614054575b50506105469250038261098e565b9093915060005260209081600020936000915b81831061407f57505061054693508201013880614046565b85548784018501529485019486945091830191614067565b9550505050505060ff1916602082015261054681604081013880614046565b5061054661286f565b60405162461bcd60e51b815260206004820152603160248201527f45524337323155524953746f726167653a2055524920717565727920666f722060448201527f6e6f6e6578697374656e7420746f6b656e0000000000000000000000000000006064820152608490fd5b9091906001600160a01b03808216918261416d57506141488361428f565b83168061415b5750506123099150614308565b03614164575050565b61230991614256565b818516830361417d575b50614148565b61418681612750565b60018110614249575b600019016141de60009286845260ca60205260408420548381036141ef575b50836141c48860005260ca602052604060002090565b556001600160a01b031660005260c9602052604060002090565b908252602052604081205538614177565b86855260c9602052604085208486526020526142426040862054614226846001600160a01b031660005260c9602052604060002090565b83885260205280604088205560005260ca602052604060002090565b55386141ae565b6142516136be565b61418f565b60409061426281612750565b926001600160a01b0360009216825260c96020528282208483526020528083832055815260ca6020522055565b60cb548160005260cc60205280604060002055680100000000000000008110156142fb575b600181018060cb558110156142ee575b60cb6000527fa7ce836d032b2bf62b7e2097a8e0a6d8aeb35405ad15271e96d3b0188a1d06fb0155565b6142f6612ec4565b6142c4565b614303610932565b6142b4565b60cb805460018110614410575b60009083825260cc602052816143b760408220549560001996848881011015614403575b8684526143a67fa7ce836d032b2bf62b7e2097a8e0a6d8aeb35405ad15271e96d3b0188a1d06fa9586810154908310156143f6575b88865280837fa7ce836d032b2bf62b7e2097a8e0a6d8aeb35405ad15271e96d3b0188a1d06fb015560005260cc602052604060002090565b5560005260cc602052604060002090565b5582549384156143e257840193808510156143d5575b838352015555565b6143dd612ec4565b6143cd565b634e487b7160e01b83526031600452602483fd5b6143fe612ec4565b61436e565b61440b612ec4565b614339565b6144186136be565b61431556fea26469706673582212208855100b392d96a04757a59237208e787c7c121500c1f1a4052f67a15e85948364736f6c634300080e0033",
  "devdoc": {
    "kind": "dev",
    "methods": {
      "approve(address,uint256)": {
        "details": "See {IERC721-approve}."
      },
      "balanceOf(address)": {
        "details": "See {IERC721-balanceOf}."
      },
      "getApproved(uint256)": {
        "details": "See {IERC721-getApproved}."
      },
      "isApprovedForAll(address,address)": {
        "details": "See {IERC721-isApprovedForAll}."
      },
      "mintingInformation()": {
        "details": "Returns. About Minting"
      },
      "name()": {
        "details": "See {IERC721Metadata-name}."
      },
      "owner()": {
        "details": "Returns the address of the current owner."
      },
      "ownerOf(uint256)": {
        "details": "See {IERC721-ownerOf}."
      },
      "proxiableUUID()": {
        "details": "Implementation of the ERC1822 {proxiableUUID} function. This returns the storage slot used by the implementation. It is used to validate the implementation's compatibility when performing an upgrade. IMPORTANT: A proxy pointing at a proxiable contract should not be considered proxiable itself, because this risks bricking a proxy that upgrades to it, by delegating to itself until out of gas. Thus it is critical that this function revert if invoked through a proxy. This is guaranteed by the `notDelegated` modifier."
      },
      "publicMint(uint256)": {
        "details": "A function that anyone can mint. Before reveal, it is minted in the unreveal state",
        "params": {
          "requestedCount": "quantity to mint"
        }
      },
      "renounceOwnership()": {
        "details": "Leaves the contract without owner. It will not be possible to call `onlyOwner` functions anymore. Can only be called by the current owner. NOTE: Renouncing ownership will leave the contract without an owner, thereby removing any functionality that is only available to the owner."
      },
      "repairTokenURI(uint256,string)": {
        "details": "A function that can be repaired in the event of an unintended error when revealed. Only the owner can execute it",
        "params": {
          "tokenHash": "The unique hash value of the token",
          "tokenId": "The ID of the token you want to repair"
        }
      },
      "revealTokens(uint256[],string[])": {
        "details": "A function that revises tokens that have not yet been revealed. It issues tokens in the next scenario at the same time",
        "params": {
          "tokenHash": "The unique hash value of the token",
          "tokenIds": "The ID of the tokens you want to reveal"
        }
      },
      "safeTransferFrom(address,address,uint256)": {
        "details": "See {IERC721-safeTransferFrom}."
      },
      "safeTransferFrom(address,address,uint256,bytes)": {
        "details": "See {IERC721-safeTransferFrom}."
      },
      "setApprovalForAll(address,bool)": {
        "details": "See {IERC721-setApprovalForAll}."
      },
      "setBaseURI(string)": {
        "details": "Set base URI of reveal tokens. Only the owner can do it",
        "params": {
          "_newBaseURI": "Base URI of revealed tokens"
        }
      },
      "setMerkleRoot(bytes32)": {
        "details": "Functions that set the required Merklute of whitelist validation",
        "params": {
          "_merkleRoot": "White List's Merkle root"
        }
      },
      "setNextScenarioConenct(address)": {
        "details": "Functions that associate with the following collection of scenarios",
        "params": {
          "nextScenario": "Address of the next scenario contract"
        }
      },
      "setNotRevealedURI(string)": {
        "details": "Set base URI of unreveal tokens. Only the owner can do it",
        "params": {
          "_newNotRevealedURI": "Base URI of unreveal tokens"
        }
      },
      "setPublicMintState(bool)": {
        "details": "A function that allows users to start mint",
        "params": {
          "_state": "True & False, Allow mint"
        }
      },
      "setRevealState(bool)": {
        "details": "A function that allows users to start reveal",
        "params": {
          "_state": "True & False, Allow reveal"
        }
      },
      "setTicketMintState(bool)": {
        "details": "Functions that allow users to initiate ticket minting",
        "params": {
          "_state": "True & False, Allow ticket Minting"
        }
      },
      "setWhitelistMintState(bool)": {
        "details": "Functions that allow users to initiate whitelist minting",
        "params": {
          "_state": "True & False, Allow Whitelist Minting"
        }
      },
      "setupSale(uint256)": {
        "details": "Prevent bot, set timer to start minting, only owner can run",
        "params": {
          "mintPrice": "Setup Mint price"
        }
      },
      "supportsInterface(bytes4)": {
        "details": "See {IERC165-supportsInterface}"
      },
      "symbol()": {
        "details": "See {IERC721Metadata-symbol}."
      },
      "ticketMint(uint256)": {
        "details": "Only those who have tickets can mint.",
        "params": {
          "requestedCount": "quantity to mint"
        }
      },
      "tokenByIndex(uint256)": {
        "details": "See {IERC721Enumerable-tokenByIndex}."
      },
      "tokenOfOwnerByIndex(address,uint256)": {
        "details": "See {IERC721Enumerable-tokenOfOwnerByIndex}."
      },
      "tokenURI(uint256)": {
        "details": "Returns the Uniform Resource Identifier (URI) for `tokenId` token"
      },
      "totalSupply()": {
        "details": "See {IERC721Enumerable-totalSupply}."
      },
      "transferFrom(address,address,uint256)": {
        "details": "See {IERC721-transferFrom}."
      },
      "transferOwnership(address)": {
        "details": "Transfers ownership of the contract to a new account (`newOwner`). Can only be called by the current owner."
      },
      "upgradeTo(address)": {
        "details": "Upgrade the implementation of the proxy to `newImplementation`. Calls {_authorizeUpgrade}. Emits an {Upgraded} event."
      },
      "upgradeToAndCall(address,bytes)": {
        "details": "Upgrade the implementation of the proxy to `newImplementation`, and subsequently execute the function call encoded in `data`. Calls {_authorizeUpgrade}. Emits an {Upgraded} event."
      },
      "whitelistMint(uint256,bytes32[])": {
        "details": "Functions that only validated whitelists can mint",
        "params": {
          "_merkleProof": "Array of Merkle Trees",
          "requestedCount": "quantity to mint"
        }
      }
    },
    "version": 1
  },
  "userdoc": {
    "kind": "user",
    "methods": {},
    "version": 1
  },
  "storageLayout": {
    "storage": [
      {
        "astId": 674,
        "contract": "contracts/voting/ScenarioOneV2.sol:PERIv2",
        "label": "_initialized",
        "offset": 0,
        "slot": "0",
        "type": "t_uint8"
      },
      {
        "astId": 677,
        "contract": "contracts/voting/ScenarioOneV2.sol:PERIv2",
        "label": "_initializing",
        "offset": 1,
        "slot": "0",
        "type": "t_bool"
      },
      {
        "astId": 4007,
        "contract": "contracts/voting/ScenarioOneV2.sol:PERIv2",
        "label": "__gap",
        "offset": 0,
        "slot": "1",
        "type": "t_array(t_uint256)50_storage"
      },
      {
        "astId": 4788,
        "contract": "contracts/voting/ScenarioOneV2.sol:PERIv2",
        "label": "__gap",
        "offset": 0,
        "slot": "51",
        "type": "t_array(t_uint256)50_storage"
      },
      {
        "astId": 1980,
        "contract": "contracts/voting/ScenarioOneV2.sol:PERIv2",
        "label": "_name",
        "offset": 0,
        "slot": "101",
        "type": "t_string_storage"
      },
      {
        "astId": 1982,
        "contract": "contracts/voting/ScenarioOneV2.sol:PERIv2",
        "label": "_symbol",
        "offset": 0,
        "slot": "102",
        "type": "t_string_storage"
      },
      {
        "astId": 1986,
        "contract": "contracts/voting/ScenarioOneV2.sol:PERIv2",
        "label": "_owners",
        "offset": 0,
        "slot": "103",
        "type": "t_mapping(t_uint256,t_address)"
      },
      {
        "astId": 1990,
        "contract": "contracts/voting/ScenarioOneV2.sol:PERIv2",
        "label": "_balances",
        "offset": 0,
        "slot": "104",
        "type": "t_mapping(t_address,t_uint256)"
      },
      {
        "astId": 1994,
        "contract": "contracts/voting/ScenarioOneV2.sol:PERIv2",
        "label": "_tokenApprovals",
        "offset": 0,
        "slot": "105",
        "type": "t_mapping(t_uint256,t_address)"
      },
      {
        "astId": 2000,
        "contract": "contracts/voting/ScenarioOneV2.sol:PERIv2",
        "label": "_operatorApprovals",
        "offset": 0,
        "slot": "106",
        "type": "t_mapping(t_address,t_mapping(t_address,t_bool))"
      },
      {
        "astId": 2920,
        "contract": "contracts/voting/ScenarioOneV2.sol:PERIv2",
        "label": "__gap",
        "offset": 0,
        "slot": "107",
        "type": "t_array(t_uint256)44_storage"
      },
      {
        "astId": 3507,
        "contract": "contracts/voting/ScenarioOneV2.sol:PERIv2",
        "label": "_tokenURIs",
        "offset": 0,
        "slot": "151",
        "type": "t_mapping(t_uint256,t_string_storage)"
      },
      {
        "astId": 3623,
        "contract": "contracts/voting/ScenarioOneV2.sol:PERIv2",
        "label": "__gap",
        "offset": 0,
        "slot": "152",
        "type": "t_array(t_uint256)49_storage"
      },
      {
        "astId": 3135,
        "contract": "contracts/voting/ScenarioOneV2.sol:PERIv2",
        "label": "_ownedTokens",
        "offset": 0,
        "slot": "201",
        "type": "t_mapping(t_address,t_mapping(t_uint256,t_uint256))"
      },
      {
        "astId": 3139,
        "contract": "contracts/voting/ScenarioOneV2.sol:PERIv2",
        "label": "_ownedTokensIndex",
        "offset": 0,
        "slot": "202",
        "type": "t_mapping(t_uint256,t_uint256)"
      },
      {
        "astId": 3142,
        "contract": "contracts/voting/ScenarioOneV2.sol:PERIv2",
        "label": "_allTokens",
        "offset": 0,
        "slot": "203",
        "type": "t_array(t_uint256)dyn_storage"
      },
      {
        "astId": 3146,
        "contract": "contracts/voting/ScenarioOneV2.sol:PERIv2",
        "label": "_allTokensIndex",
        "offset": 0,
        "slot": "204",
        "type": "t_mapping(t_uint256,t_uint256)"
      },
      {
        "astId": 3478,
        "contract": "contracts/voting/ScenarioOneV2.sol:PERIv2",
        "label": "__gap",
        "offset": 0,
        "slot": "205",
        "type": "t_array(t_uint256)46_storage"
      },
      {
        "astId": 9827,
        "contract": "contracts/voting/ScenarioOneV2.sol:PERIv2",
        "label": "_owner",
        "offset": 0,
        "slot": "251",
        "type": "t_address"
      },
      {
        "astId": 9947,
        "contract": "contracts/voting/ScenarioOneV2.sol:PERIv2",
        "label": "__gap",
        "offset": 0,
        "slot": "252",
        "type": "t_array(t_uint256)49_storage"
      },
      {
        "astId": 9959,
        "contract": "contracts/voting/ScenarioOneV2.sol:PERIv2",
        "label": "hasRole",
        "offset": 0,
        "slot": "301",
        "type": "t_mapping(t_address,t_mapping(t_string_memory_ptr,t_bool))"
      },
      {
        "astId": 656,
        "contract": "contracts/voting/ScenarioOneV2.sol:PERIv2",
        "label": "__gap",
        "offset": 0,
        "slot": "302",
        "type": "t_array(t_uint256)50_storage"
      },
      {
        "astId": 971,
        "contract": "contracts/voting/ScenarioOneV2.sol:PERIv2",
        "label": "__gap",
        "offset": 0,
        "slot": "352",
        "type": "t_array(t_uint256)50_storage"
      },
      {
        "astId": 31471,
        "contract": "contracts/voting/ScenarioOneV2.sol:PERIv2",
        "label": "mintIndexForSale",
        "offset": 0,
        "slot": "402",
        "type": "t_uint256"
      },
      {
        "astId": 31473,
        "contract": "contracts/voting/ScenarioOneV2.sol:PERIv2",
        "label": "mintStartBlockNumber",
        "offset": 0,
        "slot": "403",
        "type": "t_uint256"
      },
      {
        "astId": 31475,
        "contract": "contracts/voting/ScenarioOneV2.sol:PERIv2",
        "label": "MINT_PRICE",
        "offset": 0,
        "slot": "404",
        "type": "t_uint256"
      },
      {
        "astId": 31477,
        "contract": "contracts/voting/ScenarioOneV2.sol:PERIv2",
        "label": "isRevealed",
        "offset": 0,
        "slot": "405",
        "type": "t_bool"
      },
      {
        "astId": 31479,
        "contract": "contracts/voting/ScenarioOneV2.sol:PERIv2",
        "label": "isEnabledPublicMint",
        "offset": 1,
        "slot": "405",
        "type": "t_bool"
      },
      {
        "astId": 31481,
        "contract": "contracts/voting/ScenarioOneV2.sol:PERIv2",
        "label": "isEnabledTicketMint",
        "offset": 2,
        "slot": "405",
        "type": "t_bool"
      },
      {
        "astId": 31483,
        "contract": "contracts/voting/ScenarioOneV2.sol:PERIv2",
        "label": "isEnabledWhitelistMint",
        "offset": 3,
        "slot": "405",
        "type": "t_bool"
      },
      {
        "astId": 31485,
        "contract": "contracts/voting/ScenarioOneV2.sol:PERIv2",
        "label": "isEnabledNextScenario",
        "offset": 4,
        "slot": "405",
        "type": "t_bool"
      },
      {
        "astId": 31487,
        "contract": "contracts/voting/ScenarioOneV2.sol:PERIv2",
        "label": "merkleRoot",
        "offset": 0,
        "slot": "406",
        "type": "t_bytes32"
      },
      {
        "astId": 31489,
        "contract": "contracts/voting/ScenarioOneV2.sol:PERIv2",
        "label": "MAX_SALE_AMOUNT",
        "offset": 0,
        "slot": "407",
        "type": "t_uint256"
      },
      {
        "astId": 31491,
        "contract": "contracts/voting/ScenarioOneV2.sol:PERIv2",
        "label": "baseURI",
        "offset": 0,
        "slot": "408",
        "type": "t_string_storage"
      },
      {
        "astId": 31493,
        "contract": "contracts/voting/ScenarioOneV2.sol:PERIv2",
        "label": "notRevealedURI",
        "offset": 0,
        "slot": "409",
        "type": "t_string_storage"
      },
      {
        "astId": 31497,
        "contract": "contracts/voting/ScenarioOneV2.sol:PERIv2",
        "label": "_lastCallBlockNumber",
        "offset": 0,
        "slot": "410",
        "type": "t_mapping(t_address,t_uint256)"
      },
      {
        "astId": 31501,
        "contract": "contracts/voting/ScenarioOneV2.sol:PERIv2",
        "label": "_tokenURIs",
        "offset": 0,
        "slot": "411",
        "type": "t_mapping(t_uint256,t_string_storage)"
      },
      {
        "astId": 31505,
        "contract": "contracts/voting/ScenarioOneV2.sol:PERIv2",
        "label": "revealChecked",
        "offset": 0,
        "slot": "412",
        "type": "t_mapping(t_uint256,t_bool)"
      },
      {
        "astId": 31509,
        "contract": "contracts/voting/ScenarioOneV2.sol:PERIv2",
        "label": "whitelistMintLimit",
        "offset": 0,
        "slot": "413",
        "type": "t_mapping(t_address,t_uint256)"
      },
      {
        "astId": 31512,
        "contract": "contracts/voting/ScenarioOneV2.sol:PERIv2",
        "label": "_nextScenario",
        "offset": 0,
        "slot": "414",
        "type": "t_contract(INextScenario)33472"
      },
      {
        "astId": 31515,
        "contract": "contracts/voting/ScenarioOneV2.sol:PERIv2",
        "label": "_wETH",
        "offset": 0,
        "slot": "415",
        "type": "t_contract(WETH)33571"
      },
      {
        "astId": 31518,
        "contract": "contracts/voting/ScenarioOneV2.sol:PERIv2",
        "label": "_ticket",
        "offset": 0,
        "slot": "416",
        "type": "t_contract(ITicket)33491"
      }
    ],
    "types": {
      "t_address": {
        "encoding": "inplace",
        "label": "address",
        "numberOfBytes": "20"
      },
      "t_array(t_uint256)44_storage": {
        "base": "t_uint256",
        "encoding": "inplace",
        "label": "uint256[44]",
        "numberOfBytes": "1408"
      },
      "t_array(t_uint256)46_storage": {
        "base": "t_uint256",
        "encoding": "inplace",
        "label": "uint256[46]",
        "numberOfBytes": "1472"
      },
      "t_array(t_uint256)49_storage": {
        "base": "t_uint256",
        "encoding": "inplace",
        "label": "uint256[49]",
        "numberOfBytes": "1568"
      },
      "t_array(t_uint256)50_storage": {
        "base": "t_uint256",
        "encoding": "inplace",
        "label": "uint256[50]",
        "numberOfBytes": "1600"
      },
      "t_array(t_uint256)dyn_storage": {
        "base": "t_uint256",
        "encoding": "dynamic_array",
        "label": "uint256[]",
        "numberOfBytes": "32"
      },
      "t_bool": {
        "encoding": "inplace",
        "label": "bool",
        "numberOfBytes": "1"
      },
      "t_bytes32": {
        "encoding": "inplace",
        "label": "bytes32",
        "numberOfBytes": "32"
      },
      "t_contract(INextScenario)33472": {
        "encoding": "inplace",
        "label": "contract INextScenario",
        "numberOfBytes": "20"
      },
      "t_contract(ITicket)33491": {
        "encoding": "inplace",
        "label": "contract ITicket",
        "numberOfBytes": "20"
      },
      "t_contract(WETH)33571": {
        "encoding": "inplace",
        "label": "contract WETH",
        "numberOfBytes": "20"
      },
      "t_mapping(t_address,t_bool)": {
        "encoding": "mapping",
        "key": "t_address",
        "label": "mapping(address => bool)",
        "numberOfBytes": "32",
        "value": "t_bool"
      },
      "t_mapping(t_address,t_mapping(t_address,t_bool))": {
        "encoding": "mapping",
        "key": "t_address",
        "label": "mapping(address => mapping(address => bool))",
        "numberOfBytes": "32",
        "value": "t_mapping(t_address,t_bool)"
      },
      "t_mapping(t_address,t_mapping(t_string_memory_ptr,t_bool))": {
        "encoding": "mapping",
        "key": "t_address",
        "label": "mapping(address => mapping(string => bool))",
        "numberOfBytes": "32",
        "value": "t_mapping(t_string_memory_ptr,t_bool)"
      },
      "t_mapping(t_address,t_mapping(t_uint256,t_uint256))": {
        "encoding": "mapping",
        "key": "t_address",
        "label": "mapping(address => mapping(uint256 => uint256))",
        "numberOfBytes": "32",
        "value": "t_mapping(t_uint256,t_uint256)"
      },
      "t_mapping(t_address,t_uint256)": {
        "encoding": "mapping",
        "key": "t_address",
        "label": "mapping(address => uint256)",
        "numberOfBytes": "32",
        "value": "t_uint256"
      },
      "t_mapping(t_string_memory_ptr,t_bool)": {
        "encoding": "mapping",
        "key": "t_string_memory_ptr",
        "label": "mapping(string => bool)",
        "numberOfBytes": "32",
        "value": "t_bool"
      },
      "t_mapping(t_uint256,t_address)": {
        "encoding": "mapping",
        "key": "t_uint256",
        "label": "mapping(uint256 => address)",
        "numberOfBytes": "32",
        "value": "t_address"
      },
      "t_mapping(t_uint256,t_bool)": {
        "encoding": "mapping",
        "key": "t_uint256",
        "label": "mapping(uint256 => bool)",
        "numberOfBytes": "32",
        "value": "t_bool"
      },
      "t_mapping(t_uint256,t_string_storage)": {
        "encoding": "mapping",
        "key": "t_uint256",
        "label": "mapping(uint256 => string)",
        "numberOfBytes": "32",
        "value": "t_string_storage"
      },
      "t_mapping(t_uint256,t_uint256)": {
        "encoding": "mapping",
        "key": "t_uint256",
        "label": "mapping(uint256 => uint256)",
        "numberOfBytes": "32",
        "value": "t_uint256"
      },
      "t_string_memory_ptr": {
        "encoding": "bytes",
        "label": "string",
        "numberOfBytes": "32"
      },
      "t_string_storage": {
        "encoding": "bytes",
        "label": "string",
        "numberOfBytes": "32"
      },
      "t_uint256": {
        "encoding": "inplace",
        "label": "uint256",
        "numberOfBytes": "32"
      },
      "t_uint8": {
        "encoding": "inplace",
        "label": "uint8",
        "numberOfBytes": "1"
      }
    }
  }
}