{
  "address": "0xB92f99A98C76bE7b63e49d39ccE151BFfB5aee64",
  "abi": [
    {
      "anonymous": false,
      "inputs": [
        {
          "indexed": false,
          "internalType": "address",
          "name": "previousAdmin",
          "type": "address"
        },
        {
          "indexed": false,
          "internalType": "address",
          "name": "newAdmin",
          "type": "address"
        }
      ],
      "name": "AdminChanged",
      "type": "event"
    },
    {
      "anonymous": false,
      "inputs": [
        {
          "indexed": true,
          "internalType": "address",
          "name": "beacon",
          "type": "address"
        }
      ],
      "name": "BeaconUpgraded",
      "type": "event"
    },
    {
      "anonymous": false,
      "inputs": [
        {
          "indexed": true,
          "internalType": "uint256",
          "name": "id",
          "type": "uint256"
        }
      ],
      "name": "CloseMarket",
      "type": "event"
    },
    {
      "anonymous": false,
      "inputs": [
        {
          "indexed": true,
          "internalType": "uint256",
          "name": "id",
          "type": "uint256"
        },
        {
          "indexed": true,
          "internalType": "address",
          "name": "quoteToken",
          "type": "address"
        },
        {
          "indexed": false,
          "internalType": "uint48",
          "name": "conclusion",
          "type": "uint48"
        },
        {
          "indexed": false,
          "internalType": "uint256",
          "name": "capacity",
          "type": "uint256"
        },
        {
          "indexed": false,
          "internalType": "bool",
          "name": "capacityInQuote",
          "type": "bool"
        }
      ],
      "name": "CreateMarket",
      "type": "event"
    },
    {
      "anonymous": false,
      "inputs": [
        {
          "indexed": false,
          "internalType": "uint8",
          "name": "version",
          "type": "uint8"
        }
      ],
      "name": "Initialized",
      "type": "event"
    },
    {
      "anonymous": false,
      "inputs": [
        {
          "indexed": false,
          "internalType": "address",
          "name": "ownerAddress",
          "type": "address"
        },
        {
          "indexed": false,
          "internalType": "uint48",
          "name": "marketId",
          "type": "uint48"
        },
        {
          "indexed": false,
          "internalType": "uint256",
          "name": "noteId",
          "type": "uint256"
        },
        {
          "indexed": false,
          "internalType": "uint256",
          "name": "amount",
          "type": "uint256"
        },
        {
          "indexed": false,
          "internalType": "uint256",
          "name": "price",
          "type": "uint256"
        },
        {
          "indexed": false,
          "internalType": "uint256",
          "name": "payout",
          "type": "uint256"
        },
        {
          "indexed": false,
          "internalType": "uint256",
          "name": "payoutPerVesting",
          "type": "uint256"
        },
        {
          "indexed": false,
          "internalType": "uint48",
          "name": "created",
          "type": "uint48"
        }
      ],
      "name": "NoteCreated",
      "type": "event"
    },
    {
      "anonymous": false,
      "inputs": [
        {
          "indexed": false,
          "internalType": "address",
          "name": "ownerAddress",
          "type": "address"
        },
        {
          "indexed": false,
          "internalType": "uint256[]",
          "name": "indexes",
          "type": "uint256[]"
        },
        {
          "indexed": false,
          "internalType": "uint8[]",
          "name": "vestingCount",
          "type": "uint8[]"
        },
        {
          "indexed": false,
          "internalType": "uint256[]",
          "name": "totalVested",
          "type": "uint256[]"
        }
      ],
      "name": "NotesRedeemed",
      "type": "event"
    },
    {
      "anonymous": false,
      "inputs": [
        {
          "indexed": true,
          "internalType": "address",
          "name": "previousOwner",
          "type": "address"
        },
        {
          "indexed": true,
          "internalType": "address",
          "name": "newOwner",
          "type": "address"
        }
      ],
      "name": "OwnershipTransferred",
      "type": "event"
    },
    {
      "anonymous": false,
      "inputs": [
        {
          "indexed": true,
          "internalType": "address",
          "name": "implementation",
          "type": "address"
        }
      ],
      "name": "Upgraded",
      "type": "event"
    },
    {
      "inputs": [],
      "name": "__MWOwnable_init",
      "outputs": [],
      "stateMutability": "nonpayable",
      "type": "function"
    },
    {
      "inputs": [],
      "name": "__Testing_init",
      "outputs": [],
      "stateMutability": "nonpayable",
      "type": "function"
    },
    {
      "inputs": [
        {
          "internalType": "uint256",
          "name": "",
          "type": "uint256"
        }
      ],
      "name": "adjustments",
      "outputs": [
        {
          "internalType": "uint256",
          "name": "change",
          "type": "uint256"
        },
        {
          "internalType": "uint48",
          "name": "lastAdjustment",
          "type": "uint48"
        },
        {
          "internalType": "uint48",
          "name": "timeToAdjusted",
          "type": "uint48"
        },
        {
          "internalType": "bool",
          "name": "active",
          "type": "bool"
        }
      ],
      "stateMutability": "view",
      "type": "function"
    },
    {
      "inputs": [
        {
          "internalType": "address",
          "name": "operator",
          "type": "address"
        },
        {
          "internalType": "string",
          "name": "role",
          "type": "string"
        },
        {
          "internalType": "bool",
          "name": "authorized",
          "type": "bool"
        }
      ],
      "name": "authorize",
      "outputs": [],
      "stateMutability": "nonpayable",
      "type": "function"
    },
    {
      "inputs": [
        {
          "internalType": "uint256",
          "name": "_id",
          "type": "uint256"
        }
      ],
      "name": "close",
      "outputs": [],
      "stateMutability": "nonpayable",
      "type": "function"
    },
    {
      "inputs": [],
      "name": "commissionRate",
      "outputs": [
        {
          "internalType": "uint16",
          "name": "",
          "type": "uint16"
        }
      ],
      "stateMutability": "view",
      "type": "function"
    },
    {
      "inputs": [
        {
          "internalType": "contract IERC20",
          "name": "_quoteToken",
          "type": "address"
        },
        {
          "internalType": "uint256",
          "name": "_capacity",
          "type": "uint256"
        },
        {
          "internalType": "bool",
          "name": "_capacityInQuote",
          "type": "bool"
        },
        {
          "internalType": "uint256",
          "name": "_initialPrice",
          "type": "uint256"
        },
        {
          "internalType": "uint48",
          "name": "_conclusion",
          "type": "uint48"
        },
        {
          "internalType": "uint32",
          "name": "_depositInterval",
          "type": "uint32"
        },
        {
          "internalType": "uint32",
          "name": "_tuneInterval",
          "type": "uint32"
        }
      ],
      "name": "create",
      "outputs": [
        {
          "internalType": "uint256",
          "name": "id_",
          "type": "uint256"
        }
      ],
      "stateMutability": "nonpayable",
      "type": "function"
    },
    {
      "inputs": [
        {
          "internalType": "uint256",
          "name": "_id",
          "type": "uint256"
        },
        {
          "internalType": "uint256",
          "name": "_amount",
          "type": "uint256"
        },
        {
          "internalType": "uint256",
          "name": "_maxPrice",
          "type": "uint256"
        }
      ],
      "name": "deposit",
      "outputs": [
        {
          "internalType": "uint256",
          "name": "payout_",
          "type": "uint256"
        },
        {
          "internalType": "uint256",
          "name": "index_",
          "type": "uint256"
        }
      ],
      "stateMutability": "nonpayable",
      "type": "function"
    },
    {
      "inputs": [],
      "name": "ecosystemPool",
      "outputs": [
        {
          "internalType": "address",
          "name": "",
          "type": "address"
        }
      ],
      "stateMutability": "view",
      "type": "function"
    },
    {
      "inputs": [
        {
          "internalType": "uint256",
          "name": "_id",
          "type": "uint256"
        }
      ],
      "name": "getMarketData",
      "outputs": [
        {
          "internalType": "uint256",
          "name": "",
          "type": "uint256"
        },
        {
          "internalType": "uint256",
          "name": "",
          "type": "uint256"
        },
        {
          "internalType": "uint256",
          "name": "",
          "type": "uint256"
        }
      ],
      "stateMutability": "view",
      "type": "function"
    },
    {
      "inputs": [
        {
          "internalType": "address",
          "name": "",
          "type": "address"
        },
        {
          "internalType": "string",
          "name": "",
          "type": "string"
        }
      ],
      "name": "hasRole",
      "outputs": [
        {
          "internalType": "bool",
          "name": "",
          "type": "bool"
        }
      ],
      "stateMutability": "view",
      "type": "function"
    },
    {
      "inputs": [
        {
          "internalType": "address",
          "name": "_nend",
          "type": "address"
        },
        {
          "internalType": "address",
          "name": "_insurancePool",
          "type": "address"
        },
        {
          "internalType": "address",
          "name": "_ecosystemPool",
          "type": "address"
        }
      ],
      "name": "initialize",
      "outputs": [],
      "stateMutability": "nonpayable",
      "type": "function"
    },
    {
      "inputs": [],
      "name": "insurancePool",
      "outputs": [
        {
          "internalType": "address",
          "name": "",
          "type": "address"
        }
      ],
      "stateMutability": "view",
      "type": "function"
    },
    {
      "inputs": [
        {
          "internalType": "uint256",
          "name": "",
          "type": "uint256"
        }
      ],
      "name": "markets",
      "outputs": [
        {
          "internalType": "uint256",
          "name": "capacity",
          "type": "uint256"
        },
        {
          "internalType": "contract IERC20",
          "name": "quoteToken",
          "type": "address"
        },
        {
          "internalType": "bool",
          "name": "capacityInQuote",
          "type": "bool"
        },
        {
          "internalType": "uint256",
          "name": "totalDebt",
          "type": "uint256"
        },
        {
          "internalType": "uint256",
          "name": "maxPayout",
          "type": "uint256"
        },
        {
          "internalType": "uint256",
          "name": "sold",
          "type": "uint256"
        },
        {
          "internalType": "uint256",
          "name": "purchased",
          "type": "uint256"
        }
      ],
      "stateMutability": "view",
      "type": "function"
    },
    {
      "inputs": [
        {
          "internalType": "address",
          "name": "",
          "type": "address"
        },
        {
          "internalType": "uint256",
          "name": "",
          "type": "uint256"
        }
      ],
      "name": "marketsForQuote",
      "outputs": [
        {
          "internalType": "uint256",
          "name": "",
          "type": "uint256"
        }
      ],
      "stateMutability": "view",
      "type": "function"
    },
    {
      "inputs": [
        {
          "internalType": "uint256",
          "name": "",
          "type": "uint256"
        }
      ],
      "name": "metadata",
      "outputs": [
        {
          "internalType": "uint48",
          "name": "lastTune",
          "type": "uint48"
        },
        {
          "internalType": "uint48",
          "name": "lastDecay",
          "type": "uint48"
        },
        {
          "internalType": "uint48",
          "name": "length",
          "type": "uint48"
        },
        {
          "internalType": "uint48",
          "name": "depositInterval",
          "type": "uint48"
        },
        {
          "internalType": "uint48",
          "name": "tuneInterval",
          "type": "uint48"
        },
        {
          "internalType": "uint8",
          "name": "quoteDecimals",
          "type": "uint8"
        }
      ],
      "stateMutability": "view",
      "type": "function"
    },
    {
      "inputs": [],
      "name": "nend",
      "outputs": [
        {
          "internalType": "address",
          "name": "",
          "type": "address"
        }
      ],
      "stateMutability": "view",
      "type": "function"
    },
    {
      "inputs": [
        {
          "internalType": "address",
          "name": "",
          "type": "address"
        },
        {
          "internalType": "uint256",
          "name": "",
          "type": "uint256"
        }
      ],
      "name": "notes",
      "outputs": [
        {
          "internalType": "uint256",
          "name": "payout",
          "type": "uint256"
        },
        {
          "internalType": "uint256",
          "name": "payoutPerVesting",
          "type": "uint256"
        },
        {
          "internalType": "uint48",
          "name": "created",
          "type": "uint48"
        },
        {
          "internalType": "uint48",
          "name": "marketID",
          "type": "uint48"
        },
        {
          "internalType": "uint8",
          "name": "vestingCount",
          "type": "uint8"
        }
      ],
      "stateMutability": "view",
      "type": "function"
    },
    {
      "inputs": [],
      "name": "owner",
      "outputs": [
        {
          "internalType": "address",
          "name": "",
          "type": "address"
        }
      ],
      "stateMutability": "view",
      "type": "function"
    },
    {
      "inputs": [],
      "name": "proxiableUUID",
      "outputs": [
        {
          "internalType": "bytes32",
          "name": "",
          "type": "bytes32"
        }
      ],
      "stateMutability": "view",
      "type": "function"
    },
    {
      "inputs": [
        {
          "internalType": "uint256[]",
          "name": "_indexes",
          "type": "uint256[]"
        }
      ],
      "name": "redeem",
      "outputs": [
        {
          "internalType": "uint256",
          "name": "payout_",
          "type": "uint256"
        }
      ],
      "stateMutability": "nonpayable",
      "type": "function"
    },
    {
      "inputs": [
        {
          "internalType": "uint256",
          "name": "_marketId",
          "type": "uint256"
        }
      ],
      "name": "redeemAll",
      "outputs": [
        {
          "internalType": "uint256",
          "name": "",
          "type": "uint256"
        }
      ],
      "stateMutability": "nonpayable",
      "type": "function"
    },
    {
      "inputs": [],
      "name": "renounceOwnership",
      "outputs": [],
      "stateMutability": "nonpayable",
      "type": "function"
    },
    {
      "inputs": [
        {
          "internalType": "bool",
          "name": "_testing",
          "type": "bool"
        }
      ],
      "name": "setTesting",
      "outputs": [],
      "stateMutability": "nonpayable",
      "type": "function"
    },
    {
      "inputs": [
        {
          "internalType": "uint256",
          "name": "",
          "type": "uint256"
        }
      ],
      "name": "terms",
      "outputs": [
        {
          "internalType": "uint256",
          "name": "controlVariable",
          "type": "uint256"
        },
        {
          "internalType": "uint48",
          "name": "conclusion",
          "type": "uint48"
        },
        {
          "internalType": "uint256",
          "name": "maxDebt",
          "type": "uint256"
        }
      ],
      "stateMutability": "view",
      "type": "function"
    },
    {
      "inputs": [],
      "name": "testVestingInverval",
      "outputs": [
        {
          "internalType": "uint48",
          "name": "",
          "type": "uint48"
        }
      ],
      "stateMutability": "view",
      "type": "function"
    },
    {
      "inputs": [],
      "name": "testing",
      "outputs": [
        {
          "internalType": "bool",
          "name": "",
          "type": "bool"
        }
      ],
      "stateMutability": "view",
      "type": "function"
    },
    {
      "inputs": [],
      "name": "totalVestingCount",
      "outputs": [
        {
          "internalType": "uint8",
          "name": "",
          "type": "uint8"
        }
      ],
      "stateMutability": "view",
      "type": "function"
    },
    {
      "inputs": [
        {
          "internalType": "address",
          "name": "newOwner",
          "type": "address"
        }
      ],
      "name": "transferOwnership",
      "outputs": [],
      "stateMutability": "nonpayable",
      "type": "function"
    },
    {
      "inputs": [
        {
          "internalType": "uint16",
          "name": "_commissionRate",
          "type": "uint16"
        }
      ],
      "name": "updateCommissionRate",
      "outputs": [],
      "stateMutability": "nonpayable",
      "type": "function"
    },
    {
      "inputs": [
        {
          "internalType": "address",
          "name": "_ecosystemPool",
          "type": "address"
        }
      ],
      "name": "updateEcosystemPool",
      "outputs": [],
      "stateMutability": "nonpayable",
      "type": "function"
    },
    {
      "inputs": [
        {
          "internalType": "address",
          "name": "_insurancePool",
          "type": "address"
        }
      ],
      "name": "updateInsurancePool",
      "outputs": [],
      "stateMutability": "nonpayable",
      "type": "function"
    },
    {
      "inputs": [
        {
          "internalType": "address",
          "name": "_nend",
          "type": "address"
        }
      ],
      "name": "updateNend",
      "outputs": [],
      "stateMutability": "nonpayable",
      "type": "function"
    },
    {
      "inputs": [
        {
          "internalType": "address",
          "name": "newImplementation",
          "type": "address"
        }
      ],
      "name": "upgradeTo",
      "outputs": [],
      "stateMutability": "nonpayable",
      "type": "function"
    },
    {
      "inputs": [
        {
          "internalType": "address",
          "name": "newImplementation",
          "type": "address"
        },
        {
          "internalType": "bytes",
          "name": "data",
          "type": "bytes"
        }
      ],
      "name": "upgradeToAndCall",
      "outputs": [],
      "stateMutability": "payable",
      "type": "function"
    },
    {
      "inputs": [],
      "name": "vestingInverval",
      "outputs": [
        {
          "internalType": "uint48",
          "name": "",
          "type": "uint48"
        }
      ],
      "stateMutability": "view",
      "type": "function"
    }
  ],
  "transactionHash": "0x3a92a78527e2f3dde4aed9e8c6f5144c47ec58058142fddd8b98b8455dd83cdd",
  "args": [],
  "numDeployments": 1,
  "solcInputHash": "2b691191bd6bf894805fd6522b0009a2",
  "bytecode": "0x60a06040523462000111576000546200003260ff8260081c16158092819362000102575b8115620000df575b5062000116565b8062000046600160ff196000541617600055565b620000c4575b620000566200020d565b62000091575b620000666200017a565b30608052604051613bb990816200028782396080518181816108c301528181610c330152610cb20152f35b620000a261ff001960005416600055565b6040516001815260008051602062003e4083398151915290602090a16200005c565b620000d961010061ff00196000541617600055565b6200004c565b303b15915081620000f3575b50386200002b565b6001915060ff161438620000eb565b600160ff821610915062000023565b600080fd5b156200011e57565b60405162461bcd60e51b815260206004820152602e60248201527f496e697469616c697a61626c653a20636f6e747261637420697320616c72656160448201526d191e481a5b9a5d1a585b1a5e995960921b6064820152608490fd5b600054620001a060ff8260081c16158092819362000102578115620000df575062000116565b80620001b4600160ff196000541617600055565b620001f2575b60ff1960325416603255620001cb57565b61ff00196000541660005560008051602062003e40833981519152602060405160018152a1565b6200020761010061ff00196000541617600055565b620001ba565b6000805462010000600160b01b03198116757e8ae5c72eca86946b695dcc211863d9721a09610000178255604051737e8ae5c72eca86946b695dcc211863d9721a09619260109290921c6001600160a01b0316917f8be0079c531659141344cd1fd0a4f28419497f9722a3daafe3b4186f6b6457e091a356fe60806040526004361015610013575b600080fd5b60003560e01c8062aeef8a146102e257806308ed8d16146102d95780630aebeb4e146102d0578063203732b4146102c7578063217fe6c6146102be578063231259d9146102b55780633659cfe6146102ac57806339d2525f146102a35780633eca1cf01461029a57806345fd86ac14610291578063498e324f146102885780634f1ef2861461027f57806352d1902d146102765780635ea1d6f81461026d5780636088d1091461026457806365b014b71461025b5780637136a7a614610252578063715018a6146102495780637cbd26ef146102405780637ecb084d14610237578063829522001461022e5780638d03b102146102255780638da5cb5b1461021c57806399d508c014610213578063ab2adc001461020a578063b1283e7714610201578063bc3b2b12146101f8578063bfacba3d146101ef578063c0680e20146101e6578063c0aa0e8a146101dd578063c0c53b8b146101d4578063d2438c2a146101cb578063e0b117ff146101c2578063e3684e39146101b9578063f2fde38b146101b05763f9afb26a146101a857600080fd5b61000e611874565b5061000e61176f565b5061000e6116d2565b5061000e611637565b5061000e611608565b5061000e611501565b5061000e61144f565b5061000e611381565b5061000e61124f565b5061000e6111f6565b5061000e61116c565b5061000e6110e4565b5061000e6110bf565b5061000e611094565b5061000e611070565b5061000e611048565b5061000e611021565b5061000e610ff9565b5061000e610f93565b5061000e610e57565b5061000e610e2c565b5061000e610d94565b5061000e610d6e565b5061000e610c96565b5061000e610bd6565b5061000e610b8f565b5061000e610b65565b5061000e610ae9565b5061000e610a38565b5061000e610899565b5061000e610852565b5061000e6107c3565b5061000e61059e565b5061000e610509565b5061000e6104cc565b503461000e57606036600319011261000e5760043560243561030382611123565b509161030e816113dc565b506103189061205e565b9265ffffffffffff93818386421692602081015161033b9065ffffffffffff1690565b65ffffffffffff16841061034e906120ad565b61035884836123b7565b610361826130a4565b61036f6044358211156120f9565b806103798961215c565b90610383916121b4565b61038c84611316565b505460f01c60ff1661039d906121d4565b6103a6916121b4565b9760038501548911156103b8906121f3565b80600186019a8a8c546103cf9060ff9060a01c1690565b6000149661045d956104499461043b9460409a6104b9576103f2825b8d5461223f565b8c5560058c01610403838254612256565b9055610431600267ffffffffffffffff87169d8e61042660048301918254612256565b9055019c8d54612256565b8c5533931661338d565b9a546001600160a01b031690565b6035546001600160a01b031690339061226e565b0151905411156104a95750600090557f8401d05adbea6548a6999cc1540766e6d2ff919292142862893d0e62ec79fbe56000604051a25b604080519182526020820192909252f35b0390f35b90506104b491612749565b610494565b6103f2856103eb565b8015150361000e57565b503461000e57602036600319011261000e576004356104ea816104c2565b6104f2611e51565b60ff80196032541691151516176032556000604051f35b503461000e57602036600319011261000e576105456105266129e5565b6001600160a01b0360005460101c163314908115610552575b50612a06565b610550600435613045565b005b60ff9150602061057c9133600052603882526040600020826040519483868095519384920161078e565b82019081520301902054163861053f565b6001600160a01b0381160361000e57565b503461000e57602036600319011261000e576001600160a01b036004356105c48161058d565b6105cc611e51565b166001600160a01b031960355416176035556000604051f35b50634e487b7160e01b600052604160045260246000fd5b6060810190811067ffffffffffffffff82111761061857604052565b6106206105e5565b604052565b6020810190811067ffffffffffffffff82111761061857604052565b6040810190811067ffffffffffffffff82111761061857604052565b90601f8019910116810190811067ffffffffffffffff82111761061857604052565b604051906080820182811067ffffffffffffffff82111761061857604052565b6040519060e0820182811067ffffffffffffffff82111761061857604052565b604051906106cc826105fc565b565b6040519060c0820182811067ffffffffffffffff82111761061857604052565b6040519060a0820182811067ffffffffffffffff82111761061857604052565b60209067ffffffffffffffff811161072c575b601f01601f19160190565b6107346105e5565b610721565b9291926107458261070e565b91610753604051938461065d565b82948184528183011161000e578281602093846000960137010152565b9080601f8301121561000e5781602061078b93359101610739565b90565b918091926000905b8282106107ae5750116107a7575050565b6000910152565b91508060209183015181860152018291610796565b503461000e57604036600319011261000e576004356107e18161058d565b60243567ffffffffffffffff811161000e5761083560206104a5936001600160a01b0361081460ff953690600401610770565b9116600052603882526040600020826040519483868095519384920161078e565b820190815203019020546040519116151581529081906020820190565b503461000e57602036600319011261000e576001600160a01b036004356108788161058d565b610880611e51565b166001600160a01b031960365416176036556000604051f35b503461000e57602036600319011261000e576004356108b78161058d565b6001600160a01b0390817f000000000000000000000000000000000000000000000000000000000000000016916108f0833014156118ff565b61091f7f360894a13ba1a3210667c828492db98dca3e2076cc3735a920a3ca505d382bbc938285541614611960565b610927611e51565b6040519061093482610625565b600082527f4910fdfa16fed3260ed0e7147f7cc6da11a60208b5b9406d12a635614ffd91435460ff161561096e5750506105509150611b53565b6020600491604094939451928380926352d1902d60e01b825286165afa60009181610a08575b506109f55760405162461bcd60e51b815260206004820152602e60248201527f45524331393637557067726164653a206e657720696d706c656d656e7461746960448201526d6f6e206973206e6f74205555505360901b6064820152608490fd5b61055093610a0391146119dd565b611bf1565b610a2a91925060203d8111610a31575b610a22818361065d565b8101906119c1565b9038610994565b503d610a18565b503461000e57606036600319011261000e57600435610a568161058d565b6024359067ffffffffffffffff821161000e57610abc6020610a7f610550943690600401610770565b6001600160a01b0360443594610a94866104c2565b610a9c611e51565b16600052603882526040600020826040519483868095519384920161078e565b8201908152030190209060ff801983541691151516179055565b60c4359063ffffffff8216820361000e57565b503461000e5760e036600319011261000e57600435610b078161058d565b60443590610b14826104c2565b6084359165ffffffffffff8316830361000e5760a43563ffffffff8116810361000e576104a593610b5593610b47610ad6565b936064359160243590612a52565b6040519081529081906020820190565b503461000e57600036600319011261000e57602065ffffffffffff60365460b81c16604051908152f35b503461000e57602036600319011261000e576001600160a01b03600435610bb58161058d565b610bbd611e51565b166001600160a01b031960345416176034556000604051f35b50604036600319011261000e57600435610bef8161058d565b6024359067ffffffffffffffff821161000e573660238301121561000e57610c24610550923690602481600401359101610739565b90610c896001600160a01b03807f00000000000000000000000000000000000000000000000000000000000000001690610c60823014156118ff565b7f360894a13ba1a3210667c828492db98dca3e2076cc3735a920a3ca505d382bbc541614611960565b610c91611e51565b611a3b565b503461000e57600036600319011261000e576001600160a01b037f0000000000000000000000000000000000000000000000000000000000000000163003610d03576040517f360894a13ba1a3210667c828492db98dca3e2076cc3735a920a3ca505d382bbc8152602090f35b60405162461bcd60e51b815260206004820152603860248201527f555550535570677261646561626c653a206d757374206e6f742062652063616c60448201527f6c6564207468726f7567682064656c656761746563616c6c00000000000000006064820152608490fd5b503461000e57600036600319011261000e57602061ffff60365460a81c16604051908152f35b503461000e57602036600319011261000e5760043561ffff811680820361000e5761271090610dc1611e51565b11610de7576036805461ffff60a81b191660a89290921b61ffff60a81b16919091179055005b60405162461bcd60e51b815260206004820152601360248201527f496e76616c696420626173697320706f696e74000000000000000000000000006044820152606490fd5b503461000e57600036600319011261000e57610e4f60ff60005460081c16611df1565b610550611eac565b503461000e57602036600319011261000e57600435610e91610e8c336001600160a01b03166000526033602052604060002090565b613a2d565b6000805b8251811015610f08578365ffffffffffff610ec36060610eb585886136df565b51015165ffffffffffff1690565b161480610ef3575b610ede575b610ed9906136cf565b610e95565b90610eeb610ed9916136cf565b919050610ed0565b5060ff610f008233613a95565b161515610ecb565b50610f129061369d565b6000805b8351811015610f87578465ffffffffffff610f366060610eb585896136df565b161480610f72575b610f51575b610f4c906136cf565b610f16565b90610f6a8183610f64610f4c94876136df565b526136cf565b919050610f43565b5060ff610f7f8233613a95565b161515610f3e565b6104a5610b5584613809565b503461000e57600080600319360112610ff657610fae611e51565b805462010000600160b01b031981168255816001600160a01b036040519260101c167f8be0079c531659141344cd1fd0a4f28419497f9722a3daafe3b4186f6b6457e08284a3f35b80fd5b503461000e57600036600319011261000e5760206001600160a01b0360355416604051908152f35b503461000e57600036600319011261000e57602065ffffffffffff60375416604051908152f35b503461000e57600036600319011261000e5760206001600160a01b0360365416604051908152f35b503461000e57600036600319011261000e57602060ff603254166040519015158152f35b503461000e57600036600319011261000e5760206001600160a01b0360005460101c16604051908152f35b503461000e57600036600319011261000e57602060ff60365460a01c16604051908152f35b503461000e57600036600319011261000e5760206001600160a01b0360345416604051908152f35b50634e487b7160e01b600052603260045260246000fd5b600690609d5481101561115f575b609d600052027fd26e832454299e9fabb89e0e5fffdc046d4e14431bc1bf607ffb2e8a1ddecf7b0190600090565b61116761110c565b611131565b503461000e57602036600319011261000e57600435609d5481101561000e5761119490611123565b5080546001820154600283015460038401546004850154600590950154604080519586526001600160a01b038516602087015260ff60a095861c16151590860152606085019290925260808401529082019290925260c081019190915260e090f35b503461000e57602036600319011261000e5760043560005260a06020526080604060002060ff6001825492015460405192835265ffffffffffff80821660208501528160301c16604084015260601c1615156060820152f35b503461000e57602036600319011261000e5760043561126d816130a4565b6104a56b033b2e3c9fd0803ce80000006112eb836112e661128d87611123565b5054966112e060ff60036112a084611123565b50015492609f54811015611309575b609f6000527f0bc14066c33013fe88f66e314e4cf150b0b2d4d6451a1a51dbbd1c27cd11de28015460f01c166121d4565b906121a1565b6121a1565b04604051938493846040919493926060820195825260208201520152565b61131161110c565b6112af565b609f5481101561134e575b609f6000527f0bc14066c33013fe88f66e314e4cf150b0b2d4d6451a1a51dbbd1c27cd11de280190600090565b61135661110c565b611321565b8054821015611374575b60005260206000200190600090565b61137c61110c565b611365565b503461000e57604036600319011261000e5760043561139f8161058d565b6001600160a01b03602435911660005260a16020526040600020805482101561000e576020916113ce9161135b565b90546040519160031b1c8152f35b600390609e54811015611418575b609e600052027fcfe2a20ff701a1f3e14f63bd70d6c6bc6fba8172ec6d5a505cdab3927c0a9de60190600090565b61142061110c565b6113ea565b8054821015611442575b6000526003602060002091020190600090565b61144a61110c565b61142f565b503461000e57602036600319011261000e57600435609e5481101561000e576003606091609e60005202807fcfe2a20ff701a1f3e14f63bd70d6c6bc6fba8172ec6d5a505cdab3927c0a9de60154907fcfe2a20ff701a1f3e14f63bd70d6c6bc6fba8172ec6d5a505cdab3927c0a9de865ffffffffffff7fcfe2a20ff701a1f3e14f63bd70d6c6bc6fba8172ec6d5a505cdab3927c0a9de7830154169101549060405192835260208301526040820152f35b503461000e57606036600319011261000e5760043561151f8161058d565b61157c60243561152e8161058d565b6044359061153b8261058d565b6000549361156060ff8660081c1615809681976115fa575b81156115da575b50611f21565b84611573600160ff196000541617600055565b6115c157611f93565b61158257005b61159261ff001960005416600055565b604051600181527f7f26b83ff96e1f2b6a682f133852f6798a09c465da95921460cefb384740249890602090a1005b6115d561010061ff00196000541617600055565b611f93565b303b159150816115ec575b503861155a565b6001915060ff1614386115e5565b600160ff8216109150611553565b503461000e57600036600319011261000e5761162b60ff60005460081c16611df1565b6032805460ff19169055005b503461000e57604036600319011261000e576004356116558161058d565b6001600160a01b0360243591166000526033602052604060002090815481101561000e5761168291611425565b508054600182015460029092015460408051928352602083019390935265ffffffffffff80821693830193909352603081901c9092166060808301919091529190911c60ff16608082015260a090f35b503461000e57602036600319011261000e57600435609f5481101561000e57609f6000527f0bc14066c33013fe88f66e314e4cf150b0b2d4d6451a1a51dbbd1c27cd11de2801546040805165ffffffffffff8084168252603084901c81166020830152606084811c821693830193909352609084901c81169282019290925260c083811c909216608082015260f09290921c60ff1660a083015290f35b503461000e57602036600319011261000e5760043561178d8161058d565b611795611e51565b6001600160a01b039081811680156117f95760009262010000600160b01b0384549360101b1662010000600160b01b031984161784556040519260101c167f8be0079c531659141344cd1fd0a4f28419497f9722a3daafe3b4186f6b6457e08484a3f35b60405162461bcd60e51b815260206004820152602660248201527f4f776e61626c653a206e6577206f776e657220697320746865207a65726f206160448201526564647265737360d01b6064820152608490fd5b60209067ffffffffffffffff8111611867575b60051b0190565b61186f6105e5565b611860565b503461000e5760208060031936011261000e5760043567ffffffffffffffff811161000e573660238201121561000e578060040135906118b38261184d565b916118c1604051938461065d565b80835260248484019160051b8301019136831161000e57602401905b8282106118f0576104a5610b5585613809565b813581529084019084016118dd565b1561190657565b60405162461bcd60e51b815260206004820152602c60248201527f46756e6374696f6e206d7573742062652063616c6c6564207468726f7567682060448201526b19195b1959d85d1958d85b1b60a21b6064820152608490fd5b1561196757565b60405162461bcd60e51b815260206004820152602c60248201527f46756e6374696f6e206d7573742062652063616c6c6564207468726f7567682060448201526b6163746976652070726f787960a01b6064820152608490fd5b9081602091031261000e575190565b506040513d6000823e3d90fd5b156119e457565b60405162461bcd60e51b815260206004820152602960248201527f45524331393637557067726164653a20756e737570706f727465642070726f786044820152681a58589b195555525160ba1b6064820152608490fd5b90611a677f4910fdfa16fed3260ed0e7147f7cc6da11a60208b5b9406d12a635614ffd91435460ff1690565b15611a7657506106cc90611b53565b6040516352d1902d60e01b8152916020836004816001600160a01b0385165afa60009381611b33575b50611b005760405162461bcd60e51b815260206004820152602e60248201527f45524331393637557067726164653a206e657720696d706c656d656e7461746960448201526d6f6e206973206e6f74205555505360901b6064820152608490fd5b611b2e7f360894a13ba1a3210667c828492db98dca3e2076cc3735a920a3ca505d382bbc6106cc94146119dd565b611cad565b611b4c91945060203d8111610a3157610a22818361065d565b9238611a9f565b803b15611b96576001600160a01b037f360894a13ba1a3210667c828492db98dca3e2076cc3735a920a3ca505d382bbc91166001600160a01b0319825416179055565b60405162461bcd60e51b815260206004820152602d60248201527f455243313936373a206e657720696d706c656d656e746174696f6e206973206e60448201526c1bdd08184818dbdb9d1c9858dd609a1b6064820152608490fd5b611bfa81611b53565b604051906001600160a01b0381167fbc7cd75a20ee27fd9adebab32041f755214dbc6bffa90cc0225b39da2e5c2d3b600084a2825115801590611ca5575b611c4157505050565b600080611ca294611c51856105fc565b602785527f416464726573733a206c6f772d6c6576656c2064656c65676174652063616c6c6020860152660819985a5b195960ca1b6040860152602081519101845af4611c9c611d04565b91611d80565b50565b506000611c38565b611cb681611b53565b604051906001600160a01b0381167fbc7cd75a20ee27fd9adebab32041f755214dbc6bffa90cc0225b39da2e5c2d3b600084a2825115801590611cfc57611c4157505050565b506001611c38565b3d15611d2f573d90611d158261070e565b91611d23604051938461065d565b82523d6000602084013e565b606090565b15611d3b57565b60405162461bcd60e51b815260206004820152601d60248201527f416464726573733a2063616c6c20746f206e6f6e2d636f6e74726163740000006044820152606490fd5b91929015611da05750815115611d94575090565b61078b903b1515611d34565b825190915015611db35750805190602001fd5b6044604051809262461bcd60e51b825260206004830152611de3815180928160248601526020868601910161078e565b601f01601f19168101030190fd5b15611df857565b60405162461bcd60e51b815260206004820152602b60248201527f496e697469616c697a61626c653a20636f6e7472616374206973206e6f74206960448201526a6e697469616c697a696e6760a81b6064820152608490fd5b6001600160a01b0360005460101c163303611e6857565b606460405162461bcd60e51b815260206004820152602060248201527f4f776e61626c653a2063616c6c6572206973206e6f7420746865206f776e65726044820152fd5b737e8ae5c72eca86946b695dcc211863d9721a09616001600160a01b03600054757e8ae5c72eca86946b695dcc211863d9721a0961000062010000600160b01b031982161760005560101c167f8be0079c531659141344cd1fd0a4f28419497f9722a3daafe3b4186f6b6457e06000604051a3565b15611f2857565b60405162461bcd60e51b815260206004820152602e60248201527f496e697469616c697a61626c653a20636f6e747261637420697320616c72656160448201527f647920696e697469616c697a65640000000000000000000000000000000000006064820152608490fd5b917fffffff0000000000000000ffffffffffffffffffffffffffffffffffffffffff6120399360ff60005460081c1693611fcc85611df1565b603654906001600160a01b038095816001600160a01b031993168360345416176034551690603554161760355563a8c0000f60a91b93600560a01b9216906affffffffffffffffffffff60a81b161717161760365561025865ffffffffffff196037541617603755611df1565b612041611eac565b61205260ff60005460081c16611df1565b60ff1960325416603255565b906040516060810181811067ffffffffffffffff8211176120a0575b6040526040600282948054845265ffffffffffff60018201541660208501520154910152565b6120a86105e5565b61207a565b156120b457565b60405162461bcd60e51b815260206004820152601c60248201527f4465706f7369746f72793a206d61726b657420636f6e636c75646564000000006044820152606490fd5b1561210057565b60405162461bcd60e51b815260206004820152601f60248201527f4465706f7369746f72793a206d6f7265207468616e206d6178207072696365006044820152606490fd5b50634e487b7160e01b600052601160045260246000fd5b6b033b2e3c9fd0803ce800000090806000190482118115151661217d570290565b612185612145565b0290565b620f424090806000190482118115151661217d570290565b806000190482118115151661217d570290565b81156121be570490565b634e487b7160e01b600052601260045260246000fd5b60ff16604d81116121e6575b600a0a90565b6121ee612145565b6121e0565b156121fa57565b60405162461bcd60e51b815260206004820152601d60248201527f4465706f7369746f72793a206d61782073697a652065786365656465640000006044820152606490fd5b81811061224a570390565b612252612145565b0390565b81198111612262570190565b61226a612145565b0190565b6040516323b872dd60e01b60208083019182526001600160a01b039485166024840152948416604483015260648083019690965294815292936123039392909160009182916122be60848761065d565b1692604051946122cd86610641565b8786527f5361666545524332303a206c6f772d6c6576656c2063616c6c206661696c656488870152519082855af1611c9c611d04565b805190828215928315612373575b5050501561231c5750565b6084906040519062461bcd60e51b82526004820152602a60248201527f5361666545524332303a204552433230206f7065726174696f6e20646964206e6044820152691bdd081cdd58d8d9595960b21b6064820152fd5b612383935082018101910161238b565b388281612311565b9081602091031261000e575161078b816104c2565b65ffffffffffff918216911681811061224a570390565b90609f5482101561258e575b609f6000526124456124386124386123fc857f0bc14066c33013fe88f66e314e4cf150b0b2d4d6451a1a51dbbd1c27cd11de280161259b565b65ffffffffffff604061242e82602085015116804210612581575b60026124228b611123565b509142039101546121a1565b92015116906121b4565b67ffffffffffffffff1690565b61245d600261245385611123565b500191825461223f565b90556124918161246c84611316565b509065ffffffffffff60301b82549160301b169065ffffffffffff60301b1916179055565b6124b560016124aa8460005260a0602052604060002090565b015460601c60ff1690565b6124bd575050565b6124d18260005260a0602052604060002090565b916124e76124de826131a7565b919290936113dc565b506124f383825461223f565b90551561256e5761252e600185612511612555946106cc985461223f565b81550192612529845465ffffffffffff9060301c1690565b6123a0565b82546bffffffffffff000000000000191660309190911b65ffffffffffff60301b16178255565b9065ffffffffffff1665ffffffffffff19825416179055565b505050600101805460ff60601b19169055565b612589612145565b612417565b61259661110c565b6123c3565b9060405160c0810181811067ffffffffffffffff821117612601575b60405260a060ff82945465ffffffffffff8082168552808260301c166020860152808260601c166040860152808260901c1660608601528160c01c16608085015260f01c16910152565b6126096105e5565b6125b7565b9065ffffffffffff8080931691168092038111612262570190565b9060405160e0810181811067ffffffffffffffff82111761269f575b60405260c0600582948054845261267a60ff60018301546001600160a01b038116602088015260a01c16604086019015159052565b6002810154606085015260038101546080850152600481015460a08501520154910152565b6126a76105e5565b612645565b50634e487b7160e01b600052600060045260246000fd5b606060016127459284518155019261272a65ffffffffffff6126ff81602085015116879065ffffffffffff1665ffffffffffff19825416179055565b604083015186546bffffffffffff0000000000001916911660301b65ffffffffffff60301b16178555565b0151825460ff60601b191690151560601b60ff60601b161790565b9055565b9061275c61275683611316565b5061259b565b805165ffffffffffff16926127936127886080840195612782875165ffffffffffff1690565b9061260e565b65ffffffffffff1690565b65ffffffffffff841610156127a9575b50505050565b612930936128e76124388561282f60046128966129169861282f896112e061278860406128016127886127e46127de87611123565b50612629565b9b61252960016127f3896113dc565b50015465ffffffffffff1690565b9561280b856130a4565b9a8b61281984830151151590565b156129dd576128349061282f612850935161215c565b6121b4565b61284a61284560a085015160ff1690565b6121d4565b906121b4565b945b60036128866128806124386124388c61282f61287a61278860608b015165ffffffffffff1690565b8d6121a1565b92611123565b500155015165ffffffffffff1690565b9260206128bd6128b16128b16036546001600160a01b031690565b6001600160a01b031690565b604051633fdaeac760e11b815293849182905afa9182156129d0575b6000926129b0575b506121a1565b9067ffffffffffffffff6128fa846113dc565b50549216918210612939575061290f826113dc565b5055611316565b509065ffffffffffff1665ffffffffffff19825416179055565b388080806127a3565b61298b6129636129566129ab9461294f876113dc565b505461223f565b925165ffffffffffff1690565b61296b61067f565b92835265ffffffffffff8716602084015265ffffffffffff166040830152565b600160608201526129a68360005260a0602052604060002090565b6126c3565b611316565b6129c991925060203d8111610a3157610a22818361065d565b90386128e1565b6129d86119d0565b6128d9565b505194612852565b604051906129f282610641565b600582526430b236b4b760d91b6020830152565b15612a0d57565b60405162461bcd60e51b815260206004820152600e60248201527f4e6f7420617574686f72697a65640000000000000000000000000000000000006044820152606490fd5b9094929394612a5f6129e5565b92612a836001600160a01b03948560005460101c1633149081156105525750612a06565b612a954265ffffffffffff891661223f565b916040519663313ce56760e01b88526020886004818989165afa978815612d4d575b600098612d1c575b508215612d145788612ae3612ad78361282f8661215c565b61284a60ff8c16612d73565b915b609d549b8c9a87612afc63ffffffff8d16876121a1565b90612b06916121b4565b612b0e61069f565b8781526001600160a01b038b166020820152908815156040830152866060830152608082015260a081016000905260c0810160009052612b4d90612d81565b603654604051633fdaeac760e11b8152928691849081906001600160a01b03165a92600491602094fa90811563ffffffff7f3f414051967f5a5e84f3af856364502239c9052e98e136c6ed4ed90bc5f5b0ba9f612c6465ffffffffffff612ce79f612c2b612c949e60209e612c21612c8f9f60ff9f612c849e61282f8c9f612c0694612c749f94612bea95612d07575b600092612ced57506121a1565b93612c00612bf782612189565b620186a0900490565b90612256565b91612c0f6106bf565b93845265ffffffffffff166020840152565b6040820152612e3d565b612c54824216612c396106ce565b65ffffffffffff821681529e8f019065ffffffffffff169052565b1665ffffffffffff1660408c0152565b1665ffffffffffff166060890152565b1665ffffffffffff166080860152565b1660ff1660a0830152565b612eba565b612cbc87612cb78787166001600160a01b031660005260a1602052604060002090565b613000565b6040519485941697849192604091949365ffffffffffff606085019616845260208401521515910152565b0390a390565b60206129c99293503d602011610a3157610a22818361065d565b612d0f6119d0565b612bdd565b888291612ae5565b612d3f91985060203d602011612d46575b612d37818361065d565b810190612d5a565b9638612abf565b503d612d2d565b612d556119d0565b612ab7565b9081602091031261000e575160ff8116810361000e5790565b604d81116121e657600a0a90565b600560c0612da4609d54600160401b811015612e30575b60018101609d55611123565b939093612e23575b8051845560018401612de16001600160a01b0360208401511682906001600160a01b03166001600160a01b0319825416179055565b6040820151815460ff60a01b191690151560a01b60ff60a01b16179055606081015160028501556080810151600385015560a081015160048501550151910155565b612e2b6126ac565b612dac565b612e386105e5565b612d98565b60026040612e60609e54600160401b811015612ead575b60018101609e556113dc565b939093612ea0575b80518455612e9965ffffffffffff602083015116600186019065ffffffffffff1665ffffffffffff19825416179055565b0151910155565b612ea86126ac565b612e68565b612eb56105e5565b612e54565b6106cc90612fcc60a0612ee2609f54600160401b811015612ff3575b60018101609f55611316565b939093612fe6575b805184546020830151604084015160608086015191901b71ffffffffffff0000000000000000000000001660309290921b65ffffffffffff60301b1665ffffffffffff9485167fffffffffffffffff00000000000000000000000000000000000000000000000090941693909317929092171760909190911b77ffffffffffff000000000000000000000000000000000000161785556080820151612fc4911685547fffff000000000000ffffffffffffffffffffffffffffffffffffffffffffffff1660c09190911b65ffffffffffff60c01b16178555565b015160ff1690565b815460ff60f01b191660f09190911b60ff60f01b16179055565b612fee6126ac565b612eea565b612ffb6105e5565b612ed6565b805461301e91600160401b821015613038575b60018201815561135b565b819291549060031b600019811b9283911b16911916179055565b6130406105e5565b613013565b61306e613051826113dc565b50600101805465ffffffffffff19164265ffffffffffff16179055565b600061307982611123565b50557f8401d05adbea6548a6999cc1540766e6d2ff919292142862893d0e62ec79fbe56000604051a2565b61078b9061284a61284561316261315c6130bd856113dc565b50546112e0600461311860026130d28a611123565b500154609f548a101561319a575b609f6000527f0bc14066c33013fe88f66e314e4cf150b0b2d4d6451a1a51dbbd1c27cd11de288a01546112e09060f01c60ff166121d4565b60206131326128b16128b16036546001600160a01b031690565b604051633fdaeac760e11b815293849182905afa91821561318d575b60009261316d575b506121b4565b93611316565b505460f01c60ff1690565b61318691925060203d8111610a3157610a22818361065d565b9038613156565b6131956119d0565b61314e565b6131a261110c565b6130e0565b600090815260a060205260408120906001604051926080840184811067ffffffffffffffff821117613264575b6040528054845201549165ffffffffffff9283811680602084015260ff6040840192868160301c16845260601c1615801560608501526132595761321a908542166123a0565b9361322e612788835165ffffffffffff1690565b908516908110935083156132535761278861295661284a9261325095516121a1565b92565b50505192565b505050809150918190565b61326c6105e5565b6131d4565b1561327857565b60405162461bcd60e51b815260206004820152602860248201527f496e73756666696369656e742074726561737572792062616c616e636520666f6044820152671c881c185e5bdd5d60c21b6064820152608490fd5b60ff608060026132f661274594805490600160401b821015613380575b600182018155611425565b613373575b855181556020860151600182015560408601519101805465ffffffffffff191665ffffffffffff928316178155949061335990606083015187546bffffffffffff0000000000001916911660301b65ffffffffffff60301b16178655565b0151835460ff60601b1916911660601b60ff60601b161790565b61337b6126ac565b6132fb565b6133886105e5565b6132eb565b90949392916000906134456133aa6036546001600160a01b031690565b866133bd6035546001600160a01b031690565b6040516370a0823160e01b81526001600160a01b03828116600483015260209788959290919061340a90869088816024818988165afa908115613644575b8591613627575b501015613271565b60405163276d76f960e21b81526001600160a01b03909316600484015230602484015260448301949094529094859384929183906064820190565b0393165af1801561361a575b6135fd575b5060365460a81c61ffff1661ffff1661346f90866121a1565b6127109004948561347f9161223f565b9661349d856001600160a01b03166000526033602052604060002090565b54976134bd89966001600160a01b03166000526033602052604060002090565b9260058204924265ffffffffffff16946134d56106ee565b84815287810186905265ffffffffffff8716604082015265ffffffffffff891660608201526000608082015261350a916132ce565b60365460345460405163a9059cbb60e01b81526001600160a01b039182166004820152602481019b909b5287918b916044918391165a90600091f17f129794f6f9aa0adfa6dda6ca7d08d05812fea954f80008e5cf68ae7b9fa898b4996135bd979180156135f0575b6135c2575b50506040805133815265ffffffffffff9889166020820152908101989098526060880152608087015260a086015260c085015290911660e08301528190610100820190565b0390a1565b816135e192903d106135e9575b6135d9818361065d565b81019061238b565b503880613578565b503d6135cf565b6135f86119d0565b613573565b61361390833d85116135e9576135d9818361065d565b5038613456565b6136226119d0565b613451565b61363e9150893d8b11610a3157610a22818361065d565b38613402565b61364c6119d0565b6133fb565b1561365857565b60405162461bcd60e51b815260206004820152601160248201527f4e6f7468696e6720746f2072656465656d0000000000000000000000000000006044820152606490fd5b906136a78261184d565b6136b4604051918261065d565b82815280926136c5601f199161184d565b0190602036910137565b6001906000198114612262570190565b60209181518110156136f4575b60051b010190565b6136fc61110c565b6136ec565b1561370857565b60405162461bcd60e51b815260206004820152601260248201527f4e6f2070656e64696e672076657374696e6700000000000000000000000000006044820152606490fd5b60ff8091169116908160ff038111612262570190565b90815180825260208080930193019160005b828110613783575050505090565b835185529381019392810192600101613775565b906001600160a01b0390959492951681526137be6020956080878401526080830190613763565b818103604083015285808551928381520194019060005b8181106137f25750505061078b9394506060818403910152613763565b825160ff16865294870194918701916001016137d5565b9060009161381981511515613651565b613823815161369d565b9061382e815161369d565b9160005b825181101561390f5733600090815260336020526040902061385482856136df565b5161385e91611425565b5061386982856136df565b516138749033613a95565b9660ff908189169283151561388890613701565b600281018054909a9060601c60ff16906138a19161374d565b8a5460ff60601b191660609190911b60ff60601b16178a5560010154926138c890846121a1565b6138d191612256565b975460601c60ff16806138e485876136df565b60ff909116905216906138f6916121a1565b61390082866136df565b5261390a906136cf565b613832565b50906135bd7f5a21b90378728eb82fe7be28a8f4a46d422e5c1f08ac7521b84ef5c190b0cc86936000602061397e6139556128b16128b16036546001600160a01b031690565b60405163a9059cbb60e01b8152336004820152602481018c905293849283919082906044820190565b03925af180156139ba575b61399c575b506040519384933385613797565b6139b39060203d81116135e9576135d9818361065d565b503861398e565b6139c26119d0565b613989565b9060405160a0810181811067ffffffffffffffff821117613a20575b604052608060ff600283958054855260018101546020860152015465ffffffffffff80821660408601528160301c16606085015260601c16910152565b613a286105e5565b6139e3565b908154613a398161184d565b92613a47604051948561065d565b818452600090815260208082208186015b848410613a66575050505050565b600383600192613a75856139c7565b815201920193019290613a58565b60ff918216911681811061224a570390565b613ac060ff92613abb613ac6936001600160a01b03166000526033602052604060002090565b611425565b506139c7565b6080810190613ad6825160ff1690565b60365490848260a01c169485911614613b7a5761078b93613b47613b5992613b15613b0f612788604060ff98015165ffffffffffff1690565b4261223f565b90613b2260325460ff1690565b15613b68575065ffffffffffff613b4060375465ffffffffffff1690565b16906121b4565b81811115613b605750925b5160ff1690565b9116613a83565b905092613b52565b65ffffffffffff809160b81c16613b40565b5050505060009056fea2646970667358221220d5231743008ba8813bc10c3446d5cda5db02d9652d73e283d1b6d3cbfa556c6464736f6c634300080e00337f26b83ff96e1f2b6a682f133852f6798a09c465da95921460cefb3847402498",
  "devdoc": {
    "kind": "dev",
    "methods": {
      "close(uint256)": {
        "params": {
          "_id": "ID of market to close"
        }
      },
      "deposit(uint256,uint256,uint256)": {
        "params": {
          "_amount": "the amount of quote token to spend",
          "_id": "the ID of the market",
          "_maxPrice": "the maxeimum price at which to buy"
        },
        "returns": {
          "index_": "     the user index of the Note (usd to redeem or query information)",
          "payout_": "    the amount of NEND due"
        }
      },
      "owner()": {
        "details": "Returns the address of the current owner."
      },
      "proxiableUUID()": {
        "details": "Implementation of the ERC1822 {proxiableUUID} function. This returns the storage slot used by the implementation. It is used to validate the implementation's compatibility when performing an upgrade. IMPORTANT: A proxy pointing at a proxiable contract should not be considered proxiable itself, because this risks bricking a proxy that upgrades to it, by delegating to itself until out of gas. Thus it is critical that this function revert if invoked through a proxy. This is guaranteed by the `notDelegated` modifier."
      },
      "redeem(uint256[])": {
        "params": {
          "_indexes": "the note indexes to redeem"
        },
        "returns": {
          "payout_": "    sum of payout sent, in NEND"
        }
      },
      "redeemAll(uint256)": {
        "details": "if possible, query indexesFor() off-chain and input in redeem() to save gas",
        "returns": {
          "_0": "sum of payout sent, in NEND"
        }
      },
      "renounceOwnership()": {
        "details": "Leaves the contract without owner. It will not be possible to call `onlyOwner` functions anymore. Can only be called by the current owner. NOTE: Renouncing ownership will leave the contract without an owner, thereby removing any functionality that is only available to the owner."
      },
      "transferOwnership(address)": {
        "details": "Transfers ownership of the contract to a new account (`newOwner`). Can only be called by the current owner."
      },
      "upgradeTo(address)": {
        "custom:oz-upgrades-unsafe-allow-reachable": "delegatecall",
        "details": "Upgrade the implementation of the proxy to `newImplementation`. Calls {_authorizeUpgrade}. Emits an {Upgraded} event."
      },
      "upgradeToAndCall(address,bytes)": {
        "custom:oz-upgrades-unsafe-allow-reachable": "delegatecall",
        "details": "Upgrade the implementation of the proxy to `newImplementation`, and subsequently execute the function call encoded in `data`. Calls {_authorizeUpgrade}. Emits an {Upgraded} event."
      }
    },
    "version": 1
  },
  "userdoc": {
    "kind": "user",
    "methods": {
      "close(uint256)": {
        "notice": "disable existing market"
      },
      "deposit(uint256,uint256,uint256)": {
        "notice": "deposit quote tokens in exchange for a bond from a specified market"
      },
      "redeem(uint256[])": {
        "notice": "redeem notes for user"
      },
      "redeemAll(uint256)": {
        "notice": "redeem all redeemable markets for user"
      }
    },
    "version": 1
  },
  "storageLayout": {
    "storage": [
      {
        "astId": 687,
        "contract": "contracts/bonding/BondDepository.sol:BondDepository",
        "label": "_initialized",
        "offset": 0,
        "slot": "0",
        "type": "t_uint8"
      },
      {
        "astId": 690,
        "contract": "contracts/bonding/BondDepository.sol:BondDepository",
        "label": "_initializing",
        "offset": 1,
        "slot": "0",
        "type": "t_bool"
      },
      {
        "astId": 13012,
        "contract": "contracts/bonding/BondDepository.sol:BondDepository",
        "label": "_owner",
        "offset": 2,
        "slot": "0",
        "type": "t_address"
      },
      {
        "astId": 13132,
        "contract": "contracts/bonding/BondDepository.sol:BondDepository",
        "label": "__gap",
        "offset": 0,
        "slot": "1",
        "type": "t_array(t_uint256)49_storage"
      },
      {
        "astId": 31911,
        "contract": "contracts/bonding/BondDepository.sol:BondDepository",
        "label": "testing",
        "offset": 0,
        "slot": "50",
        "type": "t_bool"
      },
      {
        "astId": 14333,
        "contract": "contracts/bonding/BondDepository.sol:BondDepository",
        "label": "notes",
        "offset": 0,
        "slot": "51",
        "type": "t_mapping(t_address,t_array(t_struct(Note)14271_storage)dyn_storage)"
      },
      {
        "astId": 14335,
        "contract": "contracts/bonding/BondDepository.sol:BondDepository",
        "label": "insurancePool",
        "offset": 0,
        "slot": "52",
        "type": "t_address"
      },
      {
        "astId": 14337,
        "contract": "contracts/bonding/BondDepository.sol:BondDepository",
        "label": "ecosystemPool",
        "offset": 0,
        "slot": "53",
        "type": "t_address"
      },
      {
        "astId": 14339,
        "contract": "contracts/bonding/BondDepository.sol:BondDepository",
        "label": "nend",
        "offset": 0,
        "slot": "54",
        "type": "t_address"
      },
      {
        "astId": 14341,
        "contract": "contracts/bonding/BondDepository.sol:BondDepository",
        "label": "totalVestingCount",
        "offset": 20,
        "slot": "54",
        "type": "t_uint8"
      },
      {
        "astId": 14343,
        "contract": "contracts/bonding/BondDepository.sol:BondDepository",
        "label": "commissionRate",
        "offset": 21,
        "slot": "54",
        "type": "t_uint16"
      },
      {
        "astId": 14345,
        "contract": "contracts/bonding/BondDepository.sol:BondDepository",
        "label": "vestingInverval",
        "offset": 23,
        "slot": "54",
        "type": "t_uint48"
      },
      {
        "astId": 14347,
        "contract": "contracts/bonding/BondDepository.sol:BondDepository",
        "label": "testVestingInverval",
        "offset": 0,
        "slot": "55",
        "type": "t_uint48"
      },
      {
        "astId": 13144,
        "contract": "contracts/bonding/BondDepository.sol:BondDepository",
        "label": "hasRole",
        "offset": 0,
        "slot": "56",
        "type": "t_mapping(t_address,t_mapping(t_string_memory_ptr,t_bool))"
      },
      {
        "astId": 669,
        "contract": "contracts/bonding/BondDepository.sol:BondDepository",
        "label": "__gap",
        "offset": 0,
        "slot": "57",
        "type": "t_array(t_uint256)50_storage"
      },
      {
        "astId": 985,
        "contract": "contracts/bonding/BondDepository.sol:BondDepository",
        "label": "__gap",
        "offset": 0,
        "slot": "107",
        "type": "t_array(t_uint256)50_storage"
      },
      {
        "astId": 13285,
        "contract": "contracts/bonding/BondDepository.sol:BondDepository",
        "label": "markets",
        "offset": 0,
        "slot": "157",
        "type": "t_array(t_struct(Market)14178_storage)dyn_storage"
      },
      {
        "astId": 13289,
        "contract": "contracts/bonding/BondDepository.sol:BondDepository",
        "label": "terms",
        "offset": 0,
        "slot": "158",
        "type": "t_array(t_struct(Terms)14185_storage)dyn_storage"
      },
      {
        "astId": 13293,
        "contract": "contracts/bonding/BondDepository.sol:BondDepository",
        "label": "metadata",
        "offset": 0,
        "slot": "159",
        "type": "t_array(t_struct(Metadata)14198_storage)dyn_storage"
      },
      {
        "astId": 13298,
        "contract": "contracts/bonding/BondDepository.sol:BondDepository",
        "label": "adjustments",
        "offset": 0,
        "slot": "160",
        "type": "t_mapping(t_uint256,t_struct(Adjustment)14207_storage)"
      },
      {
        "astId": 13303,
        "contract": "contracts/bonding/BondDepository.sol:BondDepository",
        "label": "marketsForQuote",
        "offset": 0,
        "slot": "161",
        "type": "t_mapping(t_address,t_array(t_uint256)dyn_storage)"
      }
    ],
    "types": {
      "t_address": {
        "encoding": "inplace",
        "label": "address",
        "numberOfBytes": "20"
      },
      "t_array(t_struct(Market)14178_storage)dyn_storage": {
        "base": "t_struct(Market)14178_storage",
        "encoding": "dynamic_array",
        "label": "struct IBondDepository.Market[]",
        "numberOfBytes": "32"
      },
      "t_array(t_struct(Metadata)14198_storage)dyn_storage": {
        "base": "t_struct(Metadata)14198_storage",
        "encoding": "dynamic_array",
        "label": "struct IBondDepository.Metadata[]",
        "numberOfBytes": "32"
      },
      "t_array(t_struct(Note)14271_storage)dyn_storage": {
        "base": "t_struct(Note)14271_storage",
        "encoding": "dynamic_array",
        "label": "struct INoteKeeper.Note[]",
        "numberOfBytes": "32"
      },
      "t_array(t_struct(Terms)14185_storage)dyn_storage": {
        "base": "t_struct(Terms)14185_storage",
        "encoding": "dynamic_array",
        "label": "struct IBondDepository.Terms[]",
        "numberOfBytes": "32"
      },
      "t_array(t_uint256)49_storage": {
        "base": "t_uint256",
        "encoding": "inplace",
        "label": "uint256[49]",
        "numberOfBytes": "1568"
      },
      "t_array(t_uint256)50_storage": {
        "base": "t_uint256",
        "encoding": "inplace",
        "label": "uint256[50]",
        "numberOfBytes": "1600"
      },
      "t_array(t_uint256)dyn_storage": {
        "base": "t_uint256",
        "encoding": "dynamic_array",
        "label": "uint256[]",
        "numberOfBytes": "32"
      },
      "t_bool": {
        "encoding": "inplace",
        "label": "bool",
        "numberOfBytes": "1"
      },
      "t_contract(IERC20)6997": {
        "encoding": "inplace",
        "label": "contract IERC20",
        "numberOfBytes": "20"
      },
      "t_mapping(t_address,t_array(t_struct(Note)14271_storage)dyn_storage)": {
        "encoding": "mapping",
        "key": "t_address",
        "label": "mapping(address => struct INoteKeeper.Note[])",
        "numberOfBytes": "32",
        "value": "t_array(t_struct(Note)14271_storage)dyn_storage"
      },
      "t_mapping(t_address,t_array(t_uint256)dyn_storage)": {
        "encoding": "mapping",
        "key": "t_address",
        "label": "mapping(address => uint256[])",
        "numberOfBytes": "32",
        "value": "t_array(t_uint256)dyn_storage"
      },
      "t_mapping(t_address,t_mapping(t_string_memory_ptr,t_bool))": {
        "encoding": "mapping",
        "key": "t_address",
        "label": "mapping(address => mapping(string => bool))",
        "numberOfBytes": "32",
        "value": "t_mapping(t_string_memory_ptr,t_bool)"
      },
      "t_mapping(t_string_memory_ptr,t_bool)": {
        "encoding": "mapping",
        "key": "t_string_memory_ptr",
        "label": "mapping(string => bool)",
        "numberOfBytes": "32",
        "value": "t_bool"
      },
      "t_mapping(t_uint256,t_struct(Adjustment)14207_storage)": {
        "encoding": "mapping",
        "key": "t_uint256",
        "label": "mapping(uint256 => struct IBondDepository.Adjustment)",
        "numberOfBytes": "32",
        "value": "t_struct(Adjustment)14207_storage"
      },
      "t_string_memory_ptr": {
        "encoding": "bytes",
        "label": "string",
        "numberOfBytes": "32"
      },
      "t_struct(Adjustment)14207_storage": {
        "encoding": "inplace",
        "label": "struct IBondDepository.Adjustment",
        "members": [
          {
            "astId": 14200,
            "contract": "contracts/bonding/BondDepository.sol:BondDepository",
            "label": "change",
            "offset": 0,
            "slot": "0",
            "type": "t_uint256"
          },
          {
            "astId": 14202,
            "contract": "contracts/bonding/BondDepository.sol:BondDepository",
            "label": "lastAdjustment",
            "offset": 0,
            "slot": "1",
            "type": "t_uint48"
          },
          {
            "astId": 14204,
            "contract": "contracts/bonding/BondDepository.sol:BondDepository",
            "label": "timeToAdjusted",
            "offset": 6,
            "slot": "1",
            "type": "t_uint48"
          },
          {
            "astId": 14206,
            "contract": "contracts/bonding/BondDepository.sol:BondDepository",
            "label": "active",
            "offset": 12,
            "slot": "1",
            "type": "t_bool"
          }
        ],
        "numberOfBytes": "64"
      },
      "t_struct(Market)14178_storage": {
        "encoding": "inplace",
        "label": "struct IBondDepository.Market",
        "members": [
          {
            "astId": 14164,
            "contract": "contracts/bonding/BondDepository.sol:BondDepository",
            "label": "capacity",
            "offset": 0,
            "slot": "0",
            "type": "t_uint256"
          },
          {
            "astId": 14167,
            "contract": "contracts/bonding/BondDepository.sol:BondDepository",
            "label": "quoteToken",
            "offset": 0,
            "slot": "1",
            "type": "t_contract(IERC20)6997"
          },
          {
            "astId": 14169,
            "contract": "contracts/bonding/BondDepository.sol:BondDepository",
            "label": "capacityInQuote",
            "offset": 20,
            "slot": "1",
            "type": "t_bool"
          },
          {
            "astId": 14171,
            "contract": "contracts/bonding/BondDepository.sol:BondDepository",
            "label": "totalDebt",
            "offset": 0,
            "slot": "2",
            "type": "t_uint256"
          },
          {
            "astId": 14173,
            "contract": "contracts/bonding/BondDepository.sol:BondDepository",
            "label": "maxPayout",
            "offset": 0,
            "slot": "3",
            "type": "t_uint256"
          },
          {
            "astId": 14175,
            "contract": "contracts/bonding/BondDepository.sol:BondDepository",
            "label": "sold",
            "offset": 0,
            "slot": "4",
            "type": "t_uint256"
          },
          {
            "astId": 14177,
            "contract": "contracts/bonding/BondDepository.sol:BondDepository",
            "label": "purchased",
            "offset": 0,
            "slot": "5",
            "type": "t_uint256"
          }
        ],
        "numberOfBytes": "192"
      },
      "t_struct(Metadata)14198_storage": {
        "encoding": "inplace",
        "label": "struct IBondDepository.Metadata",
        "members": [
          {
            "astId": 14187,
            "contract": "contracts/bonding/BondDepository.sol:BondDepository",
            "label": "lastTune",
            "offset": 0,
            "slot": "0",
            "type": "t_uint48"
          },
          {
            "astId": 14189,
            "contract": "contracts/bonding/BondDepository.sol:BondDepository",
            "label": "lastDecay",
            "offset": 6,
            "slot": "0",
            "type": "t_uint48"
          },
          {
            "astId": 14191,
            "contract": "contracts/bonding/BondDepository.sol:BondDepository",
            "label": "length",
            "offset": 12,
            "slot": "0",
            "type": "t_uint48"
          },
          {
            "astId": 14193,
            "contract": "contracts/bonding/BondDepository.sol:BondDepository",
            "label": "depositInterval",
            "offset": 18,
            "slot": "0",
            "type": "t_uint48"
          },
          {
            "astId": 14195,
            "contract": "contracts/bonding/BondDepository.sol:BondDepository",
            "label": "tuneInterval",
            "offset": 24,
            "slot": "0",
            "type": "t_uint48"
          },
          {
            "astId": 14197,
            "contract": "contracts/bonding/BondDepository.sol:BondDepository",
            "label": "quoteDecimals",
            "offset": 30,
            "slot": "0",
            "type": "t_uint8"
          }
        ],
        "numberOfBytes": "32"
      },
      "t_struct(Note)14271_storage": {
        "encoding": "inplace",
        "label": "struct INoteKeeper.Note",
        "members": [
          {
            "astId": 14262,
            "contract": "contracts/bonding/BondDepository.sol:BondDepository",
            "label": "payout",
            "offset": 0,
            "slot": "0",
            "type": "t_uint256"
          },
          {
            "astId": 14264,
            "contract": "contracts/bonding/BondDepository.sol:BondDepository",
            "label": "payoutPerVesting",
            "offset": 0,
            "slot": "1",
            "type": "t_uint256"
          },
          {
            "astId": 14266,
            "contract": "contracts/bonding/BondDepository.sol:BondDepository",
            "label": "created",
            "offset": 0,
            "slot": "2",
            "type": "t_uint48"
          },
          {
            "astId": 14268,
            "contract": "contracts/bonding/BondDepository.sol:BondDepository",
            "label": "marketID",
            "offset": 6,
            "slot": "2",
            "type": "t_uint48"
          },
          {
            "astId": 14270,
            "contract": "contracts/bonding/BondDepository.sol:BondDepository",
            "label": "vestingCount",
            "offset": 12,
            "slot": "2",
            "type": "t_uint8"
          }
        ],
        "numberOfBytes": "96"
      },
      "t_struct(Terms)14185_storage": {
        "encoding": "inplace",
        "label": "struct IBondDepository.Terms",
        "members": [
          {
            "astId": 14180,
            "contract": "contracts/bonding/BondDepository.sol:BondDepository",
            "label": "controlVariable",
            "offset": 0,
            "slot": "0",
            "type": "t_uint256"
          },
          {
            "astId": 14182,
            "contract": "contracts/bonding/BondDepository.sol:BondDepository",
            "label": "conclusion",
            "offset": 0,
            "slot": "1",
            "type": "t_uint48"
          },
          {
            "astId": 14184,
            "contract": "contracts/bonding/BondDepository.sol:BondDepository",
            "label": "maxDebt",
            "offset": 0,
            "slot": "2",
            "type": "t_uint256"
          }
        ],
        "numberOfBytes": "96"
      },
      "t_uint16": {
        "encoding": "inplace",
        "label": "uint16",
        "numberOfBytes": "2"
      },
      "t_uint256": {
        "encoding": "inplace",
        "label": "uint256",
        "numberOfBytes": "32"
      },
      "t_uint48": {
        "encoding": "inplace",
        "label": "uint48",
        "numberOfBytes": "6"
      },
      "t_uint8": {
        "encoding": "inplace",
        "label": "uint8",
        "numberOfBytes": "1"
      }
    }
  }
}