{
  "address": "0xD43D436151C00029119659aaC91Caf6E668b24C7",
  "abi": [
    {
      "inputs": [],
      "stateMutability": "nonpayable",
      "type": "constructor"
    },
    {
      "inputs": [
        {
          "internalType": "address",
          "name": "conduit",
          "type": "address"
        }
      ],
      "name": "CallerIsNotNewPotentialOwner",
      "type": "error"
    },
    {
      "inputs": [
        {
          "internalType": "address",
          "name": "conduit",
          "type": "address"
        }
      ],
      "name": "CallerIsNotOwner",
      "type": "error"
    },
    {
      "inputs": [
        {
          "internalType": "address",
          "name": "conduit",
          "type": "address"
        }
      ],
      "name": "ChannelOutOfRange",
      "type": "error"
    },
    {
      "inputs": [
        {
          "internalType": "address",
          "name": "conduit",
          "type": "address"
        }
      ],
      "name": "ConduitAlreadyExists",
      "type": "error"
    },
    {
      "inputs": [],
      "name": "InvalidCreator",
      "type": "error"
    },
    {
      "inputs": [],
      "name": "InvalidInitialOwner",
      "type": "error"
    },
    {
      "inputs": [
        {
          "internalType": "address",
          "name": "conduit",
          "type": "address"
        },
        {
          "internalType": "address",
          "name": "newPotentialOwner",
          "type": "address"
        }
      ],
      "name": "NewPotentialOwnerAlreadySet",
      "type": "error"
    },
    {
      "inputs": [
        {
          "internalType": "address",
          "name": "conduit",
          "type": "address"
        }
      ],
      "name": "NewPotentialOwnerIsZeroAddress",
      "type": "error"
    },
    {
      "inputs": [],
      "name": "NoConduit",
      "type": "error"
    },
    {
      "inputs": [
        {
          "internalType": "address",
          "name": "conduit",
          "type": "address"
        }
      ],
      "name": "NoPotentialOwnerCurrentlySet",
      "type": "error"
    },
    {
      "anonymous": false,
      "inputs": [
        {
          "indexed": false,
          "internalType": "address",
          "name": "conduit",
          "type": "address"
        },
        {
          "indexed": false,
          "internalType": "bytes32",
          "name": "conduitKey",
          "type": "bytes32"
        }
      ],
      "name": "NewConduit",
      "type": "event"
    },
    {
      "anonymous": false,
      "inputs": [
        {
          "indexed": true,
          "internalType": "address",
          "name": "conduit",
          "type": "address"
        },
        {
          "indexed": true,
          "internalType": "address",
          "name": "previousOwner",
          "type": "address"
        },
        {
          "indexed": true,
          "internalType": "address",
          "name": "newOwner",
          "type": "address"
        }
      ],
      "name": "OwnershipTransferred",
      "type": "event"
    },
    {
      "anonymous": false,
      "inputs": [
        {
          "indexed": true,
          "internalType": "address",
          "name": "newPotentialOwner",
          "type": "address"
        }
      ],
      "name": "PotentialOwnerUpdated",
      "type": "event"
    },
    {
      "inputs": [
        {
          "internalType": "address",
          "name": "conduit",
          "type": "address"
        }
      ],
      "name": "acceptOwnership",
      "outputs": [],
      "stateMutability": "nonpayable",
      "type": "function"
    },
    {
      "inputs": [
        {
          "internalType": "address",
          "name": "conduit",
          "type": "address"
        }
      ],
      "name": "cancelOwnershipTransfer",
      "outputs": [],
      "stateMutability": "nonpayable",
      "type": "function"
    },
    {
      "inputs": [
        {
          "internalType": "bytes32",
          "name": "conduitKey",
          "type": "bytes32"
        },
        {
          "internalType": "address",
          "name": "initialOwner",
          "type": "address"
        }
      ],
      "name": "createConduit",
      "outputs": [
        {
          "internalType": "address",
          "name": "conduit",
          "type": "address"
        }
      ],
      "stateMutability": "nonpayable",
      "type": "function"
    },
    {
      "inputs": [
        {
          "internalType": "address",
          "name": "conduit",
          "type": "address"
        },
        {
          "internalType": "uint256",
          "name": "channelIndex",
          "type": "uint256"
        }
      ],
      "name": "getChannel",
      "outputs": [
        {
          "internalType": "address",
          "name": "channel",
          "type": "address"
        }
      ],
      "stateMutability": "view",
      "type": "function"
    },
    {
      "inputs": [
        {
          "internalType": "address",
          "name": "conduit",
          "type": "address"
        },
        {
          "internalType": "address",
          "name": "channel",
          "type": "address"
        }
      ],
      "name": "getChannelStatus",
      "outputs": [
        {
          "internalType": "bool",
          "name": "isOpen",
          "type": "bool"
        }
      ],
      "stateMutability": "view",
      "type": "function"
    },
    {
      "inputs": [
        {
          "internalType": "address",
          "name": "conduit",
          "type": "address"
        }
      ],
      "name": "getChannels",
      "outputs": [
        {
          "internalType": "address[]",
          "name": "channels",
          "type": "address[]"
        }
      ],
      "stateMutability": "view",
      "type": "function"
    },
    {
      "inputs": [
        {
          "internalType": "bytes32",
          "name": "conduitKey",
          "type": "bytes32"
        }
      ],
      "name": "getConduit",
      "outputs": [
        {
          "internalType": "address",
          "name": "conduit",
          "type": "address"
        },
        {
          "internalType": "bool",
          "name": "exists",
          "type": "bool"
        }
      ],
      "stateMutability": "view",
      "type": "function"
    },
    {
      "inputs": [],
      "name": "getConduitCodeHashes",
      "outputs": [
        {
          "internalType": "bytes32",
          "name": "creationCodeHash",
          "type": "bytes32"
        },
        {
          "internalType": "bytes32",
          "name": "runtimeCodeHash",
          "type": "bytes32"
        }
      ],
      "stateMutability": "view",
      "type": "function"
    },
    {
      "inputs": [
        {
          "internalType": "address",
          "name": "conduit",
          "type": "address"
        }
      ],
      "name": "getKey",
      "outputs": [
        {
          "internalType": "bytes32",
          "name": "conduitKey",
          "type": "bytes32"
        }
      ],
      "stateMutability": "view",
      "type": "function"
    },
    {
      "inputs": [
        {
          "internalType": "address",
          "name": "conduit",
          "type": "address"
        }
      ],
      "name": "getPotentialOwner",
      "outputs": [
        {
          "internalType": "address",
          "name": "potentialOwner",
          "type": "address"
        }
      ],
      "stateMutability": "view",
      "type": "function"
    },
    {
      "inputs": [
        {
          "internalType": "address",
          "name": "conduit",
          "type": "address"
        }
      ],
      "name": "getTotalChannels",
      "outputs": [
        {
          "internalType": "uint256",
          "name": "totalChannels",
          "type": "uint256"
        }
      ],
      "stateMutability": "view",
      "type": "function"
    },
    {
      "inputs": [
        {
          "internalType": "address",
          "name": "conduit",
          "type": "address"
        }
      ],
      "name": "ownerOf",
      "outputs": [
        {
          "internalType": "address",
          "name": "owner",
          "type": "address"
        }
      ],
      "stateMutability": "view",
      "type": "function"
    },
    {
      "inputs": [
        {
          "internalType": "address",
          "name": "conduit",
          "type": "address"
        },
        {
          "internalType": "address",
          "name": "newPotentialOwner",
          "type": "address"
        }
      ],
      "name": "transferOwnership",
      "outputs": [],
      "stateMutability": "nonpayable",
      "type": "function"
    },
    {
      "inputs": [
        {
          "internalType": "address",
          "name": "conduit",
          "type": "address"
        },
        {
          "internalType": "address",
          "name": "channel",
          "type": "address"
        },
        {
          "internalType": "bool",
          "name": "isOpen",
          "type": "bool"
        }
      ],
      "name": "updateChannel",
      "outputs": [],
      "stateMutability": "nonpayable",
      "type": "function"
    }
  ],
  "args": [],
  "numDeployments": 3,
  "solcInputHash": "65da988443663a32775b6cccfbd39f42",
  "bytecode": "0x60c0604052346200004e575b6200001562000116565b604051612020620001c782396080518181816102390152610843015260a05181818161025a015281816108d10152611153015261202090f35b62000057600080fd5b6200000b565b50634e487b7160e01b600052604160045260246000fd5b90601f01601f191681019081106001600160401b038211176200009657604052565b620000a06200005d565b604052565b90620000bc620000b460405190565b928362000074565b565b620000ce620000ce620000ce9290565b90565b506040513d6000823e3d90fd5b620000ce90620000f4906001600160a01b031682565b6001600160a01b031690565b620000ce90620000de565b620000ce9062000100565b620001a0610c786200012b60208201620000a5565b81815281620021e760208301396200014c62000145825190565b9160200190565b206080526000620001906200016182620000be565b926200016c60405190565b918291808301906001600160401b03821184831017620001b6575b62002e5f843990565b0391f58015620001a6576200010b565b3f60a052565b620001b0620000d1565b6200010b565b620001c06200005d565b6200018756fe60806040526004361015610018575b610016600080fd5b005b60003560e01c8063027cc764146101305780630a96ad391461012757806313ad9cab1461011e57806314afd79e1461011557806333bc85721461010c5780634e3f95801461010357806351710e45146100fa5780636d435421146100f15780636e9bfd9f146100e8578063794593bc146100df5780637b37e561146100d65780638b9e028b146100cd578063906c87cc146100c4576393790f440361000e576100bf61061e565b61000e565b506100bf6105f4565b506100bf6105be565b506100bf610523565b506100bf6104f8565b506100bf610493565b506100bf610432565b506100bf61040b565b506100bf6103d1565b506100bf610394565b506100bf610339565b506100bf6102ef565b506100bf610225565b506100bf6101b6565b600080fd5b6001600160a01b031690565b90565b6001600160a01b0381165b0361013957565b9050359061016c8261014d565b565b80610158565b9050359061016c8261016e565b919061014a906040848203126101a5575b61019c818561015f565b93602001610174565b6101ad600080fd5b610192565b9052565b50346101f2575b6101ee6101d46101ce366004610181565b906111de565b604051918291826001600160a01b03909116815260200190565b0390f35b6101fa600080fd5b6101bd565b600091031261020a57565b61016c600080fd5b90815260408101929161016c9160200152565b503461028f575b6102373660046101ff565b7f00000000000000000000000000000000000000000000000000000000000000007f0000000000000000000000000000000000000000000000000000000000000000906101ee61028660405190565b92839283610212565b610297600080fd5b61022c565b801515610158565b9050359061016c8261029c565b90916060828403126102e2575b61014a6102cb848461015f565b936102d9816020860161015f565b936040016102a4565b6102ea600080fd5b6102be565b503461030f575b61030a6103043660046102b1565b91610c10565b604051005b610317600080fd5b6102f6565b9061014a916020818303121561015f57610334600080fd5b61015f565b5034610356575b6101ee6101d461035136600461031c565b6110c3565b61035e600080fd5b610340565b919061014a90604084820312610387575b61037e818561015f565b9360200161015f565b61038f600080fd5b610374565b50346103c4575b6101ee6103b26103ac366004610363565b90611189565b60405191829182901515815260200190565b6103cc600080fd5b61039b565b50346103fe575b6101ee6103ee6103e936600461031c565b6111c8565b6040519182918290815260200190565b610406600080fd5b6103d8565b5034610425575b61030a61042036600461031c565b610faa565b61042d600080fd5b610412565b503461044d575b61030a610447366004610363565b90610e18565b610455600080fd5b610439565b9061014a916020818303121561017457610472600080fd5b610174565b6001600160a01b03919091168152901515602082015260400190565b50346104c3575b6104ad6104a836600461045a565b611130565b906101ee6104ba60405190565b92839283610477565b6104cb600080fd5b61049a565b919061014a906040848203126104eb575b61037e8185610174565b6104f3600080fd5b6104e1565b5034610516575b6101ee6101d46105103660046104d0565b906107c0565b61051e600080fd5b6104ff565b503461053d575b61030a61053836600461031c565b610f07565b610545600080fd5b61052a565b0190565b9061056e61056761055d845190565b8084529260200190565b9260200190565b9060005b81811061057f5750505090565b9091926105a561059e60019286516001600160a01b0316815260200190565b9460200190565b929101610572565b602080825261014a9291019061054e565b50346105e7575b6101ee6105db6105d636600461031c565b6112e1565b604051918291826105ad565b6105ef600080fd5b6105c5565b5034610611575b6101ee6101d461060c36600461031c565b611178565b610619600080fd5b6105fb565b503461063b575b6101ee6103ee61063636600461031c565b6110e5565b610643600080fd5b610625565b61013e61014a61014a9290565b61014a90610648565b61013e61014a61014a926001600160a01b031690565b61014a9060601c61065e565b61014a9061065e565b61069c61069661014a9290565b60f81b90565b6001600160f81b03191690565b61014a90610680565b6101b2906001600160a01b031660601b90565b0180926106b2565b01918252565b50634e487b7160e01b600052604160045260246000fd5b90601f01601f1916810190811067ffffffffffffffff82111761070c57604052565b6107146106d3565b604052565b61014a61014a61014a9290565b61014a90610719565b506040513d6000823e3d90fd5b90610746906106a9565b600052602052604060002090565b906001600160a01b03905b9181191691161790565b9061077961014a610780926106a9565b8254610754565b9055565b906000199061075f565b9061079c61014a6107809290565b8254610784565b6001600160a01b03909116815260408101929161016c9160200152565b600092916107cd84610655565b6001600160a01b0381166001600160a01b03831614610a3f576108066108016bffffffffffffffffffffffff198516610674565b610680565b610818335b916001600160a01b031690565b03610a2d576108c46108016108bf856108a761083460ff610689565b61083d306106a9565b9061089b7f000000000000000000000000000000000000000000000000000000000000000061086b60405190565b958694602086019485926106cd601461054a946106cd6001886106c560209b9a8c996001600160f81b0319169052565b908103825203826106ea565b6108b96108b2825190565b9160200190565b20610726565b610648565b928395843f6108f76108f37f000000000000000000000000000000000000000000000000000000000000000090565b9190565b146109f8578161095d918161090b60405190565b80610933610c78820182811067ffffffffffffffff8211176109eb575b610c78611373843990565b039083f5156109de575b61094a61014a888361073c565b6109578760018301610769565b0161078e565b6109957f4397af6128d529b8ae0442f99db1296d5136062597a15bbc61c1b2a6431a7d159161098b60405190565b91829187836107a3565b0390a16109ce6109c86109c87fc8894f26f396ce8c004245c8b7cd1b92103a6e4302fcbab883987149ac01b7ec956106a9565b926106a9565b926109d860405190565b600090a4565b6109e661072f565b61093d565b6109f36106d3565b610928565b610a2985610a0560405190565b633194665960e11b8152918291600483016001600160a01b03909116815260200190565b0390fd5b6040516332db94d160e21b8152600490fd5b60405163267eaa8160e21b8152600490fd5b61014a9081565b61014a9054610a51565b0390565b50634e487b7160e01b600052601160045260246000fd5b818110610a88570390565b610a62610a66565b50634e487b7160e01b600052603260045260246000fd5b610ac7600191610ab5815490565b841015610ad057600052602060002090565b91020190600090565b610ad8610a90565b600052602060002090565b61014a916008021c61013e565b9061014a9154610ae3565b9190600861075f910291610b156001600160a01b03841b90565b921b90565b9190610b2b61014a610780936106a9565b908354610afb565b9061079c61014a61078092610719565b50634e487b7160e01b600052603160045260246000fd5b61016c91600091610b1a565b6001610b70825490565b8015610b8f575b0390610b8c610b868383610aa7565b90610b5a565b55565b610b97610b43565b610b77565b9160001960089290920291821b911b61075f565b9190610bc161014a61078093610719565b908354610b9c565b61016c91600091610bb0565b90610bfd61016c9280549068010000000000000000821015610c03575b600182018155610aa7565b90610b1a565b610c0b6106d3565b610bf2565b91610c1a836112f8565b610c4a6000610c30610c2b866106a9565b6106a9565b63c4e8fcb590803b15610dde575b60405193849260e01b90565b8252818381610c5d888a60048401610477565b03925af18015610dd1575b610db3575b50610c7d61014a6000948561073c565b906004820193610c95610c90858761073c565b610a58565b91610c9f82610719565b831415908080610dab575b15610ce1575050505061016c9291610cd66003610cdc9301610cd283610ccd8390565b610bd5565b5490565b9261073c565b610b33565b9295919492159081610da3575b50610cfb575b5050505050565b610d58610d53610d6296610d5d95610d11600090565b50600191610d456003610d2b610d2686610719565b840390565b930193610d3f610d39865490565b91610719565b90610a7d565b828103610d6c575b50505090565b610b66565b61073c565b610bc9565b3880808080610cf4565b610bfd610d95610d9b94610d8c610d86610cdc9589610aa7565b90610af0565b92839188610aa7565b8761073c565b388080610d4d565b905038610cee565b508115610caa565b610dcb906000610dc381836106ea565b8101906101ff565b38610c6d565b610dd961072f565b610c68565b610de6600080fd5b610c3e565b61014a9061013e565b61014a9054610deb565b6001600160a01b0391821681529116602082015260400190565b610e21816112f8565b6000610e2f61013e82610655565b6001600160a01b03841614610ed657610e5661013e6002610e50858561073c565b01610df4565b6001600160a01b03841614610eb357610ead61016c93926002927f11a3cf439fb225bfe74225716b6774765670ec1060e3796802e62139d69974da610e9a866106a9565b90610ea460405190565b600090a261073c565b01610769565b50610a29610ec060405190565b6365e0406560e11b815292839260048401610dfe565b610a2982610ee360405190565b63a388d26360e01b8152918291600483016001600160a01b03909116815260200190565b90610f11826112f8565b6000610f226002610e50858461073c565b90610f2c81610655565b91610f3f6001600160a01b03841661080b565b14610f7957610ead61016c93946002927f11a3cf439fb225bfe74225716b6774765670ec1060e3796802e62139d69974da610e9a866106a9565b610a2984610f8660405190565b6335809b0b60e11b8152918291600483016001600160a01b03909116815260200190565b90610fb482611351565b336000610fc961013e6002610e50878561073c565b6001600160a01b0383160361109257610ead61016c939482611033610fef600195610655565b7f11a3cf439fb225bfe74225716b6774765670ec1060e3796802e62139d69974da611019826106a9565b9061102360405190565b600090a26002610ead858561073c565b61104184610e50848461073c565b7fc8894f26f396ce8c004245c8b7cd1b92103a6e4302fcbab883987149ac01b7ec9061107561106f856106a9565b916106a9565b9061107f886106a9565b9261108960405190565b600090a461073c565b610a298461109f60405190565b6388c3a11560e01b8152918291600483016001600160a01b03909116815260200190565b6001610e5061014a926110d4600090565b506110de81611351565b600061073c565b90611107611101926110f5600090565b5060009384918261073c565b01610a58565b6111176108f361014a8395610719565b1461111e57565b6040516304ca820960e41b8152600490fd5b6108016108bf61115092611142600090565b506108a761083460ff610689565b907f0000000000000000000000000000000000000000000000000000000000000000823f1490565b6002610e5061014a926110d4600090565b906108f36111bd610c906111c39361119f600090565b506111a986611351565b60046111b76000978861073c565b0161073c565b92610719565b141590565b60036111d961014a926110d4600090565b015490565b6111e781611351565b60006111fb61014a60036111d9858561073c565b83101561121b57916003611215610d869361014a9561073c565b01610aa7565b610a298261122860405190565b636ceb340b60e01b8152918291600483016001600160a01b03909116815260200190565b9061126761125b61055d845490565b92600052602060002090565b9060005b8181106112785750505090565b9091926112a561129e60019261128d87610df4565b6001600160a01b0316815260200190565b9460010190565b92910161126b565b9061014a9161124c565b9061016c6112d1926112c860405190565b938480926112ad565b03836106ea565b61014a906112b7565b60036112f261014a926110d4606090565b016112d8565b61130181611351565b3361131861080b61013e6001610e5086600061073c565b036113205750565b610a299061132d60405190565b63d4ed9a1760e01b8152918291600483016001600160a01b03909116815260200190565b6111176108f361014a61136c6111019460009586918261073c565b9361071956fe60a06040523461002d575b61001333608052565b604051610c3d61003b8239608051816105810152610c3d90f35b610035600080fd5b61000a56fe60806040526004361015610018575b610016600080fd5b005b60003560e01c80634ce34aa214610068578063899e104c1461005f5780638df25d92146100565763c4e8fcb50361000e5761005161031d565b61000e565b5061005161027e565b5061005161021b565b50610051610113565b600080fd5b909182601f830112156100bf575b602082359267ffffffffffffffff84116100b2575b019260c083028401116100a857565b6100b0600080fd5b565b6100ba600080fd5b610099565b6100c7600080fd5b610084565b906100f591602081830312610106575b80359067ffffffffffffffff82116100f9575b01610076565b9091565b610101600080fd5b6100ef565b61010e600080fd5b6100dc565b5034610150575b61014c61013161012b3660046100cc565b90610456565b604051918291826001600160e01b0319909116815260200190565b0390f35b610158600080fd5b61011a565b909182601f8301121561019c575b602082359267ffffffffffffffff841161018f575b0192602083028401116100a857565b610197600080fd5b610180565b6101a4600080fd5b61016b565b9160408383031261020e575b6100f56101d583853567ffffffffffffffff8111610201575b8601610076565b93909460208101359067ffffffffffffffff82116101f4575b0161015d565b6101fc600080fd5b6101ee565b610209600080fd5b6101ce565b610216600080fd5b6101b5565b503461023c575b61014c6101316102333660046101a9565b92919091610510565b610244600080fd5b610222565b906100f591602081830312610271575b80359067ffffffffffffffff82116101f4570161015d565b610279600080fd5b610259565b503461029c575b61014c610131610296366004610249565b90610494565b6102a4600080fd5b610285565b6001600160a01b031690565b90565b6001600160a01b0381165b0361007157565b905035906100b0826102b8565b8015156102c3565b905035906100b0826102d7565b91906102b590604084820312610310575b61030781856102ca565b936020016102df565b610318600080fd5b6102fd565b503461033d575b6103386103323660046102ec565b9061057f565b604051005b610345600080fd5b610324565b919033600052600060205260406000205415610369576102b592610404565b6349ed56f960e11b6000523360045260246000fd5b6102b56102b56102b59290565b50634e487b7160e01b600052603260045260246000fd5b9160c0918110156103b257020190565b6103ba61038b565b020190565b6102a96102b56102b5926001600160a01b031690565b6102b5906103bf565b6103f76103f16102b59263ffffffff1690565b60e01b90565b6001600160e01b03191690565b509091908291610414600061037e565b835b8110156104445761043d816104376104326104169489886103a2565b6106c7565b60010190565b9050610414565b50925050506102b5634ce34aa26103de565b6102b59190600061034a565b919033600052600060205260406000205415610369576102b592506104879190610ad4565b6102b5638df25d926103de565b6102b591906000610462565b939291903360005260006020526040600020541561036957909350839290916102b591906104ce600061037e565b855b8110156104f3576104ec816104376104326104d0948b8a6103a2565b90506104ce565b5091945091506105039250610ad4565b6102b563899e104c6103de565b6102b59392919060006104a0565b6102b5906103d5565b906105319061051e565b600052602052604060002090565b6001600160a01b03919091168152901515602082015260400190565b9061056b6102b561057b92151590565b825460ff191660ff919091161790565b9055565b7f00000000000000000000000000000000000000000000000000000000000000006001600160a01b031633036106545760006105c56105be8383610527565b5460ff1690565b15158315151461062d57826105dd836105e293610527565b61055b565b61062861060f7fae63067d43ac07563b7eb8db6595635fc77f1578a2a5ea06ba91b63e2afa37e29261051e565b9261061960405190565b91829182901515815260200190565b0390a2565b5061065061063a60405190565b6349271a0f60e11b81529283926004840161053f565b0390fd5b6040516336abb4df60e11b8152600490fd5b6004111561007157565b50634e487b7160e01b600052602160045260246000fd5b6004111561069157565b6100b0610670565b906100b082610687565b356102b581610666565b356102b5816102b8565b806102c3565b356102b5816106b7565b806106d1816106a3565b906001916106e76106e184610699565b91610699565b03610729575050806106fe60206100b093016106ad565b9061070b604082016106ad565b61072360a061071c606085016106ad565b93016106bd565b92610822565b610732816106a3565b61073f6106e16002610699565b036107ac575061076161075d61075760a085016106bd565b9261037e565b9190565b0361079a578061077660206100b093016106ad565b90610783604082016106ad565b610794608061071c606085016106ad565b9261093b565b60405163efcc00b160e01b8152600490fd5b6107b691506106a3565b6107c36106e16003610699565b0361081057806107d860206100b093016106ad565b906107e5604082016106ad565b6107f1606083016106ad565b9061080a60a0610803608086016106bd565b94016106bd565b93610a00565b604051631e4cbc7f60e21b8152600490fd5b91929092604051936323b872dd60e01b6000528060045281602452826044526020600060648180885af1803d15601f3d116001600051141617163d1515811615610877575b5050505050506040526000606052565b80863b151516610867579086911561089e5785632f8aeb3960e11b60005260045260246000fd5b908591156108c45750639889192360e01b60005260045260245260445260645260846000fd5b3d6108ed575b5063f486bc8760e01b600052600452602452604452600060645260845260a46000fd5b602080601f3d01049104908060030291808211610921575b505060205a91011061091757846108ca565b3d6000803e3d6000fd5b806102008160039302848002030492030201018580610905565b929190833b156109eb57604051936323b872dd60e01b60005281600452826024528360445260008060648180855af11561097d57505050506040526000606052565b843d6109a7575b5063f486bc8760e01b600052600452602452604452606452600160845260a46000fd5b602080601f3d010491049080600302918082116109d1575b505060205a9101106109175784610984565b8061020081600393028480020304920302010185806109bf565b83632f8aeb3960e11b60005260045260246000fd5b9293919091833b156109eb57604051946080519260a0519460c05196637921219560e11b6000528160045282602452836044528460645260a0608452600060a45260008060c48180855af115610a6857505050505060805260a05260c0526040526000606052565b883d610a90575b5063f486bc8760e01b60005260045260245260445260645260845260a46000fd5b602080601f3d01049104908060030291808211610aba575b505060205a9101106109175785610a6f565b806102008160039302848002030492030201018680610aa8565b631759616b60e11b602052908160005b828110610af657505050506080604052565b833582018035803b15610bf35760a0820135956020870260c0018060808501351460a0606086013514169084013588141615610be25760206040910196608060208501602437026040018060a00160a45260008160c4015260a08160c401930160c43760008083602082855af115610b72575050600101610ae4565b3d610b98575b6357e222f160e11b60005260045260c06064526084516020016084526000fd5b6020601f3d010460208304908060030291808211610bc8575b505060205a91011015610b78573d6000803e3d6000fd5b806102008160039302848002030492030201018380610bb1565b633ae8821360e21b60005260046000fd5b632f8aeb3960e11b60005260045260246000fdfea26469706673582212207858e90afd7394a00ec22c1a347632eebe868d7c304133531c7558c4f358a5a564736f6c634300080e0033a26469706673582212205cf3b608a33d252ae0d404fc475a04aac9c7bdc01db00bfe37f73537c5950d9964736f6c634300080e003360a06040523461002d575b61001333608052565b604051610c3d61003b8239608051816105810152610c3d90f35b610035600080fd5b61000a56fe60806040526004361015610018575b610016600080fd5b005b60003560e01c80634ce34aa214610068578063899e104c1461005f5780638df25d92146100565763c4e8fcb50361000e5761005161031d565b61000e565b5061005161027e565b5061005161021b565b50610051610113565b600080fd5b909182601f830112156100bf575b602082359267ffffffffffffffff84116100b2575b019260c083028401116100a857565b6100b0600080fd5b565b6100ba600080fd5b610099565b6100c7600080fd5b610084565b906100f591602081830312610106575b80359067ffffffffffffffff82116100f9575b01610076565b9091565b610101600080fd5b6100ef565b61010e600080fd5b6100dc565b5034610150575b61014c61013161012b3660046100cc565b90610456565b604051918291826001600160e01b0319909116815260200190565b0390f35b610158600080fd5b61011a565b909182601f8301121561019c575b602082359267ffffffffffffffff841161018f575b0192602083028401116100a857565b610197600080fd5b610180565b6101a4600080fd5b61016b565b9160408383031261020e575b6100f56101d583853567ffffffffffffffff8111610201575b8601610076565b93909460208101359067ffffffffffffffff82116101f4575b0161015d565b6101fc600080fd5b6101ee565b610209600080fd5b6101ce565b610216600080fd5b6101b5565b503461023c575b61014c6101316102333660046101a9565b92919091610510565b610244600080fd5b610222565b906100f591602081830312610271575b80359067ffffffffffffffff82116101f4570161015d565b610279600080fd5b610259565b503461029c575b61014c610131610296366004610249565b90610494565b6102a4600080fd5b610285565b6001600160a01b031690565b90565b6001600160a01b0381165b0361007157565b905035906100b0826102b8565b8015156102c3565b905035906100b0826102d7565b91906102b590604084820312610310575b61030781856102ca565b936020016102df565b610318600080fd5b6102fd565b503461033d575b6103386103323660046102ec565b9061057f565b604051005b610345600080fd5b610324565b919033600052600060205260406000205415610369576102b592610404565b6349ed56f960e11b6000523360045260246000fd5b6102b56102b56102b59290565b50634e487b7160e01b600052603260045260246000fd5b9160c0918110156103b257020190565b6103ba61038b565b020190565b6102a96102b56102b5926001600160a01b031690565b6102b5906103bf565b6103f76103f16102b59263ffffffff1690565b60e01b90565b6001600160e01b03191690565b509091908291610414600061037e565b835b8110156104445761043d816104376104326104169489886103a2565b6106c7565b60010190565b9050610414565b50925050506102b5634ce34aa26103de565b6102b59190600061034a565b919033600052600060205260406000205415610369576102b592506104879190610ad4565b6102b5638df25d926103de565b6102b591906000610462565b939291903360005260006020526040600020541561036957909350839290916102b591906104ce600061037e565b855b8110156104f3576104ec816104376104326104d0948b8a6103a2565b90506104ce565b5091945091506105039250610ad4565b6102b563899e104c6103de565b6102b59392919060006104a0565b6102b5906103d5565b906105319061051e565b600052602052604060002090565b6001600160a01b03919091168152901515602082015260400190565b9061056b6102b561057b92151590565b825460ff191660ff919091161790565b9055565b7f00000000000000000000000000000000000000000000000000000000000000006001600160a01b031633036106545760006105c56105be8383610527565b5460ff1690565b15158315151461062d57826105dd836105e293610527565b61055b565b61062861060f7fae63067d43ac07563b7eb8db6595635fc77f1578a2a5ea06ba91b63e2afa37e29261051e565b9261061960405190565b91829182901515815260200190565b0390a2565b5061065061063a60405190565b6349271a0f60e11b81529283926004840161053f565b0390fd5b6040516336abb4df60e11b8152600490fd5b6004111561007157565b50634e487b7160e01b600052602160045260246000fd5b6004111561069157565b6100b0610670565b906100b082610687565b356102b581610666565b356102b5816102b8565b806102c3565b356102b5816106b7565b806106d1816106a3565b906001916106e76106e184610699565b91610699565b03610729575050806106fe60206100b093016106ad565b9061070b604082016106ad565b61072360a061071c606085016106ad565b93016106bd565b92610822565b610732816106a3565b61073f6106e16002610699565b036107ac575061076161075d61075760a085016106bd565b9261037e565b9190565b0361079a578061077660206100b093016106ad565b90610783604082016106ad565b610794608061071c606085016106ad565b9261093b565b60405163efcc00b160e01b8152600490fd5b6107b691506106a3565b6107c36106e16003610699565b0361081057806107d860206100b093016106ad565b906107e5604082016106ad565b6107f1606083016106ad565b9061080a60a0610803608086016106bd565b94016106bd565b93610a00565b604051631e4cbc7f60e21b8152600490fd5b91929092604051936323b872dd60e01b6000528060045281602452826044526020600060648180885af1803d15601f3d116001600051141617163d1515811615610877575b5050505050506040526000606052565b80863b151516610867579086911561089e5785632f8aeb3960e11b60005260045260246000fd5b908591156108c45750639889192360e01b60005260045260245260445260645260846000fd5b3d6108ed575b5063f486bc8760e01b600052600452602452604452600060645260845260a46000fd5b602080601f3d01049104908060030291808211610921575b505060205a91011061091757846108ca565b3d6000803e3d6000fd5b806102008160039302848002030492030201018580610905565b929190833b156109eb57604051936323b872dd60e01b60005281600452826024528360445260008060648180855af11561097d57505050506040526000606052565b843d6109a7575b5063f486bc8760e01b600052600452602452604452606452600160845260a46000fd5b602080601f3d010491049080600302918082116109d1575b505060205a9101106109175784610984565b8061020081600393028480020304920302010185806109bf565b83632f8aeb3960e11b60005260045260246000fd5b9293919091833b156109eb57604051946080519260a0519460c05196637921219560e11b6000528160045282602452836044528460645260a0608452600060a45260008060c48180855af115610a6857505050505060805260a05260c0526040526000606052565b883d610a90575b5063f486bc8760e01b60005260045260245260445260645260845260a46000fd5b602080601f3d01049104908060030291808211610aba575b505060205a9101106109175785610a6f565b806102008160039302848002030492030201018680610aa8565b631759616b60e11b602052908160005b828110610af657505050506080604052565b833582018035803b15610bf35760a0820135956020870260c0018060808501351460a0606086013514169084013588141615610be25760206040910196608060208501602437026040018060a00160a45260008160c4015260a08160c401930160c43760008083602082855af115610b72575050600101610ae4565b3d610b98575b6357e222f160e11b60005260045260c06064526084516020016084526000fd5b6020601f3d010460208304908060030291808211610bc8575b505060205a91011015610b78573d6000803e3d6000fd5b806102008160039302848002030492030201018380610bb1565b633ae8821360e21b60005260046000fd5b632f8aeb3960e11b60005260045260246000fdfea26469706673582212207858e90afd7394a00ec22c1a347632eebe868d7c304133531c7558c4f358a5a564736f6c634300080e003360a06040523461002d575b61001333608052565b604051610c3d61003b8239608051816105810152610c3d90f35b610035600080fd5b61000a56fe60806040526004361015610018575b610016600080fd5b005b60003560e01c80634ce34aa214610068578063899e104c1461005f5780638df25d92146100565763c4e8fcb50361000e5761005161031d565b61000e565b5061005161027e565b5061005161021b565b50610051610113565b600080fd5b909182601f830112156100bf575b602082359267ffffffffffffffff84116100b2575b019260c083028401116100a857565b6100b0600080fd5b565b6100ba600080fd5b610099565b6100c7600080fd5b610084565b906100f591602081830312610106575b80359067ffffffffffffffff82116100f9575b01610076565b9091565b610101600080fd5b6100ef565b61010e600080fd5b6100dc565b5034610150575b61014c61013161012b3660046100cc565b90610456565b604051918291826001600160e01b0319909116815260200190565b0390f35b610158600080fd5b61011a565b909182601f8301121561019c575b602082359267ffffffffffffffff841161018f575b0192602083028401116100a857565b610197600080fd5b610180565b6101a4600080fd5b61016b565b9160408383031261020e575b6100f56101d583853567ffffffffffffffff8111610201575b8601610076565b93909460208101359067ffffffffffffffff82116101f4575b0161015d565b6101fc600080fd5b6101ee565b610209600080fd5b6101ce565b610216600080fd5b6101b5565b503461023c575b61014c6101316102333660046101a9565b92919091610510565b610244600080fd5b610222565b906100f591602081830312610271575b80359067ffffffffffffffff82116101f4570161015d565b610279600080fd5b610259565b503461029c575b61014c610131610296366004610249565b90610494565b6102a4600080fd5b610285565b6001600160a01b031690565b90565b6001600160a01b0381165b0361007157565b905035906100b0826102b8565b8015156102c3565b905035906100b0826102d7565b91906102b590604084820312610310575b61030781856102ca565b936020016102df565b610318600080fd5b6102fd565b503461033d575b6103386103323660046102ec565b9061057f565b604051005b610345600080fd5b610324565b919033600052600060205260406000205415610369576102b592610404565b6349ed56f960e11b6000523360045260246000fd5b6102b56102b56102b59290565b50634e487b7160e01b600052603260045260246000fd5b9160c0918110156103b257020190565b6103ba61038b565b020190565b6102a96102b56102b5926001600160a01b031690565b6102b5906103bf565b6103f76103f16102b59263ffffffff1690565b60e01b90565b6001600160e01b03191690565b509091908291610414600061037e565b835b8110156104445761043d816104376104326104169489886103a2565b6106c7565b60010190565b9050610414565b50925050506102b5634ce34aa26103de565b6102b59190600061034a565b919033600052600060205260406000205415610369576102b592506104879190610ad4565b6102b5638df25d926103de565b6102b591906000610462565b939291903360005260006020526040600020541561036957909350839290916102b591906104ce600061037e565b855b8110156104f3576104ec816104376104326104d0948b8a6103a2565b90506104ce565b5091945091506105039250610ad4565b6102b563899e104c6103de565b6102b59392919060006104a0565b6102b5906103d5565b906105319061051e565b600052602052604060002090565b6001600160a01b03919091168152901515602082015260400190565b9061056b6102b561057b92151590565b825460ff191660ff919091161790565b9055565b7f00000000000000000000000000000000000000000000000000000000000000006001600160a01b031633036106545760006105c56105be8383610527565b5460ff1690565b15158315151461062d57826105dd836105e293610527565b61055b565b61062861060f7fae63067d43ac07563b7eb8db6595635fc77f1578a2a5ea06ba91b63e2afa37e29261051e565b9261061960405190565b91829182901515815260200190565b0390a2565b5061065061063a60405190565b6349271a0f60e11b81529283926004840161053f565b0390fd5b6040516336abb4df60e11b8152600490fd5b6004111561007157565b50634e487b7160e01b600052602160045260246000fd5b6004111561069157565b6100b0610670565b906100b082610687565b356102b581610666565b356102b5816102b8565b806102c3565b356102b5816106b7565b806106d1816106a3565b906001916106e76106e184610699565b91610699565b03610729575050806106fe60206100b093016106ad565b9061070b604082016106ad565b61072360a061071c606085016106ad565b93016106bd565b92610822565b610732816106a3565b61073f6106e16002610699565b036107ac575061076161075d61075760a085016106bd565b9261037e565b9190565b0361079a578061077660206100b093016106ad565b90610783604082016106ad565b610794608061071c606085016106ad565b9261093b565b60405163efcc00b160e01b8152600490fd5b6107b691506106a3565b6107c36106e16003610699565b0361081057806107d860206100b093016106ad565b906107e5604082016106ad565b6107f1606083016106ad565b9061080a60a0610803608086016106bd565b94016106bd565b93610a00565b604051631e4cbc7f60e21b8152600490fd5b91929092604051936323b872dd60e01b6000528060045281602452826044526020600060648180885af1803d15601f3d116001600051141617163d1515811615610877575b5050505050506040526000606052565b80863b151516610867579086911561089e5785632f8aeb3960e11b60005260045260246000fd5b908591156108c45750639889192360e01b60005260045260245260445260645260846000fd5b3d6108ed575b5063f486bc8760e01b600052600452602452604452600060645260845260a46000fd5b602080601f3d01049104908060030291808211610921575b505060205a91011061091757846108ca565b3d6000803e3d6000fd5b806102008160039302848002030492030201018580610905565b929190833b156109eb57604051936323b872dd60e01b60005281600452826024528360445260008060648180855af11561097d57505050506040526000606052565b843d6109a7575b5063f486bc8760e01b600052600452602452604452606452600160845260a46000fd5b602080601f3d010491049080600302918082116109d1575b505060205a9101106109175784610984565b8061020081600393028480020304920302010185806109bf565b83632f8aeb3960e11b60005260045260246000fd5b9293919091833b156109eb57604051946080519260a0519460c05196637921219560e11b6000528160045282602452836044528460645260a0608452600060a45260008060c48180855af115610a6857505050505060805260a05260c0526040526000606052565b883d610a90575b5063f486bc8760e01b60005260045260245260445260645260845260a46000fd5b602080601f3d01049104908060030291808211610aba575b505060205a9101106109175785610a6f565b806102008160039302848002030492030201018680610aa8565b631759616b60e11b602052908160005b828110610af657505050506080604052565b833582018035803b15610bf35760a0820135956020870260c0018060808501351460a0606086013514169084013588141615610be25760206040910196608060208501602437026040018060a00160a45260008160c4015260a08160c401930160c43760008083602082855af115610b72575050600101610ae4565b3d610b98575b6357e222f160e11b60005260045260c06064526084516020016084526000fd5b6020601f3d010460208304908060030291808211610bc8575b505060205a91011015610b78573d6000803e3d6000fd5b806102008160039302848002030492030201018380610bb1565b633ae8821360e21b60005260046000fd5b632f8aeb3960e11b60005260045260246000fdfea26469706673582212207858e90afd7394a00ec22c1a347632eebe868d7c304133531c7558c4f358a5a564736f6c634300080e0033"
}