{
  "address": "0x6eC1C3e84348d803c151D0660A89efbE77b757B2",
  "abi": [
    {
      "inputs": [
        {
          "internalType": "address",
          "name": "_tokenOwner",
          "type": "address"
        }
      ],
      "name": "publicMint",
      "outputs": [],
      "stateMutability": "nonpayable",
      "type": "function"
    }
  ],
  "args": [],
  "numDeployments": 3,
  "solcInputHash": "2b691191bd6bf894805fd6522b0009a2",
  "bytecode": "0x60808060405234601457608b908161001a8239f35b600080fdfe6004361015600c57600080fd5b6000803560e01c6332a93a3a14602157600080fd5b34605257602036600319011260525760043573ffffffffffffffffffffffffffffffffffffffff8116036052576080f35b80fdfea264697066735822122068215e2ec885bfb3fc9bd631877bf211adb29436f0e26ecf3281d31397d1a4d864736f6c634300080e0033",
  "devdoc": {
    "kind": "dev",
    "methods": {},
    "version": 1
  },
  "userdoc": {
    "kind": "user",
    "methods": {},
    "version": 1
  },
  "storageLayout": {
    "storage": [],
    "types": null
  }
}