{
  "address": "0xc77491b54DF7fC43b552b84bDcB9bC5B0769Dcc3",
  "abi": [
    {
      "anonymous": false,
      "inputs": [
        {
          "indexed": true,
          "internalType": "address",
          "name": "from",
          "type": "address"
        },
        {
          "indexed": true,
          "internalType": "address",
          "name": "contractAddr",
          "type": "address"
        },
        {
          "indexed": false,
          "internalType": "string",
          "name": "name",
          "type": "string"
        },
        {
          "indexed": false,
          "internalType": "string",
          "name": "symbol",
          "type": "string"
        }
      ],
      "name": "ERC721Deployed",
      "type": "event"
    },
    {
      "inputs": [
        {
          "internalType": "uint256",
          "name": "index",
          "type": "uint256"
        }
      ],
      "name": "addressOf",
      "outputs": [
        {
          "internalType": "address",
          "name": "contractAddr",
          "type": "address"
        }
      ],
      "stateMutability": "view",
      "type": "function"
    },
    {
      "inputs": [
        {
          "internalType": "string",
          "name": "name",
          "type": "string"
        },
        {
          "internalType": "string",
          "name": "symbol",
          "type": "string"
        }
      ],
      "name": "deploy",
      "outputs": [
        {
          "internalType": "address",
          "name": "newContractAddr",
          "type": "address"
        }
      ],
      "stateMutability": "nonpayable",
      "type": "function"
    },
    {
      "inputs": [],
      "name": "totalOf",
      "outputs": [
        {
          "internalType": "uint256",
          "name": "",
          "type": "uint256"
        }
      ],
      "stateMutability": "view",
      "type": "function"
    }
  ],
  "args": [],
  "numDeployments": 3,
  "solcInputHash": "2b691191bd6bf894805fd6522b0009a2",
  "bytecode": "0x6080806040523461001b5760016000556121ee90816100218239f35b600080fdfe6080604052600436101562000014575b600080fd5b6000803560e01c90816311a800bc146200007157816362784a16146200004f575063b5488487146200004557600080fd5b6200000f62000174565b346200006e57806003193601126200006e576020600154604051908152f35b80fd5b346200006e5760203660031901126200006e576020620000936004356200036e565b6001600160a01b0360405191168152f35b60009103126200000f57565b50634e487b7160e01b600052604160045260246000fd5b67ffffffffffffffff8111620000dc57604052565b620000e6620000b0565b604052565b81601f820112156200000f5780359067ffffffffffffffff9283831162000164575b60405193601f8401601f19908116603f011685019081118582101762000154575b604052828452602083830101116200000f57816000926020809301838601378301015290565b6200015e620000b0565b6200012e565b6200016e620000b0565b6200010d565b50346200000f576040806003193601126200000f5767ffffffffffffffff906004358281116200000f57620001ae903690600401620000eb565b906024358381116200000f57620001ca903690600401620000eb565b9160009360028554146200031357816001600160a01b03916002875562000210868651938493611c9e808601918683109083111762000303575b6200051b863962000458565b039086f08015620002f3575b1692833b15620002ef57825163f2fde38b60e01b8152336004820152620002bd958593927f2a22d317a6fd118f1422413c6f53c6d7963bc63d05ecb0002cc892f22786ab5a92620002979281602481838a5af18015620002df575b620002c1575b50620002898562000491565b855191829133958362000458565b0390a3620002a56001600055565b516001600160a01b0390911681529081906020820190565b0390f35b80620002d1620002d892620000c7565b80620000a4565b386200027d565b620002e962000484565b62000277565b8480fd5b620002fd62000484565b6200021c565b6200030d620000b0565b62000204565b825162461bcd60e51b815260206004820152601f60248201527f5265656e7472616e637947756172643a207265656e7472616e742063616c6c006044820152606490fd5b50634e487b7160e01b600052603260045260246000fd5b6001549081158015620003d6575b620003cf576001600160a01b0391811015620003bf575b60016000527fb10e2d527612073b26eecdfd717e6a320cf44b4afac2b0732d9fcbe2b7fa0cf601541690565b620003c962000357565b62000393565b5050600090565b506001198211620003ed578060018301106200037c565b634e487b7160e01b600052601160045260246000fd5b91908251928382526000905b8482106200043f57509280602093941162000431575b601f01601f1916010190565b600083828401015262000425565b906020908180828501015190828601015201906200040f565b909162000472620004819360408452604084019062000403565b91602081840391015262000403565b90565b506040513d6000823e3d90fd5b6001600160a01b03600154680100000000000000008110156200050a575b6001810180600155811015620004fa575b60016000527fb10e2d527612073b26eecdfd717e6a320cf44b4afac2b0732d9fcbe2b7fa0cf60191166001600160a01b0319825416179055565b6200050462000357565b620004c0565b62000514620000b0565b620004af56fe6080604052346200018d5762001c9e803803806200001d81620001a9565b92833981016040828203126200018d5781516001600160401b0391908281116200018d57816200004f918501620001de565b92602091828201518481116200018d576200006b9201620001de565b9183519081116200017d575b60009162000091826200008b855462000272565b620002af565b80601f8311600114620000ef57508190620000c8958492620000e3575b50508160011b916000199060031b1c191617905562000363565b620000d33362000465565b6040516117ea9081620004b48239f35b015190503880620000ae565b600080529194601f1986167f290decd9548b62a8d60345a988386fc84ba6bc95484008f6362f93160ef3e5639385905b82821062000164575050916001939187620000c89894106200014a575b505050811b01905562000363565b015160001960f88460031b161c191690553880806200013c565b806001869782949787015181550196019401906200011f565b6200018762000192565b62000077565b600080fd5b50634e487b7160e01b600052604160045260246000fd5b6040519190601f01601f191682016001600160401b03811183821017620001cf57604052565b620001d962000192565b604052565b81601f820112156200018d578051906001600160401b03821162000262575b60209062000214601f8401601f19168301620001a9565b938385528284830101116200018d5782906000905b8383831062000249575050116200023f57505090565b6000918301015290565b8193508281939201015182828801015201839162000229565b6200026c62000192565b620001fd565b90600182811c92168015620002a4575b60208310146200028e57565b634e487b7160e01b600052602260045260246000fd5b91607f169162000282565b601f8111620002bc575050565b60009081805260208220906020601f850160051c83019410620002fc575b601f0160051c01915b828110620002f057505050565b818155600101620002e3565b9092508290620002da565b90601f821162000315575050565b60019160009083825260208220906020601f850160051c8301941062000358575b601f0160051c01915b8281106200034d5750505050565b81815583016200033f565b909250829062000336565b80519091906001600160401b03811162000455575b60019062000392816200038c845462000272565b62000307565b602080601f8311600114620003d0575081929394600092620003c4575b5050600019600383901b1c191690821b179055565b015190503880620003af565b6001600052601f198316959091907fb10e2d527612073b26eecdfd717e6a320cf44b4afac2b0732d9fcbe2b7fa0cf6926000905b8882106200043d575050838596971062000423575b505050811b019055565b015160001960f88460031b161c1916905538808062000419565b80878596829496860151815501950193019062000404565b6200045f62000192565b62000378565b600780546001600160a01b039283166001600160a01b031982168117909255604051919216907f8be0079c531659141344cd1fd0a4f28419497f9722a3daafe3b4186f6b6457e090600090a356fe60806040526004361015610013575b600080fd5b60003560e01c806301ffc9a71461016757806306fdde031461015e578063081812fc14610155578063095ea7b31461014c57806323b872dd1461014357806342842e0e1461013a5780636352211e1461013157806370a0823114610128578063715018a61461011f5780638da5cb5b1461011657806395d89b411461010d578063a22cb46514610104578063b88d4fde146100fb578063c87b56dd146100f2578063d204c45e146100e9578063e985e9c5146100e05763f2fde38b146100d857600080fd5b61000e610b7a565b5061000e610b17565b5061000e610963565b5061000e61092f565b5061000e6108ce565b5061000e61071c565b5061000e610676565b5061000e61064e565b5061000e6105ee565b5061000e61054c565b5061000e61052d565b5061000e610504565b5061000e6104da565b5061000e6103b0565b5061000e610354565b5061000e610279565b5061000e610182565b6001600160e01b031981160361000e57565b503461000e57602036600319011261000e5760206004356101a281610170565b63ffffffff60e01b16632483248360e11b81149081156101c8575b506040519015158152f35b6380ac58cd60e01b8114915081156101fa575b81156101e9575b50386101bd565b6301ffc9a760e01b149050386101e2565b635b5e139f60e01b811491506101db565b918091926000905b82821061022b575011610224575050565b6000910152565b91508060209183015181860152018291610213565b906020916102598151809281855285808601910161020b565b601f01601f1916010190565b906020610276928181520190610240565b90565b503461000e57600080600319360112610351576040519080805461029c81610d0a565b8085529160019180831690811561033057506001146102d6575b6102d2856102c68187038261084a565b60405191829182610265565b0390f35b80809450527f290decd9548b62a8d60345a988386fc84ba6bc95484008f6362f93160ef3e5635b8284106103185750505081016020016102c6826102d26102b6565b805460208587018101919091529093019281016102fd565b60ff1916602087015250506040840192506102c691508390506102d26102b6565b80fd5b503461000e57602036600319011261000e576020610373600435610db6565b6001600160a01b0360405191168152f35b600435906001600160a01b038216820361000e57565b602435906001600160a01b038216820361000e57565b503461000e57604036600319011261000e576103ca610384565b6024356103d681610ce8565b916001600160a01b038084168091831614610456576104089361040391331490811561040a575b50610d44565b611154565b005b61045091506104499061043133916001600160a01b03166000526005602052604060002090565b906001600160a01b0316600052602052604060002090565b5460ff1690565b386103fd565b60405162461bcd60e51b815260206004820152602160248201527f4552433732313a20617070726f76616c20746f2063757272656e74206f776e656044820152603960f91b6064820152608490fd5b606090600319011261000e576001600160a01b0390600435828116810361000e5791602435908116810361000e579060443590565b503461000e576104086104ec366104a5565b916104ff6104fa8433610f1c565b610df8565b610ff7565b503461000e57610408610516366104a5565b906040519261052484610821565b60008452610e8c565b503461000e57602036600319011261000e576020610373600435610ce8565b503461000e57602036600319011261000e576001600160a01b0361056e610384565b1680156105975760005260036020526102d2604060002054604051918291829190602083019252565b60405162461bcd60e51b815260206004820152602960248201527f4552433732313a2061646472657373207a65726f206973206e6f7420612076616044820152683634b21037bbb732b960b91b6064820152608490fd5b503461000e5760008060031936011261035157610609610c44565b6007546001600160a01b03198116600755816001600160a01b0360405192167f8be0079c531659141344cd1fd0a4f28419497f9722a3daafe3b4186f6b6457e08284a3f35b503461000e57600036600319011261000e5760206001600160a01b0360075416604051908152f35b503461000e57600080600319360112610351576040519080600180549161069c83610d0a565b8086529282811690811561033057506001146106c2576102d2856102c68187038261084a565b92508083527fb10e2d527612073b26eecdfd717e6a320cf44b4afac2b0732d9fcbe2b7fa0cf65b8284106107045750505081016020016102c6826102d26102b6565b805460208587018101919091529093019281016106e9565b503461000e57604036600319011261000e57610736610384565b602435801515810361000e576001600160a01b038216918233146107c55781610782610793923360005260056020526040600020906001600160a01b0316600052602052604060002090565b9060ff801983541691151516179055565b604051901515815233907f17307eab39ab6107e8899845ad3d59bd9653f200f220920489ca2b5937696c3190602090a3005b60405162461bcd60e51b815260206004820152601960248201527f4552433732313a20617070726f766520746f2063616c6c6572000000000000006044820152606490fd5b50634e487b7160e01b600052604160045260246000fd5b6020810190811067ffffffffffffffff82111761083d57604052565b61084561080a565b604052565b90601f8019910116810190811067ffffffffffffffff82111761083d57604052565b60209067ffffffffffffffff811161088a575b601f01601f19160190565b61089261080a565b61087f565b9291926108a38261086c565b916108b1604051938461084a565b82948184528183011161000e578281602093846000960137010152565b503461000e57608036600319011261000e576108e8610384565b6108f061039a565b6064359167ffffffffffffffff831161000e573660238401121561000e57610925610408933690602481600401359101610897565b9160443591610e8c565b503461000e57602036600319011261000e576102d261094f60043561164d565b604051918291602083526020830190610240565b503461000e57604036600319011261000e5761097d610384565b60243567ffffffffffffffff811161000e573660238201121561000e576109ae903690602481600401359101610897565b6109b6610c44565b60016008540180600855604051926109cd84610821565b600084526001600160a01b038116908115610ad3576104089483610ac99281610ace95610a1f610a1a610a168460005260026020526001600160a01b0360406000205416151590565b1590565b6113b3565b610a45610a1a610a168460005260026020526001600160a01b0360406000205416151590565b610a62836001600160a01b03166000526003602052604060002090565b60018154019055610a9c83610a81846000526002602052604060002090565b906001600160a01b03166001600160a01b0319825416179055565b60007fddf252ad1be2c89b69c2b068fc378daa952ba7f163c4a11628f55a4df523b3ef81604051a4611267565b610eb5565b611453565b606460405162461bcd60e51b815260206004820152602060248201527f4552433732313a206d696e7420746f20746865207a65726f20616464726573736044820152fd5b503461000e57604036600319011261000e57602060ff610b6e610b38610384565b6001600160a01b03610b4861039a565b9116600052600584526040600020906001600160a01b0316600052602052604060002090565b54166040519015158152f35b503461000e57602036600319011261000e57610b94610384565b610b9c610c44565b6001600160a01b03809116908115610bf05760009160075491816001600160a01b031984161760075560405192167f8be0079c531659141344cd1fd0a4f28419497f9722a3daafe3b4186f6b6457e08484a3f35b60405162461bcd60e51b815260206004820152602660248201527f4f776e61626c653a206e6577206f776e657220697320746865207a65726f206160448201526564647265737360d01b6064820152608490fd5b6001600160a01b03600754163303610c5857565b606460405162461bcd60e51b815260206004820152602060248201527f4f776e61626c653a2063616c6c6572206973206e6f7420746865206f776e65726044820152fd5b15610ca357565b60405162461bcd60e51b815260206004820152601860248201527f4552433732313a20696e76616c696420746f6b656e20494400000000000000006044820152606490fd5b60005260026020526001600160a01b0360406000205416610276811515610c9c565b90600182811c92168015610d3a575b6020831014610d2457565b634e487b7160e01b600052602260045260246000fd5b91607f1691610d19565b15610d4b57565b60405162461bcd60e51b815260206004820152603d60248201527f4552433732313a20617070726f76652063616c6c6572206973206e6f7420746f60448201527f6b656e206f776e6572206f7220617070726f76656420666f7220616c6c0000006064820152608490fd5b610dde610dd98260005260026020526001600160a01b0360406000205416151590565b610c9c565b60005260046020526001600160a01b036040600020541690565b15610dff57565b60405162461bcd60e51b815260206004820152602d60248201527f4552433732313a2063616c6c6572206973206e6f7420746f6b656e206f776e6560448201526c1c881bdc88185c1c1c9bdd9959609a1b6064820152608490fd5b604051906020820182811067ffffffffffffffff821117610e7f575b60405260008252565b610e8761080a565b610e76565b91610eb39391610ac993610ea36104fa8433610f1c565b610eae838383610ff7565b61136f565b565b15610ebc57565b60405162461bcd60e51b815260206004820152603260248201527f4552433732313a207472616e7366657220746f206e6f6e20455243373231526560448201527131b2b4bb32b91034b6b83632b6b2b73a32b960711b6064820152608490fd5b6001600160a01b0380610f2e84610ce8565b169281831692848414948515610f64575b50508315610f4e575b50505090565b610f5a91929350610db6565b1614388080610f48565b60ff92955090610f939160005260056020526040600020906001600160a01b0316600052602052604060002090565b5416923880610f3f565b15610fa457565b60405162461bcd60e51b815260206004820152602560248201527f4552433732313a207472616e736665722066726f6d20696e636f72726563742060448201526437bbb732b960d91b6064820152608490fd5b61101b9061100484610ce8565b6001600160a01b0382811693909182168414610f9d565b83169283156111035761109a6110da9261104d8561104761103b8a610ce8565b6001600160a01b031690565b14610f9d565b611081611064886000526004602052604060002090565b805473ffffffffffffffffffffffffffffffffffffffff19169055565b6001600160a01b03166000526003602052604060002090565b60001981540190556110bf816001600160a01b03166000526003602052604060002090565b60018154019055610a81856000526002602052604060002090565b7fddf252ad1be2c89b69c2b068fc378daa952ba7f163c4a11628f55a4df523b3ef6000604051a4565b60405162461bcd60e51b8152602060048201526024808201527f4552433732313a207472616e7366657220746f20746865207a65726f206164646044820152637265737360e01b6064820152608490fd5b6000828152600460205260409020805473ffffffffffffffffffffffffffffffffffffffff19166001600160a01b0383161790556001600160a01b038061119a84610ce8565b169116907f8c5be1e5ebec7d5bd14f71427d1e84f3dd0314c0f7b2291e5b200ac8c7c3b9256000604051a4565b9081602091031261000e575161027681610170565b61027693926001600160a01b036080931682526000602083015260408201528160608201520190610240565b909261027694936080936001600160a01b03809216845216602083015260408201528160608201520190610240565b3d15611262573d906112488261086c565b91611256604051938461084a565b82523d6000602084013e565b606090565b909190803b15611367576112a16020916001600160a01b03936000604051958680958194630a85bd0160e11b9a8b845233600485016111dc565b0393165af160009181611337575b50611329576112bc611237565b805190816113245760405162461bcd60e51b815260206004820152603260248201527f4552433732313a207472616e7366657220746f206e6f6e20455243373231526560448201527131b2b4bb32b91034b6b83632b6b2b73a32b960711b6064820152608490fd5b602001fd5b6001600160e01b0319161490565b61135991925060203d8111611360575b611351818361084a565b8101906111c7565b90386112af565b503d611347565b505050600190565b92909190823b156113aa576112a19260209260006001600160a01b03604051809781968295630a85bd0160e11b9b8c85523360048601611208565b50505050600190565b156113ba57565b60405162461bcd60e51b815260206004820152601c60248201527f4552433732313a20746f6b656e20616c7265616479206d696e746564000000006044820152606490fd5b90601f811161140d57505050565b600091825260208220906020601f850160051c83019410611449575b601f0160051c01915b82811061143e57505050565b818155600101611432565b9092508290611429565b9190916114768160005260026020526001600160a01b0360406000205416151590565b156115cb578060005260206006815260406000209084519067ffffffffffffffff82116115be575b6114b2826114ac8554610d0a565b856113ff565b80601f8311600114611527575090806115179493927ff8e1a15aba9398e019f0b49df1a4fde98ee17ae345cb5f6b5e2c27f5033e8ce7969760009261151c575b50508160011b916000199060031b1c19161790555b6040519081529081906020820190565b0390a1565b0151905038806114f2565b90601f1983169661153d85600052602060002090565b926000905b8982106115a65750509183916001936115179796957ff8e1a15aba9398e019f0b49df1a4fde98ee17ae345cb5f6b5e2c27f5033e8ce7999a1061158d575b505050811b019055611507565b015160001960f88460031b161c19169055388080611580565b80600185968294968601518155019501930190611542565b6115c661080a565b61149e565b60405162461bcd60e51b815260206004820152602e60248201527f45524337323155524953746f726167653a2055524920736574206f66206e6f6e60448201527f6578697374656e7420746f6b656e0000000000000000000000000000000000006064820152608490fd5b906116496020928281519485920161020b565b0190565b611670610dd98260005260026020526001600160a01b0360406000205416151590565b600090808252602060068152604083206040518481959083549061169382610d0a565b8085529460019280841690811561174f5750600114611713575b5050506116bc9250038461084a565b6116c4610e5a565b9283511561170c5780516116de575050610276915061176f565b61027692506116fe906116f8604051958694850190611636565b90611636565b03601f19810183528261084a565b9250505090565b869350819291528282205b8583106117375750506116bc93508201013880806116ad565b8054838a01850152889450869390920191810161171e565b965050505050505060ff1916818401526116bc83604081013880806116ad565b610dd96117929160005260026020526001600160a01b0360406000205416151590565b60006040516117a081610821565b526040516117ad81610821565b600081529056fea2646970667358221220c32c53f2e6d1ca4e5127319f8730efa3b20b19458f9552e0256b4290279760f164736f6c634300080e0033a26469706673582212206bd9223c7b8f9c11a495af3481c73d925df8e1a364104dee36d6c730c16cd2cd64736f6c634300080e0033",
  "devdoc": {
    "kind": "dev",
    "methods": {},
    "version": 1
  },
  "userdoc": {
    "kind": "user",
    "methods": {},
    "version": 1
  },
  "storageLayout": {
    "storage": [
      {
        "astId": 6156,
        "contract": "contracts/token/ERC721/ERC721Factory.sol:ERC721Factory",
        "label": "_status",
        "offset": 0,
        "slot": "0",
        "type": "t_uint256"
      },
      {
        "astId": 32170,
        "contract": "contracts/token/ERC721/ERC721Factory.sol:ERC721Factory",
        "label": "_contracts",
        "offset": 0,
        "slot": "1",
        "type": "t_array(t_address)dyn_storage"
      }
    ],
    "types": {
      "t_address": {
        "encoding": "inplace",
        "label": "address",
        "numberOfBytes": "20"
      },
      "t_array(t_address)dyn_storage": {
        "base": "t_address",
        "encoding": "dynamic_array",
        "label": "address[]",
        "numberOfBytes": "32"
      },
      "t_uint256": {
        "encoding": "inplace",
        "label": "uint256",
        "numberOfBytes": "32"
      }
    }
  }
}