{
  "address": "0xdC71775866545d9cEc86c6F35faEE563413cA6dF",
  "abi": [
    {
      "anonymous": false,
      "inputs": [
        {
          "indexed": false,
          "internalType": "address",
          "name": "previousAdmin",
          "type": "address"
        },
        {
          "indexed": false,
          "internalType": "address",
          "name": "newAdmin",
          "type": "address"
        }
      ],
      "name": "AdminChanged",
      "type": "event"
    },
    {
      "anonymous": false,
      "inputs": [
        {
          "indexed": true,
          "internalType": "address",
          "name": "beacon",
          "type": "address"
        }
      ],
      "name": "BeaconUpgraded",
      "type": "event"
    },
    {
      "anonymous": false,
      "inputs": [
        {
          "indexed": false,
          "internalType": "bytes",
          "name": "_hash",
          "type": "bytes"
        }
      ],
      "name": "Claimed",
      "type": "event"
    },
    {
      "anonymous": false,
      "inputs": [
        {
          "indexed": false,
          "internalType": "uint256",
          "name": "farmId",
          "type": "uint256"
        }
      ],
      "name": "FarmClosed",
      "type": "event"
    },
    {
      "anonymous": false,
      "inputs": [
        {
          "indexed": false,
          "internalType": "uint256",
          "name": "farmId",
          "type": "uint256"
        },
        {
          "indexed": false,
          "internalType": "address",
          "name": "token",
          "type": "address"
        },
        {
          "indexed": false,
          "internalType": "uint48",
          "name": "start",
          "type": "uint48"
        },
        {
          "indexed": false,
          "internalType": "uint48",
          "name": "end",
          "type": "uint48"
        },
        {
          "indexed": false,
          "internalType": "uint256",
          "name": "totalReward",
          "type": "uint256"
        }
      ],
      "name": "FarmCreated",
      "type": "event"
    },
    {
      "anonymous": false,
      "inputs": [
        {
          "indexed": false,
          "internalType": "uint8",
          "name": "version",
          "type": "uint8"
        }
      ],
      "name": "Initialized",
      "type": "event"
    },
    {
      "anonymous": false,
      "inputs": [
        {
          "indexed": true,
          "internalType": "address",
          "name": "previousOwner",
          "type": "address"
        },
        {
          "indexed": true,
          "internalType": "address",
          "name": "newOwner",
          "type": "address"
        }
      ],
      "name": "OwnershipTransferred",
      "type": "event"
    },
    {
      "anonymous": false,
      "inputs": [
        {
          "indexed": false,
          "internalType": "uint256",
          "name": "stakeId",
          "type": "uint256"
        },
        {
          "indexed": false,
          "internalType": "uint256",
          "name": "rewardClaimed",
          "type": "uint256"
        },
        {
          "indexed": false,
          "internalType": "uint48",
          "name": "lastClaimedAt",
          "type": "uint48"
        }
      ],
      "name": "RewardClaimed",
      "type": "event"
    },
    {
      "anonymous": false,
      "inputs": [
        {
          "indexed": false,
          "internalType": "uint256",
          "name": "stakeId",
          "type": "uint256"
        },
        {
          "indexed": false,
          "internalType": "address",
          "name": "staker",
          "type": "address"
        },
        {
          "indexed": false,
          "internalType": "uint256",
          "name": "farmId",
          "type": "uint256"
        },
        {
          "indexed": false,
          "internalType": "uint48",
          "name": "start",
          "type": "uint48"
        },
        {
          "indexed": false,
          "internalType": "uint256",
          "name": "amount",
          "type": "uint256"
        }
      ],
      "name": "Staked",
      "type": "event"
    },
    {
      "anonymous": false,
      "inputs": [
        {
          "indexed": false,
          "internalType": "uint256",
          "name": "stakeId",
          "type": "uint256"
        },
        {
          "indexed": false,
          "internalType": "uint48",
          "name": "unstakedAt",
          "type": "uint48"
        }
      ],
      "name": "Unstaked",
      "type": "event"
    },
    {
      "anonymous": false,
      "inputs": [
        {
          "indexed": true,
          "internalType": "address",
          "name": "implementation",
          "type": "address"
        }
      ],
      "name": "Upgraded",
      "type": "event"
    },
    {
      "stateMutability": "payable",
      "type": "fallback"
    },
    {
      "inputs": [],
      "name": "__MWOwnable_init",
      "outputs": [],
      "stateMutability": "nonpayable",
      "type": "function"
    },
    {
      "inputs": [
        {
          "internalType": "address",
          "name": "_tokenAddress",
          "type": "address"
        },
        {
          "internalType": "address",
          "name": "_spender",
          "type": "address"
        },
        {
          "internalType": "uint256",
          "name": "_amount",
          "type": "uint256"
        }
      ],
      "name": "approveERC20Transfer",
      "outputs": [
        {
          "internalType": "bool",
          "name": "",
          "type": "bool"
        }
      ],
      "stateMutability": "nonpayable",
      "type": "function"
    },
    {
      "inputs": [
        {
          "internalType": "address",
          "name": "operator",
          "type": "address"
        },
        {
          "internalType": "string",
          "name": "role",
          "type": "string"
        },
        {
          "internalType": "bool",
          "name": "authorized",
          "type": "bool"
        }
      ],
      "name": "authorize",
      "outputs": [],
      "stateMutability": "nonpayable",
      "type": "function"
    },
    {
      "inputs": [
        {
          "internalType": "address",
          "name": "_token",
          "type": "address"
        },
        {
          "internalType": "uint256",
          "name": "_amount",
          "type": "uint256"
        }
      ],
      "name": "burn",
      "outputs": [],
      "stateMutability": "nonpayable",
      "type": "function"
    },
    {
      "inputs": [
        {
          "internalType": "uint256",
          "name": "_stakeId",
          "type": "uint256"
        }
      ],
      "name": "calculateReward",
      "outputs": [
        {
          "internalType": "uint256",
          "name": "",
          "type": "uint256"
        }
      ],
      "stateMutability": "view",
      "type": "function"
    },
    {
      "inputs": [
        {
          "internalType": "uint256",
          "name": "_stakeId",
          "type": "uint256"
        }
      ],
      "name": "claim",
      "outputs": [],
      "stateMutability": "nonpayable",
      "type": "function"
    },
    {
      "inputs": [
        {
          "internalType": "bytes[]",
          "name": "_hashes",
          "type": "bytes[]"
        },
        {
          "internalType": "bytes[]",
          "name": "_signatures",
          "type": "bytes[]"
        }
      ],
      "name": "claim",
      "outputs": [],
      "stateMutability": "nonpayable",
      "type": "function"
    },
    {
      "inputs": [
        {
          "internalType": "uint256",
          "name": "_farmId",
          "type": "uint256"
        }
      ],
      "name": "claimBatch",
      "outputs": [],
      "stateMutability": "nonpayable",
      "type": "function"
    },
    {
      "inputs": [
        {
          "internalType": "bytes",
          "name": "",
          "type": "bytes"
        }
      ],
      "name": "claimed",
      "outputs": [
        {
          "internalType": "bool",
          "name": "",
          "type": "bool"
        }
      ],
      "stateMutability": "view",
      "type": "function"
    },
    {
      "inputs": [
        {
          "internalType": "address",
          "name": "_stakeToken",
          "type": "address"
        },
        {
          "internalType": "uint48",
          "name": "_end",
          "type": "uint48"
        },
        {
          "internalType": "uint256",
          "name": "_totalReward",
          "type": "uint256"
        }
      ],
      "name": "create",
      "outputs": [],
      "stateMutability": "nonpayable",
      "type": "function"
    },
    {
      "inputs": [
        {
          "internalType": "uint256",
          "name": "_farmId",
          "type": "uint256"
        },
        {
          "internalType": "uint256",
          "name": "_amount",
          "type": "uint256"
        }
      ],
      "name": "deposit",
      "outputs": [],
      "stateMutability": "nonpayable",
      "type": "function"
    },
    {
      "inputs": [
        {
          "internalType": "uint256",
          "name": "",
          "type": "uint256"
        }
      ],
      "name": "farms",
      "outputs": [
        {
          "internalType": "address",
          "name": "token",
          "type": "address"
        },
        {
          "internalType": "uint48",
          "name": "start",
          "type": "uint48"
        },
        {
          "internalType": "uint48",
          "name": "end",
          "type": "uint48"
        },
        {
          "internalType": "uint256",
          "name": "totalReward",
          "type": "uint256"
        },
        {
          "internalType": "uint256",
          "name": "totalStaked",
          "type": "uint256"
        }
      ],
      "stateMutability": "view",
      "type": "function"
    },
    {
      "inputs": [
        {
          "internalType": "string",
          "name": "_name",
          "type": "string"
        },
        {
          "internalType": "address",
          "name": "_token",
          "type": "address"
        }
      ],
      "name": "getNamedBalance",
      "outputs": [
        {
          "internalType": "uint256",
          "name": "",
          "type": "uint256"
        }
      ],
      "stateMutability": "view",
      "type": "function"
    },
    {
      "inputs": [],
      "name": "getNativeBalance",
      "outputs": [
        {
          "internalType": "uint256",
          "name": "",
          "type": "uint256"
        }
      ],
      "stateMutability": "view",
      "type": "function"
    },
    {
      "inputs": [
        {
          "internalType": "address",
          "name": "",
          "type": "address"
        },
        {
          "internalType": "string",
          "name": "",
          "type": "string"
        }
      ],
      "name": "hasRole",
      "outputs": [
        {
          "internalType": "bool",
          "name": "",
          "type": "bool"
        }
      ],
      "stateMutability": "view",
      "type": "function"
    },
    {
      "inputs": [
        {
          "internalType": "string",
          "name": "_name",
          "type": "string"
        }
      ],
      "name": "initialize",
      "outputs": [],
      "stateMutability": "nonpayable",
      "type": "function"
    },
    {
      "inputs": [
        {
          "internalType": "address",
          "name": "_nend",
          "type": "address"
        }
      ],
      "name": "lpsInitialize",
      "outputs": [],
      "stateMutability": "nonpayable",
      "type": "function"
    },
    {
      "inputs": [],
      "name": "name",
      "outputs": [
        {
          "internalType": "string",
          "name": "",
          "type": "string"
        }
      ],
      "stateMutability": "view",
      "type": "function"
    },
    {
      "inputs": [
        {
          "internalType": "string",
          "name": "_name",
          "type": "string"
        },
        {
          "internalType": "address",
          "name": "_token",
          "type": "address"
        },
        {
          "internalType": "uint256",
          "name": "_amount",
          "type": "uint256"
        }
      ],
      "name": "namedBalanceReceive",
      "outputs": [],
      "stateMutability": "nonpayable",
      "type": "function"
    },
    {
      "inputs": [
        {
          "internalType": "string",
          "name": "_name",
          "type": "string"
        },
        {
          "internalType": "address",
          "name": "_token",
          "type": "address"
        },
        {
          "internalType": "uint256",
          "name": "_amount",
          "type": "uint256"
        }
      ],
      "name": "namedBalanceSpend",
      "outputs": [],
      "stateMutability": "nonpayable",
      "type": "function"
    },
    {
      "inputs": [
        {
          "internalType": "string",
          "name": "",
          "type": "string"
        },
        {
          "internalType": "address",
          "name": "",
          "type": "address"
        }
      ],
      "name": "namedBalances",
      "outputs": [
        {
          "internalType": "uint256",
          "name": "",
          "type": "uint256"
        }
      ],
      "stateMutability": "view",
      "type": "function"
    },
    {
      "inputs": [],
      "name": "nend",
      "outputs": [
        {
          "internalType": "address",
          "name": "",
          "type": "address"
        }
      ],
      "stateMutability": "view",
      "type": "function"
    },
    {
      "inputs": [],
      "name": "owner",
      "outputs": [
        {
          "internalType": "address",
          "name": "",
          "type": "address"
        }
      ],
      "stateMutability": "view",
      "type": "function"
    },
    {
      "inputs": [],
      "name": "proxiableUUID",
      "outputs": [
        {
          "internalType": "bytes32",
          "name": "",
          "type": "bytes32"
        }
      ],
      "stateMutability": "view",
      "type": "function"
    },
    {
      "inputs": [],
      "name": "renounceOwnership",
      "outputs": [],
      "stateMutability": "nonpayable",
      "type": "function"
    },
    {
      "inputs": [
        {
          "internalType": "address",
          "name": "_tokenAddress",
          "type": "address"
        },
        {
          "internalType": "address",
          "name": "_operator",
          "type": "address"
        },
        {
          "internalType": "bool",
          "name": "_approved",
          "type": "bool"
        }
      ],
      "name": "setERC1155ApprovalForAll",
      "outputs": [],
      "stateMutability": "nonpayable",
      "type": "function"
    },
    {
      "inputs": [
        {
          "internalType": "address",
          "name": "_tokenAddress",
          "type": "address"
        },
        {
          "internalType": "address",
          "name": "_operator",
          "type": "address"
        },
        {
          "internalType": "bool",
          "name": "_approved",
          "type": "bool"
        }
      ],
      "name": "setERC721ApprovalForAll",
      "outputs": [],
      "stateMutability": "nonpayable",
      "type": "function"
    },
    {
      "inputs": [
        {
          "internalType": "uint256",
          "name": "",
          "type": "uint256"
        }
      ],
      "name": "stakes",
      "outputs": [
        {
          "internalType": "address",
          "name": "staker",
          "type": "address"
        },
        {
          "internalType": "uint256",
          "name": "farmId",
          "type": "uint256"
        },
        {
          "internalType": "uint48",
          "name": "start",
          "type": "uint48"
        },
        {
          "internalType": "uint48",
          "name": "end",
          "type": "uint48"
        },
        {
          "internalType": "uint48",
          "name": "lastClaimedAt",
          "type": "uint48"
        },
        {
          "internalType": "uint256",
          "name": "amount",
          "type": "uint256"
        },
        {
          "internalType": "uint256",
          "name": "rewardClaimed",
          "type": "uint256"
        }
      ],
      "stateMutability": "view",
      "type": "function"
    },
    {
      "inputs": [
        {
          "internalType": "address",
          "name": "_tokenAddress",
          "type": "address"
        },
        {
          "internalType": "address",
          "name": "_to",
          "type": "address"
        },
        {
          "internalType": "uint256",
          "name": "_id",
          "type": "uint256"
        },
        {
          "internalType": "uint256",
          "name": "_value",
          "type": "uint256"
        },
        {
          "internalType": "bytes",
          "name": "_data",
          "type": "bytes"
        }
      ],
      "name": "transferERC1155",
      "outputs": [],
      "stateMutability": "nonpayable",
      "type": "function"
    },
    {
      "inputs": [
        {
          "internalType": "address",
          "name": "_tokenAddress",
          "type": "address"
        },
        {
          "internalType": "address",
          "name": "_to",
          "type": "address"
        },
        {
          "internalType": "uint256[]",
          "name": "_ids",
          "type": "uint256[]"
        },
        {
          "internalType": "uint256[]",
          "name": "_values",
          "type": "uint256[]"
        },
        {
          "internalType": "bytes",
          "name": "_data",
          "type": "bytes"
        }
      ],
      "name": "transferERC1155Batch",
      "outputs": [],
      "stateMutability": "nonpayable",
      "type": "function"
    },
    {
      "inputs": [
        {
          "internalType": "address",
          "name": "_tokenAddress",
          "type": "address"
        },
        {
          "internalType": "address",
          "name": "_to",
          "type": "address"
        },
        {
          "internalType": "uint256",
          "name": "_amount",
          "type": "uint256"
        }
      ],
      "name": "transferERC20",
      "outputs": [
        {
          "internalType": "bool",
          "name": "",
          "type": "bool"
        }
      ],
      "stateMutability": "nonpayable",
      "type": "function"
    },
    {
      "inputs": [
        {
          "internalType": "address",
          "name": "_tokenAddress",
          "type": "address"
        },
        {
          "internalType": "address",
          "name": "_to",
          "type": "address"
        },
        {
          "internalType": "uint256",
          "name": "_tokenId",
          "type": "uint256"
        }
      ],
      "name": "transferERC721",
      "outputs": [],
      "stateMutability": "nonpayable",
      "type": "function"
    },
    {
      "inputs": [
        {
          "internalType": "address payable",
          "name": "_to",
          "type": "address"
        },
        {
          "internalType": "uint256",
          "name": "_amount",
          "type": "uint256"
        }
      ],
      "name": "transferNative",
      "outputs": [],
      "stateMutability": "payable",
      "type": "function"
    },
    {
      "inputs": [
        {
          "internalType": "address",
          "name": "newOwner",
          "type": "address"
        }
      ],
      "name": "transferOwnership",
      "outputs": [],
      "stateMutability": "nonpayable",
      "type": "function"
    },
    {
      "inputs": [
        {
          "internalType": "uint256",
          "name": "_stakeId",
          "type": "uint256"
        }
      ],
      "name": "unstake",
      "outputs": [],
      "stateMutability": "nonpayable",
      "type": "function"
    },
    {
      "inputs": [
        {
          "internalType": "address",
          "name": "newImplementation",
          "type": "address"
        }
      ],
      "name": "upgradeTo",
      "outputs": [],
      "stateMutability": "nonpayable",
      "type": "function"
    },
    {
      "inputs": [
        {
          "internalType": "address",
          "name": "newImplementation",
          "type": "address"
        },
        {
          "internalType": "bytes",
          "name": "data",
          "type": "bytes"
        }
      ],
      "name": "upgradeToAndCall",
      "outputs": [],
      "stateMutability": "payable",
      "type": "function"
    },
    {
      "stateMutability": "payable",
      "type": "receive"
    }
  ],
  "transactionHash": "0x44d1ab2f4d67399ba880d7d1439266ad32044e2c78f07ede28d48b004b43f6b7",
  "args": [],
  "numDeployments": 1,
  "solcInputHash": "2b691191bd6bf894805fd6522b0009a2",
  "bytecode": "0x60a06040523462000118576000546200003260ff8260081c16158092819362000109575b8115620000e6575b506200011d565b8062000046600160ff196000541617600055565b620000cb575b6200005662000181565b62000087575b30608052604051613b5f9081620001fb8239608051818181610b2c01528181610f7e01526110ee0152f35b6200009861ff001960005416600055565b604051600181527f7f26b83ff96e1f2b6a682f133852f6798a09c465da95921460cefb384740249890602090a16200005c565b620000e061010061ff00196000541617600055565b6200004c565b303b15915081620000fa575b50386200002b565b6001915060ff161438620000f2565b600160ff821610915062000023565b600080fd5b156200012557565b60405162461bcd60e51b815260206004820152602e60248201527f496e697469616c697a61626c653a20636f6e747261637420697320616c72656160448201526d191e481a5b9a5d1a585b1a5e995960921b6064820152608490fd5b6000805462010000600160b01b03198116757e8ae5c72eca86946b695dcc211863d9721a09610000178255604051737e8ae5c72eca86946b695dcc211863d9721a09619260109290921c6001600160a01b0316917f8be0079c531659141344cd1fd0a4f28419497f9722a3daafe3b4186f6b6457e091a356fe60806040526004361015610018575b361561001657005b005b60003560e01c80630530fa21146102fc57806306fdde03146102f35780631aca6376146102ea578063217fe6c6146102e15780632d97712f146102d85780632e17de78146102cf5780633659cfe6146102c6578063379607f5146102bd57806339d2525f146102b457806347ae6cc6146102ab5780634f1ef286146102a257806352d1902d1461029957806365b014b7146102905780636c49e021146102875780636d3005e31461027e578063715018a6146102755780637bfabc831461026c5780637d2e90c2146102635780637da470ea1461025a578063829522001461025157806388a9d554146102485780638b3ed9661461023f5780638da5cb5b146102365780639db5dbe41461022d5780639dc29fac14610224578063aef554681461021b578063b7314ef914610212578063bbac408c14610209578063d2d7231f14610200578063d5a44f86146101f7578063dbecc616146101ee578063e2bbb158146101e5578063e52ca961146101dc578063e7b7e8b4146101d3578063f2fde38b146101ca578063f415c5e5146101c15763f62d18880361000e576101bc612482565b61000e565b506101bc6121c3565b506101bc612053565b506101bc611fc8565b506101bc611f1c565b506101bc611d4d565b506101bc611c46565b506101bc611b7d565b506101bc611b0d565b506101bc611aaa565b506101bc6118ab565b506101bc6117ad565b506101bc611728565b506101bc6116b1565b506101bc611686565b506101bc61162e565b506101bc611611565b506101bc6115e9565b506101bc61157c565b506101bc611453565b506101bc61141c565b506101bc6113b9565b506101bc6112d7565b506101bc611200565b506101bc6111aa565b506101bc6110d2565b506101bc610f38565b506101bc610def565b506101bc610d35565b506101bc610c95565b506101bc610b02565b506101bc610961565b506101bc6108ea565b506101bc61087b565b506101bc61075a565b506101bc610655565b506101bc6104b6565b50634e487b7160e01b600052604160045260246000fd5b67ffffffffffffffff811161033057604052565b610338610305565b604052565b6020810190811067ffffffffffffffff82111761033057604052565b6040810190811067ffffffffffffffff82111761033057604052565b6060810190811067ffffffffffffffff82111761033057604052565b90601f8019910116810190811067ffffffffffffffff82111761033057604052565b6040519060a0820182811067ffffffffffffffff82111761033057604052565b6040519060e0820182811067ffffffffffffffff82111761033057604052565b60209067ffffffffffffffff8111610411575b601f01601f19160190565b610419610305565b610406565b81601f8201121561046557803590610435826103f3565b926104436040519485610391565b8284526020838301011161046557816000926020809301838601378301015290565b600080fd5b6001600160a01b0381160361046557565b6040600319820112610465576004359067ffffffffffffffff8211610465576104a69160040161041e565b906024356104b38161046a565b90565b50346104655761051e6104de6001600160a01b036104f66104d63661047b565b93849161082f565b906001600160a01b0316600052602052604060002090565b54916000911680610529575050475b80821161052257505b6040519081529081906020820190565b0390f35b905061050e565b6040516370a0823160e01b815230600482015290602090829060249082905afa91821561058b575b9161055d575b50610505565b61057e915060203d8111610584575b6105768183610391565b8101906125cd565b38610557565b503d61056c565b6105936125dc565b610551565b600091031261046557565b50634e487b7160e01b600052600060045260246000fd5b90600182811c921680156105ea575b60208310146105d457565b634e487b7160e01b600052602260045260246000fd5b91607f16916105c9565b918091926000905b82821061061457501161060d575050565b6000910152565b915080602091830151818601520182916105fc565b6040916020825261064981518092816020860152602086860191016105f4565b601f01601f1916010190565b50346104655760008060031936011261072b576040519080609854610679816105ba565b8085529160019180831690811561070a57506001146106af575b61051e856106a381870382610391565b60405191829182610629565b9250609883527f2237a976fa961f5921fd19f2b03c925c725d77b20ce8f790c19709c03de4d8145b8284106106f25750505081016020016106a38261051e610693565b805460208587018101919091529093019281016106d7565b60ff1916602087015250506040840192506106a3915083905061051e610693565b80fd5b6060906003190112610465576004356107468161046a565b906024356107538161046a565b9060443590565b5034610465576107693661072e565b916107726135ed565b92600093849261079b6001600160a01b039283865460101c16331490811561080e575b50612bf1565b16803b1561080a576040516323b872dd60e01b81523060048201526001600160a01b03909416602485015260448401919091528290818381606481015b03925af180156107fd575b6107ee575b50604051f35b6107f79061031c565b386107e8565b6108056125dc565b6107e3565b8280fd5b33875260326020526040872060ff925061082791610855565b541638610795565b60206108489181604051938285809451938492016105f4565b8101609a81520301902090565b60209061086f9282604051948386809551938492016105f4565b82019081520301902090565b5034610465576040366003190112610465576004356108998161046a565b6024359067ffffffffffffffff8211610465576108de60ff916001600160a01b036108ca602095369060040161041e565b911660005260328452604060002090610855565b54166040519015158152f35b503461046557602080600319360112610465576004359060005b609d54811015610016578061092461091e61094693611b34565b50612fe0565b8484820151149081159161094b575b5061094157610941816130d6565b612fd0565b610904565b65ffffffffffff91506060015116151538610933565b5034610465576020366003190112610465577f2db5acd5bced5f44f73d621255e9e4f7f24d6d2d9682a513df5ea7043fd693d26004356109a081611b34565b5090610a9c60206109b46001850154611533565b506002850194610a1a65ffffffffffff6109e3816109dc8a5465ffffffffffff9060301c1690565b1615612f84565b6109ec876130d6565b42168097906bffffffffffff00000000000082549160301b16906bffffffffffff0000000000001916179055565b610a65610a57610a4b610a4b60038501958654610a3c60028301918254612da0565b9055546001600160a01b031690565b6001600160a01b031690565b91546001600160a01b031690565b915460405163a9059cbb60e01b81526001600160a01b03909316600484015260248301529092839190829060009082906044820190565b03925af18015610af5575b610ac7575b506040805191825265ffffffffffff929092166020820152a1005b610ae79060203d8111610aee575b610adf8183610391565b810190612e3d565b5038610aac565b503d610ad5565b610afd6125dc565b610aa7565b503461046557602036600319011261046557600435610b208161046a565b6001600160a01b0390817f00000000000000000000000000000000000000000000000000000000000000001691610b598330141561250b565b610b887f360894a13ba1a3210667c828492db98dca3e2076cc3735a920a3ca505d382bbc93828554161461256c565b610b90612934565b60405190610b9d8261033d565b600082527f4910fdfa16fed3260ed0e7147f7cc6da11a60208b5b9406d12a635614ffd91435460ff1615610bd75750506100169150612647565b6020600491604094939451928380926352d1902d60e01b825286165afa60009181610c75575b50610c625760405162461bcd60e51b815260206004820152602e60248201527f45524331393637557067726164653a206e657720696d706c656d656e7461746960448201526d6f6e206973206e6f74205555505360901b6064820152608490fd5b0390fd5b61001693610c7091146125e9565b6126e5565b610c8e91925060203d8111610584576105768183610391565b9038610bfd565b5034610465576020366003190112610465576004356001600160a01b03610cbb82611b34565b5054163303610cf65780610cf165ffffffffffff6109dc6002610ce061001696611b34565b50015460301c65ffffffffffff1690565b6130d6565b60405162461bcd60e51b815260206004820152600d60248201526c4e6f74206f776e207374616b6560981b6044820152606490fd5b8015150361046557565b503461046557606036600319011261046557600435610d538161046a565b60243567ffffffffffffffff811161046557610d76610da791369060040161041e565b6001600160a01b0360443593610d8b85610d2b565b610d93612934565b166000526032602052604060002090610855565b9060ff8019835416911515161790556000604051f35b606090600319011261046557600435610dd58161046a565b90602435610de28161046a565b906044356104b381610d2b565b503461046557610e31610e0136610dbd565b610e0c9291926135ed565b916001600160a01b0390600095869483865460101c16331490811561080e5750612bf1565b16610ea2610e886020610e4660975460e01b90565b6040516301ffc9a760e01b81527fffffffff00000000000000000000000000000000000000000000000000000000909116600482015291829081906024820190565b0381865afa908115610f2b575b8591610f0d575b50613610565b803b1561080a5760405163a22cb46560e01b81526001600160a01b03909416600485015290151560248401528290818381604481015b03925af18015610f00575b610eed5750604051f35b80610efa6107f79261031c565b80610598565b610f086125dc565b610ee3565b610f25915060203d8111610aee57610adf8183610391565b38610e9c565b610f336125dc565b610e95565b50604036600319011261046557600435610f518161046a565b60243567ffffffffffffffff811161046557610f7190369060040161041e565b906001600160a01b0391827f00000000000000000000000000000000000000000000000000000000000000001692610fab8430141561250b565b610fda7f360894a13ba1a3210667c828492db98dca3e2076cc3735a920a3ca505d382bbc94828654161461256c565b610fe2612934565b7f4910fdfa16fed3260ed0e7147f7cc6da11a60208b5b9406d12a635614ffd91435460ff16156110185750506100169150612647565b6020600491604094939451928380926352d1902d60e01b825286165afa600091816110b2575b5061109f5760405162461bcd60e51b815260206004820152602e60248201527f45524331393637557067726164653a206e657720696d706c656d656e7461746960448201526d6f6e206973206e6f74205555505360901b6064820152608490fd5b610016936110ad91146125e9565b6127a1565b6110cb91925060203d8111610584576105768183610391565b903861103e565b5034610465576000366003190112610465576001600160a01b037f000000000000000000000000000000000000000000000000000000000000000016300361113f576040517f360894a13ba1a3210667c828492db98dca3e2076cc3735a920a3ca505d382bbc8152602090f35b60405162461bcd60e51b815260206004820152603860248201527f555550535570677261646561626c653a206d757374206e6f742062652063616c60448201527f6c6564207468726f7567682064656c656761746563616c6c00000000000000006064820152608490fd5b5034610465576000366003190112610465576111cd60ff60005460081c166128b9565b61001661298f565b6060600319820112610465576004359067ffffffffffffffff8211610465576107469160040161041e565b50346104655761120f366111d5565b919061123a61121c6135ed565b6001600160a01b0360005460101c1633149081156112bb5750612bf1565b82611248826104de8561082f565b5410611276576104de61125a9261082f565b90815481811061126957039055005b611271612d6c565b039055005b60405162461bcd60e51b815260206004820152601460248201527f496e73756666696369656e742062616c616e63650000000000000000000000006044820152606490fd5b60ff915061082790336000526032602052604060002090610855565b50346104655761051e61134e60206112ee3661072e565b919060006112fa6135ed565b61131c6001600160a01b039182845460101c1633149081156113a15750612bf1565b60405180978196829563095ea7b360e01b845260048401602090939291936001600160a01b0360408201951681520152565b0393165af1908115611394575b600091611376575b5060405190151581529081906020820190565b61138e915060203d8111610aee57610adf8183610391565b38611363565b61139c6125dc565b61135b565b338552603289526040852060ff925061082791610855565b50346104655760008060031936011261072b576113d4612934565b805462010000600160b01b031981168255816001600160a01b036040519260101c167f8be0079c531659141344cd1fd0a4f28419497f9722a3daafe3b4186f6b6457e08284a3f35b5034610465576104de61144f611447611434366111d5565b94909161144261121c6135ed565b61082f565b918254612e52565b9055005b5060403660031901126104655760043561146c8161046a565b6114746135ed565b906114a06001600160a01b039260009384938493849383855460101c1633149081156115035750612bf1565b6040519160243591165af16114b36127f8565b50156114be57604051f35b60405162461bcd60e51b815260206004820152601460248201527f4661696c656420746f2073656e642045746865720000000000000000000000006044820152606490fd5b33865260326020526040862060ff925061082791610855565b50634e487b7160e01b600052603260045260246000fd5b600390609c5481101561156f575b609c600052027faf85b9071dfafeac1409d3f1d19bafc9bc7c37974cde8df0ee6168f0086e539c0190600090565b61157761151c565b611541565b503461046557602036600319011261046557600435609c54811015610465576115a660a091611533565b508054906002600182015491015490604051926001600160a01b038116845265ffffffffffff81861c16602085015260d01c604084015260608301526080820152f35b50346104655760003660031901126104655760206001600160a01b03609b5416604051908152f35b503461046557600036600319011261046557602047604051908152f35b503461046557602061167d8161165b6116463661047b565b929081604051938285809451938492016105f4565b8101609a815203019020906001600160a01b0316600052602052604060002090565b54604051908152f35b50346104655760003660031901126104655760206001600160a01b0360005460101c16604051908152f35b50346104655761051e61134e60206116c83661072e565b919060006116d46135ed565b6116f66001600160a01b039182845460101c1633149081156113a15750612bf1565b60405180978196829563a9059cbb60e01b845260048401602090939291936001600160a01b0360408201951681520152565b5034610465576000604036600319011261072b57806004356117498161046a565b6117516135ed565b906117746001600160a01b039283855460101c1633149081156115035750612bf1565b16803b156117aa578190602460405180948193630852cd8d60e31b8352833560048401525af180156107fd576107ee5750604051f35b50fd5b5034610465576020366003190112610465576004356117cb8161046a565b61180f600054916117f360ff8460081c16158094819561188d575b811561186d575b50612a04565b82611806600160ff196000541617600055565b61185457612a76565b61181557005b61182561ff001960005416600055565b604051600181527f7f26b83ff96e1f2b6a682f133852f6798a09c465da95921460cefb384740249890602090a1005b61186861010061ff00196000541617600055565b612a76565b303b1591508161187f575b50386117ed565b6001915060ff161438611878565b600160ff82161091506117e6565b65ffffffffffff81160361046557565b5034610465576060366003190112610465576004356118c98161046a565b6024356118d58161189b565b7f15c2d2647680bb2008b9c7ebba268afb710b03da5b18d7e39cf399b7e081770f60443592604092611a3d84519561190c87610359565b600587526020926430b236b4b760d91b848901526119436000986001600160a01b038a5460101c163314908115611a6d5750612bf1565b6119f465ffffffffffff61195a4282851611612c3d565b6119ab84611976610a4b610a4b609b546001600160a01b031690565b8b516370a0823160e01b8152306004820152908990829060249082905afa908115611a60575b8d91611a43575b501015612c89565b4216946119d6866119ba6103b3565b6001600160a01b038a1681529283019065ffffffffffff169052565b65ffffffffffff8316818a0152836060820152896080820152612cd5565b6119ff609c54612d83565b9387519586958691936001600160a01b036080949297969560a0850198855216602084015265ffffffffffff80921660408401521660608201520152565b0390a151f35b611a5a9150893d8b11610584576105768183610391565b386119a3565b611a686125dc565b61199c565b338b5260328752898b2060ff925061082791610855565b6020611a9d9181604051938285809451938492016105f4565b8101609981520301902090565b50346104655760203660031901126104655760043567ffffffffffffffff81116104655760ff611af76020611ae48194369060040161041e565b81604051938285809451938492016105f4565b8101609981520301902054166040519015158152f35b5034610465576020366003190112610465576020611b2c60043561338a565b604051908152f35b600590609d54811015611b70575b609d600052027fd26e832454299e9fabb89e0e5fffdc046d4e14431bc1bf607ffb2e8a1ddecf7b0190600090565b611b7861151c565b611b42565b503461046557602036600319011261046557600435609d5481101561046557611ba590611b34565b508054600182015460028301546003840154600490940154604080516001600160a01b039095168552602085019390935265ffffffffffff80831693850193909352603082901c83166060808601919091529190911c909116608083015260a082019290925260c081019190915260e090f35b9181601f840112156104655782359167ffffffffffffffff8311610465576020838186019501011161046557565b50346104655760a036600319011261046557600435611c648161046a565b602435611c708161046a565b6084359167ffffffffffffffff831161046557611c94611cc2933690600401611c18565b90611c9d6135ed565b926001600160a01b0390600096879583875460101c163314908115611d345750612bf1565b1690611cf1611cd86020610e4660975460e01b90565b0381875afa908115611d27575b8691610f0d5750613610565b813b15611d235783610ed89560405196879586948593637921219560e11b855260643590604435903060048801613691565b8380fd5b611d2f6125dc565b611ce5565b33885260326020526040882060ff925061082791610855565b503461046557604080600319360112610465576000907f8fa1b1e2223dcdbb644ad66a5181f5667692fc6c202efb5c90eae671dc569f1e600435602435611a3d611d9683611533565b509160026001600160a01b038454611db2428260d01c11612db7565b88516370a0823160e01b8152336004820152602096929190911690611df29085908881602481875afa908115611f0f575b8d91611ef2575b501015612df1565b88516323b872dd60e01b815233600482015230602482015260448101859052908690829060649082908e905af18015611ee5575b611ec8575b5001611e38828254612e52565b9055611e8a65ffffffffffff42169385611e506103d3565b3381529182015265ffffffffffff8516888201526060810189905265ffffffffffff851660808201528260a08201528860c0820152612e6a565b611e95609d54612d83565b8651908152336020820152604081019490945265ffffffffffff90921660608401526080830191909152819060a0820190565b611ede90863d8811610aee57610adf8183610391565b5038611e2b565b611eed6125dc565b611e26565b611f099150893d8b11610584576105768183610391565b38611dea565b611f176125dc565b611de3565b503461046557611f2b36610dbd565b91611f346135ed565b926000938492611f5c6001600160a01b039283865460101c16331490811561080e5750612bf1565b16803b1561080a5760405163a22cb46560e01b81526001600160a01b03909416600485015290151560248401528290818381604481016107d8565b9181601f840112156104655782359167ffffffffffffffff8311610465576020808501948460051b01011161046557565b50346104655760a036600319011261046557600435611fe68161046a565b602435611ff28161046a565b67ffffffffffffffff9160443583811161046557612014903690600401611f97565b906064358581116104655761202d903690600401611f97565b9290916084359687116104655761204b610016973690600401611c18565b9690956136c6565b5034610465576020366003190112610465576004356120718161046a565b612079612934565b6001600160a01b039081811680156120dd5760009262010000600160b01b0384549360101b1662010000600160b01b031984161784556040519260101c167f8be0079c531659141344cd1fd0a4f28419497f9722a3daafe3b4186f6b6457e08484a3f35b60405162461bcd60e51b815260206004820152602660248201527f4f776e61626c653a206e6577206f776e657220697320746865207a65726f206160448201526564647265737360d01b6064820152608490fd5b9080601f830112156104655781359067ffffffffffffffff928383116121b6575b8260051b6040519460209461216986840188610391565b865284808701928401019380851161046557858401925b858410612191575050505050505090565b83358381116104655787916121ab848480948a010161041e565b815201930192612180565b6121be610305565b612152565b5034610465576040806003193601126104655767ffffffffffffffff9060048035838111610465576121f89036908301612131565b92602435908111610465576122109036908301612131565b9261221e8151855114613840565b60005b81518110156100165761224761224061223a838561389a565b51611a84565b5460ff1690565b61247957612255818361389a565b5180516020929161226c91810184019084016138bc565b8851606085811b6bffffffffffffffffffffffff19908116838a019081529186901b1660148201526028810184905260d083901b6001600160d01b03191660488201529296946001600160a01b03948516949293908316929180604e830103601f19810182526122dc9082610391565b5190206122e9878d61389a565b516122f391613a34565b60005490919060101c6001600160a01b03166001600160a01b031691161461231a906138f6565b331461232590613942565b65ffffffffffff164210156123399061397e565b86516370a0823160e01b8152308782019081528391908290829081906020010381865afa9286841561241f986000966123cb956123849361246c575b889161244f575b5010156139ca565b6123a161239461223a898c61389a565b805460ff19166001179055565b8a5163a9059cbb60e01b8152338b8201908152602081019290925294859384928391604090910190565b03925af18015612442575b612424575b50507f4ad9c0f6018b9d6efdb6bfb76472c84cca0806aab365506ef8f5fe7e2ab382b161241761240b838661389a565b51875191829182610629565b0390a1612fd0565b612221565b8161243a92903d10610aee57610adf8183610391565b5038806123db565b61244a6125dc565b6123d6565b6124669150873d8911610584576105768183610391565b3861237c565b6124746125dc565b612375565b61241f90612fd0565b50346104655760203660031901126104655760043567ffffffffffffffff8111610465576124b490369060040161041e565b61180f600054916124da60ff8460081c16158094819561188d57811561186d5750612a04565b826124ed600160ff196000541617600055565b156134855761250661010061ff00196000541617600055565b613485565b1561251257565b60405162461bcd60e51b815260206004820152602c60248201527f46756e6374696f6e206d7573742062652063616c6c6564207468726f7567682060448201526b19195b1959d85d1958d85b1b60a21b6064820152608490fd5b1561257357565b60405162461bcd60e51b815260206004820152602c60248201527f46756e6374696f6e206d7573742062652063616c6c6564207468726f7567682060448201526b6163746976652070726f787960a01b6064820152608490fd5b90816020910312610465575190565b506040513d6000823e3d90fd5b156125f057565b60405162461bcd60e51b815260206004820152602960248201527f45524331393637557067726164653a20756e737570706f727465642070726f786044820152681a58589b195555525160ba1b6064820152608490fd5b803b1561268a576001600160a01b037f360894a13ba1a3210667c828492db98dca3e2076cc3735a920a3ca505d382bbc91166001600160a01b0319825416179055565b60405162461bcd60e51b815260206004820152602d60248201527f455243313936373a206e657720696d706c656d656e746174696f6e206973206e60448201526c1bdd08184818dbdb9d1c9858dd609a1b6064820152608490fd5b6126ee81612647565b604051906001600160a01b0381167fbc7cd75a20ee27fd9adebab32041f755214dbc6bffa90cc0225b39da2e5c2d3b600084a2825115801590612799575b61273557505050565b6000806127969461274585610375565b602785527f416464726573733a206c6f772d6c6576656c2064656c65676174652063616c6c6020860152660819985a5b195960ca1b6040860152602081519101845af46127906127f8565b91612828565b50565b50600061272c565b6127aa81612647565b604051906001600160a01b0381167fbc7cd75a20ee27fd9adebab32041f755214dbc6bffa90cc0225b39da2e5c2d3b600084a28251158015906127f05761273557505050565b50600161272c565b3d15612823573d90612809826103f3565b916128176040519384610391565b82523d6000602084013e565b606090565b9192901561288a575081511561283c575090565b3b156128455790565b60405162461bcd60e51b815260206004820152601d60248201527f416464726573733a2063616c6c20746f206e6f6e2d636f6e74726163740000006044820152606490fd5b82519091501561289d5750805190602001fd5b60405162461bcd60e51b8152908190610c5e9060048301610629565b156128c057565b60405162461bcd60e51b815260206004820152602b60248201527f496e697469616c697a61626c653a20636f6e7472616374206973206e6f74206960448201526a6e697469616c697a696e6760a81b6064820152608490fd5b61292a60ff60005460081c166128b9565b61293261298f565b565b6001600160a01b0360005460101c16330361294b57565b606460405162461bcd60e51b815260206004820152602060248201527f4f776e61626c653a2063616c6c6572206973206e6f7420746865206f776e65726044820152fd5b737e8ae5c72eca86946b695dcc211863d9721a09616001600160a01b03600054757e8ae5c72eca86946b695dcc211863d9721a0961000062010000600160b01b031982161760005560101c167f8be0079c531659141344cd1fd0a4f28419497f9722a3daafe3b4186f6b6457e06000604051a3565b15612a0b57565b60405162461bcd60e51b815260206004820152602e60248201527f496e697469616c697a61626c653a20636f6e747261637420697320616c72656160448201527f647920696e697469616c697a65640000000000000000000000000000000000006064820152608490fd5b6001600160a01b03166001600160a01b0319609b541617609b5560405190612a9d82610359565b600e825260207f4c697175696469747920506f6f6c00000000000000000000000000000000000081840152612ad960ff60005460081c166128b9565b82519067ffffffffffffffff8211612be4575b612b0082612afb6098546105ba565b61357c565b80601f8311600114612b595750819293600092612b4e575b50508160011b916000199060031b1c1916176098555b612b4663d9b67a2663ffffffff196097541617609755565b612932612919565b015190503880612b18565b90601f19831694612b8c60986000527f2237a976fa961f5921fd19f2b03c925c725d77b20ce8f790c19709c03de4d81490565b926000905b878210612bcc575050836001959610612bb3575b505050811b01609855612b2e565b015160001960f88460031b161c19169055388080612ba5565b80600185968294968601518155019501930190612b91565b612bec610305565b612aec565b15612bf857565b60405162461bcd60e51b815260206004820152600e60248201527f4e6f7420617574686f72697a65640000000000000000000000000000000000006044820152606490fd5b15612c4457565b60405162461bcd60e51b815260206004820152601060248201527f496e76616c696420656e642074696d65000000000000000000000000000000006044820152606490fd5b15612c9057565b60405162461bcd60e51b815260206004820152601b60248201527f4e6f7420656e6f756768206c697175696469747920737570706c7900000000006044820152606490fd5b60026080612cfd609c5468010000000000000000811015612d5f575b60018101609c55611533565b939093612d52575b8051602082015160408301516001600160a01b0390921660a09190911b65ffffffffffff60a01b161760d09190911b6001600160d01b031916178455606081015160018501550151910155565b612d5a6105a3565b612d05565b612d67610305565b612cf1565b50634e487b7160e01b600052601160045260246000fd5b60018110612d93575b6000190190565b612d9b612d6c565b612d8c565b818110612dab570390565b612db3612d6c565b0390565b15612dbe57565b60405162461bcd60e51b815260206004820152600b60248201526a11985c9b4818db1bdcd95960aa1b6044820152606490fd5b15612df857565b60405162461bcd60e51b815260206004820152601d60248201527f496e73756666696369656e74206c7020746f6b656e2062616c616e63650000006044820152606490fd5b9081602091031261046557516104b381610d2b565b81198111612e5e570190565b612e66612d6c565b0190565b600460c0612e92609d5468010000000000000000811015612f77575b60018101609d55611b34565b939093612f6a575b8051845473ffffffffffffffffffffffffffffffffffffffff19166001600160a01b039190911617845560208101516001850155612f596002850165ffffffffffff60408401511665ffffffffffff19825416178155612f30612f06606085015165ffffffffffff1690565b82546bffffffffffff000000000000191660309190911b6bffffffffffff00000000000016178255565b6080830151815465ffffffffffff60601b191660609190911b65ffffffffffff60601b16179055565b60a081015160038501550151910155565b612f726105a3565b612e9a565b612f7f610305565b612e86565b15612f8b57565b60405162461bcd60e51b815260206004820152601060248201527f416c726561647920756e7374616b6564000000000000000000000000000000006044820152606490fd5b6001906000198114612e5e570190565b9060405160e0810181811067ffffffffffffffff82111761307d575b60405260c0600482946001600160a01b0381541684526001810154602085015261306c600282015465ffffffffffff90613043828216604089019065ffffffffffff169052565b65ffffffffffff603082901c831616606088015260601c16608086019065ffffffffffff169052565b600381015460a08501520154910152565b613085610305565b612ffc565b1561309157565b60405162461bcd60e51b815260206004820152601d60248201527f496e73756666696369656e74206c697175696469747920737570706c790000006044820152606490fd5b6130df81611b34565b506130ed6001820154611533565b50916130f88161338a565b80613104575b50505050565b613242613269917f13e74023f2254e8a849a98d1797107bbe684613be7b7717f205affdd644b16a5956001613147610a4b610a4b609b546001600160a01b031690565b6040516370a0823160e01b8152306004820152602093916131879186918690829060249082905afa9081156132bd575b6000916132a0575b50101561308a565b01613193838254612da0565b905561321f8160048801936131a9818654612e52565b855560028901805465ffffffffffff60601b19164260601b65ffffffffffff60601b16178155986131eb610a57610a4b610a4b609b546001600160a01b031690565b600060405180968195829463a9059cbb60e01b845260048401602090939291936001600160a01b0360408201951681520152565b03925af18015613293575b613275575b505054935460601c65ffffffffffff1690565b6040519384938491604091949365ffffffffffff9160608501968552602085015216910152565b0390a1388080806130fe565b8161328b92903d10610aee57610adf8183610391565b50388061322f565b61329b6125dc565b61322a565b6132b79150863d8811610584576105768183610391565b3861317f565b6132c56125dc565b613177565b9060405160a0810181811067ffffffffffffffff821117613327575b60405260806002829480546001600160a01b038116855265ffffffffffff8160a01c16602086015260d01c6040850152600181015460608501520154910152565b61332f610305565b6132e6565b65ffffffffffff9182169116818110612dab570390565b806000190482118115151661335e570290565b613366612d6c565b0290565b8115613374570490565b634e487b7160e01b600052601260045260246000fd5b61091e61339691611b34565b65ffffffffffff806133b1606084015165ffffffffffff1690565b1661347e5761346a61345f8361341d60206134516134446134396133e36133dd856104b39c0151611533565b506132ca565b9560408701996133f98b5165ffffffffffff1690565b8082164211613470575061343160a06134238342165b608086015165ffffffffffff165b90613334565b93015160608a01519061334b565b91169061334b565b60808601519061336a565b965165ffffffffffff1690565b92015165ffffffffffff1690565b65ffffffffffff1690565b9061336a565b60a06134236134319261340f565b5050600090565b9061349760ff60005460081c166128b9565b815167ffffffffffffffff811161356f575b6134b881612afb6098546105ba565b602080601f83116001146134fe5750819293600092612b4e5750508160011b916000199060031b1c191617609855612b4663d9b67a2663ffffffff196097541617609755565b90601f1983169461353160986000527f2237a976fa961f5921fd19f2b03c925c725d77b20ce8f790c19709c03de4d81490565b926000905b878210613557575050836001959610612bb357505050811b01609855612b2e565b80600185968294968601518155019501930190613536565b613577610305565b6134a9565b601f8111613588575050565b600090609882527f2237a976fa961f5921fd19f2b03c925c725d77b20ce8f790c19709c03de4d814906020601f850160051c830194106135e3575b601f0160051c01915b8281106135d857505050565b8181556001016135cc565b90925082906135c3565b604051906135fa82610359565b600782526639b832b73232b960c91b6020830152565b1561361757565b60405162461bcd60e51b815260206004820152602b60248201527f676976656e20746f6b656e206164647265737320646f65736e2774207375707060448201526a6f7274204552433131353560a81b6064820152608490fd5b908060209392818452848401376000828201840152601f01601f1916010190565b91926104b396949160a0946001600160a01b038092168552166020840152604083015260608201528160808201520191613670565b95969091929493966136d66135ed565b966001600160a01b03906136fc600099838b5460101c1633149081156137955750612bf1565b169461372b6137126020610e4660975460e01b90565b03818b5afa908115613788575b8a91610f0d5750613610565b853b156137845791613758918894936040519a8b998a988997631759616b60e11b89523060048a016137ef565b03925af18015613777575b61376a5750565b80610efa6129329261031c565b61377f6125dc565b613763565b8780fd5b6137906125dc565b61371f565b338c52603260205260408c2060ff925061082791610855565b90918281527f07ffffffffffffffffffffffffffffffffffffffffffffffffffffffffffffff83116104655760209260051b80928483013701016000815290565b96949261383294613824926104b39a98946001600160a01b038092168b521660208a015260a060408a015260a08901916137ae565b9186830360608801526137ae565b926080818503910152613670565b1561384757565b60405162461bcd60e51b815260206004820152602560248201527f4e6f74206d61746368696e67206861736820616e64207369676e61747572652060448201526418dbdd5b9d60da1b6064820152608490fd5b60209181518110156138af575b60051b010190565b6138b761151c565b6138a7565b91908260809103126104655781516138d38161046a565b9160208101516138e28161046a565b91606060408301519201516104b38161189b565b156138fd57565b60405162461bcd60e51b815260206004820152601160248201527f496e76616c6964207369676e61747572650000000000000000000000000000006044820152606490fd5b1561394957565b60405162461bcd60e51b815260206004820152600d60248201526c139bdd081c9958da5c1a595b9d609a1b6044820152606490fd5b1561398557565b60405162461bcd60e51b815260206004820152601160248201527f496e76616c69642074696d657374616d700000000000000000000000000000006044820152606490fd5b156139d157565b60405162461bcd60e51b815260206004820152601960248201527f496e73756666696369656e7420706f6f6c2062616c616e6365000000000000006044820152606490fd5b6020929190613a2c8492828151948592016105f4565b019081520190565b600090602092838101519060ff604160408301519201511692601b8410613b01575b90613adf91613aa7613ab560405192613a6e84610359565b601c84527f19457468657265756d205369676e6564204d6573736167653a0a3332000000008a8501526040519283918b83019586613a16565b03601f198101835282610391565b51902092604051948594859094939260ff6060936080840197845216602083015260408201520152565b838052039060015afa15613af4575b60005190565b613afc6125dc565b613aee565b9290601b8260e4613adf9411613b1c575b0193909150613a56565b613b24612d6c565b613b1256fea26469706673582212202b10622c3e71c1b3bfd89bee45c754e6af76e3decb2dc6abed7664597ec6225564736f6c634300080e0033",
  "devdoc": {
    "kind": "dev",
    "methods": {
      "owner()": {
        "details": "Returns the address of the current owner."
      },
      "proxiableUUID()": {
        "details": "Implementation of the ERC1822 {proxiableUUID} function. This returns the storage slot used by the implementation. It is used to validate the implementation's compatibility when performing an upgrade. IMPORTANT: A proxy pointing at a proxiable contract should not be considered proxiable itself, because this risks bricking a proxy that upgrades to it, by delegating to itself until out of gas. Thus it is critical that this function revert if invoked through a proxy. This is guaranteed by the `notDelegated` modifier."
      },
      "renounceOwnership()": {
        "details": "Leaves the contract without owner. It will not be possible to call `onlyOwner` functions anymore. Can only be called by the current owner. NOTE: Renouncing ownership will leave the contract without an owner, thereby removing any functionality that is only available to the owner."
      },
      "transferOwnership(address)": {
        "details": "Transfers ownership of the contract to a new account (`newOwner`). Can only be called by the current owner."
      },
      "upgradeTo(address)": {
        "custom:oz-upgrades-unsafe-allow-reachable": "delegatecall",
        "details": "Upgrade the implementation of the proxy to `newImplementation`. Calls {_authorizeUpgrade}. Emits an {Upgraded} event."
      },
      "upgradeToAndCall(address,bytes)": {
        "custom:oz-upgrades-unsafe-allow-reachable": "delegatecall",
        "details": "Upgrade the implementation of the proxy to `newImplementation`, and subsequently execute the function call encoded in `data`. Calls {_authorizeUpgrade}. Emits an {Upgraded} event."
      }
    },
    "version": 1
  },
  "userdoc": {
    "kind": "user",
    "methods": {},
    "version": 1
  },
  "storageLayout": {
    "storage": [
      {
        "astId": 687,
        "contract": "contracts/staking/LiquidityPoolStaking.sol:LiquidityPoolStaking",
        "label": "_initialized",
        "offset": 0,
        "slot": "0",
        "type": "t_uint8"
      },
      {
        "astId": 690,
        "contract": "contracts/staking/LiquidityPoolStaking.sol:LiquidityPoolStaking",
        "label": "_initializing",
        "offset": 1,
        "slot": "0",
        "type": "t_bool"
      },
      {
        "astId": 13012,
        "contract": "contracts/staking/LiquidityPoolStaking.sol:LiquidityPoolStaking",
        "label": "_owner",
        "offset": 2,
        "slot": "0",
        "type": "t_address"
      },
      {
        "astId": 13132,
        "contract": "contracts/staking/LiquidityPoolStaking.sol:LiquidityPoolStaking",
        "label": "__gap",
        "offset": 0,
        "slot": "1",
        "type": "t_array(t_uint256)49_storage"
      },
      {
        "astId": 13144,
        "contract": "contracts/staking/LiquidityPoolStaking.sol:LiquidityPoolStaking",
        "label": "hasRole",
        "offset": 0,
        "slot": "50",
        "type": "t_mapping(t_address,t_mapping(t_string_memory_ptr,t_bool))"
      },
      {
        "astId": 669,
        "contract": "contracts/staking/LiquidityPoolStaking.sol:LiquidityPoolStaking",
        "label": "__gap",
        "offset": 0,
        "slot": "51",
        "type": "t_array(t_uint256)50_storage"
      },
      {
        "astId": 985,
        "contract": "contracts/staking/LiquidityPoolStaking.sol:LiquidityPoolStaking",
        "label": "__gap",
        "offset": 0,
        "slot": "101",
        "type": "t_array(t_uint256)50_storage"
      },
      {
        "astId": 32584,
        "contract": "contracts/staking/LiquidityPoolStaking.sol:LiquidityPoolStaking",
        "label": "ERC1155_INTERFACE_ID",
        "offset": 0,
        "slot": "151",
        "type": "t_bytes4"
      },
      {
        "astId": 32586,
        "contract": "contracts/staking/LiquidityPoolStaking.sol:LiquidityPoolStaking",
        "label": "name",
        "offset": 0,
        "slot": "152",
        "type": "t_string_storage"
      },
      {
        "astId": 32590,
        "contract": "contracts/staking/LiquidityPoolStaking.sol:LiquidityPoolStaking",
        "label": "claimed",
        "offset": 0,
        "slot": "153",
        "type": "t_mapping(t_bytes_memory_ptr,t_bool)"
      },
      {
        "astId": 32596,
        "contract": "contracts/staking/LiquidityPoolStaking.sol:LiquidityPoolStaking",
        "label": "namedBalances",
        "offset": 0,
        "slot": "154",
        "type": "t_mapping(t_string_memory_ptr,t_mapping(t_address,t_uint256))"
      },
      {
        "astId": 30368,
        "contract": "contracts/staking/LiquidityPoolStaking.sol:LiquidityPoolStaking",
        "label": "nend",
        "offset": 0,
        "slot": "155",
        "type": "t_address"
      },
      {
        "astId": 30372,
        "contract": "contracts/staking/LiquidityPoolStaking.sol:LiquidityPoolStaking",
        "label": "farms",
        "offset": 0,
        "slot": "156",
        "type": "t_array(t_struct(Farm)31053_storage)dyn_storage"
      },
      {
        "astId": 30376,
        "contract": "contracts/staking/LiquidityPoolStaking.sol:LiquidityPoolStaking",
        "label": "stakes",
        "offset": 0,
        "slot": "157",
        "type": "t_array(t_struct(Stake)31068_storage)dyn_storage"
      }
    ],
    "types": {
      "t_address": {
        "encoding": "inplace",
        "label": "address",
        "numberOfBytes": "20"
      },
      "t_array(t_struct(Farm)31053_storage)dyn_storage": {
        "base": "t_struct(Farm)31053_storage",
        "encoding": "dynamic_array",
        "label": "struct ILiquidityPoolStaking.Farm[]",
        "numberOfBytes": "32"
      },
      "t_array(t_struct(Stake)31068_storage)dyn_storage": {
        "base": "t_struct(Stake)31068_storage",
        "encoding": "dynamic_array",
        "label": "struct ILiquidityPoolStaking.Stake[]",
        "numberOfBytes": "32"
      },
      "t_array(t_uint256)49_storage": {
        "base": "t_uint256",
        "encoding": "inplace",
        "label": "uint256[49]",
        "numberOfBytes": "1568"
      },
      "t_array(t_uint256)50_storage": {
        "base": "t_uint256",
        "encoding": "inplace",
        "label": "uint256[50]",
        "numberOfBytes": "1600"
      },
      "t_bool": {
        "encoding": "inplace",
        "label": "bool",
        "numberOfBytes": "1"
      },
      "t_bytes4": {
        "encoding": "inplace",
        "label": "bytes4",
        "numberOfBytes": "4"
      },
      "t_bytes_memory_ptr": {
        "encoding": "bytes",
        "label": "bytes",
        "numberOfBytes": "32"
      },
      "t_mapping(t_address,t_mapping(t_string_memory_ptr,t_bool))": {
        "encoding": "mapping",
        "key": "t_address",
        "label": "mapping(address => mapping(string => bool))",
        "numberOfBytes": "32",
        "value": "t_mapping(t_string_memory_ptr,t_bool)"
      },
      "t_mapping(t_address,t_uint256)": {
        "encoding": "mapping",
        "key": "t_address",
        "label": "mapping(address => uint256)",
        "numberOfBytes": "32",
        "value": "t_uint256"
      },
      "t_mapping(t_bytes_memory_ptr,t_bool)": {
        "encoding": "mapping",
        "key": "t_bytes_memory_ptr",
        "label": "mapping(bytes => bool)",
        "numberOfBytes": "32",
        "value": "t_bool"
      },
      "t_mapping(t_string_memory_ptr,t_bool)": {
        "encoding": "mapping",
        "key": "t_string_memory_ptr",
        "label": "mapping(string => bool)",
        "numberOfBytes": "32",
        "value": "t_bool"
      },
      "t_mapping(t_string_memory_ptr,t_mapping(t_address,t_uint256))": {
        "encoding": "mapping",
        "key": "t_string_memory_ptr",
        "label": "mapping(string => mapping(address => uint256))",
        "numberOfBytes": "32",
        "value": "t_mapping(t_address,t_uint256)"
      },
      "t_string_memory_ptr": {
        "encoding": "bytes",
        "label": "string",
        "numberOfBytes": "32"
      },
      "t_string_storage": {
        "encoding": "bytes",
        "label": "string",
        "numberOfBytes": "32"
      },
      "t_struct(Farm)31053_storage": {
        "encoding": "inplace",
        "label": "struct ILiquidityPoolStaking.Farm",
        "members": [
          {
            "astId": 31044,
            "contract": "contracts/staking/LiquidityPoolStaking.sol:LiquidityPoolStaking",
            "label": "token",
            "offset": 0,
            "slot": "0",
            "type": "t_address"
          },
          {
            "astId": 31046,
            "contract": "contracts/staking/LiquidityPoolStaking.sol:LiquidityPoolStaking",
            "label": "start",
            "offset": 20,
            "slot": "0",
            "type": "t_uint48"
          },
          {
            "astId": 31048,
            "contract": "contracts/staking/LiquidityPoolStaking.sol:LiquidityPoolStaking",
            "label": "end",
            "offset": 26,
            "slot": "0",
            "type": "t_uint48"
          },
          {
            "astId": 31050,
            "contract": "contracts/staking/LiquidityPoolStaking.sol:LiquidityPoolStaking",
            "label": "totalReward",
            "offset": 0,
            "slot": "1",
            "type": "t_uint256"
          },
          {
            "astId": 31052,
            "contract": "contracts/staking/LiquidityPoolStaking.sol:LiquidityPoolStaking",
            "label": "totalStaked",
            "offset": 0,
            "slot": "2",
            "type": "t_uint256"
          }
        ],
        "numberOfBytes": "96"
      },
      "t_struct(Stake)31068_storage": {
        "encoding": "inplace",
        "label": "struct ILiquidityPoolStaking.Stake",
        "members": [
          {
            "astId": 31055,
            "contract": "contracts/staking/LiquidityPoolStaking.sol:LiquidityPoolStaking",
            "label": "staker",
            "offset": 0,
            "slot": "0",
            "type": "t_address"
          },
          {
            "astId": 31057,
            "contract": "contracts/staking/LiquidityPoolStaking.sol:LiquidityPoolStaking",
            "label": "farmId",
            "offset": 0,
            "slot": "1",
            "type": "t_uint256"
          },
          {
            "astId": 31059,
            "contract": "contracts/staking/LiquidityPoolStaking.sol:LiquidityPoolStaking",
            "label": "start",
            "offset": 0,
            "slot": "2",
            "type": "t_uint48"
          },
          {
            "astId": 31061,
            "contract": "contracts/staking/LiquidityPoolStaking.sol:LiquidityPoolStaking",
            "label": "end",
            "offset": 6,
            "slot": "2",
            "type": "t_uint48"
          },
          {
            "astId": 31063,
            "contract": "contracts/staking/LiquidityPoolStaking.sol:LiquidityPoolStaking",
            "label": "lastClaimedAt",
            "offset": 12,
            "slot": "2",
            "type": "t_uint48"
          },
          {
            "astId": 31065,
            "contract": "contracts/staking/LiquidityPoolStaking.sol:LiquidityPoolStaking",
            "label": "amount",
            "offset": 0,
            "slot": "3",
            "type": "t_uint256"
          },
          {
            "astId": 31067,
            "contract": "contracts/staking/LiquidityPoolStaking.sol:LiquidityPoolStaking",
            "label": "rewardClaimed",
            "offset": 0,
            "slot": "4",
            "type": "t_uint256"
          }
        ],
        "numberOfBytes": "160"
      },
      "t_uint256": {
        "encoding": "inplace",
        "label": "uint256",
        "numberOfBytes": "32"
      },
      "t_uint48": {
        "encoding": "inplace",
        "label": "uint48",
        "numberOfBytes": "6"
      },
      "t_uint8": {
        "encoding": "inplace",
        "label": "uint8",
        "numberOfBytes": "1"
      }
    }
  }
}