{
  "address": "0x610247e8462159197ee6172b05d3508C7D4254F8",
  "abi": [
    {
      "inputs": [
        {
          "internalType": "uint256",
          "name": "auctionId",
          "type": "uint256"
        },
        {
          "internalType": "enum AuctionStatus",
          "name": "status",
          "type": "uint8"
        }
      ],
      "name": "AuctionInvalidStatus",
      "type": "error"
    },
    {
      "inputs": [],
      "name": "AuctionNotRegistered",
      "type": "error"
    },
    {
      "inputs": [],
      "name": "CollateralOwnershipNotTransferred",
      "type": "error"
    },
    {
      "inputs": [],
      "name": "IncompleteStepDownConfig",
      "type": "error"
    },
    {
      "inputs": [],
      "name": "InexactFraction",
      "type": "error"
    },
    {
      "inputs": [
        {
          "internalType": "uint256",
          "name": "startAmount",
          "type": "uint256"
        },
        {
          "internalType": "uint256",
          "name": "endAmount",
          "type": "uint256"
        }
      ],
      "name": "InvalidPriceRange",
      "type": "error"
    },
    {
      "inputs": [],
      "name": "InvalidStepDownConfig",
      "type": "error"
    },
    {
      "inputs": [
        {
          "internalType": "uint256",
          "name": "startTime",
          "type": "uint256"
        },
        {
          "internalType": "uint256",
          "name": "endTime",
          "type": "uint256"
        }
      ],
      "name": "InvalidTimeRange",
      "type": "error"
    },
    {
      "inputs": [],
      "name": "NotAuthorized",
      "type": "error"
    },
    {
      "inputs": [],
      "name": "ProtectionNotOver",
      "type": "error"
    },
    {
      "inputs": [],
      "name": "ProtectionOver",
      "type": "error"
    },
    {
      "inputs": [],
      "name": "StepDownConfigAndAuctionTimeMismatch",
      "type": "error"
    },
    {
      "inputs": [],
      "name": "StepDownConfigOverflow",
      "type": "error"
    },
    {
      "anonymous": false,
      "inputs": [
        {
          "indexed": false,
          "internalType": "address",
          "name": "previousAdmin",
          "type": "address"
        },
        {
          "indexed": false,
          "internalType": "address",
          "name": "newAdmin",
          "type": "address"
        }
      ],
      "name": "AdminChanged",
      "type": "event"
    },
    {
      "anonymous": false,
      "inputs": [
        {
          "indexed": true,
          "internalType": "address",
          "name": "beacon",
          "type": "address"
        }
      ],
      "name": "BeaconUpgraded",
      "type": "event"
    },
    {
      "anonymous": false,
      "inputs": [
        {
          "indexed": false,
          "internalType": "uint8",
          "name": "version",
          "type": "uint8"
        }
      ],
      "name": "Initialized",
      "type": "event"
    },
    {
      "anonymous": false,
      "inputs": [
        {
          "indexed": true,
          "internalType": "uint256",
          "name": "auctionId",
          "type": "uint256"
        },
        {
          "indexed": false,
          "internalType": "uint256",
          "name": "loanId",
          "type": "uint256"
        },
        {
          "indexed": false,
          "internalType": "address",
          "name": "tokenAddr",
          "type": "address"
        },
        {
          "indexed": false,
          "internalType": "address",
          "name": "paymentToken",
          "type": "address"
        },
        {
          "indexed": false,
          "internalType": "address",
          "name": "loanBorrower",
          "type": "address"
        },
        {
          "indexed": false,
          "internalType": "uint256",
          "name": "tokenId",
          "type": "uint256"
        },
        {
          "indexed": false,
          "internalType": "uint256",
          "name": "startAmount",
          "type": "uint256"
        },
        {
          "indexed": false,
          "internalType": "uint256",
          "name": "endAmount",
          "type": "uint256"
        },
        {
          "indexed": false,
          "internalType": "uint256",
          "name": "startTime",
          "type": "uint256"
        },
        {
          "indexed": false,
          "internalType": "uint256",
          "name": "endTime",
          "type": "uint256"
        },
        {
          "indexed": false,
          "internalType": "uint256",
          "name": "protectedUntil",
          "type": "uint256"
        },
        {
          "indexed": false,
          "internalType": "uint256",
          "name": "loanRepaymentAmount",
          "type": "uint256"
        },
        {
          "indexed": false,
          "internalType": "bytes",
          "name": "stepDownConfig",
          "type": "bytes"
        }
      ],
      "name": "LoanAuctionBegun",
      "type": "event"
    },
    {
      "anonymous": false,
      "inputs": [
        {
          "indexed": true,
          "internalType": "uint256",
          "name": "auctionId",
          "type": "uint256"
        },
        {
          "indexed": false,
          "internalType": "address",
          "name": "borrower",
          "type": "address"
        },
        {
          "indexed": false,
          "internalType": "uint256",
          "name": "payout",
          "type": "uint256"
        }
      ],
      "name": "LoanAuctionCancelledByPayout",
      "type": "event"
    },
    {
      "anonymous": false,
      "inputs": [
        {
          "indexed": true,
          "internalType": "uint256",
          "name": "auctionId",
          "type": "uint256"
        },
        {
          "indexed": false,
          "internalType": "address",
          "name": "bidder",
          "type": "address"
        },
        {
          "indexed": false,
          "internalType": "address",
          "name": "borrower",
          "type": "address"
        },
        {
          "indexed": false,
          "internalType": "uint256",
          "name": "bidAmount",
          "type": "uint256"
        }
      ],
      "name": "LoanAuctionSoldAndProtected",
      "type": "event"
    },
    {
      "anonymous": false,
      "inputs": [
        {
          "indexed": true,
          "internalType": "uint256",
          "name": "auctionId",
          "type": "uint256"
        },
        {
          "indexed": false,
          "internalType": "address",
          "name": "bidder",
          "type": "address"
        },
        {
          "indexed": false,
          "internalType": "uint256",
          "name": "bidAmount",
          "type": "uint256"
        }
      ],
      "name": "LoanAuctionSoldToBidder",
      "type": "event"
    },
    {
      "anonymous": false,
      "inputs": [
        {
          "indexed": true,
          "internalType": "address",
          "name": "previousOwner",
          "type": "address"
        },
        {
          "indexed": true,
          "internalType": "address",
          "name": "newOwner",
          "type": "address"
        }
      ],
      "name": "OwnershipTransferred",
      "type": "event"
    },
    {
      "anonymous": false,
      "inputs": [
        {
          "indexed": true,
          "internalType": "address",
          "name": "implementation",
          "type": "address"
        }
      ],
      "name": "Upgraded",
      "type": "event"
    },
    {
      "inputs": [],
      "name": "__MWOwnable_init",
      "outputs": [],
      "stateMutability": "nonpayable",
      "type": "function"
    },
    {
      "inputs": [],
      "name": "auctionCount",
      "outputs": [
        {
          "internalType": "uint256",
          "name": "",
          "type": "uint256"
        }
      ],
      "stateMutability": "view",
      "type": "function"
    },
    {
      "inputs": [
        {
          "internalType": "uint256",
          "name": "",
          "type": "uint256"
        }
      ],
      "name": "auctions",
      "outputs": [
        {
          "internalType": "uint256",
          "name": "id",
          "type": "uint256"
        },
        {
          "internalType": "uint256",
          "name": "protectedUntil",
          "type": "uint256"
        },
        {
          "components": [
            {
              "internalType": "uint256",
              "name": "loanId",
              "type": "uint256"
            },
            {
              "internalType": "address",
              "name": "tokenAddress",
              "type": "address"
            },
            {
              "internalType": "address",
              "name": "paymentToken",
              "type": "address"
            },
            {
              "internalType": "uint256",
              "name": "tokenId",
              "type": "uint256"
            },
            {
              "internalType": "uint256",
              "name": "startAmount",
              "type": "uint256"
            },
            {
              "internalType": "uint256",
              "name": "endAmount",
              "type": "uint256"
            },
            {
              "internalType": "uint256",
              "name": "startTime",
              "type": "uint256"
            },
            {
              "internalType": "uint256",
              "name": "endTime",
              "type": "uint256"
            },
            {
              "internalType": "bytes",
              "name": "stepDownConfig",
              "type": "bytes"
            },
            {
              "internalType": "address",
              "name": "loanBorrower",
              "type": "address"
            },
            {
              "internalType": "uint256",
              "name": "loanAmount",
              "type": "uint256"
            },
            {
              "internalType": "uint256",
              "name": "loanRepaymentAmount",
              "type": "uint256"
            },
            {
              "internalType": "address",
              "name": "lender",
              "type": "address"
            },
            {
              "internalType": "bool",
              "name": "isProtected",
              "type": "bool"
            }
          ],
          "internalType": "struct AuctionParameters",
          "name": "parameters",
          "type": "tuple"
        }
      ],
      "stateMutability": "view",
      "type": "function"
    },
    {
      "inputs": [
        {
          "components": [
            {
              "internalType": "uint256",
              "name": "loanId",
              "type": "uint256"
            },
            {
              "internalType": "address",
              "name": "tokenAddress",
              "type": "address"
            },
            {
              "internalType": "address",
              "name": "paymentToken",
              "type": "address"
            },
            {
              "internalType": "uint256",
              "name": "tokenId",
              "type": "uint256"
            },
            {
              "internalType": "uint256",
              "name": "startAmount",
              "type": "uint256"
            },
            {
              "internalType": "uint256",
              "name": "endAmount",
              "type": "uint256"
            },
            {
              "internalType": "uint256",
              "name": "startTime",
              "type": "uint256"
            },
            {
              "internalType": "uint256",
              "name": "endTime",
              "type": "uint256"
            },
            {
              "internalType": "bytes",
              "name": "stepDownConfig",
              "type": "bytes"
            },
            {
              "internalType": "address",
              "name": "loanBorrower",
              "type": "address"
            },
            {
              "internalType": "uint256",
              "name": "loanAmount",
              "type": "uint256"
            },
            {
              "internalType": "uint256",
              "name": "loanRepaymentAmount",
              "type": "uint256"
            },
            {
              "internalType": "address",
              "name": "lender",
              "type": "address"
            },
            {
              "internalType": "bool",
              "name": "isProtected",
              "type": "bool"
            }
          ],
          "internalType": "struct AuctionParameters",
          "name": "params",
          "type": "tuple"
        }
      ],
      "name": "beginAuction",
      "outputs": [],
      "stateMutability": "nonpayable",
      "type": "function"
    },
    {
      "inputs": [
        {
          "internalType": "uint256",
          "name": "",
          "type": "uint256"
        }
      ],
      "name": "bidAmounts",
      "outputs": [
        {
          "internalType": "uint256",
          "name": "",
          "type": "uint256"
        }
      ],
      "stateMutability": "view",
      "type": "function"
    },
    {
      "inputs": [
        {
          "internalType": "uint256",
          "name": "",
          "type": "uint256"
        }
      ],
      "name": "bidders",
      "outputs": [
        {
          "internalType": "address",
          "name": "",
          "type": "address"
        }
      ],
      "stateMutability": "view",
      "type": "function"
    },
    {
      "inputs": [
        {
          "internalType": "uint256",
          "name": "auctionId",
          "type": "uint256"
        }
      ],
      "name": "claim",
      "outputs": [],
      "stateMutability": "nonpayable",
      "type": "function"
    },
    {
      "inputs": [
        {
          "internalType": "uint256",
          "name": "auctionId",
          "type": "uint256"
        }
      ],
      "name": "currentBidPrice",
      "outputs": [
        {
          "internalType": "uint256",
          "name": "amount",
          "type": "uint256"
        }
      ],
      "stateMutability": "view",
      "type": "function"
    },
    {
      "inputs": [
        {
          "internalType": "uint256",
          "name": "auctionId",
          "type": "uint256"
        }
      ],
      "name": "currentDebt",
      "outputs": [
        {
          "internalType": "uint256",
          "name": "debt",
          "type": "uint256"
        }
      ],
      "stateMutability": "view",
      "type": "function"
    },
    {
      "inputs": [],
      "name": "decrementInterval",
      "outputs": [
        {
          "internalType": "uint256",
          "name": "",
          "type": "uint256"
        }
      ],
      "stateMutability": "view",
      "type": "function"
    },
    {
      "inputs": [
        {
          "internalType": "address",
          "name": "_periFiAdminAddr",
          "type": "address"
        },
        {
          "internalType": "address",
          "name": "_loanRepaymentAddr",
          "type": "address"
        }
      ],
      "name": "initialize",
      "outputs": [],
      "stateMutability": "nonpayable",
      "type": "function"
    },
    {
      "inputs": [],
      "name": "loanRepaymentAddr",
      "outputs": [
        {
          "internalType": "address",
          "name": "",
          "type": "address"
        }
      ],
      "stateMutability": "view",
      "type": "function"
    },
    {
      "inputs": [
        {
          "internalType": "uint256",
          "name": "auctionId",
          "type": "uint256"
        }
      ],
      "name": "makeBid",
      "outputs": [
        {
          "internalType": "bool",
          "name": "completed",
          "type": "bool"
        }
      ],
      "stateMutability": "nonpayable",
      "type": "function"
    },
    {
      "inputs": [],
      "name": "owner",
      "outputs": [
        {
          "internalType": "address",
          "name": "",
          "type": "address"
        }
      ],
      "stateMutability": "view",
      "type": "function"
    },
    {
      "inputs": [
        {
          "internalType": "uint256",
          "name": "auctionId",
          "type": "uint256"
        }
      ],
      "name": "payout",
      "outputs": [],
      "stateMutability": "nonpayable",
      "type": "function"
    },
    {
      "inputs": [],
      "name": "periFiAdminAddr",
      "outputs": [
        {
          "internalType": "address",
          "name": "",
          "type": "address"
        }
      ],
      "stateMutability": "view",
      "type": "function"
    },
    {
      "inputs": [],
      "name": "proxiableUUID",
      "outputs": [
        {
          "internalType": "bytes32",
          "name": "",
          "type": "bytes32"
        }
      ],
      "stateMutability": "view",
      "type": "function"
    },
    {
      "inputs": [],
      "name": "renounceOwnership",
      "outputs": [],
      "stateMutability": "nonpayable",
      "type": "function"
    },
    {
      "inputs": [
        {
          "internalType": "uint256",
          "name": "",
          "type": "uint256"
        }
      ],
      "name": "status",
      "outputs": [
        {
          "internalType": "enum AuctionStatus",
          "name": "",
          "type": "uint8"
        }
      ],
      "stateMutability": "view",
      "type": "function"
    },
    {
      "inputs": [
        {
          "internalType": "address",
          "name": "newOwner",
          "type": "address"
        }
      ],
      "name": "transferOwnership",
      "outputs": [],
      "stateMutability": "nonpayable",
      "type": "function"
    },
    {
      "inputs": [
        {
          "internalType": "uint256",
          "name": "intervalInSec",
          "type": "uint256"
        }
      ],
      "name": "updateDecrementInterval",
      "outputs": [],
      "stateMutability": "nonpayable",
      "type": "function"
    },
    {
      "inputs": [
        {
          "internalType": "address",
          "name": "newImplementation",
          "type": "address"
        }
      ],
      "name": "upgradeTo",
      "outputs": [],
      "stateMutability": "nonpayable",
      "type": "function"
    },
    {
      "inputs": [
        {
          "internalType": "address",
          "name": "newImplementation",
          "type": "address"
        },
        {
          "internalType": "bytes",
          "name": "data",
          "type": "bytes"
        }
      ],
      "name": "upgradeToAndCall",
      "outputs": [],
      "stateMutability": "payable",
      "type": "function"
    }
  ],
  "transactionHash": "0x7063edfc99b281ad7795d422b6f500f1a2d184067d18521e35dffbd781c05143",
  "args": [],
  "numDeployments": 1,
  "solcInputHash": "2b691191bd6bf894805fd6522b0009a2",
  "bytecode": "0x60a0604052346200011c576001600055306080526001546200003b60ff8260081c1615809281936200010d575b8115620000ea575b5062000121565b806200004e600160ff1981541617600155565b620000cf575b6200005e62000185565b6200008b575b6040516139be9081620001e6823960805181818161028701528181610e520152610fc20152f35b6200009c61ff001960015416600155565b604051600181527f7f26b83ff96e1f2b6a682f133852f6798a09c465da95921460cefb384740249890602090a162000064565b620000e461010061ff00196001541617600155565b62000054565b303b15915081620000fe575b503862000034565b6001915060ff161438620000f6565b600160ff82161091506200002c565b600080fd5b156200012957565b60405162461bcd60e51b815260206004820152602e60248201527f496e697469616c697a61626c653a20636f6e747261637420697320616c72656160448201526d191e481a5b9a5d1a585b1a5e995960921b6064820152608490fd5b60668054737e8ae5c72eca86946b695dcc211863d9721a09616001600160a01b0319821681179092556040516001600160a01b03909116907f8be0079c531659141344cd1fd0a4f28419497f9722a3daafe3b4186f6b6457e090600090a356fe60806040526004361015610013575b600080fd5b60003560e01c8063175b2304146101df5780632ad71573146101d65780633659cfe6146101cd578063379607f5146101c457806342d21ef7146101bb578063485cc955146101b25780634f1ef286146101a957806352d1902d146101a0578063571a26a01461019757806365b014b71461018e578063715018a6146101855780638da5cb5b1461017c5780639b3e45b414610173578063a754807a1461016a578063b8b9e29414610161578063bcb2966714610158578063c18c27751461014f578063cb0fc56d14610146578063cff29dfd1461013d578063d0f7146d14610134578063d126b4e51461012b578063e1152343146101225763f2fde38b1461011a57600080fd5b61000e611f39565b5061000e611a01565b5061000e61199c565b5061000e611974565b5061000e61193e565b5061000e61191f565b5061000e6118f7565b5061000e6118d0565b5061000e61153a565b5061000e61150d565b5061000e6114ee565b5061000e6114c6565b5061000e611463565b5061000e6113e2565b5061000e6112b2565b5061000e610fa6565b5061000e610e0c565b5061000e610bb7565b5061000e610b80565b5061000e610402565b5061000e61025d565b5061000e610220565b503461000e57602036600319011261000e576101f9612a7c565b6020610206600435612d6f565b60016000556040519015158152f35b600091031261000e57565b503461000e57600036600319011261000e576020609854604051908152f35b6001600160a01b0381160361000e57565b359061025b8261023f565b565b503461000e57602036600319011261000e5760043561027b8161023f565b6001600160a01b0390817f000000000000000000000000000000000000000000000000000000000000000016916102b483301415612007565b6102e37f360894a13ba1a3210667c828492db98dca3e2076cc3735a920a3ca505d382bbc938285541614612068565b6102eb61244c565b604051906102f882610d04565b600082527f4910fdfa16fed3260ed0e7147f7cc6da11a60208b5b9406d12a635614ffd91435460ff16156103345750506103329150612143565b005b6020600491604094939451928380926352d1902d60e01b825286165afa600091816103d2575b506103bf5760405162461bcd60e51b815260206004820152602e60248201527f45524331393637557067726164653a206e657720696d706c656d656e7461746960448201526d6f6e206973206e6f74205555505360901b6064820152608490fd5b0390fd5b610332936103cd91146120e5565b6121e1565b6103f491925060203d81116103fb575b6103ec8183610d3c565b8101906120c9565b903861035a565b503d6103e2565b503461000e57602036600319011261000e5761041c612a7c565b600261043e610437600435600052609a602052604060002090565b5460ff1690565b61044781610b53565b03610b1b5761046a6104656004356000526099602052604060002090565b612ae8565b602060408201519101514210610b09576104a061049461049460208401516001600160a01b031690565b6001600160a01b031690565b606082015190803b1561000e576040516323b872dd60e01b815230600482015233602482015260448101929092526000908290606490829084905af18015610afc575b610ae3575b5061050f610502600435600052609a602052604060002090565b805460ff19166003179055565b610525600435600052609b602052604060002090565b54600461054d6105408235600052609c602052604060002090565b546001600160a01b031690565b92610566610494610494609e546001600160a01b031690565b8151906000610160840151610140850151936105cc6105906101808801516001600160a01b031690565b604051968794859463b0a89bd960e01b86528b860192936001600160a01b03919594606093608086019786526020860152604085015216910152565b0381845afa918215610ad6575b600092610aae575b5060209060405194858092629cbddd60e11b82525afa928315610aa1575b600093610a70575b5061061f61049460408401516001600160a01b031690565b6040516370a0823160e01b81526001600160a01b0385166004820152909385929091602081806024810103816001600160a01b038a165afa908115610a63575b600091610a44575b50815160005b8181106107ac575b5050505050917feaa5e39b43e701893bc019e42337b913a8c5cdce162a87d5a36b0f75c4bfd0d59391836106d1946106de575b5050506040519182916004359583602090939291936001600160a01b0360408201951681520152565b0390a26103326001600055565b6107589261071c6101206020940161070f8461070183516001600160a01b031690565b3061070a612c60565b61392e565b516001600160a01b031690565b60006001600160a01b0360405180978196829563a9059cbb60e01b845260048401602090939291936001600160a01b0360408201951681520152565b0393165af1801561079f575b610770575b80806106a8565b6107919060203d602011610798575b6107898183610d3c565b810190612b36565b5038610769565b503d61077f565b6107a76120d8565b610764565b6107b68185612c3e565b51936020850151876109c3575b85516001600160a01b03166001600160a01b0381166001600160a01b038916146109b5576107fb6107f76040890151151590565b1590565b6109b55781861015610922575050505050916106d1959391837feaa5e39b43e701893bc019e42337b913a8c5cdce162a87d5a36b0f75c4bfd0d598969461084a575b8496985083959750610675565b6108de928261087383610866602096516001600160a01b031690565b61086e612d2c565b6138c1565b60006001600160a01b036108a261089460408b01516001600160a01b031690565b93516001600160a01b031690565b60405163276d76f960e21b81526001600160a01b0394851660048201529316602484015260448301949094529094859384929183906064820190565b0393165af18015610915575b6108f6575b808061083d565b61090e9060203d602011610798576107898183610d3c565b50386108ef565b61091d6120d8565b6108ea565b946109646020838a61097b96989a60008f6108a261089460406109819d9f93610956896001600160a01b039661086e612cf3565b01516001600160a01b031690565b0393165af180156109a8575b610989575b50612c99565b92612c17565b92909261066d565b6109a19060203d602011610798576107898183610d3c565b5038610975565b6109b06120d8565b610970565b505091935061098190612c17565b89818993991015610a13575090610a0a916109f2826109e989516001600160a01b031690565b3061070a612cb0565b6109646020838d61071c8b516001600160a01b031690565b956000966107c3565b91610964602083610a3e9561071c8b61070f6109819a9f9b9d6107018691516001600160a01b031690565b95612c17565b610a5d915060203d6020116103fb576103ec8183610d3c565b38610667565b610a6b6120d8565b61065f565b610a9391935060203d602011610a9a575b610a8b8183610d3c565b8101906126b3565b9138610607565b503d610a81565b610aa96120d8565b6105ff565b6020919250610acf903d806000833e610ac78183610d3c565b810190612b4b565b91906105e1565b610ade6120d8565b6105d9565b80610af0610af692610cc7565b80610215565b386104e8565b610b046120d8565b6104e3565b604051632ab4e4b960e21b8152600490fd5b6103bb610b37610437600435600052609a602052604060002090565b604051635430ca1760e01b815291829160048035908401612ad2565b60051115610b5d57565b634e487b7160e01b600052602160045260246000fd5b906005821015610b5d5752565b503461000e57602036600319011261000e57600435600052609a602052602060ff60406000205416610bb56040518092610b73565bf35b503461000e57604036600319011261000e57600435610bd58161023f565b610c24602435610be48161023f565b60015492610c0960ff8560081c161580958196610ca2575b8115610c82575b506124f8565b83610c1b600160ff1981541617600155565b610c695761256a565b610c2a57005b610c3a61ff001960015416600155565b604051600181527f7f26b83ff96e1f2b6a682f133852f6798a09c465da95921460cefb384740249890602090a1005b610c7d61010061ff00196001541617600155565b61256a565b303b15915081610c94575b5038610c03565b6001915060ff161438610c8d565b600160ff8216109150610bfc565b50634e487b7160e01b600052604160045260246000fd5b67ffffffffffffffff8111610cdb57604052565b610ce3610cb0565b604052565b6060810190811067ffffffffffffffff821117610cdb57604052565b6020810190811067ffffffffffffffff821117610cdb57604052565b6040810190811067ffffffffffffffff821117610cdb57604052565b90601f8019910116810190811067ffffffffffffffff821117610cdb57604052565b604051906101c0820182811067ffffffffffffffff821117610cdb57604052565b6040519061025b82610ce8565b60209067ffffffffffffffff8111610daa575b601f01601f19160190565b610db2610cb0565b610d9f565b929192610dc382610d8c565b91610dd16040519384610d3c565b82948184528183011161000e578281602093846000960137010152565b9080601f8301121561000e57816020610e0993359101610db7565b90565b50604036600319011261000e57600435610e258161023f565b60243567ffffffffffffffff811161000e57610e45903690600401610dee565b906001600160a01b0391827f00000000000000000000000000000000000000000000000000000000000000001692610e7f84301415612007565b610eae7f360894a13ba1a3210667c828492db98dca3e2076cc3735a920a3ca505d382bbc948286541614612068565b610eb661244c565b7f4910fdfa16fed3260ed0e7147f7cc6da11a60208b5b9406d12a635614ffd91435460ff1615610eec5750506103329150612143565b6020600491604094939451928380926352d1902d60e01b825286165afa60009181610f86575b50610f735760405162461bcd60e51b815260206004820152602e60248201527f45524331393637557067726164653a206e657720696d706c656d656e7461746960448201526d6f6e206973206e6f74205555505360901b6064820152608490fd5b61033293610f8191146120e5565b6122cf565b610f9f91925060203d81116103fb576103ec8183610d3c565b9038610f12565b503461000e57600036600319011261000e576001600160a01b037f0000000000000000000000000000000000000000000000000000000000000000163003611017576040517f360894a13ba1a3210667c828492db98dca3e2076cc3735a920a3ca505d382bbc8152602090f35b0390f35b60405162461bcd60e51b815260206004820152603860248201527f555550535570677261646561626c653a206d757374206e6f742062652063616c60448201527f6c6564207468726f7567682064656c656761746563616c6c00000000000000006064820152608490fd5b90600182811c921680156110b2575b602083101461109c57565b634e487b7160e01b600052602260045260246000fd5b91607f1691611091565b90604051918260008254926110d084611082565b90818452600194858116908160001461113d57506001146110fa575b505061025b92500383610d3c565b9093915060005260209081600020936000915b81831061112557505061025b935082010138806110ec565b8554888401850152948501948794509183019161110d565b9550505050505060ff1916602083015261025b826040810138806110ec565b9061025b60ff600c61116c610d5e565b948054865261119861118860018301546001600160a01b031690565b6001600160a01b03166020880152565b6111bf6111af60028301546001600160a01b031690565b6001600160a01b03166040880152565b6003810154606087015260048101546080870152600581015460a0870152600681015460c0870152600781015460e08701526111fd600882016110bc565b61010087015261122b61121a60098301546001600160a01b031690565b6001600160a01b0316610120880152565b600a810154610140870152600b81015461016087015201546001600160a01b03811661018086015260a01c1615156101a0840152565b91908251928382526000905b84821061129a57509280602093941161128d575b601f01601f1916010190565b6000838284010152611281565b9060209081808285010151908286010152019061126d565b503461000e57602036600319011261000e576004356000526099602052604060002080546112e760026001840154930161115c565b60405192839283526020830152606060408301528051606083015261131c602082015160808401906001600160a01b03169052565b60408101516001600160a01b031660a0830152606081015160c0830152608081015160e083015261101360a0820151610100908185015260c08301519261012093848601526113d660e0820151926101409384880152820151926101c06113906101609582878b01526102208a0190611261565b96840151916113ad61018093848b01906001600160a01b03169052565b840151946101a095868a0152840151908801528201516101e08701906001600160a01b03169052565b01511515610200840152565b503461000e57600036600319011261000e5760ff60015460081c161561140a576103326124a4565b60405162461bcd60e51b815260206004820152602b60248201527f496e697469616c697a61626c653a20636f6e7472616374206973206e6f74206960448201526a6e697469616c697a696e6760a81b6064820152608490fd5b503461000e576000806003193601126114c35761147e61244c565b6066546001600160a01b03198116606655816001600160a01b0360405192167f8be0079c531659141344cd1fd0a4f28419497f9722a3daafe3b4186f6b6457e08284a3f35b80fd5b503461000e57600036600319011261000e5760206001600160a01b0360665416604051908152f35b503461000e57600036600319011261000e576020609f54604051908152f35b503461000e57602036600319011261000e57600435600052609b6020526020604060002054604051908152f35b503461000e5760031960203682011261000e5767ffffffffffffffff6004351161000e576101c0906004353603011261000e5761157561244c565b61157d612a7c565b609854611588610d7f565b90808252600060208301526115a2366004356004016125c5565b60408301526115bb6104946104946024600435016126a9565b6040516331a9108f60e11b815260048035606401359082015290602090829081806024810103915afa9081156118c3575b6000916118a4575b506001600160a01b03309116036118925760a460043501356084600435013511156118695760e4600435013560c4600435013510156118405760e46004350135421015611840578161168261168792611658610104600435016004356004016126c8565b9050611806575b61166e6101a4600435016126fb565b611775576000526099602052604060002090565b612875565b6116ad6116a0609854600052609a602052604060002090565b805460ff19166001179055565b6116c06116bb60985461271c565b609855565b7f9646b4a182fb1ac357dcde11fd0f02336fff19d5cd9177879d352d0fe85ba8198151916116f26024600435016126a9565b6106d16117036044600435016126a9565b926020611715610124600435016126a9565b91015161172d610104600435016004356004016126c8565b92909160405196879661016460043501359360e460043501359260c460043501359260a4600435013592608460043501359260646004350135928d60043560040135906129fc565b6117c560046020611794610494610494609d546001600160a01b031690565b60405163cf4e00cf60e01b815292839182905afa9081156117f9575b6000916117da575b5060c46004350135612738565b60208401526000526099602052604060002090565b6117f3915060203d6020116103fb576103ec8183610d3c565b386117b8565b6118016120d8565b6117b0565b61183b611828611821610104600435016004356004016126c8565b3691610db7565b60e4600435013560c46004350135613710565b61165f565b604051630e781b2360e31b815260c460048035918201359083015260e401356024820152604490fd5b6040516347cc0ae160e01b8152608460048035918201359083015260a401356024820152604490fd5b6040516355a5813d60e11b8152600490fd5b6118bd915060203d602011610a9a57610a8b8183610d3c565b386115f4565b6118cb6120d8565b6115ec565b503461000e57602036600319011261000e5760206118ef600435613512565b604051908152f35b503461000e57600036600319011261000e5760206001600160a01b03609d5416604051908152f35b503461000e57602036600319011261000e5760206118ef6004356135f3565b503461000e57602036600319011261000e57600435600052609c60205260206001600160a01b0360406000205416604051908152f35b503461000e57600036600319011261000e5760206001600160a01b03609e5416604051908152f35b503461000e57602036600319011261000e5760043580156119bc57609f55005b60405162461bcd60e51b815260206004820152601f60248201527f696e74657276616c206d757374206265206e6f6e2d7a65726f2076616c7565006044820152606490fd5b503461000e5760208060031936011261000e576004908135611a21612a7c565b611a3861043782600052609a602052604060002090565b92611a4284610b53565b600184141580611f25575b611f0a57611a68610465836000526099602052604060002090565b926040938481015190611a896104946101208401516001600160a01b031690565b3303611efa578201514211611eea576101608101958651906002600091611aaf81610b53565b14611d51575b611abe91612738565b95611ad8610494610494858501516001600160a01b031690565b606083015192813b1561000e5787516323b872dd60e01b80825230828901908152336020820152604081019690965294899360009183919082908490829060600103925af18015611d44575b611d31575b506000611b44610494610494609e546001600160a01b031690565b82519451906101408401519589611ba5611b696101808801516001600160a01b031690565b8851998a968795869563b0a89bd960e01b8752860192936001600160a01b03919594606093608086019786526020860152604085015216910152565b03915afa928315611d24575b600093611cff575b500151909390611bd1906001600160a01b0316610494565b908451946001600160a01b0360009316925b868110611c5e57600089897fd9778e84173ed82dd2bb850ad64fd44439124d54c442898c74f70496d817590d611c4e8e611c37611c2a85600052609a602052604060002090565b805460ff19166004179055565b845133815260208101919091529081906040820190565b0390a2611c5b6001600055565b51f35b80611cb787611c70611cd09486612c3e565b5181611c8382516001600160a01b031690565b9101518d518a8152338982019081526001600160a01b03909316602084015260408301919091529283918291606090910190565b038160008a5af18015611cf2575b611cd5575b50612c17565b611be3565b611ceb90883d8a11610798576107898183610d3c565b5038611cca565b611cfa6120d8565b611cc5565b91611d1b611bd19361049493953d8091833e610ac78183610d3c565b93915091611bb9565b611d2c6120d8565b611bb1565b80610af0611d3e92610cc7565b38611b29565b611d4c6120d8565b611b24565b50611d6685600052609b602052604060002090565b5490611d71826134bd565b6064900490858589860194898b83878951611d92906001600160a01b031690565b6001600160a01b03166001600160a01b0316611db885600052609c602052604060002090565b5484516323b872dd60e01b815233998101998a526001600160a01b0390911660208a0152604089019290925290968791908290036060019082905a90600091f18b8115610540611e2e610494610494611abe9e611e6f9c600098611e3f97611edd575b611ec0575b50516001600160a01b031690565b95600052609c602052604060002090565b92519687958694859363a9059cbb60e01b85528401602090939291936001600160a01b0360408201951681520152565b03925af18015611eb3575b611e96575b506000878152609b60205260408120559150611ab5565b611eac90863d8811610798576107898183610d3c565b5038611e7f565b611ebb6120d8565b611e7a565b611ed6908d803d10610798576107898183610d3c565b5038611e20565b611ee56120d8565b611e1b565b8451639ae4be8360e01b81528390fd5b855163ea8e4eb560e01b81528490fd5b6103bb84604051938493635430ca1760e01b85528401612ad2565b50611f2f84610b53565b6002841415611a4d565b503461000e57602036600319011261000e57600435611f578161023f565b611f5f61244c565b6001600160a01b03809116908115611fb35760009160665491816001600160a01b031984161760665560405192167f8be0079c531659141344cd1fd0a4f28419497f9722a3daafe3b4186f6b6457e08484a3f35b60405162461bcd60e51b815260206004820152602660248201527f4f776e61626c653a206e6577206f776e657220697320746865207a65726f206160448201526564647265737360d01b6064820152608490fd5b1561200e57565b60405162461bcd60e51b815260206004820152602c60248201527f46756e6374696f6e206d7573742062652063616c6c6564207468726f7567682060448201526b19195b1959d85d1958d85b1b60a21b6064820152608490fd5b1561206f57565b60405162461bcd60e51b815260206004820152602c60248201527f46756e6374696f6e206d7573742062652063616c6c6564207468726f7567682060448201526b6163746976652070726f787960a01b6064820152608490fd5b9081602091031261000e575190565b506040513d6000823e3d90fd5b156120ec57565b60405162461bcd60e51b815260206004820152602960248201527f45524331393637557067726164653a20756e737570706f727465642070726f786044820152681a58589b195555525160ba1b6064820152608490fd5b803b15612186576001600160a01b037f360894a13ba1a3210667c828492db98dca3e2076cc3735a920a3ca505d382bbc91166001600160a01b0319825416179055565b60405162461bcd60e51b815260206004820152602d60248201527f455243313936373a206e657720696d706c656d656e746174696f6e206973206e60448201526c1bdd08184818dbdb9d1c9858dd609a1b6064820152608490fd5b6121ea81612143565b604051906000906001600160a01b0381167fbc7cd75a20ee27fd9adebab32041f755214dbc6bffa90cc0225b39da2e5c2d3b8385a28351158015906122c8575b612235575b50505050565b81806122b59561224486610ce8565b602786527f416464726573733a206c6f772d6c6576656c2064656c65676174652063616c6c6020870152660819985a5b195960ca1b6040870152602081519101845af4903d156122bf573d61229881610d8c565b906122a66040519283610d3c565b8152809360203d92013e6123b3565b503880808061222f565b606092506123b3565b508161222a565b6122d881612143565b604051906001600160a01b0381167fbc7cd75a20ee27fd9adebab32041f755214dbc6bffa90cc0225b39da2e5c2d3b600084a28251158015906123ab575b61231f57505050565b6000806123a09461232f85610ce8565b602785527f416464726573733a206c6f772d6c6576656c2064656c65676174652063616c6c6020860152660819985a5b195960ca1b6040860152602081519101845af43d156123a3573d9161238383610d8c565b926123916040519485610d3c565b83523d6000602085013e6123b3565b50565b6060916123b3565b506001612316565b9192901561241557508151156123c7575090565b3b156123d05790565b60405162461bcd60e51b815260206004820152601d60248201527f416464726573733a2063616c6c20746f206e6f6e2d636f6e74726163740000006044820152606490fd5b8251909150156124285750805190602001fd5b60405162461bcd60e51b8152602060048201529081906103bb906024830190611261565b6001600160a01b0360665416330361246057565b606460405162461bcd60e51b815260206004820152602060248201527f4f776e61626c653a2063616c6c6572206973206e6f7420746865206f776e65726044820152fd5b6066546001600160a01b03737e8ae5c72eca86946b695dcc211863d9721a096191828219821617606655167f8be0079c531659141344cd1fd0a4f28419497f9722a3daafe3b4186f6b6457e06000604051a3565b156124ff57565b60405162461bcd60e51b815260206004820152602e60248201527f496e697469616c697a61626c653a20636f6e747261637420697320616c72656160448201527f647920696e697469616c697a65640000000000000000000000000000000000006064820152608490fd5b906001600160a01b0390816001600160a01b0319931683609d541617609d551690609e541617609e5562015180609f5560ff60015460081c161561140a5761025b6124a4565b8015150361000e57565b359061025b826125b0565b9190916101c08184031261000e576125db610d5e565b92813584526125ec60208301610250565b60208501526125fd60408301610250565b6040850152606082013560608501526080820135608085015260a082013560a085015260c082013560c085015260e082013560e085015261010090818301359067ffffffffffffffff821161000e57612657918401610dee565b90840152610120612669818301610250565b9084015261014080820135908401526101608082013590840152610180612691818301610250565b908401526126a36101a08092016125ba565b90830152565b35610e098161023f565b9081602091031261000e5751610e098161023f565b903590601e198136030182121561000e570180359067ffffffffffffffff821161000e5760200191813603831361000e57565b35610e09816125b0565b50634e487b7160e01b600052601160045260246000fd5b600190600119811161272c570190565b612734612705565b0190565b8119811161272c570190565b90601f811161275257505050565b600091825260208220906020601f850160051c8301941061278e575b601f0160051c01915b82811061278357505050565b818155600101612777565b909250829061276e565b919091825167ffffffffffffffff8111612868575b6127c1816127bb8454611082565b84612744565b602080601f83116001146127fd5750819293946000926127f2575b50508160011b916000199060031b1c1916179055565b0151905038806127dc565b90601f1983169561281385600052602060002090565b926000905b88821061285057505083600195969710612837575b505050811b019055565b015160001960f88460031b161c1916905538808061282d565b80600185968294968601518155019501930190612818565b612870610cb0565b6127ad565b6129e26101a0600e604061025b958051865560208101516001870155015193845160028201556128d16128b260208701516001600160a01b031690565b60038301906001600160a01b03166001600160a01b0319825416179055565b6129076128e860408701516001600160a01b031690565b60048301906001600160a01b03166001600160a01b0319825416179055565b606085015160058201556080850151600682015560a0850151600782015560c0850151600882015560e0850151600982015561294b610100860151600a8301612798565b6129826129636101208701516001600160a01b031690565b600b8301906001600160a01b03166001600160a01b0319825416179055565b610140850151600c820155610160850151600d82015501926129db6129b26101808301516001600160a01b031690565b855473ffffffffffffffffffffffffffffffffffffffff19166001600160a01b03909116178555565b0151151590565b815460ff60a01b191690151560a01b60ff60a01b16179055565b9b9c9a999897969594939190926020938d528c6001600160a01b0394858094169101521660408c01521660608a0152608089015260a088015260c087015260e08601526101008501526101208401526101408301528061018080610160850152830152806101a093848401376000828201840152601f01601f1916010190565b600260005414612a8d576002600055565b60405162461bcd60e51b815260206004820152601f60248201527f5265656e7472616e637947756172643a207265656e7472616e742063616c6c006044820152606490fd5b90815260408101929161025b9160200190610b73565b906040516060810181811067ffffffffffffffff821117612b29575b6040526040612b246002839580548552600181015460208601520161115c565b910152565b612b31610cb0565b612b04565b9081602091031261000e5751610e09816125b0565b6020808284031261000e57815167ffffffffffffffff9283821161000e57019083601f8301121561000e578151928311612c0a575b604093845194612b95838660051b0187610d3c565b848652828601918360608097028601019481861161000e578401925b858410612bc2575050505050505090565b868483031261000e578487918451612bd981610ce8565b8651612be48161023f565b8152828701518382015285870151612bfb816125b0565b86820152815201930192612bb1565b612c12610cb0565b612b80565b600190600019811461272c570190565b50634e487b7160e01b600052603260045260246000fd5b6020918151811015612c53575b60051b010190565b612c5b612c27565b612c4b565b60405190612c6d82610d20565b601982527f73656e64696e672066726f6d20257320746f2025732c202573000000000000006020830152565b818110612ca4570390565b612cac612705565b0390565b60405190612cbd82610ce8565b60218252607360f81b6040837f73656e64696e67207061727469616c2066726f6d20257320746f2025732c202560208201520152565b60405190612d0082610d20565b601982527f73656e64696e672066726f6d20495620746f2025732c202573000000000000006020830152565b60405190612d3982610ce8565b60218252607360f81b6040837f73656e64696e67207061727469616c2066726f6d20495620746f2025732c202560208201520152565b906001612d8961043784600052609a602052604060002090565b612d9281610b53565b0361348857612da0826135f3565b91612db8610465826000526099602052604060002090565b9260206040850151940151421061333957612de361049461049460208701516001600160a01b031690565b606085015190803b1561000e576040516323b872dd60e01b815230600482015233602482015260448101929092526000908290606490829084905af1801561332c575b613319575b50612e44610494610494609e546001600160a01b031690565b93805194600061016083015161014084015197612eac612e6f6101808701516001600160a01b031690565b6040519a8b94859463b0a89bd960e01b86526004860192936001600160a01b03919594606093608086019786526020860152604085015216910152565b0381845afa95861561330c575b6000966132e7575b5090602060049260405193848092629cbddd60e11b82525afa9182156132da575b6000926132b9575b50612f0261049460408301516001600160a01b031690565b6040516370a0823160e01b81526001600160a01b038416600482015290928491602081806024810103816001600160a01b0389165afa9081156132ac575b60009161328d575b50885160005b818110613074575b50505050612fc1959650849361050295937feaa5e39b43e701893bc019e42337b913a8c5cdce162a87d5a36b0f75c4bfd0d59383612fae94612fc6575b50506040805133815260208101939093529192839283019150565b0390a2600052609a602052604060002090565b600190565b61303092612ff26101206020940161070f84612fe983516001600160a01b031690565b3361070a612c60565b6040516323b872dd60e01b81523360048201526001600160a01b03918216602482015260448101939093529193849283916000919083906064820190565b0393165af18015613067575b613048575b8080612f93565b6130609060203d602011610798576107898183610d3c565b5038613041565b61306f6120d8565b61303c565b61307e818c612c3e565b519a60208c01518661321a575b8c516001600160a01b03166001600160a01b0381166001600160a01b0388161461320c576130bf6107f78f60400151151590565b61320c5781861015613180575050505050937feaa5e39b43e701893bc019e42337b913a8c5cdce162a87d5a36b0f75c4bfd0d593612fae93889793612fc19a9b886105029b99613120575b505050938a995083975082969850819550612f56565b61313c928261087383610866602096516001600160a01b031690565b0393165af18015613173575b613154575b808061310a565b61316c9060203d602011610798576107898183610d3c565b503861314d565b61317b6120d8565b613148565b9481602061097b94969f6131b26131a460408e610956876132049c9e61086e612cf3565b91516001600160a01b031690565b60405163276d76f960e21b81526001600160a01b039283166004820152911660248201526044810192909252818060648101038160006001600160a01b038d165af180156109a8576109895750612c99565b999099612f4e565b5050919a5061320490612c17565b80879297101561325c57906132539161096460208f8c612ff28261070f8861324a8196516001600160a01b031690565b3361070a612cb0565b9460009561308b565b6132879161096460206132049599969f8c612ff28261070f88612fe98196516001600160a01b031690565b94612c17565b6132a6915060203d6020116103fb576103ec8183610d3c565b38612f48565b6132b46120d8565b612f40565b6132d391925060203d602011610a9a57610a8b8183610d3c565b9038612eea565b6132e26120d8565b612ee2565b6004929196506133036020913d806000833e610ac78183610d3c565b96919250612ec1565b6133146120d8565b612eb9565b80610af061332692610cc7565b38612e2b565b6133346120d8565b612e26565b6134356101208561337d61049461049460407f3005fc6b3bb46c08e0cf129dca16ec43a82367c23823eddfdfbb7a1c41f4c35b98999a01516001600160a01b031690565b6040516323b872dd60e01b81523360048201523060248201526044810186905290602090829060649082906000905af1801561347b575b61345c575b506133ed336133d288600052609c602052604060002090565b906001600160a01b03166001600160a01b0319825416179055565b61341161340487600052609a602052604060002090565b805460ff19166002179055565b8361342687600052609b602052604060002090565b5501516001600160a01b031690565b604080513381526001600160a01b03929092166020830152810191909152606090a2600090565b6134749060203d602011610798576107898183610d3c565b50386133b9565b6134836120d8565b6133b4565b506134a061043782600052609a602052604060002090565b604051635430ca1760e01b81529182916103bb9160048401612ad2565b60059080600019048211811515166134d3570290565b6134db612705565b0290565b80600019048211811515166134d3570290565b81156134fc570490565b634e487b7160e01b600052601260045260246000fd5b61352961043782600052609a602052604060002090565b61353281610b53565b6001811415806135df575b6135d857604061355a610465846000526099602052604060002090565b0151916135756104946101208501516001600160a01b031690565b33036135d057610160610e0993015190600260009361359381610b53565b1461359f575b50612738565b6135c99192506135bc6135c291600052609b602052604060002090565b546134bd565b6064900490565b9038613599565b505050600090565b5050600090565b506135e981610b53565b600281141561353d565b600161360c61043783600052609a602052604060002090565b61361581610b53565b0361367f576136336104656040926000526099602052604060002090565b01516101008101908151511561365f57610e099160808201519160c060a0820151910151915192613806565b610e09915060808101519060a081015160e060c083015192015192613685565b50600090565b90928382036136945750505090565b926136b86136be926136b285600196970396420391828803906134df565b926134df565b90612738565b91600019830104019015150290565b9060209180518210156136df57010190565b6136e7612c27565b010190565b60ff6001911660ff811461272c570190565b60ff6002911660fd811161272c570190565b908251156137f45760008093805190825b82841061377c575b505050509061373791612c99565b61375a609f5460ff61375461374e838388166134df565b956136fe565b166134df565b9181111561376a57101561376a57565b604051633176730d60e21b8152600490fd5b60ff9692939690816137c06137ba6137948b876136cd565b517fff000000000000000000000000000000000000000000000000000000000000001690565b60f81c90565b169182146137eb576137d86137e4926137de92612738565b936136ec565b96612c17565b9291613721565b50829650613729565b60405163431abebf60e01b8152600490fd5b92909192828103613818575050905090565b60009161382b8395609f549042036134f2565b81519084925b82841061385b575b50505050916136b8826136b26001956138556136be9689612c99565b906134df565b9091929660ff90816138736137ba6137948c876136cd565b169182146138ba5783891061389e575b6138969161389091612738565b97612c17565b929190613831565b95816138b06138969361389093612738565b9791509150613883565b9750613839565b613913906138f99261025b946001600160a01b03604051958694630d26b92560e01b6020870152606060248701526084860190611261565b92166044840152606483015203601f198101835282610d3c565b600080916020815191016a636f6e736f6c652e6c6f675afa50565b61395e9261025b9461391393604051958694638ef3f39960e01b60208701526080602487015260a4860190611261565b6001600160a01b03918216604486015292166064840152608483015203601f198101835282610d3c56fea26469706673582212206ab94e3513937d6ecfa452c52f16c2ce81a561b62e6808d844abcc9854fae5b864736f6c634300080e0033",
  "devdoc": {
    "errors": {
      "InexactFraction()": [
        {
          "details": "Revert with an error when attempting to apply a fraction as part of      a partial fill that does not divide the target amount cleanly."
        }
      ]
    },
    "kind": "dev",
    "methods": {
      "owner()": {
        "details": "Returns the address of the current owner."
      },
      "proxiableUUID()": {
        "details": "Implementation of the ERC1822 {proxiableUUID} function. This returns the storage slot used by the implementation. It is used to validate the implementation's compatibility when performing an upgrade. IMPORTANT: A proxy pointing at a proxiable contract should not be considered proxiable itself, because this risks bricking a proxy that upgrades to it, by delegating to itself until out of gas. Thus it is critical that this function revert if invoked through a proxy. This is guaranteed by the `notDelegated` modifier."
      },
      "renounceOwnership()": {
        "details": "Leaves the contract without owner. It will not be possible to call `onlyOwner` functions anymore. Can only be called by the current owner. NOTE: Renouncing ownership will leave the contract without an owner, thereby removing any functionality that is only available to the owner."
      },
      "transferOwnership(address)": {
        "details": "Transfers ownership of the contract to a new account (`newOwner`). Can only be called by the current owner."
      },
      "upgradeTo(address)": {
        "custom:oz-upgrades-unsafe-allow-reachable": "delegatecall",
        "details": "Upgrade the implementation of the proxy to `newImplementation`. Calls {_authorizeUpgrade}. Emits an {Upgraded} event."
      },
      "upgradeToAndCall(address,bytes)": {
        "custom:oz-upgrades-unsafe-allow-reachable": "delegatecall",
        "details": "Upgrade the implementation of the proxy to `newImplementation`, and subsequently execute the function call encoded in `data`. Calls {_authorizeUpgrade}. Emits an {Upgraded} event."
      }
    },
    "version": 1
  },
  "userdoc": {
    "kind": "user",
    "methods": {},
    "version": 1
  },
  "storageLayout": {
    "storage": [
      {
        "astId": 6156,
        "contract": "contracts/loan/LoanAuction.sol:LoanAuction",
        "label": "_status",
        "offset": 0,
        "slot": "0",
        "type": "t_uint256"
      },
      {
        "astId": 687,
        "contract": "contracts/loan/LoanAuction.sol:LoanAuction",
        "label": "_initialized",
        "offset": 0,
        "slot": "1",
        "type": "t_uint8"
      },
      {
        "astId": 690,
        "contract": "contracts/loan/LoanAuction.sol:LoanAuction",
        "label": "_initializing",
        "offset": 1,
        "slot": "1",
        "type": "t_bool"
      },
      {
        "astId": 669,
        "contract": "contracts/loan/LoanAuction.sol:LoanAuction",
        "label": "__gap",
        "offset": 0,
        "slot": "2",
        "type": "t_array(t_uint256)50_storage"
      },
      {
        "astId": 985,
        "contract": "contracts/loan/LoanAuction.sol:LoanAuction",
        "label": "__gap",
        "offset": 0,
        "slot": "52",
        "type": "t_array(t_uint256)50_storage"
      },
      {
        "astId": 13012,
        "contract": "contracts/loan/LoanAuction.sol:LoanAuction",
        "label": "_owner",
        "offset": 0,
        "slot": "102",
        "type": "t_address"
      },
      {
        "astId": 13132,
        "contract": "contracts/loan/LoanAuction.sol:LoanAuction",
        "label": "__gap",
        "offset": 0,
        "slot": "103",
        "type": "t_array(t_uint256)49_storage"
      },
      {
        "astId": 23928,
        "contract": "contracts/loan/LoanAuction.sol:LoanAuction",
        "label": "auctionCount",
        "offset": 0,
        "slot": "152",
        "type": "t_uint256"
      },
      {
        "astId": 23933,
        "contract": "contracts/loan/LoanAuction.sol:LoanAuction",
        "label": "auctions",
        "offset": 0,
        "slot": "153",
        "type": "t_mapping(t_uint256,t_struct(Auction)25637_storage)"
      },
      {
        "astId": 23938,
        "contract": "contracts/loan/LoanAuction.sol:LoanAuction",
        "label": "status",
        "offset": 0,
        "slot": "154",
        "type": "t_mapping(t_uint256,t_enum(AuctionStatus)25489)"
      },
      {
        "astId": 23942,
        "contract": "contracts/loan/LoanAuction.sol:LoanAuction",
        "label": "bidAmounts",
        "offset": 0,
        "slot": "155",
        "type": "t_mapping(t_uint256,t_uint256)"
      },
      {
        "astId": 23946,
        "contract": "contracts/loan/LoanAuction.sol:LoanAuction",
        "label": "bidders",
        "offset": 0,
        "slot": "156",
        "type": "t_mapping(t_uint256,t_address)"
      },
      {
        "astId": 23948,
        "contract": "contracts/loan/LoanAuction.sol:LoanAuction",
        "label": "periFiAdminAddr",
        "offset": 0,
        "slot": "157",
        "type": "t_address"
      },
      {
        "astId": 23950,
        "contract": "contracts/loan/LoanAuction.sol:LoanAuction",
        "label": "loanRepaymentAddr",
        "offset": 0,
        "slot": "158",
        "type": "t_address"
      },
      {
        "astId": 23952,
        "contract": "contracts/loan/LoanAuction.sol:LoanAuction",
        "label": "decrementInterval",
        "offset": 0,
        "slot": "159",
        "type": "t_uint256"
      }
    ],
    "types": {
      "t_address": {
        "encoding": "inplace",
        "label": "address",
        "numberOfBytes": "20"
      },
      "t_array(t_uint256)49_storage": {
        "base": "t_uint256",
        "encoding": "inplace",
        "label": "uint256[49]",
        "numberOfBytes": "1568"
      },
      "t_array(t_uint256)50_storage": {
        "base": "t_uint256",
        "encoding": "inplace",
        "label": "uint256[50]",
        "numberOfBytes": "1600"
      },
      "t_bool": {
        "encoding": "inplace",
        "label": "bool",
        "numberOfBytes": "1"
      },
      "t_bytes_storage": {
        "encoding": "bytes",
        "label": "bytes",
        "numberOfBytes": "32"
      },
      "t_enum(AuctionStatus)25489": {
        "encoding": "inplace",
        "label": "enum AuctionStatus",
        "numberOfBytes": "1"
      },
      "t_mapping(t_uint256,t_address)": {
        "encoding": "mapping",
        "key": "t_uint256",
        "label": "mapping(uint256 => address)",
        "numberOfBytes": "32",
        "value": "t_address"
      },
      "t_mapping(t_uint256,t_enum(AuctionStatus)25489)": {
        "encoding": "mapping",
        "key": "t_uint256",
        "label": "mapping(uint256 => enum AuctionStatus)",
        "numberOfBytes": "32",
        "value": "t_enum(AuctionStatus)25489"
      },
      "t_mapping(t_uint256,t_struct(Auction)25637_storage)": {
        "encoding": "mapping",
        "key": "t_uint256",
        "label": "mapping(uint256 => struct Auction)",
        "numberOfBytes": "32",
        "value": "t_struct(Auction)25637_storage"
      },
      "t_mapping(t_uint256,t_uint256)": {
        "encoding": "mapping",
        "key": "t_uint256",
        "label": "mapping(uint256 => uint256)",
        "numberOfBytes": "32",
        "value": "t_uint256"
      },
      "t_struct(Auction)25637_storage": {
        "encoding": "inplace",
        "label": "struct Auction",
        "members": [
          {
            "astId": 25631,
            "contract": "contracts/loan/LoanAuction.sol:LoanAuction",
            "label": "id",
            "offset": 0,
            "slot": "0",
            "type": "t_uint256"
          },
          {
            "astId": 25633,
            "contract": "contracts/loan/LoanAuction.sol:LoanAuction",
            "label": "protectedUntil",
            "offset": 0,
            "slot": "1",
            "type": "t_uint256"
          },
          {
            "astId": 25636,
            "contract": "contracts/loan/LoanAuction.sol:LoanAuction",
            "label": "parameters",
            "offset": 0,
            "slot": "2",
            "type": "t_struct(AuctionParameters)25621_storage"
          }
        ],
        "numberOfBytes": "480"
      },
      "t_struct(AuctionParameters)25621_storage": {
        "encoding": "inplace",
        "label": "struct AuctionParameters",
        "members": [
          {
            "astId": 25594,
            "contract": "contracts/loan/LoanAuction.sol:LoanAuction",
            "label": "loanId",
            "offset": 0,
            "slot": "0",
            "type": "t_uint256"
          },
          {
            "astId": 25596,
            "contract": "contracts/loan/LoanAuction.sol:LoanAuction",
            "label": "tokenAddress",
            "offset": 0,
            "slot": "1",
            "type": "t_address"
          },
          {
            "astId": 25598,
            "contract": "contracts/loan/LoanAuction.sol:LoanAuction",
            "label": "paymentToken",
            "offset": 0,
            "slot": "2",
            "type": "t_address"
          },
          {
            "astId": 25600,
            "contract": "contracts/loan/LoanAuction.sol:LoanAuction",
            "label": "tokenId",
            "offset": 0,
            "slot": "3",
            "type": "t_uint256"
          },
          {
            "astId": 25602,
            "contract": "contracts/loan/LoanAuction.sol:LoanAuction",
            "label": "startAmount",
            "offset": 0,
            "slot": "4",
            "type": "t_uint256"
          },
          {
            "astId": 25604,
            "contract": "contracts/loan/LoanAuction.sol:LoanAuction",
            "label": "endAmount",
            "offset": 0,
            "slot": "5",
            "type": "t_uint256"
          },
          {
            "astId": 25606,
            "contract": "contracts/loan/LoanAuction.sol:LoanAuction",
            "label": "startTime",
            "offset": 0,
            "slot": "6",
            "type": "t_uint256"
          },
          {
            "astId": 25608,
            "contract": "contracts/loan/LoanAuction.sol:LoanAuction",
            "label": "endTime",
            "offset": 0,
            "slot": "7",
            "type": "t_uint256"
          },
          {
            "astId": 25610,
            "contract": "contracts/loan/LoanAuction.sol:LoanAuction",
            "label": "stepDownConfig",
            "offset": 0,
            "slot": "8",
            "type": "t_bytes_storage"
          },
          {
            "astId": 25612,
            "contract": "contracts/loan/LoanAuction.sol:LoanAuction",
            "label": "loanBorrower",
            "offset": 0,
            "slot": "9",
            "type": "t_address"
          },
          {
            "astId": 25614,
            "contract": "contracts/loan/LoanAuction.sol:LoanAuction",
            "label": "loanAmount",
            "offset": 0,
            "slot": "10",
            "type": "t_uint256"
          },
          {
            "astId": 25616,
            "contract": "contracts/loan/LoanAuction.sol:LoanAuction",
            "label": "loanRepaymentAmount",
            "offset": 0,
            "slot": "11",
            "type": "t_uint256"
          },
          {
            "astId": 25618,
            "contract": "contracts/loan/LoanAuction.sol:LoanAuction",
            "label": "lender",
            "offset": 0,
            "slot": "12",
            "type": "t_address"
          },
          {
            "astId": 25620,
            "contract": "contracts/loan/LoanAuction.sol:LoanAuction",
            "label": "isProtected",
            "offset": 20,
            "slot": "12",
            "type": "t_bool"
          }
        ],
        "numberOfBytes": "416"
      },
      "t_uint256": {
        "encoding": "inplace",
        "label": "uint256",
        "numberOfBytes": "32"
      },
      "t_uint8": {
        "encoding": "inplace",
        "label": "uint8",
        "numberOfBytes": "1"
      }
    }
  }
}