{
  "address": "0x5A67670F33fD79f6622c49A8ddC90599A5A67C44",
  "abi": [
    {
      "anonymous": false,
      "inputs": [
        {
          "indexed": false,
          "internalType": "address",
          "name": "previousAdmin",
          "type": "address"
        },
        {
          "indexed": false,
          "internalType": "address",
          "name": "newAdmin",
          "type": "address"
        }
      ],
      "name": "AdminChanged",
      "type": "event"
    },
    {
      "anonymous": false,
      "inputs": [
        {
          "indexed": true,
          "internalType": "address",
          "name": "owner",
          "type": "address"
        },
        {
          "indexed": true,
          "internalType": "address",
          "name": "spender",
          "type": "address"
        },
        {
          "indexed": false,
          "internalType": "uint256",
          "name": "value",
          "type": "uint256"
        }
      ],
      "name": "Approval",
      "type": "event"
    },
    {
      "anonymous": false,
      "inputs": [
        {
          "indexed": true,
          "internalType": "address",
          "name": "beacon",
          "type": "address"
        }
      ],
      "name": "BeaconUpgraded",
      "type": "event"
    },
    {
      "anonymous": false,
      "inputs": [
        {
          "indexed": false,
          "internalType": "uint48",
          "name": "enteredAt",
          "type": "uint48"
        },
        {
          "indexed": false,
          "internalType": "uint256",
          "name": "targetChainId",
          "type": "uint256"
        },
        {
          "indexed": false,
          "internalType": "address",
          "name": "sender",
          "type": "address"
        },
        {
          "indexed": false,
          "internalType": "address",
          "name": "receiver",
          "type": "address"
        },
        {
          "indexed": false,
          "internalType": "uint256",
          "name": "amount",
          "type": "uint256"
        },
        {
          "indexed": false,
          "internalType": "uint256",
          "name": "nonce",
          "type": "uint256"
        }
      ],
      "name": "EnterBridge",
      "type": "event"
    },
    {
      "anonymous": false,
      "inputs": [
        {
          "indexed": false,
          "internalType": "uint8",
          "name": "version",
          "type": "uint8"
        }
      ],
      "name": "Initialized",
      "type": "event"
    },
    {
      "anonymous": false,
      "inputs": [
        {
          "indexed": false,
          "internalType": "uint256",
          "name": "nonce",
          "type": "uint256"
        },
        {
          "indexed": false,
          "internalType": "uint256",
          "name": "sourceChainId",
          "type": "uint256"
        },
        {
          "indexed": false,
          "internalType": "uint48",
          "name": "leftAt",
          "type": "uint48"
        }
      ],
      "name": "LeaveBridge",
      "type": "event"
    },
    {
      "anonymous": false,
      "inputs": [
        {
          "indexed": true,
          "internalType": "address",
          "name": "previousOwner",
          "type": "address"
        },
        {
          "indexed": true,
          "internalType": "address",
          "name": "newOwner",
          "type": "address"
        }
      ],
      "name": "OwnershipTransferred",
      "type": "event"
    },
    {
      "anonymous": false,
      "inputs": [
        {
          "indexed": true,
          "internalType": "address",
          "name": "from",
          "type": "address"
        },
        {
          "indexed": true,
          "internalType": "address",
          "name": "to",
          "type": "address"
        },
        {
          "indexed": false,
          "internalType": "uint256",
          "name": "value",
          "type": "uint256"
        }
      ],
      "name": "Transfer",
      "type": "event"
    },
    {
      "anonymous": false,
      "inputs": [
        {
          "indexed": true,
          "internalType": "address",
          "name": "implementation",
          "type": "address"
        }
      ],
      "name": "Upgraded",
      "type": "event"
    },
    {
      "inputs": [],
      "name": "__MWOwnable_init",
      "outputs": [],
      "stateMutability": "nonpayable",
      "type": "function"
    },
    {
      "inputs": [],
      "name": "__Testing_init",
      "outputs": [],
      "stateMutability": "nonpayable",
      "type": "function"
    },
    {
      "inputs": [
        {
          "internalType": "address",
          "name": "owner",
          "type": "address"
        },
        {
          "internalType": "address",
          "name": "spender",
          "type": "address"
        }
      ],
      "name": "allowance",
      "outputs": [
        {
          "internalType": "uint256",
          "name": "",
          "type": "uint256"
        }
      ],
      "stateMutability": "view",
      "type": "function"
    },
    {
      "inputs": [
        {
          "internalType": "address",
          "name": "spender",
          "type": "address"
        },
        {
          "internalType": "uint256",
          "name": "amount",
          "type": "uint256"
        }
      ],
      "name": "approve",
      "outputs": [
        {
          "internalType": "bool",
          "name": "",
          "type": "bool"
        }
      ],
      "stateMutability": "nonpayable",
      "type": "function"
    },
    {
      "inputs": [
        {
          "internalType": "address",
          "name": "operator",
          "type": "address"
        },
        {
          "internalType": "string",
          "name": "role",
          "type": "string"
        },
        {
          "internalType": "bool",
          "name": "authorized",
          "type": "bool"
        }
      ],
      "name": "authorize",
      "outputs": [],
      "stateMutability": "nonpayable",
      "type": "function"
    },
    {
      "inputs": [
        {
          "internalType": "address",
          "name": "account",
          "type": "address"
        }
      ],
      "name": "balanceOf",
      "outputs": [
        {
          "internalType": "uint256",
          "name": "",
          "type": "uint256"
        }
      ],
      "stateMutability": "view",
      "type": "function"
    },
    {
      "inputs": [
        {
          "internalType": "uint256",
          "name": "amount",
          "type": "uint256"
        }
      ],
      "name": "burn",
      "outputs": [],
      "stateMutability": "nonpayable",
      "type": "function"
    },
    {
      "inputs": [
        {
          "internalType": "address",
          "name": "account",
          "type": "address"
        },
        {
          "internalType": "uint256",
          "name": "amount",
          "type": "uint256"
        }
      ],
      "name": "burnFrom",
      "outputs": [],
      "stateMutability": "nonpayable",
      "type": "function"
    },
    {
      "inputs": [],
      "name": "crossChainInflationAmount",
      "outputs": [
        {
          "internalType": "uint256",
          "name": "",
          "type": "uint256"
        }
      ],
      "stateMutability": "view",
      "type": "function"
    },
    {
      "inputs": [],
      "name": "crossChainSupply",
      "outputs": [
        {
          "internalType": "uint256",
          "name": "",
          "type": "uint256"
        }
      ],
      "stateMutability": "view",
      "type": "function"
    },
    {
      "inputs": [],
      "name": "decimals",
      "outputs": [
        {
          "internalType": "uint8",
          "name": "",
          "type": "uint8"
        }
      ],
      "stateMutability": "view",
      "type": "function"
    },
    {
      "inputs": [
        {
          "internalType": "address",
          "name": "spender",
          "type": "address"
        },
        {
          "internalType": "uint256",
          "name": "subtractedValue",
          "type": "uint256"
        }
      ],
      "name": "decreaseAllowance",
      "outputs": [
        {
          "internalType": "bool",
          "name": "",
          "type": "bool"
        }
      ],
      "stateMutability": "nonpayable",
      "type": "function"
    },
    {
      "inputs": [
        {
          "internalType": "address",
          "name": "_to",
          "type": "address"
        },
        {
          "internalType": "uint256",
          "name": "_amount",
          "type": "uint256"
        }
      ],
      "name": "distribute",
      "outputs": [],
      "stateMutability": "nonpayable",
      "type": "function"
    },
    {
      "inputs": [
        {
          "internalType": "uint256",
          "name": "_targetChainId",
          "type": "uint256"
        },
        {
          "internalType": "address",
          "name": "_receiver",
          "type": "address"
        },
        {
          "internalType": "uint256",
          "name": "_amount",
          "type": "uint256"
        }
      ],
      "name": "enterBridge",
      "outputs": [],
      "stateMutability": "nonpayable",
      "type": "function"
    },
    {
      "inputs": [
        {
          "internalType": "address",
          "name": "",
          "type": "address"
        },
        {
          "internalType": "string",
          "name": "",
          "type": "string"
        }
      ],
      "name": "hasRole",
      "outputs": [
        {
          "internalType": "bool",
          "name": "",
          "type": "bool"
        }
      ],
      "stateMutability": "view",
      "type": "function"
    },
    {
      "inputs": [
        {
          "internalType": "address",
          "name": "spender",
          "type": "address"
        },
        {
          "internalType": "uint256",
          "name": "addedValue",
          "type": "uint256"
        }
      ],
      "name": "increaseAllowance",
      "outputs": [
        {
          "internalType": "bool",
          "name": "",
          "type": "bool"
        }
      ],
      "stateMutability": "nonpayable",
      "type": "function"
    },
    {
      "inputs": [
        {
          "internalType": "uint8",
          "name": "_count",
          "type": "uint8"
        },
        {
          "internalType": "uint256",
          "name": "_amount",
          "type": "uint256"
        },
        {
          "internalType": "bytes",
          "name": "_signature",
          "type": "bytes"
        }
      ],
      "name": "inflate",
      "outputs": [],
      "stateMutability": "nonpayable",
      "type": "function"
    },
    {
      "inputs": [
        {
          "internalType": "bool",
          "name": "_isMainChain",
          "type": "bool"
        },
        {
          "internalType": "uint256[]",
          "name": "_chains",
          "type": "uint256[]"
        }
      ],
      "name": "initialize",
      "outputs": [],
      "stateMutability": "nonpayable",
      "type": "function"
    },
    {
      "inputs": [],
      "name": "isMintChain",
      "outputs": [
        {
          "internalType": "bool",
          "name": "",
          "type": "bool"
        }
      ],
      "stateMutability": "view",
      "type": "function"
    },
    {
      "inputs": [
        {
          "internalType": "uint8",
          "name": "",
          "type": "uint8"
        }
      ],
      "name": "isProcessed",
      "outputs": [
        {
          "internalType": "bool",
          "name": "",
          "type": "bool"
        }
      ],
      "stateMutability": "view",
      "type": "function"
    },
    {
      "inputs": [],
      "name": "lastInflation",
      "outputs": [
        {
          "internalType": "uint48",
          "name": "",
          "type": "uint48"
        }
      ],
      "stateMutability": "view",
      "type": "function"
    },
    {
      "inputs": [
        {
          "internalType": "uint256",
          "name": "_sourceChainId",
          "type": "uint256"
        },
        {
          "internalType": "address",
          "name": "_receiver",
          "type": "address"
        },
        {
          "internalType": "uint256",
          "name": "_amount",
          "type": "uint256"
        },
        {
          "internalType": "uint256",
          "name": "_nonce",
          "type": "uint256"
        },
        {
          "internalType": "bytes",
          "name": "_signature",
          "type": "bytes"
        }
      ],
      "name": "leaveBridge",
      "outputs": [],
      "stateMutability": "nonpayable",
      "type": "function"
    },
    {
      "inputs": [
        {
          "internalType": "address",
          "name": "_receiver",
          "type": "address"
        },
        {
          "internalType": "uint256",
          "name": "_amount",
          "type": "uint256"
        }
      ],
      "name": "mint",
      "outputs": [],
      "stateMutability": "nonpayable",
      "type": "function"
    },
    {
      "inputs": [],
      "name": "name",
      "outputs": [
        {
          "internalType": "string",
          "name": "",
          "type": "string"
        }
      ],
      "stateMutability": "view",
      "type": "function"
    },
    {
      "inputs": [],
      "name": "owner",
      "outputs": [
        {
          "internalType": "address",
          "name": "",
          "type": "address"
        }
      ],
      "stateMutability": "view",
      "type": "function"
    },
    {
      "inputs": [],
      "name": "proxiableUUID",
      "outputs": [
        {
          "internalType": "bytes32",
          "name": "",
          "type": "bytes32"
        }
      ],
      "stateMutability": "view",
      "type": "function"
    },
    {
      "inputs": [],
      "name": "renounceOwnership",
      "outputs": [],
      "stateMutability": "nonpayable",
      "type": "function"
    },
    {
      "inputs": [],
      "name": "reset",
      "outputs": [],
      "stateMutability": "nonpayable",
      "type": "function"
    },
    {
      "inputs": [
        {
          "internalType": "address",
          "name": "_staking",
          "type": "address"
        }
      ],
      "name": "setStaking",
      "outputs": [],
      "stateMutability": "nonpayable",
      "type": "function"
    },
    {
      "inputs": [
        {
          "internalType": "bool",
          "name": "_testing",
          "type": "bool"
        }
      ],
      "name": "setTesting",
      "outputs": [],
      "stateMutability": "nonpayable",
      "type": "function"
    },
    {
      "inputs": [],
      "name": "staking",
      "outputs": [
        {
          "internalType": "contract ILendingPoolStaking",
          "name": "",
          "type": "address"
        }
      ],
      "stateMutability": "view",
      "type": "function"
    },
    {
      "inputs": [
        {
          "internalType": "uint256",
          "name": "",
          "type": "uint256"
        }
      ],
      "name": "supportedChainIds",
      "outputs": [
        {
          "internalType": "uint256",
          "name": "",
          "type": "uint256"
        }
      ],
      "stateMutability": "view",
      "type": "function"
    },
    {
      "inputs": [],
      "name": "symbol",
      "outputs": [
        {
          "internalType": "string",
          "name": "",
          "type": "string"
        }
      ],
      "stateMutability": "view",
      "type": "function"
    },
    {
      "inputs": [],
      "name": "testing",
      "outputs": [
        {
          "internalType": "bool",
          "name": "",
          "type": "bool"
        }
      ],
      "stateMutability": "view",
      "type": "function"
    },
    {
      "inputs": [],
      "name": "timeSlicedCrossChainSupply",
      "outputs": [
        {
          "internalType": "uint256",
          "name": "",
          "type": "uint256"
        }
      ],
      "stateMutability": "view",
      "type": "function"
    },
    {
      "inputs": [],
      "name": "totalSupply",
      "outputs": [
        {
          "internalType": "uint256",
          "name": "",
          "type": "uint256"
        }
      ],
      "stateMutability": "view",
      "type": "function"
    },
    {
      "inputs": [
        {
          "internalType": "address",
          "name": "to",
          "type": "address"
        },
        {
          "internalType": "uint256",
          "name": "amount",
          "type": "uint256"
        }
      ],
      "name": "transfer",
      "outputs": [
        {
          "internalType": "bool",
          "name": "",
          "type": "bool"
        }
      ],
      "stateMutability": "nonpayable",
      "type": "function"
    },
    {
      "inputs": [
        {
          "internalType": "address",
          "name": "from",
          "type": "address"
        },
        {
          "internalType": "address",
          "name": "to",
          "type": "address"
        },
        {
          "internalType": "uint256",
          "name": "amount",
          "type": "uint256"
        }
      ],
      "name": "transferFrom",
      "outputs": [
        {
          "internalType": "bool",
          "name": "",
          "type": "bool"
        }
      ],
      "stateMutability": "nonpayable",
      "type": "function"
    },
    {
      "inputs": [
        {
          "internalType": "address",
          "name": "newOwner",
          "type": "address"
        }
      ],
      "name": "transferOwnership",
      "outputs": [],
      "stateMutability": "nonpayable",
      "type": "function"
    },
    {
      "inputs": [
        {
          "internalType": "uint256",
          "name": "_crossChainSupply",
          "type": "uint256"
        },
        {
          "internalType": "uint256",
          "name": "_crossChainInflationAmount",
          "type": "uint256"
        }
      ],
      "name": "update",
      "outputs": [],
      "stateMutability": "nonpayable",
      "type": "function"
    },
    {
      "inputs": [
        {
          "internalType": "address",
          "name": "newImplementation",
          "type": "address"
        }
      ],
      "name": "upgradeTo",
      "outputs": [],
      "stateMutability": "nonpayable",
      "type": "function"
    },
    {
      "inputs": [
        {
          "internalType": "address",
          "name": "newImplementation",
          "type": "address"
        },
        {
          "internalType": "bytes",
          "name": "data",
          "type": "bytes"
        }
      ],
      "name": "upgradeToAndCall",
      "outputs": [],
      "stateMutability": "payable",
      "type": "function"
    }
  ],
  "args": [],
  "numDeployments": 3,
  "solcInputHash": "2b691191bd6bf894805fd6522b0009a2",
  "bytecode": "0x60a06040523462000111576000546200003260ff8260081c16158092819362000102575b8115620000df575b5062000116565b8062000046600160ff196000541617600055565b620000c4575b620000566200020d565b62000091575b620000666200017a565b30608052604051612fac90816200026e823960805181818161084b01528181610c8a0152610dfa0152f35b620000a261ff001960005416600055565b604051600181526000805160206200321a83398151915290602090a16200005c565b620000d961010061ff00196000541617600055565b6200004c565b303b15915081620000f3575b50386200002b565b6001915060ff161438620000eb565b600160ff821610915062000023565b600080fd5b156200011e57565b60405162461bcd60e51b815260206004820152602e60248201527f496e697469616c697a61626c653a20636f6e747261637420697320616c72656160448201526d191e481a5b9a5d1a585b1a5e995960921b6064820152608490fd5b600054620001a060ff8260081c16158092819362000102578115620000df575062000116565b80620001b4600160ff196000541617600055565b620001f2575b60ff19609a5416609a55620001cb57565b61ff0019600054166000556000805160206200321a833981519152602060405160018152a1565b6200020761010061ff00196000541617600055565b620001ba565b60658054737e8ae5c72eca86946b695dcc211863d9721a09616001600160a01b0319821681179092556040516001600160a01b03909116907f8be0079c531659141344cd1fd0a4f28419497f9722a3daafe3b4186f6b6457e090600090a356fe60806040526004361015610013575b600080fd5b60003560e01c806306fdde031461035b57806308ed8d1614610352578063095ea7b3146103495780630e1e5e701461034057806318160ddd14610337578063217fe6c61461032e57806323b872dd146103255780632608ab611461031c5780632fb565e814610313578063313ce5671461030a57806333d31cb5146103015780633659cfe6146102f857806339509351146102ef57806339d2525f146102e65780633e533a1f146102dd57806340c10f19146102d457806342966c68146102cb5780634cf088d9146102c25780634cf2ab32146102b95780634f1ef286146102b057806352d1902d146102a757806361c0cf5e1461029e57806365b014b71461029557806370a082311461028c578063715018a61461028357806379cc67901461027a5780637fb5d58e14610271578063873c59a5146102685780638d03b1021461025f5780638da5cb5b146102565780638ff390991461024d57806395d89b41146102445780639f64f2d81461023b578063a457c2d714610232578063a9059cbb14610229578063b130840d14610220578063d2438c2a14610217578063d826f88f1461020e578063dd62ed3e14610205578063e15841b5146101fc578063f2fde38b146101f35763fb932108146101eb57600080fd5b61000e6116a5565b5061000e6115db565b5061000e61158b565b5061000e61152d565b5061000e6114e2565b5061000e6114b3565b5061000e611411565b5061000e6113ea565b5061000e61132e565b5061000e6112df565b5061000e611237565b5061000e6111c3565b5061000e61119b565b5061000e611177565b5061000e611158565b5061000e611134565b5061000e611103565b5061000e6110a3565b5061000e611068565b5061000e61103d565b5061000e610eb6565b5061000e610dde565b5061000e610c48565b5061000e610bf6565b5061000e610bcb565b5061000e610bad565b5061000e610b05565b5061000e610acb565b5061000e610a20565b5061000e6109c6565b5061000e610825565b5061000e6107fb565b5061000e6107de565b5061000e6107b6565b5061000e610791565b5061000e610758565b5061000e6106cd565b5061000e610572565b5061000e610553565b5061000e610521565b5061000e6104bc565b5061000e6103d0565b600091031261000e57565b918091926000905b82821061038f575011610388575050565b6000910152565b91508060209183015181860152018291610377565b604091602082526103c4815180928160208601526020868601910161036f565b601f01601f1916010190565b503461000e576000806003193601126104aa5760405190806036546103f481611a80565b80855291600191808316908115610489575060011461042e575b61042a8561041e81870382610639565b604051918291826103a4565b0390f35b9250603683527f4a11f94e20a93c79f6ec743a1954ec4fc2c08429ae2122118bf234b2185c81b85b82841061047157505050810160200161041e8261042a61040e565b80546020858701810191909152909301928101610456565b60ff19166020870152505060408401925061041e915083905061042a61040e565b80fd5b60043590811515820361000e57565b503461000e57602036600319011261000e576104d66104ad565b6104de6120d1565b60ff8019609a54169115151617609a556000604051f35b600435906001600160a01b038216820361000e57565b602435906001600160a01b038216820361000e57565b503461000e57604036600319011261000e5761054861053e6104f5565b6024359033611cb9565b602060405160018152f35b503461000e57600036600319011261000e576020609d54604051908152f35b503461000e57600036600319011261000e576020603554604051908152f35b50634e487b7160e01b600052604160045260246000fd5b67ffffffffffffffff81116105bc57604052565b6105c4610591565b604052565b6020810190811067ffffffffffffffff8211176105bc57604052565b6040810190811067ffffffffffffffff8211176105bc57604052565b6060810190811067ffffffffffffffff8211176105bc57604052565b60a0810190811067ffffffffffffffff8211176105bc57604052565b90601f8019910116810190811067ffffffffffffffff8211176105bc57604052565b60209067ffffffffffffffff8111610679575b601f01601f19160190565b610681610591565b61066e565b81601f8201121561000e5780359061069d8261065b565b926106ab6040519485610639565b8284526020838301011161000e57816000926020809301838601378301015290565b503461000e57604036600319011261000e576106e76104f5565b60243567ffffffffffffffff811161000e5761073b602061042a936001600160a01b0361071a60ff953690600401610686565b9116600052609e82526040600020826040519483868095519384920161036f565b820190815203019020546040519116151581529081906020820190565b503461000e57606036600319011261000e576105486107756104f5565b61077d61050b565b6044359161078c833383611de6565b611b9c565b503461000e57600036600319011261000e57602060ff61013554166040519015158152f35b503461000e57604036600319011261000e576107d06120d1565b600435609c55602435609d55005b503461000e57600036600319011261000e57602060405160128152f35b503461000e57600036600319011261000e57602065ffffffffffff609a5460081c16604051908152f35b503461000e57602036600319011261000e5761083f6104f5565b6001600160a01b0390817f00000000000000000000000000000000000000000000000000000000000000001691610878833014156116d4565b6108a77f360894a13ba1a3210667c828492db98dca3e2076cc3735a920a3ca505d382bbc938285541614611735565b6108af6120d1565b604051906108bc826105c9565b600082527f4910fdfa16fed3260ed0e7147f7cc6da11a60208b5b9406d12a635614ffd91435460ff16156108f85750506108f69150611810565b005b6020600491604094939451928380926352d1902d60e01b825286165afa60009181610996575b506109835760405162461bcd60e51b815260206004820152602e60248201527f45524331393637557067726164653a206e657720696d706c656d656e7461746960448201526d6f6e206973206e6f74205555505360901b6064820152608490fd5b0390fd5b6108f69361099191146117b2565b6118ae565b6109b891925060203d81116109bf575b6109b08183610639565b810190611796565b903861091e565b503d6109a6565b503461000e57604036600319011261000e576105486109e36104f5565b336000526034602052610a19602435610a13836040600020906001600160a01b0316600052602052604060002090565b54611ad1565b9033611cb9565b503461000e57606036600319011261000e57610a3a6104f5565b60243567ffffffffffffffff811161000e57610a5a903690600401610686565b60443590811515820361000e576020610aa1916001600160a01b036108f695610a816120d1565b16600052609e82526040600020826040519483868095519384920161036f565b8201908152030190209060ff801983541691151516179055565b6004359060ff8216820361000e57565b503461000e57602036600319011261000e5760ff610ae7610abb565b16600052609b602052602060ff604060002054166040519015158152f35b503461000e57604036600319011261000e576108f6610b226104f5565b610b62604051610b31816105e5565b60068152602081016536b4b73a32b960d11b81526001600160a01b03606554163314918215610b6b575b50506127df565b60243590612430565b610ba69250610b969160209133600052609e835260406000209060405194859384925192839161036f565b8201908152030190205460ff1690565b3880610b5b565b503461000e57602036600319011261000e576108f660043533611e8a565b503461000e57600036600319011261000e5760206001600160a01b03609a5460381c16604051908152f35b503461000e57602036600319011261000e5760043560995481101561000e5760209060996000527f72a152ddfb8e864297c917af52ea6c1c68aead0fee1a62673fcc7e0c94979d000154604051908152f35b50604036600319011261000e57610c5d6104f5565b60243567ffffffffffffffff811161000e57610c7d903690600401610686565b906001600160a01b0391827f00000000000000000000000000000000000000000000000000000000000000001692610cb7843014156116d4565b610ce67f360894a13ba1a3210667c828492db98dca3e2076cc3735a920a3ca505d382bbc948286541614611735565b610cee6120d1565b7f4910fdfa16fed3260ed0e7147f7cc6da11a60208b5b9406d12a635614ffd91435460ff1615610d245750506108f69150611810565b6020600491604094939451928380926352d1902d60e01b825286165afa60009181610dbe575b50610dab5760405162461bcd60e51b815260206004820152602e60248201527f45524331393637557067726164653a206e657720696d706c656d656e7461746960448201526d6f6e206973206e6f74205555505360901b6064820152608490fd5b6108f693610db991146117b2565b61199c565b610dd791925060203d81116109bf576109b08183610639565b9038610d4a565b503461000e57600036600319011261000e576001600160a01b037f0000000000000000000000000000000000000000000000000000000000000000163003610e4b576040517f360894a13ba1a3210667c828492db98dca3e2076cc3735a920a3ca505d382bbc8152602090f35b60405162461bcd60e51b815260206004820152603860248201527f555550535570677261646561626c653a206d757374206e6f742062652063616c60448201527f6c6564207468726f7567682064656c656761746563616c6c00000000000000006064820152608490fd5b503461000e57606036600319011261000e57600435610ed361050b565b60443591610ee081612493565b80611033575b15610fee578215610fa957610fa483610f3f7f03e3807b3a9878d6a3f82fb311f5785f5c7160b382b89fe8fc43c31bda6d066e95610f37336001600160a01b03166000526033602052604060002090565b54101561217d565b610f498133611e8a565b60985490610f5e610f59836121c9565b609855565b604080514265ffffffffffff168152602081019590955233908501526001600160a01b039094166060840152608083019390935260a082019290925290819060c0820190565b0390a1005b60405162461bcd60e51b815260206004820152600e60248201527f496e76616c696420616d6f756e740000000000000000000000000000000000006044820152606490fd5b60405162461bcd60e51b815260206004820152601960248201527f496e76616c69642064657374696e6174696f6e20636861696e000000000000006044820152606490fd5b5080461415610ee6565b503461000e57600036600319011261000e5761106060ff60005460081c16612056565b6108f6612129565b503461000e57602036600319011261000e576001600160a01b0361108a6104f5565b1660005260336020526020604060002054604051908152f35b503461000e576000806003193601126104aa576110be6120d1565b6065546001600160a01b03198116606555816001600160a01b0360405192167f8be0079c531659141344cd1fd0a4f28419497f9722a3daafe3b4186f6b6457e08284a3f35b503461000e57604036600319011261000e576108f66111206104f5565b6024359061112f823383611de6565b611e8a565b503461000e57600036600319011261000e576020611150612ebb565b604051908152f35b503461000e57600036600319011261000e576020609c54604051908152f35b503461000e57600036600319011261000e57602060ff609a54166040519015158152f35b503461000e57600036600319011261000e5760206001600160a01b0360655416604051908152f35b503461000e57602036600319011261000e576111dd6104f5565b6111e56120d1565b7fffffffffff0000000000000000000000000000000000000000ffffffffffffff7affffffffffffffffffffffffffffffffffffffff00000000000000609a549260381b16911617609a556000604051f35b503461000e576000806003193601126104aa57604051908060375461125b81611a80565b8085529160019180831690811561048957506001146112845761042a8561041e81870382610639565b9250603783527f42a7b7dd785cd69714a189dffb3fd7d7174edc9ece837694ce50f7078f7c31ae5b8284106112c757505050810160200161041e8261042a61040e565b805460208587018101919091529093019281016112ac565b503461000e5760a036600319011261000e576112f961050b565b6084359067ffffffffffffffff821161000e5761131d6108f6923690600401610686565b906064359060443590600435612225565b503461000e57604036600319011261000e576113486104f5565b60243590336000526034602052611376816040600020906001600160a01b0316600052602052604060002090565b54918083106113975761138b92039033611cb9565b60405160018152602090f35b60405162461bcd60e51b815260206004820152602560248201527f45524332303a2064656372656173656420616c6c6f77616e63652062656c6f77604482015264207a65726f60d81b6064820152608490fd5b503461000e57604036600319011261000e576105486114076104f5565b6024359033611b9c565b503461000e57604036600319011261000e5761142b6104ad565b60243567ffffffffffffffff80821161000e573660238301121561000e5781600401359081116114a6575b8060051b916040519260209261146e84830186610639565b84526024838501918301019136831161000e57602401905b828210611497576108f6858761282b565b81358152908301908301611486565b6114ae610591565b611456565b503461000e57600036600319011261000e576114d660ff60005460081c16612056565b609a805460ff19169055005b503461000e576000806003193601126104aa576114fd6120d1565b805b60ff908116808352609b60205260408320805460ff19169055908114611527576001016114ff565b50604051f35b503461000e57604036600319011261000e57602061158261154c6104f5565b6001600160a01b0361155c61050b565b9116600052603483526040600020906001600160a01b0316600052602052604060002090565b54604051908152f35b503461000e57606036600319011261000e576115a5610abb565b6044359067ffffffffffffffff821161000e576115c96108f6923690600401610686565b906115d26120d1565b60243590612650565b503461000e57602036600319011261000e576115f56104f5565b6115fd6120d1565b6001600160a01b038091169081156116515760009160655491816001600160a01b031984161760655560405192167f8be0079c531659141344cd1fd0a4f28419497f9722a3daafe3b4186f6b6457e08484a3f35b60405162461bcd60e51b815260206004820152602660248201527f4f776e61626c653a206e6577206f776e657220697320746865207a65726f206160448201526564647265737360d01b6064820152608490fd5b503461000e57604036600319011261000e576108f66116c26104f5565b6116ca6120d1565b6024359030611b9c565b156116db57565b60405162461bcd60e51b815260206004820152602c60248201527f46756e6374696f6e206d7573742062652063616c6c6564207468726f7567682060448201526b19195b1959d85d1958d85b1b60a21b6064820152608490fd5b1561173c57565b60405162461bcd60e51b815260206004820152602c60248201527f46756e6374696f6e206d7573742062652063616c6c6564207468726f7567682060448201526b6163746976652070726f787960a01b6064820152608490fd5b9081602091031261000e575190565b506040513d6000823e3d90fd5b156117b957565b60405162461bcd60e51b815260206004820152602960248201527f45524331393637557067726164653a20756e737570706f727465642070726f786044820152681a58589b195555525160ba1b6064820152608490fd5b803b15611853576001600160a01b037f360894a13ba1a3210667c828492db98dca3e2076cc3735a920a3ca505d382bbc91166001600160a01b0319825416179055565b60405162461bcd60e51b815260206004820152602d60248201527f455243313936373a206e657720696d706c656d656e746174696f6e206973206e60448201526c1bdd08184818dbdb9d1c9858dd609a1b6064820152608490fd5b6118b781611810565b604051906000906001600160a01b0381167fbc7cd75a20ee27fd9adebab32041f755214dbc6bffa90cc0225b39da2e5c2d3b8385a2835115801590611995575b611902575b50505050565b81806119829561191186610601565b602786527f416464726573733a206c6f772d6c6576656c2064656c65676174652063616c6c6020870152660819985a5b195960ca1b6040870152602081519101845af4903d1561198c573d6119658161065b565b906119736040519283610639565b8152809360203d92013e611fc5565b50388080806118fc565b60609250611fc5565b50816118f7565b6119a581611810565b604051906001600160a01b0381167fbc7cd75a20ee27fd9adebab32041f755214dbc6bffa90cc0225b39da2e5c2d3b600084a2825115801590611a78575b6119ec57505050565b600080611a6d946119fc85610601565b602785527f416464726573733a206c6f772d6c6576656c2064656c65676174652063616c6c6020860152660819985a5b195960ca1b6040860152602081519101845af43d15611a70573d91611a508361065b565b92611a5e6040519485610639565b83523d6000602085013e611fc5565b50565b606091611fc5565b5060016119e3565b90600182811c92168015611ab0575b6020831014611a9a57565b634e487b7160e01b600052602260045260246000fd5b91607f1691611a8f565b50634e487b7160e01b600052601160045260246000fd5b81198111611add570190565b611ae5611aba565b0190565b15611af057565b60405162461bcd60e51b815260206004820152602360248201527f45524332303a207472616e7366657220746f20746865207a65726f206164647260448201526265737360e81b6064820152608490fd5b15611b4857565b60405162461bcd60e51b815260206004820152602660248201527f45524332303a207472616e7366657220616d6f756e7420657863656564732062604482015265616c616e636560d01b6064820152608490fd5b91906001600160a01b0390818416928315611c6657611c4b827fddf252ad1be2c89b69c2b068fc378daa952ba7f163c4a11628f55a4df523b3ef94611c61941696611be8881515611ae9565b611c3184611c09836001600160a01b03166000526033602052604060002090565b54611c1682821015611b41565b03916001600160a01b03166000526033602052604060002090565b556001600160a01b03166000526033602052604060002090565b8054820190556040519081529081906020820190565b0390a3565b60405162461bcd60e51b815260206004820152602560248201527f45524332303a207472616e736665722066726f6d20746865207a65726f206164604482015264647265737360d81b6064820152608490fd5b906001600160a01b0391828116928315611d95578216938415611d455780611d347f8c5be1e5ebec7d5bd14f71427d1e84f3dd0314c0f7b2291e5b200ac8c7c3b92594611d1c611c61956001600160a01b03166000526034602052604060002090565b906001600160a01b0316600052602052604060002090565b556040519081529081906020820190565b60405162461bcd60e51b815260206004820152602260248201527f45524332303a20617070726f766520746f20746865207a65726f206164647265604482015261737360f01b6064820152608490fd5b60405162461bcd60e51b8152602060048201526024808201527f45524332303a20617070726f76652066726f6d20746865207a65726f206164646044820152637265737360e01b6064820152608490fd5b906001600160a01b0382166000526034602052611e1a816040600020906001600160a01b0316600052602052604060002090565b549260018401611e2a5750505050565b808410611e4557611e3c930391611cb9565b388080806118fc565b60405162461bcd60e51b815260206004820152601d60248201527f45524332303a20696e73756666696369656e7420616c6c6f77616e63650000006044820152606490fd5b6001600160a01b038116908115611f7657611eb8816001600160a01b03166000526033602052604060002090565b54838110611f2657837fddf252ad1be2c89b69c2b068fc378daa952ba7f163c4a11628f55a4df523b3ef92611f08600096611c619403916001600160a01b03166000526033602052604060002090565b55611f168160355403603555565b6040519081529081906020820190565b60405162461bcd60e51b815260206004820152602260248201527f45524332303a206275726e20616d6f756e7420657863656564732062616c616e604482015261636560f01b6064820152608490fd5b60405162461bcd60e51b815260206004820152602160248201527f45524332303a206275726e2066726f6d20746865207a65726f206164647265736044820152607360f81b6064820152608490fd5b919290156120275750815115611fd9575090565b3b15611fe25790565b60405162461bcd60e51b815260206004820152601d60248201527f416464726573733a2063616c6c20746f206e6f6e2d636f6e74726163740000006044820152606490fd5b82519091501561203a5750805190602001fd5b60405162461bcd60e51b815290819061097f90600483016103a4565b1561205d57565b60405162461bcd60e51b815260206004820152602b60248201527f496e697469616c697a61626c653a20636f6e7472616374206973206e6f74206960448201526a6e697469616c697a696e6760a81b6064820152608490fd5b6120c760ff60005460081c16612056565b6120cf612129565b565b6001600160a01b036065541633036120e557565b606460405162461bcd60e51b815260206004820152602060248201527f4f776e61626c653a2063616c6c6572206973206e6f7420746865206f776e65726044820152fd5b6065546001600160a01b03737e8ae5c72eca86946b695dcc211863d9721a096191828219821617606555167f8be0079c531659141344cd1fd0a4f28419497f9722a3daafe3b4186f6b6457e06000604051a3565b1561218457565b60405162461bcd60e51b815260206004820152601460248201527f496e73756666696369656e742062616c616e63650000000000000000000000006044820152606490fd5b6001906000198114611add570190565b156121e057565b60405162461bcd60e51b815260206004820152601160248201527f496e76616c6964207369676e61747572650000000000000000000000000000006044820152606490fd5b91936122726122a39160405160208101908682526bffffffffffffffffffffffff198660601b1660408201528860548201528760748201526074815261226a8161061d565b51902061250f565b6001600160a01b0361229b61228f6065546001600160a01b031690565b6001600160a01b031690565b9116146121d9565b6122d46122cd846122be856000526097602052604060002090565b90600052602052604060002090565b5460ff1690565b6118fc577f1aab301e8c9017b1d984dad0933c71fa7c467adbdf37196a9510d62045d84ece9361232b91612326612319866122be876000526097602052604060002090565b805460ff19166001179055565b612430565b6040805192835260208301919091524265ffffffffffff169082015280606081015b0390a1565b6001600160a01b0381169081156123eb577fddf252ad1be2c89b69c2b068fc378daa952ba7f163c4a11628f55a4df523b3ef60206000926123cf603554916a39e7139a8c08fa060000001983116123de575b6a39e7139a8c08fa060000008093016035556001600160a01b03166000526033602052604060002090565b818154019055604051908152a3565b6123e6611aba565b6123a4565b60405162461bcd60e51b815260206004820152601f60248201527f45524332303a206d696e7420746f20746865207a65726f2061646472657373006044820152606490fd5b6001600160a01b0381169182156123eb576020816123cf6000946124777fddf252ad1be2c89b69c2b068fc378daa952ba7f163c4a11628f55a4df523b3ef95603554611ad1565b6035556001600160a01b03166000526033602052604060002090565b600090819060998054925b8381106124ac575050505090565b81855282817f72a152ddfb8e864297c917af52ea6c1c68aead0fee1a62673fcc7e0c94979d000154146124e7576124e2906121c9565b61249e565b5050505050600190565b602092919061250784928281519485920161036f565b019081520190565b600090602092838101519060ff604160408301519201511692601b84106125dc575b906125ba9161258261259060405192612549846105e5565b601c84527f19457468657265756d205369676e6564204d6573736167653a0a3332000000008a8501526040519283918b830195866124f1565b03601f198101835282610639565b51902092604051948594859094939260ff6060936080840197845216602083015260408201520152565b838052039060015afa156125cf575b60005190565b6125d76117a5565b6125c9565b9290601b8260e46125ba94116125f7575b0193909150612531565b6125ff611aba565b6125ed565b1561260b57565b60405162461bcd60e51b815260206004820152600f60248201527f5374616b696e67206e6f742073657400000000000000000000000000000000006044820152606490fd5b9190916001600160a01b03906126818261267961228f609a546001600160a01b039060381c1690565b161515612604565b61269b6122cd8260ff16600052609b602052604060002090565b6118fc5761271092816126c16123196127089460ff16600052609b602052604060002090565b60405160f89190911b7fff000000000000000000000000000000000000000000000000000000000000001660208201908152602182018790529061226a8160418101612582565b1633146121d9565b61272d8161232661228f609a546001600160a01b039060381c1690565b609a546127459060381c6001600160a01b031661228f565b803b1561000e57604051631ef0ae0960e11b815260048101929092526000908290602490829084905af180156127b5575b61279c575b50609a805466ffffffffffff0019164260081b66ffffffffffff0016179055565b806127a96127af926105a8565b80610364565b3861277b565b6127bd6117a5565b612776565b6127d360ff60005460081c16612056565b60ff19609a5416609a55565b156127e657565b60405162461bcd60e51b815260206004820152600e60248201527f4e6f7420617574686f72697a65640000000000000000000000000000000000006044820152606490fd5b6000549160ff8360081c16158093819461295a575b811561293a575b50156128cf5761286d9183612864600160ff196000541617600055565b6128b657612988565b61287357565b61288361ff001960005416600055565b604051600181527f7f26b83ff96e1f2b6a682f133852f6798a09c465da95921460cefb384740249890806020810161234d565b6128ca61010061ff00196000541617600055565b612988565b60405162461bcd60e51b815260206004820152602e60248201527f496e697469616c697a61626c653a20636f6e747261637420697320616c72656160448201527f647920696e697469616c697a65640000000000000000000000000000000000006064820152608490fd5b303b1591508161294c575b5038612847565b6001915060ff161438612945565b600160ff8216109150612840565b60405190612975826105e5565b60048252631391539160e21b6020830152565b91909161013560ff8019825416921515168092179055612af4575b6129ab612968565b916129b4612968565b6129ce60ff60005460081c166129c981612056565b612056565b835167ffffffffffffffff8111612ae7575b6129f4816129ef603654611a80565b612b19565b602080601f8311600114612a5157509080612a319392612a369697600092612a46575b50508160011b916000199060031b1c191617603655612bd0565b612cc8565b612a3e6120b6565b6120cf6127c2565b015190503880612a17565b90601f19831696612a8460366000527f4a11f94e20a93c79f6ec743a1954ec4fc2c08429ae2122118bf234b2185c81b890565b926000905b898210612acf575050918391600193612a319695612a36999a10612ab6575b505050811b01603655612bd0565b015160001960f88460031b161c19169055388080612aa8565b80600185968294968601518155019501930190612a89565b612aef610591565b6129e0565b612afd30612352565b6129a3565b818110612b0d575050565b60008155600101612b02565b90601f8211612b26575050565b6120cf9160366000527f4a11f94e20a93c79f6ec743a1954ec4fc2c08429ae2122118bf234b2185c81b8906020601f840160051c83019310612b70575b601f0160051c0190612b02565b9091508190612b63565b90601f8211612b87575050565b6120cf9160376000527f42a7b7dd785cd69714a189dffb3fd7d7174edc9ece837694ce50f7078f7c31ae906020601f840160051c83019310612b7057601f0160051c0190612b02565b90815167ffffffffffffffff8111612cbb575b612bf781612bf2603754611a80565b612b7a565b602080601f8311600114612c335750819293600092612c28575b50508160011b916000199060031b1c191617603755565b015190503880612c11565b90601f19831694612c6660376000527f42a7b7dd785cd69714a189dffb3fd7d7174edc9ece837694ce50f7078f7c31ae90565b926000905b878210612ca3575050836001959610612c8a575b505050811b01603755565b015160001960f88460031b161c19169055388080612c7f565b80600185968294968601518155019501930190612c6b565b612cc3610591565b612be3565b612cd960ff60005460081c16612056565b8051680100000000000000008111612d9f575b60995481609955808210612d69575b506099600090815260207f72a152ddfb8e864297c917af52ea6c1c68aead0fee1a62673fcc7e0c94979d008482015b848410612d545750505050506001612d43915111612dcb565b6120cf612d4f46612493565b612e29565b60018382829351855501920193019290612d2a565b612d9990827f72a152ddfb8e864297c917af52ea6c1c68aead0fee1a62673fcc7e0c94979d009182019101612b02565b38612cfb565b612da7610591565b612cec565b8060001904821181151516612dbf570290565b612dc7611aba565b0290565b15612dd257565b60405162461bcd60e51b815260206004820152602960248201527f4d7573742068617665206174206c656173742074776f2064657374696e6174696044820152686f6e20636861696e7360b81b6064820152608490fd5b15612e3057565b60405162461bcd60e51b815260206004820152603460248201527f54686520686f7374656420636861696e206d757374206265206f6e65206f662060448201527f74686520737570706f7274656420636861696e730000000000000000000000006064820152608490fd5b8115612ea5570490565b634e487b7160e01b600052601260045260246000fd5b609a5465ffffffffffff8160081c168015612f6e57612f11612f3b92824210612f61575b60ff8342039161271094836000190486119042141516612f54575b1615612f46578262ffffff6102585b169102612e9b565b90808211612f3e575b50612f35612f2d609c5492609d54612dac565b612710900490565b90611ad1565b90565b905038612f1a565b8262ffffff62093a80612f09565b612f5c611aba565b612efa565b612f69611aba565b612edf565b5050609c549056fea2646970667358221220f97f52bb72e004cc9d5771684c46cba34c30384de9520e45905fea3bfb4e6f0164736f6c634300080e00337f26b83ff96e1f2b6a682f133852f6798a09c465da95921460cefb3847402498",
  "devdoc": {
    "kind": "dev",
    "methods": {
      "allowance(address,address)": {
        "details": "See {IERC20-allowance}."
      },
      "approve(address,uint256)": {
        "details": "See {IERC20-approve}. NOTE: If `amount` is the maximum `uint256`, the allowance is not updated on `transferFrom`. This is semantically equivalent to an infinite approval. Requirements: - `spender` cannot be the zero address."
      },
      "balanceOf(address)": {
        "details": "See {IERC20-balanceOf}."
      },
      "burn(uint256)": {
        "details": "Destroys `amount` tokens from the caller. See {ERC20-_burn}."
      },
      "burnFrom(address,uint256)": {
        "details": "Destroys `amount` tokens from `account`, deducting from the caller's allowance. See {ERC20-_burn} and {ERC20-allowance}. Requirements: - the caller must have allowance for ``accounts``'s tokens of at least `amount`."
      },
      "decimals()": {
        "details": "Returns the number of decimals used to get its user representation. For example, if `decimals` equals `2`, a balance of `505` tokens should be displayed to a user as `5.05` (`505 / 10 ** 2`). Tokens usually opt for a value of 18, imitating the relationship between Ether and Wei. This is the default value returned by this function, unless it's overridden. NOTE: This information is only used for _display_ purposes: it in no way affects any of the arithmetic of the contract, including {IERC20-balanceOf} and {IERC20-transfer}."
      },
      "decreaseAllowance(address,uint256)": {
        "details": "Atomically decreases the allowance granted to `spender` by the caller. This is an alternative to {approve} that can be used as a mitigation for problems described in {IERC20-approve}. Emits an {Approval} event indicating the updated allowance. Requirements: - `spender` cannot be the zero address. - `spender` must have allowance for the caller of at least `subtractedValue`."
      },
      "increaseAllowance(address,uint256)": {
        "details": "Atomically increases the allowance granted to `spender` by the caller. This is an alternative to {approve} that can be used as a mitigation for problems described in {IERC20-approve}. Emits an {Approval} event indicating the updated allowance. Requirements: - `spender` cannot be the zero address."
      },
      "name()": {
        "details": "Returns the name of the token."
      },
      "owner()": {
        "details": "Returns the address of the current owner."
      },
      "proxiableUUID()": {
        "details": "Implementation of the ERC1822 {proxiableUUID} function. This returns the storage slot used by the implementation. It is used to validate the implementation's compatibility when performing an upgrade. IMPORTANT: A proxy pointing at a proxiable contract should not be considered proxiable itself, because this risks bricking a proxy that upgrades to it, by delegating to itself until out of gas. Thus it is critical that this function revert if invoked through a proxy. This is guaranteed by the `notDelegated` modifier."
      },
      "renounceOwnership()": {
        "details": "Leaves the contract without owner. It will not be possible to call `onlyOwner` functions anymore. Can only be called by the current owner. NOTE: Renouncing ownership will leave the contract without an owner, thereby removing any functionality that is only available to the owner."
      },
      "symbol()": {
        "details": "Returns the symbol of the token, usually a shorter version of the name."
      },
      "totalSupply()": {
        "details": "See {IERC20-totalSupply}."
      },
      "transfer(address,uint256)": {
        "details": "See {IERC20-transfer}. Requirements: - `to` cannot be the zero address. - the caller must have a balance of at least `amount`."
      },
      "transferFrom(address,address,uint256)": {
        "details": "See {IERC20-transferFrom}. Emits an {Approval} event indicating the updated allowance. This is not required by the EIP. See the note at the beginning of {ERC20}. NOTE: Does not update the allowance if the current allowance is the maximum `uint256`. Requirements: - `from` and `to` cannot be the zero address. - `from` must have a balance of at least `amount`. - the caller must have allowance for ``from``'s tokens of at least `amount`."
      },
      "transferOwnership(address)": {
        "details": "Transfers ownership of the contract to a new account (`newOwner`). Can only be called by the current owner."
      },
      "upgradeTo(address)": {
        "custom:oz-upgrades-unsafe-allow-reachable": "delegatecall",
        "details": "Upgrade the implementation of the proxy to `newImplementation`. Calls {_authorizeUpgrade}. Emits an {Upgraded} event."
      },
      "upgradeToAndCall(address,bytes)": {
        "custom:oz-upgrades-unsafe-allow-reachable": "delegatecall",
        "details": "Upgrade the implementation of the proxy to `newImplementation`, and subsequently execute the function call encoded in `data`. Calls {_authorizeUpgrade}. Emits an {Upgraded} event."
      }
    },
    "version": 1
  },
  "userdoc": {
    "kind": "user",
    "methods": {},
    "version": 1
  },
  "storageLayout": {
    "storage": [
      {
        "astId": 687,
        "contract": "contracts/token/ERC20/NEND.sol:NEND",
        "label": "_initialized",
        "offset": 0,
        "slot": "0",
        "type": "t_uint8"
      },
      {
        "astId": 690,
        "contract": "contracts/token/ERC20/NEND.sol:NEND",
        "label": "_initializing",
        "offset": 1,
        "slot": "0",
        "type": "t_bool"
      },
      {
        "astId": 4108,
        "contract": "contracts/token/ERC20/NEND.sol:NEND",
        "label": "__gap",
        "offset": 0,
        "slot": "1",
        "type": "t_array(t_uint256)50_storage"
      },
      {
        "astId": 1219,
        "contract": "contracts/token/ERC20/NEND.sol:NEND",
        "label": "_balances",
        "offset": 0,
        "slot": "51",
        "type": "t_mapping(t_address,t_uint256)"
      },
      {
        "astId": 1225,
        "contract": "contracts/token/ERC20/NEND.sol:NEND",
        "label": "_allowances",
        "offset": 0,
        "slot": "52",
        "type": "t_mapping(t_address,t_mapping(t_address,t_uint256))"
      },
      {
        "astId": 1227,
        "contract": "contracts/token/ERC20/NEND.sol:NEND",
        "label": "_totalSupply",
        "offset": 0,
        "slot": "53",
        "type": "t_uint256"
      },
      {
        "astId": 1229,
        "contract": "contracts/token/ERC20/NEND.sol:NEND",
        "label": "_name",
        "offset": 0,
        "slot": "54",
        "type": "t_string_storage"
      },
      {
        "astId": 1231,
        "contract": "contracts/token/ERC20/NEND.sol:NEND",
        "label": "_symbol",
        "offset": 0,
        "slot": "55",
        "type": "t_string_storage"
      },
      {
        "astId": 1811,
        "contract": "contracts/token/ERC20/NEND.sol:NEND",
        "label": "__gap",
        "offset": 0,
        "slot": "56",
        "type": "t_array(t_uint256)45_storage"
      },
      {
        "astId": 13012,
        "contract": "contracts/token/ERC20/NEND.sol:NEND",
        "label": "_owner",
        "offset": 0,
        "slot": "101",
        "type": "t_address"
      },
      {
        "astId": 13132,
        "contract": "contracts/token/ERC20/NEND.sol:NEND",
        "label": "__gap",
        "offset": 0,
        "slot": "102",
        "type": "t_array(t_uint256)49_storage"
      },
      {
        "astId": 14960,
        "contract": "contracts/token/ERC20/NEND.sol:NEND",
        "label": "chainNonceToExecutedMapping",
        "offset": 0,
        "slot": "151",
        "type": "t_mapping(t_uint256,t_mapping(t_uint256,t_bool))"
      },
      {
        "astId": 14962,
        "contract": "contracts/token/ERC20/NEND.sol:NEND",
        "label": "nonce",
        "offset": 0,
        "slot": "152",
        "type": "t_uint256"
      },
      {
        "astId": 14965,
        "contract": "contracts/token/ERC20/NEND.sol:NEND",
        "label": "supportedChainIds",
        "offset": 0,
        "slot": "153",
        "type": "t_array(t_uint256)dyn_storage"
      },
      {
        "astId": 31911,
        "contract": "contracts/token/ERC20/NEND.sol:NEND",
        "label": "testing",
        "offset": 0,
        "slot": "154",
        "type": "t_bool"
      },
      {
        "astId": 15804,
        "contract": "contracts/token/ERC20/NEND.sol:NEND",
        "label": "lastInflation",
        "offset": 1,
        "slot": "154",
        "type": "t_uint48"
      },
      {
        "astId": 15807,
        "contract": "contracts/token/ERC20/NEND.sol:NEND",
        "label": "staking",
        "offset": 7,
        "slot": "154",
        "type": "t_contract(ILendingPoolStaking)30998"
      },
      {
        "astId": 15811,
        "contract": "contracts/token/ERC20/NEND.sol:NEND",
        "label": "isProcessed",
        "offset": 0,
        "slot": "155",
        "type": "t_mapping(t_uint8,t_bool)"
      },
      {
        "astId": 32059,
        "contract": "contracts/token/ERC20/NEND.sol:NEND",
        "label": "crossChainSupply",
        "offset": 0,
        "slot": "156",
        "type": "t_uint256"
      },
      {
        "astId": 32061,
        "contract": "contracts/token/ERC20/NEND.sol:NEND",
        "label": "crossChainInflationAmount",
        "offset": 0,
        "slot": "157",
        "type": "t_uint256"
      },
      {
        "astId": 13144,
        "contract": "contracts/token/ERC20/NEND.sol:NEND",
        "label": "hasRole",
        "offset": 0,
        "slot": "158",
        "type": "t_mapping(t_address,t_mapping(t_string_memory_ptr,t_bool))"
      },
      {
        "astId": 1954,
        "contract": "contracts/token/ERC20/NEND.sol:NEND",
        "label": "__gap",
        "offset": 0,
        "slot": "159",
        "type": "t_array(t_uint256)50_storage"
      },
      {
        "astId": 669,
        "contract": "contracts/token/ERC20/NEND.sol:NEND",
        "label": "__gap",
        "offset": 0,
        "slot": "209",
        "type": "t_array(t_uint256)50_storage"
      },
      {
        "astId": 985,
        "contract": "contracts/token/ERC20/NEND.sol:NEND",
        "label": "__gap",
        "offset": 0,
        "slot": "259",
        "type": "t_array(t_uint256)50_storage"
      },
      {
        "astId": 31965,
        "contract": "contracts/token/ERC20/NEND.sol:NEND",
        "label": "isMintChain",
        "offset": 0,
        "slot": "309",
        "type": "t_bool"
      }
    ],
    "types": {
      "t_address": {
        "encoding": "inplace",
        "label": "address",
        "numberOfBytes": "20"
      },
      "t_array(t_uint256)45_storage": {
        "base": "t_uint256",
        "encoding": "inplace",
        "label": "uint256[45]",
        "numberOfBytes": "1440"
      },
      "t_array(t_uint256)49_storage": {
        "base": "t_uint256",
        "encoding": "inplace",
        "label": "uint256[49]",
        "numberOfBytes": "1568"
      },
      "t_array(t_uint256)50_storage": {
        "base": "t_uint256",
        "encoding": "inplace",
        "label": "uint256[50]",
        "numberOfBytes": "1600"
      },
      "t_array(t_uint256)dyn_storage": {
        "base": "t_uint256",
        "encoding": "dynamic_array",
        "label": "uint256[]",
        "numberOfBytes": "32"
      },
      "t_bool": {
        "encoding": "inplace",
        "label": "bool",
        "numberOfBytes": "1"
      },
      "t_contract(ILendingPoolStaking)30998": {
        "encoding": "inplace",
        "label": "contract ILendingPoolStaking",
        "numberOfBytes": "20"
      },
      "t_mapping(t_address,t_mapping(t_address,t_uint256))": {
        "encoding": "mapping",
        "key": "t_address",
        "label": "mapping(address => mapping(address => uint256))",
        "numberOfBytes": "32",
        "value": "t_mapping(t_address,t_uint256)"
      },
      "t_mapping(t_address,t_mapping(t_string_memory_ptr,t_bool))": {
        "encoding": "mapping",
        "key": "t_address",
        "label": "mapping(address => mapping(string => bool))",
        "numberOfBytes": "32",
        "value": "t_mapping(t_string_memory_ptr,t_bool)"
      },
      "t_mapping(t_address,t_uint256)": {
        "encoding": "mapping",
        "key": "t_address",
        "label": "mapping(address => uint256)",
        "numberOfBytes": "32",
        "value": "t_uint256"
      },
      "t_mapping(t_string_memory_ptr,t_bool)": {
        "encoding": "mapping",
        "key": "t_string_memory_ptr",
        "label": "mapping(string => bool)",
        "numberOfBytes": "32",
        "value": "t_bool"
      },
      "t_mapping(t_uint256,t_bool)": {
        "encoding": "mapping",
        "key": "t_uint256",
        "label": "mapping(uint256 => bool)",
        "numberOfBytes": "32",
        "value": "t_bool"
      },
      "t_mapping(t_uint256,t_mapping(t_uint256,t_bool))": {
        "encoding": "mapping",
        "key": "t_uint256",
        "label": "mapping(uint256 => mapping(uint256 => bool))",
        "numberOfBytes": "32",
        "value": "t_mapping(t_uint256,t_bool)"
      },
      "t_mapping(t_uint8,t_bool)": {
        "encoding": "mapping",
        "key": "t_uint8",
        "label": "mapping(uint8 => bool)",
        "numberOfBytes": "32",
        "value": "t_bool"
      },
      "t_string_memory_ptr": {
        "encoding": "bytes",
        "label": "string",
        "numberOfBytes": "32"
      },
      "t_string_storage": {
        "encoding": "bytes",
        "label": "string",
        "numberOfBytes": "32"
      },
      "t_uint256": {
        "encoding": "inplace",
        "label": "uint256",
        "numberOfBytes": "32"
      },
      "t_uint48": {
        "encoding": "inplace",
        "label": "uint48",
        "numberOfBytes": "6"
      },
      "t_uint8": {
        "encoding": "inplace",
        "label": "uint8",
        "numberOfBytes": "1"
      }
    }
  }
}