{
  "address": "0xe813F7F447254F48e74f6536521Aa2473C7172dC",
  "abi": [
    {
      "inputs": [],
      "name": "InsufficientBalance",
      "type": "error"
    },
    {
      "inputs": [
        {
          "internalType": "string",
          "name": "details",
          "type": "string"
        }
      ],
      "name": "InvalidArgument",
      "type": "error"
    },
    {
      "inputs": [],
      "name": "InvalidState",
      "type": "error"
    },
    {
      "inputs": [],
      "name": "Unauthorized",
      "type": "error"
    },
    {
      "anonymous": false,
      "inputs": [
        {
          "indexed": false,
          "internalType": "address",
          "name": "previousAdmin",
          "type": "address"
        },
        {
          "indexed": false,
          "internalType": "address",
          "name": "newAdmin",
          "type": "address"
        }
      ],
      "name": "AdminChanged",
      "type": "event"
    },
    {
      "anonymous": false,
      "inputs": [
        {
          "indexed": true,
          "internalType": "address",
          "name": "owner",
          "type": "address"
        },
        {
          "indexed": true,
          "internalType": "address",
          "name": "approved",
          "type": "address"
        },
        {
          "indexed": true,
          "internalType": "uint256",
          "name": "tokenId",
          "type": "uint256"
        }
      ],
      "name": "Approval",
      "type": "event"
    },
    {
      "anonymous": false,
      "inputs": [
        {
          "indexed": true,
          "internalType": "address",
          "name": "owner",
          "type": "address"
        },
        {
          "indexed": true,
          "internalType": "address",
          "name": "operator",
          "type": "address"
        },
        {
          "indexed": false,
          "internalType": "bool",
          "name": "approved",
          "type": "bool"
        }
      ],
      "name": "ApprovalForAll",
      "type": "event"
    },
    {
      "anonymous": false,
      "inputs": [
        {
          "indexed": false,
          "internalType": "uint256",
          "name": "_fromTokenId",
          "type": "uint256"
        },
        {
          "indexed": false,
          "internalType": "uint256",
          "name": "_toTokenId",
          "type": "uint256"
        }
      ],
      "name": "BatchMetadataUpdate",
      "type": "event"
    },
    {
      "anonymous": false,
      "inputs": [
        {
          "indexed": true,
          "internalType": "address",
          "name": "beacon",
          "type": "address"
        }
      ],
      "name": "BeaconUpgraded",
      "type": "event"
    },
    {
      "anonymous": false,
      "inputs": [
        {
          "indexed": false,
          "internalType": "uint256",
          "name": "stakeId",
          "type": "uint256"
        },
        {
          "indexed": false,
          "internalType": "enum ILendingPoolStaking.EscrowStatus",
          "name": "status",
          "type": "uint8"
        }
      ],
      "name": "EscrowStatusChanged",
      "type": "event"
    },
    {
      "anonymous": false,
      "inputs": [],
      "name": "InflationRewardDistributed",
      "type": "event"
    },
    {
      "anonymous": false,
      "inputs": [
        {
          "indexed": false,
          "internalType": "uint8",
          "name": "version",
          "type": "uint8"
        }
      ],
      "name": "Initialized",
      "type": "event"
    },
    {
      "anonymous": false,
      "inputs": [
        {
          "indexed": false,
          "internalType": "uint256",
          "name": "_tokenId",
          "type": "uint256"
        }
      ],
      "name": "MetadataUpdate",
      "type": "event"
    },
    {
      "anonymous": false,
      "inputs": [],
      "name": "NonInflationRewardDistributed",
      "type": "event"
    },
    {
      "anonymous": false,
      "inputs": [
        {
          "indexed": true,
          "internalType": "address",
          "name": "previousOwner",
          "type": "address"
        },
        {
          "indexed": true,
          "internalType": "address",
          "name": "newOwner",
          "type": "address"
        }
      ],
      "name": "OwnershipTransferred",
      "type": "event"
    },
    {
      "anonymous": false,
      "inputs": [
        {
          "indexed": false,
          "internalType": "uint256",
          "name": "stakedMigrated",
          "type": "uint256"
        }
      ],
      "name": "StakeMigrationCompleted",
      "type": "event"
    },
    {
      "anonymous": false,
      "inputs": [
        {
          "indexed": false,
          "internalType": "uint256",
          "name": "stakeId",
          "type": "uint256"
        },
        {
          "indexed": false,
          "internalType": "enum ILendingPoolStaking.StakeStatus",
          "name": "status",
          "type": "uint8"
        }
      ],
      "name": "StakeStatusChanged",
      "type": "event"
    },
    {
      "anonymous": false,
      "inputs": [
        {
          "indexed": false,
          "internalType": "uint256",
          "name": "stakeId",
          "type": "uint256"
        },
        {
          "indexed": false,
          "internalType": "address",
          "name": "staker",
          "type": "address"
        },
        {
          "indexed": false,
          "internalType": "address",
          "name": "token",
          "type": "address"
        },
        {
          "indexed": false,
          "internalType": "uint48",
          "name": "start",
          "type": "uint48"
        },
        {
          "indexed": false,
          "internalType": "uint48",
          "name": "end",
          "type": "uint48"
        },
        {
          "indexed": false,
          "internalType": "uint256[3]",
          "name": "amountsPerDuration",
          "type": "uint256[3]"
        },
        {
          "indexed": false,
          "internalType": "bool",
          "name": "isEscrow",
          "type": "bool"
        }
      ],
      "name": "Staked",
      "type": "event"
    },
    {
      "anonymous": false,
      "inputs": [
        {
          "indexed": true,
          "internalType": "address",
          "name": "from",
          "type": "address"
        },
        {
          "indexed": true,
          "internalType": "address",
          "name": "to",
          "type": "address"
        },
        {
          "indexed": true,
          "internalType": "uint256",
          "name": "tokenId",
          "type": "uint256"
        }
      ],
      "name": "Transfer",
      "type": "event"
    },
    {
      "anonymous": false,
      "inputs": [
        {
          "indexed": true,
          "internalType": "address",
          "name": "implementation",
          "type": "address"
        }
      ],
      "name": "Upgraded",
      "type": "event"
    },
    {
      "inputs": [],
      "name": "__MWOwnable_init",
      "outputs": [],
      "stateMutability": "nonpayable",
      "type": "function"
    },
    {
      "inputs": [],
      "name": "__Testing_init",
      "outputs": [],
      "stateMutability": "nonpayable",
      "type": "function"
    },
    {
      "inputs": [
        {
          "internalType": "uint256",
          "name": "",
          "type": "uint256"
        }
      ],
      "name": "activeStakeIds",
      "outputs": [
        {
          "internalType": "uint256",
          "name": "",
          "type": "uint256"
        }
      ],
      "stateMutability": "view",
      "type": "function"
    },
    {
      "inputs": [
        {
          "internalType": "address",
          "name": "",
          "type": "address"
        }
      ],
      "name": "activeStakeTokens",
      "outputs": [
        {
          "internalType": "bool",
          "name": "",
          "type": "bool"
        }
      ],
      "stateMutability": "view",
      "type": "function"
    },
    {
      "inputs": [
        {
          "internalType": "address",
          "name": "_stakeToken",
          "type": "address"
        }
      ],
      "name": "addStakeToken",
      "outputs": [],
      "stateMutability": "nonpayable",
      "type": "function"
    },
    {
      "inputs": [
        {
          "internalType": "address",
          "name": "to",
          "type": "address"
        },
        {
          "internalType": "uint256",
          "name": "tokenId",
          "type": "uint256"
        }
      ],
      "name": "approve",
      "outputs": [],
      "stateMutability": "nonpayable",
      "type": "function"
    },
    {
      "inputs": [
        {
          "internalType": "address",
          "name": "operator",
          "type": "address"
        },
        {
          "internalType": "string",
          "name": "role",
          "type": "string"
        },
        {
          "internalType": "bool",
          "name": "authorized",
          "type": "bool"
        }
      ],
      "name": "authorize",
      "outputs": [],
      "stateMutability": "nonpayable",
      "type": "function"
    },
    {
      "inputs": [
        {
          "internalType": "address",
          "name": "owner",
          "type": "address"
        }
      ],
      "name": "balanceOf",
      "outputs": [
        {
          "internalType": "uint256",
          "name": "",
          "type": "uint256"
        }
      ],
      "stateMutability": "view",
      "type": "function"
    },
    {
      "inputs": [
        {
          "internalType": "address",
          "name": "_token",
          "type": "address"
        },
        {
          "internalType": "uint256",
          "name": "_amount",
          "type": "uint256"
        },
        {
          "internalType": "uint8",
          "name": "_durationId",
          "type": "uint8"
        }
      ],
      "name": "deposit",
      "outputs": [],
      "stateMutability": "payable",
      "type": "function"
    },
    {
      "inputs": [
        {
          "internalType": "uint256",
          "name": "_inflationReward",
          "type": "uint256"
        }
      ],
      "name": "distributeInflationRewards",
      "outputs": [],
      "stateMutability": "nonpayable",
      "type": "function"
    },
    {
      "inputs": [],
      "name": "distributeNonInflationRewards",
      "outputs": [],
      "stateMutability": "nonpayable",
      "type": "function"
    },
    {
      "inputs": [],
      "name": "escrowLockPeriod",
      "outputs": [
        {
          "internalType": "uint48",
          "name": "",
          "type": "uint48"
        }
      ],
      "stateMutability": "view",
      "type": "function"
    },
    {
      "inputs": [
        {
          "internalType": "uint256",
          "name": "tokenId",
          "type": "uint256"
        }
      ],
      "name": "getApproved",
      "outputs": [
        {
          "internalType": "address",
          "name": "",
          "type": "address"
        }
      ],
      "stateMutability": "view",
      "type": "function"
    },
    {
      "inputs": [],
      "name": "hasPendingNonInflationRewards",
      "outputs": [
        {
          "internalType": "bool",
          "name": "",
          "type": "bool"
        }
      ],
      "stateMutability": "view",
      "type": "function"
    },
    {
      "inputs": [
        {
          "internalType": "address",
          "name": "",
          "type": "address"
        },
        {
          "internalType": "string",
          "name": "",
          "type": "string"
        }
      ],
      "name": "hasRole",
      "outputs": [
        {
          "internalType": "bool",
          "name": "",
          "type": "bool"
        }
      ],
      "stateMutability": "view",
      "type": "function"
    },
    {
      "inputs": [
        {
          "internalType": "address",
          "name": "",
          "type": "address"
        }
      ],
      "name": "inflationRollOver",
      "outputs": [
        {
          "internalType": "uint256",
          "name": "",
          "type": "uint256"
        }
      ],
      "stateMutability": "view",
      "type": "function"
    },
    {
      "inputs": [
        {
          "internalType": "address",
          "name": "_nend",
          "type": "address"
        },
        {
          "internalType": "contract Vault",
          "name": "_lendingPool",
          "type": "address"
        }
      ],
      "name": "initialize",
      "outputs": [],
      "stateMutability": "nonpayable",
      "type": "function"
    },
    {
      "inputs": [
        {
          "internalType": "uint256",
          "name": "",
          "type": "uint256"
        }
      ],
      "name": "isActiveStake",
      "outputs": [
        {
          "internalType": "bool",
          "name": "",
          "type": "bool"
        }
      ],
      "stateMutability": "view",
      "type": "function"
    },
    {
      "inputs": [
        {
          "internalType": "address",
          "name": "owner",
          "type": "address"
        },
        {
          "internalType": "address",
          "name": "operator",
          "type": "address"
        }
      ],
      "name": "isApprovedForAll",
      "outputs": [
        {
          "internalType": "bool",
          "name": "",
          "type": "bool"
        }
      ],
      "stateMutability": "view",
      "type": "function"
    },
    {
      "inputs": [
        {
          "internalType": "uint256",
          "name": "_stakeId",
          "type": "uint256"
        }
      ],
      "name": "issueEAB",
      "outputs": [],
      "stateMutability": "nonpayable",
      "type": "function"
    },
    {
      "inputs": [
        {
          "internalType": "address",
          "name": "",
          "type": "address"
        },
        {
          "internalType": "uint8",
          "name": "",
          "type": "uint8"
        }
      ],
      "name": "lastEscrowRewardByToken_Duration",
      "outputs": [
        {
          "internalType": "uint256",
          "name": "",
          "type": "uint256"
        }
      ],
      "stateMutability": "view",
      "type": "function"
    },
    {
      "inputs": [],
      "name": "lendingPool",
      "outputs": [
        {
          "internalType": "contract Vault",
          "name": "",
          "type": "address"
        }
      ],
      "stateMutability": "view",
      "type": "function"
    },
    {
      "inputs": [],
      "name": "migrateStakesToMapping",
      "outputs": [],
      "stateMutability": "nonpayable",
      "type": "function"
    },
    {
      "inputs": [],
      "name": "migrationCompleted",
      "outputs": [
        {
          "internalType": "bool",
          "name": "",
          "type": "bool"
        }
      ],
      "stateMutability": "view",
      "type": "function"
    },
    {
      "inputs": [],
      "name": "name",
      "outputs": [
        {
          "internalType": "string",
          "name": "",
          "type": "string"
        }
      ],
      "stateMutability": "view",
      "type": "function"
    },
    {
      "inputs": [],
      "name": "nend",
      "outputs": [
        {
          "internalType": "address",
          "name": "",
          "type": "address"
        }
      ],
      "stateMutability": "view",
      "type": "function"
    },
    {
      "inputs": [],
      "name": "nextStakeId",
      "outputs": [
        {
          "internalType": "uint256",
          "name": "",
          "type": "uint256"
        }
      ],
      "stateMutability": "view",
      "type": "function"
    },
    {
      "inputs": [],
      "name": "ongoingStakeCount",
      "outputs": [
        {
          "internalType": "uint256",
          "name": "",
          "type": "uint256"
        }
      ],
      "stateMutability": "view",
      "type": "function"
    },
    {
      "inputs": [],
      "name": "owner",
      "outputs": [
        {
          "internalType": "address",
          "name": "",
          "type": "address"
        }
      ],
      "stateMutability": "view",
      "type": "function"
    },
    {
      "inputs": [
        {
          "internalType": "uint256",
          "name": "tokenId",
          "type": "uint256"
        }
      ],
      "name": "ownerOf",
      "outputs": [
        {
          "internalType": "address",
          "name": "",
          "type": "address"
        }
      ],
      "stateMutability": "view",
      "type": "function"
    },
    {
      "inputs": [],
      "name": "poolRollOver",
      "outputs": [
        {
          "internalType": "uint256",
          "name": "",
          "type": "uint256"
        }
      ],
      "stateMutability": "view",
      "type": "function"
    },
    {
      "inputs": [],
      "name": "proxiableUUID",
      "outputs": [
        {
          "internalType": "bytes32",
          "name": "",
          "type": "bytes32"
        }
      ],
      "stateMutability": "view",
      "type": "function"
    },
    {
      "inputs": [
        {
          "internalType": "address",
          "name": "_stakeToken",
          "type": "address"
        }
      ],
      "name": "removeStakeToken",
      "outputs": [],
      "stateMutability": "nonpayable",
      "type": "function"
    },
    {
      "inputs": [],
      "name": "renounceOwnership",
      "outputs": [],
      "stateMutability": "nonpayable",
      "type": "function"
    },
    {
      "inputs": [
        {
          "internalType": "uint256",
          "name": "",
          "type": "uint256"
        }
      ],
      "name": "rewardAllocations",
      "outputs": [
        {
          "internalType": "uint8",
          "name": "",
          "type": "uint8"
        }
      ],
      "stateMutability": "view",
      "type": "function"
    },
    {
      "inputs": [
        {
          "internalType": "address",
          "name": "from",
          "type": "address"
        },
        {
          "internalType": "address",
          "name": "to",
          "type": "address"
        },
        {
          "internalType": "uint256",
          "name": "tokenId",
          "type": "uint256"
        }
      ],
      "name": "safeTransferFrom",
      "outputs": [],
      "stateMutability": "nonpayable",
      "type": "function"
    },
    {
      "inputs": [
        {
          "internalType": "address",
          "name": "from",
          "type": "address"
        },
        {
          "internalType": "address",
          "name": "to",
          "type": "address"
        },
        {
          "internalType": "uint256",
          "name": "tokenId",
          "type": "uint256"
        },
        {
          "internalType": "bytes",
          "name": "data",
          "type": "bytes"
        }
      ],
      "name": "safeTransferFrom",
      "outputs": [],
      "stateMutability": "nonpayable",
      "type": "function"
    },
    {
      "inputs": [
        {
          "internalType": "address",
          "name": "operator",
          "type": "address"
        },
        {
          "internalType": "bool",
          "name": "approved",
          "type": "bool"
        }
      ],
      "name": "setApprovalForAll",
      "outputs": [],
      "stateMutability": "nonpayable",
      "type": "function"
    },
    {
      "inputs": [
        {
          "internalType": "uint8[3]",
          "name": "_rewardAllocations",
          "type": "uint8[3]"
        }
      ],
      "name": "setRewardAllocations",
      "outputs": [],
      "stateMutability": "nonpayable",
      "type": "function"
    },
    {
      "inputs": [
        {
          "internalType": "bool",
          "name": "_testing",
          "type": "bool"
        }
      ],
      "name": "setTesting",
      "outputs": [],
      "stateMutability": "nonpayable",
      "type": "function"
    },
    {
      "inputs": [
        {
          "internalType": "uint256",
          "name": "_tokenId",
          "type": "uint256"
        },
        {
          "internalType": "string",
          "name": "_tokenURI",
          "type": "string"
        }
      ],
      "name": "setTokenURI",
      "outputs": [],
      "stateMutability": "nonpayable",
      "type": "function"
    },
    {
      "inputs": [
        {
          "internalType": "uint256",
          "name": "",
          "type": "uint256"
        }
      ],
      "name": "stakeDurations",
      "outputs": [
        {
          "internalType": "uint48",
          "name": "",
          "type": "uint48"
        }
      ],
      "stateMutability": "view",
      "type": "function"
    },
    {
      "inputs": [
        {
          "internalType": "uint256",
          "name": "_stakeId",
          "type": "uint256"
        }
      ],
      "name": "stakeEscrowedReward",
      "outputs": [],
      "stateMutability": "nonpayable",
      "type": "function"
    },
    {
      "inputs": [],
      "name": "stakeTokenCount",
      "outputs": [
        {
          "internalType": "uint256",
          "name": "",
          "type": "uint256"
        }
      ],
      "stateMutability": "view",
      "type": "function"
    },
    {
      "inputs": [
        {
          "internalType": "uint256",
          "name": "",
          "type": "uint256"
        }
      ],
      "name": "stakeTokens",
      "outputs": [
        {
          "internalType": "address",
          "name": "",
          "type": "address"
        }
      ],
      "stateMutability": "view",
      "type": "function"
    },
    {
      "inputs": [
        {
          "internalType": "uint256",
          "name": "",
          "type": "uint256"
        }
      ],
      "name": "stakes",
      "outputs": [
        {
          "internalType": "address",
          "name": "staker",
          "type": "address"
        },
        {
          "internalType": "address",
          "name": "token",
          "type": "address"
        },
        {
          "internalType": "uint48",
          "name": "start",
          "type": "uint48"
        },
        {
          "internalType": "uint48",
          "name": "end",
          "type": "uint48"
        },
        {
          "internalType": "uint256",
          "name": "rewardAllocated",
          "type": "uint256"
        },
        {
          "internalType": "bool",
          "name": "isEscrow",
          "type": "bool"
        },
        {
          "internalType": "enum ILendingPoolStaking.EscrowStatus",
          "name": "escrowStatus",
          "type": "uint8"
        },
        {
          "internalType": "enum ILendingPoolStaking.StakeStatus",
          "name": "stakeStatus",
          "type": "uint8"
        }
      ],
      "stateMutability": "view",
      "type": "function"
    },
    {
      "inputs": [
        {
          "internalType": "bytes4",
          "name": "interfaceId",
          "type": "bytes4"
        }
      ],
      "name": "supportsInterface",
      "outputs": [
        {
          "internalType": "bool",
          "name": "",
          "type": "bool"
        }
      ],
      "stateMutability": "view",
      "type": "function"
    },
    {
      "inputs": [],
      "name": "symbol",
      "outputs": [
        {
          "internalType": "string",
          "name": "",
          "type": "string"
        }
      ],
      "stateMutability": "view",
      "type": "function"
    },
    {
      "inputs": [],
      "name": "testing",
      "outputs": [
        {
          "internalType": "bool",
          "name": "",
          "type": "bool"
        }
      ],
      "stateMutability": "view",
      "type": "function"
    },
    {
      "inputs": [
        {
          "internalType": "uint256",
          "name": "tokenId",
          "type": "uint256"
        }
      ],
      "name": "tokenURI",
      "outputs": [
        {
          "internalType": "string",
          "name": "",
          "type": "string"
        }
      ],
      "stateMutability": "view",
      "type": "function"
    },
    {
      "inputs": [
        {
          "internalType": "address",
          "name": "",
          "type": "address"
        },
        {
          "internalType": "uint8",
          "name": "",
          "type": "uint8"
        }
      ],
      "name": "totalStakedByToken_Duration",
      "outputs": [
        {
          "internalType": "uint256",
          "name": "",
          "type": "uint256"
        }
      ],
      "stateMutability": "view",
      "type": "function"
    },
    {
      "inputs": [
        {
          "internalType": "address",
          "name": "from",
          "type": "address"
        },
        {
          "internalType": "address",
          "name": "to",
          "type": "address"
        },
        {
          "internalType": "uint256",
          "name": "tokenId",
          "type": "uint256"
        }
      ],
      "name": "transferFrom",
      "outputs": [],
      "stateMutability": "nonpayable",
      "type": "function"
    },
    {
      "inputs": [
        {
          "internalType": "address",
          "name": "newOwner",
          "type": "address"
        }
      ],
      "name": "transferOwnership",
      "outputs": [],
      "stateMutability": "nonpayable",
      "type": "function"
    },
    {
      "inputs": [
        {
          "internalType": "uint256",
          "name": "_stakeId",
          "type": "uint256"
        }
      ],
      "name": "unstake",
      "outputs": [],
      "stateMutability": "nonpayable",
      "type": "function"
    },
    {
      "inputs": [
        {
          "internalType": "address",
          "name": "newImplementation",
          "type": "address"
        }
      ],
      "name": "upgradeTo",
      "outputs": [],
      "stateMutability": "nonpayable",
      "type": "function"
    },
    {
      "inputs": [
        {
          "internalType": "address",
          "name": "newImplementation",
          "type": "address"
        },
        {
          "internalType": "bytes",
          "name": "data",
          "type": "bytes"
        }
      ],
      "name": "upgradeToAndCall",
      "outputs": [],
      "stateMutability": "payable",
      "type": "function"
    }
  ],
  "transactionHash": "0x4890f295f767a2280b43b19c9e48165c341b57c751fd6530b607bff8f640e22b",
  "args": [],
  "numDeployments": 2,
  "solcInputHash": "41037b27777e00d7b4a564a52937d452",
  "bytecode": "0x60a0604052346200011d576000546200003260ff8260081c1615809281936200010e575b8115620000eb575b5062000122565b8062000046600160ff196000541617600055565b620000d0575b6200005662000219565b6200009d575b6200006662000186565b3060805262000076600161017255565b60405161597390816200027a82396080518181816116cf01528181611eaa01526121910152f35b620000ae61ff001960005416600055565b6040516001815260008051602062005bed83398151915290602090a16200005c565b620000e561010061ff00196000541617600055565b6200004c565b303b15915081620000ff575b50386200002b565b6001915060ff161438620000f7565b600160ff821610915062000023565b600080fd5b156200012a57565b60405162461bcd60e51b815260206004820152602e60248201527f496e697469616c697a61626c653a20636f6e747261637420697320616c72656160448201526d191e481a5b9a5d1a585b1a5e995960921b6064820152608490fd5b600054620001ac60ff8260081c1615809281936200010e578115620000eb575062000122565b80620001c0600160ff196000541617600055565b620001fe575b60ff1960fb541660fb55620001d757565b61ff00196000541660005560008051602062005bed833981519152602060405160018152a1565b6200021361010061ff00196000541617600055565b620001c6565b60c98054737e8ae5c72eca86946b695dcc211863d9721a09616001600160a01b0319821681179092556040516001600160a01b03909116907f8be0079c531659141344cd1fd0a4f28419497f9722a3daafe3b4186f6b6457e090600090a356fe60806040526004361015610013575b600080fd5b60003560e01c806301ffc9a71461047357806306fdde031461046a578063081812fc1461046157806308ed8d1614610458578063095ea7b31461044f578063125cc42f14610446578063162094c41461043d578063166866c7146104345780631fecb71a1461042b578063217fe6c61461042257806323b872dd146104195780632e17de781461041057806331677980146104075780633587e161146103fe5780633659cfe6146103f557806339d2525f146103ec5780633c2ee203146103e35780633c661b8b146103da5780633de15c12146103d157806342842e0e146103c8578063485cc955146103bf5780634f1ef286146103b6578063528a9e4d146103ad57806352d1902d146103a45780636352211e1461039b57806365b014b71461039257806370a0823114610389578063715018a61461038057806372a4db4a146103775780637547c7a31461036e57806375506c961461036557806378fecc991461035c5780638295220014610353578063848778b41461034a5780638d03b102146103415780638da5cb5b1461033857806395d89b411461032f5780639ad143de146103265780639b45d0241461031d5780639db5fa6514610314578063a22cb4651461030b578063a59a997314610302578063a7061423146102f9578063b88d4fde146102f0578063ba5e4bad146102e7578063bad7edab146102de578063bf021550146102d5578063c87b56dd146102cc578063d2438c2a146102c3578063d5a44f86146102ba578063de3e3eff146102b1578063e25b7d82146102a8578063e985e9c51461029f578063ef7bd7f314610296578063f19ed6be1461028d5763f2fde38b1461028557600080fd5b61000e6130e7565b5061000e612ce3565b5061000e612cc3565b5061000e612c58565b5061000e612c30565b5061000e612bec565b5061000e612b4d565b5061000e612a9e565b5061000e612a6a565b5061000e612a16565b5061000e612947565b5061000e612927565b5061000e6128cf565b5061000e61287c565b5061000e612853565b5061000e612761565b5061000e612704565b5061000e6126e4565b5061000e6126b1565b5061000e612609565b5061000e6125e1565b5061000e6125bd565b5061000e61257d565b5061000e612554565b5061000e61252e565b5061000e61250e565b5061000e6124b2565b5061000e6123cb565b5061000e61233d565b5061000e612297565b5061000e61226c565b5061000e61224d565b5061000e612175565b5061000e611ffe565b5061000e611e64565b5061000e611d6a565b5061000e611d41565b5061000e611a7a565b5061000e611a3e565b5061000e6118d6565b5061000e611838565b5061000e6116a5565b5061000e6112f5565b5061000e6112d0565b5061000e610e32565b5061000e610e08565b5061000e610d4d565b5061000e610cae565b5061000e610bea565b5061000e6109d1565b5061000e61083c565b5061000e6106f5565b5061000e6106a7565b5061000e61066d565b5061000e610590565b5061000e61048e565b6001600160e01b031981160361000e57565b503461000e57602036600319011261000e5760206004356104ae8161047c565b63ffffffff60e01b16632483248360e11b81149081156104d4575b506040519015158152f35b6380ac58cd60e01b811491508115610506575b81156104f5575b50386104c9565b6301ffc9a760e01b149050386104ee565b635b5e139f60e01b811491506104e7565b600091031261000e57565b918091926000905b82821061054257501161053b575050565b6000910152565b9150806020918301518186015201829161052a565b9060209161057081518092818552858086019101610522565b601f01601f1916010190565b90602061058d928181520190610557565b90565b503461000e5760008060031936011261066a5760405190806065546105b481613523565b8085529160019180831690811561064957506001146105ee575b6105ea856105de8187038261090d565b6040519182918261057c565b0390f35b9250606583527f8ff97419363ffd7000167f130ef7168fbea05faf9251824ca5043f113cc6a7c75b8284106106315750505081016020016105de826105ea6105ce565b80546020858701810191909152909301928101610616565b60ff1916602087015250506040840192506105de91508390506105ea6105ce565b80fd5b503461000e57602036600319011261000e57602061068c6004356135cf565b6001600160a01b0360405191168152f35b8015150361000e57565b503461000e57602036600319011261000e576004356106c58161069d565b6106cd613dc6565b60ff801960fb5416911515161760fb556000604051f35b6001600160a01b0381160361000e57565b503461000e57604036600319011261000e57600435610713816106e4565b60243561071f81613501565b916001600160a01b03808416809183161461079f576107519361074c913314908115610753575b5061355d565b613944565b005b61079991506107929061077a33916001600160a01b0316600052606a602052604060002090565b906001600160a01b0316600052602052604060002090565b5460ff1690565b38610746565b60405162461bcd60e51b815260206004820152602160248201527f4552433732313a20617070726f76616c20746f2063757272656e74206f776e656044820152603960f91b6064820152608490fd5b6001600160a01b031660005261016e602052604060002090565b6001600160a01b0316600052610169602052604060002090565b6001600160a01b0316600052610164602052604060002090565b503461000e57602036600319011261000e576001600160a01b03600435610862816106e4565b16600052610163602052602060ff604060002054166040519015158152f35b50634e487b7160e01b600052604160045260246000fd5b67ffffffffffffffff81116108ac57604052565b6108b4610881565b604052565b6020810190811067ffffffffffffffff8211176108ac57604052565b6060810190811067ffffffffffffffff8211176108ac57604052565b6040810190811067ffffffffffffffff8211176108ac57604052565b90601f8019910116810190811067ffffffffffffffff8211176108ac57604052565b60405190610120820182811067ffffffffffffffff8211176108ac57604052565b6040519061095d826108d5565b565b60209067ffffffffffffffff811161097d575b601f01601f19160190565b610985610881565b610972565b81601f8201121561000e578035906109a18261095f565b926109af604051948561090d565b8284526020838301011161000e57816000926020809301838601378301015290565b503461000e57604036600319011261000e5760043567ffffffffffffffff60243581811161000e57610a0790369060040161098a565b91610a10613dc6565b610a308160005260676020526001600160a01b0360406000205416151590565b15610b7f576000918183526020906097825260408420918551918211610b72575b610a6582610a5f8554613523565b8561495e565b80601f8311600114610adc57509080610ac994939286977ff8e1a15aba9398e019f0b49df1a4fde98ee17ae345cb5f6b5e2c27f5033e8ce79792610ad1575b50508160011b916000199060031b1c19161790555b6040519081529081906020820190565b0390a1604051f35b015190503880610aa4565b90601f19831696610af285600052602060002090565b9287905b898210610b5a575050918391600193610ac99796957ff8e1a15aba9398e019f0b49df1a4fde98ee17ae345cb5f6b5e2c27f5033e8ce7999a10610b41575b505050811b019055610ab9565b015160001960f88460031b161c19169055388080610b34565b80600185968294968601518155019501930190610af6565b610b7a610881565b610a51565b60405162461bcd60e51b815260206004820152602e60248201527f45524337323155524953746f726167653a2055524920736574206f66206e6f6e60448201527f6578697374656e7420746f6b656e0000000000000000000000000000000000006064820152608490fd5b503461000e5760208060031936011261000e57600435610c09816106e4565b610c116142b9565b90610c356001600160a01b0392848460c954163314918215610c73575b50506142da565b1690816000526101639182825260ff60406000205416610c5157005b610167610c5e81546153b8565b905560005252604060002060ff198154169055005b60ff925090610c9c913360005260fc825260406000208260405194838680955193849201610522565b82019081520301902054168438610c2e565b503461000e57602036600319011261000e57610751600435610ccf816106e4565b610cf6610cda6142b9565b6001600160a01b0360c954163314908115610cfb575b506142da565b61553d565b60ff91506020610d25913360005260fc825260406000208260405194838680955193849201610522565b820190815203019020541638610cf0565b90610d4960209282815194859201610522565b0190565b503461000e57604036600319011261000e57600435610d6b816106e4565b60243567ffffffffffffffff811161000e57610dbf60206105ea936001600160a01b03610d9e60ff95369060040161098a565b911660005260fc825260406000208260405194838680955193849201610522565b820190815203019020546040519116151581529081906020820190565b606090600319011261000e57600435610df4816106e4565b90602435610e01816106e4565b9060443590565b503461000e57610751610e1a36610ddc565b91610e2d610e2884336136fe565b613611565b6137d9565b503461000e5760208060031936011261000e57600435610e5d81600052610171602052604060002090565b91610e6f83546001600160a01b031690565b906001600160a01b039182339116036112bf576001840190815492428460d01c1180156112a1575b8015611283575b611271576005600287019683610ee0610ed28a54610ecc610ec28d60010190600090565b90549060031b1c90565b9061403f565b610ecc60028c016000610ec2565b6006830197610ef0895460ff1690565b1561125e575090610f4d600092610f22610f16610f16610161546001600160a01b031690565b6001600160a01b031690565b60405163a9059cbb60e01b815233600482015260248101929092529093849283919082906044820190565b03925af18015611251575b611234575b505b015480611181575b505082546001915060101c60ff16610f7e81612acd565b146110dc575b50805462ff0000191662020000178155604080518381526002602082015261075194506110219392917fab7e44c17ad2a7b4de0e42ab0bc824366a946f184a1133f0b5528347e4ccbd2991a18054600160ff8260081c16610fe481612acd565b149081156110d1575b50611059575b5061100c61079282600052610173602052604060002090565b61102657600052610171602052604060002090565b6153d3565b61104861103e82600052610173602052604060002090565b805460ff19169055565b600052610171602052604060002090565b805461ff0019166102001790556110868160005260676020526001600160a01b0360406000205416151590565b6110c3575b60408051828152600260208201527f855f5f4ea7c8c6a92f173fbc35c24d01139c2a49e9bcc085f03620cb6a1c65139190a138610ff3565b6110cc8161544e565b61108b565b60ff91501638610fed565b6110f16110eb610168546153b8565b61016855565b600090815b600360ff821610611108575050610f84565b80611119610ec26111619389614b56565b855460ff16156111665761115a611152836111406107ee610161546001600160a01b031690565b9060ff16600052602052604060002090565b918254614f53565b9055614b44565b6110f6565b61115a611152836111406107ee88546001600160a01b031690565b6111d18391611191875460ff1690565b1561122357610161546001600160a01b0316905b60405163a9059cbb60e01b81523360048201526024810191909152938492839160009183906044820190565b0393165af18015611216575b6111e8575b80610f67565b8161120792903d1061120f575b6111ff818361090d565b810190614a90565b5038806111e2565b503d6111f5565b61121e613299565b6111dd565b85546001600160a01b0316906111a5565b61124a90853d871161120f576111ff818361090d565b5038610f5d565b611259613299565b610f58565b61126c9250853391166155e5565b610f5f565b60405163baf3f0f760e01b8152600490fd5b50600686015460029060081c60ff1661129b81612acd565b14610e9e565b50600686015460029060101c60ff166112b981612acd565b14610e97565b6040516282b42960e81b8152600490fd5b503461000e57600036600319011261000e57602060ff61017554166040519015158152f35b503461000e5760008060031936011261066a57611310613dc6565b6113256113206101755460ff1690565b614b8a565b805b6101655481101561141e576113df906113b561134f610f16610162546001600160a01b031690565b61136e61135b84612428565b90546001600160a01b039160031b1c1690565b6040518092630530fa2160e01b8252818060209687956004830160408082526003908201526206966760ec1b60608201526001600160a01b03909116602082015260800190565b03915afa918215611411575b85926113e4575b50506113d961080861135b84612428565b55613ed5565b611327565b6114039250803d1061140a575b6113fb818361090d565b81019061328a565b38806113c8565b503d6113f1565b611419613299565b6113c1565b50805b610174548110156114f9578061143c610ec26114c59361246d565b61145b61145761079283600052610173602052604060002090565b1590565b6114f35761147481600052610171602052604060002090565b9060068201549160ff90818460101c169161148e83612acd565b60018093036114e9576114c09416156114ca5750506114b9610808610161546001600160a01b031690565b5490614f6a565b613ed5565b611421565b01546001600160a01b03166000908152610169602052604090206114b9565b5050505050613ed5565b50613ed5565b50805b6101655481101561167b578061151a61080861135b6115b894612428565b5483611532610f16610162546001600160a01b031690565b61153e61135b85612428565b6040916115a68351630530fa2160e01b815260209687828061158c60049889830160408082526003908201526206966760ec1b60608201526001600160a01b03909116602082015260800190565b0381875afa91821561166e575b879261164f575b50614f53565b91826115bd575b505050505050613ed5565b6114fc565b61160a9486946115cf61135b8a612428565b905163276d76f960e21b81526001600160a01b0390911692810192835230602084015260408301949094529294859384929091839160600190565b03925af18015611642575b611624575b80808087936115ad565b8161163a92903d1061120f576111ff818361090d565b50388061161a565b61164a613299565b611615565b611667919250883d8a1161140a576113fb818361090d565b90386115a0565b611676613299565b611599565b506040517f3ebfd10f795a127a78001b56051c04828d55b68d9d77ebce97b617c8adc53ed28282a1f35b503461000e57602036600319011261000e576004356116c3816106e4565b6001600160a01b0390817f000000000000000000000000000000000000000000000000000000000000000016916116fc833014156131b5565b61172b7f360894a13ba1a3210667c828492db98dca3e2076cc3735a920a3ca505d382bbc938285541614613216565b611733613dc6565b60405190611740826108b9565b600082527f4910fdfa16fed3260ed0e7147f7cc6da11a60208b5b9406d12a635614ffd91435460ff161561177a5750506107519150613304565b6020600491604094939451928380926352d1902d60e01b825286165afa60009181611818575b506118055760405162461bcd60e51b815260206004820152602e60248201527f45524331393637557067726164653a206e657720696d706c656d656e7461746960448201526d6f6e206973206e6f74205555505360901b6064820152608490fd5b0390fd5b6107519361181391146132a6565b6133a2565b61183191925060203d811161140a576113fb818361090d565b90386117a0565b503461000e57606036600319011261000e57600435611856816106e4565b6024359067ffffffffffffffff821161000e576118bc602061187f61075194369060040161098a565b6001600160a01b03604435946118948661069d565b61189c613dc6565b1660005260fc825260406000208260405194838680955193849201610522565b8201908152030190209060ff801983541691151516179055565b503461000e57600036600319011261000e576118f0613dc6565b6119086119036114576101755460ff1690565b613e72565b61016c5460005b818110611965577f4ecbc2a518da375eb925941a298a8cd4db6c0c6ed78e70d196ca5c9a92b979676119608361194d6119478261402f565b61017255565b610175805460ff19166001179055610ab9565b0390a1005b8061197b6119756119c793613eed565b50613f88565b60016101006119898461402f565b926119a8816119a386600052610171602052604060002090565b6140e9565b01516119b381612acd565b6119bc81612acd565b146119cc5750613ed5565b61190f565b806119f56119e86119fa93600052610173602052604060002090565b805460ff19166001179055565b614250565b386114f3565b50634e487b7160e01b600052603260045260246000fd5b906003821015611a31575b601f8260051c61016f01921690565b611a39611a00565b611a22565b503461000e57602036600319011261000e57600435600381101561000e578060ff60209260051c61016f015460f86040519360031b161c168152f35b503461000e57602036600319011261000e57600435611aa5610f16610161546001600160a01b031690565b33036112bf57611abb6113206101755460ff1690565b61017090611aca82548261403f565b611ad5600061017055565b60005b61017454811015611b625780611af2610ec260019361246d565b611b0a61079282600052610173602052604060002090565b611b16575b5001611ad8565b8383611b3d6006611b3285600052610171602052604060002090565b015460101c60ff1690565b611b4681612acd565b14611b52575b50611b0f565b611b5b91614bd6565b3883611b4c565b509060005b61016554811015611d1657611b7e61135b82612428565b610167611bb4611b8f825487613d37565b611bad846001600160a01b0316600052610164602052604060002090565b549061403f565b6000611bd4846001600160a01b0316600052610164602052604060002090565b55600090815b600360ff821610611c4b57505090600360ff611c009594931614611c05575b5050613ed5565b611b67565b611c37611c3e916000611c2f611c44956001600160a01b0316600052610164602052604060002090565b555486613d37565b875461403f565b61017055565b3880611bf9565b611c80611c79611c73611c6d611c6085611a17565b905460ff9160031b1c1690565b60ff1690565b8461404b565b6064900490565b611ca282611140886001600160a01b031660005261016e602052604060002090565b5415611cdb575b90611cd691611cd082611140896001600160a01b031660005261016b602052604060002090565b55614b44565b611bda565b9290611d0d611cd692611d02886001600160a01b0316600052610164602052604060002090565b61115a87825461403f565b93909150611ca9565b60006040517fbd9c0e36f2110aa67058734f061a385583a1d8b5758bcb065ca0f26c4c64603c8282a1f35b503461000e57610751611d5336610ddc565b9060405192611d61846108b9565b60008452613673565b503461000e57604036600319011261000e57600435611d88816106e4565b611dd8602435611d97816106e4565b60005492611dbc60ff8560081c161580958196611e56575b8115611e36575b50614448565b83611dcf600160ff196000541617600055565b611e1d57614669565b611dde57005b611dee61ff001960005416600055565b604051600181527f7f26b83ff96e1f2b6a682f133852f6798a09c465da95921460cefb384740249890602090a1005b611e3161010061ff00196000541617600055565b614669565b303b15915081611e48575b5038611db6565b6001915060ff161438611e41565b600160ff8216109150611daf565b50604036600319011261000e57600435611e7d816106e4565b60243567ffffffffffffffff811161000e57611e9d90369060040161098a565b906001600160a01b0391827f00000000000000000000000000000000000000000000000000000000000000001692611ed7843014156131b5565b611f067f360894a13ba1a3210667c828492db98dca3e2076cc3735a920a3ca505d382bbc948286541614613216565b611f0e613dc6565b7f4910fdfa16fed3260ed0e7147f7cc6da11a60208b5b9406d12a635614ffd91435460ff1615611f445750506107519150613304565b6020600491604094939451928380926352d1902d60e01b825286165afa60009181611fde575b50611fcb5760405162461bcd60e51b815260206004820152602e60248201527f45524331393637557067726164653a206e657720696d706c656d656e7461746960448201526d6f6e206973206e6f74205555505360901b6064820152608490fd5b61075193611fd991146132a6565b61345e565b611ff791925060203d811161140a576113fb818361090d565b9038611f6a565b503461000e57602036600319011261000e5760043561202881600052610171602052604060002090565b9061203a82546001600160a01b031690565b6001600160a01b03339116036112bf576006820180549260ff93848082161591821561215d575b505061127157815462ff0000191662010000178255926120866110eb61016854613ed5565b600260009401935b60038282161061211e577fab7e44c17ad2a7b4de0e42ab0bc824366a946f184a1133f0b5528347e4ccbd29846120e8856120d961145761079285600052610173602052604060002090565b6120f8575b5460101c60ff1690565b9061196060405192839283614b74565b6121106119e884600052610173602052604060002090565b61211983614250565b6120de565b61215681612131610ec260039489614b56565b61115a61214e836111406107ee610161546001600160a01b031690565b91825461403f565b905061208e565b60101c16905061216c81612acd565b15158438612061565b503461000e57600036600319011261000e576001600160a01b037f00000000000000000000000000000000000000000000000000000000000000001630036121e2576040517f360894a13ba1a3210667c828492db98dca3e2076cc3735a920a3ca505d382bbc8152602090f35b60405162461bcd60e51b815260206004820152603860248201527f555550535570677261646561626c653a206d757374206e6f742062652063616c60448201527f6c6564207468726f7567682064656c656761746563616c6c00000000000000006064820152608490fd5b503461000e57602036600319011261000e57602061068c600435613501565b503461000e57600036600319011261000e5761228f60ff60005460081c16613d4d565b610751613e1e565b503461000e57602036600319011261000e576001600160a01b036004356122bd816106e4565b1680156122e65760005260686020526105ea604060002054604051918291829190602083019252565b60405162461bcd60e51b815260206004820152602960248201527f4552433732313a2061646472657373207a65726f206973206e6f7420612076616044820152683634b21037bbb732b960b91b6064820152608490fd5b503461000e5760008060031936011261066a57612358613dc6565b60c9546001600160a01b0319811660c955816001600160a01b0360405192167f8be0079c531659141344cd1fd0a4f28419497f9722a3daafe3b4186f6b6457e08284a3f35b6024359060ff8216820361000e57565b6044359060ff8216820361000e57565b359060ff8216820361000e57565b503461000e57606036600319011261000e57366023121561000e576040516123f2816108d5565b60648136821161000e576004905b8282106124105761075184614326565b6020809161241d846123bd565b815201910190612400565b6101658054821015612460575b6000527fd91ca5e44fa96a1732bfaed7fe33fc20ed69a9895cde1f18c7dcabca39d6a78b0190600090565b612468611a00565b612435565b61017480548210156124a5575b6000527f19628ef4f1e52435a91694e0b17e2591e7982b96f1883cadfe58900fe74230c40190600090565b6124ad611a00565b61247a565b503461000e57602036600319011261000e57600435610165805482101561000e576020916001600160a01b03916000527fd91ca5e44fa96a1732bfaed7fe33fc20ed69a9895cde1f18c7dcabca39d6a78b015416604051908152f35b503461000e57600036600319011261000e57602061017254604051908152f35b503461000e57600036600319011261000e57602061254a6150da565b6040519015158152f35b503461000e57600036600319011261000e5760206001600160a01b036101615416604051908152f35b503461000e57602036600319011261000e576001600160a01b036004356125a3816106e4565b166000526101646020526020604060002054604051908152f35b503461000e57600036600319011261000e57602060ff60fb54166040519015158152f35b503461000e57600036600319011261000e5760206001600160a01b0360c95416604051908152f35b503461000e5760008060031936011261066a57604051908060665461262d81613523565b808552916001918083169081156106495750600114612656576105ea856105de8187038261090d565b9250606683527f46501879b8ca8525e8c2fd519e2fbfcfa2ebea26501294aa02cbfcfb12e943545b8284106126995750505081016020016105de826105ea6105ce565b8054602085870181019190915290930192810161267e565b503461000e57602036600319011261000e57600435600052610173602052602060ff604060002054166040519015158152f35b503461000e57600036600319011261000e57602061016854604051908152f35b503461000e57604036600319011261000e576020612758600435612727816106e4565b6001600160a01b0361273761239d565b911660005261016e835260406000209060ff16600052602052604060002090565b54604051908152f35b503461000e57604036600319011261000e5760043561277f816106e4565b60243561278b8161069d565b6001600160a01b0382169182331461280e57816127cb6127dc9233600052606a6020526040600020906001600160a01b0316600052602052604060002090565b9060ff801983541691151516179055565b604051901515815233907f17307eab39ab6107e8899845ad3d59bd9653f200f220920489ca2b5937696c3190602090a3005b60405162461bcd60e51b815260206004820152601960248201527f4552433732313a20617070726f766520746f2063616c6c6572000000000000006044820152606490fd5b503461000e57600036600319011261000e5760206001600160a01b036101625416604051908152f35b503461000e57602036600319011261000e5760043561017490815481101561000e576020916000527f19628ef4f1e52435a91694e0b17e2591e7982b96f1883cadfe58900fe74230c40154604051908152f35b503461000e57608036600319011261000e576004356128ed816106e4565b6024356128f9816106e4565b6064359167ffffffffffffffff831161000e5761291d61075193369060040161098a565b9160443591613673565b503461000e57600036600319011261000e57602061017054604051908152f35b503461000e57602036600319011261000e5760043561297181600052610171602052604060002090565b8054336001600160a01b03909116036112bf576006018054600260ff8260101c1661299b81612acd565b149081156129fd575b5061127157805461ff0019166101001790557f855f5f4ea7c8c6a92f173fbc35c24d01139c2a49e9bcc085f03620cb6a1c651390611960906129e681336152b1565b604080519182526001602083015290918291820190565b60ff915060081c16612a0e81612acd565b1515386129a4565b503461000e57604036600319011261000e576020612758600435612a39816106e4565b6001600160a01b03612a4961239d565b911660005261016b835260406000209060ff16600052602052604060002090565b503461000e57602036600319011261000e576105ea612a8a600435613b28565b604051918291602083526020830190610557565b503461000e57600036600319011261000e57612ac160ff60005460081c16613d4d565b60fb805460ff19169055005b60031115612ad757565b634e487b7160e01b600052602160045260246000fd5b94919897969360e096939161010087019a6001600160a01b03809216885216602087015265ffffffffffff80921660408701521660608501526080840152151560a0830152612b3b81612acd565b60c0820152612b4983612acd565b0152565b503461000e57602036600319011261000e5760043560005261017160205260406000206001600160a01b036105ea81835416600184015490600660058601549501549060405195869560ff8460101c169460ff808660081c169516938160d01c9265ffffffffffff8360a01c1692169089612aed565b906003821015612bdf575b6006600580840461016d0193060290565b612be7611a00565b612bce565b503461000e57602036600319011261000e57600435600381101561000e578065ffffffffffff60056020930461016d01546006600560405194060260031b1c168152f35b503461000e57600036600319011261000e57602065ffffffffffff6101665416604051908152f35b503461000e57604036600319011261000e57602060ff612cb7600435612c7d816106e4565b6001600160a01b0360243591612c92836106e4565b16600052606a84526040600020906001600160a01b0316600052602052604060002090565b54166040519015158152f35b503461000e57600036600319011261000e57602061016754604051908152f35b50606036600319011261000e5760048035612cfd816106e4565b602435612d086123ad565b92811561309957612d33611457610792856001600160a01b0316600052610163602052604060002090565b61304b576001600160a01b0383168015801580612fe3575b612fd25715612f2c5750813403612ed35750612eb361214e61075194612d9960008080612d84610f16610162546001600160a01b031690565b88604051915af1612d936139ee565b50614aa5565b611140612da4614af1565b9585612db360ff8516896143ae565b52612e926101725497612dc86119478a613ed5565b65ffffffffffff421690612e55612e18612e12612df9612de78a612bc3565b905465ffffffffffff9160031b1c1690565b60fb5460ff1615612ec95761ffff6103f05b1690614b05565b84614b29565b612e46612e2361092f565b338152946001600160a01b03881660208701525b65ffffffffffff166040860152565b65ffffffffffff166060840152565b6080820152600060a0820152600060c0820152600060e0820152612e7d610100820160019052565b6119a389600052610171602052604060002090565b612eaa6119e888600052610173602052604060002090565b6107ee87614250565b9055612ec46110eb61016854613ed5565b615809565b61ffff6001612e0b565b61180190604051918291631fff1b3b60e21b8352820160809060208152602260208201527f496e636f7272656374206e617469766520636f696e207374616b6520616d6f756040820152611b9d60f21b60608201520190565b61075194612f9160208561214e94612eb3966000612f56610f16610162546001600160a01b031690565b604080516323b872dd60e01b8152339481019485526001600160a01b0390921660208501528301949094529294859384929091839160600190565b03925af18015612fc5575b612fa7575b50612d99565b612fbe9060203d811161120f576111ff818361090d565b5038612fa1565b612fcd613299565b612f9c565b604051631e9acf1760e31b81528390fd5b506040516370a0823160e01b8152338482019081528591906020908290819083010381875afa90811561303e575b600091613020575b5010612d4b565b613038915060203d811161140a576113fb818361090d565b38613019565b613046613299565b613011565b61180190604051918291631fff1b3b60e21b8352820160609060208152601360208201527f496e76616c6964207374616b6520746f6b656e0000000000000000000000000060408201520190565b61180190604051918291631fff1b3b60e21b8352820160609060208152601560208201527f416d6f756e742063616e6e6f74206265207a65726f000000000000000000000060408201520190565b503461000e57602036600319011261000e57600435613105816106e4565b61310d613dc6565b6001600160a01b038091169081156131615760009160c95491816001600160a01b031984161760c95560405192167f8be0079c531659141344cd1fd0a4f28419497f9722a3daafe3b4186f6b6457e08484a3f35b60405162461bcd60e51b815260206004820152602660248201527f4f776e61626c653a206e6577206f776e657220697320746865207a65726f206160448201526564647265737360d01b6064820152608490fd5b156131bc57565b60405162461bcd60e51b815260206004820152602c60248201527f46756e6374696f6e206d7573742062652063616c6c6564207468726f7567682060448201526b19195b1959d85d1958d85b1b60a21b6064820152608490fd5b1561321d57565b60405162461bcd60e51b815260206004820152602c60248201527f46756e6374696f6e206d7573742062652063616c6c6564207468726f7567682060448201526b6163746976652070726f787960a01b6064820152608490fd5b60405190613284826108b9565b60008252565b9081602091031261000e575190565b506040513d6000823e3d90fd5b156132ad57565b60405162461bcd60e51b815260206004820152602960248201527f45524331393637557067726164653a20756e737570706f727465642070726f786044820152681a58589b195555525160ba1b6064820152608490fd5b803b15613347576001600160a01b037f360894a13ba1a3210667c828492db98dca3e2076cc3735a920a3ca505d382bbc91166001600160a01b0319825416179055565b60405162461bcd60e51b815260206004820152602d60248201527f455243313936373a206e657720696d706c656d656e746174696f6e206973206e60448201526c1bdd08184818dbdb9d1c9858dd609a1b6064820152608490fd5b6133ab81613304565b604051906001600160a01b0381167fbc7cd75a20ee27fd9adebab32041f755214dbc6bffa90cc0225b39da2e5c2d3b600084a2825115801590613456575b6133f257505050565b60008061345394613402856108d5565b602785527f416464726573733a206c6f772d6c6576656c2064656c65676174652063616c6c6020860152660819985a5b195960ca1b6040860152602081519101845af461344d6139ee565b91613c8f565b50565b5060006133e9565b61346781613304565b604051906001600160a01b0381167fbc7cd75a20ee27fd9adebab32041f755214dbc6bffa90cc0225b39da2e5c2d3b600084a28251158015906134ad576133f257505050565b5060016133e9565b156134bc57565b60405162461bcd60e51b815260206004820152601860248201527f4552433732313a20696e76616c696420746f6b656e20494400000000000000006044820152606490fd5b60005260676020526001600160a01b036040600020541661058d8115156134b5565b90600182811c92168015613553575b602083101461353d57565b634e487b7160e01b600052602260045260246000fd5b91607f1691613532565b1561356457565b60405162461bcd60e51b815260206004820152603d60248201527f4552433732313a20617070726f76652063616c6c6572206973206e6f7420746f60448201527f6b656e206f776e6572206f7220617070726f76656420666f7220616c6c0000006064820152608490fd5b6135f76135f28260005260676020526001600160a01b0360406000205416151590565b6134b5565b60005260696020526001600160a01b036040600020541690565b1561361857565b60405162461bcd60e51b815260206004820152602d60248201527f4552433732313a2063616c6c6572206973206e6f7420746f6b656e206f776e6560448201526c1c881bdc88185c1c1c9bdd9959609a1b6064820152608490fd5b90613697939291613687610e2884336136fe565b6136928383836137d9565b613a1e565b1561369e57565b60405162461bcd60e51b815260206004820152603260248201527f4552433732313a207472616e7366657220746f206e6f6e20455243373231526560448201527131b2b4bb32b91034b6b83632b6b2b73a32b960711b6064820152608490fd5b6001600160a01b038061371084613501565b169281831692848414948515613746575b50508315613730575b50505090565b61373c919293506135cf565b161438808061372a565b60ff9295509061377591600052606a6020526040600020906001600160a01b0316600052602052604060002090565b5416923880613721565b1561378657565b60405162461bcd60e51b815260206004820152602560248201527f4552433732313a207472616e736665722066726f6d20696e636f72726563742060448201526437bbb732b960d91b6064820152608490fd5b906137ff92916137e883613501565b6001600160a01b038281169590918216861461377f565b82169384156138f35761095d9481613824869361381e610f1686613501565b1461377f565b61384b61383b846000526069602052604060002090565b80546001600160a01b0319169055565b613868846001600160a01b03166000526068602052604060002090565b600019815401905561388d856001600160a01b03166000526068602052604060002090565b600181540190556138c7856138ac856000526067602052604060002090565b906001600160a01b03166001600160a01b0319825416179055565b7fddf252ad1be2c89b69c2b068fc378daa952ba7f163c4a11628f55a4df523b3ef6000604051a46158ca565b60405162461bcd60e51b8152602060048201526024808201527f4552433732313a207472616e7366657220746f20746865207a65726f206164646044820152637265737360e01b6064820152608490fd5b600082815260696020526040902080546001600160a01b0319166001600160a01b0383161790556001600160a01b038061397d84613501565b169116907f8c5be1e5ebec7d5bd14f71427d1e84f3dd0314c0f7b2291e5b200ac8c7c3b9256000604051a4565b9081602091031261000e575161058d8161047c565b909261058d94936080936001600160a01b03809216845216602083015260408201528160608201520190610557565b3d15613a19573d906139ff8261095f565b91613a0d604051938461090d565b82523d6000602084013e565b606090565b92909190823b15613b1f57613a599260209260006001600160a01b03604051809781968295630a85bd0160e11b9b8c855233600486016139bf565b0393165af160009181613aef575b50613ae157613a746139ee565b80519081613adc5760405162461bcd60e51b815260206004820152603260248201527f4552433732313a207472616e7366657220746f206e6f6e20455243373231526560448201527131b2b4bb32b91034b6b83632b6b2b73a32b960711b6064820152608490fd5b602001fd5b6001600160e01b0319161490565b613b1191925060203d8111613b18575b613b09818361090d565b8101906139aa565b9038613a67565b503d613aff565b50505050600190565b613b4b6135f28260005260676020526001600160a01b0360406000205416151590565b6000908082526020609781526040832060405184819590835490613b6e82613523565b80855294600192808416908115613c2a5750600114613bee575b505050613b979250038461090d565b613b9f613277565b92835115613be7578051613bb957505061058d9150613c4a565b61058d9250613bd990613bd3604051958694850190610d36565b90610d36565b03601f19810183528261090d565b9250505090565b869350819291528282205b858310613c12575050613b979350820101388080613b88565b8054838a018501528894508693909201918101613bf9565b965050505050505060ff191681840152613b978360408101388080613b88565b6135f2613c6d9160005260676020526001600160a01b0360406000205416151590565b6000604051613c7b816108b9565b52604051613c88816108b9565b6000815290565b91929015613cf15750815115613ca3575090565b3b15613cac5790565b60405162461bcd60e51b815260206004820152601d60248201527f416464726573733a2063616c6c20746f206e6f6e2d636f6e74726163740000006044820152606490fd5b825190915015613d045750805190602001fd5b60405162461bcd60e51b8152908190611801906004830161057c565b50634e487b7160e01b600052601260045260246000fd5b8115613d41570490565b613d49613d20565b0490565b15613d5457565b60405162461bcd60e51b815260206004820152602b60248201527f496e697469616c697a61626c653a20636f6e7472616374206973206e6f74206960448201526a6e697469616c697a696e6760a81b6064820152608490fd5b613dbe60ff60005460081c16613d4d565b61095d613e1e565b6001600160a01b0360c954163303613dda57565b606460405162461bcd60e51b815260206004820152602060248201527f4f776e61626c653a2063616c6c6572206973206e6f7420746865206f776e65726044820152fd5b60c9546001600160a01b03737e8ae5c72eca86946b695dcc211863d9721a09619182821982161760c955167f8be0079c531659141344cd1fd0a4f28419497f9722a3daafe3b4186f6b6457e06000604051a3565b15613e7957565b60405162461bcd60e51b815260206004820152601b60248201527f4d6967726174696f6e20616c726561647920706572666f726d656400000000006044820152606490fd5b50634e487b7160e01b600052601160045260246000fd5b6001906000198114613ee5570190565b610d49613ebe565b60079061016c8054821015613f29575b600052027fe5af487827b121aa2456a019311df153887da6c98285803eea72252e4f09489b0190600090565b613f31611a00565b613efd565b60405191906000835b60038210613f66575050506060820182811067ffffffffffffffff8211176108ac57604052565b6001602081928554815201930191019091613f3f565b613f8582612acd565b52565b9061095d60ff6006613f9861092f565b94613fba613fad82546001600160a01b031690565b6001600160a01b03168752565b60018101546001600160a01b038116602088015265ffffffffffff60a082901c16604088015260d01c6060870152613ff460028201613f36565b6080870152600581015460a08701520154818116151560c0860152614021828260081c1660e08701613f7c565b60101c166101008401613f7c565b6001906001198111613ee5570190565b81198111613ee5570190565b806000190482118115151661405e570290565b614066613ebe565b0290565b818110614075575050565b6000815560010161406a565b906000905b6003821061409357505050565b6001602082829351865501930191019091614086565b906140b381612acd565b61ff0082549160081b169061ff001916179055565b906140d281612acd565b62ff000082549160101b169062ff00001916179055565b90610100600661095d9361412361410785516001600160a01b031690565b82546001600160a01b0319166001600160a01b03909116178255565b6141e96001820161414161410760208801516001600160a01b031690565b614191614157604088015165ffffffffffff1690565b82547fffffffffffff000000000000ffffffffffffffffffffffffffffffffffffffff1660a09190911b65ffffffffffff60a01b16178255565b606086015165ffffffffffff16815479ffffffffffffffffffffffffffffffffffffffffffffffffffff1660d09190911b7fffffffffffff000000000000000000000000000000000000000000000000000016179055565b6141fa608085015160028301614081565b60a08401516005820155019161422861421660c0830151151590565b849060ff801983541691151516179055565b61423f60e082015161423981612acd565b846140a9565b01519061424b82612acd565b6140c8565b610174805490680100000000000000008210156142ac575b6001820180825582101561429f575b6000527f19628ef4f1e52435a91694e0b17e2591e7982b96f1883cadfe58900fe74230c40155565b6142a7611a00565b614277565b6142b4610881565b614268565b604051906142c6826108f1565b600582526430b236b4b760d91b6020830152565b156142e157565b60405162461bcd60e51b815260206004820152600e60248201527f4e6f7420617574686f72697a65640000000000000000000000000000000000006044820152606490fd5b614331610cda6142b9565b606460ff61435961434c8285511683602087015116906143cd565b82604086015116906143cd565b16036143685761095d906143e3565b604051631fff1b3b60e21b815260206004820152601260248201527f4d7573742073756d20757020746f2031303000000000000000000000000000006044820152606490fd5b9060038110156143c0575b60051b0190565b6143c8611a00565b6143b9565b60ff8091169116908160ff038111613ee5570190565b9061016f60009081935b600380861015614440579060209160ff908183511691868654921b90811b9283911b169119161783550193600180930192601f8411614431575b50600101936143ed565b60009350909101906001614427565b505050509050565b1561444f57565b60405162461bcd60e51b815260206004820152602e60248201527f496e697469616c697a61626c653a20636f6e747261637420697320616c72656160448201527f647920696e697469616c697a65640000000000000000000000000000000000006064820152608490fd5b61016580549068010000000000000000821015614523575b60018201808255821015614516575b6000527fd91ca5e44fa96a1732bfaed7fe33fc20ed69a9895cde1f18c7dcabca39d6a78b0180546001600160a01b0319169055565b61451e611a00565b6144e1565b61452b610881565b6144d2565b6001600160a01b03610165805490680100000000000000008210156145a4575b60018201808255821015614597575b6000527fd91ca5e44fa96a1732bfaed7fe33fc20ed69a9895cde1f18c7dcabca39d6a78b0191166001600160a01b0319825416179055565b61459f611a00565b61455f565b6145ac610881565b614550565b9061016d600080935b600380861015614440578160209162ffffff600694511690858754911b65ffffffffffff811b9283911b1691191617855501910193601a8511614602575b60010193906145ba565b600094506001909201916145f8565b6040519061461e826108f1565b601382527f457363726f77656420417373657420426f6e64000000000000000000000000006020830152565b60405190614657826108f1565b600382526222a0a160e91b6020830152565b6146c9906146fb926001600160a01b03801990610161818516838254161790556101629216908254161790556146ad6119e860008052610163602052604060002090565b6146b56144ba565b6146f5610167916146cf6146c98454613ed5565b61016755565b6146f06119e8826001600160a01b0316600052610163602052604060002090565b614530565b54613ed5565b610166805465ffffffffffff1916630114db0017905561473961471c610950565b62093a8081526224ea006020820152626ebe0060408201526145b1565b61475b614744610950565b60148152601e6020820152603260408201526143e3565b614774614766614611565b61476e61464a565b90614784565b61477c613dad565b61095d615920565b9061479f60ff60005460081c1661479a81613d4d565b613d4d565b815167ffffffffffffffff811161489a575b6147c5816147c0606554613523565b6148a7565b602080601f83116001146148075750819061095d946000926147fc575b50508160011b916000199060031b1c191617606555614998565b0151905038806147e2565b919293601f19841661483b60656000527f8ff97419363ffd7000167f130ef7168fbea05faf9251824ca5043f113cc6a7c790565b936000905b82821061488257505091600193918561095d97969410614869575b505050811b01606555614998565b015160001960f88460031b161c1916905538808061485b565b80600186978294978701518155019601940190614840565b6148a2610881565b6147b1565b90601f82116148b4575050565b61095d9160656000527f8ff97419363ffd7000167f130ef7168fbea05faf9251824ca5043f113cc6a7c7906020601f840160051c830193106148fe575b601f0160051c019061406a565b90915081906148f1565b90601f8211614915575050565b61095d9160666000527f46501879b8ca8525e8c2fd519e2fbfcfa2ebea26501294aa02cbfcfb12e94354906020601f840160051c830193106148fe57601f0160051c019061406a565b9190601f811161496d57505050565b61095d926000526020600020906020601f840160051c830193106148fe57601f0160051c019061406a565b90815167ffffffffffffffff8111614a83575b6149bf816149ba606654613523565b614908565b602080601f83116001146149fb57508192936000926149f0575b50508160011b916000199060031b1c191617606655565b0151905038806149d9565b90601f19831694614a2e60666000527f46501879b8ca8525e8c2fd519e2fbfcfa2ebea26501294aa02cbfcfb12e9435490565b926000905b878210614a6b575050836001959610614a52575b505050811b01606655565b015160001960f88460031b161c19169055388080614a47565b80600185968294968601518155019501930190614a33565b614a8b610881565b6149ab565b9081602091031261000e575161058d8161069d565b15614aac57565b60405162461bcd60e51b815260206004820152601f60248201527f4661696c656420746f207472616e73666572206e617469766520746f6b656e006044820152606490fd5b60405190614afe826108d5565b6060368337565b9065ffffffffffff809116918215614b1c57160490565b614b24613d20565b160490565b9065ffffffffffff8080931691168092038111613ee5570190565b60ff6001911660ff8114613ee5570190565b6003821015614b67575b0190600090565b614b6f611a00565b614b60565b90815260408101929190602090612b4983612acd565b15614b9157565b60405162461bcd60e51b815260206004820152601960248201527f4d757374206d696772617465207374616b6573206669727374000000000000006044820152606490fd5b614beb90600052610171602052604060002090565b90614c1a614c0083546001600160a01b031690565b6001600160a01b031660005261016a602052604060002090565b90614c586006840192614c2e845460ff1690565b15614f4057610161546001600160a01b03165b6001600160a01b0316600052602052604060002090565b5480158015614f02575b614d8a575b614c7f90939293600052610171602052604060002090565b9060009260028082019301935b60ff9060038282161015614d8157600190614d47614d0b87614caf8b5460ff1690565b84888215614d645750614d05614cdb610ec283614cd5610161546001600160a01b031690565b96614b56565b92614ce9610167548d613d37565b9015614d4e57611bad610822610161546001600160a01b031690565b9261577f565b614d2e614d18848b614b56565b919092614d298385549060031b1c90565b61403f565b9082549060031b600019811b9283911b16911916179055565b0116614c8c565b611bad6108228a8d01546001600160a01b031690565b614cdb610ec283614cd58b614d059501546001600160a01b031690565b50505050505050565b50614c7f614d96614af1565b614e6b6101725491614daa61194784613ed5565b86546001600160a01b031690614dc1875460ff1690565b15614ee657614e34614ddc610161546001600160a01b031690565b612e4665ffffffffffff4216612e37614e09614e03612df96101665465ffffffffffff1690565b83614b29565b93614e24614e1561092f565b6001600160a01b039099168952565b6001600160a01b03166020880152565b6080820152600060a0820152600160c0820152600060e082015260006101008201526119a383600052610171602052604060002090565b614e836119e882600052610173602052604060002090565b614e8c81614250565b80614ec0614ea4614c0088546001600160a01b031690565b865460ff1615614ed157610161546001600160a01b0316614c41565b55614eca81615809565b9050614c67565b60018801546001600160a01b03165b9061077a565b614e34614efd60018a01546001600160a01b031690565b614ddc565b50614f2d6001614f1d83600052610171602052604060002090565b015460a01c65ffffffffffff1690565b65ffffffffffff80421691161415614c62565b60018501546001600160a01b0316614ee0565b818110614f5e570390565b614f66613ebe565b0390565b614f7f90600052610171602052604060002090565b60058101916006820191600281019160005b600360ff821610614fa457505050505050565b845460ff169081156150bd57614fdb83614fc7610161546001600160a01b031690565b83614fd5610ec2828b614b56565b9161577f565b91614fe783895461403f565b8855614fff610f16610162546001600160a01b031690565b90156150aa57610161546001600160a01b03165b813b1561000e57604051636c49e02160e01b815260606004820152600360648201526206966760ec1b60848201526001600160a01b03919091166024820152604481019390935261507f9290600090829060a490829084905af1801561509d575b615084575b50614b44565b614f91565b8061509161509792610898565b80610517565b38615079565b6150a5613299565b615074565b60018501546001600160a01b0316615013565b614fdb836150d560018701546001600160a01b031690565b614fc7565b600061016554906150f7610f16610162546001600160a01b031690565b905b82811061510857505050600090565b61511461135b82612428565b60408051630530fa2160e01b81526004810191909152600360448201526206966760ec1b60648201526001600160a01b0382166024820152602091908281608481885afa928315615258575b600093615233575b505080611bad6151f46151d96151a7615198615204966001600160a01b031660005261016e602052604060002090565b60008052602052604060002090565b54611bad6151c9866001600160a01b031660005261016e602052604060002090565b6001600052602052604060002090565b926001600160a01b031660005261016e602052604060002090565b6002600052602052604060002090565b9015159081615229575b506152215761521c90613ed5565b6150f9565b505050600190565b905015153861520e565b615204929350908161525092903d1061140a576113fb818361090d565b919038615168565b615260613299565b615160565b1561526c57565b60405162461bcd60e51b815260206004820152601c60248201527f4552433732313a20746f6b656e20616c7265616479206d696e746564000000006044820152606490fd5b6001600160a01b0381169081156153745761534a906152ef6152e98560005260676020526001600160a01b0360406000205416151590565b15615265565b6153126152e98560005260676020526001600160a01b0360406000205416151590565b61532f816001600160a01b03166000526068602052604060002090565b600181540190556138ac846000526067602052604060002090565b60007fddf252ad1be2c89b69c2b068fc378daa952ba7f163c4a11628f55a4df523b3ef81604051a4565b606460405162461bcd60e51b815260206004820152602060248201527f4552433732313a206d696e7420746f20746865207a65726f20616464726573736044820152fd5b80156153c6575b6000190190565b6153ce613ebe565b6153bf565b600660009182815582600182015582600582016153f3816002850161406a565b550155565b61058d9054613523565b61540c8154613523565b9081615416575050565b81601f60009311600114615428575055565b8183526020832061544491601f0160051c81019060010161406a565b8160208120915555565b61545781613501565b5061546181613501565b600082815260696020526001600160a01b0360408220928119938481541690551680825260686020526040822060001981540190558382526067602052604082208381541690558382827fddf252ad1be2c89b69c2b068fc378daa952ba7f163c4a11628f55a4df523b3ef82604051a4151580615536575b61551f575b50506154fc6154f7826000526097602052604060002090565b6153f8565b6155035750565b61551a61095d916000526097602052604060002090565b615402565b6040906101716020522090815416905538806154de565b50806154d9565b6001600160a01b03908181168060005261016360205260ff928360406000205416156155b0575b6101655460005b8186821610615582575050505061095d9150614530565b838361558d83612428565b90549060031b1c16146155a8576155a390614b44565b61556b565b505050505050565b6101676155bd8154613ed5565b90556155e06119e8846001600160a01b0316600052610163602052604060002090565b615564565b6001600160a01b039290838116908161568d575050615610610f16610162546001600160a01b031690565b8181311061567b57803b1561000e57604051633e97486160e11b8152939092166001600160a01b03166004840152602483015260009082908183816044810103925af1801561566e575b6156615750565b8061509161095d92610898565b615676613299565b61565a565b604051631e9acf1760e31b8152600490fd5b919093506156a7610f16610162546001600160a01b031690565b6040516370a0823160e01b81526001600160a01b03821660048201526020958391908790829060249082905afa908115615772575b600091615755575b501061567b5760405163276d76f960e21b81526001600160a01b03938416600482015293909216602484015260448301528290829060649082906000905af18015615748575b615732575050565b8161345392903d1061120f576111ff818361090d565b615750613299565b61572a565b61576c9150873d891161140a576113fb818361090d565b386156e4565b61577a613299565b6156dc565b9291600081615792575050505050600090565b6001600160a01b0360646157d26040946157cd6157f09860038910156157fc575b60ff8960051c61016f015460f88b60031b161c169061404b565b61404b565b049516815261016e602052209060ff16600052602052604060002090565b54908115613d41570490565b615804611a00565b6157b3565b80600052602061017181526158216040600020613f88565b6001600160a01b03918282511692818301511665ffffffffffff80604085015116906060850151169160c060808601519501511515956040519788528488015260408701526060860152608085015260a084016000905b600382106158b5575050505015156101008201527fbbad5407299f3773930327d215f85a16617efbbddc1fe3902bd39ba46feacf269061012090a1565b82806001928651815201940191019092615878565b6001600160a01b0380911615159081615914575b506158e7575050565b61095d916000526101716020526040600020906001600160a01b03166001600160a01b0319825416179055565b905081161515386158de565b61593160ff60005460081c16613d4d565b60ff1960fb541660fb5556fea2646970667358221220f5aa1e6bf12ea381e979db9102bf9c0afd0677569854b9ca0d1bb3adef79b69564736f6c634300080e00337f26b83ff96e1f2b6a682f133852f6798a09c465da95921460cefb3847402498",
  "devdoc": {
    "kind": "dev",
    "methods": {
      "approve(address,uint256)": {
        "details": "See {IERC721-approve}."
      },
      "balanceOf(address)": {
        "details": "See {IERC721-balanceOf}."
      },
      "getApproved(uint256)": {
        "details": "See {IERC721-getApproved}."
      },
      "isApprovedForAll(address,address)": {
        "details": "See {IERC721-isApprovedForAll}."
      },
      "name()": {
        "details": "See {IERC721Metadata-name}."
      },
      "owner()": {
        "details": "Returns the address of the current owner."
      },
      "ownerOf(uint256)": {
        "details": "See {IERC721-ownerOf}."
      },
      "proxiableUUID()": {
        "details": "Implementation of the ERC1822 {proxiableUUID} function. This returns the storage slot used by the implementation. It is used to validate the implementation's compatibility when performing an upgrade. IMPORTANT: A proxy pointing at a proxiable contract should not be considered proxiable itself, because this risks bricking a proxy that upgrades to it, by delegating to itself until out of gas. Thus it is critical that this function revert if invoked through a proxy. This is guaranteed by the `notDelegated` modifier."
      },
      "renounceOwnership()": {
        "details": "Leaves the contract without owner. It will not be possible to call `onlyOwner` functions anymore. Can only be called by the current owner. NOTE: Renouncing ownership will leave the contract without an owner, thereby removing any functionality that is only available to the owner."
      },
      "safeTransferFrom(address,address,uint256)": {
        "details": "See {IERC721-safeTransferFrom}."
      },
      "safeTransferFrom(address,address,uint256,bytes)": {
        "details": "See {IERC721-safeTransferFrom}."
      },
      "setApprovalForAll(address,bool)": {
        "details": "See {IERC721-setApprovalForAll}."
      },
      "supportsInterface(bytes4)": {
        "details": "See {IERC165-supportsInterface}"
      },
      "symbol()": {
        "details": "See {IERC721Metadata-symbol}."
      },
      "tokenURI(uint256)": {
        "details": "See {IERC721Metadata-tokenURI}."
      },
      "transferFrom(address,address,uint256)": {
        "details": "See {IERC721-transferFrom}."
      },
      "transferOwnership(address)": {
        "details": "Transfers ownership of the contract to a new account (`newOwner`). Can only be called by the current owner."
      },
      "upgradeTo(address)": {
        "custom:oz-upgrades-unsafe-allow-reachable": "delegatecall",
        "details": "Upgrade the implementation of the proxy to `newImplementation`. Calls {_authorizeUpgrade}. Emits an {Upgraded} event."
      },
      "upgradeToAndCall(address,bytes)": {
        "custom:oz-upgrades-unsafe-allow-reachable": "delegatecall",
        "details": "Upgrade the implementation of the proxy to `newImplementation`, and subsequently execute the function call encoded in `data`. Calls {_authorizeUpgrade}. Emits an {Upgraded} event."
      }
    },
    "version": 1
  },
  "userdoc": {
    "kind": "user",
    "methods": {},
    "version": 1
  },
  "storageLayout": {
    "storage": [
      {
        "astId": 533,
        "contract": "contracts/staking/LendingPoolStakingV2.sol:LendingPoolStakingV2",
        "label": "_initialized",
        "offset": 0,
        "slot": "0",
        "type": "t_uint8"
      },
      {
        "astId": 536,
        "contract": "contracts/staking/LendingPoolStakingV2.sol:LendingPoolStakingV2",
        "label": "_initializing",
        "offset": 1,
        "slot": "0",
        "type": "t_bool"
      },
      {
        "astId": 2503,
        "contract": "contracts/staking/LendingPoolStakingV2.sol:LendingPoolStakingV2",
        "label": "__gap",
        "offset": 0,
        "slot": "1",
        "type": "t_array(t_uint256)50_storage"
      },
      {
        "astId": 2887,
        "contract": "contracts/staking/LendingPoolStakingV2.sol:LendingPoolStakingV2",
        "label": "__gap",
        "offset": 0,
        "slot": "51",
        "type": "t_array(t_uint256)50_storage"
      },
      {
        "astId": 862,
        "contract": "contracts/staking/LendingPoolStakingV2.sol:LendingPoolStakingV2",
        "label": "_name",
        "offset": 0,
        "slot": "101",
        "type": "t_string_storage"
      },
      {
        "astId": 864,
        "contract": "contracts/staking/LendingPoolStakingV2.sol:LendingPoolStakingV2",
        "label": "_symbol",
        "offset": 0,
        "slot": "102",
        "type": "t_string_storage"
      },
      {
        "astId": 868,
        "contract": "contracts/staking/LendingPoolStakingV2.sol:LendingPoolStakingV2",
        "label": "_owners",
        "offset": 0,
        "slot": "103",
        "type": "t_mapping(t_uint256,t_address)"
      },
      {
        "astId": 872,
        "contract": "contracts/staking/LendingPoolStakingV2.sol:LendingPoolStakingV2",
        "label": "_balances",
        "offset": 0,
        "slot": "104",
        "type": "t_mapping(t_address,t_uint256)"
      },
      {
        "astId": 876,
        "contract": "contracts/staking/LendingPoolStakingV2.sol:LendingPoolStakingV2",
        "label": "_tokenApprovals",
        "offset": 0,
        "slot": "105",
        "type": "t_mapping(t_uint256,t_address)"
      },
      {
        "astId": 882,
        "contract": "contracts/staking/LendingPoolStakingV2.sol:LendingPoolStakingV2",
        "label": "_operatorApprovals",
        "offset": 0,
        "slot": "106",
        "type": "t_mapping(t_address,t_mapping(t_address,t_bool))"
      },
      {
        "astId": 1784,
        "contract": "contracts/staking/LendingPoolStakingV2.sol:LendingPoolStakingV2",
        "label": "__gap",
        "offset": 0,
        "slot": "107",
        "type": "t_array(t_uint256)44_storage"
      },
      {
        "astId": 1939,
        "contract": "contracts/staking/LendingPoolStakingV2.sol:LendingPoolStakingV2",
        "label": "_tokenURIs",
        "offset": 0,
        "slot": "151",
        "type": "t_mapping(t_uint256,t_string_storage)"
      },
      {
        "astId": 2095,
        "contract": "contracts/staking/LendingPoolStakingV2.sol:LendingPoolStakingV2",
        "label": "__gap",
        "offset": 0,
        "slot": "152",
        "type": "t_array(t_uint256)49_storage"
      },
      {
        "astId": 5007,
        "contract": "contracts/staking/LendingPoolStakingV2.sol:LendingPoolStakingV2",
        "label": "_owner",
        "offset": 0,
        "slot": "201",
        "type": "t_address"
      },
      {
        "astId": 5127,
        "contract": "contracts/staking/LendingPoolStakingV2.sol:LendingPoolStakingV2",
        "label": "__gap",
        "offset": 0,
        "slot": "202",
        "type": "t_array(t_uint256)49_storage"
      },
      {
        "astId": 7201,
        "contract": "contracts/staking/LendingPoolStakingV2.sol:LendingPoolStakingV2",
        "label": "testing",
        "offset": 0,
        "slot": "251",
        "type": "t_bool"
      },
      {
        "astId": 5139,
        "contract": "contracts/staking/LendingPoolStakingV2.sol:LendingPoolStakingV2",
        "label": "hasRole",
        "offset": 0,
        "slot": "252",
        "type": "t_mapping(t_address,t_mapping(t_string_memory_ptr,t_bool))"
      },
      {
        "astId": 515,
        "contract": "contracts/staking/LendingPoolStakingV2.sol:LendingPoolStakingV2",
        "label": "__gap",
        "offset": 0,
        "slot": "253",
        "type": "t_array(t_uint256)50_storage"
      },
      {
        "astId": 831,
        "contract": "contracts/staking/LendingPoolStakingV2.sol:LendingPoolStakingV2",
        "label": "__gap",
        "offset": 0,
        "slot": "303",
        "type": "t_array(t_uint256)50_storage"
      },
      {
        "astId": 5344,
        "contract": "contracts/staking/LendingPoolStakingV2.sol:LendingPoolStakingV2",
        "label": "nend",
        "offset": 0,
        "slot": "353",
        "type": "t_address"
      },
      {
        "astId": 5347,
        "contract": "contracts/staking/LendingPoolStakingV2.sol:LendingPoolStakingV2",
        "label": "lendingPool",
        "offset": 0,
        "slot": "354",
        "type": "t_contract(Vault)7860"
      },
      {
        "astId": 5351,
        "contract": "contracts/staking/LendingPoolStakingV2.sol:LendingPoolStakingV2",
        "label": "activeStakeTokens",
        "offset": 0,
        "slot": "355",
        "type": "t_mapping(t_address,t_bool)"
      },
      {
        "astId": 5355,
        "contract": "contracts/staking/LendingPoolStakingV2.sol:LendingPoolStakingV2",
        "label": "inflationRollOver",
        "offset": 0,
        "slot": "356",
        "type": "t_mapping(t_address,t_uint256)"
      },
      {
        "astId": 5358,
        "contract": "contracts/staking/LendingPoolStakingV2.sol:LendingPoolStakingV2",
        "label": "stakeTokens",
        "offset": 0,
        "slot": "357",
        "type": "t_array(t_address)dyn_storage"
      },
      {
        "astId": 5360,
        "contract": "contracts/staking/LendingPoolStakingV2.sol:LendingPoolStakingV2",
        "label": "escrowLockPeriod",
        "offset": 0,
        "slot": "358",
        "type": "t_uint48"
      },
      {
        "astId": 5362,
        "contract": "contracts/staking/LendingPoolStakingV2.sol:LendingPoolStakingV2",
        "label": "stakeTokenCount",
        "offset": 0,
        "slot": "359",
        "type": "t_uint256"
      },
      {
        "astId": 5364,
        "contract": "contracts/staking/LendingPoolStakingV2.sol:LendingPoolStakingV2",
        "label": "ongoingStakeCount",
        "offset": 0,
        "slot": "360",
        "type": "t_uint256"
      },
      {
        "astId": 5368,
        "contract": "contracts/staking/LendingPoolStakingV2.sol:LendingPoolStakingV2",
        "label": "ifpTokenToAmount",
        "offset": 0,
        "slot": "361",
        "type": "t_mapping(t_address,t_uint256)"
      },
      {
        "astId": 5374,
        "contract": "contracts/staking/LendingPoolStakingV2.sol:LendingPoolStakingV2",
        "label": "userToStakeTokenToLastEscrowId",
        "offset": 0,
        "slot": "362",
        "type": "t_mapping(t_address,t_mapping(t_address,t_uint256))"
      },
      {
        "astId": 5380,
        "contract": "contracts/staking/LendingPoolStakingV2.sol:LendingPoolStakingV2",
        "label": "lastEscrowRewardByToken_Duration",
        "offset": 0,
        "slot": "363",
        "type": "t_mapping(t_address,t_mapping(t_uint8,t_uint256))"
      },
      {
        "astId": 5384,
        "contract": "contracts/staking/LendingPoolStakingV2.sol:LendingPoolStakingV2",
        "label": "_oldStakes",
        "offset": 0,
        "slot": "364",
        "type": "t_array(t_struct(Stake)7115_storage)dyn_storage"
      },
      {
        "astId": 5388,
        "contract": "contracts/staking/LendingPoolStakingV2.sol:LendingPoolStakingV2",
        "label": "stakeDurations",
        "offset": 0,
        "slot": "365",
        "type": "t_array(t_uint48)3_storage"
      },
      {
        "astId": 5394,
        "contract": "contracts/staking/LendingPoolStakingV2.sol:LendingPoolStakingV2",
        "label": "totalStakedByToken_Duration",
        "offset": 0,
        "slot": "366",
        "type": "t_mapping(t_address,t_mapping(t_uint8,t_uint256))"
      },
      {
        "astId": 5398,
        "contract": "contracts/staking/LendingPoolStakingV2.sol:LendingPoolStakingV2",
        "label": "rewardAllocations",
        "offset": 0,
        "slot": "367",
        "type": "t_array(t_uint8)3_storage"
      },
      {
        "astId": 5400,
        "contract": "contracts/staking/LendingPoolStakingV2.sol:LendingPoolStakingV2",
        "label": "poolRollOver",
        "offset": 0,
        "slot": "368",
        "type": "t_uint256"
      },
      {
        "astId": 5405,
        "contract": "contracts/staking/LendingPoolStakingV2.sol:LendingPoolStakingV2",
        "label": "stakes",
        "offset": 0,
        "slot": "369",
        "type": "t_mapping(t_uint256,t_struct(Stake)7115_storage)"
      },
      {
        "astId": 5408,
        "contract": "contracts/staking/LendingPoolStakingV2.sol:LendingPoolStakingV2",
        "label": "nextStakeId",
        "offset": 0,
        "slot": "370",
        "type": "t_uint256"
      },
      {
        "astId": 5412,
        "contract": "contracts/staking/LendingPoolStakingV2.sol:LendingPoolStakingV2",
        "label": "isActiveStake",
        "offset": 0,
        "slot": "371",
        "type": "t_mapping(t_uint256,t_bool)"
      },
      {
        "astId": 5415,
        "contract": "contracts/staking/LendingPoolStakingV2.sol:LendingPoolStakingV2",
        "label": "activeStakeIds",
        "offset": 0,
        "slot": "372",
        "type": "t_array(t_uint256)dyn_storage"
      },
      {
        "astId": 5417,
        "contract": "contracts/staking/LendingPoolStakingV2.sol:LendingPoolStakingV2",
        "label": "migrationCompleted",
        "offset": 0,
        "slot": "373",
        "type": "t_bool"
      }
    ],
    "types": {
      "t_address": {
        "encoding": "inplace",
        "label": "address",
        "numberOfBytes": "20"
      },
      "t_array(t_address)dyn_storage": {
        "base": "t_address",
        "encoding": "dynamic_array",
        "label": "address[]",
        "numberOfBytes": "32"
      },
      "t_array(t_struct(Stake)7115_storage)dyn_storage": {
        "base": "t_struct(Stake)7115_storage",
        "encoding": "dynamic_array",
        "label": "struct ILendingPoolStaking.Stake[]",
        "numberOfBytes": "32"
      },
      "t_array(t_uint256)3_storage": {
        "base": "t_uint256",
        "encoding": "inplace",
        "label": "uint256[3]",
        "numberOfBytes": "96"
      },
      "t_array(t_uint256)44_storage": {
        "base": "t_uint256",
        "encoding": "inplace",
        "label": "uint256[44]",
        "numberOfBytes": "1408"
      },
      "t_array(t_uint256)49_storage": {
        "base": "t_uint256",
        "encoding": "inplace",
        "label": "uint256[49]",
        "numberOfBytes": "1568"
      },
      "t_array(t_uint256)50_storage": {
        "base": "t_uint256",
        "encoding": "inplace",
        "label": "uint256[50]",
        "numberOfBytes": "1600"
      },
      "t_array(t_uint256)dyn_storage": {
        "base": "t_uint256",
        "encoding": "dynamic_array",
        "label": "uint256[]",
        "numberOfBytes": "32"
      },
      "t_array(t_uint48)3_storage": {
        "base": "t_uint48",
        "encoding": "inplace",
        "label": "uint48[3]",
        "numberOfBytes": "32"
      },
      "t_array(t_uint8)3_storage": {
        "base": "t_uint8",
        "encoding": "inplace",
        "label": "uint8[3]",
        "numberOfBytes": "32"
      },
      "t_bool": {
        "encoding": "inplace",
        "label": "bool",
        "numberOfBytes": "1"
      },
      "t_contract(Vault)7860": {
        "encoding": "inplace",
        "label": "contract Vault",
        "numberOfBytes": "20"
      },
      "t_enum(EscrowStatus)7092": {
        "encoding": "inplace",
        "label": "enum ILendingPoolStaking.EscrowStatus",
        "numberOfBytes": "1"
      },
      "t_enum(StakeStatus)7088": {
        "encoding": "inplace",
        "label": "enum ILendingPoolStaking.StakeStatus",
        "numberOfBytes": "1"
      },
      "t_mapping(t_address,t_bool)": {
        "encoding": "mapping",
        "key": "t_address",
        "label": "mapping(address => bool)",
        "numberOfBytes": "32",
        "value": "t_bool"
      },
      "t_mapping(t_address,t_mapping(t_address,t_bool))": {
        "encoding": "mapping",
        "key": "t_address",
        "label": "mapping(address => mapping(address => bool))",
        "numberOfBytes": "32",
        "value": "t_mapping(t_address,t_bool)"
      },
      "t_mapping(t_address,t_mapping(t_address,t_uint256))": {
        "encoding": "mapping",
        "key": "t_address",
        "label": "mapping(address => mapping(address => uint256))",
        "numberOfBytes": "32",
        "value": "t_mapping(t_address,t_uint256)"
      },
      "t_mapping(t_address,t_mapping(t_string_memory_ptr,t_bool))": {
        "encoding": "mapping",
        "key": "t_address",
        "label": "mapping(address => mapping(string => bool))",
        "numberOfBytes": "32",
        "value": "t_mapping(t_string_memory_ptr,t_bool)"
      },
      "t_mapping(t_address,t_mapping(t_uint8,t_uint256))": {
        "encoding": "mapping",
        "key": "t_address",
        "label": "mapping(address => mapping(uint8 => uint256))",
        "numberOfBytes": "32",
        "value": "t_mapping(t_uint8,t_uint256)"
      },
      "t_mapping(t_address,t_uint256)": {
        "encoding": "mapping",
        "key": "t_address",
        "label": "mapping(address => uint256)",
        "numberOfBytes": "32",
        "value": "t_uint256"
      },
      "t_mapping(t_string_memory_ptr,t_bool)": {
        "encoding": "mapping",
        "key": "t_string_memory_ptr",
        "label": "mapping(string => bool)",
        "numberOfBytes": "32",
        "value": "t_bool"
      },
      "t_mapping(t_uint256,t_address)": {
        "encoding": "mapping",
        "key": "t_uint256",
        "label": "mapping(uint256 => address)",
        "numberOfBytes": "32",
        "value": "t_address"
      },
      "t_mapping(t_uint256,t_bool)": {
        "encoding": "mapping",
        "key": "t_uint256",
        "label": "mapping(uint256 => bool)",
        "numberOfBytes": "32",
        "value": "t_bool"
      },
      "t_mapping(t_uint256,t_string_storage)": {
        "encoding": "mapping",
        "key": "t_uint256",
        "label": "mapping(uint256 => string)",
        "numberOfBytes": "32",
        "value": "t_string_storage"
      },
      "t_mapping(t_uint256,t_struct(Stake)7115_storage)": {
        "encoding": "mapping",
        "key": "t_uint256",
        "label": "mapping(uint256 => struct ILendingPoolStaking.Stake)",
        "numberOfBytes": "32",
        "value": "t_struct(Stake)7115_storage"
      },
      "t_mapping(t_uint8,t_uint256)": {
        "encoding": "mapping",
        "key": "t_uint8",
        "label": "mapping(uint8 => uint256)",
        "numberOfBytes": "32",
        "value": "t_uint256"
      },
      "t_string_memory_ptr": {
        "encoding": "bytes",
        "label": "string",
        "numberOfBytes": "32"
      },
      "t_string_storage": {
        "encoding": "bytes",
        "label": "string",
        "numberOfBytes": "32"
      },
      "t_struct(Stake)7115_storage": {
        "encoding": "inplace",
        "label": "struct ILendingPoolStaking.Stake",
        "members": [
          {
            "astId": 7094,
            "contract": "contracts/staking/LendingPoolStakingV2.sol:LendingPoolStakingV2",
            "label": "staker",
            "offset": 0,
            "slot": "0",
            "type": "t_address"
          },
          {
            "astId": 7096,
            "contract": "contracts/staking/LendingPoolStakingV2.sol:LendingPoolStakingV2",
            "label": "token",
            "offset": 0,
            "slot": "1",
            "type": "t_address"
          },
          {
            "astId": 7098,
            "contract": "contracts/staking/LendingPoolStakingV2.sol:LendingPoolStakingV2",
            "label": "start",
            "offset": 20,
            "slot": "1",
            "type": "t_uint48"
          },
          {
            "astId": 7100,
            "contract": "contracts/staking/LendingPoolStakingV2.sol:LendingPoolStakingV2",
            "label": "end",
            "offset": 26,
            "slot": "1",
            "type": "t_uint48"
          },
          {
            "astId": 7104,
            "contract": "contracts/staking/LendingPoolStakingV2.sol:LendingPoolStakingV2",
            "label": "amountsPerDuration",
            "offset": 0,
            "slot": "2",
            "type": "t_array(t_uint256)3_storage"
          },
          {
            "astId": 7106,
            "contract": "contracts/staking/LendingPoolStakingV2.sol:LendingPoolStakingV2",
            "label": "rewardAllocated",
            "offset": 0,
            "slot": "5",
            "type": "t_uint256"
          },
          {
            "astId": 7108,
            "contract": "contracts/staking/LendingPoolStakingV2.sol:LendingPoolStakingV2",
            "label": "isEscrow",
            "offset": 0,
            "slot": "6",
            "type": "t_bool"
          },
          {
            "astId": 7111,
            "contract": "contracts/staking/LendingPoolStakingV2.sol:LendingPoolStakingV2",
            "label": "escrowStatus",
            "offset": 1,
            "slot": "6",
            "type": "t_enum(EscrowStatus)7092"
          },
          {
            "astId": 7114,
            "contract": "contracts/staking/LendingPoolStakingV2.sol:LendingPoolStakingV2",
            "label": "stakeStatus",
            "offset": 2,
            "slot": "6",
            "type": "t_enum(StakeStatus)7088"
          }
        ],
        "numberOfBytes": "224"
      },
      "t_uint256": {
        "encoding": "inplace",
        "label": "uint256",
        "numberOfBytes": "32"
      },
      "t_uint48": {
        "encoding": "inplace",
        "label": "uint48",
        "numberOfBytes": "6"
      },
      "t_uint8": {
        "encoding": "inplace",
        "label": "uint8",
        "numberOfBytes": "1"
      }
    }
  }
}