{
  "address": "0xFE338C7473a0595195123D17DAa588b1ad785a30",
  "abi": [
    {
      "anonymous": false,
      "inputs": [
        {
          "indexed": false,
          "internalType": "address",
          "name": "previousAdmin",
          "type": "address"
        },
        {
          "indexed": false,
          "internalType": "address",
          "name": "newAdmin",
          "type": "address"
        }
      ],
      "name": "AdminChanged",
      "type": "event"
    },
    {
      "anonymous": false,
      "inputs": [
        {
          "indexed": true,
          "internalType": "address",
          "name": "owner",
          "type": "address"
        },
        {
          "indexed": true,
          "internalType": "address",
          "name": "approved",
          "type": "address"
        },
        {
          "indexed": true,
          "internalType": "uint256",
          "name": "tokenId",
          "type": "uint256"
        }
      ],
      "name": "Approval",
      "type": "event"
    },
    {
      "anonymous": false,
      "inputs": [
        {
          "indexed": true,
          "internalType": "address",
          "name": "owner",
          "type": "address"
        },
        {
          "indexed": true,
          "internalType": "address",
          "name": "operator",
          "type": "address"
        },
        {
          "indexed": false,
          "internalType": "bool",
          "name": "approved",
          "type": "bool"
        }
      ],
      "name": "ApprovalForAll",
      "type": "event"
    },
    {
      "anonymous": false,
      "inputs": [
        {
          "indexed": false,
          "internalType": "uint256",
          "name": "_fromTokenId",
          "type": "uint256"
        },
        {
          "indexed": false,
          "internalType": "uint256",
          "name": "_toTokenId",
          "type": "uint256"
        }
      ],
      "name": "BatchMetadataUpdate",
      "type": "event"
    },
    {
      "anonymous": false,
      "inputs": [
        {
          "indexed": true,
          "internalType": "address",
          "name": "beacon",
          "type": "address"
        }
      ],
      "name": "BeaconUpgraded",
      "type": "event"
    },
    {
      "anonymous": false,
      "inputs": [
        {
          "indexed": false,
          "internalType": "uint8",
          "name": "version",
          "type": "uint8"
        }
      ],
      "name": "Initialized",
      "type": "event"
    },
    {
      "anonymous": false,
      "inputs": [
        {
          "indexed": false,
          "internalType": "uint256",
          "name": "_tokenId",
          "type": "uint256"
        }
      ],
      "name": "MetadataUpdate",
      "type": "event"
    },
    {
      "anonymous": false,
      "inputs": [
        {
          "indexed": true,
          "internalType": "address",
          "name": "previousOwner",
          "type": "address"
        },
        {
          "indexed": true,
          "internalType": "address",
          "name": "newOwner",
          "type": "address"
        }
      ],
      "name": "OwnershipTransferred",
      "type": "event"
    },
    {
      "anonymous": false,
      "inputs": [
        {
          "indexed": true,
          "internalType": "address",
          "name": "from",
          "type": "address"
        },
        {
          "indexed": true,
          "internalType": "address",
          "name": "to",
          "type": "address"
        },
        {
          "indexed": true,
          "internalType": "uint256",
          "name": "tokenId",
          "type": "uint256"
        }
      ],
      "name": "Transfer",
      "type": "event"
    },
    {
      "anonymous": false,
      "inputs": [
        {
          "indexed": true,
          "internalType": "address",
          "name": "implementation",
          "type": "address"
        }
      ],
      "name": "Upgraded",
      "type": "event"
    },
    {
      "inputs": [],
      "name": "__MWOwnable_init",
      "outputs": [],
      "stateMutability": "nonpayable",
      "type": "function"
    },
    {
      "inputs": [
        {
          "internalType": "address",
          "name": "to",
          "type": "address"
        },
        {
          "internalType": "uint256",
          "name": "tokenId",
          "type": "uint256"
        }
      ],
      "name": "approve",
      "outputs": [],
      "stateMutability": "nonpayable",
      "type": "function"
    },
    {
      "inputs": [
        {
          "internalType": "address",
          "name": "operator",
          "type": "address"
        },
        {
          "internalType": "string",
          "name": "role",
          "type": "string"
        },
        {
          "internalType": "bool",
          "name": "authorized",
          "type": "bool"
        }
      ],
      "name": "authorize",
      "outputs": [],
      "stateMutability": "nonpayable",
      "type": "function"
    },
    {
      "inputs": [
        {
          "internalType": "address",
          "name": "owner",
          "type": "address"
        }
      ],
      "name": "balanceOf",
      "outputs": [
        {
          "internalType": "uint256",
          "name": "",
          "type": "uint256"
        }
      ],
      "stateMutability": "view",
      "type": "function"
    },
    {
      "inputs": [
        {
          "internalType": "uint256",
          "name": "tokenId",
          "type": "uint256"
        }
      ],
      "name": "burn",
      "outputs": [],
      "stateMutability": "nonpayable",
      "type": "function"
    },
    {
      "inputs": [
        {
          "internalType": "uint256",
          "name": "tokenId",
          "type": "uint256"
        }
      ],
      "name": "getApproved",
      "outputs": [
        {
          "internalType": "address",
          "name": "",
          "type": "address"
        }
      ],
      "stateMutability": "view",
      "type": "function"
    },
    {
      "inputs": [
        {
          "internalType": "address",
          "name": "",
          "type": "address"
        },
        {
          "internalType": "string",
          "name": "",
          "type": "string"
        }
      ],
      "name": "hasRole",
      "outputs": [
        {
          "internalType": "bool",
          "name": "",
          "type": "bool"
        }
      ],
      "stateMutability": "view",
      "type": "function"
    },
    {
      "inputs": [],
      "name": "initialize",
      "outputs": [],
      "stateMutability": "nonpayable",
      "type": "function"
    },
    {
      "inputs": [
        {
          "internalType": "address",
          "name": "owner",
          "type": "address"
        },
        {
          "internalType": "address",
          "name": "operator",
          "type": "address"
        }
      ],
      "name": "isApprovedForAll",
      "outputs": [
        {
          "internalType": "bool",
          "name": "",
          "type": "bool"
        }
      ],
      "stateMutability": "view",
      "type": "function"
    },
    {
      "inputs": [],
      "name": "name",
      "outputs": [
        {
          "internalType": "string",
          "name": "",
          "type": "string"
        }
      ],
      "stateMutability": "view",
      "type": "function"
    },
    {
      "inputs": [],
      "name": "owner",
      "outputs": [
        {
          "internalType": "address",
          "name": "",
          "type": "address"
        }
      ],
      "stateMutability": "view",
      "type": "function"
    },
    {
      "inputs": [
        {
          "internalType": "uint256",
          "name": "tokenId",
          "type": "uint256"
        }
      ],
      "name": "ownerOf",
      "outputs": [
        {
          "internalType": "address",
          "name": "",
          "type": "address"
        }
      ],
      "stateMutability": "view",
      "type": "function"
    },
    {
      "inputs": [],
      "name": "periFiAdminAddr",
      "outputs": [
        {
          "internalType": "address",
          "name": "",
          "type": "address"
        }
      ],
      "stateMutability": "view",
      "type": "function"
    },
    {
      "inputs": [],
      "name": "periFiLoanAddr",
      "outputs": [
        {
          "internalType": "address payable",
          "name": "",
          "type": "address"
        }
      ],
      "stateMutability": "view",
      "type": "function"
    },
    {
      "inputs": [],
      "name": "proxiableUUID",
      "outputs": [
        {
          "internalType": "bytes32",
          "name": "",
          "type": "bytes32"
        }
      ],
      "stateMutability": "view",
      "type": "function"
    },
    {
      "inputs": [],
      "name": "renounceOwnership",
      "outputs": [],
      "stateMutability": "nonpayable",
      "type": "function"
    },
    {
      "inputs": [
        {
          "internalType": "uint256",
          "name": "tokenId",
          "type": "uint256"
        }
      ],
      "name": "safeBurn",
      "outputs": [],
      "stateMutability": "nonpayable",
      "type": "function"
    },
    {
      "inputs": [
        {
          "internalType": "address",
          "name": "to",
          "type": "address"
        },
        {
          "internalType": "uint256",
          "name": "tokenId",
          "type": "uint256"
        }
      ],
      "name": "safeMint",
      "outputs": [],
      "stateMutability": "nonpayable",
      "type": "function"
    },
    {
      "inputs": [
        {
          "internalType": "address",
          "name": "from",
          "type": "address"
        },
        {
          "internalType": "address",
          "name": "to",
          "type": "address"
        },
        {
          "internalType": "uint256",
          "name": "tokenId",
          "type": "uint256"
        }
      ],
      "name": "safeTransferFrom",
      "outputs": [],
      "stateMutability": "nonpayable",
      "type": "function"
    },
    {
      "inputs": [
        {
          "internalType": "address",
          "name": "from",
          "type": "address"
        },
        {
          "internalType": "address",
          "name": "to",
          "type": "address"
        },
        {
          "internalType": "uint256",
          "name": "tokenId",
          "type": "uint256"
        },
        {
          "internalType": "bytes",
          "name": "_data",
          "type": "bytes"
        }
      ],
      "name": "safeTransferFrom",
      "outputs": [],
      "stateMutability": "nonpayable",
      "type": "function"
    },
    {
      "inputs": [
        {
          "internalType": "address",
          "name": "adminAddr",
          "type": "address"
        }
      ],
      "name": "setAdminAddress",
      "outputs": [],
      "stateMutability": "nonpayable",
      "type": "function"
    },
    {
      "inputs": [
        {
          "internalType": "address",
          "name": "operator",
          "type": "address"
        },
        {
          "internalType": "bool",
          "name": "approved",
          "type": "bool"
        }
      ],
      "name": "setApprovalForAll",
      "outputs": [],
      "stateMutability": "nonpayable",
      "type": "function"
    },
    {
      "inputs": [
        {
          "internalType": "address payable",
          "name": "loanAddr",
          "type": "address"
        }
      ],
      "name": "setLoanAddress",
      "outputs": [],
      "stateMutability": "nonpayable",
      "type": "function"
    },
    {
      "inputs": [
        {
          "internalType": "uint256",
          "name": "tokenId",
          "type": "uint256"
        },
        {
          "internalType": "string",
          "name": "uri",
          "type": "string"
        }
      ],
      "name": "setTokenURI",
      "outputs": [],
      "stateMutability": "nonpayable",
      "type": "function"
    },
    {
      "inputs": [
        {
          "internalType": "bytes4",
          "name": "interfaceId",
          "type": "bytes4"
        }
      ],
      "name": "supportsInterface",
      "outputs": [
        {
          "internalType": "bool",
          "name": "",
          "type": "bool"
        }
      ],
      "stateMutability": "view",
      "type": "function"
    },
    {
      "inputs": [],
      "name": "symbol",
      "outputs": [
        {
          "internalType": "string",
          "name": "",
          "type": "string"
        }
      ],
      "stateMutability": "view",
      "type": "function"
    },
    {
      "inputs": [
        {
          "internalType": "uint256",
          "name": "tokenId",
          "type": "uint256"
        }
      ],
      "name": "tokenURI",
      "outputs": [
        {
          "internalType": "string",
          "name": "",
          "type": "string"
        }
      ],
      "stateMutability": "view",
      "type": "function"
    },
    {
      "inputs": [
        {
          "internalType": "address",
          "name": "from",
          "type": "address"
        },
        {
          "internalType": "address",
          "name": "to",
          "type": "address"
        },
        {
          "internalType": "uint256",
          "name": "tokenId",
          "type": "uint256"
        }
      ],
      "name": "transferFrom",
      "outputs": [],
      "stateMutability": "nonpayable",
      "type": "function"
    },
    {
      "inputs": [
        {
          "internalType": "address",
          "name": "newOwner",
          "type": "address"
        }
      ],
      "name": "transferOwnership",
      "outputs": [],
      "stateMutability": "nonpayable",
      "type": "function"
    },
    {
      "inputs": [
        {
          "internalType": "address",
          "name": "newImplementation",
          "type": "address"
        }
      ],
      "name": "upgradeTo",
      "outputs": [],
      "stateMutability": "nonpayable",
      "type": "function"
    },
    {
      "inputs": [
        {
          "internalType": "address",
          "name": "newImplementation",
          "type": "address"
        },
        {
          "internalType": "bytes",
          "name": "data",
          "type": "bytes"
        }
      ],
      "name": "upgradeToAndCall",
      "outputs": [],
      "stateMutability": "payable",
      "type": "function"
    }
  ],
  "transactionHash": "0x4e814dc43e6223ccb254987a60118ab55060dd8426cd1c9a0bb8c30b007648ba",
  "args": [],
  "numDeployments": 1,
  "solcInputHash": "2b691191bd6bf894805fd6522b0009a2",
  "bytecode": "0x60a06040523462000118576000546200003260ff8260081c16158092819362000109575b8115620000e6575b506200011d565b8062000046600160ff196000541617600055565b620000cb575b6200005662000181565b62000087575b30608052604051612ea09081620001e28239608051818181610b6c01528181610f0801526110780152f35b6200009861ff001960005416600055565b604051600181527f7f26b83ff96e1f2b6a682f133852f6798a09c465da95921460cefb384740249890602090a16200005c565b620000e061010061ff00196000541617600055565b6200004c565b303b15915081620000fa575b50386200002b565b6001915060ff161438620000f2565b600160ff821610915062000023565b600080fd5b156200012557565b60405162461bcd60e51b815260206004820152602e60248201527f496e697469616c697a61626c653a20636f6e747261637420697320616c72656160448201526d191e481a5b9a5d1a585b1a5e995960921b6064820152608490fd5b60fb8054737e8ae5c72eca86946b695dcc211863d9721a09616001600160a01b0319821681179092556040516001600160a01b03909116907f8be0079c531659141344cd1fd0a4f28419497f9722a3daafe3b4186f6b6457e090600090a356fe60806040526004361015610013575b600080fd5b60003560e01c806301ffc9a71461027f57806306fdde0314610276578063081812fc1461026d578063095ea7b314610264578063162094c41461025b578063217fe6c61461025257806323b872dd146102495780632c1e816d146102405780632dcf2e69146102375780633659cfe61461022e57806339d2525f1461022557806342842e0e1461021c57806342966c68146102135780634f1ef2861461020a57806352d1902d146102015780636352211e146101f857806365b014b7146101ef57806370a08231146101e6578063715018a6146101dd5780638129fc1c146101d45780638da5cb5b146101cb57806395d89b41146101c25780639e45576e146101b9578063a1448194146101b0578063a22cb465146101a7578063b88d4fde1461019e578063c18c277514610195578063c87b56dd1461018c578063dbf5132514610183578063e985e9c51461017a5763f2fde38b1461017257600080fd5b61000e611a54565b5061000e6119e9565b5061000e61188e565b5061000e61185a565b5061000e611831565b5061000e6117d9565b5061000e6116e7565b5061000e611519565b5061000e611436565b5061000e61138e565b5061000e611366565b5061000e611284565b5061000e611224565b5061000e61117e565b5061000e611153565b5061000e611134565b5061000e61105c565b5061000e610ec2565b5061000e610daf565b5061000e610d7e565b5061000e610cdf565b5061000e610b42565b5061000e610b19565b5061000e610ad0565b5061000e6109fb565b5061000e61093f565b5061000e610717565b5061000e6104af565b5061000e61046e565b5061000e610391565b5061000e61029a565b6001600160e01b031981160361000e57565b503461000e57602036600319011261000e5760206004356102ba81610288565b63ffffffff60e01b16632483248360e11b81149081156102e0575b506040519015158152f35b6380ac58cd60e01b811491508115610312575b8115610301575b50386102d5565b6301ffc9a760e01b149050386102fa565b635b5e139f60e01b811491506102f3565b918091926000905b82821061034357501161033c575050565b6000910152565b9150806020918301518186015201829161032b565b9060209161037181518092818552858086019101610323565b601f01601f1916010190565b90602061038e928181520190610358565b90565b503461000e5760008060031936011261046b5760405190806065546103b581611e90565b8085529160019180831690811561044a57506001146103ef575b6103eb856103df81870382610683565b6040519182918261037d565b0390f35b9250606583527f8ff97419363ffd7000167f130ef7168fbea05faf9251824ca5043f113cc6a7c75b8284106104325750505081016020016103df826103eb6103cf565b80546020858701810191909152909301928101610417565b60ff1916602087015250506040840192506103df91508390506103eb6103cf565b80fd5b503461000e57602036600319011261000e57602061048d600435611eca565b6001600160a01b0360405191168152f35b6001600160a01b0381160361000e57565b503461000e57604036600319011261000e576105956004356104d08161049e565b602435906105906104f96104ed610193546001600160a01b031690565b6001600160a01b031690565b61050f6104ed610192546001600160a01b031690565b90604051631464454560e21b8152610573602093828581600482966001600160a01b038099165afa9081156105fe575b6000916105d1575b50604051633a82233360e11b8152600481018a9052602481019190915293849283919082906044820190565b0392165afa9182156105c4575b600092610597575b505015612a74565b612b32565b005b6105b69250803d106105bd575b6105ae8183610683565b810190612a5f565b3880610588565b503d6105a4565b6105cc611c06565b610580565b6105f19150843d86116105f7575b6105e98183610683565b810190611bf7565b38610547565b503d6105df565b610606611c06565b61053f565b50634e487b7160e01b600052604160045260246000fd5b6020810190811067ffffffffffffffff82111761063e57604052565b61064661060b565b604052565b6040810190811067ffffffffffffffff82111761063e57604052565b6060810190811067ffffffffffffffff82111761063e57604052565b90601f8019910116810190811067ffffffffffffffff82111761063e57604052565b60209067ffffffffffffffff81116106c3575b601f01601f19160190565b6106cb61060b565b6106b8565b81601f8201121561000e578035906106e7826106a5565b926106f56040519485610683565b8284526020838301011161000e57816000926020809301838601378301015290565b503461000e57604036600319011261000e5760043567ffffffffffffffff60243581811161000e5761074d9036906004016106d0565b9161076e8160005260676020526001600160a01b0360406000205416151590565b156108bd5760009181835260209060978252604084209185519182116108b0575b6107a38261079d8554611e90565b85612493565b80601f831160011461081a5750908061080794939286977ff8e1a15aba9398e019f0b49df1a4fde98ee17ae345cb5f6b5e2c27f5033e8ce7979261080f575b50508160011b916000199060031b1c19161790555b6040519081529081906020820190565b0390a1604051f35b0151905038806107e2565b90601f1983169661083085600052602060002090565b9287905b8982106108985750509183916001936108079796957ff8e1a15aba9398e019f0b49df1a4fde98ee17ae345cb5f6b5e2c27f5033e8ce7999a1061087f575b505050811b0190556107f7565b015160001960f88460031b161c19169055388080610872565b80600185968294968601518155019501930190610834565b6108b861060b565b61078f565b60405162461bcd60e51b815260206004820152602e60248201527f45524337323155524953746f726167653a2055524920736574206f66206e6f6e60448201527f6578697374656e7420746f6b656e0000000000000000000000000000000000006064820152608490fd5b9061093b60209282815194859201610323565b0190565b503461000e57604036600319011261000e5760043561095d8161049e565b60243567ffffffffffffffff811161000e576109b260206103eb936001600160a01b0361099060ff9536906004016106d0565b911660005261012d825260406000208260405194838680955193849201610323565b820190815203019020546040519116151581529081906020820190565b606090600319011261000e576004356109e78161049e565b906024356109f48161049e565b9060443590565b503461000e57610595610a0d366109cf565b91610aa1610a276104ed610193546001600160a01b031690565b610a3d6104ed610192546001600160a01b031690565b90604051631464454560e21b8152610573602093828581600482966001600160a01b038099165afa908115610ac3575b600091610aa6575b50604051633a82233360e11b8152600481018b9052602481019190915293849283919082906044820190565b612c65565b610abd9150843d86116105f7576105e98183610683565b38610a75565b610acb611c06565b610a6d565b503461000e57602036600319011261000e57600435610aee8161049e565b610af661212b565b6001600160a01b0361019391166001600160a01b03198254161790556000604051f35b503461000e57600036600319011261000e5760206001600160a01b036101925416604051908152f35b503461000e57602036600319011261000e57600435610b608161049e565b6001600160a01b0390817f00000000000000000000000000000000000000000000000000000000000000001691610b9983301415611b22565b610bc87f360894a13ba1a3210667c828492db98dca3e2076cc3735a920a3ca505d382bbc938285541614611b83565b610bd061212b565b60405190610bdd82610622565b600082527f4910fdfa16fed3260ed0e7147f7cc6da11a60208b5b9406d12a635614ffd91435460ff1615610c175750506105959150611c71565b6020600491604094939451928380926352d1902d60e01b825286165afa60009181610cb5575b50610ca25760405162461bcd60e51b815260206004820152602e60248201527f45524331393637557067726164653a206e657720696d706c656d656e7461746960448201526d6f6e206973206e6f74205555505360901b6064820152608490fd5b0390fd5b61059593610cb09114611c13565b611d0f565b610cce91925060203d81116105f7576105e98183610683565b9038610c3d565b8015150361000e57565b503461000e57606036600319011261000e57600435610cfd8161049e565b6024359067ffffffffffffffff821161000e57610d646020610d266105959436906004016106d0565b6001600160a01b0360443594610d3b86610cd5565b610d4361212b565b1660005261012d825260406000208260405194838680955193849201610323565b8201908152030190209060ff801983541691151516179055565b503461000e57610595610d90366109cf565b91610daa610a276104ed610193546001600160a01b031690565b612e0b565b503461000e57602036600319011261000e576001600160a01b03600435610dde610dd98233611f6e565b611f0c565b610de781611e6e565b5080610df281611e6e565b600093849183835260696020526040832082198154169055168082526068602052604082206000198154019055610e53610e36846000526067602052604060002090565b805473ffffffffffffffffffffffffffffffffffffffff19169055565b7fddf252ad1be2c89b69c2b068fc378daa952ba7f163c4a11628f55a4df523b3ef82604051a4610e95610e90826000526097602052604060002090565b612a09565b610ea0575b50604051f35b610eb7610ebc916000526097602052604060002090565b612a13565b38610e9a565b50604036600319011261000e57600435610edb8161049e565b60243567ffffffffffffffff811161000e57610efb9036906004016106d0565b906001600160a01b0391827f00000000000000000000000000000000000000000000000000000000000000001692610f3584301415611b22565b610f647f360894a13ba1a3210667c828492db98dca3e2076cc3735a920a3ca505d382bbc948286541614611b83565b610f6c61212b565b7f4910fdfa16fed3260ed0e7147f7cc6da11a60208b5b9406d12a635614ffd91435460ff1615610fa25750506105959150611c71565b6020600491604094939451928380926352d1902d60e01b825286165afa6000918161103c575b506110295760405162461bcd60e51b815260206004820152602e60248201527f45524331393637557067726164653a206e657720696d706c656d656e7461746960448201526d6f6e206973206e6f74205555505360901b6064820152608490fd5b610595936110379114611c13565b611dcb565b61105591925060203d81116105f7576105e98183610683565b9038610fc8565b503461000e57600036600319011261000e576001600160a01b037f00000000000000000000000000000000000000000000000000000000000000001630036110c9576040517f360894a13ba1a3210667c828492db98dca3e2076cc3735a920a3ca505d382bbc8152602090f35b60405162461bcd60e51b815260206004820152603860248201527f555550535570677261646561626c653a206d757374206e6f742062652063616c60448201527f6c6564207468726f7567682064656c656761746563616c6c00000000000000006064820152608490fd5b503461000e57602036600319011261000e57602061048d600435611e6e565b503461000e57600036600319011261000e5761117660ff60005460081c166120b0565b610595612183565b503461000e57602036600319011261000e576001600160a01b036004356111a48161049e565b1680156111cd5760005260686020526103eb604060002054604051918291829190602083019252565b60405162461bcd60e51b815260206004820152602960248201527f4552433732313a2061646472657373207a65726f206973206e6f7420612076616044820152683634b21037bbb732b960b91b6064820152608490fd5b503461000e5760008060031936011261046b5761123f61212b565b60fb546001600160a01b0319811660fb55816001600160a01b0360405192167f8be0079c531659141344cd1fd0a4f28419497f9722a3daafe3b4186f6b6457e08284a3f35b503461000e57600036600319011261000e576000546112ba60ff8260081c161580928193611358575b8115611338575b506121d7565b806112cd600160ff196000541617600055565b61131f575b6112da612249565b6112e057005b6112f061ff001960005416600055565b604051600181527f7f26b83ff96e1f2b6a682f133852f6798a09c465da95921460cefb384740249890602090a1005b61133361010061ff00196000541617600055565b6112d2565b303b1591508161134a575b50386112b4565b6001915060ff161438611343565b600160ff82161091506112ad565b503461000e57600036600319011261000e5760206001600160a01b0360fb5416604051908152f35b503461000e5760008060031936011261046b5760405190806066546113b281611e90565b8085529160019180831690811561044a57506001146113db576103eb856103df81870382610683565b9250606683527f46501879b8ca8525e8c2fd519e2fbfcfa2ebea26501294aa02cbfcfb12e943545b82841061141e5750505081016020016103df826103eb6103cf565b80546020858701810191909152909301928101611403565b503461000e57602036600319011261000e576105956004356114578161049e565b61145f61212b565b6000806001600160a01b0360fb54166040519061147b8261064b565b601482527f6f776e65723a2025732073656e6465723a20257300000000000000000000000060208301526114ea60405180926114d060208301956307e763af60e51b8752606060248501526084840190610358565b90604483015233606483015203601f198101835282610683565b51906a636f6e736f6c652e6c6f675afa506001600160a01b0361019291166001600160a01b0319825416179055565b503461000e5760408060031936011261000e57600435906115398261049e565b6024356115446125c5565b926115666001600160a01b03948560fb541633149081156116ad575b506125e7565b82519361157285610622565b600085528116801561166a57938261166292816000976115ba6115b56115b16116679960005260676020526001600160a01b0360406000205416151590565b1590565b61269a565b6115e06115b56115b18460005260676020526001600160a01b0360406000205416151590565b6115fd836001600160a01b03166000526068602052604060002090565b600181540190556116378361161c846000526067602052604060002090565b906001600160a01b03166001600160a01b0319825416179055565b887fddf252ad1be2c89b69c2b068fc378daa952ba7f163c4a11628f55a4df523b3ef818a51a4612756565b612633565b51f35b6064845162461bcd60e51b815260206004820152602060248201527f4552433732313a206d696e7420746f20746865207a65726f20616464726573736044820152fd5b60ff915060206116d6913360005261012d82528760002082895194838680955193849201610323565b820190815203019020541638611560565b503461000e57604036600319011261000e576004356117058161049e565b60243561171181610cd5565b6001600160a01b0382169182331461179457816117516117629233600052606a6020526040600020906001600160a01b0316600052602052604060002090565b9060ff801983541691151516179055565b604051901515815233907f17307eab39ab6107e8899845ad3d59bd9653f200f220920489ca2b5937696c3190602090a3005b60405162461bcd60e51b815260206004820152601960248201527f4552433732313a20617070726f766520746f2063616c6c6572000000000000006044820152606490fd5b503461000e57608036600319011261000e576004356117f78161049e565b6024356118038161049e565b6064359167ffffffffffffffff831161000e576118276105959336906004016106d0565b9160443591612e23565b503461000e57600036600319011261000e5760206001600160a01b036101935416604051908152f35b503461000e57602036600319011261000e576103eb61187a6004356128a2565b604051918291602083526020830190610358565b503461000e5760208060031936011261000e57600435906118ad6125c5565b6118d06001600160a01b0391838360fb541633149182156119ad575b50506125e7565b6118f08360005260676020526001600160a01b0360406000205416151590565b6118f657005b829161190183611e6e565b50606861190d84611e6e565b9260009385855260698452604085206001600160a01b03198154169055169182845252604082206000198154019055611953610e36846000526067602052604060002090565b7fddf252ad1be2c89b69c2b068fc378daa952ba7f163c4a11628f55a4df523b3ef82604051a4611990610e90826000526097602052604060002090565b61199657005b610eb7610595916000526097602052604060002090565b60ff9250906119d7913360005261012d825260406000208260405194838680955193849201610323565b820190815203019020541683386118c9565b503461000e57604036600319011261000e57602060ff611a48600435611a0e8161049e565b6001600160a01b0360243591611a238361049e565b16600052606a84526040600020906001600160a01b0316600052602052604060002090565b54166040519015158152f35b503461000e57602036600319011261000e57600435611a728161049e565b611a7a61212b565b6001600160a01b03809116908115611ace5760009160fb5491816001600160a01b031984161760fb5560405192167f8be0079c531659141344cd1fd0a4f28419497f9722a3daafe3b4186f6b6457e08484a3f35b60405162461bcd60e51b815260206004820152602660248201527f4f776e61626c653a206e6577206f776e657220697320746865207a65726f206160448201526564647265737360d01b6064820152608490fd5b15611b2957565b60405162461bcd60e51b815260206004820152602c60248201527f46756e6374696f6e206d7573742062652063616c6c6564207468726f7567682060448201526b19195b1959d85d1958d85b1b60a21b6064820152608490fd5b15611b8a57565b60405162461bcd60e51b815260206004820152602c60248201527f46756e6374696f6e206d7573742062652063616c6c6564207468726f7567682060448201526b6163746976652070726f787960a01b6064820152608490fd5b60405190611bf182610622565b60008252565b9081602091031261000e575190565b506040513d6000823e3d90fd5b15611c1a57565b60405162461bcd60e51b815260206004820152602960248201527f45524331393637557067726164653a20756e737570706f727465642070726f786044820152681a58589b195555525160ba1b6064820152608490fd5b803b15611cb4576001600160a01b037f360894a13ba1a3210667c828492db98dca3e2076cc3735a920a3ca505d382bbc91166001600160a01b0319825416179055565b60405162461bcd60e51b815260206004820152602d60248201527f455243313936373a206e657720696d706c656d656e746174696f6e206973206e60448201526c1bdd08184818dbdb9d1c9858dd609a1b6064820152608490fd5b611d1881611c71565b604051906001600160a01b0381167fbc7cd75a20ee27fd9adebab32041f755214dbc6bffa90cc0225b39da2e5c2d3b600084a2825115801590611dc3575b611d5f57505050565b600080611dc094611d6f85610667565b602785527f416464726573733a206c6f772d6c6576656c2064656c65676174652063616c6c6020860152660819985a5b195960ca1b6040860152602081519101845af4611dba611fef565b9161201f565b50565b506000611d56565b611dd481611c71565b604051906001600160a01b0381167fbc7cd75a20ee27fd9adebab32041f755214dbc6bffa90cc0225b39da2e5c2d3b600084a2825115801590611e1a57611d5f57505050565b506001611d56565b15611e2957565b60405162461bcd60e51b815260206004820152601860248201527f4552433732313a20696e76616c696420746f6b656e20494400000000000000006044820152606490fd5b60005260676020526001600160a01b036040600020541661038e811515611e22565b90600182811c92168015611ec0575b6020831014611eaa57565b634e487b7160e01b600052602260045260246000fd5b91607f1691611e9f565b611ef2611eed8260005260676020526001600160a01b0360406000205416151590565b611e22565b60005260696020526001600160a01b036040600020541690565b15611f1357565b60405162461bcd60e51b815260206004820152602d60248201527f4552433732313a2063616c6c6572206973206e6f7420746f6b656e206f776e6560448201526c1c881bdc88185c1c1c9bdd9959609a1b6064820152608490fd5b6001600160a01b0380611f8084611e6e565b169281831692848414948515611fb6575b50508315611fa0575b50505090565b611fac91929350611eca565b1614388080611f9a565b60ff92955090611fe591600052606a6020526040600020906001600160a01b0316600052602052604060002090565b5416923880611f91565b3d1561201a573d90612000826106a5565b9161200e6040519384610683565b82523d6000602084013e565b606090565b919290156120815750815115612033575090565b3b1561203c5790565b60405162461bcd60e51b815260206004820152601d60248201527f416464726573733a2063616c6c20746f206e6f6e2d636f6e74726163740000006044820152606490fd5b8251909150156120945750805190602001fd5b60405162461bcd60e51b8152908190610c9e906004830161037d565b156120b757565b60405162461bcd60e51b815260206004820152602b60248201527f496e697469616c697a61626c653a20636f6e7472616374206973206e6f74206960448201526a6e697469616c697a696e6760a81b6064820152608490fd5b61212160ff60005460081c166120b0565b612129612183565b565b6001600160a01b0360fb5416330361213f57565b606460405162461bcd60e51b815260206004820152602060248201527f4f776e61626c653a2063616c6c6572206973206e6f7420746865206f776e65726044820152fd5b60fb546001600160a01b03737e8ae5c72eca86946b695dcc211863d9721a09619182821982161760fb55167f8be0079c531659141344cd1fd0a4f28419497f9722a3daafe3b4186f6b6457e06000604051a3565b156121de57565b60405162461bcd60e51b815260206004820152602e60248201527f496e697469616c697a61626c653a20636f6e747261637420697320616c72656160448201527f647920696e697469616c697a65640000000000000000000000000000000000006064820152608490fd5b6040516122558161064b565b6016815260207f506572694669204c6f616e205472757374204465656400000000000000000000818301526040519061228d8261064b565b600382526214151160ea1b818301526122b660ff60005460081c166122b1816120b0565b6120b0565b82519067ffffffffffffffff82116123b8575b6122dd826122d8606554611e90565b6123dc565b80601f8311600114612325575081906123129460009261231a575b50508160011b916000199060031b1c1916176065556124cd565b612129612110565b0151905038806122f8565b919293601f19841661235960656000527f8ff97419363ffd7000167f130ef7168fbea05faf9251824ca5043f113cc6a7c790565b936000905b8282106123a057505091600193918561231297969410612387575b505050811b016065556124cd565b015160001960f88460031b161c19169055388080612379565b8060018697829497870151815501960194019061235e565b6123c061060b565b6122c9565b8181106123d0575050565b600081556001016123c5565b90601f82116123e9575050565b6121299160656000527f8ff97419363ffd7000167f130ef7168fbea05faf9251824ca5043f113cc6a7c7906020601f840160051c83019310612433575b601f0160051c01906123c5565b9091508190612426565b90601f821161244a575050565b6121299160666000527f46501879b8ca8525e8c2fd519e2fbfcfa2ebea26501294aa02cbfcfb12e94354906020601f840160051c8301931061243357601f0160051c01906123c5565b9190601f81116124a257505050565b612129926000526020600020906020601f840160051c8301931061243357601f0160051c01906123c5565b90815167ffffffffffffffff81116125b8575b6124f4816124ef606654611e90565b61243d565b602080601f83116001146125305750819293600092612525575b50508160011b916000199060031b1c191617606655565b01519050388061250e565b90601f1983169461256360666000527f46501879b8ca8525e8c2fd519e2fbfcfa2ebea26501294aa02cbfcfb12e9435490565b926000905b8782106125a0575050836001959610612587575b505050811b01606655565b015160001960f88460031b161c1916905538808061257c565b80600185968294968601518155019501930190612568565b6125c061060b565b6124e0565b604051906125d28261064b565b600682526536b4b73a32b960d11b6020830152565b156125ee57565b60405162461bcd60e51b815260206004820152600e60248201527f4e6f7420617574686f72697a65640000000000000000000000000000000000006044820152606490fd5b1561263a57565b60405162461bcd60e51b815260206004820152603260248201527f4552433732313a207472616e7366657220746f206e6f6e20455243373231526560448201527131b2b4bb32b91034b6b83632b6b2b73a32b960711b6064820152608490fd5b156126a157565b60405162461bcd60e51b815260206004820152601c60248201527f4552433732313a20746f6b656e20616c7265616479206d696e746564000000006044820152606490fd5b9081602091031261000e575161038e81610288565b61038e93926001600160a01b036080931682526000602083015260408201528160608201520190610358565b909261038e94936080936001600160a01b03809216845216602083015260408201528160608201520190610358565b909190803b15612856576127906020916001600160a01b03936000604051958680958194630a85bd0160e11b9a8b845233600485016126fb565b0393165af160009181612826575b50612818576127ab611fef565b805190816128135760405162461bcd60e51b815260206004820152603260248201527f4552433732313a207472616e7366657220746f206e6f6e20455243373231526560448201527131b2b4bb32b91034b6b83632b6b2b73a32b960711b6064820152608490fd5b602001fd5b6001600160e01b0319161490565b61284891925060203d811161284f575b6128408183610683565b8101906126e6565b903861279e565b503d612836565b505050600190565b92909190823b15612899576127909260209260006001600160a01b03604051809781968295630a85bd0160e11b9b8c85523360048601612727565b50505050600190565b6128c5611eed8260005260676020526001600160a01b0360406000205416151590565b60009080825260206097815260408320604051848195908354906128e882611e90565b808552946001928084169081156129a45750600114612968575b50505061291192500384610683565b612919611be4565b9283511561296157805161293357505061038e91506129c4565b61038e92506129539061294d604051958694850190610928565b90610928565b03601f198101835282610683565b9250505090565b869350819291528282205b85831061298c5750506129119350820101388080612902565b8054838a018501528894508693909201918101612973565b965050505050505060ff1916818401526129118360408101388080612902565b611eed6129e79160005260676020526001600160a01b0360406000205416151590565b60006040516129f581610622565b52604051612a0281610622565b6000815290565b61038e9054611e90565b612a1d8154611e90565b9081612a27575050565b81601f60009311600114612a39575055565b81835260208320612a5591601f0160051c8101906001016123c5565b8160208120915555565b9081602091031261000e575161038e81610cd5565b15612a7b57565b60405162461bcd60e51b815260206004820152600f60248201527f4c6f616e206973206f76657264756500000000000000000000000000000000006044820152606490fd5b15612ac757565b60405162461bcd60e51b815260206004820152603d60248201527f4552433732313a20617070726f76652063616c6c6572206973206e6f7420746f60448201527f6b656e206f776e6572206f7220617070726f76656420666f7220616c6c0000006064820152608490fd5b906001600160a01b039182612b4683611e6e565b168093821614612ba357826121299333148015612b6d575b612b689150612ac0565b612bf2565b50600052606a602052612b6860ff612b9c336040600020906001600160a01b0316600052602052604060002090565b5416612b5e565b60405162461bcd60e51b815260206004820152602160248201527f4552433732313a20617070726f76616c20746f2063757272656e74206f776e656044820152603960f91b6064820152608490fd5b6000828152606960205260409020805473ffffffffffffffffffffffffffffffffffffffff19166001600160a01b0383161790556001600160a01b0380612c3884611e6e565b169116907f8c5be1e5ebec7d5bd14f71427d1e84f3dd0314c0f7b2291e5b200ac8c7c3b9256000604051a4565b906121299291612c78610dd98433611f6e565b612cd7565b15612c8457565b60405162461bcd60e51b815260206004820152602560248201527f4552433732313a207472616e736665722066726f6d20696e636f72726563742060448201526437bbb732b960d91b6064820152608490fd5b612cfb90612ce484611e6e565b6001600160a01b0382811693909182168414612c7d565b8316928315612dba57612d51612d9192612d2185612d1b6104ed8a611e6e565b14612c7d565b612d38610e36886000526069602052604060002090565b6001600160a01b03166000526068602052604060002090565b6000198154019055612d76816001600160a01b03166000526068602052604060002090565b6001815401905561161c856000526067602052604060002090565b7fddf252ad1be2c89b69c2b068fc378daa952ba7f163c4a11628f55a4df523b3ef6000604051a4565b60405162461bcd60e51b8152602060048201526024808201527f4552433732313a207472616e7366657220746f20746865207a65726f206164646044820152637265737360e01b6064820152608490fd5b90916121299260405192612e1e84610622565b600084525b90612129939291612e43610a276104ed610193546001600160a01b031690565b91612129939161166293612e5a610dd98433611f6e565b612e65838383612cd7565b61285e56fea26469706673582212204e4ead6887969100dfa601f5f1a7cd9f2735920935f845001a8ff7eb124f089a64736f6c634300080e0033",
  "devdoc": {
    "kind": "dev",
    "methods": {
      "balanceOf(address)": {
        "details": "See {IERC721-balanceOf}."
      },
      "burn(uint256)": {
        "details": "Burns `tokenId`. See {ERC721-_burn}. Requirements: - The caller must own `tokenId` or be an approved operator."
      },
      "getApproved(uint256)": {
        "details": "See {IERC721-getApproved}."
      },
      "isApprovedForAll(address,address)": {
        "details": "See {IERC721-isApprovedForAll}."
      },
      "name()": {
        "details": "See {IERC721Metadata-name}."
      },
      "owner()": {
        "details": "Returns the address of the current owner."
      },
      "ownerOf(uint256)": {
        "details": "See {IERC721-ownerOf}."
      },
      "proxiableUUID()": {
        "details": "Implementation of the ERC1822 {proxiableUUID} function. This returns the storage slot used by the implementation. It is used to validate the implementation's compatibility when performing an upgrade. IMPORTANT: A proxy pointing at a proxiable contract should not be considered proxiable itself, because this risks bricking a proxy that upgrades to it, by delegating to itself until out of gas. Thus it is critical that this function revert if invoked through a proxy. This is guaranteed by the `notDelegated` modifier."
      },
      "renounceOwnership()": {
        "details": "Leaves the contract without owner. It will not be possible to call `onlyOwner` functions anymore. Can only be called by the current owner. NOTE: Renouncing ownership will leave the contract without an owner, thereby removing any functionality that is only available to the owner."
      },
      "setApprovalForAll(address,bool)": {
        "details": "See {IERC721-setApprovalForAll}."
      },
      "symbol()": {
        "details": "See {IERC721Metadata-symbol}."
      },
      "transferOwnership(address)": {
        "details": "Transfers ownership of the contract to a new account (`newOwner`). Can only be called by the current owner."
      },
      "upgradeTo(address)": {
        "custom:oz-upgrades-unsafe-allow-reachable": "delegatecall",
        "details": "Upgrade the implementation of the proxy to `newImplementation`. Calls {_authorizeUpgrade}. Emits an {Upgraded} event."
      },
      "upgradeToAndCall(address,bytes)": {
        "custom:oz-upgrades-unsafe-allow-reachable": "delegatecall",
        "details": "Upgrade the implementation of the proxy to `newImplementation`, and subsequently execute the function call encoded in `data`. Calls {_authorizeUpgrade}. Emits an {Upgraded} event."
      }
    },
    "version": 1
  },
  "userdoc": {
    "kind": "user",
    "methods": {},
    "version": 1
  },
  "storageLayout": {
    "storage": [
      {
        "astId": 687,
        "contract": "contracts/loan/TrustDeed.sol:TrustDeed",
        "label": "_initialized",
        "offset": 0,
        "slot": "0",
        "type": "t_uint8"
      },
      {
        "astId": 690,
        "contract": "contracts/loan/TrustDeed.sol:TrustDeed",
        "label": "_initializing",
        "offset": 1,
        "slot": "0",
        "type": "t_bool"
      },
      {
        "astId": 4108,
        "contract": "contracts/loan/TrustDeed.sol:TrustDeed",
        "label": "__gap",
        "offset": 0,
        "slot": "1",
        "type": "t_array(t_uint256)50_storage"
      },
      {
        "astId": 5020,
        "contract": "contracts/loan/TrustDeed.sol:TrustDeed",
        "label": "__gap",
        "offset": 0,
        "slot": "51",
        "type": "t_array(t_uint256)50_storage"
      },
      {
        "astId": 2010,
        "contract": "contracts/loan/TrustDeed.sol:TrustDeed",
        "label": "_name",
        "offset": 0,
        "slot": "101",
        "type": "t_string_storage"
      },
      {
        "astId": 2012,
        "contract": "contracts/loan/TrustDeed.sol:TrustDeed",
        "label": "_symbol",
        "offset": 0,
        "slot": "102",
        "type": "t_string_storage"
      },
      {
        "astId": 2016,
        "contract": "contracts/loan/TrustDeed.sol:TrustDeed",
        "label": "_owners",
        "offset": 0,
        "slot": "103",
        "type": "t_mapping(t_uint256,t_address)"
      },
      {
        "astId": 2020,
        "contract": "contracts/loan/TrustDeed.sol:TrustDeed",
        "label": "_balances",
        "offset": 0,
        "slot": "104",
        "type": "t_mapping(t_address,t_uint256)"
      },
      {
        "astId": 2024,
        "contract": "contracts/loan/TrustDeed.sol:TrustDeed",
        "label": "_tokenApprovals",
        "offset": 0,
        "slot": "105",
        "type": "t_mapping(t_uint256,t_address)"
      },
      {
        "astId": 2030,
        "contract": "contracts/loan/TrustDeed.sol:TrustDeed",
        "label": "_operatorApprovals",
        "offset": 0,
        "slot": "106",
        "type": "t_mapping(t_address,t_mapping(t_address,t_bool))"
      },
      {
        "astId": 2932,
        "contract": "contracts/loan/TrustDeed.sol:TrustDeed",
        "label": "__gap",
        "offset": 0,
        "slot": "107",
        "type": "t_array(t_uint256)44_storage"
      },
      {
        "astId": 3513,
        "contract": "contracts/loan/TrustDeed.sol:TrustDeed",
        "label": "_tokenURIs",
        "offset": 0,
        "slot": "151",
        "type": "t_mapping(t_uint256,t_string_storage)"
      },
      {
        "astId": 3669,
        "contract": "contracts/loan/TrustDeed.sol:TrustDeed",
        "label": "__gap",
        "offset": 0,
        "slot": "152",
        "type": "t_array(t_uint256)49_storage"
      },
      {
        "astId": 3117,
        "contract": "contracts/loan/TrustDeed.sol:TrustDeed",
        "label": "__gap",
        "offset": 0,
        "slot": "201",
        "type": "t_array(t_uint256)50_storage"
      },
      {
        "astId": 13012,
        "contract": "contracts/loan/TrustDeed.sol:TrustDeed",
        "label": "_owner",
        "offset": 0,
        "slot": "251",
        "type": "t_address"
      },
      {
        "astId": 13132,
        "contract": "contracts/loan/TrustDeed.sol:TrustDeed",
        "label": "__gap",
        "offset": 0,
        "slot": "252",
        "type": "t_array(t_uint256)49_storage"
      },
      {
        "astId": 13144,
        "contract": "contracts/loan/TrustDeed.sol:TrustDeed",
        "label": "hasRole",
        "offset": 0,
        "slot": "301",
        "type": "t_mapping(t_address,t_mapping(t_string_memory_ptr,t_bool))"
      },
      {
        "astId": 669,
        "contract": "contracts/loan/TrustDeed.sol:TrustDeed",
        "label": "__gap",
        "offset": 0,
        "slot": "302",
        "type": "t_array(t_uint256)50_storage"
      },
      {
        "astId": 985,
        "contract": "contracts/loan/TrustDeed.sol:TrustDeed",
        "label": "__gap",
        "offset": 0,
        "slot": "352",
        "type": "t_array(t_uint256)50_storage"
      },
      {
        "astId": 28402,
        "contract": "contracts/loan/TrustDeed.sol:TrustDeed",
        "label": "periFiLoanAddr",
        "offset": 0,
        "slot": "402",
        "type": "t_address_payable"
      },
      {
        "astId": 28404,
        "contract": "contracts/loan/TrustDeed.sol:TrustDeed",
        "label": "periFiAdminAddr",
        "offset": 0,
        "slot": "403",
        "type": "t_address"
      }
    ],
    "types": {
      "t_address": {
        "encoding": "inplace",
        "label": "address",
        "numberOfBytes": "20"
      },
      "t_address_payable": {
        "encoding": "inplace",
        "label": "address payable",
        "numberOfBytes": "20"
      },
      "t_array(t_uint256)44_storage": {
        "base": "t_uint256",
        "encoding": "inplace",
        "label": "uint256[44]",
        "numberOfBytes": "1408"
      },
      "t_array(t_uint256)49_storage": {
        "base": "t_uint256",
        "encoding": "inplace",
        "label": "uint256[49]",
        "numberOfBytes": "1568"
      },
      "t_array(t_uint256)50_storage": {
        "base": "t_uint256",
        "encoding": "inplace",
        "label": "uint256[50]",
        "numberOfBytes": "1600"
      },
      "t_bool": {
        "encoding": "inplace",
        "label": "bool",
        "numberOfBytes": "1"
      },
      "t_mapping(t_address,t_bool)": {
        "encoding": "mapping",
        "key": "t_address",
        "label": "mapping(address => bool)",
        "numberOfBytes": "32",
        "value": "t_bool"
      },
      "t_mapping(t_address,t_mapping(t_address,t_bool))": {
        "encoding": "mapping",
        "key": "t_address",
        "label": "mapping(address => mapping(address => bool))",
        "numberOfBytes": "32",
        "value": "t_mapping(t_address,t_bool)"
      },
      "t_mapping(t_address,t_mapping(t_string_memory_ptr,t_bool))": {
        "encoding": "mapping",
        "key": "t_address",
        "label": "mapping(address => mapping(string => bool))",
        "numberOfBytes": "32",
        "value": "t_mapping(t_string_memory_ptr,t_bool)"
      },
      "t_mapping(t_address,t_uint256)": {
        "encoding": "mapping",
        "key": "t_address",
        "label": "mapping(address => uint256)",
        "numberOfBytes": "32",
        "value": "t_uint256"
      },
      "t_mapping(t_string_memory_ptr,t_bool)": {
        "encoding": "mapping",
        "key": "t_string_memory_ptr",
        "label": "mapping(string => bool)",
        "numberOfBytes": "32",
        "value": "t_bool"
      },
      "t_mapping(t_uint256,t_address)": {
        "encoding": "mapping",
        "key": "t_uint256",
        "label": "mapping(uint256 => address)",
        "numberOfBytes": "32",
        "value": "t_address"
      },
      "t_mapping(t_uint256,t_string_storage)": {
        "encoding": "mapping",
        "key": "t_uint256",
        "label": "mapping(uint256 => string)",
        "numberOfBytes": "32",
        "value": "t_string_storage"
      },
      "t_string_memory_ptr": {
        "encoding": "bytes",
        "label": "string",
        "numberOfBytes": "32"
      },
      "t_string_storage": {
        "encoding": "bytes",
        "label": "string",
        "numberOfBytes": "32"
      },
      "t_uint256": {
        "encoding": "inplace",
        "label": "uint256",
        "numberOfBytes": "32"
      },
      "t_uint8": {
        "encoding": "inplace",
        "label": "uint8",
        "numberOfBytes": "1"
      }
    }
  }
}