{
  "address": "0xd32976bc7E192F1e2a6283d9da961dFc50439ba3",
  "abi": [
    {
      "anonymous": false,
      "inputs": [
        {
          "indexed": false,
          "internalType": "address",
          "name": "previousAdmin",
          "type": "address"
        },
        {
          "indexed": false,
          "internalType": "address",
          "name": "newAdmin",
          "type": "address"
        }
      ],
      "name": "AdminChanged",
      "type": "event"
    },
    {
      "anonymous": false,
      "inputs": [
        {
          "indexed": true,
          "internalType": "address",
          "name": "beacon",
          "type": "address"
        }
      ],
      "name": "BeaconUpgraded",
      "type": "event"
    },
    {
      "anonymous": false,
      "inputs": [
        {
          "indexed": false,
          "internalType": "uint256",
          "name": "targetChainId",
          "type": "uint256"
        },
        {
          "indexed": false,
          "internalType": "address",
          "name": "sender",
          "type": "address"
        },
        {
          "indexed": false,
          "internalType": "address",
          "name": "recipient",
          "type": "address"
        },
        {
          "indexed": false,
          "internalType": "uint8",
          "name": "cardLevel",
          "type": "uint8"
        },
        {
          "indexed": false,
          "internalType": "uint256",
          "name": "tokenId",
          "type": "uint256"
        },
        {
          "indexed": false,
          "internalType": "bool",
          "name": "revealed",
          "type": "bool"
        },
        {
          "indexed": false,
          "internalType": "string",
          "name": "tokenHash",
          "type": "string"
        },
        {
          "indexed": false,
          "internalType": "uint256",
          "name": "nonce",
          "type": "uint256"
        },
        {
          "indexed": false,
          "internalType": "uint48",
          "name": "enteredAt",
          "type": "uint48"
        }
      ],
      "name": "EnterBridge",
      "type": "event"
    },
    {
      "anonymous": false,
      "inputs": [
        {
          "indexed": false,
          "internalType": "uint8",
          "name": "version",
          "type": "uint8"
        }
      ],
      "name": "Initialized",
      "type": "event"
    },
    {
      "anonymous": false,
      "inputs": [
        {
          "indexed": false,
          "internalType": "uint256",
          "name": "nonce",
          "type": "uint256"
        },
        {
          "indexed": false,
          "internalType": "uint256",
          "name": "sourceChainId",
          "type": "uint256"
        },
        {
          "indexed": false,
          "internalType": "uint48",
          "name": "leftAt",
          "type": "uint48"
        }
      ],
      "name": "LeaveBridge",
      "type": "event"
    },
    {
      "anonymous": false,
      "inputs": [
        {
          "indexed": true,
          "internalType": "address",
          "name": "previousOwner",
          "type": "address"
        },
        {
          "indexed": true,
          "internalType": "address",
          "name": "newOwner",
          "type": "address"
        }
      ],
      "name": "OwnershipTransferred",
      "type": "event"
    },
    {
      "anonymous": false,
      "inputs": [
        {
          "indexed": true,
          "internalType": "address",
          "name": "implementation",
          "type": "address"
        }
      ],
      "name": "Upgraded",
      "type": "event"
    },
    {
      "inputs": [],
      "name": "__MWOwnable_init",
      "outputs": [],
      "stateMutability": "nonpayable",
      "type": "function"
    },
    {
      "inputs": [
        {
          "internalType": "uint256",
          "name": "_targetChainId",
          "type": "uint256"
        },
        {
          "internalType": "address",
          "name": "_recipient",
          "type": "address"
        },
        {
          "internalType": "uint8",
          "name": "_cardLevel",
          "type": "uint8"
        },
        {
          "internalType": "uint256",
          "name": "_tokenId",
          "type": "uint256"
        }
      ],
      "name": "enterBridge",
      "outputs": [],
      "stateMutability": "nonpayable",
      "type": "function"
    },
    {
      "inputs": [
        {
          "internalType": "contract PERIv2[]",
          "name": "_vpcs",
          "type": "address[]"
        },
        {
          "internalType": "contract IERC20[]",
          "name": "_tickets",
          "type": "address[]"
        },
        {
          "internalType": "uint256[]",
          "name": "_supportedChainIds",
          "type": "uint256[]"
        },
        {
          "internalType": "contract Vault",
          "name": "_curationRewardPool",
          "type": "address"
        },
        {
          "internalType": "contract NEND",
          "name": "_nend",
          "type": "address"
        }
      ],
      "name": "initialize",
      "outputs": [],
      "stateMutability": "nonpayable",
      "type": "function"
    },
    {
      "inputs": [
        {
          "internalType": "uint256",
          "name": "_sourceChainId",
          "type": "uint256"
        },
        {
          "internalType": "address",
          "name": "_recipient",
          "type": "address"
        },
        {
          "internalType": "uint8",
          "name": "_cardLevel",
          "type": "uint8"
        },
        {
          "internalType": "uint256",
          "name": "_tokenId",
          "type": "uint256"
        },
        {
          "internalType": "bool",
          "name": "_revealed",
          "type": "bool"
        },
        {
          "internalType": "string",
          "name": "_tokenHash",
          "type": "string"
        },
        {
          "internalType": "uint256",
          "name": "_nonce",
          "type": "uint256"
        },
        {
          "internalType": "bytes",
          "name": "_signature",
          "type": "bytes"
        }
      ],
      "name": "leaveBridge",
      "outputs": [],
      "stateMutability": "nonpayable",
      "type": "function"
    },
    {
      "inputs": [],
      "name": "owner",
      "outputs": [
        {
          "internalType": "address",
          "name": "",
          "type": "address"
        }
      ],
      "stateMutability": "view",
      "type": "function"
    },
    {
      "inputs": [],
      "name": "proxiableUUID",
      "outputs": [
        {
          "internalType": "bytes32",
          "name": "",
          "type": "bytes32"
        }
      ],
      "stateMutability": "view",
      "type": "function"
    },
    {
      "inputs": [],
      "name": "renounceOwnership",
      "outputs": [],
      "stateMutability": "nonpayable",
      "type": "function"
    },
    {
      "inputs": [
        {
          "internalType": "uint256",
          "name": "",
          "type": "uint256"
        }
      ],
      "name": "supportedChainIds",
      "outputs": [
        {
          "internalType": "uint256",
          "name": "",
          "type": "uint256"
        }
      ],
      "stateMutability": "view",
      "type": "function"
    },
    {
      "inputs": [
        {
          "internalType": "address",
          "name": "newOwner",
          "type": "address"
        }
      ],
      "name": "transferOwnership",
      "outputs": [],
      "stateMutability": "nonpayable",
      "type": "function"
    },
    {
      "inputs": [
        {
          "internalType": "address",
          "name": "newImplementation",
          "type": "address"
        }
      ],
      "name": "upgradeTo",
      "outputs": [],
      "stateMutability": "nonpayable",
      "type": "function"
    },
    {
      "inputs": [
        {
          "internalType": "address",
          "name": "newImplementation",
          "type": "address"
        },
        {
          "internalType": "bytes",
          "name": "data",
          "type": "bytes"
        }
      ],
      "name": "upgradeToAndCall",
      "outputs": [],
      "stateMutability": "payable",
      "type": "function"
    },
    {
      "inputs": [
        {
          "internalType": "uint256",
          "name": "",
          "type": "uint256"
        }
      ],
      "name": "vpcs",
      "outputs": [
        {
          "internalType": "contract PERIv2",
          "name": "",
          "type": "address"
        }
      ],
      "stateMutability": "view",
      "type": "function"
    }
  ],
  "transactionHash": "0xa1ad16f8249082acab4db83669228b4ad8ce0a6c901ff7cc31c5eda5481182f0",
  "args": [],
  "numDeployments": 1,
  "solcInputHash": "2b691191bd6bf894805fd6522b0009a2",
  "bytecode": "0x60a06040523462000118576000546200003260ff8260081c16158092819362000109575b8115620000e6575b506200011d565b8062000046600160ff196000541617600055565b620000cb575b6200005662000181565b62000087575b306080526040516126ef9081620001fb8239608051818181610529015281816109550152610ad00152f35b6200009861ff001960005416600055565b604051600181527f7f26b83ff96e1f2b6a682f133852f6798a09c465da95921460cefb384740249890602090a16200005c565b620000e061010061ff00196000541617600055565b6200004c565b303b15915081620000fa575b50386200002b565b6001915060ff161438620000f2565b600160ff821610915062000023565b600080fd5b156200012557565b60405162461bcd60e51b815260206004820152602e60248201527f496e697469616c697a61626c653a20636f6e747261637420697320616c72656160448201526d191e481a5b9a5d1a585b1a5e995960921b6064820152608490fd5b6000805462010000600160b01b03198116757e8ae5c72eca86946b695dcc211863d9721a09610000178255604051737e8ae5c72eca86946b695dcc211863d9721a09619260109290921c6001600160a01b0316917f8be0079c531659141344cd1fd0a4f28419497f9722a3daafe3b4186f6b6457e091a356fe60806040526004361015610013575b600080fd5b60003560e01c80632df9f3f7146101035780633659cfe6146100fa5780634a3f2be0146100f15780634cf2ab32146100e85780634f1ef286146100df57806352d1902d146100d65780635cf568cd146100cd57806365b014b7146100c4578063715018a6146100bb5780638da5cb5b146100b2578063f2fde38b146100a95763ffc0850f146100a157600080fd5b61000e610ee0565b5061000e610cf9565b5061000e610cce565b5061000e610c68565b5061000e610be7565b5061000e610b8c565b5061000e610ab4565b5061000e61090f565b5061000e6108bd565b5061000e6107cc565b5061000e6104ff565b5061000e61012d565b6001600160a01b0381160361000e57565b6044359060ff8216820361000e57565b503461000e57608036600319011261000e5760243561014b8161010c565b61015361011d565b906064359161017160ff8216600181101590816104f3575b50611b28565b6101a761019b61018861018384611b74565b610878565b90546001600160a01b039160031b1c1690565b6001600160a01b031690565b906040928351926331a9108f60e11b84526020936101fb6004918681806101d58c8783019190602083019252565b0381875afa9081156104e6575b6000916104b9575b506001600160a01b03163314611ba9565b61021061019b6097546001600160a01b031690565b61022561019b6098546001600160a01b031690565b875163c002d23d60e01b815287818581885afa9081156104ac575b60009161047f575b50823b1561000e5761028892600092838b51809681958294632770a7eb60e21b84528a8401602090939291936001600160a01b0360408201951681520152565b03925af18015610472575b61045f575b50813b1561000e5785516323b872dd60e01b815233828201908152306020820152604081018990526000987f7fcd41b856b58df3f891055d587c8102c43582176268717046e94415617fcdf8976103ba95919390928b9082908190606001038183865af18015610452575b610439575b508851632084ab8360e01b81528481018481528390829081906020010381855afa92831561042c575b8b936103fd575b5050898951809263c87b56dd60e01b8252818061035c888a83019190602083019252565b03915afa9081156103f0575b8a916103cf575b50818a146103c0578061038561038b9251611c54565b9061259d565b905b609a54926103a261039d85611c88565b609a55565b895197889765ffffffffffff4216963390358a611c98565b0390a151f35b506103c9611079565b9061038d565b6103ea913d8091833e6103e2818361072a565b810190611bf5565b3861036f565b6103f861109b565b610368565b61041d929350803d10610425575b610415818361072a565b81019061174a565b903880610338565b503d61040b565b61043461109b565b610331565b8061044661044c926106b5565b80610aa9565b38610308565b61045a61109b565b610303565b8061044661046c926106b5565b38610298565b61047a61109b565b610293565b61049f9150883d8a116104a5575b610497818361072a565b81019061108c565b38610248565b503d61048d565b6104b461109b565b610240565b6104d99150873d89116104df575b6104d1818361072a565b810190611b94565b386101ea565b503d6104c7565b6104ee61109b565b6101e2565b6004915011153861016b565b503461000e57602036600319011261000e5760043561051d8161010c565b6001600160a01b0390817f0000000000000000000000000000000000000000000000000000000000000000169161055683301415610fb7565b6105857f360894a13ba1a3210667c828492db98dca3e2076cc3735a920a3ca505d382bbc938285541614611018565b61058d61147f565b6040519061059a826106d6565b600082527f4910fdfa16fed3260ed0e7147f7cc6da11a60208b5b9406d12a635614ffd91435460ff16156105d65750506105d49150611106565b005b6020600491604094939451928380926352d1902d60e01b825286165afa60009181610674575b506106615760405162461bcd60e51b815260206004820152602e60248201527f45524331393637557067726164653a206e657720696d706c656d656e7461746960448201526d6f6e206973206e6f74205555505360901b6064820152608490fd5b0390fd5b6105d49361066f91146110a8565b611288565b61068d91925060203d81116104a557610497818361072a565b90386105fc565b8015150361000e57565b50634e487b7160e01b600052604160045260246000fd5b67ffffffffffffffff81116106c957604052565b6106d161069e565b604052565b6020810190811067ffffffffffffffff8211176106c957604052565b6060810190811067ffffffffffffffff8211176106c957604052565b6040810190811067ffffffffffffffff8211176106c957604052565b90601f8019910116810190811067ffffffffffffffff8211176106c957604052565b60209067ffffffffffffffff811161076a575b601f01601f19160190565b61077261069e565b61075f565b9291926107838261074c565b91610791604051938461072a565b82948184528183011161000e578281602093846000960137010152565b9080601f8301121561000e578160206107c993359101610777565b90565b503461000e5761010036600319011261000e576024356107eb8161010c565b6107f361011d565b906084359161080183610694565b67ffffffffffffffff9260a43584811161000e573660238201121561000e57610834903690602481600401359101610777565b9060e43594851161000e576108506105d49536906004016107ae565b9360c4359360643591600435611cf9565b50634e487b7160e01b600052603260045260246000fd5b6096548110156108b0575b60966000527f6aa7ec8ac2a999a90ce6c78668dffe4e487e2576a97ca366ec81ecb335af90d00190600090565b6108b8610861565b610883565b503461000e57602036600319011261000e57600435609b5481101561000e57602090609b6000527fbba9db4cdbea0a37c207bbb83e20f828cd4441c49891101dc94fd20dc8efc3490154604051908152f35b50604036600319011261000e576004356109288161010c565b60243567ffffffffffffffff811161000e576109489036906004016107ae565b906001600160a01b0391827f0000000000000000000000000000000000000000000000000000000000000000169261098284301415610fb7565b6109b17f360894a13ba1a3210667c828492db98dca3e2076cc3735a920a3ca505d382bbc948286541614611018565b6109b961147f565b7f4910fdfa16fed3260ed0e7147f7cc6da11a60208b5b9406d12a635614ffd91435460ff16156109ef5750506105d49150611106565b6020600491604094939451928380926352d1902d60e01b825286165afa60009181610a89575b50610a765760405162461bcd60e51b815260206004820152602e60248201527f45524331393637557067726164653a206e657720696d706c656d656e7461746960448201526d6f6e206973206e6f74205555505360901b6064820152608490fd5b6105d493610a8491146110a8565b6111a4565b610aa291925060203d81116104a557610497818361072a565b9038610a15565b600091031261000e57565b503461000e57600036600319011261000e576001600160a01b037f0000000000000000000000000000000000000000000000000000000000000000163003610b21576040517f360894a13ba1a3210667c828492db98dca3e2076cc3735a920a3ca505d382bbc8152602090f35b60405162461bcd60e51b815260206004820152603860248201527f555550535570677261646561626c653a206d757374206e6f742062652063616c60448201527f6c6564207468726f7567682064656c656761746563616c6c00000000000000006064820152608490fd5b503461000e57602036600319011261000e5760043560965481101561000e576001600160a01b0360209160966000527f6aa7ec8ac2a999a90ce6c78668dffe4e487e2576a97ca366ec81ecb335af90d0015416604051908152f35b503461000e57600036600319011261000e5760ff60005460081c1615610c0f576105d46114da565b60405162461bcd60e51b815260206004820152602b60248201527f496e697469616c697a61626c653a20636f6e7472616374206973206e6f74206960448201526a6e697469616c697a696e6760a81b6064820152608490fd5b503461000e57600080600319360112610ccb57610c8361147f565b805462010000600160b01b031981168255816001600160a01b036040519260101c167f8be0079c531659141344cd1fd0a4f28419497f9722a3daafe3b4186f6b6457e08284a3f35b80fd5b503461000e57600036600319011261000e5760206001600160a01b0360005460101c16604051908152f35b503461000e57602036600319011261000e57600435610d178161010c565b610d1f61147f565b6001600160a01b03908181168015610d835760009262010000600160b01b0384549360101b1662010000600160b01b031984161784556040519260101c167f8be0079c531659141344cd1fd0a4f28419497f9722a3daafe3b4186f6b6457e08484a3f35b60405162461bcd60e51b815260206004820152602660248201527f4f776e61626c653a206e6577206f776e657220697320746865207a65726f206160448201526564647265737360d01b6064820152608490fd5b60209067ffffffffffffffff8111610df1575b60051b0190565b610df961069e565b610dea565b81601f8201121561000e57803591610e1583610dd7565b92610e23604051948561072a565b808452602092838086019260051b82010192831161000e578301905b828210610e4d575050505090565b8380918335610e5b8161010c565b815201910190610e3f565b81601f8201121561000e57803591610e7d83610dd7565b92610e8b604051948561072a565b808452602092838086019260051b82010192831161000e578301905b828210610eb5575050505090565b81358152908301908301610ea7565b60643590610ed18261010c565b565b60843590610ed18261010c565b503461000e5760a036600319011261000e5767ffffffffffffffff60043581811161000e573660238201121561000e578060040135610f1e81610dd7565b91610f2c604051938461072a565b81835260209160248385019160051b8301019136831161000e57602401905b828210610f9e57858560243582811161000e57610f6c903690600401610dfe565b60443592831161000e57610f876105d4933690600401610e66565b610f8f610ec4565b91610f98610ed3565b9361154f565b8380918335610fac8161010c565b815201910190610f4b565b15610fbe57565b60405162461bcd60e51b815260206004820152602c60248201527f46756e6374696f6e206d7573742062652063616c6c6564207468726f7567682060448201526b19195b1959d85d1958d85b1b60a21b6064820152608490fd5b1561101f57565b60405162461bcd60e51b815260206004820152602c60248201527f46756e6374696f6e206d7573742062652063616c6c6564207468726f7567682060448201526b6163746976652070726f787960a01b6064820152608490fd5b60405190611086826106d6565b60008252565b9081602091031261000e575190565b506040513d6000823e3d90fd5b156110af57565b60405162461bcd60e51b815260206004820152602960248201527f45524331393637557067726164653a20756e737570706f727465642070726f786044820152681a58589b195555525160ba1b6064820152608490fd5b803b15611149576001600160a01b037f360894a13ba1a3210667c828492db98dca3e2076cc3735a920a3ca505d382bbc91166001600160a01b0319825416179055565b60405162461bcd60e51b815260206004820152602d60248201527f455243313936373a206e657720696d706c656d656e746174696f6e206973206e60448201526c1bdd08184818dbdb9d1c9858dd609a1b6064820152608490fd5b6111ad81611106565b604051906001600160a01b0381167fbc7cd75a20ee27fd9adebab32041f755214dbc6bffa90cc0225b39da2e5c2d3b600084a2825115801590611280575b6111f457505050565b60008061127594611204856106f2565b602785527f416464726573733a206c6f772d6c6576656c2064656c65676174652063616c6c6020860152660819985a5b195960ca1b6040860152602081519101845af43d15611278573d916112588361074c565b92611266604051948561072a565b83523d6000602085013e611376565b50565b606091611376565b5060016111eb565b61129181611106565b604051906000906001600160a01b0381167fbc7cd75a20ee27fd9adebab32041f755214dbc6bffa90cc0225b39da2e5c2d3b8385a283511580159061136f575b6112dc575b50505050565b818061135c956112eb866106f2565b602786527f416464726573733a206c6f772d6c6576656c2064656c65676174652063616c6c6020870152660819985a5b195960ca1b6040870152602081519101845af4903d15611366573d61133f8161074c565b9061134d604051928361072a565b8152809360203d92013e611376565b50388080806112d6565b60609250611376565b50816112d1565b919290156113d8575081511561138a575090565b3b156113935790565b60405162461bcd60e51b815260206004820152601d60248201527f416464726573733a2063616c6c20746f206e6f6e2d636f6e74726163740000006044820152606490fd5b8251909150156113eb5750805190602001fd5b60405162461bcd60e51b81526020600482015290819061065d906024830190611444565b918091926000905b82821061142f575011611428575050565b6000910152565b91508060209183015181860152018291611417565b9060209161145d8151809281855285808601910161140f565b601f01601f1916010190565b60ff60005460081c1615610c0f57610ed16114da565b6001600160a01b0360005460101c16330361149657565b606460405162461bcd60e51b815260206004820152602060248201527f4f776e61626c653a2063616c6c6572206973206e6f7420746865206f776e65726044820152fd5b737e8ae5c72eca86946b695dcc211863d9721a09616001600160a01b03600054757e8ae5c72eca86946b695dcc211863d9721a0961000062010000600160b01b031982161760005560101c167f8be0079c531659141344cd1fd0a4f28419497f9722a3daafe3b4186f6b6457e06000604051a3565b929093916000549460ff8660081c161580968197611683575b8115611663575b50156115f857611595948661158c600160ff196000541617600055565b6115df576119cf565b61159b57565b6115ab61ff001960005416600055565b604051600181527f7f26b83ff96e1f2b6a682f133852f6798a09c465da95921460cefb38474024989080602081015b0390a1565b6115f361010061ff00196000541617600055565b6119cf565b60405162461bcd60e51b815260206004820152602e60248201527f496e697469616c697a61626c653a20636f6e747261637420697320616c72656160448201527f647920696e697469616c697a65640000000000000000000000000000000000006064820152608490fd5b303b15915081611675575b503861156f565b6001915060ff16143861166e565b600160ff8216109150611568565b1561169857565b60405162461bcd60e51b815260206004820152601260248201527f496e76616c696420767063206c6576656c7300000000000000000000000000006044820152606490fd5b50634e487b7160e01b600052601160045260246000fd5b60ff6001911660ff8114611706570190565b61170e6116dd565b0190565b602090805115611720570190565b61170e610861565b602091815181101561173d575b60051b010190565b611745610861565b611735565b9081602091031261000e57516107c981610694565b80519068010000000000000000821161182d575b609654826096558083106117ec575b5060208091019060966000527f6aa7ec8ac2a999a90ce6c78668dffe4e487e2576a97ca366ec81ecb335af90d06000925b8484106117c1575050505050565b600183826001600160a01b03839451166001600160a01b0319865416178555019201930192906117b3565b827f6aa7ec8ac2a999a90ce6c78668dffe4e487e2576a97ca366ec81ecb335af90d091820191015b8181106118215750611782565b60008155600101611814565b61183561069e565b611773565b1561184157565b60405162461bcd60e51b815260206004820152602960248201527f4d7573742068617665206174206c656173742074776f2064657374696e6174696044820152686f6e20636861696e7360b81b6064820152608490fd5b805190680100000000000000008211611950575b609b5482609b5580831061190f575b50602080910190609b6000527fbba9db4cdbea0a37c207bbb83e20f828cd4441c49891101dc94fd20dc8efc3496000925b8484106118fa575050505050565b600183828293518555019201930192906118ec565b827fbba9db4cdbea0a37c207bbb83e20f828cd4441c49891101dc94fd20dc8efc34991820191015b81811061194457506118bb565b60008155600101611937565b61195861069e565b6118ac565b1561196457565b60405162461bcd60e51b815260206004820152603460248201527f54686520686f7374656420636861696e206d757374206265206f6e65206f662060448201527f74686520737570706f7274656420636861696e730000000000000000000000006064820152608490fd5b9194909392936004916119e483855114611691565b600094855b60ff811685811015611aa9579081611a2761019b611a13611a2061019b611a13611a79988c611728565b516001600160a01b031690565b938b611728565b9087604051809263095ea7b360e01b8252818d81611a62602098899783016020612710919392936001600160a01b0360408201951681520152565b03925af18015611a9c575b611a7e575b50506116f4565b6119e9565b81611a9492903d1061042557610415818361072a565b503880611a72565b611aa461109b565b611a6d565b5050945095611b20959250611ad79150611ac5611b049461175f565b611ad2600182511161183a565b611898565b611ae8611ae34661265b565b61195d565b6001600160a01b03166001600160a01b03196097541617609755565b6001600160a01b03166001600160a01b03196098541617609855565b610ed1611469565b15611b2f57565b60405162461bcd60e51b815260206004820152601260248201527f496e76616c69642063617264206c6576656c00000000000000000000000000006044820152606490fd5b60ff1660018110611b87575b6000190190565b611b8f6116dd565b611b80565b9081602091031261000e57516107c98161010c565b15611bb057565b60405162461bcd60e51b815260206004820152600e60248201527f4e6f742063617264206f776e65720000000000000000000000000000000000006044820152606490fd5b60208183031261000e5780519067ffffffffffffffff821161000e570181601f8201121561000e578051611c288161074c565b92611c36604051948561072a565b8184526020828401011161000e576107c9916020808501910161140f565b60058110611c64575b6004190190565b611c6c6116dd565b611c5d565b818110611c7c570390565b611c846116dd565b0390565b6001906000198114611706570190565b9799989490611ced9465ffffffffffff9793610100999560ff938c526001600160a01b0380921660208d01521660408b01521660608901526080880152151560a08701526101208060c0880152860190611444565b9560e085015216910152565b90610ed197969594939291611d1c60ff8416600181101590816104f35750611b28565b611f12565b93916076979695939185526bffffffffffffffffffffffff199060601b16602085015260ff60f81b9060f81b1660348401526035830152151560f81b6055820152611d7682518093602060568501910161140f565b019060568201520190565b15611d8857565b60405162461bcd60e51b815260206004820152601160248201527f496e76616c6964207369676e61747572650000000000000000000000000000006044820152606490fd5b15611dd457565b60405162461bcd60e51b815260206004820152601760248201527f565043206e6f74206f776e6564206279206272696467650000000000000000006044820152606490fd5b6001906001198111611706570190565b60405190611e368261070e565b6001825260203681840137565b604051611e4f8161070e565b600181528060005b602080821015611e7257906060602092828501015201611e57565b50505090565b906040820191604081528151809352606081019260208093019060005b818110611efe57505050818184039101528251908183528083019281808460051b8301019501936000915b848310611ed05750505050505090565b9091929394958480611eee600193601f198682030187528a51611444565b9801930193019194939290611ec0565b825186529484019491840191600101611e95565b9492829897949293604095838751808a8c868a8960209d8e870198611f37968a611d21565b03601f1981018252611f49908261072a565b51902090611f5691612489565b9360009a8b54611f70906001600160a01b039060101c1690565b6001600160a01b03166001600160a01b0380971614611f8e90611d81565b89611fa38a6000526099602052604060002090565b6000918252602052604090205460ff1661245d579061200661019b6101886101838f9796956120018f8f90611fe5611ff4926000526099602052604060002090565b90600052602052604060002090565b805460ff19166001179055565b611b74565b8851633b330f2160e11b8082529197612042918a816004818d5afa908115612450575b8891612433575b508610908115916123d1575b50611dcd565b885181815288816004818b5afa9081156123c4575b86916123a7575b508410156122fa575b508061229e575b612210575b50833b1561220c5785516323b872dd60e01b81523060048201526001600160a01b0393909316602484015260448301528160648183865af180156121ff575b6121ec575b506120cd61019b6098546001600160a01b031690565b906004836120e661019b6097546001600160a01b031690565b9286519283809263c002d23d60e01b82525afa9384156121df575b89946121c0575b5050813b156121bc5783516340c10f1960e01b81526001600160a01b03919091166004820152602481019290925294957f1aab301e8c9017b1d984dad0933c71fa7c467adbdf37196a9510d62045d84ece956115da939291908290604490829084905af180156121af575b61219c575b505192835260208301919091524265ffffffffffff16604083015281906060820190565b806104466121a9926106b5565b38612178565b6121b761109b565b612173565b8780fd5b6121d7929450803d106104a557610497818361072a565b913880612108565b6121e761109b565b612101565b806104466121f9926106b5565b386120b7565b61220761109b565b6120b2565b5080fd5b612218611e29565b8261222282611712565b5261222b611e43565b9161223583611712565b5261223f82611712565b50853b1561229a5787516314f79e0160e21b815291849183918291612268919060048401611e78565b038183895af1801561228d575b156120735780610446612287926106b5565b38612073565b61229561109b565b612275565b8380fd5b508651632084ab8360e01b8152600481018390528681602481895afa9081156122ed575b84916122d0575b501561206e565b6122e79150873d891161042557610415818361072a565b386122c9565b6122f561109b565b6122c2565b612324612329918a5190815289816004818c5afa90811561239a575b879161237d575b5085611c71565b611e19565b863b156123795788516302b140d360e41b815260048101919091528481602481838b5af1801561236c575b156120675780610446612366926106b5565b38612067565b61237461109b565b612354565b8480fd5b61239491508a3d8c116104a557610497818361072a565b3861231d565b6123a261109b565b612316565b6123be9150893d8b116104a557610497818361072a565b3861205e565b6123cc61109b565b612057565b8b516331a9108f60e11b81526004810188905291508a826024818d5afa918215612426575b8892612407575b501630143861203c565b61241f9192508b3d8d116104df576104d1818361072a565b90386123fd565b61242e61109b565b6123f6565b61244a91508b3d8d116104a557610497818361072a565b38612030565b61245861109b565b612029565b505050505050505050509050565b602092919061248184928281519485920161140f565b019081520190565b600090602092838101519060ff604160408301519201511692601b8410612556575b90612534916124fc61250a604051926124c38461070e565b601c84527f19457468657265756d205369676e6564204d6573736167653a0a3332000000008a8501526040519283918b8301958661246b565b03601f19810183528261072a565b51902092604051948594859094939260ff6060936080840197845216602083015260408201520152565b838052039060015afa15612549575b60005190565b61255161109b565b612543565b9290601b8260e46125349411612571575b01939091506124ab565b6125796116dd565b612567565b90602091805182101561259057010190565b612598610861565b010190565b90604380821061264e575b60421990818301936125b98561074c565b946125c7604051968761072a565b8086526125d6601f199161074c565b01366020870137815b8481106125ee57505050505090565b61263c907fff0000000000000000000000000000000000000000000000000000000000000061261d828561257e565b5116848210612641575b60001a6126368683018961257e565b53611c88565b6125df565b6126496116dd565b612627565b6126566116dd565b6125a8565b6000908190609b8054925b838110612674575050505090565b81855282817fbba9db4cdbea0a37c207bbb83e20f828cd4441c49891101dc94fd20dc8efc3490154146126af576126aa90611c88565b612666565b505050505060019056fea2646970667358221220cff971cfe7e4e710fea187c339f20c127baa64b713043227a9f4774472c5a83664736f6c634300080e0033",
  "devdoc": {
    "kind": "dev",
    "methods": {
      "owner()": {
        "details": "Returns the address of the current owner."
      },
      "proxiableUUID()": {
        "details": "Implementation of the ERC1822 {proxiableUUID} function. This returns the storage slot used by the implementation. It is used to validate the implementation's compatibility when performing an upgrade. IMPORTANT: A proxy pointing at a proxiable contract should not be considered proxiable itself, because this risks bricking a proxy that upgrades to it, by delegating to itself until out of gas. Thus it is critical that this function revert if invoked through a proxy. This is guaranteed by the `notDelegated` modifier."
      },
      "renounceOwnership()": {
        "details": "Leaves the contract without owner. It will not be possible to call `onlyOwner` functions anymore. Can only be called by the current owner. NOTE: Renouncing ownership will leave the contract without an owner, thereby removing any functionality that is only available to the owner."
      },
      "transferOwnership(address)": {
        "details": "Transfers ownership of the contract to a new account (`newOwner`). Can only be called by the current owner."
      },
      "upgradeTo(address)": {
        "custom:oz-upgrades-unsafe-allow-reachable": "delegatecall",
        "details": "Upgrade the implementation of the proxy to `newImplementation`. Calls {_authorizeUpgrade}. Emits an {Upgraded} event."
      },
      "upgradeToAndCall(address,bytes)": {
        "custom:oz-upgrades-unsafe-allow-reachable": "delegatecall",
        "details": "Upgrade the implementation of the proxy to `newImplementation`, and subsequently execute the function call encoded in `data`. Calls {_authorizeUpgrade}. Emits an {Upgraded} event."
      }
    },
    "version": 1
  },
  "userdoc": {
    "kind": "user",
    "methods": {},
    "version": 1
  },
  "storageLayout": {
    "storage": [
      {
        "astId": 687,
        "contract": "contracts/voting/VPCBridge.sol:VPCBridge",
        "label": "_initialized",
        "offset": 0,
        "slot": "0",
        "type": "t_uint8"
      },
      {
        "astId": 690,
        "contract": "contracts/voting/VPCBridge.sol:VPCBridge",
        "label": "_initializing",
        "offset": 1,
        "slot": "0",
        "type": "t_bool"
      },
      {
        "astId": 13012,
        "contract": "contracts/voting/VPCBridge.sol:VPCBridge",
        "label": "_owner",
        "offset": 2,
        "slot": "0",
        "type": "t_address"
      },
      {
        "astId": 13132,
        "contract": "contracts/voting/VPCBridge.sol:VPCBridge",
        "label": "__gap",
        "offset": 0,
        "slot": "1",
        "type": "t_array(t_uint256)49_storage"
      },
      {
        "astId": 669,
        "contract": "contracts/voting/VPCBridge.sol:VPCBridge",
        "label": "__gap",
        "offset": 0,
        "slot": "50",
        "type": "t_array(t_uint256)50_storage"
      },
      {
        "astId": 985,
        "contract": "contracts/voting/VPCBridge.sol:VPCBridge",
        "label": "__gap",
        "offset": 0,
        "slot": "100",
        "type": "t_array(t_uint256)50_storage"
      },
      {
        "astId": 36780,
        "contract": "contracts/voting/VPCBridge.sol:VPCBridge",
        "label": "vpcs",
        "offset": 0,
        "slot": "150",
        "type": "t_array(t_contract(PERIv2)36220)dyn_storage"
      },
      {
        "astId": 36783,
        "contract": "contracts/voting/VPCBridge.sol:VPCBridge",
        "label": "curationRewardPool",
        "offset": 0,
        "slot": "151",
        "type": "t_contract(Vault)33186"
      },
      {
        "astId": 36786,
        "contract": "contracts/voting/VPCBridge.sol:VPCBridge",
        "label": "nend",
        "offset": 0,
        "slot": "152",
        "type": "t_contract(NEND)32051"
      },
      {
        "astId": 36827,
        "contract": "contracts/voting/VPCBridge.sol:VPCBridge",
        "label": "chainNonceToExecutedMapping",
        "offset": 0,
        "slot": "153",
        "type": "t_mapping(t_uint256,t_mapping(t_uint256,t_bool))"
      },
      {
        "astId": 36829,
        "contract": "contracts/voting/VPCBridge.sol:VPCBridge",
        "label": "nonce",
        "offset": 0,
        "slot": "154",
        "type": "t_uint256"
      },
      {
        "astId": 36832,
        "contract": "contracts/voting/VPCBridge.sol:VPCBridge",
        "label": "supportedChainIds",
        "offset": 0,
        "slot": "155",
        "type": "t_array(t_uint256)dyn_storage"
      }
    ],
    "types": {
      "t_address": {
        "encoding": "inplace",
        "label": "address",
        "numberOfBytes": "20"
      },
      "t_array(t_contract(PERIv2)36220)dyn_storage": {
        "base": "t_contract(PERIv2)36220",
        "encoding": "dynamic_array",
        "label": "contract PERIv2[]",
        "numberOfBytes": "32"
      },
      "t_array(t_uint256)49_storage": {
        "base": "t_uint256",
        "encoding": "inplace",
        "label": "uint256[49]",
        "numberOfBytes": "1568"
      },
      "t_array(t_uint256)50_storage": {
        "base": "t_uint256",
        "encoding": "inplace",
        "label": "uint256[50]",
        "numberOfBytes": "1600"
      },
      "t_array(t_uint256)dyn_storage": {
        "base": "t_uint256",
        "encoding": "dynamic_array",
        "label": "uint256[]",
        "numberOfBytes": "32"
      },
      "t_bool": {
        "encoding": "inplace",
        "label": "bool",
        "numberOfBytes": "1"
      },
      "t_contract(NEND)32051": {
        "encoding": "inplace",
        "label": "contract NEND",
        "numberOfBytes": "20"
      },
      "t_contract(PERIv2)36220": {
        "encoding": "inplace",
        "label": "contract PERIv2",
        "numberOfBytes": "20"
      },
      "t_contract(Vault)33186": {
        "encoding": "inplace",
        "label": "contract Vault",
        "numberOfBytes": "20"
      },
      "t_mapping(t_uint256,t_bool)": {
        "encoding": "mapping",
        "key": "t_uint256",
        "label": "mapping(uint256 => bool)",
        "numberOfBytes": "32",
        "value": "t_bool"
      },
      "t_mapping(t_uint256,t_mapping(t_uint256,t_bool))": {
        "encoding": "mapping",
        "key": "t_uint256",
        "label": "mapping(uint256 => mapping(uint256 => bool))",
        "numberOfBytes": "32",
        "value": "t_mapping(t_uint256,t_bool)"
      },
      "t_uint256": {
        "encoding": "inplace",
        "label": "uint256",
        "numberOfBytes": "32"
      },
      "t_uint8": {
        "encoding": "inplace",
        "label": "uint8",
        "numberOfBytes": "1"
      }
    }
  }
}