{
  "address": "0x8B87e346e97D0D91F419D713ce1caB1AF719113a",
  "abi": [
    {
      "anonymous": false,
      "inputs": [
        {
          "indexed": false,
          "internalType": "address",
          "name": "previousAdmin",
          "type": "address"
        },
        {
          "indexed": false,
          "internalType": "address",
          "name": "newAdmin",
          "type": "address"
        }
      ],
      "name": "AdminChanged",
      "type": "event"
    },
    {
      "anonymous": false,
      "inputs": [
        {
          "indexed": true,
          "internalType": "address",
          "name": "owner",
          "type": "address"
        },
        {
          "indexed": true,
          "internalType": "address",
          "name": "approved",
          "type": "address"
        },
        {
          "indexed": true,
          "internalType": "uint256",
          "name": "tokenId",
          "type": "uint256"
        }
      ],
      "name": "Approval",
      "type": "event"
    },
    {
      "anonymous": false,
      "inputs": [
        {
          "indexed": true,
          "internalType": "address",
          "name": "owner",
          "type": "address"
        },
        {
          "indexed": true,
          "internalType": "address",
          "name": "operator",
          "type": "address"
        },
        {
          "indexed": false,
          "internalType": "bool",
          "name": "approved",
          "type": "bool"
        }
      ],
      "name": "ApprovalForAll",
      "type": "event"
    },
    {
      "anonymous": false,
      "inputs": [
        {
          "indexed": false,
          "internalType": "uint256",
          "name": "_fromTokenId",
          "type": "uint256"
        },
        {
          "indexed": false,
          "internalType": "uint256",
          "name": "_toTokenId",
          "type": "uint256"
        }
      ],
      "name": "BatchMetadataUpdate",
      "type": "event"
    },
    {
      "anonymous": false,
      "inputs": [
        {
          "indexed": true,
          "internalType": "address",
          "name": "beacon",
          "type": "address"
        }
      ],
      "name": "BeaconUpgraded",
      "type": "event"
    },
    {
      "anonymous": false,
      "inputs": [
        {
          "indexed": false,
          "internalType": "uint8",
          "name": "version",
          "type": "uint8"
        }
      ],
      "name": "Initialized",
      "type": "event"
    },
    {
      "anonymous": false,
      "inputs": [
        {
          "indexed": false,
          "internalType": "uint256",
          "name": "_tokenId",
          "type": "uint256"
        }
      ],
      "name": "MetadataUpdate",
      "type": "event"
    },
    {
      "anonymous": false,
      "inputs": [
        {
          "indexed": true,
          "internalType": "address",
          "name": "previousOwner",
          "type": "address"
        },
        {
          "indexed": true,
          "internalType": "address",
          "name": "newOwner",
          "type": "address"
        }
      ],
      "name": "OwnershipTransferred",
      "type": "event"
    },
    {
      "anonymous": false,
      "inputs": [
        {
          "indexed": true,
          "internalType": "address",
          "name": "from",
          "type": "address"
        },
        {
          "indexed": true,
          "internalType": "address",
          "name": "to",
          "type": "address"
        },
        {
          "indexed": true,
          "internalType": "uint256",
          "name": "tokenId",
          "type": "uint256"
        }
      ],
      "name": "Transfer",
      "type": "event"
    },
    {
      "anonymous": false,
      "inputs": [
        {
          "indexed": true,
          "internalType": "address",
          "name": "implementation",
          "type": "address"
        }
      ],
      "name": "Upgraded",
      "type": "event"
    },
    {
      "inputs": [],
      "name": "MAX_SALE_AMOUNT",
      "outputs": [
        {
          "internalType": "uint256",
          "name": "",
          "type": "uint256"
        }
      ],
      "stateMutability": "view",
      "type": "function"
    },
    {
      "inputs": [],
      "name": "MINT_PRICE",
      "outputs": [
        {
          "internalType": "uint256",
          "name": "",
          "type": "uint256"
        }
      ],
      "stateMutability": "view",
      "type": "function"
    },
    {
      "inputs": [],
      "name": "__MWOwnable_init",
      "outputs": [],
      "stateMutability": "nonpayable",
      "type": "function"
    },
    {
      "inputs": [
        {
          "internalType": "address",
          "name": "to",
          "type": "address"
        },
        {
          "internalType": "uint256",
          "name": "tokenId",
          "type": "uint256"
        }
      ],
      "name": "approve",
      "outputs": [],
      "stateMutability": "nonpayable",
      "type": "function"
    },
    {
      "inputs": [
        {
          "internalType": "address",
          "name": "operator",
          "type": "address"
        },
        {
          "internalType": "string",
          "name": "role",
          "type": "string"
        },
        {
          "internalType": "bool",
          "name": "authorized",
          "type": "bool"
        }
      ],
      "name": "authorize",
      "outputs": [],
      "stateMutability": "nonpayable",
      "type": "function"
    },
    {
      "inputs": [
        {
          "internalType": "address",
          "name": "owner",
          "type": "address"
        }
      ],
      "name": "balanceOf",
      "outputs": [
        {
          "internalType": "uint256",
          "name": "",
          "type": "uint256"
        }
      ],
      "stateMutability": "view",
      "type": "function"
    },
    {
      "inputs": [
        {
          "internalType": "uint256",
          "name": "tokenId",
          "type": "uint256"
        }
      ],
      "name": "getApproved",
      "outputs": [
        {
          "internalType": "address",
          "name": "",
          "type": "address"
        }
      ],
      "stateMutability": "view",
      "type": "function"
    },
    {
      "inputs": [
        {
          "internalType": "address",
          "name": "",
          "type": "address"
        },
        {
          "internalType": "string",
          "name": "",
          "type": "string"
        }
      ],
      "name": "hasRole",
      "outputs": [
        {
          "internalType": "bool",
          "name": "",
          "type": "bool"
        }
      ],
      "stateMutability": "view",
      "type": "function"
    },
    {
      "inputs": [
        {
          "internalType": "string",
          "name": "name",
          "type": "string"
        },
        {
          "internalType": "string",
          "name": "symbol",
          "type": "string"
        },
        {
          "internalType": "address",
          "name": "wETH",
          "type": "address"
        },
        {
          "internalType": "address",
          "name": "ticket",
          "type": "address"
        },
        {
          "internalType": "uint256",
          "name": "mintPrice",
          "type": "uint256"
        }
      ],
      "name": "initialize",
      "outputs": [],
      "stateMutability": "nonpayable",
      "type": "function"
    },
    {
      "inputs": [
        {
          "internalType": "address",
          "name": "owner",
          "type": "address"
        },
        {
          "internalType": "address",
          "name": "operator",
          "type": "address"
        }
      ],
      "name": "isApprovedForAll",
      "outputs": [
        {
          "internalType": "bool",
          "name": "",
          "type": "bool"
        }
      ],
      "stateMutability": "view",
      "type": "function"
    },
    {
      "inputs": [],
      "name": "isEnabledNextScenario",
      "outputs": [
        {
          "internalType": "bool",
          "name": "",
          "type": "bool"
        }
      ],
      "stateMutability": "view",
      "type": "function"
    },
    {
      "inputs": [],
      "name": "isEnabledPublicMint",
      "outputs": [
        {
          "internalType": "bool",
          "name": "",
          "type": "bool"
        }
      ],
      "stateMutability": "view",
      "type": "function"
    },
    {
      "inputs": [],
      "name": "isEnabledTicketMint",
      "outputs": [
        {
          "internalType": "bool",
          "name": "",
          "type": "bool"
        }
      ],
      "stateMutability": "view",
      "type": "function"
    },
    {
      "inputs": [],
      "name": "isEnabledWhitelistMint",
      "outputs": [
        {
          "internalType": "bool",
          "name": "",
          "type": "bool"
        }
      ],
      "stateMutability": "view",
      "type": "function"
    },
    {
      "inputs": [],
      "name": "isRevealed",
      "outputs": [
        {
          "internalType": "bool",
          "name": "",
          "type": "bool"
        }
      ],
      "stateMutability": "view",
      "type": "function"
    },
    {
      "inputs": [],
      "name": "merkleRoot",
      "outputs": [
        {
          "internalType": "bytes32",
          "name": "",
          "type": "bytes32"
        }
      ],
      "stateMutability": "view",
      "type": "function"
    },
    {
      "inputs": [],
      "name": "mintIndexForSale",
      "outputs": [
        {
          "internalType": "uint256",
          "name": "",
          "type": "uint256"
        }
      ],
      "stateMutability": "view",
      "type": "function"
    },
    {
      "inputs": [],
      "name": "mintStartBlockNumber",
      "outputs": [
        {
          "internalType": "uint256",
          "name": "",
          "type": "uint256"
        }
      ],
      "stateMutability": "view",
      "type": "function"
    },
    {
      "inputs": [],
      "name": "mintingInformation",
      "outputs": [
        {
          "internalType": "uint256[3]",
          "name": "",
          "type": "uint256[3]"
        }
      ],
      "stateMutability": "view",
      "type": "function"
    },
    {
      "inputs": [],
      "name": "name",
      "outputs": [
        {
          "internalType": "string",
          "name": "",
          "type": "string"
        }
      ],
      "stateMutability": "view",
      "type": "function"
    },
    {
      "inputs": [],
      "name": "owner",
      "outputs": [
        {
          "internalType": "address",
          "name": "",
          "type": "address"
        }
      ],
      "stateMutability": "view",
      "type": "function"
    },
    {
      "inputs": [
        {
          "internalType": "uint256",
          "name": "tokenId",
          "type": "uint256"
        }
      ],
      "name": "ownerOf",
      "outputs": [
        {
          "internalType": "address",
          "name": "",
          "type": "address"
        }
      ],
      "stateMutability": "view",
      "type": "function"
    },
    {
      "inputs": [],
      "name": "proxiableUUID",
      "outputs": [
        {
          "internalType": "bytes32",
          "name": "",
          "type": "bytes32"
        }
      ],
      "stateMutability": "view",
      "type": "function"
    },
    {
      "inputs": [
        {
          "internalType": "uint256",
          "name": "requestedCount",
          "type": "uint256"
        }
      ],
      "name": "publicMint",
      "outputs": [],
      "stateMutability": "nonpayable",
      "type": "function"
    },
    {
      "inputs": [],
      "name": "renounceOwnership",
      "outputs": [],
      "stateMutability": "nonpayable",
      "type": "function"
    },
    {
      "inputs": [
        {
          "internalType": "uint256",
          "name": "tokenId",
          "type": "uint256"
        },
        {
          "internalType": "string",
          "name": "tokenHash",
          "type": "string"
        }
      ],
      "name": "repairTokenURI",
      "outputs": [],
      "stateMutability": "nonpayable",
      "type": "function"
    },
    {
      "inputs": [
        {
          "internalType": "uint256",
          "name": "",
          "type": "uint256"
        }
      ],
      "name": "revealChecked",
      "outputs": [
        {
          "internalType": "bool",
          "name": "",
          "type": "bool"
        }
      ],
      "stateMutability": "view",
      "type": "function"
    },
    {
      "inputs": [
        {
          "internalType": "uint256[]",
          "name": "tokenIds",
          "type": "uint256[]"
        },
        {
          "internalType": "string[]",
          "name": "tokenHash",
          "type": "string[]"
        }
      ],
      "name": "revealTokens",
      "outputs": [],
      "stateMutability": "nonpayable",
      "type": "function"
    },
    {
      "inputs": [
        {
          "internalType": "address",
          "name": "from",
          "type": "address"
        },
        {
          "internalType": "address",
          "name": "to",
          "type": "address"
        },
        {
          "internalType": "uint256",
          "name": "tokenId",
          "type": "uint256"
        }
      ],
      "name": "safeTransferFrom",
      "outputs": [],
      "stateMutability": "nonpayable",
      "type": "function"
    },
    {
      "inputs": [
        {
          "internalType": "address",
          "name": "from",
          "type": "address"
        },
        {
          "internalType": "address",
          "name": "to",
          "type": "address"
        },
        {
          "internalType": "uint256",
          "name": "tokenId",
          "type": "uint256"
        },
        {
          "internalType": "bytes",
          "name": "data",
          "type": "bytes"
        }
      ],
      "name": "safeTransferFrom",
      "outputs": [],
      "stateMutability": "nonpayable",
      "type": "function"
    },
    {
      "inputs": [
        {
          "internalType": "address",
          "name": "operator",
          "type": "address"
        },
        {
          "internalType": "bool",
          "name": "approved",
          "type": "bool"
        }
      ],
      "name": "setApprovalForAll",
      "outputs": [],
      "stateMutability": "nonpayable",
      "type": "function"
    },
    {
      "inputs": [
        {
          "internalType": "string",
          "name": "_newBaseURI",
          "type": "string"
        }
      ],
      "name": "setBaseURI",
      "outputs": [],
      "stateMutability": "nonpayable",
      "type": "function"
    },
    {
      "inputs": [
        {
          "internalType": "bytes32",
          "name": "_merkleRoot",
          "type": "bytes32"
        }
      ],
      "name": "setMerkleRoot",
      "outputs": [],
      "stateMutability": "nonpayable",
      "type": "function"
    },
    {
      "inputs": [
        {
          "internalType": "address",
          "name": "nextScenario",
          "type": "address"
        }
      ],
      "name": "setNextScenarioConenct",
      "outputs": [],
      "stateMutability": "nonpayable",
      "type": "function"
    },
    {
      "inputs": [
        {
          "internalType": "string",
          "name": "_newNotRevealedURI",
          "type": "string"
        }
      ],
      "name": "setNotRevealedURI",
      "outputs": [],
      "stateMutability": "nonpayable",
      "type": "function"
    },
    {
      "inputs": [
        {
          "internalType": "bool",
          "name": "_state",
          "type": "bool"
        }
      ],
      "name": "setPublicMintState",
      "outputs": [],
      "stateMutability": "nonpayable",
      "type": "function"
    },
    {
      "inputs": [
        {
          "internalType": "bool",
          "name": "_state",
          "type": "bool"
        }
      ],
      "name": "setRevealState",
      "outputs": [],
      "stateMutability": "nonpayable",
      "type": "function"
    },
    {
      "inputs": [
        {
          "internalType": "bool",
          "name": "_state",
          "type": "bool"
        }
      ],
      "name": "setTicketMintState",
      "outputs": [],
      "stateMutability": "nonpayable",
      "type": "function"
    },
    {
      "inputs": [
        {
          "internalType": "bool",
          "name": "_state",
          "type": "bool"
        }
      ],
      "name": "setWhitelistMintState",
      "outputs": [],
      "stateMutability": "nonpayable",
      "type": "function"
    },
    {
      "inputs": [
        {
          "internalType": "uint256",
          "name": "mintPrice",
          "type": "uint256"
        }
      ],
      "name": "setupSale",
      "outputs": [],
      "stateMutability": "nonpayable",
      "type": "function"
    },
    {
      "inputs": [
        {
          "internalType": "bytes4",
          "name": "interfaceId",
          "type": "bytes4"
        }
      ],
      "name": "supportsInterface",
      "outputs": [
        {
          "internalType": "bool",
          "name": "",
          "type": "bool"
        }
      ],
      "stateMutability": "view",
      "type": "function"
    },
    {
      "inputs": [],
      "name": "symbol",
      "outputs": [
        {
          "internalType": "string",
          "name": "",
          "type": "string"
        }
      ],
      "stateMutability": "view",
      "type": "function"
    },
    {
      "inputs": [
        {
          "internalType": "uint256",
          "name": "requestedCount",
          "type": "uint256"
        }
      ],
      "name": "ticketMint",
      "outputs": [],
      "stateMutability": "nonpayable",
      "type": "function"
    },
    {
      "inputs": [
        {
          "internalType": "uint256",
          "name": "index",
          "type": "uint256"
        }
      ],
      "name": "tokenByIndex",
      "outputs": [
        {
          "internalType": "uint256",
          "name": "",
          "type": "uint256"
        }
      ],
      "stateMutability": "view",
      "type": "function"
    },
    {
      "inputs": [
        {
          "internalType": "address",
          "name": "owner",
          "type": "address"
        },
        {
          "internalType": "uint256",
          "name": "index",
          "type": "uint256"
        }
      ],
      "name": "tokenOfOwnerByIndex",
      "outputs": [
        {
          "internalType": "uint256",
          "name": "",
          "type": "uint256"
        }
      ],
      "stateMutability": "view",
      "type": "function"
    },
    {
      "inputs": [
        {
          "internalType": "uint256",
          "name": "tokenId",
          "type": "uint256"
        }
      ],
      "name": "tokenURI",
      "outputs": [
        {
          "internalType": "string",
          "name": "",
          "type": "string"
        }
      ],
      "stateMutability": "view",
      "type": "function"
    },
    {
      "inputs": [],
      "name": "totalSupply",
      "outputs": [
        {
          "internalType": "uint256",
          "name": "",
          "type": "uint256"
        }
      ],
      "stateMutability": "view",
      "type": "function"
    },
    {
      "inputs": [
        {
          "internalType": "address",
          "name": "from",
          "type": "address"
        },
        {
          "internalType": "address",
          "name": "to",
          "type": "address"
        },
        {
          "internalType": "uint256",
          "name": "tokenId",
          "type": "uint256"
        }
      ],
      "name": "transferFrom",
      "outputs": [],
      "stateMutability": "nonpayable",
      "type": "function"
    },
    {
      "inputs": [
        {
          "internalType": "address",
          "name": "newOwner",
          "type": "address"
        }
      ],
      "name": "transferOwnership",
      "outputs": [],
      "stateMutability": "nonpayable",
      "type": "function"
    },
    {
      "inputs": [
        {
          "internalType": "address",
          "name": "newImplementation",
          "type": "address"
        }
      ],
      "name": "upgradeTo",
      "outputs": [],
      "stateMutability": "nonpayable",
      "type": "function"
    },
    {
      "inputs": [
        {
          "internalType": "address",
          "name": "newImplementation",
          "type": "address"
        },
        {
          "internalType": "bytes",
          "name": "data",
          "type": "bytes"
        }
      ],
      "name": "upgradeToAndCall",
      "outputs": [],
      "stateMutability": "payable",
      "type": "function"
    },
    {
      "inputs": [
        {
          "internalType": "uint256",
          "name": "requestedCount",
          "type": "uint256"
        },
        {
          "internalType": "bytes32[]",
          "name": "_merkleProof",
          "type": "bytes32[]"
        }
      ],
      "name": "whitelistMint",
      "outputs": [],
      "stateMutability": "nonpayable",
      "type": "function"
    },
    {
      "inputs": [
        {
          "internalType": "address",
          "name": "",
          "type": "address"
        }
      ],
      "name": "whitelistMintLimit",
      "outputs": [
        {
          "internalType": "uint256",
          "name": "",
          "type": "uint256"
        }
      ],
      "stateMutability": "view",
      "type": "function"
    }
  ],
  "transactionHash": "0xfd5b74eae1a863e1fd716895d97a8ba7eb1748d007109bffacef3ca079b13f93",
  "args": [],
  "numDeployments": 1,
  "solcInputHash": "2b691191bd6bf894805fd6522b0009a2",
  "bytecode": "0x60a06040523462000118576000546200003260ff8260081c16158092819362000109575b8115620000e6575b506200011d565b8062000046600160ff196000541617600055565b620000cb575b6200005662000181565b62000087575b306080526040516144f19081620001e28239608051818181610f4d01528181611153015261124c0152f35b6200009861ff001960005416600055565b604051600181527f7f26b83ff96e1f2b6a682f133852f6798a09c465da95921460cefb384740249890602090a16200005c565b620000e061010061ff00196000541617600055565b6200004c565b303b15915081620000fa575b50386200002b565b6001915060ff161438620000f2565b600160ff821610915062000023565b600080fd5b156200012557565b60405162461bcd60e51b815260206004820152602e60248201527f496e697469616c697a61626c653a20636f6e747261637420697320616c72656160448201526d191e481a5b9a5d1a585b1a5e995960921b6064820152608490fd5b60fb8054737e8ae5c72eca86946b695dcc211863d9721a09616001600160a01b0319821681179092556040516001600160a01b03909116907f8be0079c531659141344cd1fd0a4f28419497f9722a3daafe3b4186f6b6457e090600090a356fe60806040526004361015610013575b600080fd5b60003560e01c806301ffc9a71461043757806306fdde031461042e578063081812fc1461042557806308f9d2261461041c578063095ea7b31461041357806318160ddd1461040a5780631dd8792b146104015780632084ab83146103f8578063217fe6c6146103ef57806323b872dd146103e6578063257a1a63146103dd5780632b140d30146103d45780632db11544146103cb5780632eb4a7ab146103c25780632f745c59146103b957806330c19d0a146103b05780633659cfe6146103a757806337fdc1a71461039e57806339d2525f146103955780633a1595dc1461038c57806342842e0e146103835780634f1ef2861461037a5780634f6ccce71461037157806352d1902d1461036857806353de78041461035f57806354214f691461035657806355f804b31461034d5780636352211e1461034457806365b014b71461033b5780636ce653c21461033257806370a0823114610329578063715018a61461032057806371d466031461031757806376661e421461030e5780637cb6475914610305578063879fbedf146102fc5780638b2e9809146102f35780638da5cb5b146102ea57806395d89b41146102e1578063a0d90f76146102d8578063a22cb465146102cf578063a3057227146102c6578063b61c2b10146102bd578063b88d4fde146102b4578063c002d23d146102ab578063c6a768f4146102a2578063c87b56dd14610299578063c9aba0aa14610290578063d2cab05614610287578063d566e7a81461027e578063e985e9c514610275578063f2c4ce1e1461026c5763f2fde38b1461026457600080fd5b61000e6120e2565b5061000e611ff8565b5061000e611f95565b5061000e611f6d565b5061000e611e17565b5061000e611ce3565b5061000e611caf565b5061000e611c66565b5061000e611c46565b5061000e611bf6565b5061000e611bd0565b5061000e611a76565b5061000e61195a565b5061000e611933565b5061000e61188b565b5061000e611863565b5061000e611821565b5061000e6117dc565b5061000e6117b6565b5061000e611796565b5061000e611776565b5061000e611716565b5061000e6116ea565b5061000e61167a565b5061000e61164f565b5061000e611630565b5061000e611520565b5061000e6114d0565b5061000e611339565b5061000e611230565b5061000e611184565b5061000e611108565b5061000e6110c0565b5061000e611098565b5061000e610ffd565b5061000e610fd5565b5061000e610f1f565b5061000e610ee3565b5061000e610e25565b5061000e610e05565b5061000e610cc8565b5061000e610b52565b5061000e610b32565b5061000e610b08565b5061000e610a47565b5061000e610919565b5061000e610885565b5061000e610866565b5061000e610771565b5061000e61067a565b5061000e610640565b5061000e610563565b5061000e610452565b6001600160e01b031981160361000e57565b503461000e57602036600319011261000e57602060043561047281610440565b63ffffffff60e01b1663780e9d6360e01b8114908115610498575b506040519015158152f35b632483248360e11b8114915081156104b2575b503861048d565b6380ac58cd60e01b8114915081156104e4575b81156104d3575b50386104ab565b6301ffc9a760e01b149050386104cc565b635b5e139f60e01b811491506104c5565b918091926000905b82821061051557501161050e575050565b6000910152565b915080602091830151818601520182916104fd565b90602091610543815180928185528580860191016104f5565b601f01601f1916010190565b90602061056092818152019061052a565b90565b503461000e5760008060031936011261063d576040519080606554610587816127c4565b8085529160019180831690811561061c57506001146105c1575b6105bd856105b1818703826109a8565b6040519182918261054f565b0390f35b9250606583527f8ff97419363ffd7000167f130ef7168fbea05faf9251824ca5043f113cc6a7c75b8284106106045750505081016020016105b1826105bd6105a1565b805460208587018101919091529093019281016105e9565b60ff1916602087015250506040840192506105b191508390506105bd6105a1565b80fd5b503461000e57602036600319011261000e57602061065f60043561292b565b6001600160a01b0360405191168152f35b8015150361000e57565b503461000e57602036600319011261000e5760043561069881610670565b6106bf6106a3613f68565b6001600160a01b0360fb541633149081156106dd575b50613fab565b610195805462ff0000191691151560101b62ff000016919091179055005b60ff91506020610708913360005261012d8252604060002082604051948386809551938492016104f5565b8201908152030190205416386106b9565b600435906001600160a01b038216820361000e57565b602435906001600160a01b038216820361000e57565b604435906001600160a01b038216820361000e57565b606435906001600160a01b038216820361000e57565b503461000e57604036600319011261000e5761078b610719565b602435610797816127a2565b916001600160a01b038084168091831614610817576107c9936107c49133149081156107cb575b506128b9565b612c9f565b005b610811915061080a906107f233916001600160a01b0316600052606a602052604060002090565b906001600160a01b0316600052602052604060002090565b5460ff1690565b386107be565b60405162461bcd60e51b815260206004820152602160248201527f4552433732313a20617070726f76616c20746f2063757272656e74206f776e656044820152603960f91b6064820152608490fd5b503461000e57600036600319011261000e57602060cb54604051908152f35b503461000e57600036600319011261000e5760606040516108a581610963565b3690376040516060810181811067ffffffffffffffff82111761090c575b60405261019254815261019754906020918282015261019454604082015260405191826000905b600382106108f757606085f35b828060019286518152019401910190926108ea565b61091461094c565b6108c3565b503461000e57602036600319011261000e5760043560005261019c602052602060ff604060002054166040519015158152f35b50634e487b7160e01b600052604160045260246000fd5b6060810190811067ffffffffffffffff82111761097f57604052565b61098761094c565b604052565b6020810190811067ffffffffffffffff82111761097f57604052565b90601f8019910116810190811067ffffffffffffffff82111761097f57604052565b60209067ffffffffffffffff81116109e8575b601f01601f19160190565b6109f061094c565b6109dd565b929192610a01826109ca565b91610a0f60405193846109a8565b82948184528183011161000e578281602093846000960137010152565b9080601f8301121561000e57816020610560933591016109f5565b503461000e57604036600319011261000e57610a61610719565b60243567ffffffffffffffff811161000e57610ab660206105bd936001600160a01b03610a9460ff953690600401610a2c565b911660005261012d8252604060002082604051948386809551938492016104f5565b820190815203019020546040519116151581529081906020820190565b606090600319011261000e576001600160a01b0390600435828116810361000e5791602435908116810361000e579060443590565b503461000e576107c9610b1a36610ad3565b91610b2d610b288433612a5a565b61296d565b612b35565b503461000e57600036600319011261000e57602061019754604051908152f35b503461000e57602036600319011261000e57600435610b80610b7b6101955460ff9060101c1690565b613682565b61019290610b9d610b928284546136e5565b6101975410156136fd565b610c06602082610bc5610bb96101a0546001600160a01b031690565b6001600160a01b031690565b60fb546040516323b872dd60e01b81523360048201526001600160a01b03909116602482015260448101929092529092839190829060009082906064820190565b03925af18015610cbb575b610c8d575b5060005b818110610c35576107c9610c2f8385546136e5565b61019255565b80610c4d610c47610c889386546136e5565b336137ba565b610c608454610c5a6127fe565b906138d4565b610c83610c79855460005261019c602052604060002090565b805460ff19169055565b61375e565b610c1a565b610cad9060203d8111610cb4575b610ca581836109a8565b810190613749565b5038610c16565b503d610c9b565b610cc361227d565b610c11565b503461000e57602036600319011261000e57600435610cf6610cf16101955460ff9060081c1690565b613c5f565b61019290610d08610b928284546136e5565b610d786020610d23610bb961019f546001600160a01b031690565b60fb546001600160a01b031690610d3d6101945486613cab565b6040516323b872dd60e01b81523360048201526001600160a01b03909316602484015260448301529092839190829060009082906064820190565b03925af18015610df8575b610dda575b5060005b818110610dc357610da1610c2f8385546136e5565b43610dc0336001600160a01b031660005261019a602052604060002090565b55005b80610c4d610c47610dd59386546136e5565b610d8c565b610df19060203d8111610cb457610ca581836109a8565b5038610d88565b610e0061227d565b610d83565b503461000e57600036600319011261000e57602061019654604051908152f35b503461000e57604036600319011261000e57610e3f610719565b60243590610e4c816126df565b821015610e8a576001600160a01b031660005260c96020526040600020906000526020526105bd604060002054604051918291829190602083019252565b60405162461bcd60e51b815260206004820152602b60248201527f455243373231456e756d657261626c653a206f776e657220696e646578206f7560448201526a74206f6620626f756e647360a81b6064820152608490fd5b503461000e57602036600319011261000e576001600160a01b03610f05610719565b1660005261019d6020526020604060002054604051908152f35b503461000e57602036600319011261000e576107c9610f3c610719565b610fbf6001600160a01b03610fa3817f000000000000000000000000000000000000000000000000000000000000000016610f79813014156121ac565b827f360894a13ba1a3210667c828492db98dca3e2076cc3735a920a3ca505d382bbc54161461220d565b610fab613f68565b9060fb541633149081156106dd5750613fab565b60405190610fcc8261098c565b600082526122e8565b503461000e57600036600319011261000e57602060ff6101955460081c166040519015158152f35b503461000e57606036600319011261000e57611017610719565b6024359067ffffffffffffffff821161000e5761107e60206110406107c9943690600401610a2c565b6001600160a01b036044359461105586610670565b61105d612fa4565b1660005261012d8252604060002082604051948386809551938492016104f5565b8201908152030190209060ff801983541691151516179055565b503461000e57600036600319011261000e57602060ff6101955460181c166040519015158152f35b503461000e576107c96110d236610ad3565b90604051926020840184811067ffffffffffffffff8211176110fb575b604052600084526129cf565b61110361094c565b6110ef565b50604036600319011261000e5761111d610719565b6024359067ffffffffffffffff821161000e576111416107c9923690600401610a2c565b9061117f6001600160a01b03610fa3817f000000000000000000000000000000000000000000000000000000000000000016610f79813014156121ac565b612416565b503461000e57602036600319011261000e5760043560cb548110156111d65760cb6000527fa7ce836d032b2bf62b7e2097a8e0a6d8aeb35405ad15271e96d3b0188a1d06fb0154604051908152602090f35b60405162461bcd60e51b815260206004820152602c60248201527f455243373231456e756d657261626c653a20676c6f62616c20696e646578206f60448201526b7574206f6620626f756e647360a01b6064820152608490fd5b503461000e57600036600319011261000e576001600160a01b037f000000000000000000000000000000000000000000000000000000000000000016300361129d576040517f360894a13ba1a3210667c828492db98dca3e2076cc3735a920a3ca505d382bbc8152602090f35b60405162461bcd60e51b815260206004820152603860248201527f555550535570677261646561626c653a206d757374206e6f742062652063616c60448201527f6c6564207468726f7567682064656c656761746563616c6c00000000000000006064820152608490fd5b9181601f8401121561000e5782359167ffffffffffffffff831161000e576020808501948460051b01011161000e57565b503461000e5760408060031936011261000e5767ffffffffffffffff60043581811161000e5761136d903690600401611308565b909160243590811161000e57611387903690600401611308565b61019593919354906113a0600160ff8416151514613d74565b6113b66113af610198546127c4565b1515613dc0565b6113cb600160ff602094851c16151514613e0c565b60005b8481106113d757005b6114cb906113fc336113f6610bb96113f0858b8b613e62565b356127a2565b14613e80565b61143061142a61142561080a611413858b8b613e62565b3560005261019c602052604060002090565b151590565b15613ecc565b6114c261147f61144183868b613f18565b6114716114608d9493945194859361145a8c8601613cca565b91613d66565b64173539b7b760d91b815260050190565b03601f1981018352826109a8565b61149d611490611413858b8b613e62565b805460ff19166001179055565b6114bd6114ab848a8a613e62565b3560005261019b602052604060002090565b613594565b610c8333613ff7565b6113ce565b503461000e57600036600319011261000e57602060ff61019554166040519015158152f35b602060031982011261000e576004359067ffffffffffffffff821161000e5761056091600401610a2c565b503461000e5761152f366114f5565b611537612fa4565b805167ffffffffffffffff8111611623575b610198906115608161155b84546127c4565b613282565b602080601f831160011461159b5750819293600092611590575b50508160011b916000199060031b1c1916179055005b01519050388061157a565b90601f198316946115cf6101986000527f3f539f465397ab387efa93a617e37005205c037386b5b474fcfac82f47f77f0d90565b926000905b87821061160b5750508360019596106115f2575b505050811b019055005b015160001960f88460031b161c191690553880806115e8565b806001859682949686015181550195019301906115d4565b61162b61094c565b611549565b503461000e57602036600319011261000e57602061065f6004356127a2565b503461000e57600036600319011261000e5761167260ff60005460081c16612f2b565b6107c9612ffc565b503461000e57602036600319011261000e57611694610719565b61169c613f68565b6116bc6001600160a01b03918260fb541633149081156106dd5750613fab565b61019e80546001600160a01b03191691909216179055610195805464ff000000001916640100000000179055005b503461000e57602036600319011261000e57602061170e611709610719565b6126df565b604051908152f35b503461000e5760008060031936011261063d57611731612fa4565b60fb546001600160a01b0319811660fb55816001600160a01b0360405192167f8be0079c531659141344cd1fd0a4f28419497f9722a3daafe3b4186f6b6457e08284a3f35b503461000e57600036600319011261000e57602061019354604051908152f35b503461000e57600036600319011261000e57602061019254604051908152f35b503461000e57602036600319011261000e576117d36106a3613f68565b60043561019655005b503461000e57602036600319011261000e576004356117fa81610670565b6118056106a3613f68565b610195805461ff00191691151560081b61ff0016919091179055005b503461000e57602036600319011261000e5760043561183f81610670565b61184a6106a3613f68565b6101959060ff8019835416911515161790556000604051f35b503461000e57600036600319011261000e5760206001600160a01b0360fb5416604051908152f35b503461000e5760008060031936011261063d5760405190806066546118af816127c4565b8085529160019180831690811561061c57506001146118d8576105bd856105b1818703826109a8565b9250606683527f46501879b8ca8525e8c2fd519e2fbfcfa2ebea26501294aa02cbfcfb12e943545b82841061191b5750505081016020016105b1826105bd6105a1565b80546020858701810191909152909301928101611900565b503461000e57600036600319011261000e5760206101955460ff60405191831c1615158152f35b503461000e57604036600319011261000e57611974610719565b60243561198081610670565b6001600160a01b03821691823314611a0357816119c06119d19233600052606a6020526040600020906001600160a01b0316600052602052604060002090565b9060ff801983541691151516179055565b604051901515815233907f17307eab39ab6107e8899845ad3d59bd9653f200f220920489ca2b5937696c3190602090a3005b60405162461bcd60e51b815260206004820152601960248201527f4552433732313a20617070726f766520746f2063616c6c6572000000000000006044820152606490fd5b9181601f8401121561000e5782359167ffffffffffffffff831161000e576020838186019501011161000e57565b503461000e57604036600319011261000e5767ffffffffffffffff60243581811161000e57611aa9903690600401611a48565b9190611ab3612fa4565b611aea6005604051809560209481611acc878501613cca565b9182370164173539b7b760d91b815203601a198101865201846109a8565b600091600435835261019b825260408320918451918211611bc3575b611b1a82611b1485546127c4565b85613448565b80601f8311600114611b565750839482939492611b4b575b50508160011b916000199060031b1c1916179055604051f35b015190503880611b32565b90601f19831695611b6c85600052602060002090565b9286905b888210611bab57505083600195969710611b92575b505050811b019055604051f35b015160001960f88460031b161c19169055388080611b85565b80600185968294968601518155019501930190611b70565b611bcb61094c565b611b06565b503461000e57602036600319011261000e57611bed6106a3613f68565b60043561019455005b503461000e57608036600319011261000e57611c10610719565b611c1861072f565b6064359167ffffffffffffffff831161000e57611c3c6107c9933690600401610a2c565b91604435916129cf565b503461000e57600036600319011261000e57602061019454604051908152f35b503461000e57602036600319011261000e57600435611c8481610670565b611c8f6106a3613f68565b610195805463ff000000191691151560181b63ff00000016919091179055005b503461000e57602036600319011261000e576105bd611ccf60043561405d565b60405191829160208352602083019061052a565b503461000e5760a036600319011261000e5767ffffffffffffffff60043581811161000e57611d16903690600401611a48565b919060243591821161000e57611d33611d8b923690600401611a48565b611d3b610745565b90611d4461075b565b9260005496611d6a60ff8960081c16158099819a611e09575b8115611de9575b50613050565b87611d7d600160ff196000541617600055565b611dd0575b608435956130c2565b611d9157005b611da161ff001960005416600055565b604051600181527f7f26b83ff96e1f2b6a682f133852f6798a09c465da95921460cefb384740249890602090a1005b611de461010061ff00196000541617600055565b611d82565b303b15915081611dfb575b5038611d64565b6001915060ff161438611df4565b600160ff8216109150611d5d565b503461000e57604036600319011261000e5760043560243567ffffffffffffffff811161000e57611edc611e52611ee1923690600401611308565b61019554611e659060181c60ff16613ab1565b611e99601e611e9287611e8c336001600160a01b031660005261019d602052604060002090565b546136e5565b1115613b08565b6040513360601b6bffffffffffffffffffffffff191660208201908152611ed791611ec78160348101611471565b5190209261019654923691613b54565b613c05565b613bb9565b60005b818110611f2e576107c9610c2f83611f1481611e8c336001600160a01b031660005261019d602052604060002090565b33600090815261019d6020526040902055610192546136e5565b611f6890610c83610c79610192611f49610c478583546136e5565b611f568154610c5a6127fe565b5460005261019c602052604060002090565b611ee4565b503461000e57600036600319011261000e57602060ff6101955460101c166040519015158152f35b503461000e57604036600319011261000e57602060ff611fec611fb6610719565b6001600160a01b03611fc661072f565b9116600052606a84526040600020906001600160a01b0316600052602052604060002090565b54166040519015158152f35b503461000e57612007366114f5565b61200f612fa4565b805167ffffffffffffffff81116120d5575b610199906120388161203384546127c4565b6132f4565b602080601f831160011461206757508192936000926115905750508160011b916000199060031b1c1916179055005b90601f1983169461209b6101996000527f960942b7bcefc06c4573016a89cb45882597f73bb18f9afb0df2c0e01c496e1b90565b926000905b8782106120bd5750508360019596106115f257505050811b019055005b806001859682949686015181550195019301906120a0565b6120dd61094c565b612021565b503461000e57602036600319011261000e576120fc610719565b612104612fa4565b6001600160a01b038091169081156121585760009160fb5491816001600160a01b031984161760fb5560405192167f8be0079c531659141344cd1fd0a4f28419497f9722a3daafe3b4186f6b6457e08484a3f35b60405162461bcd60e51b815260206004820152602660248201527f4f776e61626c653a206e6577206f776e657220697320746865207a65726f206160448201526564647265737360d01b6064820152608490fd5b156121b357565b60405162461bcd60e51b815260206004820152602c60248201527f46756e6374696f6e206d7573742062652063616c6c6564207468726f7567682060448201526b19195b1959d85d1958d85b1b60a21b6064820152608490fd5b1561221457565b60405162461bcd60e51b815260206004820152602c60248201527f46756e6374696f6e206d7573742062652063616c6c6564207468726f7567682060448201526b6163746976652070726f787960a01b6064820152608490fd5b9081602091031261000e575190565b506040513d6000823e3d90fd5b1561229157565b60405162461bcd60e51b815260206004820152602960248201527f45524331393637557067726164653a20756e737570706f727465642070726f786044820152681a58589b195555525160ba1b6064820152608490fd5b906123147f4910fdfa16fed3260ed0e7147f7cc6da11a60208b5b9406d12a635614ffd91435460ff1690565b1561232557506123239061252e565b565b6040516352d1902d60e01b8152916020836004816001600160a01b0385165afa600093816123e6575b506123b35760405162461bcd60e51b815260206004820152602e60248201527f45524331393637557067726164653a206e657720696d706c656d656e7461746960448201526d6f6e206973206e6f74205555505360901b6064820152608490fd5b0390fd5b6123e17f360894a13ba1a3210667c828492db98dca3e2076cc3735a920a3ca505d382bbc612323941461228a565b6125cc565b61240891945060203d811161240f575b61240081836109a8565b81019061226e565b923861234e565b503d6123f6565b906124427f4910fdfa16fed3260ed0e7147f7cc6da11a60208b5b9406d12a635614ffd91435460ff1690565b1561245157506123239061252e565b6040516352d1902d60e01b8152916020836004816001600160a01b0385165afa6000938161250e575b506124db5760405162461bcd60e51b815260206004820152602e60248201527f45524331393637557067726164653a206e657720696d706c656d656e7461746960448201526d6f6e206973206e6f74205555505360901b6064820152608490fd5b6125097f360894a13ba1a3210667c828492db98dca3e2076cc3735a920a3ca505d382bbc612323941461228a565b612688565b61252791945060203d811161240f5761240081836109a8565b923861247a565b803b15612571576001600160a01b037f360894a13ba1a3210667c828492db98dca3e2076cc3735a920a3ca505d382bbc91166001600160a01b0319825416179055565b60405162461bcd60e51b815260206004820152602d60248201527f455243313936373a206e657720696d706c656d656e746174696f6e206973206e60448201526c1bdd08184818dbdb9d1c9858dd609a1b6064820152608490fd5b6125d58161252e565b604051906001600160a01b0381167fbc7cd75a20ee27fd9adebab32041f755214dbc6bffa90cc0225b39da2e5c2d3b600084a2825115801590612680575b61261c57505050565b60008061267d9461262c85610963565b602785527f416464726573733a206c6f772d6c6576656c2064656c65676174652063616c6c6020860152660819985a5b195960ca1b6040860152602081519101845af4612677612d49565b91612e9a565b50565b506000612613565b6126918161252e565b604051906001600160a01b0381167fbc7cd75a20ee27fd9adebab32041f755214dbc6bffa90cc0225b39da2e5c2d3b600084a28251158015906126d75761261c57505050565b506001612613565b6001600160a01b031680156126ff57600052606860205260406000205490565b60405162461bcd60e51b815260206004820152602960248201527f4552433732313a2061646472657373207a65726f206973206e6f7420612076616044820152683634b21037bbb732b960b91b6064820152608490fd5b1561275d57565b60405162461bcd60e51b815260206004820152601860248201527f4552433732313a20696e76616c696420746f6b656e20494400000000000000006044820152606490fd5b60005260676020526001600160a01b0360406000205416610560811515612756565b90600182811c921680156127f4575b60208310146127de57565b634e487b7160e01b600052602260045260246000fd5b91607f16916127d3565b60405190600082610199918254612814816127c4565b8084529360019180831690811561289a575060011461283c575b5050612323925003836109a8565b600090815291507f960942b7bcefc06c4573016a89cb45882597f73bb18f9afb0df2c0e01c496e1b5b84831061287f57506123239350508101602001388061282e565b81935090816020925483858a01015201910190918592612865565b9550505050505060ff191660208301526123238260408101388061282e565b156128c057565b60405162461bcd60e51b815260206004820152603d60248201527f4552433732313a20617070726f76652063616c6c6572206973206e6f7420746f60448201527f6b656e206f776e6572206f7220617070726f76656420666f7220616c6c0000006064820152608490fd5b61295361294e8260005260676020526001600160a01b0360406000205416151590565b612756565b60005260696020526001600160a01b036040600020541690565b1561297457565b60405162461bcd60e51b815260206004820152602d60248201527f4552433732313a2063616c6c6572206973206e6f7420746f6b656e206f776e6560448201526c1c881bdc88185c1c1c9bdd9959609a1b6064820152608490fd5b906129f39392916129e3610b288433612a5a565b6129ee838383612b35565b612d79565b156129fa57565b60405162461bcd60e51b815260206004820152603260248201527f4552433732313a207472616e7366657220746f206e6f6e20455243373231526560448201527131b2b4bb32b91034b6b83632b6b2b73a32b960711b6064820152608490fd5b6001600160a01b0380612a6c846127a2565b169281831692848414948515612aa2575b50508315612a8c575b50505090565b612a989192935061292b565b1614388080612a86565b60ff92955090612ad191600052606a6020526040600020906001600160a01b0316600052602052604060002090565b5416923880612a7d565b15612ae257565b60405162461bcd60e51b815260206004820152602560248201527f4552433732313a207472616e736665722066726f6d20696e636f72726563742060448201526437bbb732b960d91b6064820152608490fd5b612b5990612b42846127a2565b6001600160a01b0382811693909182168414612adb565b8316928315612c4e57612bca82612b748784612c25966141c8565b612b8a85612b84610bb98a6127a2565b14612adb565b612bb1612ba1886000526069602052604060002090565b80546001600160a01b0319169055565b6001600160a01b03166000526068602052604060002090565b6000198154019055612bef816001600160a01b03166000526068602052604060002090565b60018154019055612c0a856000526067602052604060002090565b906001600160a01b03166001600160a01b0319825416179055565b7fddf252ad1be2c89b69c2b068fc378daa952ba7f163c4a11628f55a4df523b3ef6000604051a4565b60405162461bcd60e51b8152602060048201526024808201527f4552433732313a207472616e7366657220746f20746865207a65726f206164646044820152637265737360e01b6064820152608490fd5b600082815260696020526040902080546001600160a01b0319166001600160a01b0383161790556001600160a01b0380612cd8846127a2565b169116907f8c5be1e5ebec7d5bd14f71427d1e84f3dd0314c0f7b2291e5b200ac8c7c3b9256000604051a4565b9081602091031261000e575161056081610440565b909261056094936080936001600160a01b0380921684521660208301526040820152816060820152019061052a565b3d15612d74573d90612d5a826109ca565b91612d6860405193846109a8565b82523d6000602084013e565b606090565b92909190823b15612e7a57612db49260209260006001600160a01b03604051809781968295630a85bd0160e11b9b8c85523360048601612d1a565b0393165af160009181612e4a575b50612e3c57612dcf612d49565b80519081612e375760405162461bcd60e51b815260206004820152603260248201527f4552433732313a207472616e7366657220746f206e6f6e20455243373231526560448201527131b2b4bb32b91034b6b83632b6b2b73a32b960711b6064820152608490fd5b602001fd5b6001600160e01b0319161490565b612e6c91925060203d8111612e73575b612e6481836109a8565b810190612d05565b9038612dc2565b503d612e5a565b50505050600190565b50634e487b7160e01b600052603260045260246000fd5b91929015612efc5750815115612eae575090565b3b15612eb75790565b60405162461bcd60e51b815260206004820152601d60248201527f416464726573733a2063616c6c20746f206e6f6e2d636f6e74726163740000006044820152606490fd5b825190915015612f0f5750805190602001fd5b60405162461bcd60e51b81529081906123af906004830161054f565b15612f3257565b60405162461bcd60e51b815260206004820152602b60248201527f496e697469616c697a61626c653a20636f6e7472616374206973206e6f74206960448201526a6e697469616c697a696e6760a81b6064820152608490fd5b612f9c60ff60005460081c16612f2b565b612323612ffc565b6001600160a01b0360fb54163303612fb857565b606460405162461bcd60e51b815260206004820152602060248201527f4f776e61626c653a2063616c6c6572206973206e6f7420746865206f776e65726044820152fd5b60fb546001600160a01b03737e8ae5c72eca86946b695dcc211863d9721a09619182821982161760fb55167f8be0079c531659141344cd1fd0a4f28419497f9722a3daafe3b4186f6b6457e06000604051a3565b1561305757565b60405162461bcd60e51b815260206004820152602e60248201527f496e697469616c697a61626c653a20636f6e747261637420697320616c72656160448201527f647920696e697469616c697a65640000000000000000000000000000000000006064820152608490fd5b6130d5906130dd939296959636916109f5565b9236916109f5565b906130f860ff60005460081c166130f381612f2b565b612f2b565b80519067ffffffffffffffff8211613275575b61311f8261311a6065546127c4565b613366565b60209081601f84116001146131e0575092826131cf9593613162936123239998966000926131d5575b50508160011b916000199060031b1c19161760655561349c565b61316a613671565b613172612f8b565b610195805464ffffffffff1916905561271061019755613193600161019255565b61019f80546001600160a01b0319166001600160a01b03938416179055166001600160a01b036101a091166001600160a01b0319825416179055565b61019455565b015190503880613148565b60656000529190601f1984167f8ff97419363ffd7000167f130ef7168fbea05faf9251824ca5043f113cc6a7c7936000905b82821061325d575050936131629361232399989693600193836131cf9a9810613244575b505050811b0160655561349c565b015160001960f88460031b161c19169055388080613236565b80600186978294978701518155019601940190613212565b61327d61094c565b61310b565b601f811161328e575050565b60009061019882527f3f539f465397ab387efa93a617e37005205c037386b5b474fcfac82f47f77f0d906020601f850160051c830194106132ea575b601f0160051c01915b8281106132df57505050565b8181556001016132d3565b90925082906132ca565b601f8111613300575050565b60009061019982527f960942b7bcefc06c4573016a89cb45882597f73bb18f9afb0df2c0e01c496e1b906020601f850160051c8301941061335c575b601f0160051c01915b82811061335157505050565b818155600101613345565b909250829061333c565b601f8111613372575050565b600090606582527f8ff97419363ffd7000167f130ef7168fbea05faf9251824ca5043f113cc6a7c7906020601f850160051c830194106133cd575b601f0160051c01915b8281106133c257505050565b8181556001016133b6565b90925082906133ad565b601f81116133e3575050565b600090606682527f46501879b8ca8525e8c2fd519e2fbfcfa2ebea26501294aa02cbfcfb12e94354906020601f850160051c8301941061343e575b601f0160051c01915b82811061343357505050565b818155600101613427565b909250829061341e565b90601f811161345657505050565b600091825260208220906020601f850160051c83019410613492575b601f0160051c01915b82811061348757505050565b81815560010161347b565b9092508290613472565b90815167ffffffffffffffff8111613587575b6134c3816134be6066546127c4565b6133d7565b602080601f83116001146134ff57508192936000926134f4575b50508160011b916000199060031b1c191617606655565b0151905038806134dd565b90601f1983169461353260666000527f46501879b8ca8525e8c2fd519e2fbfcfa2ebea26501294aa02cbfcfb12e9435490565b926000905b87821061356f575050836001959610613556575b505050811b01606655565b015160001960f88460031b161c1916905538808061354b565b80600185968294968601518155019501930190613537565b61358f61094c565b6134af565b919091825167ffffffffffffffff8111613664575b6135bd816135b784546127c4565b84613448565b602080601f83116001146135f95750819293946000926135ee575b50508160011b916000199060031b1c1916179055565b0151905038806135d8565b90601f1983169561360f85600052602060002090565b926000905b88821061364c57505083600195969710613633575b505050811b019055565b015160001960f88460031b161c19169055388080613629565b80600185968294968601518155019501930190613614565b61366c61094c565b6135a9565b61232360ff60005460081c16612f2b565b1561368957565b60405162461bcd60e51b815260206004820152601f60248201527f546865207469636b65742073616c65206973206e6f7420656e61626c656421006044820152606490fd5b50634e487b7160e01b600052601160045260246000fd5b811981116136f1570190565b6136f96136ce565b0190565b1561370457565b60405162461bcd60e51b815260206004820152601160248201527f457863656564206d617820616d6f756e740000000000000000000000000000006044820152606490fd5b9081602091031261000e575161056081610670565b60019060001981146136f1570190565b1561377557565b60405162461bcd60e51b815260206004820152601c60248201527f4552433732313a20746f6b656e20616c7265616479206d696e746564000000006044820152606490fd5b6001600160a01b03811690811561389057613866906137f86137f28560005260676020526001600160a01b0360406000205416151590565b1561376e565b6138018461432d565b61380b84826142f4565b61382e6137f28560005260676020526001600160a01b0360406000205416151590565b61384b816001600160a01b03166000526068602052604060002090565b60018154019055612c0a846000526067602052604060002090565b60007fddf252ad1be2c89b69c2b068fc378daa952ba7f163c4a11628f55a4df523b3ef81604051a4565b606460405162461bcd60e51b815260206004820152602060248201527f4552433732313a206d696e7420746f20746865207a65726f20616464726573736044820152fd5b9190916138f78160005260676020526001600160a01b0360406000205416151590565b15613a46578060005260206097815260406000209084519067ffffffffffffffff8211613a39575b61392d82611b1485546127c4565b80601f83116001146139a2575090806139929493927ff8e1a15aba9398e019f0b49df1a4fde98ee17ae345cb5f6b5e2c27f5033e8ce79697600092613997575b50508160011b916000199060031b1c19161790555b6040519081529081906020820190565b0390a1565b01519050388061396d565b90601f198316966139b885600052602060002090565b926000905b898210613a215750509183916001936139929796957ff8e1a15aba9398e019f0b49df1a4fde98ee17ae345cb5f6b5e2c27f5033e8ce7999a10613a08575b505050811b019055613982565b015160001960f88460031b161c191690553880806139fb565b806001859682949686015181550195019301906139bd565b613a4161094c565b61391f565b60405162461bcd60e51b815260206004820152602e60248201527f45524337323155524953746f726167653a2055524920736574206f66206e6f6e60448201527f6578697374656e7420746f6b656e0000000000000000000000000000000000006064820152608490fd5b15613ab857565b60405162461bcd60e51b815260206004820152602260248201527f5468652077686974656c6973742073616c65206973206e6f7420656e61626c65604482015261642160f01b6064820152608490fd5b15613b0f57565b60405162461bcd60e51b815260206004820152601a60248201527f457863656564206d61782072657175657374656420636f756e740000000000006044820152606490fd5b90929167ffffffffffffffff8411613bac575b8360051b6040519260208094613b7f828501826109a8565b809781520191810192831161000e57905b828210613b9d5750505050565b81358152908301908301613b90565b613bb461094c565b613b67565b15613bc057565b60405162461bcd60e51b815260206004820152600e60248201527f496e76616c69642070726f6f66210000000000000000000000000000000000006044820152606490fd5b9091906000915b8151831015613c58576020808460051b84010151916000838210600014613c47575060005252613c4160406000205b9261375e565b91613c0c565b90604092613c419483525220613c3b565b9150501490565b15613c6657565b60405162461bcd60e51b815260206004820152601f60248201527f546865207075626c69632073616c65206973206e6f7420656e61626c656421006044820152606490fd5b8060001904821181151516613cbe570290565b613cc66136ce565b0290565b90600091610198908154613cdd816127c4565b92600191808316908115613d515750600114613cfa575b50505050565b9091929394506000527f3f539f465397ab387efa93a617e37005205c037386b5b474fcfac82f47f77f0d906000915b848310613d3e57505050019038808080613cf4565b8181602092548587015201920191613d29565b60ff1916845250505001915038808080613cf4565b908092918237016000815290565b15613d7b57565b60405162461bcd60e51b815260206004820152600f60248201527f4e6f7420796574207374617274656400000000000000000000000000000000006044820152606490fd5b15613dc757565b60405162461bcd60e51b815260206004820152600f60248201527f496e76616c6964204261736555524900000000000000000000000000000000006044820152606490fd5b15613e1357565b60405162461bcd60e51b815260206004820152602160248201527f546865206e657874207363656e6172696f206973206e6f7420656e61626c65646044820152602160f81b6064820152608490fd5b9190811015613e73575b60051b0190565b613e7b612e83565b613e6c565b15613e8757565b60405162461bcd60e51b815260206004820152601860248201527f546f6b656e206f776e6572206973206e6f742066616c736500000000000000006044820152606490fd5b15613ed357565b60405162461bcd60e51b815260206004820152601760248201527f416c72656164792052657665616c656420746f6b656e210000000000000000006044820152606490fd5b9190811015613f5b575b60051b81013590601e198136030182121561000e57019081359167ffffffffffffffff831161000e57602001823603811361000e579190565b613f63612e83565b613f22565b604051906040820182811067ffffffffffffffff821117613f9e575b60405260088252673232b83637bcb2b960c11b6020830152565b613fa661094c565b613f84565b15613fb257565b60405162461bcd60e51b815260206004820152600e60248201527f4e6f7420617574686f72697a65640000000000000000000000000000000000006044820152606490fd5b6001600160a01b03908161019e541691823b1561000e5760246000928360405195869485936319549d1d60e11b85521660048401525af18015614050575b61403c5750565b67ffffffffffffffff811161097f57604052565b61405861227d565b614035565b61407d8160005260676020526001600160a01b0360406000205416151590565b1561415d5760ff6140998260005261019c602052604060002090565b541615614154576140b59060005261019b602052604060002090565b604051908160008254926140c8846127c4565b90818452600194858116908160001461413557506001146140f2575b5050610560925003826109a8565b9093915060005260209081600020936000915b81831061411d575050610560935082010138806140e4565b85548784018501529485019486945091830191614105565b9550505050505060ff19166020820152610560816040810138806140e4565b506105606127fe565b60405162461bcd60e51b815260206004820152603160248201527f45524337323155524953746f726167653a2055524920717565727920666f722060448201527f6e6f6e6578697374656e7420746f6b656e0000000000000000000000000000006064820152608490fd5b9091906001600160a01b03808216918261420b57506141e68361432d565b8316806141f957505061232391506143a6565b03614202575050565b612323916142f4565b818516830361421b575b506141e6565b614224816126df565b600181106142e7575b6000190161427c60009286845260ca602052604084205483810361428d575b50836142628860005260ca602052604060002090565b556001600160a01b031660005260c9602052604060002090565b908252602052604081205538614215565b86855260c9602052604085208486526020526142e060408620546142c4846001600160a01b031660005260c9602052604060002090565b83885260205280604088205560005260ca602052604060002090565b553861424c565b6142ef6136ce565b61422d565b604090614300816126df565b926001600160a01b0360009216825260c96020528282208483526020528083832055815260ca6020522055565b60cb548160005260cc6020528060406000205568010000000000000000811015614399575b600181018060cb5581101561438c575b60cb6000527fa7ce836d032b2bf62b7e2097a8e0a6d8aeb35405ad15271e96d3b0188a1d06fb0155565b614394612e83565b614362565b6143a161094c565b614352565b60cb8054600181106144ae575b60009083825260cc60205281614455604082205495600019968488810110156144a1575b8684526144447fa7ce836d032b2bf62b7e2097a8e0a6d8aeb35405ad15271e96d3b0188a1d06fa958681015490831015614494575b88865280837fa7ce836d032b2bf62b7e2097a8e0a6d8aeb35405ad15271e96d3b0188a1d06fb015560005260cc602052604060002090565b5560005260cc602052604060002090565b5582549384156144805784019380851015614473575b838352015555565b61447b612e83565b61446b565b634e487b7160e01b83526031600452602483fd5b61449c612e83565b61440c565b6144a9612e83565b6143d7565b6144b66136ce565b6143b356fea2646970667358221220ffb34c0fe20e64c2b4fe8195d91ff621bdc21734a1b5d7af5fe2d705e30d2f8d64736f6c634300080e0033",
  "devdoc": {
    "kind": "dev",
    "methods": {
      "approve(address,uint256)": {
        "details": "See {IERC721-approve}."
      },
      "balanceOf(address)": {
        "details": "See {IERC721-balanceOf}."
      },
      "getApproved(uint256)": {
        "details": "See {IERC721-getApproved}."
      },
      "isApprovedForAll(address,address)": {
        "details": "See {IERC721-isApprovedForAll}."
      },
      "mintingInformation()": {
        "details": "Returns. About Minting"
      },
      "name()": {
        "details": "See {IERC721Metadata-name}."
      },
      "owner()": {
        "details": "Returns the address of the current owner."
      },
      "ownerOf(uint256)": {
        "details": "See {IERC721-ownerOf}."
      },
      "proxiableUUID()": {
        "details": "Implementation of the ERC1822 {proxiableUUID} function. This returns the storage slot used by the implementation. It is used to validate the implementation's compatibility when performing an upgrade. IMPORTANT: A proxy pointing at a proxiable contract should not be considered proxiable itself, because this risks bricking a proxy that upgrades to it, by delegating to itself until out of gas. Thus it is critical that this function revert if invoked through a proxy. This is guaranteed by the `notDelegated` modifier."
      },
      "publicMint(uint256)": {
        "details": "A function that anyone can mint. Before reveal, it is minted in the unreveal state",
        "params": {
          "requestedCount": "quantity to mint"
        }
      },
      "renounceOwnership()": {
        "details": "Leaves the contract without owner. It will not be possible to call `onlyOwner` functions anymore. Can only be called by the current owner. NOTE: Renouncing ownership will leave the contract without an owner, thereby removing any functionality that is only available to the owner."
      },
      "repairTokenURI(uint256,string)": {
        "details": "A function that can be repaired in the event of an unintended error when revealed. Only the owner can execute it",
        "params": {
          "tokenHash": "The unique hash value of the token",
          "tokenId": "The ID of the token you want to repair"
        }
      },
      "revealTokens(uint256[],string[])": {
        "details": "A function that revises tokens that have not yet been revealed. It issues tokens in the next scenario at the same time",
        "params": {
          "tokenHash": "The unique hash value of the token",
          "tokenIds": "The ID of the tokens you want to reveal"
        }
      },
      "safeTransferFrom(address,address,uint256)": {
        "details": "See {IERC721-safeTransferFrom}."
      },
      "safeTransferFrom(address,address,uint256,bytes)": {
        "details": "See {IERC721-safeTransferFrom}."
      },
      "setApprovalForAll(address,bool)": {
        "details": "See {IERC721-setApprovalForAll}."
      },
      "setBaseURI(string)": {
        "details": "Set base URI of reveal tokens. Only the owner can do it",
        "params": {
          "_newBaseURI": "Base URI of revealed tokens"
        }
      },
      "setMerkleRoot(bytes32)": {
        "details": "Functions that set the required Merklute of whitelist validation",
        "params": {
          "_merkleRoot": "White List's Merkle root"
        }
      },
      "setNextScenarioConenct(address)": {
        "details": "Functions that associate with the following collection of scenarios",
        "params": {
          "nextScenario": "Address of the next scenario contract"
        }
      },
      "setNotRevealedURI(string)": {
        "details": "Set base URI of unreveal tokens. Only the owner can do it",
        "params": {
          "_newNotRevealedURI": "Base URI of unreveal tokens"
        }
      },
      "setPublicMintState(bool)": {
        "details": "A function that allows users to start mint",
        "params": {
          "_state": "True & False, Allow mint"
        }
      },
      "setRevealState(bool)": {
        "details": "A function that allows users to start reveal",
        "params": {
          "_state": "True & False, Allow reveal"
        }
      },
      "setTicketMintState(bool)": {
        "details": "Functions that allow users to initiate ticket minting",
        "params": {
          "_state": "True & False, Allow ticket Minting"
        }
      },
      "setWhitelistMintState(bool)": {
        "details": "Functions that allow users to initiate whitelist minting",
        "params": {
          "_state": "True & False, Allow Whitelist Minting"
        }
      },
      "setupSale(uint256)": {
        "details": "Prevent bot, set timer to start minting, only owner can run",
        "params": {
          "mintPrice": "Setup Mint price"
        }
      },
      "supportsInterface(bytes4)": {
        "details": "See {IERC165-supportsInterface}"
      },
      "symbol()": {
        "details": "See {IERC721Metadata-symbol}."
      },
      "ticketMint(uint256)": {
        "details": "Only those who have tickets can mint.",
        "params": {
          "requestedCount": "quantity to mint"
        }
      },
      "tokenByIndex(uint256)": {
        "details": "See {IERC721Enumerable-tokenByIndex}."
      },
      "tokenOfOwnerByIndex(address,uint256)": {
        "details": "See {IERC721Enumerable-tokenOfOwnerByIndex}."
      },
      "tokenURI(uint256)": {
        "details": "Returns the Uniform Resource Identifier (URI) for `tokenId` token"
      },
      "totalSupply()": {
        "details": "See {IERC721Enumerable-totalSupply}."
      },
      "transferFrom(address,address,uint256)": {
        "details": "See {IERC721-transferFrom}."
      },
      "transferOwnership(address)": {
        "details": "Transfers ownership of the contract to a new account (`newOwner`). Can only be called by the current owner."
      },
      "upgradeTo(address)": {
        "custom:oz-upgrades-unsafe-allow-reachable": "delegatecall",
        "details": "Upgrade the implementation of the proxy to `newImplementation`. Calls {_authorizeUpgrade}. Emits an {Upgraded} event."
      },
      "upgradeToAndCall(address,bytes)": {
        "custom:oz-upgrades-unsafe-allow-reachable": "delegatecall",
        "details": "Upgrade the implementation of the proxy to `newImplementation`, and subsequently execute the function call encoded in `data`. Calls {_authorizeUpgrade}. Emits an {Upgraded} event."
      },
      "whitelistMint(uint256,bytes32[])": {
        "details": "Functions that only validated whitelists can mint",
        "params": {
          "_merkleProof": "Array of Merkle Trees",
          "requestedCount": "quantity to mint"
        }
      }
    },
    "version": 1
  },
  "userdoc": {
    "kind": "user",
    "methods": {},
    "version": 1
  },
  "storageLayout": {
    "storage": [
      {
        "astId": 687,
        "contract": "contracts/voting/ScenarioOneV2.sol:PERIv2",
        "label": "_initialized",
        "offset": 0,
        "slot": "0",
        "type": "t_uint8"
      },
      {
        "astId": 690,
        "contract": "contracts/voting/ScenarioOneV2.sol:PERIv2",
        "label": "_initializing",
        "offset": 1,
        "slot": "0",
        "type": "t_bool"
      },
      {
        "astId": 4108,
        "contract": "contracts/voting/ScenarioOneV2.sol:PERIv2",
        "label": "__gap",
        "offset": 0,
        "slot": "1",
        "type": "t_array(t_uint256)50_storage"
      },
      {
        "astId": 5020,
        "contract": "contracts/voting/ScenarioOneV2.sol:PERIv2",
        "label": "__gap",
        "offset": 0,
        "slot": "51",
        "type": "t_array(t_uint256)50_storage"
      },
      {
        "astId": 2010,
        "contract": "contracts/voting/ScenarioOneV2.sol:PERIv2",
        "label": "_name",
        "offset": 0,
        "slot": "101",
        "type": "t_string_storage"
      },
      {
        "astId": 2012,
        "contract": "contracts/voting/ScenarioOneV2.sol:PERIv2",
        "label": "_symbol",
        "offset": 0,
        "slot": "102",
        "type": "t_string_storage"
      },
      {
        "astId": 2016,
        "contract": "contracts/voting/ScenarioOneV2.sol:PERIv2",
        "label": "_owners",
        "offset": 0,
        "slot": "103",
        "type": "t_mapping(t_uint256,t_address)"
      },
      {
        "astId": 2020,
        "contract": "contracts/voting/ScenarioOneV2.sol:PERIv2",
        "label": "_balances",
        "offset": 0,
        "slot": "104",
        "type": "t_mapping(t_address,t_uint256)"
      },
      {
        "astId": 2024,
        "contract": "contracts/voting/ScenarioOneV2.sol:PERIv2",
        "label": "_tokenApprovals",
        "offset": 0,
        "slot": "105",
        "type": "t_mapping(t_uint256,t_address)"
      },
      {
        "astId": 2030,
        "contract": "contracts/voting/ScenarioOneV2.sol:PERIv2",
        "label": "_operatorApprovals",
        "offset": 0,
        "slot": "106",
        "type": "t_mapping(t_address,t_mapping(t_address,t_bool))"
      },
      {
        "astId": 2932,
        "contract": "contracts/voting/ScenarioOneV2.sol:PERIv2",
        "label": "__gap",
        "offset": 0,
        "slot": "107",
        "type": "t_array(t_uint256)44_storage"
      },
      {
        "astId": 3513,
        "contract": "contracts/voting/ScenarioOneV2.sol:PERIv2",
        "label": "_tokenURIs",
        "offset": 0,
        "slot": "151",
        "type": "t_mapping(t_uint256,t_string_storage)"
      },
      {
        "astId": 3669,
        "contract": "contracts/voting/ScenarioOneV2.sol:PERIv2",
        "label": "__gap",
        "offset": 0,
        "slot": "152",
        "type": "t_array(t_uint256)49_storage"
      },
      {
        "astId": 3137,
        "contract": "contracts/voting/ScenarioOneV2.sol:PERIv2",
        "label": "_ownedTokens",
        "offset": 0,
        "slot": "201",
        "type": "t_mapping(t_address,t_mapping(t_uint256,t_uint256))"
      },
      {
        "astId": 3141,
        "contract": "contracts/voting/ScenarioOneV2.sol:PERIv2",
        "label": "_ownedTokensIndex",
        "offset": 0,
        "slot": "202",
        "type": "t_mapping(t_uint256,t_uint256)"
      },
      {
        "astId": 3144,
        "contract": "contracts/voting/ScenarioOneV2.sol:PERIv2",
        "label": "_allTokens",
        "offset": 0,
        "slot": "203",
        "type": "t_array(t_uint256)dyn_storage"
      },
      {
        "astId": 3148,
        "contract": "contracts/voting/ScenarioOneV2.sol:PERIv2",
        "label": "_allTokensIndex",
        "offset": 0,
        "slot": "204",
        "type": "t_mapping(t_uint256,t_uint256)"
      },
      {
        "astId": 3492,
        "contract": "contracts/voting/ScenarioOneV2.sol:PERIv2",
        "label": "__gap",
        "offset": 0,
        "slot": "205",
        "type": "t_array(t_uint256)46_storage"
      },
      {
        "astId": 13012,
        "contract": "contracts/voting/ScenarioOneV2.sol:PERIv2",
        "label": "_owner",
        "offset": 0,
        "slot": "251",
        "type": "t_address"
      },
      {
        "astId": 13132,
        "contract": "contracts/voting/ScenarioOneV2.sol:PERIv2",
        "label": "__gap",
        "offset": 0,
        "slot": "252",
        "type": "t_array(t_uint256)49_storage"
      },
      {
        "astId": 13144,
        "contract": "contracts/voting/ScenarioOneV2.sol:PERIv2",
        "label": "hasRole",
        "offset": 0,
        "slot": "301",
        "type": "t_mapping(t_address,t_mapping(t_string_memory_ptr,t_bool))"
      },
      {
        "astId": 669,
        "contract": "contracts/voting/ScenarioOneV2.sol:PERIv2",
        "label": "__gap",
        "offset": 0,
        "slot": "302",
        "type": "t_array(t_uint256)50_storage"
      },
      {
        "astId": 985,
        "contract": "contracts/voting/ScenarioOneV2.sol:PERIv2",
        "label": "__gap",
        "offset": 0,
        "slot": "352",
        "type": "t_array(t_uint256)50_storage"
      },
      {
        "astId": 35459,
        "contract": "contracts/voting/ScenarioOneV2.sol:PERIv2",
        "label": "mintIndexForSale",
        "offset": 0,
        "slot": "402",
        "type": "t_uint256"
      },
      {
        "astId": 35461,
        "contract": "contracts/voting/ScenarioOneV2.sol:PERIv2",
        "label": "mintStartBlockNumber",
        "offset": 0,
        "slot": "403",
        "type": "t_uint256"
      },
      {
        "astId": 35463,
        "contract": "contracts/voting/ScenarioOneV2.sol:PERIv2",
        "label": "MINT_PRICE",
        "offset": 0,
        "slot": "404",
        "type": "t_uint256"
      },
      {
        "astId": 35465,
        "contract": "contracts/voting/ScenarioOneV2.sol:PERIv2",
        "label": "isRevealed",
        "offset": 0,
        "slot": "405",
        "type": "t_bool"
      },
      {
        "astId": 35467,
        "contract": "contracts/voting/ScenarioOneV2.sol:PERIv2",
        "label": "isEnabledPublicMint",
        "offset": 1,
        "slot": "405",
        "type": "t_bool"
      },
      {
        "astId": 35469,
        "contract": "contracts/voting/ScenarioOneV2.sol:PERIv2",
        "label": "isEnabledTicketMint",
        "offset": 2,
        "slot": "405",
        "type": "t_bool"
      },
      {
        "astId": 35471,
        "contract": "contracts/voting/ScenarioOneV2.sol:PERIv2",
        "label": "isEnabledWhitelistMint",
        "offset": 3,
        "slot": "405",
        "type": "t_bool"
      },
      {
        "astId": 35473,
        "contract": "contracts/voting/ScenarioOneV2.sol:PERIv2",
        "label": "isEnabledNextScenario",
        "offset": 4,
        "slot": "405",
        "type": "t_bool"
      },
      {
        "astId": 35475,
        "contract": "contracts/voting/ScenarioOneV2.sol:PERIv2",
        "label": "merkleRoot",
        "offset": 0,
        "slot": "406",
        "type": "t_bytes32"
      },
      {
        "astId": 35477,
        "contract": "contracts/voting/ScenarioOneV2.sol:PERIv2",
        "label": "MAX_SALE_AMOUNT",
        "offset": 0,
        "slot": "407",
        "type": "t_uint256"
      },
      {
        "astId": 35479,
        "contract": "contracts/voting/ScenarioOneV2.sol:PERIv2",
        "label": "baseURI",
        "offset": 0,
        "slot": "408",
        "type": "t_string_storage"
      },
      {
        "astId": 35481,
        "contract": "contracts/voting/ScenarioOneV2.sol:PERIv2",
        "label": "notRevealedURI",
        "offset": 0,
        "slot": "409",
        "type": "t_string_storage"
      },
      {
        "astId": 35485,
        "contract": "contracts/voting/ScenarioOneV2.sol:PERIv2",
        "label": "_lastCallBlockNumber",
        "offset": 0,
        "slot": "410",
        "type": "t_mapping(t_address,t_uint256)"
      },
      {
        "astId": 35489,
        "contract": "contracts/voting/ScenarioOneV2.sol:PERIv2",
        "label": "_tokenURIs",
        "offset": 0,
        "slot": "411",
        "type": "t_mapping(t_uint256,t_string_storage)"
      },
      {
        "astId": 35493,
        "contract": "contracts/voting/ScenarioOneV2.sol:PERIv2",
        "label": "revealChecked",
        "offset": 0,
        "slot": "412",
        "type": "t_mapping(t_uint256,t_bool)"
      },
      {
        "astId": 35497,
        "contract": "contracts/voting/ScenarioOneV2.sol:PERIv2",
        "label": "whitelistMintLimit",
        "offset": 0,
        "slot": "413",
        "type": "t_mapping(t_address,t_uint256)"
      },
      {
        "astId": 35500,
        "contract": "contracts/voting/ScenarioOneV2.sol:PERIv2",
        "label": "_nextScenario",
        "offset": 0,
        "slot": "414",
        "type": "t_contract(INextScenario)37462"
      },
      {
        "astId": 35503,
        "contract": "contracts/voting/ScenarioOneV2.sol:PERIv2",
        "label": "_wETH",
        "offset": 0,
        "slot": "415",
        "type": "t_contract(WETH)37561"
      },
      {
        "astId": 35506,
        "contract": "contracts/voting/ScenarioOneV2.sol:PERIv2",
        "label": "_ticket",
        "offset": 0,
        "slot": "416",
        "type": "t_contract(ITicket)37481"
      }
    ],
    "types": {
      "t_address": {
        "encoding": "inplace",
        "label": "address",
        "numberOfBytes": "20"
      },
      "t_array(t_uint256)44_storage": {
        "base": "t_uint256",
        "encoding": "inplace",
        "label": "uint256[44]",
        "numberOfBytes": "1408"
      },
      "t_array(t_uint256)46_storage": {
        "base": "t_uint256",
        "encoding": "inplace",
        "label": "uint256[46]",
        "numberOfBytes": "1472"
      },
      "t_array(t_uint256)49_storage": {
        "base": "t_uint256",
        "encoding": "inplace",
        "label": "uint256[49]",
        "numberOfBytes": "1568"
      },
      "t_array(t_uint256)50_storage": {
        "base": "t_uint256",
        "encoding": "inplace",
        "label": "uint256[50]",
        "numberOfBytes": "1600"
      },
      "t_array(t_uint256)dyn_storage": {
        "base": "t_uint256",
        "encoding": "dynamic_array",
        "label": "uint256[]",
        "numberOfBytes": "32"
      },
      "t_bool": {
        "encoding": "inplace",
        "label": "bool",
        "numberOfBytes": "1"
      },
      "t_bytes32": {
        "encoding": "inplace",
        "label": "bytes32",
        "numberOfBytes": "32"
      },
      "t_contract(INextScenario)37462": {
        "encoding": "inplace",
        "label": "contract INextScenario",
        "numberOfBytes": "20"
      },
      "t_contract(ITicket)37481": {
        "encoding": "inplace",
        "label": "contract ITicket",
        "numberOfBytes": "20"
      },
      "t_contract(WETH)37561": {
        "encoding": "inplace",
        "label": "contract WETH",
        "numberOfBytes": "20"
      },
      "t_mapping(t_address,t_bool)": {
        "encoding": "mapping",
        "key": "t_address",
        "label": "mapping(address => bool)",
        "numberOfBytes": "32",
        "value": "t_bool"
      },
      "t_mapping(t_address,t_mapping(t_address,t_bool))": {
        "encoding": "mapping",
        "key": "t_address",
        "label": "mapping(address => mapping(address => bool))",
        "numberOfBytes": "32",
        "value": "t_mapping(t_address,t_bool)"
      },
      "t_mapping(t_address,t_mapping(t_string_memory_ptr,t_bool))": {
        "encoding": "mapping",
        "key": "t_address",
        "label": "mapping(address => mapping(string => bool))",
        "numberOfBytes": "32",
        "value": "t_mapping(t_string_memory_ptr,t_bool)"
      },
      "t_mapping(t_address,t_mapping(t_uint256,t_uint256))": {
        "encoding": "mapping",
        "key": "t_address",
        "label": "mapping(address => mapping(uint256 => uint256))",
        "numberOfBytes": "32",
        "value": "t_mapping(t_uint256,t_uint256)"
      },
      "t_mapping(t_address,t_uint256)": {
        "encoding": "mapping",
        "key": "t_address",
        "label": "mapping(address => uint256)",
        "numberOfBytes": "32",
        "value": "t_uint256"
      },
      "t_mapping(t_string_memory_ptr,t_bool)": {
        "encoding": "mapping",
        "key": "t_string_memory_ptr",
        "label": "mapping(string => bool)",
        "numberOfBytes": "32",
        "value": "t_bool"
      },
      "t_mapping(t_uint256,t_address)": {
        "encoding": "mapping",
        "key": "t_uint256",
        "label": "mapping(uint256 => address)",
        "numberOfBytes": "32",
        "value": "t_address"
      },
      "t_mapping(t_uint256,t_bool)": {
        "encoding": "mapping",
        "key": "t_uint256",
        "label": "mapping(uint256 => bool)",
        "numberOfBytes": "32",
        "value": "t_bool"
      },
      "t_mapping(t_uint256,t_string_storage)": {
        "encoding": "mapping",
        "key": "t_uint256",
        "label": "mapping(uint256 => string)",
        "numberOfBytes": "32",
        "value": "t_string_storage"
      },
      "t_mapping(t_uint256,t_uint256)": {
        "encoding": "mapping",
        "key": "t_uint256",
        "label": "mapping(uint256 => uint256)",
        "numberOfBytes": "32",
        "value": "t_uint256"
      },
      "t_string_memory_ptr": {
        "encoding": "bytes",
        "label": "string",
        "numberOfBytes": "32"
      },
      "t_string_storage": {
        "encoding": "bytes",
        "label": "string",
        "numberOfBytes": "32"
      },
      "t_uint256": {
        "encoding": "inplace",
        "label": "uint256",
        "numberOfBytes": "32"
      },
      "t_uint8": {
        "encoding": "inplace",
        "label": "uint8",
        "numberOfBytes": "1"
      }
    }
  }
}