{
  "address": "0xC3B41A68C98476775C85141BA0cD8aCE466a589C",
  "abi": [
    {
      "inputs": [],
      "stateMutability": "nonpayable",
      "type": "constructor"
    },
    {
      "anonymous": false,
      "inputs": [
        {
          "indexed": true,
          "internalType": "address",
          "name": "owner",
          "type": "address"
        },
        {
          "indexed": true,
          "internalType": "address",
          "name": "spender",
          "type": "address"
        },
        {
          "indexed": false,
          "internalType": "uint256",
          "name": "value",
          "type": "uint256"
        }
      ],
      "name": "Approval",
      "type": "event"
    },
    {
      "anonymous": false,
      "inputs": [
        {
          "indexed": false,
          "internalType": "uint8",
          "name": "version",
          "type": "uint8"
        }
      ],
      "name": "Initialized",
      "type": "event"
    },
    {
      "anonymous": false,
      "inputs": [
        {
          "indexed": true,
          "internalType": "address",
          "name": "previousOwner",
          "type": "address"
        },
        {
          "indexed": true,
          "internalType": "address",
          "name": "newOwner",
          "type": "address"
        }
      ],
      "name": "OwnershipTransferred",
      "type": "event"
    },
    {
      "anonymous": false,
      "inputs": [
        {
          "indexed": true,
          "internalType": "address",
          "name": "from",
          "type": "address"
        },
        {
          "indexed": true,
          "internalType": "address",
          "name": "to",
          "type": "address"
        },
        {
          "indexed": false,
          "internalType": "uint256",
          "name": "value",
          "type": "uint256"
        }
      ],
      "name": "Transfer",
      "type": "event"
    },
    {
      "inputs": [],
      "name": "__MWOwnable_init",
      "outputs": [],
      "stateMutability": "nonpayable",
      "type": "function"
    },
    {
      "inputs": [
        {
          "internalType": "address",
          "name": "owner",
          "type": "address"
        },
        {
          "internalType": "address",
          "name": "spender",
          "type": "address"
        }
      ],
      "name": "allowance",
      "outputs": [
        {
          "internalType": "uint256",
          "name": "",
          "type": "uint256"
        }
      ],
      "stateMutability": "view",
      "type": "function"
    },
    {
      "inputs": [
        {
          "internalType": "address",
          "name": "spender",
          "type": "address"
        },
        {
          "internalType": "uint256",
          "name": "amount",
          "type": "uint256"
        }
      ],
      "name": "approve",
      "outputs": [
        {
          "internalType": "bool",
          "name": "",
          "type": "bool"
        }
      ],
      "stateMutability": "nonpayable",
      "type": "function"
    },
    {
      "inputs": [
        {
          "internalType": "address",
          "name": "account",
          "type": "address"
        }
      ],
      "name": "balanceOf",
      "outputs": [
        {
          "internalType": "uint256",
          "name": "",
          "type": "uint256"
        }
      ],
      "stateMutability": "view",
      "type": "function"
    },
    {
      "inputs": [],
      "name": "decimals",
      "outputs": [
        {
          "internalType": "uint8",
          "name": "",
          "type": "uint8"
        }
      ],
      "stateMutability": "view",
      "type": "function"
    },
    {
      "inputs": [
        {
          "internalType": "address",
          "name": "spender",
          "type": "address"
        },
        {
          "internalType": "uint256",
          "name": "subtractedValue",
          "type": "uint256"
        }
      ],
      "name": "decreaseAllowance",
      "outputs": [
        {
          "internalType": "bool",
          "name": "",
          "type": "bool"
        }
      ],
      "stateMutability": "nonpayable",
      "type": "function"
    },
    {
      "inputs": [
        {
          "internalType": "address",
          "name": "spender",
          "type": "address"
        },
        {
          "internalType": "uint256",
          "name": "addedValue",
          "type": "uint256"
        }
      ],
      "name": "increaseAllowance",
      "outputs": [
        {
          "internalType": "bool",
          "name": "",
          "type": "bool"
        }
      ],
      "stateMutability": "nonpayable",
      "type": "function"
    },
    {
      "inputs": [
        {
          "internalType": "address",
          "name": "_account",
          "type": "address"
        },
        {
          "internalType": "uint256",
          "name": "_amount",
          "type": "uint256"
        }
      ],
      "name": "mint",
      "outputs": [],
      "stateMutability": "nonpayable",
      "type": "function"
    },
    {
      "inputs": [],
      "name": "name",
      "outputs": [
        {
          "internalType": "string",
          "name": "",
          "type": "string"
        }
      ],
      "stateMutability": "view",
      "type": "function"
    },
    {
      "inputs": [],
      "name": "owner",
      "outputs": [
        {
          "internalType": "address",
          "name": "",
          "type": "address"
        }
      ],
      "stateMutability": "view",
      "type": "function"
    },
    {
      "inputs": [],
      "name": "renounceOwnership",
      "outputs": [],
      "stateMutability": "nonpayable",
      "type": "function"
    },
    {
      "inputs": [],
      "name": "symbol",
      "outputs": [
        {
          "internalType": "string",
          "name": "",
          "type": "string"
        }
      ],
      "stateMutability": "view",
      "type": "function"
    },
    {
      "inputs": [],
      "name": "totalSupply",
      "outputs": [
        {
          "internalType": "uint256",
          "name": "",
          "type": "uint256"
        }
      ],
      "stateMutability": "view",
      "type": "function"
    },
    {
      "inputs": [
        {
          "internalType": "address",
          "name": "to",
          "type": "address"
        },
        {
          "internalType": "uint256",
          "name": "amount",
          "type": "uint256"
        }
      ],
      "name": "transfer",
      "outputs": [
        {
          "internalType": "bool",
          "name": "",
          "type": "bool"
        }
      ],
      "stateMutability": "nonpayable",
      "type": "function"
    },
    {
      "inputs": [
        {
          "internalType": "address",
          "name": "from",
          "type": "address"
        },
        {
          "internalType": "address",
          "name": "to",
          "type": "address"
        },
        {
          "internalType": "uint256",
          "name": "amount",
          "type": "uint256"
        }
      ],
      "name": "transferFrom",
      "outputs": [
        {
          "internalType": "bool",
          "name": "",
          "type": "bool"
        }
      ],
      "stateMutability": "nonpayable",
      "type": "function"
    },
    {
      "inputs": [
        {
          "internalType": "address",
          "name": "newOwner",
          "type": "address"
        }
      ],
      "name": "transferOwnership",
      "outputs": [],
      "stateMutability": "nonpayable",
      "type": "function"
    }
  ],
  "transactionHash": "0x2242887090575ecb3fe163a2716fcc7763e97b08e67498722056b1f2a805b4bc",
  "args": [],
  "numDeployments": 1,
  "solcInputHash": "a98b85679c117a20c3b99df23d476f7d",
  "bytecode": "0x6080604052346200016a576200001462000186565b602069159410c8151a58dad95d60b21b8183015262000032620001bb565b63159410d560e21b82820152825190916001600160401b0382116200015a575b6200006a8262000064600354620003a2565b620003df565b80601f8311600114620000c957508190620000a394600092620000bd575b50508160011b916000199060031b1c19161760035562000491565b620000ad620001f0565b604051610dea9081620005968239f35b01519050388062000088565b60036000529193601f1985167fc2575a0e9e593c00f959f8c92f12db2869c3395a3b0502d05e2516446f71f85b936000905b82821062000141575050916001939186620000a397941062000127575b505050811b0160035562000491565b015160001960f88460031b161c1916905538808062000118565b80600186978294978701518155019601940190620000fb565b620001646200016f565b62000052565b600080fd5b50634e487b7160e01b600052604160045260246000fd5b60408051919082016001600160401b03811183821017620001ab575b604052600a8252565b620001b56200016f565b620001a2565b60408051919082016001600160401b03811183821017620001e0575b60405260048252565b620001ea6200016f565b620001d7565b60055460ff8160081c16158091819262000319575b8115620002f6575b50156200029a578062000228600160ff196005541617600555565b6200027f575b6200023862000328565b6200023f57565b6200025061ff001960055416600555565b604051600181527f7f26b83ff96e1f2b6a682f133852f6798a09c465da95921460cefb384740249890602090a1565b6200029461010061ff00196005541617600555565b6200022e565b60405162461bcd60e51b815260206004820152602e60248201527f496e697469616c697a61626c653a20636f6e747261637420697320616c72656160448201526d191e481a5b9a5d1a585b1a5e995960921b6064820152608490fd5b303b159150816200030a575b50386200020d565b6001915060ff16143862000302565b600160ff821610915062000205565b6005805462010000600160b01b03198116754a580d71c0f73202c51c58147aa7c7e09245b10a000017909155604051734a580d71c0f73202c51c58147aa7c7e09245b10a9160101c6001600160a01b0316907f8be0079c531659141344cd1fd0a4f28419497f9722a3daafe3b4186f6b6457e090600090a3565b90600182811c92168015620003d4575b6020831014620003be57565b634e487b7160e01b600052602260045260246000fd5b91607f1691620003b2565b601f8111620003ec575050565b6000906003825260208220906020601f850160051c830194106200042d575b601f0160051c01915b8281106200042157505050565b81815560010162000414565b90925082906200040b565b601f811162000445575050565b6000906004825260208220906020601f850160051c8301941062000486575b601f0160051c01915b8281106200047a57505050565b8181556001016200046d565b909250829062000464565b80519091906001600160401b03811162000585575b620004be81620004b8600454620003a2565b62000438565b602080601f8311600114620004fd5750819293600092620004f1575b50508160011b916000199060031b1c191617600455565b015190503880620004da565b6004600052601f198316949091907f8a35acfbc15ff81a39ae7d344fd709f28e8600b4aa8c65c6b64bfe7fe36bd19b926000905b8782106200056c57505083600195961062000552575b505050811b01600455565b015160001960f88460031b161c1916905538808062000547565b8060018596829496860151815501950193019062000531565b6200058f6200016f565b620004a656fe60806040526004361015610013575b600080fd5b60003560e01c806306fdde0314610153578063095ea7b31461014a57806318160ddd1461014157806323b872dd14610138578063313ce5671461012f578063395093511461012657806340c10f191461011d57806365b014b71461011457806370a082311461010b578063715018a6146101025780638da5cb5b146100f957806395d89b41146100f0578063a457c2d7146100e7578063a9059cbb146100de578063dd62ed3e146100d55763f2fde38b146100cd57600080fd5b61000e6108c7565b5061000e610869565b5061000e610842565b5061000e610792565b5061000e6106ce565b5061000e6106a3565b5061000e61063e565b5061000e610603565b5061000e610580565b5061000e61048a565b5061000e610430565b5061000e610413565b5061000e610338565b5061000e610319565b5061000e6102e7565b5061000e6101b3565b919091602080825283519081818401526000945b82861061019d575050806040939411610190575b601f01601f1916010190565b6000838284010152610184565b8581018201518487016040015294810194610170565b503461000e576000806003193601126102b85760405190806003549060019180831c928082169283156102ae575b602092838610851461029a57858852602088019490811561027e5750600114610225575b61022187610215818903826109a3565b6040519182918261015c565b0390f35b600360005294509192917fc2575a0e9e593c00f959f8c92f12db2869c3395a3b0502d05e2516446f71f85b5b83861061026d5750505091019050610215826102213880610205565b805485870152948201948101610251565b60ff191685525050500191506102159050826102213880610205565b634e487b7160e01b82526022600452602482fd5b93607f16936101e1565b80fd5b600435906001600160a01b038216820361000e57565b602435906001600160a01b038216820361000e57565b503461000e57604036600319011261000e5761030e6103046102bb565b6024359033610bb7565b602060405160018152f35b503461000e57600036600319011261000e576020600254604051908152f35b503461000e57606036600319011261000e576103526102bb565b61035a6102d1565b604435906001600160a01b0383166000526001602052610391336040600020906001600160a01b0316600052602052604060002090565b5492600184016103b2575b6103a69350610ab0565b60405160018152602090f35b8284106103ce576103c9836103a695033383610bb7565b61039c565b60405162461bcd60e51b815260206004820152601d60248201527f45524332303a20696e73756666696369656e7420616c6c6f77616e63650000006044820152606490fd5b503461000e57600036600319011261000e57602060405160128152f35b503461000e57604036600319011261000e5761030e61044d6102bb565b33600052600160205261048360243561047d836040600020906001600160a01b0316600052602052604060002090565b546109db565b9033610bb7565b503461000e57604036600319011261000e576104a46102bb565b602435906104b0610ce4565b6001600160a01b03811691821561053b57610536816105196000946105006104fb7fddf252ad1be2c89b69c2b068fc378daa952ba7f163c4a11628f55a4df523b3ef966002546109db565b600255565b6001600160a01b03166000526000602052604060002090565b6105248282546109db565b90556040519081529081906020820190565b0390a3005b60405162461bcd60e51b815260206004820152601f60248201527f45524332303a206d696e7420746f20746865207a65726f2061646472657373006044820152606490fd5b503461000e57600036600319011261000e5760ff60055460081c16156105aa576105a8610d3f565b005b60405162461bcd60e51b815260206004820152602b60248201527f496e697469616c697a61626c653a20636f6e7472616374206973206e6f74206960448201526a6e697469616c697a696e6760a81b6064820152608490fd5b503461000e57602036600319011261000e576001600160a01b036106256102bb565b1660005260006020526020604060002054604051908152f35b503461000e576000806003193601126102b857610659610ce4565b60055462010000600160b01b03198116600555816001600160a01b036040519260101c167f8be0079c531659141344cd1fd0a4f28419497f9722a3daafe3b4186f6b6457e08284a3f35b503461000e57600036600319011261000e5760206001600160a01b0360055460101c16604051908152f35b503461000e576000806003193601126102b85760405190806004549060019180831c92808216928315610788575b602092838610851461029a57858852602088019490811561027e575060011461072f5761022187610215818903826109a3565b600460005294509192917f8a35acfbc15ff81a39ae7d344fd709f28e8600b4aa8c65c6b64bfe7fe36bd19b5b8386106107775750505091019050610215826102213880610205565b80548587015294820194810161075b565b93607f16936106fc565b503461000e57604036600319011261000e576107ac6102bb565b602435903360005260016020526107da816040600020906001600160a01b0316600052602052604060002090565b54918083106107ef576103a692039033610bb7565b60405162461bcd60e51b815260206004820152602560248201527f45524332303a2064656372656173656420616c6c6f77616e63652062656c6f77604482015264207a65726f60d81b6064820152608490fd5b503461000e57604036600319011261000e5761030e61085f6102bb565b6024359033610ab0565b503461000e57604036600319011261000e5760206108be6108886102bb565b6001600160a01b036108986102d1565b9116600052600183526040600020906001600160a01b0316600052602052604060002090565b54604051908152f35b503461000e57602036600319011261000e576108e16102bb565b6108e9610ce4565b6001600160a01b0390818116801561094f5760009262010000600160b01b036005549360101b1662010000600160b01b03198416176005556040519260101c167f8be0079c531659141344cd1fd0a4f28419497f9722a3daafe3b4186f6b6457e08484a3f35b60405162461bcd60e51b815260206004820152602660248201527f4f776e61626c653a206e6577206f776e657220697320746865207a65726f206160448201526564647265737360d01b6064820152608490fd5b90601f8019910116810190811067ffffffffffffffff8211176109c557604052565b634e487b7160e01b600052604160045260246000fd5b811981116109e7570190565b634e487b7160e01b600052601160045260246000fd5b15610a0457565b60405162461bcd60e51b815260206004820152602360248201527f45524332303a207472616e7366657220746f20746865207a65726f206164647260448201526265737360e81b6064820152608490fd5b15610a5c57565b60405162461bcd60e51b815260206004820152602660248201527f45524332303a207472616e7366657220616d6f756e7420657863656564732062604482015265616c616e636560d01b6064820152608490fd5b91906001600160a01b0390818416928315610b6457610519827fddf252ad1be2c89b69c2b068fc378daa952ba7f163c4a11628f55a4df523b3ef94610b5f941696610afc8815156109fd565b610b4584610b1d836001600160a01b03166000526000602052604060002090565b54610b2a82821015610a55565b03916001600160a01b03166000526000602052604060002090565b556001600160a01b03166000526000602052604060002090565b0390a3565b60405162461bcd60e51b815260206004820152602560248201527f45524332303a207472616e736665722066726f6d20746865207a65726f206164604482015264647265737360d81b6064820152608490fd5b906001600160a01b0391828116928315610c93578216938415610c435780610c327f8c5be1e5ebec7d5bd14f71427d1e84f3dd0314c0f7b2291e5b200ac8c7c3b92594610c1a610b5f956001600160a01b03166000526001602052604060002090565b906001600160a01b0316600052602052604060002090565b556040519081529081906020820190565b60405162461bcd60e51b815260206004820152602260248201527f45524332303a20617070726f766520746f20746865207a65726f206164647265604482015261737360f01b6064820152608490fd5b60405162461bcd60e51b8152602060048201526024808201527f45524332303a20617070726f76652066726f6d20746865207a65726f206164646044820152637265737360e01b6064820152608490fd5b6001600160a01b0360055460101c163303610cfb57565b606460405162461bcd60e51b815260206004820152602060248201527f4f776e61626c653a2063616c6c6572206973206e6f7420746865206f776e65726044820152fd5b734a580d71c0f73202c51c58147aa7c7e09245b10a6001600160a01b03600554754a580d71c0f73202c51c58147aa7c7e09245b10a000062010000600160b01b031982161760055560101c167f8be0079c531659141344cd1fd0a4f28419497f9722a3daafe3b4186f6b6457e06000604051a356fea26469706673582212206c182d5c91bb0b1ea3c39bcd664cd668e601200d2e00e992733169e5702dda6b64736f6c634300080e0033",
  "devdoc": {
    "kind": "dev",
    "methods": {
      "allowance(address,address)": {
        "details": "See {IERC20-allowance}."
      },
      "approve(address,uint256)": {
        "details": "See {IERC20-approve}. NOTE: If `amount` is the maximum `uint256`, the allowance is not updated on `transferFrom`. This is semantically equivalent to an infinite approval. Requirements: - `spender` cannot be the zero address."
      },
      "balanceOf(address)": {
        "details": "See {IERC20-balanceOf}."
      },
      "decimals()": {
        "details": "Returns the number of decimals used to get its user representation. For example, if `decimals` equals `2`, a balance of `505` tokens should be displayed to a user as `5.05` (`505 / 10 ** 2`). Tokens usually opt for a value of 18, imitating the relationship between Ether and Wei. This is the value {ERC20} uses, unless this function is overridden; NOTE: This information is only used for _display_ purposes: it in no way affects any of the arithmetic of the contract, including {IERC20-balanceOf} and {IERC20-transfer}."
      },
      "decreaseAllowance(address,uint256)": {
        "details": "Atomically decreases the allowance granted to `spender` by the caller. This is an alternative to {approve} that can be used as a mitigation for problems described in {IERC20-approve}. Emits an {Approval} event indicating the updated allowance. Requirements: - `spender` cannot be the zero address. - `spender` must have allowance for the caller of at least `subtractedValue`."
      },
      "increaseAllowance(address,uint256)": {
        "details": "Atomically increases the allowance granted to `spender` by the caller. This is an alternative to {approve} that can be used as a mitigation for problems described in {IERC20-approve}. Emits an {Approval} event indicating the updated allowance. Requirements: - `spender` cannot be the zero address."
      },
      "name()": {
        "details": "Returns the name of the token."
      },
      "owner()": {
        "details": "Returns the address of the current owner."
      },
      "renounceOwnership()": {
        "details": "Leaves the contract without owner. It will not be possible to call `onlyOwner` functions anymore. Can only be called by the current owner. NOTE: Renouncing ownership will leave the contract without an owner, thereby removing any functionality that is only available to the owner."
      },
      "symbol()": {
        "details": "Returns the symbol of the token, usually a shorter version of the name."
      },
      "totalSupply()": {
        "details": "See {IERC20-totalSupply}."
      },
      "transfer(address,uint256)": {
        "details": "See {IERC20-transfer}. Requirements: - `to` cannot be the zero address. - the caller must have a balance of at least `amount`."
      },
      "transferFrom(address,address,uint256)": {
        "details": "See {IERC20-transferFrom}. Emits an {Approval} event indicating the updated allowance. This is not required by the EIP. See the note at the beginning of {ERC20}. NOTE: Does not update the allowance if the current allowance is the maximum `uint256`. Requirements: - `from` and `to` cannot be the zero address. - `from` must have a balance of at least `amount`. - the caller must have allowance for ``from``'s tokens of at least `amount`."
      },
      "transferOwnership(address)": {
        "details": "Transfers ownership of the contract to a new account (`newOwner`). Can only be called by the current owner."
      }
    },
    "version": 1
  },
  "userdoc": {
    "kind": "user",
    "methods": {},
    "version": 1
  },
  "storageLayout": {
    "storage": [
      {
        "astId": 5957,
        "contract": "contracts/voting/DummyTicket.sol:DummyTicket",
        "label": "_balances",
        "offset": 0,
        "slot": "0",
        "type": "t_mapping(t_address,t_uint256)"
      },
      {
        "astId": 5963,
        "contract": "contracts/voting/DummyTicket.sol:DummyTicket",
        "label": "_allowances",
        "offset": 0,
        "slot": "1",
        "type": "t_mapping(t_address,t_mapping(t_address,t_uint256))"
      },
      {
        "astId": 5965,
        "contract": "contracts/voting/DummyTicket.sol:DummyTicket",
        "label": "_totalSupply",
        "offset": 0,
        "slot": "2",
        "type": "t_uint256"
      },
      {
        "astId": 5967,
        "contract": "contracts/voting/DummyTicket.sol:DummyTicket",
        "label": "_name",
        "offset": 0,
        "slot": "3",
        "type": "t_string_storage"
      },
      {
        "astId": 5969,
        "contract": "contracts/voting/DummyTicket.sol:DummyTicket",
        "label": "_symbol",
        "offset": 0,
        "slot": "4",
        "type": "t_string_storage"
      },
      {
        "astId": 674,
        "contract": "contracts/voting/DummyTicket.sol:DummyTicket",
        "label": "_initialized",
        "offset": 0,
        "slot": "5",
        "type": "t_uint8"
      },
      {
        "astId": 677,
        "contract": "contracts/voting/DummyTicket.sol:DummyTicket",
        "label": "_initializing",
        "offset": 1,
        "slot": "5",
        "type": "t_bool"
      },
      {
        "astId": 9827,
        "contract": "contracts/voting/DummyTicket.sol:DummyTicket",
        "label": "_owner",
        "offset": 2,
        "slot": "5",
        "type": "t_address"
      },
      {
        "astId": 9947,
        "contract": "contracts/voting/DummyTicket.sol:DummyTicket",
        "label": "__gap",
        "offset": 0,
        "slot": "6",
        "type": "t_array(t_uint256)49_storage"
      }
    ],
    "types": {
      "t_address": {
        "encoding": "inplace",
        "label": "address",
        "numberOfBytes": "20"
      },
      "t_array(t_uint256)49_storage": {
        "base": "t_uint256",
        "encoding": "inplace",
        "label": "uint256[49]",
        "numberOfBytes": "1568"
      },
      "t_bool": {
        "encoding": "inplace",
        "label": "bool",
        "numberOfBytes": "1"
      },
      "t_mapping(t_address,t_mapping(t_address,t_uint256))": {
        "encoding": "mapping",
        "key": "t_address",
        "label": "mapping(address => mapping(address => uint256))",
        "numberOfBytes": "32",
        "value": "t_mapping(t_address,t_uint256)"
      },
      "t_mapping(t_address,t_uint256)": {
        "encoding": "mapping",
        "key": "t_address",
        "label": "mapping(address => uint256)",
        "numberOfBytes": "32",
        "value": "t_uint256"
      },
      "t_string_storage": {
        "encoding": "bytes",
        "label": "string",
        "numberOfBytes": "32"
      },
      "t_uint256": {
        "encoding": "inplace",
        "label": "uint256",
        "numberOfBytes": "32"
      },
      "t_uint8": {
        "encoding": "inplace",
        "label": "uint8",
        "numberOfBytes": "1"
      }
    }
  }
}