{
  "address": "0x7217327E1fbb53a13756c9eB482f7337a662e02a",
  "abi": [
    {
      "inputs": [
        {
          "internalType": "address",
          "name": "_tokenOwner",
          "type": "address"
        }
      ],
      "name": "publicMint",
      "outputs": [],
      "stateMutability": "nonpayable",
      "type": "function"
    }
  ],
  "transactionHash": "0x16fa3416e7cf971b1154ca84fde9ecb2bb06338838dd95824b2b7ee37cf884b8",
  "args": [],
  "numDeployments": 1,
  "solcInputHash": "a98b85679c117a20c3b99df23d476f7d",
  "bytecode": "0x60808060405234601457608b908161001a8239f35b600080fdfe6004361015600c57600080fd5b6000803560e01c6332a93a3a14602157600080fd5b34605257602036600319011260525760043573ffffffffffffffffffffffffffffffffffffffff8116036052576080f35b80fdfea2646970667358221220102dc66615b84bc535fa46b4de17af0a02f13d9e9efc18a614e49263898fe76d64736f6c634300080e0033",
  "devdoc": {
    "kind": "dev",
    "methods": {},
    "version": 1
  },
  "userdoc": {
    "kind": "user",
    "methods": {},
    "version": 1
  },
  "storageLayout": {
    "storage": [],
    "types": null
  }
}