{
  "address": "0xD4167b0207F73d35FDF1d11c519e6a0e35EC5cA5",
  "abi": [
    {
      "anonymous": false,
      "inputs": [
        {
          "indexed": true,
          "internalType": "address",
          "name": "from",
          "type": "address"
        },
        {
          "indexed": true,
          "internalType": "address",
          "name": "contractAddr",
          "type": "address"
        },
        {
          "indexed": false,
          "internalType": "string",
          "name": "name",
          "type": "string"
        },
        {
          "indexed": false,
          "internalType": "string",
          "name": "symbol",
          "type": "string"
        }
      ],
      "name": "ERC721Deployed",
      "type": "event"
    },
    {
      "inputs": [
        {
          "internalType": "uint256",
          "name": "index",
          "type": "uint256"
        }
      ],
      "name": "addressOf",
      "outputs": [
        {
          "internalType": "address",
          "name": "contractAddr",
          "type": "address"
        }
      ],
      "stateMutability": "view",
      "type": "function"
    },
    {
      "inputs": [
        {
          "internalType": "string",
          "name": "name",
          "type": "string"
        },
        {
          "internalType": "string",
          "name": "symbol",
          "type": "string"
        }
      ],
      "name": "deploy",
      "outputs": [
        {
          "internalType": "address",
          "name": "newContractAddr",
          "type": "address"
        }
      ],
      "stateMutability": "nonpayable",
      "type": "function"
    },
    {
      "inputs": [],
      "name": "totalOf",
      "outputs": [
        {
          "internalType": "uint256",
          "name": "",
          "type": "uint256"
        }
      ],
      "stateMutability": "view",
      "type": "function"
    }
  ],
  "transactionHash": "0xeda4db1177501068cf13add4691a8af8b50826b82ce33ed3058289d687c2a928",
  "args": [],
  "numDeployments": 1,
  "solcInputHash": "a98b85679c117a20c3b99df23d476f7d",
  "bytecode": "0x6080806040523461001b5760016000556121c890816100218239f35b600080fdfe6080604052600436101562000014575b600080fd5b6000803560e01c90816311a800bc146200007157816362784a16146200004f575063b5488487146200004557600080fd5b6200000f62000174565b346200006e57806003193601126200006e576020600154604051908152f35b80fd5b346200006e5760203660031901126200006e576020620000936004356200036e565b6001600160a01b0360405191168152f35b60009103126200000f57565b50634e487b7160e01b600052604160045260246000fd5b67ffffffffffffffff8111620000dc57604052565b620000e6620000b0565b604052565b81601f820112156200000f5780359067ffffffffffffffff9283831162000164575b60405193601f8401601f19908116603f011685019081118582101762000154575b604052828452602083830101116200000f57816000926020809301838601378301015290565b6200015e620000b0565b6200012e565b6200016e620000b0565b6200010d565b50346200000f576040806003193601126200000f5767ffffffffffffffff906004358281116200000f57620001ae903690600401620000eb565b906024358381116200000f57620001ca903690600401620000eb565b9160009360028554146200031357816001600160a01b03916002875562000210868651938493611c78808601918683109083111762000303575b6200051b863962000458565b039086f08015620002f3575b1692833b15620002ef57825163f2fde38b60e01b8152336004820152620002bd958593927f2a22d317a6fd118f1422413c6f53c6d7963bc63d05ecb0002cc892f22786ab5a92620002979281602481838a5af18015620002df575b620002c1575b50620002898562000491565b855191829133958362000458565b0390a3620002a56001600055565b516001600160a01b0390911681529081906020820190565b0390f35b80620002d1620002d892620000c7565b80620000a4565b386200027d565b620002e962000484565b62000277565b8480fd5b620002fd62000484565b6200021c565b6200030d620000b0565b62000204565b825162461bcd60e51b815260206004820152601f60248201527f5265656e7472616e637947756172643a207265656e7472616e742063616c6c006044820152606490fd5b50634e487b7160e01b600052603260045260246000fd5b6001549081158015620003d6575b620003cf576001600160a01b0391811015620003bf575b60016000527fb10e2d527612073b26eecdfd717e6a320cf44b4afac2b0732d9fcbe2b7fa0cf601541690565b620003c962000357565b62000393565b5050600090565b506001198211620003ed578060018301106200037c565b634e487b7160e01b600052601160045260246000fd5b91908251928382526000905b8482106200043f57509280602093941162000431575b601f01601f1916010190565b600083828401015262000425565b906020908180828501015190828601015201906200040f565b909162000472620004819360408452604084019062000403565b91602081840391015262000403565b90565b506040513d6000823e3d90fd5b6001600160a01b03600154680100000000000000008110156200050a575b6001810180600155811015620004fa575b60016000527fb10e2d527612073b26eecdfd717e6a320cf44b4afac2b0732d9fcbe2b7fa0cf60191166001600160a01b0319825416179055565b6200050462000357565b620004c0565b62000514620000b0565b620004af56fe6080604052346200018d5762001c78803803806200001d81620001a9565b92833981016040828203126200018d5781516001600160401b0391908281116200018d57816200004f918501620001de565b92602091828201518481116200018d576200006b9201620001de565b9183519081116200017d575b60009162000091826200008b855462000272565b620002af565b80601f8311600114620000ef57508190620000c8958492620000e3575b50508160011b916000199060031b1c191617905562000363565b620000d33362000465565b6040516117c49081620004b48239f35b015190503880620000ae565b600080529194601f1986167f290decd9548b62a8d60345a988386fc84ba6bc95484008f6362f93160ef3e5639385905b82821062000164575050916001939187620000c89894106200014a575b505050811b01905562000363565b015160001960f88460031b161c191690553880806200013c565b806001869782949787015181550196019401906200011f565b6200018762000192565b62000077565b600080fd5b50634e487b7160e01b600052604160045260246000fd5b6040519190601f01601f191682016001600160401b03811183821017620001cf57604052565b620001d962000192565b604052565b81601f820112156200018d578051906001600160401b03821162000262575b60209062000214601f8401601f19168301620001a9565b938385528284830101116200018d5782906000905b8383831062000249575050116200023f57505090565b6000918301015290565b8193508281939201015182828801015201839162000229565b6200026c62000192565b620001fd565b90600182811c92168015620002a4575b60208310146200028e57565b634e487b7160e01b600052602260045260246000fd5b91607f169162000282565b601f8111620002bc575050565b60009081805260208220906020601f850160051c83019410620002fc575b601f0160051c01915b828110620002f057505050565b818155600101620002e3565b9092508290620002da565b90601f821162000315575050565b60019160009083825260208220906020601f850160051c8301941062000358575b601f0160051c01915b8281106200034d5750505050565b81815583016200033f565b909250829062000336565b80519091906001600160401b03811162000455575b60019062000392816200038c845462000272565b62000307565b602080601f8311600114620003d0575081929394600092620003c4575b5050600019600383901b1c191690821b179055565b015190503880620003af565b6001600052601f198316959091907fb10e2d527612073b26eecdfd717e6a320cf44b4afac2b0732d9fcbe2b7fa0cf6926000905b8882106200043d575050838596971062000423575b505050811b019055565b015160001960f88460031b161c1916905538808062000419565b80878596829496860151815501950193019062000404565b6200045f62000192565b62000378565b600780546001600160a01b039283166001600160a01b031982168117909255604051919216907f8be0079c531659141344cd1fd0a4f28419497f9722a3daafe3b4186f6b6457e090600090a356fe60806040526004361015610013575b600080fd5b60003560e01c806301ffc9a71461016757806306fdde031461015e578063081812fc14610155578063095ea7b31461014c57806323b872dd1461014357806342842e0e1461013a5780636352211e1461013157806370a0823114610128578063715018a61461011f5780638da5cb5b1461011657806395d89b411461010d578063a22cb46514610104578063b88d4fde146100fb578063c87b56dd146100f2578063d204c45e146100e9578063e985e9c5146100e05763f2fde38b146100d857600080fd5b61000e610b3f565b5061000e610adc565b5061000e610949565b5061000e610915565b5061000e6108b4565b5061000e610702565b5061000e61065c565b5061000e610634565b5061000e6105d4565b5061000e610532565b5061000e610513565b5061000e6104ea565b5061000e6104c0565b5061000e610396565b5061000e61033a565b5061000e61025f565b5061000e610182565b6001600160e01b031981160361000e57565b503461000e57602036600319011261000e5760206004356101a281610170565b63ffffffff60e01b166380ac58cd60e01b81149081156101e0575b81156101cf575b506040519015158152f35b6301ffc9a760e01b149050386101c4565b635b5e139f60e01b811491506101bd565b918091926000905b82821061021157501161020a575050565b6000910152565b915080602091830151818601520182916101f9565b9060209161023f815180928185528580860191016101f1565b601f01601f1916010190565b90602061025c928181520190610226565b90565b503461000e57600080600319360112610337576040519080805461028281610ccf565b8085529160019180831690811561031657506001146102bc575b6102b8856102ac81870382610830565b6040519182918261024b565b0390f35b80809450527f290decd9548b62a8d60345a988386fc84ba6bc95484008f6362f93160ef3e5635b8284106102fe5750505081016020016102ac826102b861029c565b805460208587018101919091529093019281016102e3565b60ff1916602087015250506040840192506102ac91508390506102b861029c565b80fd5b503461000e57602036600319011261000e576020610359600435610d7b565b6001600160a01b0360405191168152f35b600435906001600160a01b038216820361000e57565b602435906001600160a01b038216820361000e57565b503461000e57604036600319011261000e576103b061036a565b6024356103bc81610cad565b916001600160a01b03808416809183161461043c576103ee936103e99133149081156103f0575b50610d09565b61119a565b005b610436915061042f9061041733916001600160a01b03166000526005602052604060002090565b906001600160a01b0316600052602052604060002090565b5460ff1690565b386103e3565b60405162461bcd60e51b815260206004820152602160248201527f4552433732313a20617070726f76616c20746f2063757272656e74206f776e656044820152603960f91b6064820152608490fd5b606090600319011261000e576001600160a01b0390600435828116810361000e5791602435908116810361000e579060443590565b503461000e576103ee6104d23661048b565b916104e56104e08433610ef1565b610dbd565b61101a565b503461000e576103ee6104fc3661048b565b906040519261050a84610807565b60008452610e61565b503461000e57602036600319011261000e576020610359600435610cad565b503461000e57602036600319011261000e576001600160a01b0361055461036a565b16801561057d5760005260036020526102b8604060002054604051918291829190602083019252565b60405162461bcd60e51b815260206004820152602960248201527f4552433732313a2061646472657373207a65726f206973206e6f7420612076616044820152683634b21037bbb732b960b91b6064820152608490fd5b503461000e57600080600319360112610337576105ef610c09565b6007546001600160a01b03198116600755816001600160a01b0360405192167f8be0079c531659141344cd1fd0a4f28419497f9722a3daafe3b4186f6b6457e08284a3f35b503461000e57600036600319011261000e5760206001600160a01b0360075416604051908152f35b503461000e57600080600319360112610337576040519080600180549161068283610ccf565b8086529282811690811561031657506001146106a8576102b8856102ac81870382610830565b92508083527fb10e2d527612073b26eecdfd717e6a320cf44b4afac2b0732d9fcbe2b7fa0cf65b8284106106ea5750505081016020016102ac826102b861029c565b805460208587018101919091529093019281016106cf565b503461000e57604036600319011261000e5761071c61036a565b602435801515810361000e576001600160a01b038216918233146107ab5781610768610779923360005260056020526040600020906001600160a01b0316600052602052604060002090565b9060ff801983541691151516179055565b604051901515815233907f17307eab39ab6107e8899845ad3d59bd9653f200f220920489ca2b5937696c3190602090a3005b60405162461bcd60e51b815260206004820152601960248201527f4552433732313a20617070726f766520746f2063616c6c6572000000000000006044820152606490fd5b50634e487b7160e01b600052604160045260246000fd5b6020810190811067ffffffffffffffff82111761082357604052565b61082b6107f0565b604052565b90601f8019910116810190811067ffffffffffffffff82111761082357604052565b60209067ffffffffffffffff8111610870575b601f01601f19160190565b6108786107f0565b610865565b92919261088982610852565b916108976040519384610830565b82948184528183011161000e578281602093846000960137010152565b503461000e57608036600319011261000e576108ce61036a565b6108d6610380565b6064359167ffffffffffffffff831161000e573660238401121561000e5761090b6103ee93369060248160040135910161087d565b9160443591610e61565b503461000e57602036600319011261000e576102b8610935600435611627565b604051918291602083526020830190610226565b503461000e57604036600319011261000e5761096361036a565b60243567ffffffffffffffff811161000e573660238201121561000e5761099490369060248160040135910161087d565b61099c610c09565b60016008540180600855604051926109b384610807565b600084526001600160a01b038116908115610a98576103ee9483610a8e9281610a9395610a05610a006109fc8460005260026020526001600160a01b0360406000205416151590565b1590565b6113f9565b610a22836001600160a01b03166000526003602052604060002090565b610a2c8154610ffe565b9055610a6183610a46846000526002602052604060002090565b906001600160a01b03166001600160a01b0319825416179055565b60007fddf252ad1be2c89b69c2b068fc378daa952ba7f163c4a11628f55a4df523b3ef81604051a46112ad565b610e8a565b611499565b606460405162461bcd60e51b815260206004820152602060248201527f4552433732313a206d696e7420746f20746865207a65726f20616464726573736044820152fd5b503461000e57604036600319011261000e57602060ff610b33610afd61036a565b6001600160a01b03610b0d610380565b9116600052600584526040600020906001600160a01b0316600052602052604060002090565b54166040519015158152f35b503461000e57602036600319011261000e57610b5961036a565b610b61610c09565b6001600160a01b03809116908115610bb55760009160075491816001600160a01b031984161760075560405192167f8be0079c531659141344cd1fd0a4f28419497f9722a3daafe3b4186f6b6457e08484a3f35b60405162461bcd60e51b815260206004820152602660248201527f4f776e61626c653a206e6577206f776e657220697320746865207a65726f206160448201526564647265737360d01b6064820152608490fd5b6001600160a01b03600754163303610c1d57565b606460405162461bcd60e51b815260206004820152602060248201527f4f776e61626c653a2063616c6c6572206973206e6f7420746865206f776e65726044820152fd5b15610c6857565b60405162461bcd60e51b815260206004820152601860248201527f4552433732313a20696e76616c696420746f6b656e20494400000000000000006044820152606490fd5b60005260026020526001600160a01b036040600020541661025c811515610c61565b90600182811c92168015610cff575b6020831014610ce957565b634e487b7160e01b600052602260045260246000fd5b91607f1691610cde565b15610d1057565b60405162461bcd60e51b815260206004820152603e60248201527f4552433732313a20617070726f76652063616c6c6572206973206e6f7420746f60448201527f6b656e206f776e6572206e6f7220617070726f76656420666f7220616c6c00006064820152608490fd5b610da3610d9e8260005260026020526001600160a01b0360406000205416151590565b610c61565b60005260046020526001600160a01b036040600020541690565b15610dc457565b60405162461bcd60e51b815260206004820152602e60248201527f4552433732313a2063616c6c6572206973206e6f7420746f6b656e206f776e6560448201527f72206e6f7220617070726f7665640000000000000000000000000000000000006064820152608490fd5b604051906020820182811067ffffffffffffffff821117610e54575b60405260008252565b610e5c6107f0565b610e4b565b91610e889391610a8e93610e786104e08433610ef1565b610e8383838361101a565b6113b5565b565b15610e9157565b60405162461bcd60e51b815260206004820152603260248201527f4552433732313a207472616e7366657220746f206e6f6e20455243373231526560448201527131b2b4bb32b91034b6b83632b6b2b73a32b960711b6064820152608490fd5b6001600160a01b0380610f0384610cad565b169281831692848414948515610f39575b50508315610f23575b50505090565b610f2f91929350610d7b565b1614388080610f1d565b60ff92955090610f689160005260056020526040600020906001600160a01b0316600052602052604060002090565b5416923880610f14565b15610f7957565b60405162461bcd60e51b8152602060048201526024808201527f4552433732313a207472616e7366657220746f20746865207a65726f206164646044820152637265737360e01b6064820152608490fd5b50634e487b7160e01b600052601160045260246000fd5b60018110610ff1575b6000190190565b610ff9610fca565b610fea565b600190600119811161100e570190565b611016610fca565b0190565b9061102483610cad565b6001600160a01b0391829182851693849116036110e4576110726110bb92821694611050861515610f72565b61105987611137565b6001600160a01b03166000526003602052604060002090565b61107c8154610fe1565b905561109b816001600160a01b03166000526003602052604060002090565b6110a58154610ffe565b9055610a46856000526002602052604060002090565b7fddf252ad1be2c89b69c2b068fc378daa952ba7f163c4a11628f55a4df523b3ef6000604051a4565b60405162461bcd60e51b815260206004820152602560248201527f4552433732313a207472616e736665722066726f6d20696e636f72726563742060448201526437bbb732b960d91b6064820152608490fd5b6000818152600460205260408120805473ffffffffffffffffffffffffffffffffffffffff191690556001600160a01b0361117183610cad565b167f8c5be1e5ebec7d5bd14f71427d1e84f3dd0314c0f7b2291e5b200ac8c7c3b92582604051a4565b6000828152600460205260409020805473ffffffffffffffffffffffffffffffffffffffff19166001600160a01b0383161790556001600160a01b03806111e084610cad565b169116907f8c5be1e5ebec7d5bd14f71427d1e84f3dd0314c0f7b2291e5b200ac8c7c3b9256000604051a4565b9081602091031261000e575161025c81610170565b61025c93926001600160a01b036080931682526000602083015260408201528160608201520190610226565b909261025c94936080936001600160a01b03809216845216602083015260408201528160608201520190610226565b3d156112a8573d9061128e82610852565b9161129c6040519384610830565b82523d6000602084013e565b606090565b909190803b156113ad576112e76020916001600160a01b03936000604051958680958194630a85bd0160e11b9a8b84523360048501611222565b0393165af16000918161137d575b5061136f5761130261127d565b8051908161136a5760405162461bcd60e51b815260206004820152603260248201527f4552433732313a207472616e7366657220746f206e6f6e20455243373231526560448201527131b2b4bb32b91034b6b83632b6b2b73a32b960711b6064820152608490fd5b602001fd5b6001600160e01b0319161490565b61139f91925060203d81116113a6575b6113978183610830565b81019061120d565b90386112f5565b503d61138d565b505050600190565b92909190823b156113f0576112e79260209260006001600160a01b03604051809781968295630a85bd0160e11b9b8c8552336004860161124e565b50505050600190565b1561140057565b60405162461bcd60e51b815260206004820152601c60248201527f4552433732313a20746f6b656e20616c7265616479206d696e746564000000006044820152606490fd5b90601f811161145357505050565b600091825260208220906020601f850160051c8301941061148f575b601f0160051c01915b82811061148457505050565b818155600101611478565b909250829061146f565b9190916114bc8160005260026020526001600160a01b0360406000205416151590565b156115a95760005260206006815260406000209083519067ffffffffffffffff821161159c575b6114f7826114f18554610ccf565b85611445565b80601f8311600114611531575081929394600092611526575b50508160011b916000199060031b1c1916179055565b015190503880611510565b90601f1983169561154785600052602060002090565b926000905b8882106115845750508360019596971061156b575b505050811b019055565b015160001960f88460031b161c19169055388080611561565b8060018596829496860151815501950193019061154c565b6115a46107f0565b6114e3565b60405162461bcd60e51b815260206004820152602e60248201527f45524337323155524953746f726167653a2055524920736574206f66206e6f6e60448201527f6578697374656e7420746f6b656e0000000000000000000000000000000000006064820152608490fd5b90611016602092828151948592016101f1565b61164a610d9e8260005260026020526001600160a01b0360406000205416151590565b600090808252602060068152604083206040518481959083549061166d82610ccf565b8085529460019280841690811561172957506001146116ed575b50505061169692500384610830565b61169e610e2f565b928351156116e65780516116b857505061025c9150611749565b61025c92506116d8906116d2604051958694850190611614565b90611614565b03601f198101835282610830565b9250505090565b869350819291528282205b8583106117115750506116969350820101388080611687565b8054838a0185015288945086939092019181016116f8565b965050505050505060ff1916818401526116968360408101388080611687565b610d9e61176c9160005260026020526001600160a01b0360406000205416151590565b600060405161177a81610807565b5260405161178781610807565b600081529056fea2646970667358221220af675c13fea3b2c87723e7f8bc335fd9f943bfac6043e1d040a4dc14ef2d16f264736f6c634300080e0033a2646970667358221220b2c05910ec4ac242e11c4082ec69eb58c418a29774b9b0fbd2eae7df5e6532de64736f6c634300080e0033",
  "devdoc": {
    "kind": "dev",
    "methods": {},
    "version": 1
  },
  "userdoc": {
    "kind": "user",
    "methods": {},
    "version": 1
  },
  "storageLayout": {
    "storage": [
      {
        "astId": 5790,
        "contract": "contracts/token/ERC721/ERC721Factory.sol:ERC721Factory",
        "label": "_status",
        "offset": 0,
        "slot": "0",
        "type": "t_uint256"
      },
      {
        "astId": 28199,
        "contract": "contracts/token/ERC721/ERC721Factory.sol:ERC721Factory",
        "label": "_contracts",
        "offset": 0,
        "slot": "1",
        "type": "t_array(t_address)dyn_storage"
      }
    ],
    "types": {
      "t_address": {
        "encoding": "inplace",
        "label": "address",
        "numberOfBytes": "20"
      },
      "t_array(t_address)dyn_storage": {
        "base": "t_address",
        "encoding": "dynamic_array",
        "label": "address[]",
        "numberOfBytes": "32"
      },
      "t_uint256": {
        "encoding": "inplace",
        "label": "uint256",
        "numberOfBytes": "32"
      }
    }
  }
}