{
  "address": "0xB27C61e19B33FE02bAE1F18ed1abA4c14d33Bf4E",
  "abi": [
    {
      "inputs": [
        {
          "internalType": "contract NEND",
          "name": "_nend",
          "type": "address"
        },
        {
          "internalType": "address",
          "name": "insurance",
          "type": "address"
        },
        {
          "internalType": "address",
          "name": "_treasury",
          "type": "address"
        }
      ],
      "stateMutability": "nonpayable",
      "type": "constructor"
    },
    {
      "anonymous": false,
      "inputs": [
        {
          "indexed": true,
          "internalType": "uint256",
          "name": "id",
          "type": "uint256"
        }
      ],
      "name": "CloseMarket",
      "type": "event"
    },
    {
      "anonymous": false,
      "inputs": [
        {
          "indexed": true,
          "internalType": "uint256",
          "name": "id",
          "type": "uint256"
        },
        {
          "indexed": true,
          "internalType": "address",
          "name": "quoteToken",
          "type": "address"
        },
        {
          "indexed": false,
          "internalType": "uint48",
          "name": "conclusion",
          "type": "uint48"
        },
        {
          "indexed": false,
          "internalType": "bool",
          "name": "capacityInQuote",
          "type": "bool"
        }
      ],
      "name": "CreateMarket",
      "type": "event"
    },
    {
      "anonymous": false,
      "inputs": [
        {
          "indexed": false,
          "internalType": "address",
          "name": "ownerAddress",
          "type": "address"
        },
        {
          "indexed": false,
          "internalType": "uint48",
          "name": "marketId",
          "type": "uint48"
        },
        {
          "indexed": false,
          "internalType": "uint256",
          "name": "noteId",
          "type": "uint256"
        },
        {
          "indexed": false,
          "internalType": "uint256",
          "name": "amount",
          "type": "uint256"
        },
        {
          "indexed": false,
          "internalType": "uint256",
          "name": "price",
          "type": "uint256"
        },
        {
          "indexed": false,
          "internalType": "uint256",
          "name": "payout",
          "type": "uint256"
        },
        {
          "indexed": false,
          "internalType": "uint256",
          "name": "payoutPerVesting",
          "type": "uint256"
        },
        {
          "indexed": false,
          "internalType": "uint48",
          "name": "created",
          "type": "uint48"
        }
      ],
      "name": "NoteCreated",
      "type": "event"
    },
    {
      "anonymous": false,
      "inputs": [
        {
          "indexed": false,
          "internalType": "address",
          "name": "ownerAddress",
          "type": "address"
        },
        {
          "indexed": false,
          "internalType": "uint256[]",
          "name": "indexes",
          "type": "uint256[]"
        },
        {
          "indexed": false,
          "internalType": "uint8[]",
          "name": "vestingCount",
          "type": "uint8[]"
        },
        {
          "indexed": false,
          "internalType": "uint256[]",
          "name": "totalVested",
          "type": "uint256[]"
        }
      ],
      "name": "NotesRedeemed",
      "type": "event"
    },
    {
      "anonymous": false,
      "inputs": [
        {
          "indexed": true,
          "internalType": "address",
          "name": "previousOwner",
          "type": "address"
        },
        {
          "indexed": true,
          "internalType": "address",
          "name": "newOwner",
          "type": "address"
        }
      ],
      "name": "OwnershipTransferred",
      "type": "event"
    },
    {
      "inputs": [
        {
          "internalType": "uint256",
          "name": "",
          "type": "uint256"
        }
      ],
      "name": "adjustments",
      "outputs": [
        {
          "internalType": "uint256",
          "name": "change",
          "type": "uint256"
        },
        {
          "internalType": "uint48",
          "name": "lastAdjustment",
          "type": "uint48"
        },
        {
          "internalType": "uint48",
          "name": "timeToAdjusted",
          "type": "uint48"
        },
        {
          "internalType": "bool",
          "name": "active",
          "type": "bool"
        }
      ],
      "stateMutability": "view",
      "type": "function"
    },
    {
      "inputs": [
        {
          "internalType": "address",
          "name": "operator",
          "type": "address"
        },
        {
          "internalType": "string",
          "name": "role",
          "type": "string"
        },
        {
          "internalType": "bool",
          "name": "authorized",
          "type": "bool"
        }
      ],
      "name": "authorize",
      "outputs": [],
      "stateMutability": "nonpayable",
      "type": "function"
    },
    {
      "inputs": [
        {
          "internalType": "uint256",
          "name": "_id",
          "type": "uint256"
        }
      ],
      "name": "close",
      "outputs": [],
      "stateMutability": "nonpayable",
      "type": "function"
    },
    {
      "inputs": [],
      "name": "commissionRate",
      "outputs": [
        {
          "internalType": "uint16",
          "name": "",
          "type": "uint16"
        }
      ],
      "stateMutability": "view",
      "type": "function"
    },
    {
      "inputs": [
        {
          "internalType": "contract IERC20",
          "name": "_quoteToken",
          "type": "address"
        },
        {
          "internalType": "uint256",
          "name": "_capacity",
          "type": "uint256"
        },
        {
          "internalType": "bool",
          "name": "_capacityInQuote",
          "type": "bool"
        },
        {
          "internalType": "uint256",
          "name": "_initialPrice",
          "type": "uint256"
        },
        {
          "internalType": "uint48",
          "name": "_conclusion",
          "type": "uint48"
        },
        {
          "internalType": "uint32",
          "name": "_depositInterval",
          "type": "uint32"
        },
        {
          "internalType": "uint32",
          "name": "_tuneInterval",
          "type": "uint32"
        }
      ],
      "name": "create",
      "outputs": [
        {
          "internalType": "uint256",
          "name": "id_",
          "type": "uint256"
        }
      ],
      "stateMutability": "nonpayable",
      "type": "function"
    },
    {
      "inputs": [
        {
          "internalType": "uint256",
          "name": "_id",
          "type": "uint256"
        },
        {
          "internalType": "uint256",
          "name": "_amount",
          "type": "uint256"
        },
        {
          "internalType": "uint256",
          "name": "_maxPrice",
          "type": "uint256"
        }
      ],
      "name": "deposit",
      "outputs": [
        {
          "internalType": "uint256",
          "name": "payout_",
          "type": "uint256"
        },
        {
          "internalType": "uint256",
          "name": "index_",
          "type": "uint256"
        }
      ],
      "stateMutability": "nonpayable",
      "type": "function"
    },
    {
      "inputs": [
        {
          "internalType": "uint256",
          "name": "_id",
          "type": "uint256"
        }
      ],
      "name": "getMarketData",
      "outputs": [
        {
          "internalType": "uint256",
          "name": "",
          "type": "uint256"
        },
        {
          "internalType": "uint256",
          "name": "",
          "type": "uint256"
        },
        {
          "internalType": "uint256",
          "name": "",
          "type": "uint256"
        }
      ],
      "stateMutability": "view",
      "type": "function"
    },
    {
      "inputs": [
        {
          "internalType": "address",
          "name": "",
          "type": "address"
        },
        {
          "internalType": "string",
          "name": "",
          "type": "string"
        }
      ],
      "name": "hasRole",
      "outputs": [
        {
          "internalType": "bool",
          "name": "",
          "type": "bool"
        }
      ],
      "stateMutability": "view",
      "type": "function"
    },
    {
      "inputs": [],
      "name": "insurance",
      "outputs": [
        {
          "internalType": "address",
          "name": "",
          "type": "address"
        }
      ],
      "stateMutability": "view",
      "type": "function"
    },
    {
      "inputs": [
        {
          "internalType": "uint256",
          "name": "",
          "type": "uint256"
        }
      ],
      "name": "markets",
      "outputs": [
        {
          "internalType": "uint256",
          "name": "capacity",
          "type": "uint256"
        },
        {
          "internalType": "contract IERC20",
          "name": "quoteToken",
          "type": "address"
        },
        {
          "internalType": "bool",
          "name": "capacityInQuote",
          "type": "bool"
        },
        {
          "internalType": "uint256",
          "name": "totalDebt",
          "type": "uint256"
        },
        {
          "internalType": "uint256",
          "name": "maxPayout",
          "type": "uint256"
        },
        {
          "internalType": "uint256",
          "name": "sold",
          "type": "uint256"
        },
        {
          "internalType": "uint256",
          "name": "purchased",
          "type": "uint256"
        }
      ],
      "stateMutability": "view",
      "type": "function"
    },
    {
      "inputs": [
        {
          "internalType": "address",
          "name": "",
          "type": "address"
        },
        {
          "internalType": "uint256",
          "name": "",
          "type": "uint256"
        }
      ],
      "name": "marketsForQuote",
      "outputs": [
        {
          "internalType": "uint256",
          "name": "",
          "type": "uint256"
        }
      ],
      "stateMutability": "view",
      "type": "function"
    },
    {
      "inputs": [
        {
          "internalType": "uint256",
          "name": "",
          "type": "uint256"
        }
      ],
      "name": "metadata",
      "outputs": [
        {
          "internalType": "uint48",
          "name": "lastTune",
          "type": "uint48"
        },
        {
          "internalType": "uint48",
          "name": "lastDecay",
          "type": "uint48"
        },
        {
          "internalType": "uint48",
          "name": "length",
          "type": "uint48"
        },
        {
          "internalType": "uint48",
          "name": "depositInterval",
          "type": "uint48"
        },
        {
          "internalType": "uint48",
          "name": "tuneInterval",
          "type": "uint48"
        },
        {
          "internalType": "uint8",
          "name": "quoteDecimals",
          "type": "uint8"
        }
      ],
      "stateMutability": "view",
      "type": "function"
    },
    {
      "inputs": [],
      "name": "nend",
      "outputs": [
        {
          "internalType": "contract NEND",
          "name": "",
          "type": "address"
        }
      ],
      "stateMutability": "view",
      "type": "function"
    },
    {
      "inputs": [
        {
          "internalType": "address",
          "name": "",
          "type": "address"
        },
        {
          "internalType": "uint256",
          "name": "",
          "type": "uint256"
        }
      ],
      "name": "notes",
      "outputs": [
        {
          "internalType": "uint256",
          "name": "payout",
          "type": "uint256"
        },
        {
          "internalType": "uint256",
          "name": "payoutPerVesting",
          "type": "uint256"
        },
        {
          "internalType": "uint48",
          "name": "created",
          "type": "uint48"
        },
        {
          "internalType": "uint48",
          "name": "marketID",
          "type": "uint48"
        },
        {
          "internalType": "uint8",
          "name": "vestingCount",
          "type": "uint8"
        }
      ],
      "stateMutability": "view",
      "type": "function"
    },
    {
      "inputs": [],
      "name": "owner",
      "outputs": [
        {
          "internalType": "address",
          "name": "",
          "type": "address"
        }
      ],
      "stateMutability": "view",
      "type": "function"
    },
    {
      "inputs": [
        {
          "internalType": "uint256[]",
          "name": "_indexes",
          "type": "uint256[]"
        }
      ],
      "name": "redeem",
      "outputs": [
        {
          "internalType": "uint256",
          "name": "payout_",
          "type": "uint256"
        }
      ],
      "stateMutability": "nonpayable",
      "type": "function"
    },
    {
      "inputs": [
        {
          "internalType": "uint256",
          "name": "_marketId",
          "type": "uint256"
        }
      ],
      "name": "redeemAll",
      "outputs": [
        {
          "internalType": "uint256",
          "name": "",
          "type": "uint256"
        }
      ],
      "stateMutability": "nonpayable",
      "type": "function"
    },
    {
      "inputs": [],
      "name": "renounceOwnership",
      "outputs": [],
      "stateMutability": "nonpayable",
      "type": "function"
    },
    {
      "inputs": [
        {
          "internalType": "bool",
          "name": "_testing",
          "type": "bool"
        }
      ],
      "name": "setTesting",
      "outputs": [],
      "stateMutability": "nonpayable",
      "type": "function"
    },
    {
      "inputs": [
        {
          "internalType": "uint256",
          "name": "",
          "type": "uint256"
        }
      ],
      "name": "terms",
      "outputs": [
        {
          "internalType": "uint256",
          "name": "controlVariable",
          "type": "uint256"
        },
        {
          "internalType": "uint48",
          "name": "conclusion",
          "type": "uint48"
        },
        {
          "internalType": "uint256",
          "name": "maxDebt",
          "type": "uint256"
        }
      ],
      "stateMutability": "view",
      "type": "function"
    },
    {
      "inputs": [],
      "name": "testVestingInverval",
      "outputs": [
        {
          "internalType": "uint48",
          "name": "",
          "type": "uint48"
        }
      ],
      "stateMutability": "view",
      "type": "function"
    },
    {
      "inputs": [],
      "name": "testing",
      "outputs": [
        {
          "internalType": "bool",
          "name": "",
          "type": "bool"
        }
      ],
      "stateMutability": "view",
      "type": "function"
    },
    {
      "inputs": [],
      "name": "totalVestingCount",
      "outputs": [
        {
          "internalType": "uint8",
          "name": "",
          "type": "uint8"
        }
      ],
      "stateMutability": "view",
      "type": "function"
    },
    {
      "inputs": [
        {
          "internalType": "address",
          "name": "newOwner",
          "type": "address"
        }
      ],
      "name": "transferOwnership",
      "outputs": [],
      "stateMutability": "nonpayable",
      "type": "function"
    },
    {
      "inputs": [],
      "name": "treasury",
      "outputs": [
        {
          "internalType": "address",
          "name": "",
          "type": "address"
        }
      ],
      "stateMutability": "view",
      "type": "function"
    },
    {
      "inputs": [
        {
          "internalType": "uint16",
          "name": "_commissionRate",
          "type": "uint16"
        }
      ],
      "name": "updateCommissionRate",
      "outputs": [],
      "stateMutability": "nonpayable",
      "type": "function"
    },
    {
      "inputs": [
        {
          "internalType": "address",
          "name": "_insurance",
          "type": "address"
        }
      ],
      "name": "updateInsurance",
      "outputs": [],
      "stateMutability": "nonpayable",
      "type": "function"
    },
    {
      "inputs": [
        {
          "internalType": "contract NEND",
          "name": "_nend",
          "type": "address"
        }
      ],
      "name": "updateNend",
      "outputs": [],
      "stateMutability": "nonpayable",
      "type": "function"
    },
    {
      "inputs": [],
      "name": "vestingInverval",
      "outputs": [
        {
          "internalType": "uint48",
          "name": "",
          "type": "uint48"
        }
      ],
      "stateMutability": "view",
      "type": "function"
    }
  ],
  "transactionHash": "0xfdbdfbde80b7b3b50b16c223e267a98f0f99d0a66bb9706fb657f87c63411556",
  "args": [
    "0x235D5eb29E540DB5D58Ba7CC4cC1fbf0118A1Fa2",
    "0xC3C6613f36FbBE4667997555A8E020316a46679a",
    "0xCAE22f4f0D72A28F70774F05D71B447B1EdDcd37"
  ],
  "numDeployments": 15,
  "solcInputHash": "e6a8509ab9edc0773d6a6bd4cf2732fa",
  "bytecode": "0x60e034620000bb57601f6200304238819003918201601f19168301916001600160401b03831184841017620000c057808492606094604052833981010312620000bb5780516200007b916200005482620000d6565b60406020820151916200006783620000d6565b0151916200007583620000d6565b620000e8565b604051612e929081620001b08239608051818181610cf00152612d74015260a05181818161094b0152612e30015260c051818181610c120152612ddf0152f35b600080fd5b634e487b7160e01b600052604160045260246000fd5b6001600160a01b03811603620000bb57565b90916000549174012f358b80ed2d296c09560d2b9f70a7f81d57e35260018060a01b0393732f358b80ed2d296c09560d2b9f70a7f81d57e3528582167f8be0079c531659141344cd1fd0a4f28419497f9722a3daafe3b4186f6b6457e06000604051a36001600160a81b031916176000556005608052600380546201518060a05261025860c052600280546001600160a01b03199081169787169790971790556001600160b01b03191691841691909117600f60a11b17905560098054909316911617905556fe60806040526004361015610013575b600080fd5b60003560e01c8062aeef8a1461025657806308ed8d161461024d5780630aebeb4e14610244578063217fe6c61461023b57806321858b9e14610232578063231259d91461022957806339d2525f146102205780633eca1cf01461021757806345fd86ac1461020e5780635ea1d6f8146102055780636088d109146101fc57806361d027b3146101f35780637136a7a6146101ea578063715018a6146101e15780637ecb084d146101d857806382952200146101cf57806389cf3204146101c65780638d03b102146101bd5780638da5cb5b146101b457806399d508c0146101ab578063b1283e77146101a2578063bc3b2b1214610199578063bfacba3d14610190578063c0680e2014610187578063c0aa0e8a1461017e578063e0b117ff14610175578063e3684e391461016c578063f2fde38b146101635763f9afb26a1461015b57600080fd5b61000e611334565b5061000e611241565b5061000e6111a4565b5061000e611109565b5061000e611057565b5061000e610f89565b5061000e610e57565b5061000e610dfe565b5061000e610d74565b5061000e610cd5565b5061000e610cad565b5061000e610c86565b5061000e610c5e565b5061000e610c36565b5061000e610bf2565b5061000e610b91565b5061000e610a55565b5061000e610a2d565b5061000e610995565b5061000e61096f565b5061000e61092b565b5061000e6108a4565b5061000e6107fa565b5061000e6107b3565b5061000e61076c565b5061000e6106dd565b5061000e610485565b5061000e610440565b503461000e57606036600319011261000e5760043560243561027782610d2b565b509161028281610fe4565b5061028c90611417565b9265ffffffffffff9381838642169260208101516102af9065ffffffffffff1690565b65ffffffffffff1684106102c290611466565b6102cc848361184f565b6102d5826124a5565b6102e36044358211156114b2565b806102ed89611515565b906102f79161156d565b61030084610f1e565b505460f01c60ff166103119061158d565b61031a9161156d565b97600385015489111561032c906115ac565b80600186019a8a8c546103439060ff9060a01c1690565b600014966103d1956103bd946103af9460409a61042d57610366825b8d546115f8565b8c5560058c0161037783825461160f565b90556103a5600267ffffffffffffffff87169d8e61039a6004830191825461160f565b9055019c8d5461160f565b8c5533931661272e565b9a546001600160a01b031690565b6009546001600160a01b0316903390611627565b01519054111561041d5750600090557f8401d05adbea6548a6999cc1540766e6d2ff919292142862893d0e62ec79fbe56000604051a25b604080519182526020820192909252f35b0390f35b905061042891611bfd565b610408565b6103668561035f565b8015150361000e57565b503461000e57602036600319011261000e5760043561045e81610436565b6104666113bf565b6000805460ff60a01b191691151560a01b60ff60a01b16919091179055005b503461000e57602036600319011261000e5760006004356104a4611ea6565b506104ce6104b182610fe4565b50600101805465ffffffffffff19164265ffffffffffff16179055565b816104d882610d2b565b5055604051907f8401d05adbea6548a6999cc1540766e6d2ff919292142862893d0e62ec79fbe58383a2f35b6001600160a01b0381160361000e57565b50634e487b7160e01b600052604160045260246000fd5b67ffffffffffffffff811161054057604052565b610548610515565b604052565b60a0810190811067ffffffffffffffff82111761054057604052565b6040810190811067ffffffffffffffff82111761054057604052565b90601f8019910116810190811067ffffffffffffffff82111761054057604052565b604051906080820182811067ffffffffffffffff82111761054057604052565b6040519060e0820182811067ffffffffffffffff82111761054057604052565b604051906060820182811067ffffffffffffffff82111761054057604052565b6040519060c0820182811067ffffffffffffffff82111761054057604052565b604051906106348261054d565b565b60209067ffffffffffffffff8111610654575b601f01601f19160190565b61065c610515565b610649565b81601f8201121561000e5780359061067882610636565b926106866040519485610585565b8284526020838301011161000e57816000926020809301838601378301015290565b918091926000905b8282106106c85750116106c1575050565b6000910152565b915080602091830151818601520182916106b0565b503461000e57604036600319011261000e576004356106fb81610504565b60243567ffffffffffffffff811161000e5761074f6020610419936001600160a01b0361072e60ff953690600401610661565b911660005260048252604060002082604051948386809551938492016106a8565b820190815203019020546040519116151581529081906020820190565b503461000e57602036600319011261000e576001600160a01b0360043561079281610504565b61079a6113bf565b166001600160a01b031960025416176002556000604051f35b503461000e57602036600319011261000e576001600160a01b036004356107d981610504565b6107e16113bf565b166001600160a01b031960035416176003556000604051f35b503461000e57606036600319011261000e5760043561081881610504565b60243567ffffffffffffffff811161000e57602061083d610872923690600401610661565b6001600160a01b036044359461085286610436565b1660005260048252604060002082604051948386809551938492016106a8565b8201908152030190209060ff8019835416911515161790556000604051f35b60c4359063ffffffff8216820361000e57565b503461000e5760e036600319011261000e576004356108c281610504565b604435906108cf82610436565b6084359165ffffffffffff8316830361000e5760a43563ffffffff8116810361000e576104199361091093610902610891565b936064359160243590611ec7565b6040519081529081906020820190565b600091031261000e57565b503461000e57600036600319011261000e57602060405165ffffffffffff7f0000000000000000000000000000000000000000000000000000000000000000168152f35b503461000e57600036600319011261000e57602061ffff60035460a01c16604051908152f35b503461000e57602036600319011261000e5760043561ffff811680820361000e57612710906109c26113bf565b116109e8576003805461ffff60a01b191660a09290921b61ffff60a01b16919091179055005b60405162461bcd60e51b815260206004820152601360248201527f496e76616c696420626173697320706f696e74000000000000000000000000006044820152606490fd5b503461000e57600036600319011261000e5760206001600160a01b0360095416604051908152f35b503461000e57602036600319011261000e57600435610a8f610a8a336001600160a01b03166000526001602052604060002090565b612cca565b6000805b8251811015610b06578365ffffffffffff610ac16060610ab3858861298b565b51015165ffffffffffff1690565b161480610af1575b610adc575b610ad79061297b565b610a93565b90610ae9610ad79161297b565b919050610ace565b5060ff610afe8233612d32565b161515610ac9565b50610b1090612949565b6000805b8351811015610b85578465ffffffffffff610b346060610ab3858961298b565b161480610b70575b610b4f575b610b4a9061297b565b610b14565b90610b688183610b62610b4a948761298b565b5261297b565b919050610b41565b5060ff610b7d8233612d32565b161515610b3c565b61041961091084612ab5565b503461000e57600080600319360112610bef57610bac6113bf565b80546001600160a01b031981168255816001600160a01b0360405192167f8be0079c531659141344cd1fd0a4f28419497f9722a3daafe3b4186f6b6457e08284a3f35b80fd5b503461000e57600036600319011261000e57602060405165ffffffffffff7f0000000000000000000000000000000000000000000000000000000000000000168152f35b503461000e57600036600319011261000e5760206001600160a01b0360035416604051908152f35b503461000e57600036600319011261000e5760206001600160a01b0360025416604051908152f35b503461000e57600036600319011261000e57602060ff60005460a01c166040519015158152f35b503461000e57600036600319011261000e5760206001600160a01b0360005416604051908152f35b503461000e57600036600319011261000e57602060405160ff7f0000000000000000000000000000000000000000000000000000000000000000168152f35b50634e487b7160e01b600052603260045260246000fd5b600690600554811015610d67575b6005600052027f036b6384b5eca791c62761152d0c79bb0604c104a5fb6f4eb0703f3154bb3db00190600090565b610d6f610d14565b610d39565b503461000e57602036600319011261000e5760043560055481101561000e57610d9c90610d2b565b5080546001820154600283015460038401546004850154600590950154604080519586526001600160a01b038516602087015260ff60a095861c16151590860152606085019290925260808401529082019290925260c081019190915260e090f35b503461000e57602036600319011261000e5760043560005260086020526080604060002060ff6001825492015460405192835265ffffffffffff80821660208501528160301c16604084015260601c1615156060820152f35b503461000e57602036600319011261000e57600435610e75816124a5565b6104196b033b2e3c9fd0803ce8000000610ef383610eee610e9587610d2b565b505496610ee860ff6003610ea884610d2b565b50015492600754811015610f11575b60076000527fa66cc928b5edb82af9bd49922954155ab7b0942694bea4ce44661d9a8736c688015460f01c1661158d565b9061155a565b61155a565b04604051938493846040919493926060820195825260208201520152565b610f19610d14565b610eb7565b600754811015610f56575b60076000527fa66cc928b5edb82af9bd49922954155ab7b0942694bea4ce44661d9a8736c6880190600090565b610f5e610d14565b610f29565b8054821015610f7c575b60005260206000200190600090565b610f84610d14565b610f6d565b503461000e57604036600319011261000e57600435610fa781610504565b6001600160a01b036024359116600052600a6020526040600020805482101561000e57602091610fd691610f63565b90546040519160031b1c8152f35b600390600654811015611020575b6006600052027ff652222313e28459528d920b65115c16c04f3efc82aaedc97be59f3f377c0d3f0190600090565b611028610d14565b610ff2565b805482101561104a575b6000526003602060002091020190600090565b611052610d14565b611037565b503461000e57602036600319011261000e5760043560065481101561000e576003606091600660005202807ff652222313e28459528d920b65115c16c04f3efc82aaedc97be59f3f377c0d3f0154907ff652222313e28459528d920b65115c16c04f3efc82aaedc97be59f3f377c0d4165ffffffffffff7ff652222313e28459528d920b65115c16c04f3efc82aaedc97be59f3f377c0d40830154169101549060405192835260208301526040820152f35b503461000e57604036600319011261000e5760043561112781610504565b6001600160a01b0360243591166000526001602052604060002090815481101561000e576111549161102d565b508054600182015460029092015460408051928352602083019390935265ffffffffffff80821693830193909352603081901c9092166060808301919091529190911c60ff16608082015260a090f35b503461000e57602036600319011261000e5760043560075481101561000e5760076000527fa66cc928b5edb82af9bd49922954155ab7b0942694bea4ce44661d9a8736c68801546040805165ffffffffffff8084168252603084901c81166020830152606084811c821693830193909352609084901c81169282019290925260c083811c909216608082015260f09290921c60ff1660a083015290f35b503461000e57602036600319011261000e5760043561125f81610504565b6112676113bf565b6001600160a01b038091169081156112b957600091825491816001600160a01b0319841617845560405192167f8be0079c531659141344cd1fd0a4f28419497f9722a3daafe3b4186f6b6457e08484a3f35b60405162461bcd60e51b815260206004820152602660248201527f4f776e61626c653a206e6577206f776e657220697320746865207a65726f206160448201526564647265737360d01b6064820152608490fd5b60209067ffffffffffffffff8111611327575b60051b0190565b61132f610515565b611320565b503461000e5760208060031936011261000e5760043567ffffffffffffffff811161000e573660238201121561000e578060040135906113738261130d565b916113816040519384610585565b80835260248484019160051b8301019136831161000e57602401905b8282106113b05761041961091085612ab5565b8135815290840190840161139d565b6001600160a01b036000541633036113d357565b606460405162461bcd60e51b815260206004820152602060248201527f4f776e61626c653a2063616c6c6572206973206e6f7420746865206f776e65726044820152fd5b906040516060810181811067ffffffffffffffff821117611459575b6040526040600282948054845265ffffffffffff60018201541660208501520154910152565b611461610515565b611433565b1561146d57565b60405162461bcd60e51b815260206004820152601c60248201527f4465706f7369746f72793a206d61726b657420636f6e636c75646564000000006044820152606490fd5b156114b957565b60405162461bcd60e51b815260206004820152601f60248201527f4465706f7369746f72793a206d6f7265207468616e206d6178207072696365006044820152606490fd5b50634e487b7160e01b600052601160045260246000fd5b6b033b2e3c9fd0803ce8000000908060001904821181151516611536570290565b61153e6114fe565b0290565b620f4240908060001904821181151516611536570290565b8060001904821181151516611536570290565b8115611577570490565b634e487b7160e01b600052601260045260246000fd5b60ff16604d811161159f575b600a0a90565b6115a76114fe565b611599565b156115b357565b60405162461bcd60e51b815260206004820152601d60248201527f4465706f7369746f72793a206d61782073697a652065786365656465640000006044820152606490fd5b818110611603570390565b61160b6114fe565b0390565b8119811161161b570190565b6116236114fe565b0190565b6000916116c6949383926040519560208701936323b872dd60e01b85526001600160a01b03938480921660248a015216604488015260648701526064865261166e8661054d565b1690826040519561167e87610569565b602087527f5361666545524332303a206c6f772d6c6576656c2063616c6c206661696c656460208801526116b4843b1515611762565b51925af16116c06117ae565b906117de565b8051806116d1575050565b816020806116e69361063495010191016116eb565b611703565b9081602091031261000e575161170081610436565b90565b1561170a57565b60405162461bcd60e51b815260206004820152602a60248201527f5361666545524332303a204552433230206f7065726174696f6e20646964206e6044820152691bdd081cdd58d8d9595960b21b6064820152608490fd5b1561176957565b60405162461bcd60e51b815260206004820152601d60248201527f416464726573733a2063616c6c20746f206e6f6e2d636f6e74726163740000006044820152606490fd5b3d156117d9573d906117bf82610636565b916117cd6040519384610585565b82523d6000602084013e565b606090565b909190156117ea575090565b8151156117fa5750805190602001fd5b6044604051809262461bcd60e51b82526020600483015261182a81518092816024860152602086860191016106a8565b601f01601f19168101030190fd5b65ffffffffffff9182169116818110611603570390565b90600754821015611a26575b60076000526118dd6118d06118d0611894857fa66cc928b5edb82af9bd49922954155ab7b0942694bea4ce44661d9a8736c68801611a33565b65ffffffffffff60406118c682602085015116804210611a19575b60026118ba8b610d2b565b5091420391015461155a565b920151169061156d565b67ffffffffffffffff1690565b6118f560026118eb85610d2b565b50019182546115f8565b90556119298161190484610f1e565b509065ffffffffffff60301b82549160301b169065ffffffffffff60301b1916179055565b61194d6001611942846000526008602052604060002090565b015460601c60ff1690565b611955575050565b611969826000526008602052604060002090565b9161197f611976826125a5565b91929093610fe4565b5061198b8382546115f8565b905515611a06576119c66001856119a96119ed9461063498546115f8565b815501926119c1845465ffffffffffff9060301c1690565b611838565b82546bffffffffffff000000000000191660309190911b65ffffffffffff60301b16178255565b9065ffffffffffff1665ffffffffffff19825416179055565b505050600101805460ff60601b19169055565b611a216114fe565b6118af565b611a2e610d14565b61185b565b9060405160c0810181811067ffffffffffffffff821117611a99575b60405260a060ff82945465ffffffffffff8082168552808260301c166020860152808260601c166040860152808260901c1660608601528160c01c16608085015260f01c16910152565b611aa1610515565b611a4f565b9065ffffffffffff808093169116809203811161161b570190565b9060405160e0810181811067ffffffffffffffff821117611b37575b60405260c06005829480548452611b1260ff60018301546001600160a01b038116602088015260a01c16604086019015159052565b6002810154606085015260038101546080850152600481015460a08501520154910152565b611b3f610515565b611add565b9081602091031261000e575190565b506040513d6000823e3d90fd5b50634e487b7160e01b600052600060045260246000fd5b60606001611bf992845181550192611bde65ffffffffffff611bb381602085015116879065ffffffffffff1665ffffffffffff19825416179055565b604083015186546bffffffffffff0000000000001916911660301b65ffffffffffff60301b16178555565b0151825460ff60601b191690151560601b60ff60601b161790565b9055565b90611c10611c0a83610f1e565b50611a33565b805165ffffffffffff1692611c47611c3c6080840195611c36875165ffffffffffff1690565b90611aa6565b65ffffffffffff1690565b65ffffffffffff84161015611c5d575b50505050565b611de193611d986118d085611ce36004611d4a611dc798611ce389610ee8611c3c6040611cb5611c3c611c98611c9287610d2b565b50611ac1565b9b6119c16001611ca789610fe4565b50015465ffffffffffff1690565b95611cbf856124a5565b9a8b611ccd84830151151590565b15611e9e57611ce890611ce3611d049351611515565b61156d565b611cfe611cf960a085015160ff1690565b61158d565b9061156d565b945b6003611d3a611d346118d06118d08c611ce3611d2e611c3c60608b015165ffffffffffff1690565b8d61155a565b92610d2b565b500155015165ffffffffffff1690565b926020611d6e611d626003546001600160a01b031690565b6001600160a01b031690565b604051633fdaeac760e11b815293849182905afa918215611e91575b600092611e61575b5061155a565b9067ffffffffffffffff611dab84610fe4565b50549216918210611dea5750611dc082610fe4565b5055610f1e565b509065ffffffffffff1665ffffffffffff19825416179055565b38808080611c57565b611e3c611e14611e07611e5c94611e0087610fe4565b50546115f8565b925165ffffffffffff1690565b611e1c6105a7565b92835265ffffffffffff8716602084015265ffffffffffff166040830152565b60016060820152611e57836000526008602052604060002090565b611b77565b610f1e565b611e8391925060203d8111611e8a575b611e7b8183610585565b810190611b44565b9038611d92565b503d611e71565b611e99611b53565b611d8a565b505194611d06565b60405190611eb382610569565b600582526430b236b4b760d91b6020830152565b90939491959295611ed6611ea6565b50611ee94265ffffffffffff88166115f8565b906040519763313ce56760e01b89526020896004816001600160a01b0388165afa9889156121aa575b600099612179575b5081156121715787611f3e611f3283611ce38b611515565b611cfe60ff8d166121d0565b915b6005549a8b9986611f5763ffffffff8b168761155a565b90611f619161156d565b611f696105c7565b9182526001600160a01b03891660208301528615156040830152856060830152608082015260a081016000905260c0810160009052611fa7906121de565b600354604051633fdaeac760e11b815291908590839081906001600160a01b03165a92600491602094fa80159b6120d763ffffffff6001600160a01b039d7fabc443215e32d8be9e2437c2c0032632966baa3b53a06e4a3ddcb16d3cc3d1e49f65ffffffffffff6121449e61208e6120f79e60209e6120846120f29f60ff9f6120e79e611ce38c9f6120699461204d946120c79d612164575b60009261214a575061155a565b9361206361205a82611542565b620186a0900490565b9061160f565b916120726105e7565b93845265ffffffffffff166020840152565b604082015261229d565b6120b782421661209c610607565b65ffffffffffff821681529e8f019065ffffffffffff169052565b1665ffffffffffff1660408c0152565b1665ffffffffffff166060890152565b1665ffffffffffff166080860152565b1660ff1660a0830152565b61231a565b61211f8661211a8686166001600160a01b0316600052600a602052604060002090565b612460565b60405193849316968390929160209065ffffffffffff60408401951683521515910152565b0390a390565b6020611e839293503d602011611e8a57611e7b8183610585565b61216c611b53565b612040565b878791611f40565b61219c91995060203d6020116121a3575b6121948183610585565b8101906121b7565b9738611f1a565b503d61218a565b6121b2611b53565b611f12565b9081602091031261000e575160ff8116810361000e5790565b604d811161159f57600a0a90565b600560c06121ff8254600160401b811015612290575b600181018455610d2b565b939093612283575b8051845561225e6001850161223f6001600160a01b0360208501511682906001600160a01b03166001600160a01b0319825416179055565b6040830151815460ff60a01b191690151560a01b60ff60a01b16179055565b606081015160028501556080810151600385015560a081015160048501550151910155565b61228b611b60565b612207565b612298610515565b6121f4565b600260406122c0600654600160401b81101561230d575b60018101600655610fe4565b939093612300575b805184556122f965ffffffffffff602083015116600186019065ffffffffffff1665ffffffffffff19825416179055565b0151910155565b612308611b60565b6122c8565b612315610515565b6122b4565b6106349061242c60a0612342600754600160401b811015612453575b60018101600755610f1e565b939093612446575b805184546020830151604084015160608086015191901b71ffffffffffff0000000000000000000000001660309290921b65ffffffffffff60301b1665ffffffffffff9485167fffffffffffffffff00000000000000000000000000000000000000000000000090941693909317929092171760909190911b77ffffffffffff000000000000000000000000000000000000161785556080820151612424911685547fffff000000000000ffffffffffffffffffffffffffffffffffffffffffffffff1660c09190911b65ffffffffffff60c01b16178555565b015160ff1690565b815460ff60f01b191660f09190911b60ff60f01b16179055565b61244e611b60565b61234a565b61245b610515565b612336565b805461247e91600160401b821015612498575b600182018155610f63565b819291549060031b600019811b9283911b16911916179055565b6124a0610515565b612473565b61170090611cfe611cf961256061255a6124be85610fe4565b5054610ee8600461251960026124d38a610d2b565b5001546007548a1015612598575b60076000527fa66cc928b5edb82af9bd49922954155ab7b0942694bea4ce44661d9a8736c6888a0154610ee89060f01c60ff1661158d565b6020612530611d626003546001600160a01b031690565b604051633fdaeac760e11b815293849182905afa91821561258b575b60009261256b575b5061156d565b93610f1e565b505460f01c60ff1690565b61258491925060203d8111611e8a57611e7b8183610585565b9038612554565b612593611b53565b61254c565b6125a0610d14565b6124e1565b6000908152600860205260408120906001604051926080840184811067ffffffffffffffff821117612662575b6040528054845201549165ffffffffffff9283811680602084015260ff6040840192868160301c16845260601c1615801560608501526126575761261890854216611838565b9361262c611c3c835165ffffffffffff1690565b9085169081109350831561265157611c3c611e07611cfe9261264e955161155a565b92565b50505192565b505050809150918190565b61266a610515565b6125d2565b60ff60806002612697611bf994805490600160401b821015612721575b60018201815561102d565b612714575b855181556020860151600182015560408601519101805465ffffffffffff191665ffffffffffff92831617815594906126fa90606083015187546bffffffffffff0000000000001916911660301b65ffffffffffff60301b16178655565b0151835460ff60601b1916911660601b60ff60601b161790565b61271c611b60565b61269c565b612729610515565b61268c565b909192949361276c61276561275d61275761275060035461ffff9060a01c1690565b61ffff1690565b8461155a565b612710900490565b80926115f8565b6127a761278c886001600160a01b03166000526001602052604060002090565b54976001600160a01b03166000526001602052604060002090565b9060058104906127f565ffffffffffff4216936127c2610627565b8381526020810185905265ffffffffffff861660408201529065ffffffffffff881660608301526000608083015261266f565b61280a611d626003546001600160a01b031690565b9661281d6002546001600160a01b031690565b96883b1561000e576040516340c10f1960e01b81526001600160a01b0398909816600489015260248801959095527f129794f6f9aa0adfa6dda6ca7d08d05812fea954f80008e5cf68ae7b9fa898b4978a976128d296916000908290604490829084905af180156128f0575b6128d7575b506040805133815265ffffffffffff9889166020820152908101989098526060880152608087015260a086015260c085015290911660e08301528190610100820190565b0390a1565b806128e46128ea9261052c565b80610920565b3861288e565b6128f8611b53565b612889565b1561290457565b60405162461bcd60e51b815260206004820152601160248201527f4e6f7468696e6720746f2072656465656d0000000000000000000000000000006044820152606490fd5b906129538261130d565b6129606040519182610585565b8281528092612971601f199161130d565b0190602036910137565b600190600019811461161b570190565b60209181518110156129a0575b60051b010190565b6129a8610d14565b612998565b156129b457565b60405162461bcd60e51b815260206004820152601260248201527f4e6f2070656e64696e672076657374696e6700000000000000000000000000006044820152606490fd5b60ff8091169116908160ff03811161161b570190565b90815180825260208080930193019160005b828110612a2f575050505090565b835185529381019392810192600101612a21565b906001600160a01b039095949295168152612a6a6020956080878401526080830190612a0f565b818103604083015285808551928381520194019060005b818110612a9e575050506117009394506060818403910152612a0f565b825160ff1686529487019491870191600101612a81565b90600091612ac5815115156128fd565b612acf8151612949565b90612ada8151612949565b9160005b8251811015612bbb57336000908152600160205260409020612b00828561298b565b51612b0a9161102d565b50612b15828561298b565b51612b209033612d32565b9660ff9081891692831515612b34906129ad565b600281018054909a9060601c60ff1690612b4d916129f9565b8a5460ff60601b191660609190911b60ff60601b16178a556001015492612b74908461155a565b612b7d9161160f565b975460601c60ff1680612b90858761298b565b60ff90911690521690612ba29161155a565b612bac828661298b565b52612bb69061297b565b612ade565b5090612bd2611d626003546001600160a01b031690565b803b1561000e576040516340c10f1960e01b8152336004820152602481018790527f5a21b90378728eb82fe7be28a8f4a46d422e5c1f08ac7521b84ef5c190b0cc86946128d2929091906000908290604490829084905af18015612c57575b612c44575b506040519384933385612a43565b806128e4612c519261052c565b38612c36565b612c5f611b53565b612c31565b9060405160a0810181811067ffffffffffffffff821117612cbd575b604052608060ff600283958054855260018101546020860152015465ffffffffffff80821660408601528160301c16606085015260601c16910152565b612cc5610515565b612c80565b908154612cd68161130d565b92612ce46040519485610585565b818452600090815260208082208186015b848410612d03575050505050565b600383600192612d1285612c64565b815201920193019290612cf5565b60ff9182169116818110611603570390565b612d6191612d56612d5b926001600160a01b03166000526001602052604060002090565b61102d565b50612c64565b6080810160ff612d72825160ff1690565b7f0000000000000000000000000000000000000000000000000000000000000000821691168114612e5457612e1860ff91612e06612dc8612dc2611c3c604061170099015165ffffffffffff1690565b426115f8565b60005460a01c60ff1615612e275765ffffffffffff7f00000000000000000000000000000000000000000000000000000000000000005b169061156d565b81811115612e1f5750925b5160ff1690565b9116612d20565b905092612e11565b65ffffffffffff7f0000000000000000000000000000000000000000000000000000000000000000612dff565b50505060009056fea26469706673582212204b81c0a131fc05caf0a77a473b1df0bf24a77179132e9192db612241fdc3c72964736f6c634300080e0033",
  "devdoc": {
    "kind": "dev",
    "methods": {
      "close(uint256)": {
        "params": {
          "_id": "ID of market to close"
        }
      },
      "deposit(uint256,uint256,uint256)": {
        "params": {
          "_amount": "the amount of quote token to spend",
          "_id": "the ID of the market",
          "_maxPrice": "the maxeimum price at which to buy"
        },
        "returns": {
          "index_": "     the user index of the Note (usd to redeem or query information)",
          "payout_": "    the amount of NEND due"
        }
      },
      "owner()": {
        "details": "Returns the address of the current owner."
      },
      "redeem(uint256[])": {
        "params": {
          "_indexes": "the note indexes to redeem"
        },
        "returns": {
          "payout_": "    sum of payout sent, in NEND"
        }
      },
      "redeemAll(uint256)": {
        "details": "if possible, query indexesFor() off-chain and input in redeem() to save gas",
        "returns": {
          "_0": "sum of payout sent, in NEND"
        }
      },
      "renounceOwnership()": {
        "details": "Leaves the contract without owner. It will not be possible to call `onlyOwner` functions anymore. Can only be called by the current owner. NOTE: Renouncing ownership will leave the contract without an owner, thereby removing any functionality that is only available to the owner."
      },
      "transferOwnership(address)": {
        "details": "Transfers ownership of the contract to a new account (`newOwner`). Can only be called by the current owner."
      }
    },
    "version": 1
  },
  "userdoc": {
    "kind": "user",
    "methods": {
      "close(uint256)": {
        "notice": "disable existing market"
      },
      "deposit(uint256,uint256,uint256)": {
        "notice": "deposit quote tokens in exchange for a bond from a specified market"
      },
      "redeem(uint256[])": {
        "notice": "redeem notes for user"
      },
      "redeemAll(uint256)": {
        "notice": "redeem all redeemable markets for user"
      }
    },
    "version": 1
  },
  "storageLayout": {
    "storage": [
      {
        "astId": 8357,
        "contract": "contracts/bonding/BondDepository.sol:BondDepository",
        "label": "_owner",
        "offset": 0,
        "slot": "0",
        "type": "t_address"
      },
      {
        "astId": 24014,
        "contract": "contracts/bonding/BondDepository.sol:BondDepository",
        "label": "testing",
        "offset": 20,
        "slot": "0",
        "type": "t_bool"
      },
      {
        "astId": 9557,
        "contract": "contracts/bonding/BondDepository.sol:BondDepository",
        "label": "notes",
        "offset": 0,
        "slot": "1",
        "type": "t_mapping(t_address,t_array(t_struct(Note)9496_storage)dyn_storage)"
      },
      {
        "astId": 9559,
        "contract": "contracts/bonding/BondDepository.sol:BondDepository",
        "label": "insurance",
        "offset": 0,
        "slot": "2",
        "type": "t_address"
      },
      {
        "astId": 9562,
        "contract": "contracts/bonding/BondDepository.sol:BondDepository",
        "label": "nend",
        "offset": 0,
        "slot": "3",
        "type": "t_contract(NEND)24137"
      },
      {
        "astId": 9568,
        "contract": "contracts/bonding/BondDepository.sol:BondDepository",
        "label": "commissionRate",
        "offset": 20,
        "slot": "3",
        "type": "t_uint16"
      },
      {
        "astId": 8472,
        "contract": "contracts/bonding/BondDepository.sol:BondDepository",
        "label": "hasRole",
        "offset": 0,
        "slot": "4",
        "type": "t_mapping(t_address,t_mapping(t_string_memory_ptr,t_bool))"
      },
      {
        "astId": 8531,
        "contract": "contracts/bonding/BondDepository.sol:BondDepository",
        "label": "markets",
        "offset": 0,
        "slot": "5",
        "type": "t_array(t_struct(Market)9403_storage)dyn_storage"
      },
      {
        "astId": 8535,
        "contract": "contracts/bonding/BondDepository.sol:BondDepository",
        "label": "terms",
        "offset": 0,
        "slot": "6",
        "type": "t_array(t_struct(Terms)9410_storage)dyn_storage"
      },
      {
        "astId": 8539,
        "contract": "contracts/bonding/BondDepository.sol:BondDepository",
        "label": "metadata",
        "offset": 0,
        "slot": "7",
        "type": "t_array(t_struct(Metadata)9423_storage)dyn_storage"
      },
      {
        "astId": 8544,
        "contract": "contracts/bonding/BondDepository.sol:BondDepository",
        "label": "adjustments",
        "offset": 0,
        "slot": "8",
        "type": "t_mapping(t_uint256,t_struct(Adjustment)9432_storage)"
      },
      {
        "astId": 8546,
        "contract": "contracts/bonding/BondDepository.sol:BondDepository",
        "label": "treasury",
        "offset": 0,
        "slot": "9",
        "type": "t_address"
      },
      {
        "astId": 8551,
        "contract": "contracts/bonding/BondDepository.sol:BondDepository",
        "label": "marketsForQuote",
        "offset": 0,
        "slot": "10",
        "type": "t_mapping(t_address,t_array(t_uint256)dyn_storage)"
      }
    ],
    "types": {
      "t_address": {
        "encoding": "inplace",
        "label": "address",
        "numberOfBytes": "20"
      },
      "t_array(t_struct(Market)9403_storage)dyn_storage": {
        "base": "t_struct(Market)9403_storage",
        "encoding": "dynamic_array",
        "label": "struct IBondDepository.Market[]",
        "numberOfBytes": "32"
      },
      "t_array(t_struct(Metadata)9423_storage)dyn_storage": {
        "base": "t_struct(Metadata)9423_storage",
        "encoding": "dynamic_array",
        "label": "struct IBondDepository.Metadata[]",
        "numberOfBytes": "32"
      },
      "t_array(t_struct(Note)9496_storage)dyn_storage": {
        "base": "t_struct(Note)9496_storage",
        "encoding": "dynamic_array",
        "label": "struct INoteKeeper.Note[]",
        "numberOfBytes": "32"
      },
      "t_array(t_struct(Terms)9410_storage)dyn_storage": {
        "base": "t_struct(Terms)9410_storage",
        "encoding": "dynamic_array",
        "label": "struct IBondDepository.Terms[]",
        "numberOfBytes": "32"
      },
      "t_array(t_uint256)dyn_storage": {
        "base": "t_uint256",
        "encoding": "dynamic_array",
        "label": "uint256[]",
        "numberOfBytes": "32"
      },
      "t_bool": {
        "encoding": "inplace",
        "label": "bool",
        "numberOfBytes": "1"
      },
      "t_contract(IERC20)4822": {
        "encoding": "inplace",
        "label": "contract IERC20",
        "numberOfBytes": "20"
      },
      "t_contract(NEND)24137": {
        "encoding": "inplace",
        "label": "contract NEND",
        "numberOfBytes": "20"
      },
      "t_mapping(t_address,t_array(t_struct(Note)9496_storage)dyn_storage)": {
        "encoding": "mapping",
        "key": "t_address",
        "label": "mapping(address => struct INoteKeeper.Note[])",
        "numberOfBytes": "32",
        "value": "t_array(t_struct(Note)9496_storage)dyn_storage"
      },
      "t_mapping(t_address,t_array(t_uint256)dyn_storage)": {
        "encoding": "mapping",
        "key": "t_address",
        "label": "mapping(address => uint256[])",
        "numberOfBytes": "32",
        "value": "t_array(t_uint256)dyn_storage"
      },
      "t_mapping(t_address,t_mapping(t_string_memory_ptr,t_bool))": {
        "encoding": "mapping",
        "key": "t_address",
        "label": "mapping(address => mapping(string => bool))",
        "numberOfBytes": "32",
        "value": "t_mapping(t_string_memory_ptr,t_bool)"
      },
      "t_mapping(t_string_memory_ptr,t_bool)": {
        "encoding": "mapping",
        "key": "t_string_memory_ptr",
        "label": "mapping(string => bool)",
        "numberOfBytes": "32",
        "value": "t_bool"
      },
      "t_mapping(t_uint256,t_struct(Adjustment)9432_storage)": {
        "encoding": "mapping",
        "key": "t_uint256",
        "label": "mapping(uint256 => struct IBondDepository.Adjustment)",
        "numberOfBytes": "32",
        "value": "t_struct(Adjustment)9432_storage"
      },
      "t_string_memory_ptr": {
        "encoding": "bytes",
        "label": "string",
        "numberOfBytes": "32"
      },
      "t_struct(Adjustment)9432_storage": {
        "encoding": "inplace",
        "label": "struct IBondDepository.Adjustment",
        "members": [
          {
            "astId": 9425,
            "contract": "contracts/bonding/BondDepository.sol:BondDepository",
            "label": "change",
            "offset": 0,
            "slot": "0",
            "type": "t_uint256"
          },
          {
            "astId": 9427,
            "contract": "contracts/bonding/BondDepository.sol:BondDepository",
            "label": "lastAdjustment",
            "offset": 0,
            "slot": "1",
            "type": "t_uint48"
          },
          {
            "astId": 9429,
            "contract": "contracts/bonding/BondDepository.sol:BondDepository",
            "label": "timeToAdjusted",
            "offset": 6,
            "slot": "1",
            "type": "t_uint48"
          },
          {
            "astId": 9431,
            "contract": "contracts/bonding/BondDepository.sol:BondDepository",
            "label": "active",
            "offset": 12,
            "slot": "1",
            "type": "t_bool"
          }
        ],
        "numberOfBytes": "64"
      },
      "t_struct(Market)9403_storage": {
        "encoding": "inplace",
        "label": "struct IBondDepository.Market",
        "members": [
          {
            "astId": 9389,
            "contract": "contracts/bonding/BondDepository.sol:BondDepository",
            "label": "capacity",
            "offset": 0,
            "slot": "0",
            "type": "t_uint256"
          },
          {
            "astId": 9392,
            "contract": "contracts/bonding/BondDepository.sol:BondDepository",
            "label": "quoteToken",
            "offset": 0,
            "slot": "1",
            "type": "t_contract(IERC20)4822"
          },
          {
            "astId": 9394,
            "contract": "contracts/bonding/BondDepository.sol:BondDepository",
            "label": "capacityInQuote",
            "offset": 20,
            "slot": "1",
            "type": "t_bool"
          },
          {
            "astId": 9396,
            "contract": "contracts/bonding/BondDepository.sol:BondDepository",
            "label": "totalDebt",
            "offset": 0,
            "slot": "2",
            "type": "t_uint256"
          },
          {
            "astId": 9398,
            "contract": "contracts/bonding/BondDepository.sol:BondDepository",
            "label": "maxPayout",
            "offset": 0,
            "slot": "3",
            "type": "t_uint256"
          },
          {
            "astId": 9400,
            "contract": "contracts/bonding/BondDepository.sol:BondDepository",
            "label": "sold",
            "offset": 0,
            "slot": "4",
            "type": "t_uint256"
          },
          {
            "astId": 9402,
            "contract": "contracts/bonding/BondDepository.sol:BondDepository",
            "label": "purchased",
            "offset": 0,
            "slot": "5",
            "type": "t_uint256"
          }
        ],
        "numberOfBytes": "192"
      },
      "t_struct(Metadata)9423_storage": {
        "encoding": "inplace",
        "label": "struct IBondDepository.Metadata",
        "members": [
          {
            "astId": 9412,
            "contract": "contracts/bonding/BondDepository.sol:BondDepository",
            "label": "lastTune",
            "offset": 0,
            "slot": "0",
            "type": "t_uint48"
          },
          {
            "astId": 9414,
            "contract": "contracts/bonding/BondDepository.sol:BondDepository",
            "label": "lastDecay",
            "offset": 6,
            "slot": "0",
            "type": "t_uint48"
          },
          {
            "astId": 9416,
            "contract": "contracts/bonding/BondDepository.sol:BondDepository",
            "label": "length",
            "offset": 12,
            "slot": "0",
            "type": "t_uint48"
          },
          {
            "astId": 9418,
            "contract": "contracts/bonding/BondDepository.sol:BondDepository",
            "label": "depositInterval",
            "offset": 18,
            "slot": "0",
            "type": "t_uint48"
          },
          {
            "astId": 9420,
            "contract": "contracts/bonding/BondDepository.sol:BondDepository",
            "label": "tuneInterval",
            "offset": 24,
            "slot": "0",
            "type": "t_uint48"
          },
          {
            "astId": 9422,
            "contract": "contracts/bonding/BondDepository.sol:BondDepository",
            "label": "quoteDecimals",
            "offset": 30,
            "slot": "0",
            "type": "t_uint8"
          }
        ],
        "numberOfBytes": "32"
      },
      "t_struct(Note)9496_storage": {
        "encoding": "inplace",
        "label": "struct INoteKeeper.Note",
        "members": [
          {
            "astId": 9487,
            "contract": "contracts/bonding/BondDepository.sol:BondDepository",
            "label": "payout",
            "offset": 0,
            "slot": "0",
            "type": "t_uint256"
          },
          {
            "astId": 9489,
            "contract": "contracts/bonding/BondDepository.sol:BondDepository",
            "label": "payoutPerVesting",
            "offset": 0,
            "slot": "1",
            "type": "t_uint256"
          },
          {
            "astId": 9491,
            "contract": "contracts/bonding/BondDepository.sol:BondDepository",
            "label": "created",
            "offset": 0,
            "slot": "2",
            "type": "t_uint48"
          },
          {
            "astId": 9493,
            "contract": "contracts/bonding/BondDepository.sol:BondDepository",
            "label": "marketID",
            "offset": 6,
            "slot": "2",
            "type": "t_uint48"
          },
          {
            "astId": 9495,
            "contract": "contracts/bonding/BondDepository.sol:BondDepository",
            "label": "vestingCount",
            "offset": 12,
            "slot": "2",
            "type": "t_uint8"
          }
        ],
        "numberOfBytes": "96"
      },
      "t_struct(Terms)9410_storage": {
        "encoding": "inplace",
        "label": "struct IBondDepository.Terms",
        "members": [
          {
            "astId": 9405,
            "contract": "contracts/bonding/BondDepository.sol:BondDepository",
            "label": "controlVariable",
            "offset": 0,
            "slot": "0",
            "type": "t_uint256"
          },
          {
            "astId": 9407,
            "contract": "contracts/bonding/BondDepository.sol:BondDepository",
            "label": "conclusion",
            "offset": 0,
            "slot": "1",
            "type": "t_uint48"
          },
          {
            "astId": 9409,
            "contract": "contracts/bonding/BondDepository.sol:BondDepository",
            "label": "maxDebt",
            "offset": 0,
            "slot": "2",
            "type": "t_uint256"
          }
        ],
        "numberOfBytes": "96"
      },
      "t_uint16": {
        "encoding": "inplace",
        "label": "uint16",
        "numberOfBytes": "2"
      },
      "t_uint256": {
        "encoding": "inplace",
        "label": "uint256",
        "numberOfBytes": "32"
      },
      "t_uint48": {
        "encoding": "inplace",
        "label": "uint48",
        "numberOfBytes": "6"
      },
      "t_uint8": {
        "encoding": "inplace",
        "label": "uint8",
        "numberOfBytes": "1"
      }
    }
  }
}