{
  "address": "0x4ad5a8B610de0dcCEadC2c03110083aC051D52B8",
  "abi": [
    {
      "inputs": [
        {
          "internalType": "address",
          "name": "_tokenOwner",
          "type": "address"
        }
      ],
      "name": "publicMint",
      "outputs": [],
      "stateMutability": "nonpayable",
      "type": "function"
    }
  ],
  "transactionHash": "0x7e8875ce1d56191edab7733e59a1b5ae9a9cba4806e4c71b8250f62b30259a0d",
  "args": [],
  "numDeployments": 6,
  "solcInputHash": "e6a8509ab9edc0773d6a6bd4cf2732fa",
  "bytecode": "0x60808060405234601457608b908161001a8239f35b600080fdfe6004361015600c57600080fd5b6000803560e01c6332a93a3a14602157600080fd5b34605257602036600319011260525760043573ffffffffffffffffffffffffffffffffffffffff8116036052576080f35b80fdfea2646970667358221220102dc66615b84bc535fa46b4de17af0a02f13d9e9efc18a614e49263898fe76d64736f6c634300080e0033",
  "devdoc": {
    "kind": "dev",
    "methods": {},
    "version": 1
  },
  "userdoc": {
    "kind": "user",
    "methods": {},
    "version": 1
  },
  "storageLayout": {
    "storage": [],
    "types": null
  }
}