{
  "address": "0x55Ebc96704a2e51d281fF587311011bC6c244b49",
  "abi": [
    {
      "inputs": [
        {
          "internalType": "string",
          "name": "name",
          "type": "string"
        }
      ],
      "stateMutability": "nonpayable",
      "type": "constructor"
    },
    {
      "inputs": [
        {
          "internalType": "uint256",
          "name": "loanId",
          "type": "uint256"
        }
      ],
      "name": "AlreadyLeveragedLoan",
      "type": "error"
    },
    {
      "inputs": [
        {
          "internalType": "address",
          "name": "sender",
          "type": "address"
        },
        {
          "internalType": "uint256",
          "name": "loanId",
          "type": "uint256"
        },
        {
          "internalType": "uint256",
          "name": "requested",
          "type": "uint256"
        }
      ],
      "name": "IllegalLeverageAccess",
      "type": "error"
    },
    {
      "inputs": [
        {
          "internalType": "uint256",
          "name": "loanId",
          "type": "uint256"
        },
        {
          "internalType": "uint256",
          "name": "balance",
          "type": "uint256"
        },
        {
          "internalType": "uint256",
          "name": "requested",
          "type": "uint256"
        }
      ],
      "name": "NotSufficientBalanceInPool",
      "type": "error"
    },
    {
      "anonymous": false,
      "inputs": [
        {
          "indexed": true,
          "internalType": "address",
          "name": "previousOwner",
          "type": "address"
        },
        {
          "indexed": true,
          "internalType": "address",
          "name": "newOwner",
          "type": "address"
        }
      ],
      "name": "OwnershipTransferred",
      "type": "event"
    },
    {
      "stateMutability": "payable",
      "type": "fallback"
    },
    {
      "inputs": [
        {
          "internalType": "address",
          "name": "_tokenAddress",
          "type": "address"
        },
        {
          "internalType": "address",
          "name": "_spender",
          "type": "address"
        },
        {
          "internalType": "uint256",
          "name": "_amount",
          "type": "uint256"
        }
      ],
      "name": "approveERC20Transfer",
      "outputs": [
        {
          "internalType": "bool",
          "name": "",
          "type": "bool"
        }
      ],
      "stateMutability": "nonpayable",
      "type": "function"
    },
    {
      "inputs": [
        {
          "internalType": "address",
          "name": "operator",
          "type": "address"
        },
        {
          "internalType": "string",
          "name": "role",
          "type": "string"
        },
        {
          "internalType": "bool",
          "name": "authorized",
          "type": "bool"
        }
      ],
      "name": "authorize",
      "outputs": [],
      "stateMutability": "nonpayable",
      "type": "function"
    },
    {
      "inputs": [
        {
          "internalType": "address",
          "name": "",
          "type": "address"
        }
      ],
      "name": "authorizedOperators",
      "outputs": [
        {
          "internalType": "bool",
          "name": "",
          "type": "bool"
        }
      ],
      "stateMutability": "view",
      "type": "function"
    },
    {
      "inputs": [
        {
          "internalType": "address",
          "name": "",
          "type": "address"
        }
      ],
      "name": "authorizedSpenders",
      "outputs": [
        {
          "internalType": "bool",
          "name": "",
          "type": "bool"
        }
      ],
      "stateMutability": "view",
      "type": "function"
    },
    {
      "inputs": [
        {
          "internalType": "string",
          "name": "_name",
          "type": "string"
        },
        {
          "internalType": "address",
          "name": "_token",
          "type": "address"
        }
      ],
      "name": "getNamedBalance",
      "outputs": [
        {
          "internalType": "uint256",
          "name": "",
          "type": "uint256"
        }
      ],
      "stateMutability": "view",
      "type": "function"
    },
    {
      "inputs": [],
      "name": "getNativeBalance",
      "outputs": [
        {
          "internalType": "uint256",
          "name": "",
          "type": "uint256"
        }
      ],
      "stateMutability": "view",
      "type": "function"
    },
    {
      "inputs": [
        {
          "internalType": "address",
          "name": "",
          "type": "address"
        },
        {
          "internalType": "string",
          "name": "",
          "type": "string"
        }
      ],
      "name": "hasRole",
      "outputs": [
        {
          "internalType": "bool",
          "name": "",
          "type": "bool"
        }
      ],
      "stateMutability": "view",
      "type": "function"
    },
    {
      "inputs": [
        {
          "internalType": "uint256",
          "name": "loanId",
          "type": "uint256"
        },
        {
          "internalType": "address",
          "name": "paymentToken",
          "type": "address"
        },
        {
          "internalType": "uint256",
          "name": "leveragedAmount",
          "type": "uint256"
        },
        {
          "internalType": "address",
          "name": "borrower",
          "type": "address"
        }
      ],
      "name": "leverageLoan",
      "outputs": [],
      "stateMutability": "nonpayable",
      "type": "function"
    },
    {
      "inputs": [
        {
          "internalType": "uint256",
          "name": "",
          "type": "uint256"
        }
      ],
      "name": "leveragedLoan",
      "outputs": [
        {
          "internalType": "bool",
          "name": "",
          "type": "bool"
        }
      ],
      "stateMutability": "view",
      "type": "function"
    },
    {
      "inputs": [],
      "name": "loanAddress",
      "outputs": [
        {
          "internalType": "address",
          "name": "",
          "type": "address"
        }
      ],
      "stateMutability": "view",
      "type": "function"
    },
    {
      "inputs": [
        {
          "internalType": "uint256",
          "name": "",
          "type": "uint256"
        }
      ],
      "name": "loanToLeverage",
      "outputs": [
        {
          "internalType": "uint256",
          "name": "",
          "type": "uint256"
        }
      ],
      "stateMutability": "view",
      "type": "function"
    },
    {
      "inputs": [
        {
          "internalType": "uint256",
          "name": "",
          "type": "uint256"
        }
      ],
      "name": "loanToPoolUsageInBasisPoint",
      "outputs": [
        {
          "internalType": "uint256",
          "name": "",
          "type": "uint256"
        }
      ],
      "stateMutability": "view",
      "type": "function"
    },
    {
      "inputs": [],
      "name": "name",
      "outputs": [
        {
          "internalType": "string",
          "name": "",
          "type": "string"
        }
      ],
      "stateMutability": "view",
      "type": "function"
    },
    {
      "inputs": [
        {
          "internalType": "string",
          "name": "_name",
          "type": "string"
        },
        {
          "internalType": "address",
          "name": "_token",
          "type": "address"
        },
        {
          "internalType": "uint256",
          "name": "_amount",
          "type": "uint256"
        }
      ],
      "name": "namedBalanceReceive",
      "outputs": [],
      "stateMutability": "nonpayable",
      "type": "function"
    },
    {
      "inputs": [
        {
          "internalType": "string",
          "name": "_name",
          "type": "string"
        },
        {
          "internalType": "address",
          "name": "_token",
          "type": "address"
        },
        {
          "internalType": "uint256",
          "name": "_amount",
          "type": "uint256"
        }
      ],
      "name": "namedBalanceSpend",
      "outputs": [],
      "stateMutability": "nonpayable",
      "type": "function"
    },
    {
      "inputs": [
        {
          "internalType": "string",
          "name": "",
          "type": "string"
        },
        {
          "internalType": "address",
          "name": "",
          "type": "address"
        }
      ],
      "name": "namedBalances",
      "outputs": [
        {
          "internalType": "uint256",
          "name": "",
          "type": "uint256"
        }
      ],
      "stateMutability": "view",
      "type": "function"
    },
    {
      "inputs": [],
      "name": "owner",
      "outputs": [
        {
          "internalType": "address",
          "name": "",
          "type": "address"
        }
      ],
      "stateMutability": "view",
      "type": "function"
    },
    {
      "inputs": [],
      "name": "renounceOwnership",
      "outputs": [],
      "stateMutability": "nonpayable",
      "type": "function"
    },
    {
      "inputs": [
        {
          "internalType": "address",
          "name": "_tokenAddress",
          "type": "address"
        },
        {
          "internalType": "address",
          "name": "_operator",
          "type": "address"
        },
        {
          "internalType": "bool",
          "name": "_approved",
          "type": "bool"
        }
      ],
      "name": "setERC1155ApprovalForAll",
      "outputs": [],
      "stateMutability": "nonpayable",
      "type": "function"
    },
    {
      "inputs": [
        {
          "internalType": "address",
          "name": "_tokenAddress",
          "type": "address"
        },
        {
          "internalType": "address",
          "name": "_operator",
          "type": "address"
        },
        {
          "internalType": "bool",
          "name": "_approved",
          "type": "bool"
        }
      ],
      "name": "setERC721ApprovalForAll",
      "outputs": [],
      "stateMutability": "nonpayable",
      "type": "function"
    },
    {
      "inputs": [
        {
          "internalType": "address",
          "name": "_tokenAddress",
          "type": "address"
        },
        {
          "internalType": "address",
          "name": "_to",
          "type": "address"
        },
        {
          "internalType": "uint256",
          "name": "_id",
          "type": "uint256"
        },
        {
          "internalType": "uint256",
          "name": "_value",
          "type": "uint256"
        },
        {
          "internalType": "bytes",
          "name": "_data",
          "type": "bytes"
        }
      ],
      "name": "transferERC1155",
      "outputs": [],
      "stateMutability": "nonpayable",
      "type": "function"
    },
    {
      "inputs": [
        {
          "internalType": "address",
          "name": "_tokenAddress",
          "type": "address"
        },
        {
          "internalType": "address",
          "name": "_to",
          "type": "address"
        },
        {
          "internalType": "uint256[]",
          "name": "_ids",
          "type": "uint256[]"
        },
        {
          "internalType": "uint256[]",
          "name": "_values",
          "type": "uint256[]"
        },
        {
          "internalType": "bytes",
          "name": "_data",
          "type": "bytes"
        }
      ],
      "name": "transferERC1155Batch",
      "outputs": [],
      "stateMutability": "nonpayable",
      "type": "function"
    },
    {
      "inputs": [
        {
          "internalType": "address",
          "name": "_tokenAddress",
          "type": "address"
        },
        {
          "internalType": "address",
          "name": "_to",
          "type": "address"
        },
        {
          "internalType": "uint256",
          "name": "_amount",
          "type": "uint256"
        }
      ],
      "name": "transferERC20",
      "outputs": [
        {
          "internalType": "bool",
          "name": "",
          "type": "bool"
        }
      ],
      "stateMutability": "nonpayable",
      "type": "function"
    },
    {
      "inputs": [
        {
          "internalType": "address",
          "name": "_tokenAddress",
          "type": "address"
        },
        {
          "internalType": "address",
          "name": "_to",
          "type": "address"
        },
        {
          "internalType": "uint256",
          "name": "_tokenId",
          "type": "uint256"
        }
      ],
      "name": "transferERC721",
      "outputs": [],
      "stateMutability": "nonpayable",
      "type": "function"
    },
    {
      "inputs": [
        {
          "internalType": "address payable",
          "name": "_to",
          "type": "address"
        },
        {
          "internalType": "uint256",
          "name": "_amount",
          "type": "uint256"
        }
      ],
      "name": "transferNative",
      "outputs": [],
      "stateMutability": "payable",
      "type": "function"
    },
    {
      "inputs": [
        {
          "internalType": "address",
          "name": "newOwner",
          "type": "address"
        }
      ],
      "name": "transferOwnership",
      "outputs": [],
      "stateMutability": "nonpayable",
      "type": "function"
    },
    {
      "stateMutability": "payable",
      "type": "receive"
    }
  ],
  "transactionHash": "0x51b0075877dc9b3b886c2bf47b06cae91c700a6d3a23b04311391b7e4e83beb3",
  "args": [
    "Lending Pool"
  ],
  "numDeployments": 1,
  "solcInputHash": "009d103e942c50ffe9ec5e68e497355e",
  "bytecode": "0x608060405234620000d5576200213e803803806200001d8162000101565b92833981016020918281830312620000d55780516001600160401b0391828211620000d557019282601f85011215620000d5578351918211620000da575b6200006f601f8301601f1916820162000101565b92828452818386010111620000d5576000935b828510620000bf575081620000a09411620000b0575b505062000136565b604051611df090816200034e8239f35b60009183010152388062000098565b8481018201518486018301529381019362000082565b600080fd5b620000e4620000ea565b6200005b565b50634e487b7160e01b600052604160045260246000fd5b6040519190601f01601f191682016001600160401b038111838210176200012757604052565b62000131620000ea565b604052565b60008054732f358b80ed2d296c09560d2b9f70a7f81d57e3526001600160a01b031982168117835560405193949390916001600160a01b0316907f8be0079c531659141344cd1fd0a4f28419497f9722a3daafe3b4186f6b6457e0908490a36002805463ffffffff191663d9b67a261790558251906001600160401b038211620002a7575b620001d382620001cd600354620002b7565b620002f4565b6020938491601f84116001146200021e57839495509262000212575b50508160011b916000199060031b1c1916176003555b620002106001600755565b565b015190503880620001ef565b6003600052601f198416957fc2575a0e9e593c00f959f8c92f12db2869c3395a3b0502d05e2516446f71f85b939291905b8782106200028e57505083600195961062000274575b505050811b0160035562000205565b015160001960f88460031b161c1916905538808062000265565b806001859682949686015181550195019301906200024f565b620002b1620000ea565b620001bb565b90600182811c92168015620002e9575b6020831014620002d357565b634e487b7160e01b600052602260045260246000fd5b91607f1691620002c7565b601f811162000301575050565b6000906003825260208220906020601f850160051c8301941062000342575b601f0160051c01915b8281106200033657505050565b81815560010162000329565b90925082906200032056fe60806040526004361015610018575b361561001657005b005b60003560e01c80630530fa211461022057806306fdde03146102175780630e6802661461020e578063181d989b146102055780631aca6376146101fc578063217fe6c6146101f357806334c23b5c146101ea57806335bc868a146101e157806339d2525f146101d857806347ae6cc6146101cf5780636c49e021146101c65780636d3005e3146101bd578063715018a6146101b457806379d35e02146101ab5780637bfabc83146101a25780637d2e90c21461019957806388a9d554146101905780638b3ed966146101875780638da5cb5b1461017e5780639db5dbe414610175578063ce2620c11461016c578063d2454e8d14610163578063dbecc6161461015a578063e52ca96114610151578063e7b7e8b4146101485763f2fde38b0361000e5761014361155c565b61000e565b506101436114b3565b506101436113be565b506101436112b9565b5061014361121c565b50610143611147565b506101436110b8565b50610143611065565b50610143611009565b50610143610fce565b50610143610ed7565b50610143610e94565b50610143610e49565b50610143610da8565b50610143610ccf565b50610143610c1b565b50610143610a4b565b50610143610931565b506101436108d4565b50610143610889565b506101436107ef565b50610143610703565b5061014361064a565b506101436105fa565b5061014361049d565b506101436103c7565b507f4e487b7100000000000000000000000000000000000000000000000000000000600052604160045260246000fd5b67ffffffffffffffff811161026d57604052565b610275610229565b604052565b90601f7fffffffffffffffffffffffffffffffffffffffffffffffffffffffffffffffe0910116810190811067ffffffffffffffff82111761026d57604052565b7fffffffffffffffffffffffffffffffffffffffffffffffffffffffffffffffe0601f60209267ffffffffffffffff81116102f7575b01160190565b6102ff610229565b6102f1565b81601f8201121561034b5780359061031b826102bb565b92610329604051948561027a565b8284526020838301011161034b57816000926020809301838601378301015290565b600080fd5b73ffffffffffffffffffffffffffffffffffffffff81160361034b57565b60407ffffffffffffffffffffffffffffffffffffffffffffffffffffffffffffffffc82011261034b576004359067ffffffffffffffff821161034b576103b791600401610304565b906024356103c481610350565b90565b503461034b57602061040a6103e56103de3661036e565b91906107a3565b9073ffffffffffffffffffffffffffffffffffffffff16600052602052604060002090565b54604051908152f35b600091031261034b57565b918091926000905b82821061043e575011610437575050565b6000910152565b91508060209183015181860152018291610426565b7fffffffffffffffffffffffffffffffffffffffffffffffffffffffffffffffe0601f60409360208452610496815180928160208801526020888801910161041e565b0116010190565b503461034b576000807ffffffffffffffffffffffffffffffffffffffffffffffffffffffffffffffffc3601126105f75760405190806003549060019180831c928082169283156105ed575b60209283861085146105c0578588526020880194908115610586575060011461052d575b6105298761051d8189038261027a565b60405191829182610453565b0390f35b600360005294509192917fc2575a0e9e593c00f959f8c92f12db2869c3395a3b0502d05e2516446f71f85b5b838610610575575050509101905061051d82610529388061050d565b805485870152948201948101610559565b7fffffffffffffffffffffffffffffffffffffffffffffffffffffffffffffff0016855250505001915061051d905082610529388061050d565b6024827f4e487b710000000000000000000000000000000000000000000000000000000081526022600452fd5b93607f16936104e9565b80fd5b503461034b5760207ffffffffffffffffffffffffffffffffffffffffffffffffffffffffffffffffc36011261034b576004356000526009602052602060ff604060002054166040519015158152f35b503461034b5760207ffffffffffffffffffffffffffffffffffffffffffffffffffffffffffffffffc36011261034b5773ffffffffffffffffffffffffffffffffffffffff60043561069b81610350565b166000526004602052602060ff604060002054166040519015158152f35b7ffffffffffffffffffffffffffffffffffffffffffffffffffffffffffffffffc606091011261034b576004356106ef81610350565b906024356106fc81610350565b9060443590565b503461034b57610712366106b9565b9161071b61171a565b5073ffffffffffffffffffffffffffffffffffffffff809116803b1561034b576000928360649260405196879586947f23b872dd00000000000000000000000000000000000000000000000000000000865230600487015216602485015260448401525af18015610796575b61078d57005b61001690610259565b61079e611781565b610787565b60206107bc91816040519382858094519384920161041e565b8101600681520301902090565b6020906107e392826040519483868095519384920161041e565b82019081520301902090565b503461034b5760407ffffffffffffffffffffffffffffffffffffffffffffffffffffffffffffffffc36011261034b5760043561082b81610350565b6024359067ffffffffffffffff821161034b5761087d60ff9173ffffffffffffffffffffffffffffffffffffffff6108696020953690600401610304565b9116600052600184526040600020906107c9565b54166040519015158152f35b503461034b5760207ffffffffffffffffffffffffffffffffffffffffffffffffffffffffffffffffc36011261034b57600435600052600a6020526020604060002054604051908152f35b503461034b5760007ffffffffffffffffffffffffffffffffffffffffffffffffffffffffffffffffc36011261034b57602073ffffffffffffffffffffffffffffffffffffffff60085416604051908152f35b8015150361034b57565b503461034b5760607ffffffffffffffffffffffffffffffffffffffffffffffffffffffffffffffffc36011261034b5760043561096d81610350565b60243567ffffffffffffffff811161034b576109906109c6913690600401610304565b73ffffffffffffffffffffffffffffffffffffffff604435936109b285610927565b1660005260016020526040600020906107c9565b9060ff7fffffffffffffffffffffffffffffffffffffffffffffffffffffffffffffff00835416911515161790556000604051f35b7ffffffffffffffffffffffffffffffffffffffffffffffffffffffffffffffffc606091011261034b57600435610a3181610350565b90602435610a3e81610350565b906044356103c481610927565b503461034b5773ffffffffffffffffffffffffffffffffffffffff610a6f366109fb565b929091610a7a61171a565b501691610b07610aec6020610a9160025460e01b90565b6040517f01ffc9a70000000000000000000000000000000000000000000000000000000081527fffffffff00000000000000000000000000000000000000000000000000000000909116600482015291829081906024820190565b0381885afa908115610bc5575b600091610b97575b50611b47565b823b1561034b576040517fa22cb46500000000000000000000000000000000000000000000000000000000815273ffffffffffffffffffffffffffffffffffffffff909216600483015215156024820152906000908290818381604481015b03925af18015610b8a575b610b7757005b80610b8461001692610259565b80610413565b610b92611781565b610b71565b610bb8915060203d8111610bbe575b610bb0818361027a565b81019061178e565b38610b01565b503d610ba6565b610bcd611781565b610af9565b60607ffffffffffffffffffffffffffffffffffffffffffffffffffffffffffffffffc82011261034b576004359067ffffffffffffffff821161034b576106ef91600401610304565b503461034b57610c2a36610bd2565b9190610c3461171a565b5082610c43826103e5856107a3565b5410610c71576103e5610c55926107a3565b908154818110610c6457039055005b610c6c6117a3565b039055005b60646040517f08c379a000000000000000000000000000000000000000000000000000000000815260206004820152601460248201527f496e73756666696369656e742062616c616e63650000000000000000000000006044820152fd5b503461034b576020610d5e81610ce4366106b9565b9190610cee61171a565b50600073ffffffffffffffffffffffffffffffffffffffff6040518097819682957f095ea7b3000000000000000000000000000000000000000000000000000000008452600484016020909392919373ffffffffffffffffffffffffffffffffffffffff60408201951681520152565b0393165af1908115610d9b575b600091610d7e575b506040519015158152f35b610d959150823d8111610bbe57610bb0818361027a565b38610d73565b610da3611781565b610d6b565b503461034b576000807ffffffffffffffffffffffffffffffffffffffffffffffffffffffffffffffffc3601126105f757610de161169b565b80547fffffffffffffffffffffffff0000000000000000000000000000000000000000811682558173ffffffffffffffffffffffffffffffffffffffff60405192167f8be0079c531659141344cd1fd0a4f28419497f9722a3daafe3b4186f6b6457e08284a3f35b503461034b5760207ffffffffffffffffffffffffffffffffffffffffffffffffffffffffffffffffc36011261034b57600435600052600b6020526020604060002054604051908152f35b503461034b576103e5610eba610ea936610bd2565b939091610eb461171a565b506107a3565b90815481198111610eca57019055005b610ed26117a3565b019055005b5060407ffffffffffffffffffffffffffffffffffffffffffffffffffffffffffffffffc36011261034b5760008080600435610f1281610350565b610f1a61171a565b506040519073ffffffffffffffffffffffffffffffffffffffff60243591165af13d15610fc9573d610f4b816102bb565b90610f59604051928361027a565b8152600060203d92013e5b15610f6b57005b60646040517f08c379a000000000000000000000000000000000000000000000000000000000815260206004820152601460248201527f4661696c656420746f2073656e642045746865720000000000000000000000006044820152fd5b610f64565b503461034b5760007ffffffffffffffffffffffffffffffffffffffffffffffffffffffffffffffffc36011261034b57602047604051908152f35b503461034b57602061040a816110366110213661036e565b9290816040519382858094519384920161041e565b810160068152030190209073ffffffffffffffffffffffffffffffffffffffff16600052602052604060002090565b503461034b5760007ffffffffffffffffffffffffffffffffffffffffffffffffffffffffffffffffc36011261034b57602073ffffffffffffffffffffffffffffffffffffffff60005416604051908152f35b503461034b576020610d5e816110cd366106b9565b91906110d761171a565b50600073ffffffffffffffffffffffffffffffffffffffff6040518097819682957fa9059cbb000000000000000000000000000000000000000000000000000000008452600484016020909392919373ffffffffffffffffffffffffffffffffffffffff60408201951681520152565b503461034b5760807ffffffffffffffffffffffffffffffffffffffffffffffffffffffffffffffffc36011261034b5760243561118381610350565b60643561118f81610350565b6002600754146111be576111b79160026007556111aa61171a565b506044359060043561184d565b6001600755005b60646040517f08c379a000000000000000000000000000000000000000000000000000000000815260206004820152601f60248201527f5265656e7472616e637947756172643a207265656e7472616e742063616c6c006044820152fd5b503461034b5760207ffffffffffffffffffffffffffffffffffffffffffffffffffffffffffffffffc36011261034b5773ffffffffffffffffffffffffffffffffffffffff60043561126d81610350565b166000526005602052602060ff604060002054166040519015158152f35b9181601f8401121561034b5782359167ffffffffffffffff831161034b576020838186019501011161034b57565b503461034b5760a07ffffffffffffffffffffffffffffffffffffffffffffffffffffffffffffffffc36011261034b576004356112f581610350565b60243561130181610350565b60843567ffffffffffffffff811161034b5761133673ffffffffffffffffffffffffffffffffffffffff91369060040161128b565b91909361134161171a565b50166113706113576020610a9160025460e01b90565b0381865afa908115610bc557600091610b975750611b47565b803b1561034b57610b669360008094604051968795869485937ff242432a00000000000000000000000000000000000000000000000000000000855260643590604435903060048801611c11565b503461034b5773ffffffffffffffffffffffffffffffffffffffff6113e2366109fb565b916113ee93919361171a565b501690813b1561034b576040517fa22cb46500000000000000000000000000000000000000000000000000000000815273ffffffffffffffffffffffffffffffffffffffff939093166004840152151560248301526000919082908290604490829084905af18015611475575b611466575b50604051f35b61146f90610259565b38611460565b61147d611781565b61145b565b9181601f8401121561034b5782359167ffffffffffffffff831161034b576020808501948460051b01011161034b57565b503461034b5760a07ffffffffffffffffffffffffffffffffffffffffffffffffffffffffffffffffc36011261034b576004356114ef81610350565b6024356114fb81610350565b67ffffffffffffffff9160443583811161034b5761151d903690600401611482565b9060643585811161034b57611536903690600401611482565b92909160843596871161034b5761155461001697369060040161128b565b969095611c53565b503461034b5760207ffffffffffffffffffffffffffffffffffffffffffffffffffffffffffffffffc36011261034b5760043561159881610350565b6115a061169b565b73ffffffffffffffffffffffffffffffffffffffff80911690811561161757600091825491817fffffffffffffffffffffffff0000000000000000000000000000000000000000841617845560405192167f8be0079c531659141344cd1fd0a4f28419497f9722a3daafe3b4186f6b6457e08484a3f35b60846040517f08c379a000000000000000000000000000000000000000000000000000000000815260206004820152602660248201527f4f776e61626c653a206e6577206f776e657220697320746865207a65726f206160448201527f64647265737300000000000000000000000000000000000000000000000000006064820152fd5b73ffffffffffffffffffffffffffffffffffffffff6000541633036116bc57565b60646040517f08c379a000000000000000000000000000000000000000000000000000000000815260206004820152602060248201527f4f776e61626c653a2063616c6c6572206973206e6f7420746865206f776e65726044820152fd5b604051906040820182811067ffffffffffffffff821117611765575b604052600782527f7370656e646572000000000000000000000000000000000000000000000000006020830152565b61176d610229565b611736565b9081602091031261034b575190565b506040513d6000823e3d90fd5b9081602091031261034b57516103c481610927565b507f4e487b7100000000000000000000000000000000000000000000000000000000600052601160045260246000fd5b61271090807fffffffffffffffffffffffffffffffffffffffffffffffffffffffffffffffff04821181151516611808570290565b6118106117a3565b0290565b811561181e570490565b7f4e487b7100000000000000000000000000000000000000000000000000000000600052601260045260246000fd5b929061188a61187160085473ffffffffffffffffffffffffffffffffffffffff1690565b73ffffffffffffffffffffffffffffffffffffffff1690565b3303611b08576118ae6118a7856000526009602052604060002090565b5460ff1690565b611ad6578215611abc576040517f70a082310000000000000000000000000000000000000000000000000000000081523060048201529160209173ffffffffffffffffffffffffffffffffffffffff16908284602481855afa938415611aaf575b600094611a80575b50848410611a4057928261198d86946119e8976119ad95611a139a9860006040518096819582947fa9059cbb000000000000000000000000000000000000000000000000000000008452600484016020909392919373ffffffffffffffffffffffffffffffffffffffff60408201951681520152565b03925af18015611a33575b611a15575b50506119a8836117d3565b611814565b906119c283600052600a602052604060002090565b556119d782600052600b602052604060002090565b556000526009602052604060002090565b60017fffffffffffffffffffffffffffffffffffffffffffffffffffffffffffffff00825416179055565b565b81611a2b92903d10610bbe57610bb0818361027a565b50388061199d565b611a3b611781565b611998565b6040517f8e46d543000000000000000000000000000000000000000000000000000000008152600481018790526024810185905260448101869052606490fd5b611aa1919450833d8511611aa8575b611a99818361027a565b810190611772565b9238611917565b503d611a8f565b611ab7611781565b61190f565b5050506119e8611a13916000526009602052604060002090565b6040517fdd4cfe8300000000000000000000000000000000000000000000000000000000815260048101859052602490fd5b6040517f7f7a92fd0000000000000000000000000000000000000000000000000000000081523360048201526024810185905260448101849052606490fd5b15611b4e57565b60846040517f08c379a000000000000000000000000000000000000000000000000000000000815260206004820152602b60248201527f676976656e20746f6b656e206164647265737320646f65736e2774207375707060448201527f6f727420455243313135350000000000000000000000000000000000000000006064820152fd5b601f82602094937fffffffffffffffffffffffffffffffffffffffffffffffffffffffffffffffe0938186528686013760008582860101520116010190565b91926103c496949160a09473ffffffffffffffffffffffffffffffffffffffff8092168552166020840152604083015260608201528160808201520191611bd2565b73ffffffffffffffffffffffffffffffffffffffff9097969293959497611c7861171a565b501693611ca8611c8f6020610a9160025460e01b90565b03818a5afa908115610bc557600091610b975750611b47565b843b1561034b576000968793611cef926040519a8b998a9889977f2eb2c2d60000000000000000000000000000000000000000000000000000000089523060048a01611d5c565b03925af18015611d0e575b611d015750565b80610b84611a1392610259565b611d16611781565b611cfa565b90918281527f07ffffffffffffffffffffffffffffffffffffffffffffffffffffffffffffff831161034b5760209260051b80928483013701016000815290565b969492611dac94611d9e926103c49a989473ffffffffffffffffffffffffffffffffffffffff8092168b521660208a015260a060408a015260a0890191611d1b565b918683036060880152611d1b565b926080818503910152611bd256fea2646970667358221220683701ff6bf7f4d2a9d7c5effe1440698bbf9bdbc3d13222789a4ac83a45938664736f6c634300080e0033"
}