{
  "address": "0xC394100347c205E3f4ab7E6fE7901D810F442D99",
  "abi": [
    {
      "anonymous": false,
      "inputs": [
        {
          "indexed": true,
          "internalType": "address",
          "name": "owner",
          "type": "address"
        },
        {
          "indexed": true,
          "internalType": "address",
          "name": "approved",
          "type": "address"
        },
        {
          "indexed": true,
          "internalType": "uint256",
          "name": "tokenId",
          "type": "uint256"
        }
      ],
      "name": "Approval",
      "type": "event"
    },
    {
      "anonymous": false,
      "inputs": [
        {
          "indexed": true,
          "internalType": "address",
          "name": "owner",
          "type": "address"
        },
        {
          "indexed": true,
          "internalType": "address",
          "name": "operator",
          "type": "address"
        },
        {
          "indexed": false,
          "internalType": "bool",
          "name": "approved",
          "type": "bool"
        }
      ],
      "name": "ApprovalForAll",
      "type": "event"
    },
    {
      "anonymous": false,
      "inputs": [
        {
          "indexed": false,
          "internalType": "uint8",
          "name": "version",
          "type": "uint8"
        }
      ],
      "name": "Initialized",
      "type": "event"
    },
    {
      "anonymous": false,
      "inputs": [
        {
          "indexed": true,
          "internalType": "address",
          "name": "previousOwner",
          "type": "address"
        },
        {
          "indexed": true,
          "internalType": "address",
          "name": "newOwner",
          "type": "address"
        }
      ],
      "name": "OwnershipTransferred",
      "type": "event"
    },
    {
      "anonymous": false,
      "inputs": [
        {
          "indexed": true,
          "internalType": "address",
          "name": "from",
          "type": "address"
        },
        {
          "indexed": true,
          "internalType": "address",
          "name": "to",
          "type": "address"
        },
        {
          "indexed": true,
          "internalType": "uint256",
          "name": "tokenId",
          "type": "uint256"
        }
      ],
      "name": "Transfer",
      "type": "event"
    },
    {
      "inputs": [],
      "name": "MAX_SALE_AMOUNT",
      "outputs": [
        {
          "internalType": "uint256",
          "name": "",
          "type": "uint256"
        }
      ],
      "stateMutability": "view",
      "type": "function"
    },
    {
      "inputs": [],
      "name": "ORIGIN_CONTRACT",
      "outputs": [
        {
          "internalType": "address",
          "name": "",
          "type": "address"
        }
      ],
      "stateMutability": "view",
      "type": "function"
    },
    {
      "inputs": [
        {
          "internalType": "address",
          "name": "to",
          "type": "address"
        },
        {
          "internalType": "uint256",
          "name": "tokenId",
          "type": "uint256"
        }
      ],
      "name": "approve",
      "outputs": [],
      "stateMutability": "nonpayable",
      "type": "function"
    },
    {
      "inputs": [
        {
          "internalType": "address",
          "name": "owner",
          "type": "address"
        }
      ],
      "name": "balanceOf",
      "outputs": [
        {
          "internalType": "uint256",
          "name": "",
          "type": "uint256"
        }
      ],
      "stateMutability": "view",
      "type": "function"
    },
    {
      "inputs": [
        {
          "internalType": "uint256",
          "name": "tokenId",
          "type": "uint256"
        }
      ],
      "name": "getApproved",
      "outputs": [
        {
          "internalType": "address",
          "name": "",
          "type": "address"
        }
      ],
      "stateMutability": "view",
      "type": "function"
    },
    {
      "inputs": [
        {
          "internalType": "string",
          "name": "name",
          "type": "string"
        },
        {
          "internalType": "string",
          "name": "symbol",
          "type": "string"
        },
        {
          "internalType": "address",
          "name": "wETH",
          "type": "address"
        },
        {
          "internalType": "address",
          "name": "originContract",
          "type": "address"
        }
      ],
      "name": "initialize",
      "outputs": [],
      "stateMutability": "nonpayable",
      "type": "function"
    },
    {
      "inputs": [
        {
          "internalType": "address",
          "name": "owner",
          "type": "address"
        },
        {
          "internalType": "address",
          "name": "operator",
          "type": "address"
        }
      ],
      "name": "isApprovedForAll",
      "outputs": [
        {
          "internalType": "bool",
          "name": "",
          "type": "bool"
        }
      ],
      "stateMutability": "view",
      "type": "function"
    },
    {
      "inputs": [],
      "name": "isEnabledNextScenario",
      "outputs": [
        {
          "internalType": "bool",
          "name": "",
          "type": "bool"
        }
      ],
      "stateMutability": "view",
      "type": "function"
    },
    {
      "inputs": [],
      "name": "isRevealed",
      "outputs": [
        {
          "internalType": "bool",
          "name": "",
          "type": "bool"
        }
      ],
      "stateMutability": "view",
      "type": "function"
    },
    {
      "inputs": [],
      "name": "mintIndexForSale",
      "outputs": [
        {
          "internalType": "uint256",
          "name": "",
          "type": "uint256"
        }
      ],
      "stateMutability": "view",
      "type": "function"
    },
    {
      "inputs": [],
      "name": "mintingInformation",
      "outputs": [
        {
          "internalType": "uint256[2]",
          "name": "",
          "type": "uint256[2]"
        }
      ],
      "stateMutability": "view",
      "type": "function"
    },
    {
      "inputs": [],
      "name": "name",
      "outputs": [
        {
          "internalType": "string",
          "name": "",
          "type": "string"
        }
      ],
      "stateMutability": "view",
      "type": "function"
    },
    {
      "inputs": [],
      "name": "owner",
      "outputs": [
        {
          "internalType": "address",
          "name": "",
          "type": "address"
        }
      ],
      "stateMutability": "view",
      "type": "function"
    },
    {
      "inputs": [
        {
          "internalType": "uint256",
          "name": "tokenId",
          "type": "uint256"
        }
      ],
      "name": "ownerOf",
      "outputs": [
        {
          "internalType": "address",
          "name": "",
          "type": "address"
        }
      ],
      "stateMutability": "view",
      "type": "function"
    },
    {
      "inputs": [
        {
          "internalType": "address",
          "name": "tokenOwner",
          "type": "address"
        }
      ],
      "name": "publicMint",
      "outputs": [],
      "stateMutability": "nonpayable",
      "type": "function"
    },
    {
      "inputs": [],
      "name": "renounceOwnership",
      "outputs": [],
      "stateMutability": "nonpayable",
      "type": "function"
    },
    {
      "inputs": [
        {
          "internalType": "uint256",
          "name": "tokenId",
          "type": "uint256"
        },
        {
          "internalType": "string",
          "name": "tokenHash",
          "type": "string"
        }
      ],
      "name": "repairTokenURI",
      "outputs": [],
      "stateMutability": "nonpayable",
      "type": "function"
    },
    {
      "inputs": [
        {
          "internalType": "uint256",
          "name": "",
          "type": "uint256"
        }
      ],
      "name": "revealChecked",
      "outputs": [
        {
          "internalType": "bool",
          "name": "",
          "type": "bool"
        }
      ],
      "stateMutability": "view",
      "type": "function"
    },
    {
      "inputs": [
        {
          "internalType": "uint256[]",
          "name": "tokenIds",
          "type": "uint256[]"
        },
        {
          "internalType": "string[]",
          "name": "tokenHash",
          "type": "string[]"
        }
      ],
      "name": "revealTokens",
      "outputs": [],
      "stateMutability": "nonpayable",
      "type": "function"
    },
    {
      "inputs": [
        {
          "internalType": "address",
          "name": "from",
          "type": "address"
        },
        {
          "internalType": "address",
          "name": "to",
          "type": "address"
        },
        {
          "internalType": "uint256",
          "name": "tokenId",
          "type": "uint256"
        }
      ],
      "name": "safeTransferFrom",
      "outputs": [],
      "stateMutability": "nonpayable",
      "type": "function"
    },
    {
      "inputs": [
        {
          "internalType": "address",
          "name": "from",
          "type": "address"
        },
        {
          "internalType": "address",
          "name": "to",
          "type": "address"
        },
        {
          "internalType": "uint256",
          "name": "tokenId",
          "type": "uint256"
        },
        {
          "internalType": "bytes",
          "name": "data",
          "type": "bytes"
        }
      ],
      "name": "safeTransferFrom",
      "outputs": [],
      "stateMutability": "nonpayable",
      "type": "function"
    },
    {
      "inputs": [
        {
          "internalType": "address",
          "name": "operator",
          "type": "address"
        },
        {
          "internalType": "bool",
          "name": "approved",
          "type": "bool"
        }
      ],
      "name": "setApprovalForAll",
      "outputs": [],
      "stateMutability": "nonpayable",
      "type": "function"
    },
    {
      "inputs": [
        {
          "internalType": "string",
          "name": "_newBaseURI",
          "type": "string"
        }
      ],
      "name": "setBaseURI",
      "outputs": [],
      "stateMutability": "nonpayable",
      "type": "function"
    },
    {
      "inputs": [
        {
          "internalType": "address",
          "name": "nextScenario",
          "type": "address"
        }
      ],
      "name": "setNextScenarioConenct",
      "outputs": [],
      "stateMutability": "nonpayable",
      "type": "function"
    },
    {
      "inputs": [
        {
          "internalType": "string",
          "name": "_newNotRevealedURI",
          "type": "string"
        }
      ],
      "name": "setNotRevealedURI",
      "outputs": [],
      "stateMutability": "nonpayable",
      "type": "function"
    },
    {
      "inputs": [
        {
          "internalType": "bool",
          "name": "_state",
          "type": "bool"
        }
      ],
      "name": "setRevealState",
      "outputs": [],
      "stateMutability": "nonpayable",
      "type": "function"
    },
    {
      "inputs": [
        {
          "internalType": "bytes4",
          "name": "interfaceId",
          "type": "bytes4"
        }
      ],
      "name": "supportsInterface",
      "outputs": [
        {
          "internalType": "bool",
          "name": "",
          "type": "bool"
        }
      ],
      "stateMutability": "view",
      "type": "function"
    },
    {
      "inputs": [],
      "name": "symbol",
      "outputs": [
        {
          "internalType": "string",
          "name": "",
          "type": "string"
        }
      ],
      "stateMutability": "view",
      "type": "function"
    },
    {
      "inputs": [
        {
          "internalType": "uint256",
          "name": "index",
          "type": "uint256"
        }
      ],
      "name": "tokenByIndex",
      "outputs": [
        {
          "internalType": "uint256",
          "name": "",
          "type": "uint256"
        }
      ],
      "stateMutability": "view",
      "type": "function"
    },
    {
      "inputs": [
        {
          "internalType": "address",
          "name": "owner",
          "type": "address"
        },
        {
          "internalType": "uint256",
          "name": "index",
          "type": "uint256"
        }
      ],
      "name": "tokenOfOwnerByIndex",
      "outputs": [
        {
          "internalType": "uint256",
          "name": "",
          "type": "uint256"
        }
      ],
      "stateMutability": "view",
      "type": "function"
    },
    {
      "inputs": [
        {
          "internalType": "uint256",
          "name": "tokenId",
          "type": "uint256"
        }
      ],
      "name": "tokenURI",
      "outputs": [
        {
          "internalType": "string",
          "name": "",
          "type": "string"
        }
      ],
      "stateMutability": "view",
      "type": "function"
    },
    {
      "inputs": [],
      "name": "totalSupply",
      "outputs": [
        {
          "internalType": "uint256",
          "name": "",
          "type": "uint256"
        }
      ],
      "stateMutability": "view",
      "type": "function"
    },
    {
      "inputs": [
        {
          "internalType": "address",
          "name": "from",
          "type": "address"
        },
        {
          "internalType": "address",
          "name": "to",
          "type": "address"
        },
        {
          "internalType": "uint256",
          "name": "tokenId",
          "type": "uint256"
        }
      ],
      "name": "transferFrom",
      "outputs": [],
      "stateMutability": "nonpayable",
      "type": "function"
    },
    {
      "inputs": [
        {
          "internalType": "address",
          "name": "newOwner",
          "type": "address"
        }
      ],
      "name": "transferOwnership",
      "outputs": [],
      "stateMutability": "nonpayable",
      "type": "function"
    }
  ],
  "args": [],
  "numDeployments": 9,
  "solcInputHash": "1e9c4750bd48852a795d330a10454f5b",
  "bytecode": "0x6080806040523461001657613151908161001c8239f35b600080fdfe60806040526004361015610013575b600080fd5b60003560e01c806301ffc9a7146102bb57806306fdde03146102b2578063081812fc146102a9578063095ea7b3146102a057806318160ddd1461029757806318758ec31461028e5780631dd8792b146102855780632084ab831461027c57806323b872dd14610273578063257a1a631461026a5780632f745c591461026157806332a93a3a1461025857806342842e0e1461024f5780634f6ccce71461024657806353de78041461023d57806354214f691461023457806355f804b31461022b5780636352211e146102225780636ce653c21461021957806370a0823114610210578063715018a61461020757806376661e42146101fe5780638b2e9809146101f55780638da5cb5b146101ec5780638f15b414146101e357806395d89b41146101da578063a0d90f76146101d1578063a22cb465146101c8578063a3057227146101bf578063b88d4fde146101b6578063c87b56dd146101ad578063e985e9c5146101a4578063f2c4ce1e1461019b5763f2fde38b1461019357600080fd5b61000e61164c565b5061000e611562565b5061000e6114ff565b5061000e6114cb565b5061000e61146a565b5061000e611310565b5061000e611226565b5061000e6111fe565b5061000e611156565b5061000e611026565b5061000e610fd0565b5061000e610f92565b5061000e610f63565b5061000e610f03565b5061000e610ed7565b5061000e610e82565b5061000e610e63565b5061000e610d53565b5061000e610c2e565b5061000e610a8a565b5061000e6109ad565b5061000e610965565b5061000e610867565b5061000e6107a9565b5061000e610789565b5061000e61075f565b5061000e6106f7565b5061000e610669565b5061000e61063d565b5061000e61061e565b5061000e610529565b5061000e6104a1565b5061000e6103c4565b5061000e6102d6565b6001600160e01b031981160361000e57565b503461000e57602036600319011261000e5760206004356102f6816102c4565b63ffffffff60e01b1663780e9d6360e01b811490811561031c575b506040519015158152f35b6380ac58cd60e01b81149150811561034e575b811561033d575b5038610311565b6301ffc9a760e01b14905038610336565b635b5e139f60e01b8114915061032f565b91908251928382526000905b84821061039857509280602093941161038b575b601f01601f1916010190565b600083828401015261037f565b9060209081808285010151908286010152019061036b565b9060206103c192818152019061035f565b90565b503461000e5760008060031936011261049e5760405190806065546103e881611861565b8085529160019180831690811561047d5750600114610422575b61041e8561041281870382610c93565b604051918291826103b0565b0390f35b9250606583527f8ff97419363ffd7000167f130ef7168fbea05faf9251824ca5043f113cc6a7c75b8284106104655750505081016020016104128261041e610402565b8054602085870181019190915290930192810161044a565b60ff191660208701525050604084019250610412915083905061041e610402565b80fd5b503461000e57602036600319011261000e5760206104c06004356119ca565b6001600160a01b0360405191168152f35b600435906001600160a01b038216820361000e57565b604435906001600160a01b038216820361000e57565b606435906001600160a01b038216820361000e57565b602435906001600160a01b038216820361000e57565b503461000e57604036600319011261000e576105436104d1565b60243561054f8161183f565b916001600160a01b0380841680918316146105cf576105819361057c913314908115610583575b50611958565b611dd8565b005b6105c991506105c2906105aa33916001600160a01b0316600052606a602052604060002090565b906001600160a01b0316600052602052604060002090565b5460ff1690565b38610576565b60405162461bcd60e51b815260206004820152602160248201527f4552433732313a20617070726f76616c20746f2063757272656e74206f776e656044820152603960f91b6064820152608490fd5b503461000e57600036600319011261000e57602060cb54604051908152f35b503461000e57600036600319011261000e5760206001600160a01b0361012f5460101c16604051908152f35b503461000e57600036600319011261000e57604080805161068981610c6a565b3690376106946116da565b805181810181811067ffffffffffffffff8211176106ea575b825261012d54815261012e549060209182820152825191826000905b600282106106d5578585f35b828060019286518152019401910190926106c9565b6106f2610c53565b6106ad565b503461000e57602036600319011261000e57600435600052610134602052602060ff604060002054166040519015158152f35b606090600319011261000e576001600160a01b0390600435828116810361000e5791602435908116810361000e579060443590565b503461000e576105816107713661072a565b9161078461077f8433611b09565b611a0c565b611c32565b503461000e57600036600319011261000e57602061012e54604051908152f35b503461000e57604036600319011261000e576107c36104d1565b602435906107d08161177c565b82101561080e576001600160a01b031660005260c960205260406000209060005260205261041e604060002054604051918291829190602083019252565b60405162461bcd60e51b815260206004820152602b60248201527f455243373231456e756d657261626c653a206f776e657220696e646578206f7560448201526a74206f6620626f756e647360a81b6064820152608490fd5b503461000e57602036600319011261000e576108816104d1565b6001600160a01b0361012f5460101c163303610920576108f86108fe916108bc61012d918254906108b761012e548311156126b9565b612705565b6108cf81546108c961189b565b90612838565b6108f26108e88254600052610134602052604060002090565b805460ff19169055565b54611c16565b61012d55565b4361091d336001600160a01b0316600052610132602052604060002090565b55005b60405162461bcd60e51b815260206004820152601560248201527f63616c6c6572206973206e6f74206f726967696e2100000000000000000000006044820152606490fd5b503461000e576105816109773661072a565b90604051926020840184811067ffffffffffffffff8211176109a0575b60405260008452611a7e565b6109a8610c53565b610994565b503461000e57602036600319011261000e5760043560cb548110156109ff5760cb6000527fa7ce836d032b2bf62b7e2097a8e0a6d8aeb35405ad15271e96d3b0188a1d06fb0154604051908152602090f35b60405162461bcd60e51b815260206004820152602c60248201527f455243373231456e756d657261626c653a20676c6f62616c20696e646578206f60448201526b7574206f6620626f756e647360a01b6064820152608490fd5b9181601f8401121561000e5782359167ffffffffffffffff831161000e576020808501948460051b01011161000e57565b503461000e5760408060031936011261000e5767ffffffffffffffff60043581811161000e57610abe903690600401610a59565b909160243590811161000e57610ad8903690600401610a59565b610b17600160ff61012f96949654610af583838316151514612a31565b610b0b610b0461013054611861565b1515612a7d565b60081c16151514612ac9565b60005b838110610b2357005b610c2990610b5433610b4e610b42610b3c858a8a612b2f565b3561183f565b6001600160a01b031690565b14612b4d565b610b88610b82610b7d6105c2610b6b858a8a612b2f565b35600052610134602052604060002090565b151590565b15612b99565b610c1b610bd8610b9983868a612be5565b610bca610bb98c94939451948593610bb360208601612987565b91612a23565b64173539b7b760d91b815260050190565b03601f198101835282610c93565b610bf6610be9610b6b858a8a612b2f565b805460ff19166001179055565b610c16610c04848989612b2f565b35600052610133602052604060002090565b6125cb565b610c2433612c35565b612b1f565b610b1a565b503461000e57600036600319011261000e57602060ff61012f54166040519015158152f35b50634e487b7160e01b600052604160045260246000fd5b6040810190811067ffffffffffffffff821117610c8657604052565b610c8e610c53565b604052565b90601f8019910116810190811067ffffffffffffffff821117610c8657604052565b60209067ffffffffffffffff8111610cd3575b601f01601f19160190565b610cdb610c53565b610cc8565b929192610cec82610cb5565b91610cfa6040519384610c93565b82948184528183011161000e578281602093846000960137010152565b602060031982011261000e576004359067ffffffffffffffff821161000e578060238301121561000e578160246103c193600401359101610ce0565b503461000e57610d6236610d17565b610d6a6116da565b805167ffffffffffffffff8111610e56575b61013090610d9381610d8e8454611861565b6122b9565b602080601f8311600114610dce5750819293600092610dc3575b50508160011b916000199060031b1c1916179055005b015190503880610dad565b90601f19831694610e026101306000527f2f605e086faac1d93117bbfbc18835d434e9405fadc1ca66faf4b864746daf3490565b926000905b878210610e3e575050836001959610610e25575b505050811b019055005b015160001960f88460031b161c19169055388080610e1b565b80600185968294968601518155019501930190610e07565b610e5e610c53565b610d7c565b503461000e57602036600319011261000e5760206104c060043561183f565b503461000e57602036600319011261000e57610e9c6104d1565b610ea46116da565b6001600160a01b0361013591166001600160a01b031982541617905561012f61010061ff00198254161790556000604051f35b503461000e57602036600319011261000e576020610efb610ef66104d1565b61177c565b604051908152f35b503461000e5760008060031936011261049e57610f1e6116da565b60fb546001600160a01b0319811660fb55816001600160a01b0360405192167f8be0079c531659141344cd1fd0a4f28419497f9722a3daafe3b4186f6b6457e08284a3f35b503461000e57600036600319011261000e57602061012d54604051908152f35b60243590811515820361000e57565b503461000e57602036600319011261000e5760043580151580910361000e57610fb96116da565b61012f9060ff801983541691161790556000604051f35b503461000e57600036600319011261000e5760206001600160a01b0360fb5416604051908152f35b9181601f8401121561000e5782359167ffffffffffffffff831161000e576020838186019501011161000e57565b503461000e57608036600319011261000e5767ffffffffffffffff60043581811161000e57611059903690600401610ff8565b60249291923591821161000e576110776110ca923690600401610ff8565b61107f6104e7565b916110886104fd565b93600054966110ae60ff8960081c16158099819a611148575b8115611128575b50611fe0565b876110c1600160ff196000541617600055565b61110f57612052565b6110d057005b6110e061ff001960005416600055565b604051600181527f7f26b83ff96e1f2b6a682f133852f6798a09c465da95921460cefb384740249890602090a1005b61112361010061ff00196000541617600055565b612052565b303b1591508161113a575b50386110a8565b6001915060ff161438611133565b600160ff82161091506110a1565b503461000e5760008060031936011261049e57604051908060665461117a81611861565b8085529160019180831690811561047d57506001146111a35761041e8561041281870382610c93565b9250606683527f46501879b8ca8525e8c2fd519e2fbfcfa2ebea26501294aa02cbfcfb12e943545b8284106111e65750505081016020016104128261041e610402565b805460208587018101919091529093019281016111cb565b503461000e57600036600319011261000e57602060ff61012f5460081c166040519015158152f35b503461000e57604036600319011261000e576112406104d1565b611248610f83565b6001600160a01b038216918233146112cb57816112886112999233600052606a6020526040600020906001600160a01b0316600052602052604060002090565b9060ff801983541691151516179055565b604051901515815233907f17307eab39ab6107e8899845ad3d59bd9653f200f220920489ca2b5937696c3190602090a3005b60405162461bcd60e51b815260206004820152601960248201527f4552433732313a20617070726f766520746f2063616c6c6572000000000000006044820152606490fd5b503461000e57604036600319011261000e5767ffffffffffffffff60243581811161000e57611343903690600401610ff8565b919061134d6116da565b6113846005604051809560209481611366878501612987565b9182370164173539b7b760d91b815203601a19810186520184610c93565b600091600435835261013382526040832091845191821161145d575b6113b4826113ae8554611861565b8561247f565b80601f83116001146113f057508394829394926113e5575b50508160011b916000199060031b1c1916179055604051f35b0151905038806113cc565b90601f1983169561140685600052602060002090565b9286905b8882106114455750508360019596971061142c575b505050811b019055604051f35b015160001960f88460031b161c1916905538808061141f565b8060018596829496860151815501950193019061140a565b611465610c53565b6113a0565b503461000e57608036600319011261000e576114846104d1565b61148c610513565b6064359167ffffffffffffffff831161000e573660238401121561000e576114c1610581933690602481600401359101610ce0565b9160443591611a7e565b503461000e57602036600319011261000e5761041e6114eb600435612c99565b60405191829160208352602083019061035f565b503461000e57604036600319011261000e57602060ff6115566115206104d1565b6001600160a01b03611530610513565b9116600052606a84526040600020906001600160a01b0316600052602052604060002090565b54166040519015158152f35b503461000e5761157136610d17565b6115796116da565b805167ffffffffffffffff811161163f575b610131906115a28161159d8454611861565b61232b565b602080601f83116001146115d15750819293600092610dc35750508160011b916000199060031b1c1916179055005b90601f198316946116056101316000527fbd987ad6ccdb7c7567f7335ea839f95dc944431abcf935b6924f70215963db7390565b926000905b878210611627575050836001959610610e2557505050811b019055005b8060018596829496860151815501950193019061160a565b611647610c53565b61158b565b503461000e57602036600319011261000e576116666104d1565b61166e6116da565b6001600160a01b038116156116865761058190611732565b60405162461bcd60e51b815260206004820152602660248201527f4f776e61626c653a206e6577206f776e657220697320746865207a65726f206160448201526564647265737360d01b6064820152608490fd5b6001600160a01b0360fb541633036116ee57565b606460405162461bcd60e51b815260206004820152602060248201527f4f776e61626c653a2063616c6c6572206973206e6f7420746865206f776e65726044820152fd5b60fb54906001600160a01b0380911691826001600160a01b031982161760fb55167f8be0079c531659141344cd1fd0a4f28419497f9722a3daafe3b4186f6b6457e06000604051a3565b6001600160a01b0316801561179c57600052606860205260406000205490565b60405162461bcd60e51b815260206004820152602960248201527f4552433732313a2061646472657373207a65726f206973206e6f7420612076616044820152683634b21037bbb732b960b91b6064820152608490fd5b156117fa57565b60405162461bcd60e51b815260206004820152601860248201527f4552433732313a20696e76616c696420746f6b656e20494400000000000000006044820152606490fd5b60005260676020526001600160a01b03604060002054166103c18115156117f3565b90600182811c92168015611891575b602083101461187b57565b634e487b7160e01b600052602260045260246000fd5b91607f1691611870565b604051906000826101319182546118b181611861565b8084529360019180831690811561193957506001146118db575b50506118d992500383610c93565b565b600090815291507fbd987ad6ccdb7c7567f7335ea839f95dc944431abcf935b6924f70215963db735b84831061191e57506118d9935050810160200138806118cb565b81935090816020925483858a01015201910190918592611904565b9550505050505060ff191660208301526118d9826040810138806118cb565b1561195f57565b60405162461bcd60e51b815260206004820152603e60248201527f4552433732313a20617070726f76652063616c6c6572206973206e6f7420746f60448201527f6b656e206f776e6572206e6f7220617070726f76656420666f7220616c6c00006064820152608490fd5b6119f26119ed8260005260676020526001600160a01b0360406000205416151590565b6117f3565b60005260696020526001600160a01b036040600020541690565b15611a1357565b60405162461bcd60e51b815260206004820152602e60248201527f4552433732313a2063616c6c6572206973206e6f7420746f6b656e206f776e6560448201527f72206e6f7220617070726f7665640000000000000000000000000000000000006064820152608490fd5b90611aa2939291611a9261077f8433611b09565b611a9d838383611c32565b611ebf565b15611aa957565b60405162461bcd60e51b815260206004820152603260248201527f4552433732313a207472616e7366657220746f206e6f6e20455243373231526560448201527131b2b4bb32b91034b6b83632b6b2b73a32b960711b6064820152608490fd5b6001600160a01b0380611b1b8461183f565b169281831692848414948515611b51575b50508315611b3b575b50505090565b611b47919293506119ca565b1614388080611b35565b60ff92955090611b8091600052606a6020526040600020906001600160a01b0316600052602052604060002090565b5416923880611b2c565b15611b9157565b60405162461bcd60e51b8152602060048201526024808201527f4552433732313a207472616e7366657220746f20746865207a65726f206164646044820152637265737360e01b6064820152608490fd5b50634e487b7160e01b600052601160045260246000fd5b60018110611c09575b6000190190565b611c11611be2565b611c02565b6001906001198111611c26570190565b611c2e611be2565b0190565b90611c3c8361183f565b6001600160a01b039182918285169384911603611d2257611c95611cf992821694611c68861515611b8a565b611c73878483612e2f565b611c7c87611d75565b6001600160a01b03166000526068602052604060002090565b611c9f8154611bf9565b9055611cbe816001600160a01b03166000526068602052604060002090565b611cc88154611c16565b9055611cde856000526067602052604060002090565b906001600160a01b03166001600160a01b0319825416179055565b7fddf252ad1be2c89b69c2b068fc378daa952ba7f163c4a11628f55a4df523b3ef6000604051a4565b60405162461bcd60e51b815260206004820152602560248201527f4552433732313a207472616e736665722066726f6d20696e636f72726563742060448201526437bbb732b960d91b6064820152608490fd5b6000818152606960205260408120805473ffffffffffffffffffffffffffffffffffffffff191690556001600160a01b03611daf8361183f565b167f8c5be1e5ebec7d5bd14f71427d1e84f3dd0314c0f7b2291e5b200ac8c7c3b92582604051a4565b6000828152606960205260409020805473ffffffffffffffffffffffffffffffffffffffff19166001600160a01b0383161790556001600160a01b0380611e1e8461183f565b169116907f8c5be1e5ebec7d5bd14f71427d1e84f3dd0314c0f7b2291e5b200ac8c7c3b9256000604051a4565b9081602091031261000e57516103c1816102c4565b90926103c194936080936001600160a01b0380921684521660208301526040820152816060820152019061035f565b3d15611eba573d90611ea082610cb5565b91611eae6040519384610c93565b82523d6000602084013e565b606090565b92909190823b15611fc057611efa9260209260006001600160a01b03604051809781968295630a85bd0160e11b9b8c85523360048601611e60565b0393165af160009181611f90575b50611f8257611f15611e8f565b80519081611f7d5760405162461bcd60e51b815260206004820152603260248201527f4552433732313a207472616e7366657220746f206e6f6e20455243373231526560448201527131b2b4bb32b91034b6b83632b6b2b73a32b960711b6064820152608490fd5b602001fd5b6001600160e01b0319161490565b611fb291925060203d8111611fb9575b611faa8183610c93565b810190611e4b565b9038611f08565b503d611fa0565b50505050600190565b50634e487b7160e01b600052603260045260246000fd5b15611fe757565b60405162461bcd60e51b815260206004820152602e60248201527f496e697469616c697a61626c653a20636f6e747261637420697320616c72656160448201527f647920696e697469616c697a65640000000000000000000000000000000000006064820152608490fd5b6120659061206d93929695963691610ce0565b923691610ce0565b9061208860ff60005460081c166120838161223b565b61223b565b80519067ffffffffffffffff821161222e575b6120af826120aa606554611861565b61239d565b60209081601f841160011461219257506118d9959383612168946001600160a01b0397946120f994600092612187575b50508160011b916000199060031b1c1916176065556124d3565b6121016126a8565b61210961229b565b61012f805461ffff1916905561271061012e55612127600161012d55565b61012f9075ffffffffffffffffffffffffffffffffffffffff000082549160101b169075ffffffffffffffffffffffffffffffffffffffff00001916179055565b166001600160a01b0361013691166001600160a01b0319825416179055565b0151905038806120df565b60656000529190601f1984167f8ff97419363ffd7000167f130ef7168fbea05faf9251824ca5043f113cc6a7c7936000905b828210612216575050846001600160a01b0397946120f9946118d99a989461216898600195106121fd575b505050811b016065556124d3565b015160001960f88460031b161c191690553880806121ef565b806001869782949787015181550196019401906121c4565b612236610c53565b61209b565b1561224257565b60405162461bcd60e51b815260206004820152602b60248201527f496e697469616c697a61626c653a20636f6e7472616374206973206e6f74206960448201526a6e697469616c697a696e6760a81b6064820152608490fd5b6122b060ff60005460081c166120838161223b565b6118d933611732565b601f81116122c5575050565b60009061013082527f2f605e086faac1d93117bbfbc18835d434e9405fadc1ca66faf4b864746daf34906020601f850160051c83019410612321575b601f0160051c01915b82811061231657505050565b81815560010161230a565b9092508290612301565b601f8111612337575050565b60009061013182527fbd987ad6ccdb7c7567f7335ea839f95dc944431abcf935b6924f70215963db73906020601f850160051c83019410612393575b601f0160051c01915b82811061238857505050565b81815560010161237c565b9092508290612373565b601f81116123a9575050565b600090606582527f8ff97419363ffd7000167f130ef7168fbea05faf9251824ca5043f113cc6a7c7906020601f850160051c83019410612404575b601f0160051c01915b8281106123f957505050565b8181556001016123ed565b90925082906123e4565b601f811161241a575050565b600090606682527f46501879b8ca8525e8c2fd519e2fbfcfa2ebea26501294aa02cbfcfb12e94354906020601f850160051c83019410612475575b601f0160051c01915b82811061246a57505050565b81815560010161245e565b9092508290612455565b90601f811161248d57505050565b600091825260208220906020601f850160051c830194106124c9575b601f0160051c01915b8281106124be57505050565b8181556001016124b2565b90925082906124a9565b90815167ffffffffffffffff81116125be575b6124fa816124f5606654611861565b61240e565b602080601f8311600114612536575081929360009261252b575b50508160011b916000199060031b1c191617606655565b015190503880612514565b90601f1983169461256960666000527f46501879b8ca8525e8c2fd519e2fbfcfa2ebea26501294aa02cbfcfb12e9435490565b926000905b8782106125a657505083600195961061258d575b505050811b01606655565b015160001960f88460031b161c19169055388080612582565b8060018596829496860151815501950193019061256e565b6125c6610c53565b6124e6565b919091825167ffffffffffffffff811161269b575b6125f4816125ee8454611861565b8461247f565b602080601f8311600114612630575081929394600092612625575b50508160011b916000199060031b1c1916179055565b01519050388061260f565b90601f1983169561264685600052602060002090565b926000905b8882106126835750508360019596971061266a575b505050811b019055565b015160001960f88460031b161c19169055388080612660565b8060018596829496860151815501950193019061264b565b6126a3610c53565b6125e0565b6118d960ff60005460081c1661223b565b156126c057565b60405162461bcd60e51b815260206004820152601160248201527f457863656564206d617820616d6f756e740000000000000000000000000000006044820152606490fd5b6001600160a01b0381169081156127f4576127368360005260676020526001600160a01b0360406000205416151590565b6127af57806127488461278593612e04565b612765816001600160a01b03166000526068602052604060002090565b61276f8154611c16565b9055611cde846000526067602052604060002090565b60007fddf252ad1be2c89b69c2b068fc378daa952ba7f163c4a11628f55a4df523b3ef81604051a4565b60405162461bcd60e51b815260206004820152601c60248201527f4552433732313a20746f6b656e20616c7265616479206d696e746564000000006044820152606490fd5b606460405162461bcd60e51b815260206004820152602060248201527f4552433732313a206d696e7420746f20746865207a65726f20616464726573736044820152fd5b91909161285b8160005260676020526001600160a01b0360406000205416151590565b1561291c5760005260206097815260406000209083519067ffffffffffffffff821161290f575b612890826113ae8554611861565b80601f83116001146128be5750819293946000926126255750508160011b916000199060031b1c1916179055565b90601f198316956128d485600052602060002090565b926000905b8882106128f75750508360019596971061266a57505050811b019055565b806001859682949686015181550195019301906128d9565b612917610c53565b612882565b60405162461bcd60e51b815260206004820152602e60248201527f45524337323155524953746f726167653a2055524920736574206f66206e6f6e60448201527f6578697374656e7420746f6b656e0000000000000000000000000000000000006064820152608490fd5b9060009161013090815461299a81611861565b92600191808316908115612a0e57506001146129b7575b50505050565b9091929394506000527f2f605e086faac1d93117bbfbc18835d434e9405fadc1ca66faf4b864746daf34906000915b8483106129fb575050500190388080806129b1565b81816020925485870152019201916129e6565b60ff19168452505050019150388080806129b1565b908092918237016000815290565b15612a3857565b60405162461bcd60e51b815260206004820152600f60248201527f4e6f7420796574207374617274656400000000000000000000000000000000006044820152606490fd5b15612a8457565b60405162461bcd60e51b815260206004820152600f60248201527f496e76616c6964204261736555524900000000000000000000000000000000006044820152606490fd5b15612ad057565b60405162461bcd60e51b815260206004820152602160248201527f546865206e657874207363656e6172696f206973206e6f7420656e61626c65646044820152602160f81b6064820152608490fd5b6001906000198114611c26570190565b9190811015612b40575b60051b0190565b612b48611fc9565b612b39565b15612b5457565b60405162461bcd60e51b815260206004820152601860248201527f546f6b656e206f776e6572206973206e6f742066616c736500000000000000006044820152606490fd5b15612ba057565b60405162461bcd60e51b815260206004820152601760248201527f416c72656164792052657665616c656420746f6b656e210000000000000000006044820152606490fd5b9190811015612c28575b60051b81013590601e198136030182121561000e57019081359167ffffffffffffffff831161000e57602001823603811361000e579190565b612c30611fc9565b612bef565b6001600160a01b039081610135541691823b1561000e5760246000928360405195869485936319549d1d60e11b85521660048401525af18015612c8d57612c795750565b67ffffffffffffffff8111610c8657604052565b6040513d6000823e3d90fd5b612cb98160005260676020526001600160a01b0360406000205416151590565b15612d995760ff612cd582600052610134602052604060002090565b541615612d9057612cf190600052610133602052604060002090565b60405190816000825492612d0484611861565b908184526001948581169081600014612d715750600114612d2e575b50506103c192500382610c93565b9093915060005260209081600020936000915b818310612d595750506103c193508201013880612d20565b85548784018501529485019486945091830191612d41565b9550505050505060ff191660208201526103c181604081013880612d20565b506103c161189b565b60405162461bcd60e51b815260206004820152603160248201527f45524337323155524953746f726167653a2055524920717565727920666f722060448201527f6e6f6e6578697374656e7420746f6b656e0000000000000000000000000000006064820152608490fd5b90612e0e81612f8d565b6001600160a01b038216612e26576118d99150613006565b6118d991612f54565b9091906001600160a01b038082169182612e695750612e4d83612f8d565b831680612e605750506118d99150613006565b03612e26575050565b8185168303612e79575b50612e4d565b612eec612e858261177c565b60018110612f47575b60001901612edd60009387855260ca6020526040852054838103612ef3575b5084612ec38960005260ca602052604060002090565b556001600160a01b031660005260c9602052604060002090565b90600052602052604060002090565b5538612e73565b87865260c960205260408620848752602052612f40604087205480612f2f84612edd876001600160a01b031660005260c9602052604060002090565b5560005260ca602052604060002090565b5538612ead565b612f4f611be2565b612e8e565b604090612f608161177c565b926001600160a01b0360009216825260c96020528282208483526020528083832055815260ca6020522055565b60cb548160005260cc6020528060406000205568010000000000000000811015612ff9575b600181018060cb55811015612fec575b60cb6000527fa7ce836d032b2bf62b7e2097a8e0a6d8aeb35405ad15271e96d3b0188a1d06fb0155565b612ff4611fc9565b612fc2565b613001610c53565b612fb2565b60cb80546001811061310e575b60009083825260cc602052816130b560408220549560001996848881011015613101575b8684526130a47fa7ce836d032b2bf62b7e2097a8e0a6d8aeb35405ad15271e96d3b0188a1d06fa9586810154908310156130f4575b88865280837fa7ce836d032b2bf62b7e2097a8e0a6d8aeb35405ad15271e96d3b0188a1d06fb015560005260cc602052604060002090565b5560005260cc602052604060002090565b5582549384156130e057840193808510156130d3575b838352015555565b6130db611fc9565b6130cb565b634e487b7160e01b83526031600452602483fd5b6130fc611fc9565b61306c565b613109611fc9565b613037565b613116611be2565b61301356fea2646970667358221220a47f129ed2c8562a400463c245ae7e68d5b63bfd2b6b40289c86a73145e900e164736f6c634300080e0033",
  "devdoc": {
    "kind": "dev",
    "methods": {
      "approve(address,uint256)": {
        "details": "See {IERC721-approve}."
      },
      "balanceOf(address)": {
        "details": "See {IERC721-balanceOf}."
      },
      "getApproved(uint256)": {
        "details": "See {IERC721-getApproved}."
      },
      "isApprovedForAll(address,address)": {
        "details": "See {IERC721-isApprovedForAll}."
      },
      "mintingInformation()": {
        "details": "Returns. About Minting"
      },
      "name()": {
        "details": "See {IERC721Metadata-name}."
      },
      "owner()": {
        "details": "Returns the address of the current owner."
      },
      "ownerOf(uint256)": {
        "details": "See {IERC721-ownerOf}."
      },
      "publicMint(address)": {
        "details": "A function that anyone can mint. Before reveal, it is minted in the unreveal state",
        "params": {
          "tokenOwner": "The owner of the minting token"
        }
      },
      "renounceOwnership()": {
        "details": "Leaves the contract without owner. It will not be possible to call `onlyOwner` functions anymore. Can only be called by the current owner. NOTE: Renouncing ownership will leave the contract without an owner, thereby removing any functionality that is only available to the owner."
      },
      "repairTokenURI(uint256,string)": {
        "details": "A function that can be repaired in the event of an unintended error when revealed. Only the owner can execute it",
        "params": {
          "tokenHash": "The unique hash value of the token",
          "tokenId": "The ID of the token you want to repair"
        }
      },
      "revealTokens(uint256[],string[])": {
        "details": "A function that revises tokens that have not yet been revealed. It issues tokens in the next scenario at the same time",
        "params": {
          "tokenHash": "The unique hash value of the token",
          "tokenIds": "The ID of the token you want to reveal"
        }
      },
      "safeTransferFrom(address,address,uint256)": {
        "details": "See {IERC721-safeTransferFrom}."
      },
      "safeTransferFrom(address,address,uint256,bytes)": {
        "details": "See {IERC721-safeTransferFrom}."
      },
      "setApprovalForAll(address,bool)": {
        "details": "See {IERC721-setApprovalForAll}."
      },
      "setBaseURI(string)": {
        "details": "Set base URI of reveal tokens. Only the owner can do it",
        "params": {
          "_newBaseURI": "Base URI of revealed tokens"
        }
      },
      "setNextScenarioConenct(address)": {
        "details": "Functions that associate with the following collection of scenarios",
        "params": {
          "nextScenario": "Address of the next scenario contract"
        }
      },
      "setNotRevealedURI(string)": {
        "details": "Set base URI of unreveal tokens. Only the owner can do it",
        "params": {
          "_newNotRevealedURI": "Base URI of unreveal tokens"
        }
      },
      "setRevealState(bool)": {
        "details": "A function that allows users to start reveal",
        "params": {
          "_state": "True & False, Allow reveal"
        }
      },
      "supportsInterface(bytes4)": {
        "details": "See {IERC165-supportsInterface}"
      },
      "symbol()": {
        "details": "See {IERC721Metadata-symbol}."
      },
      "tokenByIndex(uint256)": {
        "details": "See {IERC721Enumerable-tokenByIndex}."
      },
      "tokenOfOwnerByIndex(address,uint256)": {
        "details": "See {IERC721Enumerable-tokenOfOwnerByIndex}."
      },
      "tokenURI(uint256)": {
        "details": "Returns the Uniform Resource Identifier (URI) for `tokenId` token"
      },
      "totalSupply()": {
        "details": "See {IERC721Enumerable-totalSupply}."
      },
      "transferFrom(address,address,uint256)": {
        "details": "See {IERC721-transferFrom}."
      },
      "transferOwnership(address)": {
        "details": "Transfers ownership of the contract to a new account (`newOwner`). Can only be called by the current owner."
      }
    },
    "version": 1
  },
  "userdoc": {
    "kind": "user",
    "methods": {},
    "version": 1
  },
  "storageLayout": {
    "storage": [
      {
        "astId": 285,
        "contract": "contracts/voting/ScenarioTwo.sol:NendNFTs2",
        "label": "_initialized",
        "offset": 0,
        "slot": "0",
        "type": "t_uint8"
      },
      {
        "astId": 288,
        "contract": "contracts/voting/ScenarioTwo.sol:NendNFTs2",
        "label": "_initializing",
        "offset": 1,
        "slot": "0",
        "type": "t_bool"
      },
      {
        "astId": 3014,
        "contract": "contracts/voting/ScenarioTwo.sol:NendNFTs2",
        "label": "__gap",
        "offset": 0,
        "slot": "1",
        "type": "t_array(t_uint256)50_storage"
      },
      {
        "astId": 3786,
        "contract": "contracts/voting/ScenarioTwo.sol:NendNFTs2",
        "label": "__gap",
        "offset": 0,
        "slot": "51",
        "type": "t_array(t_uint256)50_storage"
      },
      {
        "astId": 1172,
        "contract": "contracts/voting/ScenarioTwo.sol:NendNFTs2",
        "label": "_name",
        "offset": 0,
        "slot": "101",
        "type": "t_string_storage"
      },
      {
        "astId": 1174,
        "contract": "contracts/voting/ScenarioTwo.sol:NendNFTs2",
        "label": "_symbol",
        "offset": 0,
        "slot": "102",
        "type": "t_string_storage"
      },
      {
        "astId": 1178,
        "contract": "contracts/voting/ScenarioTwo.sol:NendNFTs2",
        "label": "_owners",
        "offset": 0,
        "slot": "103",
        "type": "t_mapping(t_uint256,t_address)"
      },
      {
        "astId": 1182,
        "contract": "contracts/voting/ScenarioTwo.sol:NendNFTs2",
        "label": "_balances",
        "offset": 0,
        "slot": "104",
        "type": "t_mapping(t_address,t_uint256)"
      },
      {
        "astId": 1186,
        "contract": "contracts/voting/ScenarioTwo.sol:NendNFTs2",
        "label": "_tokenApprovals",
        "offset": 0,
        "slot": "105",
        "type": "t_mapping(t_uint256,t_address)"
      },
      {
        "astId": 1192,
        "contract": "contracts/voting/ScenarioTwo.sol:NendNFTs2",
        "label": "_operatorApprovals",
        "offset": 0,
        "slot": "106",
        "type": "t_mapping(t_address,t_mapping(t_address,t_bool))"
      },
      {
        "astId": 2034,
        "contract": "contracts/voting/ScenarioTwo.sol:NendNFTs2",
        "label": "__gap",
        "offset": 0,
        "slot": "107",
        "type": "t_array(t_uint256)44_storage"
      },
      {
        "astId": 2555,
        "contract": "contracts/voting/ScenarioTwo.sol:NendNFTs2",
        "label": "_tokenURIs",
        "offset": 0,
        "slot": "151",
        "type": "t_mapping(t_uint256,t_string_storage)"
      },
      {
        "astId": 2671,
        "contract": "contracts/voting/ScenarioTwo.sol:NendNFTs2",
        "label": "__gap",
        "offset": 0,
        "slot": "152",
        "type": "t_array(t_uint256)49_storage"
      },
      {
        "astId": 2199,
        "contract": "contracts/voting/ScenarioTwo.sol:NendNFTs2",
        "label": "_ownedTokens",
        "offset": 0,
        "slot": "201",
        "type": "t_mapping(t_address,t_mapping(t_uint256,t_uint256))"
      },
      {
        "astId": 2203,
        "contract": "contracts/voting/ScenarioTwo.sol:NendNFTs2",
        "label": "_ownedTokensIndex",
        "offset": 0,
        "slot": "202",
        "type": "t_mapping(t_uint256,t_uint256)"
      },
      {
        "astId": 2206,
        "contract": "contracts/voting/ScenarioTwo.sol:NendNFTs2",
        "label": "_allTokens",
        "offset": 0,
        "slot": "203",
        "type": "t_array(t_uint256)dyn_storage"
      },
      {
        "astId": 2210,
        "contract": "contracts/voting/ScenarioTwo.sol:NendNFTs2",
        "label": "_allTokensIndex",
        "offset": 0,
        "slot": "204",
        "type": "t_mapping(t_uint256,t_uint256)"
      },
      {
        "astId": 2526,
        "contract": "contracts/voting/ScenarioTwo.sol:NendNFTs2",
        "label": "__gap",
        "offset": 0,
        "slot": "205",
        "type": "t_array(t_uint256)46_storage"
      },
      {
        "astId": 157,
        "contract": "contracts/voting/ScenarioTwo.sol:NendNFTs2",
        "label": "_owner",
        "offset": 0,
        "slot": "251",
        "type": "t_address"
      },
      {
        "astId": 277,
        "contract": "contracts/voting/ScenarioTwo.sol:NendNFTs2",
        "label": "__gap",
        "offset": 0,
        "slot": "252",
        "type": "t_array(t_uint256)49_storage"
      },
      {
        "astId": 27894,
        "contract": "contracts/voting/ScenarioTwo.sol:NendNFTs2",
        "label": "mintIndexForSale",
        "offset": 0,
        "slot": "301",
        "type": "t_uint256"
      },
      {
        "astId": 27896,
        "contract": "contracts/voting/ScenarioTwo.sol:NendNFTs2",
        "label": "MAX_SALE_AMOUNT",
        "offset": 0,
        "slot": "302",
        "type": "t_uint256"
      },
      {
        "astId": 27898,
        "contract": "contracts/voting/ScenarioTwo.sol:NendNFTs2",
        "label": "isRevealed",
        "offset": 0,
        "slot": "303",
        "type": "t_bool"
      },
      {
        "astId": 27900,
        "contract": "contracts/voting/ScenarioTwo.sol:NendNFTs2",
        "label": "isEnabledNextScenario",
        "offset": 1,
        "slot": "303",
        "type": "t_bool"
      },
      {
        "astId": 27902,
        "contract": "contracts/voting/ScenarioTwo.sol:NendNFTs2",
        "label": "ORIGIN_CONTRACT",
        "offset": 2,
        "slot": "303",
        "type": "t_address"
      },
      {
        "astId": 27904,
        "contract": "contracts/voting/ScenarioTwo.sol:NendNFTs2",
        "label": "baseURI",
        "offset": 0,
        "slot": "304",
        "type": "t_string_storage"
      },
      {
        "astId": 27906,
        "contract": "contracts/voting/ScenarioTwo.sol:NendNFTs2",
        "label": "notRevealedURI",
        "offset": 0,
        "slot": "305",
        "type": "t_string_storage"
      },
      {
        "astId": 27910,
        "contract": "contracts/voting/ScenarioTwo.sol:NendNFTs2",
        "label": "_lastCallBlockNumber",
        "offset": 0,
        "slot": "306",
        "type": "t_mapping(t_address,t_uint256)"
      },
      {
        "astId": 27914,
        "contract": "contracts/voting/ScenarioTwo.sol:NendNFTs2",
        "label": "_tokenURIs",
        "offset": 0,
        "slot": "307",
        "type": "t_mapping(t_uint256,t_string_storage)"
      },
      {
        "astId": 27918,
        "contract": "contracts/voting/ScenarioTwo.sol:NendNFTs2",
        "label": "revealChecked",
        "offset": 0,
        "slot": "308",
        "type": "t_mapping(t_uint256,t_bool)"
      },
      {
        "astId": 27921,
        "contract": "contracts/voting/ScenarioTwo.sol:NendNFTs2",
        "label": "_nextScenario",
        "offset": 0,
        "slot": "309",
        "type": "t_contract(INextScenario)28417"
      },
      {
        "astId": 27924,
        "contract": "contracts/voting/ScenarioTwo.sol:NendNFTs2",
        "label": "_wETH",
        "offset": 0,
        "slot": "310",
        "type": "t_contract(WETH)28455"
      }
    ],
    "types": {
      "t_address": {
        "encoding": "inplace",
        "label": "address",
        "numberOfBytes": "20"
      },
      "t_array(t_uint256)44_storage": {
        "base": "t_uint256",
        "encoding": "inplace",
        "label": "uint256[44]",
        "numberOfBytes": "1408"
      },
      "t_array(t_uint256)46_storage": {
        "base": "t_uint256",
        "encoding": "inplace",
        "label": "uint256[46]",
        "numberOfBytes": "1472"
      },
      "t_array(t_uint256)49_storage": {
        "base": "t_uint256",
        "encoding": "inplace",
        "label": "uint256[49]",
        "numberOfBytes": "1568"
      },
      "t_array(t_uint256)50_storage": {
        "base": "t_uint256",
        "encoding": "inplace",
        "label": "uint256[50]",
        "numberOfBytes": "1600"
      },
      "t_array(t_uint256)dyn_storage": {
        "base": "t_uint256",
        "encoding": "dynamic_array",
        "label": "uint256[]",
        "numberOfBytes": "32"
      },
      "t_bool": {
        "encoding": "inplace",
        "label": "bool",
        "numberOfBytes": "1"
      },
      "t_contract(INextScenario)28417": {
        "encoding": "inplace",
        "label": "contract INextScenario",
        "numberOfBytes": "20"
      },
      "t_contract(WETH)28455": {
        "encoding": "inplace",
        "label": "contract WETH",
        "numberOfBytes": "20"
      },
      "t_mapping(t_address,t_bool)": {
        "encoding": "mapping",
        "key": "t_address",
        "label": "mapping(address => bool)",
        "numberOfBytes": "32",
        "value": "t_bool"
      },
      "t_mapping(t_address,t_mapping(t_address,t_bool))": {
        "encoding": "mapping",
        "key": "t_address",
        "label": "mapping(address => mapping(address => bool))",
        "numberOfBytes": "32",
        "value": "t_mapping(t_address,t_bool)"
      },
      "t_mapping(t_address,t_mapping(t_uint256,t_uint256))": {
        "encoding": "mapping",
        "key": "t_address",
        "label": "mapping(address => mapping(uint256 => uint256))",
        "numberOfBytes": "32",
        "value": "t_mapping(t_uint256,t_uint256)"
      },
      "t_mapping(t_address,t_uint256)": {
        "encoding": "mapping",
        "key": "t_address",
        "label": "mapping(address => uint256)",
        "numberOfBytes": "32",
        "value": "t_uint256"
      },
      "t_mapping(t_uint256,t_address)": {
        "encoding": "mapping",
        "key": "t_uint256",
        "label": "mapping(uint256 => address)",
        "numberOfBytes": "32",
        "value": "t_address"
      },
      "t_mapping(t_uint256,t_bool)": {
        "encoding": "mapping",
        "key": "t_uint256",
        "label": "mapping(uint256 => bool)",
        "numberOfBytes": "32",
        "value": "t_bool"
      },
      "t_mapping(t_uint256,t_string_storage)": {
        "encoding": "mapping",
        "key": "t_uint256",
        "label": "mapping(uint256 => string)",
        "numberOfBytes": "32",
        "value": "t_string_storage"
      },
      "t_mapping(t_uint256,t_uint256)": {
        "encoding": "mapping",
        "key": "t_uint256",
        "label": "mapping(uint256 => uint256)",
        "numberOfBytes": "32",
        "value": "t_uint256"
      },
      "t_string_storage": {
        "encoding": "bytes",
        "label": "string",
        "numberOfBytes": "32"
      },
      "t_uint256": {
        "encoding": "inplace",
        "label": "uint256",
        "numberOfBytes": "32"
      },
      "t_uint8": {
        "encoding": "inplace",
        "label": "uint8",
        "numberOfBytes": "1"
      }
    }
  }
}