{
  "address": "0x667ca0ca759a05221D92bcD86E00F42bF86c4A18",
  "abi": [
    {
      "inputs": [
        {
          "internalType": "contract Vault",
          "name": "_rewardPool",
          "type": "address"
        },
        {
          "internalType": "contract NEND",
          "name": "_rewardToken",
          "type": "address"
        },
        {
          "internalType": "address[4]",
          "name": "_vpcAddresses",
          "type": "address[4]"
        }
      ],
      "stateMutability": "nonpayable",
      "type": "constructor"
    },
    {
      "anonymous": false,
      "inputs": [
        {
          "indexed": false,
          "internalType": "bytes32",
          "name": "curationHash",
          "type": "bytes32"
        },
        {
          "indexed": false,
          "internalType": "address[]",
          "name": "votersRedeemableCard",
          "type": "address[]"
        },
        {
          "indexed": false,
          "internalType": "address[]",
          "name": "votersRewarded",
          "type": "address[]"
        },
        {
          "indexed": false,
          "internalType": "uint256[]",
          "name": "rewards",
          "type": "uint256[]"
        }
      ],
      "name": "CurationEnded",
      "type": "event"
    },
    {
      "anonymous": false,
      "inputs": [
        {
          "indexed": true,
          "internalType": "address",
          "name": "previousOwner",
          "type": "address"
        },
        {
          "indexed": true,
          "internalType": "address",
          "name": "newOwner",
          "type": "address"
        }
      ],
      "name": "OwnershipTransferred",
      "type": "event"
    },
    {
      "anonymous": false,
      "inputs": [
        {
          "indexed": false,
          "internalType": "bytes32",
          "name": "curationHash",
          "type": "bytes32"
        },
        {
          "indexed": false,
          "internalType": "address",
          "name": "voter",
          "type": "address"
        }
      ],
      "name": "VPCRedeemed",
      "type": "event"
    },
    {
      "anonymous": false,
      "inputs": [
        {
          "indexed": false,
          "internalType": "bool",
          "name": "accept",
          "type": "bool"
        },
        {
          "indexed": false,
          "internalType": "bool",
          "name": "bet",
          "type": "bool"
        },
        {
          "indexed": false,
          "internalType": "bool",
          "name": "leverageLending",
          "type": "bool"
        },
        {
          "indexed": false,
          "internalType": "uint8",
          "name": "loanAmount",
          "type": "uint8"
        },
        {
          "indexed": false,
          "internalType": "uint8",
          "name": "duration",
          "type": "uint8"
        },
        {
          "indexed": false,
          "internalType": "uint8",
          "name": "apr",
          "type": "uint8"
        },
        {
          "indexed": false,
          "internalType": "uint8",
          "name": "cardLevel",
          "type": "uint8"
        },
        {
          "indexed": false,
          "internalType": "uint256",
          "name": "cardId",
          "type": "uint256"
        },
        {
          "indexed": false,
          "internalType": "uint48",
          "name": "voteTime",
          "type": "uint48"
        },
        {
          "indexed": false,
          "internalType": "bytes32",
          "name": "curationHash",
          "type": "bytes32"
        },
        {
          "indexed": false,
          "internalType": "address",
          "name": "voter",
          "type": "address"
        }
      ],
      "name": "VoteCasted",
      "type": "event"
    },
    {
      "inputs": [
        {
          "internalType": "bool",
          "name": "_accept",
          "type": "bool"
        },
        {
          "internalType": "bool",
          "name": "_bet",
          "type": "bool"
        },
        {
          "internalType": "bool",
          "name": "_leverageLending",
          "type": "bool"
        },
        {
          "internalType": "uint8",
          "name": "_loanAmount",
          "type": "uint8"
        },
        {
          "internalType": "uint8",
          "name": "_duration",
          "type": "uint8"
        },
        {
          "internalType": "uint8",
          "name": "_apr",
          "type": "uint8"
        },
        {
          "internalType": "uint8",
          "name": "_cardLevel",
          "type": "uint8"
        },
        {
          "internalType": "uint256",
          "name": "_cardId",
          "type": "uint256"
        },
        {
          "internalType": "uint48",
          "name": "_curationEnd",
          "type": "uint48"
        },
        {
          "internalType": "bytes32",
          "name": "_curationHash",
          "type": "bytes32"
        },
        {
          "internalType": "bytes",
          "name": "_signature",
          "type": "bytes"
        }
      ],
      "name": "castVote",
      "outputs": [],
      "stateMutability": "nonpayable",
      "type": "function"
    },
    {
      "inputs": [
        {
          "internalType": "bytes32",
          "name": "",
          "type": "bytes32"
        }
      ],
      "name": "curationHashToEndTime",
      "outputs": [
        {
          "internalType": "uint48",
          "name": "",
          "type": "uint48"
        }
      ],
      "stateMutability": "view",
      "type": "function"
    },
    {
      "inputs": [
        {
          "internalType": "bytes32",
          "name": "",
          "type": "bytes32"
        }
      ],
      "name": "curationHashToEnded",
      "outputs": [
        {
          "internalType": "bool",
          "name": "",
          "type": "bool"
        }
      ],
      "stateMutability": "view",
      "type": "function"
    },
    {
      "inputs": [
        {
          "components": [
            {
              "internalType": "bytes32",
              "name": "curationHash",
              "type": "bytes32"
            },
            {
              "internalType": "bool",
              "name": "rejected",
              "type": "bool"
            },
            {
              "internalType": "uint8",
              "name": "winningOption",
              "type": "uint8"
            },
            {
              "internalType": "uint256",
              "name": "totalRewards",
              "type": "uint256"
            },
            {
              "internalType": "uint256",
              "name": "winningPower",
              "type": "uint256"
            }
          ],
          "internalType": "struct ICuration.EndCurationArgs",
          "name": "args",
          "type": "tuple"
        }
      ],
      "name": "endCuration",
      "outputs": [],
      "stateMutability": "nonpayable",
      "type": "function"
    },
    {
      "inputs": [],
      "name": "nend",
      "outputs": [
        {
          "internalType": "contract NEND",
          "name": "",
          "type": "address"
        }
      ],
      "stateMutability": "view",
      "type": "function"
    },
    {
      "inputs": [],
      "name": "owner",
      "outputs": [
        {
          "internalType": "address",
          "name": "",
          "type": "address"
        }
      ],
      "stateMutability": "view",
      "type": "function"
    },
    {
      "inputs": [
        {
          "internalType": "bytes32",
          "name": "_curationHash",
          "type": "bytes32"
        }
      ],
      "name": "redeemVpc",
      "outputs": [],
      "stateMutability": "nonpayable",
      "type": "function"
    },
    {
      "inputs": [],
      "name": "renounceOwnership",
      "outputs": [],
      "stateMutability": "nonpayable",
      "type": "function"
    },
    {
      "inputs": [],
      "name": "rewardPool",
      "outputs": [
        {
          "internalType": "contract Vault",
          "name": "",
          "type": "address"
        }
      ],
      "stateMutability": "view",
      "type": "function"
    },
    {
      "inputs": [
        {
          "internalType": "contract NEND",
          "name": "_nend",
          "type": "address"
        }
      ],
      "name": "setNend",
      "outputs": [],
      "stateMutability": "nonpayable",
      "type": "function"
    },
    {
      "inputs": [
        {
          "internalType": "contract Vault",
          "name": "_rewardPool",
          "type": "address"
        }
      ],
      "name": "setRewardPool",
      "outputs": [],
      "stateMutability": "nonpayable",
      "type": "function"
    },
    {
      "inputs": [
        {
          "internalType": "uint8",
          "name": "_level",
          "type": "uint8"
        },
        {
          "internalType": "address",
          "name": "_address",
          "type": "address"
        }
      ],
      "name": "setVPCAddress",
      "outputs": [],
      "stateMutability": "nonpayable",
      "type": "function"
    },
    {
      "inputs": [
        {
          "internalType": "address[4]",
          "name": "_addresses",
          "type": "address[4]"
        }
      ],
      "name": "setVPCAddresses",
      "outputs": [],
      "stateMutability": "nonpayable",
      "type": "function"
    },
    {
      "inputs": [
        {
          "internalType": "address",
          "name": "newOwner",
          "type": "address"
        }
      ],
      "name": "transferOwnership",
      "outputs": [],
      "stateMutability": "nonpayable",
      "type": "function"
    },
    {
      "inputs": [
        {
          "internalType": "bytes32",
          "name": "",
          "type": "bytes32"
        },
        {
          "internalType": "uint256",
          "name": "",
          "type": "uint256"
        }
      ],
      "name": "votes",
      "outputs": [
        {
          "internalType": "bool",
          "name": "accept",
          "type": "bool"
        },
        {
          "internalType": "bool",
          "name": "bet",
          "type": "bool"
        },
        {
          "internalType": "bool",
          "name": "leverageLending",
          "type": "bool"
        },
        {
          "internalType": "bool",
          "name": "vpcRedeemable",
          "type": "bool"
        },
        {
          "internalType": "bool",
          "name": "rewardsClaimed",
          "type": "bool"
        },
        {
          "internalType": "uint8",
          "name": "loanAmount",
          "type": "uint8"
        },
        {
          "internalType": "uint8",
          "name": "duration",
          "type": "uint8"
        },
        {
          "internalType": "uint8",
          "name": "apr",
          "type": "uint8"
        },
        {
          "internalType": "uint8",
          "name": "cardLevel",
          "type": "uint8"
        },
        {
          "internalType": "uint256",
          "name": "cardId",
          "type": "uint256"
        },
        {
          "internalType": "uint48",
          "name": "voteTime",
          "type": "uint48"
        },
        {
          "internalType": "address",
          "name": "voter",
          "type": "address"
        }
      ],
      "stateMutability": "view",
      "type": "function"
    },
    {
      "inputs": [
        {
          "internalType": "uint256",
          "name": "",
          "type": "uint256"
        }
      ],
      "name": "vpcAddresses",
      "outputs": [
        {
          "internalType": "address",
          "name": "",
          "type": "address"
        }
      ],
      "stateMutability": "view",
      "type": "function"
    }
  ],
  "transactionHash": "0x7e2f05522690893a595c678f56f04c702df9f86076e7e4e9f43bb06e103f4c73",
  "args": [
    "0xeBAB3161F43080ABAbff2be89D81ac3aF44509ED",
    "0x235D5eb29E540DB5D58Ba7CC4cC1fbf0118A1Fa2",
    [
      "0x8c33B884dBB47e3b15885020E0C4B37C9aF2734E",
      "0x3A0c725ebE634767A163bb4dA482dd675b710239",
      "0xF4AbB7062d50B854BbAAb27259E4c1bf85Bd1204",
      "0x2ffc28980dA9098E857367335af46c0c5BfE7cE4"
    ]
  ],
  "numDeployments": 17,
  "solcInputHash": "e6a8509ab9edc0773d6a6bd4cf2732fa",
  "bytecode": "0x608060405234620000b957620028e4803803806200001d8162000104565b92833981019060c081830312620000b9578051916200003c836200012a565b60209283830151916200004f836200012a565b80605f85011215620000b95762000065620000d5565b809460c08101928311620000b957604001905b8282106200009d576200008d8686866200019b565b6040516124c590816200041f8239f35b8680918351620000ad816200012a565b81520191019062000078565b600080fd5b50634e487b7160e01b600052604160045260246000fd5b60405190608082016001600160401b03811183821017620000f557604052565b620000ff620000be565b604052565b6040519190601f01601f191682016001600160401b03811183821017620000f557604052565b6001600160a01b03811603620000b957565b81811062000148575050565b600081556001016200013c565b6008906000905b600482106200016a57505050565b805183546001600160a01b0319166001600160a01b039190911617835560019283019291909101906020016200015c565b620002aa929162000282620002a49260008054732f358b80ed2d296c09560d2b9f70a7f81d57e352908160018060a01b0319821617835560018060a01b03167f8be0079c531659141344cd1fd0a4f28419497f9722a3daafe3b4186f6b6457e083604051a36200020d60015462000311565b601f8111620002d0575b5060066206966760ec1b01600155600254620002339062000311565b601f8111620002ac575b50506006621a599b60ea1b01600255620002566200034e565b62000260620003b6565b600d80546001600160a01b0319166001600160a01b0392909216919091179055565b600e80546001600160a01b0319166001600160a01b0392909216919091179055565b62000155565b565b601f6020836002620002c8955220910160051c8101906200013c565b38806200023d565b600182526200030a90601f0160051c7fb10e2d527612073b26eecdfd717e6a320cf44b4afac2b0732d9fcbe2b7fa0cf6908101906200013c565b3862000217565b90600182811c9216801562000343575b60208310146200032d57565b634e487b7160e01b600052602260045260246000fd5b91607f169162000321565b6200035b60035462000311565b601f811162000374575b50600461746360f01b01600355565b6003600052620003af90601f0160051c7fc2575a0e9e593c00f959f8c92f12db2869c3395a3b0502d05e2516446f71f85b908101906200013c565b3862000365565b620003c360045462000311565b601f8111620003dc575b50600461626360f01b01600455565b60046000526200041790601f0160051c7f8a35acfbc15ff81a39ae7d344fd709f28e8600b4aa8c65c6b64bfe7fe36bd19b908101906200013c565b38620003cd56fe60806040526004361015610013575b600080fd5b60003560e01c80630733d541146101535780630847a4fb1461014a57806324761aec146101415780634396a63c14610138578063463de8d41461012f5780635a5e3e6c1461012657806366666aa91461011d578063715018a61461011457806378238c371461010b57806382952200146101025780638da5cb5b146100f957806392e8d5bc146100f0578063badadff8146100e7578063cc61ce48146100de578063f2fde38b146100d55763fd43bfb1146100cd57600080fd5b61000e610914565b5061000e610848565b5061000e6107d3565b5061000e61079d565b5061000e610705565b5061000e6106dd565b5061000e6106b5565b5061000e61066e565b5061000e61060d565b5061000e6105e5565b5061000e6105a8565b5061000e61050b565b5061000e610429565b5061000e6103f4565b5061000e610349565b5061000e610220565b50634e487b7160e01b600052604160045260246000fd5b6080810190811067ffffffffffffffff82111761018f57604052565b61019761015c565b604052565b67ffffffffffffffff811161018f57604052565b6040810190811067ffffffffffffffff82111761018f57604052565b90601f8019910116810190811067ffffffffffffffff82111761018f57604052565b60405190610180820182811067ffffffffffffffff82111761018f57604052565b6001600160a01b0381160361000e57565b503461000e57608036600319011261000e57366023121561000e5760405161024781610173565b60848136821161000e576004905b82821061026757610265846109ea565b005b6020809183356102768161020f565b815201910190610255565b50634e487b7160e01b600052603260045260246000fd5b80548210156102b5575b6000526003602060002091020190600090565b6102bd610281565b6102a2565b99979593919c9b9a98969492909c6101808b019d15158b52151560208b0152151560408a0152151560608901521515608088015260a087016103059160ff169052565b60ff1660c086015260ff1660e085015260ff1661010084015261012083015265ffffffffffff1661014082015261016001610347916001600160a01b03169052565b565b503461000e57604036600319011261000e576024356004356000526005602052604060002090815481101561000e5761038191610298565b508054906103f06002600183015492015460405193849360ff65ffffffffffff6001600160a01b038560301c16941692818160401c1691808260381c1691818160301c1691808260281c1691818160201c1691808260181c1691818160101c1691808260081c1691168d6102c2565b0390f35b503461000e57602036600319011261000e576004356000526006602052602065ffffffffffff60406000205416604051908152f35b503461000e57602036600319011261000e576102656004356114a3565b8015150361000e57565b6084359060ff8216820361000e57565b60a4359060ff8216820361000e57565b60c4359060ff8216820361000e57565b6044359060ff8216820361000e57565b610104359065ffffffffffff8216820361000e57565b81601f8201121561000e5780359067ffffffffffffffff82116104fe575b604051926104dc601f8401601f1916602001856101cc565b8284526020838301011161000e57816000926020809301838601378301015290565b61050661015c565b6104c4565b503461000e5761016036600319011261000e5760043561052a81610446565b60243561053681610446565b6044359061054382610446565b6064359260ff8416840361000e57610559610450565b90610562610460565b61056a610470565b90610573610490565b93610144359767ffffffffffffffff891161000e576105996102659936906004016104a6565b97610124359760e43596610f0b565b503461000e57602036600319011261000e576004356000526007602052602060ff604060002054166040519015158152f35b600091031261000e57565b503461000e57600036600319011261000e5760206001600160a01b03600d5416604051908152f35b503461000e5760008060031936011261066b5761062861095b565b80546001600160a01b031981168255816001600160a01b0360405192167f8be0079c531659141344cd1fd0a4f28419497f9722a3daafe3b4186f6b6457e08284a3f35b80fd5b503461000e57602036600319011261000e576001600160a01b036004356106948161020f565b61069c61095b565b166001600160a01b0319600d541617600d556000604051f35b503461000e57600036600319011261000e5760206001600160a01b03600e5416604051908152f35b503461000e57600036600319011261000e5760206001600160a01b0360005416604051908152f35b503461000e5760a036600319011261000e5761026560405160a0810181811067ffffffffffffffff821117610770575b604052600435815260243561074981610446565b6020820152610756610480565b60408201526064356060820152608435608082015261164f565b61077861015c565b610735565b6004811015610790575b60080190600090565b610798610281565b610787565b503461000e57602036600319011261000e57600435600481101561000e576001600160a01b036020916008015416604051908152f35b503461000e57604036600319011261000e5760043560ff8116810361000e5761026590610813602435916108068361020f565b61080e61095b565b6109ca565b600481101561083b575b600801906001600160a01b03166001600160a01b0319825416179055565b610843610281565b61081d565b503461000e57602036600319011261000e576004356108668161020f565b61086e61095b565b6001600160a01b038091169081156108c057600091825491816001600160a01b0319841617845560405192167f8be0079c531659141344cd1fd0a4f28419497f9722a3daafe3b4186f6b6457e08484a3f35b60405162461bcd60e51b815260206004820152602660248201527f4f776e61626c653a206e6577206f776e657220697320746865207a65726f206160448201526564647265737360d01b6064820152608490fd5b503461000e57602036600319011261000e576001600160a01b0360043561093a8161020f565b61094261095b565b166001600160a01b0319600e541617600e556000604051f35b6001600160a01b0360005416330361096f57565b606460405162461bcd60e51b815260206004820152602060248201527f4f776e61626c653a2063616c6c6572206973206e6f7420746865206f776e65726044820152fd5b50634e487b7160e01b600052601160045260246000fd5b60ff16600181106109dd575b6000190190565b6109e56109b3565b6109d6565b6109f261095b565b6008906000905b60048210610a0657505050565b6001602082610a366001600160a01b038495511687906001600160a01b03166001600160a01b0319825416179055565b019301910190916109f9565b8060001904821181151516610a55570290565b610a5d6109b3565b0290565b15610a6857565b60405162461bcd60e51b815260206004820152601160248201527f496e76616c6964207369676e61747572650000000000000000000000000000006044820152606490fd5b15610ab457565b60405162461bcd60e51b815260206004820152601260248201527f496e76616c69642063617264206c6576656c00000000000000000000000000006044820152606490fd5b9081602091031261000e5751610b0e81610446565b90565b506040513d6000823e3d90fd5b15610b2557565b60405162461bcd60e51b815260206004820152601160248201527f43617264206e6f742072656c65617665640000000000000000000000000000006044820152606490fd5b6001906000198114610b7a570190565b610b826109b3565b0190565b15610b8d57565b60405162461bcd60e51b815260206004820152601560248201527f4375726174696f6e20656e64206d69736d6174636800000000000000000000006044820152606490fd5b15610bd957565b60405162461bcd60e51b815260206004820152601360248201527f5650432061646472657373206e6f7420736574000000000000000000000000006044820152606490fd5b8054610c419168010000000000000000821015610e8c575b600182018155610298565b919091610e7657610e2c610160600261034794610c73610c618651151590565b829060ff801983541691151516179055565b610c99610c836020870151151590565b825461ff00191690151560081b61ff0016178255565b610cc1610ca96040870151151590565b825462ff0000191690151560101b62ff000016178255565b610ceb610cd16060870151151590565b825463ff000000191690151560181b63ff00000016178255565b610d17610cfb6080870151151590565b825464ff00000000191690151560201b64ff0000000016178255565b610d46610d2860a087015160ff1690565b825465ff0000000000191660289190911b65ff000000000016178255565b610d77610d5760c087015160ff1690565b825466ff000000000000191660309190911b66ff00000000000016178255565b610daa610d8860e087015160ff1690565b825467ff00000000000000191660389190911b67ff0000000000000016178255565b610de0610dbc61010087015160ff1690565b825468ff0000000000000000191660409190911b68ff000000000000000016178255565b61012085015160018201550192610e1e610e0461014083015165ffffffffffff1690565b855465ffffffffffff191665ffffffffffff909116178555565b01516001600160a01b031690565b7fffffffffffff0000000000000000000000000000000000000000ffffffffffff79ffffffffffffffffffffffffffffffffffffffff00000000000083549260301b169116179055565b634e487b7160e01b600052600060045260246000fd5b610e9461015c565b610c36565b98969492909b9a99979593916101608a019c15158a52151560208a01521515604089015260ff16606088015260ff16608087015260ff1660a086015260ff1660c085015260e084015265ffffffffffff1661010083015261012082015261014001610347916001600160a01b03169052565b6040805160d08b901b7fffffffffffff000000000000000000000000000000000000000000000000000016602082019081523360601b6bffffffffffffffffffffffff19166026830152603a82018d9052949c939b929a929998979695949193610f90929091610f8881605a81015b03601f1981018352826101cc565b5190206113bc565b9087600092610fc9610fb8610fac86546001600160a01b031690565b6001600160a01b031690565b6001600160a01b0380931614610a61565b600161104361100c610fac80610ff9610ff48f61080e60ff821689811015908161136b575b50610aad565b61077d565b90546001600160a01b039160031b1c1690565b8751632084ab8360e01b815260048082019690965290602090829060249082905afa90811561135e575b8791611330575b50610b1e565b8b65ffffffffffff948580611071611065856000526006602052604060002090565b5465ffffffffffff1690565b16156112e7578061109261106561109c956000526006602052604060002090565b9216911614610b86565b84815b61123c575b50506110c1906110b9610ff9610ff48c6109ca565b161515610bd2565b6110d6610fac610fac610ff9610ff48c6109ca565b90813b15611238578b8d7f1f74c8a38eb331d380842b3a000862b09c56213e82b5cbaab23d0997805e15489f9e9d9b98958f6111ad9061120d9f9d9a976111898f9e9b98916111658f87906111a5956112019c838f518096819582946323b872dd60e01b84523090339085016040919493929460608201956001600160a01b0380921683521660208201520152565b03925af1801561122b575b611212575b5042169e6000526005602052604060002090565b9461119c6111956101ee565b9715158852565b15156020870152565b151584870152565b60608301819052608083015260ff851660a083015260ff861660c083015260ff871660e083015260ff8816610100830152610120820189905265ffffffffffff8a1661014083015233610160830152610c1e565b519a8b9a33998c610e99565b0390a1565b8061121f6112259261019c565b806105da565b38611175565b611233610b11565b611170565b8380fd5b8c611251816000526005602052604060002090565b548210156112e15781611271611276926000526005602052604060002090565b610298565b506002015433906112929060301c6001600160a01b0316610fac565b146112a6576112a090610b6a565b8161109f565b865162461bcd60e51b81526020818601818152600d918101919091526c105b1c9958591e481d9bdd1959609a1b604082015281906060010390fd5b506110a4565b506112ff611318926000526006602052604060002090565b9065ffffffffffff1665ffffffffffff19825416179055565b61132b611326600c54610b6a565b600c55565b61109c565b611351915060203d8111611357575b61134981836101cc565b810190610af9565b3861103d565b503d61133f565b611366610b11565b611036565b600591501038610fee565b929190928351906000945b8286106113a7575081602094951161139c575b019081520190565b600082820152611394565b94806020809288010151818401520194611381565b600090602092838101519060ff604160408301519201511692601b841061147b575b9061145991610f7a61142f604051926113f6846101b0565b601c84527f19457468657265756d205369676e6564204d6573736167653a0a3332000000008a8501526040519283918b83019586611376565b51902092604051948594859094939260ff6060936080840197845216602083015260408201520152565b838052039060015afa1561146e575b60005190565b611476610b11565b611468565b9290601b8260e46114599411611496575b01939091506113de565b61149e6109b3565b61148c565b6114b7816000526005602052604060002090565b9060005b825481101561160a576114ce8184610298565b5060028101336114ec610fac83546001600160a01b039060301c1690565b14806115fc575b61150757505061150290610b6a565b6114bb565b815463ff00000019168255909350919050600161154c61153b610fac610fac610ff9610ff461080e8a5460ff9060401c1690565b935460301c6001600160a01b031690565b93015492823b1561000e57604080516323b872dd60e01b81523060048201526001600160a01b0392909216602483015260448201949094527f3d7a2d41e455d272e8f9f78d749d3f4a9f08dfbb1ea5350137e48fefb27c1cf79361120d939091906000908290606490829084905af180156115ef575b6115dc575b50519081523360208201529081906040820190565b8061121f6115e99261019c565b386115c7565b6115f7610b11565b6115c2565b50815460181c60ff166114f3565b60405162461bcd60e51b815260206004820152601c60248201527f4e6f20766f74652076616c696420666f72207670632072656465656d000000006044820152606490fd5b6103479061165b61095b565b611bc4565b1561166757565b60405162461bcd60e51b815260206004820152600e60248201527f4375726174696f6e20656e6465640000000000000000000000000000000000006044820152606490fd5b156116b357565b60405162461bcd60e51b815260206004820152601d60248201527f4375726174696f6e20656e642074696d65206e6f7420726561636865640000006044820152606490fd5b60209067ffffffffffffffff8111611712575b60051b0190565b61171a61015c565b61170b565b6040519060e0820182811067ffffffffffffffff82111761174c575b6040526006825260c0366020840137565b61175461015c565b61173b565b90611763826116f8565b61177060405191826101cc565b8281528092611781601f19916116f8565b0190602036910137565b906103476001600160a01b0360026117a16101ee565b9461182e815460ff906117b88282168a9015159052565b600881901c8216151560208a0152601081901c8216151560408a0152601881901c8216151560608a0152602081901c8216151560808a015260ff602882901c83161660a08a015260ff603082901c83161660c08a015260ff603882901c83161660e08a015260401c1661010088019060ff169052565b6001810154610120870152015465ffffffffffff811661014086015260301c166101608401906001600160a01b03169052565b60209080511561186f570190565b610b82610281565b60409080516001101561186f570190565b60c09080516005101561186f570190565b60609080516002101561186f570190565b60a09080516004101561186f570190565b60809080516003101561186f570190565b60209181518110156118e1575b60051b010190565b6118e9610281565b6118d9565b9081602091031261000e575190565b60408152600254919291600181811c906000908084169081156119e3575b60209485851083146119cf57604087018590528560608801939182156119b2575050600114611958575b50506001600160a01b0391509416910152565b600260009081529250847f405787fa12a823e0f2b7631cc41b3ba8828b3321ca811111fa75cd3aa3bb5ace5b8585106119a0575050506001600160a01b039250013880611945565b80548585015293019285908201611984565b92509350506001600160a01b03935060ff19168152013880611945565b634e487b7160e01b84526022600452602484fd5b92607f169261191b565b81156119f7570490565b634e487b7160e01b600052601260045260246000fd5b81198111610b7a570190565b60608152600254919392916000600182811c90808416908115611b0a575b6020948584108314611af657606087018490526080870192908115611ad85750600114611a78575b5050506001600160a01b03959095169082015260400152565b600260005294939250907f405787fa12a823e0f2b7631cc41b3ba8828b3321ca811111fa75cd3aa3bb5ace946000955b828710611ac75750939492935050016001600160a01b03604038611a5f565b805484880152958401958101611aa8565b60ff191683525050830191506001600160a01b039050604038611a5f565b634e487b7160e01b85526022600452602485fd5b91607f1691611a37565b80156109dd576000190190565b90815180825260208080930193019160005b828110611b41575050505090565b83516001600160a01b031685529381019392810192600101611b33565b9192611b8a918352611b7c6020946080868601526080850190611b21565b908382036040850152611b21565b90606081830391015281808451928381520193019160005b828110611bb0575050505090565b835185529381019392810192600101611ba2565b90611bf3611bee611bea611be385516000526007602052604060002090565b5460ff1690565b1590565b611660565b65ffffffffffff611c1261106584516000526006602052604060002090565b16158015612466575b611c24906116ac565b611c49611c3c83516000526007602052604060002090565b805460ff19166001179055565b611c6f611c6461106584516000526006602052604060002090565b65ffffffffffff1690565b1561246257611c8982516000526005602052604060002090565b91611c9261171f565b9260008154905b81811061235b575050600c5480151580612349575b612292575b50611cc6611cc085611861565b51611759565b611cd2611cc086611877565b611cde611cc087611877565b9260005b815481101561216b5780611cf7899284610298565b50602090611d27611bea838b01611d0e8151151590565b8015612155575b8015612129575b6120d8575b51151590565b806120ca575b611d43575b5050611d3e9150610b6a565b611ce2565b805491604092611d5f611d59858d015160ff1690565b60ff1690565b8b60ff91828460281c161460001461202457611e2592611d95926060611d8a93015191881c16610a42565b60808d0151906119ed565b92611da9611da288611888565b5185611a0d565b611dbc611db5896118bb565b518d6118cc565b52611e106002820197611e02611ddd8a546001600160a01b039060301c1690565b91611de7816118bb565b5190611dfb611df583610b6a565b916118bb565b528c6118cc565b906001600160a01b03169052565b805464ff000000001916640100000000179055565b600e94611e3c610fac87546001600160a01b031690565b90611e5281546001600160a01b039060301c1690565b823b1561000e5785516340c10f1960e01b81526001600160a01b039190911660048083019190915260248201959095528e938893826044815a6000948591f1908781831597610fac97611f5997610fac97610fac97611f679c612017575b612004575b5060008c611f3a611f01611efb611eea610fac611edc600d9e8f546001600160a01b031690565b98546001600160a01b031690565b955460301c6001600160a01b031690565b96611888565b5197519788968795869463276d76f960e21b865285016040919493929460608201956001600160a01b0380921683521660208201520152565b03925af18015611ff7575b611fd9575b5050546001600160a01b031690565b95546001600160a01b031690565b93611f718c611888565b5190803b1561000e57611d3e9560008094611f9f965196879586948593636c49e02160e01b85528401611a19565b03925af18015611fcc575b611fb9575b505b889138611d32565b8061121f611fc69261019c565b38611faf565b611fd4610b11565b611faa565b81611fef92903d106113575761134981836101cc565b503880611f4a565b611fff610b11565b611f45565b8061121f6120119261019c565b38611eb5565b61201f610b11565b611eb0565b50611d3e96508293509361204d610fac610fac610ff9610ff46120819960049897871c166109ca565b905163c002d23d60e01b815292839182905afa9182156120bd575b600092612090575b505061207b8b6118aa565b51611a0d565b61208a8a6118aa565b52611fb1565b6120af9250803d106120b6575b6120a781836101cc565b8101906118ee565b3880612070565b503d61209d565b6120c5610b11565b612068565b50805460081c60ff16611d2d565b835463ff0000001916630100000017845560028401546121249060301c6001600160a01b0316611e0261210a8a611899565b5161211481610b6a565b61211d8c611899565b528d6118cc565b611d21565b508b60ff61214d611d596040612144895460ff9060281c1690565b94015160ff1690565b911614611d1c565b5083546121669060081c60ff161590565b611d15565b505091939492909261217c816118aa565b516121c5575b507f301ac066778ae05acf080a031c91a5dfa7f7f3263ef036803c216021374c4d419361120d916121b7611326600c54611b14565b519260405194859485611b5e565b936121db610fac600d546001600160a01b031690565b916121fa6121f4610fac600e546001600160a01b031690565b966118aa565b5192803b1561000e57604051632770a7eb60e21b81526001600160a01b0397909716600488015260248701939093527f301ac066778ae05acf080a031c91a5dfa7f7f3263ef036803c216021374c4d419561120d936000908290604490829084905af18015612285575b612272575b50915093612182565b8061121f61227f9261019c565b38612269565b61228d610b11565b612264565b6122fe61230e916122e460206122b3610fac600d546001600160a01b031690565b6122c8610fac600e546001600160a01b031690565b906040518080958194630530fa2160e01b8352600483016118fd565b03915afa90811561233c575b60009161231e575b506119ed565b61230786611877565b51906119ed565b61231785611888565b5238611cb3565b612336915060203d81116120b6576120a781836101cc565b386122f8565b612344610b11565b6122f0565b5061235385611877565b511515611cae565b8061237261236c6123b89386610298565b5061178b565b6020906123a0611bea8389016123888151151590565b801561244d575b801561242b575b6124105751151590565b9182612403575b50816123de575b506123bd57610b6a565b611c99565b6123cf6123c988611877565b51610b6a565b6123d888611877565b52610b6a565b60a0015160ff16905060ff6123fa611d59604089015160ff1690565b911614386123ae565b81015115159150386123a7565b61241c6123c98d611861565b6124258d611861565b52611d21565b508960ff612445611d59604061214460a08a015160ff1690565b911614612396565b5061245d611bea86860151151590565b61238f565b9050565b50611c24612485611c6461106585516000526006602052604060002090565b4210159050611c1b56fea264697066735822122094c81431e949c8c26af65db3dba1bd22589f4fbd953fd701d72b839b7aaae05064736f6c634300080e0033",
  "devdoc": {
    "kind": "dev",
    "methods": {
      "owner()": {
        "details": "Returns the address of the current owner."
      },
      "renounceOwnership()": {
        "details": "Leaves the contract without owner. It will not be possible to call `onlyOwner` functions anymore. Can only be called by the current owner. NOTE: Renouncing ownership will leave the contract without an owner, thereby removing any functionality that is only available to the owner."
      },
      "transferOwnership(address)": {
        "details": "Transfers ownership of the contract to a new account (`newOwner`). Can only be called by the current owner."
      }
    },
    "version": 1
  },
  "userdoc": {
    "kind": "user",
    "methods": {},
    "version": 1
  },
  "storageLayout": {
    "storage": [
      {
        "astId": 8357,
        "contract": "contracts/voting/PeriFiCuration.sol:PeriFiCuration",
        "label": "_owner",
        "offset": 0,
        "slot": "0",
        "type": "t_address"
      },
      {
        "astId": 24636,
        "contract": "contracts/voting/PeriFiCuration.sol:PeriFiCuration",
        "label": "interestForPoolBalanceName",
        "offset": 0,
        "slot": "1",
        "type": "t_string_storage"
      },
      {
        "astId": 24639,
        "contract": "contracts/voting/PeriFiCuration.sol:PeriFiCuration",
        "label": "interestForLenderBalanceName",
        "offset": 0,
        "slot": "2",
        "type": "t_string_storage"
      },
      {
        "astId": 24642,
        "contract": "contracts/voting/PeriFiCuration.sol:PeriFiCuration",
        "label": "tradeCommissionBalanceName",
        "offset": 0,
        "slot": "3",
        "type": "t_string_storage"
      },
      {
        "astId": 24645,
        "contract": "contracts/voting/PeriFiCuration.sol:PeriFiCuration",
        "label": "bondingCommissionBalanceName",
        "offset": 0,
        "slot": "4",
        "type": "t_string_storage"
      },
      {
        "astId": 26216,
        "contract": "contracts/voting/PeriFiCuration.sol:PeriFiCuration",
        "label": "votes",
        "offset": 0,
        "slot": "5",
        "type": "t_mapping(t_bytes32,t_array(t_struct(Vote)29878_storage)dyn_storage)"
      },
      {
        "astId": 26220,
        "contract": "contracts/voting/PeriFiCuration.sol:PeriFiCuration",
        "label": "curationHashToEndTime",
        "offset": 0,
        "slot": "6",
        "type": "t_mapping(t_bytes32,t_uint48)"
      },
      {
        "astId": 26224,
        "contract": "contracts/voting/PeriFiCuration.sol:PeriFiCuration",
        "label": "curationHashToEnded",
        "offset": 0,
        "slot": "7",
        "type": "t_mapping(t_bytes32,t_bool)"
      },
      {
        "astId": 26228,
        "contract": "contracts/voting/PeriFiCuration.sol:PeriFiCuration",
        "label": "vpcAddresses",
        "offset": 0,
        "slot": "8",
        "type": "t_array(t_address)4_storage"
      },
      {
        "astId": 26230,
        "contract": "contracts/voting/PeriFiCuration.sol:PeriFiCuration",
        "label": "ongoingCurationCount",
        "offset": 0,
        "slot": "12",
        "type": "t_uint256"
      },
      {
        "astId": 26233,
        "contract": "contracts/voting/PeriFiCuration.sol:PeriFiCuration",
        "label": "rewardPool",
        "offset": 0,
        "slot": "13",
        "type": "t_contract(Vault)25234"
      },
      {
        "astId": 26236,
        "contract": "contracts/voting/PeriFiCuration.sol:PeriFiCuration",
        "label": "nend",
        "offset": 0,
        "slot": "14",
        "type": "t_contract(NEND)24137"
      }
    ],
    "types": {
      "t_address": {
        "encoding": "inplace",
        "label": "address",
        "numberOfBytes": "20"
      },
      "t_array(t_address)4_storage": {
        "base": "t_address",
        "encoding": "inplace",
        "label": "address[4]",
        "numberOfBytes": "128"
      },
      "t_array(t_struct(Vote)29878_storage)dyn_storage": {
        "base": "t_struct(Vote)29878_storage",
        "encoding": "dynamic_array",
        "label": "struct ICuration.Vote[]",
        "numberOfBytes": "32"
      },
      "t_bool": {
        "encoding": "inplace",
        "label": "bool",
        "numberOfBytes": "1"
      },
      "t_bytes32": {
        "encoding": "inplace",
        "label": "bytes32",
        "numberOfBytes": "32"
      },
      "t_contract(NEND)24137": {
        "encoding": "inplace",
        "label": "contract NEND",
        "numberOfBytes": "20"
      },
      "t_contract(Vault)25234": {
        "encoding": "inplace",
        "label": "contract Vault",
        "numberOfBytes": "20"
      },
      "t_mapping(t_bytes32,t_array(t_struct(Vote)29878_storage)dyn_storage)": {
        "encoding": "mapping",
        "key": "t_bytes32",
        "label": "mapping(bytes32 => struct ICuration.Vote[])",
        "numberOfBytes": "32",
        "value": "t_array(t_struct(Vote)29878_storage)dyn_storage"
      },
      "t_mapping(t_bytes32,t_bool)": {
        "encoding": "mapping",
        "key": "t_bytes32",
        "label": "mapping(bytes32 => bool)",
        "numberOfBytes": "32",
        "value": "t_bool"
      },
      "t_mapping(t_bytes32,t_uint48)": {
        "encoding": "mapping",
        "key": "t_bytes32",
        "label": "mapping(bytes32 => uint48)",
        "numberOfBytes": "32",
        "value": "t_uint48"
      },
      "t_string_storage": {
        "encoding": "bytes",
        "label": "string",
        "numberOfBytes": "32"
      },
      "t_struct(Vote)29878_storage": {
        "encoding": "inplace",
        "label": "struct ICuration.Vote",
        "members": [
          {
            "astId": 29855,
            "contract": "contracts/voting/PeriFiCuration.sol:PeriFiCuration",
            "label": "accept",
            "offset": 0,
            "slot": "0",
            "type": "t_bool"
          },
          {
            "astId": 29857,
            "contract": "contracts/voting/PeriFiCuration.sol:PeriFiCuration",
            "label": "bet",
            "offset": 1,
            "slot": "0",
            "type": "t_bool"
          },
          {
            "astId": 29859,
            "contract": "contracts/voting/PeriFiCuration.sol:PeriFiCuration",
            "label": "leverageLending",
            "offset": 2,
            "slot": "0",
            "type": "t_bool"
          },
          {
            "astId": 29861,
            "contract": "contracts/voting/PeriFiCuration.sol:PeriFiCuration",
            "label": "vpcRedeemable",
            "offset": 3,
            "slot": "0",
            "type": "t_bool"
          },
          {
            "astId": 29863,
            "contract": "contracts/voting/PeriFiCuration.sol:PeriFiCuration",
            "label": "rewardsClaimed",
            "offset": 4,
            "slot": "0",
            "type": "t_bool"
          },
          {
            "astId": 29865,
            "contract": "contracts/voting/PeriFiCuration.sol:PeriFiCuration",
            "label": "loanAmount",
            "offset": 5,
            "slot": "0",
            "type": "t_uint8"
          },
          {
            "astId": 29867,
            "contract": "contracts/voting/PeriFiCuration.sol:PeriFiCuration",
            "label": "duration",
            "offset": 6,
            "slot": "0",
            "type": "t_uint8"
          },
          {
            "astId": 29869,
            "contract": "contracts/voting/PeriFiCuration.sol:PeriFiCuration",
            "label": "apr",
            "offset": 7,
            "slot": "0",
            "type": "t_uint8"
          },
          {
            "astId": 29871,
            "contract": "contracts/voting/PeriFiCuration.sol:PeriFiCuration",
            "label": "cardLevel",
            "offset": 8,
            "slot": "0",
            "type": "t_uint8"
          },
          {
            "astId": 29873,
            "contract": "contracts/voting/PeriFiCuration.sol:PeriFiCuration",
            "label": "cardId",
            "offset": 0,
            "slot": "1",
            "type": "t_uint256"
          },
          {
            "astId": 29875,
            "contract": "contracts/voting/PeriFiCuration.sol:PeriFiCuration",
            "label": "voteTime",
            "offset": 0,
            "slot": "2",
            "type": "t_uint48"
          },
          {
            "astId": 29877,
            "contract": "contracts/voting/PeriFiCuration.sol:PeriFiCuration",
            "label": "voter",
            "offset": 6,
            "slot": "2",
            "type": "t_address"
          }
        ],
        "numberOfBytes": "96"
      },
      "t_uint256": {
        "encoding": "inplace",
        "label": "uint256",
        "numberOfBytes": "32"
      },
      "t_uint48": {
        "encoding": "inplace",
        "label": "uint48",
        "numberOfBytes": "6"
      },
      "t_uint8": {
        "encoding": "inplace",
        "label": "uint8",
        "numberOfBytes": "1"
      }
    }
  }
}