{
  "address": "0xdB7AA8bB3c98b517C350d8442b96Cbf4cDEeEba5",
  "abi": [
    {
      "inputs": [],
      "stateMutability": "nonpayable",
      "type": "constructor"
    },
    {
      "anonymous": false,
      "inputs": [
        {
          "indexed": true,
          "internalType": "address",
          "name": "owner",
          "type": "address"
        },
        {
          "indexed": true,
          "internalType": "address",
          "name": "approved",
          "type": "address"
        },
        {
          "indexed": true,
          "internalType": "uint256",
          "name": "tokenId",
          "type": "uint256"
        }
      ],
      "name": "Approval",
      "type": "event"
    },
    {
      "anonymous": false,
      "inputs": [
        {
          "indexed": true,
          "internalType": "address",
          "name": "owner",
          "type": "address"
        },
        {
          "indexed": true,
          "internalType": "address",
          "name": "operator",
          "type": "address"
        },
        {
          "indexed": false,
          "internalType": "bool",
          "name": "approved",
          "type": "bool"
        }
      ],
      "name": "ApprovalForAll",
      "type": "event"
    },
    {
      "anonymous": false,
      "inputs": [
        {
          "indexed": true,
          "internalType": "address",
          "name": "previousOwner",
          "type": "address"
        },
        {
          "indexed": true,
          "internalType": "address",
          "name": "newOwner",
          "type": "address"
        }
      ],
      "name": "OwnershipTransferred",
      "type": "event"
    },
    {
      "anonymous": false,
      "inputs": [
        {
          "indexed": true,
          "internalType": "address",
          "name": "from",
          "type": "address"
        },
        {
          "indexed": true,
          "internalType": "address",
          "name": "to",
          "type": "address"
        },
        {
          "indexed": true,
          "internalType": "uint256",
          "name": "tokenId",
          "type": "uint256"
        }
      ],
      "name": "Transfer",
      "type": "event"
    },
    {
      "inputs": [
        {
          "internalType": "address",
          "name": "to",
          "type": "address"
        },
        {
          "internalType": "uint256",
          "name": "tokenId",
          "type": "uint256"
        }
      ],
      "name": "approve",
      "outputs": [],
      "stateMutability": "nonpayable",
      "type": "function"
    },
    {
      "inputs": [
        {
          "internalType": "address",
          "name": "operator",
          "type": "address"
        },
        {
          "internalType": "string",
          "name": "role",
          "type": "string"
        },
        {
          "internalType": "bool",
          "name": "authorized",
          "type": "bool"
        }
      ],
      "name": "authorize",
      "outputs": [],
      "stateMutability": "nonpayable",
      "type": "function"
    },
    {
      "inputs": [
        {
          "internalType": "address",
          "name": "owner",
          "type": "address"
        }
      ],
      "name": "balanceOf",
      "outputs": [
        {
          "internalType": "uint256",
          "name": "",
          "type": "uint256"
        }
      ],
      "stateMutability": "view",
      "type": "function"
    },
    {
      "inputs": [
        {
          "internalType": "uint256",
          "name": "tokenId",
          "type": "uint256"
        }
      ],
      "name": "burn",
      "outputs": [],
      "stateMutability": "nonpayable",
      "type": "function"
    },
    {
      "inputs": [
        {
          "internalType": "uint256",
          "name": "tokenId",
          "type": "uint256"
        }
      ],
      "name": "getApproved",
      "outputs": [
        {
          "internalType": "address",
          "name": "",
          "type": "address"
        }
      ],
      "stateMutability": "view",
      "type": "function"
    },
    {
      "inputs": [
        {
          "internalType": "address",
          "name": "",
          "type": "address"
        },
        {
          "internalType": "string",
          "name": "",
          "type": "string"
        }
      ],
      "name": "hasRole",
      "outputs": [
        {
          "internalType": "bool",
          "name": "",
          "type": "bool"
        }
      ],
      "stateMutability": "view",
      "type": "function"
    },
    {
      "inputs": [
        {
          "internalType": "address",
          "name": "owner",
          "type": "address"
        },
        {
          "internalType": "address",
          "name": "operator",
          "type": "address"
        }
      ],
      "name": "isApprovedForAll",
      "outputs": [
        {
          "internalType": "bool",
          "name": "",
          "type": "bool"
        }
      ],
      "stateMutability": "view",
      "type": "function"
    },
    {
      "inputs": [],
      "name": "name",
      "outputs": [
        {
          "internalType": "string",
          "name": "",
          "type": "string"
        }
      ],
      "stateMutability": "view",
      "type": "function"
    },
    {
      "inputs": [],
      "name": "owner",
      "outputs": [
        {
          "internalType": "address",
          "name": "",
          "type": "address"
        }
      ],
      "stateMutability": "view",
      "type": "function"
    },
    {
      "inputs": [
        {
          "internalType": "uint256",
          "name": "tokenId",
          "type": "uint256"
        }
      ],
      "name": "ownerOf",
      "outputs": [
        {
          "internalType": "address",
          "name": "",
          "type": "address"
        }
      ],
      "stateMutability": "view",
      "type": "function"
    },
    {
      "inputs": [],
      "name": "renounceOwnership",
      "outputs": [],
      "stateMutability": "nonpayable",
      "type": "function"
    },
    {
      "inputs": [
        {
          "internalType": "uint256",
          "name": "tokenId",
          "type": "uint256"
        }
      ],
      "name": "safeBurn",
      "outputs": [],
      "stateMutability": "nonpayable",
      "type": "function"
    },
    {
      "inputs": [
        {
          "internalType": "address",
          "name": "to",
          "type": "address"
        },
        {
          "internalType": "uint256",
          "name": "tokenId",
          "type": "uint256"
        }
      ],
      "name": "safeMint",
      "outputs": [],
      "stateMutability": "nonpayable",
      "type": "function"
    },
    {
      "inputs": [
        {
          "internalType": "address",
          "name": "from",
          "type": "address"
        },
        {
          "internalType": "address",
          "name": "to",
          "type": "address"
        },
        {
          "internalType": "uint256",
          "name": "tokenId",
          "type": "uint256"
        }
      ],
      "name": "safeTransferFrom",
      "outputs": [],
      "stateMutability": "nonpayable",
      "type": "function"
    },
    {
      "inputs": [
        {
          "internalType": "address",
          "name": "from",
          "type": "address"
        },
        {
          "internalType": "address",
          "name": "to",
          "type": "address"
        },
        {
          "internalType": "uint256",
          "name": "tokenId",
          "type": "uint256"
        },
        {
          "internalType": "bytes",
          "name": "_data",
          "type": "bytes"
        }
      ],
      "name": "safeTransferFrom",
      "outputs": [],
      "stateMutability": "nonpayable",
      "type": "function"
    },
    {
      "inputs": [
        {
          "internalType": "address",
          "name": "operator",
          "type": "address"
        },
        {
          "internalType": "bool",
          "name": "approved",
          "type": "bool"
        }
      ],
      "name": "setApprovalForAll",
      "outputs": [],
      "stateMutability": "nonpayable",
      "type": "function"
    },
    {
      "inputs": [
        {
          "internalType": "uint256",
          "name": "tokenId",
          "type": "uint256"
        },
        {
          "internalType": "string",
          "name": "uri",
          "type": "string"
        }
      ],
      "name": "setTokenURI",
      "outputs": [],
      "stateMutability": "nonpayable",
      "type": "function"
    },
    {
      "inputs": [
        {
          "internalType": "bytes4",
          "name": "interfaceId",
          "type": "bytes4"
        }
      ],
      "name": "supportsInterface",
      "outputs": [
        {
          "internalType": "bool",
          "name": "",
          "type": "bool"
        }
      ],
      "stateMutability": "view",
      "type": "function"
    },
    {
      "inputs": [],
      "name": "symbol",
      "outputs": [
        {
          "internalType": "string",
          "name": "",
          "type": "string"
        }
      ],
      "stateMutability": "view",
      "type": "function"
    },
    {
      "inputs": [
        {
          "internalType": "uint256",
          "name": "tokenId",
          "type": "uint256"
        }
      ],
      "name": "tokenURI",
      "outputs": [
        {
          "internalType": "string",
          "name": "",
          "type": "string"
        }
      ],
      "stateMutability": "view",
      "type": "function"
    },
    {
      "inputs": [
        {
          "internalType": "address",
          "name": "from",
          "type": "address"
        },
        {
          "internalType": "address",
          "name": "to",
          "type": "address"
        },
        {
          "internalType": "uint256",
          "name": "tokenId",
          "type": "uint256"
        }
      ],
      "name": "transferFrom",
      "outputs": [],
      "stateMutability": "nonpayable",
      "type": "function"
    },
    {
      "inputs": [
        {
          "internalType": "address",
          "name": "newOwner",
          "type": "address"
        }
      ],
      "name": "transferOwnership",
      "outputs": [],
      "stateMutability": "nonpayable",
      "type": "function"
    }
  ],
  "transactionHash": "0xda4ae1819bbc3b7981a384a2c0112779e27824c610f280ceb7964d91cb9d8457",
  "args": [],
  "numDeployments": 18,
  "solcInputHash": "e6a8509ab9edc0773d6a6bd4cf2732fa",
  "bytecode": "0x6080604052346200017a576200001462000196565b60207f506572694669204c6f616e2054727573742044656564000000000000000000008183015262000045620001cb565b6214151160ea1b8282015282519091906001600160401b0381116200016a575b6000916200007f8262000079855462000200565b6200023d565b80601f8311600114620000dc57508190620000b6958492620000d0575b50508160011b916000199060031b1c1916179055620002f1565b620000c0620003f3565b604051611f529081620004548239f35b0151905038806200009c565b600080529194601f1986167f290decd9548b62a8d60345a988386fc84ba6bc95484008f6362f93160ef3e5639385905b82821062000151575050916001939187620000b698941062000137575b505050811b019055620002f1565b015160001960f88460031b161c1916905538808062000129565b806001869782949787015181550196019401906200010c565b620001746200017f565b62000065565b600080fd5b50634e487b7160e01b600052604160045260246000fd5b60408051919082016001600160401b03811183821017620001bb575b60405260168252565b620001c56200017f565b620001b2565b60408051919082016001600160401b03811183821017620001f0575b60405260038252565b620001fa6200017f565b620001e7565b90600182811c9216801562000232575b60208310146200021c57565b634e487b7160e01b600052602260045260246000fd5b91607f169162000210565b601f81116200024a575050565b60009081805260208220906020601f850160051c830194106200028a575b601f0160051c01915b8281106200027e57505050565b81815560010162000271565b909250829062000268565b90601f8211620002a3575050565b60019160009083825260208220906020601f850160051c83019410620002e6575b601f0160051c01915b828110620002db5750505050565b8181558301620002cd565b9092508290620002c4565b80519091906001600160401b038111620003e3575b60019062000320816200031a845462000200565b62000295565b602080601f83116001146200035e57508192939460009262000352575b5050600019600383901b1c191690821b179055565b0151905038806200033d565b6001600052601f198316959091907fb10e2d527612073b26eecdfd717e6a320cf44b4afac2b0732d9fcbe2b7fa0cf6926000905b888210620003cb5750508385969710620003b1575b505050811b019055565b015160001960f88460031b161c19169055388080620003a7565b80878596829496860151815501950193019062000392565b620003ed6200017f565b62000306565b60078054732f358b80ed2d296c09560d2b9f70a7f81d57e3526001600160a01b0319821681179092556040516001600160a01b03909116907f8be0079c531659141344cd1fd0a4f28419497f9722a3daafe3b4186f6b6457e090600090a356fe60806040526004361015610013575b600080fd5b60003560e01c806301ffc9a7146101cb57806306fdde03146101c2578063081812fc146101b9578063095ea7b3146101b0578063162094c4146101a7578063217fe6c61461019e57806323b872dd1461019557806339d2525f1461018c57806342842e0e1461018357806342966c681461017a5780636352211e1461017157806370a0823114610168578063715018a61461015f5780638da5cb5b1461015657806395d89b411461014d578063a144819414610144578063a22cb4651461013b578063b88d4fde14610132578063c87b56dd14610129578063dbf5132514610120578063e985e9c5146101175763f2fde38b1461010f57600080fd5b61000e6110e8565b5061000e611085565b5061000e610f85565b5061000e610f51565b5061000e610ef0565b5061000e610e06565b5061000e610cb5565b5061000e610c0f565b5061000e610be7565b5061000e610b87565b5061000e610ae4565b5061000e610ac5565b5061000e610962565b5061000e610939565b5061000e6108a6565b5061000e61086d565b5061000e6107ad565b5061000e6105ea565b5061000e6103fa565b5061000e61039e565b5061000e6102c3565b5061000e6101e6565b6001600160e01b031981160361000e57565b503461000e57602036600319011261000e576020600435610206816101d4565b63ffffffff60e01b166380ac58cd60e01b8114908115610244575b8115610233575b506040519015158152f35b6301ffc9a760e01b14905038610228565b635b5e139f60e01b81149150610221565b918091926000905b82821061027557501161026e575050565b6000910152565b9150806020918301518186015201829161025d565b906020916102a381518092818552858086019101610255565b601f01601f1916010190565b9060206102c092818152019061028a565b90565b503461000e5760008060031936011261039b57604051908080546102e681611229565b8085529160019180831690811561037a5750600114610320575b61031c856103108187038261054b565b604051918291826102af565b0390f35b80809450527f290decd9548b62a8d60345a988386fc84ba6bc95484008f6362f93160ef3e5635b8284106103625750505081016020016103108261031c610300565b80546020858701810191909152909301928101610347565b60ff191660208701525050604084019250610310915083905061031c610300565b80fd5b503461000e57602036600319011261000e5760206103bd600435611377565b6001600160a01b0360405191168152f35b600435906001600160a01b038216820361000e57565b602435906001600160a01b038216820361000e57565b503461000e57604036600319011261000e576104146103ce565b602435610420816111b2565b916001600160a01b0380841680918316146104a0576104529361044d913314908115610454575b50611305565b61185c565b005b61049a91506104939061047b33916001600160a01b03166000526005602052604060002090565b906001600160a01b0316600052602052604060002090565b5460ff1690565b38610447565b60405162461bcd60e51b815260206004820152602160248201527f4552433732313a20617070726f76616c20746f2063757272656e74206f776e656044820152603960f91b6064820152608490fd5b50634e487b7160e01b600052604160045260246000fd5b6020810190811067ffffffffffffffff82111761052257604052565b61052a6104ef565b604052565b6040810190811067ffffffffffffffff82111761052257604052565b90601f8019910116810190811067ffffffffffffffff82111761052257604052565b60209067ffffffffffffffff811161058b575b601f01601f19160190565b6105936104ef565b610580565b9291926105a48261056d565b916105b2604051938461054b565b82948184528183011161000e578281602093846000960137010152565b9080601f8301121561000e578160206102c093359101610598565b503461000e57604036600319011261000e5767ffffffffffffffff60043560243582811161000e576106209036906004016105cf565b916106418260005260026020526001600160a01b0360406000205416151590565b1561072b576000918252602090600682526040832091845191821161071e575b6106758261066f8554611229565b85611b98565b80601f83116001146106b157508394829394926106a6575b50508160011b916000199060031b1c1916179055604051f35b01519050388061068d565b90601f198316956106c785600052602060002090565b9286905b888210610706575050836001959697106106ed575b505050811b019055604051f35b015160001960f88460031b161c191690553880806106e0565b806001859682949686015181550195019301906106cb565b6107266104ef565b610661565b60405162461bcd60e51b815260206004820152602e60248201527f45524337323155524953746f726167653a2055524920736574206f66206e6f6e60448201527f6578697374656e7420746f6b656e0000000000000000000000000000000000006064820152608490fd5b906107a960209282815194859201610255565b0190565b503461000e57604036600319011261000e576107c76103ce565b60243567ffffffffffffffff811161000e5761081b602061031c936001600160a01b036107fa60ff9536906004016105cf565b91166000526008825260406000208260405194838680955193849201610255565b820190815203019020546040519116151581529081906020820190565b606090600319011261000e576001600160a01b0390600435828116810361000e5791602435908116810361000e579060443590565b503461000e5761045261087f36610838565b9161089261088d8433611523565b611410565b6116dc565b60243590811515820361000e57565b503461000e57606036600319011261000e576108c06103ce565b60243567ffffffffffffffff811161000e576108e09036906004016105cf565b60443590811515820361000e57602061091f916001600160a01b0361045295166000526008825260406000208260405194838680955193849201610255565b8201908152030190209060ff801983541691151516179055565b503461000e5761045261094b36610838565b906040519261095984610506565b60008452611495565b503461000e57602036600319011261000e576004356109818133611523565b15610a5a576001600160a01b03610997826111b2565b6109a0836117f9565b16908060008381948252600360205260408220805460018110610a4d575b6000190190558282526002602052604082206001600160a01b031981541690557fddf252ad1be2c89b69c2b068fc378daa952ba7f163c4a11628f55a4df523b3ef82604051a4610a20610a1b826000526006602052604060002090565b611ec6565b610a2b575b50604051f35b610a42610a47916000526006602052604060002090565b611ed0565b38610a25565b610a55611673565b6109be565b60405162461bcd60e51b815260206004820152603060248201527f4552433732314275726e61626c653a2063616c6c6572206973206e6f74206f7760448201527f6e6572206e6f7220617070726f766564000000000000000000000000000000006064820152608490fd5b503461000e57602036600319011261000e5760206103bd6004356111b2565b503461000e57602036600319011261000e576001600160a01b03610b066103ce565b168015610b2f57600052600360205261031c604060002054604051918291829190602083019252565b60405162461bcd60e51b815260206004820152602a60248201527f4552433732313a2062616c616e636520717565727920666f7220746865207a65604482015269726f206164647265737360b01b6064820152608490fd5b503461000e5760008060031936011261039b57610ba2611abb565b6007546001600160a01b03198116600755816001600160a01b0360405192167f8be0079c531659141344cd1fd0a4f28419497f9722a3daafe3b4186f6b6457e08284a3f35b503461000e57600036600319011261000e5760206001600160a01b0360075416604051908152f35b503461000e5760008060031936011261039b5760405190806001805491610c3583611229565b8086529282811690811561037a5750600114610c5b5761031c856103108187038261054b565b92508083527fb10e2d527612073b26eecdfd717e6a320cf44b4afac2b0732d9fcbe2b7fa0cf65b828410610c9d5750505081016020016103108261031c610300565b80546020858701810191909152909301928101610c82565b503461000e57604036600319011261000e57610ccf6103ce565b602435610cda611b13565b50604051610ce781610506565b600081526001600160a01b038316918215610dc2576104529381610dbd94610d34610d2f610d2b8460005260026020526001600160a01b0360406000205416151590565b1590565b611b35565b610d51836001600160a01b03166000526003602052604060002090565b610d5b81546116a7565b9055610d9083610d75846000526002602052604060002090565b906001600160a01b03166001600160a01b0319825416179055565b60007fddf252ad1be2c89b69c2b068fc378daa952ba7f163c4a11628f55a4df523b3ef81604051a461196f565b6114bc565b606460405162461bcd60e51b815260206004820152602060248201527f4552433732313a206d696e7420746f20746865207a65726f20616464726573736044820152fd5b503461000e57604036600319011261000e57610e206103ce565b610e28610897565b6001600160a01b03821691823314610eab5781610e68610e79923360005260056020526040600020906001600160a01b0316600052602052604060002090565b9060ff801983541691151516179055565b604051901515815233907f17307eab39ab6107e8899845ad3d59bd9653f200f220920489ca2b5937696c3190602090a3005b60405162461bcd60e51b815260206004820152601960248201527f4552433732313a20617070726f766520746f2063616c6c6572000000000000006044820152606490fd5b503461000e57608036600319011261000e57610f0a6103ce565b610f126103e4565b6064359167ffffffffffffffff831161000e573660238401121561000e57610f47610452933690602481600401359101610598565b9160443591611495565b503461000e57602036600319011261000e5761031c610f71600435611bdd565b60405191829160208352602083019061028a565b503461000e57602036600319011261000e57600435610fa2611b13565b50610fc38160005260026020526001600160a01b0360406000205416151590565b610fc957005b806001600160a01b03610fdb826111b2565b610fe4836117f9565b16600090808252600360205260408220805460018110611078575b6000190190558282526002602052604082206001600160a01b031981541690557fddf252ad1be2c89b69c2b068fc378daa952ba7f163c4a11628f55a4df523b3ef82604051a461105c610a1b826000526006602052604060002090565b1561045257610a42610452916000526006602052604060002090565b611080611673565b610fff565b503461000e57604036600319011261000e57602060ff6110dc6110a66103ce565b6001600160a01b036110b66103e4565b9116600052600584526040600020906001600160a01b0316600052602052604060002090565b54166040519015158152f35b503461000e57602036600319011261000e576111026103ce565b61110a611abb565b6001600160a01b0380911690811561115e5760009160075491816001600160a01b031984161760075560405192167f8be0079c531659141344cd1fd0a4f28419497f9722a3daafe3b4186f6b6457e08484a3f35b60405162461bcd60e51b815260206004820152602660248201527f4f776e61626c653a206e6577206f776e657220697320746865207a65726f206160448201526564647265737360d01b6064820152608490fd5b60005260026020526001600160a01b036040600020541680156111d25790565b60405162461bcd60e51b815260206004820152602960248201527f4552433732313a206f776e657220717565727920666f72206e6f6e657869737460448201526832b73a103a37b5b2b760b91b6064820152608490fd5b90600182811c92168015611259575b602083101461124357565b634e487b7160e01b600052602260045260246000fd5b91607f1691611238565b906040519182600082549261127784611229565b9081845260019485811690816000146112e657506001146112a3575b50506112a19250038361054b565b565b9093915060005260209081600020936000915b8183106112ce5750506112a193508201013880611293565b855488840185015294850194879450918301916112b6565b9550505050505060ff191660208301526112a182604081013880611293565b1561130c57565b60405162461bcd60e51b815260206004820152603860248201527f4552433732313a20617070726f76652063616c6c6572206973206e6f74206f7760448201527f6e6572206e6f7220617070726f76656420666f7220616c6c00000000000000006064820152608490fd5b6113978160005260026020526001600160a01b0360406000205416151590565b156113b65760005260046020526001600160a01b036040600020541690565b60405162461bcd60e51b815260206004820152602c60248201527f4552433732313a20617070726f76656420717565727920666f72206e6f6e657860448201526b34b9ba32b73a103a37b5b2b760a11b6064820152608490fd5b1561141757565b60405162461bcd60e51b815260206004820152603160248201527f4552433732313a207472616e736665722063616c6c6572206973206e6f74206f60448201527f776e6572206e6f7220617070726f7665640000000000000000000000000000006064820152608490fd5b6040519061148f82610506565b60008252565b916112a19391610dbd936114ac61088d8433611523565b6114b78383836116dc565b611a77565b156114c357565b60405162461bcd60e51b815260206004820152603260248201527f4552433732313a207472616e7366657220746f206e6f6e20455243373231526560448201527131b2b4bb32b91034b6b83632b6b2b73a32b960711b6064820152608490fd5b6115438260005260026020526001600160a01b0360406000205416151590565b156115c157611551826111b2565b916001600160a01b0390818316928285168414948515611591575b5050831561157b575b50505090565b61158791929350611377565b1614388080611575565b60ff9295509061047b6115b7926001600160a01b03166000526005602052604060002090565b541692388061156c565b60405162461bcd60e51b815260206004820152602c60248201527f4552433732313a206f70657261746f7220717565727920666f72206e6f6e657860448201526b34b9ba32b73a103a37b5b2b760a11b6064820152608490fd5b1561162257565b60405162461bcd60e51b8152602060048201526024808201527f4552433732313a207472616e7366657220746f20746865207a65726f206164646044820152637265737360e01b6064820152608490fd5b50634e487b7160e01b600052601160045260246000fd5b6001811061169a575b6000190190565b6116a2611673565b611693565b60019060011981116116b7570190565b6107a9611673565b80196030116116cf575b60300190565b6116d7611673565b6116c9565b906116e6836111b2565b6001600160a01b0391829182851693849116036117a65761173461177d9282169461171286151561161b565b61171b876117f9565b6001600160a01b03166000526003602052604060002090565b61173e815461168a565b905561175d816001600160a01b03166000526003602052604060002090565b61176781546116a7565b9055610d75856000526002602052604060002090565b7fddf252ad1be2c89b69c2b068fc378daa952ba7f163c4a11628f55a4df523b3ef6000604051a4565b60405162461bcd60e51b815260206004820152602560248201527f4552433732313a207472616e736665722066726f6d20696e636f72726563742060448201526437bbb732b960d91b6064820152608490fd5b6000818152600460205260408120805473ffffffffffffffffffffffffffffffffffffffff191690556001600160a01b03611833836111b2565b167f8c5be1e5ebec7d5bd14f71427d1e84f3dd0314c0f7b2291e5b200ac8c7c3b92582604051a4565b6000828152600460205260409020805473ffffffffffffffffffffffffffffffffffffffff19166001600160a01b0383161790556001600160a01b03806118a2846111b2565b169116907f8c5be1e5ebec7d5bd14f71427d1e84f3dd0314c0f7b2291e5b200ac8c7c3b9256000604051a4565b9081602091031261000e57516102c0816101d4565b6102c093926001600160a01b03608093168252600060208301526040820152816060820152019061028a565b90926102c094936080936001600160a01b0380921684521660208301526040820152816060820152019061028a565b3d1561196a573d906119508261056d565b9161195e604051938461054b565b82523d6000602084013e565b606090565b909190803b15611a6f576119a96020916001600160a01b03936000604051958680958194630a85bd0160e11b9a8b845233600485016118e4565b0393165af160009181611a3f575b50611a31576119c461193f565b80519081611a2c5760405162461bcd60e51b815260206004820152603260248201527f4552433732313a207472616e7366657220746f206e6f6e20455243373231526560448201527131b2b4bb32b91034b6b83632b6b2b73a32b960711b6064820152608490fd5b602001fd5b6001600160e01b0319161490565b611a6191925060203d8111611a68575b611a59818361054b565b8101906118cf565b90386119b7565b503d611a4f565b505050600190565b92909190823b15611ab2576119a99260209260006001600160a01b03604051809781968295630a85bd0160e11b9b8c85523360048601611910565b50505050600190565b6001600160a01b03600754163303611acf57565b606460405162461bcd60e51b815260206004820152602060248201527f4f776e61626c653a2063616c6c6572206973206e6f7420746865206f776e65726044820152fd5b60405190611b208261052f565b600682526536b4b73a32b960d11b6020830152565b15611b3c57565b60405162461bcd60e51b815260206004820152601c60248201527f4552433732313a20746f6b656e20616c7265616479206d696e746564000000006044820152606490fd5b818110611b8c575050565b60008155600101611b81565b9190601f8111611ba757505050565b6112a1926000526020600020906020601f840160051c83019310611bd3575b601f0160051c0190611b81565b9091508190611bc6565b611bfd8160005260026020526001600160a01b0360406000205416151590565b15611c7457611c1e611c19826000526006602052604060002090565b611263565b90611c27611482565b805115611c6f578251611c3f57506102c09150611cdf565b6102c09150611c61611c5b936040519485936020850190610796565b90610796565b03601f19810183528261054b565b505090565b60405162461bcd60e51b815260206004820152603160248201527f45524337323155524953746f726167653a2055524920717565727920666f722060448201527f6e6f6e6578697374656e7420746f6b656e0000000000000000000000000000006064820152608490fd5b611cff8160005260026020526001600160a01b0360406000205416151590565b15611d4357611d0c611482565b805190919015611d3957611c5b91611c61611d296102c093611dd5565b6040519485936020850190610796565b50506102c0611482565b60405162461bcd60e51b815260206004820152602f60248201527f4552433732314d657461646174613a2055524920717565727920666f72206e6f60448201527f6e6578697374656e7420746f6b656e00000000000000000000000000000000006064820152608490fd5b908151811015611dbf570160200190565b634e487b7160e01b600052603260045260246000fd5b8015611ea857806000908282935b611e825750611df18361056d565b92611dff604051948561054b565b80845281601f19611e0f8361056d565b013660208701375b611e215750505090565b611e2a9061168a565b90600a90611e6d611e45611e3f8484066116bf565b60ff1690565b60f81b7fff000000000000000000000000000000000000000000000000000000000000001690565b841a611e798487611dae565b53049081611e17565b926001600a916000198114611e9b575b01930480611de3565b611ea3611673565b611e92565b50604051611eb58161052f565b60018152600360fc1b602082015290565b6102c09054611229565b611eda8154611229565b9081611ee4575050565b81601f60009311600114611ef6575055565b81835260208320611f1291601f0160051c810190600101611b81565b816020812091555556fea26469706673582212200a6b9b0f4a5f557e2acd520721f1dd2891ec84d54f34e7bb3913df6328f0b1de64736f6c634300080e0033",
  "devdoc": {
    "kind": "dev",
    "methods": {
      "approve(address,uint256)": {
        "details": "See {IERC721-approve}."
      },
      "balanceOf(address)": {
        "details": "See {IERC721-balanceOf}."
      },
      "burn(uint256)": {
        "details": "Burns `tokenId`. See {ERC721-_burn}. Requirements: - The caller must own `tokenId` or be an approved operator."
      },
      "getApproved(uint256)": {
        "details": "See {IERC721-getApproved}."
      },
      "isApprovedForAll(address,address)": {
        "details": "See {IERC721-isApprovedForAll}."
      },
      "name()": {
        "details": "See {IERC721Metadata-name}."
      },
      "owner()": {
        "details": "Returns the address of the current owner."
      },
      "ownerOf(uint256)": {
        "details": "See {IERC721-ownerOf}."
      },
      "renounceOwnership()": {
        "details": "Leaves the contract without owner. It will not be possible to call `onlyOwner` functions anymore. Can only be called by the current owner. NOTE: Renouncing ownership will leave the contract without an owner, thereby removing any functionality that is only available to the owner."
      },
      "safeTransferFrom(address,address,uint256)": {
        "details": "See {IERC721-safeTransferFrom}."
      },
      "safeTransferFrom(address,address,uint256,bytes)": {
        "details": "See {IERC721-safeTransferFrom}."
      },
      "setApprovalForAll(address,bool)": {
        "details": "See {IERC721-setApprovalForAll}."
      },
      "supportsInterface(bytes4)": {
        "details": "See {IERC165-supportsInterface}."
      },
      "symbol()": {
        "details": "See {IERC721Metadata-symbol}."
      },
      "transferFrom(address,address,uint256)": {
        "details": "See {IERC721-transferFrom}."
      },
      "transferOwnership(address)": {
        "details": "Transfers ownership of the contract to a new account (`newOwner`). Can only be called by the current owner."
      }
    },
    "version": 1
  },
  "userdoc": {
    "kind": "user",
    "methods": {},
    "version": 1
  },
  "storageLayout": {
    "storage": [
      {
        "astId": 5141,
        "contract": "contracts/loan/TrustDeed.sol:TrustDeed",
        "label": "_name",
        "offset": 0,
        "slot": "0",
        "type": "t_string_storage"
      },
      {
        "astId": 5143,
        "contract": "contracts/loan/TrustDeed.sol:TrustDeed",
        "label": "_symbol",
        "offset": 0,
        "slot": "1",
        "type": "t_string_storage"
      },
      {
        "astId": 5147,
        "contract": "contracts/loan/TrustDeed.sol:TrustDeed",
        "label": "_owners",
        "offset": 0,
        "slot": "2",
        "type": "t_mapping(t_uint256,t_address)"
      },
      {
        "astId": 5151,
        "contract": "contracts/loan/TrustDeed.sol:TrustDeed",
        "label": "_balances",
        "offset": 0,
        "slot": "3",
        "type": "t_mapping(t_address,t_uint256)"
      },
      {
        "astId": 5155,
        "contract": "contracts/loan/TrustDeed.sol:TrustDeed",
        "label": "_tokenApprovals",
        "offset": 0,
        "slot": "4",
        "type": "t_mapping(t_uint256,t_address)"
      },
      {
        "astId": 5161,
        "contract": "contracts/loan/TrustDeed.sol:TrustDeed",
        "label": "_operatorApprovals",
        "offset": 0,
        "slot": "5",
        "type": "t_mapping(t_address,t_mapping(t_address,t_bool))"
      },
      {
        "astId": 6158,
        "contract": "contracts/loan/TrustDeed.sol:TrustDeed",
        "label": "_tokenURIs",
        "offset": 0,
        "slot": "6",
        "type": "t_mapping(t_uint256,t_string_storage)"
      },
      {
        "astId": 8357,
        "contract": "contracts/loan/TrustDeed.sol:TrustDeed",
        "label": "_owner",
        "offset": 0,
        "slot": "7",
        "type": "t_address"
      },
      {
        "astId": 8472,
        "contract": "contracts/loan/TrustDeed.sol:TrustDeed",
        "label": "hasRole",
        "offset": 0,
        "slot": "8",
        "type": "t_mapping(t_address,t_mapping(t_string_memory_ptr,t_bool))"
      }
    ],
    "types": {
      "t_address": {
        "encoding": "inplace",
        "label": "address",
        "numberOfBytes": "20"
      },
      "t_bool": {
        "encoding": "inplace",
        "label": "bool",
        "numberOfBytes": "1"
      },
      "t_mapping(t_address,t_bool)": {
        "encoding": "mapping",
        "key": "t_address",
        "label": "mapping(address => bool)",
        "numberOfBytes": "32",
        "value": "t_bool"
      },
      "t_mapping(t_address,t_mapping(t_address,t_bool))": {
        "encoding": "mapping",
        "key": "t_address",
        "label": "mapping(address => mapping(address => bool))",
        "numberOfBytes": "32",
        "value": "t_mapping(t_address,t_bool)"
      },
      "t_mapping(t_address,t_mapping(t_string_memory_ptr,t_bool))": {
        "encoding": "mapping",
        "key": "t_address",
        "label": "mapping(address => mapping(string => bool))",
        "numberOfBytes": "32",
        "value": "t_mapping(t_string_memory_ptr,t_bool)"
      },
      "t_mapping(t_address,t_uint256)": {
        "encoding": "mapping",
        "key": "t_address",
        "label": "mapping(address => uint256)",
        "numberOfBytes": "32",
        "value": "t_uint256"
      },
      "t_mapping(t_string_memory_ptr,t_bool)": {
        "encoding": "mapping",
        "key": "t_string_memory_ptr",
        "label": "mapping(string => bool)",
        "numberOfBytes": "32",
        "value": "t_bool"
      },
      "t_mapping(t_uint256,t_address)": {
        "encoding": "mapping",
        "key": "t_uint256",
        "label": "mapping(uint256 => address)",
        "numberOfBytes": "32",
        "value": "t_address"
      },
      "t_mapping(t_uint256,t_string_storage)": {
        "encoding": "mapping",
        "key": "t_uint256",
        "label": "mapping(uint256 => string)",
        "numberOfBytes": "32",
        "value": "t_string_storage"
      },
      "t_string_memory_ptr": {
        "encoding": "bytes",
        "label": "string",
        "numberOfBytes": "32"
      },
      "t_string_storage": {
        "encoding": "bytes",
        "label": "string",
        "numberOfBytes": "32"
      },
      "t_uint256": {
        "encoding": "inplace",
        "label": "uint256",
        "numberOfBytes": "32"
      }
    }
  }
}