{
  "address": "0xA297E83487eC17193f2a41F1a53aDa1EF0544fdD",
  "abi": [
    {
      "inputs": [
        {
          "internalType": "string",
          "name": "name",
          "type": "string"
        }
      ],
      "stateMutability": "nonpayable",
      "type": "constructor"
    },
    {
      "inputs": [
        {
          "internalType": "uint256",
          "name": "loanId",
          "type": "uint256"
        }
      ],
      "name": "AlreadyLeveragedLoan",
      "type": "error"
    },
    {
      "inputs": [
        {
          "internalType": "uint256",
          "name": "loanId",
          "type": "uint256"
        },
        {
          "internalType": "uint256",
          "name": "balance",
          "type": "uint256"
        },
        {
          "internalType": "uint256",
          "name": "requested",
          "type": "uint256"
        }
      ],
      "name": "NotSufficientBalanceInPool",
      "type": "error"
    },
    {
      "anonymous": false,
      "inputs": [
        {
          "indexed": true,
          "internalType": "address",
          "name": "previousOwner",
          "type": "address"
        },
        {
          "indexed": true,
          "internalType": "address",
          "name": "newOwner",
          "type": "address"
        }
      ],
      "name": "OwnershipTransferred",
      "type": "event"
    },
    {
      "stateMutability": "payable",
      "type": "fallback"
    },
    {
      "inputs": [
        {
          "internalType": "address",
          "name": "_tokenAddress",
          "type": "address"
        },
        {
          "internalType": "address",
          "name": "_spender",
          "type": "address"
        },
        {
          "internalType": "uint256",
          "name": "_amount",
          "type": "uint256"
        }
      ],
      "name": "approveERC20Transfer",
      "outputs": [
        {
          "internalType": "bool",
          "name": "",
          "type": "bool"
        }
      ],
      "stateMutability": "nonpayable",
      "type": "function"
    },
    {
      "inputs": [
        {
          "internalType": "address",
          "name": "operator",
          "type": "address"
        },
        {
          "internalType": "string",
          "name": "role",
          "type": "string"
        },
        {
          "internalType": "bool",
          "name": "authorized",
          "type": "bool"
        }
      ],
      "name": "authorize",
      "outputs": [],
      "stateMutability": "nonpayable",
      "type": "function"
    },
    {
      "inputs": [
        {
          "internalType": "address",
          "name": "",
          "type": "address"
        }
      ],
      "name": "authorizedOperators",
      "outputs": [
        {
          "internalType": "bool",
          "name": "",
          "type": "bool"
        }
      ],
      "stateMutability": "view",
      "type": "function"
    },
    {
      "inputs": [
        {
          "internalType": "address",
          "name": "",
          "type": "address"
        }
      ],
      "name": "authorizedSpenders",
      "outputs": [
        {
          "internalType": "bool",
          "name": "",
          "type": "bool"
        }
      ],
      "stateMutability": "view",
      "type": "function"
    },
    {
      "inputs": [
        {
          "internalType": "address",
          "name": "_token",
          "type": "address"
        },
        {
          "internalType": "uint256",
          "name": "_amount",
          "type": "uint256"
        }
      ],
      "name": "burn",
      "outputs": [],
      "stateMutability": "nonpayable",
      "type": "function"
    },
    {
      "inputs": [
        {
          "internalType": "string",
          "name": "_name",
          "type": "string"
        },
        {
          "internalType": "address",
          "name": "_token",
          "type": "address"
        }
      ],
      "name": "getNamedBalance",
      "outputs": [
        {
          "internalType": "uint256",
          "name": "",
          "type": "uint256"
        }
      ],
      "stateMutability": "view",
      "type": "function"
    },
    {
      "inputs": [],
      "name": "getNativeBalance",
      "outputs": [
        {
          "internalType": "uint256",
          "name": "",
          "type": "uint256"
        }
      ],
      "stateMutability": "view",
      "type": "function"
    },
    {
      "inputs": [
        {
          "internalType": "address",
          "name": "",
          "type": "address"
        },
        {
          "internalType": "string",
          "name": "",
          "type": "string"
        }
      ],
      "name": "hasRole",
      "outputs": [
        {
          "internalType": "bool",
          "name": "",
          "type": "bool"
        }
      ],
      "stateMutability": "view",
      "type": "function"
    },
    {
      "inputs": [
        {
          "internalType": "uint256",
          "name": "loanId",
          "type": "uint256"
        },
        {
          "internalType": "address",
          "name": "paymentToken",
          "type": "address"
        },
        {
          "internalType": "uint256",
          "name": "leveragedAmount",
          "type": "uint256"
        },
        {
          "internalType": "address",
          "name": "borrower",
          "type": "address"
        }
      ],
      "name": "leverageLoan",
      "outputs": [],
      "stateMutability": "nonpayable",
      "type": "function"
    },
    {
      "inputs": [
        {
          "internalType": "uint256",
          "name": "",
          "type": "uint256"
        }
      ],
      "name": "leveragedLoan",
      "outputs": [
        {
          "internalType": "bool",
          "name": "",
          "type": "bool"
        }
      ],
      "stateMutability": "view",
      "type": "function"
    },
    {
      "inputs": [],
      "name": "loanAddress",
      "outputs": [
        {
          "internalType": "address",
          "name": "",
          "type": "address"
        }
      ],
      "stateMutability": "view",
      "type": "function"
    },
    {
      "inputs": [
        {
          "internalType": "uint256",
          "name": "",
          "type": "uint256"
        }
      ],
      "name": "loanToLeverage",
      "outputs": [
        {
          "internalType": "uint256",
          "name": "",
          "type": "uint256"
        }
      ],
      "stateMutability": "view",
      "type": "function"
    },
    {
      "inputs": [
        {
          "internalType": "uint256",
          "name": "",
          "type": "uint256"
        }
      ],
      "name": "loanToPoolUsageInBasisPoint",
      "outputs": [
        {
          "internalType": "uint256",
          "name": "",
          "type": "uint256"
        }
      ],
      "stateMutability": "view",
      "type": "function"
    },
    {
      "inputs": [],
      "name": "name",
      "outputs": [
        {
          "internalType": "string",
          "name": "",
          "type": "string"
        }
      ],
      "stateMutability": "view",
      "type": "function"
    },
    {
      "inputs": [
        {
          "internalType": "string",
          "name": "_name",
          "type": "string"
        },
        {
          "internalType": "address",
          "name": "_token",
          "type": "address"
        },
        {
          "internalType": "uint256",
          "name": "_amount",
          "type": "uint256"
        }
      ],
      "name": "namedBalanceReceive",
      "outputs": [],
      "stateMutability": "nonpayable",
      "type": "function"
    },
    {
      "inputs": [
        {
          "internalType": "string",
          "name": "_name",
          "type": "string"
        },
        {
          "internalType": "address",
          "name": "_token",
          "type": "address"
        },
        {
          "internalType": "uint256",
          "name": "_amount",
          "type": "uint256"
        }
      ],
      "name": "namedBalanceSpend",
      "outputs": [],
      "stateMutability": "nonpayable",
      "type": "function"
    },
    {
      "inputs": [
        {
          "internalType": "string",
          "name": "",
          "type": "string"
        },
        {
          "internalType": "address",
          "name": "",
          "type": "address"
        }
      ],
      "name": "namedBalances",
      "outputs": [
        {
          "internalType": "uint256",
          "name": "",
          "type": "uint256"
        }
      ],
      "stateMutability": "view",
      "type": "function"
    },
    {
      "inputs": [],
      "name": "owner",
      "outputs": [
        {
          "internalType": "address",
          "name": "",
          "type": "address"
        }
      ],
      "stateMutability": "view",
      "type": "function"
    },
    {
      "inputs": [],
      "name": "renounceOwnership",
      "outputs": [],
      "stateMutability": "nonpayable",
      "type": "function"
    },
    {
      "inputs": [
        {
          "internalType": "address",
          "name": "_tokenAddress",
          "type": "address"
        },
        {
          "internalType": "address",
          "name": "_operator",
          "type": "address"
        },
        {
          "internalType": "bool",
          "name": "_approved",
          "type": "bool"
        }
      ],
      "name": "setERC1155ApprovalForAll",
      "outputs": [],
      "stateMutability": "nonpayable",
      "type": "function"
    },
    {
      "inputs": [
        {
          "internalType": "address",
          "name": "_tokenAddress",
          "type": "address"
        },
        {
          "internalType": "address",
          "name": "_operator",
          "type": "address"
        },
        {
          "internalType": "bool",
          "name": "_approved",
          "type": "bool"
        }
      ],
      "name": "setERC721ApprovalForAll",
      "outputs": [],
      "stateMutability": "nonpayable",
      "type": "function"
    },
    {
      "inputs": [
        {
          "internalType": "address",
          "name": "_tokenAddress",
          "type": "address"
        },
        {
          "internalType": "address",
          "name": "_to",
          "type": "address"
        },
        {
          "internalType": "uint256",
          "name": "_id",
          "type": "uint256"
        },
        {
          "internalType": "uint256",
          "name": "_value",
          "type": "uint256"
        },
        {
          "internalType": "bytes",
          "name": "_data",
          "type": "bytes"
        }
      ],
      "name": "transferERC1155",
      "outputs": [],
      "stateMutability": "nonpayable",
      "type": "function"
    },
    {
      "inputs": [
        {
          "internalType": "address",
          "name": "_tokenAddress",
          "type": "address"
        },
        {
          "internalType": "address",
          "name": "_to",
          "type": "address"
        },
        {
          "internalType": "uint256[]",
          "name": "_ids",
          "type": "uint256[]"
        },
        {
          "internalType": "uint256[]",
          "name": "_values",
          "type": "uint256[]"
        },
        {
          "internalType": "bytes",
          "name": "_data",
          "type": "bytes"
        }
      ],
      "name": "transferERC1155Batch",
      "outputs": [],
      "stateMutability": "nonpayable",
      "type": "function"
    },
    {
      "inputs": [
        {
          "internalType": "address",
          "name": "_tokenAddress",
          "type": "address"
        },
        {
          "internalType": "address",
          "name": "_to",
          "type": "address"
        },
        {
          "internalType": "uint256",
          "name": "_amount",
          "type": "uint256"
        }
      ],
      "name": "transferERC20",
      "outputs": [
        {
          "internalType": "bool",
          "name": "",
          "type": "bool"
        }
      ],
      "stateMutability": "nonpayable",
      "type": "function"
    },
    {
      "inputs": [
        {
          "internalType": "address",
          "name": "_tokenAddress",
          "type": "address"
        },
        {
          "internalType": "address",
          "name": "_to",
          "type": "address"
        },
        {
          "internalType": "uint256",
          "name": "_tokenId",
          "type": "uint256"
        }
      ],
      "name": "transferERC721",
      "outputs": [],
      "stateMutability": "nonpayable",
      "type": "function"
    },
    {
      "inputs": [
        {
          "internalType": "address payable",
          "name": "_to",
          "type": "address"
        },
        {
          "internalType": "uint256",
          "name": "_amount",
          "type": "uint256"
        }
      ],
      "name": "transferNative",
      "outputs": [],
      "stateMutability": "payable",
      "type": "function"
    },
    {
      "inputs": [
        {
          "internalType": "address",
          "name": "newOwner",
          "type": "address"
        }
      ],
      "name": "transferOwnership",
      "outputs": [],
      "stateMutability": "nonpayable",
      "type": "function"
    },
    {
      "stateMutability": "payable",
      "type": "receive"
    }
  ],
  "transactionHash": "0x691716bc677c8f48576eb8ef0c37a26e9302e92dcd216bcb1d67e5f626236454",
  "args": [
    "Lending Pool"
  ],
  "numDeployments": 16,
  "solcInputHash": "c5e71408ecb18975ec28703c12c6624e",
  "bytecode": "0x608060405234620000d55762002230803803806200001d8162000101565b92833981016020918281830312620000d55780516001600160401b0391828211620000d557019282601f85011215620000d5578351918211620000da575b6200006f601f8301601f1916820162000101565b92828452818386010111620000d5576000935b828510620000bf575081620000a09411620000b0575b505062000136565b604051611ee290816200034e8239f35b60009183010152388062000098565b8481018201518486018301529381019362000082565b600080fd5b620000e4620000ea565b6200005b565b50634e487b7160e01b600052604160045260246000fd5b6040519190601f01601f191682016001600160401b038111838210176200012757604052565b62000131620000ea565b604052565b60008054732f358b80ed2d296c09560d2b9f70a7f81d57e3526001600160a01b031982168117835560405193949390916001600160a01b0316907f8be0079c531659141344cd1fd0a4f28419497f9722a3daafe3b4186f6b6457e0908490a36002805463ffffffff191663d9b67a261790558251906001600160401b038211620002a7575b620001d382620001cd600354620002b7565b620002f4565b6020938491601f84116001146200021e57839495509262000212575b50508160011b916000199060031b1c1916176003555b620002106001600755565b565b015190503880620001ef565b6003600052601f198416957fc2575a0e9e593c00f959f8c92f12db2869c3395a3b0502d05e2516446f71f85b939291905b8782106200028e57505083600195961062000274575b505050811b0160035562000205565b015160001960f88460031b161c1916905538808062000265565b806001859682949686015181550195019301906200024f565b620002b1620000ea565b620001bb565b90600182811c92168015620002e9575b6020831014620002d357565b634e487b7160e01b600052602260045260246000fd5b91607f1691620002c7565b601f811162000301575050565b6000906003825260208220906020601f850160051c8301941062000342575b601f0160051c01915b8281106200033657505050565b81815560010162000329565b90925082906200032056fe60806040526004361015610018575b361561001657005b005b60003560e01c80630530fa211461023457806306fdde031461022b5780630e68026614610222578063181d989b146102195780631aca637614610210578063217fe6c61461020757806334c23b5c146101fe57806335bc868a146101f557806339d2525f146101ec57806347ae6cc6146101e35780636c49e021146101da5780636d3005e3146101d1578063715018a6146101c857806379d35e02146101bf5780637bfabc83146101b65780637d2e90c2146101ad57806388a9d554146101a45780638b3ed9661461019b5780638da5cb5b146101925780639db5dbe4146101895780639dc29fac14610180578063ce2620c114610177578063d2454e8d1461016e578063dbecc61614610165578063e52ca9611461015c578063e7b7e8b4146101535763f2fde38b0361000e5761014e6116de565b61000e565b5061014e611635565b5061014e61155e565b5061014e611459565b5061014e6113bc565b5061014e6112e7565b5061014e61121a565b5061014e61118b565b5061014e611138565b5061014e6110d3565b5061014e611098565b5061014e610fa1565b5061014e610f5e565b5061014e610f13565b5061014e610e72565b5061014e610d99565b5061014e610ce5565b5061014e610b15565b5061014e6109fb565b5061014e61099e565b5061014e610953565b5061014e6108b9565b5061014e6107cd565b5061014e610714565b5061014e6106c4565b5061014e61056b565b5061014e6103db565b507f4e487b7100000000000000000000000000000000000000000000000000000000600052604160045260246000fd5b67ffffffffffffffff811161028157604052565b61028961023d565b604052565b90601f7fffffffffffffffffffffffffffffffffffffffffffffffffffffffffffffffe0910116810190811067ffffffffffffffff82111761028157604052565b7fffffffffffffffffffffffffffffffffffffffffffffffffffffffffffffffe0601f60209267ffffffffffffffff811161030b575b01160190565b61031361023d565b610305565b81601f8201121561035f5780359061032f826102cf565b9261033d604051948561028e565b8284526020838301011161035f57816000926020809301838601378301015290565b600080fd5b73ffffffffffffffffffffffffffffffffffffffff81160361035f57565b60407ffffffffffffffffffffffffffffffffffffffffffffffffffffffffffffffffc82011261035f576004359067ffffffffffffffff821161035f576103cb91600401610318565b906024356103d881610364565b90565b503461035f5761049b6103fb6104206103f336610382565b92839161086d565b9073ffffffffffffffffffffffffffffffffffffffff16600052602052604060002090565b546040517f70a0823100000000000000000000000000000000000000000000000000000000815230600482015290916020908290602490829073ffffffffffffffffffffffffffffffffffffffff165afa9081156104d4575b6000916104a6575b5080821161049f57505b6040519081529081906020820190565b0390f35b905061048b565b6104c7915060203d81116104cd575b6104bf818361028e565b8101906118f4565b38610481565b503d6104b5565b6104dc611903565b610479565b600091031261035f57565b918091926000905b82821061050c575011610505575050565b6000910152565b915080602091830151818601520182916104f4565b7fffffffffffffffffffffffffffffffffffffffffffffffffffffffffffffffe0601f6040936020845261056481518092816020880152602088880191016104ec565b0116010190565b503461035f576000807ffffffffffffffffffffffffffffffffffffffffffffffffffffffffffffffffc3601126106c15760405190806003549060019180831c928082169283156106b7575b602092838610851461068a57858852602088019490811561065057506001146105f7575b61049b876105eb8189038261028e565b60405191829182610521565b600360005294509192917fc2575a0e9e593c00f959f8c92f12db2869c3395a3b0502d05e2516446f71f85b5b83861061063f57505050910190506105eb8261049b38806105db565b805485870152948201948101610623565b7fffffffffffffffffffffffffffffffffffffffffffffffffffffffffffffff001685525050500191506105eb90508261049b38806105db565b6024827f4e487b710000000000000000000000000000000000000000000000000000000081526022600452fd5b93607f16936105b7565b80fd5b503461035f5760207ffffffffffffffffffffffffffffffffffffffffffffffffffffffffffffffffc36011261035f576004356000526009602052602060ff604060002054166040519015158152f35b503461035f5760207ffffffffffffffffffffffffffffffffffffffffffffffffffffffffffffffffc36011261035f5773ffffffffffffffffffffffffffffffffffffffff60043561076581610364565b166000526004602052602060ff604060002054166040519015158152f35b7ffffffffffffffffffffffffffffffffffffffffffffffffffffffffffffffffc606091011261035f576004356107b981610364565b906024356107c681610364565b9060443590565b503461035f576107dc36610783565b916107e561189c565b5073ffffffffffffffffffffffffffffffffffffffff809116803b1561035f576000928360649260405196879586947f23b872dd00000000000000000000000000000000000000000000000000000000865230600487015216602485015260448401525af18015610860575b61085757005b6100169061026d565b610868611903565b610851565b60206108869181604051938285809451938492016104ec565b8101600681520301902090565b6020906108ad9282604051948386809551938492016104ec565b82019081520301902090565b503461035f5760407ffffffffffffffffffffffffffffffffffffffffffffffffffffffffffffffffc36011261035f576004356108f581610364565b6024359067ffffffffffffffff821161035f5761094760ff9173ffffffffffffffffffffffffffffffffffffffff6109336020953690600401610318565b911660005260018452604060002090610893565b54166040519015158152f35b503461035f5760207ffffffffffffffffffffffffffffffffffffffffffffffffffffffffffffffffc36011261035f57600435600052600a6020526020604060002054604051908152f35b503461035f5760007ffffffffffffffffffffffffffffffffffffffffffffffffffffffffffffffffc36011261035f57602073ffffffffffffffffffffffffffffffffffffffff60085416604051908152f35b8015150361035f57565b503461035f5760607ffffffffffffffffffffffffffffffffffffffffffffffffffffffffffffffffc36011261035f57600435610a3781610364565b60243567ffffffffffffffff811161035f57610a5a610a90913690600401610318565b73ffffffffffffffffffffffffffffffffffffffff60443593610a7c856109f1565b166000526001602052604060002090610893565b9060ff7fffffffffffffffffffffffffffffffffffffffffffffffffffffffffffffff00835416911515161790556000604051f35b7ffffffffffffffffffffffffffffffffffffffffffffffffffffffffffffffffc606091011261035f57600435610afb81610364565b90602435610b0881610364565b906044356103d8816109f1565b503461035f5773ffffffffffffffffffffffffffffffffffffffff610b3936610ac5565b929091610b4461189c565b501691610bd1610bb66020610b5b60025460e01b90565b6040517f01ffc9a70000000000000000000000000000000000000000000000000000000081527fffffffff00000000000000000000000000000000000000000000000000000000909116600482015291829081906024820190565b0381885afa908115610c8f575b600091610c61575b50611c39565b823b1561035f576040517fa22cb46500000000000000000000000000000000000000000000000000000000815273ffffffffffffffffffffffffffffffffffffffff909216600483015215156024820152906000908290818381604481015b03925af18015610c54575b610c4157005b80610c4e6100169261026d565b806104e1565b610c5c611903565b610c3b565b610c82915060203d8111610c88575b610c7a818361028e565b810190611910565b38610bcb565b503d610c70565b610c97611903565b610bc3565b60607ffffffffffffffffffffffffffffffffffffffffffffffffffffffffffffffffc82011261035f576004359067ffffffffffffffff821161035f576107b991600401610318565b503461035f57610cf436610c9c565b9190610cfe61189c565b5082610d0d826103fb8561086d565b5410610d3b576103fb610d1f9261086d565b908154818110610d2e57039055005b610d36611925565b039055005b60646040517f08c379a000000000000000000000000000000000000000000000000000000000815260206004820152601460248201527f496e73756666696369656e742062616c616e63650000000000000000000000006044820152fd5b503461035f576020610e2881610dae36610783565b9190610db861189c565b50600073ffffffffffffffffffffffffffffffffffffffff6040518097819682957f095ea7b3000000000000000000000000000000000000000000000000000000008452600484016020909392919373ffffffffffffffffffffffffffffffffffffffff60408201951681520152565b0393165af1908115610e65575b600091610e48575b506040519015158152f35b610e5f9150823d8111610c8857610c7a818361028e565b38610e3d565b610e6d611903565b610e35565b503461035f576000807ffffffffffffffffffffffffffffffffffffffffffffffffffffffffffffffffc3601126106c157610eab61181d565b80547fffffffffffffffffffffffff0000000000000000000000000000000000000000811682558173ffffffffffffffffffffffffffffffffffffffff60405192167f8be0079c531659141344cd1fd0a4f28419497f9722a3daafe3b4186f6b6457e08284a3f35b503461035f5760207ffffffffffffffffffffffffffffffffffffffffffffffffffffffffffffffffc36011261035f57600435600052600b6020526020604060002054604051908152f35b503461035f576103fb610f84610f7336610c9c565b939091610f7e61189c565b5061086d565b90815481198111610f9457019055005b610f9c611925565b019055005b5060407ffffffffffffffffffffffffffffffffffffffffffffffffffffffffffffffffc36011261035f5760008080600435610fdc81610364565b610fe461189c565b506040519073ffffffffffffffffffffffffffffffffffffffff60243591165af13d15611093573d611015816102cf565b90611023604051928361028e565b8152600060203d92013e5b1561103557005b60646040517f08c379a000000000000000000000000000000000000000000000000000000000815260206004820152601460248201527f4661696c656420746f2073656e642045746865720000000000000000000000006044820152fd5b61102e565b503461035f5760007ffffffffffffffffffffffffffffffffffffffffffffffffffffffffffffffffc36011261035f57602047604051908152f35b503461035f57602061112f816111006110eb36610382565b929081604051938285809451938492016104ec565b810160068152030190209073ffffffffffffffffffffffffffffffffffffffff16600052602052604060002090565b54604051908152f35b503461035f5760007ffffffffffffffffffffffffffffffffffffffffffffffffffffffffffffffffc36011261035f57602073ffffffffffffffffffffffffffffffffffffffff60005416604051908152f35b503461035f576020610e28816111a036610783565b91906111aa61189c565b50600073ffffffffffffffffffffffffffffffffffffffff6040518097819682957fa9059cbb000000000000000000000000000000000000000000000000000000008452600484016020909392919373ffffffffffffffffffffffffffffffffffffffff60408201951681520152565b503461035f57600060407ffffffffffffffffffffffffffffffffffffffffffffffffffffffffffffffffc3601126106c1578073ffffffffffffffffffffffffffffffffffffffff60043561126e81610364565b61127661189c565b5016803b156112e45781906024604051809481937f42966c68000000000000000000000000000000000000000000000000000000008352833560048401525af180156112d7575b6112c8575b50604051f35b6112d19061026d565b386112c2565b6112df611903565b6112bd565b50fd5b503461035f5760807ffffffffffffffffffffffffffffffffffffffffffffffffffffffffffffffffc36011261035f5760243561132381610364565b60643561132f81610364565b60026007541461135e5761135791600260075561134a61189c565b50604435906004356119cf565b6001600755005b60646040517f08c379a000000000000000000000000000000000000000000000000000000000815260206004820152601f60248201527f5265656e7472616e637947756172643a207265656e7472616e742063616c6c006044820152fd5b503461035f5760207ffffffffffffffffffffffffffffffffffffffffffffffffffffffffffffffffc36011261035f5773ffffffffffffffffffffffffffffffffffffffff60043561140d81610364565b166000526005602052602060ff604060002054166040519015158152f35b9181601f8401121561035f5782359167ffffffffffffffff831161035f576020838186019501011161035f57565b503461035f5760a07ffffffffffffffffffffffffffffffffffffffffffffffffffffffffffffffffc36011261035f5760043561149581610364565b6024356114a181610364565b60843567ffffffffffffffff811161035f576114d673ffffffffffffffffffffffffffffffffffffffff91369060040161142b565b9190936114e161189c565b50166115106114f76020610b5b60025460e01b90565b0381865afa908115610c8f57600091610c615750611c39565b803b1561035f57610c309360008094604051968795869485937ff242432a00000000000000000000000000000000000000000000000000000000855260643590604435903060048801611d03565b503461035f5773ffffffffffffffffffffffffffffffffffffffff61158236610ac5565b9161158e93919361189c565b501690813b1561035f576040517fa22cb46500000000000000000000000000000000000000000000000000000000815273ffffffffffffffffffffffffffffffffffffffff939093166004840152151560248301526000919082908290604490829084905af180156112d7576112c85750604051f35b9181601f8401121561035f5782359167ffffffffffffffff831161035f576020808501948460051b01011161035f57565b503461035f5760a07ffffffffffffffffffffffffffffffffffffffffffffffffffffffffffffffffc36011261035f5760043561167181610364565b60243561167d81610364565b67ffffffffffffffff9160443583811161035f5761169f903690600401611604565b9060643585811161035f576116b8903690600401611604565b92909160843596871161035f576116d661001697369060040161142b565b969095611d45565b503461035f5760207ffffffffffffffffffffffffffffffffffffffffffffffffffffffffffffffffc36011261035f5760043561171a81610364565b61172261181d565b73ffffffffffffffffffffffffffffffffffffffff80911690811561179957600091825491817fffffffffffffffffffffffff0000000000000000000000000000000000000000841617845560405192167f8be0079c531659141344cd1fd0a4f28419497f9722a3daafe3b4186f6b6457e08484a3f35b60846040517f08c379a000000000000000000000000000000000000000000000000000000000815260206004820152602660248201527f4f776e61626c653a206e6577206f776e657220697320746865207a65726f206160448201527f64647265737300000000000000000000000000000000000000000000000000006064820152fd5b73ffffffffffffffffffffffffffffffffffffffff60005416330361183e57565b60646040517f08c379a000000000000000000000000000000000000000000000000000000000815260206004820152602060248201527f4f776e61626c653a2063616c6c6572206973206e6f7420746865206f776e65726044820152fd5b604051906040820182811067ffffffffffffffff8211176118e7575b604052600782527f7370656e646572000000000000000000000000000000000000000000000000006020830152565b6118ef61023d565b6118b8565b9081602091031261035f575190565b506040513d6000823e3d90fd5b9081602091031261035f57516103d8816109f1565b507f4e487b7100000000000000000000000000000000000000000000000000000000600052601160045260246000fd5b61271090807fffffffffffffffffffffffffffffffffffffffffffffffffffffffffffffffff0482118115151661198a570290565b611992611925565b0290565b81156119a0570490565b7f4e487b7100000000000000000000000000000000000000000000000000000000600052601260045260246000fd5b92906119ef6119e8856000526009602052604060002090565b5460ff1690565b611c07578215611bed576040517f70a082310000000000000000000000000000000000000000000000000000000081523060048201529160209173ffffffffffffffffffffffffffffffffffffffff16908284602481855afa938415611be0575b600094611bc1575b50848410611b81579282611ace8694611b2997611aee95611b549a9860006040518096819582947fa9059cbb000000000000000000000000000000000000000000000000000000008452600484016020909392919373ffffffffffffffffffffffffffffffffffffffff60408201951681520152565b03925af18015611b74575b611b56575b5050611ae983611955565b611996565b90611b0383600052600a602052604060002090565b55611b1882600052600b602052604060002090565b556000526009602052604060002090565b60017fffffffffffffffffffffffffffffffffffffffffffffffffffffffffffffff00825416179055565b565b81611b6c92903d10610c8857610c7a818361028e565b503880611ade565b611b7c611903565b611ad9565b6040517f8e46d543000000000000000000000000000000000000000000000000000000008152600481018790526024810185905260448101869052606490fd5b611bd9919450833d85116104cd576104bf818361028e565b9238611a58565b611be8611903565b611a50565b505050611b29611b54916000526009602052604060002090565b6040517fdd4cfe8300000000000000000000000000000000000000000000000000000000815260048101859052602490fd5b15611c4057565b60846040517f08c379a000000000000000000000000000000000000000000000000000000000815260206004820152602b60248201527f676976656e20746f6b656e206164647265737320646f65736e2774207375707060448201527f6f727420455243313135350000000000000000000000000000000000000000006064820152fd5b601f82602094937fffffffffffffffffffffffffffffffffffffffffffffffffffffffffffffffe0938186528686013760008582860101520116010190565b91926103d896949160a09473ffffffffffffffffffffffffffffffffffffffff8092168552166020840152604083015260608201528160808201520191611cc4565b73ffffffffffffffffffffffffffffffffffffffff9097969293959497611d6a61189c565b501693611d9a611d816020610b5b60025460e01b90565b03818a5afa908115610c8f57600091610c615750611c39565b843b1561035f576000968793611de1926040519a8b998a9889977f2eb2c2d60000000000000000000000000000000000000000000000000000000089523060048a01611e4e565b03925af18015611e00575b611df35750565b80610c4e611b549261026d565b611e08611903565b611dec565b90918281527f07ffffffffffffffffffffffffffffffffffffffffffffffffffffffffffffff831161035f5760209260051b80928483013701016000815290565b969492611e9e94611e90926103d89a989473ffffffffffffffffffffffffffffffffffffffff8092168b521660208a015260a060408a015260a0890191611e0d565b918683036060880152611e0d565b926080818503910152611cc456fea2646970667358221220a95a845c063e78ac45cbd2b60608077f266115f2d57259a3920f9e63c0870eb864736f6c634300080e0033"
}