{
  "address": "0x8e44baC653eff06f0231dF3b7325E4Fed2988392",
  "abi": [
    {
      "inputs": [
        {
          "internalType": "string",
          "name": "_name",
          "type": "string"
        }
      ],
      "stateMutability": "nonpayable",
      "type": "constructor"
    },
    {
      "anonymous": false,
      "inputs": [
        {
          "indexed": true,
          "internalType": "address",
          "name": "previousOwner",
          "type": "address"
        },
        {
          "indexed": true,
          "internalType": "address",
          "name": "newOwner",
          "type": "address"
        }
      ],
      "name": "OwnershipTransferred",
      "type": "event"
    },
    {
      "stateMutability": "payable",
      "type": "fallback"
    },
    {
      "inputs": [
        {
          "internalType": "address",
          "name": "_tokenAddress",
          "type": "address"
        },
        {
          "internalType": "address",
          "name": "_spender",
          "type": "address"
        },
        {
          "internalType": "uint256",
          "name": "_amount",
          "type": "uint256"
        }
      ],
      "name": "approveERC20Transfer",
      "outputs": [
        {
          "internalType": "bool",
          "name": "",
          "type": "bool"
        }
      ],
      "stateMutability": "nonpayable",
      "type": "function"
    },
    {
      "inputs": [
        {
          "internalType": "address",
          "name": "operator",
          "type": "address"
        },
        {
          "internalType": "string",
          "name": "role",
          "type": "string"
        },
        {
          "internalType": "bool",
          "name": "authorized",
          "type": "bool"
        }
      ],
      "name": "authorize",
      "outputs": [],
      "stateMutability": "nonpayable",
      "type": "function"
    },
    {
      "inputs": [
        {
          "internalType": "address",
          "name": "",
          "type": "address"
        }
      ],
      "name": "authorizedOperators",
      "outputs": [
        {
          "internalType": "bool",
          "name": "",
          "type": "bool"
        }
      ],
      "stateMutability": "view",
      "type": "function"
    },
    {
      "inputs": [
        {
          "internalType": "address",
          "name": "",
          "type": "address"
        }
      ],
      "name": "authorizedSpenders",
      "outputs": [
        {
          "internalType": "bool",
          "name": "",
          "type": "bool"
        }
      ],
      "stateMutability": "view",
      "type": "function"
    },
    {
      "inputs": [
        {
          "internalType": "string",
          "name": "_name",
          "type": "string"
        },
        {
          "internalType": "address",
          "name": "_token",
          "type": "address"
        }
      ],
      "name": "getNamedBalance",
      "outputs": [
        {
          "internalType": "uint256",
          "name": "",
          "type": "uint256"
        }
      ],
      "stateMutability": "view",
      "type": "function"
    },
    {
      "inputs": [],
      "name": "getNativeBalance",
      "outputs": [
        {
          "internalType": "uint256",
          "name": "",
          "type": "uint256"
        }
      ],
      "stateMutability": "view",
      "type": "function"
    },
    {
      "inputs": [
        {
          "internalType": "address",
          "name": "",
          "type": "address"
        },
        {
          "internalType": "string",
          "name": "",
          "type": "string"
        }
      ],
      "name": "hasRole",
      "outputs": [
        {
          "internalType": "bool",
          "name": "",
          "type": "bool"
        }
      ],
      "stateMutability": "view",
      "type": "function"
    },
    {
      "inputs": [],
      "name": "name",
      "outputs": [
        {
          "internalType": "string",
          "name": "",
          "type": "string"
        }
      ],
      "stateMutability": "view",
      "type": "function"
    },
    {
      "inputs": [
        {
          "internalType": "string",
          "name": "_name",
          "type": "string"
        },
        {
          "internalType": "address",
          "name": "_token",
          "type": "address"
        },
        {
          "internalType": "uint256",
          "name": "_amount",
          "type": "uint256"
        }
      ],
      "name": "namedBalanceReceive",
      "outputs": [],
      "stateMutability": "nonpayable",
      "type": "function"
    },
    {
      "inputs": [
        {
          "internalType": "string",
          "name": "_name",
          "type": "string"
        },
        {
          "internalType": "address",
          "name": "_token",
          "type": "address"
        },
        {
          "internalType": "uint256",
          "name": "_amount",
          "type": "uint256"
        }
      ],
      "name": "namedBalanceSpend",
      "outputs": [],
      "stateMutability": "nonpayable",
      "type": "function"
    },
    {
      "inputs": [
        {
          "internalType": "string",
          "name": "",
          "type": "string"
        },
        {
          "internalType": "address",
          "name": "",
          "type": "address"
        }
      ],
      "name": "namedBalances",
      "outputs": [
        {
          "internalType": "uint256",
          "name": "",
          "type": "uint256"
        }
      ],
      "stateMutability": "view",
      "type": "function"
    },
    {
      "inputs": [],
      "name": "owner",
      "outputs": [
        {
          "internalType": "address",
          "name": "",
          "type": "address"
        }
      ],
      "stateMutability": "view",
      "type": "function"
    },
    {
      "inputs": [],
      "name": "renounceOwnership",
      "outputs": [],
      "stateMutability": "nonpayable",
      "type": "function"
    },
    {
      "inputs": [
        {
          "internalType": "address",
          "name": "_tokenAddress",
          "type": "address"
        },
        {
          "internalType": "address",
          "name": "_operator",
          "type": "address"
        },
        {
          "internalType": "bool",
          "name": "_approved",
          "type": "bool"
        }
      ],
      "name": "setERC1155ApprovalForAll",
      "outputs": [],
      "stateMutability": "nonpayable",
      "type": "function"
    },
    {
      "inputs": [
        {
          "internalType": "address",
          "name": "_tokenAddress",
          "type": "address"
        },
        {
          "internalType": "address",
          "name": "_operator",
          "type": "address"
        },
        {
          "internalType": "bool",
          "name": "_approved",
          "type": "bool"
        }
      ],
      "name": "setERC721ApprovalForAll",
      "outputs": [],
      "stateMutability": "nonpayable",
      "type": "function"
    },
    {
      "inputs": [
        {
          "internalType": "address",
          "name": "_tokenAddress",
          "type": "address"
        },
        {
          "internalType": "address",
          "name": "_to",
          "type": "address"
        },
        {
          "internalType": "uint256",
          "name": "_id",
          "type": "uint256"
        },
        {
          "internalType": "uint256",
          "name": "_value",
          "type": "uint256"
        },
        {
          "internalType": "bytes",
          "name": "_data",
          "type": "bytes"
        }
      ],
      "name": "transferERC1155",
      "outputs": [],
      "stateMutability": "nonpayable",
      "type": "function"
    },
    {
      "inputs": [
        {
          "internalType": "address",
          "name": "_tokenAddress",
          "type": "address"
        },
        {
          "internalType": "address",
          "name": "_to",
          "type": "address"
        },
        {
          "internalType": "uint256[]",
          "name": "_ids",
          "type": "uint256[]"
        },
        {
          "internalType": "uint256[]",
          "name": "_values",
          "type": "uint256[]"
        },
        {
          "internalType": "bytes",
          "name": "_data",
          "type": "bytes"
        }
      ],
      "name": "transferERC1155Batch",
      "outputs": [],
      "stateMutability": "nonpayable",
      "type": "function"
    },
    {
      "inputs": [
        {
          "internalType": "address",
          "name": "_tokenAddress",
          "type": "address"
        },
        {
          "internalType": "address",
          "name": "_to",
          "type": "address"
        },
        {
          "internalType": "uint256",
          "name": "_amount",
          "type": "uint256"
        }
      ],
      "name": "transferERC20",
      "outputs": [
        {
          "internalType": "bool",
          "name": "",
          "type": "bool"
        }
      ],
      "stateMutability": "nonpayable",
      "type": "function"
    },
    {
      "inputs": [
        {
          "internalType": "address",
          "name": "_tokenAddress",
          "type": "address"
        },
        {
          "internalType": "address",
          "name": "_to",
          "type": "address"
        },
        {
          "internalType": "uint256",
          "name": "_tokenId",
          "type": "uint256"
        }
      ],
      "name": "transferERC721",
      "outputs": [],
      "stateMutability": "nonpayable",
      "type": "function"
    },
    {
      "inputs": [
        {
          "internalType": "address payable",
          "name": "_to",
          "type": "address"
        },
        {
          "internalType": "uint256",
          "name": "_amount",
          "type": "uint256"
        }
      ],
      "name": "transferNative",
      "outputs": [],
      "stateMutability": "payable",
      "type": "function"
    },
    {
      "inputs": [
        {
          "internalType": "address",
          "name": "newOwner",
          "type": "address"
        }
      ],
      "name": "transferOwnership",
      "outputs": [],
      "stateMutability": "nonpayable",
      "type": "function"
    },
    {
      "stateMutability": "payable",
      "type": "receive"
    }
  ],
  "args": [
    "Ecosystem Fund"
  ],
  "numDeployments": 93,
  "solcInputHash": "588ed7405d90864e536233ccf9345898",
  "bytecode": "0x608060405234620000d55762001b3b803803806200001d8162000101565b92833981016020918281830312620000d55780516001600160401b0391828211620000d557019282601f85011215620000d5578351918211620000da575b6200006f601f8301601f1916820162000101565b92828452818386010111620000d5576000935b828510620000bf575081620000a09411620000b0575b5050620001cc565b6040516117fd90816200033e8239f35b60009183010152388062000098565b8481018201518486018301529381019362000082565b600080fd5b620000e4620000ea565b6200005b565b50634e487b7160e01b600052604160045260246000fd5b6040519190601f01601f191682016001600160401b038111838210176200012757604052565b62000131620000ea565b604052565b90600182811c9216801562000168575b60208310146200015257565b634e487b7160e01b600052602260045260246000fd5b91607f169162000146565b601f811162000180575050565b6000906003825260208220906020601f850160051c83019410620001c1575b601f0160051c01915b828110620001b557505050565b818155600101620001a8565b90925082906200019f565b60008054732f358b80ed2d296c09560d2b9f70a7f81d57e3526001600160a01b031982168117835560405193949390916001600160a01b0316907f8be0079c531659141344cd1fd0a4f28419497f9722a3daafe3b4186f6b6457e0908490a36002805463ffffffff191663d9b67a261790558251906001600160401b0382116200032d575b62000269826200026360035462000136565b62000173565b6020938491601f8411600114620002a85783949550926200029c575b50508160011b916000199060031b1c191617600355565b01519050388062000285565b6003600052601f198416957fc2575a0e9e593c00f959f8c92f12db2869c3395a3b0502d05e2516446f71f85b939291905b87821062000314575050836001959610620002fa575b505050811b01600355565b015160001960f88460031b161c19169055388080620002ef565b80600185968294968601518155019501930190620002d9565b62000337620000ea565b6200025156fe60806040526004361015610018575b361561001657005b005b60003560e01c80630530fa21146101bc57806306fdde03146101b3578063181d989b146101aa5780631aca6376146101a1578063217fe6c61461019857806339d2525f1461018f57806347ae6cc6146101865780636c49e0211461017d5780636d3005e314610174578063715018a61461016b5780637bfabc83146101625780637d2e90c21461015957806388a9d554146101505780638b3ed966146101475780638da5cb5b1461013e5780639db5dbe414610135578063d2454e8d1461012c578063dbecc61614610123578063e52ca9611461011a578063e7b7e8b4146101115763f2fde38b0361000e5761010c6112ea565b61000e565b5061010c611241565b5061010c61114c565b5061010c611047565b5061010c610faa565b5061010c610f1b565b5061010c610ec8565b5061010c610e6c565b5061010c610e31565b5061010c610d3a565b5061010c610cf7565b5061010c610c56565b5061010c610b7d565b5061010c610ac9565b5061010c6108f9565b5061010c6107df565b5061010c61073b565b5061010c61064f565b5061010c610596565b5061010c610439565b5061010c610363565b507f4e487b7100000000000000000000000000000000000000000000000000000000600052604160045260246000fd5b67ffffffffffffffff811161020957604052565b6102116101c5565b604052565b90601f7fffffffffffffffffffffffffffffffffffffffffffffffffffffffffffffffe0910116810190811067ffffffffffffffff82111761020957604052565b7fffffffffffffffffffffffffffffffffffffffffffffffffffffffffffffffe0601f60209267ffffffffffffffff8111610293575b01160190565b61029b6101c5565b61028d565b81601f820112156102e7578035906102b782610257565b926102c56040519485610216565b828452602083830101116102e757816000926020809301838601378301015290565b600080fd5b73ffffffffffffffffffffffffffffffffffffffff8116036102e757565b60407ffffffffffffffffffffffffffffffffffffffffffffffffffffffffffffffffc8201126102e7576004359067ffffffffffffffff82116102e757610353916004016102a0565b90602435610360816102ec565b90565b50346102e75760206103a661038161037a3661030a565b91906106ef565b9073ffffffffffffffffffffffffffffffffffffffff16600052602052604060002090565b54604051908152f35b60009103126102e757565b918091926000905b8282106103da5750116103d3575050565b6000910152565b915080602091830151818601520182916103c2565b7fffffffffffffffffffffffffffffffffffffffffffffffffffffffffffffffe0601f6040936020845261043281518092816020880152602088880191016103ba565b0116010190565b50346102e7576000807ffffffffffffffffffffffffffffffffffffffffffffffffffffffffffffffffc3601126105935760405190806003549060019180831c92808216928315610589575b602092838610851461055c57858852602088019490811561052257506001146104c9575b6104c5876104b981890382610216565b604051918291826103ef565b0390f35b600360005294509192917fc2575a0e9e593c00f959f8c92f12db2869c3395a3b0502d05e2516446f71f85b5b83861061051157505050910190506104b9826104c538806104a9565b8054858701529482019481016104f5565b7fffffffffffffffffffffffffffffffffffffffffffffffffffffffffffffff001685525050500191506104b99050826104c538806104a9565b6024827f4e487b710000000000000000000000000000000000000000000000000000000081526022600452fd5b93607f1693610485565b80fd5b50346102e75760207ffffffffffffffffffffffffffffffffffffffffffffffffffffffffffffffffc3601126102e75773ffffffffffffffffffffffffffffffffffffffff6004356105e7816102ec565b166000526004602052602060ff604060002054166040519015158152f35b7ffffffffffffffffffffffffffffffffffffffffffffffffffffffffffffffffc60609101126102e75760043561063b816102ec565b90602435610648816102ec565b9060443590565b50346102e75761065e36610605565b916106676114a8565b5073ffffffffffffffffffffffffffffffffffffffff809116803b156102e7576000928360649260405196879586947f23b872dd00000000000000000000000000000000000000000000000000000000865230600487015216602485015260448401525af180156106e2575b6106d957005b610016906101f5565b6106ea611515565b6106d3565b60206107089181604051938285809451938492016103ba565b8101600681520301902090565b60209061072f9282604051948386809551938492016103ba565b82019081520301902090565b50346102e75760407ffffffffffffffffffffffffffffffffffffffffffffffffffffffffffffffffc3601126102e757600435610777816102ec565b6024359067ffffffffffffffff82116102e7576107c960ff9173ffffffffffffffffffffffffffffffffffffffff6107b560209536906004016102a0565b911660005260018452604060002090610715565b54166040519015158152f35b801515036102e757565b50346102e75760607ffffffffffffffffffffffffffffffffffffffffffffffffffffffffffffffffc3601126102e75760043561081b816102ec565b60243567ffffffffffffffff81116102e75761083e6108749136906004016102a0565b73ffffffffffffffffffffffffffffffffffffffff60443593610860856107d5565b166000526001602052604060002090610715565b9060ff7fffffffffffffffffffffffffffffffffffffffffffffffffffffffffffffff00835416911515161790556000604051f35b7ffffffffffffffffffffffffffffffffffffffffffffffffffffffffffffffffc60609101126102e7576004356108df816102ec565b906024356108ec816102ec565b90604435610360816107d5565b50346102e75773ffffffffffffffffffffffffffffffffffffffff61091d366108a9565b9290916109286114a8565b5016916109b561099a602061093f60025460e01b90565b6040517f01ffc9a70000000000000000000000000000000000000000000000000000000081527fffffffff00000000000000000000000000000000000000000000000000000000909116600482015291829081906024820190565b0381885afa908115610a73575b600091610a45575b50611522565b823b156102e7576040517fa22cb46500000000000000000000000000000000000000000000000000000000815273ffffffffffffffffffffffffffffffffffffffff909216600483015215156024820152906000908290818381604481015b03925af18015610a38575b610a2557005b80610a32610016926101f5565b806103af565b610a40611515565b610a1f565b610a66915060203d8111610a6c575b610a5e8183610216565b810190611500565b386109af565b503d610a54565b610a7b611515565b6109a7565b60607ffffffffffffffffffffffffffffffffffffffffffffffffffffffffffffffffc8201126102e7576004359067ffffffffffffffff82116102e75761063b916004016102a0565b50346102e757610ad836610a80565b9190610ae26114a8565b5082610af182610381856106ef565b5410610b1f57610381610b03926106ef565b908154818110610b1257039055005b610b1a611797565b039055005b60646040517f08c379a000000000000000000000000000000000000000000000000000000000815260206004820152601460248201527f496e73756666696369656e742062616c616e63650000000000000000000000006044820152fd5b50346102e7576020610c0c81610b9236610605565b9190610b9c6114a8565b50600073ffffffffffffffffffffffffffffffffffffffff6040518097819682957f095ea7b3000000000000000000000000000000000000000000000000000000008452600484016020909392919373ffffffffffffffffffffffffffffffffffffffff60408201951681520152565b0393165af1908115610c49575b600091610c2c575b506040519015158152f35b610c439150823d8111610a6c57610a5e8183610216565b38610c21565b610c51611515565b610c19565b50346102e7576000807ffffffffffffffffffffffffffffffffffffffffffffffffffffffffffffffffc36011261059357610c8f611429565b80547fffffffffffffffffffffffff0000000000000000000000000000000000000000811682558173ffffffffffffffffffffffffffffffffffffffff60405192167f8be0079c531659141344cd1fd0a4f28419497f9722a3daafe3b4186f6b6457e08284a3f35b50346102e757610381610d1d610d0c36610a80565b939091610d176114a8565b506106ef565b90815481198111610d2d57019055005b610d35611797565b019055005b5060407ffffffffffffffffffffffffffffffffffffffffffffffffffffffffffffffffc3601126102e75760008080600435610d75816102ec565b610d7d6114a8565b506040519073ffffffffffffffffffffffffffffffffffffffff60243591165af13d15610e2c573d610dae81610257565b90610dbc6040519283610216565b8152600060203d92013e5b15610dce57005b60646040517f08c379a000000000000000000000000000000000000000000000000000000000815260206004820152601460248201527f4661696c656420746f2073656e642045746865720000000000000000000000006044820152fd5b610dc7565b50346102e75760007ffffffffffffffffffffffffffffffffffffffffffffffffffffffffffffffffc3601126102e757602047604051908152f35b50346102e75760206103a681610e99610e843661030a565b929081604051938285809451938492016103ba565b810160068152030190209073ffffffffffffffffffffffffffffffffffffffff16600052602052604060002090565b50346102e75760007ffffffffffffffffffffffffffffffffffffffffffffffffffffffffffffffffc3601126102e757602073ffffffffffffffffffffffffffffffffffffffff60005416604051908152f35b50346102e7576020610c0c81610f3036610605565b9190610f3a6114a8565b50600073ffffffffffffffffffffffffffffffffffffffff6040518097819682957fa9059cbb000000000000000000000000000000000000000000000000000000008452600484016020909392919373ffffffffffffffffffffffffffffffffffffffff60408201951681520152565b50346102e75760207ffffffffffffffffffffffffffffffffffffffffffffffffffffffffffffffffc3601126102e75773ffffffffffffffffffffffffffffffffffffffff600435610ffb816102ec565b166000526005602052602060ff604060002054166040519015158152f35b9181601f840112156102e75782359167ffffffffffffffff83116102e757602083818601950101116102e757565b50346102e75760a07ffffffffffffffffffffffffffffffffffffffffffffffffffffffffffffffffc3601126102e757600435611083816102ec565b60243561108f816102ec565b60843567ffffffffffffffff81116102e7576110c473ffffffffffffffffffffffffffffffffffffffff913690600401611019565b9190936110cf6114a8565b50166110fe6110e5602061093f60025460e01b90565b0381865afa908115610a7357600091610a455750611522565b803b156102e757610a149360008094604051968795869485937ff242432a000000000000000000000000000000000000000000000000000000008552606435906044359030600488016115ec565b50346102e75773ffffffffffffffffffffffffffffffffffffffff611170366108a9565b9161117c9391936114a8565b501690813b156102e7576040517fa22cb46500000000000000000000000000000000000000000000000000000000815273ffffffffffffffffffffffffffffffffffffffff939093166004840152151560248301526000919082908290604490829084905af18015611203575b6111f4575b50604051f35b6111fd906101f5565b386111ee565b61120b611515565b6111e9565b9181601f840112156102e75782359167ffffffffffffffff83116102e7576020808501948460051b0101116102e757565b50346102e75760a07ffffffffffffffffffffffffffffffffffffffffffffffffffffffffffffffffc3601126102e75760043561127d816102ec565b602435611289816102ec565b67ffffffffffffffff916044358381116102e7576112ab903690600401611210565b906064358581116102e7576112c4903690600401611210565b9290916084359687116102e7576112e2610016973690600401611019565b96909561162e565b50346102e75760207ffffffffffffffffffffffffffffffffffffffffffffffffffffffffffffffffc3601126102e757600435611326816102ec565b61132e611429565b73ffffffffffffffffffffffffffffffffffffffff8091169081156113a557600091825491817fffffffffffffffffffffffff0000000000000000000000000000000000000000841617845560405192167f8be0079c531659141344cd1fd0a4f28419497f9722a3daafe3b4186f6b6457e08484a3f35b60846040517f08c379a000000000000000000000000000000000000000000000000000000000815260206004820152602660248201527f4f776e61626c653a206e6577206f776e657220697320746865207a65726f206160448201527f64647265737300000000000000000000000000000000000000000000000000006064820152fd5b73ffffffffffffffffffffffffffffffffffffffff60005416330361144a57565b60646040517f08c379a000000000000000000000000000000000000000000000000000000000815260206004820152602060248201527f4f776e61626c653a2063616c6c6572206973206e6f7420746865206f776e65726044820152fd5b604051906040820182811067ffffffffffffffff8211176114f3575b604052600782527f7370656e646572000000000000000000000000000000000000000000000000006020830152565b6114fb6101c5565b6114c4565b908160209103126102e75751610360816107d5565b506040513d6000823e3d90fd5b1561152957565b60846040517f08c379a000000000000000000000000000000000000000000000000000000000815260206004820152602b60248201527f676976656e20746f6b656e206164647265737320646f65736e2774207375707060448201527f6f727420455243313135350000000000000000000000000000000000000000006064820152fd5b601f82602094937fffffffffffffffffffffffffffffffffffffffffffffffffffffffffffffffe0938186528686013760008582860101520116010190565b919261036096949160a09473ffffffffffffffffffffffffffffffffffffffff80921685521660208401526040830152606082015281608082015201916115ad565b73ffffffffffffffffffffffffffffffffffffffff90979692939594976116536114a8565b50169361168361166a602061093f60025460e01b90565b03818a5afa908115610a7357600091610a455750611522565b843b156102e75760009687936116ca926040519a8b998a9889977f2eb2c2d60000000000000000000000000000000000000000000000000000000089523060048a01611739565b03925af180156116eb575b6116dc5750565b80610a326116e9926101f5565b565b6116f3611515565b6116d5565b90918281527f07ffffffffffffffffffffffffffffffffffffffffffffffffffffffffffffff83116102e75760209260051b80928483013701016000815290565b9694926117899461177b926103609a989473ffffffffffffffffffffffffffffffffffffffff8092168b521660208a015260a060408a015260a08901916116f8565b9186830360608801526116f8565b9260808185039101526115ad565b507f4e487b7100000000000000000000000000000000000000000000000000000000600052601160045260246000fdfea2646970667358221220b69ce5bdf47757ce3ddb080a3d9c6382c0be905ee24e7926bf7f94efed2be69264736f6c634300080e0033"
}