{
  "address": "0x17a39a56577489B9b733eFf0d6e38EFC4d92Cec0",
  "abi": [
    {
      "inputs": [
        {
          "internalType": "contract PERIv2[]",
          "name": "_vpcs",
          "type": "address[]"
        },
        {
          "internalType": "contract IERC20[]",
          "name": "_tickets",
          "type": "address[]"
        },
        {
          "internalType": "uint256[]",
          "name": "_supportedChainIds",
          "type": "uint256[]"
        },
        {
          "internalType": "contract Vault",
          "name": "_curationRewardPool",
          "type": "address"
        },
        {
          "internalType": "contract NEND",
          "name": "_nend",
          "type": "address"
        }
      ],
      "stateMutability": "nonpayable",
      "type": "constructor"
    },
    {
      "anonymous": false,
      "inputs": [
        {
          "indexed": false,
          "internalType": "uint256",
          "name": "targetChainId",
          "type": "uint256"
        },
        {
          "indexed": false,
          "internalType": "address",
          "name": "sender",
          "type": "address"
        },
        {
          "indexed": false,
          "internalType": "address",
          "name": "recipient",
          "type": "address"
        },
        {
          "indexed": false,
          "internalType": "uint8",
          "name": "cardLevel",
          "type": "uint8"
        },
        {
          "indexed": false,
          "internalType": "uint256",
          "name": "tokenId",
          "type": "uint256"
        },
        {
          "indexed": false,
          "internalType": "bool",
          "name": "revealed",
          "type": "bool"
        },
        {
          "indexed": false,
          "internalType": "string",
          "name": "tokenHash",
          "type": "string"
        },
        {
          "indexed": false,
          "internalType": "uint256",
          "name": "nonce",
          "type": "uint256"
        },
        {
          "indexed": false,
          "internalType": "uint48",
          "name": "enteredAt",
          "type": "uint48"
        }
      ],
      "name": "EnterBridge",
      "type": "event"
    },
    {
      "anonymous": false,
      "inputs": [
        {
          "indexed": true,
          "internalType": "address",
          "name": "previousOwner",
          "type": "address"
        },
        {
          "indexed": true,
          "internalType": "address",
          "name": "newOwner",
          "type": "address"
        }
      ],
      "name": "OwnershipTransferred",
      "type": "event"
    },
    {
      "inputs": [
        {
          "internalType": "uint256",
          "name": "_targetChainId",
          "type": "uint256"
        },
        {
          "internalType": "address",
          "name": "_recipient",
          "type": "address"
        },
        {
          "internalType": "uint8",
          "name": "_cardLevel",
          "type": "uint8"
        },
        {
          "internalType": "uint256",
          "name": "_tokenId",
          "type": "uint256"
        }
      ],
      "name": "enterBridge",
      "outputs": [],
      "stateMutability": "nonpayable",
      "type": "function"
    },
    {
      "inputs": [
        {
          "internalType": "uint256",
          "name": "_sourceChainId",
          "type": "uint256"
        },
        {
          "internalType": "address",
          "name": "_recipient",
          "type": "address"
        },
        {
          "internalType": "uint8",
          "name": "_cardLevel",
          "type": "uint8"
        },
        {
          "internalType": "uint256",
          "name": "_tokenId",
          "type": "uint256"
        },
        {
          "internalType": "bool",
          "name": "_revealed",
          "type": "bool"
        },
        {
          "internalType": "string",
          "name": "_tokenHash",
          "type": "string"
        },
        {
          "internalType": "uint256",
          "name": "_nonce",
          "type": "uint256"
        }
      ],
      "name": "leaveBridge",
      "outputs": [],
      "stateMutability": "nonpayable",
      "type": "function"
    },
    {
      "inputs": [],
      "name": "owner",
      "outputs": [
        {
          "internalType": "address",
          "name": "",
          "type": "address"
        }
      ],
      "stateMutability": "view",
      "type": "function"
    },
    {
      "inputs": [],
      "name": "renounceOwnership",
      "outputs": [],
      "stateMutability": "nonpayable",
      "type": "function"
    },
    {
      "inputs": [
        {
          "internalType": "uint256",
          "name": "",
          "type": "uint256"
        }
      ],
      "name": "supportedChainIds",
      "outputs": [
        {
          "internalType": "uint256",
          "name": "",
          "type": "uint256"
        }
      ],
      "stateMutability": "view",
      "type": "function"
    },
    {
      "inputs": [
        {
          "internalType": "address",
          "name": "newOwner",
          "type": "address"
        }
      ],
      "name": "transferOwnership",
      "outputs": [],
      "stateMutability": "nonpayable",
      "type": "function"
    },
    {
      "inputs": [
        {
          "internalType": "uint256",
          "name": "",
          "type": "uint256"
        }
      ],
      "name": "vpcs",
      "outputs": [
        {
          "internalType": "contract PERIv2",
          "name": "",
          "type": "address"
        }
      ],
      "stateMutability": "view",
      "type": "function"
    }
  ],
  "transactionHash": "0xab163fdb9efd1346abec9134c5676ad38289d12518a5481c2ca520dbcd92bc6e",
  "args": [
    [
      "0x8c33B884dBB47e3b15885020E0C4B37C9aF2734E",
      "0x3A0c725ebE634767A163bb4dA482dd675b710239",
      "0xF4AbB7062d50B854BbAAb27259E4c1bf85Bd1204",
      "0x2ffc28980dA9098E857367335af46c0c5BfE7cE4"
    ],
    [
      "0xc9E1E496127E7F339Ea20B55aB4638C877a7C5fe",
      "0xc9E1E496127E7F339Ea20B55aB4638C877a7C5fe",
      "0xc9E1E496127E7F339Ea20B55aB4638C877a7C5fe",
      "0xc9E1E496127E7F339Ea20B55aB4638C877a7C5fe"
    ],
    [
      80001,
      4,
      97,
      43113
    ],
    "0xcA273aFCe69a578645F748DF94B49Bf16413a63D",
    "0x235D5eb29E540DB5D58Ba7CC4cC1fbf0118A1Fa2"
  ],
  "numDeployments": 6,
  "solcInputHash": "e6a8509ab9edc0773d6a6bd4cf2732fa",
  "bytecode": "0x60808060405234620001095762001acd803803809162000020828562000142565b833981019060a081830312620001095780516001600160401b039190828111620001095781019183601f8401121562000109578251620000608162000175565b9362000070604051958662000142565b818552602091828087019160051b83010191878311620001095783809101915b8383106200010e5750505050820151818111620001095784620000b5918401620001b1565b9060408301519081116200010957620000f994620000d591840162000223565b90620000f26080620000ea6060860162000289565b940162000289565b936200059f565b6040516112af9081620007fe8239f35b600080fd5b819083516200011d816200019f565b815201910190839062000090565b50634e487b7160e01b600052604160045260246000fd5b601f909101601f19168101906001600160401b038211908210176200016657604052565b620001706200012b565b604052565b6020906001600160401b0381116200018f575b60051b0190565b620001996200012b565b62000188565b6001600160a01b038116036200010957565b81601f820112156200010957805191620001cb8362000175565b92620001db604051948562000142565b808452602092838086019260051b82010192831162000109578301905b82821062000207575050505090565b838091835162000217816200019f565b815201910190620001f8565b81601f8201121562000109578051916200023d8362000175565b926200024d604051948562000142565b808452602092838086019260051b82010192831162000109578301905b82821062000279575050505090565b815181529083019083016200026a565b519062000296826200019f565b565b15620002a057565b60405162461bcd60e51b8152602060048201526012602482015271496e76616c696420767063206c6576656c7360701b6044820152606490fd5b50634e487b7160e01b600052601160045260246000fd5b60ff6001911660ff811462000304570190565b6200030e620002da565b0190565b8051821015620003275760209160051b010190565b634e487b7160e01b600052603260045260246000fd5b908160209103126200010957518015158103620001095790565b506040513d6000823e3d90fd5b90815168010000000000000000811162000409575b6001928354828555808310620003db575b5060208091019084600052806000206000925b848410620003ae5750505050509050565b805182546001600160a01b0319166001600160a01b0391909116178255928601929086019082016200039d565b600085815285846020832093840193015b838110620003fd575050506200038a565b828155018690620003ec565b620004136200012b565b62000379565b156200042157565b60405162461bcd60e51b815260206004820152602960248201527f4d7573742068617665206174206c656173742074776f2064657374696e6174696044820152686f6e20636861696e7360b81b6064820152608490fd5b8051906801000000000000000082116200051c575b60065482600655808310620004e2575b50600660009081529060209060008051602062001aad8339815191529082015b848410620004cc575050505050565b60018382829351855501920193019290620004bd565b6006600090815260008051602062001aad8339815191529182019184015b828110620005105750506200049d565b81815560010162000500565b620005266200012b565b6200048d565b156200053457565b60405162461bcd60e51b815260206004820152603460248201527f54686520686f7374656420636861696e206d757374206265206f6e65206f662060448201527f74686520737570706f7274656420636861696e730000000000000000000000006064820152608490fd5b919490939293620005af62000744565b600491620005c08385511462000298565b600094855b60ff811685811015620006b55790816200061962000605620005f86200061162000605620005f86200066a988c62000312565b516001600160a01b031690565b6001600160a01b031690565b938b62000312565b6040805163095ea7b360e01b81526001600160a01b03909216828a01908152612710602082810191909152938492849283918f9183910103925af18015620006a5575b62000670575b5050620002f1565b620005c5565b816200069492903d106200069d575b6200068b818362000142565b8101906200033d565b50388062000662565b503d6200067f565b620006af62000357565b6200065c565b505094509562000296959250620006eb9150620006d6620007229462000364565b620006e5600182511162000419565b62000478565b62000700620006fa46620007a2565b6200052c565b600280546001600160a01b0319166001600160a01b0392909216919091179055565b600380546001600160a01b0319166001600160a01b0392909216919091179055565b60008054732f358b80ed2d296c09560d2b9f70a7f81d57e3526001600160a01b031982168117835560405190926001600160a01b03909216917f8be0079c531659141344cd1fd0a4f28419497f9722a3daafe3b4186f6b6457e091a3565b60009060068054925b838110620007bc5750505050600090565b8160005282816020600020015414620007f4576001906000198114620007e4575b01620007ab565b620007ee620002da565b620007dd565b5050505060019056fe6040608081526004908136101561001557600080fd5b600090813560e01c9283632df9f3f7146100a85750505080634cf2ab321461009f57806359fea619146100965780635cf568cd1461008d578063715018a6146100845780638da5cb5b1461007b5763f2fde38b14610073575b600080fd5b61006e610781565b5061006e610759565b5061006e6106f8565b5061006e610692565b5061006e6105ee565b5061006e6104f1565b346103ef5760803660031901126103ef576024356100c581610474565b6100cd610485565b90606435926100ed60ff84168260018210159182610469575b50506108a5565b6101236101176101046100ff86610908565b6104ac565b90546001600160a01b039160031b1c1690565b6001600160a01b031690565b908551946331a9108f60e11b865261017060209687818061014b868883019190602083019252565b0381885afa90811561045c575b8a9161042f575b506001600160a01b0316331461094d565b6101856101176002546001600160a01b031690565b8861019b6101176003546001600160a01b031690565b895163c002d23d60e01b81529092898287818a5afa918215610422575b83926103f3575b50803b156103ef578a51632770a7eb60e21b81526001600160a01b039094168685019081526020810192909252839182908490829060400103925af180156103e2575b6103cf575b50823b156103cb5786516323b872dd60e01b815233838201908152306020820152604081018390527f7fcd41b856b58df3f891055d587c8102c43582176268717046e94415617fcdf89761032595909290918b9082908190606001038183865af180156103be575b6103a5575b508851632084ab8360e01b81528481018481528390829081906020010381855afa928315610398575b8b93610369575b5050898951809263c87b56dd60e01b825281806102c8888a83019190602083019252565b03915afa90811561035c575b8a9161033a575b50811561032b57806102f06102f69251610a83565b906111bb565b905b6005549261030d61030885610ab7565b600555565b895197889765ffffffffffff4216963390358a610af8565b0390a151f35b50610334610a51565b906102f8565b61035691503d808c833e61034e81836105a1565b8101906109f2565b8a6102db565b610364610940565b6102d4565b610389929350803d10610391575b61038181836105a1565b8101906109a8565b908a806102a4565b503d610377565b6103a0610940565b61029d565b806103b26103b892610564565b806106ed565b8a610274565b6103c6610940565b61026f565b8780fd5b806103b26103dc92610564565b88610207565b6103ea610940565b610202565b8280fd5b6104149192508a3d8c1161041b575b61040c81836105a1565b810190610999565b908c6101bf565b503d610402565b61042a610940565b6101b8565b61044f9150883d8a11610455575b61044781836105a1565b810190610928565b8a61015f565b503d61043d565b610464610940565b610158565b1115905082896100e6565b6001600160a01b0381160361006e57565b6044359060ff8216820361006e57565b50634e487b7160e01b600052603260045260246000fd5b6001548110156104e4575b60016000527fb10e2d527612073b26eecdfd717e6a320cf44b4afac2b0732d9fcbe2b7fa0cf60190600090565b6104ec610495565b6104b7565b503461006e57602036600319011261006e5760043560065481101561006e5760209060066000527ff652222313e28459528d920b65115c16c04f3efc82aaedc97be59f3f377c0d3f0154604051908152f35b8015150361006e57565b50634e487b7160e01b600052604160045260246000fd5b67ffffffffffffffff811161057857604052565b61058061054d565b604052565b6040810190811067ffffffffffffffff82111761057857604052565b90601f8019910116810190811067ffffffffffffffff82111761057857604052565b60209067ffffffffffffffff81116105e1575b601f01601f19160190565b6105e961054d565b6105d6565b503461006e5760e036600319011261006e5760243561060c81610474565b610614610485565b6084359161062183610543565b60a4359267ffffffffffffffff841161006e573660238501121561006e5783600401359161064e836105c3565b9261065c60405194856105a1565b808452366024828801011161006e5760208160009260246106909901838801378501015260c4359360643591600435610b59565b005b503461006e57602036600319011261006e5760043560015481101561006e576001600160a01b0360209160016000527fb10e2d527612073b26eecdfd717e6a320cf44b4afac2b0732d9fcbe2b7fa0cf6015416604051908152f35b600091031261006e57565b503461006e576000806003193601126107565761071361084d565b80546001600160a01b031981168255816001600160a01b0360405192167f8be0079c531659141344cd1fd0a4f28419497f9722a3daafe3b4186f6b6457e08284a3f35b80fd5b503461006e57600036600319011261006e5760206001600160a01b0360005416604051908152f35b503461006e57602036600319011261006e5760043561079f81610474565b6107a761084d565b6001600160a01b038091169081156107f957600091825491816001600160a01b0319841617845560405192167f8be0079c531659141344cd1fd0a4f28419497f9722a3daafe3b4186f6b6457e08484a3f35b60405162461bcd60e51b815260206004820152602660248201527f4f776e61626c653a206e6577206f776e657220697320746865207a65726f206160448201526564647265737360d01b6064820152608490fd5b6001600160a01b0360005416330361086157565b606460405162461bcd60e51b815260206004820152602060248201527f4f776e61626c653a2063616c6c6572206973206e6f7420746865206f776e65726044820152fd5b156108ac57565b60405162461bcd60e51b815260206004820152601260248201527f496e76616c69642063617264206c6576656c00000000000000000000000000006044820152606490fd5b50634e487b7160e01b600052601160045260246000fd5b60ff166001811061091b575b6000190190565b6109236108f1565b610914565b9081602091031261006e575161093d81610474565b90565b506040513d6000823e3d90fd5b1561095457565b60405162461bcd60e51b815260206004820152600e60248201527f4e6f742063617264206f776e65720000000000000000000000000000000000006044820152606490fd5b9081602091031261006e575190565b9081602091031261006e575161093d81610543565b918091926000905b8282106109dd5750116109d6575050565b6000910152565b915080602091830151818601520182916109c5565b60208183031261006e5780519067ffffffffffffffff821161006e570181601f8201121561006e578051610a25816105c3565b92610a3360405194856105a1565b8184526020828401011161006e5761093d91602080850191016109bd565b604051906020820182811067ffffffffffffffff821117610a76575b60405260008252565b610a7e61054d565b610a6d565b60058110610a93575b6004190190565b610a9b6108f1565b610a8c565b818110610aab570390565b610ab36108f1565b0390565b6001906000198114610ac7570190565b610acf6108f1565b0190565b90602091610aec815180928185528580860191016109bd565b601f01601f1916010190565b9799989490610b4d9465ffffffffffff9793610100999560ff938c526001600160a01b0380921660208d01521660408b01521660608901526080880152151560a08701526101208060c0880152860190610ad3565b9560e085015216910152565b90610b89969594939291610b6b61084d565b610b8460ff841660018110159081610b8b575b506108a5565b610cf2565b565b60049150111538610b7e565b15610b9e57565b60405162461bcd60e51b815260206004820152601760248201527f565043206e6f74206f776e6564206279206272696467650000000000000000006044820152606490fd5b6001906001198111610ac7570190565b60405190610c0082610585565b6001825260203681840137565b602090805115610c1b570190565b610acf610495565b604051610c2f81610585565b600181528060005b602080821015610c5257906060602092828501015201610c37565b50505090565b906040820191604081528151809352606081019260208093019060005b818110610cde57505050818184039101528251908183528083019281808460051b8301019501936000915b848310610cb05750505050505090565b9091929394958480610cce600193601f198682030187528a51610ad3565b9801930193019194939290610ca0565b825186529484019491840191600101610c75565b919095610d26610d1f82610d10866000526004602052604060002090565b90600052602052604060002090565b5460ff1690565b611193576100ff61011792610d5f610d5261010494610d10610d64986000526004602052604060002090565b805460ff19166001179055565b610908565b90604094855194633b330f2160e11b9485875260209560049787818a818a5afa908115611186575b600091611169575b5085108015906110f6575b610da890610b97565b885181815287818a818a5afa9081156110e9575b6000916110cc575b5085101561101d575b5080610fbb575b610f31575b50823b1561006e5785516323b872dd60e01b8152308682019081526001600160a01b039092166020830152604082019290925260009082908190606001038183865af18015610f24575b610f11575b50610e3e6101176003546001600160a01b031690565b908383610e566101176002546001600160a01b031690565b9287519283809263c002d23d60e01b82525afa938415610f04575b600094610ee5575b5050813b1561006e5760008094610eb99651968795869485936340c10f1960e01b85528401602090939291936001600160a01b0360408201951681520152565b03925af18015610ed8575b610ecb5750565b806103b2610b8992610564565b610ee0610940565b610ec4565b610efc929450803d1061041b5761040c81836105a1565b913880610e79565b610f0c610940565b610e71565b806103b2610f1e92610564565b38610e28565b610f2c610940565b610e23565b610f39610bf3565b83610f4382610c0d565b52610f4c610c23565b91610f5683610c0d565b52610f6082610c0d565b50843b1561006e5787516314f79e0160e21b81529160009183918291610f8991908b8401610c58565b038183885af18015610fae575b15610dd957806103b2610fa892610564565b38610dd9565b610fb6610940565b610f96565b508651632084ab8360e01b81528681018481528690829081906020010381885afa908115611010575b600091610ff3575b5015610dd4565b61100a9150863d88116103915761038181836105a1565b38610fec565b611018610940565b610fe4565b61104761104c918a5190815288818b818b5afa9081156110bf575b6000916110a2575b5086610aa0565b610be3565b853b1561006e5788516302b140d360e41b815288810191825290600090829081906020010381838a5af18015611095575b15610dcd57806103b261108f92610564565b38610dcd565b61109d610940565b61107d565b6110b99150893d8b1161041b5761040c81836105a1565b38611040565b6110c7610940565b611038565b6110e39150883d8a1161041b5761040c81836105a1565b38610dc4565b6110f1610940565b610dbc565b5088516331a9108f60e11b8152808901868152610da8919089908290819060200103818b5afa90811561115c575b60009161113f575b506001600160a01b031630149050610d9f565b6111569150893d8b116104555761044781836105a1565b3861112c565b611164610940565b611124565b6111809150883d8a1161041b5761040c81836105a1565b38610d94565b61118e610940565b610d8c565b50505050505050565b9060209180518210156111ae57010190565b6111b6610495565b010190565b90604380821061126c575b60421990818301936111d7856105c3565b946111e560405196876105a1565b8086526111f4601f19916105c3565b01366020870137815b84811061120c57505050505090565b61125a907fff0000000000000000000000000000000000000000000000000000000000000061123b828561119c565b511684821061125f575b60001a6112548683018961119c565b53610ab7565b6111fd565b6112676108f1565b611245565b6112746108f1565b6111c656fea264697066735822122098d31445860562af1b3341d481e0d710216f1974be815693fb9d70cd8e96a9e864736f6c634300080e0033f652222313e28459528d920b65115c16c04f3efc82aaedc97be59f3f377c0d3f",
  "devdoc": {
    "kind": "dev",
    "methods": {
      "owner()": {
        "details": "Returns the address of the current owner."
      },
      "renounceOwnership()": {
        "details": "Leaves the contract without owner. It will not be possible to call `onlyOwner` functions anymore. Can only be called by the current owner. NOTE: Renouncing ownership will leave the contract without an owner, thereby removing any functionality that is only available to the owner."
      },
      "transferOwnership(address)": {
        "details": "Transfers ownership of the contract to a new account (`newOwner`). Can only be called by the current owner."
      }
    },
    "version": 1
  },
  "userdoc": {
    "kind": "user",
    "methods": {},
    "version": 1
  },
  "storageLayout": {
    "storage": [
      {
        "astId": 8357,
        "contract": "contracts/voting/VPCBridge.sol:VPCBridge",
        "label": "_owner",
        "offset": 0,
        "slot": "0",
        "type": "t_address"
      },
      {
        "astId": 29317,
        "contract": "contracts/voting/VPCBridge.sol:VPCBridge",
        "label": "vpcs",
        "offset": 0,
        "slot": "1",
        "type": "t_array(t_contract(PERIv2)28768)dyn_storage"
      },
      {
        "astId": 29320,
        "contract": "contracts/voting/VPCBridge.sol:VPCBridge",
        "label": "curationRewardPool",
        "offset": 0,
        "slot": "2",
        "type": "t_contract(Vault)25234"
      },
      {
        "astId": 29323,
        "contract": "contracts/voting/VPCBridge.sol:VPCBridge",
        "label": "nend",
        "offset": 0,
        "slot": "3",
        "type": "t_contract(NEND)24137"
      },
      {
        "astId": 29364,
        "contract": "contracts/voting/VPCBridge.sol:VPCBridge",
        "label": "chainNonceToExecutedMapping",
        "offset": 0,
        "slot": "4",
        "type": "t_mapping(t_uint256,t_mapping(t_uint256,t_bool))"
      },
      {
        "astId": 29366,
        "contract": "contracts/voting/VPCBridge.sol:VPCBridge",
        "label": "nonce",
        "offset": 0,
        "slot": "5",
        "type": "t_uint256"
      },
      {
        "astId": 29369,
        "contract": "contracts/voting/VPCBridge.sol:VPCBridge",
        "label": "supportedChainIds",
        "offset": 0,
        "slot": "6",
        "type": "t_array(t_uint256)dyn_storage"
      }
    ],
    "types": {
      "t_address": {
        "encoding": "inplace",
        "label": "address",
        "numberOfBytes": "20"
      },
      "t_array(t_contract(PERIv2)28768)dyn_storage": {
        "base": "t_contract(PERIv2)28768",
        "encoding": "dynamic_array",
        "label": "contract PERIv2[]",
        "numberOfBytes": "32"
      },
      "t_array(t_uint256)dyn_storage": {
        "base": "t_uint256",
        "encoding": "dynamic_array",
        "label": "uint256[]",
        "numberOfBytes": "32"
      },
      "t_bool": {
        "encoding": "inplace",
        "label": "bool",
        "numberOfBytes": "1"
      },
      "t_contract(NEND)24137": {
        "encoding": "inplace",
        "label": "contract NEND",
        "numberOfBytes": "20"
      },
      "t_contract(PERIv2)28768": {
        "encoding": "inplace",
        "label": "contract PERIv2",
        "numberOfBytes": "20"
      },
      "t_contract(Vault)25234": {
        "encoding": "inplace",
        "label": "contract Vault",
        "numberOfBytes": "20"
      },
      "t_mapping(t_uint256,t_bool)": {
        "encoding": "mapping",
        "key": "t_uint256",
        "label": "mapping(uint256 => bool)",
        "numberOfBytes": "32",
        "value": "t_bool"
      },
      "t_mapping(t_uint256,t_mapping(t_uint256,t_bool))": {
        "encoding": "mapping",
        "key": "t_uint256",
        "label": "mapping(uint256 => mapping(uint256 => bool))",
        "numberOfBytes": "32",
        "value": "t_mapping(t_uint256,t_bool)"
      },
      "t_uint256": {
        "encoding": "inplace",
        "label": "uint256",
        "numberOfBytes": "32"
      }
    }
  }
}